{
	"test.sol": {
		"PriceOracleManipulation": {
			"abi": [
				{
					"inputs": [
						{
							"internalType": "address",
							"name": "_priceFeed",
							"type": "address"
						}
					],
					"stateMutability": "nonpayable",
					"type": "constructor"
				},
				{
					"anonymous": false,
					"inputs": [
						{
							"indexed": true,
							"internalType": "address",
							"name": "user",
							"type": "address"
						},
						{
							"indexed": false,
							"internalType": "uint256",
							"name": "amount",
							"type": "uint256"
						},
						{
							"indexed": false,
							"internalType": "uint256",
							"name": "collateralValue",
							"type": "uint256"
						}
					],
					"name": "Borrowed",
					"type": "event"
				},
				{
					"anonymous": false,
					"inputs": [
						{
							"indexed": true,
							"internalType": "address",
							"name": "user",
							"type": "address"
						},
						{
							"indexed": false,
							"internalType": "uint256",
							"name": "amount",
							"type": "uint256"
						}
					],
					"name": "Repaid",
					"type": "event"
				},
				{
					"inputs": [
						{
							"internalType": "uint256",
							"name": "amount",
							"type": "uint256"
						}
					],
					"name": "borrow",
					"outputs": [],
					"stateMutability": "nonpayable",
					"type": "function"
				},
				{
					"inputs": [
						{
							"internalType": "address",
							"name": "",
							"type": "address"
						}
					],
					"name": "borrowedAmount",
					"outputs": [
						{
							"internalType": "uint256",
							"name": "",
							"type": "uint256"
						}
					],
					"stateMutability": "view",
					"type": "function"
				},
				{
					"inputs": [
						{
							"internalType": "address",
							"name": "",
							"type": "address"
						}
					],
					"name": "collateral",
					"outputs": [
						{
							"internalType": "uint256",
							"name": "",
							"type": "uint256"
						}
					],
					"stateMutability": "view",
					"type": "function"
				},
				{
					"inputs": [],
					"name": "owner",
					"outputs": [
						{
							"internalType": "address",
							"name": "",
							"type": "address"
						}
					],
					"stateMutability": "view",
					"type": "function"
				},
				{
					"inputs": [],
					"name": "priceFeed",
					"outputs": [
						{
							"internalType": "contract IPriceFeed",
							"name": "",
							"type": "address"
						}
					],
					"stateMutability": "view",
					"type": "function"
				},
				{
					"inputs": [
						{
							"internalType": "uint256",
							"name": "amount",
							"type": "uint256"
						}
					],
					"name": "repay",
					"outputs": [],
					"stateMutability": "nonpayable",
					"type": "function"
				}
			],
			"devdoc": {
				"kind": "dev",
				"methods": {},
				"version": 1
			},
			"evm": {
				"assembly": "    /* \"test.sol\":149:1242  contract PriceOracleManipulation {... */\n  mstore(0x40, 0x80)\n    /* \"test.sol\":503:617  constructor(address _priceFeed) {... */\n  callvalue\n  dup1\n  iszero\n  tag_1\n  jumpi\n  0x00\n  dup1\n  revert\ntag_1:\n  pop\n  mload(0x40)\n  sub(codesize, bytecodeSize)\n  dup1\n  bytecodeSize\n  dup4\n  codecopy\n  dup2\n  dup2\n  add\n  0x40\n  mstore\n  dup2\n  add\n  swap1\n  tag_2\n  swap2\n  swap1\n  tag_3\n  jump\t// in\ntag_2:\n    /* \"test.sol\":554:564  msg.sender */\n  caller\n    /* \"test.sol\":546:551  owner */\n  0x00\n  dup1\n    /* \"test.sol\":546:564  owner = msg.sender */\n  0x0100\n  exp\n  dup2\n  sload\n  dup2\n  0xffffffffffffffffffffffffffffffffffffffff\n  mul\n  not\n  and\n  swap1\n  dup4\n  0xffffffffffffffffffffffffffffffffffffffff\n  and\n  mul\n  or\n  swap1\n  sstore\n  pop\n    /* \"test.sol\":598:608  _priceFeed */\n  dup1\n    /* \"test.sol\":575:584  priceFeed */\n  0x01\n  0x00\n    /* \"test.sol\":575:609  priceFeed = IPriceFeed(_priceFeed) */\n  0x0100\n  exp\n  dup2\n  sload\n  dup2\n  0xffffffffffffffffffffffffffffffffffffffff\n  mul\n  not\n  and\n  swap1\n  dup4\n  0xffffffffffffffffffffffffffffffffffffffff\n  and\n  mul\n  or\n  swap1\n  sstore\n  pop\n    /* \"test.sol\":503:617  constructor(address _priceFeed) {... */\n  pop\n    /* \"test.sol\":149:1242  contract PriceOracleManipulation {... */\n  jump(tag_6)\n    /* \"#utility.yul\":88:205   */\ntag_8:\n    /* \"#utility.yul\":197:198   */\n  0x00\n    /* \"#utility.yul\":194:195   */\n  dup1\n    /* \"#utility.yul\":187:199   */\n  revert\n    /* \"#utility.yul\":334:460   */\ntag_10:\n    /* \"#utility.yul\":371:378   */\n  0x00\n    /* \"#utility.yul\":411:453   */\n  0xffffffffffffffffffffffffffffffffffffffff\n    /* \"#utility.yul\":404:409   */\n  dup3\n    /* \"#utility.yul\":400:454   */\n  and\n    /* \"#utility.yul\":389:454   */\n  swap1\n  pop\n    /* \"#utility.yul\":334:460   */\n  swap2\n  swap1\n  pop\n  jump\t// out\n    /* \"#utility.yul\":466:562   */\ntag_11:\n    /* \"#utility.yul\":503:510   */\n  0x00\n    /* \"#utility.yul\":532:556   */\n  tag_20\n    /* \"#utility.yul\":550:555   */\n  dup3\n    /* \"#utility.yul\":532:556   */\n  tag_10\n  jump\t// in\ntag_20:\n    /* \"#utility.yul\":521:556   */\n  swap1\n  pop\n    /* \"#utility.yul\":466:562   */\n  swap2\n  swap1\n  pop\n  jump\t// out\n    /* \"#utility.yul\":568:690   */\ntag_12:\n    /* \"#utility.yul\":641:665   */\n  tag_22\n    /* \"#utility.yul\":659:664   */\n  dup2\n    /* \"#utility.yul\":641:665   */\n  tag_11\n  jump\t// in\ntag_22:\n    /* \"#utility.yul\":634:639   */\n  dup2\n    /* \"#utility.yul\":631:666   */\n  eq\n    /* \"#utility.yul\":621:684   */\n  tag_23\n  jumpi\n    /* \"#utility.yul\":680:681   */\n  0x00\n    /* \"#utility.yul\":677:678   */\n  dup1\n    /* \"#utility.yul\":670:682   */\n  revert\n    /* \"#utility.yul\":621:684   */\ntag_23:\n    /* \"#utility.yul\":568:690   */\n  pop\n  jump\t// out\n    /* \"#utility.yul\":696:839   */\ntag_13:\n    /* \"#utility.yul\":753:758   */\n  0x00\n    /* \"#utility.yul\":784:790   */\n  dup2\n    /* \"#utility.yul\":778:791   */\n  mload\n    /* \"#utility.yul\":769:791   */\n  swap1\n  pop\n    /* \"#utility.yul\":800:833   */\n  tag_25\n    /* \"#utility.yul\":827:832   */\n  dup2\n    /* \"#utility.yul\":800:833   */\n  tag_12\n  jump\t// in\ntag_25:\n    /* \"#utility.yul\":696:839   */\n  swap3\n  swap2\n  pop\n  pop\n  jump\t// out\n    /* \"#utility.yul\":845:1196   */\ntag_3:\n    /* \"#utility.yul\":915:921   */\n  0x00\n    /* \"#utility.yul\":964:966   */\n  0x20\n    /* \"#utility.yul\":952:961   */\n  dup3\n    /* \"#utility.yul\":943:950   */\n  dup5\n    /* \"#utility.yul\":939:962   */\n  sub\n    /* \"#utility.yul\":935:967   */\n  slt\n    /* \"#utility.yul\":932:1051   */\n  iszero\n  tag_27\n  jumpi\n    /* \"#utility.yul\":970:1049   */\n  tag_28\n  tag_8\n  jump\t// in\ntag_28:\n    /* \"#utility.yul\":932:1051   */\ntag_27:\n    /* \"#utility.yul\":1090:1091   */\n  0x00\n    /* \"#utility.yul\":1115:1179   */\n  tag_29\n    /* \"#utility.yul\":1171:1178   */\n  dup5\n    /* \"#utility.yul\":1162:1168   */\n  dup3\n    /* \"#utility.yul\":1151:1160   */\n  dup6\n    /* \"#utility.yul\":1147:1169   */\n  add\n    /* \"#utility.yul\":1115:1179   */\n  tag_13\n  jump\t// in\ntag_29:\n    /* \"#utility.yul\":1105:1179   */\n  swap2\n  pop\n    /* \"#utility.yul\":1061:1189   */\n  pop\n    /* \"#utility.yul\":845:1196   */\n  swap3\n  swap2\n  pop\n  pop\n  jump\t// out\n    /* \"test.sol\":149:1242  contract PriceOracleManipulation {... */\ntag_6:\n  dataSize(sub_0)\n  dup1\n  dataOffset(sub_0)\n  0x00\n  codecopy\n  0x00\n  return\nstop\n\nsub_0: assembly {\n        /* \"test.sol\":149:1242  contract PriceOracleManipulation {... */\n      mstore(0x40, 0x80)\n      callvalue\n      dup1\n      iszero\n      tag_1\n      jumpi\n      0x00\n      dup1\n      revert\n    tag_1:\n      pop\n      jumpi(tag_2, lt(calldatasize, 0x04))\n      shr(0xe0, calldataload(0x00))\n      dup1\n      0x371fd8e6\n      eq\n      tag_3\n      jumpi\n      dup1\n      0x741bef1a\n      eq\n      tag_4\n      jumpi\n      dup1\n      0x8da5cb5b\n      eq\n      tag_5\n      jumpi\n      dup1\n      0x948adb8f\n      eq\n      tag_6\n      jumpi\n      dup1\n      0xa5fdc5de\n      eq\n      tag_7\n      jumpi\n      dup1\n      0xc5ebeaec\n      eq\n      tag_8\n      jumpi\n    tag_2:\n      0x00\n      dup1\n      revert\n        /* \"test.sol\":1008:1239  function repay(uint256 amount) public {... */\n    tag_3:\n      tag_9\n      0x04\n      dup1\n      calldatasize\n      sub\n      dup2\n      add\n      swap1\n      tag_10\n      swap2\n      swap1\n      tag_11\n      jump\t// in\n    tag_10:\n      tag_12\n      jump\t// in\n    tag_9:\n      stop\n        /* \"test.sol\":216:243  IPriceFeed public priceFeed */\n    tag_4:\n      tag_13\n      tag_14\n      jump\t// in\n    tag_13:\n      mload(0x40)\n      tag_15\n      swap2\n      swap1\n      tag_16\n      jump\t// in\n    tag_15:\n      mload(0x40)\n      dup1\n      swap2\n      sub\n      swap1\n      return\n        /* \"test.sol\":189:209  address public owner */\n    tag_5:\n      tag_17\n      tag_18\n      jump\t// in\n    tag_17:\n      mload(0x40)\n      tag_19\n      swap2\n      swap1\n      tag_20\n      jump\t// in\n    tag_19:\n      mload(0x40)\n      dup1\n      swap2\n      sub\n      swap1\n      return\n        /* \"test.sol\":250:299  mapping(address => uint256) public borrowedAmount */\n    tag_6:\n      tag_21\n      0x04\n      dup1\n      calldatasize\n      sub\n      dup2\n      add\n      swap1\n      tag_22\n      swap2\n      swap1\n      tag_23\n      jump\t// in\n    tag_22:\n      tag_24\n      jump\t// in\n    tag_21:\n      mload(0x40)\n      tag_25\n      swap2\n      swap1\n      tag_26\n      jump\t// in\n    tag_25:\n      mload(0x40)\n      dup1\n      swap2\n      sub\n      swap1\n      return\n        /* \"test.sol\":306:351  mapping(address => uint256) public collateral */\n    tag_7:\n      tag_27\n      0x04\n      dup1\n      calldatasize\n      sub\n      dup2\n      add\n      swap1\n      tag_28\n      swap2\n      swap1\n      tag_23\n      jump\t// in\n    tag_28:\n      tag_29\n      jump\t// in\n    tag_27:\n      mload(0x40)\n      tag_30\n      swap2\n      swap1\n      tag_26\n      jump\t// in\n    tag_30:\n      mload(0x40)\n      dup1\n      swap2\n      sub\n      swap1\n      return\n        /* \"test.sol\":625:1000  function borrow(uint256 amount) public {... */\n    tag_8:\n      tag_31\n      0x04\n      dup1\n      calldatasize\n      sub\n      dup2\n      add\n      swap1\n      tag_32\n      swap2\n      swap1\n      tag_11\n      jump\t// in\n    tag_32:\n      tag_33\n      jump\t// in\n    tag_31:\n      stop\n        /* \"test.sol\":1008:1239  function repay(uint256 amount) public {... */\n    tag_12:\n        /* \"test.sol\":1095:1101  amount */\n      dup1\n        /* \"test.sol\":1065:1079  borrowedAmount */\n      0x02\n        /* \"test.sol\":1065:1091  borrowedAmount[msg.sender] */\n      0x00\n        /* \"test.sol\":1080:1090  msg.sender */\n      caller\n        /* \"test.sol\":1065:1091  borrowedAmount[msg.sender] */\n      0xffffffffffffffffffffffffffffffffffffffff\n      and\n      0xffffffffffffffffffffffffffffffffffffffff\n      and\n      dup2\n      mstore\n      0x20\n      add\n      swap1\n      dup2\n      mstore\n      0x20\n      add\n      0x00\n      keccak256\n      sload\n        /* \"test.sol\":1065:1101  borrowedAmount[msg.sender] >= amount */\n      lt\n      iszero\n        /* \"test.sol\":1057:1142  require(borrowedAmount[msg.sender] >= amount, \"Repay amount exceeds borrowed amount\") */\n      tag_35\n      jumpi\n      mload(0x40)\n      0x08c379a000000000000000000000000000000000000000000000000000000000\n      dup2\n      mstore\n      0x04\n      add\n      tag_36\n      swap1\n      tag_37\n      jump\t// in\n    tag_36:\n      mload(0x40)\n      dup1\n      swap2\n      sub\n      swap1\n      revert\n    tag_35:\n        /* \"test.sol\":1183:1189  amount */\n      dup1\n        /* \"test.sol\":1153:1167  borrowedAmount */\n      0x02\n        /* \"test.sol\":1153:1179  borrowedAmount[msg.sender] */\n      0x00\n        /* \"test.sol\":1168:1178  msg.sender */\n      caller\n        /* \"test.sol\":1153:1179  borrowedAmount[msg.sender] */\n      0xffffffffffffffffffffffffffffffffffffffff\n      and\n      0xffffffffffffffffffffffffffffffffffffffff\n      and\n      dup2\n      mstore\n      0x20\n      add\n      swap1\n      dup2\n      mstore\n      0x20\n      add\n      0x00\n      keccak256\n      0x00\n        /* \"test.sol\":1153:1189  borrowedAmount[msg.sender] -= amount */\n      dup3\n      dup3\n      sload\n      tag_38\n      swap2\n      swap1\n      tag_39\n      jump\t// in\n    tag_38:\n      swap3\n      pop\n      pop\n      dup2\n      swap1\n      sstore\n      pop\n        /* \"test.sol\":1212:1222  msg.sender */\n      caller\n        /* \"test.sol\":1205:1231  Repaid(msg.sender, amount) */\n      0xffffffffffffffffffffffffffffffffffffffff\n      and\n      0x0516911bcc3a0a7412a44601057c0a0a1ec628bde049a84284bc428866534488\n        /* \"test.sol\":1224:1230  amount */\n      dup3\n        /* \"test.sol\":1205:1231  Repaid(msg.sender, amount) */\n      mload(0x40)\n      tag_40\n      swap2\n      swap1\n      tag_26\n      jump\t// in\n    tag_40:\n      mload(0x40)\n      dup1\n      swap2\n      sub\n      swap1\n      log2\n        /* \"test.sol\":1008:1239  function repay(uint256 amount) public {... */\n      pop\n      jump\t// out\n        /* \"test.sol\":216:243  IPriceFeed public priceFeed */\n    tag_14:\n      0x01\n      0x00\n      swap1\n      sload\n      swap1\n      0x0100\n      exp\n      swap1\n      div\n      0xffffffffffffffffffffffffffffffffffffffff\n      and\n      dup2\n      jump\t// out\n        /* \"test.sol\":189:209  address public owner */\n    tag_18:\n      0x00\n      dup1\n      sload\n      swap1\n      0x0100\n      exp\n      swap1\n      div\n      0xffffffffffffffffffffffffffffffffffffffff\n      and\n      dup2\n      jump\t// out\n        /* \"test.sol\":250:299  mapping(address => uint256) public borrowedAmount */\n    tag_24:\n      mstore(0x20, 0x02)\n      dup1\n      0x00\n      mstore\n      keccak256(0x00, 0x40)\n      0x00\n      swap2\n      pop\n      swap1\n      pop\n      sload\n      dup2\n      jump\t// out\n        /* \"test.sol\":306:351  mapping(address => uint256) public collateral */\n    tag_29:\n      mstore(0x20, 0x03)\n      dup1\n      0x00\n      mstore\n      keccak256(0x00, 0x40)\n      0x00\n      swap2\n      pop\n      swap1\n      pop\n      sload\n      dup2\n      jump\t// out\n        /* \"test.sol\":625:1000  function borrow(uint256 amount) public {... */\n    tag_33:\n        /* \"test.sol\":675:684  int price */\n      0x00\n        /* \"test.sol\":687:696  priceFeed */\n      0x01\n      0x00\n      swap1\n      sload\n      swap1\n      0x0100\n      exp\n      swap1\n      div\n      0xffffffffffffffffffffffffffffffffffffffff\n      and\n        /* \"test.sol\":687:711  priceFeed.getLatestPrice */\n      0xffffffffffffffffffffffffffffffffffffffff\n      and\n      0x8e15f473\n        /* \"test.sol\":687:713  priceFeed.getLatestPrice() */\n      mload(0x40)\n      dup2\n      0xffffffff\n      and\n      0xe0\n      shl\n      dup2\n      mstore\n      0x04\n      add\n      0x20\n      mload(0x40)\n      dup1\n      dup4\n      sub\n      dup2\n      dup7\n      gas\n      staticcall\n      iszero\n      dup1\n      iszero\n      tag_43\n      jumpi\n      returndatasize\n      0x00\n      dup1\n      returndatacopy\n      revert(0x00, returndatasize)\n    tag_43:\n      pop\n      pop\n      pop\n      pop\n      mload(0x40)\n      returndatasize\n      not(0x1f)\n      0x1f\n      dup3\n      add\n      and\n      dup3\n      add\n      dup1\n      0x40\n      mstore\n      pop\n      dup2\n      add\n      swap1\n      tag_44\n      swap2\n      swap1\n      tag_45\n      jump\t// in\n    tag_44:\n        /* \"test.sol\":675:713  int price = priceFeed.getLatestPrice() */\n      swap1\n      pop\n        /* \"test.sol\":740:741  0 */\n      0x00\n        /* \"test.sol\":732:737  price */\n      dup2\n        /* \"test.sol\":732:741  price > 0 */\n      sgt\n        /* \"test.sol\":724:768  require(price > 0, \"Price must be positive\") */\n      tag_46\n      jumpi\n      mload(0x40)\n      0x08c379a000000000000000000000000000000000000000000000000000000000\n      dup2\n      mstore\n      0x04\n      add\n      tag_47\n      swap1\n      tag_48\n      jump\t// in\n    tag_47:\n      mload(0x40)\n      dup1\n      swap2\n      sub\n      swap1\n      revert\n    tag_46:\n        /* \"test.sol\":781:804  uint256 collateralValue */\n      0x00\n        /* \"test.sol\":824:830  amount */\n      dup3\n        /* \"test.sol\":815:820  price */\n      dup3\n        /* \"test.sol\":807:830  uint256(price) * amount */\n      tag_49\n      swap2\n      swap1\n      tag_50\n      jump\t// in\n    tag_49:\n        /* \"test.sol\":781:830  uint256 collateralValue = uint256(price) * amount */\n      swap1\n      pop\n        /* \"test.sol\":867:882  collateralValue */\n      dup1\n        /* \"test.sol\":841:851  collateral */\n      0x03\n        /* \"test.sol\":841:863  collateral[msg.sender] */\n      0x00\n        /* \"test.sol\":852:862  msg.sender */\n      caller\n        /* \"test.sol\":841:863  collateral[msg.sender] */\n      0xffffffffffffffffffffffffffffffffffffffff\n      and\n      0xffffffffffffffffffffffffffffffffffffffff\n      and\n      dup2\n      mstore\n      0x20\n      add\n      swap1\n      dup2\n      mstore\n      0x20\n      add\n      0x00\n      keccak256\n      0x00\n        /* \"test.sol\":841:882  collateral[msg.sender] += collateralValue */\n      dup3\n      dup3\n      sload\n      tag_51\n      swap2\n      swap1\n      tag_52\n      jump\t// in\n    tag_51:\n      swap3\n      pop\n      pop\n      dup2\n      swap1\n      sstore\n      pop\n        /* \"test.sol\":923:929  amount */\n      dup3\n        /* \"test.sol\":893:907  borrowedAmount */\n      0x02\n        /* \"test.sol\":893:919  borrowedAmount[msg.sender] */\n      0x00\n        /* \"test.sol\":908:918  msg.sender */\n      caller\n        /* \"test.sol\":893:919  borrowedAmount[msg.sender] */\n      0xffffffffffffffffffffffffffffffffffffffff\n      and\n      0xffffffffffffffffffffffffffffffffffffffff\n      and\n      dup2\n      mstore\n      0x20\n      add\n      swap1\n      dup2\n      mstore\n      0x20\n      add\n      0x00\n      keccak256\n      0x00\n        /* \"test.sol\":893:929  borrowedAmount[msg.sender] += amount */\n      dup3\n      dup3\n      sload\n      tag_53\n      swap2\n      swap1\n      tag_52\n      jump\t// in\n    tag_53:\n      swap3\n      pop\n      pop\n      dup2\n      swap1\n      sstore\n      pop\n        /* \"test.sol\":956:966  msg.sender */\n      caller\n        /* \"test.sol\":947:992  Borrowed(msg.sender, amount, collateralValue) */\n      0xffffffffffffffffffffffffffffffffffffffff\n      and\n      0xeae9cfbc77fdd40ca899f36b608256063b2bc9d8178b0220f7ad513e178d6730\n        /* \"test.sol\":968:974  amount */\n      dup5\n        /* \"test.sol\":976:991  collateralValue */\n      dup4\n        /* \"test.sol\":947:992  Borrowed(msg.sender, amount, collateralValue) */\n      mload(0x40)\n      tag_54\n      swap3\n      swap2\n      swap1\n      tag_55\n      jump\t// in\n    tag_54:\n      mload(0x40)\n      dup1\n      swap2\n      sub\n      swap1\n      log2\n        /* \"test.sol\":664:1000  {... */\n      pop\n      pop\n        /* \"test.sol\":625:1000  function borrow(uint256 amount) public {... */\n      pop\n      jump\t// out\n        /* \"#utility.yul\":88:205   */\n    tag_57:\n        /* \"#utility.yul\":197:198   */\n      0x00\n        /* \"#utility.yul\":194:195   */\n      dup1\n        /* \"#utility.yul\":187:199   */\n      revert\n        /* \"#utility.yul\":334:411   */\n    tag_59:\n        /* \"#utility.yul\":371:378   */\n      0x00\n        /* \"#utility.yul\":400:405   */\n      dup2\n        /* \"#utility.yul\":389:405   */\n      swap1\n      pop\n        /* \"#utility.yul\":334:411   */\n      swap2\n      swap1\n      pop\n      jump\t// out\n        /* \"#utility.yul\":417:539   */\n    tag_60:\n        /* \"#utility.yul\":490:514   */\n      tag_88\n        /* \"#utility.yul\":508:513   */\n      dup2\n        /* \"#utility.yul\":490:514   */\n      tag_59\n      jump\t// in\n    tag_88:\n        /* \"#utility.yul\":483:488   */\n      dup2\n        /* \"#utility.yul\":480:515   */\n      eq\n        /* \"#utility.yul\":470:533   */\n      tag_89\n      jumpi\n        /* \"#utility.yul\":529:530   */\n      0x00\n        /* \"#utility.yul\":526:527   */\n      dup1\n        /* \"#utility.yul\":519:531   */\n      revert\n        /* \"#utility.yul\":470:533   */\n    tag_89:\n        /* \"#utility.yul\":417:539   */\n      pop\n      jump\t// out\n        /* \"#utility.yul\":545:684   */\n    tag_61:\n        /* \"#utility.yul\":591:596   */\n      0x00\n        /* \"#utility.yul\":629:635   */\n      dup2\n        /* \"#utility.yul\":616:636   */\n      calldataload\n        /* \"#utility.yul\":607:636   */\n      swap1\n      pop\n        /* \"#utility.yul\":645:678   */\n      tag_91\n        /* \"#utility.yul\":672:677   */\n      dup2\n        /* \"#utility.yul\":645:678   */\n      tag_60\n      jump\t// in\n    tag_91:\n        /* \"#utility.yul\":545:684   */\n      swap3\n      swap2\n      pop\n      pop\n      jump\t// out\n        /* \"#utility.yul\":690:1019   */\n    tag_11:\n        /* \"#utility.yul\":749:755   */\n      0x00\n        /* \"#utility.yul\":798:800   */\n      0x20\n        /* \"#utility.yul\":786:795   */\n      dup3\n        /* \"#utility.yul\":777:784   */\n      dup5\n        /* \"#utility.yul\":773:796   */\n      sub\n        /* \"#utility.yul\":769:801   */\n      slt\n        /* \"#utility.yul\":766:885   */\n      iszero\n      tag_93\n      jumpi\n        /* \"#utility.yul\":804:883   */\n      tag_94\n      tag_57\n      jump\t// in\n    tag_94:\n        /* \"#utility.yul\":766:885   */\n    tag_93:\n        /* \"#utility.yul\":924:925   */\n      0x00\n        /* \"#utility.yul\":949:1002   */\n      tag_95\n        /* \"#utility.yul\":994:1001   */\n      dup5\n        /* \"#utility.yul\":985:991   */\n      dup3\n        /* \"#utility.yul\":974:983   */\n      dup6\n        /* \"#utility.yul\":970:992   */\n      add\n        /* \"#utility.yul\":949:1002   */\n      tag_61\n      jump\t// in\n    tag_95:\n        /* \"#utility.yul\":939:1002   */\n      swap2\n      pop\n        /* \"#utility.yul\":895:1012   */\n      pop\n        /* \"#utility.yul\":690:1019   */\n      swap3\n      swap2\n      pop\n      pop\n      jump\t// out\n        /* \"#utility.yul\":1025:1151   */\n    tag_62:\n        /* \"#utility.yul\":1062:1069   */\n      0x00\n        /* \"#utility.yul\":1102:1144   */\n      0xffffffffffffffffffffffffffffffffffffffff\n        /* \"#utility.yul\":1095:1100   */\n      dup3\n        /* \"#utility.yul\":1091:1145   */\n      and\n        /* \"#utility.yul\":1080:1145   */\n      swap1\n      pop\n        /* \"#utility.yul\":1025:1151   */\n      swap2\n      swap1\n      pop\n      jump\t// out\n        /* \"#utility.yul\":1157:1217   */\n    tag_63:\n        /* \"#utility.yul\":1185:1188   */\n      0x00\n        /* \"#utility.yul\":1206:1211   */\n      dup2\n        /* \"#utility.yul\":1199:1211   */\n      swap1\n      pop\n        /* \"#utility.yul\":1157:1217   */\n      swap2\n      swap1\n      pop\n      jump\t// out\n        /* \"#utility.yul\":1223:1365   */\n    tag_64:\n        /* \"#utility.yul\":1273:1282   */\n      0x00\n        /* \"#utility.yul\":1306:1359   */\n      tag_99\n        /* \"#utility.yul\":1324:1358   */\n      tag_100\n        /* \"#utility.yul\":1333:1357   */\n      tag_101\n        /* \"#utility.yul\":1351:1356   */\n      dup5\n        /* \"#utility.yul\":1333:1357   */\n      tag_62\n      jump\t// in\n    tag_101:\n        /* \"#utility.yul\":1324:1358   */\n      tag_63\n      jump\t// in\n    tag_100:\n        /* \"#utility.yul\":1306:1359   */\n      tag_62\n      jump\t// in\n    tag_99:\n        /* \"#utility.yul\":1293:1359   */\n      swap1\n      pop\n        /* \"#utility.yul\":1223:1365   */\n      swap2\n      swap1\n      pop\n      jump\t// out\n        /* \"#utility.yul\":1371:1497   */\n    tag_65:\n        /* \"#utility.yul\":1421:1430   */\n      0x00\n        /* \"#utility.yul\":1454:1491   */\n      tag_103\n        /* \"#utility.yul\":1485:1490   */\n      dup3\n        /* \"#utility.yul\":1454:1491   */\n      tag_64\n      jump\t// in\n    tag_103:\n        /* \"#utility.yul\":1441:1491   */\n      swap1\n      pop\n        /* \"#utility.yul\":1371:1497   */\n      swap2\n      swap1\n      pop\n      jump\t// out\n        /* \"#utility.yul\":1503:1645   */\n    tag_66:\n        /* \"#utility.yul\":1569:1578   */\n      0x00\n        /* \"#utility.yul\":1602:1639   */\n      tag_105\n        /* \"#utility.yul\":1633:1638   */\n      dup3\n        /* \"#utility.yul\":1602:1639   */\n      tag_65\n      jump\t// in\n    tag_105:\n        /* \"#utility.yul\":1589:1639   */\n      swap1\n      pop\n        /* \"#utility.yul\":1503:1645   */\n      swap2\n      swap1\n      pop\n      jump\t// out\n        /* \"#utility.yul\":1651:1814   */\n    tag_67:\n        /* \"#utility.yul\":1754:1807   */\n      tag_107\n        /* \"#utility.yul\":1801:1806   */\n      dup2\n        /* \"#utility.yul\":1754:1807   */\n      tag_66\n      jump\t// in\n    tag_107:\n        /* \"#utility.yul\":1749:1752   */\n      dup3\n        /* \"#utility.yul\":1742:1808   */\n      mstore\n        /* \"#utility.yul\":1651:1814   */\n      pop\n      pop\n      jump\t// out\n        /* \"#utility.yul\":1820:2074   */\n    tag_16:\n        /* \"#utility.yul\":1929:1933   */\n      0x00\n        /* \"#utility.yul\":1967:1969   */\n      0x20\n        /* \"#utility.yul\":1956:1965   */\n      dup3\n        /* \"#utility.yul\":1952:1970   */\n      add\n        /* \"#utility.yul\":1944:1970   */\n      swap1\n      pop\n        /* \"#utility.yul\":1980:2067   */\n      tag_109\n        /* \"#utility.yul\":2064:2065   */\n      0x00\n        /* \"#utility.yul\":2053:2062   */\n      dup4\n        /* \"#utility.yul\":2049:2066   */\n      add\n        /* \"#utility.yul\":2040:2046   */\n      dup5\n        /* \"#utility.yul\":1980:2067   */\n      tag_67\n      jump\t// in\n    tag_109:\n        /* \"#utility.yul\":1820:2074   */\n      swap3\n      swap2\n      pop\n      pop\n      jump\t// out\n        /* \"#utility.yul\":2080:2176   */\n    tag_68:\n        /* \"#utility.yul\":2117:2124   */\n      0x00\n        /* \"#utility.yul\":2146:2170   */\n      tag_111\n        /* \"#utility.yul\":2164:2169   */\n      dup3\n        /* \"#utility.yul\":2146:2170   */\n      tag_62\n      jump\t// in\n    tag_111:\n        /* \"#utility.yul\":2135:2170   */\n      swap1\n      pop\n        /* \"#utility.yul\":2080:2176   */\n      swap2\n      swap1\n      pop\n      jump\t// out\n        /* \"#utility.yul\":2182:2300   */\n    tag_69:\n        /* \"#utility.yul\":2269:2293   */\n      tag_113\n        /* \"#utility.yul\":2287:2292   */\n      dup2\n        /* \"#utility.yul\":2269:2293   */\n      tag_68\n      jump\t// in\n    tag_113:\n        /* \"#utility.yul\":2264:2267   */\n      dup3\n        /* \"#utility.yul\":2257:2294   */\n      mstore\n        /* \"#utility.yul\":2182:2300   */\n      pop\n      pop\n      jump\t// out\n        /* \"#utility.yul\":2306:2528   */\n    tag_20:\n        /* \"#utility.yul\":2399:2403   */\n      0x00\n        /* \"#utility.yul\":2437:2439   */\n      0x20\n        /* \"#utility.yul\":2426:2435   */\n      dup3\n        /* \"#utility.yul\":2422:2440   */\n      add\n        /* \"#utility.yul\":2414:2440   */\n      swap1\n      pop\n        /* \"#utility.yul\":2450:2521   */\n      tag_115\n        /* \"#utility.yul\":2518:2519   */\n      0x00\n        /* \"#utility.yul\":2507:2516   */\n      dup4\n        /* \"#utility.yul\":2503:2520   */\n      add\n        /* \"#utility.yul\":2494:2500   */\n      dup5\n        /* \"#utility.yul\":2450:2521   */\n      tag_69\n      jump\t// in\n    tag_115:\n        /* \"#utility.yul\":2306:2528   */\n      swap3\n      swap2\n      pop\n      pop\n      jump\t// out\n        /* \"#utility.yul\":2534:2656   */\n    tag_70:\n        /* \"#utility.yul\":2607:2631   */\n      tag_117\n        /* \"#utility.yul\":2625:2630   */\n      dup2\n        /* \"#utility.yul\":2607:2631   */\n      tag_68\n      jump\t// in\n    tag_117:\n        /* \"#utility.yul\":2600:2605   */\n      dup2\n        /* \"#utility.yul\":2597:2632   */\n      eq\n        /* \"#utility.yul\":2587:2650   */\n      tag_118\n      jumpi\n        /* \"#utility.yul\":2646:2647   */\n      0x00\n        /* \"#utility.yul\":2643:2644   */\n      dup1\n        /* \"#utility.yul\":2636:2648   */\n      revert\n        /* \"#utility.yul\":2587:2650   */\n    tag_118:\n        /* \"#utility.yul\":2534:2656   */\n      pop\n      jump\t// out\n        /* \"#utility.yul\":2662:2801   */\n    tag_71:\n        /* \"#utility.yul\":2708:2713   */\n      0x00\n        /* \"#utility.yul\":2746:2752   */\n      dup2\n        /* \"#utility.yul\":2733:2753   */\n      calldataload\n        /* \"#utility.yul\":2724:2753   */\n      swap1\n      pop\n        /* \"#utility.yul\":2762:2795   */\n      tag_120\n        /* \"#utility.yul\":2789:2794   */\n      dup2\n        /* \"#utility.yul\":2762:2795   */\n      tag_70\n      jump\t// in\n    tag_120:\n        /* \"#utility.yul\":2662:2801   */\n      swap3\n      swap2\n      pop\n      pop\n      jump\t// out\n        /* \"#utility.yul\":2807:3136   */\n    tag_23:\n        /* \"#utility.yul\":2866:2872   */\n      0x00\n        /* \"#utility.yul\":2915:2917   */\n      0x20\n        /* \"#utility.yul\":2903:2912   */\n      dup3\n        /* \"#utility.yul\":2894:2901   */\n      dup5\n        /* \"#utility.yul\":2890:2913   */\n      sub\n        /* \"#utility.yul\":2886:2918   */\n      slt\n        /* \"#utility.yul\":2883:3002   */\n      iszero\n      tag_122\n      jumpi\n        /* \"#utility.yul\":2921:3000   */\n      tag_123\n      tag_57\n      jump\t// in\n    tag_123:\n        /* \"#utility.yul\":2883:3002   */\n    tag_122:\n        /* \"#utility.yul\":3041:3042   */\n      0x00\n        /* \"#utility.yul\":3066:3119   */\n      tag_124\n        /* \"#utility.yul\":3111:3118   */\n      dup5\n        /* \"#utility.yul\":3102:3108   */\n      dup3\n        /* \"#utility.yul\":3091:3100   */\n      dup6\n        /* \"#utility.yul\":3087:3109   */\n      add\n        /* \"#utility.yul\":3066:3119   */\n      tag_71\n      jump\t// in\n    tag_124:\n        /* \"#utility.yul\":3056:3119   */\n      swap2\n      pop\n        /* \"#utility.yul\":3012:3129   */\n      pop\n        /* \"#utility.yul\":2807:3136   */\n      swap3\n      swap2\n      pop\n      pop\n      jump\t// out\n        /* \"#utility.yul\":3142:3260   */\n    tag_72:\n        /* \"#utility.yul\":3229:3253   */\n      tag_126\n        /* \"#utility.yul\":3247:3252   */\n      dup2\n        /* \"#utility.yul\":3229:3253   */\n      tag_59\n      jump\t// in\n    tag_126:\n        /* \"#utility.yul\":3224:3227   */\n      dup3\n        /* \"#utility.yul\":3217:3254   */\n      mstore\n        /* \"#utility.yul\":3142:3260   */\n      pop\n      pop\n      jump\t// out\n        /* \"#utility.yul\":3266:3488   */\n    tag_26:\n        /* \"#utility.yul\":3359:3363   */\n      0x00\n        /* \"#utility.yul\":3397:3399   */\n      0x20\n        /* \"#utility.yul\":3386:3395   */\n      dup3\n        /* \"#utility.yul\":3382:3400   */\n      add\n        /* \"#utility.yul\":3374:3400   */\n      swap1\n      pop\n        /* \"#utility.yul\":3410:3481   */\n      tag_128\n        /* \"#utility.yul\":3478:3479   */\n      0x00\n        /* \"#utility.yul\":3467:3476   */\n      dup4\n        /* \"#utility.yul\":3463:3480   */\n      add\n        /* \"#utility.yul\":3454:3460   */\n      dup5\n        /* \"#utility.yul\":3410:3481   */\n      tag_72\n      jump\t// in\n    tag_128:\n        /* \"#utility.yul\":3266:3488   */\n      swap3\n      swap2\n      pop\n      pop\n      jump\t// out\n        /* \"#utility.yul\":3494:3663   */\n    tag_73:\n        /* \"#utility.yul\":3578:3589   */\n      0x00\n        /* \"#utility.yul\":3612:3618   */\n      dup3\n        /* \"#utility.yul\":3607:3610   */\n      dup3\n        /* \"#utility.yul\":3600:3619   */\n      mstore\n        /* \"#utility.yul\":3652:3656   */\n      0x20\n        /* \"#utility.yul\":3647:3650   */\n      dup3\n        /* \"#utility.yul\":3643:3657   */\n      add\n        /* \"#utility.yul\":3628:3657   */\n      swap1\n      pop\n        /* \"#utility.yul\":3494:3663   */\n      swap3\n      swap2\n      pop\n      pop\n      jump\t// out\n        /* \"#utility.yul\":3669:3892   */\n    tag_74:\n        /* \"#utility.yul\":3809:3843   */\n      0x526570617920616d6f756e74206578636565647320626f72726f77656420616d\n        /* \"#utility.yul\":3805:3806   */\n      0x00\n        /* \"#utility.yul\":3797:3803   */\n      dup3\n        /* \"#utility.yul\":3793:3807   */\n      add\n        /* \"#utility.yul\":3786:3844   */\n      mstore\n        /* \"#utility.yul\":3878:3884   */\n      0x6f756e7400000000000000000000000000000000000000000000000000000000\n        /* \"#utility.yul\":3873:3875   */\n      0x20\n        /* \"#utility.yul\":3865:3871   */\n      dup3\n        /* \"#utility.yul\":3861:3876   */\n      add\n        /* \"#utility.yul\":3854:3885   */\n      mstore\n        /* \"#utility.yul\":3669:3892   */\n      pop\n      jump\t// out\n        /* \"#utility.yul\":3898:4264   */\n    tag_75:\n        /* \"#utility.yul\":4040:4043   */\n      0x00\n        /* \"#utility.yul\":4061:4128   */\n      tag_132\n        /* \"#utility.yul\":4125:4127   */\n      0x24\n        /* \"#utility.yul\":4120:4123   */\n      dup4\n        /* \"#utility.yul\":4061:4128   */\n      tag_73\n      jump\t// in\n    tag_132:\n        /* \"#utility.yul\":4054:4128   */\n      swap2\n      pop\n        /* \"#utility.yul\":4137:4230   */\n      tag_133\n        /* \"#utility.yul\":4226:4229   */\n      dup3\n        /* \"#utility.yul\":4137:4230   */\n      tag_74\n      jump\t// in\n    tag_133:\n        /* \"#utility.yul\":4255:4257   */\n      0x40\n        /* \"#utility.yul\":4250:4253   */\n      dup3\n        /* \"#utility.yul\":4246:4258   */\n      add\n        /* \"#utility.yul\":4239:4258   */\n      swap1\n      pop\n        /* \"#utility.yul\":3898:4264   */\n      swap2\n      swap1\n      pop\n      jump\t// out\n        /* \"#utility.yul\":4270:4689   */\n    tag_37:\n        /* \"#utility.yul\":4436:4440   */\n      0x00\n        /* \"#utility.yul\":4474:4476   */\n      0x20\n        /* \"#utility.yul\":4463:4472   */\n      dup3\n        /* \"#utility.yul\":4459:4477   */\n      add\n        /* \"#utility.yul\":4451:4477   */\n      swap1\n      pop\n        /* \"#utility.yul\":4523:4532   */\n      dup2\n        /* \"#utility.yul\":4517:4521   */\n      dup2\n        /* \"#utility.yul\":4513:4533   */\n      sub\n        /* \"#utility.yul\":4509:4510   */\n      0x00\n        /* \"#utility.yul\":4498:4507   */\n      dup4\n        /* \"#utility.yul\":4494:4511   */\n      add\n        /* \"#utility.yul\":4487:4534   */\n      mstore\n        /* \"#utility.yul\":4551:4682   */\n      tag_135\n        /* \"#utility.yul\":4677:4681   */\n      dup2\n        /* \"#utility.yul\":4551:4682   */\n      tag_75\n      jump\t// in\n    tag_135:\n        /* \"#utility.yul\":4543:4682   */\n      swap1\n      pop\n        /* \"#utility.yul\":4270:4689   */\n      swap2\n      swap1\n      pop\n      jump\t// out\n        /* \"#utility.yul\":4695:4875   */\n    tag_76:\n        /* \"#utility.yul\":4743:4820   */\n      0x4e487b7100000000000000000000000000000000000000000000000000000000\n        /* \"#utility.yul\":4740:4741   */\n      0x00\n        /* \"#utility.yul\":4733:4821   */\n      mstore\n        /* \"#utility.yul\":4840:4844   */\n      0x11\n        /* \"#utility.yul\":4837:4838   */\n      0x04\n        /* \"#utility.yul\":4830:4845   */\n      mstore\n        /* \"#utility.yul\":4864:4868   */\n      0x24\n        /* \"#utility.yul\":4861:4862   */\n      0x00\n        /* \"#utility.yul\":4854:4869   */\n      revert\n        /* \"#utility.yul\":4881:5075   */\n    tag_39:\n        /* \"#utility.yul\":4921:4925   */\n      0x00\n        /* \"#utility.yul\":4941:4961   */\n      tag_138\n        /* \"#utility.yul\":4959:4960   */\n      dup3\n        /* \"#utility.yul\":4941:4961   */\n      tag_59\n      jump\t// in\n    tag_138:\n        /* \"#utility.yul\":4936:4961   */\n      swap2\n      pop\n        /* \"#utility.yul\":4975:4995   */\n      tag_139\n        /* \"#utility.yul\":4993:4994   */\n      dup4\n        /* \"#utility.yul\":4975:4995   */\n      tag_59\n      jump\t// in\n    tag_139:\n        /* \"#utility.yul\":4970:4995   */\n      swap3\n      pop\n        /* \"#utility.yul\":5019:5020   */\n      dup3\n        /* \"#utility.yul\":5016:5017   */\n      dup3\n        /* \"#utility.yul\":5012:5021   */\n      sub\n        /* \"#utility.yul\":5004:5021   */\n      swap1\n      pop\n        /* \"#utility.yul\":5043:5044   */\n      dup2\n        /* \"#utility.yul\":5037:5041   */\n      dup2\n        /* \"#utility.yul\":5034:5045   */\n      gt\n        /* \"#utility.yul\":5031:5068   */\n      iszero\n      tag_140\n      jumpi\n        /* \"#utility.yul\":5048:5066   */\n      tag_141\n      tag_76\n      jump\t// in\n    tag_141:\n        /* \"#utility.yul\":5031:5068   */\n    tag_140:\n        /* \"#utility.yul\":4881:5075   */\n      swap3\n      swap2\n      pop\n      pop\n      jump\t// out\n        /* \"#utility.yul\":5081:5157   */\n    tag_77:\n        /* \"#utility.yul\":5117:5124   */\n      0x00\n        /* \"#utility.yul\":5146:5151   */\n      dup2\n        /* \"#utility.yul\":5135:5151   */\n      swap1\n      pop\n        /* \"#utility.yul\":5081:5157   */\n      swap2\n      swap1\n      pop\n      jump\t// out\n        /* \"#utility.yul\":5163:5283   */\n    tag_78:\n        /* \"#utility.yul\":5235:5258   */\n      tag_144\n        /* \"#utility.yul\":5252:5257   */\n      dup2\n        /* \"#utility.yul\":5235:5258   */\n      tag_77\n      jump\t// in\n    tag_144:\n        /* \"#utility.yul\":5228:5233   */\n      dup2\n        /* \"#utility.yul\":5225:5259   */\n      eq\n        /* \"#utility.yul\":5215:5277   */\n      tag_145\n      jumpi\n        /* \"#utility.yul\":5273:5274   */\n      0x00\n        /* \"#utility.yul\":5270:5271   */\n      dup1\n        /* \"#utility.yul\":5263:5275   */\n      revert\n        /* \"#utility.yul\":5215:5277   */\n    tag_145:\n        /* \"#utility.yul\":5163:5283   */\n      pop\n      jump\t// out\n        /* \"#utility.yul\":5289:5430   */\n    tag_79:\n        /* \"#utility.yul\":5345:5350   */\n      0x00\n        /* \"#utility.yul\":5376:5382   */\n      dup2\n        /* \"#utility.yul\":5370:5383   */\n      mload\n        /* \"#utility.yul\":5361:5383   */\n      swap1\n      pop\n        /* \"#utility.yul\":5392:5424   */\n      tag_147\n        /* \"#utility.yul\":5418:5423   */\n      dup2\n        /* \"#utility.yul\":5392:5424   */\n      tag_78\n      jump\t// in\n    tag_147:\n        /* \"#utility.yul\":5289:5430   */\n      swap3\n      swap2\n      pop\n      pop\n      jump\t// out\n        /* \"#utility.yul\":5436:5785   */\n    tag_45:\n        /* \"#utility.yul\":5505:5511   */\n      0x00\n        /* \"#utility.yul\":5554:5556   */\n      0x20\n        /* \"#utility.yul\":5542:5551   */\n      dup3\n        /* \"#utility.yul\":5533:5540   */\n      dup5\n        /* \"#utility.yul\":5529:5552   */\n      sub\n        /* \"#utility.yul\":5525:5557   */\n      slt\n        /* \"#utility.yul\":5522:5641   */\n      iszero\n      tag_149\n      jumpi\n        /* \"#utility.yul\":5560:5639   */\n      tag_150\n      tag_57\n      jump\t// in\n    tag_150:\n        /* \"#utility.yul\":5522:5641   */\n    tag_149:\n        /* \"#utility.yul\":5680:5681   */\n      0x00\n        /* \"#utility.yul\":5705:5768   */\n      tag_151\n        /* \"#utility.yul\":5760:5767   */\n      dup5\n        /* \"#utility.yul\":5751:5757   */\n      dup3\n        /* \"#utility.yul\":5740:5749   */\n      dup6\n        /* \"#utility.yul\":5736:5758   */\n      add\n        /* \"#utility.yul\":5705:5768   */\n      tag_79\n      jump\t// in\n    tag_151:\n        /* \"#utility.yul\":5695:5768   */\n      swap2\n      pop\n        /* \"#utility.yul\":5651:5778   */\n      pop\n        /* \"#utility.yul\":5436:5785   */\n      swap3\n      swap2\n      pop\n      pop\n      jump\t// out\n        /* \"#utility.yul\":5791:5963   */\n    tag_80:\n        /* \"#utility.yul\":5931:5955   */\n      0x5072696365206d75737420626520706f73697469766500000000000000000000\n        /* \"#utility.yul\":5927:5928   */\n      0x00\n        /* \"#utility.yul\":5919:5925   */\n      dup3\n        /* \"#utility.yul\":5915:5929   */\n      add\n        /* \"#utility.yul\":5908:5956   */\n      mstore\n        /* \"#utility.yul\":5791:5963   */\n      pop\n      jump\t// out\n        /* \"#utility.yul\":5969:6335   */\n    tag_81:\n        /* \"#utility.yul\":6111:6114   */\n      0x00\n        /* \"#utility.yul\":6132:6199   */\n      tag_154\n        /* \"#utility.yul\":6196:6198   */\n      0x16\n        /* \"#utility.yul\":6191:6194   */\n      dup4\n        /* \"#utility.yul\":6132:6199   */\n      tag_73\n      jump\t// in\n    tag_154:\n        /* \"#utility.yul\":6125:6199   */\n      swap2\n      pop\n        /* \"#utility.yul\":6208:6301   */\n      tag_155\n        /* \"#utility.yul\":6297:6300   */\n      dup3\n        /* \"#utility.yul\":6208:6301   */\n      tag_80\n      jump\t// in\n    tag_155:\n        /* \"#utility.yul\":6326:6328   */\n      0x20\n        /* \"#utility.yul\":6321:6324   */\n      dup3\n        /* \"#utility.yul\":6317:6329   */\n      add\n        /* \"#utility.yul\":6310:6329   */\n      swap1\n      pop\n        /* \"#utility.yul\":5969:6335   */\n      swap2\n      swap1\n      pop\n      jump\t// out\n        /* \"#utility.yul\":6341:6760   */\n    tag_48:\n        /* \"#utility.yul\":6507:6511   */\n      0x00\n        /* \"#utility.yul\":6545:6547   */\n      0x20\n        /* \"#utility.yul\":6534:6543   */\n      dup3\n        /* \"#utility.yul\":6530:6548   */\n      add\n        /* \"#utility.yul\":6522:6548   */\n      swap1\n      pop\n        /* \"#utility.yul\":6594:6603   */\n      dup2\n        /* \"#utility.yul\":6588:6592   */\n      dup2\n        /* \"#utility.yul\":6584:6604   */\n      sub\n        /* \"#utility.yul\":6580:6581   */\n      0x00\n        /* \"#utility.yul\":6569:6578   */\n      dup4\n        /* \"#utility.yul\":6565:6582   */\n      add\n        /* \"#utility.yul\":6558:6605   */\n      mstore\n        /* \"#utility.yul\":6622:6753   */\n      tag_157\n        /* \"#utility.yul\":6748:6752   */\n      dup2\n        /* \"#utility.yul\":6622:6753   */\n      tag_81\n      jump\t// in\n    tag_157:\n        /* \"#utility.yul\":6614:6753   */\n      swap1\n      pop\n        /* \"#utility.yul\":6341:6760   */\n      swap2\n      swap1\n      pop\n      jump\t// out\n        /* \"#utility.yul\":6766:7176   */\n    tag_50:\n        /* \"#utility.yul\":6806:6813   */\n      0x00\n        /* \"#utility.yul\":6829:6849   */\n      tag_159\n        /* \"#utility.yul\":6847:6848   */\n      dup3\n        /* \"#utility.yul\":6829:6849   */\n      tag_59\n      jump\t// in\n    tag_159:\n        /* \"#utility.yul\":6824:6849   */\n      swap2\n      pop\n        /* \"#utility.yul\":6863:6883   */\n      tag_160\n        /* \"#utility.yul\":6881:6882   */\n      dup4\n        /* \"#utility.yul\":6863:6883   */\n      tag_59\n      jump\t// in\n    tag_160:\n        /* \"#utility.yul\":6858:6883   */\n      swap3\n      pop\n        /* \"#utility.yul\":6918:6919   */\n      dup3\n        /* \"#utility.yul\":6915:6916   */\n      dup3\n        /* \"#utility.yul\":6911:6920   */\n      mul\n        /* \"#utility.yul\":6940:6970   */\n      tag_161\n        /* \"#utility.yul\":6958:6969   */\n      dup2\n        /* \"#utility.yul\":6940:6970   */\n      tag_59\n      jump\t// in\n    tag_161:\n        /* \"#utility.yul\":6929:6970   */\n      swap2\n      pop\n        /* \"#utility.yul\":7119:7120   */\n      dup3\n        /* \"#utility.yul\":7110:7117   */\n      dup3\n        /* \"#utility.yul\":7106:7121   */\n      div\n        /* \"#utility.yul\":7103:7104   */\n      dup5\n        /* \"#utility.yul\":7100:7122   */\n      eq\n        /* \"#utility.yul\":7080:7081   */\n      dup4\n        /* \"#utility.yul\":7073:7082   */\n      iszero\n        /* \"#utility.yul\":7053:7136   */\n      or\n        /* \"#utility.yul\":7030:7169   */\n      tag_162\n      jumpi\n        /* \"#utility.yul\":7149:7167   */\n      tag_163\n      tag_76\n      jump\t// in\n    tag_163:\n        /* \"#utility.yul\":7030:7169   */\n    tag_162:\n        /* \"#utility.yul\":6814:7176   */\n      pop\n        /* \"#utility.yul\":6766:7176   */\n      swap3\n      swap2\n      pop\n      pop\n      jump\t// out\n        /* \"#utility.yul\":7182:7373   */\n    tag_52:\n        /* \"#utility.yul\":7222:7225   */\n      0x00\n        /* \"#utility.yul\":7241:7261   */\n      tag_165\n        /* \"#utility.yul\":7259:7260   */\n      dup3\n        /* \"#utility.yul\":7241:7261   */\n      tag_59\n      jump\t// in\n    tag_165:\n        /* \"#utility.yul\":7236:7261   */\n      swap2\n      pop\n        /* \"#utility.yul\":7275:7295   */\n      tag_166\n        /* \"#utility.yul\":7293:7294   */\n      dup4\n        /* \"#utility.yul\":7275:7295   */\n      tag_59\n      jump\t// in\n    tag_166:\n        /* \"#utility.yul\":7270:7295   */\n      swap3\n      pop\n        /* \"#utility.yul\":7318:7319   */\n      dup3\n        /* \"#utility.yul\":7315:7316   */\n      dup3\n        /* \"#utility.yul\":7311:7320   */\n      add\n        /* \"#utility.yul\":7304:7320   */\n      swap1\n      pop\n        /* \"#utility.yul\":7339:7342   */\n      dup1\n        /* \"#utility.yul\":7336:7337   */\n      dup3\n        /* \"#utility.yul\":7333:7343   */\n      gt\n        /* \"#utility.yul\":7330:7366   */\n      iszero\n      tag_167\n      jumpi\n        /* \"#utility.yul\":7346:7364   */\n      tag_168\n      tag_76\n      jump\t// in\n    tag_168:\n        /* \"#utility.yul\":7330:7366   */\n    tag_167:\n        /* \"#utility.yul\":7182:7373   */\n      swap3\n      swap2\n      pop\n      pop\n      jump\t// out\n        /* \"#utility.yul\":7379:7711   */\n    tag_55:\n        /* \"#utility.yul\":7500:7504   */\n      0x00\n        /* \"#utility.yul\":7538:7540   */\n      0x40\n        /* \"#utility.yul\":7527:7536   */\n      dup3\n        /* \"#utility.yul\":7523:7541   */\n      add\n        /* \"#utility.yul\":7515:7541   */\n      swap1\n      pop\n        /* \"#utility.yul\":7551:7622   */\n      tag_170\n        /* \"#utility.yul\":7619:7620   */\n      0x00\n        /* \"#utility.yul\":7608:7617   */\n      dup4\n        /* \"#utility.yul\":7604:7621   */\n      add\n        /* \"#utility.yul\":7595:7601   */\n      dup6\n        /* \"#utility.yul\":7551:7622   */\n      tag_72\n      jump\t// in\n    tag_170:\n        /* \"#utility.yul\":7632:7704   */\n      tag_171\n        /* \"#utility.yul\":7700:7702   */\n      0x20\n        /* \"#utility.yul\":7689:7698   */\n      dup4\n        /* \"#utility.yul\":7685:7703   */\n      add\n        /* \"#utility.yul\":7676:7682   */\n      dup5\n        /* \"#utility.yul\":7632:7704   */\n      tag_72\n      jump\t// in\n    tag_171:\n        /* \"#utility.yul\":7379:7711   */\n      swap4\n      swap3\n      pop\n      pop\n      pop\n      jump\t// out\n\n    auxdata: 0xa26469706673582212202cc9a818a83c459c2f9819098b93cf4f5bbf5b312e9b5ffb97e31eef6548918d64736f6c634300081a0033\n}\n",
				"bytecode": {
					"linkReferences": {},
					"object": "608060405234801561000f575f80fd5b50604051610a37380380610a3783398181016040528101906100319190610114565b335f806101000a81548173ffffffffffffffffffffffffffffffffffffffff021916908373ffffffffffffffffffffffffffffffffffffffff1602179055508060015f6101000a81548173ffffffffffffffffffffffffffffffffffffffff021916908373ffffffffffffffffffffffffffffffffffffffff1602179055505061013f565b5f80fd5b5f73ffffffffffffffffffffffffffffffffffffffff82169050919050565b5f6100e3826100ba565b9050919050565b6100f3816100d9565b81146100fd575f80fd5b50565b5f8151905061010e816100ea565b92915050565b5f60208284031215610129576101286100b6565b5b5f61013684828501610100565b91505092915050565b6108eb8061014c5f395ff3fe608060405234801561000f575f80fd5b5060043610610060575f3560e01c8063371fd8e614610064578063741bef1a146100805780638da5cb5b1461009e578063948adb8f146100bc578063a5fdc5de146100ec578063c5ebeaec1461011c575b5f80fd5b61007e600480360381019061007991906104e2565b610138565b005b61008861025c565b6040516100959190610587565b60405180910390f35b6100a6610281565b6040516100b391906105c0565b60405180910390f35b6100d660048036038101906100d19190610603565b6102a4565b6040516100e3919061063d565b60405180910390f35b61010660048036038101906101019190610603565b6102b9565b604051610113919061063d565b60405180910390f35b610136600480360381019061013191906104e2565b6102ce565b005b8060025f3373ffffffffffffffffffffffffffffffffffffffff1673ffffffffffffffffffffffffffffffffffffffff1681526020019081526020015f205410156101b8576040517f08c379a00000000000000000000000000000000000000000000000000000000081526004016101af906106d6565b60405180910390fd5b8060025f3373ffffffffffffffffffffffffffffffffffffffff1673ffffffffffffffffffffffffffffffffffffffff1681526020019081526020015f205f8282546102049190610721565b925050819055503373ffffffffffffffffffffffffffffffffffffffff167f0516911bcc3a0a7412a44601057c0a0a1ec628bde049a84284bc42886653448882604051610251919061063d565b60405180910390a250565b60015f9054906101000a900473ffffffffffffffffffffffffffffffffffffffff1681565b5f8054906101000a900473ffffffffffffffffffffffffffffffffffffffff1681565b6002602052805f5260405f205f915090505481565b6003602052805f5260405f205f915090505481565b5f60015f9054906101000a900473ffffffffffffffffffffffffffffffffffffffff1673ffffffffffffffffffffffffffffffffffffffff16638e15f4736040518163ffffffff1660e01b8152600401602060405180830381865afa158015610339573d5f803e3d5ffd5b505050506040513d601f19601f8201168201806040525081019061035d9190610787565b90505f81136103a1576040517f08c379a0000000000000000000000000000000000000000000000000000000008152600401610398906107fc565b60405180910390fd5b5f82826103ae919061081a565b90508060035f3373ffffffffffffffffffffffffffffffffffffffff1673ffffffffffffffffffffffffffffffffffffffff1681526020019081526020015f205f8282546103fc919061085b565b925050819055508260025f3373ffffffffffffffffffffffffffffffffffffffff1673ffffffffffffffffffffffffffffffffffffffff1681526020019081526020015f205f82825461044f919061085b565b925050819055503373ffffffffffffffffffffffffffffffffffffffff167feae9cfbc77fdd40ca899f36b608256063b2bc9d8178b0220f7ad513e178d6730848360405161049e92919061088e565b60405180910390a2505050565b5f80fd5b5f819050919050565b6104c1816104af565b81146104cb575f80fd5b50565b5f813590506104dc816104b8565b92915050565b5f602082840312156104f7576104f66104ab565b5b5f610504848285016104ce565b91505092915050565b5f73ffffffffffffffffffffffffffffffffffffffff82169050919050565b5f819050919050565b5f61054f61054a6105458461050d565b61052c565b61050d565b9050919050565b5f61056082610535565b9050919050565b5f61057182610556565b9050919050565b61058181610567565b82525050565b5f60208201905061059a5f830184610578565b92915050565b5f6105aa8261050d565b9050919050565b6105ba816105a0565b82525050565b5f6020820190506105d35f8301846105b1565b92915050565b6105e2816105a0565b81146105ec575f80fd5b50565b5f813590506105fd816105d9565b92915050565b5f60208284031215610618576106176104ab565b5b5f610625848285016105ef565b91505092915050565b610637816104af565b82525050565b5f6020820190506106505f83018461062e565b92915050565b5f82825260208201905092915050565b7f526570617920616d6f756e74206578636565647320626f72726f77656420616d5f8201527f6f756e7400000000000000000000000000000000000000000000000000000000602082015250565b5f6106c0602483610656565b91506106cb82610666565b604082019050919050565b5f6020820190508181035f8301526106ed816106b4565b9050919050565b7f4e487b71000000000000000000000000000000000000000000000000000000005f52601160045260245ffd5b5f61072b826104af565b9150610736836104af565b925082820390508181111561074e5761074d6106f4565b5b92915050565b5f819050919050565b61076681610754565b8114610770575f80fd5b50565b5f815190506107818161075d565b92915050565b5f6020828403121561079c5761079b6104ab565b5b5f6107a984828501610773565b91505092915050565b7f5072696365206d75737420626520706f736974697665000000000000000000005f82015250565b5f6107e6601683610656565b91506107f1826107b2565b602082019050919050565b5f6020820190508181035f830152610813816107da565b9050919050565b5f610824826104af565b915061082f836104af565b925082820261083d816104af565b91508282048414831517610854576108536106f4565b5b5092915050565b5f610865826104af565b9150610870836104af565b9250828201905080821115610888576108876106f4565b5b92915050565b5f6040820190506108a15f83018561062e565b6108ae602083018461062e565b939250505056fea26469706673582212202cc9a818a83c459c2f9819098b93cf4f5bbf5b312e9b5ffb97e31eef6548918d64736f6c634300081a0033",
					"opcodes": "PUSH1 0x80 PUSH1 0x40 MSTORE CALLVALUE DUP1 ISZERO PUSH2 0xF JUMPI PUSH0 DUP1 REVERT JUMPDEST POP PUSH1 0x40 MLOAD PUSH2 0xA37 CODESIZE SUB DUP1 PUSH2 0xA37 DUP4 CODECOPY DUP2 DUP2 ADD PUSH1 0x40 MSTORE DUP2 ADD SWAP1 PUSH2 0x31 SWAP2 SWAP1 PUSH2 0x114 JUMP JUMPDEST CALLER PUSH0 DUP1 PUSH2 0x100 EXP DUP2 SLOAD DUP2 PUSH20 0xFFFFFFFFFFFFFFFFFFFFFFFFFFFFFFFFFFFFFFFF MUL NOT AND SWAP1 DUP4 PUSH20 0xFFFFFFFFFFFFFFFFFFFFFFFFFFFFFFFFFFFFFFFF AND MUL OR SWAP1 SSTORE POP DUP1 PUSH1 0x1 PUSH0 PUSH2 0x100 EXP DUP2 SLOAD DUP2 PUSH20 0xFFFFFFFFFFFFFFFFFFFFFFFFFFFFFFFFFFFFFFFF MUL NOT AND SWAP1 DUP4 PUSH20 0xFFFFFFFFFFFFFFFFFFFFFFFFFFFFFFFFFFFFFFFF AND MUL OR SWAP1 SSTORE POP POP PUSH2 0x13F JUMP JUMPDEST PUSH0 DUP1 REVERT JUMPDEST PUSH0 PUSH20 0xFFFFFFFFFFFFFFFFFFFFFFFFFFFFFFFFFFFFFFFF DUP3 AND SWAP1 POP SWAP2 SWAP1 POP JUMP JUMPDEST PUSH0 PUSH2 0xE3 DUP3 PUSH2 0xBA JUMP JUMPDEST SWAP1 POP SWAP2 SWAP1 POP JUMP JUMPDEST PUSH2 0xF3 DUP2 PUSH2 0xD9 JUMP JUMPDEST DUP2 EQ PUSH2 0xFD JUMPI PUSH0 DUP1 REVERT JUMPDEST POP JUMP JUMPDEST PUSH0 DUP2 MLOAD SWAP1 POP PUSH2 0x10E DUP2 PUSH2 0xEA JUMP JUMPDEST SWAP3 SWAP2 POP POP JUMP JUMPDEST PUSH0 PUSH1 0x20 DUP3 DUP5 SUB SLT ISZERO PUSH2 0x129 JUMPI PUSH2 0x128 PUSH2 0xB6 JUMP JUMPDEST JUMPDEST PUSH0 PUSH2 0x136 DUP5 DUP3 DUP6 ADD PUSH2 0x100 JUMP JUMPDEST SWAP2 POP POP SWAP3 SWAP2 POP POP JUMP JUMPDEST PUSH2 0x8EB DUP1 PUSH2 0x14C PUSH0 CODECOPY PUSH0 RETURN INVALID PUSH1 0x80 PUSH1 0x40 MSTORE CALLVALUE DUP1 ISZERO PUSH2 0xF JUMPI PUSH0 DUP1 REVERT JUMPDEST POP PUSH1 0x4 CALLDATASIZE LT PUSH2 0x60 JUMPI PUSH0 CALLDATALOAD PUSH1 0xE0 SHR DUP1 PUSH4 0x371FD8E6 EQ PUSH2 0x64 JUMPI DUP1 PUSH4 0x741BEF1A EQ PUSH2 0x80 JUMPI DUP1 PUSH4 0x8DA5CB5B EQ PUSH2 0x9E JUMPI DUP1 PUSH4 0x948ADB8F EQ PUSH2 0xBC JUMPI DUP1 PUSH4 0xA5FDC5DE EQ PUSH2 0xEC JUMPI DUP1 PUSH4 0xC5EBEAEC EQ PUSH2 0x11C JUMPI JUMPDEST PUSH0 DUP1 REVERT JUMPDEST PUSH2 0x7E PUSH1 0x4 DUP1 CALLDATASIZE SUB DUP2 ADD SWAP1 PUSH2 0x79 SWAP2 SWAP1 PUSH2 0x4E2 JUMP JUMPDEST PUSH2 0x138 JUMP JUMPDEST STOP JUMPDEST PUSH2 0x88 PUSH2 0x25C JUMP JUMPDEST PUSH1 0x40 MLOAD PUSH2 0x95 SWAP2 SWAP1 PUSH2 0x587 JUMP JUMPDEST PUSH1 0x40 MLOAD DUP1 SWAP2 SUB SWAP1 RETURN JUMPDEST PUSH2 0xA6 PUSH2 0x281 JUMP JUMPDEST PUSH1 0x40 MLOAD PUSH2 0xB3 SWAP2 SWAP1 PUSH2 0x5C0 JUMP JUMPDEST PUSH1 0x40 MLOAD DUP1 SWAP2 SUB SWAP1 RETURN JUMPDEST PUSH2 0xD6 PUSH1 0x4 DUP1 CALLDATASIZE SUB DUP2 ADD SWAP1 PUSH2 0xD1 SWAP2 SWAP1 PUSH2 0x603 JUMP JUMPDEST PUSH2 0x2A4 JUMP JUMPDEST PUSH1 0x40 MLOAD PUSH2 0xE3 SWAP2 SWAP1 PUSH2 0x63D JUMP JUMPDEST PUSH1 0x40 MLOAD DUP1 SWAP2 SUB SWAP1 RETURN JUMPDEST PUSH2 0x106 PUSH1 0x4 DUP1 CALLDATASIZE SUB DUP2 ADD SWAP1 PUSH2 0x101 SWAP2 SWAP1 PUSH2 0x603 JUMP JUMPDEST PUSH2 0x2B9 JUMP JUMPDEST PUSH1 0x40 MLOAD PUSH2 0x113 SWAP2 SWAP1 PUSH2 0x63D JUMP JUMPDEST PUSH1 0x40 MLOAD DUP1 SWAP2 SUB SWAP1 RETURN JUMPDEST PUSH2 0x136 PUSH1 0x4 DUP1 CALLDATASIZE SUB DUP2 ADD SWAP1 PUSH2 0x131 SWAP2 SWAP1 PUSH2 0x4E2 JUMP JUMPDEST PUSH2 0x2CE JUMP JUMPDEST STOP JUMPDEST DUP1 PUSH1 0x2 PUSH0 CALLER PUSH20 0xFFFFFFFFFFFFFFFFFFFFFFFFFFFFFFFFFFFFFFFF AND PUSH20 0xFFFFFFFFFFFFFFFFFFFFFFFFFFFFFFFFFFFFFFFF AND DUP2 MSTORE PUSH1 0x20 ADD SWAP1 DUP2 MSTORE PUSH1 0x20 ADD PUSH0 KECCAK256 SLOAD LT ISZERO PUSH2 0x1B8 JUMPI PUSH1 0x40 MLOAD PUSH32 0x8C379A000000000000000000000000000000000000000000000000000000000 DUP2 MSTORE PUSH1 0x4 ADD PUSH2 0x1AF SWAP1 PUSH2 0x6D6 JUMP JUMPDEST PUSH1 0x40 MLOAD DUP1 SWAP2 SUB SWAP1 REVERT JUMPDEST DUP1 PUSH1 0x2 PUSH0 CALLER PUSH20 0xFFFFFFFFFFFFFFFFFFFFFFFFFFFFFFFFFFFFFFFF AND PUSH20 0xFFFFFFFFFFFFFFFFFFFFFFFFFFFFFFFFFFFFFFFF AND DUP2 MSTORE PUSH1 0x20 ADD SWAP1 DUP2 MSTORE PUSH1 0x20 ADD PUSH0 KECCAK256 PUSH0 DUP3 DUP3 SLOAD PUSH2 0x204 SWAP2 SWAP1 PUSH2 0x721 JUMP JUMPDEST SWAP3 POP POP DUP2 SWAP1 SSTORE POP CALLER PUSH20 0xFFFFFFFFFFFFFFFFFFFFFFFFFFFFFFFFFFFFFFFF AND PUSH32 0x516911BCC3A0A7412A44601057C0A0A1EC628BDE049A84284BC428866534488 DUP3 PUSH1 0x40 MLOAD PUSH2 0x251 SWAP2 SWAP1 PUSH2 0x63D JUMP JUMPDEST PUSH1 0x40 MLOAD DUP1 SWAP2 SUB SWAP1 LOG2 POP JUMP JUMPDEST PUSH1 0x1 PUSH0 SWAP1 SLOAD SWAP1 PUSH2 0x100 EXP SWAP1 DIV PUSH20 0xFFFFFFFFFFFFFFFFFFFFFFFFFFFFFFFFFFFFFFFF AND DUP2 JUMP JUMPDEST PUSH0 DUP1 SLOAD SWAP1 PUSH2 0x100 EXP SWAP1 DIV PUSH20 0xFFFFFFFFFFFFFFFFFFFFFFFFFFFFFFFFFFFFFFFF AND DUP2 JUMP JUMPDEST PUSH1 0x2 PUSH1 0x20 MSTORE DUP1 PUSH0 MSTORE PUSH1 0x40 PUSH0 KECCAK256 PUSH0 SWAP2 POP SWAP1 POP SLOAD DUP2 JUMP JUMPDEST PUSH1 0x3 PUSH1 0x20 MSTORE DUP1 PUSH0 MSTORE PUSH1 0x40 PUSH0 KECCAK256 PUSH0 SWAP2 POP SWAP1 POP SLOAD DUP2 JUMP JUMPDEST PUSH0 PUSH1 0x1 PUSH0 SWAP1 SLOAD SWAP1 PUSH2 0x100 EXP SWAP1 DIV PUSH20 0xFFFFFFFFFFFFFFFFFFFFFFFFFFFFFFFFFFFFFFFF AND PUSH20 0xFFFFFFFFFFFFFFFFFFFFFFFFFFFFFFFFFFFFFFFF AND PUSH4 0x8E15F473 PUSH1 0x40 MLOAD DUP2 PUSH4 0xFFFFFFFF AND PUSH1 0xE0 SHL DUP2 MSTORE PUSH1 0x4 ADD PUSH1 0x20 PUSH1 0x40 MLOAD DUP1 DUP4 SUB DUP2 DUP7 GAS STATICCALL ISZERO DUP1 ISZERO PUSH2 0x339 JUMPI RETURNDATASIZE PUSH0 DUP1 RETURNDATACOPY RETURNDATASIZE PUSH0 REVERT JUMPDEST POP POP POP POP PUSH1 0x40 MLOAD RETURNDATASIZE PUSH1 0x1F NOT PUSH1 0x1F DUP3 ADD AND DUP3 ADD DUP1 PUSH1 0x40 MSTORE POP DUP2 ADD SWAP1 PUSH2 0x35D SWAP2 SWAP1 PUSH2 0x787 JUMP JUMPDEST SWAP1 POP PUSH0 DUP2 SGT PUSH2 0x3A1 JUMPI PUSH1 0x40 MLOAD PUSH32 0x8C379A000000000000000000000000000000000000000000000000000000000 DUP2 MSTORE PUSH1 0x4 ADD PUSH2 0x398 SWAP1 PUSH2 0x7FC JUMP JUMPDEST PUSH1 0x40 MLOAD DUP1 SWAP2 SUB SWAP1 REVERT JUMPDEST PUSH0 DUP3 DUP3 PUSH2 0x3AE SWAP2 SWAP1 PUSH2 0x81A JUMP JUMPDEST SWAP1 POP DUP1 PUSH1 0x3 PUSH0 CALLER PUSH20 0xFFFFFFFFFFFFFFFFFFFFFFFFFFFFFFFFFFFFFFFF AND PUSH20 0xFFFFFFFFFFFFFFFFFFFFFFFFFFFFFFFFFFFFFFFF AND DUP2 MSTORE PUSH1 0x20 ADD SWAP1 DUP2 MSTORE PUSH1 0x20 ADD PUSH0 KECCAK256 PUSH0 DUP3 DUP3 SLOAD PUSH2 0x3FC SWAP2 SWAP1 PUSH2 0x85B JUMP JUMPDEST SWAP3 POP POP DUP2 SWAP1 SSTORE POP DUP3 PUSH1 0x2 PUSH0 CALLER PUSH20 0xFFFFFFFFFFFFFFFFFFFFFFFFFFFFFFFFFFFFFFFF AND PUSH20 0xFFFFFFFFFFFFFFFFFFFFFFFFFFFFFFFFFFFFFFFF AND DUP2 MSTORE PUSH1 0x20 ADD SWAP1 DUP2 MSTORE PUSH1 0x20 ADD PUSH0 KECCAK256 PUSH0 DUP3 DUP3 SLOAD PUSH2 0x44F SWAP2 SWAP1 PUSH2 0x85B JUMP JUMPDEST SWAP3 POP POP DUP2 SWAP1 SSTORE POP CALLER PUSH20 0xFFFFFFFFFFFFFFFFFFFFFFFFFFFFFFFFFFFFFFFF AND PUSH32 0xEAE9CFBC77FDD40CA899F36B608256063B2BC9D8178B0220F7AD513E178D6730 DUP5 DUP4 PUSH1 0x40 MLOAD PUSH2 0x49E SWAP3 SWAP2 SWAP1 PUSH2 0x88E JUMP JUMPDEST PUSH1 0x40 MLOAD DUP1 SWAP2 SUB SWAP1 LOG2 POP POP POP JUMP JUMPDEST PUSH0 DUP1 REVERT JUMPDEST PUSH0 DUP2 SWAP1 POP SWAP2 SWAP1 POP JUMP JUMPDEST PUSH2 0x4C1 DUP2 PUSH2 0x4AF JUMP JUMPDEST DUP2 EQ PUSH2 0x4CB JUMPI PUSH0 DUP1 REVERT JUMPDEST POP JUMP JUMPDEST PUSH0 DUP2 CALLDATALOAD SWAP1 POP PUSH2 0x4DC DUP2 PUSH2 0x4B8 JUMP JUMPDEST SWAP3 SWAP2 POP POP JUMP JUMPDEST PUSH0 PUSH1 0x20 DUP3 DUP5 SUB SLT ISZERO PUSH2 0x4F7 JUMPI PUSH2 0x4F6 PUSH2 0x4AB JUMP JUMPDEST JUMPDEST PUSH0 PUSH2 0x504 DUP5 DUP3 DUP6 ADD PUSH2 0x4CE JUMP JUMPDEST SWAP2 POP POP SWAP3 SWAP2 POP POP JUMP JUMPDEST PUSH0 PUSH20 0xFFFFFFFFFFFFFFFFFFFFFFFFFFFFFFFFFFFFFFFF DUP3 AND SWAP1 POP SWAP2 SWAP1 POP JUMP JUMPDEST PUSH0 DUP2 SWAP1 POP SWAP2 SWAP1 POP JUMP JUMPDEST PUSH0 PUSH2 0x54F PUSH2 0x54A PUSH2 0x545 DUP5 PUSH2 0x50D JUMP JUMPDEST PUSH2 0x52C JUMP JUMPDEST PUSH2 0x50D JUMP JUMPDEST SWAP1 POP SWAP2 SWAP1 POP JUMP JUMPDEST PUSH0 PUSH2 0x560 DUP3 PUSH2 0x535 JUMP JUMPDEST SWAP1 POP SWAP2 SWAP1 POP JUMP JUMPDEST PUSH0 PUSH2 0x571 DUP3 PUSH2 0x556 JUMP JUMPDEST SWAP1 POP SWAP2 SWAP1 POP JUMP JUMPDEST PUSH2 0x581 DUP2 PUSH2 0x567 JUMP JUMPDEST DUP3 MSTORE POP POP JUMP JUMPDEST PUSH0 PUSH1 0x20 DUP3 ADD SWAP1 POP PUSH2 0x59A PUSH0 DUP4 ADD DUP5 PUSH2 0x578 JUMP JUMPDEST SWAP3 SWAP2 POP POP JUMP JUMPDEST PUSH0 PUSH2 0x5AA DUP3 PUSH2 0x50D JUMP JUMPDEST SWAP1 POP SWAP2 SWAP1 POP JUMP JUMPDEST PUSH2 0x5BA DUP2 PUSH2 0x5A0 JUMP JUMPDEST DUP3 MSTORE POP POP JUMP JUMPDEST PUSH0 PUSH1 0x20 DUP3 ADD SWAP1 POP PUSH2 0x5D3 PUSH0 DUP4 ADD DUP5 PUSH2 0x5B1 JUMP JUMPDEST SWAP3 SWAP2 POP POP JUMP JUMPDEST PUSH2 0x5E2 DUP2 PUSH2 0x5A0 JUMP JUMPDEST DUP2 EQ PUSH2 0x5EC JUMPI PUSH0 DUP1 REVERT JUMPDEST POP JUMP JUMPDEST PUSH0 DUP2 CALLDATALOAD SWAP1 POP PUSH2 0x5FD DUP2 PUSH2 0x5D9 JUMP JUMPDEST SWAP3 SWAP2 POP POP JUMP JUMPDEST PUSH0 PUSH1 0x20 DUP3 DUP5 SUB SLT ISZERO PUSH2 0x618 JUMPI PUSH2 0x617 PUSH2 0x4AB JUMP JUMPDEST JUMPDEST PUSH0 PUSH2 0x625 DUP5 DUP3 DUP6 ADD PUSH2 0x5EF JUMP JUMPDEST SWAP2 POP POP SWAP3 SWAP2 POP POP JUMP JUMPDEST PUSH2 0x637 DUP2 PUSH2 0x4AF JUMP JUMPDEST DUP3 MSTORE POP POP JUMP JUMPDEST PUSH0 PUSH1 0x20 DUP3 ADD SWAP1 POP PUSH2 0x650 PUSH0 DUP4 ADD DUP5 PUSH2 0x62E JUMP JUMPDEST SWAP3 SWAP2 POP POP JUMP JUMPDEST PUSH0 DUP3 DUP3 MSTORE PUSH1 0x20 DUP3 ADD SWAP1 POP SWAP3 SWAP2 POP POP JUMP JUMPDEST PUSH32 0x526570617920616D6F756E74206578636565647320626F72726F77656420616D PUSH0 DUP3 ADD MSTORE PUSH32 0x6F756E7400000000000000000000000000000000000000000000000000000000 PUSH1 0x20 DUP3 ADD MSTORE POP JUMP JUMPDEST PUSH0 PUSH2 0x6C0 PUSH1 0x24 DUP4 PUSH2 0x656 JUMP JUMPDEST SWAP2 POP PUSH2 0x6CB DUP3 PUSH2 0x666 JUMP JUMPDEST PUSH1 0x40 DUP3 ADD SWAP1 POP SWAP2 SWAP1 POP JUMP JUMPDEST PUSH0 PUSH1 0x20 DUP3 ADD SWAP1 POP DUP2 DUP2 SUB PUSH0 DUP4 ADD MSTORE PUSH2 0x6ED DUP2 PUSH2 0x6B4 JUMP JUMPDEST SWAP1 POP SWAP2 SWAP1 POP JUMP JUMPDEST PUSH32 0x4E487B7100000000000000000000000000000000000000000000000000000000 PUSH0 MSTORE PUSH1 0x11 PUSH1 0x4 MSTORE PUSH1 0x24 PUSH0 REVERT JUMPDEST PUSH0 PUSH2 0x72B DUP3 PUSH2 0x4AF JUMP JUMPDEST SWAP2 POP PUSH2 0x736 DUP4 PUSH2 0x4AF JUMP JUMPDEST SWAP3 POP DUP3 DUP3 SUB SWAP1 POP DUP2 DUP2 GT ISZERO PUSH2 0x74E JUMPI PUSH2 0x74D PUSH2 0x6F4 JUMP JUMPDEST JUMPDEST SWAP3 SWAP2 POP POP JUMP JUMPDEST PUSH0 DUP2 SWAP1 POP SWAP2 SWAP1 POP JUMP JUMPDEST PUSH2 0x766 DUP2 PUSH2 0x754 JUMP JUMPDEST DUP2 EQ PUSH2 0x770 JUMPI PUSH0 DUP1 REVERT JUMPDEST POP JUMP JUMPDEST PUSH0 DUP2 MLOAD SWAP1 POP PUSH2 0x781 DUP2 PUSH2 0x75D JUMP JUMPDEST SWAP3 SWAP2 POP POP JUMP JUMPDEST PUSH0 PUSH1 0x20 DUP3 DUP5 SUB SLT ISZERO PUSH2 0x79C JUMPI PUSH2 0x79B PUSH2 0x4AB JUMP JUMPDEST JUMPDEST PUSH0 PUSH2 0x7A9 DUP5 DUP3 DUP6 ADD PUSH2 0x773 JUMP JUMPDEST SWAP2 POP POP SWAP3 SWAP2 POP POP JUMP JUMPDEST PUSH32 0x5072696365206D75737420626520706F73697469766500000000000000000000 PUSH0 DUP3 ADD MSTORE POP JUMP JUMPDEST PUSH0 PUSH2 0x7E6 PUSH1 0x16 DUP4 PUSH2 0x656 JUMP JUMPDEST SWAP2 POP PUSH2 0x7F1 DUP3 PUSH2 0x7B2 JUMP JUMPDEST PUSH1 0x20 DUP3 ADD SWAP1 POP SWAP2 SWAP1 POP JUMP JUMPDEST PUSH0 PUSH1 0x20 DUP3 ADD SWAP1 POP DUP2 DUP2 SUB PUSH0 DUP4 ADD MSTORE PUSH2 0x813 DUP2 PUSH2 0x7DA JUMP JUMPDEST SWAP1 POP SWAP2 SWAP1 POP JUMP JUMPDEST PUSH0 PUSH2 0x824 DUP3 PUSH2 0x4AF JUMP JUMPDEST SWAP2 POP PUSH2 0x82F DUP4 PUSH2 0x4AF JUMP JUMPDEST SWAP3 POP DUP3 DUP3 MUL PUSH2 0x83D DUP2 PUSH2 0x4AF JUMP JUMPDEST SWAP2 POP DUP3 DUP3 DIV DUP5 EQ DUP4 ISZERO OR PUSH2 0x854 JUMPI PUSH2 0x853 PUSH2 0x6F4 JUMP JUMPDEST JUMPDEST POP SWAP3 SWAP2 POP POP JUMP JUMPDEST PUSH0 PUSH2 0x865 DUP3 PUSH2 0x4AF JUMP JUMPDEST SWAP2 POP PUSH2 0x870 DUP4 PUSH2 0x4AF JUMP JUMPDEST SWAP3 POP DUP3 DUP3 ADD SWAP1 POP DUP1 DUP3 GT ISZERO PUSH2 0x888 JUMPI PUSH2 0x887 PUSH2 0x6F4 JUMP JUMPDEST JUMPDEST SWAP3 SWAP2 POP POP JUMP JUMPDEST PUSH0 PUSH1 0x40 DUP3 ADD SWAP1 POP PUSH2 0x8A1 PUSH0 DUP4 ADD DUP6 PUSH2 0x62E JUMP JUMPDEST PUSH2 0x8AE PUSH1 0x20 DUP4 ADD DUP5 PUSH2 0x62E JUMP JUMPDEST SWAP4 SWAP3 POP POP POP JUMP INVALID LOG2 PUSH5 0x6970667358 0x22 SLT KECCAK256 0x2C 0xC9 0xA8 XOR 0xA8 EXTCODECOPY GASLIMIT SWAP13 0x2F SWAP9 NOT MULMOD DUP12 SWAP4 0xCF 0x4F JUMPDEST 0xBF JUMPDEST BALANCE 0x2E SWAP12 PUSH0 0xFB SWAP8 0xE3 0x1E 0xEF PUSH6 0x48918D64736F PUSH13 0x634300081A0033000000000000 "
				},
				"gasEstimates": {
					"creation": {
						"codeDepositCost": "456600",
						"executionCost": "infinite",
						"totalCost": "infinite"
					},
					"external": {
						"borrow(uint256)": "infinite",
						"borrowedAmount(address)": "2846",
						"collateral(address)": "2868",
						"owner()": "2527",
						"priceFeed()": "infinite",
						"repay(uint256)": "infinite"
					}
				},
				"methodIdentifiers": {
					"borrow(uint256)": "c5ebeaec",
					"borrowedAmount(address)": "948adb8f",
					"collateral(address)": "a5fdc5de",
					"owner()": "8da5cb5b",
					"priceFeed()": "741bef1a",
					"repay(uint256)": "371fd8e6"
				}
			},
			"storageLayout": {
				"storage": [
					{
						"astId": 9,
						"contract": "test.sol:PriceOracleManipulation",
						"label": "owner",
						"offset": 0,
						"slot": "0",
						"type": "t_address"
					},
					{
						"astId": 12,
						"contract": "test.sol:PriceOracleManipulation",
						"label": "priceFeed",
						"offset": 0,
						"slot": "1",
						"type": "t_contract(IPriceFeed)7"
					},
					{
						"astId": 16,
						"contract": "test.sol:PriceOracleManipulation",
						"label": "borrowedAmount",
						"offset": 0,
						"slot": "2",
						"type": "t_mapping(t_address,t_uint256)"
					},
					{
						"astId": 20,
						"contract": "test.sol:PriceOracleManipulation",
						"label": "collateral",
						"offset": 0,
						"slot": "3",
						"type": "t_mapping(t_address,t_uint256)"
					}
				],
				"types": {
					"t_address": {
						"encoding": "inplace",
						"label": "address",
						"numberOfBytes": "20"
					},
					"t_contract(IPriceFeed)7": {
						"encoding": "inplace",
						"label": "contract IPriceFeed",
						"numberOfBytes": "20"
					},
					"t_mapping(t_address,t_uint256)": {
						"encoding": "mapping",
						"key": "t_address",
						"label": "mapping(address => uint256)",
						"numberOfBytes": "32",
						"value": "t_uint256"
					},
					"t_uint256": {
						"encoding": "inplace",
						"label": "uint256",
						"numberOfBytes": "32"
					}
				}
			},
			"userdoc": {
				"kind": "user",
				"methods": {},
				"version": 1
			}
		}
	}
}