{
	"RPS.sol": {
		"RPS": {
			"abi": [
				{
					"inputs": [],
					"stateMutability": "nonpayable",
					"type": "constructor"
				},
				{
					"anonymous": false,
					"inputs": [
						{
							"indexed": false,
							"internalType": "address",
							"name": "sender",
							"type": "address"
						},
						{
							"indexed": false,
							"internalType": "bytes32",
							"name": "dataHash",
							"type": "bytes32"
						},
						{
							"indexed": false,
							"internalType": "uint64",
							"name": "block",
							"type": "uint64"
						}
					],
					"name": "CommitHash",
					"type": "event"
				},
				{
					"anonymous": false,
					"inputs": [
						{
							"indexed": false,
							"internalType": "address",
							"name": "sender",
							"type": "address"
						},
						{
							"indexed": false,
							"internalType": "bytes32",
							"name": "revealHash",
							"type": "bytes32"
						},
						{
							"indexed": false,
							"internalType": "uint256",
							"name": "random",
							"type": "uint256"
						}
					],
					"name": "RevealHash",
					"type": "event"
				},
				{
					"anonymous": false,
					"inputs": [
						{
							"indexed": false,
							"internalType": "address",
							"name": "sender",
							"type": "address"
						},
						{
							"indexed": false,
							"internalType": "uint256",
							"name": "numPlayer",
							"type": "uint256"
						}
					],
					"name": "playerAdded",
					"type": "event"
				},
				{
					"anonymous": false,
					"inputs": [
						{
							"indexed": false,
							"internalType": "address",
							"name": "sender",
							"type": "address"
						},
						{
							"indexed": false,
							"internalType": "uint256",
							"name": "numInput",
							"type": "uint256"
						}
					],
					"name": "playerCommitHashed",
					"type": "event"
				},
				{
					"inputs": [],
					"name": "addPlayer",
					"outputs": [],
					"stateMutability": "payable",
					"type": "function"
				},
				{
					"inputs": [
						{
							"internalType": "bytes32",
							"name": "dataHash",
							"type": "bytes32"
						}
					],
					"name": "commit",
					"outputs": [],
					"stateMutability": "nonpayable",
					"type": "function"
				},
				{
					"inputs": [
						{
							"internalType": "address",
							"name": "",
							"type": "address"
						}
					],
					"name": "commits",
					"outputs": [
						{
							"internalType": "bytes32",
							"name": "commit",
							"type": "bytes32"
						},
						{
							"internalType": "uint64",
							"name": "block",
							"type": "uint64"
						},
						{
							"internalType": "bool",
							"name": "revealed",
							"type": "bool"
						}
					],
					"stateMutability": "view",
					"type": "function"
				},
				{
					"inputs": [
						{
							"internalType": "bytes32",
							"name": "data",
							"type": "bytes32"
						}
					],
					"name": "getHash",
					"outputs": [
						{
							"internalType": "bytes32",
							"name": "",
							"type": "bytes32"
						}
					],
					"stateMutability": "pure",
					"type": "function"
				},
				{
					"inputs": [
						{
							"internalType": "bytes32",
							"name": "hashAns",
							"type": "bytes32"
						}
					],
					"name": "input",
					"outputs": [],
					"stateMutability": "nonpayable",
					"type": "function"
				},
				{
					"inputs": [
						{
							"internalType": "address",
							"name": "",
							"type": "address"
						}
					],
					"name": "isCommit",
					"outputs": [
						{
							"internalType": "bool",
							"name": "",
							"type": "bool"
						}
					],
					"stateMutability": "view",
					"type": "function"
				},
				{
					"inputs": [],
					"name": "lastAction",
					"outputs": [
						{
							"internalType": "uint256",
							"name": "",
							"type": "uint256"
						}
					],
					"stateMutability": "view",
					"type": "function"
				},
				{
					"inputs": [],
					"name": "max",
					"outputs": [
						{
							"internalType": "uint8",
							"name": "",
							"type": "uint8"
						}
					],
					"stateMutability": "view",
					"type": "function"
				},
				{
					"inputs": [],
					"name": "numInput",
					"outputs": [
						{
							"internalType": "uint256",
							"name": "",
							"type": "uint256"
						}
					],
					"stateMutability": "view",
					"type": "function"
				},
				{
					"inputs": [],
					"name": "numPlayer",
					"outputs": [
						{
							"internalType": "uint256",
							"name": "",
							"type": "uint256"
						}
					],
					"stateMutability": "view",
					"type": "function"
				},
				{
					"inputs": [],
					"name": "numReveal",
					"outputs": [
						{
							"internalType": "uint256",
							"name": "",
							"type": "uint256"
						}
					],
					"stateMutability": "view",
					"type": "function"
				},
				{
					"inputs": [
						{
							"internalType": "address",
							"name": "",
							"type": "address"
						}
					],
					"name": "player_choice",
					"outputs": [
						{
							"internalType": "uint256",
							"name": "",
							"type": "uint256"
						}
					],
					"stateMutability": "view",
					"type": "function"
				},
				{
					"inputs": [
						{
							"internalType": "address",
							"name": "",
							"type": "address"
						}
					],
					"name": "player_not_played",
					"outputs": [
						{
							"internalType": "bool",
							"name": "",
							"type": "bool"
						}
					],
					"stateMutability": "view",
					"type": "function"
				},
				{
					"inputs": [
						{
							"internalType": "uint256",
							"name": "",
							"type": "uint256"
						}
					],
					"name": "players",
					"outputs": [
						{
							"internalType": "address",
							"name": "",
							"type": "address"
						}
					],
					"stateMutability": "view",
					"type": "function"
				},
				{
					"inputs": [
						{
							"internalType": "bytes32",
							"name": "revealHash",
							"type": "bytes32"
						}
					],
					"name": "reveal",
					"outputs": [],
					"stateMutability": "nonpayable",
					"type": "function"
				},
				{
					"inputs": [
						{
							"internalType": "bytes32",
							"name": "hashChoice",
							"type": "bytes32"
						}
					],
					"name": "revealChoice",
					"outputs": [],
					"stateMutability": "nonpayable",
					"type": "function"
				},
				{
					"inputs": [],
					"name": "reward",
					"outputs": [
						{
							"internalType": "uint256",
							"name": "",
							"type": "uint256"
						}
					],
					"stateMutability": "view",
					"type": "function"
				},
				{
					"inputs": [],
					"name": "timeOutWithDraw",
					"outputs": [],
					"stateMutability": "nonpayable",
					"type": "function"
				},
				{
					"inputs": [],
					"name": "timeoutDeration",
					"outputs": [
						{
							"internalType": "uint256",
							"name": "",
							"type": "uint256"
						}
					],
					"stateMutability": "view",
					"type": "function"
				}
			],
			"devdoc": {
				"kind": "dev",
				"methods": {},
				"version": 1
			},
			"evm": {
				"assembly": "    /* \"RPS.sol\":134:5750  contract RPS is CommitReveal {... */\n  mstore(0x40, 0x80)\n    /* \"CommitReveal.sol\":122:125  100 */\n  0x64\n    /* \"CommitReveal.sol\":103:125  uint8 public max = 100 */\n  0x00\n  dup1\n  0x0100\n  exp\n  dup2\n  sload\n  dup2\n  0xff\n  mul\n  not\n  and\n  swap1\n  dup4\n  0xff\n  and\n  mul\n  or\n  swap1\n  sstore\n  pop\n    /* \"RPS.sol\":194:195  0 */\n  0x00\n    /* \"RPS.sol\":170:195  uint public numPlayer = 0 */\n  0x02\n  sstore\n    /* \"RPS.sol\":223:224  0 */\n  0x00\n    /* \"RPS.sol\":202:224  uint public reward = 0 */\n  0x03\n  sstore\n    /* \"RPS.sol\":519:520  0 */\n  0x00\n    /* \"RPS.sol\":496:520  uint public numInput = 0 */\n  0x08\n  sstore\n    /* \"RPS.sol\":551:552  0 */\n  0x00\n    /* \"RPS.sol\":527:552  uint public numReveal = 0 */\n  0x09\n  sstore\n    /* \"RPS.sol\":589:598  1 minutes */\n  0x3c\n    /* \"RPS.sol\":559:598  uint public timeoutDeration = 1 minutes */\n  0x0a\n  sstore\n    /* \"RPS.sol\":630:645  block.timestamp */\n  timestamp\n    /* \"RPS.sol\":605:645  uint public lastAction = block.timestamp */\n  0x0b\n  sstore\n    /* \"RPS.sol\":714:1056  constructor() {... */\n  callvalue\n  dup1\n  iszero\n  tag_1\n  jumpi\n  0x00\n  dup1\n  revert\ntag_1:\n  pop\n    /* \"RPS.sol\":804:808  true */\n  0x01\n    /* \"RPS.sol\":739:757  whitelistedPlayers */\n  0x0c\n    /* \"RPS.sol\":739:801  whitelistedPlayers[0x5B38Da6a701c568545dCfcB03FcB875f56beddC4] */\n  0x00\n    /* \"RPS.sol\":758:800  0x5B38Da6a701c568545dCfcB03FcB875f56beddC4 */\n  0x5b38da6a701c568545dcfcb03fcb875f56beddc4\n    /* \"RPS.sol\":739:801  whitelistedPlayers[0x5B38Da6a701c568545dCfcB03FcB875f56beddC4] */\n  0xffffffffffffffffffffffffffffffffffffffff\n  and\n  0xffffffffffffffffffffffffffffffffffffffff\n  and\n  dup2\n  mstore\n  0x20\n  add\n  swap1\n  dup2\n  mstore\n  0x20\n  add\n  0x00\n  keccak256\n  0x00\n    /* \"RPS.sol\":739:808  whitelistedPlayers[0x5B38Da6a701c568545dCfcB03FcB875f56beddC4] = true */\n  0x0100\n  exp\n  dup2\n  sload\n  dup2\n  0xff\n  mul\n  not\n  and\n  swap1\n  dup4\n  iszero\n  iszero\n  mul\n  or\n  swap1\n  sstore\n  pop\n    /* \"RPS.sol\":884:888  true */\n  0x01\n    /* \"RPS.sol\":819:837  whitelistedPlayers */\n  0x0c\n    /* \"RPS.sol\":819:881  whitelistedPlayers[0xAb8483F64d9C6d1EcF9b849Ae677dD3315835cb2] */\n  0x00\n    /* \"RPS.sol\":838:880  0xAb8483F64d9C6d1EcF9b849Ae677dD3315835cb2 */\n  0xab8483f64d9c6d1ecf9b849ae677dd3315835cb2\n    /* \"RPS.sol\":819:881  whitelistedPlayers[0xAb8483F64d9C6d1EcF9b849Ae677dD3315835cb2] */\n  0xffffffffffffffffffffffffffffffffffffffff\n  and\n  0xffffffffffffffffffffffffffffffffffffffff\n  and\n  dup2\n  mstore\n  0x20\n  add\n  swap1\n  dup2\n  mstore\n  0x20\n  add\n  0x00\n  keccak256\n  0x00\n    /* \"RPS.sol\":819:888  whitelistedPlayers[0xAb8483F64d9C6d1EcF9b849Ae677dD3315835cb2] = true */\n  0x0100\n  exp\n  dup2\n  sload\n  dup2\n  0xff\n  mul\n  not\n  and\n  swap1\n  dup4\n  iszero\n  iszero\n  mul\n  or\n  swap1\n  sstore\n  pop\n    /* \"RPS.sol\":964:968  true */\n  0x01\n    /* \"RPS.sol\":899:917  whitelistedPlayers */\n  0x0c\n    /* \"RPS.sol\":899:961  whitelistedPlayers[0x4B20993Bc481177ec7E8f571ceCaE8A9e22C02db] */\n  0x00\n    /* \"RPS.sol\":918:960  0x4B20993Bc481177ec7E8f571ceCaE8A9e22C02db */\n  0x4b20993bc481177ec7e8f571cecae8a9e22c02db\n    /* \"RPS.sol\":899:961  whitelistedPlayers[0x4B20993Bc481177ec7E8f571ceCaE8A9e22C02db] */\n  0xffffffffffffffffffffffffffffffffffffffff\n  and\n  0xffffffffffffffffffffffffffffffffffffffff\n  and\n  dup2\n  mstore\n  0x20\n  add\n  swap1\n  dup2\n  mstore\n  0x20\n  add\n  0x00\n  keccak256\n  0x00\n    /* \"RPS.sol\":899:968  whitelistedPlayers[0x4B20993Bc481177ec7E8f571ceCaE8A9e22C02db] = true */\n  0x0100\n  exp\n  dup2\n  sload\n  dup2\n  0xff\n  mul\n  not\n  and\n  swap1\n  dup4\n  iszero\n  iszero\n  mul\n  or\n  swap1\n  sstore\n  pop\n    /* \"RPS.sol\":1044:1048  true */\n  0x01\n    /* \"RPS.sol\":979:997  whitelistedPlayers */\n  0x0c\n    /* \"RPS.sol\":979:1041  whitelistedPlayers[0x78731D3Ca6b7E34aC0F824c42a7cC18A495cabaB] */\n  0x00\n    /* \"RPS.sol\":998:1040  0x78731D3Ca6b7E34aC0F824c42a7cC18A495cabaB */\n  0x78731d3ca6b7e34ac0f824c42a7cc18a495cabab\n    /* \"RPS.sol\":979:1041  whitelistedPlayers[0x78731D3Ca6b7E34aC0F824c42a7cC18A495cabaB] */\n  0xffffffffffffffffffffffffffffffffffffffff\n  and\n  0xffffffffffffffffffffffffffffffffffffffff\n  and\n  dup2\n  mstore\n  0x20\n  add\n  swap1\n  dup2\n  mstore\n  0x20\n  add\n  0x00\n  keccak256\n  0x00\n    /* \"RPS.sol\":979:1048  whitelistedPlayers[0x78731D3Ca6b7E34aC0F824c42a7cC18A495cabaB] = true */\n  0x0100\n  exp\n  dup2\n  sload\n  dup2\n  0xff\n  mul\n  not\n  and\n  swap1\n  dup4\n  iszero\n  iszero\n  mul\n  or\n  swap1\n  sstore\n  pop\n    /* \"RPS.sol\":134:5750  contract RPS is CommitReveal {... */\n  dataSize(sub_0)\n  dup1\n  dataOffset(sub_0)\n  0x00\n  codecopy\n  0x00\n  return\nstop\n\nsub_0: assembly {\n        /* \"RPS.sol\":134:5750  contract RPS is CommitReveal {... */\n      mstore(0x40, 0x80)\n      jumpi(tag_1, lt(calldatasize, 0x04))\n      shr(0xe0, calldataload(0x00))\n      dup1\n      0x6ac5db19\n      gt\n      tag_21\n      jumpi\n      dup1\n      0xa040478d\n      gt\n      tag_22\n      jumpi\n      dup1\n      0xa040478d\n      eq\n      tag_16\n      jumpi\n      dup1\n      0xc876e615\n      eq\n      tag_17\n      jumpi\n      dup1\n      0xd891f969\n      eq\n      tag_18\n      jumpi\n      dup1\n      0xf14fcbc8\n      eq\n      tag_19\n      jumpi\n      dup1\n      0xf71d96cb\n      eq\n      tag_20\n      jumpi\n      jump(tag_1)\n    tag_22:\n      dup1\n      0x6ac5db19\n      eq\n      tag_11\n      jumpi\n      dup1\n      0x701fd0f1\n      eq\n      tag_12\n      jumpi\n      dup1\n      0x7b43a8e6\n      eq\n      tag_13\n      jumpi\n      dup1\n      0x89f71d53\n      eq\n      tag_14\n      jumpi\n      dup1\n      0x90d5d0c3\n      eq\n      tag_15\n      jumpi\n      jump(tag_1)\n    tag_21:\n      dup1\n      0x3cf5040a\n      gt\n      tag_23\n      jumpi\n      dup1\n      0x3cf5040a\n      eq\n      tag_6\n      jumpi\n      dup1\n      0x3e2b58e0\n      eq\n      tag_7\n      jumpi\n      dup1\n      0x43cdd438\n      eq\n      tag_8\n      jumpi\n      dup1\n      0x558d51c6\n      eq\n      tag_9\n      jumpi\n      dup1\n      0x65ce0ac6\n      eq\n      tag_10\n      jumpi\n      jump(tag_1)\n    tag_23:\n      dup1\n      0x086f7815\n      eq\n      tag_2\n      jumpi\n      dup1\n      0x190cf745\n      eq\n      tag_3\n      jumpi\n      dup1\n      0x228cb733\n      eq\n      tag_4\n      jumpi\n      dup1\n      0x27b5db8a\n      eq\n      tag_5\n      jumpi\n    tag_1:\n      0x00\n      dup1\n      revert\n        /* \"RPS.sol\":496:520  uint public numInput = 0 */\n    tag_2:\n      callvalue\n      dup1\n      iszero\n      tag_24\n      jumpi\n      0x00\n      dup1\n      revert\n    tag_24:\n      pop\n      tag_25\n      tag_26\n      jump\t// in\n    tag_25:\n      mload(0x40)\n      tag_27\n      swap2\n      swap1\n      tag_28\n      jump\t// in\n    tag_27:\n      mload(0x40)\n      dup1\n      swap2\n      sub\n      swap1\n      return\n        /* \"RPS.sol\":359:408  mapping(address => bool) public player_not_played */\n    tag_3:\n      callvalue\n      dup1\n      iszero\n      tag_29\n      jumpi\n      0x00\n      dup1\n      revert\n    tag_29:\n      pop\n      tag_30\n      0x04\n      dup1\n      calldatasize\n      sub\n      dup2\n      add\n      swap1\n      tag_31\n      swap2\n      swap1\n      tag_32\n      jump\t// in\n    tag_31:\n      tag_33\n      jump\t// in\n    tag_30:\n      mload(0x40)\n      tag_34\n      swap2\n      swap1\n      tag_35\n      jump\t// in\n    tag_34:\n      mload(0x40)\n      dup1\n      swap2\n      sub\n      swap1\n      return\n        /* \"RPS.sol\":202:224  uint public reward = 0 */\n    tag_4:\n      callvalue\n      dup1\n      iszero\n      tag_36\n      jumpi\n      0x00\n      dup1\n      revert\n    tag_36:\n      pop\n      tag_37\n      tag_38\n      jump\t// in\n    tag_37:\n      mload(0x40)\n      tag_39\n      swap2\n      swap1\n      tag_28\n      jump\t// in\n    tag_39:\n      mload(0x40)\n      dup1\n      swap2\n      sub\n      swap1\n      return\n        /* \"RPS.sol\":1064:1716  function addPlayer() public payable {... */\n    tag_5:\n      tag_40\n      tag_41\n      jump\t// in\n    tag_40:\n      stop\n        /* \"CommitReveal.sol\":1858:1970  function getHash(bytes32 data) public pure returns(bytes32){... */\n    tag_6:\n      callvalue\n      dup1\n      iszero\n      tag_42\n      jumpi\n      0x00\n      dup1\n      revert\n    tag_42:\n      pop\n      tag_43\n      0x04\n      dup1\n      calldatasize\n      sub\n      dup2\n      add\n      swap1\n      tag_44\n      swap2\n      swap1\n      tag_45\n      jump\t// in\n    tag_44:\n      tag_46\n      jump\t// in\n    tag_43:\n      mload(0x40)\n      tag_47\n      swap2\n      swap1\n      tag_48\n      jump\t// in\n    tag_47:\n      mload(0x40)\n      dup1\n      swap2\n      sub\n      swap1\n      return\n        /* \"RPS.sol\":559:598  uint public timeoutDeration = 1 minutes */\n    tag_7:\n      callvalue\n      dup1\n      iszero\n      tag_49\n      jumpi\n      0x00\n      dup1\n      revert\n    tag_49:\n      pop\n      tag_50\n      tag_51\n      jump\t// in\n    tag_50:\n      mload(0x40)\n      tag_52\n      swap2\n      swap1\n      tag_28\n      jump\t// in\n    tag_52:\n      mload(0x40)\n      dup1\n      swap2\n      sub\n      swap1\n      return\n        /* \"RPS.sol\":448:489  mapping (address => bool) public isCommit */\n    tag_8:\n      callvalue\n      dup1\n      iszero\n      tag_53\n      jumpi\n      0x00\n      dup1\n      revert\n    tag_53:\n      pop\n      tag_54\n      0x04\n      dup1\n      calldatasize\n      sub\n      dup2\n      add\n      swap1\n      tag_55\n      swap2\n      swap1\n      tag_32\n      jump\t// in\n    tag_55:\n      tag_56\n      jump\t// in\n    tag_54:\n      mload(0x40)\n      tag_57\n      swap2\n      swap1\n      tag_35\n      jump\t// in\n    tag_57:\n      mload(0x40)\n      dup1\n      swap2\n      sub\n      swap1\n      return\n        /* \"RPS.sol\":4351:5747  function timeOutWithDraw() public {... */\n    tag_9:\n      callvalue\n      dup1\n      iszero\n      tag_58\n      jumpi\n      0x00\n      dup1\n      revert\n    tag_58:\n      pop\n      tag_59\n      tag_60\n      jump\t// in\n    tag_59:\n      stop\n        /* \"RPS.sol\":2743:3497  function revealChoice(bytes32 hashChoice) public {... */\n    tag_10:\n      callvalue\n      dup1\n      iszero\n      tag_61\n      jumpi\n      0x00\n      dup1\n      revert\n    tag_61:\n      pop\n      tag_62\n      0x04\n      dup1\n      calldatasize\n      sub\n      dup2\n      add\n      swap1\n      tag_63\n      swap2\n      swap1\n      tag_45\n      jump\t// in\n    tag_63:\n      tag_64\n      jump\t// in\n    tag_62:\n      stop\n        /* \"CommitReveal.sol\":103:125  uint8 public max = 100 */\n    tag_11:\n      callvalue\n      dup1\n      iszero\n      tag_65\n      jumpi\n      0x00\n      dup1\n      revert\n    tag_65:\n      pop\n      tag_66\n      tag_67\n      jump\t// in\n    tag_66:\n      mload(0x40)\n      tag_68\n      swap2\n      swap1\n      tag_69\n      jump\t// in\n    tag_68:\n      mload(0x40)\n      dup1\n      swap2\n      sub\n      swap1\n      return\n        /* \"CommitReveal.sol\":618:1782  function reveal(bytes32 revealHash) public {... */\n    tag_12:\n      callvalue\n      dup1\n      iszero\n      tag_70\n      jumpi\n      0x00\n      dup1\n      revert\n    tag_70:\n      pop\n      tag_71\n      0x04\n      dup1\n      calldatasize\n      sub\n      dup2\n      add\n      swap1\n      tag_72\n      swap2\n      swap1\n      tag_45\n      jump\t// in\n    tag_72:\n      tag_73\n      jump\t// in\n    tag_71:\n      stop\n        /* \"CommitReveal.sol\":218:260  mapping (address => Commit) public commits */\n    tag_13:\n      callvalue\n      dup1\n      iszero\n      tag_74\n      jumpi\n      0x00\n      dup1\n      revert\n    tag_74:\n      pop\n      tag_75\n      0x04\n      dup1\n      calldatasize\n      sub\n      dup2\n      add\n      swap1\n      tag_76\n      swap2\n      swap1\n      tag_32\n      jump\t// in\n    tag_76:\n      tag_77\n      jump\t// in\n    tag_75:\n      mload(0x40)\n      tag_78\n      swap4\n      swap3\n      swap2\n      swap1\n      tag_79\n      jump\t// in\n    tag_78:\n      mload(0x40)\n      dup1\n      swap2\n      sub\n      swap1\n      return\n        /* \"RPS.sol\":605:645  uint public lastAction = block.timestamp */\n    tag_14:\n      callvalue\n      dup1\n      iszero\n      tag_80\n      jumpi\n      0x00\n      dup1\n      revert\n    tag_80:\n      pop\n      tag_81\n      tag_82\n      jump\t// in\n    tag_81:\n      mload(0x40)\n      tag_83\n      swap2\n      swap1\n      tag_28\n      jump\t// in\n    tag_83:\n      mload(0x40)\n      dup1\n      swap2\n      sub\n      swap1\n      return\n        /* \"RPS.sol\":170:195  uint public numPlayer = 0 */\n    tag_15:\n      callvalue\n      dup1\n      iszero\n      tag_84\n      jumpi\n      0x00\n      dup1\n      revert\n    tag_84:\n      pop\n      tag_85\n      tag_86\n      jump\t// in\n    tag_85:\n      mload(0x40)\n      tag_87\n      swap2\n      swap1\n      tag_28\n      jump\t// in\n    tag_87:\n      mload(0x40)\n      dup1\n      swap2\n      sub\n      swap1\n      return\n        /* \"RPS.sol\":231:277  mapping (address => uint) public player_choice */\n    tag_16:\n      callvalue\n      dup1\n      iszero\n      tag_88\n      jumpi\n      0x00\n      dup1\n      revert\n    tag_88:\n      pop\n      tag_89\n      0x04\n      dup1\n      calldatasize\n      sub\n      dup2\n      add\n      swap1\n      tag_90\n      swap2\n      swap1\n      tag_32\n      jump\t// in\n    tag_90:\n      tag_91\n      jump\t// in\n    tag_89:\n      mload(0x40)\n      tag_92\n      swap2\n      swap1\n      tag_28\n      jump\t// in\n    tag_92:\n      mload(0x40)\n      dup1\n      swap2\n      sub\n      swap1\n      return\n        /* \"RPS.sol\":527:552  uint public numReveal = 0 */\n    tag_17:\n      callvalue\n      dup1\n      iszero\n      tag_93\n      jumpi\n      0x00\n      dup1\n      revert\n    tag_93:\n      pop\n      tag_94\n      tag_95\n      jump\t// in\n    tag_94:\n      mload(0x40)\n      tag_96\n      swap2\n      swap1\n      tag_28\n      jump\t// in\n    tag_96:\n      mload(0x40)\n      dup1\n      swap2\n      sub\n      swap1\n      return\n        /* \"RPS.sol\":2168:2671  function input(bytes32 hashAns) public  {... */\n    tag_18:\n      callvalue\n      dup1\n      iszero\n      tag_97\n      jumpi\n      0x00\n      dup1\n      revert\n    tag_97:\n      pop\n      tag_98\n      0x04\n      dup1\n      calldatasize\n      sub\n      dup2\n      add\n      swap1\n      tag_99\n      swap2\n      swap1\n      tag_45\n      jump\t// in\n    tag_99:\n      tag_100\n      jump\t// in\n    tag_98:\n      stop\n        /* \"CommitReveal.sol\":267:543  function commit(bytes32 dataHash) public {... */\n    tag_19:\n      callvalue\n      dup1\n      iszero\n      tag_101\n      jumpi\n      0x00\n      dup1\n      revert\n    tag_101:\n      pop\n      tag_102\n      0x04\n      dup1\n      calldatasize\n      sub\n      dup2\n      add\n      swap1\n      tag_103\n      swap2\n      swap1\n      tag_45\n      jump\t// in\n    tag_103:\n      tag_104\n      jump\t// in\n    tag_102:\n      stop\n        /* \"RPS.sol\":415:439  address[] public players */\n    tag_20:\n      callvalue\n      dup1\n      iszero\n      tag_105\n      jumpi\n      0x00\n      dup1\n      revert\n    tag_105:\n      pop\n      tag_106\n      0x04\n      dup1\n      calldatasize\n      sub\n      dup2\n      add\n      swap1\n      tag_107\n      swap2\n      swap1\n      tag_108\n      jump\t// in\n    tag_107:\n      tag_109\n      jump\t// in\n    tag_106:\n      mload(0x40)\n      tag_110\n      swap2\n      swap1\n      tag_111\n      jump\t// in\n    tag_110:\n      mload(0x40)\n      dup1\n      swap2\n      sub\n      swap1\n      return\n        /* \"RPS.sol\":496:520  uint public numInput = 0 */\n    tag_26:\n      sload(0x08)\n      dup2\n      jump\t// out\n        /* \"RPS.sol\":359:408  mapping(address => bool) public player_not_played */\n    tag_33:\n      mstore(0x20, 0x05)\n      dup1\n      0x00\n      mstore\n      keccak256(0x00, 0x40)\n      0x00\n      swap2\n      pop\n      sload\n      swap1\n      0x0100\n      exp\n      swap1\n      div\n      0xff\n      and\n      dup2\n      jump\t// out\n        /* \"RPS.sol\":202:224  uint public reward = 0 */\n    tag_38:\n      sload(0x03)\n      dup2\n      jump\t// out\n        /* \"RPS.sol\":1064:1716  function addPlayer() public payable {... */\n    tag_41:\n        /* \"RPS.sol\":1131:1132  2 */\n      0x02\n        /* \"RPS.sol\":1119:1128  numPlayer */\n      dup1\n      sload\n        /* \"RPS.sol\":1119:1132  numPlayer < 2 */\n      lt\n        /* \"RPS.sol\":1111:1164  require(numPlayer < 2, \"Game already has 2 players.\") */\n      tag_113\n      jumpi\n      mload(0x40)\n      0x08c379a000000000000000000000000000000000000000000000000000000000\n      dup2\n      mstore\n      0x04\n      add\n      tag_114\n      swap1\n      tag_115\n      jump\t// in\n    tag_114:\n      mload(0x40)\n      dup1\n      swap2\n      sub\n      swap1\n      revert\n    tag_113:\n        /* \"RPS.sol\":1183:1201  whitelistedPlayers */\n      0x0c\n        /* \"RPS.sol\":1183:1213  whitelistedPlayers[msg.sender] */\n      0x00\n        /* \"RPS.sol\":1202:1212  msg.sender */\n      caller\n        /* \"RPS.sol\":1183:1213  whitelistedPlayers[msg.sender] */\n      0xffffffffffffffffffffffffffffffffffffffff\n      and\n      0xffffffffffffffffffffffffffffffffffffffff\n      and\n      dup2\n      mstore\n      0x20\n      add\n      swap1\n      dup2\n      mstore\n      0x20\n      add\n      0x00\n      keccak256\n      0x00\n      swap1\n      sload\n      swap1\n      0x0100\n      exp\n      swap1\n      div\n      0xff\n      and\n        /* \"RPS.sol\":1175:1246  require(whitelistedPlayers[msg.sender], \"You are not allowed to play.\") */\n      tag_116\n      jumpi\n      mload(0x40)\n      0x08c379a000000000000000000000000000000000000000000000000000000000\n      dup2\n      mstore\n      0x04\n      add\n      tag_117\n      swap1\n      tag_118\n      jump\t// in\n    tag_117:\n      mload(0x40)\n      dup1\n      swap2\n      sub\n      swap1\n      revert\n    tag_116:\n        /* \"RPS.sol\":1273:1274  0 */\n      0x00\n        /* \"RPS.sol\":1261:1270  numPlayer */\n      sload(0x02)\n        /* \"RPS.sol\":1261:1274  numPlayer > 0 */\n      gt\n        /* \"RPS.sol\":1257:1336  if (numPlayer > 0) {... */\n      iszero\n      tag_119\n      jumpi\n        /* \"RPS.sol\":1313:1320  players */\n      0x06\n        /* \"RPS.sol\":1321:1322  0 */\n      0x00\n        /* \"RPS.sol\":1313:1323  players[0] */\n      dup2\n      sload\n      dup2\n      lt\n      tag_120\n      jumpi\n      tag_121\n      tag_122\n      jump\t// in\n    tag_121:\n    tag_120:\n      swap1\n      0x00\n      mstore\n      keccak256(0x00, 0x20)\n      add\n      0x00\n      swap1\n      sload\n      swap1\n      0x0100\n      exp\n      swap1\n      div\n      0xffffffffffffffffffffffffffffffffffffffff\n      and\n        /* \"RPS.sol\":1299:1323  msg.sender != players[0] */\n      0xffffffffffffffffffffffffffffffffffffffff\n      and\n        /* \"RPS.sol\":1299:1309  msg.sender */\n      caller\n        /* \"RPS.sol\":1299:1323  msg.sender != players[0] */\n      0xffffffffffffffffffffffffffffffffffffffff\n      and\n      sub\n        /* \"RPS.sol\":1291:1324  require(msg.sender != players[0]) */\n      tag_124\n      jumpi\n      0x00\n      dup1\n      revert\n    tag_124:\n        /* \"RPS.sol\":1257:1336  if (numPlayer > 0) {... */\n    tag_119:\n        /* \"RPS.sol\":1367:1374  1 ether */\n      0x0de0b6b3a7640000\n        /* \"RPS.sol\":1354:1363  msg.value */\n      callvalue\n        /* \"RPS.sol\":1354:1374  msg.value == 1 ether */\n      eq\n        /* \"RPS.sol\":1346:1404  require(msg.value == 1 ether, \"Pay 1 ether to play game.\") */\n      tag_125\n      jumpi\n      mload(0x40)\n      0x08c379a000000000000000000000000000000000000000000000000000000000\n      dup2\n      mstore\n      0x04\n      add\n      tag_126\n      swap1\n      tag_127\n      jump\t// in\n    tag_126:\n      mload(0x40)\n      dup1\n      swap2\n      sub\n      swap1\n      revert\n    tag_125:\n        /* \"RPS.sol\":1425:1434  msg.value */\n      callvalue\n        /* \"RPS.sol\":1415:1421  reward */\n      0x03\n      0x00\n        /* \"RPS.sol\":1415:1434  reward += msg.value */\n      dup3\n      dup3\n      sload\n      tag_128\n      swap2\n      swap1\n      tag_129\n      jump\t// in\n    tag_128:\n      swap3\n      pop\n      pop\n      dup2\n      swap1\n      sstore\n      pop\n        /* \"RPS.sol\":1477:1481  true */\n      0x01\n        /* \"RPS.sol\":1445:1462  player_not_played */\n      0x05\n        /* \"RPS.sol\":1445:1474  player_not_played[msg.sender] */\n      0x00\n        /* \"RPS.sol\":1463:1473  msg.sender */\n      caller\n        /* \"RPS.sol\":1445:1474  player_not_played[msg.sender] */\n      0xffffffffffffffffffffffffffffffffffffffff\n      and\n      0xffffffffffffffffffffffffffffffffffffffff\n      and\n      dup2\n      mstore\n      0x20\n      add\n      swap1\n      dup2\n      mstore\n      0x20\n      add\n      0x00\n      keccak256\n      0x00\n        /* \"RPS.sol\":1445:1481  player_not_played[msg.sender] = true */\n      0x0100\n      exp\n      dup2\n      sload\n      dup2\n      0xff\n      mul\n      not\n      and\n      swap1\n      dup4\n      iszero\n      iszero\n      mul\n      or\n      swap1\n      sstore\n      pop\n        /* \"RPS.sol\":1492:1499  players */\n      0x06\n        /* \"RPS.sol\":1505:1515  msg.sender */\n      caller\n        /* \"RPS.sol\":1492:1516  players.push(msg.sender) */\n      swap1\n      dup1\n      0x01\n      dup2\n      sload\n      add\n      dup1\n      dup3\n      sstore\n      dup1\n      swap2\n      pop\n      pop\n      0x01\n      swap1\n      sub\n      swap1\n      0x00\n      mstore\n      keccak256(0x00, 0x20)\n      add\n      0x00\n      swap1\n      swap2\n      swap1\n      swap2\n      swap1\n      swap2\n      0x0100\n      exp\n      dup2\n      sload\n      dup2\n      0xffffffffffffffffffffffffffffffffffffffff\n      mul\n      not\n      and\n      swap1\n      dup4\n      0xffffffffffffffffffffffffffffffffffffffff\n      and\n      mul\n      or\n      swap1\n      sstore\n      pop\n        /* \"RPS.sol\":1555:1556  5 */\n      0x05\n        /* \"RPS.sol\":1527:1540  player_choice */\n      0x04\n        /* \"RPS.sol\":1527:1552  player_choice[msg.sender] */\n      0x00\n        /* \"RPS.sol\":1541:1551  msg.sender */\n      caller\n        /* \"RPS.sol\":1527:1552  player_choice[msg.sender] */\n      0xffffffffffffffffffffffffffffffffffffffff\n      and\n      0xffffffffffffffffffffffffffffffffffffffff\n      and\n      dup2\n      mstore\n      0x20\n      add\n      swap1\n      dup2\n      mstore\n      0x20\n      add\n      0x00\n      keccak256\n        /* \"RPS.sol\":1527:1556  player_choice[msg.sender] = 5 */\n      dup2\n      swap1\n      sstore\n      pop\n        /* \"RPS.sol\":1590:1595  false */\n      0x00\n        /* \"RPS.sol\":1567:1575  isCommit */\n      0x07\n        /* \"RPS.sol\":1567:1587  isCommit[msg.sender] */\n      0x00\n        /* \"RPS.sol\":1576:1586  msg.sender */\n      caller\n        /* \"RPS.sol\":1567:1587  isCommit[msg.sender] */\n      0xffffffffffffffffffffffffffffffffffffffff\n      and\n      0xffffffffffffffffffffffffffffffffffffffff\n      and\n      dup2\n      mstore\n      0x20\n      add\n      swap1\n      dup2\n      mstore\n      0x20\n      add\n      0x00\n      keccak256\n      0x00\n        /* \"RPS.sol\":1567:1595  isCommit[msg.sender] = false */\n      0x0100\n      exp\n      dup2\n      sload\n      dup2\n      0xff\n      mul\n      not\n      and\n      swap1\n      dup4\n      iszero\n      iszero\n      mul\n      or\n      swap1\n      sstore\n      pop\n        /* \"RPS.sol\":1606:1615  numPlayer */\n      0x02\n      0x00\n        /* \"RPS.sol\":1606:1617  numPlayer++ */\n      dup2\n      sload\n      dup1\n      swap3\n      swap2\n      swap1\n      tag_131\n      swap1\n      tag_132\n      jump\t// in\n    tag_131:\n      swap2\n      swap1\n      pop\n      sstore\n      pop\n        /* \"RPS.sol\":1633:1667  playerAdded(msg.sender, numPlayer) */\n      0x313f9ebdca9d25ee9456dd69022e3324975c8261b7a8b134881905d3b6964d3c\n        /* \"RPS.sol\":1645:1655  msg.sender */\n      caller\n        /* \"RPS.sol\":1657:1666  numPlayer */\n      sload(0x02)\n        /* \"RPS.sol\":1633:1667  playerAdded(msg.sender, numPlayer) */\n      mload(0x40)\n      tag_133\n      swap3\n      swap2\n      swap1\n      tag_134\n      jump\t// in\n    tag_133:\n      mload(0x40)\n      dup1\n      swap2\n      sub\n      swap1\n      log1\n        /* \"RPS.sol\":1693:1708  block.timestamp */\n      timestamp\n        /* \"RPS.sol\":1680:1690  lastAction */\n      0x0b\n        /* \"RPS.sol\":1680:1708  lastAction = block.timestamp */\n      dup2\n      swap1\n      sstore\n      pop\n        /* \"RPS.sol\":1064:1716  function addPlayer() public payable {... */\n      jump\t// out\n        /* \"CommitReveal.sol\":1858:1970  function getHash(bytes32 data) public pure returns(bytes32){... */\n    tag_46:\n        /* \"CommitReveal.sol\":1909:1916  bytes32 */\n      0x00\n        /* \"CommitReveal.sol\":1958:1962  data */\n      dup2\n        /* \"CommitReveal.sol\":1941:1963  abi.encodePacked(data) */\n      add(0x20, mload(0x40))\n      tag_136\n      swap2\n      swap1\n      tag_137\n      jump\t// in\n    tag_136:\n      mload(0x40)\n      0x20\n      dup2\n      dup4\n      sub\n      sub\n      dup2\n      mstore\n      swap1\n      0x40\n      mstore\n        /* \"CommitReveal.sol\":1931:1964  keccak256(abi.encodePacked(data)) */\n      dup1\n      mload\n      swap1\n      0x20\n      add\n      keccak256\n        /* \"CommitReveal.sol\":1924:1964  return keccak256(abi.encodePacked(data)) */\n      swap1\n      pop\n        /* \"CommitReveal.sol\":1858:1970  function getHash(bytes32 data) public pure returns(bytes32){... */\n      swap2\n      swap1\n      pop\n      jump\t// out\n        /* \"RPS.sol\":559:598  uint public timeoutDeration = 1 minutes */\n    tag_51:\n      sload(0x0a)\n      dup2\n      jump\t// out\n        /* \"RPS.sol\":448:489  mapping (address => bool) public isCommit */\n    tag_56:\n      mstore(0x20, 0x07)\n      dup1\n      0x00\n      mstore\n      keccak256(0x00, 0x40)\n      0x00\n      swap2\n      pop\n      sload\n      swap1\n      0x0100\n      exp\n      swap1\n      div\n      0xff\n      and\n      dup2\n      jump\t// out\n        /* \"RPS.sol\":4351:5747  function timeOutWithDraw() public {... */\n    tag_60:\n        /* \"RPS.sol\":4417:4418  1 */\n      0x01\n        /* \"RPS.sol\":4404:4413  numPlayer */\n      sload(0x02)\n        /* \"RPS.sol\":4404:4418  numPlayer >= 1 */\n      lt\n      iszero\n        /* \"RPS.sol\":4396:4419  require(numPlayer >= 1) */\n      tag_139\n      jumpi\n      0x00\n      dup1\n      revert\n    tag_139:\n        /* \"RPS.sol\":4469:4484  timeoutDeration */\n      sload(0x0a)\n        /* \"RPS.sol\":4456:4466  lastAction */\n      sload(0x0b)\n        /* \"RPS.sol\":4456:4484  lastAction + timeoutDeration */\n      tag_140\n      swap2\n      swap1\n      tag_129\n      jump\t// in\n    tag_140:\n        /* \"RPS.sol\":4438:4453  block.timestamp */\n      timestamp\n        /* \"RPS.sol\":4438:4484  block.timestamp > lastAction + timeoutDeration */\n      gt\n        /* \"RPS.sol\":4430:4485  require(block.timestamp > lastAction + timeoutDeration) */\n      tag_141\n      jumpi\n      0x00\n      dup1\n      revert\n    tag_141:\n        /* \"RPS.sol\":4496:4520  address payable account0 */\n      0x00\n        /* \"RPS.sol\":4531:4538  players */\n      0x06\n        /* \"RPS.sol\":4539:4540  0 */\n      0x00\n        /* \"RPS.sol\":4531:4541  players[0] */\n      dup2\n      sload\n      dup2\n      lt\n      tag_142\n      jumpi\n      tag_143\n      tag_122\n      jump\t// in\n    tag_143:\n    tag_142:\n      swap1\n      0x00\n      mstore\n      keccak256(0x00, 0x20)\n      add\n      0x00\n      swap1\n      sload\n      swap1\n      0x0100\n      exp\n      swap1\n      div\n      0xffffffffffffffffffffffffffffffffffffffff\n      and\n        /* \"RPS.sol\":4496:4542  address payable account0 = payable(players[0]) */\n      swap1\n      pop\n        /* \"RPS.sol\":4553:4577  address payable account1 */\n      0x00\n        /* \"RPS.sol\":4588:4595  players */\n      0x06\n        /* \"RPS.sol\":4596:4597  1 */\n      0x01\n        /* \"RPS.sol\":4588:4598  players[1] */\n      dup2\n      sload\n      dup2\n      lt\n      tag_145\n      jumpi\n      tag_146\n      tag_122\n      jump\t// in\n    tag_146:\n    tag_145:\n      swap1\n      0x00\n      mstore\n      keccak256(0x00, 0x20)\n      add\n      0x00\n      swap1\n      sload\n      swap1\n      0x0100\n      exp\n      swap1\n      div\n      0xffffffffffffffffffffffffffffffffffffffff\n      and\n        /* \"RPS.sol\":4553:4599  address payable account1 = payable(players[1]) */\n      swap1\n      pop\n        /* \"RPS.sol\":4655:4656  1 */\n      0x01\n        /* \"RPS.sol\":4642:4651  numPlayer */\n      sload(0x02)\n        /* \"RPS.sol\":4642:4656  numPlayer == 1 */\n      sub\n        /* \"RPS.sol\":4638:5740  if (numPlayer == 1) {... */\n      tag_148\n      jumpi\n        /* \"RPS.sol\":4673:4681  account0 */\n      dup2\n        /* \"RPS.sol\":4673:4690  account0.transfer */\n      0xffffffffffffffffffffffffffffffffffffffff\n      and\n        /* \"RPS.sol\":4673:4698  account0.transfer(reward) */\n      0x08fc\n        /* \"RPS.sol\":4691:4697  reward */\n      sload(0x03)\n        /* \"RPS.sol\":4673:4698  account0.transfer(reward) */\n      swap1\n      dup2\n      iszero\n      mul\n      swap1\n      mload(0x40)\n      0x00\n      mload(0x40)\n      dup1\n      dup4\n      sub\n      dup2\n      dup6\n      dup9\n      dup9\n      call\n      swap4\n      pop\n      pop\n      pop\n      pop\n      iszero\n      dup1\n      iszero\n      tag_150\n      jumpi\n      returndatasize\n      0x00\n      dup1\n      returndatacopy\n      revert(0x00, returndatasize)\n    tag_150:\n      pop\n        /* \"RPS.sol\":4713:4721  _reset() */\n      tag_151\n        /* \"RPS.sol\":4713:4719  _reset */\n      tag_152\n        /* \"RPS.sol\":4713:4721  _reset() */\n      jump\t// in\n    tag_151:\n        /* \"RPS.sol\":4638:5740  if (numPlayer == 1) {... */\n      jump(tag_153)\n    tag_148:\n        /* \"RPS.sol\":4824:4825  2 */\n      0x02\n        /* \"RPS.sol\":4811:4820  numPlayer */\n      dup1\n      sload\n        /* \"RPS.sol\":4811:4825  numPlayer == 2 */\n      eq\n        /* \"RPS.sol\":4811:4881  numPlayer == 2 && (numInput == 0 || (numInput == 2 && numReveal == 0)) */\n      dup1\n      iszero\n      tag_154\n      jumpi\n      pop\n        /* \"RPS.sol\":4842:4843  0 */\n      0x00\n        /* \"RPS.sol\":4830:4838  numInput */\n      sload(0x08)\n        /* \"RPS.sol\":4830:4843  numInput == 0 */\n      eq\n        /* \"RPS.sol\":4830:4880  numInput == 0 || (numInput == 2 && numReveal == 0) */\n      dup1\n      tag_155\n      jumpi\n      pop\n        /* \"RPS.sol\":4860:4861  2 */\n      0x02\n        /* \"RPS.sol\":4848:4856  numInput */\n      sload(0x08)\n        /* \"RPS.sol\":4848:4861  numInput == 2 */\n      eq\n        /* \"RPS.sol\":4848:4879  numInput == 2 && numReveal == 0 */\n      dup1\n      iszero\n      tag_156\n      jumpi\n      pop\n        /* \"RPS.sol\":4878:4879  0 */\n      0x00\n        /* \"RPS.sol\":4865:4874  numReveal */\n      sload(0x09)\n        /* \"RPS.sol\":4865:4879  numReveal == 0 */\n      eq\n        /* \"RPS.sol\":4848:4879  numInput == 2 && numReveal == 0 */\n    tag_156:\n        /* \"RPS.sol\":4830:4880  numInput == 0 || (numInput == 2 && numReveal == 0) */\n    tag_155:\n        /* \"RPS.sol\":4811:4881  numPlayer == 2 && (numInput == 0 || (numInput == 2 && numReveal == 0)) */\n    tag_154:\n        /* \"RPS.sol\":4807:5740  if (numPlayer == 2 && (numInput == 0 || (numInput == 2 && numReveal == 0))) {... */\n      iszero\n      tag_157\n      jumpi\n        /* \"RPS.sol\":4898:4906  account0 */\n      dup2\n        /* \"RPS.sol\":4898:4915  account0.transfer */\n      0xffffffffffffffffffffffffffffffffffffffff\n      and\n        /* \"RPS.sol\":4898:4927  account0.transfer(reward / 2) */\n      0x08fc\n        /* \"RPS.sol\":4925:4926  2 */\n      0x02\n        /* \"RPS.sol\":4916:4922  reward */\n      sload(0x03)\n        /* \"RPS.sol\":4916:4926  reward / 2 */\n      tag_158\n      swap2\n      swap1\n      tag_159\n      jump\t// in\n    tag_158:\n        /* \"RPS.sol\":4898:4927  account0.transfer(reward / 2) */\n      swap1\n      dup2\n      iszero\n      mul\n      swap1\n      mload(0x40)\n      0x00\n      mload(0x40)\n      dup1\n      dup4\n      sub\n      dup2\n      dup6\n      dup9\n      dup9\n      call\n      swap4\n      pop\n      pop\n      pop\n      pop\n      iszero\n      dup1\n      iszero\n      tag_161\n      jumpi\n      returndatasize\n      0x00\n      dup1\n      returndatacopy\n      revert(0x00, returndatasize)\n    tag_161:\n      pop\n        /* \"RPS.sol\":4942:4950  account1 */\n      dup1\n        /* \"RPS.sol\":4942:4959  account1.transfer */\n      0xffffffffffffffffffffffffffffffffffffffff\n      and\n        /* \"RPS.sol\":4942:4971  account1.transfer(reward / 2) */\n      0x08fc\n        /* \"RPS.sol\":4969:4970  2 */\n      0x02\n        /* \"RPS.sol\":4960:4966  reward */\n      sload(0x03)\n        /* \"RPS.sol\":4960:4970  reward / 2 */\n      tag_162\n      swap2\n      swap1\n      tag_159\n      jump\t// in\n    tag_162:\n        /* \"RPS.sol\":4942:4971  account1.transfer(reward / 2) */\n      swap1\n      dup2\n      iszero\n      mul\n      swap1\n      mload(0x40)\n      0x00\n      mload(0x40)\n      dup1\n      dup4\n      sub\n      dup2\n      dup6\n      dup9\n      dup9\n      call\n      swap4\n      pop\n      pop\n      pop\n      pop\n      iszero\n      dup1\n      iszero\n      tag_164\n      jumpi\n      returndatasize\n      0x00\n      dup1\n      returndatacopy\n      revert(0x00, returndatasize)\n    tag_164:\n      pop\n        /* \"RPS.sol\":4986:4994  _reset() */\n      tag_165\n        /* \"RPS.sol\":4986:4992  _reset */\n      tag_152\n        /* \"RPS.sol\":4986:4994  _reset() */\n      jump\t// in\n    tag_165:\n        /* \"RPS.sol\":4807:5740  if (numPlayer == 2 && (numInput == 0 || (numInput == 2 && numReveal == 0))) {... */\n      jump(tag_166)\n    tag_157:\n        /* \"RPS.sol\":5078:5079  2 */\n      0x02\n        /* \"RPS.sol\":5065:5074  numPlayer */\n      dup1\n      sload\n        /* \"RPS.sol\":5065:5079  numPlayer == 2 */\n      eq\n        /* \"RPS.sol\":5065:5096  numPlayer == 2 && numInput == 1 */\n      dup1\n      iszero\n      tag_167\n      jumpi\n      pop\n        /* \"RPS.sol\":5095:5096  1 */\n      0x01\n        /* \"RPS.sol\":5083:5091  numInput */\n      sload(0x08)\n        /* \"RPS.sol\":5083:5096  numInput == 1 */\n      eq\n        /* \"RPS.sol\":5065:5096  numPlayer == 2 && numInput == 1 */\n    tag_167:\n        /* \"RPS.sol\":5061:5740  if (numPlayer == 2 && numInput == 1) {... */\n      iszero\n      tag_168\n      jumpi\n        /* \"RPS.sol\":5183:5187  true */\n      0x01\n        /* \"RPS.sol\":5161:5187  isCommit[account0] == true */\n      iszero\n      iszero\n        /* \"RPS.sol\":5161:5169  isCommit */\n      0x07\n        /* \"RPS.sol\":5161:5179  isCommit[account0] */\n      0x00\n        /* \"RPS.sol\":5170:5178  account0 */\n      dup5\n        /* \"RPS.sol\":5161:5179  isCommit[account0] */\n      0xffffffffffffffffffffffffffffffffffffffff\n      and\n      0xffffffffffffffffffffffffffffffffffffffff\n      and\n      dup2\n      mstore\n      0x20\n      add\n      swap1\n      dup2\n      mstore\n      0x20\n      add\n      0x00\n      keccak256\n      0x00\n      swap1\n      sload\n      swap1\n      0x0100\n      exp\n      swap1\n      div\n      0xff\n      and\n        /* \"RPS.sol\":5161:5187  isCommit[account0] == true */\n      iszero\n      iszero\n      sub\n        /* \"RPS.sol\":5157:5328  if (isCommit[account0] == true) {... */\n      tag_169\n      jumpi\n        /* \"RPS.sol\":5208:5216  account0 */\n      dup2\n        /* \"RPS.sol\":5208:5225  account0.transfer */\n      0xffffffffffffffffffffffffffffffffffffffff\n      and\n        /* \"RPS.sol\":5208:5233  account0.transfer(reward) */\n      0x08fc\n        /* \"RPS.sol\":5226:5232  reward */\n      sload(0x03)\n        /* \"RPS.sol\":5208:5233  account0.transfer(reward) */\n      swap1\n      dup2\n      iszero\n      mul\n      swap1\n      mload(0x40)\n      0x00\n      mload(0x40)\n      dup1\n      dup4\n      sub\n      dup2\n      dup6\n      dup9\n      dup9\n      call\n      swap4\n      pop\n      pop\n      pop\n      pop\n      iszero\n      dup1\n      iszero\n      tag_171\n      jumpi\n      returndatasize\n      0x00\n      dup1\n      returndatacopy\n      revert(0x00, returndatasize)\n    tag_171:\n      pop\n        /* \"RPS.sol\":5157:5328  if (isCommit[account0] == true) {... */\n      jump(tag_172)\n    tag_169:\n        /* \"RPS.sol\":5287:5295  account1 */\n      dup1\n        /* \"RPS.sol\":5287:5304  account1.transfer */\n      0xffffffffffffffffffffffffffffffffffffffff\n      and\n        /* \"RPS.sol\":5287:5312  account1.transfer(reward) */\n      0x08fc\n        /* \"RPS.sol\":5305:5311  reward */\n      sload(0x03)\n        /* \"RPS.sol\":5287:5312  account1.transfer(reward) */\n      swap1\n      dup2\n      iszero\n      mul\n      swap1\n      mload(0x40)\n      0x00\n      mload(0x40)\n      dup1\n      dup4\n      sub\n      dup2\n      dup6\n      dup9\n      dup9\n      call\n      swap4\n      pop\n      pop\n      pop\n      pop\n      iszero\n      dup1\n      iszero\n      tag_174\n      jumpi\n      returndatasize\n      0x00\n      dup1\n      returndatacopy\n      revert(0x00, returndatasize)\n    tag_174:\n      pop\n        /* \"RPS.sol\":5157:5328  if (isCommit[account0] == true) {... */\n    tag_172:\n        /* \"RPS.sol\":5342:5350  _reset() */\n      tag_175\n        /* \"RPS.sol\":5342:5348  _reset */\n      tag_152\n        /* \"RPS.sol\":5342:5350  _reset() */\n      jump\t// in\n    tag_175:\n        /* \"RPS.sol\":5061:5740  if (numPlayer == 2 && numInput == 1) {... */\n      jump(tag_176)\n    tag_168:\n        /* \"RPS.sol\":5435:5436  2 */\n      0x02\n        /* \"RPS.sol\":5422:5431  numPlayer */\n      dup1\n      sload\n        /* \"RPS.sol\":5422:5436  numPlayer == 2 */\n      eq\n        /* \"RPS.sol\":5422:5453  numPlayer == 2 && numInput == 2 */\n      dup1\n      iszero\n      tag_177\n      jumpi\n      pop\n        /* \"RPS.sol\":5452:5453  2 */\n      0x02\n        /* \"RPS.sol\":5440:5448  numInput */\n      sload(0x08)\n        /* \"RPS.sol\":5440:5453  numInput == 2 */\n      eq\n        /* \"RPS.sol\":5422:5453  numPlayer == 2 && numInput == 2 */\n    tag_177:\n        /* \"RPS.sol\":5422:5471  numPlayer == 2 && numInput == 2 && numReveal == 1 */\n      dup1\n      iszero\n      tag_178\n      jumpi\n      pop\n        /* \"RPS.sol\":5470:5471  1 */\n      0x01\n        /* \"RPS.sol\":5457:5466  numReveal */\n      sload(0x09)\n        /* \"RPS.sol\":5457:5471  numReveal == 1 */\n      eq\n        /* \"RPS.sol\":5422:5471  numPlayer == 2 && numInput == 2 && numReveal == 1 */\n    tag_178:\n        /* \"RPS.sol\":5418:5740  if (numPlayer == 2 && numInput == 2 && numReveal == 1) {... */\n      iszero\n      tag_179\n      jumpi\n        /* \"RPS.sol\":5564:5565  5 */\n      0x05\n        /* \"RPS.sol\":5537:5550  player_choice */\n      0x04\n        /* \"RPS.sol\":5537:5560  player_choice[account0] */\n      0x00\n        /* \"RPS.sol\":5551:5559  account0 */\n      dup5\n        /* \"RPS.sol\":5537:5560  player_choice[account0] */\n      0xffffffffffffffffffffffffffffffffffffffff\n      and\n      0xffffffffffffffffffffffffffffffffffffffff\n      and\n      dup2\n      mstore\n      0x20\n      add\n      swap1\n      dup2\n      mstore\n      0x20\n      add\n      0x00\n      keccak256\n      sload\n        /* \"RPS.sol\":5537:5565  player_choice[account0] != 5 */\n      eq\n        /* \"RPS.sol\":5533:5706  if (player_choice[account0] != 5) {... */\n      tag_180\n      jumpi\n        /* \"RPS.sol\":5586:5594  account0 */\n      dup2\n        /* \"RPS.sol\":5586:5603  account0.transfer */\n      0xffffffffffffffffffffffffffffffffffffffff\n      and\n        /* \"RPS.sol\":5586:5611  account0.transfer(reward) */\n      0x08fc\n        /* \"RPS.sol\":5604:5610  reward */\n      sload(0x03)\n        /* \"RPS.sol\":5586:5611  account0.transfer(reward) */\n      swap1\n      dup2\n      iszero\n      mul\n      swap1\n      mload(0x40)\n      0x00\n      mload(0x40)\n      dup1\n      dup4\n      sub\n      dup2\n      dup6\n      dup9\n      dup9\n      call\n      swap4\n      pop\n      pop\n      pop\n      pop\n      iszero\n      dup1\n      iszero\n      tag_182\n      jumpi\n      returndatasize\n      0x00\n      dup1\n      returndatacopy\n      revert(0x00, returndatasize)\n    tag_182:\n      pop\n        /* \"RPS.sol\":5533:5706  if (player_choice[account0] != 5) {... */\n      jump(tag_183)\n    tag_180:\n        /* \"RPS.sol\":5665:5673  account1 */\n      dup1\n        /* \"RPS.sol\":5665:5682  account1.transfer */\n      0xffffffffffffffffffffffffffffffffffffffff\n      and\n        /* \"RPS.sol\":5665:5690  account1.transfer(reward) */\n      0x08fc\n        /* \"RPS.sol\":5683:5689  reward */\n      sload(0x03)\n        /* \"RPS.sol\":5665:5690  account1.transfer(reward) */\n      swap1\n      dup2\n      iszero\n      mul\n      swap1\n      mload(0x40)\n      0x00\n      mload(0x40)\n      dup1\n      dup4\n      sub\n      dup2\n      dup6\n      dup9\n      dup9\n      call\n      swap4\n      pop\n      pop\n      pop\n      pop\n      iszero\n      dup1\n      iszero\n      tag_185\n      jumpi\n      returndatasize\n      0x00\n      dup1\n      returndatacopy\n      revert(0x00, returndatasize)\n    tag_185:\n      pop\n        /* \"RPS.sol\":5533:5706  if (player_choice[account0] != 5) {... */\n    tag_183:\n        /* \"RPS.sol\":5720:5728  _reset() */\n      tag_186\n        /* \"RPS.sol\":5720:5726  _reset */\n      tag_152\n        /* \"RPS.sol\":5720:5728  _reset() */\n      jump\t// in\n    tag_186:\n        /* \"RPS.sol\":5418:5740  if (numPlayer == 2 && numInput == 2 && numReveal == 1) {... */\n    tag_179:\n        /* \"RPS.sol\":5061:5740  if (numPlayer == 2 && numInput == 1) {... */\n    tag_176:\n        /* \"RPS.sol\":4807:5740  if (numPlayer == 2 && (numInput == 0 || (numInput == 2 && numReveal == 0))) {... */\n    tag_166:\n        /* \"RPS.sol\":4638:5740  if (numPlayer == 1) {... */\n    tag_153:\n        /* \"RPS.sol\":4385:5747  {... */\n      pop\n      pop\n        /* \"RPS.sol\":4351:5747  function timeOutWithDraw() public {... */\n      jump\t// out\n        /* \"RPS.sol\":2743:3497  function revealChoice(bytes32 hashChoice) public {... */\n    tag_64:\n        /* \"RPS.sol\":2824:2825  2 */\n      0x02\n        /* \"RPS.sol\":2811:2820  numPlayer */\n      dup1\n      sload\n        /* \"RPS.sol\":2811:2825  numPlayer == 2 */\n      eq\n        /* \"RPS.sol\":2803:2826  require(numPlayer == 2) */\n      tag_188\n      jumpi\n      0x00\n      dup1\n      revert\n    tag_188:\n        /* \"RPS.sol\":2857:2858  2 */\n      0x02\n        /* \"RPS.sol\":2845:2853  numInput */\n      sload(0x08)\n        /* \"RPS.sol\":2845:2858  numInput == 2 */\n      eq\n        /* \"RPS.sol\":2837:2859  require(numInput == 2) */\n      tag_189\n      jumpi\n      0x00\n      dup1\n      revert\n    tag_189:\n        /* \"RPS.sol\":2872:2883  uint choice */\n      0x00\n        /* \"RPS.sol\":2892:2902  hashChoice */\n      dup2\n        /* \"RPS.sol\":2903:2905  31 */\n      0x1f\n        /* \"RPS.sol\":2892:2906  hashChoice[31] */\n      0x20\n      dup2\n      lt\n      tag_190\n      jumpi\n      tag_191\n      tag_122\n      jump\t// in\n    tag_191:\n    tag_190:\n      byte\n      0xf8\n      shl\n        /* \"RPS.sol\":2886:2907  uint8(hashChoice[31]) */\n      0xf8\n      shr\n        /* \"RPS.sol\":2872:2907  uint choice = uint8(hashChoice[31]) */\n      0xff\n      and\n      swap1\n      pop\n        /* \"RPS.sol\":2936:2937  0 */\n      0x00\n        /* \"RPS.sol\":2926:2932  choice */\n      dup2\n        /* \"RPS.sol\":2926:2937  choice >= 0 */\n      lt\n      iszero\n        /* \"RPS.sol\":2926:2952  choice >= 0 && choice <= 4 */\n      dup1\n      iszero\n      tag_192\n      jumpi\n      pop\n        /* \"RPS.sol\":2951:2952  4 */\n      0x04\n        /* \"RPS.sol\":2941:2947  choice */\n      dup2\n        /* \"RPS.sol\":2941:2952  choice <= 4 */\n      gt\n      iszero\n        /* \"RPS.sol\":2926:2952  choice >= 0 && choice <= 4 */\n    tag_192:\n        /* \"RPS.sol\":2918:2995  require(choice >= 0 && choice <= 4, \"Your choice needs to be between 0 to 4\") */\n      tag_193\n      jumpi\n      mload(0x40)\n      0x08c379a000000000000000000000000000000000000000000000000000000000\n      dup2\n      mstore\n      0x04\n      add\n      tag_194\n      swap1\n      tag_195\n      jump\t// in\n    tag_194:\n      mload(0x40)\n      dup1\n      swap2\n      sub\n      swap1\n      revert\n    tag_193:\n        /* \"RPS.sol\":3014:3022  isCommit */\n      0x07\n        /* \"RPS.sol\":3014:3034  isCommit[msg.sender] */\n      0x00\n        /* \"RPS.sol\":3023:3033  msg.sender */\n      caller\n        /* \"RPS.sol\":3014:3034  isCommit[msg.sender] */\n      0xffffffffffffffffffffffffffffffffffffffff\n      and\n      0xffffffffffffffffffffffffffffffffffffffff\n      and\n      dup2\n      mstore\n      0x20\n      add\n      swap1\n      dup2\n      mstore\n      0x20\n      add\n      0x00\n      keccak256\n      0x00\n      swap1\n      sload\n      swap1\n      0x0100\n      exp\n      swap1\n      div\n      0xff\n      and\n        /* \"RPS.sol\":3006:3064  require(isCommit[msg.sender], \"You need to commit first.\") */\n      tag_196\n      jumpi\n      mload(0x40)\n      0x08c379a000000000000000000000000000000000000000000000000000000000\n      dup2\n      mstore\n      0x04\n      add\n      tag_197\n      swap1\n      tag_198\n      jump\t// in\n    tag_197:\n      mload(0x40)\n      dup1\n      swap2\n      sub\n      swap1\n      revert\n    tag_196:\n        /* \"RPS.sol\":3259:3277  reveal(hashChoice) */\n      tag_199\n        /* \"RPS.sol\":3266:3276  hashChoice */\n      dup3\n        /* \"RPS.sol\":3259:3265  reveal */\n      tag_73\n        /* \"RPS.sol\":3259:3277  reveal(hashChoice) */\n      jump\t// in\n    tag_199:\n        /* \"RPS.sol\":3318:3324  choice */\n      dup1\n        /* \"RPS.sol\":3290:3303  player_choice */\n      0x04\n        /* \"RPS.sol\":3290:3315  player_choice[msg.sender] */\n      0x00\n        /* \"RPS.sol\":3304:3314  msg.sender */\n      caller\n        /* \"RPS.sol\":3290:3315  player_choice[msg.sender] */\n      0xffffffffffffffffffffffffffffffffffffffff\n      and\n      0xffffffffffffffffffffffffffffffffffffffff\n      and\n      dup2\n      mstore\n      0x20\n      add\n      swap1\n      dup2\n      mstore\n      0x20\n      add\n      0x00\n      keccak256\n        /* \"RPS.sol\":3290:3324  player_choice[msg.sender] = choice */\n      dup2\n      swap1\n      sstore\n      pop\n        /* \"RPS.sol\":3337:3346  numReveal */\n      0x09\n      0x00\n        /* \"RPS.sol\":3337:3348  numReveal++ */\n      dup2\n      sload\n      dup1\n      swap3\n      swap2\n      swap1\n      tag_200\n      swap1\n      tag_132\n      jump\t// in\n    tag_200:\n      swap2\n      swap1\n      pop\n      sstore\n      pop\n        /* \"RPS.sol\":3374:3389  block.timestamp */\n      timestamp\n        /* \"RPS.sol\":3361:3371  lastAction */\n      0x0b\n        /* \"RPS.sol\":3361:3389  lastAction = block.timestamp */\n      dup2\n      swap1\n      sstore\n      pop\n        /* \"RPS.sol\":3418:3419  2 */\n      0x02\n        /* \"RPS.sol\":3405:3414  numReveal */\n      sload(0x09)\n        /* \"RPS.sol\":3405:3419  numReveal == 2 */\n      sub\n        /* \"RPS.sol\":3402:3490  if(numReveal == 2){... */\n      tag_201\n      jumpi\n        /* \"RPS.sol\":3435:3455  _checkWinnerAndPay() */\n      tag_202\n        /* \"RPS.sol\":3435:3453  _checkWinnerAndPay */\n      tag_203\n        /* \"RPS.sol\":3435:3455  _checkWinnerAndPay() */\n      jump\t// in\n    tag_202:\n        /* \"RPS.sol\":3470:3478  _reset() */\n      tag_204\n        /* \"RPS.sol\":3470:3476  _reset */\n      tag_152\n        /* \"RPS.sol\":3470:3478  _reset() */\n      jump\t// in\n    tag_204:\n        /* \"RPS.sol\":3402:3490  if(numReveal == 2){... */\n    tag_201:\n        /* \"RPS.sol\":2792:3497  {... */\n      pop\n        /* \"RPS.sol\":2743:3497  function revealChoice(bytes32 hashChoice) public {... */\n      pop\n      jump\t// out\n        /* \"CommitReveal.sol\":103:125  uint8 public max = 100 */\n    tag_67:\n      0x00\n      dup1\n      sload\n      swap1\n      0x0100\n      exp\n      swap1\n      div\n      0xff\n      and\n      dup2\n      jump\t// out\n        /* \"CommitReveal.sol\":618:1782  function reveal(bytes32 revealHash) public {... */\n    tag_73:\n        /* \"CommitReveal.sol\":774:779  false */\n      0x00\n        /* \"CommitReveal.sol\":744:779  commits[msg.sender].revealed==false */\n      iszero\n      iszero\n        /* \"CommitReveal.sol\":744:751  commits */\n      0x01\n        /* \"CommitReveal.sol\":744:763  commits[msg.sender] */\n      0x00\n        /* \"CommitReveal.sol\":752:762  msg.sender */\n      caller\n        /* \"CommitReveal.sol\":744:763  commits[msg.sender] */\n      0xffffffffffffffffffffffffffffffffffffffff\n      and\n      0xffffffffffffffffffffffffffffffffffffffff\n      and\n      dup2\n      mstore\n      0x20\n      add\n      swap1\n      dup2\n      mstore\n      0x20\n      add\n      0x00\n      keccak256\n        /* \"CommitReveal.sol\":744:772  commits[msg.sender].revealed */\n      0x01\n      add\n      0x08\n      swap1\n      sload\n      swap1\n      0x0100\n      exp\n      swap1\n      div\n      0xff\n      and\n        /* \"CommitReveal.sol\":744:779  commits[msg.sender].revealed==false */\n      iszero\n      iszero\n      eq\n        /* \"CommitReveal.sol\":736:821  require(commits[msg.sender].revealed==false,\"CommitReveal::reveal: Already revealed\") */\n      tag_206\n      jumpi\n      mload(0x40)\n      0x08c379a000000000000000000000000000000000000000000000000000000000\n      dup2\n      mstore\n      0x04\n      add\n      tag_207\n      swap1\n      tag_208\n      jump\t// in\n    tag_207:\n      mload(0x40)\n      dup1\n      swap2\n      sub\n      swap1\n      revert\n    tag_206:\n        /* \"CommitReveal.sol\":857:861  true */\n      0x01\n        /* \"CommitReveal.sol\":828:835  commits */\n      dup1\n        /* \"CommitReveal.sol\":828:847  commits[msg.sender] */\n      0x00\n        /* \"CommitReveal.sol\":836:846  msg.sender */\n      caller\n        /* \"CommitReveal.sol\":828:847  commits[msg.sender] */\n      0xffffffffffffffffffffffffffffffffffffffff\n      and\n      0xffffffffffffffffffffffffffffffffffffffff\n      and\n      dup2\n      mstore\n      0x20\n      add\n      swap1\n      dup2\n      mstore\n      0x20\n      add\n      0x00\n      keccak256\n        /* \"CommitReveal.sol\":828:856  commits[msg.sender].revealed */\n      0x01\n      add\n      0x08\n        /* \"CommitReveal.sol\":828:861  commits[msg.sender].revealed=true */\n      0x0100\n      exp\n      dup2\n      sload\n      dup2\n      0xff\n      mul\n      not\n      and\n      swap1\n      dup4\n      iszero\n      iszero\n      mul\n      or\n      swap1\n      sstore\n      pop\n        /* \"CommitReveal.sol\":953:960  commits */\n      0x01\n        /* \"CommitReveal.sol\":953:972  commits[msg.sender] */\n      0x00\n        /* \"CommitReveal.sol\":961:971  msg.sender */\n      caller\n        /* \"CommitReveal.sol\":953:972  commits[msg.sender] */\n      0xffffffffffffffffffffffffffffffffffffffff\n      and\n      0xffffffffffffffffffffffffffffffffffffffff\n      and\n      dup2\n      mstore\n      0x20\n      add\n      swap1\n      dup2\n      mstore\n      0x20\n      add\n      0x00\n      keccak256\n        /* \"CommitReveal.sol\":953:979  commits[msg.sender].commit */\n      0x00\n      add\n      sload\n        /* \"CommitReveal.sol\":932:951  getHash(revealHash) */\n      tag_209\n        /* \"CommitReveal.sol\":940:950  revealHash */\n      dup3\n        /* \"CommitReveal.sol\":932:939  getHash */\n      tag_46\n        /* \"CommitReveal.sol\":932:951  getHash(revealHash) */\n      jump\t// in\n    tag_209:\n        /* \"CommitReveal.sol\":932:979  getHash(revealHash)==commits[msg.sender].commit */\n      eq\n        /* \"CommitReveal.sol\":924:1040  require(getHash(revealHash)==commits[msg.sender].commit,\"CommitReveal::reveal: Revealed hash does not match commit\") */\n      tag_210\n      jumpi\n      mload(0x40)\n      0x08c379a000000000000000000000000000000000000000000000000000000000\n      dup2\n      mstore\n      0x04\n      add\n      tag_211\n      swap1\n      tag_212\n      jump\t// in\n    tag_211:\n      mload(0x40)\n      dup1\n      swap2\n      sub\n      swap1\n      revert\n    tag_210:\n        /* \"CommitReveal.sol\":1148:1155  commits */\n      0x01\n        /* \"CommitReveal.sol\":1148:1167  commits[msg.sender] */\n      0x00\n        /* \"CommitReveal.sol\":1156:1166  msg.sender */\n      caller\n        /* \"CommitReveal.sol\":1148:1167  commits[msg.sender] */\n      0xffffffffffffffffffffffffffffffffffffffff\n      and\n      0xffffffffffffffffffffffffffffffffffffffff\n      and\n      dup2\n      mstore\n      0x20\n      add\n      swap1\n      dup2\n      mstore\n      0x20\n      add\n      0x00\n      keccak256\n        /* \"CommitReveal.sol\":1148:1173  commits[msg.sender].block */\n      0x01\n      add\n      0x00\n      swap1\n      sload\n      swap1\n      0x0100\n      exp\n      swap1\n      div\n      0xffffffffffffffff\n      and\n        /* \"CommitReveal.sol\":1127:1173  uint64(block.number)>commits[msg.sender].block */\n      0xffffffffffffffff\n      and\n        /* \"CommitReveal.sol\":1134:1146  block.number */\n      number\n        /* \"CommitReveal.sol\":1127:1173  uint64(block.number)>commits[msg.sender].block */\n      0xffffffffffffffff\n      and\n      gt\n        /* \"CommitReveal.sol\":1119:1243  require(uint64(block.number)>commits[msg.sender].block,\"CommitReveal::reveal: Reveal and commit happened on the same block\") */\n      tag_213\n      jumpi\n      mload(0x40)\n      0x08c379a000000000000000000000000000000000000000000000000000000000\n      dup2\n      mstore\n      0x04\n      add\n      tag_214\n      swap1\n      tag_215\n      jump\t// in\n    tag_214:\n      mload(0x40)\n      dup1\n      swap2\n      sub\n      swap1\n      revert\n    tag_213:\n        /* \"CommitReveal.sol\":1362:1365  250 */\n      0xfa\n        /* \"CommitReveal.sol\":1336:1343  commits */\n      0x01\n        /* \"CommitReveal.sol\":1336:1355  commits[msg.sender] */\n      0x00\n        /* \"CommitReveal.sol\":1344:1354  msg.sender */\n      caller\n        /* \"CommitReveal.sol\":1336:1355  commits[msg.sender] */\n      0xffffffffffffffffffffffffffffffffffffffff\n      and\n      0xffffffffffffffffffffffffffffffffffffffff\n      and\n      dup2\n      mstore\n      0x20\n      add\n      swap1\n      dup2\n      mstore\n      0x20\n      add\n      0x00\n      keccak256\n        /* \"CommitReveal.sol\":1336:1361  commits[msg.sender].block */\n      0x01\n      add\n      0x00\n      swap1\n      sload\n      swap1\n      0x0100\n      exp\n      swap1\n      div\n      0xffffffffffffffff\n      and\n        /* \"CommitReveal.sol\":1336:1365  commits[msg.sender].block+250 */\n      tag_216\n      swap2\n      swap1\n      tag_217\n      jump\t// in\n    tag_216:\n        /* \"CommitReveal.sol\":1314:1365  uint64(block.number)<=commits[msg.sender].block+250 */\n      0xffffffffffffffff\n      and\n        /* \"CommitReveal.sol\":1321:1333  block.number */\n      number\n        /* \"CommitReveal.sol\":1314:1365  uint64(block.number)<=commits[msg.sender].block+250 */\n      0xffffffffffffffff\n      and\n      gt\n      iszero\n        /* \"CommitReveal.sol\":1306:1408  require(uint64(block.number)<=commits[msg.sender].block+250,\"CommitReveal::reveal: Revealed too late\") */\n      tag_218\n      jumpi\n      mload(0x40)\n      0x08c379a000000000000000000000000000000000000000000000000000000000\n      dup2\n      mstore\n      0x04\n      add\n      tag_219\n      swap1\n      tag_220\n      jump\t// in\n    tag_219:\n      mload(0x40)\n      dup1\n      swap2\n      sub\n      swap1\n      revert\n    tag_218:\n        /* \"CommitReveal.sol\":1483:1500  bytes32 blockHash */\n      0x00\n        /* \"CommitReveal.sol\":1513:1520  commits */\n      0x01\n        /* \"CommitReveal.sol\":1513:1532  commits[msg.sender] */\n      0x00\n        /* \"CommitReveal.sol\":1521:1531  msg.sender */\n      caller\n        /* \"CommitReveal.sol\":1513:1532  commits[msg.sender] */\n      0xffffffffffffffffffffffffffffffffffffffff\n      and\n      0xffffffffffffffffffffffffffffffffffffffff\n      and\n      dup2\n      mstore\n      0x20\n      add\n      swap1\n      dup2\n      mstore\n      0x20\n      add\n      0x00\n      keccak256\n        /* \"CommitReveal.sol\":1513:1538  commits[msg.sender].block */\n      0x01\n      add\n      0x00\n      swap1\n      sload\n      swap1\n      0x0100\n      exp\n      swap1\n      div\n      0xffffffffffffffff\n      and\n        /* \"CommitReveal.sol\":1503:1539  blockhash(commits[msg.sender].block) */\n      0xffffffffffffffff\n      and\n      blockhash\n        /* \"CommitReveal.sol\":1483:1539  bytes32 blockHash = blockhash(commits[msg.sender].block) */\n      swap1\n      pop\n        /* \"CommitReveal.sol\":1651:1662  uint random */\n      0x00\n        /* \"CommitReveal.sol\":1721:1724  max */\n      dup1\n      0x00\n      swap1\n      sload\n      swap1\n      0x0100\n      exp\n      swap1\n      div\n      0xff\n      and\n        /* \"CommitReveal.sol\":1665:1724  uint(keccak256(abi.encodePacked(blockHash,revealHash)))%max */\n      0xff\n      and\n        /* \"CommitReveal.sol\":1697:1706  blockHash */\n      dup3\n        /* \"CommitReveal.sol\":1707:1717  revealHash */\n      dup5\n        /* \"CommitReveal.sol\":1680:1718  abi.encodePacked(blockHash,revealHash) */\n      add(0x20, mload(0x40))\n      tag_221\n      swap3\n      swap2\n      swap1\n      tag_222\n      jump\t// in\n    tag_221:\n      mload(0x40)\n      0x20\n      dup2\n      dup4\n      sub\n      sub\n      dup2\n      mstore\n      swap1\n      0x40\n      mstore\n        /* \"CommitReveal.sol\":1670:1719  keccak256(abi.encodePacked(blockHash,revealHash)) */\n      dup1\n      mload\n      swap1\n      0x20\n      add\n      keccak256\n        /* \"CommitReveal.sol\":1665:1720  uint(keccak256(abi.encodePacked(blockHash,revealHash))) */\n      0x00\n      shr\n        /* \"CommitReveal.sol\":1665:1724  uint(keccak256(abi.encodePacked(blockHash,revealHash)))%max */\n      tag_223\n      swap2\n      swap1\n      tag_224\n      jump\t// in\n    tag_223:\n        /* \"CommitReveal.sol\":1651:1724  uint random = uint(keccak256(abi.encodePacked(blockHash,revealHash)))%max */\n      swap1\n      pop\n        /* \"CommitReveal.sol\":1736:1776  RevealHash(msg.sender,revealHash,random) */\n      0xbc016dd1cadeaefcb851af7a0a93532e0023d536894b730801f7bcfe7065bcc2\n        /* \"CommitReveal.sol\":1747:1757  msg.sender */\n      caller\n        /* \"CommitReveal.sol\":1758:1768  revealHash */\n      dup5\n        /* \"CommitReveal.sol\":1769:1775  random */\n      dup4\n        /* \"CommitReveal.sol\":1736:1776  RevealHash(msg.sender,revealHash,random) */\n      mload(0x40)\n      tag_225\n      swap4\n      swap3\n      swap2\n      swap1\n      tag_226\n      jump\t// in\n    tag_225:\n      mload(0x40)\n      dup1\n      swap2\n      sub\n      swap1\n      log1\n        /* \"CommitReveal.sol\":661:1782  {... */\n      pop\n      pop\n        /* \"CommitReveal.sol\":618:1782  function reveal(bytes32 revealHash) public {... */\n      pop\n      jump\t// out\n        /* \"CommitReveal.sol\":218:260  mapping (address => Commit) public commits */\n    tag_77:\n      mstore(0x20, 0x01)\n      dup1\n      0x00\n      mstore\n      keccak256(0x00, 0x40)\n      0x00\n      swap2\n      pop\n      swap1\n      pop\n      dup1\n      0x00\n      add\n      sload\n      swap1\n      dup1\n      0x01\n      add\n      0x00\n      swap1\n      sload\n      swap1\n      0x0100\n      exp\n      swap1\n      div\n      0xffffffffffffffff\n      and\n      swap1\n      dup1\n      0x01\n      add\n      0x08\n      swap1\n      sload\n      swap1\n      0x0100\n      exp\n      swap1\n      div\n      0xff\n      and\n      swap1\n      pop\n      dup4\n      jump\t// out\n        /* \"RPS.sol\":605:645  uint public lastAction = block.timestamp */\n    tag_82:\n      sload(0x0b)\n      dup2\n      jump\t// out\n        /* \"RPS.sol\":170:195  uint public numPlayer = 0 */\n    tag_86:\n      sload(0x02)\n      dup2\n      jump\t// out\n        /* \"RPS.sol\":231:277  mapping (address => uint) public player_choice */\n    tag_91:\n      mstore(0x20, 0x04)\n      dup1\n      0x00\n      mstore\n      keccak256(0x00, 0x40)\n      0x00\n      swap2\n      pop\n      swap1\n      pop\n      sload\n      dup2\n      jump\t// out\n        /* \"RPS.sol\":527:552  uint public numReveal = 0 */\n    tag_95:\n      sload(0x09)\n      dup2\n      jump\t// out\n        /* \"RPS.sol\":2168:2671  function input(bytes32 hashAns) public  {... */\n    tag_100:\n        /* \"RPS.sol\":2240:2241  2 */\n      0x02\n        /* \"RPS.sol\":2227:2236  numPlayer */\n      dup1\n      sload\n        /* \"RPS.sol\":2227:2241  numPlayer == 2 */\n      eq\n        /* \"RPS.sol\":2219:2267  require(numPlayer == 2, \"Game needs 2 players.\") */\n      tag_228\n      jumpi\n      mload(0x40)\n      0x08c379a000000000000000000000000000000000000000000000000000000000\n      dup2\n      mstore\n      0x04\n      add\n      tag_229\n      swap1\n      tag_230\n      jump\t// in\n    tag_229:\n      mload(0x40)\n      dup1\n      swap2\n      sub\n      swap1\n      revert\n    tag_228:\n        /* \"RPS.sol\":2297:2298  2 */\n      0x02\n        /* \"RPS.sol\":2286:2294  numInput */\n      sload(0x08)\n        /* \"RPS.sol\":2286:2298  numInput < 2 */\n      lt\n        /* \"RPS.sol\":2278:2299  require(numInput < 2) */\n      tag_231\n      jumpi\n      0x00\n      dup1\n      revert\n    tag_231:\n        /* \"RPS.sol\":2318:2335  player_not_played */\n      0x05\n        /* \"RPS.sol\":2318:2347  player_not_played[msg.sender] */\n      0x00\n        /* \"RPS.sol\":2336:2346  msg.sender */\n      caller\n        /* \"RPS.sol\":2318:2347  player_not_played[msg.sender] */\n      0xffffffffffffffffffffffffffffffffffffffff\n      and\n      0xffffffffffffffffffffffffffffffffffffffff\n      and\n      dup2\n      mstore\n      0x20\n      add\n      swap1\n      dup2\n      mstore\n      0x20\n      add\n      0x00\n      keccak256\n      0x00\n      swap1\n      sload\n      swap1\n      0x0100\n      exp\n      swap1\n      div\n      0xff\n      and\n        /* \"RPS.sol\":2310:2348  require(player_not_played[msg.sender]) */\n      tag_232\n      jumpi\n      0x00\n      dup1\n      revert\n    tag_232:\n        /* \"RPS.sol\":2391:2396  false */\n      0x00\n        /* \"RPS.sol\":2367:2396  isCommit[msg.sender] == false */\n      iszero\n      iszero\n        /* \"RPS.sol\":2367:2375  isCommit */\n      0x07\n        /* \"RPS.sol\":2367:2387  isCommit[msg.sender] */\n      0x00\n        /* \"RPS.sol\":2376:2386  msg.sender */\n      caller\n        /* \"RPS.sol\":2367:2387  isCommit[msg.sender] */\n      0xffffffffffffffffffffffffffffffffffffffff\n      and\n      0xffffffffffffffffffffffffffffffffffffffff\n      and\n      dup2\n      mstore\n      0x20\n      add\n      swap1\n      dup2\n      mstore\n      0x20\n      add\n      0x00\n      keccak256\n      0x00\n      swap1\n      sload\n      swap1\n      0x0100\n      exp\n      swap1\n      div\n      0xff\n      and\n        /* \"RPS.sol\":2367:2396  isCommit[msg.sender] == false */\n      iszero\n      iszero\n      eq\n        /* \"RPS.sol\":2359:2422  require(isCommit[msg.sender] == false, \"You already commited.\") */\n      tag_233\n      jumpi\n      mload(0x40)\n      0x08c379a000000000000000000000000000000000000000000000000000000000\n      dup2\n      mstore\n      0x04\n      add\n      tag_234\n      swap1\n      tag_235\n      jump\t// in\n    tag_234:\n      mload(0x40)\n      dup1\n      swap2\n      sub\n      swap1\n      revert\n    tag_233:\n        /* \"RPS.sol\":2475:2480  false */\n      0x00\n        /* \"RPS.sol\":2443:2460  player_not_played */\n      0x05\n        /* \"RPS.sol\":2443:2472  player_not_played[msg.sender] */\n      0x00\n        /* \"RPS.sol\":2461:2471  msg.sender */\n      caller\n        /* \"RPS.sol\":2443:2472  player_not_played[msg.sender] */\n      0xffffffffffffffffffffffffffffffffffffffff\n      and\n      0xffffffffffffffffffffffffffffffffffffffff\n      and\n      dup2\n      mstore\n      0x20\n      add\n      swap1\n      dup2\n      mstore\n      0x20\n      add\n      0x00\n      keccak256\n      0x00\n        /* \"RPS.sol\":2443:2480  player_not_played[msg.sender] = false */\n      0x0100\n      exp\n      dup2\n      sload\n      dup2\n      0xff\n      mul\n      not\n      and\n      swap1\n      dup4\n      iszero\n      iszero\n      mul\n      or\n      swap1\n      sstore\n      pop\n        /* \"RPS.sol\":2514:2518  true */\n      0x01\n        /* \"RPS.sol\":2491:2499  isCommit */\n      0x07\n        /* \"RPS.sol\":2491:2511  isCommit[msg.sender] */\n      0x00\n        /* \"RPS.sol\":2500:2510  msg.sender */\n      caller\n        /* \"RPS.sol\":2491:2511  isCommit[msg.sender] */\n      0xffffffffffffffffffffffffffffffffffffffff\n      and\n      0xffffffffffffffffffffffffffffffffffffffff\n      and\n      dup2\n      mstore\n      0x20\n      add\n      swap1\n      dup2\n      mstore\n      0x20\n      add\n      0x00\n      keccak256\n      0x00\n        /* \"RPS.sol\":2491:2518  isCommit[msg.sender] = true */\n      0x0100\n      exp\n      dup2\n      sload\n      dup2\n      0xff\n      mul\n      not\n      and\n      swap1\n      dup4\n      iszero\n      iszero\n      mul\n      or\n      swap1\n      sstore\n      pop\n        /* \"RPS.sol\":2529:2544  commit(hashAns) */\n      tag_236\n        /* \"RPS.sol\":2536:2543  hashAns */\n      dup2\n        /* \"RPS.sol\":2529:2535  commit */\n      tag_104\n        /* \"RPS.sol\":2529:2544  commit(hashAns) */\n      jump\t// in\n    tag_236:\n        /* \"RPS.sol\":2557:2565  numInput */\n      0x08\n      0x00\n        /* \"RPS.sol\":2557:2567  numInput++ */\n      dup2\n      sload\n      dup1\n      swap3\n      swap2\n      swap1\n      tag_237\n      swap1\n      tag_132\n      jump\t// in\n    tag_237:\n      swap2\n      swap1\n      pop\n      sstore\n      pop\n        /* \"RPS.sol\":2583:2622  playerCommitHashed(msg.sender,numInput) */\n      0x3928cc5abcbb1c0b781bebbc4f1e9b156f6d392796c791cc0937db5e42677ff7\n        /* \"RPS.sol\":2602:2612  msg.sender */\n      caller\n        /* \"RPS.sol\":2613:2621  numInput */\n      sload(0x08)\n        /* \"RPS.sol\":2583:2622  playerCommitHashed(msg.sender,numInput) */\n      mload(0x40)\n      tag_238\n      swap3\n      swap2\n      swap1\n      tag_134\n      jump\t// in\n    tag_238:\n      mload(0x40)\n      dup1\n      swap2\n      sub\n      swap1\n      log1\n        /* \"RPS.sol\":2648:2663  block.timestamp */\n      timestamp\n        /* \"RPS.sol\":2635:2645  lastAction */\n      0x0b\n        /* \"RPS.sol\":2635:2663  lastAction = block.timestamp */\n      dup2\n      swap1\n      sstore\n      pop\n        /* \"RPS.sol\":2168:2671  function input(bytes32 hashAns) public  {... */\n      pop\n      jump\t// out\n        /* \"CommitReveal.sol\":267:543  function commit(bytes32 dataHash) public {... */\n    tag_104:\n        /* \"CommitReveal.sol\":344:352  dataHash */\n      dup1\n        /* \"CommitReveal.sol\":315:322  commits */\n      0x01\n        /* \"CommitReveal.sol\":315:334  commits[msg.sender] */\n      0x00\n        /* \"CommitReveal.sol\":323:333  msg.sender */\n      caller\n        /* \"CommitReveal.sol\":315:334  commits[msg.sender] */\n      0xffffffffffffffffffffffffffffffffffffffff\n      and\n      0xffffffffffffffffffffffffffffffffffffffff\n      and\n      dup2\n      mstore\n      0x20\n      add\n      swap1\n      dup2\n      mstore\n      0x20\n      add\n      0x00\n      keccak256\n        /* \"CommitReveal.sol\":315:341  commits[msg.sender].commit */\n      0x00\n      add\n        /* \"CommitReveal.sol\":315:352  commits[msg.sender].commit = dataHash */\n      dup2\n      swap1\n      sstore\n      pop\n        /* \"CommitReveal.sol\":394:406  block.number */\n      number\n        /* \"CommitReveal.sol\":359:366  commits */\n      0x01\n        /* \"CommitReveal.sol\":359:378  commits[msg.sender] */\n      0x00\n        /* \"CommitReveal.sol\":367:377  msg.sender */\n      caller\n        /* \"CommitReveal.sol\":359:378  commits[msg.sender] */\n      0xffffffffffffffffffffffffffffffffffffffff\n      and\n      0xffffffffffffffffffffffffffffffffffffffff\n      and\n      dup2\n      mstore\n      0x20\n      add\n      swap1\n      dup2\n      mstore\n      0x20\n      add\n      0x00\n      keccak256\n        /* \"CommitReveal.sol\":359:384  commits[msg.sender].block */\n      0x01\n      add\n      0x00\n        /* \"CommitReveal.sol\":359:407  commits[msg.sender].block = uint64(block.number) */\n      0x0100\n      exp\n      dup2\n      sload\n      dup2\n      0xffffffffffffffff\n      mul\n      not\n      and\n      swap1\n      dup4\n      0xffffffffffffffff\n      and\n      mul\n      or\n      swap1\n      sstore\n      pop\n        /* \"CommitReveal.sol\":445:450  false */\n      0x00\n        /* \"CommitReveal.sol\":414:421  commits */\n      0x01\n        /* \"CommitReveal.sol\":414:433  commits[msg.sender] */\n      0x00\n        /* \"CommitReveal.sol\":422:432  msg.sender */\n      caller\n        /* \"CommitReveal.sol\":414:433  commits[msg.sender] */\n      0xffffffffffffffffffffffffffffffffffffffff\n      and\n      0xffffffffffffffffffffffffffffffffffffffff\n      and\n      dup2\n      mstore\n      0x20\n      add\n      swap1\n      dup2\n      mstore\n      0x20\n      add\n      0x00\n      keccak256\n        /* \"CommitReveal.sol\":414:442  commits[msg.sender].revealed */\n      0x01\n      add\n      0x08\n        /* \"CommitReveal.sol\":414:450  commits[msg.sender].revealed = false */\n      0x0100\n      exp\n      dup2\n      sload\n      dup2\n      0xff\n      mul\n      not\n      and\n      swap1\n      dup4\n      iszero\n      iszero\n      mul\n      or\n      swap1\n      sstore\n      pop\n        /* \"CommitReveal.sol\":462:537  CommitHash(msg.sender,commits[msg.sender].commit,commits[msg.sender].block) */\n      0x3c1a1f8f38335b17f751c6da4ba7d1865f26b3997535176f5080de9fad891603\n        /* \"CommitReveal.sol\":473:483  msg.sender */\n      caller\n        /* \"CommitReveal.sol\":484:491  commits */\n      0x01\n        /* \"CommitReveal.sol\":484:503  commits[msg.sender] */\n      0x00\n        /* \"CommitReveal.sol\":492:502  msg.sender */\n      caller\n        /* \"CommitReveal.sol\":484:503  commits[msg.sender] */\n      0xffffffffffffffffffffffffffffffffffffffff\n      and\n      0xffffffffffffffffffffffffffffffffffffffff\n      and\n      dup2\n      mstore\n      0x20\n      add\n      swap1\n      dup2\n      mstore\n      0x20\n      add\n      0x00\n      keccak256\n        /* \"CommitReveal.sol\":484:510  commits[msg.sender].commit */\n      0x00\n      add\n      sload\n        /* \"CommitReveal.sol\":511:518  commits */\n      0x01\n        /* \"CommitReveal.sol\":511:530  commits[msg.sender] */\n      0x00\n        /* \"CommitReveal.sol\":519:529  msg.sender */\n      caller\n        /* \"CommitReveal.sol\":511:530  commits[msg.sender] */\n      0xffffffffffffffffffffffffffffffffffffffff\n      and\n      0xffffffffffffffffffffffffffffffffffffffff\n      and\n      dup2\n      mstore\n      0x20\n      add\n      swap1\n      dup2\n      mstore\n      0x20\n      add\n      0x00\n      keccak256\n        /* \"CommitReveal.sol\":511:536  commits[msg.sender].block */\n      0x01\n      add\n      0x00\n      swap1\n      sload\n      swap1\n      0x0100\n      exp\n      swap1\n      div\n      0xffffffffffffffff\n      and\n        /* \"CommitReveal.sol\":462:537  CommitHash(msg.sender,commits[msg.sender].commit,commits[msg.sender].block) */\n      mload(0x40)\n      tag_240\n      swap4\n      swap3\n      swap2\n      swap1\n      tag_241\n      jump\t// in\n    tag_240:\n      mload(0x40)\n      dup1\n      swap2\n      sub\n      swap1\n      log1\n        /* \"CommitReveal.sol\":267:543  function commit(bytes32 dataHash) public {... */\n      pop\n      jump\t// out\n        /* \"RPS.sol\":415:439  address[] public players */\n    tag_109:\n      0x06\n      dup2\n      dup2\n      sload\n      dup2\n      lt\n      tag_242\n      jumpi\n      0x00\n      dup1\n      revert\n    tag_242:\n      swap1\n      0x00\n      mstore\n      keccak256(0x00, 0x20)\n      add\n      0x00\n      swap2\n      pop\n      sload\n      swap1\n      0x0100\n      exp\n      swap1\n      div\n      0xffffffffffffffffffffffffffffffffffffffff\n      and\n      dup2\n      jump\t// out\n        /* \"RPS.sol\":4190:4343  function _reset() private {... */\n    tag_152:\n        /* \"RPS.sol\":4234:4241  players */\n      0x06\n      0x00\n        /* \"RPS.sol\":4227:4241  delete players */\n      tag_245\n      swap2\n      swap1\n      tag_246\n      jump\t// in\n    tag_245:\n        /* \"RPS.sol\":4266:4267  0 */\n      0x00\n        /* \"RPS.sol\":4254:4263  numPlayer */\n      0x02\n        /* \"RPS.sol\":4254:4267  numPlayer = 0 */\n      dup2\n      swap1\n      sstore\n      pop\n        /* \"RPS.sol\":4289:4290  0 */\n      0x00\n        /* \"RPS.sol\":4278:4286  numInput */\n      0x08\n        /* \"RPS.sol\":4278:4290  numInput = 0 */\n      dup2\n      swap1\n      sstore\n      pop\n        /* \"RPS.sol\":4313:4314  0 */\n      0x00\n        /* \"RPS.sol\":4301:4310  numReveal */\n      0x09\n        /* \"RPS.sol\":4301:4314  numReveal = 0 */\n      dup2\n      swap1\n      sstore\n      pop\n        /* \"RPS.sol\":4334:4335  0 */\n      0x00\n        /* \"RPS.sol\":4325:4331  reward */\n      0x03\n        /* \"RPS.sol\":4325:4335  reward = 0 */\n      dup2\n      swap1\n      sstore\n      pop\n        /* \"RPS.sol\":4190:4343  function _reset() private {... */\n      jump\t// out\n        /* \"RPS.sol\":3507:4182  function _checkWinnerAndPay() private {... */\n    tag_203:\n        /* \"RPS.sol\":3556:3569  uint p0Choice */\n      0x00\n        /* \"RPS.sol\":3572:3585  player_choice */\n      0x04\n        /* \"RPS.sol\":3572:3597  player_choice[players[0]] */\n      0x00\n        /* \"RPS.sol\":3586:3593  players */\n      0x06\n        /* \"RPS.sol\":3594:3595  0 */\n      0x00\n        /* \"RPS.sol\":3586:3596  players[0] */\n      dup2\n      sload\n      dup2\n      lt\n      tag_248\n      jumpi\n      tag_249\n      tag_122\n      jump\t// in\n    tag_249:\n    tag_248:\n      swap1\n      0x00\n      mstore\n      keccak256(0x00, 0x20)\n      add\n      0x00\n      swap1\n      sload\n      swap1\n      0x0100\n      exp\n      swap1\n      div\n      0xffffffffffffffffffffffffffffffffffffffff\n      and\n        /* \"RPS.sol\":3572:3597  player_choice[players[0]] */\n      0xffffffffffffffffffffffffffffffffffffffff\n      and\n      0xffffffffffffffffffffffffffffffffffffffff\n      and\n      dup2\n      mstore\n      0x20\n      add\n      swap1\n      dup2\n      mstore\n      0x20\n      add\n      0x00\n      keccak256\n      sload\n        /* \"RPS.sol\":3556:3597  uint p0Choice = player_choice[players[0]] */\n      swap1\n      pop\n        /* \"RPS.sol\":3608:3621  uint p1Choice */\n      0x00\n        /* \"RPS.sol\":3624:3637  player_choice */\n      0x04\n        /* \"RPS.sol\":3624:3649  player_choice[players[1]] */\n      0x00\n        /* \"RPS.sol\":3638:3645  players */\n      0x06\n        /* \"RPS.sol\":3646:3647  1 */\n      0x01\n        /* \"RPS.sol\":3638:3648  players[1] */\n      dup2\n      sload\n      dup2\n      lt\n      tag_251\n      jumpi\n      tag_252\n      tag_122\n      jump\t// in\n    tag_252:\n    tag_251:\n      swap1\n      0x00\n      mstore\n      keccak256(0x00, 0x20)\n      add\n      0x00\n      swap1\n      sload\n      swap1\n      0x0100\n      exp\n      swap1\n      div\n      0xffffffffffffffffffffffffffffffffffffffff\n      and\n        /* \"RPS.sol\":3624:3649  player_choice[players[1]] */\n      0xffffffffffffffffffffffffffffffffffffffff\n      and\n      0xffffffffffffffffffffffffffffffffffffffff\n      and\n      dup2\n      mstore\n      0x20\n      add\n      swap1\n      dup2\n      mstore\n      0x20\n      add\n      0x00\n      keccak256\n      sload\n        /* \"RPS.sol\":3608:3649  uint p1Choice = player_choice[players[1]] */\n      swap1\n      pop\n        /* \"RPS.sol\":3660:3684  address payable account0 */\n      0x00\n        /* \"RPS.sol\":3695:3702  players */\n      0x06\n        /* \"RPS.sol\":3703:3704  0 */\n      0x00\n        /* \"RPS.sol\":3695:3705  players[0] */\n      dup2\n      sload\n      dup2\n      lt\n      tag_254\n      jumpi\n      tag_255\n      tag_122\n      jump\t// in\n    tag_255:\n    tag_254:\n      swap1\n      0x00\n      mstore\n      keccak256(0x00, 0x20)\n      add\n      0x00\n      swap1\n      sload\n      swap1\n      0x0100\n      exp\n      swap1\n      div\n      0xffffffffffffffffffffffffffffffffffffffff\n      and\n        /* \"RPS.sol\":3660:3706  address payable account0 = payable(players[0]) */\n      swap1\n      pop\n        /* \"RPS.sol\":3717:3741  address payable account1 */\n      0x00\n        /* \"RPS.sol\":3752:3759  players */\n      0x06\n        /* \"RPS.sol\":3760:3761  1 */\n      0x01\n        /* \"RPS.sol\":3752:3762  players[1] */\n      dup2\n      sload\n      dup2\n      lt\n      tag_257\n      jumpi\n      tag_258\n      tag_122\n      jump\t// in\n    tag_258:\n    tag_257:\n      swap1\n      0x00\n      mstore\n      keccak256(0x00, 0x20)\n      add\n      0x00\n      swap1\n      sload\n      swap1\n      0x0100\n      exp\n      swap1\n      div\n      0xffffffffffffffffffffffffffffffffffffffff\n      and\n        /* \"RPS.sol\":3717:3763  address payable account1 = payable(players[1]) */\n      swap1\n      pop\n        /* \"RPS.sol\":3790:3798  p1Choice */\n      dup3\n        /* \"RPS.sol\":3778:3786  p0Choice */\n      dup5\n        /* \"RPS.sol\":3778:3798  p0Choice == p1Choice */\n      sub\n        /* \"RPS.sol\":3774:4175  if (p0Choice == p1Choice) {... */\n      tag_260\n      jumpi\n        /* \"RPS.sol\":3815:3823  account0 */\n      dup2\n        /* \"RPS.sol\":3815:3832  account0.transfer */\n      0xffffffffffffffffffffffffffffffffffffffff\n      and\n        /* \"RPS.sol\":3815:3844  account0.transfer(reward / 2) */\n      0x08fc\n        /* \"RPS.sol\":3842:3843  2 */\n      0x02\n        /* \"RPS.sol\":3833:3839  reward */\n      sload(0x03)\n        /* \"RPS.sol\":3833:3843  reward / 2 */\n      tag_261\n      swap2\n      swap1\n      tag_159\n      jump\t// in\n    tag_261:\n        /* \"RPS.sol\":3815:3844  account0.transfer(reward / 2) */\n      swap1\n      dup2\n      iszero\n      mul\n      swap1\n      mload(0x40)\n      0x00\n      mload(0x40)\n      dup1\n      dup4\n      sub\n      dup2\n      dup6\n      dup9\n      dup9\n      call\n      swap4\n      pop\n      pop\n      pop\n      pop\n      iszero\n      dup1\n      iszero\n      tag_263\n      jumpi\n      returndatasize\n      0x00\n      dup1\n      returndatacopy\n      revert(0x00, returndatasize)\n    tag_263:\n      pop\n        /* \"RPS.sol\":3859:3867  account1 */\n      dup1\n        /* \"RPS.sol\":3859:3876  account1.transfer */\n      0xffffffffffffffffffffffffffffffffffffffff\n      and\n        /* \"RPS.sol\":3859:3888  account1.transfer(reward / 2) */\n      0x08fc\n        /* \"RPS.sol\":3886:3887  2 */\n      0x02\n        /* \"RPS.sol\":3877:3883  reward */\n      sload(0x03)\n        /* \"RPS.sol\":3877:3887  reward / 2 */\n      tag_264\n      swap2\n      swap1\n      tag_159\n      jump\t// in\n    tag_264:\n        /* \"RPS.sol\":3859:3888  account1.transfer(reward / 2) */\n      swap1\n      dup2\n      iszero\n      mul\n      swap1\n      mload(0x40)\n      0x00\n      mload(0x40)\n      dup1\n      dup4\n      sub\n      dup2\n      dup6\n      dup9\n      dup9\n      call\n      swap4\n      pop\n      pop\n      pop\n      pop\n      iszero\n      dup1\n      iszero\n      tag_266\n      jumpi\n      returndatasize\n      0x00\n      dup1\n      returndatacopy\n      revert(0x00, returndatasize)\n    tag_266:\n      pop\n        /* \"RPS.sol\":3774:4175  if (p0Choice == p1Choice) {... */\n      jump(tag_267)\n    tag_260:\n        /* \"RPS.sol\":3942:3950  p1Choice */\n      dup3\n        /* \"RPS.sol\":3937:3938  5 */\n      0x05\n        /* \"RPS.sol\":3932:3933  1 */\n      0x01\n        /* \"RPS.sol\":3921:3929  p0Choice */\n      dup7\n        /* \"RPS.sol\":3921:3933  p0Choice + 1 */\n      tag_268\n      swap2\n      swap1\n      tag_129\n      jump\t// in\n    tag_268:\n        /* \"RPS.sol\":3920:3938  (p0Choice + 1) % 5 */\n      tag_269\n      swap2\n      swap1\n      tag_224\n      jump\t// in\n    tag_269:\n        /* \"RPS.sol\":3920:3950  (p0Choice + 1) % 5 == p1Choice */\n      eq\n        /* \"RPS.sol\":3920:3984  (p0Choice + 1) % 5 == p1Choice || (p0Choice + 3) % 5 == p1Choice */\n      dup1\n      tag_270\n      jumpi\n      pop\n        /* \"RPS.sol\":3976:3984  p1Choice */\n      dup3\n        /* \"RPS.sol\":3971:3972  5 */\n      0x05\n        /* \"RPS.sol\":3966:3967  3 */\n      0x03\n        /* \"RPS.sol\":3955:3963  p0Choice */\n      dup7\n        /* \"RPS.sol\":3955:3967  p0Choice + 3 */\n      tag_271\n      swap2\n      swap1\n      tag_129\n      jump\t// in\n    tag_271:\n        /* \"RPS.sol\":3954:3972  (p0Choice + 3) % 5 */\n      tag_272\n      swap2\n      swap1\n      tag_224\n      jump\t// in\n    tag_272:\n        /* \"RPS.sol\":3954:3984  (p0Choice + 3) % 5 == p1Choice */\n      eq\n        /* \"RPS.sol\":3920:3984  (p0Choice + 1) % 5 == p1Choice || (p0Choice + 3) % 5 == p1Choice */\n    tag_270:\n        /* \"RPS.sol\":3916:4175  if ((p0Choice + 1) % 5 == p1Choice || (p0Choice + 3) % 5 == p1Choice) {... */\n      iszero\n      tag_273\n      jumpi\n        /* \"RPS.sol\":4034:4042  account1 */\n      dup1\n        /* \"RPS.sol\":4034:4051  account1.transfer */\n      0xffffffffffffffffffffffffffffffffffffffff\n      and\n        /* \"RPS.sol\":4034:4059  account1.transfer(reward) */\n      0x08fc\n        /* \"RPS.sol\":4052:4058  reward */\n      sload(0x03)\n        /* \"RPS.sol\":4034:4059  account1.transfer(reward) */\n      swap1\n      dup2\n      iszero\n      mul\n      swap1\n      mload(0x40)\n      0x00\n      mload(0x40)\n      dup1\n      dup4\n      sub\n      dup2\n      dup6\n      dup9\n      dup9\n      call\n      swap4\n      pop\n      pop\n      pop\n      pop\n      iszero\n      dup1\n      iszero\n      tag_275\n      jumpi\n      returndatasize\n      0x00\n      dup1\n      returndatacopy\n      revert(0x00, returndatasize)\n    tag_275:\n      pop\n        /* \"RPS.sol\":3916:4175  if ((p0Choice + 1) % 5 == p1Choice || (p0Choice + 3) % 5 == p1Choice) {... */\n      jump(tag_276)\n    tag_273:\n        /* \"RPS.sol\":4134:4142  account0 */\n      dup2\n        /* \"RPS.sol\":4134:4151  account0.transfer */\n      0xffffffffffffffffffffffffffffffffffffffff\n      and\n        /* \"RPS.sol\":4134:4159  account0.transfer(reward) */\n      0x08fc\n        /* \"RPS.sol\":4152:4158  reward */\n      sload(0x03)\n        /* \"RPS.sol\":4134:4159  account0.transfer(reward) */\n      swap1\n      dup2\n      iszero\n      mul\n      swap1\n      mload(0x40)\n      0x00\n      mload(0x40)\n      dup1\n      dup4\n      sub\n      dup2\n      dup6\n      dup9\n      dup9\n      call\n      swap4\n      pop\n      pop\n      pop\n      pop\n      iszero\n      dup1\n      iszero\n      tag_278\n      jumpi\n      returndatasize\n      0x00\n      dup1\n      returndatacopy\n      revert(0x00, returndatasize)\n    tag_278:\n      pop\n        /* \"RPS.sol\":3916:4175  if ((p0Choice + 1) % 5 == p1Choice || (p0Choice + 3) % 5 == p1Choice) {... */\n    tag_276:\n        /* \"RPS.sol\":3774:4175  if (p0Choice == p1Choice) {... */\n    tag_267:\n        /* \"RPS.sol\":3545:4182  {... */\n      pop\n      pop\n      pop\n      pop\n        /* \"RPS.sol\":3507:4182  function _checkWinnerAndPay() private {... */\n      jump\t// out\n    tag_246:\n      pop\n      dup1\n      sload\n      0x00\n      dup3\n      sstore\n      swap1\n      0x00\n      mstore\n      keccak256(0x00, 0x20)\n      swap1\n      dup2\n      add\n      swap1\n      tag_280\n      swap2\n      swap1\n      tag_281\n      jump\t// in\n    tag_280:\n      pop\n      jump\t// out\n    tag_281:\n    tag_282:\n      dup1\n      dup3\n      gt\n      iszero\n      tag_283\n      jumpi\n      0x00\n      dup2\n      0x00\n      swap1\n      sstore\n      pop\n      0x01\n      add\n      jump(tag_282)\n    tag_283:\n      pop\n      swap1\n      jump\t// out\n        /* \"#utility.yul\":7:84   */\n    tag_284:\n        /* \"#utility.yul\":44:51   */\n      0x00\n        /* \"#utility.yul\":73:78   */\n      dup2\n        /* \"#utility.yul\":62:78   */\n      swap1\n      pop\n        /* \"#utility.yul\":7:84   */\n      swap2\n      swap1\n      pop\n      jump\t// out\n        /* \"#utility.yul\":90:208   */\n    tag_285:\n        /* \"#utility.yul\":177:201   */\n      tag_336\n        /* \"#utility.yul\":195:200   */\n      dup2\n        /* \"#utility.yul\":177:201   */\n      tag_284\n      jump\t// in\n    tag_336:\n        /* \"#utility.yul\":172:175   */\n      dup3\n        /* \"#utility.yul\":165:202   */\n      mstore\n        /* \"#utility.yul\":90:208   */\n      pop\n      pop\n      jump\t// out\n        /* \"#utility.yul\":214:436   */\n    tag_28:\n        /* \"#utility.yul\":307:311   */\n      0x00\n        /* \"#utility.yul\":345:347   */\n      0x20\n        /* \"#utility.yul\":334:343   */\n      dup3\n        /* \"#utility.yul\":330:348   */\n      add\n        /* \"#utility.yul\":322:348   */\n      swap1\n      pop\n        /* \"#utility.yul\":358:429   */\n      tag_338\n        /* \"#utility.yul\":426:427   */\n      0x00\n        /* \"#utility.yul\":415:424   */\n      dup4\n        /* \"#utility.yul\":411:428   */\n      add\n        /* \"#utility.yul\":402:408   */\n      dup5\n        /* \"#utility.yul\":358:429   */\n      tag_285\n      jump\t// in\n    tag_338:\n        /* \"#utility.yul\":214:436   */\n      swap3\n      swap2\n      pop\n      pop\n      jump\t// out\n        /* \"#utility.yul\":523:640   */\n    tag_287:\n        /* \"#utility.yul\":632:633   */\n      0x00\n        /* \"#utility.yul\":629:630   */\n      dup1\n        /* \"#utility.yul\":622:634   */\n      revert\n        /* \"#utility.yul\":769:895   */\n    tag_289:\n        /* \"#utility.yul\":806:813   */\n      0x00\n        /* \"#utility.yul\":846:888   */\n      0xffffffffffffffffffffffffffffffffffffffff\n        /* \"#utility.yul\":839:844   */\n      dup3\n        /* \"#utility.yul\":835:889   */\n      and\n        /* \"#utility.yul\":824:889   */\n      swap1\n      pop\n        /* \"#utility.yul\":769:895   */\n      swap2\n      swap1\n      pop\n      jump\t// out\n        /* \"#utility.yul\":901:997   */\n    tag_290:\n        /* \"#utility.yul\":938:945   */\n      0x00\n        /* \"#utility.yul\":967:991   */\n      tag_344\n        /* \"#utility.yul\":985:990   */\n      dup3\n        /* \"#utility.yul\":967:991   */\n      tag_289\n      jump\t// in\n    tag_344:\n        /* \"#utility.yul\":956:991   */\n      swap1\n      pop\n        /* \"#utility.yul\":901:997   */\n      swap2\n      swap1\n      pop\n      jump\t// out\n        /* \"#utility.yul\":1003:1125   */\n    tag_291:\n        /* \"#utility.yul\":1076:1100   */\n      tag_346\n        /* \"#utility.yul\":1094:1099   */\n      dup2\n        /* \"#utility.yul\":1076:1100   */\n      tag_290\n      jump\t// in\n    tag_346:\n        /* \"#utility.yul\":1069:1074   */\n      dup2\n        /* \"#utility.yul\":1066:1101   */\n      eq\n        /* \"#utility.yul\":1056:1119   */\n      tag_347\n      jumpi\n        /* \"#utility.yul\":1115:1116   */\n      0x00\n        /* \"#utility.yul\":1112:1113   */\n      dup1\n        /* \"#utility.yul\":1105:1117   */\n      revert\n        /* \"#utility.yul\":1056:1119   */\n    tag_347:\n        /* \"#utility.yul\":1003:1125   */\n      pop\n      jump\t// out\n        /* \"#utility.yul\":1131:1270   */\n    tag_292:\n        /* \"#utility.yul\":1177:1182   */\n      0x00\n        /* \"#utility.yul\":1215:1221   */\n      dup2\n        /* \"#utility.yul\":1202:1222   */\n      calldataload\n        /* \"#utility.yul\":1193:1222   */\n      swap1\n      pop\n        /* \"#utility.yul\":1231:1264   */\n      tag_349\n        /* \"#utility.yul\":1258:1263   */\n      dup2\n        /* \"#utility.yul\":1231:1264   */\n      tag_291\n      jump\t// in\n    tag_349:\n        /* \"#utility.yul\":1131:1270   */\n      swap3\n      swap2\n      pop\n      pop\n      jump\t// out\n        /* \"#utility.yul\":1276:1605   */\n    tag_32:\n        /* \"#utility.yul\":1335:1341   */\n      0x00\n        /* \"#utility.yul\":1384:1386   */\n      0x20\n        /* \"#utility.yul\":1372:1381   */\n      dup3\n        /* \"#utility.yul\":1363:1370   */\n      dup5\n        /* \"#utility.yul\":1359:1382   */\n      sub\n        /* \"#utility.yul\":1355:1387   */\n      slt\n        /* \"#utility.yul\":1352:1471   */\n      iszero\n      tag_351\n      jumpi\n        /* \"#utility.yul\":1390:1469   */\n      tag_352\n      tag_287\n      jump\t// in\n    tag_352:\n        /* \"#utility.yul\":1352:1471   */\n    tag_351:\n        /* \"#utility.yul\":1510:1511   */\n      0x00\n        /* \"#utility.yul\":1535:1588   */\n      tag_353\n        /* \"#utility.yul\":1580:1587   */\n      dup5\n        /* \"#utility.yul\":1571:1577   */\n      dup3\n        /* \"#utility.yul\":1560:1569   */\n      dup6\n        /* \"#utility.yul\":1556:1578   */\n      add\n        /* \"#utility.yul\":1535:1588   */\n      tag_292\n      jump\t// in\n    tag_353:\n        /* \"#utility.yul\":1525:1588   */\n      swap2\n      pop\n        /* \"#utility.yul\":1481:1598   */\n      pop\n        /* \"#utility.yul\":1276:1605   */\n      swap3\n      swap2\n      pop\n      pop\n      jump\t// out\n        /* \"#utility.yul\":1611:1701   */\n    tag_293:\n        /* \"#utility.yul\":1645:1652   */\n      0x00\n        /* \"#utility.yul\":1688:1693   */\n      dup2\n        /* \"#utility.yul\":1681:1694   */\n      iszero\n        /* \"#utility.yul\":1674:1695   */\n      iszero\n        /* \"#utility.yul\":1663:1695   */\n      swap1\n      pop\n        /* \"#utility.yul\":1611:1701   */\n      swap2\n      swap1\n      pop\n      jump\t// out\n        /* \"#utility.yul\":1707:1816   */\n    tag_294:\n        /* \"#utility.yul\":1788:1809   */\n      tag_356\n        /* \"#utility.yul\":1803:1808   */\n      dup2\n        /* \"#utility.yul\":1788:1809   */\n      tag_293\n      jump\t// in\n    tag_356:\n        /* \"#utility.yul\":1783:1786   */\n      dup3\n        /* \"#utility.yul\":1776:1810   */\n      mstore\n        /* \"#utility.yul\":1707:1816   */\n      pop\n      pop\n      jump\t// out\n        /* \"#utility.yul\":1822:2032   */\n    tag_35:\n        /* \"#utility.yul\":1909:1913   */\n      0x00\n        /* \"#utility.yul\":1947:1949   */\n      0x20\n        /* \"#utility.yul\":1936:1945   */\n      dup3\n        /* \"#utility.yul\":1932:1950   */\n      add\n        /* \"#utility.yul\":1924:1950   */\n      swap1\n      pop\n        /* \"#utility.yul\":1960:2025   */\n      tag_358\n        /* \"#utility.yul\":2022:2023   */\n      0x00\n        /* \"#utility.yul\":2011:2020   */\n      dup4\n        /* \"#utility.yul\":2007:2024   */\n      add\n        /* \"#utility.yul\":1998:2004   */\n      dup5\n        /* \"#utility.yul\":1960:2025   */\n      tag_294\n      jump\t// in\n    tag_358:\n        /* \"#utility.yul\":1822:2032   */\n      swap3\n      swap2\n      pop\n      pop\n      jump\t// out\n        /* \"#utility.yul\":2038:2115   */\n    tag_295:\n        /* \"#utility.yul\":2075:2082   */\n      0x00\n        /* \"#utility.yul\":2104:2109   */\n      dup2\n        /* \"#utility.yul\":2093:2109   */\n      swap1\n      pop\n        /* \"#utility.yul\":2038:2115   */\n      swap2\n      swap1\n      pop\n      jump\t// out\n        /* \"#utility.yul\":2121:2243   */\n    tag_296:\n        /* \"#utility.yul\":2194:2218   */\n      tag_361\n        /* \"#utility.yul\":2212:2217   */\n      dup2\n        /* \"#utility.yul\":2194:2218   */\n      tag_295\n      jump\t// in\n    tag_361:\n        /* \"#utility.yul\":2187:2192   */\n      dup2\n        /* \"#utility.yul\":2184:2219   */\n      eq\n        /* \"#utility.yul\":2174:2237   */\n      tag_362\n      jumpi\n        /* \"#utility.yul\":2233:2234   */\n      0x00\n        /* \"#utility.yul\":2230:2231   */\n      dup1\n        /* \"#utility.yul\":2223:2235   */\n      revert\n        /* \"#utility.yul\":2174:2237   */\n    tag_362:\n        /* \"#utility.yul\":2121:2243   */\n      pop\n      jump\t// out\n        /* \"#utility.yul\":2249:2388   */\n    tag_297:\n        /* \"#utility.yul\":2295:2300   */\n      0x00\n        /* \"#utility.yul\":2333:2339   */\n      dup2\n        /* \"#utility.yul\":2320:2340   */\n      calldataload\n        /* \"#utility.yul\":2311:2340   */\n      swap1\n      pop\n        /* \"#utility.yul\":2349:2382   */\n      tag_364\n        /* \"#utility.yul\":2376:2381   */\n      dup2\n        /* \"#utility.yul\":2349:2382   */\n      tag_296\n      jump\t// in\n    tag_364:\n        /* \"#utility.yul\":2249:2388   */\n      swap3\n      swap2\n      pop\n      pop\n      jump\t// out\n        /* \"#utility.yul\":2394:2723   */\n    tag_45:\n        /* \"#utility.yul\":2453:2459   */\n      0x00\n        /* \"#utility.yul\":2502:2504   */\n      0x20\n        /* \"#utility.yul\":2490:2499   */\n      dup3\n        /* \"#utility.yul\":2481:2488   */\n      dup5\n        /* \"#utility.yul\":2477:2500   */\n      sub\n        /* \"#utility.yul\":2473:2505   */\n      slt\n        /* \"#utility.yul\":2470:2589   */\n      iszero\n      tag_366\n      jumpi\n        /* \"#utility.yul\":2508:2587   */\n      tag_367\n      tag_287\n      jump\t// in\n    tag_367:\n        /* \"#utility.yul\":2470:2589   */\n    tag_366:\n        /* \"#utility.yul\":2628:2629   */\n      0x00\n        /* \"#utility.yul\":2653:2706   */\n      tag_368\n        /* \"#utility.yul\":2698:2705   */\n      dup5\n        /* \"#utility.yul\":2689:2695   */\n      dup3\n        /* \"#utility.yul\":2678:2687   */\n      dup6\n        /* \"#utility.yul\":2674:2696   */\n      add\n        /* \"#utility.yul\":2653:2706   */\n      tag_297\n      jump\t// in\n    tag_368:\n        /* \"#utility.yul\":2643:2706   */\n      swap2\n      pop\n        /* \"#utility.yul\":2599:2716   */\n      pop\n        /* \"#utility.yul\":2394:2723   */\n      swap3\n      swap2\n      pop\n      pop\n      jump\t// out\n        /* \"#utility.yul\":2729:2847   */\n    tag_298:\n        /* \"#utility.yul\":2816:2840   */\n      tag_370\n        /* \"#utility.yul\":2834:2839   */\n      dup2\n        /* \"#utility.yul\":2816:2840   */\n      tag_295\n      jump\t// in\n    tag_370:\n        /* \"#utility.yul\":2811:2814   */\n      dup3\n        /* \"#utility.yul\":2804:2841   */\n      mstore\n        /* \"#utility.yul\":2729:2847   */\n      pop\n      pop\n      jump\t// out\n        /* \"#utility.yul\":2853:3075   */\n    tag_48:\n        /* \"#utility.yul\":2946:2950   */\n      0x00\n        /* \"#utility.yul\":2984:2986   */\n      0x20\n        /* \"#utility.yul\":2973:2982   */\n      dup3\n        /* \"#utility.yul\":2969:2987   */\n      add\n        /* \"#utility.yul\":2961:2987   */\n      swap1\n      pop\n        /* \"#utility.yul\":2997:3068   */\n      tag_372\n        /* \"#utility.yul\":3065:3066   */\n      0x00\n        /* \"#utility.yul\":3054:3063   */\n      dup4\n        /* \"#utility.yul\":3050:3067   */\n      add\n        /* \"#utility.yul\":3041:3047   */\n      dup5\n        /* \"#utility.yul\":2997:3068   */\n      tag_298\n      jump\t// in\n    tag_372:\n        /* \"#utility.yul\":2853:3075   */\n      swap3\n      swap2\n      pop\n      pop\n      jump\t// out\n        /* \"#utility.yul\":3081:3167   */\n    tag_299:\n        /* \"#utility.yul\":3116:3123   */\n      0x00\n        /* \"#utility.yul\":3156:3160   */\n      0xff\n        /* \"#utility.yul\":3149:3154   */\n      dup3\n        /* \"#utility.yul\":3145:3161   */\n      and\n        /* \"#utility.yul\":3134:3161   */\n      swap1\n      pop\n        /* \"#utility.yul\":3081:3167   */\n      swap2\n      swap1\n      pop\n      jump\t// out\n        /* \"#utility.yul\":3173:3285   */\n    tag_300:\n        /* \"#utility.yul\":3256:3278   */\n      tag_375\n        /* \"#utility.yul\":3272:3277   */\n      dup2\n        /* \"#utility.yul\":3256:3278   */\n      tag_299\n      jump\t// in\n    tag_375:\n        /* \"#utility.yul\":3251:3254   */\n      dup3\n        /* \"#utility.yul\":3244:3279   */\n      mstore\n        /* \"#utility.yul\":3173:3285   */\n      pop\n      pop\n      jump\t// out\n        /* \"#utility.yul\":3291:3505   */\n    tag_69:\n        /* \"#utility.yul\":3380:3384   */\n      0x00\n        /* \"#utility.yul\":3418:3420   */\n      0x20\n        /* \"#utility.yul\":3407:3416   */\n      dup3\n        /* \"#utility.yul\":3403:3421   */\n      add\n        /* \"#utility.yul\":3395:3421   */\n      swap1\n      pop\n        /* \"#utility.yul\":3431:3498   */\n      tag_377\n        /* \"#utility.yul\":3495:3496   */\n      0x00\n        /* \"#utility.yul\":3484:3493   */\n      dup4\n        /* \"#utility.yul\":3480:3497   */\n      add\n        /* \"#utility.yul\":3471:3477   */\n      dup5\n        /* \"#utility.yul\":3431:3498   */\n      tag_300\n      jump\t// in\n    tag_377:\n        /* \"#utility.yul\":3291:3505   */\n      swap3\n      swap2\n      pop\n      pop\n      jump\t// out\n        /* \"#utility.yul\":3511:3612   */\n    tag_301:\n        /* \"#utility.yul\":3547:3554   */\n      0x00\n        /* \"#utility.yul\":3587:3605   */\n      0xffffffffffffffff\n        /* \"#utility.yul\":3580:3585   */\n      dup3\n        /* \"#utility.yul\":3576:3606   */\n      and\n        /* \"#utility.yul\":3565:3606   */\n      swap1\n      pop\n        /* \"#utility.yul\":3511:3612   */\n      swap2\n      swap1\n      pop\n      jump\t// out\n        /* \"#utility.yul\":3618:3733   */\n    tag_302:\n        /* \"#utility.yul\":3703:3726   */\n      tag_380\n        /* \"#utility.yul\":3720:3725   */\n      dup2\n        /* \"#utility.yul\":3703:3726   */\n      tag_301\n      jump\t// in\n    tag_380:\n        /* \"#utility.yul\":3698:3701   */\n      dup3\n        /* \"#utility.yul\":3691:3727   */\n      mstore\n        /* \"#utility.yul\":3618:3733   */\n      pop\n      pop\n      jump\t// out\n        /* \"#utility.yul\":3739:4165   */\n    tag_79:\n        /* \"#utility.yul\":3880:3884   */\n      0x00\n        /* \"#utility.yul\":3918:3920   */\n      0x60\n        /* \"#utility.yul\":3907:3916   */\n      dup3\n        /* \"#utility.yul\":3903:3921   */\n      add\n        /* \"#utility.yul\":3895:3921   */\n      swap1\n      pop\n        /* \"#utility.yul\":3931:4002   */\n      tag_382\n        /* \"#utility.yul\":3999:4000   */\n      0x00\n        /* \"#utility.yul\":3988:3997   */\n      dup4\n        /* \"#utility.yul\":3984:4001   */\n      add\n        /* \"#utility.yul\":3975:3981   */\n      dup7\n        /* \"#utility.yul\":3931:4002   */\n      tag_298\n      jump\t// in\n    tag_382:\n        /* \"#utility.yul\":4012:4082   */\n      tag_383\n        /* \"#utility.yul\":4078:4080   */\n      0x20\n        /* \"#utility.yul\":4067:4076   */\n      dup4\n        /* \"#utility.yul\":4063:4081   */\n      add\n        /* \"#utility.yul\":4054:4060   */\n      dup6\n        /* \"#utility.yul\":4012:4082   */\n      tag_302\n      jump\t// in\n    tag_383:\n        /* \"#utility.yul\":4092:4158   */\n      tag_384\n        /* \"#utility.yul\":4154:4156   */\n      0x40\n        /* \"#utility.yul\":4143:4152   */\n      dup4\n        /* \"#utility.yul\":4139:4157   */\n      add\n        /* \"#utility.yul\":4130:4136   */\n      dup5\n        /* \"#utility.yul\":4092:4158   */\n      tag_294\n      jump\t// in\n    tag_384:\n        /* \"#utility.yul\":3739:4165   */\n      swap5\n      swap4\n      pop\n      pop\n      pop\n      pop\n      jump\t// out\n        /* \"#utility.yul\":4171:4293   */\n    tag_303:\n        /* \"#utility.yul\":4244:4268   */\n      tag_386\n        /* \"#utility.yul\":4262:4267   */\n      dup2\n        /* \"#utility.yul\":4244:4268   */\n      tag_284\n      jump\t// in\n    tag_386:\n        /* \"#utility.yul\":4237:4242   */\n      dup2\n        /* \"#utility.yul\":4234:4269   */\n      eq\n        /* \"#utility.yul\":4224:4287   */\n      tag_387\n      jumpi\n        /* \"#utility.yul\":4283:4284   */\n      0x00\n        /* \"#utility.yul\":4280:4281   */\n      dup1\n        /* \"#utility.yul\":4273:4285   */\n      revert\n        /* \"#utility.yul\":4224:4287   */\n    tag_387:\n        /* \"#utility.yul\":4171:4293   */\n      pop\n      jump\t// out\n        /* \"#utility.yul\":4299:4438   */\n    tag_304:\n        /* \"#utility.yul\":4345:4350   */\n      0x00\n        /* \"#utility.yul\":4383:4389   */\n      dup2\n        /* \"#utility.yul\":4370:4390   */\n      calldataload\n        /* \"#utility.yul\":4361:4390   */\n      swap1\n      pop\n        /* \"#utility.yul\":4399:4432   */\n      tag_389\n        /* \"#utility.yul\":4426:4431   */\n      dup2\n        /* \"#utility.yul\":4399:4432   */\n      tag_303\n      jump\t// in\n    tag_389:\n        /* \"#utility.yul\":4299:4438   */\n      swap3\n      swap2\n      pop\n      pop\n      jump\t// out\n        /* \"#utility.yul\":4444:4773   */\n    tag_108:\n        /* \"#utility.yul\":4503:4509   */\n      0x00\n        /* \"#utility.yul\":4552:4554   */\n      0x20\n        /* \"#utility.yul\":4540:4549   */\n      dup3\n        /* \"#utility.yul\":4531:4538   */\n      dup5\n        /* \"#utility.yul\":4527:4550   */\n      sub\n        /* \"#utility.yul\":4523:4555   */\n      slt\n        /* \"#utility.yul\":4520:4639   */\n      iszero\n      tag_391\n      jumpi\n        /* \"#utility.yul\":4558:4637   */\n      tag_392\n      tag_287\n      jump\t// in\n    tag_392:\n        /* \"#utility.yul\":4520:4639   */\n    tag_391:\n        /* \"#utility.yul\":4678:4679   */\n      0x00\n        /* \"#utility.yul\":4703:4756   */\n      tag_393\n        /* \"#utility.yul\":4748:4755   */\n      dup5\n        /* \"#utility.yul\":4739:4745   */\n      dup3\n        /* \"#utility.yul\":4728:4737   */\n      dup6\n        /* \"#utility.yul\":4724:4746   */\n      add\n        /* \"#utility.yul\":4703:4756   */\n      tag_304\n      jump\t// in\n    tag_393:\n        /* \"#utility.yul\":4693:4756   */\n      swap2\n      pop\n        /* \"#utility.yul\":4649:4766   */\n      pop\n        /* \"#utility.yul\":4444:4773   */\n      swap3\n      swap2\n      pop\n      pop\n      jump\t// out\n        /* \"#utility.yul\":4779:4897   */\n    tag_305:\n        /* \"#utility.yul\":4866:4890   */\n      tag_395\n        /* \"#utility.yul\":4884:4889   */\n      dup2\n        /* \"#utility.yul\":4866:4890   */\n      tag_290\n      jump\t// in\n    tag_395:\n        /* \"#utility.yul\":4861:4864   */\n      dup3\n        /* \"#utility.yul\":4854:4891   */\n      mstore\n        /* \"#utility.yul\":4779:4897   */\n      pop\n      pop\n      jump\t// out\n        /* \"#utility.yul\":4903:5125   */\n    tag_111:\n        /* \"#utility.yul\":4996:5000   */\n      0x00\n        /* \"#utility.yul\":5034:5036   */\n      0x20\n        /* \"#utility.yul\":5023:5032   */\n      dup3\n        /* \"#utility.yul\":5019:5037   */\n      add\n        /* \"#utility.yul\":5011:5037   */\n      swap1\n      pop\n        /* \"#utility.yul\":5047:5118   */\n      tag_397\n        /* \"#utility.yul\":5115:5116   */\n      0x00\n        /* \"#utility.yul\":5104:5113   */\n      dup4\n        /* \"#utility.yul\":5100:5117   */\n      add\n        /* \"#utility.yul\":5091:5097   */\n      dup5\n        /* \"#utility.yul\":5047:5118   */\n      tag_305\n      jump\t// in\n    tag_397:\n        /* \"#utility.yul\":4903:5125   */\n      swap3\n      swap2\n      pop\n      pop\n      jump\t// out\n        /* \"#utility.yul\":5131:5300   */\n    tag_306:\n        /* \"#utility.yul\":5215:5226   */\n      0x00\n        /* \"#utility.yul\":5249:5255   */\n      dup3\n        /* \"#utility.yul\":5244:5247   */\n      dup3\n        /* \"#utility.yul\":5237:5256   */\n      mstore\n        /* \"#utility.yul\":5289:5293   */\n      0x20\n        /* \"#utility.yul\":5284:5287   */\n      dup3\n        /* \"#utility.yul\":5280:5294   */\n      add\n        /* \"#utility.yul\":5265:5294   */\n      swap1\n      pop\n        /* \"#utility.yul\":5131:5300   */\n      swap3\n      swap2\n      pop\n      pop\n      jump\t// out\n        /* \"#utility.yul\":5306:5483   */\n    tag_307:\n        /* \"#utility.yul\":5446:5475   */\n      0x47616d6520616c726561647920686173203220706c61796572732e0000000000\n        /* \"#utility.yul\":5442:5443   */\n      0x00\n        /* \"#utility.yul\":5434:5440   */\n      dup3\n        /* \"#utility.yul\":5430:5444   */\n      add\n        /* \"#utility.yul\":5423:5476   */\n      mstore\n        /* \"#utility.yul\":5306:5483   */\n      pop\n      jump\t// out\n        /* \"#utility.yul\":5489:5855   */\n    tag_308:\n        /* \"#utility.yul\":5631:5634   */\n      0x00\n        /* \"#utility.yul\":5652:5719   */\n      tag_401\n        /* \"#utility.yul\":5716:5718   */\n      0x1b\n        /* \"#utility.yul\":5711:5714   */\n      dup4\n        /* \"#utility.yul\":5652:5719   */\n      tag_306\n      jump\t// in\n    tag_401:\n        /* \"#utility.yul\":5645:5719   */\n      swap2\n      pop\n        /* \"#utility.yul\":5728:5821   */\n      tag_402\n        /* \"#utility.yul\":5817:5820   */\n      dup3\n        /* \"#utility.yul\":5728:5821   */\n      tag_307\n      jump\t// in\n    tag_402:\n        /* \"#utility.yul\":5846:5848   */\n      0x20\n        /* \"#utility.yul\":5841:5844   */\n      dup3\n        /* \"#utility.yul\":5837:5849   */\n      add\n        /* \"#utility.yul\":5830:5849   */\n      swap1\n      pop\n        /* \"#utility.yul\":5489:5855   */\n      swap2\n      swap1\n      pop\n      jump\t// out\n        /* \"#utility.yul\":5861:6280   */\n    tag_115:\n        /* \"#utility.yul\":6027:6031   */\n      0x00\n        /* \"#utility.yul\":6065:6067   */\n      0x20\n        /* \"#utility.yul\":6054:6063   */\n      dup3\n        /* \"#utility.yul\":6050:6068   */\n      add\n        /* \"#utility.yul\":6042:6068   */\n      swap1\n      pop\n        /* \"#utility.yul\":6114:6123   */\n      dup2\n        /* \"#utility.yul\":6108:6112   */\n      dup2\n        /* \"#utility.yul\":6104:6124   */\n      sub\n        /* \"#utility.yul\":6100:6101   */\n      0x00\n        /* \"#utility.yul\":6089:6098   */\n      dup4\n        /* \"#utility.yul\":6085:6102   */\n      add\n        /* \"#utility.yul\":6078:6125   */\n      mstore\n        /* \"#utility.yul\":6142:6273   */\n      tag_404\n        /* \"#utility.yul\":6268:6272   */\n      dup2\n        /* \"#utility.yul\":6142:6273   */\n      tag_308\n      jump\t// in\n    tag_404:\n        /* \"#utility.yul\":6134:6273   */\n      swap1\n      pop\n        /* \"#utility.yul\":5861:6280   */\n      swap2\n      swap1\n      pop\n      jump\t// out\n        /* \"#utility.yul\":6286:6464   */\n    tag_309:\n        /* \"#utility.yul\":6426:6456   */\n      0x596f7520617265206e6f7420616c6c6f77656420746f20706c61792e00000000\n        /* \"#utility.yul\":6422:6423   */\n      0x00\n        /* \"#utility.yul\":6414:6420   */\n      dup3\n        /* \"#utility.yul\":6410:6424   */\n      add\n        /* \"#utility.yul\":6403:6457   */\n      mstore\n        /* \"#utility.yul\":6286:6464   */\n      pop\n      jump\t// out\n        /* \"#utility.yul\":6470:6836   */\n    tag_310:\n        /* \"#utility.yul\":6612:6615   */\n      0x00\n        /* \"#utility.yul\":6633:6700   */\n      tag_407\n        /* \"#utility.yul\":6697:6699   */\n      0x1c\n        /* \"#utility.yul\":6692:6695   */\n      dup4\n        /* \"#utility.yul\":6633:6700   */\n      tag_306\n      jump\t// in\n    tag_407:\n        /* \"#utility.yul\":6626:6700   */\n      swap2\n      pop\n        /* \"#utility.yul\":6709:6802   */\n      tag_408\n        /* \"#utility.yul\":6798:6801   */\n      dup3\n        /* \"#utility.yul\":6709:6802   */\n      tag_309\n      jump\t// in\n    tag_408:\n        /* \"#utility.yul\":6827:6829   */\n      0x20\n        /* \"#utility.yul\":6822:6825   */\n      dup3\n        /* \"#utility.yul\":6818:6830   */\n      add\n        /* \"#utility.yul\":6811:6830   */\n      swap1\n      pop\n        /* \"#utility.yul\":6470:6836   */\n      swap2\n      swap1\n      pop\n      jump\t// out\n        /* \"#utility.yul\":6842:7261   */\n    tag_118:\n        /* \"#utility.yul\":7008:7012   */\n      0x00\n        /* \"#utility.yul\":7046:7048   */\n      0x20\n        /* \"#utility.yul\":7035:7044   */\n      dup3\n        /* \"#utility.yul\":7031:7049   */\n      add\n        /* \"#utility.yul\":7023:7049   */\n      swap1\n      pop\n        /* \"#utility.yul\":7095:7104   */\n      dup2\n        /* \"#utility.yul\":7089:7093   */\n      dup2\n        /* \"#utility.yul\":7085:7105   */\n      sub\n        /* \"#utility.yul\":7081:7082   */\n      0x00\n        /* \"#utility.yul\":7070:7079   */\n      dup4\n        /* \"#utility.yul\":7066:7083   */\n      add\n        /* \"#utility.yul\":7059:7106   */\n      mstore\n        /* \"#utility.yul\":7123:7254   */\n      tag_410\n        /* \"#utility.yul\":7249:7253   */\n      dup2\n        /* \"#utility.yul\":7123:7254   */\n      tag_310\n      jump\t// in\n    tag_410:\n        /* \"#utility.yul\":7115:7254   */\n      swap1\n      pop\n        /* \"#utility.yul\":6842:7261   */\n      swap2\n      swap1\n      pop\n      jump\t// out\n        /* \"#utility.yul\":7267:7447   */\n    tag_122:\n        /* \"#utility.yul\":7315:7392   */\n      0x4e487b7100000000000000000000000000000000000000000000000000000000\n        /* \"#utility.yul\":7312:7313   */\n      0x00\n        /* \"#utility.yul\":7305:7393   */\n      mstore\n        /* \"#utility.yul\":7412:7416   */\n      0x32\n        /* \"#utility.yul\":7409:7410   */\n      0x04\n        /* \"#utility.yul\":7402:7417   */\n      mstore\n        /* \"#utility.yul\":7436:7440   */\n      0x24\n        /* \"#utility.yul\":7433:7434   */\n      0x00\n        /* \"#utility.yul\":7426:7441   */\n      revert\n        /* \"#utility.yul\":7453:7628   */\n    tag_311:\n        /* \"#utility.yul\":7593:7620   */\n      0x506179203120657468657220746f20706c61792067616d652e00000000000000\n        /* \"#utility.yul\":7589:7590   */\n      0x00\n        /* \"#utility.yul\":7581:7587   */\n      dup3\n        /* \"#utility.yul\":7577:7591   */\n      add\n        /* \"#utility.yul\":7570:7621   */\n      mstore\n        /* \"#utility.yul\":7453:7628   */\n      pop\n      jump\t// out\n        /* \"#utility.yul\":7634:8000   */\n    tag_312:\n        /* \"#utility.yul\":7776:7779   */\n      0x00\n        /* \"#utility.yul\":7797:7864   */\n      tag_414\n        /* \"#utility.yul\":7861:7863   */\n      0x19\n        /* \"#utility.yul\":7856:7859   */\n      dup4\n        /* \"#utility.yul\":7797:7864   */\n      tag_306\n      jump\t// in\n    tag_414:\n        /* \"#utility.yul\":7790:7864   */\n      swap2\n      pop\n        /* \"#utility.yul\":7873:7966   */\n      tag_415\n        /* \"#utility.yul\":7962:7965   */\n      dup3\n        /* \"#utility.yul\":7873:7966   */\n      tag_311\n      jump\t// in\n    tag_415:\n        /* \"#utility.yul\":7991:7993   */\n      0x20\n        /* \"#utility.yul\":7986:7989   */\n      dup3\n        /* \"#utility.yul\":7982:7994   */\n      add\n        /* \"#utility.yul\":7975:7994   */\n      swap1\n      pop\n        /* \"#utility.yul\":7634:8000   */\n      swap2\n      swap1\n      pop\n      jump\t// out\n        /* \"#utility.yul\":8006:8425   */\n    tag_127:\n        /* \"#utility.yul\":8172:8176   */\n      0x00\n        /* \"#utility.yul\":8210:8212   */\n      0x20\n        /* \"#utility.yul\":8199:8208   */\n      dup3\n        /* \"#utility.yul\":8195:8213   */\n      add\n        /* \"#utility.yul\":8187:8213   */\n      swap1\n      pop\n        /* \"#utility.yul\":8259:8268   */\n      dup2\n        /* \"#utility.yul\":8253:8257   */\n      dup2\n        /* \"#utility.yul\":8249:8269   */\n      sub\n        /* \"#utility.yul\":8245:8246   */\n      0x00\n        /* \"#utility.yul\":8234:8243   */\n      dup4\n        /* \"#utility.yul\":8230:8247   */\n      add\n        /* \"#utility.yul\":8223:8270   */\n      mstore\n        /* \"#utility.yul\":8287:8418   */\n      tag_417\n        /* \"#utility.yul\":8413:8417   */\n      dup2\n        /* \"#utility.yul\":8287:8418   */\n      tag_312\n      jump\t// in\n    tag_417:\n        /* \"#utility.yul\":8279:8418   */\n      swap1\n      pop\n        /* \"#utility.yul\":8006:8425   */\n      swap2\n      swap1\n      pop\n      jump\t// out\n        /* \"#utility.yul\":8431:8611   */\n    tag_313:\n        /* \"#utility.yul\":8479:8556   */\n      0x4e487b7100000000000000000000000000000000000000000000000000000000\n        /* \"#utility.yul\":8476:8477   */\n      0x00\n        /* \"#utility.yul\":8469:8557   */\n      mstore\n        /* \"#utility.yul\":8576:8580   */\n      0x11\n        /* \"#utility.yul\":8573:8574   */\n      0x04\n        /* \"#utility.yul\":8566:8581   */\n      mstore\n        /* \"#utility.yul\":8600:8604   */\n      0x24\n        /* \"#utility.yul\":8597:8598   */\n      0x00\n        /* \"#utility.yul\":8590:8605   */\n      revert\n        /* \"#utility.yul\":8617:8808   */\n    tag_129:\n        /* \"#utility.yul\":8657:8660   */\n      0x00\n        /* \"#utility.yul\":8676:8696   */\n      tag_420\n        /* \"#utility.yul\":8694:8695   */\n      dup3\n        /* \"#utility.yul\":8676:8696   */\n      tag_284\n      jump\t// in\n    tag_420:\n        /* \"#utility.yul\":8671:8696   */\n      swap2\n      pop\n        /* \"#utility.yul\":8710:8730   */\n      tag_421\n        /* \"#utility.yul\":8728:8729   */\n      dup4\n        /* \"#utility.yul\":8710:8730   */\n      tag_284\n      jump\t// in\n    tag_421:\n        /* \"#utility.yul\":8705:8730   */\n      swap3\n      pop\n        /* \"#utility.yul\":8753:8754   */\n      dup3\n        /* \"#utility.yul\":8750:8751   */\n      dup3\n        /* \"#utility.yul\":8746:8755   */\n      add\n        /* \"#utility.yul\":8739:8755   */\n      swap1\n      pop\n        /* \"#utility.yul\":8774:8777   */\n      dup1\n        /* \"#utility.yul\":8771:8772   */\n      dup3\n        /* \"#utility.yul\":8768:8778   */\n      gt\n        /* \"#utility.yul\":8765:8801   */\n      iszero\n      tag_422\n      jumpi\n        /* \"#utility.yul\":8781:8799   */\n      tag_423\n      tag_313\n      jump\t// in\n    tag_423:\n        /* \"#utility.yul\":8765:8801   */\n    tag_422:\n        /* \"#utility.yul\":8617:8808   */\n      swap3\n      swap2\n      pop\n      pop\n      jump\t// out\n        /* \"#utility.yul\":8814:9047   */\n    tag_132:\n        /* \"#utility.yul\":8853:8856   */\n      0x00\n        /* \"#utility.yul\":8876:8900   */\n      tag_425\n        /* \"#utility.yul\":8894:8899   */\n      dup3\n        /* \"#utility.yul\":8876:8900   */\n      tag_284\n      jump\t// in\n    tag_425:\n        /* \"#utility.yul\":8867:8900   */\n      swap2\n      pop\n        /* \"#utility.yul\":8922:8988   */\n      0xffffffffffffffffffffffffffffffffffffffffffffffffffffffffffffffff\n        /* \"#utility.yul\":8915:8920   */\n      dup3\n        /* \"#utility.yul\":8912:8989   */\n      sub\n        /* \"#utility.yul\":8909:9012   */\n      tag_426\n      jumpi\n        /* \"#utility.yul\":8992:9010   */\n      tag_427\n      tag_313\n      jump\t// in\n    tag_427:\n        /* \"#utility.yul\":8909:9012   */\n    tag_426:\n        /* \"#utility.yul\":9039:9040   */\n      0x01\n        /* \"#utility.yul\":9032:9037   */\n      dup3\n        /* \"#utility.yul\":9028:9041   */\n      add\n        /* \"#utility.yul\":9021:9041   */\n      swap1\n      pop\n        /* \"#utility.yul\":8814:9047   */\n      swap2\n      swap1\n      pop\n      jump\t// out\n        /* \"#utility.yul\":9053:9385   */\n    tag_134:\n        /* \"#utility.yul\":9174:9178   */\n      0x00\n        /* \"#utility.yul\":9212:9214   */\n      0x40\n        /* \"#utility.yul\":9201:9210   */\n      dup3\n        /* \"#utility.yul\":9197:9215   */\n      add\n        /* \"#utility.yul\":9189:9215   */\n      swap1\n      pop\n        /* \"#utility.yul\":9225:9296   */\n      tag_429\n        /* \"#utility.yul\":9293:9294   */\n      0x00\n        /* \"#utility.yul\":9282:9291   */\n      dup4\n        /* \"#utility.yul\":9278:9295   */\n      add\n        /* \"#utility.yul\":9269:9275   */\n      dup6\n        /* \"#utility.yul\":9225:9296   */\n      tag_305\n      jump\t// in\n    tag_429:\n        /* \"#utility.yul\":9306:9378   */\n      tag_430\n        /* \"#utility.yul\":9374:9376   */\n      0x20\n        /* \"#utility.yul\":9363:9372   */\n      dup4\n        /* \"#utility.yul\":9359:9377   */\n      add\n        /* \"#utility.yul\":9350:9356   */\n      dup5\n        /* \"#utility.yul\":9306:9378   */\n      tag_285\n      jump\t// in\n    tag_430:\n        /* \"#utility.yul\":9053:9385   */\n      swap4\n      swap3\n      pop\n      pop\n      pop\n      jump\t// out\n        /* \"#utility.yul\":9391:9470   */\n    tag_314:\n        /* \"#utility.yul\":9430:9437   */\n      0x00\n        /* \"#utility.yul\":9459:9464   */\n      dup2\n        /* \"#utility.yul\":9448:9464   */\n      swap1\n      pop\n        /* \"#utility.yul\":9391:9470   */\n      swap2\n      swap1\n      pop\n      jump\t// out\n        /* \"#utility.yul\":9476:9633   */\n    tag_315:\n        /* \"#utility.yul\":9581:9626   */\n      tag_433\n        /* \"#utility.yul\":9601:9625   */\n      tag_434\n        /* \"#utility.yul\":9619:9624   */\n      dup3\n        /* \"#utility.yul\":9601:9625   */\n      tag_295\n      jump\t// in\n    tag_434:\n        /* \"#utility.yul\":9581:9626   */\n      tag_314\n      jump\t// in\n    tag_433:\n        /* \"#utility.yul\":9576:9579   */\n      dup3\n        /* \"#utility.yul\":9569:9627   */\n      mstore\n        /* \"#utility.yul\":9476:9633   */\n      pop\n      pop\n      jump\t// out\n        /* \"#utility.yul\":9639:9895   */\n    tag_137:\n        /* \"#utility.yul\":9751:9754   */\n      0x00\n        /* \"#utility.yul\":9766:9841   */\n      tag_436\n        /* \"#utility.yul\":9837:9840   */\n      dup3\n        /* \"#utility.yul\":9828:9834   */\n      dup5\n        /* \"#utility.yul\":9766:9841   */\n      tag_315\n      jump\t// in\n    tag_436:\n        /* \"#utility.yul\":9866:9868   */\n      0x20\n        /* \"#utility.yul\":9861:9864   */\n      dup3\n        /* \"#utility.yul\":9857:9869   */\n      add\n        /* \"#utility.yul\":9850:9869   */\n      swap2\n      pop\n        /* \"#utility.yul\":9886:9889   */\n      dup2\n        /* \"#utility.yul\":9879:9889   */\n      swap1\n      pop\n        /* \"#utility.yul\":9639:9895   */\n      swap3\n      swap2\n      pop\n      pop\n      jump\t// out\n        /* \"#utility.yul\":9901:10081   */\n    tag_316:\n        /* \"#utility.yul\":9949:10026   */\n      0x4e487b7100000000000000000000000000000000000000000000000000000000\n        /* \"#utility.yul\":9946:9947   */\n      0x00\n        /* \"#utility.yul\":9939:10027   */\n      mstore\n        /* \"#utility.yul\":10046:10050   */\n      0x12\n        /* \"#utility.yul\":10043:10044   */\n      0x04\n        /* \"#utility.yul\":10036:10051   */\n      mstore\n        /* \"#utility.yul\":10070:10074   */\n      0x24\n        /* \"#utility.yul\":10067:10068   */\n      0x00\n        /* \"#utility.yul\":10060:10075   */\n      revert\n        /* \"#utility.yul\":10087:10272   */\n    tag_159:\n        /* \"#utility.yul\":10127:10128   */\n      0x00\n        /* \"#utility.yul\":10144:10164   */\n      tag_439\n        /* \"#utility.yul\":10162:10163   */\n      dup3\n        /* \"#utility.yul\":10144:10164   */\n      tag_284\n      jump\t// in\n    tag_439:\n        /* \"#utility.yul\":10139:10164   */\n      swap2\n      pop\n        /* \"#utility.yul\":10178:10198   */\n      tag_440\n        /* \"#utility.yul\":10196:10197   */\n      dup4\n        /* \"#utility.yul\":10178:10198   */\n      tag_284\n      jump\t// in\n    tag_440:\n        /* \"#utility.yul\":10173:10198   */\n      swap3\n      pop\n        /* \"#utility.yul\":10217:10218   */\n      dup3\n        /* \"#utility.yul\":10207:10242   */\n      tag_441\n      jumpi\n        /* \"#utility.yul\":10222:10240   */\n      tag_442\n      tag_316\n      jump\t// in\n    tag_442:\n        /* \"#utility.yul\":10207:10242   */\n    tag_441:\n        /* \"#utility.yul\":10264:10265   */\n      dup3\n        /* \"#utility.yul\":10261:10262   */\n      dup3\n        /* \"#utility.yul\":10257:10266   */\n      div\n        /* \"#utility.yul\":10252:10266   */\n      swap1\n      pop\n        /* \"#utility.yul\":10087:10272   */\n      swap3\n      swap2\n      pop\n      pop\n      jump\t// out\n        /* \"#utility.yul\":10278:10503   */\n    tag_317:\n        /* \"#utility.yul\":10418:10452   */\n      0x596f75722063686f696365206e6565647320746f206265206265747765656e20\n        /* \"#utility.yul\":10414:10415   */\n      0x00\n        /* \"#utility.yul\":10406:10412   */\n      dup3\n        /* \"#utility.yul\":10402:10416   */\n      add\n        /* \"#utility.yul\":10395:10453   */\n      mstore\n        /* \"#utility.yul\":10487:10495   */\n      0x3020746f20340000000000000000000000000000000000000000000000000000\n        /* \"#utility.yul\":10482:10484   */\n      0x20\n        /* \"#utility.yul\":10474:10480   */\n      dup3\n        /* \"#utility.yul\":10470:10485   */\n      add\n        /* \"#utility.yul\":10463:10496   */\n      mstore\n        /* \"#utility.yul\":10278:10503   */\n      pop\n      jump\t// out\n        /* \"#utility.yul\":10509:10875   */\n    tag_318:\n        /* \"#utility.yul\":10651:10654   */\n      0x00\n        /* \"#utility.yul\":10672:10739   */\n      tag_445\n        /* \"#utility.yul\":10736:10738   */\n      0x26\n        /* \"#utility.yul\":10731:10734   */\n      dup4\n        /* \"#utility.yul\":10672:10739   */\n      tag_306\n      jump\t// in\n    tag_445:\n        /* \"#utility.yul\":10665:10739   */\n      swap2\n      pop\n        /* \"#utility.yul\":10748:10841   */\n      tag_446\n        /* \"#utility.yul\":10837:10840   */\n      dup3\n        /* \"#utility.yul\":10748:10841   */\n      tag_317\n      jump\t// in\n    tag_446:\n        /* \"#utility.yul\":10866:10868   */\n      0x40\n        /* \"#utility.yul\":10861:10864   */\n      dup3\n        /* \"#utility.yul\":10857:10869   */\n      add\n        /* \"#utility.yul\":10850:10869   */\n      swap1\n      pop\n        /* \"#utility.yul\":10509:10875   */\n      swap2\n      swap1\n      pop\n      jump\t// out\n        /* \"#utility.yul\":10881:11300   */\n    tag_195:\n        /* \"#utility.yul\":11047:11051   */\n      0x00\n        /* \"#utility.yul\":11085:11087   */\n      0x20\n        /* \"#utility.yul\":11074:11083   */\n      dup3\n        /* \"#utility.yul\":11070:11088   */\n      add\n        /* \"#utility.yul\":11062:11088   */\n      swap1\n      pop\n        /* \"#utility.yul\":11134:11143   */\n      dup2\n        /* \"#utility.yul\":11128:11132   */\n      dup2\n        /* \"#utility.yul\":11124:11144   */\n      sub\n        /* \"#utility.yul\":11120:11121   */\n      0x00\n        /* \"#utility.yul\":11109:11118   */\n      dup4\n        /* \"#utility.yul\":11105:11122   */\n      add\n        /* \"#utility.yul\":11098:11145   */\n      mstore\n        /* \"#utility.yul\":11162:11293   */\n      tag_448\n        /* \"#utility.yul\":11288:11292   */\n      dup2\n        /* \"#utility.yul\":11162:11293   */\n      tag_318\n      jump\t// in\n    tag_448:\n        /* \"#utility.yul\":11154:11293   */\n      swap1\n      pop\n        /* \"#utility.yul\":10881:11300   */\n      swap2\n      swap1\n      pop\n      jump\t// out\n        /* \"#utility.yul\":11306:11481   */\n    tag_319:\n        /* \"#utility.yul\":11446:11473   */\n      0x596f75206e65656420746f20636f6d6d69742066697273742e00000000000000\n        /* \"#utility.yul\":11442:11443   */\n      0x00\n        /* \"#utility.yul\":11434:11440   */\n      dup3\n        /* \"#utility.yul\":11430:11444   */\n      add\n        /* \"#utility.yul\":11423:11474   */\n      mstore\n        /* \"#utility.yul\":11306:11481   */\n      pop\n      jump\t// out\n        /* \"#utility.yul\":11487:11853   */\n    tag_320:\n        /* \"#utility.yul\":11629:11632   */\n      0x00\n        /* \"#utility.yul\":11650:11717   */\n      tag_451\n        /* \"#utility.yul\":11714:11716   */\n      0x19\n        /* \"#utility.yul\":11709:11712   */\n      dup4\n        /* \"#utility.yul\":11650:11717   */\n      tag_306\n      jump\t// in\n    tag_451:\n        /* \"#utility.yul\":11643:11717   */\n      swap2\n      pop\n        /* \"#utility.yul\":11726:11819   */\n      tag_452\n        /* \"#utility.yul\":11815:11818   */\n      dup3\n        /* \"#utility.yul\":11726:11819   */\n      tag_319\n      jump\t// in\n    tag_452:\n        /* \"#utility.yul\":11844:11846   */\n      0x20\n        /* \"#utility.yul\":11839:11842   */\n      dup3\n        /* \"#utility.yul\":11835:11847   */\n      add\n        /* \"#utility.yul\":11828:11847   */\n      swap1\n      pop\n        /* \"#utility.yul\":11487:11853   */\n      swap2\n      swap1\n      pop\n      jump\t// out\n        /* \"#utility.yul\":11859:12278   */\n    tag_198:\n        /* \"#utility.yul\":12025:12029   */\n      0x00\n        /* \"#utility.yul\":12063:12065   */\n      0x20\n        /* \"#utility.yul\":12052:12061   */\n      dup3\n        /* \"#utility.yul\":12048:12066   */\n      add\n        /* \"#utility.yul\":12040:12066   */\n      swap1\n      pop\n        /* \"#utility.yul\":12112:12121   */\n      dup2\n        /* \"#utility.yul\":12106:12110   */\n      dup2\n        /* \"#utility.yul\":12102:12122   */\n      sub\n        /* \"#utility.yul\":12098:12099   */\n      0x00\n        /* \"#utility.yul\":12087:12096   */\n      dup4\n        /* \"#utility.yul\":12083:12100   */\n      add\n        /* \"#utility.yul\":12076:12123   */\n      mstore\n        /* \"#utility.yul\":12140:12271   */\n      tag_454\n        /* \"#utility.yul\":12266:12270   */\n      dup2\n        /* \"#utility.yul\":12140:12271   */\n      tag_320\n      jump\t// in\n    tag_454:\n        /* \"#utility.yul\":12132:12271   */\n      swap1\n      pop\n        /* \"#utility.yul\":11859:12278   */\n      swap2\n      swap1\n      pop\n      jump\t// out\n        /* \"#utility.yul\":12284:12509   */\n    tag_321:\n        /* \"#utility.yul\":12424:12458   */\n      0x436f6d6d697452657665616c3a3a72657665616c3a20416c7265616479207265\n        /* \"#utility.yul\":12420:12421   */\n      0x00\n        /* \"#utility.yul\":12412:12418   */\n      dup3\n        /* \"#utility.yul\":12408:12422   */\n      add\n        /* \"#utility.yul\":12401:12459   */\n      mstore\n        /* \"#utility.yul\":12493:12501   */\n      0x7665616c65640000000000000000000000000000000000000000000000000000\n        /* \"#utility.yul\":12488:12490   */\n      0x20\n        /* \"#utility.yul\":12480:12486   */\n      dup3\n        /* \"#utility.yul\":12476:12491   */\n      add\n        /* \"#utility.yul\":12469:12502   */\n      mstore\n        /* \"#utility.yul\":12284:12509   */\n      pop\n      jump\t// out\n        /* \"#utility.yul\":12515:12881   */\n    tag_322:\n        /* \"#utility.yul\":12657:12660   */\n      0x00\n        /* \"#utility.yul\":12678:12745   */\n      tag_457\n        /* \"#utility.yul\":12742:12744   */\n      0x26\n        /* \"#utility.yul\":12737:12740   */\n      dup4\n        /* \"#utility.yul\":12678:12745   */\n      tag_306\n      jump\t// in\n    tag_457:\n        /* \"#utility.yul\":12671:12745   */\n      swap2\n      pop\n        /* \"#utility.yul\":12754:12847   */\n      tag_458\n        /* \"#utility.yul\":12843:12846   */\n      dup3\n        /* \"#utility.yul\":12754:12847   */\n      tag_321\n      jump\t// in\n    tag_458:\n        /* \"#utility.yul\":12872:12874   */\n      0x40\n        /* \"#utility.yul\":12867:12870   */\n      dup3\n        /* \"#utility.yul\":12863:12875   */\n      add\n        /* \"#utility.yul\":12856:12875   */\n      swap1\n      pop\n        /* \"#utility.yul\":12515:12881   */\n      swap2\n      swap1\n      pop\n      jump\t// out\n        /* \"#utility.yul\":12887:13306   */\n    tag_208:\n        /* \"#utility.yul\":13053:13057   */\n      0x00\n        /* \"#utility.yul\":13091:13093   */\n      0x20\n        /* \"#utility.yul\":13080:13089   */\n      dup3\n        /* \"#utility.yul\":13076:13094   */\n      add\n        /* \"#utility.yul\":13068:13094   */\n      swap1\n      pop\n        /* \"#utility.yul\":13140:13149   */\n      dup2\n        /* \"#utility.yul\":13134:13138   */\n      dup2\n        /* \"#utility.yul\":13130:13150   */\n      sub\n        /* \"#utility.yul\":13126:13127   */\n      0x00\n        /* \"#utility.yul\":13115:13124   */\n      dup4\n        /* \"#utility.yul\":13111:13128   */\n      add\n        /* \"#utility.yul\":13104:13151   */\n      mstore\n        /* \"#utility.yul\":13168:13299   */\n      tag_460\n        /* \"#utility.yul\":13294:13298   */\n      dup2\n        /* \"#utility.yul\":13168:13299   */\n      tag_322\n      jump\t// in\n    tag_460:\n        /* \"#utility.yul\":13160:13299   */\n      swap1\n      pop\n        /* \"#utility.yul\":12887:13306   */\n      swap2\n      swap1\n      pop\n      jump\t// out\n        /* \"#utility.yul\":13312:13556   */\n    tag_323:\n        /* \"#utility.yul\":13452:13486   */\n      0x436f6d6d697452657665616c3a3a72657665616c3a2052657665616c65642068\n        /* \"#utility.yul\":13448:13449   */\n      0x00\n        /* \"#utility.yul\":13440:13446   */\n      dup3\n        /* \"#utility.yul\":13436:13450   */\n      add\n        /* \"#utility.yul\":13429:13487   */\n      mstore\n        /* \"#utility.yul\":13521:13548   */\n      0x61736820646f6573206e6f74206d6174636820636f6d6d697400000000000000\n        /* \"#utility.yul\":13516:13518   */\n      0x20\n        /* \"#utility.yul\":13508:13514   */\n      dup3\n        /* \"#utility.yul\":13504:13519   */\n      add\n        /* \"#utility.yul\":13497:13549   */\n      mstore\n        /* \"#utility.yul\":13312:13556   */\n      pop\n      jump\t// out\n        /* \"#utility.yul\":13562:13928   */\n    tag_324:\n        /* \"#utility.yul\":13704:13707   */\n      0x00\n        /* \"#utility.yul\":13725:13792   */\n      tag_463\n        /* \"#utility.yul\":13789:13791   */\n      0x39\n        /* \"#utility.yul\":13784:13787   */\n      dup4\n        /* \"#utility.yul\":13725:13792   */\n      tag_306\n      jump\t// in\n    tag_463:\n        /* \"#utility.yul\":13718:13792   */\n      swap2\n      pop\n        /* \"#utility.yul\":13801:13894   */\n      tag_464\n        /* \"#utility.yul\":13890:13893   */\n      dup3\n        /* \"#utility.yul\":13801:13894   */\n      tag_323\n      jump\t// in\n    tag_464:\n        /* \"#utility.yul\":13919:13921   */\n      0x40\n        /* \"#utility.yul\":13914:13917   */\n      dup3\n        /* \"#utility.yul\":13910:13922   */\n      add\n        /* \"#utility.yul\":13903:13922   */\n      swap1\n      pop\n        /* \"#utility.yul\":13562:13928   */\n      swap2\n      swap1\n      pop\n      jump\t// out\n        /* \"#utility.yul\":13934:14353   */\n    tag_212:\n        /* \"#utility.yul\":14100:14104   */\n      0x00\n        /* \"#utility.yul\":14138:14140   */\n      0x20\n        /* \"#utility.yul\":14127:14136   */\n      dup3\n        /* \"#utility.yul\":14123:14141   */\n      add\n        /* \"#utility.yul\":14115:14141   */\n      swap1\n      pop\n        /* \"#utility.yul\":14187:14196   */\n      dup2\n        /* \"#utility.yul\":14181:14185   */\n      dup2\n        /* \"#utility.yul\":14177:14197   */\n      sub\n        /* \"#utility.yul\":14173:14174   */\n      0x00\n        /* \"#utility.yul\":14162:14171   */\n      dup4\n        /* \"#utility.yul\":14158:14175   */\n      add\n        /* \"#utility.yul\":14151:14198   */\n      mstore\n        /* \"#utility.yul\":14215:14346   */\n      tag_466\n        /* \"#utility.yul\":14341:14345   */\n      dup2\n        /* \"#utility.yul\":14215:14346   */\n      tag_324\n      jump\t// in\n    tag_466:\n        /* \"#utility.yul\":14207:14346   */\n      swap1\n      pop\n        /* \"#utility.yul\":13934:14353   */\n      swap2\n      swap1\n      pop\n      jump\t// out\n        /* \"#utility.yul\":14359:14649   */\n    tag_325:\n        /* \"#utility.yul\":14499:14533   */\n      0x436f6d6d697452657665616c3a3a72657665616c3a2052657665616c20616e64\n        /* \"#utility.yul\":14495:14496   */\n      0x00\n        /* \"#utility.yul\":14487:14493   */\n      dup3\n        /* \"#utility.yul\":14483:14497   */\n      add\n        /* \"#utility.yul\":14476:14534   */\n      mstore\n        /* \"#utility.yul\":14568:14602   */\n      0x20636f6d6d69742068617070656e6564206f6e207468652073616d6520626c6f\n        /* \"#utility.yul\":14563:14565   */\n      0x20\n        /* \"#utility.yul\":14555:14561   */\n      dup3\n        /* \"#utility.yul\":14551:14566   */\n      add\n        /* \"#utility.yul\":14544:14603   */\n      mstore\n        /* \"#utility.yul\":14637:14641   */\n      0x636b000000000000000000000000000000000000000000000000000000000000\n        /* \"#utility.yul\":14632:14634   */\n      0x40\n        /* \"#utility.yul\":14624:14630   */\n      dup3\n        /* \"#utility.yul\":14620:14635   */\n      add\n        /* \"#utility.yul\":14613:14642   */\n      mstore\n        /* \"#utility.yul\":14359:14649   */\n      pop\n      jump\t// out\n        /* \"#utility.yul\":14655:15021   */\n    tag_326:\n        /* \"#utility.yul\":14797:14800   */\n      0x00\n        /* \"#utility.yul\":14818:14885   */\n      tag_469\n        /* \"#utility.yul\":14882:14884   */\n      0x42\n        /* \"#utility.yul\":14877:14880   */\n      dup4\n        /* \"#utility.yul\":14818:14885   */\n      tag_306\n      jump\t// in\n    tag_469:\n        /* \"#utility.yul\":14811:14885   */\n      swap2\n      pop\n        /* \"#utility.yul\":14894:14987   */\n      tag_470\n        /* \"#utility.yul\":14983:14986   */\n      dup3\n        /* \"#utility.yul\":14894:14987   */\n      tag_325\n      jump\t// in\n    tag_470:\n        /* \"#utility.yul\":15012:15014   */\n      0x60\n        /* \"#utility.yul\":15007:15010   */\n      dup3\n        /* \"#utility.yul\":15003:15015   */\n      add\n        /* \"#utility.yul\":14996:15015   */\n      swap1\n      pop\n        /* \"#utility.yul\":14655:15021   */\n      swap2\n      swap1\n      pop\n      jump\t// out\n        /* \"#utility.yul\":15027:15446   */\n    tag_215:\n        /* \"#utility.yul\":15193:15197   */\n      0x00\n        /* \"#utility.yul\":15231:15233   */\n      0x20\n        /* \"#utility.yul\":15220:15229   */\n      dup3\n        /* \"#utility.yul\":15216:15234   */\n      add\n        /* \"#utility.yul\":15208:15234   */\n      swap1\n      pop\n        /* \"#utility.yul\":15280:15289   */\n      dup2\n        /* \"#utility.yul\":15274:15278   */\n      dup2\n        /* \"#utility.yul\":15270:15290   */\n      sub\n        /* \"#utility.yul\":15266:15267   */\n      0x00\n        /* \"#utility.yul\":15255:15264   */\n      dup4\n        /* \"#utility.yul\":15251:15268   */\n      add\n        /* \"#utility.yul\":15244:15291   */\n      mstore\n        /* \"#utility.yul\":15308:15439   */\n      tag_472\n        /* \"#utility.yul\":15434:15438   */\n      dup2\n        /* \"#utility.yul\":15308:15439   */\n      tag_326\n      jump\t// in\n    tag_472:\n        /* \"#utility.yul\":15300:15439   */\n      swap1\n      pop\n        /* \"#utility.yul\":15027:15446   */\n      swap2\n      swap1\n      pop\n      jump\t// out\n        /* \"#utility.yul\":15452:15657   */\n    tag_217:\n        /* \"#utility.yul\":15491:15494   */\n      0x00\n        /* \"#utility.yul\":15510:15529   */\n      tag_474\n        /* \"#utility.yul\":15527:15528   */\n      dup3\n        /* \"#utility.yul\":15510:15529   */\n      tag_301\n      jump\t// in\n    tag_474:\n        /* \"#utility.yul\":15505:15529   */\n      swap2\n      pop\n        /* \"#utility.yul\":15543:15562   */\n      tag_475\n        /* \"#utility.yul\":15560:15561   */\n      dup4\n        /* \"#utility.yul\":15543:15562   */\n      tag_301\n      jump\t// in\n    tag_475:\n        /* \"#utility.yul\":15538:15562   */\n      swap3\n      pop\n        /* \"#utility.yul\":15585:15586   */\n      dup3\n        /* \"#utility.yul\":15582:15583   */\n      dup3\n        /* \"#utility.yul\":15578:15587   */\n      add\n        /* \"#utility.yul\":15571:15587   */\n      swap1\n      pop\n        /* \"#utility.yul\":15608:15626   */\n      0xffffffffffffffff\n        /* \"#utility.yul\":15603:15606   */\n      dup2\n        /* \"#utility.yul\":15600:15627   */\n      gt\n        /* \"#utility.yul\":15597:15650   */\n      iszero\n      tag_476\n      jumpi\n        /* \"#utility.yul\":15630:15648   */\n      tag_477\n      tag_313\n      jump\t// in\n    tag_477:\n        /* \"#utility.yul\":15597:15650   */\n    tag_476:\n        /* \"#utility.yul\":15452:15657   */\n      swap3\n      swap2\n      pop\n      pop\n      jump\t// out\n        /* \"#utility.yul\":15663:15889   */\n    tag_327:\n        /* \"#utility.yul\":15803:15837   */\n      0x436f6d6d697452657665616c3a3a72657665616c3a2052657665616c65642074\n        /* \"#utility.yul\":15799:15800   */\n      0x00\n        /* \"#utility.yul\":15791:15797   */\n      dup3\n        /* \"#utility.yul\":15787:15801   */\n      add\n        /* \"#utility.yul\":15780:15838   */\n      mstore\n        /* \"#utility.yul\":15872:15881   */\n      0x6f6f206c61746500000000000000000000000000000000000000000000000000\n        /* \"#utility.yul\":15867:15869   */\n      0x20\n        /* \"#utility.yul\":15859:15865   */\n      dup3\n        /* \"#utility.yul\":15855:15870   */\n      add\n        /* \"#utility.yul\":15848:15882   */\n      mstore\n        /* \"#utility.yul\":15663:15889   */\n      pop\n      jump\t// out\n        /* \"#utility.yul\":15895:16261   */\n    tag_328:\n        /* \"#utility.yul\":16037:16040   */\n      0x00\n        /* \"#utility.yul\":16058:16125   */\n      tag_480\n        /* \"#utility.yul\":16122:16124   */\n      0x27\n        /* \"#utility.yul\":16117:16120   */\n      dup4\n        /* \"#utility.yul\":16058:16125   */\n      tag_306\n      jump\t// in\n    tag_480:\n        /* \"#utility.yul\":16051:16125   */\n      swap2\n      pop\n        /* \"#utility.yul\":16134:16227   */\n      tag_481\n        /* \"#utility.yul\":16223:16226   */\n      dup3\n        /* \"#utility.yul\":16134:16227   */\n      tag_327\n      jump\t// in\n    tag_481:\n        /* \"#utility.yul\":16252:16254   */\n      0x40\n        /* \"#utility.yul\":16247:16250   */\n      dup3\n        /* \"#utility.yul\":16243:16255   */\n      add\n        /* \"#utility.yul\":16236:16255   */\n      swap1\n      pop\n        /* \"#utility.yul\":15895:16261   */\n      swap2\n      swap1\n      pop\n      jump\t// out\n        /* \"#utility.yul\":16267:16686   */\n    tag_220:\n        /* \"#utility.yul\":16433:16437   */\n      0x00\n        /* \"#utility.yul\":16471:16473   */\n      0x20\n        /* \"#utility.yul\":16460:16469   */\n      dup3\n        /* \"#utility.yul\":16456:16474   */\n      add\n        /* \"#utility.yul\":16448:16474   */\n      swap1\n      pop\n        /* \"#utility.yul\":16520:16529   */\n      dup2\n        /* \"#utility.yul\":16514:16518   */\n      dup2\n        /* \"#utility.yul\":16510:16530   */\n      sub\n        /* \"#utility.yul\":16506:16507   */\n      0x00\n        /* \"#utility.yul\":16495:16504   */\n      dup4\n        /* \"#utility.yul\":16491:16508   */\n      add\n        /* \"#utility.yul\":16484:16531   */\n      mstore\n        /* \"#utility.yul\":16548:16679   */\n      tag_483\n        /* \"#utility.yul\":16674:16678   */\n      dup2\n        /* \"#utility.yul\":16548:16679   */\n      tag_328\n      jump\t// in\n    tag_483:\n        /* \"#utility.yul\":16540:16679   */\n      swap1\n      pop\n        /* \"#utility.yul\":16267:16686   */\n      swap2\n      swap1\n      pop\n      jump\t// out\n        /* \"#utility.yul\":16692:17089   */\n    tag_222:\n        /* \"#utility.yul\":16832:16835   */\n      0x00\n        /* \"#utility.yul\":16847:16922   */\n      tag_485\n        /* \"#utility.yul\":16918:16921   */\n      dup3\n        /* \"#utility.yul\":16909:16915   */\n      dup6\n        /* \"#utility.yul\":16847:16922   */\n      tag_315\n      jump\t// in\n    tag_485:\n        /* \"#utility.yul\":16947:16949   */\n      0x20\n        /* \"#utility.yul\":16942:16945   */\n      dup3\n        /* \"#utility.yul\":16938:16950   */\n      add\n        /* \"#utility.yul\":16931:16950   */\n      swap2\n      pop\n        /* \"#utility.yul\":16960:17035   */\n      tag_486\n        /* \"#utility.yul\":17031:17034   */\n      dup3\n        /* \"#utility.yul\":17022:17028   */\n      dup5\n        /* \"#utility.yul\":16960:17035   */\n      tag_315\n      jump\t// in\n    tag_486:\n        /* \"#utility.yul\":17060:17062   */\n      0x20\n        /* \"#utility.yul\":17055:17058   */\n      dup3\n        /* \"#utility.yul\":17051:17063   */\n      add\n        /* \"#utility.yul\":17044:17063   */\n      swap2\n      pop\n        /* \"#utility.yul\":17080:17083   */\n      dup2\n        /* \"#utility.yul\":17073:17083   */\n      swap1\n      pop\n        /* \"#utility.yul\":16692:17089   */\n      swap4\n      swap3\n      pop\n      pop\n      pop\n      jump\t// out\n        /* \"#utility.yul\":17095:17271   */\n    tag_224:\n        /* \"#utility.yul\":17127:17128   */\n      0x00\n        /* \"#utility.yul\":17144:17164   */\n      tag_488\n        /* \"#utility.yul\":17162:17163   */\n      dup3\n        /* \"#utility.yul\":17144:17164   */\n      tag_284\n      jump\t// in\n    tag_488:\n        /* \"#utility.yul\":17139:17164   */\n      swap2\n      pop\n        /* \"#utility.yul\":17178:17198   */\n      tag_489\n        /* \"#utility.yul\":17196:17197   */\n      dup4\n        /* \"#utility.yul\":17178:17198   */\n      tag_284\n      jump\t// in\n    tag_489:\n        /* \"#utility.yul\":17173:17198   */\n      swap3\n      pop\n        /* \"#utility.yul\":17217:17218   */\n      dup3\n        /* \"#utility.yul\":17207:17242   */\n      tag_490\n      jumpi\n        /* \"#utility.yul\":17222:17240   */\n      tag_491\n      tag_316\n      jump\t// in\n    tag_491:\n        /* \"#utility.yul\":17207:17242   */\n    tag_490:\n        /* \"#utility.yul\":17263:17264   */\n      dup3\n        /* \"#utility.yul\":17260:17261   */\n      dup3\n        /* \"#utility.yul\":17256:17265   */\n      mod\n        /* \"#utility.yul\":17251:17265   */\n      swap1\n      pop\n        /* \"#utility.yul\":17095:17271   */\n      swap3\n      swap2\n      pop\n      pop\n      jump\t// out\n        /* \"#utility.yul\":17277:17719   */\n    tag_226:\n        /* \"#utility.yul\":17426:17430   */\n      0x00\n        /* \"#utility.yul\":17464:17466   */\n      0x60\n        /* \"#utility.yul\":17453:17462   */\n      dup3\n        /* \"#utility.yul\":17449:17467   */\n      add\n        /* \"#utility.yul\":17441:17467   */\n      swap1\n      pop\n        /* \"#utility.yul\":17477:17548   */\n      tag_493\n        /* \"#utility.yul\":17545:17546   */\n      0x00\n        /* \"#utility.yul\":17534:17543   */\n      dup4\n        /* \"#utility.yul\":17530:17547   */\n      add\n        /* \"#utility.yul\":17521:17527   */\n      dup7\n        /* \"#utility.yul\":17477:17548   */\n      tag_305\n      jump\t// in\n    tag_493:\n        /* \"#utility.yul\":17558:17630   */\n      tag_494\n        /* \"#utility.yul\":17626:17628   */\n      0x20\n        /* \"#utility.yul\":17615:17624   */\n      dup4\n        /* \"#utility.yul\":17611:17629   */\n      add\n        /* \"#utility.yul\":17602:17608   */\n      dup6\n        /* \"#utility.yul\":17558:17630   */\n      tag_298\n      jump\t// in\n    tag_494:\n        /* \"#utility.yul\":17640:17712   */\n      tag_495\n        /* \"#utility.yul\":17708:17710   */\n      0x40\n        /* \"#utility.yul\":17697:17706   */\n      dup4\n        /* \"#utility.yul\":17693:17711   */\n      add\n        /* \"#utility.yul\":17684:17690   */\n      dup5\n        /* \"#utility.yul\":17640:17712   */\n      tag_285\n      jump\t// in\n    tag_495:\n        /* \"#utility.yul\":17277:17719   */\n      swap5\n      swap4\n      pop\n      pop\n      pop\n      pop\n      jump\t// out\n        /* \"#utility.yul\":17725:17896   */\n    tag_329:\n        /* \"#utility.yul\":17865:17888   */\n      0x47616d65206e65656473203220706c61796572732e0000000000000000000000\n        /* \"#utility.yul\":17861:17862   */\n      0x00\n        /* \"#utility.yul\":17853:17859   */\n      dup3\n        /* \"#utility.yul\":17849:17863   */\n      add\n        /* \"#utility.yul\":17842:17889   */\n      mstore\n        /* \"#utility.yul\":17725:17896   */\n      pop\n      jump\t// out\n        /* \"#utility.yul\":17902:18268   */\n    tag_330:\n        /* \"#utility.yul\":18044:18047   */\n      0x00\n        /* \"#utility.yul\":18065:18132   */\n      tag_498\n        /* \"#utility.yul\":18129:18131   */\n      0x15\n        /* \"#utility.yul\":18124:18127   */\n      dup4\n        /* \"#utility.yul\":18065:18132   */\n      tag_306\n      jump\t// in\n    tag_498:\n        /* \"#utility.yul\":18058:18132   */\n      swap2\n      pop\n        /* \"#utility.yul\":18141:18234   */\n      tag_499\n        /* \"#utility.yul\":18230:18233   */\n      dup3\n        /* \"#utility.yul\":18141:18234   */\n      tag_329\n      jump\t// in\n    tag_499:\n        /* \"#utility.yul\":18259:18261   */\n      0x20\n        /* \"#utility.yul\":18254:18257   */\n      dup3\n        /* \"#utility.yul\":18250:18262   */\n      add\n        /* \"#utility.yul\":18243:18262   */\n      swap1\n      pop\n        /* \"#utility.yul\":17902:18268   */\n      swap2\n      swap1\n      pop\n      jump\t// out\n        /* \"#utility.yul\":18274:18693   */\n    tag_230:\n        /* \"#utility.yul\":18440:18444   */\n      0x00\n        /* \"#utility.yul\":18478:18480   */\n      0x20\n        /* \"#utility.yul\":18467:18476   */\n      dup3\n        /* \"#utility.yul\":18463:18481   */\n      add\n        /* \"#utility.yul\":18455:18481   */\n      swap1\n      pop\n        /* \"#utility.yul\":18527:18536   */\n      dup2\n        /* \"#utility.yul\":18521:18525   */\n      dup2\n        /* \"#utility.yul\":18517:18537   */\n      sub\n        /* \"#utility.yul\":18513:18514   */\n      0x00\n        /* \"#utility.yul\":18502:18511   */\n      dup4\n        /* \"#utility.yul\":18498:18515   */\n      add\n        /* \"#utility.yul\":18491:18538   */\n      mstore\n        /* \"#utility.yul\":18555:18686   */\n      tag_501\n        /* \"#utility.yul\":18681:18685   */\n      dup2\n        /* \"#utility.yul\":18555:18686   */\n      tag_330\n      jump\t// in\n    tag_501:\n        /* \"#utility.yul\":18547:18686   */\n      swap1\n      pop\n        /* \"#utility.yul\":18274:18693   */\n      swap2\n      swap1\n      pop\n      jump\t// out\n        /* \"#utility.yul\":18699:18870   */\n    tag_331:\n        /* \"#utility.yul\":18839:18862   */\n      0x596f7520616c726561647920636f6d6d697465642e0000000000000000000000\n        /* \"#utility.yul\":18835:18836   */\n      0x00\n        /* \"#utility.yul\":18827:18833   */\n      dup3\n        /* \"#utility.yul\":18823:18837   */\n      add\n        /* \"#utility.yul\":18816:18863   */\n      mstore\n        /* \"#utility.yul\":18699:18870   */\n      pop\n      jump\t// out\n        /* \"#utility.yul\":18876:19242   */\n    tag_332:\n        /* \"#utility.yul\":19018:19021   */\n      0x00\n        /* \"#utility.yul\":19039:19106   */\n      tag_504\n        /* \"#utility.yul\":19103:19105   */\n      0x15\n        /* \"#utility.yul\":19098:19101   */\n      dup4\n        /* \"#utility.yul\":19039:19106   */\n      tag_306\n      jump\t// in\n    tag_504:\n        /* \"#utility.yul\":19032:19106   */\n      swap2\n      pop\n        /* \"#utility.yul\":19115:19208   */\n      tag_505\n        /* \"#utility.yul\":19204:19207   */\n      dup3\n        /* \"#utility.yul\":19115:19208   */\n      tag_331\n      jump\t// in\n    tag_505:\n        /* \"#utility.yul\":19233:19235   */\n      0x20\n        /* \"#utility.yul\":19228:19231   */\n      dup3\n        /* \"#utility.yul\":19224:19236   */\n      add\n        /* \"#utility.yul\":19217:19236   */\n      swap1\n      pop\n        /* \"#utility.yul\":18876:19242   */\n      swap2\n      swap1\n      pop\n      jump\t// out\n        /* \"#utility.yul\":19248:19667   */\n    tag_235:\n        /* \"#utility.yul\":19414:19418   */\n      0x00\n        /* \"#utility.yul\":19452:19454   */\n      0x20\n        /* \"#utility.yul\":19441:19450   */\n      dup3\n        /* \"#utility.yul\":19437:19455   */\n      add\n        /* \"#utility.yul\":19429:19455   */\n      swap1\n      pop\n        /* \"#utility.yul\":19501:19510   */\n      dup2\n        /* \"#utility.yul\":19495:19499   */\n      dup2\n        /* \"#utility.yul\":19491:19511   */\n      sub\n        /* \"#utility.yul\":19487:19488   */\n      0x00\n        /* \"#utility.yul\":19476:19485   */\n      dup4\n        /* \"#utility.yul\":19472:19489   */\n      add\n        /* \"#utility.yul\":19465:19512   */\n      mstore\n        /* \"#utility.yul\":19529:19660   */\n      tag_507\n        /* \"#utility.yul\":19655:19659   */\n      dup2\n        /* \"#utility.yul\":19529:19660   */\n      tag_332\n      jump\t// in\n    tag_507:\n        /* \"#utility.yul\":19521:19660   */\n      swap1\n      pop\n        /* \"#utility.yul\":19248:19667   */\n      swap2\n      swap1\n      pop\n      jump\t// out\n        /* \"#utility.yul\":19673:20111   */\n    tag_241:\n        /* \"#utility.yul\":19820:19824   */\n      0x00\n        /* \"#utility.yul\":19858:19860   */\n      0x60\n        /* \"#utility.yul\":19847:19856   */\n      dup3\n        /* \"#utility.yul\":19843:19861   */\n      add\n        /* \"#utility.yul\":19835:19861   */\n      swap1\n      pop\n        /* \"#utility.yul\":19871:19942   */\n      tag_509\n        /* \"#utility.yul\":19939:19940   */\n      0x00\n        /* \"#utility.yul\":19928:19937   */\n      dup4\n        /* \"#utility.yul\":19924:19941   */\n      add\n        /* \"#utility.yul\":19915:19921   */\n      dup7\n        /* \"#utility.yul\":19871:19942   */\n      tag_305\n      jump\t// in\n    tag_509:\n        /* \"#utility.yul\":19952:20024   */\n      tag_510\n        /* \"#utility.yul\":20020:20022   */\n      0x20\n        /* \"#utility.yul\":20009:20018   */\n      dup4\n        /* \"#utility.yul\":20005:20023   */\n      add\n        /* \"#utility.yul\":19996:20002   */\n      dup6\n        /* \"#utility.yul\":19952:20024   */\n      tag_298\n      jump\t// in\n    tag_510:\n        /* \"#utility.yul\":20034:20104   */\n      tag_511\n        /* \"#utility.yul\":20100:20102   */\n      0x40\n        /* \"#utility.yul\":20089:20098   */\n      dup4\n        /* \"#utility.yul\":20085:20103   */\n      add\n        /* \"#utility.yul\":20076:20082   */\n      dup5\n        /* \"#utility.yul\":20034:20104   */\n      tag_302\n      jump\t// in\n    tag_511:\n        /* \"#utility.yul\":19673:20111   */\n      swap5\n      swap4\n      pop\n      pop\n      pop\n      pop\n      jump\t// out\n\n    auxdata: 0xa26469706673582212205fccb3f84372c388a7cc1e1c934feae7144f9771d09dcb826e39090ab18099b064736f6c634300081a0033\n}\n",
				"bytecode": {
					"linkReferences": {},
					"object": "608060405260645f806101000a81548160ff021916908360ff1602179055505f6002555f6003555f6008555f600955603c600a5542600b55348015610042575f80fd5b506001600c5f735b38da6a701c568545dcfcb03fcb875f56beddc473ffffffffffffffffffffffffffffffffffffffff1673ffffffffffffffffffffffffffffffffffffffff1681526020019081526020015f205f6101000a81548160ff0219169083151502179055506001600c5f73ab8483f64d9c6d1ecf9b849ae677dd3315835cb273ffffffffffffffffffffffffffffffffffffffff1673ffffffffffffffffffffffffffffffffffffffff1681526020019081526020015f205f6101000a81548160ff0219169083151502179055506001600c5f734b20993bc481177ec7e8f571cecae8a9e22c02db73ffffffffffffffffffffffffffffffffffffffff1673ffffffffffffffffffffffffffffffffffffffff1681526020019081526020015f205f6101000a81548160ff0219169083151502179055506001600c5f7378731d3ca6b7e34ac0f824c42a7cc18a495cabab73ffffffffffffffffffffffffffffffffffffffff1673ffffffffffffffffffffffffffffffffffffffff1681526020019081526020015f205f6101000a81548160ff021916908315150217905550612471806101f45f395ff3fe608060405260043610610113575f3560e01c80636ac5db191161009f578063a040478d11610063578063a040478d14610375578063c876e615146103b1578063d891f969146103db578063f14fcbc814610403578063f71d96cb1461042b57610113565b80636ac5db1914610291578063701fd0f1146102bb5780637b43a8e6146102e357806389f71d531461032157806390d5d0c31461034b57610113565b80633cf5040a116100e65780633cf5040a146101b15780633e2b58e0146101ed57806343cdd43814610217578063558d51c61461025357806365ce0ac61461026957610113565b8063086f781514610117578063190cf74514610141578063228cb7331461017d57806327b5db8a146101a7575b5f80fd5b348015610122575f80fd5b5061012b610467565b60405161013891906119da565b60405180910390f35b34801561014c575f80fd5b5061016760048036038101906101629190611a51565b61046d565b6040516101749190611a96565b60405180910390f35b348015610188575f80fd5b5061019161048a565b60405161019e91906119da565b60405180910390f35b6101af610490565b005b3480156101bc575f80fd5b506101d760048036038101906101d29190611ae2565b6107e3565b6040516101e49190611b1c565b60405180910390f35b3480156101f8575f80fd5b50610201610812565b60405161020e91906119da565b60405180910390f35b348015610222575f80fd5b5061023d60048036038101906102389190611a51565b610818565b60405161024a9190611a96565b60405180910390f35b34801561025e575f80fd5b50610267610835565b005b348015610274575f80fd5b5061028f600480360381019061028a9190611ae2565b610c35565b005b34801561029c575f80fd5b506102a5610dd2565b6040516102b29190611b50565b60405180910390f35b3480156102c6575f80fd5b506102e160048036038101906102dc9190611ae2565b610de2565b005b3480156102ee575f80fd5b5061030960048036038101906103049190611a51565b6111a0565b60405161031893929190611b8b565b60405180910390f35b34801561032c575f80fd5b506103356111e6565b60405161034291906119da565b60405180910390f35b348015610356575f80fd5b5061035f6111ec565b60405161036c91906119da565b60405180910390f35b348015610380575f80fd5b5061039b60048036038101906103969190611a51565b6111f2565b6040516103a891906119da565b60405180910390f35b3480156103bc575f80fd5b506103c5611207565b6040516103d291906119da565b60405180910390f35b3480156103e6575f80fd5b5061040160048036038101906103fc9190611ae2565b61120d565b005b34801561040e575f80fd5b5061042960048036038101906104249190611ae2565b61144e565b005b348015610436575f80fd5b50610451600480360381019061044c9190611bea565b611620565b60405161045e9190611c24565b60405180910390f35b60085481565b6005602052805f5260405f205f915054906101000a900460ff1681565b60035481565b60028054106104d4576040517f08c379a00000000000000000000000000000000000000000000000000000000081526004016104cb90611c97565b60405180910390fd5b600c5f3373ffffffffffffffffffffffffffffffffffffffff1673ffffffffffffffffffffffffffffffffffffffff1681526020019081526020015f205f9054906101000a900460ff1661055d576040517f08c379a000000000000000000000000000000000000000000000000000000000815260040161055490611cff565b60405180910390fd5b5f60025411156105da5760065f8154811061057b5761057a611d1d565b5b905f5260205f20015f9054906101000a900473ffffffffffffffffffffffffffffffffffffffff1673ffffffffffffffffffffffffffffffffffffffff163373ffffffffffffffffffffffffffffffffffffffff16036105d9575f80fd5b5b670de0b6b3a76400003414610624576040517f08c379a000000000000000000000000000000000000000000000000000000000815260040161061b90611d94565b60405180910390fd5b3460035f8282546106359190611ddf565b92505081905550600160055f3373ffffffffffffffffffffffffffffffffffffffff1673ffffffffffffffffffffffffffffffffffffffff1681526020019081526020015f205f6101000a81548160ff021916908315150217905550600633908060018154018082558091505060019003905f5260205f20015f9091909190916101000a81548173ffffffffffffffffffffffffffffffffffffffff021916908373ffffffffffffffffffffffffffffffffffffffff160217905550600560045f3373ffffffffffffffffffffffffffffffffffffffff1673ffffffffffffffffffffffffffffffffffffffff1681526020019081526020015f20819055505f60075f3373ffffffffffffffffffffffffffffffffffffffff1673ffffffffffffffffffffffffffffffffffffffff1681526020019081526020015f205f6101000a81548160ff02191690831515021790555060025f81548092919061079a90611e12565b91905055507f313f9ebdca9d25ee9456dd69022e3324975c8261b7a8b134881905d3b6964d3c336002546040516107d2929190611e59565b60405180910390a142600b81905550565b5f816040516020016107f59190611ea0565b604051602081830303815290604052805190602001209050919050565b600a5481565b6007602052805f5260405f205f915054906101000a900460ff1681565b60016002541015610844575f80fd5b600a54600b546108549190611ddf565b421161085e575f80fd5b5f60065f8154811061087357610872611d1d565b5b905f5260205f20015f9054906101000a900473ffffffffffffffffffffffffffffffffffffffff1690505f60066001815481106108b3576108b2611d1d565b5b905f5260205f20015f9054906101000a900473ffffffffffffffffffffffffffffffffffffffff16905060016002540361093a578173ffffffffffffffffffffffffffffffffffffffff166108fc60035490811502906040515f60405180830381858888f1935050505015801561092c573d5f803e3d5ffd5b5061093561165b565b610c31565b6002805414801561096657505f60085414806109655750600260085414801561096457505f600954145b5b5b15610a1c578173ffffffffffffffffffffffffffffffffffffffff166108fc60026003546109949190611ee7565b90811502906040515f60405180830381858888f193505050501580156109bc573d5f803e3d5ffd5b508073ffffffffffffffffffffffffffffffffffffffff166108fc60026003546109e69190611ee7565b90811502906040515f60405180830381858888f19350505050158015610a0e573d5f803e3d5ffd5b50610a1761165b565b610c30565b60028054148015610a2f57506001600854145b15610b28576001151560075f8473ffffffffffffffffffffffffffffffffffffffff1673ffffffffffffffffffffffffffffffffffffffff1681526020019081526020015f205f9054906101000a900460ff16151503610ad4578173ffffffffffffffffffffffffffffffffffffffff166108fc60035490811502906040515f60405180830381858888f19350505050158015610ace573d5f803e3d5ffd5b50610b1b565b8073ffffffffffffffffffffffffffffffffffffffff166108fc60035490811502906040515f60405180830381858888f19350505050158015610b19573d5f803e3d5ffd5b505b610b2361165b565b610c2f565b60028054148015610b3b57506002600854145b8015610b4957506001600954145b15610c2e57600560045f8473ffffffffffffffffffffffffffffffffffffffff1673ffffffffffffffffffffffffffffffffffffffff1681526020019081526020015f205414610bde578173ffffffffffffffffffffffffffffffffffffffff166108fc60035490811502906040515f60405180830381858888f19350505050158015610bd8573d5f803e3d5ffd5b50610c25565b8073ffffffffffffffffffffffffffffffffffffffff166108fc60035490811502906040515f60405180830381858888f19350505050158015610c23573d5f803e3d5ffd5b505b610c2d61165b565b5b5b5b5b5050565b6002805414610c42575f80fd5b600260085414610c50575f80fd5b5f81601f60208110610c6557610c64611d1d565b5b1a60f81b60f81c60ff1690505f8110158015610c82575060048111155b610cc1576040517f08c379a0000000000000000000000000000000000000000000000000000000008152600401610cb890611f87565b60405180910390fd5b60075f3373ffffffffffffffffffffffffffffffffffffffff1673ffffffffffffffffffffffffffffffffffffffff1681526020019081526020015f205f9054906101000a900460ff16610d4a576040517f08c379a0000000000000000000000000000000000000000000000000000000008152600401610d4190611fef565b60405180910390fd5b610d5382610de2565b8060045f3373ffffffffffffffffffffffffffffffffffffffff1673ffffffffffffffffffffffffffffffffffffffff1681526020019081526020015f208190555060095f815480929190610da790611e12565b919050555042600b81905550600260095403610dce57610dc5611686565b610dcd61165b565b5b5050565b5f8054906101000a900460ff1681565b5f151560015f3373ffffffffffffffffffffffffffffffffffffffff1673ffffffffffffffffffffffffffffffffffffffff1681526020019081526020015f2060010160089054906101000a900460ff16151514610e75576040517f08c379a0000000000000000000000000000000000000000000000000000000008152600401610e6c9061207d565b60405180910390fd5b6001805f3373ffffffffffffffffffffffffffffffffffffffff1673ffffffffffffffffffffffffffffffffffffffff1681526020019081526020015f2060010160086101000a81548160ff02191690831515021790555060015f3373ffffffffffffffffffffffffffffffffffffffff1673ffffffffffffffffffffffffffffffffffffffff1681526020019081526020015f205f0154610f16826107e3565b14610f56576040517f08c379a0000000000000000000000000000000000000000000000000000000008152600401610f4d9061210b565b60405180910390fd5b60015f3373ffffffffffffffffffffffffffffffffffffffff1673ffffffffffffffffffffffffffffffffffffffff1681526020019081526020015f206001015f9054906101000a900467ffffffffffffffff1667ffffffffffffffff164367ffffffffffffffff1611610fff576040517f08c379a0000000000000000000000000000000000000000000000000000000008152600401610ff6906121bf565b60405180910390fd5b60fa60015f3373ffffffffffffffffffffffffffffffffffffffff1673ffffffffffffffffffffffffffffffffffffffff1681526020019081526020015f206001015f9054906101000a900467ffffffffffffffff1661105f91906121dd565b67ffffffffffffffff164367ffffffffffffffff1611156110b5576040517f08c379a00000000000000000000000000000000000000000000000000000000081526004016110ac90612288565b60405180910390fd5b5f60015f3373ffffffffffffffffffffffffffffffffffffffff1673ffffffffffffffffffffffffffffffffffffffff1681526020019081526020015f206001015f9054906101000a900467ffffffffffffffff1667ffffffffffffffff164090505f805f9054906101000a900460ff1660ff16828460405160200161113c9291906122a6565b604051602081830303815290604052805190602001205f1c61115e91906122d1565b90507fbc016dd1cadeaefcb851af7a0a93532e0023d536894b730801f7bcfe7065bcc233848360405161119393929190612301565b60405180910390a1505050565b6001602052805f5260405f205f91509050805f015490806001015f9054906101000a900467ffffffffffffffff16908060010160089054906101000a900460ff16905083565b600b5481565b60025481565b6004602052805f5260405f205f915090505481565b60095481565b6002805414611251576040517f08c379a000000000000000000000000000000000000000000000000000000000815260040161124890612380565b60405180910390fd5b60026008541061125f575f80fd5b60055f3373ffffffffffffffffffffffffffffffffffffffff1673ffffffffffffffffffffffffffffffffffffffff1681526020019081526020015f205f9054906101000a900460ff166112b1575f80fd5b5f151560075f3373ffffffffffffffffffffffffffffffffffffffff1673ffffffffffffffffffffffffffffffffffffffff1681526020019081526020015f205f9054906101000a900460ff16151514611340576040517f08c379a0000000000000000000000000000000000000000000000000000000008152600401611337906123e8565b60405180910390fd5b5f60055f3373ffffffffffffffffffffffffffffffffffffffff1673ffffffffffffffffffffffffffffffffffffffff1681526020019081526020015f205f6101000a81548160ff021916908315150217905550600160075f3373ffffffffffffffffffffffffffffffffffffffff1673ffffffffffffffffffffffffffffffffffffffff1681526020019081526020015f205f6101000a81548160ff0219169083151502179055506113f28161144e565b60085f81548092919061140490611e12565b91905055507f3928cc5abcbb1c0b781bebbc4f1e9b156f6d392796c791cc0937db5e42677ff73360085460405161143c929190611e59565b60405180910390a142600b8190555050565b8060015f3373ffffffffffffffffffffffffffffffffffffffff1673ffffffffffffffffffffffffffffffffffffffff1681526020019081526020015f205f01819055504360015f3373ffffffffffffffffffffffffffffffffffffffff1673ffffffffffffffffffffffffffffffffffffffff1681526020019081526020015f206001015f6101000a81548167ffffffffffffffff021916908367ffffffffffffffff1602179055505f60015f3373ffffffffffffffffffffffffffffffffffffffff1673ffffffffffffffffffffffffffffffffffffffff1681526020019081526020015f2060010160086101000a81548160ff0219169083151502179055507f3c1a1f8f38335b17f751c6da4ba7d1865f26b3997535176f5080de9fad8916033360015f3373ffffffffffffffffffffffffffffffffffffffff1673ffffffffffffffffffffffffffffffffffffffff1681526020019081526020015f205f015460015f3373ffffffffffffffffffffffffffffffffffffffff1673ffffffffffffffffffffffffffffffffffffffff1681526020019081526020015f206001015f9054906101000a900467ffffffffffffffff1660405161161593929190612406565b60405180910390a150565b6006818154811061162f575f80fd5b905f5260205f20015f915054906101000a900473ffffffffffffffffffffffffffffffffffffffff1681565b60065f6116689190611989565b5f6002819055505f6008819055505f6009819055505f600381905550565b5f60045f60065f8154811061169e5761169d611d1d565b5b905f5260205f20015f9054906101000a900473ffffffffffffffffffffffffffffffffffffffff1673ffffffffffffffffffffffffffffffffffffffff1673ffffffffffffffffffffffffffffffffffffffff1681526020019081526020015f205490505f60045f600660018154811061171b5761171a611d1d565b5b905f5260205f20015f9054906101000a900473ffffffffffffffffffffffffffffffffffffffff1673ffffffffffffffffffffffffffffffffffffffff1673ffffffffffffffffffffffffffffffffffffffff1681526020019081526020015f205490505f60065f8154811061179457611793611d1d565b5b905f5260205f20015f9054906101000a900473ffffffffffffffffffffffffffffffffffffffff1690505f60066001815481106117d4576117d3611d1d565b5b905f5260205f20015f9054906101000a900473ffffffffffffffffffffffffffffffffffffffff1690508284036118ae578173ffffffffffffffffffffffffffffffffffffffff166108fc600260035461182e9190611ee7565b90811502906040515f60405180830381858888f19350505050158015611856573d5f803e3d5ffd5b508073ffffffffffffffffffffffffffffffffffffffff166108fc60026003546118809190611ee7565b90811502906040515f60405180830381858888f193505050501580156118a8573d5f803e3d5ffd5b50611983565b8260056001866118be9190611ddf565b6118c891906122d1565b14806118eb57508260056003866118df9190611ddf565b6118e991906122d1565b145b1561193b578073ffffffffffffffffffffffffffffffffffffffff166108fc60035490811502906040515f60405180830381858888f19350505050158015611935573d5f803e3d5ffd5b50611982565b8173ffffffffffffffffffffffffffffffffffffffff166108fc60035490811502906040515f60405180830381858888f19350505050158015611980573d5f803e3d5ffd5b505b5b50505050565b5080545f8255905f5260205f20908101906119a491906119a7565b50565b5b808211156119be575f815f9055506001016119a8565b5090565b5f819050919050565b6119d4816119c2565b82525050565b5f6020820190506119ed5f8301846119cb565b92915050565b5f80fd5b5f73ffffffffffffffffffffffffffffffffffffffff82169050919050565b5f611a20826119f7565b9050919050565b611a3081611a16565b8114611a3a575f80fd5b50565b5f81359050611a4b81611a27565b92915050565b5f60208284031215611a6657611a656119f3565b5b5f611a7384828501611a3d565b91505092915050565b5f8115159050919050565b611a9081611a7c565b82525050565b5f602082019050611aa95f830184611a87565b92915050565b5f819050919050565b611ac181611aaf565b8114611acb575f80fd5b50565b5f81359050611adc81611ab8565b92915050565b5f60208284031215611af757611af66119f3565b5b5f611b0484828501611ace565b91505092915050565b611b1681611aaf565b82525050565b5f602082019050611b2f5f830184611b0d565b92915050565b5f60ff82169050919050565b611b4a81611b35565b82525050565b5f602082019050611b635f830184611b41565b92915050565b5f67ffffffffffffffff82169050919050565b611b8581611b69565b82525050565b5f606082019050611b9e5f830186611b0d565b611bab6020830185611b7c565b611bb86040830184611a87565b949350505050565b611bc9816119c2565b8114611bd3575f80fd5b50565b5f81359050611be481611bc0565b92915050565b5f60208284031215611bff57611bfe6119f3565b5b5f611c0c84828501611bd6565b91505092915050565b611c1e81611a16565b82525050565b5f602082019050611c375f830184611c15565b92915050565b5f82825260208201905092915050565b7f47616d6520616c726561647920686173203220706c61796572732e00000000005f82015250565b5f611c81601b83611c3d565b9150611c8c82611c4d565b602082019050919050565b5f6020820190508181035f830152611cae81611c75565b9050919050565b7f596f7520617265206e6f7420616c6c6f77656420746f20706c61792e000000005f82015250565b5f611ce9601c83611c3d565b9150611cf482611cb5565b602082019050919050565b5f6020820190508181035f830152611d1681611cdd565b9050919050565b7f4e487b71000000000000000000000000000000000000000000000000000000005f52603260045260245ffd5b7f506179203120657468657220746f20706c61792067616d652e000000000000005f82015250565b5f611d7e601983611c3d565b9150611d8982611d4a565b602082019050919050565b5f6020820190508181035f830152611dab81611d72565b9050919050565b7f4e487b71000000000000000000000000000000000000000000000000000000005f52601160045260245ffd5b5f611de9826119c2565b9150611df4836119c2565b9250828201905080821115611e0c57611e0b611db2565b5b92915050565b5f611e1c826119c2565b91507fffffffffffffffffffffffffffffffffffffffffffffffffffffffffffffffff8203611e4e57611e4d611db2565b5b600182019050919050565b5f604082019050611e6c5f830185611c15565b611e7960208301846119cb565b9392505050565b5f819050919050565b611e9a611e9582611aaf565b611e80565b82525050565b5f611eab8284611e89565b60208201915081905092915050565b7f4e487b71000000000000000000000000000000000000000000000000000000005f52601260045260245ffd5b5f611ef1826119c2565b9150611efc836119c2565b925082611f0c57611f0b611eba565b5b828204905092915050565b7f596f75722063686f696365206e6565647320746f206265206265747765656e205f8201527f3020746f20340000000000000000000000000000000000000000000000000000602082015250565b5f611f71602683611c3d565b9150611f7c82611f17565b604082019050919050565b5f6020820190508181035f830152611f9e81611f65565b9050919050565b7f596f75206e65656420746f20636f6d6d69742066697273742e000000000000005f82015250565b5f611fd9601983611c3d565b9150611fe482611fa5565b602082019050919050565b5f6020820190508181035f83015261200681611fcd565b9050919050565b7f436f6d6d697452657665616c3a3a72657665616c3a20416c72656164792072655f8201527f7665616c65640000000000000000000000000000000000000000000000000000602082015250565b5f612067602683611c3d565b91506120728261200d565b604082019050919050565b5f6020820190508181035f8301526120948161205b565b9050919050565b7f436f6d6d697452657665616c3a3a72657665616c3a2052657665616c656420685f8201527f61736820646f6573206e6f74206d6174636820636f6d6d697400000000000000602082015250565b5f6120f5603983611c3d565b91506121008261209b565b604082019050919050565b5f6020820190508181035f830152612122816120e9565b9050919050565b7f436f6d6d697452657665616c3a3a72657665616c3a2052657665616c20616e645f8201527f20636f6d6d69742068617070656e6564206f6e207468652073616d6520626c6f60208201527f636b000000000000000000000000000000000000000000000000000000000000604082015250565b5f6121a9604283611c3d565b91506121b482612129565b606082019050919050565b5f6020820190508181035f8301526121d68161219d565b9050919050565b5f6121e782611b69565b91506121f283611b69565b9250828201905067ffffffffffffffff81111561221257612211611db2565b5b92915050565b7f436f6d6d697452657665616c3a3a72657665616c3a2052657665616c656420745f8201527f6f6f206c61746500000000000000000000000000000000000000000000000000602082015250565b5f612272602783611c3d565b915061227d82612218565b604082019050919050565b5f6020820190508181035f83015261229f81612266565b9050919050565b5f6122b18285611e89565b6020820191506122c18284611e89565b6020820191508190509392505050565b5f6122db826119c2565b91506122e6836119c2565b9250826122f6576122f5611eba565b5b828206905092915050565b5f6060820190506123145f830186611c15565b6123216020830185611b0d565b61232e60408301846119cb565b949350505050565b7f47616d65206e65656473203220706c61796572732e00000000000000000000005f82015250565b5f61236a601583611c3d565b915061237582612336565b602082019050919050565b5f6020820190508181035f8301526123978161235e565b9050919050565b7f596f7520616c726561647920636f6d6d697465642e00000000000000000000005f82015250565b5f6123d2601583611c3d565b91506123dd8261239e565b602082019050919050565b5f6020820190508181035f8301526123ff816123c6565b9050919050565b5f6060820190506124195f830186611c15565b6124266020830185611b0d565b6124336040830184611b7c565b94935050505056fea26469706673582212205fccb3f84372c388a7cc1e1c934feae7144f9771d09dcb826e39090ab18099b064736f6c634300081a0033",
					"opcodes": "PUSH1 0x80 PUSH1 0x40 MSTORE PUSH1 0x64 PUSH0 DUP1 PUSH2 0x100 EXP DUP2 SLOAD DUP2 PUSH1 0xFF MUL NOT AND SWAP1 DUP4 PUSH1 0xFF AND MUL OR SWAP1 SSTORE POP PUSH0 PUSH1 0x2 SSTORE PUSH0 PUSH1 0x3 SSTORE PUSH0 PUSH1 0x8 SSTORE PUSH0 PUSH1 0x9 SSTORE PUSH1 0x3C PUSH1 0xA SSTORE TIMESTAMP PUSH1 0xB SSTORE CALLVALUE DUP1 ISZERO PUSH2 0x42 JUMPI PUSH0 DUP1 REVERT JUMPDEST POP PUSH1 0x1 PUSH1 0xC PUSH0 PUSH20 0x5B38DA6A701C568545DCFCB03FCB875F56BEDDC4 PUSH20 0xFFFFFFFFFFFFFFFFFFFFFFFFFFFFFFFFFFFFFFFF AND PUSH20 0xFFFFFFFFFFFFFFFFFFFFFFFFFFFFFFFFFFFFFFFF AND DUP2 MSTORE PUSH1 0x20 ADD SWAP1 DUP2 MSTORE PUSH1 0x20 ADD PUSH0 KECCAK256 PUSH0 PUSH2 0x100 EXP DUP2 SLOAD DUP2 PUSH1 0xFF MUL NOT AND SWAP1 DUP4 ISZERO ISZERO MUL OR SWAP1 SSTORE POP PUSH1 0x1 PUSH1 0xC PUSH0 PUSH20 0xAB8483F64D9C6D1ECF9B849AE677DD3315835CB2 PUSH20 0xFFFFFFFFFFFFFFFFFFFFFFFFFFFFFFFFFFFFFFFF AND PUSH20 0xFFFFFFFFFFFFFFFFFFFFFFFFFFFFFFFFFFFFFFFF AND DUP2 MSTORE PUSH1 0x20 ADD SWAP1 DUP2 MSTORE PUSH1 0x20 ADD PUSH0 KECCAK256 PUSH0 PUSH2 0x100 EXP DUP2 SLOAD DUP2 PUSH1 0xFF MUL NOT AND SWAP1 DUP4 ISZERO ISZERO MUL OR SWAP1 SSTORE POP PUSH1 0x1 PUSH1 0xC PUSH0 PUSH20 0x4B20993BC481177EC7E8F571CECAE8A9E22C02DB PUSH20 0xFFFFFFFFFFFFFFFFFFFFFFFFFFFFFFFFFFFFFFFF AND PUSH20 0xFFFFFFFFFFFFFFFFFFFFFFFFFFFFFFFFFFFFFFFF AND DUP2 MSTORE PUSH1 0x20 ADD SWAP1 DUP2 MSTORE PUSH1 0x20 ADD PUSH0 KECCAK256 PUSH0 PUSH2 0x100 EXP DUP2 SLOAD DUP2 PUSH1 0xFF MUL NOT AND SWAP1 DUP4 ISZERO ISZERO MUL OR SWAP1 SSTORE POP PUSH1 0x1 PUSH1 0xC PUSH0 PUSH20 0x78731D3CA6B7E34AC0F824C42A7CC18A495CABAB PUSH20 0xFFFFFFFFFFFFFFFFFFFFFFFFFFFFFFFFFFFFFFFF AND PUSH20 0xFFFFFFFFFFFFFFFFFFFFFFFFFFFFFFFFFFFFFFFF AND DUP2 MSTORE PUSH1 0x20 ADD SWAP1 DUP2 MSTORE PUSH1 0x20 ADD PUSH0 KECCAK256 PUSH0 PUSH2 0x100 EXP DUP2 SLOAD DUP2 PUSH1 0xFF MUL NOT AND SWAP1 DUP4 ISZERO ISZERO MUL OR SWAP1 SSTORE POP PUSH2 0x2471 DUP1 PUSH2 0x1F4 PUSH0 CODECOPY PUSH0 RETURN INVALID PUSH1 0x80 PUSH1 0x40 MSTORE PUSH1 0x4 CALLDATASIZE LT PUSH2 0x113 JUMPI PUSH0 CALLDATALOAD PUSH1 0xE0 SHR DUP1 PUSH4 0x6AC5DB19 GT PUSH2 0x9F JUMPI DUP1 PUSH4 0xA040478D GT PUSH2 0x63 JUMPI DUP1 PUSH4 0xA040478D EQ PUSH2 0x375 JUMPI DUP1 PUSH4 0xC876E615 EQ PUSH2 0x3B1 JUMPI DUP1 PUSH4 0xD891F969 EQ PUSH2 0x3DB JUMPI DUP1 PUSH4 0xF14FCBC8 EQ PUSH2 0x403 JUMPI DUP1 PUSH4 0xF71D96CB EQ PUSH2 0x42B JUMPI PUSH2 0x113 JUMP JUMPDEST DUP1 PUSH4 0x6AC5DB19 EQ PUSH2 0x291 JUMPI DUP1 PUSH4 0x701FD0F1 EQ PUSH2 0x2BB JUMPI DUP1 PUSH4 0x7B43A8E6 EQ PUSH2 0x2E3 JUMPI DUP1 PUSH4 0x89F71D53 EQ PUSH2 0x321 JUMPI DUP1 PUSH4 0x90D5D0C3 EQ PUSH2 0x34B JUMPI PUSH2 0x113 JUMP JUMPDEST DUP1 PUSH4 0x3CF5040A GT PUSH2 0xE6 JUMPI DUP1 PUSH4 0x3CF5040A EQ PUSH2 0x1B1 JUMPI DUP1 PUSH4 0x3E2B58E0 EQ PUSH2 0x1ED JUMPI DUP1 PUSH4 0x43CDD438 EQ PUSH2 0x217 JUMPI DUP1 PUSH4 0x558D51C6 EQ PUSH2 0x253 JUMPI DUP1 PUSH4 0x65CE0AC6 EQ PUSH2 0x269 JUMPI PUSH2 0x113 JUMP JUMPDEST DUP1 PUSH4 0x86F7815 EQ PUSH2 0x117 JUMPI DUP1 PUSH4 0x190CF745 EQ PUSH2 0x141 JUMPI DUP1 PUSH4 0x228CB733 EQ PUSH2 0x17D JUMPI DUP1 PUSH4 0x27B5DB8A EQ PUSH2 0x1A7 JUMPI JUMPDEST PUSH0 DUP1 REVERT JUMPDEST CALLVALUE DUP1 ISZERO PUSH2 0x122 JUMPI PUSH0 DUP1 REVERT JUMPDEST POP PUSH2 0x12B PUSH2 0x467 JUMP JUMPDEST PUSH1 0x40 MLOAD PUSH2 0x138 SWAP2 SWAP1 PUSH2 0x19DA JUMP JUMPDEST PUSH1 0x40 MLOAD DUP1 SWAP2 SUB SWAP1 RETURN JUMPDEST CALLVALUE DUP1 ISZERO PUSH2 0x14C JUMPI PUSH0 DUP1 REVERT JUMPDEST POP PUSH2 0x167 PUSH1 0x4 DUP1 CALLDATASIZE SUB DUP2 ADD SWAP1 PUSH2 0x162 SWAP2 SWAP1 PUSH2 0x1A51 JUMP JUMPDEST PUSH2 0x46D JUMP JUMPDEST PUSH1 0x40 MLOAD PUSH2 0x174 SWAP2 SWAP1 PUSH2 0x1A96 JUMP JUMPDEST PUSH1 0x40 MLOAD DUP1 SWAP2 SUB SWAP1 RETURN JUMPDEST CALLVALUE DUP1 ISZERO PUSH2 0x188 JUMPI PUSH0 DUP1 REVERT JUMPDEST POP PUSH2 0x191 PUSH2 0x48A JUMP JUMPDEST PUSH1 0x40 MLOAD PUSH2 0x19E SWAP2 SWAP1 PUSH2 0x19DA JUMP JUMPDEST PUSH1 0x40 MLOAD DUP1 SWAP2 SUB SWAP1 RETURN JUMPDEST PUSH2 0x1AF PUSH2 0x490 JUMP JUMPDEST STOP JUMPDEST CALLVALUE DUP1 ISZERO PUSH2 0x1BC JUMPI PUSH0 DUP1 REVERT JUMPDEST POP PUSH2 0x1D7 PUSH1 0x4 DUP1 CALLDATASIZE SUB DUP2 ADD SWAP1 PUSH2 0x1D2 SWAP2 SWAP1 PUSH2 0x1AE2 JUMP JUMPDEST PUSH2 0x7E3 JUMP JUMPDEST PUSH1 0x40 MLOAD PUSH2 0x1E4 SWAP2 SWAP1 PUSH2 0x1B1C JUMP JUMPDEST PUSH1 0x40 MLOAD DUP1 SWAP2 SUB SWAP1 RETURN JUMPDEST CALLVALUE DUP1 ISZERO PUSH2 0x1F8 JUMPI PUSH0 DUP1 REVERT JUMPDEST POP PUSH2 0x201 PUSH2 0x812 JUMP JUMPDEST PUSH1 0x40 MLOAD PUSH2 0x20E SWAP2 SWAP1 PUSH2 0x19DA JUMP JUMPDEST PUSH1 0x40 MLOAD DUP1 SWAP2 SUB SWAP1 RETURN JUMPDEST CALLVALUE DUP1 ISZERO PUSH2 0x222 JUMPI PUSH0 DUP1 REVERT JUMPDEST POP PUSH2 0x23D PUSH1 0x4 DUP1 CALLDATASIZE SUB DUP2 ADD SWAP1 PUSH2 0x238 SWAP2 SWAP1 PUSH2 0x1A51 JUMP JUMPDEST PUSH2 0x818 JUMP JUMPDEST PUSH1 0x40 MLOAD PUSH2 0x24A SWAP2 SWAP1 PUSH2 0x1A96 JUMP JUMPDEST PUSH1 0x40 MLOAD DUP1 SWAP2 SUB SWAP1 RETURN JUMPDEST CALLVALUE DUP1 ISZERO PUSH2 0x25E JUMPI PUSH0 DUP1 REVERT JUMPDEST POP PUSH2 0x267 PUSH2 0x835 JUMP JUMPDEST STOP JUMPDEST CALLVALUE DUP1 ISZERO PUSH2 0x274 JUMPI PUSH0 DUP1 REVERT JUMPDEST POP PUSH2 0x28F PUSH1 0x4 DUP1 CALLDATASIZE SUB DUP2 ADD SWAP1 PUSH2 0x28A SWAP2 SWAP1 PUSH2 0x1AE2 JUMP JUMPDEST PUSH2 0xC35 JUMP JUMPDEST STOP JUMPDEST CALLVALUE DUP1 ISZERO PUSH2 0x29C JUMPI PUSH0 DUP1 REVERT JUMPDEST POP PUSH2 0x2A5 PUSH2 0xDD2 JUMP JUMPDEST PUSH1 0x40 MLOAD PUSH2 0x2B2 SWAP2 SWAP1 PUSH2 0x1B50 JUMP JUMPDEST PUSH1 0x40 MLOAD DUP1 SWAP2 SUB SWAP1 RETURN JUMPDEST CALLVALUE DUP1 ISZERO PUSH2 0x2C6 JUMPI PUSH0 DUP1 REVERT JUMPDEST POP PUSH2 0x2E1 PUSH1 0x4 DUP1 CALLDATASIZE SUB DUP2 ADD SWAP1 PUSH2 0x2DC SWAP2 SWAP1 PUSH2 0x1AE2 JUMP JUMPDEST PUSH2 0xDE2 JUMP JUMPDEST STOP JUMPDEST CALLVALUE DUP1 ISZERO PUSH2 0x2EE JUMPI PUSH0 DUP1 REVERT JUMPDEST POP PUSH2 0x309 PUSH1 0x4 DUP1 CALLDATASIZE SUB DUP2 ADD SWAP1 PUSH2 0x304 SWAP2 SWAP1 PUSH2 0x1A51 JUMP JUMPDEST PUSH2 0x11A0 JUMP JUMPDEST PUSH1 0x40 MLOAD PUSH2 0x318 SWAP4 SWAP3 SWAP2 SWAP1 PUSH2 0x1B8B JUMP JUMPDEST PUSH1 0x40 MLOAD DUP1 SWAP2 SUB SWAP1 RETURN JUMPDEST CALLVALUE DUP1 ISZERO PUSH2 0x32C JUMPI PUSH0 DUP1 REVERT JUMPDEST POP PUSH2 0x335 PUSH2 0x11E6 JUMP JUMPDEST PUSH1 0x40 MLOAD PUSH2 0x342 SWAP2 SWAP1 PUSH2 0x19DA JUMP JUMPDEST PUSH1 0x40 MLOAD DUP1 SWAP2 SUB SWAP1 RETURN JUMPDEST CALLVALUE DUP1 ISZERO PUSH2 0x356 JUMPI PUSH0 DUP1 REVERT JUMPDEST POP PUSH2 0x35F PUSH2 0x11EC JUMP JUMPDEST PUSH1 0x40 MLOAD PUSH2 0x36C SWAP2 SWAP1 PUSH2 0x19DA JUMP JUMPDEST PUSH1 0x40 MLOAD DUP1 SWAP2 SUB SWAP1 RETURN JUMPDEST CALLVALUE DUP1 ISZERO PUSH2 0x380 JUMPI PUSH0 DUP1 REVERT JUMPDEST POP PUSH2 0x39B PUSH1 0x4 DUP1 CALLDATASIZE SUB DUP2 ADD SWAP1 PUSH2 0x396 SWAP2 SWAP1 PUSH2 0x1A51 JUMP JUMPDEST PUSH2 0x11F2 JUMP JUMPDEST PUSH1 0x40 MLOAD PUSH2 0x3A8 SWAP2 SWAP1 PUSH2 0x19DA JUMP JUMPDEST PUSH1 0x40 MLOAD DUP1 SWAP2 SUB SWAP1 RETURN JUMPDEST CALLVALUE DUP1 ISZERO PUSH2 0x3BC JUMPI PUSH0 DUP1 REVERT JUMPDEST POP PUSH2 0x3C5 PUSH2 0x1207 JUMP JUMPDEST PUSH1 0x40 MLOAD PUSH2 0x3D2 SWAP2 SWAP1 PUSH2 0x19DA JUMP JUMPDEST PUSH1 0x40 MLOAD DUP1 SWAP2 SUB SWAP1 RETURN JUMPDEST CALLVALUE DUP1 ISZERO PUSH2 0x3E6 JUMPI PUSH0 DUP1 REVERT JUMPDEST POP PUSH2 0x401 PUSH1 0x4 DUP1 CALLDATASIZE SUB DUP2 ADD SWAP1 PUSH2 0x3FC SWAP2 SWAP1 PUSH2 0x1AE2 JUMP JUMPDEST PUSH2 0x120D JUMP JUMPDEST STOP JUMPDEST CALLVALUE DUP1 ISZERO PUSH2 0x40E JUMPI PUSH0 DUP1 REVERT JUMPDEST POP PUSH2 0x429 PUSH1 0x4 DUP1 CALLDATASIZE SUB DUP2 ADD SWAP1 PUSH2 0x424 SWAP2 SWAP1 PUSH2 0x1AE2 JUMP JUMPDEST PUSH2 0x144E JUMP JUMPDEST STOP JUMPDEST CALLVALUE DUP1 ISZERO PUSH2 0x436 JUMPI PUSH0 DUP1 REVERT JUMPDEST POP PUSH2 0x451 PUSH1 0x4 DUP1 CALLDATASIZE SUB DUP2 ADD SWAP1 PUSH2 0x44C SWAP2 SWAP1 PUSH2 0x1BEA JUMP JUMPDEST PUSH2 0x1620 JUMP JUMPDEST PUSH1 0x40 MLOAD PUSH2 0x45E SWAP2 SWAP1 PUSH2 0x1C24 JUMP JUMPDEST PUSH1 0x40 MLOAD DUP1 SWAP2 SUB SWAP1 RETURN JUMPDEST PUSH1 0x8 SLOAD DUP2 JUMP JUMPDEST PUSH1 0x5 PUSH1 0x20 MSTORE DUP1 PUSH0 MSTORE PUSH1 0x40 PUSH0 KECCAK256 PUSH0 SWAP2 POP SLOAD SWAP1 PUSH2 0x100 EXP SWAP1 DIV PUSH1 0xFF AND DUP2 JUMP JUMPDEST PUSH1 0x3 SLOAD DUP2 JUMP JUMPDEST PUSH1 0x2 DUP1 SLOAD LT PUSH2 0x4D4 JUMPI PUSH1 0x40 MLOAD PUSH32 0x8C379A000000000000000000000000000000000000000000000000000000000 DUP2 MSTORE PUSH1 0x4 ADD PUSH2 0x4CB SWAP1 PUSH2 0x1C97 JUMP JUMPDEST PUSH1 0x40 MLOAD DUP1 SWAP2 SUB SWAP1 REVERT JUMPDEST PUSH1 0xC PUSH0 CALLER PUSH20 0xFFFFFFFFFFFFFFFFFFFFFFFFFFFFFFFFFFFFFFFF AND PUSH20 0xFFFFFFFFFFFFFFFFFFFFFFFFFFFFFFFFFFFFFFFF AND DUP2 MSTORE PUSH1 0x20 ADD SWAP1 DUP2 MSTORE PUSH1 0x20 ADD PUSH0 KECCAK256 PUSH0 SWAP1 SLOAD SWAP1 PUSH2 0x100 EXP SWAP1 DIV PUSH1 0xFF AND PUSH2 0x55D JUMPI PUSH1 0x40 MLOAD PUSH32 0x8C379A000000000000000000000000000000000000000000000000000000000 DUP2 MSTORE PUSH1 0x4 ADD PUSH2 0x554 SWAP1 PUSH2 0x1CFF JUMP JUMPDEST PUSH1 0x40 MLOAD DUP1 SWAP2 SUB SWAP1 REVERT JUMPDEST PUSH0 PUSH1 0x2 SLOAD GT ISZERO PUSH2 0x5DA JUMPI PUSH1 0x6 PUSH0 DUP2 SLOAD DUP2 LT PUSH2 0x57B JUMPI PUSH2 0x57A PUSH2 0x1D1D JUMP JUMPDEST JUMPDEST SWAP1 PUSH0 MSTORE PUSH1 0x20 PUSH0 KECCAK256 ADD PUSH0 SWAP1 SLOAD SWAP1 PUSH2 0x100 EXP SWAP1 DIV PUSH20 0xFFFFFFFFFFFFFFFFFFFFFFFFFFFFFFFFFFFFFFFF AND PUSH20 0xFFFFFFFFFFFFFFFFFFFFFFFFFFFFFFFFFFFFFFFF AND CALLER PUSH20 0xFFFFFFFFFFFFFFFFFFFFFFFFFFFFFFFFFFFFFFFF AND SUB PUSH2 0x5D9 JUMPI PUSH0 DUP1 REVERT JUMPDEST JUMPDEST PUSH8 0xDE0B6B3A7640000 CALLVALUE EQ PUSH2 0x624 JUMPI PUSH1 0x40 MLOAD PUSH32 0x8C379A000000000000000000000000000000000000000000000000000000000 DUP2 MSTORE PUSH1 0x4 ADD PUSH2 0x61B SWAP1 PUSH2 0x1D94 JUMP JUMPDEST PUSH1 0x40 MLOAD DUP1 SWAP2 SUB SWAP1 REVERT JUMPDEST CALLVALUE PUSH1 0x3 PUSH0 DUP3 DUP3 SLOAD PUSH2 0x635 SWAP2 SWAP1 PUSH2 0x1DDF JUMP JUMPDEST SWAP3 POP POP DUP2 SWAP1 SSTORE POP PUSH1 0x1 PUSH1 0x5 PUSH0 CALLER PUSH20 0xFFFFFFFFFFFFFFFFFFFFFFFFFFFFFFFFFFFFFFFF AND PUSH20 0xFFFFFFFFFFFFFFFFFFFFFFFFFFFFFFFFFFFFFFFF AND DUP2 MSTORE PUSH1 0x20 ADD SWAP1 DUP2 MSTORE PUSH1 0x20 ADD PUSH0 KECCAK256 PUSH0 PUSH2 0x100 EXP DUP2 SLOAD DUP2 PUSH1 0xFF MUL NOT AND SWAP1 DUP4 ISZERO ISZERO MUL OR SWAP1 SSTORE POP PUSH1 0x6 CALLER SWAP1 DUP1 PUSH1 0x1 DUP2 SLOAD ADD DUP1 DUP3 SSTORE DUP1 SWAP2 POP POP PUSH1 0x1 SWAP1 SUB SWAP1 PUSH0 MSTORE PUSH1 0x20 PUSH0 KECCAK256 ADD PUSH0 SWAP1 SWAP2 SWAP1 SWAP2 SWAP1 SWAP2 PUSH2 0x100 EXP DUP2 SLOAD DUP2 PUSH20 0xFFFFFFFFFFFFFFFFFFFFFFFFFFFFFFFFFFFFFFFF MUL NOT AND SWAP1 DUP4 PUSH20 0xFFFFFFFFFFFFFFFFFFFFFFFFFFFFFFFFFFFFFFFF AND MUL OR SWAP1 SSTORE POP PUSH1 0x5 PUSH1 0x4 PUSH0 CALLER PUSH20 0xFFFFFFFFFFFFFFFFFFFFFFFFFFFFFFFFFFFFFFFF AND PUSH20 0xFFFFFFFFFFFFFFFFFFFFFFFFFFFFFFFFFFFFFFFF AND DUP2 MSTORE PUSH1 0x20 ADD SWAP1 DUP2 MSTORE PUSH1 0x20 ADD PUSH0 KECCAK256 DUP2 SWAP1 SSTORE POP PUSH0 PUSH1 0x7 PUSH0 CALLER PUSH20 0xFFFFFFFFFFFFFFFFFFFFFFFFFFFFFFFFFFFFFFFF AND PUSH20 0xFFFFFFFFFFFFFFFFFFFFFFFFFFFFFFFFFFFFFFFF AND DUP2 MSTORE PUSH1 0x20 ADD SWAP1 DUP2 MSTORE PUSH1 0x20 ADD PUSH0 KECCAK256 PUSH0 PUSH2 0x100 EXP DUP2 SLOAD DUP2 PUSH1 0xFF MUL NOT AND SWAP1 DUP4 ISZERO ISZERO MUL OR SWAP1 SSTORE POP PUSH1 0x2 PUSH0 DUP2 SLOAD DUP1 SWAP3 SWAP2 SWAP1 PUSH2 0x79A SWAP1 PUSH2 0x1E12 JUMP JUMPDEST SWAP2 SWAP1 POP SSTORE POP PUSH32 0x313F9EBDCA9D25EE9456DD69022E3324975C8261B7A8B134881905D3B6964D3C CALLER PUSH1 0x2 SLOAD PUSH1 0x40 MLOAD PUSH2 0x7D2 SWAP3 SWAP2 SWAP1 PUSH2 0x1E59 JUMP JUMPDEST PUSH1 0x40 MLOAD DUP1 SWAP2 SUB SWAP1 LOG1 TIMESTAMP PUSH1 0xB DUP2 SWAP1 SSTORE POP JUMP JUMPDEST PUSH0 DUP2 PUSH1 0x40 MLOAD PUSH1 0x20 ADD PUSH2 0x7F5 SWAP2 SWAP1 PUSH2 0x1EA0 JUMP JUMPDEST PUSH1 0x40 MLOAD PUSH1 0x20 DUP2 DUP4 SUB SUB DUP2 MSTORE SWAP1 PUSH1 0x40 MSTORE DUP1 MLOAD SWAP1 PUSH1 0x20 ADD KECCAK256 SWAP1 POP SWAP2 SWAP1 POP JUMP JUMPDEST PUSH1 0xA SLOAD DUP2 JUMP JUMPDEST PUSH1 0x7 PUSH1 0x20 MSTORE DUP1 PUSH0 MSTORE PUSH1 0x40 PUSH0 KECCAK256 PUSH0 SWAP2 POP SLOAD SWAP1 PUSH2 0x100 EXP SWAP1 DIV PUSH1 0xFF AND DUP2 JUMP JUMPDEST PUSH1 0x1 PUSH1 0x2 SLOAD LT ISZERO PUSH2 0x844 JUMPI PUSH0 DUP1 REVERT JUMPDEST PUSH1 0xA SLOAD PUSH1 0xB SLOAD PUSH2 0x854 SWAP2 SWAP1 PUSH2 0x1DDF JUMP JUMPDEST TIMESTAMP GT PUSH2 0x85E JUMPI PUSH0 DUP1 REVERT JUMPDEST PUSH0 PUSH1 0x6 PUSH0 DUP2 SLOAD DUP2 LT PUSH2 0x873 JUMPI PUSH2 0x872 PUSH2 0x1D1D JUMP JUMPDEST JUMPDEST SWAP1 PUSH0 MSTORE PUSH1 0x20 PUSH0 KECCAK256 ADD PUSH0 SWAP1 SLOAD SWAP1 PUSH2 0x100 EXP SWAP1 DIV PUSH20 0xFFFFFFFFFFFFFFFFFFFFFFFFFFFFFFFFFFFFFFFF AND SWAP1 POP PUSH0 PUSH1 0x6 PUSH1 0x1 DUP2 SLOAD DUP2 LT PUSH2 0x8B3 JUMPI PUSH2 0x8B2 PUSH2 0x1D1D JUMP JUMPDEST JUMPDEST SWAP1 PUSH0 MSTORE PUSH1 0x20 PUSH0 KECCAK256 ADD PUSH0 SWAP1 SLOAD SWAP1 PUSH2 0x100 EXP SWAP1 DIV PUSH20 0xFFFFFFFFFFFFFFFFFFFFFFFFFFFFFFFFFFFFFFFF AND SWAP1 POP PUSH1 0x1 PUSH1 0x2 SLOAD SUB PUSH2 0x93A JUMPI DUP2 PUSH20 0xFFFFFFFFFFFFFFFFFFFFFFFFFFFFFFFFFFFFFFFF AND PUSH2 0x8FC PUSH1 0x3 SLOAD SWAP1 DUP2 ISZERO MUL SWAP1 PUSH1 0x40 MLOAD PUSH0 PUSH1 0x40 MLOAD DUP1 DUP4 SUB DUP2 DUP6 DUP9 DUP9 CALL SWAP4 POP POP POP POP ISZERO DUP1 ISZERO PUSH2 0x92C JUMPI RETURNDATASIZE PUSH0 DUP1 RETURNDATACOPY RETURNDATASIZE PUSH0 REVERT JUMPDEST POP PUSH2 0x935 PUSH2 0x165B JUMP JUMPDEST PUSH2 0xC31 JUMP JUMPDEST PUSH1 0x2 DUP1 SLOAD EQ DUP1 ISZERO PUSH2 0x966 JUMPI POP PUSH0 PUSH1 0x8 SLOAD EQ DUP1 PUSH2 0x965 JUMPI POP PUSH1 0x2 PUSH1 0x8 SLOAD EQ DUP1 ISZERO PUSH2 0x964 JUMPI POP PUSH0 PUSH1 0x9 SLOAD EQ JUMPDEST JUMPDEST JUMPDEST ISZERO PUSH2 0xA1C JUMPI DUP2 PUSH20 0xFFFFFFFFFFFFFFFFFFFFFFFFFFFFFFFFFFFFFFFF AND PUSH2 0x8FC PUSH1 0x2 PUSH1 0x3 SLOAD PUSH2 0x994 SWAP2 SWAP1 PUSH2 0x1EE7 JUMP JUMPDEST SWAP1 DUP2 ISZERO MUL SWAP1 PUSH1 0x40 MLOAD PUSH0 PUSH1 0x40 MLOAD DUP1 DUP4 SUB DUP2 DUP6 DUP9 DUP9 CALL SWAP4 POP POP POP POP ISZERO DUP1 ISZERO PUSH2 0x9BC JUMPI RETURNDATASIZE PUSH0 DUP1 RETURNDATACOPY RETURNDATASIZE PUSH0 REVERT JUMPDEST POP DUP1 PUSH20 0xFFFFFFFFFFFFFFFFFFFFFFFFFFFFFFFFFFFFFFFF AND PUSH2 0x8FC PUSH1 0x2 PUSH1 0x3 SLOAD PUSH2 0x9E6 SWAP2 SWAP1 PUSH2 0x1EE7 JUMP JUMPDEST SWAP1 DUP2 ISZERO MUL SWAP1 PUSH1 0x40 MLOAD PUSH0 PUSH1 0x40 MLOAD DUP1 DUP4 SUB DUP2 DUP6 DUP9 DUP9 CALL SWAP4 POP POP POP POP ISZERO DUP1 ISZERO PUSH2 0xA0E JUMPI RETURNDATASIZE PUSH0 DUP1 RETURNDATACOPY RETURNDATASIZE PUSH0 REVERT JUMPDEST POP PUSH2 0xA17 PUSH2 0x165B JUMP JUMPDEST PUSH2 0xC30 JUMP JUMPDEST PUSH1 0x2 DUP1 SLOAD EQ DUP1 ISZERO PUSH2 0xA2F JUMPI POP PUSH1 0x1 PUSH1 0x8 SLOAD EQ JUMPDEST ISZERO PUSH2 0xB28 JUMPI PUSH1 0x1 ISZERO ISZERO PUSH1 0x7 PUSH0 DUP5 PUSH20 0xFFFFFFFFFFFFFFFFFFFFFFFFFFFFFFFFFFFFFFFF AND PUSH20 0xFFFFFFFFFFFFFFFFFFFFFFFFFFFFFFFFFFFFFFFF AND DUP2 MSTORE PUSH1 0x20 ADD SWAP1 DUP2 MSTORE PUSH1 0x20 ADD PUSH0 KECCAK256 PUSH0 SWAP1 SLOAD SWAP1 PUSH2 0x100 EXP SWAP1 DIV PUSH1 0xFF AND ISZERO ISZERO SUB PUSH2 0xAD4 JUMPI DUP2 PUSH20 0xFFFFFFFFFFFFFFFFFFFFFFFFFFFFFFFFFFFFFFFF AND PUSH2 0x8FC PUSH1 0x3 SLOAD SWAP1 DUP2 ISZERO MUL SWAP1 PUSH1 0x40 MLOAD PUSH0 PUSH1 0x40 MLOAD DUP1 DUP4 SUB DUP2 DUP6 DUP9 DUP9 CALL SWAP4 POP POP POP POP ISZERO DUP1 ISZERO PUSH2 0xACE JUMPI RETURNDATASIZE PUSH0 DUP1 RETURNDATACOPY RETURNDATASIZE PUSH0 REVERT JUMPDEST POP PUSH2 0xB1B JUMP JUMPDEST DUP1 PUSH20 0xFFFFFFFFFFFFFFFFFFFFFFFFFFFFFFFFFFFFFFFF AND PUSH2 0x8FC PUSH1 0x3 SLOAD SWAP1 DUP2 ISZERO MUL SWAP1 PUSH1 0x40 MLOAD PUSH0 PUSH1 0x40 MLOAD DUP1 DUP4 SUB DUP2 DUP6 DUP9 DUP9 CALL SWAP4 POP POP POP POP ISZERO DUP1 ISZERO PUSH2 0xB19 JUMPI RETURNDATASIZE PUSH0 DUP1 RETURNDATACOPY RETURNDATASIZE PUSH0 REVERT JUMPDEST POP JUMPDEST PUSH2 0xB23 PUSH2 0x165B JUMP JUMPDEST PUSH2 0xC2F JUMP JUMPDEST PUSH1 0x2 DUP1 SLOAD EQ DUP1 ISZERO PUSH2 0xB3B JUMPI POP PUSH1 0x2 PUSH1 0x8 SLOAD EQ JUMPDEST DUP1 ISZERO PUSH2 0xB49 JUMPI POP PUSH1 0x1 PUSH1 0x9 SLOAD EQ JUMPDEST ISZERO PUSH2 0xC2E JUMPI PUSH1 0x5 PUSH1 0x4 PUSH0 DUP5 PUSH20 0xFFFFFFFFFFFFFFFFFFFFFFFFFFFFFFFFFFFFFFFF AND PUSH20 0xFFFFFFFFFFFFFFFFFFFFFFFFFFFFFFFFFFFFFFFF AND DUP2 MSTORE PUSH1 0x20 ADD SWAP1 DUP2 MSTORE PUSH1 0x20 ADD PUSH0 KECCAK256 SLOAD EQ PUSH2 0xBDE JUMPI DUP2 PUSH20 0xFFFFFFFFFFFFFFFFFFFFFFFFFFFFFFFFFFFFFFFF AND PUSH2 0x8FC PUSH1 0x3 SLOAD SWAP1 DUP2 ISZERO MUL SWAP1 PUSH1 0x40 MLOAD PUSH0 PUSH1 0x40 MLOAD DUP1 DUP4 SUB DUP2 DUP6 DUP9 DUP9 CALL SWAP4 POP POP POP POP ISZERO DUP1 ISZERO PUSH2 0xBD8 JUMPI RETURNDATASIZE PUSH0 DUP1 RETURNDATACOPY RETURNDATASIZE PUSH0 REVERT JUMPDEST POP PUSH2 0xC25 JUMP JUMPDEST DUP1 PUSH20 0xFFFFFFFFFFFFFFFFFFFFFFFFFFFFFFFFFFFFFFFF AND PUSH2 0x8FC PUSH1 0x3 SLOAD SWAP1 DUP2 ISZERO MUL SWAP1 PUSH1 0x40 MLOAD PUSH0 PUSH1 0x40 MLOAD DUP1 DUP4 SUB DUP2 DUP6 DUP9 DUP9 CALL SWAP4 POP POP POP POP ISZERO DUP1 ISZERO PUSH2 0xC23 JUMPI RETURNDATASIZE PUSH0 DUP1 RETURNDATACOPY RETURNDATASIZE PUSH0 REVERT JUMPDEST POP JUMPDEST PUSH2 0xC2D PUSH2 0x165B JUMP JUMPDEST JUMPDEST JUMPDEST JUMPDEST JUMPDEST POP POP JUMP JUMPDEST PUSH1 0x2 DUP1 SLOAD EQ PUSH2 0xC42 JUMPI PUSH0 DUP1 REVERT JUMPDEST PUSH1 0x2 PUSH1 0x8 SLOAD EQ PUSH2 0xC50 JUMPI PUSH0 DUP1 REVERT JUMPDEST PUSH0 DUP2 PUSH1 0x1F PUSH1 0x20 DUP2 LT PUSH2 0xC65 JUMPI PUSH2 0xC64 PUSH2 0x1D1D JUMP JUMPDEST JUMPDEST BYTE PUSH1 0xF8 SHL PUSH1 0xF8 SHR PUSH1 0xFF AND SWAP1 POP PUSH0 DUP2 LT ISZERO DUP1 ISZERO PUSH2 0xC82 JUMPI POP PUSH1 0x4 DUP2 GT ISZERO JUMPDEST PUSH2 0xCC1 JUMPI PUSH1 0x40 MLOAD PUSH32 0x8C379A000000000000000000000000000000000000000000000000000000000 DUP2 MSTORE PUSH1 0x4 ADD PUSH2 0xCB8 SWAP1 PUSH2 0x1F87 JUMP JUMPDEST PUSH1 0x40 MLOAD DUP1 SWAP2 SUB SWAP1 REVERT JUMPDEST PUSH1 0x7 PUSH0 CALLER PUSH20 0xFFFFFFFFFFFFFFFFFFFFFFFFFFFFFFFFFFFFFFFF AND PUSH20 0xFFFFFFFFFFFFFFFFFFFFFFFFFFFFFFFFFFFFFFFF AND DUP2 MSTORE PUSH1 0x20 ADD SWAP1 DUP2 MSTORE PUSH1 0x20 ADD PUSH0 KECCAK256 PUSH0 SWAP1 SLOAD SWAP1 PUSH2 0x100 EXP SWAP1 DIV PUSH1 0xFF AND PUSH2 0xD4A JUMPI PUSH1 0x40 MLOAD PUSH32 0x8C379A000000000000000000000000000000000000000000000000000000000 DUP2 MSTORE PUSH1 0x4 ADD PUSH2 0xD41 SWAP1 PUSH2 0x1FEF JUMP JUMPDEST PUSH1 0x40 MLOAD DUP1 SWAP2 SUB SWAP1 REVERT JUMPDEST PUSH2 0xD53 DUP3 PUSH2 0xDE2 JUMP JUMPDEST DUP1 PUSH1 0x4 PUSH0 CALLER PUSH20 0xFFFFFFFFFFFFFFFFFFFFFFFFFFFFFFFFFFFFFFFF AND PUSH20 0xFFFFFFFFFFFFFFFFFFFFFFFFFFFFFFFFFFFFFFFF AND DUP2 MSTORE PUSH1 0x20 ADD SWAP1 DUP2 MSTORE PUSH1 0x20 ADD PUSH0 KECCAK256 DUP2 SWAP1 SSTORE POP PUSH1 0x9 PUSH0 DUP2 SLOAD DUP1 SWAP3 SWAP2 SWAP1 PUSH2 0xDA7 SWAP1 PUSH2 0x1E12 JUMP JUMPDEST SWAP2 SWAP1 POP SSTORE POP TIMESTAMP PUSH1 0xB DUP2 SWAP1 SSTORE POP PUSH1 0x2 PUSH1 0x9 SLOAD SUB PUSH2 0xDCE JUMPI PUSH2 0xDC5 PUSH2 0x1686 JUMP JUMPDEST PUSH2 0xDCD PUSH2 0x165B JUMP JUMPDEST JUMPDEST POP POP JUMP JUMPDEST PUSH0 DUP1 SLOAD SWAP1 PUSH2 0x100 EXP SWAP1 DIV PUSH1 0xFF AND DUP2 JUMP JUMPDEST PUSH0 ISZERO ISZERO PUSH1 0x1 PUSH0 CALLER PUSH20 0xFFFFFFFFFFFFFFFFFFFFFFFFFFFFFFFFFFFFFFFF AND PUSH20 0xFFFFFFFFFFFFFFFFFFFFFFFFFFFFFFFFFFFFFFFF AND DUP2 MSTORE PUSH1 0x20 ADD SWAP1 DUP2 MSTORE PUSH1 0x20 ADD PUSH0 KECCAK256 PUSH1 0x1 ADD PUSH1 0x8 SWAP1 SLOAD SWAP1 PUSH2 0x100 EXP SWAP1 DIV PUSH1 0xFF AND ISZERO ISZERO EQ PUSH2 0xE75 JUMPI PUSH1 0x40 MLOAD PUSH32 0x8C379A000000000000000000000000000000000000000000000000000000000 DUP2 MSTORE PUSH1 0x4 ADD PUSH2 0xE6C SWAP1 PUSH2 0x207D JUMP JUMPDEST PUSH1 0x40 MLOAD DUP1 SWAP2 SUB SWAP1 REVERT JUMPDEST PUSH1 0x1 DUP1 PUSH0 CALLER PUSH20 0xFFFFFFFFFFFFFFFFFFFFFFFFFFFFFFFFFFFFFFFF AND PUSH20 0xFFFFFFFFFFFFFFFFFFFFFFFFFFFFFFFFFFFFFFFF AND DUP2 MSTORE PUSH1 0x20 ADD SWAP1 DUP2 MSTORE PUSH1 0x20 ADD PUSH0 KECCAK256 PUSH1 0x1 ADD PUSH1 0x8 PUSH2 0x100 EXP DUP2 SLOAD DUP2 PUSH1 0xFF MUL NOT AND SWAP1 DUP4 ISZERO ISZERO MUL OR SWAP1 SSTORE POP PUSH1 0x1 PUSH0 CALLER PUSH20 0xFFFFFFFFFFFFFFFFFFFFFFFFFFFFFFFFFFFFFFFF AND PUSH20 0xFFFFFFFFFFFFFFFFFFFFFFFFFFFFFFFFFFFFFFFF AND DUP2 MSTORE PUSH1 0x20 ADD SWAP1 DUP2 MSTORE PUSH1 0x20 ADD PUSH0 KECCAK256 PUSH0 ADD SLOAD PUSH2 0xF16 DUP3 PUSH2 0x7E3 JUMP JUMPDEST EQ PUSH2 0xF56 JUMPI PUSH1 0x40 MLOAD PUSH32 0x8C379A000000000000000000000000000000000000000000000000000000000 DUP2 MSTORE PUSH1 0x4 ADD PUSH2 0xF4D SWAP1 PUSH2 0x210B JUMP JUMPDEST PUSH1 0x40 MLOAD DUP1 SWAP2 SUB SWAP1 REVERT JUMPDEST PUSH1 0x1 PUSH0 CALLER PUSH20 0xFFFFFFFFFFFFFFFFFFFFFFFFFFFFFFFFFFFFFFFF AND PUSH20 0xFFFFFFFFFFFFFFFFFFFFFFFFFFFFFFFFFFFFFFFF AND DUP2 MSTORE PUSH1 0x20 ADD SWAP1 DUP2 MSTORE PUSH1 0x20 ADD PUSH0 KECCAK256 PUSH1 0x1 ADD PUSH0 SWAP1 SLOAD SWAP1 PUSH2 0x100 EXP SWAP1 DIV PUSH8 0xFFFFFFFFFFFFFFFF AND PUSH8 0xFFFFFFFFFFFFFFFF AND NUMBER PUSH8 0xFFFFFFFFFFFFFFFF AND GT PUSH2 0xFFF JUMPI PUSH1 0x40 MLOAD PUSH32 0x8C379A000000000000000000000000000000000000000000000000000000000 DUP2 MSTORE PUSH1 0x4 ADD PUSH2 0xFF6 SWAP1 PUSH2 0x21BF JUMP JUMPDEST PUSH1 0x40 MLOAD DUP1 SWAP2 SUB SWAP1 REVERT JUMPDEST PUSH1 0xFA PUSH1 0x1 PUSH0 CALLER PUSH20 0xFFFFFFFFFFFFFFFFFFFFFFFFFFFFFFFFFFFFFFFF AND PUSH20 0xFFFFFFFFFFFFFFFFFFFFFFFFFFFFFFFFFFFFFFFF AND DUP2 MSTORE PUSH1 0x20 ADD SWAP1 DUP2 MSTORE PUSH1 0x20 ADD PUSH0 KECCAK256 PUSH1 0x1 ADD PUSH0 SWAP1 SLOAD SWAP1 PUSH2 0x100 EXP SWAP1 DIV PUSH8 0xFFFFFFFFFFFFFFFF AND PUSH2 0x105F SWAP2 SWAP1 PUSH2 0x21DD JUMP JUMPDEST PUSH8 0xFFFFFFFFFFFFFFFF AND NUMBER PUSH8 0xFFFFFFFFFFFFFFFF AND GT ISZERO PUSH2 0x10B5 JUMPI PUSH1 0x40 MLOAD PUSH32 0x8C379A000000000000000000000000000000000000000000000000000000000 DUP2 MSTORE PUSH1 0x4 ADD PUSH2 0x10AC SWAP1 PUSH2 0x2288 JUMP JUMPDEST PUSH1 0x40 MLOAD DUP1 SWAP2 SUB SWAP1 REVERT JUMPDEST PUSH0 PUSH1 0x1 PUSH0 CALLER PUSH20 0xFFFFFFFFFFFFFFFFFFFFFFFFFFFFFFFFFFFFFFFF AND PUSH20 0xFFFFFFFFFFFFFFFFFFFFFFFFFFFFFFFFFFFFFFFF AND DUP2 MSTORE PUSH1 0x20 ADD SWAP1 DUP2 MSTORE PUSH1 0x20 ADD PUSH0 KECCAK256 PUSH1 0x1 ADD PUSH0 SWAP1 SLOAD SWAP1 PUSH2 0x100 EXP SWAP1 DIV PUSH8 0xFFFFFFFFFFFFFFFF AND PUSH8 0xFFFFFFFFFFFFFFFF AND BLOCKHASH SWAP1 POP PUSH0 DUP1 PUSH0 SWAP1 SLOAD SWAP1 PUSH2 0x100 EXP SWAP1 DIV PUSH1 0xFF AND PUSH1 0xFF AND DUP3 DUP5 PUSH1 0x40 MLOAD PUSH1 0x20 ADD PUSH2 0x113C SWAP3 SWAP2 SWAP1 PUSH2 0x22A6 JUMP JUMPDEST PUSH1 0x40 MLOAD PUSH1 0x20 DUP2 DUP4 SUB SUB DUP2 MSTORE SWAP1 PUSH1 0x40 MSTORE DUP1 MLOAD SWAP1 PUSH1 0x20 ADD KECCAK256 PUSH0 SHR PUSH2 0x115E SWAP2 SWAP1 PUSH2 0x22D1 JUMP JUMPDEST SWAP1 POP PUSH32 0xBC016DD1CADEAEFCB851AF7A0A93532E0023D536894B730801F7BCFE7065BCC2 CALLER DUP5 DUP4 PUSH1 0x40 MLOAD PUSH2 0x1193 SWAP4 SWAP3 SWAP2 SWAP1 PUSH2 0x2301 JUMP JUMPDEST PUSH1 0x40 MLOAD DUP1 SWAP2 SUB SWAP1 LOG1 POP POP POP JUMP JUMPDEST PUSH1 0x1 PUSH1 0x20 MSTORE DUP1 PUSH0 MSTORE PUSH1 0x40 PUSH0 KECCAK256 PUSH0 SWAP2 POP SWAP1 POP DUP1 PUSH0 ADD SLOAD SWAP1 DUP1 PUSH1 0x1 ADD PUSH0 SWAP1 SLOAD SWAP1 PUSH2 0x100 EXP SWAP1 DIV PUSH8 0xFFFFFFFFFFFFFFFF AND SWAP1 DUP1 PUSH1 0x1 ADD PUSH1 0x8 SWAP1 SLOAD SWAP1 PUSH2 0x100 EXP SWAP1 DIV PUSH1 0xFF AND SWAP1 POP DUP4 JUMP JUMPDEST PUSH1 0xB SLOAD DUP2 JUMP JUMPDEST PUSH1 0x2 SLOAD DUP2 JUMP JUMPDEST PUSH1 0x4 PUSH1 0x20 MSTORE DUP1 PUSH0 MSTORE PUSH1 0x40 PUSH0 KECCAK256 PUSH0 SWAP2 POP SWAP1 POP SLOAD DUP2 JUMP JUMPDEST PUSH1 0x9 SLOAD DUP2 JUMP JUMPDEST PUSH1 0x2 DUP1 SLOAD EQ PUSH2 0x1251 JUMPI PUSH1 0x40 MLOAD PUSH32 0x8C379A000000000000000000000000000000000000000000000000000000000 DUP2 MSTORE PUSH1 0x4 ADD PUSH2 0x1248 SWAP1 PUSH2 0x2380 JUMP JUMPDEST PUSH1 0x40 MLOAD DUP1 SWAP2 SUB SWAP1 REVERT JUMPDEST PUSH1 0x2 PUSH1 0x8 SLOAD LT PUSH2 0x125F JUMPI PUSH0 DUP1 REVERT JUMPDEST PUSH1 0x5 PUSH0 CALLER PUSH20 0xFFFFFFFFFFFFFFFFFFFFFFFFFFFFFFFFFFFFFFFF AND PUSH20 0xFFFFFFFFFFFFFFFFFFFFFFFFFFFFFFFFFFFFFFFF AND DUP2 MSTORE PUSH1 0x20 ADD SWAP1 DUP2 MSTORE PUSH1 0x20 ADD PUSH0 KECCAK256 PUSH0 SWAP1 SLOAD SWAP1 PUSH2 0x100 EXP SWAP1 DIV PUSH1 0xFF AND PUSH2 0x12B1 JUMPI PUSH0 DUP1 REVERT JUMPDEST PUSH0 ISZERO ISZERO PUSH1 0x7 PUSH0 CALLER PUSH20 0xFFFFFFFFFFFFFFFFFFFFFFFFFFFFFFFFFFFFFFFF AND PUSH20 0xFFFFFFFFFFFFFFFFFFFFFFFFFFFFFFFFFFFFFFFF AND DUP2 MSTORE PUSH1 0x20 ADD SWAP1 DUP2 MSTORE PUSH1 0x20 ADD PUSH0 KECCAK256 PUSH0 SWAP1 SLOAD SWAP1 PUSH2 0x100 EXP SWAP1 DIV PUSH1 0xFF AND ISZERO ISZERO EQ PUSH2 0x1340 JUMPI PUSH1 0x40 MLOAD PUSH32 0x8C379A000000000000000000000000000000000000000000000000000000000 DUP2 MSTORE PUSH1 0x4 ADD PUSH2 0x1337 SWAP1 PUSH2 0x23E8 JUMP JUMPDEST PUSH1 0x40 MLOAD DUP1 SWAP2 SUB SWAP1 REVERT JUMPDEST PUSH0 PUSH1 0x5 PUSH0 CALLER PUSH20 0xFFFFFFFFFFFFFFFFFFFFFFFFFFFFFFFFFFFFFFFF AND PUSH20 0xFFFFFFFFFFFFFFFFFFFFFFFFFFFFFFFFFFFFFFFF AND DUP2 MSTORE PUSH1 0x20 ADD SWAP1 DUP2 MSTORE PUSH1 0x20 ADD PUSH0 KECCAK256 PUSH0 PUSH2 0x100 EXP DUP2 SLOAD DUP2 PUSH1 0xFF MUL NOT AND SWAP1 DUP4 ISZERO ISZERO MUL OR SWAP1 SSTORE POP PUSH1 0x1 PUSH1 0x7 PUSH0 CALLER PUSH20 0xFFFFFFFFFFFFFFFFFFFFFFFFFFFFFFFFFFFFFFFF AND PUSH20 0xFFFFFFFFFFFFFFFFFFFFFFFFFFFFFFFFFFFFFFFF AND DUP2 MSTORE PUSH1 0x20 ADD SWAP1 DUP2 MSTORE PUSH1 0x20 ADD PUSH0 KECCAK256 PUSH0 PUSH2 0x100 EXP DUP2 SLOAD DUP2 PUSH1 0xFF MUL NOT AND SWAP1 DUP4 ISZERO ISZERO MUL OR SWAP1 SSTORE POP PUSH2 0x13F2 DUP2 PUSH2 0x144E JUMP JUMPDEST PUSH1 0x8 PUSH0 DUP2 SLOAD DUP1 SWAP3 SWAP2 SWAP1 PUSH2 0x1404 SWAP1 PUSH2 0x1E12 JUMP JUMPDEST SWAP2 SWAP1 POP SSTORE POP PUSH32 0x3928CC5ABCBB1C0B781BEBBC4F1E9B156F6D392796C791CC0937DB5E42677FF7 CALLER PUSH1 0x8 SLOAD PUSH1 0x40 MLOAD PUSH2 0x143C SWAP3 SWAP2 SWAP1 PUSH2 0x1E59 JUMP JUMPDEST PUSH1 0x40 MLOAD DUP1 SWAP2 SUB SWAP1 LOG1 TIMESTAMP PUSH1 0xB DUP2 SWAP1 SSTORE POP POP JUMP JUMPDEST DUP1 PUSH1 0x1 PUSH0 CALLER PUSH20 0xFFFFFFFFFFFFFFFFFFFFFFFFFFFFFFFFFFFFFFFF AND PUSH20 0xFFFFFFFFFFFFFFFFFFFFFFFFFFFFFFFFFFFFFFFF AND DUP2 MSTORE PUSH1 0x20 ADD SWAP1 DUP2 MSTORE PUSH1 0x20 ADD PUSH0 KECCAK256 PUSH0 ADD DUP2 SWAP1 SSTORE POP NUMBER PUSH1 0x1 PUSH0 CALLER PUSH20 0xFFFFFFFFFFFFFFFFFFFFFFFFFFFFFFFFFFFFFFFF AND PUSH20 0xFFFFFFFFFFFFFFFFFFFFFFFFFFFFFFFFFFFFFFFF AND DUP2 MSTORE PUSH1 0x20 ADD SWAP1 DUP2 MSTORE PUSH1 0x20 ADD PUSH0 KECCAK256 PUSH1 0x1 ADD PUSH0 PUSH2 0x100 EXP DUP2 SLOAD DUP2 PUSH8 0xFFFFFFFFFFFFFFFF MUL NOT AND SWAP1 DUP4 PUSH8 0xFFFFFFFFFFFFFFFF AND MUL OR SWAP1 SSTORE POP PUSH0 PUSH1 0x1 PUSH0 CALLER PUSH20 0xFFFFFFFFFFFFFFFFFFFFFFFFFFFFFFFFFFFFFFFF AND PUSH20 0xFFFFFFFFFFFFFFFFFFFFFFFFFFFFFFFFFFFFFFFF AND DUP2 MSTORE PUSH1 0x20 ADD SWAP1 DUP2 MSTORE PUSH1 0x20 ADD PUSH0 KECCAK256 PUSH1 0x1 ADD PUSH1 0x8 PUSH2 0x100 EXP DUP2 SLOAD DUP2 PUSH1 0xFF MUL NOT AND SWAP1 DUP4 ISZERO ISZERO MUL OR SWAP1 SSTORE POP PUSH32 0x3C1A1F8F38335B17F751C6DA4BA7D1865F26B3997535176F5080DE9FAD891603 CALLER PUSH1 0x1 PUSH0 CALLER PUSH20 0xFFFFFFFFFFFFFFFFFFFFFFFFFFFFFFFFFFFFFFFF AND PUSH20 0xFFFFFFFFFFFFFFFFFFFFFFFFFFFFFFFFFFFFFFFF AND DUP2 MSTORE PUSH1 0x20 ADD SWAP1 DUP2 MSTORE PUSH1 0x20 ADD PUSH0 KECCAK256 PUSH0 ADD SLOAD PUSH1 0x1 PUSH0 CALLER PUSH20 0xFFFFFFFFFFFFFFFFFFFFFFFFFFFFFFFFFFFFFFFF AND PUSH20 0xFFFFFFFFFFFFFFFFFFFFFFFFFFFFFFFFFFFFFFFF AND DUP2 MSTORE PUSH1 0x20 ADD SWAP1 DUP2 MSTORE PUSH1 0x20 ADD PUSH0 KECCAK256 PUSH1 0x1 ADD PUSH0 SWAP1 SLOAD SWAP1 PUSH2 0x100 EXP SWAP1 DIV PUSH8 0xFFFFFFFFFFFFFFFF AND PUSH1 0x40 MLOAD PUSH2 0x1615 SWAP4 SWAP3 SWAP2 SWAP1 PUSH2 0x2406 JUMP JUMPDEST PUSH1 0x40 MLOAD DUP1 SWAP2 SUB SWAP1 LOG1 POP JUMP JUMPDEST PUSH1 0x6 DUP2 DUP2 SLOAD DUP2 LT PUSH2 0x162F JUMPI PUSH0 DUP1 REVERT JUMPDEST SWAP1 PUSH0 MSTORE PUSH1 0x20 PUSH0 KECCAK256 ADD PUSH0 SWAP2 POP SLOAD SWAP1 PUSH2 0x100 EXP SWAP1 DIV PUSH20 0xFFFFFFFFFFFFFFFFFFFFFFFFFFFFFFFFFFFFFFFF AND DUP2 JUMP JUMPDEST PUSH1 0x6 PUSH0 PUSH2 0x1668 SWAP2 SWAP1 PUSH2 0x1989 JUMP JUMPDEST PUSH0 PUSH1 0x2 DUP2 SWAP1 SSTORE POP PUSH0 PUSH1 0x8 DUP2 SWAP1 SSTORE POP PUSH0 PUSH1 0x9 DUP2 SWAP1 SSTORE POP PUSH0 PUSH1 0x3 DUP2 SWAP1 SSTORE POP JUMP JUMPDEST PUSH0 PUSH1 0x4 PUSH0 PUSH1 0x6 PUSH0 DUP2 SLOAD DUP2 LT PUSH2 0x169E JUMPI PUSH2 0x169D PUSH2 0x1D1D JUMP JUMPDEST JUMPDEST SWAP1 PUSH0 MSTORE PUSH1 0x20 PUSH0 KECCAK256 ADD PUSH0 SWAP1 SLOAD SWAP1 PUSH2 0x100 EXP SWAP1 DIV PUSH20 0xFFFFFFFFFFFFFFFFFFFFFFFFFFFFFFFFFFFFFFFF AND PUSH20 0xFFFFFFFFFFFFFFFFFFFFFFFFFFFFFFFFFFFFFFFF AND PUSH20 0xFFFFFFFFFFFFFFFFFFFFFFFFFFFFFFFFFFFFFFFF AND DUP2 MSTORE PUSH1 0x20 ADD SWAP1 DUP2 MSTORE PUSH1 0x20 ADD PUSH0 KECCAK256 SLOAD SWAP1 POP PUSH0 PUSH1 0x4 PUSH0 PUSH1 0x6 PUSH1 0x1 DUP2 SLOAD DUP2 LT PUSH2 0x171B JUMPI PUSH2 0x171A PUSH2 0x1D1D JUMP JUMPDEST JUMPDEST SWAP1 PUSH0 MSTORE PUSH1 0x20 PUSH0 KECCAK256 ADD PUSH0 SWAP1 SLOAD SWAP1 PUSH2 0x100 EXP SWAP1 DIV PUSH20 0xFFFFFFFFFFFFFFFFFFFFFFFFFFFFFFFFFFFFFFFF AND PUSH20 0xFFFFFFFFFFFFFFFFFFFFFFFFFFFFFFFFFFFFFFFF AND PUSH20 0xFFFFFFFFFFFFFFFFFFFFFFFFFFFFFFFFFFFFFFFF AND DUP2 MSTORE PUSH1 0x20 ADD SWAP1 DUP2 MSTORE PUSH1 0x20 ADD PUSH0 KECCAK256 SLOAD SWAP1 POP PUSH0 PUSH1 0x6 PUSH0 DUP2 SLOAD DUP2 LT PUSH2 0x1794 JUMPI PUSH2 0x1793 PUSH2 0x1D1D JUMP JUMPDEST JUMPDEST SWAP1 PUSH0 MSTORE PUSH1 0x20 PUSH0 KECCAK256 ADD PUSH0 SWAP1 SLOAD SWAP1 PUSH2 0x100 EXP SWAP1 DIV PUSH20 0xFFFFFFFFFFFFFFFFFFFFFFFFFFFFFFFFFFFFFFFF AND SWAP1 POP PUSH0 PUSH1 0x6 PUSH1 0x1 DUP2 SLOAD DUP2 LT PUSH2 0x17D4 JUMPI PUSH2 0x17D3 PUSH2 0x1D1D JUMP JUMPDEST JUMPDEST SWAP1 PUSH0 MSTORE PUSH1 0x20 PUSH0 KECCAK256 ADD PUSH0 SWAP1 SLOAD SWAP1 PUSH2 0x100 EXP SWAP1 DIV PUSH20 0xFFFFFFFFFFFFFFFFFFFFFFFFFFFFFFFFFFFFFFFF AND SWAP1 POP DUP3 DUP5 SUB PUSH2 0x18AE JUMPI DUP2 PUSH20 0xFFFFFFFFFFFFFFFFFFFFFFFFFFFFFFFFFFFFFFFF AND PUSH2 0x8FC PUSH1 0x2 PUSH1 0x3 SLOAD PUSH2 0x182E SWAP2 SWAP1 PUSH2 0x1EE7 JUMP JUMPDEST SWAP1 DUP2 ISZERO MUL SWAP1 PUSH1 0x40 MLOAD PUSH0 PUSH1 0x40 MLOAD DUP1 DUP4 SUB DUP2 DUP6 DUP9 DUP9 CALL SWAP4 POP POP POP POP ISZERO DUP1 ISZERO PUSH2 0x1856 JUMPI RETURNDATASIZE PUSH0 DUP1 RETURNDATACOPY RETURNDATASIZE PUSH0 REVERT JUMPDEST POP DUP1 PUSH20 0xFFFFFFFFFFFFFFFFFFFFFFFFFFFFFFFFFFFFFFFF AND PUSH2 0x8FC PUSH1 0x2 PUSH1 0x3 SLOAD PUSH2 0x1880 SWAP2 SWAP1 PUSH2 0x1EE7 JUMP JUMPDEST SWAP1 DUP2 ISZERO MUL SWAP1 PUSH1 0x40 MLOAD PUSH0 PUSH1 0x40 MLOAD DUP1 DUP4 SUB DUP2 DUP6 DUP9 DUP9 CALL SWAP4 POP POP POP POP ISZERO DUP1 ISZERO PUSH2 0x18A8 JUMPI RETURNDATASIZE PUSH0 DUP1 RETURNDATACOPY RETURNDATASIZE PUSH0 REVERT JUMPDEST POP PUSH2 0x1983 JUMP JUMPDEST DUP3 PUSH1 0x5 PUSH1 0x1 DUP7 PUSH2 0x18BE SWAP2 SWAP1 PUSH2 0x1DDF JUMP JUMPDEST PUSH2 0x18C8 SWAP2 SWAP1 PUSH2 0x22D1 JUMP JUMPDEST EQ DUP1 PUSH2 0x18EB JUMPI POP DUP3 PUSH1 0x5 PUSH1 0x3 DUP7 PUSH2 0x18DF SWAP2 SWAP1 PUSH2 0x1DDF JUMP JUMPDEST PUSH2 0x18E9 SWAP2 SWAP1 PUSH2 0x22D1 JUMP JUMPDEST EQ JUMPDEST ISZERO PUSH2 0x193B JUMPI DUP1 PUSH20 0xFFFFFFFFFFFFFFFFFFFFFFFFFFFFFFFFFFFFFFFF AND PUSH2 0x8FC PUSH1 0x3 SLOAD SWAP1 DUP2 ISZERO MUL SWAP1 PUSH1 0x40 MLOAD PUSH0 PUSH1 0x40 MLOAD DUP1 DUP4 SUB DUP2 DUP6 DUP9 DUP9 CALL SWAP4 POP POP POP POP ISZERO DUP1 ISZERO PUSH2 0x1935 JUMPI RETURNDATASIZE PUSH0 DUP1 RETURNDATACOPY RETURNDATASIZE PUSH0 REVERT JUMPDEST POP PUSH2 0x1982 JUMP JUMPDEST DUP2 PUSH20 0xFFFFFFFFFFFFFFFFFFFFFFFFFFFFFFFFFFFFFFFF AND PUSH2 0x8FC PUSH1 0x3 SLOAD SWAP1 DUP2 ISZERO MUL SWAP1 PUSH1 0x40 MLOAD PUSH0 PUSH1 0x40 MLOAD DUP1 DUP4 SUB DUP2 DUP6 DUP9 DUP9 CALL SWAP4 POP POP POP POP ISZERO DUP1 ISZERO PUSH2 0x1980 JUMPI RETURNDATASIZE PUSH0 DUP1 RETURNDATACOPY RETURNDATASIZE PUSH0 REVERT JUMPDEST POP JUMPDEST JUMPDEST POP POP POP POP JUMP JUMPDEST POP DUP1 SLOAD PUSH0 DUP3 SSTORE SWAP1 PUSH0 MSTORE PUSH1 0x20 PUSH0 KECCAK256 SWAP1 DUP2 ADD SWAP1 PUSH2 0x19A4 SWAP2 SWAP1 PUSH2 0x19A7 JUMP JUMPDEST POP JUMP JUMPDEST JUMPDEST DUP1 DUP3 GT ISZERO PUSH2 0x19BE JUMPI PUSH0 DUP2 PUSH0 SWAP1 SSTORE POP PUSH1 0x1 ADD PUSH2 0x19A8 JUMP JUMPDEST POP SWAP1 JUMP JUMPDEST PUSH0 DUP2 SWAP1 POP SWAP2 SWAP1 POP JUMP JUMPDEST PUSH2 0x19D4 DUP2 PUSH2 0x19C2 JUMP JUMPDEST DUP3 MSTORE POP POP JUMP JUMPDEST PUSH0 PUSH1 0x20 DUP3 ADD SWAP1 POP PUSH2 0x19ED PUSH0 DUP4 ADD DUP5 PUSH2 0x19CB JUMP JUMPDEST SWAP3 SWAP2 POP POP JUMP JUMPDEST PUSH0 DUP1 REVERT JUMPDEST PUSH0 PUSH20 0xFFFFFFFFFFFFFFFFFFFFFFFFFFFFFFFFFFFFFFFF DUP3 AND SWAP1 POP SWAP2 SWAP1 POP JUMP JUMPDEST PUSH0 PUSH2 0x1A20 DUP3 PUSH2 0x19F7 JUMP JUMPDEST SWAP1 POP SWAP2 SWAP1 POP JUMP JUMPDEST PUSH2 0x1A30 DUP2 PUSH2 0x1A16 JUMP JUMPDEST DUP2 EQ PUSH2 0x1A3A JUMPI PUSH0 DUP1 REVERT JUMPDEST POP JUMP JUMPDEST PUSH0 DUP2 CALLDATALOAD SWAP1 POP PUSH2 0x1A4B DUP2 PUSH2 0x1A27 JUMP JUMPDEST SWAP3 SWAP2 POP POP JUMP JUMPDEST PUSH0 PUSH1 0x20 DUP3 DUP5 SUB SLT ISZERO PUSH2 0x1A66 JUMPI PUSH2 0x1A65 PUSH2 0x19F3 JUMP JUMPDEST JUMPDEST PUSH0 PUSH2 0x1A73 DUP5 DUP3 DUP6 ADD PUSH2 0x1A3D JUMP JUMPDEST SWAP2 POP POP SWAP3 SWAP2 POP POP JUMP JUMPDEST PUSH0 DUP2 ISZERO ISZERO SWAP1 POP SWAP2 SWAP1 POP JUMP JUMPDEST PUSH2 0x1A90 DUP2 PUSH2 0x1A7C JUMP JUMPDEST DUP3 MSTORE POP POP JUMP JUMPDEST PUSH0 PUSH1 0x20 DUP3 ADD SWAP1 POP PUSH2 0x1AA9 PUSH0 DUP4 ADD DUP5 PUSH2 0x1A87 JUMP JUMPDEST SWAP3 SWAP2 POP POP JUMP JUMPDEST PUSH0 DUP2 SWAP1 POP SWAP2 SWAP1 POP JUMP JUMPDEST PUSH2 0x1AC1 DUP2 PUSH2 0x1AAF JUMP JUMPDEST DUP2 EQ PUSH2 0x1ACB JUMPI PUSH0 DUP1 REVERT JUMPDEST POP JUMP JUMPDEST PUSH0 DUP2 CALLDATALOAD SWAP1 POP PUSH2 0x1ADC DUP2 PUSH2 0x1AB8 JUMP JUMPDEST SWAP3 SWAP2 POP POP JUMP JUMPDEST PUSH0 PUSH1 0x20 DUP3 DUP5 SUB SLT ISZERO PUSH2 0x1AF7 JUMPI PUSH2 0x1AF6 PUSH2 0x19F3 JUMP JUMPDEST JUMPDEST PUSH0 PUSH2 0x1B04 DUP5 DUP3 DUP6 ADD PUSH2 0x1ACE JUMP JUMPDEST SWAP2 POP POP SWAP3 SWAP2 POP POP JUMP JUMPDEST PUSH2 0x1B16 DUP2 PUSH2 0x1AAF JUMP JUMPDEST DUP3 MSTORE POP POP JUMP JUMPDEST PUSH0 PUSH1 0x20 DUP3 ADD SWAP1 POP PUSH2 0x1B2F PUSH0 DUP4 ADD DUP5 PUSH2 0x1B0D JUMP JUMPDEST SWAP3 SWAP2 POP POP JUMP JUMPDEST PUSH0 PUSH1 0xFF DUP3 AND SWAP1 POP SWAP2 SWAP1 POP JUMP JUMPDEST PUSH2 0x1B4A DUP2 PUSH2 0x1B35 JUMP JUMPDEST DUP3 MSTORE POP POP JUMP JUMPDEST PUSH0 PUSH1 0x20 DUP3 ADD SWAP1 POP PUSH2 0x1B63 PUSH0 DUP4 ADD DUP5 PUSH2 0x1B41 JUMP JUMPDEST SWAP3 SWAP2 POP POP JUMP JUMPDEST PUSH0 PUSH8 0xFFFFFFFFFFFFFFFF DUP3 AND SWAP1 POP SWAP2 SWAP1 POP JUMP JUMPDEST PUSH2 0x1B85 DUP2 PUSH2 0x1B69 JUMP JUMPDEST DUP3 MSTORE POP POP JUMP JUMPDEST PUSH0 PUSH1 0x60 DUP3 ADD SWAP1 POP PUSH2 0x1B9E PUSH0 DUP4 ADD DUP7 PUSH2 0x1B0D JUMP JUMPDEST PUSH2 0x1BAB PUSH1 0x20 DUP4 ADD DUP6 PUSH2 0x1B7C JUMP JUMPDEST PUSH2 0x1BB8 PUSH1 0x40 DUP4 ADD DUP5 PUSH2 0x1A87 JUMP JUMPDEST SWAP5 SWAP4 POP POP POP POP JUMP JUMPDEST PUSH2 0x1BC9 DUP2 PUSH2 0x19C2 JUMP JUMPDEST DUP2 EQ PUSH2 0x1BD3 JUMPI PUSH0 DUP1 REVERT JUMPDEST POP JUMP JUMPDEST PUSH0 DUP2 CALLDATALOAD SWAP1 POP PUSH2 0x1BE4 DUP2 PUSH2 0x1BC0 JUMP JUMPDEST SWAP3 SWAP2 POP POP JUMP JUMPDEST PUSH0 PUSH1 0x20 DUP3 DUP5 SUB SLT ISZERO PUSH2 0x1BFF JUMPI PUSH2 0x1BFE PUSH2 0x19F3 JUMP JUMPDEST JUMPDEST PUSH0 PUSH2 0x1C0C DUP5 DUP3 DUP6 ADD PUSH2 0x1BD6 JUMP JUMPDEST SWAP2 POP POP SWAP3 SWAP2 POP POP JUMP JUMPDEST PUSH2 0x1C1E DUP2 PUSH2 0x1A16 JUMP JUMPDEST DUP3 MSTORE POP POP JUMP JUMPDEST PUSH0 PUSH1 0x20 DUP3 ADD SWAP1 POP PUSH2 0x1C37 PUSH0 DUP4 ADD DUP5 PUSH2 0x1C15 JUMP JUMPDEST SWAP3 SWAP2 POP POP JUMP JUMPDEST PUSH0 DUP3 DUP3 MSTORE PUSH1 0x20 DUP3 ADD SWAP1 POP SWAP3 SWAP2 POP POP JUMP JUMPDEST PUSH32 0x47616D6520616C726561647920686173203220706C61796572732E0000000000 PUSH0 DUP3 ADD MSTORE POP JUMP JUMPDEST PUSH0 PUSH2 0x1C81 PUSH1 0x1B DUP4 PUSH2 0x1C3D JUMP JUMPDEST SWAP2 POP PUSH2 0x1C8C DUP3 PUSH2 0x1C4D JUMP JUMPDEST PUSH1 0x20 DUP3 ADD SWAP1 POP SWAP2 SWAP1 POP JUMP JUMPDEST PUSH0 PUSH1 0x20 DUP3 ADD SWAP1 POP DUP2 DUP2 SUB PUSH0 DUP4 ADD MSTORE PUSH2 0x1CAE DUP2 PUSH2 0x1C75 JUMP JUMPDEST SWAP1 POP SWAP2 SWAP1 POP JUMP JUMPDEST PUSH32 0x596F7520617265206E6F7420616C6C6F77656420746F20706C61792E00000000 PUSH0 DUP3 ADD MSTORE POP JUMP JUMPDEST PUSH0 PUSH2 0x1CE9 PUSH1 0x1C DUP4 PUSH2 0x1C3D JUMP JUMPDEST SWAP2 POP PUSH2 0x1CF4 DUP3 PUSH2 0x1CB5 JUMP JUMPDEST PUSH1 0x20 DUP3 ADD SWAP1 POP SWAP2 SWAP1 POP JUMP JUMPDEST PUSH0 PUSH1 0x20 DUP3 ADD SWAP1 POP DUP2 DUP2 SUB PUSH0 DUP4 ADD MSTORE PUSH2 0x1D16 DUP2 PUSH2 0x1CDD JUMP JUMPDEST SWAP1 POP SWAP2 SWAP1 POP JUMP JUMPDEST PUSH32 0x4E487B7100000000000000000000000000000000000000000000000000000000 PUSH0 MSTORE PUSH1 0x32 PUSH1 0x4 MSTORE PUSH1 0x24 PUSH0 REVERT JUMPDEST PUSH32 0x506179203120657468657220746F20706C61792067616D652E00000000000000 PUSH0 DUP3 ADD MSTORE POP JUMP JUMPDEST PUSH0 PUSH2 0x1D7E PUSH1 0x19 DUP4 PUSH2 0x1C3D JUMP JUMPDEST SWAP2 POP PUSH2 0x1D89 DUP3 PUSH2 0x1D4A JUMP JUMPDEST PUSH1 0x20 DUP3 ADD SWAP1 POP SWAP2 SWAP1 POP JUMP JUMPDEST PUSH0 PUSH1 0x20 DUP3 ADD SWAP1 POP DUP2 DUP2 SUB PUSH0 DUP4 ADD MSTORE PUSH2 0x1DAB DUP2 PUSH2 0x1D72 JUMP JUMPDEST SWAP1 POP SWAP2 SWAP1 POP JUMP JUMPDEST PUSH32 0x4E487B7100000000000000000000000000000000000000000000000000000000 PUSH0 MSTORE PUSH1 0x11 PUSH1 0x4 MSTORE PUSH1 0x24 PUSH0 REVERT JUMPDEST PUSH0 PUSH2 0x1DE9 DUP3 PUSH2 0x19C2 JUMP JUMPDEST SWAP2 POP PUSH2 0x1DF4 DUP4 PUSH2 0x19C2 JUMP JUMPDEST SWAP3 POP DUP3 DUP3 ADD SWAP1 POP DUP1 DUP3 GT ISZERO PUSH2 0x1E0C JUMPI PUSH2 0x1E0B PUSH2 0x1DB2 JUMP JUMPDEST JUMPDEST SWAP3 SWAP2 POP POP JUMP JUMPDEST PUSH0 PUSH2 0x1E1C DUP3 PUSH2 0x19C2 JUMP JUMPDEST SWAP2 POP PUSH32 0xFFFFFFFFFFFFFFFFFFFFFFFFFFFFFFFFFFFFFFFFFFFFFFFFFFFFFFFFFFFFFFFF DUP3 SUB PUSH2 0x1E4E JUMPI PUSH2 0x1E4D PUSH2 0x1DB2 JUMP JUMPDEST JUMPDEST PUSH1 0x1 DUP3 ADD SWAP1 POP SWAP2 SWAP1 POP JUMP JUMPDEST PUSH0 PUSH1 0x40 DUP3 ADD SWAP1 POP PUSH2 0x1E6C PUSH0 DUP4 ADD DUP6 PUSH2 0x1C15 JUMP JUMPDEST PUSH2 0x1E79 PUSH1 0x20 DUP4 ADD DUP5 PUSH2 0x19CB JUMP JUMPDEST SWAP4 SWAP3 POP POP POP JUMP JUMPDEST PUSH0 DUP2 SWAP1 POP SWAP2 SWAP1 POP JUMP JUMPDEST PUSH2 0x1E9A PUSH2 0x1E95 DUP3 PUSH2 0x1AAF JUMP JUMPDEST PUSH2 0x1E80 JUMP JUMPDEST DUP3 MSTORE POP POP JUMP JUMPDEST PUSH0 PUSH2 0x1EAB DUP3 DUP5 PUSH2 0x1E89 JUMP JUMPDEST PUSH1 0x20 DUP3 ADD SWAP2 POP DUP2 SWAP1 POP SWAP3 SWAP2 POP POP JUMP JUMPDEST PUSH32 0x4E487B7100000000000000000000000000000000000000000000000000000000 PUSH0 MSTORE PUSH1 0x12 PUSH1 0x4 MSTORE PUSH1 0x24 PUSH0 REVERT JUMPDEST PUSH0 PUSH2 0x1EF1 DUP3 PUSH2 0x19C2 JUMP JUMPDEST SWAP2 POP PUSH2 0x1EFC DUP4 PUSH2 0x19C2 JUMP JUMPDEST SWAP3 POP DUP3 PUSH2 0x1F0C JUMPI PUSH2 0x1F0B PUSH2 0x1EBA JUMP JUMPDEST JUMPDEST DUP3 DUP3 DIV SWAP1 POP SWAP3 SWAP2 POP POP JUMP JUMPDEST PUSH32 0x596F75722063686F696365206E6565647320746F206265206265747765656E20 PUSH0 DUP3 ADD MSTORE PUSH32 0x3020746F20340000000000000000000000000000000000000000000000000000 PUSH1 0x20 DUP3 ADD MSTORE POP JUMP JUMPDEST PUSH0 PUSH2 0x1F71 PUSH1 0x26 DUP4 PUSH2 0x1C3D JUMP JUMPDEST SWAP2 POP PUSH2 0x1F7C DUP3 PUSH2 0x1F17 JUMP JUMPDEST PUSH1 0x40 DUP3 ADD SWAP1 POP SWAP2 SWAP1 POP JUMP JUMPDEST PUSH0 PUSH1 0x20 DUP3 ADD SWAP1 POP DUP2 DUP2 SUB PUSH0 DUP4 ADD MSTORE PUSH2 0x1F9E DUP2 PUSH2 0x1F65 JUMP JUMPDEST SWAP1 POP SWAP2 SWAP1 POP JUMP JUMPDEST PUSH32 0x596F75206E65656420746F20636F6D6D69742066697273742E00000000000000 PUSH0 DUP3 ADD MSTORE POP JUMP JUMPDEST PUSH0 PUSH2 0x1FD9 PUSH1 0x19 DUP4 PUSH2 0x1C3D JUMP JUMPDEST SWAP2 POP PUSH2 0x1FE4 DUP3 PUSH2 0x1FA5 JUMP JUMPDEST PUSH1 0x20 DUP3 ADD SWAP1 POP SWAP2 SWAP1 POP JUMP JUMPDEST PUSH0 PUSH1 0x20 DUP3 ADD SWAP1 POP DUP2 DUP2 SUB PUSH0 DUP4 ADD MSTORE PUSH2 0x2006 DUP2 PUSH2 0x1FCD JUMP JUMPDEST SWAP1 POP SWAP2 SWAP1 POP JUMP JUMPDEST PUSH32 0x436F6D6D697452657665616C3A3A72657665616C3A20416C7265616479207265 PUSH0 DUP3 ADD MSTORE PUSH32 0x7665616C65640000000000000000000000000000000000000000000000000000 PUSH1 0x20 DUP3 ADD MSTORE POP JUMP JUMPDEST PUSH0 PUSH2 0x2067 PUSH1 0x26 DUP4 PUSH2 0x1C3D JUMP JUMPDEST SWAP2 POP PUSH2 0x2072 DUP3 PUSH2 0x200D JUMP JUMPDEST PUSH1 0x40 DUP3 ADD SWAP1 POP SWAP2 SWAP1 POP JUMP JUMPDEST PUSH0 PUSH1 0x20 DUP3 ADD SWAP1 POP DUP2 DUP2 SUB PUSH0 DUP4 ADD MSTORE PUSH2 0x2094 DUP2 PUSH2 0x205B JUMP JUMPDEST SWAP1 POP SWAP2 SWAP1 POP JUMP JUMPDEST PUSH32 0x436F6D6D697452657665616C3A3A72657665616C3A2052657665616C65642068 PUSH0 DUP3 ADD MSTORE PUSH32 0x61736820646F6573206E6F74206D6174636820636F6D6D697400000000000000 PUSH1 0x20 DUP3 ADD MSTORE POP JUMP JUMPDEST PUSH0 PUSH2 0x20F5 PUSH1 0x39 DUP4 PUSH2 0x1C3D JUMP JUMPDEST SWAP2 POP PUSH2 0x2100 DUP3 PUSH2 0x209B JUMP JUMPDEST PUSH1 0x40 DUP3 ADD SWAP1 POP SWAP2 SWAP1 POP JUMP JUMPDEST PUSH0 PUSH1 0x20 DUP3 ADD SWAP1 POP DUP2 DUP2 SUB PUSH0 DUP4 ADD MSTORE PUSH2 0x2122 DUP2 PUSH2 0x20E9 JUMP JUMPDEST SWAP1 POP SWAP2 SWAP1 POP JUMP JUMPDEST PUSH32 0x436F6D6D697452657665616C3A3A72657665616C3A2052657665616C20616E64 PUSH0 DUP3 ADD MSTORE PUSH32 0x20636F6D6D69742068617070656E6564206F6E207468652073616D6520626C6F PUSH1 0x20 DUP3 ADD MSTORE PUSH32 0x636B000000000000000000000000000000000000000000000000000000000000 PUSH1 0x40 DUP3 ADD MSTORE POP JUMP JUMPDEST PUSH0 PUSH2 0x21A9 PUSH1 0x42 DUP4 PUSH2 0x1C3D JUMP JUMPDEST SWAP2 POP PUSH2 0x21B4 DUP3 PUSH2 0x2129 JUMP JUMPDEST PUSH1 0x60 DUP3 ADD SWAP1 POP SWAP2 SWAP1 POP JUMP JUMPDEST PUSH0 PUSH1 0x20 DUP3 ADD SWAP1 POP DUP2 DUP2 SUB PUSH0 DUP4 ADD MSTORE PUSH2 0x21D6 DUP2 PUSH2 0x219D JUMP JUMPDEST SWAP1 POP SWAP2 SWAP1 POP JUMP JUMPDEST PUSH0 PUSH2 0x21E7 DUP3 PUSH2 0x1B69 JUMP JUMPDEST SWAP2 POP PUSH2 0x21F2 DUP4 PUSH2 0x1B69 JUMP JUMPDEST SWAP3 POP DUP3 DUP3 ADD SWAP1 POP PUSH8 0xFFFFFFFFFFFFFFFF DUP2 GT ISZERO PUSH2 0x2212 JUMPI PUSH2 0x2211 PUSH2 0x1DB2 JUMP JUMPDEST JUMPDEST SWAP3 SWAP2 POP POP JUMP JUMPDEST PUSH32 0x436F6D6D697452657665616C3A3A72657665616C3A2052657665616C65642074 PUSH0 DUP3 ADD MSTORE PUSH32 0x6F6F206C61746500000000000000000000000000000000000000000000000000 PUSH1 0x20 DUP3 ADD MSTORE POP JUMP JUMPDEST PUSH0 PUSH2 0x2272 PUSH1 0x27 DUP4 PUSH2 0x1C3D JUMP JUMPDEST SWAP2 POP PUSH2 0x227D DUP3 PUSH2 0x2218 JUMP JUMPDEST PUSH1 0x40 DUP3 ADD SWAP1 POP SWAP2 SWAP1 POP JUMP JUMPDEST PUSH0 PUSH1 0x20 DUP3 ADD SWAP1 POP DUP2 DUP2 SUB PUSH0 DUP4 ADD MSTORE PUSH2 0x229F DUP2 PUSH2 0x2266 JUMP JUMPDEST SWAP1 POP SWAP2 SWAP1 POP JUMP JUMPDEST PUSH0 PUSH2 0x22B1 DUP3 DUP6 PUSH2 0x1E89 JUMP JUMPDEST PUSH1 0x20 DUP3 ADD SWAP2 POP PUSH2 0x22C1 DUP3 DUP5 PUSH2 0x1E89 JUMP JUMPDEST PUSH1 0x20 DUP3 ADD SWAP2 POP DUP2 SWAP1 POP SWAP4 SWAP3 POP POP POP JUMP JUMPDEST PUSH0 PUSH2 0x22DB DUP3 PUSH2 0x19C2 JUMP JUMPDEST SWAP2 POP PUSH2 0x22E6 DUP4 PUSH2 0x19C2 JUMP JUMPDEST SWAP3 POP DUP3 PUSH2 0x22F6 JUMPI PUSH2 0x22F5 PUSH2 0x1EBA JUMP JUMPDEST JUMPDEST DUP3 DUP3 MOD SWAP1 POP SWAP3 SWAP2 POP POP JUMP JUMPDEST PUSH0 PUSH1 0x60 DUP3 ADD SWAP1 POP PUSH2 0x2314 PUSH0 DUP4 ADD DUP7 PUSH2 0x1C15 JUMP JUMPDEST PUSH2 0x2321 PUSH1 0x20 DUP4 ADD DUP6 PUSH2 0x1B0D JUMP JUMPDEST PUSH2 0x232E PUSH1 0x40 DUP4 ADD DUP5 PUSH2 0x19CB JUMP JUMPDEST SWAP5 SWAP4 POP POP POP POP JUMP JUMPDEST PUSH32 0x47616D65206E65656473203220706C61796572732E0000000000000000000000 PUSH0 DUP3 ADD MSTORE POP JUMP JUMPDEST PUSH0 PUSH2 0x236A PUSH1 0x15 DUP4 PUSH2 0x1C3D JUMP JUMPDEST SWAP2 POP PUSH2 0x2375 DUP3 PUSH2 0x2336 JUMP JUMPDEST PUSH1 0x20 DUP3 ADD SWAP1 POP SWAP2 SWAP1 POP JUMP JUMPDEST PUSH0 PUSH1 0x20 DUP3 ADD SWAP1 POP DUP2 DUP2 SUB PUSH0 DUP4 ADD MSTORE PUSH2 0x2397 DUP2 PUSH2 0x235E JUMP JUMPDEST SWAP1 POP SWAP2 SWAP1 POP JUMP JUMPDEST PUSH32 0x596F7520616C726561647920636F6D6D697465642E0000000000000000000000 PUSH0 DUP3 ADD MSTORE POP JUMP JUMPDEST PUSH0 PUSH2 0x23D2 PUSH1 0x15 DUP4 PUSH2 0x1C3D JUMP JUMPDEST SWAP2 POP PUSH2 0x23DD DUP3 PUSH2 0x239E JUMP JUMPDEST PUSH1 0x20 DUP3 ADD SWAP1 POP SWAP2 SWAP1 POP JUMP JUMPDEST PUSH0 PUSH1 0x20 DUP3 ADD SWAP1 POP DUP2 DUP2 SUB PUSH0 DUP4 ADD MSTORE PUSH2 0x23FF DUP2 PUSH2 0x23C6 JUMP JUMPDEST SWAP1 POP SWAP2 SWAP1 POP JUMP JUMPDEST PUSH0 PUSH1 0x60 DUP3 ADD SWAP1 POP PUSH2 0x2419 PUSH0 DUP4 ADD DUP7 PUSH2 0x1C15 JUMP JUMPDEST PUSH2 0x2426 PUSH1 0x20 DUP4 ADD DUP6 PUSH2 0x1B0D JUMP JUMPDEST PUSH2 0x2433 PUSH1 0x40 DUP4 ADD DUP5 PUSH2 0x1B7C JUMP JUMPDEST SWAP5 SWAP4 POP POP POP POP JUMP INVALID LOG2 PUSH5 0x6970667358 0x22 SLT KECCAK256 PUSH0 0xCC 0xB3 0xF8 NUMBER PUSH19 0xC388A7CC1E1C934FEAE7144F9771D09DCB826E CODECOPY MULMOD EXP 0xB1 DUP1 SWAP10 0xB0 PUSH5 0x736F6C6343 STOP ADDMOD BYTE STOP CALLER "
				},
				"gasEstimates": {
					"creation": {
						"codeDepositCost": "1865800",
						"executionCost": "187880",
						"totalCost": "2053680"
					},
					"external": {
						"addPlayer()": "infinite",
						"commit(bytes32)": "infinite",
						"commits(address)": "7437",
						"getHash(bytes32)": "infinite",
						"input(bytes32)": "infinite",
						"isCommit(address)": "2900",
						"lastAction()": "2514",
						"max()": "2486",
						"numInput()": "2449",
						"numPlayer()": "2536",
						"numReveal()": "2469",
						"player_choice(address)": "2824",
						"player_not_played(address)": "2879",
						"players(uint256)": "5054",
						"reveal(bytes32)": "infinite",
						"revealChoice(bytes32)": "infinite",
						"reward()": "2493",
						"timeOutWithDraw()": "infinite",
						"timeoutDeration()": "2470"
					},
					"internal": {
						"_checkWinnerAndPay()": "infinite",
						"_reset()": "infinite"
					}
				},
				"methodIdentifiers": {
					"addPlayer()": "27b5db8a",
					"commit(bytes32)": "f14fcbc8",
					"commits(address)": "7b43a8e6",
					"getHash(bytes32)": "3cf5040a",
					"input(bytes32)": "d891f969",
					"isCommit(address)": "43cdd438",
					"lastAction()": "89f71d53",
					"max()": "6ac5db19",
					"numInput()": "086f7815",
					"numPlayer()": "90d5d0c3",
					"numReveal()": "c876e615",
					"player_choice(address)": "a040478d",
					"player_not_played(address)": "190cf745",
					"players(uint256)": "f71d96cb",
					"reveal(bytes32)": "701fd0f1",
					"revealChoice(bytes32)": "65ce0ac6",
					"reward()": "228cb733",
					"timeOutWithDraw()": "558d51c6",
					"timeoutDeration()": "3e2b58e0"
				}
			},
			"storageLayout": {
				"storage": [
					{
						"astId": 4,
						"contract": "RPS.sol:RPS",
						"label": "max",
						"offset": 0,
						"slot": "0",
						"type": "t_uint8"
					},
					{
						"astId": 16,
						"contract": "RPS.sol:RPS",
						"label": "commits",
						"offset": 0,
						"slot": "1",
						"type": "t_mapping(t_address,t_struct(Commit)11_storage)"
					},
					{
						"astId": 208,
						"contract": "RPS.sol:RPS",
						"label": "numPlayer",
						"offset": 0,
						"slot": "2",
						"type": "t_uint256"
					},
					{
						"astId": 211,
						"contract": "RPS.sol:RPS",
						"label": "reward",
						"offset": 0,
						"slot": "3",
						"type": "t_uint256"
					},
					{
						"astId": 215,
						"contract": "RPS.sol:RPS",
						"label": "player_choice",
						"offset": 0,
						"slot": "4",
						"type": "t_mapping(t_address,t_uint256)"
					},
					{
						"astId": 219,
						"contract": "RPS.sol:RPS",
						"label": "player_not_played",
						"offset": 0,
						"slot": "5",
						"type": "t_mapping(t_address,t_bool)"
					},
					{
						"astId": 222,
						"contract": "RPS.sol:RPS",
						"label": "players",
						"offset": 0,
						"slot": "6",
						"type": "t_array(t_address)dyn_storage"
					},
					{
						"astId": 226,
						"contract": "RPS.sol:RPS",
						"label": "isCommit",
						"offset": 0,
						"slot": "7",
						"type": "t_mapping(t_address,t_bool)"
					},
					{
						"astId": 229,
						"contract": "RPS.sol:RPS",
						"label": "numInput",
						"offset": 0,
						"slot": "8",
						"type": "t_uint256"
					},
					{
						"astId": 232,
						"contract": "RPS.sol:RPS",
						"label": "numReveal",
						"offset": 0,
						"slot": "9",
						"type": "t_uint256"
					},
					{
						"astId": 235,
						"contract": "RPS.sol:RPS",
						"label": "timeoutDeration",
						"offset": 0,
						"slot": "10",
						"type": "t_uint256"
					},
					{
						"astId": 239,
						"contract": "RPS.sol:RPS",
						"label": "lastAction",
						"offset": 0,
						"slot": "11",
						"type": "t_uint256"
					},
					{
						"astId": 243,
						"contract": "RPS.sol:RPS",
						"label": "whitelistedPlayers",
						"offset": 0,
						"slot": "12",
						"type": "t_mapping(t_address,t_bool)"
					}
				],
				"types": {
					"t_address": {
						"encoding": "inplace",
						"label": "address",
						"numberOfBytes": "20"
					},
					"t_array(t_address)dyn_storage": {
						"base": "t_address",
						"encoding": "dynamic_array",
						"label": "address[]",
						"numberOfBytes": "32"
					},
					"t_bool": {
						"encoding": "inplace",
						"label": "bool",
						"numberOfBytes": "1"
					},
					"t_bytes32": {
						"encoding": "inplace",
						"label": "bytes32",
						"numberOfBytes": "32"
					},
					"t_mapping(t_address,t_bool)": {
						"encoding": "mapping",
						"key": "t_address",
						"label": "mapping(address => bool)",
						"numberOfBytes": "32",
						"value": "t_bool"
					},
					"t_mapping(t_address,t_struct(Commit)11_storage)": {
						"encoding": "mapping",
						"key": "t_address",
						"label": "mapping(address => struct CommitReveal.Commit)",
						"numberOfBytes": "32",
						"value": "t_struct(Commit)11_storage"
					},
					"t_mapping(t_address,t_uint256)": {
						"encoding": "mapping",
						"key": "t_address",
						"label": "mapping(address => uint256)",
						"numberOfBytes": "32",
						"value": "t_uint256"
					},
					"t_struct(Commit)11_storage": {
						"encoding": "inplace",
						"label": "struct CommitReveal.Commit",
						"members": [
							{
								"astId": 6,
								"contract": "RPS.sol:RPS",
								"label": "commit",
								"offset": 0,
								"slot": "0",
								"type": "t_bytes32"
							},
							{
								"astId": 8,
								"contract": "RPS.sol:RPS",
								"label": "block",
								"offset": 0,
								"slot": "1",
								"type": "t_uint64"
							},
							{
								"astId": 10,
								"contract": "RPS.sol:RPS",
								"label": "revealed",
								"offset": 8,
								"slot": "1",
								"type": "t_bool"
							}
						],
						"numberOfBytes": "64"
					},
					"t_uint256": {
						"encoding": "inplace",
						"label": "uint256",
						"numberOfBytes": "32"
					},
					"t_uint64": {
						"encoding": "inplace",
						"label": "uint64",
						"numberOfBytes": "8"
					},
					"t_uint8": {
						"encoding": "inplace",
						"label": "uint8",
						"numberOfBytes": "1"
					}
				}
			},
			"userdoc": {
				"kind": "user",
				"methods": {},
				"version": 1
			}
		}
	}
}