{
	"CommitReveal.sol": {
		"CommitReveal": {
			"abi": [
				{
					"anonymous": false,
					"inputs": [
						{
							"indexed": false,
							"internalType": "address",
							"name": "sender",
							"type": "address"
						},
						{
							"indexed": false,
							"internalType": "bytes32",
							"name": "dataHash",
							"type": "bytes32"
						},
						{
							"indexed": false,
							"internalType": "uint64",
							"name": "block",
							"type": "uint64"
						}
					],
					"name": "CommitHash",
					"type": "event"
				},
				{
					"anonymous": false,
					"inputs": [
						{
							"indexed": false,
							"internalType": "address",
							"name": "sender",
							"type": "address"
						},
						{
							"indexed": false,
							"internalType": "bytes32",
							"name": "revealHash",
							"type": "bytes32"
						},
						{
							"indexed": false,
							"internalType": "uint256",
							"name": "random",
							"type": "uint256"
						}
					],
					"name": "RevealHash",
					"type": "event"
				},
				{
					"inputs": [],
					"name": "bchoice",
					"outputs": [
						{
							"internalType": "uint8",
							"name": "",
							"type": "uint8"
						}
					],
					"stateMutability": "view",
					"type": "function"
				},
				{
					"inputs": [],
					"name": "choice",
					"outputs": [
						{
							"internalType": "uint256",
							"name": "",
							"type": "uint256"
						}
					],
					"stateMutability": "view",
					"type": "function"
				},
				{
					"inputs": [
						{
							"internalType": "bytes32",
							"name": "dataHash",
							"type": "bytes32"
						}
					],
					"name": "commit",
					"outputs": [],
					"stateMutability": "nonpayable",
					"type": "function"
				},
				{
					"inputs": [
						{
							"internalType": "address",
							"name": "",
							"type": "address"
						}
					],
					"name": "commits",
					"outputs": [
						{
							"internalType": "bytes32",
							"name": "commit",
							"type": "bytes32"
						},
						{
							"internalType": "uint64",
							"name": "block",
							"type": "uint64"
						},
						{
							"internalType": "bool",
							"name": "revealed",
							"type": "bool"
						}
					],
					"stateMutability": "view",
					"type": "function"
				},
				{
					"inputs": [
						{
							"internalType": "bytes32",
							"name": "data",
							"type": "bytes32"
						}
					],
					"name": "getHash",
					"outputs": [
						{
							"internalType": "bytes32",
							"name": "",
							"type": "bytes32"
						}
					],
					"stateMutability": "pure",
					"type": "function"
				},
				{
					"inputs": [],
					"name": "max",
					"outputs": [
						{
							"internalType": "uint8",
							"name": "",
							"type": "uint8"
						}
					],
					"stateMutability": "view",
					"type": "function"
				},
				{
					"inputs": [
						{
							"internalType": "bytes32",
							"name": "revealHash",
							"type": "bytes32"
						}
					],
					"name": "reveal",
					"outputs": [],
					"stateMutability": "nonpayable",
					"type": "function"
				}
			],
			"devdoc": {
				"kind": "dev",
				"methods": {},
				"version": 1
			},
			"evm": {
				"assembly": "    /* \"CommitReveal.sol\":74:2135  contract CommitReveal {... */\n  mstore(0x40, 0x80)\n    /* \"CommitReveal.sol\":122:125  100 */\n  0x64\n    /* \"CommitReveal.sol\":103:125  uint8 public max = 100 */\n  0x00\n  dup1\n  0x0100\n  exp\n  dup2\n  sload\n  dup2\n  0xff\n  mul\n  not\n  and\n  swap1\n  dup4\n  0xff\n  and\n  mul\n  or\n  swap1\n  sstore\n  pop\n    /* \"CommitReveal.sol\":74:2135  contract CommitReveal {... */\n  callvalue\n  dup1\n  iszero\n  tag_1\n  jumpi\n  0x00\n  dup1\n  revert\ntag_1:\n  pop\n  dataSize(sub_0)\n  dup1\n  dataOffset(sub_0)\n  0x00\n  codecopy\n  0x00\n  return\nstop\n\nsub_0: assembly {\n        /* \"CommitReveal.sol\":74:2135  contract CommitReveal {... */\n      mstore(0x40, 0x80)\n      callvalue\n      dup1\n      iszero\n      tag_1\n      jumpi\n      0x00\n      dup1\n      revert\n    tag_1:\n      pop\n      jumpi(tag_2, lt(calldatasize, 0x04))\n      shr(0xe0, calldataload(0x00))\n      dup1\n      0x7b43a8e6\n      gt\n      tag_10\n      jumpi\n      dup1\n      0x7b43a8e6\n      eq\n      tag_6\n      jumpi\n      dup1\n      0x98f42fe3\n      eq\n      tag_7\n      jumpi\n      dup1\n      0xb1e27f49\n      eq\n      tag_8\n      jumpi\n      dup1\n      0xf14fcbc8\n      eq\n      tag_9\n      jumpi\n      jump(tag_2)\n    tag_10:\n      dup1\n      0x3cf5040a\n      eq\n      tag_3\n      jumpi\n      dup1\n      0x6ac5db19\n      eq\n      tag_4\n      jumpi\n      dup1\n      0x701fd0f1\n      eq\n      tag_5\n      jumpi\n    tag_2:\n      0x00\n      dup1\n      revert\n        /* \"CommitReveal.sol\":2020:2132  function getHash(bytes32 data) public pure returns(bytes32){... */\n    tag_3:\n      tag_11\n      0x04\n      dup1\n      calldatasize\n      sub\n      dup2\n      add\n      swap1\n      tag_12\n      swap2\n      swap1\n      tag_13\n      jump\t// in\n    tag_12:\n      tag_14\n      jump\t// in\n    tag_11:\n      mload(0x40)\n      tag_15\n      swap2\n      swap1\n      tag_16\n      jump\t// in\n    tag_15:\n      mload(0x40)\n      dup1\n      swap2\n      sub\n      swap1\n      return\n        /* \"CommitReveal.sol\":103:125  uint8 public max = 100 */\n    tag_4:\n      tag_17\n      tag_18\n      jump\t// in\n    tag_17:\n      mload(0x40)\n      tag_19\n      swap2\n      swap1\n      tag_20\n      jump\t// in\n    tag_19:\n      mload(0x40)\n      dup1\n      swap2\n      sub\n      swap1\n      return\n        /* \"CommitReveal.sol\":668:1944  function reveal(bytes32 revealHash) public {... */\n    tag_5:\n      tag_21\n      0x04\n      dup1\n      calldatasize\n      sub\n      dup2\n      add\n      swap1\n      tag_22\n      swap2\n      swap1\n      tag_13\n      jump\t// in\n    tag_22:\n      tag_23\n      jump\t// in\n    tag_21:\n      stop\n        /* \"CommitReveal.sol\":268:310  mapping (address => Commit) public commits */\n    tag_6:\n      tag_24\n      0x04\n      dup1\n      calldatasize\n      sub\n      dup2\n      add\n      swap1\n      tag_25\n      swap2\n      swap1\n      tag_26\n      jump\t// in\n    tag_25:\n      tag_27\n      jump\t// in\n    tag_24:\n      mload(0x40)\n      tag_28\n      swap4\n      swap3\n      swap2\n      swap1\n      tag_29\n      jump\t// in\n    tag_28:\n      mload(0x40)\n      dup1\n      swap2\n      sub\n      swap1\n      return\n        /* \"CommitReveal.sol\":218:236  uint public choice */\n    tag_7:\n      tag_30\n      tag_31\n      jump\t// in\n    tag_30:\n      mload(0x40)\n      tag_32\n      swap2\n      swap1\n      tag_33\n      jump\t// in\n    tag_32:\n      mload(0x40)\n      dup1\n      swap2\n      sub\n      swap1\n      return\n        /* \"CommitReveal.sol\":241:261  uint8 public bchoice */\n    tag_8:\n      tag_34\n      tag_35\n      jump\t// in\n    tag_34:\n      mload(0x40)\n      tag_36\n      swap2\n      swap1\n      tag_20\n      jump\t// in\n    tag_36:\n      mload(0x40)\n      dup1\n      swap2\n      sub\n      swap1\n      return\n        /* \"CommitReveal.sol\":317:593  function commit(bytes32 dataHash) public {... */\n    tag_9:\n      tag_37\n      0x04\n      dup1\n      calldatasize\n      sub\n      dup2\n      add\n      swap1\n      tag_38\n      swap2\n      swap1\n      tag_13\n      jump\t// in\n    tag_38:\n      tag_39\n      jump\t// in\n    tag_37:\n      stop\n        /* \"CommitReveal.sol\":2020:2132  function getHash(bytes32 data) public pure returns(bytes32){... */\n    tag_14:\n        /* \"CommitReveal.sol\":2071:2078  bytes32 */\n      0x00\n        /* \"CommitReveal.sol\":2120:2124  data */\n      dup2\n        /* \"CommitReveal.sol\":2103:2125  abi.encodePacked(data) */\n      add(0x20, mload(0x40))\n      tag_41\n      swap2\n      swap1\n      tag_42\n      jump\t// in\n    tag_41:\n      mload(0x40)\n      0x20\n      dup2\n      dup4\n      sub\n      sub\n      dup2\n      mstore\n      swap1\n      0x40\n      mstore\n        /* \"CommitReveal.sol\":2093:2126  keccak256(abi.encodePacked(data)) */\n      dup1\n      mload\n      swap1\n      0x20\n      add\n      keccak256\n        /* \"CommitReveal.sol\":2086:2126  return keccak256(abi.encodePacked(data)) */\n      swap1\n      pop\n        /* \"CommitReveal.sol\":2020:2132  function getHash(bytes32 data) public pure returns(bytes32){... */\n      swap2\n      swap1\n      pop\n      jump\t// out\n        /* \"CommitReveal.sol\":103:125  uint8 public max = 100 */\n    tag_18:\n      0x00\n      dup1\n      sload\n      swap1\n      0x0100\n      exp\n      swap1\n      div\n      0xff\n      and\n      dup2\n      jump\t// out\n        /* \"CommitReveal.sol\":668:1944  function reveal(bytes32 revealHash) public {... */\n    tag_23:\n        /* \"CommitReveal.sol\":735:745  revealHash */\n      dup1\n        /* \"CommitReveal.sol\":746:748  31 */\n      0x1f\n        /* \"CommitReveal.sol\":735:749  revealHash[31] */\n      0x20\n      dup2\n      lt\n      tag_44\n      jumpi\n      tag_45\n      tag_46\n      jump\t// in\n    tag_45:\n    tag_44:\n      byte\n      0xf8\n      shl\n        /* \"CommitReveal.sol\":729:750  uint8(revealHash[31]) */\n      0xf8\n      shr\n        /* \"CommitReveal.sol\":719:726  bchoice */\n      0x02\n      0x00\n        /* \"CommitReveal.sol\":719:750  bchoice = uint8(revealHash[31]) */\n      0x0100\n      exp\n      dup2\n      sload\n      dup2\n      0xff\n      mul\n      not\n      and\n      swap1\n      dup4\n      0xff\n      and\n      mul\n      or\n      swap1\n      sstore\n      pop\n        /* \"CommitReveal.sol\":796:803  bchoice */\n      0x02\n      0x00\n      swap1\n      sload\n      swap1\n      0x0100\n      exp\n      swap1\n      div\n      0xff\n      and\n        /* \"CommitReveal.sol\":791:804  uint(bchoice) */\n      0xff\n      and\n        /* \"CommitReveal.sol\":782:788  choice */\n      0x01\n        /* \"CommitReveal.sol\":782:804  choice = uint(bchoice) */\n      dup2\n      swap1\n      sstore\n      pop\n        /* \"CommitReveal.sol\":936:941  false */\n      0x00\n        /* \"CommitReveal.sol\":906:941  commits[msg.sender].revealed==false */\n      iszero\n      iszero\n        /* \"CommitReveal.sol\":906:913  commits */\n      0x03\n        /* \"CommitReveal.sol\":906:925  commits[msg.sender] */\n      0x00\n        /* \"CommitReveal.sol\":914:924  msg.sender */\n      caller\n        /* \"CommitReveal.sol\":906:925  commits[msg.sender] */\n      0xffffffffffffffffffffffffffffffffffffffff\n      and\n      0xffffffffffffffffffffffffffffffffffffffff\n      and\n      dup2\n      mstore\n      0x20\n      add\n      swap1\n      dup2\n      mstore\n      0x20\n      add\n      0x00\n      keccak256\n        /* \"CommitReveal.sol\":906:934  commits[msg.sender].revealed */\n      0x01\n      add\n      0x08\n      swap1\n      sload\n      swap1\n      0x0100\n      exp\n      swap1\n      div\n      0xff\n      and\n        /* \"CommitReveal.sol\":906:941  commits[msg.sender].revealed==false */\n      iszero\n      iszero\n      eq\n        /* \"CommitReveal.sol\":898:983  require(commits[msg.sender].revealed==false,\"CommitReveal::reveal: Already revealed\") */\n      tag_47\n      jumpi\n      mload(0x40)\n      0x08c379a000000000000000000000000000000000000000000000000000000000\n      dup2\n      mstore\n      0x04\n      add\n      tag_48\n      swap1\n      tag_49\n      jump\t// in\n    tag_48:\n      mload(0x40)\n      dup1\n      swap2\n      sub\n      swap1\n      revert\n    tag_47:\n        /* \"CommitReveal.sol\":1019:1023  true */\n      0x01\n        /* \"CommitReveal.sol\":990:997  commits */\n      0x03\n        /* \"CommitReveal.sol\":990:1009  commits[msg.sender] */\n      0x00\n        /* \"CommitReveal.sol\":998:1008  msg.sender */\n      caller\n        /* \"CommitReveal.sol\":990:1009  commits[msg.sender] */\n      0xffffffffffffffffffffffffffffffffffffffff\n      and\n      0xffffffffffffffffffffffffffffffffffffffff\n      and\n      dup2\n      mstore\n      0x20\n      add\n      swap1\n      dup2\n      mstore\n      0x20\n      add\n      0x00\n      keccak256\n        /* \"CommitReveal.sol\":990:1018  commits[msg.sender].revealed */\n      0x01\n      add\n      0x08\n        /* \"CommitReveal.sol\":990:1023  commits[msg.sender].revealed=true */\n      0x0100\n      exp\n      dup2\n      sload\n      dup2\n      0xff\n      mul\n      not\n      and\n      swap1\n      dup4\n      iszero\n      iszero\n      mul\n      or\n      swap1\n      sstore\n      pop\n        /* \"CommitReveal.sol\":1115:1122  commits */\n      0x03\n        /* \"CommitReveal.sol\":1115:1134  commits[msg.sender] */\n      0x00\n        /* \"CommitReveal.sol\":1123:1133  msg.sender */\n      caller\n        /* \"CommitReveal.sol\":1115:1134  commits[msg.sender] */\n      0xffffffffffffffffffffffffffffffffffffffff\n      and\n      0xffffffffffffffffffffffffffffffffffffffff\n      and\n      dup2\n      mstore\n      0x20\n      add\n      swap1\n      dup2\n      mstore\n      0x20\n      add\n      0x00\n      keccak256\n        /* \"CommitReveal.sol\":1115:1141  commits[msg.sender].commit */\n      0x00\n      add\n      sload\n        /* \"CommitReveal.sol\":1094:1113  getHash(revealHash) */\n      tag_50\n        /* \"CommitReveal.sol\":1102:1112  revealHash */\n      dup3\n        /* \"CommitReveal.sol\":1094:1101  getHash */\n      tag_14\n        /* \"CommitReveal.sol\":1094:1113  getHash(revealHash) */\n      jump\t// in\n    tag_50:\n        /* \"CommitReveal.sol\":1094:1141  getHash(revealHash)==commits[msg.sender].commit */\n      eq\n        /* \"CommitReveal.sol\":1086:1202  require(getHash(revealHash)==commits[msg.sender].commit,\"CommitReveal::reveal: Revealed hash does not match commit\") */\n      tag_51\n      jumpi\n      mload(0x40)\n      0x08c379a000000000000000000000000000000000000000000000000000000000\n      dup2\n      mstore\n      0x04\n      add\n      tag_52\n      swap1\n      tag_53\n      jump\t// in\n    tag_52:\n      mload(0x40)\n      dup1\n      swap2\n      sub\n      swap1\n      revert\n    tag_51:\n        /* \"CommitReveal.sol\":1310:1317  commits */\n      0x03\n        /* \"CommitReveal.sol\":1310:1329  commits[msg.sender] */\n      0x00\n        /* \"CommitReveal.sol\":1318:1328  msg.sender */\n      caller\n        /* \"CommitReveal.sol\":1310:1329  commits[msg.sender] */\n      0xffffffffffffffffffffffffffffffffffffffff\n      and\n      0xffffffffffffffffffffffffffffffffffffffff\n      and\n      dup2\n      mstore\n      0x20\n      add\n      swap1\n      dup2\n      mstore\n      0x20\n      add\n      0x00\n      keccak256\n        /* \"CommitReveal.sol\":1310:1335  commits[msg.sender].block */\n      0x01\n      add\n      0x00\n      swap1\n      sload\n      swap1\n      0x0100\n      exp\n      swap1\n      div\n      0xffffffffffffffff\n      and\n        /* \"CommitReveal.sol\":1289:1335  uint64(block.number)>commits[msg.sender].block */\n      0xffffffffffffffff\n      and\n        /* \"CommitReveal.sol\":1296:1308  block.number */\n      number\n        /* \"CommitReveal.sol\":1289:1335  uint64(block.number)>commits[msg.sender].block */\n      0xffffffffffffffff\n      and\n      gt\n        /* \"CommitReveal.sol\":1281:1405  require(uint64(block.number)>commits[msg.sender].block,\"CommitReveal::reveal: Reveal and commit happened on the same block\") */\n      tag_54\n      jumpi\n      mload(0x40)\n      0x08c379a000000000000000000000000000000000000000000000000000000000\n      dup2\n      mstore\n      0x04\n      add\n      tag_55\n      swap1\n      tag_56\n      jump\t// in\n    tag_55:\n      mload(0x40)\n      dup1\n      swap2\n      sub\n      swap1\n      revert\n    tag_54:\n        /* \"CommitReveal.sol\":1524:1527  250 */\n      0xfa\n        /* \"CommitReveal.sol\":1498:1505  commits */\n      0x03\n        /* \"CommitReveal.sol\":1498:1517  commits[msg.sender] */\n      0x00\n        /* \"CommitReveal.sol\":1506:1516  msg.sender */\n      caller\n        /* \"CommitReveal.sol\":1498:1517  commits[msg.sender] */\n      0xffffffffffffffffffffffffffffffffffffffff\n      and\n      0xffffffffffffffffffffffffffffffffffffffff\n      and\n      dup2\n      mstore\n      0x20\n      add\n      swap1\n      dup2\n      mstore\n      0x20\n      add\n      0x00\n      keccak256\n        /* \"CommitReveal.sol\":1498:1523  commits[msg.sender].block */\n      0x01\n      add\n      0x00\n      swap1\n      sload\n      swap1\n      0x0100\n      exp\n      swap1\n      div\n      0xffffffffffffffff\n      and\n        /* \"CommitReveal.sol\":1498:1527  commits[msg.sender].block+250 */\n      tag_57\n      swap2\n      swap1\n      tag_58\n      jump\t// in\n    tag_57:\n        /* \"CommitReveal.sol\":1476:1527  uint64(block.number)<=commits[msg.sender].block+250 */\n      0xffffffffffffffff\n      and\n        /* \"CommitReveal.sol\":1483:1495  block.number */\n      number\n        /* \"CommitReveal.sol\":1476:1527  uint64(block.number)<=commits[msg.sender].block+250 */\n      0xffffffffffffffff\n      and\n      gt\n      iszero\n        /* \"CommitReveal.sol\":1468:1570  require(uint64(block.number)<=commits[msg.sender].block+250,\"CommitReveal::reveal: Revealed too late\") */\n      tag_59\n      jumpi\n      mload(0x40)\n      0x08c379a000000000000000000000000000000000000000000000000000000000\n      dup2\n      mstore\n      0x04\n      add\n      tag_60\n      swap1\n      tag_61\n      jump\t// in\n    tag_60:\n      mload(0x40)\n      dup1\n      swap2\n      sub\n      swap1\n      revert\n    tag_59:\n        /* \"CommitReveal.sol\":1645:1662  bytes32 blockHash */\n      0x00\n        /* \"CommitReveal.sol\":1675:1682  commits */\n      0x03\n        /* \"CommitReveal.sol\":1675:1694  commits[msg.sender] */\n      0x00\n        /* \"CommitReveal.sol\":1683:1693  msg.sender */\n      caller\n        /* \"CommitReveal.sol\":1675:1694  commits[msg.sender] */\n      0xffffffffffffffffffffffffffffffffffffffff\n      and\n      0xffffffffffffffffffffffffffffffffffffffff\n      and\n      dup2\n      mstore\n      0x20\n      add\n      swap1\n      dup2\n      mstore\n      0x20\n      add\n      0x00\n      keccak256\n        /* \"CommitReveal.sol\":1675:1700  commits[msg.sender].block */\n      0x01\n      add\n      0x00\n      swap1\n      sload\n      swap1\n      0x0100\n      exp\n      swap1\n      div\n      0xffffffffffffffff\n      and\n        /* \"CommitReveal.sol\":1665:1701  blockhash(commits[msg.sender].block) */\n      0xffffffffffffffff\n      and\n      blockhash\n        /* \"CommitReveal.sol\":1645:1701  bytes32 blockHash = blockhash(commits[msg.sender].block) */\n      swap1\n      pop\n        /* \"CommitReveal.sol\":1813:1824  uint random */\n      0x00\n        /* \"CommitReveal.sol\":1883:1886  max */\n      dup1\n      0x00\n      swap1\n      sload\n      swap1\n      0x0100\n      exp\n      swap1\n      div\n      0xff\n      and\n        /* \"CommitReveal.sol\":1827:1886  uint(keccak256(abi.encodePacked(blockHash,revealHash)))%max */\n      0xff\n      and\n        /* \"CommitReveal.sol\":1859:1868  blockHash */\n      dup3\n        /* \"CommitReveal.sol\":1869:1879  revealHash */\n      dup5\n        /* \"CommitReveal.sol\":1842:1880  abi.encodePacked(blockHash,revealHash) */\n      add(0x20, mload(0x40))\n      tag_62\n      swap3\n      swap2\n      swap1\n      tag_63\n      jump\t// in\n    tag_62:\n      mload(0x40)\n      0x20\n      dup2\n      dup4\n      sub\n      sub\n      dup2\n      mstore\n      swap1\n      0x40\n      mstore\n        /* \"CommitReveal.sol\":1832:1881  keccak256(abi.encodePacked(blockHash,revealHash)) */\n      dup1\n      mload\n      swap1\n      0x20\n      add\n      keccak256\n        /* \"CommitReveal.sol\":1827:1882  uint(keccak256(abi.encodePacked(blockHash,revealHash))) */\n      0x00\n      shr\n        /* \"CommitReveal.sol\":1827:1886  uint(keccak256(abi.encodePacked(blockHash,revealHash)))%max */\n      tag_64\n      swap2\n      swap1\n      tag_65\n      jump\t// in\n    tag_64:\n        /* \"CommitReveal.sol\":1813:1886  uint random = uint(keccak256(abi.encodePacked(blockHash,revealHash)))%max */\n      swap1\n      pop\n        /* \"CommitReveal.sol\":1898:1938  RevealHash(msg.sender,revealHash,random) */\n      0xbc016dd1cadeaefcb851af7a0a93532e0023d536894b730801f7bcfe7065bcc2\n        /* \"CommitReveal.sol\":1909:1919  msg.sender */\n      caller\n        /* \"CommitReveal.sol\":1920:1930  revealHash */\n      dup5\n        /* \"CommitReveal.sol\":1931:1937  random */\n      dup4\n        /* \"CommitReveal.sol\":1898:1938  RevealHash(msg.sender,revealHash,random) */\n      mload(0x40)\n      tag_66\n      swap4\n      swap3\n      swap2\n      swap1\n      tag_67\n      jump\t// in\n    tag_66:\n      mload(0x40)\n      dup1\n      swap2\n      sub\n      swap1\n      log1\n        /* \"CommitReveal.sol\":711:1944  {... */\n      pop\n      pop\n        /* \"CommitReveal.sol\":668:1944  function reveal(bytes32 revealHash) public {... */\n      pop\n      jump\t// out\n        /* \"CommitReveal.sol\":268:310  mapping (address => Commit) public commits */\n    tag_27:\n      mstore(0x20, 0x03)\n      dup1\n      0x00\n      mstore\n      keccak256(0x00, 0x40)\n      0x00\n      swap2\n      pop\n      swap1\n      pop\n      dup1\n      0x00\n      add\n      sload\n      swap1\n      dup1\n      0x01\n      add\n      0x00\n      swap1\n      sload\n      swap1\n      0x0100\n      exp\n      swap1\n      div\n      0xffffffffffffffff\n      and\n      swap1\n      dup1\n      0x01\n      add\n      0x08\n      swap1\n      sload\n      swap1\n      0x0100\n      exp\n      swap1\n      div\n      0xff\n      and\n      swap1\n      pop\n      dup4\n      jump\t// out\n        /* \"CommitReveal.sol\":218:236  uint public choice */\n    tag_31:\n      sload(0x01)\n      dup2\n      jump\t// out\n        /* \"CommitReveal.sol\":241:261  uint8 public bchoice */\n    tag_35:\n      0x02\n      0x00\n      swap1\n      sload\n      swap1\n      0x0100\n      exp\n      swap1\n      div\n      0xff\n      and\n      dup2\n      jump\t// out\n        /* \"CommitReveal.sol\":317:593  function commit(bytes32 dataHash) public {... */\n    tag_39:\n        /* \"CommitReveal.sol\":394:402  dataHash */\n      dup1\n        /* \"CommitReveal.sol\":365:372  commits */\n      0x03\n        /* \"CommitReveal.sol\":365:384  commits[msg.sender] */\n      0x00\n        /* \"CommitReveal.sol\":373:383  msg.sender */\n      caller\n        /* \"CommitReveal.sol\":365:384  commits[msg.sender] */\n      0xffffffffffffffffffffffffffffffffffffffff\n      and\n      0xffffffffffffffffffffffffffffffffffffffff\n      and\n      dup2\n      mstore\n      0x20\n      add\n      swap1\n      dup2\n      mstore\n      0x20\n      add\n      0x00\n      keccak256\n        /* \"CommitReveal.sol\":365:391  commits[msg.sender].commit */\n      0x00\n      add\n        /* \"CommitReveal.sol\":365:402  commits[msg.sender].commit = dataHash */\n      dup2\n      swap1\n      sstore\n      pop\n        /* \"CommitReveal.sol\":444:456  block.number */\n      number\n        /* \"CommitReveal.sol\":409:416  commits */\n      0x03\n        /* \"CommitReveal.sol\":409:428  commits[msg.sender] */\n      0x00\n        /* \"CommitReveal.sol\":417:427  msg.sender */\n      caller\n        /* \"CommitReveal.sol\":409:428  commits[msg.sender] */\n      0xffffffffffffffffffffffffffffffffffffffff\n      and\n      0xffffffffffffffffffffffffffffffffffffffff\n      and\n      dup2\n      mstore\n      0x20\n      add\n      swap1\n      dup2\n      mstore\n      0x20\n      add\n      0x00\n      keccak256\n        /* \"CommitReveal.sol\":409:434  commits[msg.sender].block */\n      0x01\n      add\n      0x00\n        /* \"CommitReveal.sol\":409:457  commits[msg.sender].block = uint64(block.number) */\n      0x0100\n      exp\n      dup2\n      sload\n      dup2\n      0xffffffffffffffff\n      mul\n      not\n      and\n      swap1\n      dup4\n      0xffffffffffffffff\n      and\n      mul\n      or\n      swap1\n      sstore\n      pop\n        /* \"CommitReveal.sol\":495:500  false */\n      0x00\n        /* \"CommitReveal.sol\":464:471  commits */\n      0x03\n        /* \"CommitReveal.sol\":464:483  commits[msg.sender] */\n      0x00\n        /* \"CommitReveal.sol\":472:482  msg.sender */\n      caller\n        /* \"CommitReveal.sol\":464:483  commits[msg.sender] */\n      0xffffffffffffffffffffffffffffffffffffffff\n      and\n      0xffffffffffffffffffffffffffffffffffffffff\n      and\n      dup2\n      mstore\n      0x20\n      add\n      swap1\n      dup2\n      mstore\n      0x20\n      add\n      0x00\n      keccak256\n        /* \"CommitReveal.sol\":464:492  commits[msg.sender].revealed */\n      0x01\n      add\n      0x08\n        /* \"CommitReveal.sol\":464:500  commits[msg.sender].revealed = false */\n      0x0100\n      exp\n      dup2\n      sload\n      dup2\n      0xff\n      mul\n      not\n      and\n      swap1\n      dup4\n      iszero\n      iszero\n      mul\n      or\n      swap1\n      sstore\n      pop\n        /* \"CommitReveal.sol\":512:587  CommitHash(msg.sender,commits[msg.sender].commit,commits[msg.sender].block) */\n      0x3c1a1f8f38335b17f751c6da4ba7d1865f26b3997535176f5080de9fad891603\n        /* \"CommitReveal.sol\":523:533  msg.sender */\n      caller\n        /* \"CommitReveal.sol\":534:541  commits */\n      0x03\n        /* \"CommitReveal.sol\":534:553  commits[msg.sender] */\n      0x00\n        /* \"CommitReveal.sol\":542:552  msg.sender */\n      caller\n        /* \"CommitReveal.sol\":534:553  commits[msg.sender] */\n      0xffffffffffffffffffffffffffffffffffffffff\n      and\n      0xffffffffffffffffffffffffffffffffffffffff\n      and\n      dup2\n      mstore\n      0x20\n      add\n      swap1\n      dup2\n      mstore\n      0x20\n      add\n      0x00\n      keccak256\n        /* \"CommitReveal.sol\":534:560  commits[msg.sender].commit */\n      0x00\n      add\n      sload\n        /* \"CommitReveal.sol\":561:568  commits */\n      0x03\n        /* \"CommitReveal.sol\":561:580  commits[msg.sender] */\n      0x00\n        /* \"CommitReveal.sol\":569:579  msg.sender */\n      caller\n        /* \"CommitReveal.sol\":561:580  commits[msg.sender] */\n      0xffffffffffffffffffffffffffffffffffffffff\n      and\n      0xffffffffffffffffffffffffffffffffffffffff\n      and\n      dup2\n      mstore\n      0x20\n      add\n      swap1\n      dup2\n      mstore\n      0x20\n      add\n      0x00\n      keccak256\n        /* \"CommitReveal.sol\":561:586  commits[msg.sender].block */\n      0x01\n      add\n      0x00\n      swap1\n      sload\n      swap1\n      0x0100\n      exp\n      swap1\n      div\n      0xffffffffffffffff\n      and\n        /* \"CommitReveal.sol\":512:587  CommitHash(msg.sender,commits[msg.sender].commit,commits[msg.sender].block) */\n      mload(0x40)\n      tag_69\n      swap4\n      swap3\n      swap2\n      swap1\n      tag_70\n      jump\t// in\n    tag_69:\n      mload(0x40)\n      dup1\n      swap2\n      sub\n      swap1\n      log1\n        /* \"CommitReveal.sol\":317:593  function commit(bytes32 dataHash) public {... */\n      pop\n      jump\t// out\n        /* \"#utility.yul\":88:205   */\n    tag_72:\n        /* \"#utility.yul\":197:198   */\n      0x00\n        /* \"#utility.yul\":194:195   */\n      dup1\n        /* \"#utility.yul\":187:199   */\n      revert\n        /* \"#utility.yul\":334:411   */\n    tag_74:\n        /* \"#utility.yul\":371:378   */\n      0x00\n        /* \"#utility.yul\":400:405   */\n      dup2\n        /* \"#utility.yul\":389:405   */\n      swap1\n      pop\n        /* \"#utility.yul\":334:411   */\n      swap2\n      swap1\n      pop\n      jump\t// out\n        /* \"#utility.yul\":417:539   */\n    tag_75:\n        /* \"#utility.yul\":490:514   */\n      tag_110\n        /* \"#utility.yul\":508:513   */\n      dup2\n        /* \"#utility.yul\":490:514   */\n      tag_74\n      jump\t// in\n    tag_110:\n        /* \"#utility.yul\":483:488   */\n      dup2\n        /* \"#utility.yul\":480:515   */\n      eq\n        /* \"#utility.yul\":470:533   */\n      tag_111\n      jumpi\n        /* \"#utility.yul\":529:530   */\n      0x00\n        /* \"#utility.yul\":526:527   */\n      dup1\n        /* \"#utility.yul\":519:531   */\n      revert\n        /* \"#utility.yul\":470:533   */\n    tag_111:\n        /* \"#utility.yul\":417:539   */\n      pop\n      jump\t// out\n        /* \"#utility.yul\":545:684   */\n    tag_76:\n        /* \"#utility.yul\":591:596   */\n      0x00\n        /* \"#utility.yul\":629:635   */\n      dup2\n        /* \"#utility.yul\":616:636   */\n      calldataload\n        /* \"#utility.yul\":607:636   */\n      swap1\n      pop\n        /* \"#utility.yul\":645:678   */\n      tag_113\n        /* \"#utility.yul\":672:677   */\n      dup2\n        /* \"#utility.yul\":645:678   */\n      tag_75\n      jump\t// in\n    tag_113:\n        /* \"#utility.yul\":545:684   */\n      swap3\n      swap2\n      pop\n      pop\n      jump\t// out\n        /* \"#utility.yul\":690:1019   */\n    tag_13:\n        /* \"#utility.yul\":749:755   */\n      0x00\n        /* \"#utility.yul\":798:800   */\n      0x20\n        /* \"#utility.yul\":786:795   */\n      dup3\n        /* \"#utility.yul\":777:784   */\n      dup5\n        /* \"#utility.yul\":773:796   */\n      sub\n        /* \"#utility.yul\":769:801   */\n      slt\n        /* \"#utility.yul\":766:885   */\n      iszero\n      tag_115\n      jumpi\n        /* \"#utility.yul\":804:883   */\n      tag_116\n      tag_72\n      jump\t// in\n    tag_116:\n        /* \"#utility.yul\":766:885   */\n    tag_115:\n        /* \"#utility.yul\":924:925   */\n      0x00\n        /* \"#utility.yul\":949:1002   */\n      tag_117\n        /* \"#utility.yul\":994:1001   */\n      dup5\n        /* \"#utility.yul\":985:991   */\n      dup3\n        /* \"#utility.yul\":974:983   */\n      dup6\n        /* \"#utility.yul\":970:992   */\n      add\n        /* \"#utility.yul\":949:1002   */\n      tag_76\n      jump\t// in\n    tag_117:\n        /* \"#utility.yul\":939:1002   */\n      swap2\n      pop\n        /* \"#utility.yul\":895:1012   */\n      pop\n        /* \"#utility.yul\":690:1019   */\n      swap3\n      swap2\n      pop\n      pop\n      jump\t// out\n        /* \"#utility.yul\":1025:1143   */\n    tag_77:\n        /* \"#utility.yul\":1112:1136   */\n      tag_119\n        /* \"#utility.yul\":1130:1135   */\n      dup2\n        /* \"#utility.yul\":1112:1136   */\n      tag_74\n      jump\t// in\n    tag_119:\n        /* \"#utility.yul\":1107:1110   */\n      dup3\n        /* \"#utility.yul\":1100:1137   */\n      mstore\n        /* \"#utility.yul\":1025:1143   */\n      pop\n      pop\n      jump\t// out\n        /* \"#utility.yul\":1149:1371   */\n    tag_16:\n        /* \"#utility.yul\":1242:1246   */\n      0x00\n        /* \"#utility.yul\":1280:1282   */\n      0x20\n        /* \"#utility.yul\":1269:1278   */\n      dup3\n        /* \"#utility.yul\":1265:1283   */\n      add\n        /* \"#utility.yul\":1257:1283   */\n      swap1\n      pop\n        /* \"#utility.yul\":1293:1364   */\n      tag_121\n        /* \"#utility.yul\":1361:1362   */\n      0x00\n        /* \"#utility.yul\":1350:1359   */\n      dup4\n        /* \"#utility.yul\":1346:1363   */\n      add\n        /* \"#utility.yul\":1337:1343   */\n      dup5\n        /* \"#utility.yul\":1293:1364   */\n      tag_77\n      jump\t// in\n    tag_121:\n        /* \"#utility.yul\":1149:1371   */\n      swap3\n      swap2\n      pop\n      pop\n      jump\t// out\n        /* \"#utility.yul\":1377:1463   */\n    tag_78:\n        /* \"#utility.yul\":1412:1419   */\n      0x00\n        /* \"#utility.yul\":1452:1456   */\n      0xff\n        /* \"#utility.yul\":1445:1450   */\n      dup3\n        /* \"#utility.yul\":1441:1457   */\n      and\n        /* \"#utility.yul\":1430:1457   */\n      swap1\n      pop\n        /* \"#utility.yul\":1377:1463   */\n      swap2\n      swap1\n      pop\n      jump\t// out\n        /* \"#utility.yul\":1469:1581   */\n    tag_79:\n        /* \"#utility.yul\":1552:1574   */\n      tag_124\n        /* \"#utility.yul\":1568:1573   */\n      dup2\n        /* \"#utility.yul\":1552:1574   */\n      tag_78\n      jump\t// in\n    tag_124:\n        /* \"#utility.yul\":1547:1550   */\n      dup3\n        /* \"#utility.yul\":1540:1575   */\n      mstore\n        /* \"#utility.yul\":1469:1581   */\n      pop\n      pop\n      jump\t// out\n        /* \"#utility.yul\":1587:1801   */\n    tag_20:\n        /* \"#utility.yul\":1676:1680   */\n      0x00\n        /* \"#utility.yul\":1714:1716   */\n      0x20\n        /* \"#utility.yul\":1703:1712   */\n      dup3\n        /* \"#utility.yul\":1699:1717   */\n      add\n        /* \"#utility.yul\":1691:1717   */\n      swap1\n      pop\n        /* \"#utility.yul\":1727:1794   */\n      tag_126\n        /* \"#utility.yul\":1791:1792   */\n      0x00\n        /* \"#utility.yul\":1780:1789   */\n      dup4\n        /* \"#utility.yul\":1776:1793   */\n      add\n        /* \"#utility.yul\":1767:1773   */\n      dup5\n        /* \"#utility.yul\":1727:1794   */\n      tag_79\n      jump\t// in\n    tag_126:\n        /* \"#utility.yul\":1587:1801   */\n      swap3\n      swap2\n      pop\n      pop\n      jump\t// out\n        /* \"#utility.yul\":1807:1933   */\n    tag_80:\n        /* \"#utility.yul\":1844:1851   */\n      0x00\n        /* \"#utility.yul\":1884:1926   */\n      0xffffffffffffffffffffffffffffffffffffffff\n        /* \"#utility.yul\":1877:1882   */\n      dup3\n        /* \"#utility.yul\":1873:1927   */\n      and\n        /* \"#utility.yul\":1862:1927   */\n      swap1\n      pop\n        /* \"#utility.yul\":1807:1933   */\n      swap2\n      swap1\n      pop\n      jump\t// out\n        /* \"#utility.yul\":1939:2035   */\n    tag_81:\n        /* \"#utility.yul\":1976:1983   */\n      0x00\n        /* \"#utility.yul\":2005:2029   */\n      tag_129\n        /* \"#utility.yul\":2023:2028   */\n      dup3\n        /* \"#utility.yul\":2005:2029   */\n      tag_80\n      jump\t// in\n    tag_129:\n        /* \"#utility.yul\":1994:2029   */\n      swap1\n      pop\n        /* \"#utility.yul\":1939:2035   */\n      swap2\n      swap1\n      pop\n      jump\t// out\n        /* \"#utility.yul\":2041:2163   */\n    tag_82:\n        /* \"#utility.yul\":2114:2138   */\n      tag_131\n        /* \"#utility.yul\":2132:2137   */\n      dup2\n        /* \"#utility.yul\":2114:2138   */\n      tag_81\n      jump\t// in\n    tag_131:\n        /* \"#utility.yul\":2107:2112   */\n      dup2\n        /* \"#utility.yul\":2104:2139   */\n      eq\n        /* \"#utility.yul\":2094:2157   */\n      tag_132\n      jumpi\n        /* \"#utility.yul\":2153:2154   */\n      0x00\n        /* \"#utility.yul\":2150:2151   */\n      dup1\n        /* \"#utility.yul\":2143:2155   */\n      revert\n        /* \"#utility.yul\":2094:2157   */\n    tag_132:\n        /* \"#utility.yul\":2041:2163   */\n      pop\n      jump\t// out\n        /* \"#utility.yul\":2169:2308   */\n    tag_83:\n        /* \"#utility.yul\":2215:2220   */\n      0x00\n        /* \"#utility.yul\":2253:2259   */\n      dup2\n        /* \"#utility.yul\":2240:2260   */\n      calldataload\n        /* \"#utility.yul\":2231:2260   */\n      swap1\n      pop\n        /* \"#utility.yul\":2269:2302   */\n      tag_134\n        /* \"#utility.yul\":2296:2301   */\n      dup2\n        /* \"#utility.yul\":2269:2302   */\n      tag_82\n      jump\t// in\n    tag_134:\n        /* \"#utility.yul\":2169:2308   */\n      swap3\n      swap2\n      pop\n      pop\n      jump\t// out\n        /* \"#utility.yul\":2314:2643   */\n    tag_26:\n        /* \"#utility.yul\":2373:2379   */\n      0x00\n        /* \"#utility.yul\":2422:2424   */\n      0x20\n        /* \"#utility.yul\":2410:2419   */\n      dup3\n        /* \"#utility.yul\":2401:2408   */\n      dup5\n        /* \"#utility.yul\":2397:2420   */\n      sub\n        /* \"#utility.yul\":2393:2425   */\n      slt\n        /* \"#utility.yul\":2390:2509   */\n      iszero\n      tag_136\n      jumpi\n        /* \"#utility.yul\":2428:2507   */\n      tag_137\n      tag_72\n      jump\t// in\n    tag_137:\n        /* \"#utility.yul\":2390:2509   */\n    tag_136:\n        /* \"#utility.yul\":2548:2549   */\n      0x00\n        /* \"#utility.yul\":2573:2626   */\n      tag_138\n        /* \"#utility.yul\":2618:2625   */\n      dup5\n        /* \"#utility.yul\":2609:2615   */\n      dup3\n        /* \"#utility.yul\":2598:2607   */\n      dup6\n        /* \"#utility.yul\":2594:2616   */\n      add\n        /* \"#utility.yul\":2573:2626   */\n      tag_83\n      jump\t// in\n    tag_138:\n        /* \"#utility.yul\":2563:2626   */\n      swap2\n      pop\n        /* \"#utility.yul\":2519:2636   */\n      pop\n        /* \"#utility.yul\":2314:2643   */\n      swap3\n      swap2\n      pop\n      pop\n      jump\t// out\n        /* \"#utility.yul\":2649:2750   */\n    tag_84:\n        /* \"#utility.yul\":2685:2692   */\n      0x00\n        /* \"#utility.yul\":2725:2743   */\n      0xffffffffffffffff\n        /* \"#utility.yul\":2718:2723   */\n      dup3\n        /* \"#utility.yul\":2714:2744   */\n      and\n        /* \"#utility.yul\":2703:2744   */\n      swap1\n      pop\n        /* \"#utility.yul\":2649:2750   */\n      swap2\n      swap1\n      pop\n      jump\t// out\n        /* \"#utility.yul\":2756:2871   */\n    tag_85:\n        /* \"#utility.yul\":2841:2864   */\n      tag_141\n        /* \"#utility.yul\":2858:2863   */\n      dup2\n        /* \"#utility.yul\":2841:2864   */\n      tag_84\n      jump\t// in\n    tag_141:\n        /* \"#utility.yul\":2836:2839   */\n      dup3\n        /* \"#utility.yul\":2829:2865   */\n      mstore\n        /* \"#utility.yul\":2756:2871   */\n      pop\n      pop\n      jump\t// out\n        /* \"#utility.yul\":2877:2967   */\n    tag_86:\n        /* \"#utility.yul\":2911:2918   */\n      0x00\n        /* \"#utility.yul\":2954:2959   */\n      dup2\n        /* \"#utility.yul\":2947:2960   */\n      iszero\n        /* \"#utility.yul\":2940:2961   */\n      iszero\n        /* \"#utility.yul\":2929:2961   */\n      swap1\n      pop\n        /* \"#utility.yul\":2877:2967   */\n      swap2\n      swap1\n      pop\n      jump\t// out\n        /* \"#utility.yul\":2973:3082   */\n    tag_87:\n        /* \"#utility.yul\":3054:3075   */\n      tag_144\n        /* \"#utility.yul\":3069:3074   */\n      dup2\n        /* \"#utility.yul\":3054:3075   */\n      tag_86\n      jump\t// in\n    tag_144:\n        /* \"#utility.yul\":3049:3052   */\n      dup3\n        /* \"#utility.yul\":3042:3076   */\n      mstore\n        /* \"#utility.yul\":2973:3082   */\n      pop\n      pop\n      jump\t// out\n        /* \"#utility.yul\":3088:3514   */\n    tag_29:\n        /* \"#utility.yul\":3229:3233   */\n      0x00\n        /* \"#utility.yul\":3267:3269   */\n      0x60\n        /* \"#utility.yul\":3256:3265   */\n      dup3\n        /* \"#utility.yul\":3252:3270   */\n      add\n        /* \"#utility.yul\":3244:3270   */\n      swap1\n      pop\n        /* \"#utility.yul\":3280:3351   */\n      tag_146\n        /* \"#utility.yul\":3348:3349   */\n      0x00\n        /* \"#utility.yul\":3337:3346   */\n      dup4\n        /* \"#utility.yul\":3333:3350   */\n      add\n        /* \"#utility.yul\":3324:3330   */\n      dup7\n        /* \"#utility.yul\":3280:3351   */\n      tag_77\n      jump\t// in\n    tag_146:\n        /* \"#utility.yul\":3361:3431   */\n      tag_147\n        /* \"#utility.yul\":3427:3429   */\n      0x20\n        /* \"#utility.yul\":3416:3425   */\n      dup4\n        /* \"#utility.yul\":3412:3430   */\n      add\n        /* \"#utility.yul\":3403:3409   */\n      dup6\n        /* \"#utility.yul\":3361:3431   */\n      tag_85\n      jump\t// in\n    tag_147:\n        /* \"#utility.yul\":3441:3507   */\n      tag_148\n        /* \"#utility.yul\":3503:3505   */\n      0x40\n        /* \"#utility.yul\":3492:3501   */\n      dup4\n        /* \"#utility.yul\":3488:3506   */\n      add\n        /* \"#utility.yul\":3479:3485   */\n      dup5\n        /* \"#utility.yul\":3441:3507   */\n      tag_87\n      jump\t// in\n    tag_148:\n        /* \"#utility.yul\":3088:3514   */\n      swap5\n      swap4\n      pop\n      pop\n      pop\n      pop\n      jump\t// out\n        /* \"#utility.yul\":3520:3597   */\n    tag_88:\n        /* \"#utility.yul\":3557:3564   */\n      0x00\n        /* \"#utility.yul\":3586:3591   */\n      dup2\n        /* \"#utility.yul\":3575:3591   */\n      swap1\n      pop\n        /* \"#utility.yul\":3520:3597   */\n      swap2\n      swap1\n      pop\n      jump\t// out\n        /* \"#utility.yul\":3603:3721   */\n    tag_89:\n        /* \"#utility.yul\":3690:3714   */\n      tag_151\n        /* \"#utility.yul\":3708:3713   */\n      dup2\n        /* \"#utility.yul\":3690:3714   */\n      tag_88\n      jump\t// in\n    tag_151:\n        /* \"#utility.yul\":3685:3688   */\n      dup3\n        /* \"#utility.yul\":3678:3715   */\n      mstore\n        /* \"#utility.yul\":3603:3721   */\n      pop\n      pop\n      jump\t// out\n        /* \"#utility.yul\":3727:3949   */\n    tag_33:\n        /* \"#utility.yul\":3820:3824   */\n      0x00\n        /* \"#utility.yul\":3858:3860   */\n      0x20\n        /* \"#utility.yul\":3847:3856   */\n      dup3\n        /* \"#utility.yul\":3843:3861   */\n      add\n        /* \"#utility.yul\":3835:3861   */\n      swap1\n      pop\n        /* \"#utility.yul\":3871:3942   */\n      tag_153\n        /* \"#utility.yul\":3939:3940   */\n      0x00\n        /* \"#utility.yul\":3928:3937   */\n      dup4\n        /* \"#utility.yul\":3924:3941   */\n      add\n        /* \"#utility.yul\":3915:3921   */\n      dup5\n        /* \"#utility.yul\":3871:3942   */\n      tag_89\n      jump\t// in\n    tag_153:\n        /* \"#utility.yul\":3727:3949   */\n      swap3\n      swap2\n      pop\n      pop\n      jump\t// out\n        /* \"#utility.yul\":3955:4034   */\n    tag_90:\n        /* \"#utility.yul\":3994:4001   */\n      0x00\n        /* \"#utility.yul\":4023:4028   */\n      dup2\n        /* \"#utility.yul\":4012:4028   */\n      swap1\n      pop\n        /* \"#utility.yul\":3955:4034   */\n      swap2\n      swap1\n      pop\n      jump\t// out\n        /* \"#utility.yul\":4040:4197   */\n    tag_91:\n        /* \"#utility.yul\":4145:4190   */\n      tag_156\n        /* \"#utility.yul\":4165:4189   */\n      tag_157\n        /* \"#utility.yul\":4183:4188   */\n      dup3\n        /* \"#utility.yul\":4165:4189   */\n      tag_74\n      jump\t// in\n    tag_157:\n        /* \"#utility.yul\":4145:4190   */\n      tag_90\n      jump\t// in\n    tag_156:\n        /* \"#utility.yul\":4140:4143   */\n      dup3\n        /* \"#utility.yul\":4133:4191   */\n      mstore\n        /* \"#utility.yul\":4040:4197   */\n      pop\n      pop\n      jump\t// out\n        /* \"#utility.yul\":4203:4459   */\n    tag_42:\n        /* \"#utility.yul\":4315:4318   */\n      0x00\n        /* \"#utility.yul\":4330:4405   */\n      tag_159\n        /* \"#utility.yul\":4401:4404   */\n      dup3\n        /* \"#utility.yul\":4392:4398   */\n      dup5\n        /* \"#utility.yul\":4330:4405   */\n      tag_91\n      jump\t// in\n    tag_159:\n        /* \"#utility.yul\":4430:4432   */\n      0x20\n        /* \"#utility.yul\":4425:4428   */\n      dup3\n        /* \"#utility.yul\":4421:4433   */\n      add\n        /* \"#utility.yul\":4414:4433   */\n      swap2\n      pop\n        /* \"#utility.yul\":4450:4453   */\n      dup2\n        /* \"#utility.yul\":4443:4453   */\n      swap1\n      pop\n        /* \"#utility.yul\":4203:4459   */\n      swap3\n      swap2\n      pop\n      pop\n      jump\t// out\n        /* \"#utility.yul\":4465:4645   */\n    tag_46:\n        /* \"#utility.yul\":4513:4590   */\n      0x4e487b7100000000000000000000000000000000000000000000000000000000\n        /* \"#utility.yul\":4510:4511   */\n      0x00\n        /* \"#utility.yul\":4503:4591   */\n      mstore\n        /* \"#utility.yul\":4610:4614   */\n      0x32\n        /* \"#utility.yul\":4607:4608   */\n      0x04\n        /* \"#utility.yul\":4600:4615   */\n      mstore\n        /* \"#utility.yul\":4634:4638   */\n      0x24\n        /* \"#utility.yul\":4631:4632   */\n      0x00\n        /* \"#utility.yul\":4624:4639   */\n      revert\n        /* \"#utility.yul\":4651:4820   */\n    tag_92:\n        /* \"#utility.yul\":4735:4746   */\n      0x00\n        /* \"#utility.yul\":4769:4775   */\n      dup3\n        /* \"#utility.yul\":4764:4767   */\n      dup3\n        /* \"#utility.yul\":4757:4776   */\n      mstore\n        /* \"#utility.yul\":4809:4813   */\n      0x20\n        /* \"#utility.yul\":4804:4807   */\n      dup3\n        /* \"#utility.yul\":4800:4814   */\n      add\n        /* \"#utility.yul\":4785:4814   */\n      swap1\n      pop\n        /* \"#utility.yul\":4651:4820   */\n      swap3\n      swap2\n      pop\n      pop\n      jump\t// out\n        /* \"#utility.yul\":4826:5051   */\n    tag_93:\n        /* \"#utility.yul\":4966:5000   */\n      0x436f6d6d697452657665616c3a3a72657665616c3a20416c7265616479207265\n        /* \"#utility.yul\":4962:4963   */\n      0x00\n        /* \"#utility.yul\":4954:4960   */\n      dup3\n        /* \"#utility.yul\":4950:4964   */\n      add\n        /* \"#utility.yul\":4943:5001   */\n      mstore\n        /* \"#utility.yul\":5035:5043   */\n      0x7665616c65640000000000000000000000000000000000000000000000000000\n        /* \"#utility.yul\":5030:5032   */\n      0x20\n        /* \"#utility.yul\":5022:5028   */\n      dup3\n        /* \"#utility.yul\":5018:5033   */\n      add\n        /* \"#utility.yul\":5011:5044   */\n      mstore\n        /* \"#utility.yul\":4826:5051   */\n      pop\n      jump\t// out\n        /* \"#utility.yul\":5057:5423   */\n    tag_94:\n        /* \"#utility.yul\":5199:5202   */\n      0x00\n        /* \"#utility.yul\":5220:5287   */\n      tag_164\n        /* \"#utility.yul\":5284:5286   */\n      0x26\n        /* \"#utility.yul\":5279:5282   */\n      dup4\n        /* \"#utility.yul\":5220:5287   */\n      tag_92\n      jump\t// in\n    tag_164:\n        /* \"#utility.yul\":5213:5287   */\n      swap2\n      pop\n        /* \"#utility.yul\":5296:5389   */\n      tag_165\n        /* \"#utility.yul\":5385:5388   */\n      dup3\n        /* \"#utility.yul\":5296:5389   */\n      tag_93\n      jump\t// in\n    tag_165:\n        /* \"#utility.yul\":5414:5416   */\n      0x40\n        /* \"#utility.yul\":5409:5412   */\n      dup3\n        /* \"#utility.yul\":5405:5417   */\n      add\n        /* \"#utility.yul\":5398:5417   */\n      swap1\n      pop\n        /* \"#utility.yul\":5057:5423   */\n      swap2\n      swap1\n      pop\n      jump\t// out\n        /* \"#utility.yul\":5429:5848   */\n    tag_49:\n        /* \"#utility.yul\":5595:5599   */\n      0x00\n        /* \"#utility.yul\":5633:5635   */\n      0x20\n        /* \"#utility.yul\":5622:5631   */\n      dup3\n        /* \"#utility.yul\":5618:5636   */\n      add\n        /* \"#utility.yul\":5610:5636   */\n      swap1\n      pop\n        /* \"#utility.yul\":5682:5691   */\n      dup2\n        /* \"#utility.yul\":5676:5680   */\n      dup2\n        /* \"#utility.yul\":5672:5692   */\n      sub\n        /* \"#utility.yul\":5668:5669   */\n      0x00\n        /* \"#utility.yul\":5657:5666   */\n      dup4\n        /* \"#utility.yul\":5653:5670   */\n      add\n        /* \"#utility.yul\":5646:5693   */\n      mstore\n        /* \"#utility.yul\":5710:5841   */\n      tag_167\n        /* \"#utility.yul\":5836:5840   */\n      dup2\n        /* \"#utility.yul\":5710:5841   */\n      tag_94\n      jump\t// in\n    tag_167:\n        /* \"#utility.yul\":5702:5841   */\n      swap1\n      pop\n        /* \"#utility.yul\":5429:5848   */\n      swap2\n      swap1\n      pop\n      jump\t// out\n        /* \"#utility.yul\":5854:6098   */\n    tag_95:\n        /* \"#utility.yul\":5994:6028   */\n      0x436f6d6d697452657665616c3a3a72657665616c3a2052657665616c65642068\n        /* \"#utility.yul\":5990:5991   */\n      0x00\n        /* \"#utility.yul\":5982:5988   */\n      dup3\n        /* \"#utility.yul\":5978:5992   */\n      add\n        /* \"#utility.yul\":5971:6029   */\n      mstore\n        /* \"#utility.yul\":6063:6090   */\n      0x61736820646f6573206e6f74206d6174636820636f6d6d697400000000000000\n        /* \"#utility.yul\":6058:6060   */\n      0x20\n        /* \"#utility.yul\":6050:6056   */\n      dup3\n        /* \"#utility.yul\":6046:6061   */\n      add\n        /* \"#utility.yul\":6039:6091   */\n      mstore\n        /* \"#utility.yul\":5854:6098   */\n      pop\n      jump\t// out\n        /* \"#utility.yul\":6104:6470   */\n    tag_96:\n        /* \"#utility.yul\":6246:6249   */\n      0x00\n        /* \"#utility.yul\":6267:6334   */\n      tag_170\n        /* \"#utility.yul\":6331:6333   */\n      0x39\n        /* \"#utility.yul\":6326:6329   */\n      dup4\n        /* \"#utility.yul\":6267:6334   */\n      tag_92\n      jump\t// in\n    tag_170:\n        /* \"#utility.yul\":6260:6334   */\n      swap2\n      pop\n        /* \"#utility.yul\":6343:6436   */\n      tag_171\n        /* \"#utility.yul\":6432:6435   */\n      dup3\n        /* \"#utility.yul\":6343:6436   */\n      tag_95\n      jump\t// in\n    tag_171:\n        /* \"#utility.yul\":6461:6463   */\n      0x40\n        /* \"#utility.yul\":6456:6459   */\n      dup3\n        /* \"#utility.yul\":6452:6464   */\n      add\n        /* \"#utility.yul\":6445:6464   */\n      swap1\n      pop\n        /* \"#utility.yul\":6104:6470   */\n      swap2\n      swap1\n      pop\n      jump\t// out\n        /* \"#utility.yul\":6476:6895   */\n    tag_53:\n        /* \"#utility.yul\":6642:6646   */\n      0x00\n        /* \"#utility.yul\":6680:6682   */\n      0x20\n        /* \"#utility.yul\":6669:6678   */\n      dup3\n        /* \"#utility.yul\":6665:6683   */\n      add\n        /* \"#utility.yul\":6657:6683   */\n      swap1\n      pop\n        /* \"#utility.yul\":6729:6738   */\n      dup2\n        /* \"#utility.yul\":6723:6727   */\n      dup2\n        /* \"#utility.yul\":6719:6739   */\n      sub\n        /* \"#utility.yul\":6715:6716   */\n      0x00\n        /* \"#utility.yul\":6704:6713   */\n      dup4\n        /* \"#utility.yul\":6700:6717   */\n      add\n        /* \"#utility.yul\":6693:6740   */\n      mstore\n        /* \"#utility.yul\":6757:6888   */\n      tag_173\n        /* \"#utility.yul\":6883:6887   */\n      dup2\n        /* \"#utility.yul\":6757:6888   */\n      tag_96\n      jump\t// in\n    tag_173:\n        /* \"#utility.yul\":6749:6888   */\n      swap1\n      pop\n        /* \"#utility.yul\":6476:6895   */\n      swap2\n      swap1\n      pop\n      jump\t// out\n        /* \"#utility.yul\":6901:7191   */\n    tag_97:\n        /* \"#utility.yul\":7041:7075   */\n      0x436f6d6d697452657665616c3a3a72657665616c3a2052657665616c20616e64\n        /* \"#utility.yul\":7037:7038   */\n      0x00\n        /* \"#utility.yul\":7029:7035   */\n      dup3\n        /* \"#utility.yul\":7025:7039   */\n      add\n        /* \"#utility.yul\":7018:7076   */\n      mstore\n        /* \"#utility.yul\":7110:7144   */\n      0x20636f6d6d69742068617070656e6564206f6e207468652073616d6520626c6f\n        /* \"#utility.yul\":7105:7107   */\n      0x20\n        /* \"#utility.yul\":7097:7103   */\n      dup3\n        /* \"#utility.yul\":7093:7108   */\n      add\n        /* \"#utility.yul\":7086:7145   */\n      mstore\n        /* \"#utility.yul\":7179:7183   */\n      0x636b000000000000000000000000000000000000000000000000000000000000\n        /* \"#utility.yul\":7174:7176   */\n      0x40\n        /* \"#utility.yul\":7166:7172   */\n      dup3\n        /* \"#utility.yul\":7162:7177   */\n      add\n        /* \"#utility.yul\":7155:7184   */\n      mstore\n        /* \"#utility.yul\":6901:7191   */\n      pop\n      jump\t// out\n        /* \"#utility.yul\":7197:7563   */\n    tag_98:\n        /* \"#utility.yul\":7339:7342   */\n      0x00\n        /* \"#utility.yul\":7360:7427   */\n      tag_176\n        /* \"#utility.yul\":7424:7426   */\n      0x42\n        /* \"#utility.yul\":7419:7422   */\n      dup4\n        /* \"#utility.yul\":7360:7427   */\n      tag_92\n      jump\t// in\n    tag_176:\n        /* \"#utility.yul\":7353:7427   */\n      swap2\n      pop\n        /* \"#utility.yul\":7436:7529   */\n      tag_177\n        /* \"#utility.yul\":7525:7528   */\n      dup3\n        /* \"#utility.yul\":7436:7529   */\n      tag_97\n      jump\t// in\n    tag_177:\n        /* \"#utility.yul\":7554:7556   */\n      0x60\n        /* \"#utility.yul\":7549:7552   */\n      dup3\n        /* \"#utility.yul\":7545:7557   */\n      add\n        /* \"#utility.yul\":7538:7557   */\n      swap1\n      pop\n        /* \"#utility.yul\":7197:7563   */\n      swap2\n      swap1\n      pop\n      jump\t// out\n        /* \"#utility.yul\":7569:7988   */\n    tag_56:\n        /* \"#utility.yul\":7735:7739   */\n      0x00\n        /* \"#utility.yul\":7773:7775   */\n      0x20\n        /* \"#utility.yul\":7762:7771   */\n      dup3\n        /* \"#utility.yul\":7758:7776   */\n      add\n        /* \"#utility.yul\":7750:7776   */\n      swap1\n      pop\n        /* \"#utility.yul\":7822:7831   */\n      dup2\n        /* \"#utility.yul\":7816:7820   */\n      dup2\n        /* \"#utility.yul\":7812:7832   */\n      sub\n        /* \"#utility.yul\":7808:7809   */\n      0x00\n        /* \"#utility.yul\":7797:7806   */\n      dup4\n        /* \"#utility.yul\":7793:7810   */\n      add\n        /* \"#utility.yul\":7786:7833   */\n      mstore\n        /* \"#utility.yul\":7850:7981   */\n      tag_179\n        /* \"#utility.yul\":7976:7980   */\n      dup2\n        /* \"#utility.yul\":7850:7981   */\n      tag_98\n      jump\t// in\n    tag_179:\n        /* \"#utility.yul\":7842:7981   */\n      swap1\n      pop\n        /* \"#utility.yul\":7569:7988   */\n      swap2\n      swap1\n      pop\n      jump\t// out\n        /* \"#utility.yul\":7994:8174   */\n    tag_99:\n        /* \"#utility.yul\":8042:8119   */\n      0x4e487b7100000000000000000000000000000000000000000000000000000000\n        /* \"#utility.yul\":8039:8040   */\n      0x00\n        /* \"#utility.yul\":8032:8120   */\n      mstore\n        /* \"#utility.yul\":8139:8143   */\n      0x11\n        /* \"#utility.yul\":8136:8137   */\n      0x04\n        /* \"#utility.yul\":8129:8144   */\n      mstore\n        /* \"#utility.yul\":8163:8167   */\n      0x24\n        /* \"#utility.yul\":8160:8161   */\n      0x00\n        /* \"#utility.yul\":8153:8168   */\n      revert\n        /* \"#utility.yul\":8180:8385   */\n    tag_58:\n        /* \"#utility.yul\":8219:8222   */\n      0x00\n        /* \"#utility.yul\":8238:8257   */\n      tag_182\n        /* \"#utility.yul\":8255:8256   */\n      dup3\n        /* \"#utility.yul\":8238:8257   */\n      tag_84\n      jump\t// in\n    tag_182:\n        /* \"#utility.yul\":8233:8257   */\n      swap2\n      pop\n        /* \"#utility.yul\":8271:8290   */\n      tag_183\n        /* \"#utility.yul\":8288:8289   */\n      dup4\n        /* \"#utility.yul\":8271:8290   */\n      tag_84\n      jump\t// in\n    tag_183:\n        /* \"#utility.yul\":8266:8290   */\n      swap3\n      pop\n        /* \"#utility.yul\":8313:8314   */\n      dup3\n        /* \"#utility.yul\":8310:8311   */\n      dup3\n        /* \"#utility.yul\":8306:8315   */\n      add\n        /* \"#utility.yul\":8299:8315   */\n      swap1\n      pop\n        /* \"#utility.yul\":8336:8354   */\n      0xffffffffffffffff\n        /* \"#utility.yul\":8331:8334   */\n      dup2\n        /* \"#utility.yul\":8328:8355   */\n      gt\n        /* \"#utility.yul\":8325:8378   */\n      iszero\n      tag_184\n      jumpi\n        /* \"#utility.yul\":8358:8376   */\n      tag_185\n      tag_99\n      jump\t// in\n    tag_185:\n        /* \"#utility.yul\":8325:8378   */\n    tag_184:\n        /* \"#utility.yul\":8180:8385   */\n      swap3\n      swap2\n      pop\n      pop\n      jump\t// out\n        /* \"#utility.yul\":8391:8617   */\n    tag_100:\n        /* \"#utility.yul\":8531:8565   */\n      0x436f6d6d697452657665616c3a3a72657665616c3a2052657665616c65642074\n        /* \"#utility.yul\":8527:8528   */\n      0x00\n        /* \"#utility.yul\":8519:8525   */\n      dup3\n        /* \"#utility.yul\":8515:8529   */\n      add\n        /* \"#utility.yul\":8508:8566   */\n      mstore\n        /* \"#utility.yul\":8600:8609   */\n      0x6f6f206c61746500000000000000000000000000000000000000000000000000\n        /* \"#utility.yul\":8595:8597   */\n      0x20\n        /* \"#utility.yul\":8587:8593   */\n      dup3\n        /* \"#utility.yul\":8583:8598   */\n      add\n        /* \"#utility.yul\":8576:8610   */\n      mstore\n        /* \"#utility.yul\":8391:8617   */\n      pop\n      jump\t// out\n        /* \"#utility.yul\":8623:8989   */\n    tag_101:\n        /* \"#utility.yul\":8765:8768   */\n      0x00\n        /* \"#utility.yul\":8786:8853   */\n      tag_188\n        /* \"#utility.yul\":8850:8852   */\n      0x27\n        /* \"#utility.yul\":8845:8848   */\n      dup4\n        /* \"#utility.yul\":8786:8853   */\n      tag_92\n      jump\t// in\n    tag_188:\n        /* \"#utility.yul\":8779:8853   */\n      swap2\n      pop\n        /* \"#utility.yul\":8862:8955   */\n      tag_189\n        /* \"#utility.yul\":8951:8954   */\n      dup3\n        /* \"#utility.yul\":8862:8955   */\n      tag_100\n      jump\t// in\n    tag_189:\n        /* \"#utility.yul\":8980:8982   */\n      0x40\n        /* \"#utility.yul\":8975:8978   */\n      dup3\n        /* \"#utility.yul\":8971:8983   */\n      add\n        /* \"#utility.yul\":8964:8983   */\n      swap1\n      pop\n        /* \"#utility.yul\":8623:8989   */\n      swap2\n      swap1\n      pop\n      jump\t// out\n        /* \"#utility.yul\":8995:9414   */\n    tag_61:\n        /* \"#utility.yul\":9161:9165   */\n      0x00\n        /* \"#utility.yul\":9199:9201   */\n      0x20\n        /* \"#utility.yul\":9188:9197   */\n      dup3\n        /* \"#utility.yul\":9184:9202   */\n      add\n        /* \"#utility.yul\":9176:9202   */\n      swap1\n      pop\n        /* \"#utility.yul\":9248:9257   */\n      dup2\n        /* \"#utility.yul\":9242:9246   */\n      dup2\n        /* \"#utility.yul\":9238:9258   */\n      sub\n        /* \"#utility.yul\":9234:9235   */\n      0x00\n        /* \"#utility.yul\":9223:9232   */\n      dup4\n        /* \"#utility.yul\":9219:9236   */\n      add\n        /* \"#utility.yul\":9212:9259   */\n      mstore\n        /* \"#utility.yul\":9276:9407   */\n      tag_191\n        /* \"#utility.yul\":9402:9406   */\n      dup2\n        /* \"#utility.yul\":9276:9407   */\n      tag_101\n      jump\t// in\n    tag_191:\n        /* \"#utility.yul\":9268:9407   */\n      swap1\n      pop\n        /* \"#utility.yul\":8995:9414   */\n      swap2\n      swap1\n      pop\n      jump\t// out\n        /* \"#utility.yul\":9420:9817   */\n    tag_63:\n        /* \"#utility.yul\":9560:9563   */\n      0x00\n        /* \"#utility.yul\":9575:9650   */\n      tag_193\n        /* \"#utility.yul\":9646:9649   */\n      dup3\n        /* \"#utility.yul\":9637:9643   */\n      dup6\n        /* \"#utility.yul\":9575:9650   */\n      tag_91\n      jump\t// in\n    tag_193:\n        /* \"#utility.yul\":9675:9677   */\n      0x20\n        /* \"#utility.yul\":9670:9673   */\n      dup3\n        /* \"#utility.yul\":9666:9678   */\n      add\n        /* \"#utility.yul\":9659:9678   */\n      swap2\n      pop\n        /* \"#utility.yul\":9688:9763   */\n      tag_194\n        /* \"#utility.yul\":9759:9762   */\n      dup3\n        /* \"#utility.yul\":9750:9756   */\n      dup5\n        /* \"#utility.yul\":9688:9763   */\n      tag_91\n      jump\t// in\n    tag_194:\n        /* \"#utility.yul\":9788:9790   */\n      0x20\n        /* \"#utility.yul\":9783:9786   */\n      dup3\n        /* \"#utility.yul\":9779:9791   */\n      add\n        /* \"#utility.yul\":9772:9791   */\n      swap2\n      pop\n        /* \"#utility.yul\":9808:9811   */\n      dup2\n        /* \"#utility.yul\":9801:9811   */\n      swap1\n      pop\n        /* \"#utility.yul\":9420:9817   */\n      swap4\n      swap3\n      pop\n      pop\n      pop\n      jump\t// out\n        /* \"#utility.yul\":9823:10003   */\n    tag_102:\n        /* \"#utility.yul\":9871:9948   */\n      0x4e487b7100000000000000000000000000000000000000000000000000000000\n        /* \"#utility.yul\":9868:9869   */\n      0x00\n        /* \"#utility.yul\":9861:9949   */\n      mstore\n        /* \"#utility.yul\":9968:9972   */\n      0x12\n        /* \"#utility.yul\":9965:9966   */\n      0x04\n        /* \"#utility.yul\":9958:9973   */\n      mstore\n        /* \"#utility.yul\":9992:9996   */\n      0x24\n        /* \"#utility.yul\":9989:9990   */\n      0x00\n        /* \"#utility.yul\":9982:9997   */\n      revert\n        /* \"#utility.yul\":10009:10185   */\n    tag_65:\n        /* \"#utility.yul\":10041:10042   */\n      0x00\n        /* \"#utility.yul\":10058:10078   */\n      tag_197\n        /* \"#utility.yul\":10076:10077   */\n      dup3\n        /* \"#utility.yul\":10058:10078   */\n      tag_88\n      jump\t// in\n    tag_197:\n        /* \"#utility.yul\":10053:10078   */\n      swap2\n      pop\n        /* \"#utility.yul\":10092:10112   */\n      tag_198\n        /* \"#utility.yul\":10110:10111   */\n      dup4\n        /* \"#utility.yul\":10092:10112   */\n      tag_88\n      jump\t// in\n    tag_198:\n        /* \"#utility.yul\":10087:10112   */\n      swap3\n      pop\n        /* \"#utility.yul\":10131:10132   */\n      dup3\n        /* \"#utility.yul\":10121:10156   */\n      tag_199\n      jumpi\n        /* \"#utility.yul\":10136:10154   */\n      tag_200\n      tag_102\n      jump\t// in\n    tag_200:\n        /* \"#utility.yul\":10121:10156   */\n    tag_199:\n        /* \"#utility.yul\":10177:10178   */\n      dup3\n        /* \"#utility.yul\":10174:10175   */\n      dup3\n        /* \"#utility.yul\":10170:10179   */\n      mod\n        /* \"#utility.yul\":10165:10179   */\n      swap1\n      pop\n        /* \"#utility.yul\":10009:10185   */\n      swap3\n      swap2\n      pop\n      pop\n      jump\t// out\n        /* \"#utility.yul\":10191:10309   */\n    tag_103:\n        /* \"#utility.yul\":10278:10302   */\n      tag_202\n        /* \"#utility.yul\":10296:10301   */\n      dup2\n        /* \"#utility.yul\":10278:10302   */\n      tag_81\n      jump\t// in\n    tag_202:\n        /* \"#utility.yul\":10273:10276   */\n      dup3\n        /* \"#utility.yul\":10266:10303   */\n      mstore\n        /* \"#utility.yul\":10191:10309   */\n      pop\n      pop\n      jump\t// out\n        /* \"#utility.yul\":10315:10757   */\n    tag_67:\n        /* \"#utility.yul\":10464:10468   */\n      0x00\n        /* \"#utility.yul\":10502:10504   */\n      0x60\n        /* \"#utility.yul\":10491:10500   */\n      dup3\n        /* \"#utility.yul\":10487:10505   */\n      add\n        /* \"#utility.yul\":10479:10505   */\n      swap1\n      pop\n        /* \"#utility.yul\":10515:10586   */\n      tag_204\n        /* \"#utility.yul\":10583:10584   */\n      0x00\n        /* \"#utility.yul\":10572:10581   */\n      dup4\n        /* \"#utility.yul\":10568:10585   */\n      add\n        /* \"#utility.yul\":10559:10565   */\n      dup7\n        /* \"#utility.yul\":10515:10586   */\n      tag_103\n      jump\t// in\n    tag_204:\n        /* \"#utility.yul\":10596:10668   */\n      tag_205\n        /* \"#utility.yul\":10664:10666   */\n      0x20\n        /* \"#utility.yul\":10653:10662   */\n      dup4\n        /* \"#utility.yul\":10649:10667   */\n      add\n        /* \"#utility.yul\":10640:10646   */\n      dup6\n        /* \"#utility.yul\":10596:10668   */\n      tag_77\n      jump\t// in\n    tag_205:\n        /* \"#utility.yul\":10678:10750   */\n      tag_206\n        /* \"#utility.yul\":10746:10748   */\n      0x40\n        /* \"#utility.yul\":10735:10744   */\n      dup4\n        /* \"#utility.yul\":10731:10749   */\n      add\n        /* \"#utility.yul\":10722:10728   */\n      dup5\n        /* \"#utility.yul\":10678:10750   */\n      tag_89\n      jump\t// in\n    tag_206:\n        /* \"#utility.yul\":10315:10757   */\n      swap5\n      swap4\n      pop\n      pop\n      pop\n      pop\n      jump\t// out\n        /* \"#utility.yul\":10763:11201   */\n    tag_70:\n        /* \"#utility.yul\":10910:10914   */\n      0x00\n        /* \"#utility.yul\":10948:10950   */\n      0x60\n        /* \"#utility.yul\":10937:10946   */\n      dup3\n        /* \"#utility.yul\":10933:10951   */\n      add\n        /* \"#utility.yul\":10925:10951   */\n      swap1\n      pop\n        /* \"#utility.yul\":10961:11032   */\n      tag_208\n        /* \"#utility.yul\":11029:11030   */\n      0x00\n        /* \"#utility.yul\":11018:11027   */\n      dup4\n        /* \"#utility.yul\":11014:11031   */\n      add\n        /* \"#utility.yul\":11005:11011   */\n      dup7\n        /* \"#utility.yul\":10961:11032   */\n      tag_103\n      jump\t// in\n    tag_208:\n        /* \"#utility.yul\":11042:11114   */\n      tag_209\n        /* \"#utility.yul\":11110:11112   */\n      0x20\n        /* \"#utility.yul\":11099:11108   */\n      dup4\n        /* \"#utility.yul\":11095:11113   */\n      add\n        /* \"#utility.yul\":11086:11092   */\n      dup6\n        /* \"#utility.yul\":11042:11114   */\n      tag_77\n      jump\t// in\n    tag_209:\n        /* \"#utility.yul\":11124:11194   */\n      tag_210\n        /* \"#utility.yul\":11190:11192   */\n      0x40\n        /* \"#utility.yul\":11179:11188   */\n      dup4\n        /* \"#utility.yul\":11175:11193   */\n      add\n        /* \"#utility.yul\":11166:11172   */\n      dup5\n        /* \"#utility.yul\":11124:11194   */\n      tag_85\n      jump\t// in\n    tag_210:\n        /* \"#utility.yul\":10763:11201   */\n      swap5\n      swap4\n      pop\n      pop\n      pop\n      pop\n      jump\t// out\n\n    auxdata: 0xa26469706673582212206601e8701b0bca09f4099916282f33f773fbbcb4b6b16d10f9cc4d8ad9823d0664736f6c634300081a0033\n}\n",
				"bytecode": {
					"linkReferences": {},
					"object": "608060405260645f806101000a81548160ff021916908360ff1602179055503480156028575f80fd5b50610e46806100365f395ff3fe608060405234801561000f575f80fd5b506004361061007b575f3560e01c80637b43a8e6116100595780637b43a8e6146100e957806398f42fe31461011b578063b1e27f4914610139578063f14fcbc8146101575761007b565b80633cf5040a1461007f5780636ac5db19146100af578063701fd0f1146100cd575b5f80fd5b61009960048036038101906100949190610824565b610173565b6040516100a6919061085e565b60405180910390f35b6100b76101a2565b6040516100c49190610892565b60405180910390f35b6100e760048036038101906100e29190610824565b6101b2565b005b61010360048036038101906100fe9190610905565b6105bd565b6040516101129392919061096c565b60405180910390f35b610123610603565b60405161013091906109b9565b60405180910390f35b610141610609565b60405161014e9190610892565b60405180910390f35b610171600480360381019061016c9190610824565b61061b565b005b5f8160405160200161018591906109f2565b604051602081830303815290604052805190602001209050919050565b5f8054906101000a900460ff1681565b80601f602081106101c6576101c5610a0c565b5b1a60f81b60f81c60025f6101000a81548160ff021916908360ff16021790555060025f9054906101000a900460ff1660ff166001819055505f151560035f3373ffffffffffffffffffffffffffffffffffffffff1673ffffffffffffffffffffffffffffffffffffffff1681526020019081526020015f2060010160089054906101000a900460ff16151514610291576040517f08c379a000000000000000000000000000000000000000000000000000000000815260040161028890610ab9565b60405180910390fd5b600160035f3373ffffffffffffffffffffffffffffffffffffffff1673ffffffffffffffffffffffffffffffffffffffff1681526020019081526020015f2060010160086101000a81548160ff02191690831515021790555060035f3373ffffffffffffffffffffffffffffffffffffffff1673ffffffffffffffffffffffffffffffffffffffff1681526020019081526020015f205f015461033382610173565b14610373576040517f08c379a000000000000000000000000000000000000000000000000000000000815260040161036a90610b47565b60405180910390fd5b60035f3373ffffffffffffffffffffffffffffffffffffffff1673ffffffffffffffffffffffffffffffffffffffff1681526020019081526020015f206001015f9054906101000a900467ffffffffffffffff1667ffffffffffffffff164367ffffffffffffffff161161041c576040517f08c379a000000000000000000000000000000000000000000000000000000000815260040161041390610bfb565b60405180910390fd5b60fa60035f3373ffffffffffffffffffffffffffffffffffffffff1673ffffffffffffffffffffffffffffffffffffffff1681526020019081526020015f206001015f9054906101000a900467ffffffffffffffff1661047c9190610c46565b67ffffffffffffffff164367ffffffffffffffff1611156104d2576040517f08c379a00000000000000000000000000000000000000000000000000000000081526004016104c990610cf1565b60405180910390fd5b5f60035f3373ffffffffffffffffffffffffffffffffffffffff1673ffffffffffffffffffffffffffffffffffffffff1681526020019081526020015f206001015f9054906101000a900467ffffffffffffffff1667ffffffffffffffff164090505f805f9054906101000a900460ff1660ff168284604051602001610559929190610d0f565b604051602081830303815290604052805190602001205f1c61057b9190610d67565b90507fbc016dd1cadeaefcb851af7a0a93532e0023d536894b730801f7bcfe7065bcc23384836040516105b093929190610da6565b60405180910390a1505050565b6003602052805f5260405f205f91509050805f015490806001015f9054906101000a900467ffffffffffffffff16908060010160089054906101000a900460ff16905083565b60015481565b60025f9054906101000a900460ff1681565b8060035f3373ffffffffffffffffffffffffffffffffffffffff1673ffffffffffffffffffffffffffffffffffffffff1681526020019081526020015f205f01819055504360035f3373ffffffffffffffffffffffffffffffffffffffff1673ffffffffffffffffffffffffffffffffffffffff1681526020019081526020015f206001015f6101000a81548167ffffffffffffffff021916908367ffffffffffffffff1602179055505f60035f3373ffffffffffffffffffffffffffffffffffffffff1673ffffffffffffffffffffffffffffffffffffffff1681526020019081526020015f2060010160086101000a81548160ff0219169083151502179055507f3c1a1f8f38335b17f751c6da4ba7d1865f26b3997535176f5080de9fad8916033360035f3373ffffffffffffffffffffffffffffffffffffffff1673ffffffffffffffffffffffffffffffffffffffff1681526020019081526020015f205f015460035f3373ffffffffffffffffffffffffffffffffffffffff1673ffffffffffffffffffffffffffffffffffffffff1681526020019081526020015f206001015f9054906101000a900467ffffffffffffffff166040516107e293929190610ddb565b60405180910390a150565b5f80fd5b5f819050919050565b610803816107f1565b811461080d575f80fd5b50565b5f8135905061081e816107fa565b92915050565b5f60208284031215610839576108386107ed565b5b5f61084684828501610810565b91505092915050565b610858816107f1565b82525050565b5f6020820190506108715f83018461084f565b92915050565b5f60ff82169050919050565b61088c81610877565b82525050565b5f6020820190506108a55f830184610883565b92915050565b5f73ffffffffffffffffffffffffffffffffffffffff82169050919050565b5f6108d4826108ab565b9050919050565b6108e4816108ca565b81146108ee575f80fd5b50565b5f813590506108ff816108db565b92915050565b5f6020828403121561091a576109196107ed565b5b5f610927848285016108f1565b91505092915050565b5f67ffffffffffffffff82169050919050565b61094c81610930565b82525050565b5f8115159050919050565b61096681610952565b82525050565b5f60608201905061097f5f83018661084f565b61098c6020830185610943565b610999604083018461095d565b949350505050565b5f819050919050565b6109b3816109a1565b82525050565b5f6020820190506109cc5f8301846109aa565b92915050565b5f819050919050565b6109ec6109e7826107f1565b6109d2565b82525050565b5f6109fd82846109db565b60208201915081905092915050565b7f4e487b71000000000000000000000000000000000000000000000000000000005f52603260045260245ffd5b5f82825260208201905092915050565b7f436f6d6d697452657665616c3a3a72657665616c3a20416c72656164792072655f8201527f7665616c65640000000000000000000000000000000000000000000000000000602082015250565b5f610aa3602683610a39565b9150610aae82610a49565b604082019050919050565b5f6020820190508181035f830152610ad081610a97565b9050919050565b7f436f6d6d697452657665616c3a3a72657665616c3a2052657665616c656420685f8201527f61736820646f6573206e6f74206d6174636820636f6d6d697400000000000000602082015250565b5f610b31603983610a39565b9150610b3c82610ad7565b604082019050919050565b5f6020820190508181035f830152610b5e81610b25565b9050919050565b7f436f6d6d697452657665616c3a3a72657665616c3a2052657665616c20616e645f8201527f20636f6d6d69742068617070656e6564206f6e207468652073616d6520626c6f60208201527f636b000000000000000000000000000000000000000000000000000000000000604082015250565b5f610be5604283610a39565b9150610bf082610b65565b606082019050919050565b5f6020820190508181035f830152610c1281610bd9565b9050919050565b7f4e487b71000000000000000000000000000000000000000000000000000000005f52601160045260245ffd5b5f610c5082610930565b9150610c5b83610930565b9250828201905067ffffffffffffffff811115610c7b57610c7a610c19565b5b92915050565b7f436f6d6d697452657665616c3a3a72657665616c3a2052657665616c656420745f8201527f6f6f206c61746500000000000000000000000000000000000000000000000000602082015250565b5f610cdb602783610a39565b9150610ce682610c81565b604082019050919050565b5f6020820190508181035f830152610d0881610ccf565b9050919050565b5f610d1a82856109db565b602082019150610d2a82846109db565b6020820191508190509392505050565b7f4e487b71000000000000000000000000000000000000000000000000000000005f52601260045260245ffd5b5f610d71826109a1565b9150610d7c836109a1565b925082610d8c57610d8b610d3a565b5b828206905092915050565b610da0816108ca565b82525050565b5f606082019050610db95f830186610d97565b610dc6602083018561084f565b610dd360408301846109aa565b949350505050565b5f606082019050610dee5f830186610d97565b610dfb602083018561084f565b610e086040830184610943565b94935050505056fea26469706673582212206601e8701b0bca09f4099916282f33f773fbbcb4b6b16d10f9cc4d8ad9823d0664736f6c634300081a0033",
					"opcodes": "PUSH1 0x80 PUSH1 0x40 MSTORE PUSH1 0x64 PUSH0 DUP1 PUSH2 0x100 EXP DUP2 SLOAD DUP2 PUSH1 0xFF MUL NOT AND SWAP1 DUP4 PUSH1 0xFF AND MUL OR SWAP1 SSTORE POP CALLVALUE DUP1 ISZERO PUSH1 0x28 JUMPI PUSH0 DUP1 REVERT JUMPDEST POP PUSH2 0xE46 DUP1 PUSH2 0x36 PUSH0 CODECOPY PUSH0 RETURN INVALID PUSH1 0x80 PUSH1 0x40 MSTORE CALLVALUE DUP1 ISZERO PUSH2 0xF JUMPI PUSH0 DUP1 REVERT JUMPDEST POP PUSH1 0x4 CALLDATASIZE LT PUSH2 0x7B JUMPI PUSH0 CALLDATALOAD PUSH1 0xE0 SHR DUP1 PUSH4 0x7B43A8E6 GT PUSH2 0x59 JUMPI DUP1 PUSH4 0x7B43A8E6 EQ PUSH2 0xE9 JUMPI DUP1 PUSH4 0x98F42FE3 EQ PUSH2 0x11B JUMPI DUP1 PUSH4 0xB1E27F49 EQ PUSH2 0x139 JUMPI DUP1 PUSH4 0xF14FCBC8 EQ PUSH2 0x157 JUMPI PUSH2 0x7B JUMP JUMPDEST DUP1 PUSH4 0x3CF5040A EQ PUSH2 0x7F JUMPI DUP1 PUSH4 0x6AC5DB19 EQ PUSH2 0xAF JUMPI DUP1 PUSH4 0x701FD0F1 EQ PUSH2 0xCD JUMPI JUMPDEST PUSH0 DUP1 REVERT JUMPDEST PUSH2 0x99 PUSH1 0x4 DUP1 CALLDATASIZE SUB DUP2 ADD SWAP1 PUSH2 0x94 SWAP2 SWAP1 PUSH2 0x824 JUMP JUMPDEST PUSH2 0x173 JUMP JUMPDEST PUSH1 0x40 MLOAD PUSH2 0xA6 SWAP2 SWAP1 PUSH2 0x85E JUMP JUMPDEST PUSH1 0x40 MLOAD DUP1 SWAP2 SUB SWAP1 RETURN JUMPDEST PUSH2 0xB7 PUSH2 0x1A2 JUMP JUMPDEST PUSH1 0x40 MLOAD PUSH2 0xC4 SWAP2 SWAP1 PUSH2 0x892 JUMP JUMPDEST PUSH1 0x40 MLOAD DUP1 SWAP2 SUB SWAP1 RETURN JUMPDEST PUSH2 0xE7 PUSH1 0x4 DUP1 CALLDATASIZE SUB DUP2 ADD SWAP1 PUSH2 0xE2 SWAP2 SWAP1 PUSH2 0x824 JUMP JUMPDEST PUSH2 0x1B2 JUMP JUMPDEST STOP JUMPDEST PUSH2 0x103 PUSH1 0x4 DUP1 CALLDATASIZE SUB DUP2 ADD SWAP1 PUSH2 0xFE SWAP2 SWAP1 PUSH2 0x905 JUMP JUMPDEST PUSH2 0x5BD JUMP JUMPDEST PUSH1 0x40 MLOAD PUSH2 0x112 SWAP4 SWAP3 SWAP2 SWAP1 PUSH2 0x96C JUMP JUMPDEST PUSH1 0x40 MLOAD DUP1 SWAP2 SUB SWAP1 RETURN JUMPDEST PUSH2 0x123 PUSH2 0x603 JUMP JUMPDEST PUSH1 0x40 MLOAD PUSH2 0x130 SWAP2 SWAP1 PUSH2 0x9B9 JUMP JUMPDEST PUSH1 0x40 MLOAD DUP1 SWAP2 SUB SWAP1 RETURN JUMPDEST PUSH2 0x141 PUSH2 0x609 JUMP JUMPDEST PUSH1 0x40 MLOAD PUSH2 0x14E SWAP2 SWAP1 PUSH2 0x892 JUMP JUMPDEST PUSH1 0x40 MLOAD DUP1 SWAP2 SUB SWAP1 RETURN JUMPDEST PUSH2 0x171 PUSH1 0x4 DUP1 CALLDATASIZE SUB DUP2 ADD SWAP1 PUSH2 0x16C SWAP2 SWAP1 PUSH2 0x824 JUMP JUMPDEST PUSH2 0x61B JUMP JUMPDEST STOP JUMPDEST PUSH0 DUP2 PUSH1 0x40 MLOAD PUSH1 0x20 ADD PUSH2 0x185 SWAP2 SWAP1 PUSH2 0x9F2 JUMP JUMPDEST PUSH1 0x40 MLOAD PUSH1 0x20 DUP2 DUP4 SUB SUB DUP2 MSTORE SWAP1 PUSH1 0x40 MSTORE DUP1 MLOAD SWAP1 PUSH1 0x20 ADD KECCAK256 SWAP1 POP SWAP2 SWAP1 POP JUMP JUMPDEST PUSH0 DUP1 SLOAD SWAP1 PUSH2 0x100 EXP SWAP1 DIV PUSH1 0xFF AND DUP2 JUMP JUMPDEST DUP1 PUSH1 0x1F PUSH1 0x20 DUP2 LT PUSH2 0x1C6 JUMPI PUSH2 0x1C5 PUSH2 0xA0C JUMP JUMPDEST JUMPDEST BYTE PUSH1 0xF8 SHL PUSH1 0xF8 SHR PUSH1 0x2 PUSH0 PUSH2 0x100 EXP DUP2 SLOAD DUP2 PUSH1 0xFF MUL NOT AND SWAP1 DUP4 PUSH1 0xFF AND MUL OR SWAP1 SSTORE POP PUSH1 0x2 PUSH0 SWAP1 SLOAD SWAP1 PUSH2 0x100 EXP SWAP1 DIV PUSH1 0xFF AND PUSH1 0xFF AND PUSH1 0x1 DUP2 SWAP1 SSTORE POP PUSH0 ISZERO ISZERO PUSH1 0x3 PUSH0 CALLER PUSH20 0xFFFFFFFFFFFFFFFFFFFFFFFFFFFFFFFFFFFFFFFF AND PUSH20 0xFFFFFFFFFFFFFFFFFFFFFFFFFFFFFFFFFFFFFFFF AND DUP2 MSTORE PUSH1 0x20 ADD SWAP1 DUP2 MSTORE PUSH1 0x20 ADD PUSH0 KECCAK256 PUSH1 0x1 ADD PUSH1 0x8 SWAP1 SLOAD SWAP1 PUSH2 0x100 EXP SWAP1 DIV PUSH1 0xFF AND ISZERO ISZERO EQ PUSH2 0x291 JUMPI PUSH1 0x40 MLOAD PUSH32 0x8C379A000000000000000000000000000000000000000000000000000000000 DUP2 MSTORE PUSH1 0x4 ADD PUSH2 0x288 SWAP1 PUSH2 0xAB9 JUMP JUMPDEST PUSH1 0x40 MLOAD DUP1 SWAP2 SUB SWAP1 REVERT JUMPDEST PUSH1 0x1 PUSH1 0x3 PUSH0 CALLER PUSH20 0xFFFFFFFFFFFFFFFFFFFFFFFFFFFFFFFFFFFFFFFF AND PUSH20 0xFFFFFFFFFFFFFFFFFFFFFFFFFFFFFFFFFFFFFFFF AND DUP2 MSTORE PUSH1 0x20 ADD SWAP1 DUP2 MSTORE PUSH1 0x20 ADD PUSH0 KECCAK256 PUSH1 0x1 ADD PUSH1 0x8 PUSH2 0x100 EXP DUP2 SLOAD DUP2 PUSH1 0xFF MUL NOT AND SWAP1 DUP4 ISZERO ISZERO MUL OR SWAP1 SSTORE POP PUSH1 0x3 PUSH0 CALLER PUSH20 0xFFFFFFFFFFFFFFFFFFFFFFFFFFFFFFFFFFFFFFFF AND PUSH20 0xFFFFFFFFFFFFFFFFFFFFFFFFFFFFFFFFFFFFFFFF AND DUP2 MSTORE PUSH1 0x20 ADD SWAP1 DUP2 MSTORE PUSH1 0x20 ADD PUSH0 KECCAK256 PUSH0 ADD SLOAD PUSH2 0x333 DUP3 PUSH2 0x173 JUMP JUMPDEST EQ PUSH2 0x373 JUMPI PUSH1 0x40 MLOAD PUSH32 0x8C379A000000000000000000000000000000000000000000000000000000000 DUP2 MSTORE PUSH1 0x4 ADD PUSH2 0x36A SWAP1 PUSH2 0xB47 JUMP JUMPDEST PUSH1 0x40 MLOAD DUP1 SWAP2 SUB SWAP1 REVERT JUMPDEST PUSH1 0x3 PUSH0 CALLER PUSH20 0xFFFFFFFFFFFFFFFFFFFFFFFFFFFFFFFFFFFFFFFF AND PUSH20 0xFFFFFFFFFFFFFFFFFFFFFFFFFFFFFFFFFFFFFFFF AND DUP2 MSTORE PUSH1 0x20 ADD SWAP1 DUP2 MSTORE PUSH1 0x20 ADD PUSH0 KECCAK256 PUSH1 0x1 ADD PUSH0 SWAP1 SLOAD SWAP1 PUSH2 0x100 EXP SWAP1 DIV PUSH8 0xFFFFFFFFFFFFFFFF AND PUSH8 0xFFFFFFFFFFFFFFFF AND NUMBER PUSH8 0xFFFFFFFFFFFFFFFF AND GT PUSH2 0x41C JUMPI PUSH1 0x40 MLOAD PUSH32 0x8C379A000000000000000000000000000000000000000000000000000000000 DUP2 MSTORE PUSH1 0x4 ADD PUSH2 0x413 SWAP1 PUSH2 0xBFB JUMP JUMPDEST PUSH1 0x40 MLOAD DUP1 SWAP2 SUB SWAP1 REVERT JUMPDEST PUSH1 0xFA PUSH1 0x3 PUSH0 CALLER PUSH20 0xFFFFFFFFFFFFFFFFFFFFFFFFFFFFFFFFFFFFFFFF AND PUSH20 0xFFFFFFFFFFFFFFFFFFFFFFFFFFFFFFFFFFFFFFFF AND DUP2 MSTORE PUSH1 0x20 ADD SWAP1 DUP2 MSTORE PUSH1 0x20 ADD PUSH0 KECCAK256 PUSH1 0x1 ADD PUSH0 SWAP1 SLOAD SWAP1 PUSH2 0x100 EXP SWAP1 DIV PUSH8 0xFFFFFFFFFFFFFFFF AND PUSH2 0x47C SWAP2 SWAP1 PUSH2 0xC46 JUMP JUMPDEST PUSH8 0xFFFFFFFFFFFFFFFF AND NUMBER PUSH8 0xFFFFFFFFFFFFFFFF AND GT ISZERO PUSH2 0x4D2 JUMPI PUSH1 0x40 MLOAD PUSH32 0x8C379A000000000000000000000000000000000000000000000000000000000 DUP2 MSTORE PUSH1 0x4 ADD PUSH2 0x4C9 SWAP1 PUSH2 0xCF1 JUMP JUMPDEST PUSH1 0x40 MLOAD DUP1 SWAP2 SUB SWAP1 REVERT JUMPDEST PUSH0 PUSH1 0x3 PUSH0 CALLER PUSH20 0xFFFFFFFFFFFFFFFFFFFFFFFFFFFFFFFFFFFFFFFF AND PUSH20 0xFFFFFFFFFFFFFFFFFFFFFFFFFFFFFFFFFFFFFFFF AND DUP2 MSTORE PUSH1 0x20 ADD SWAP1 DUP2 MSTORE PUSH1 0x20 ADD PUSH0 KECCAK256 PUSH1 0x1 ADD PUSH0 SWAP1 SLOAD SWAP1 PUSH2 0x100 EXP SWAP1 DIV PUSH8 0xFFFFFFFFFFFFFFFF AND PUSH8 0xFFFFFFFFFFFFFFFF AND BLOCKHASH SWAP1 POP PUSH0 DUP1 PUSH0 SWAP1 SLOAD SWAP1 PUSH2 0x100 EXP SWAP1 DIV PUSH1 0xFF AND PUSH1 0xFF AND DUP3 DUP5 PUSH1 0x40 MLOAD PUSH1 0x20 ADD PUSH2 0x559 SWAP3 SWAP2 SWAP1 PUSH2 0xD0F JUMP JUMPDEST PUSH1 0x40 MLOAD PUSH1 0x20 DUP2 DUP4 SUB SUB DUP2 MSTORE SWAP1 PUSH1 0x40 MSTORE DUP1 MLOAD SWAP1 PUSH1 0x20 ADD KECCAK256 PUSH0 SHR PUSH2 0x57B SWAP2 SWAP1 PUSH2 0xD67 JUMP JUMPDEST SWAP1 POP PUSH32 0xBC016DD1CADEAEFCB851AF7A0A93532E0023D536894B730801F7BCFE7065BCC2 CALLER DUP5 DUP4 PUSH1 0x40 MLOAD PUSH2 0x5B0 SWAP4 SWAP3 SWAP2 SWAP1 PUSH2 0xDA6 JUMP JUMPDEST PUSH1 0x40 MLOAD DUP1 SWAP2 SUB SWAP1 LOG1 POP POP POP JUMP JUMPDEST PUSH1 0x3 PUSH1 0x20 MSTORE DUP1 PUSH0 MSTORE PUSH1 0x40 PUSH0 KECCAK256 PUSH0 SWAP2 POP SWAP1 POP DUP1 PUSH0 ADD SLOAD SWAP1 DUP1 PUSH1 0x1 ADD PUSH0 SWAP1 SLOAD SWAP1 PUSH2 0x100 EXP SWAP1 DIV PUSH8 0xFFFFFFFFFFFFFFFF AND SWAP1 DUP1 PUSH1 0x1 ADD PUSH1 0x8 SWAP1 SLOAD SWAP1 PUSH2 0x100 EXP SWAP1 DIV PUSH1 0xFF AND SWAP1 POP DUP4 JUMP JUMPDEST PUSH1 0x1 SLOAD DUP2 JUMP JUMPDEST PUSH1 0x2 PUSH0 SWAP1 SLOAD SWAP1 PUSH2 0x100 EXP SWAP1 DIV PUSH1 0xFF AND DUP2 JUMP JUMPDEST DUP1 PUSH1 0x3 PUSH0 CALLER PUSH20 0xFFFFFFFFFFFFFFFFFFFFFFFFFFFFFFFFFFFFFFFF AND PUSH20 0xFFFFFFFFFFFFFFFFFFFFFFFFFFFFFFFFFFFFFFFF AND DUP2 MSTORE PUSH1 0x20 ADD SWAP1 DUP2 MSTORE PUSH1 0x20 ADD PUSH0 KECCAK256 PUSH0 ADD DUP2 SWAP1 SSTORE POP NUMBER PUSH1 0x3 PUSH0 CALLER PUSH20 0xFFFFFFFFFFFFFFFFFFFFFFFFFFFFFFFFFFFFFFFF AND PUSH20 0xFFFFFFFFFFFFFFFFFFFFFFFFFFFFFFFFFFFFFFFF AND DUP2 MSTORE PUSH1 0x20 ADD SWAP1 DUP2 MSTORE PUSH1 0x20 ADD PUSH0 KECCAK256 PUSH1 0x1 ADD PUSH0 PUSH2 0x100 EXP DUP2 SLOAD DUP2 PUSH8 0xFFFFFFFFFFFFFFFF MUL NOT AND SWAP1 DUP4 PUSH8 0xFFFFFFFFFFFFFFFF AND MUL OR SWAP1 SSTORE POP PUSH0 PUSH1 0x3 PUSH0 CALLER PUSH20 0xFFFFFFFFFFFFFFFFFFFFFFFFFFFFFFFFFFFFFFFF AND PUSH20 0xFFFFFFFFFFFFFFFFFFFFFFFFFFFFFFFFFFFFFFFF AND DUP2 MSTORE PUSH1 0x20 ADD SWAP1 DUP2 MSTORE PUSH1 0x20 ADD PUSH0 KECCAK256 PUSH1 0x1 ADD PUSH1 0x8 PUSH2 0x100 EXP DUP2 SLOAD DUP2 PUSH1 0xFF MUL NOT AND SWAP1 DUP4 ISZERO ISZERO MUL OR SWAP1 SSTORE POP PUSH32 0x3C1A1F8F38335B17F751C6DA4BA7D1865F26B3997535176F5080DE9FAD891603 CALLER PUSH1 0x3 PUSH0 CALLER PUSH20 0xFFFFFFFFFFFFFFFFFFFFFFFFFFFFFFFFFFFFFFFF AND PUSH20 0xFFFFFFFFFFFFFFFFFFFFFFFFFFFFFFFFFFFFFFFF AND DUP2 MSTORE PUSH1 0x20 ADD SWAP1 DUP2 MSTORE PUSH1 0x20 ADD PUSH0 KECCAK256 PUSH0 ADD SLOAD PUSH1 0x3 PUSH0 CALLER PUSH20 0xFFFFFFFFFFFFFFFFFFFFFFFFFFFFFFFFFFFFFFFF AND PUSH20 0xFFFFFFFFFFFFFFFFFFFFFFFFFFFFFFFFFFFFFFFF AND DUP2 MSTORE PUSH1 0x20 ADD SWAP1 DUP2 MSTORE PUSH1 0x20 ADD PUSH0 KECCAK256 PUSH1 0x1 ADD PUSH0 SWAP1 SLOAD SWAP1 PUSH2 0x100 EXP SWAP1 DIV PUSH8 0xFFFFFFFFFFFFFFFF AND PUSH1 0x40 MLOAD PUSH2 0x7E2 SWAP4 SWAP3 SWAP2 SWAP1 PUSH2 0xDDB JUMP JUMPDEST PUSH1 0x40 MLOAD DUP1 SWAP2 SUB SWAP1 LOG1 POP JUMP JUMPDEST PUSH0 DUP1 REVERT JUMPDEST PUSH0 DUP2 SWAP1 POP SWAP2 SWAP1 POP JUMP JUMPDEST PUSH2 0x803 DUP2 PUSH2 0x7F1 JUMP JUMPDEST DUP2 EQ PUSH2 0x80D JUMPI PUSH0 DUP1 REVERT JUMPDEST POP JUMP JUMPDEST PUSH0 DUP2 CALLDATALOAD SWAP1 POP PUSH2 0x81E DUP2 PUSH2 0x7FA JUMP JUMPDEST SWAP3 SWAP2 POP POP JUMP JUMPDEST PUSH0 PUSH1 0x20 DUP3 DUP5 SUB SLT ISZERO PUSH2 0x839 JUMPI PUSH2 0x838 PUSH2 0x7ED JUMP JUMPDEST JUMPDEST PUSH0 PUSH2 0x846 DUP5 DUP3 DUP6 ADD PUSH2 0x810 JUMP JUMPDEST SWAP2 POP POP SWAP3 SWAP2 POP POP JUMP JUMPDEST PUSH2 0x858 DUP2 PUSH2 0x7F1 JUMP JUMPDEST DUP3 MSTORE POP POP JUMP JUMPDEST PUSH0 PUSH1 0x20 DUP3 ADD SWAP1 POP PUSH2 0x871 PUSH0 DUP4 ADD DUP5 PUSH2 0x84F JUMP JUMPDEST SWAP3 SWAP2 POP POP JUMP JUMPDEST PUSH0 PUSH1 0xFF DUP3 AND SWAP1 POP SWAP2 SWAP1 POP JUMP JUMPDEST PUSH2 0x88C DUP2 PUSH2 0x877 JUMP JUMPDEST DUP3 MSTORE POP POP JUMP JUMPDEST PUSH0 PUSH1 0x20 DUP3 ADD SWAP1 POP PUSH2 0x8A5 PUSH0 DUP4 ADD DUP5 PUSH2 0x883 JUMP JUMPDEST SWAP3 SWAP2 POP POP JUMP JUMPDEST PUSH0 PUSH20 0xFFFFFFFFFFFFFFFFFFFFFFFFFFFFFFFFFFFFFFFF DUP3 AND SWAP1 POP SWAP2 SWAP1 POP JUMP JUMPDEST PUSH0 PUSH2 0x8D4 DUP3 PUSH2 0x8AB JUMP JUMPDEST SWAP1 POP SWAP2 SWAP1 POP JUMP JUMPDEST PUSH2 0x8E4 DUP2 PUSH2 0x8CA JUMP JUMPDEST DUP2 EQ PUSH2 0x8EE JUMPI PUSH0 DUP1 REVERT JUMPDEST POP JUMP JUMPDEST PUSH0 DUP2 CALLDATALOAD SWAP1 POP PUSH2 0x8FF DUP2 PUSH2 0x8DB JUMP JUMPDEST SWAP3 SWAP2 POP POP JUMP JUMPDEST PUSH0 PUSH1 0x20 DUP3 DUP5 SUB SLT ISZERO PUSH2 0x91A JUMPI PUSH2 0x919 PUSH2 0x7ED JUMP JUMPDEST JUMPDEST PUSH0 PUSH2 0x927 DUP5 DUP3 DUP6 ADD PUSH2 0x8F1 JUMP JUMPDEST SWAP2 POP POP SWAP3 SWAP2 POP POP JUMP JUMPDEST PUSH0 PUSH8 0xFFFFFFFFFFFFFFFF DUP3 AND SWAP1 POP SWAP2 SWAP1 POP JUMP JUMPDEST PUSH2 0x94C DUP2 PUSH2 0x930 JUMP JUMPDEST DUP3 MSTORE POP POP JUMP JUMPDEST PUSH0 DUP2 ISZERO ISZERO SWAP1 POP SWAP2 SWAP1 POP JUMP JUMPDEST PUSH2 0x966 DUP2 PUSH2 0x952 JUMP JUMPDEST DUP3 MSTORE POP POP JUMP JUMPDEST PUSH0 PUSH1 0x60 DUP3 ADD SWAP1 POP PUSH2 0x97F PUSH0 DUP4 ADD DUP7 PUSH2 0x84F JUMP JUMPDEST PUSH2 0x98C PUSH1 0x20 DUP4 ADD DUP6 PUSH2 0x943 JUMP JUMPDEST PUSH2 0x999 PUSH1 0x40 DUP4 ADD DUP5 PUSH2 0x95D JUMP JUMPDEST SWAP5 SWAP4 POP POP POP POP JUMP JUMPDEST PUSH0 DUP2 SWAP1 POP SWAP2 SWAP1 POP JUMP JUMPDEST PUSH2 0x9B3 DUP2 PUSH2 0x9A1 JUMP JUMPDEST DUP3 MSTORE POP POP JUMP JUMPDEST PUSH0 PUSH1 0x20 DUP3 ADD SWAP1 POP PUSH2 0x9CC PUSH0 DUP4 ADD DUP5 PUSH2 0x9AA JUMP JUMPDEST SWAP3 SWAP2 POP POP JUMP JUMPDEST PUSH0 DUP2 SWAP1 POP SWAP2 SWAP1 POP JUMP JUMPDEST PUSH2 0x9EC PUSH2 0x9E7 DUP3 PUSH2 0x7F1 JUMP JUMPDEST PUSH2 0x9D2 JUMP JUMPDEST DUP3 MSTORE POP POP JUMP JUMPDEST PUSH0 PUSH2 0x9FD DUP3 DUP5 PUSH2 0x9DB JUMP JUMPDEST PUSH1 0x20 DUP3 ADD SWAP2 POP DUP2 SWAP1 POP SWAP3 SWAP2 POP POP JUMP JUMPDEST PUSH32 0x4E487B7100000000000000000000000000000000000000000000000000000000 PUSH0 MSTORE PUSH1 0x32 PUSH1 0x4 MSTORE PUSH1 0x24 PUSH0 REVERT JUMPDEST PUSH0 DUP3 DUP3 MSTORE PUSH1 0x20 DUP3 ADD SWAP1 POP SWAP3 SWAP2 POP POP JUMP JUMPDEST PUSH32 0x436F6D6D697452657665616C3A3A72657665616C3A20416C7265616479207265 PUSH0 DUP3 ADD MSTORE PUSH32 0x7665616C65640000000000000000000000000000000000000000000000000000 PUSH1 0x20 DUP3 ADD MSTORE POP JUMP JUMPDEST PUSH0 PUSH2 0xAA3 PUSH1 0x26 DUP4 PUSH2 0xA39 JUMP JUMPDEST SWAP2 POP PUSH2 0xAAE DUP3 PUSH2 0xA49 JUMP JUMPDEST PUSH1 0x40 DUP3 ADD SWAP1 POP SWAP2 SWAP1 POP JUMP JUMPDEST PUSH0 PUSH1 0x20 DUP3 ADD SWAP1 POP DUP2 DUP2 SUB PUSH0 DUP4 ADD MSTORE PUSH2 0xAD0 DUP2 PUSH2 0xA97 JUMP JUMPDEST SWAP1 POP SWAP2 SWAP1 POP JUMP JUMPDEST PUSH32 0x436F6D6D697452657665616C3A3A72657665616C3A2052657665616C65642068 PUSH0 DUP3 ADD MSTORE PUSH32 0x61736820646F6573206E6F74206D6174636820636F6D6D697400000000000000 PUSH1 0x20 DUP3 ADD MSTORE POP JUMP JUMPDEST PUSH0 PUSH2 0xB31 PUSH1 0x39 DUP4 PUSH2 0xA39 JUMP JUMPDEST SWAP2 POP PUSH2 0xB3C DUP3 PUSH2 0xAD7 JUMP JUMPDEST PUSH1 0x40 DUP3 ADD SWAP1 POP SWAP2 SWAP1 POP JUMP JUMPDEST PUSH0 PUSH1 0x20 DUP3 ADD SWAP1 POP DUP2 DUP2 SUB PUSH0 DUP4 ADD MSTORE PUSH2 0xB5E DUP2 PUSH2 0xB25 JUMP JUMPDEST SWAP1 POP SWAP2 SWAP1 POP JUMP JUMPDEST PUSH32 0x436F6D6D697452657665616C3A3A72657665616C3A2052657665616C20616E64 PUSH0 DUP3 ADD MSTORE PUSH32 0x20636F6D6D69742068617070656E6564206F6E207468652073616D6520626C6F PUSH1 0x20 DUP3 ADD MSTORE PUSH32 0x636B000000000000000000000000000000000000000000000000000000000000 PUSH1 0x40 DUP3 ADD MSTORE POP JUMP JUMPDEST PUSH0 PUSH2 0xBE5 PUSH1 0x42 DUP4 PUSH2 0xA39 JUMP JUMPDEST SWAP2 POP PUSH2 0xBF0 DUP3 PUSH2 0xB65 JUMP JUMPDEST PUSH1 0x60 DUP3 ADD SWAP1 POP SWAP2 SWAP1 POP JUMP JUMPDEST PUSH0 PUSH1 0x20 DUP3 ADD SWAP1 POP DUP2 DUP2 SUB PUSH0 DUP4 ADD MSTORE PUSH2 0xC12 DUP2 PUSH2 0xBD9 JUMP JUMPDEST SWAP1 POP SWAP2 SWAP1 POP JUMP JUMPDEST PUSH32 0x4E487B7100000000000000000000000000000000000000000000000000000000 PUSH0 MSTORE PUSH1 0x11 PUSH1 0x4 MSTORE PUSH1 0x24 PUSH0 REVERT JUMPDEST PUSH0 PUSH2 0xC50 DUP3 PUSH2 0x930 JUMP JUMPDEST SWAP2 POP PUSH2 0xC5B DUP4 PUSH2 0x930 JUMP JUMPDEST SWAP3 POP DUP3 DUP3 ADD SWAP1 POP PUSH8 0xFFFFFFFFFFFFFFFF DUP2 GT ISZERO PUSH2 0xC7B JUMPI PUSH2 0xC7A PUSH2 0xC19 JUMP JUMPDEST JUMPDEST SWAP3 SWAP2 POP POP JUMP JUMPDEST PUSH32 0x436F6D6D697452657665616C3A3A72657665616C3A2052657665616C65642074 PUSH0 DUP3 ADD MSTORE PUSH32 0x6F6F206C61746500000000000000000000000000000000000000000000000000 PUSH1 0x20 DUP3 ADD MSTORE POP JUMP JUMPDEST PUSH0 PUSH2 0xCDB PUSH1 0x27 DUP4 PUSH2 0xA39 JUMP JUMPDEST SWAP2 POP PUSH2 0xCE6 DUP3 PUSH2 0xC81 JUMP JUMPDEST PUSH1 0x40 DUP3 ADD SWAP1 POP SWAP2 SWAP1 POP JUMP JUMPDEST PUSH0 PUSH1 0x20 DUP3 ADD SWAP1 POP DUP2 DUP2 SUB PUSH0 DUP4 ADD MSTORE PUSH2 0xD08 DUP2 PUSH2 0xCCF JUMP JUMPDEST SWAP1 POP SWAP2 SWAP1 POP JUMP JUMPDEST PUSH0 PUSH2 0xD1A DUP3 DUP6 PUSH2 0x9DB JUMP JUMPDEST PUSH1 0x20 DUP3 ADD SWAP2 POP PUSH2 0xD2A DUP3 DUP5 PUSH2 0x9DB JUMP JUMPDEST PUSH1 0x20 DUP3 ADD SWAP2 POP DUP2 SWAP1 POP SWAP4 SWAP3 POP POP POP JUMP JUMPDEST PUSH32 0x4E487B7100000000000000000000000000000000000000000000000000000000 PUSH0 MSTORE PUSH1 0x12 PUSH1 0x4 MSTORE PUSH1 0x24 PUSH0 REVERT JUMPDEST PUSH0 PUSH2 0xD71 DUP3 PUSH2 0x9A1 JUMP JUMPDEST SWAP2 POP PUSH2 0xD7C DUP4 PUSH2 0x9A1 JUMP JUMPDEST SWAP3 POP DUP3 PUSH2 0xD8C JUMPI PUSH2 0xD8B PUSH2 0xD3A JUMP JUMPDEST JUMPDEST DUP3 DUP3 MOD SWAP1 POP SWAP3 SWAP2 POP POP JUMP JUMPDEST PUSH2 0xDA0 DUP2 PUSH2 0x8CA JUMP JUMPDEST DUP3 MSTORE POP POP JUMP JUMPDEST PUSH0 PUSH1 0x60 DUP3 ADD SWAP1 POP PUSH2 0xDB9 PUSH0 DUP4 ADD DUP7 PUSH2 0xD97 JUMP JUMPDEST PUSH2 0xDC6 PUSH1 0x20 DUP4 ADD DUP6 PUSH2 0x84F JUMP JUMPDEST PUSH2 0xDD3 PUSH1 0x40 DUP4 ADD DUP5 PUSH2 0x9AA JUMP JUMPDEST SWAP5 SWAP4 POP POP POP POP JUMP JUMPDEST PUSH0 PUSH1 0x60 DUP3 ADD SWAP1 POP PUSH2 0xDEE PUSH0 DUP4 ADD DUP7 PUSH2 0xD97 JUMP JUMPDEST PUSH2 0xDFB PUSH1 0x20 DUP4 ADD DUP6 PUSH2 0x84F JUMP JUMPDEST PUSH2 0xE08 PUSH1 0x40 DUP4 ADD DUP5 PUSH2 0x943 JUMP JUMPDEST SWAP5 SWAP4 POP POP POP POP JUMP INVALID LOG2 PUSH5 0x6970667358 0x22 SLT KECCAK256 PUSH7 0x1E8701B0BCA09 DELEGATECALL MULMOD SWAP10 AND 0x28 0x2F CALLER 0xF7 PUSH20 0xFBBCB4B6B16D10F9CC4D8AD9823D0664736F6C63 NUMBER STOP ADDMOD BYTE STOP CALLER "
				},
				"gasEstimates": {
					"creation": {
						"codeDepositCost": "730800",
						"executionCost": "25030",
						"totalCost": "755830"
					},
					"external": {
						"bchoice()": "2510",
						"choice()": "2447",
						"commit(bytes32)": "infinite",
						"commits(address)": "7370",
						"getHash(bytes32)": "infinite",
						"max()": "2486",
						"reveal(bytes32)": "infinite"
					}
				},
				"methodIdentifiers": {
					"bchoice()": "b1e27f49",
					"choice()": "98f42fe3",
					"commit(bytes32)": "f14fcbc8",
					"commits(address)": "7b43a8e6",
					"getHash(bytes32)": "3cf5040a",
					"max()": "6ac5db19",
					"reveal(bytes32)": "701fd0f1"
				}
			},
			"storageLayout": {
				"storage": [
					{
						"astId": 4,
						"contract": "CommitReveal.sol:CommitReveal",
						"label": "max",
						"offset": 0,
						"slot": "0",
						"type": "t_uint8"
					},
					{
						"astId": 13,
						"contract": "CommitReveal.sol:CommitReveal",
						"label": "choice",
						"offset": 0,
						"slot": "1",
						"type": "t_uint256"
					},
					{
						"astId": 15,
						"contract": "CommitReveal.sol:CommitReveal",
						"label": "bchoice",
						"offset": 0,
						"slot": "2",
						"type": "t_uint8"
					},
					{
						"astId": 20,
						"contract": "CommitReveal.sol:CommitReveal",
						"label": "commits",
						"offset": 0,
						"slot": "3",
						"type": "t_mapping(t_address,t_struct(Commit)11_storage)"
					}
				],
				"types": {
					"t_address": {
						"encoding": "inplace",
						"label": "address",
						"numberOfBytes": "20"
					},
					"t_bool": {
						"encoding": "inplace",
						"label": "bool",
						"numberOfBytes": "1"
					},
					"t_bytes32": {
						"encoding": "inplace",
						"label": "bytes32",
						"numberOfBytes": "32"
					},
					"t_mapping(t_address,t_struct(Commit)11_storage)": {
						"encoding": "mapping",
						"key": "t_address",
						"label": "mapping(address => struct CommitReveal.Commit)",
						"numberOfBytes": "32",
						"value": "t_struct(Commit)11_storage"
					},
					"t_struct(Commit)11_storage": {
						"encoding": "inplace",
						"label": "struct CommitReveal.Commit",
						"members": [
							{
								"astId": 6,
								"contract": "CommitReveal.sol:CommitReveal",
								"label": "commit",
								"offset": 0,
								"slot": "0",
								"type": "t_bytes32"
							},
							{
								"astId": 8,
								"contract": "CommitReveal.sol:CommitReveal",
								"label": "block",
								"offset": 0,
								"slot": "1",
								"type": "t_uint64"
							},
							{
								"astId": 10,
								"contract": "CommitReveal.sol:CommitReveal",
								"label": "revealed",
								"offset": 8,
								"slot": "1",
								"type": "t_bool"
							}
						],
						"numberOfBytes": "64"
					},
					"t_uint256": {
						"encoding": "inplace",
						"label": "uint256",
						"numberOfBytes": "32"
					},
					"t_uint64": {
						"encoding": "inplace",
						"label": "uint64",
						"numberOfBytes": "8"
					},
					"t_uint8": {
						"encoding": "inplace",
						"label": "uint8",
						"numberOfBytes": "1"
					}
				}
			},
			"userdoc": {
				"kind": "user",
				"methods": {},
				"version": 1
			}
		}
	}
}