{
	"RPS.sol": {
		"RPS": {
			"abi": [
				{
					"inputs": [],
					"stateMutability": "nonpayable",
					"type": "constructor"
				},
				{
					"anonymous": false,
					"inputs": [
						{
							"indexed": false,
							"internalType": "address",
							"name": "sender",
							"type": "address"
						},
						{
							"indexed": false,
							"internalType": "bytes32",
							"name": "dataHash",
							"type": "bytes32"
						},
						{
							"indexed": false,
							"internalType": "uint64",
							"name": "block",
							"type": "uint64"
						}
					],
					"name": "CommitHash",
					"type": "event"
				},
				{
					"anonymous": false,
					"inputs": [
						{
							"indexed": false,
							"internalType": "address",
							"name": "sender",
							"type": "address"
						},
						{
							"indexed": false,
							"internalType": "bytes32",
							"name": "revealHash",
							"type": "bytes32"
						},
						{
							"indexed": false,
							"internalType": "uint256",
							"name": "random",
							"type": "uint256"
						}
					],
					"name": "RevealHash",
					"type": "event"
				},
				{
					"anonymous": false,
					"inputs": [
						{
							"indexed": false,
							"internalType": "address",
							"name": "sender",
							"type": "address"
						},
						{
							"indexed": false,
							"internalType": "uint256",
							"name": "numPlayer",
							"type": "uint256"
						}
					],
					"name": "playerAdded",
					"type": "event"
				},
				{
					"anonymous": false,
					"inputs": [
						{
							"indexed": false,
							"internalType": "address",
							"name": "sender",
							"type": "address"
						},
						{
							"indexed": false,
							"internalType": "uint256",
							"name": "numInput",
							"type": "uint256"
						}
					],
					"name": "playerCommitHashed",
					"type": "event"
				},
				{
					"inputs": [],
					"name": "addPlayer",
					"outputs": [],
					"stateMutability": "payable",
					"type": "function"
				},
				{
					"inputs": [
						{
							"internalType": "address",
							"name": "",
							"type": "address"
						}
					],
					"name": "commits",
					"outputs": [
						{
							"internalType": "bytes32",
							"name": "commit",
							"type": "bytes32"
						},
						{
							"internalType": "uint64",
							"name": "block",
							"type": "uint64"
						},
						{
							"internalType": "bool",
							"name": "revealed",
							"type": "bool"
						}
					],
					"stateMutability": "view",
					"type": "function"
				},
				{
					"inputs": [],
					"name": "elapsedMinutes",
					"outputs": [
						{
							"internalType": "uint256",
							"name": "",
							"type": "uint256"
						}
					],
					"stateMutability": "view",
					"type": "function"
				},
				{
					"inputs": [],
					"name": "elapsedSeconds",
					"outputs": [
						{
							"internalType": "uint256",
							"name": "",
							"type": "uint256"
						}
					],
					"stateMutability": "view",
					"type": "function"
				},
				{
					"inputs": [
						{
							"internalType": "uint8",
							"name": "choice",
							"type": "uint8"
						},
						{
							"internalType": "string",
							"name": "salt",
							"type": "string"
						}
					],
					"name": "generateRandomBytes32",
					"outputs": [
						{
							"internalType": "bytes32",
							"name": "",
							"type": "bytes32"
						}
					],
					"stateMutability": "view",
					"type": "function"
				},
				{
					"inputs": [
						{
							"internalType": "bytes32",
							"name": "data",
							"type": "bytes32"
						}
					],
					"name": "getHash",
					"outputs": [
						{
							"internalType": "bytes32",
							"name": "",
							"type": "bytes32"
						}
					],
					"stateMutability": "pure",
					"type": "function"
				},
				{
					"inputs": [
						{
							"internalType": "bytes32",
							"name": "hashAns",
							"type": "bytes32"
						}
					],
					"name": "input",
					"outputs": [],
					"stateMutability": "nonpayable",
					"type": "function"
				},
				{
					"inputs": [
						{
							"internalType": "address",
							"name": "",
							"type": "address"
						}
					],
					"name": "isCommit",
					"outputs": [
						{
							"internalType": "bool",
							"name": "",
							"type": "bool"
						}
					],
					"stateMutability": "view",
					"type": "function"
				},
				{
					"inputs": [],
					"name": "max",
					"outputs": [
						{
							"internalType": "uint8",
							"name": "",
							"type": "uint8"
						}
					],
					"stateMutability": "view",
					"type": "function"
				},
				{
					"inputs": [],
					"name": "numInput",
					"outputs": [
						{
							"internalType": "uint256",
							"name": "",
							"type": "uint256"
						}
					],
					"stateMutability": "view",
					"type": "function"
				},
				{
					"inputs": [],
					"name": "numPlayer",
					"outputs": [
						{
							"internalType": "uint256",
							"name": "",
							"type": "uint256"
						}
					],
					"stateMutability": "view",
					"type": "function"
				},
				{
					"inputs": [],
					"name": "numReveal",
					"outputs": [
						{
							"internalType": "uint256",
							"name": "",
							"type": "uint256"
						}
					],
					"stateMutability": "view",
					"type": "function"
				},
				{
					"inputs": [
						{
							"internalType": "address",
							"name": "",
							"type": "address"
						}
					],
					"name": "player_choice",
					"outputs": [
						{
							"internalType": "uint256",
							"name": "",
							"type": "uint256"
						}
					],
					"stateMutability": "view",
					"type": "function"
				},
				{
					"inputs": [
						{
							"internalType": "address",
							"name": "",
							"type": "address"
						}
					],
					"name": "player_not_played",
					"outputs": [
						{
							"internalType": "bool",
							"name": "",
							"type": "bool"
						}
					],
					"stateMutability": "view",
					"type": "function"
				},
				{
					"inputs": [
						{
							"internalType": "uint256",
							"name": "",
							"type": "uint256"
						}
					],
					"name": "players",
					"outputs": [
						{
							"internalType": "address",
							"name": "",
							"type": "address"
						}
					],
					"stateMutability": "view",
					"type": "function"
				},
				{
					"inputs": [
						{
							"internalType": "bytes32",
							"name": "hashChoice",
							"type": "bytes32"
						}
					],
					"name": "revealChoice",
					"outputs": [],
					"stateMutability": "nonpayable",
					"type": "function"
				},
				{
					"inputs": [],
					"name": "reward",
					"outputs": [
						{
							"internalType": "uint256",
							"name": "",
							"type": "uint256"
						}
					],
					"stateMutability": "view",
					"type": "function"
				},
				{
					"inputs": [],
					"name": "startTime",
					"outputs": [
						{
							"internalType": "uint256",
							"name": "",
							"type": "uint256"
						}
					],
					"stateMutability": "view",
					"type": "function"
				},
				{
					"inputs": [],
					"name": "timeOutWithDraw",
					"outputs": [],
					"stateMutability": "nonpayable",
					"type": "function"
				},
				{
					"inputs": [],
					"name": "timeoutDeration",
					"outputs": [
						{
							"internalType": "uint256",
							"name": "",
							"type": "uint256"
						}
					],
					"stateMutability": "view",
					"type": "function"
				}
			],
			"devdoc": {
				"kind": "dev",
				"methods": {},
				"version": 1
			},
			"evm": {
				"assembly": "    /* \"RPS.sol\":134:6313  contract RPS is CommitReveal, TimeUnit {... */\n  mstore(0x40, 0x80)\n    /* \"CommitReveal.sol\":122:125  100 */\n  0x64\n    /* \"CommitReveal.sol\":103:125  uint8 public max = 100 */\n  0x00\n  dup1\n  0x0100\n  exp\n  dup2\n  sload\n  dup2\n  0xff\n  mul\n  not\n  and\n  swap1\n  dup4\n  0xff\n  and\n  mul\n  or\n  swap1\n  sstore\n  pop\n    /* \"RPS.sol\":204:205  0 */\n  0x00\n    /* \"RPS.sol\":180:205  uint public numPlayer = 0 */\n  0x03\n  sstore\n    /* \"RPS.sol\":233:234  0 */\n  0x00\n    /* \"RPS.sol\":212:234  uint public reward = 0 */\n  0x04\n  sstore\n    /* \"RPS.sol\":529:530  0 */\n  0x00\n    /* \"RPS.sol\":506:530  uint public numInput = 0 */\n  0x09\n  sstore\n    /* \"RPS.sol\":561:562  0 */\n  0x00\n    /* \"RPS.sol\":537:562  uint public numReveal = 0 */\n  0x0a\n  sstore\n    /* \"RPS.sol\":599:608  1 minutes */\n  0x3c\n    /* \"RPS.sol\":569:608  uint public timeoutDeration = 1 minutes */\n  0x0b\n  sstore\n    /* \"RPS.sol\":727:1069  constructor() {... */\n  callvalue\n  dup1\n  iszero\n  tag_1\n  jumpi\n  0x00\n  dup1\n  revert\ntag_1:\n  pop\n    /* \"RPS.sol\":817:821  true */\n  0x01\n    /* \"RPS.sol\":752:770  whitelistedPlayers */\n  0x0c\n    /* \"RPS.sol\":752:814  whitelistedPlayers[0x5B38Da6a701c568545dCfcB03FcB875f56beddC4] */\n  0x00\n    /* \"RPS.sol\":771:813  0x5B38Da6a701c568545dCfcB03FcB875f56beddC4 */\n  0x5b38da6a701c568545dcfcb03fcb875f56beddc4\n    /* \"RPS.sol\":752:814  whitelistedPlayers[0x5B38Da6a701c568545dCfcB03FcB875f56beddC4] */\n  0xffffffffffffffffffffffffffffffffffffffff\n  and\n  0xffffffffffffffffffffffffffffffffffffffff\n  and\n  dup2\n  mstore\n  0x20\n  add\n  swap1\n  dup2\n  mstore\n  0x20\n  add\n  0x00\n  keccak256\n  0x00\n    /* \"RPS.sol\":752:821  whitelistedPlayers[0x5B38Da6a701c568545dCfcB03FcB875f56beddC4] = true */\n  0x0100\n  exp\n  dup2\n  sload\n  dup2\n  0xff\n  mul\n  not\n  and\n  swap1\n  dup4\n  iszero\n  iszero\n  mul\n  or\n  swap1\n  sstore\n  pop\n    /* \"RPS.sol\":897:901  true */\n  0x01\n    /* \"RPS.sol\":832:850  whitelistedPlayers */\n  0x0c\n    /* \"RPS.sol\":832:894  whitelistedPlayers[0xAb8483F64d9C6d1EcF9b849Ae677dD3315835cb2] */\n  0x00\n    /* \"RPS.sol\":851:893  0xAb8483F64d9C6d1EcF9b849Ae677dD3315835cb2 */\n  0xab8483f64d9c6d1ecf9b849ae677dd3315835cb2\n    /* \"RPS.sol\":832:894  whitelistedPlayers[0xAb8483F64d9C6d1EcF9b849Ae677dD3315835cb2] */\n  0xffffffffffffffffffffffffffffffffffffffff\n  and\n  0xffffffffffffffffffffffffffffffffffffffff\n  and\n  dup2\n  mstore\n  0x20\n  add\n  swap1\n  dup2\n  mstore\n  0x20\n  add\n  0x00\n  keccak256\n  0x00\n    /* \"RPS.sol\":832:901  whitelistedPlayers[0xAb8483F64d9C6d1EcF9b849Ae677dD3315835cb2] = true */\n  0x0100\n  exp\n  dup2\n  sload\n  dup2\n  0xff\n  mul\n  not\n  and\n  swap1\n  dup4\n  iszero\n  iszero\n  mul\n  or\n  swap1\n  sstore\n  pop\n    /* \"RPS.sol\":977:981  true */\n  0x01\n    /* \"RPS.sol\":912:930  whitelistedPlayers */\n  0x0c\n    /* \"RPS.sol\":912:974  whitelistedPlayers[0x4B20993Bc481177ec7E8f571ceCaE8A9e22C02db] */\n  0x00\n    /* \"RPS.sol\":931:973  0x4B20993Bc481177ec7E8f571ceCaE8A9e22C02db */\n  0x4b20993bc481177ec7e8f571cecae8a9e22c02db\n    /* \"RPS.sol\":912:974  whitelistedPlayers[0x4B20993Bc481177ec7E8f571ceCaE8A9e22C02db] */\n  0xffffffffffffffffffffffffffffffffffffffff\n  and\n  0xffffffffffffffffffffffffffffffffffffffff\n  and\n  dup2\n  mstore\n  0x20\n  add\n  swap1\n  dup2\n  mstore\n  0x20\n  add\n  0x00\n  keccak256\n  0x00\n    /* \"RPS.sol\":912:981  whitelistedPlayers[0x4B20993Bc481177ec7E8f571ceCaE8A9e22C02db] = true */\n  0x0100\n  exp\n  dup2\n  sload\n  dup2\n  0xff\n  mul\n  not\n  and\n  swap1\n  dup4\n  iszero\n  iszero\n  mul\n  or\n  swap1\n  sstore\n  pop\n    /* \"RPS.sol\":1057:1061  true */\n  0x01\n    /* \"RPS.sol\":992:1010  whitelistedPlayers */\n  0x0c\n    /* \"RPS.sol\":992:1054  whitelistedPlayers[0x78731D3Ca6b7E34aC0F824c42a7cC18A495cabaB] */\n  0x00\n    /* \"RPS.sol\":1011:1053  0x78731D3Ca6b7E34aC0F824c42a7cC18A495cabaB */\n  0x78731d3ca6b7e34ac0f824c42a7cc18a495cabab\n    /* \"RPS.sol\":992:1054  whitelistedPlayers[0x78731D3Ca6b7E34aC0F824c42a7cC18A495cabaB] */\n  0xffffffffffffffffffffffffffffffffffffffff\n  and\n  0xffffffffffffffffffffffffffffffffffffffff\n  and\n  dup2\n  mstore\n  0x20\n  add\n  swap1\n  dup2\n  mstore\n  0x20\n  add\n  0x00\n  keccak256\n  0x00\n    /* \"RPS.sol\":992:1061  whitelistedPlayers[0x78731D3Ca6b7E34aC0F824c42a7cC18A495cabaB] = true */\n  0x0100\n  exp\n  dup2\n  sload\n  dup2\n  0xff\n  mul\n  not\n  and\n  swap1\n  dup4\n  iszero\n  iszero\n  mul\n  or\n  swap1\n  sstore\n  pop\n    /* \"RPS.sol\":134:6313  contract RPS is CommitReveal, TimeUnit {... */\n  dataSize(sub_0)\n  dup1\n  dataOffset(sub_0)\n  0x00\n  codecopy\n  0x00\n  return\nstop\n\nsub_0: assembly {\n        /* \"RPS.sol\":134:6313  contract RPS is CommitReveal, TimeUnit {... */\n      mstore(0x40, 0x80)\n      jumpi(tag_1, lt(calldatasize, 0x04))\n      shr(0xe0, calldataload(0x00))\n      dup1\n      0x6ac5db19\n      gt\n      tag_22\n      jumpi\n      dup1\n      0xbc06b8cd\n      gt\n      tag_23\n      jumpi\n      dup1\n      0xbc06b8cd\n      eq\n      tag_17\n      jumpi\n      dup1\n      0xc876e615\n      eq\n      tag_18\n      jumpi\n      dup1\n      0xd891f969\n      eq\n      tag_19\n      jumpi\n      dup1\n      0xd97c8416\n      eq\n      tag_20\n      jumpi\n      dup1\n      0xf71d96cb\n      eq\n      tag_21\n      jumpi\n      jump(tag_1)\n    tag_23:\n      dup1\n      0x6ac5db19\n      eq\n      tag_12\n      jumpi\n      dup1\n      0x78e97925\n      eq\n      tag_13\n      jumpi\n      dup1\n      0x7b43a8e6\n      eq\n      tag_14\n      jumpi\n      dup1\n      0x90d5d0c3\n      eq\n      tag_15\n      jumpi\n      dup1\n      0xa040478d\n      eq\n      tag_16\n      jumpi\n      jump(tag_1)\n    tag_22:\n      dup1\n      0x3cf5040a\n      gt\n      tag_24\n      jumpi\n      dup1\n      0x3cf5040a\n      eq\n      tag_7\n      jumpi\n      dup1\n      0x3e2b58e0\n      eq\n      tag_8\n      jumpi\n      dup1\n      0x43cdd438\n      eq\n      tag_9\n      jumpi\n      dup1\n      0x558d51c6\n      eq\n      tag_10\n      jumpi\n      dup1\n      0x65ce0ac6\n      eq\n      tag_11\n      jumpi\n      jump(tag_1)\n    tag_24:\n      dup1\n      0x086f7815\n      eq\n      tag_2\n      jumpi\n      dup1\n      0x190cf745\n      eq\n      tag_3\n      jumpi\n      dup1\n      0x228cb733\n      eq\n      tag_4\n      jumpi\n      dup1\n      0x27b5db8a\n      eq\n      tag_5\n      jumpi\n      dup1\n      0x2cd87161\n      eq\n      tag_6\n      jumpi\n    tag_1:\n      0x00\n      dup1\n      revert\n        /* \"RPS.sol\":506:530  uint public numInput = 0 */\n    tag_2:\n      callvalue\n      dup1\n      iszero\n      tag_25\n      jumpi\n      0x00\n      dup1\n      revert\n    tag_25:\n      pop\n      tag_26\n      tag_27\n      jump\t// in\n    tag_26:\n      mload(0x40)\n      tag_28\n      swap2\n      swap1\n      tag_29\n      jump\t// in\n    tag_28:\n      mload(0x40)\n      dup1\n      swap2\n      sub\n      swap1\n      return\n        /* \"RPS.sol\":369:418  mapping(address => bool) public player_not_played */\n    tag_3:\n      callvalue\n      dup1\n      iszero\n      tag_30\n      jumpi\n      0x00\n      dup1\n      revert\n    tag_30:\n      pop\n      tag_31\n      0x04\n      dup1\n      calldatasize\n      sub\n      dup2\n      add\n      swap1\n      tag_32\n      swap2\n      swap1\n      tag_33\n      jump\t// in\n    tag_32:\n      tag_34\n      jump\t// in\n    tag_31:\n      mload(0x40)\n      tag_35\n      swap2\n      swap1\n      tag_36\n      jump\t// in\n    tag_35:\n      mload(0x40)\n      dup1\n      swap2\n      sub\n      swap1\n      return\n        /* \"RPS.sol\":212:234  uint public reward = 0 */\n    tag_4:\n      callvalue\n      dup1\n      iszero\n      tag_37\n      jumpi\n      0x00\n      dup1\n      revert\n    tag_37:\n      pop\n      tag_38\n      tag_39\n      jump\t// in\n    tag_38:\n      mload(0x40)\n      tag_40\n      swap2\n      swap1\n      tag_29\n      jump\t// in\n    tag_40:\n      mload(0x40)\n      dup1\n      swap2\n      sub\n      swap1\n      return\n        /* \"RPS.sol\":1077:1757  function addPlayer() public payable {... */\n    tag_5:\n      tag_41\n      tag_42\n      jump\t// in\n    tag_41:\n      stop\n        /* \"RPS.sol\":1823:2372  function generateRandomBytes32(uint8 choice, string memory salt) public view returns (bytes32) {... */\n    tag_6:\n      callvalue\n      dup1\n      iszero\n      tag_43\n      jumpi\n      0x00\n      dup1\n      revert\n    tag_43:\n      pop\n      tag_44\n      0x04\n      dup1\n      calldatasize\n      sub\n      dup2\n      add\n      swap1\n      tag_45\n      swap2\n      swap1\n      tag_46\n      jump\t// in\n    tag_45:\n      tag_47\n      jump\t// in\n    tag_44:\n      mload(0x40)\n      tag_48\n      swap2\n      swap1\n      tag_49\n      jump\t// in\n    tag_48:\n      mload(0x40)\n      dup1\n      swap2\n      sub\n      swap1\n      return\n        /* \"CommitReveal.sol\":1862:1974  function getHash(bytes32 data) public pure returns(bytes32){... */\n    tag_7:\n      callvalue\n      dup1\n      iszero\n      tag_50\n      jumpi\n      0x00\n      dup1\n      revert\n    tag_50:\n      pop\n      tag_51\n      0x04\n      dup1\n      calldatasize\n      sub\n      dup2\n      add\n      swap1\n      tag_52\n      swap2\n      swap1\n      tag_53\n      jump\t// in\n    tag_52:\n      tag_54\n      jump\t// in\n    tag_51:\n      mload(0x40)\n      tag_55\n      swap2\n      swap1\n      tag_49\n      jump\t// in\n    tag_55:\n      mload(0x40)\n      dup1\n      swap2\n      sub\n      swap1\n      return\n        /* \"RPS.sol\":569:608  uint public timeoutDeration = 1 minutes */\n    tag_8:\n      callvalue\n      dup1\n      iszero\n      tag_56\n      jumpi\n      0x00\n      dup1\n      revert\n    tag_56:\n      pop\n      tag_57\n      tag_58\n      jump\t// in\n    tag_57:\n      mload(0x40)\n      tag_59\n      swap2\n      swap1\n      tag_29\n      jump\t// in\n    tag_59:\n      mload(0x40)\n      dup1\n      swap2\n      sub\n      swap1\n      return\n        /* \"RPS.sol\":458:499  mapping (address => bool) public isCommit */\n    tag_9:\n      callvalue\n      dup1\n      iszero\n      tag_60\n      jumpi\n      0x00\n      dup1\n      revert\n    tag_60:\n      pop\n      tag_61\n      0x04\n      dup1\n      calldatasize\n      sub\n      dup2\n      add\n      swap1\n      tag_62\n      swap2\n      swap1\n      tag_33\n      jump\t// in\n    tag_62:\n      tag_63\n      jump\t// in\n    tag_61:\n      mload(0x40)\n      tag_64\n      swap2\n      swap1\n      tag_36\n      jump\t// in\n    tag_64:\n      mload(0x40)\n      dup1\n      swap2\n      sub\n      swap1\n      return\n        /* \"RPS.sol\":4621:6310  function timeOutWithDraw() public {... */\n    tag_10:\n      callvalue\n      dup1\n      iszero\n      tag_65\n      jumpi\n      0x00\n      dup1\n      revert\n    tag_65:\n      pop\n      tag_66\n      tag_67\n      jump\t// in\n    tag_66:\n      stop\n        /* \"RPS.sol\":2985:3767  function revealChoice(bytes32 hashChoice) public {... */\n    tag_11:\n      callvalue\n      dup1\n      iszero\n      tag_68\n      jumpi\n      0x00\n      dup1\n      revert\n    tag_68:\n      pop\n      tag_69\n      0x04\n      dup1\n      calldatasize\n      sub\n      dup2\n      add\n      swap1\n      tag_70\n      swap2\n      swap1\n      tag_53\n      jump\t// in\n    tag_70:\n      tag_71\n      jump\t// in\n    tag_69:\n      stop\n        /* \"CommitReveal.sol\":103:125  uint8 public max = 100 */\n    tag_12:\n      callvalue\n      dup1\n      iszero\n      tag_72\n      jumpi\n      0x00\n      dup1\n      revert\n    tag_72:\n      pop\n      tag_73\n      tag_74\n      jump\t// in\n    tag_73:\n      mload(0x40)\n      tag_75\n      swap2\n      swap1\n      tag_76\n      jump\t// in\n    tag_75:\n      mload(0x40)\n      dup1\n      swap2\n      sub\n      swap1\n      return\n        /* \"TimeUnit.sol\":307:331  uint256 public startTime */\n    tag_13:\n      callvalue\n      dup1\n      iszero\n      tag_77\n      jumpi\n      0x00\n      dup1\n      revert\n    tag_77:\n      pop\n      tag_78\n      tag_79\n      jump\t// in\n    tag_78:\n      mload(0x40)\n      tag_80\n      swap2\n      swap1\n      tag_29\n      jump\t// in\n    tag_80:\n      mload(0x40)\n      dup1\n      swap2\n      sub\n      swap1\n      return\n        /* \"CommitReveal.sol\":218:260  mapping (address => Commit) public commits */\n    tag_14:\n      callvalue\n      dup1\n      iszero\n      tag_81\n      jumpi\n      0x00\n      dup1\n      revert\n    tag_81:\n      pop\n      tag_82\n      0x04\n      dup1\n      calldatasize\n      sub\n      dup2\n      add\n      swap1\n      tag_83\n      swap2\n      swap1\n      tag_33\n      jump\t// in\n    tag_83:\n      tag_84\n      jump\t// in\n    tag_82:\n      mload(0x40)\n      tag_85\n      swap4\n      swap3\n      swap2\n      swap1\n      tag_86\n      jump\t// in\n    tag_85:\n      mload(0x40)\n      dup1\n      swap2\n      sub\n      swap1\n      return\n        /* \"RPS.sol\":180:205  uint public numPlayer = 0 */\n    tag_15:\n      callvalue\n      dup1\n      iszero\n      tag_87\n      jumpi\n      0x00\n      dup1\n      revert\n    tag_87:\n      pop\n      tag_88\n      tag_89\n      jump\t// in\n    tag_88:\n      mload(0x40)\n      tag_90\n      swap2\n      swap1\n      tag_29\n      jump\t// in\n    tag_90:\n      mload(0x40)\n      dup1\n      swap2\n      sub\n      swap1\n      return\n        /* \"RPS.sol\":241:287  mapping (address => uint) public player_choice */\n    tag_16:\n      callvalue\n      dup1\n      iszero\n      tag_91\n      jumpi\n      0x00\n      dup1\n      revert\n    tag_91:\n      pop\n      tag_92\n      0x04\n      dup1\n      calldatasize\n      sub\n      dup2\n      add\n      swap1\n      tag_93\n      swap2\n      swap1\n      tag_33\n      jump\t// in\n    tag_93:\n      tag_94\n      jump\t// in\n    tag_92:\n      mload(0x40)\n      tag_95\n      swap2\n      swap1\n      tag_29\n      jump\t// in\n    tag_95:\n      mload(0x40)\n      dup1\n      swap2\n      sub\n      swap1\n      return\n        /* \"TimeUnit.sol\":578:685  function elapsedSeconds() public view returns (uint256) { ... */\n    tag_17:\n      callvalue\n      dup1\n      iszero\n      tag_96\n      jumpi\n      0x00\n      dup1\n      revert\n    tag_96:\n      pop\n      tag_97\n      tag_98\n      jump\t// in\n    tag_97:\n      mload(0x40)\n      tag_99\n      swap2\n      swap1\n      tag_29\n      jump\t// in\n    tag_99:\n      mload(0x40)\n      dup1\n      swap2\n      sub\n      swap1\n      return\n        /* \"RPS.sol\":537:562  uint public numReveal = 0 */\n    tag_18:\n      callvalue\n      dup1\n      iszero\n      tag_100\n      jumpi\n      0x00\n      dup1\n      revert\n    tag_100:\n      pop\n      tag_101\n      tag_102\n      jump\t// in\n    tag_101:\n      mload(0x40)\n      tag_103\n      swap2\n      swap1\n      tag_29\n      jump\t// in\n    tag_103:\n      mload(0x40)\n      dup1\n      swap2\n      sub\n      swap1\n      return\n        /* \"RPS.sol\":2382:2913  function input(bytes32 hashAns) public  {... */\n    tag_19:\n      callvalue\n      dup1\n      iszero\n      tag_104\n      jumpi\n      0x00\n      dup1\n      revert\n    tag_104:\n      pop\n      tag_105\n      0x04\n      dup1\n      calldatasize\n      sub\n      dup2\n      add\n      swap1\n      tag_106\n      swap2\n      swap1\n      tag_53\n      jump\t// in\n    tag_106:\n      tag_107\n      jump\t// in\n    tag_105:\n      stop\n        /* \"TimeUnit.sol\":801:1084  function elapsedMinutes() public view returns (uint256) { ... */\n    tag_20:\n      callvalue\n      dup1\n      iszero\n      tag_108\n      jumpi\n      0x00\n      dup1\n      revert\n    tag_108:\n      pop\n      tag_109\n      tag_110\n      jump\t// in\n    tag_109:\n      mload(0x40)\n      tag_111\n      swap2\n      swap1\n      tag_29\n      jump\t// in\n    tag_111:\n      mload(0x40)\n      dup1\n      swap2\n      sub\n      swap1\n      return\n        /* \"RPS.sol\":425:449  address[] public players */\n    tag_21:\n      callvalue\n      dup1\n      iszero\n      tag_112\n      jumpi\n      0x00\n      dup1\n      revert\n    tag_112:\n      pop\n      tag_113\n      0x04\n      dup1\n      calldatasize\n      sub\n      dup2\n      add\n      swap1\n      tag_114\n      swap2\n      swap1\n      tag_115\n      jump\t// in\n    tag_114:\n      tag_116\n      jump\t// in\n    tag_113:\n      mload(0x40)\n      tag_117\n      swap2\n      swap1\n      tag_118\n      jump\t// in\n    tag_117:\n      mload(0x40)\n      dup1\n      swap2\n      sub\n      swap1\n      return\n        /* \"RPS.sol\":506:530  uint public numInput = 0 */\n    tag_27:\n      sload(0x09)\n      dup2\n      jump\t// out\n        /* \"RPS.sol\":369:418  mapping(address => bool) public player_not_played */\n    tag_34:\n      mstore(0x20, 0x06)\n      dup1\n      0x00\n      mstore\n      keccak256(0x00, 0x40)\n      0x00\n      swap2\n      pop\n      sload\n      swap1\n      0x0100\n      exp\n      swap1\n      div\n      0xff\n      and\n      dup2\n      jump\t// out\n        /* \"RPS.sol\":212:234  uint public reward = 0 */\n    tag_39:\n      sload(0x04)\n      dup2\n      jump\t// out\n        /* \"RPS.sol\":1077:1757  function addPlayer() public payable {... */\n    tag_42:\n        /* \"RPS.sol\":1144:1145  2 */\n      0x02\n        /* \"RPS.sol\":1132:1141  numPlayer */\n      sload(0x03)\n        /* \"RPS.sol\":1132:1145  numPlayer < 2 */\n      lt\n        /* \"RPS.sol\":1124:1177  require(numPlayer < 2, \"Game already has 2 players.\") */\n      tag_120\n      jumpi\n      mload(0x40)\n      0x08c379a000000000000000000000000000000000000000000000000000000000\n      dup2\n      mstore\n      0x04\n      add\n      tag_121\n      swap1\n      tag_122\n      jump\t// in\n    tag_121:\n      mload(0x40)\n      dup1\n      swap2\n      sub\n      swap1\n      revert\n    tag_120:\n        /* \"RPS.sol\":1196:1214  whitelistedPlayers */\n      0x0c\n        /* \"RPS.sol\":1196:1226  whitelistedPlayers[msg.sender] */\n      0x00\n        /* \"RPS.sol\":1215:1225  msg.sender */\n      caller\n        /* \"RPS.sol\":1196:1226  whitelistedPlayers[msg.sender] */\n      0xffffffffffffffffffffffffffffffffffffffff\n      and\n      0xffffffffffffffffffffffffffffffffffffffff\n      and\n      dup2\n      mstore\n      0x20\n      add\n      swap1\n      dup2\n      mstore\n      0x20\n      add\n      0x00\n      keccak256\n      0x00\n      swap1\n      sload\n      swap1\n      0x0100\n      exp\n      swap1\n      div\n      0xff\n      and\n        /* \"RPS.sol\":1188:1259  require(whitelistedPlayers[msg.sender], \"You are not allowed to play.\") */\n      tag_123\n      jumpi\n      mload(0x40)\n      0x08c379a000000000000000000000000000000000000000000000000000000000\n      dup2\n      mstore\n      0x04\n      add\n      tag_124\n      swap1\n      tag_125\n      jump\t// in\n    tag_124:\n      mload(0x40)\n      dup1\n      swap2\n      sub\n      swap1\n      revert\n    tag_123:\n        /* \"RPS.sol\":1286:1287  0 */\n      0x00\n        /* \"RPS.sol\":1274:1283  numPlayer */\n      sload(0x03)\n        /* \"RPS.sol\":1274:1287  numPlayer > 0 */\n      gt\n        /* \"RPS.sol\":1270:1349  if (numPlayer > 0) {... */\n      iszero\n      tag_126\n      jumpi\n        /* \"RPS.sol\":1326:1333  players */\n      0x07\n        /* \"RPS.sol\":1334:1335  0 */\n      0x00\n        /* \"RPS.sol\":1326:1336  players[0] */\n      dup2\n      sload\n      dup2\n      lt\n      tag_127\n      jumpi\n      tag_128\n      tag_129\n      jump\t// in\n    tag_128:\n    tag_127:\n      swap1\n      0x00\n      mstore\n      keccak256(0x00, 0x20)\n      add\n      0x00\n      swap1\n      sload\n      swap1\n      0x0100\n      exp\n      swap1\n      div\n      0xffffffffffffffffffffffffffffffffffffffff\n      and\n        /* \"RPS.sol\":1312:1336  msg.sender != players[0] */\n      0xffffffffffffffffffffffffffffffffffffffff\n      and\n        /* \"RPS.sol\":1312:1322  msg.sender */\n      caller\n        /* \"RPS.sol\":1312:1336  msg.sender != players[0] */\n      0xffffffffffffffffffffffffffffffffffffffff\n      and\n      sub\n        /* \"RPS.sol\":1304:1337  require(msg.sender != players[0]) */\n      tag_131\n      jumpi\n      0x00\n      dup1\n      revert\n    tag_131:\n        /* \"RPS.sol\":1270:1349  if (numPlayer > 0) {... */\n    tag_126:\n        /* \"RPS.sol\":1380:1387  1 ether */\n      0x0de0b6b3a7640000\n        /* \"RPS.sol\":1367:1376  msg.value */\n      callvalue\n        /* \"RPS.sol\":1367:1387  msg.value == 1 ether */\n      eq\n        /* \"RPS.sol\":1359:1417  require(msg.value == 1 ether, \"Pay 1 ether to play game.\") */\n      tag_132\n      jumpi\n      mload(0x40)\n      0x08c379a000000000000000000000000000000000000000000000000000000000\n      dup2\n      mstore\n      0x04\n      add\n      tag_133\n      swap1\n      tag_134\n      jump\t// in\n    tag_133:\n      mload(0x40)\n      dup1\n      swap2\n      sub\n      swap1\n      revert\n    tag_132:\n        /* \"RPS.sol\":1438:1447  msg.value */\n      callvalue\n        /* \"RPS.sol\":1428:1434  reward */\n      0x04\n      0x00\n        /* \"RPS.sol\":1428:1447  reward += msg.value */\n      dup3\n      dup3\n      sload\n      tag_135\n      swap2\n      swap1\n      tag_136\n      jump\t// in\n    tag_135:\n      swap3\n      pop\n      pop\n      dup2\n      swap1\n      sstore\n      pop\n        /* \"RPS.sol\":1490:1494  true */\n      0x01\n        /* \"RPS.sol\":1458:1475  player_not_played */\n      0x06\n        /* \"RPS.sol\":1458:1487  player_not_played[msg.sender] */\n      0x00\n        /* \"RPS.sol\":1476:1486  msg.sender */\n      caller\n        /* \"RPS.sol\":1458:1487  player_not_played[msg.sender] */\n      0xffffffffffffffffffffffffffffffffffffffff\n      and\n      0xffffffffffffffffffffffffffffffffffffffff\n      and\n      dup2\n      mstore\n      0x20\n      add\n      swap1\n      dup2\n      mstore\n      0x20\n      add\n      0x00\n      keccak256\n      0x00\n        /* \"RPS.sol\":1458:1494  player_not_played[msg.sender] = true */\n      0x0100\n      exp\n      dup2\n      sload\n      dup2\n      0xff\n      mul\n      not\n      and\n      swap1\n      dup4\n      iszero\n      iszero\n      mul\n      or\n      swap1\n      sstore\n      pop\n        /* \"RPS.sol\":1505:1512  players */\n      0x07\n        /* \"RPS.sol\":1518:1528  msg.sender */\n      caller\n        /* \"RPS.sol\":1505:1529  players.push(msg.sender) */\n      swap1\n      dup1\n      0x01\n      dup2\n      sload\n      add\n      dup1\n      dup3\n      sstore\n      dup1\n      swap2\n      pop\n      pop\n      0x01\n      swap1\n      sub\n      swap1\n      0x00\n      mstore\n      keccak256(0x00, 0x20)\n      add\n      0x00\n      swap1\n      swap2\n      swap1\n      swap2\n      swap1\n      swap2\n      0x0100\n      exp\n      dup2\n      sload\n      dup2\n      0xffffffffffffffffffffffffffffffffffffffff\n      mul\n      not\n      and\n      swap1\n      dup4\n      0xffffffffffffffffffffffffffffffffffffffff\n      and\n      mul\n      or\n      swap1\n      sstore\n      pop\n        /* \"RPS.sol\":1568:1569  5 */\n      0x05\n        /* \"RPS.sol\":1540:1553  player_choice */\n      dup1\n        /* \"RPS.sol\":1540:1565  player_choice[msg.sender] */\n      0x00\n        /* \"RPS.sol\":1554:1564  msg.sender */\n      caller\n        /* \"RPS.sol\":1540:1565  player_choice[msg.sender] */\n      0xffffffffffffffffffffffffffffffffffffffff\n      and\n      0xffffffffffffffffffffffffffffffffffffffff\n      and\n      dup2\n      mstore\n      0x20\n      add\n      swap1\n      dup2\n      mstore\n      0x20\n      add\n      0x00\n      keccak256\n        /* \"RPS.sol\":1540:1569  player_choice[msg.sender] = 5 */\n      dup2\n      swap1\n      sstore\n      pop\n        /* \"RPS.sol\":1603:1608  false */\n      0x00\n        /* \"RPS.sol\":1580:1588  isCommit */\n      0x08\n        /* \"RPS.sol\":1580:1600  isCommit[msg.sender] */\n      0x00\n        /* \"RPS.sol\":1589:1599  msg.sender */\n      caller\n        /* \"RPS.sol\":1580:1600  isCommit[msg.sender] */\n      0xffffffffffffffffffffffffffffffffffffffff\n      and\n      0xffffffffffffffffffffffffffffffffffffffff\n      and\n      dup2\n      mstore\n      0x20\n      add\n      swap1\n      dup2\n      mstore\n      0x20\n      add\n      0x00\n      keccak256\n      0x00\n        /* \"RPS.sol\":1580:1608  isCommit[msg.sender] = false */\n      0x0100\n      exp\n      dup2\n      sload\n      dup2\n      0xff\n      mul\n      not\n      and\n      swap1\n      dup4\n      iszero\n      iszero\n      mul\n      or\n      swap1\n      sstore\n      pop\n        /* \"RPS.sol\":1619:1628  numPlayer */\n      0x03\n      0x00\n        /* \"RPS.sol\":1619:1630  numPlayer++ */\n      dup2\n      sload\n      dup1\n      swap3\n      swap2\n      swap1\n      tag_138\n      swap1\n      tag_139\n      jump\t// in\n    tag_138:\n      swap2\n      swap1\n      pop\n      sstore\n      pop\n        /* \"RPS.sol\":1646:1680  playerAdded(msg.sender, numPlayer) */\n      0x313f9ebdca9d25ee9456dd69022e3324975c8261b7a8b134881905d3b6964d3c\n        /* \"RPS.sol\":1658:1668  msg.sender */\n      caller\n        /* \"RPS.sol\":1670:1679  numPlayer */\n      sload(0x03)\n        /* \"RPS.sol\":1646:1680  playerAdded(msg.sender, numPlayer) */\n      mload(0x40)\n      tag_140\n      swap3\n      swap2\n      swap1\n      tag_141\n      jump\t// in\n    tag_140:\n      mload(0x40)\n      dup1\n      swap2\n      sub\n      swap1\n      log1\n        /* \"RPS.sol\":1735:1749  setStartTime() */\n      tag_142\n        /* \"RPS.sol\":1735:1747  setStartTime */\n      tag_143\n        /* \"RPS.sol\":1735:1749  setStartTime() */\n      jump\t// in\n    tag_142:\n        /* \"RPS.sol\":1077:1757  function addPlayer() public payable {... */\n      jump\t// out\n        /* \"RPS.sol\":1823:2372  function generateRandomBytes32(uint8 choice, string memory salt) public view returns (bytes32) {... */\n    tag_47:\n        /* \"RPS.sol\":1909:1916  bytes32 */\n      0x00\n        /* \"RPS.sol\":1947:1948  4 */\n      0x04\n        /* \"RPS.sol\":1937:1943  choice */\n      dup4\n        /* \"RPS.sol\":1937:1948  choice <= 4 */\n      0xff\n      and\n      gt\n      iszero\n        /* \"RPS.sol\":1929:1967  require(choice <= 4, \"Invalid choice\") */\n      tag_145\n      jumpi\n      mload(0x40)\n      0x08c379a000000000000000000000000000000000000000000000000000000000\n      dup2\n      mstore\n      0x04\n      add\n      tag_146\n      swap1\n      tag_147\n      jump\t// in\n    tag_146:\n      mload(0x40)\n      dup1\n      swap2\n      sub\n      swap1\n      revert\n    tag_145:\n        /* \"RPS.sol\":2032:2050  bytes32 randomHash */\n      0x00\n        /* \"RPS.sol\":2080:2095  block.timestamp */\n      timestamp\n        /* \"RPS.sol\":2097:2113  block.difficulty */\n      prevrandao\n        /* \"RPS.sol\":2115:2125  msg.sender */\n      caller\n        /* \"RPS.sol\":2127:2131  salt */\n      dup6\n        /* \"RPS.sol\":2063:2132  abi.encodePacked(block.timestamp, block.difficulty, msg.sender, salt) */\n      add(0x20, mload(0x40))\n      tag_148\n      swap5\n      swap4\n      swap3\n      swap2\n      swap1\n      tag_149\n      jump\t// in\n    tag_148:\n      mload(0x40)\n      0x20\n      dup2\n      dup4\n      sub\n      sub\n      dup2\n      mstore\n      swap1\n      0x40\n      mstore\n        /* \"RPS.sol\":2053:2133  keccak256(abi.encodePacked(block.timestamp, block.difficulty, msg.sender, salt)) */\n      dup1\n      mload\n      swap1\n      0x20\n      add\n      keccak256\n        /* \"RPS.sol\":2032:2133  bytes32 randomHash = keccak256(abi.encodePacked(block.timestamp, block.difficulty, msg.sender, salt)) */\n      swap1\n      pop\n        /* \"RPS.sol\":2144:2163  bytes31 randomBytes */\n      0x00\n        /* \"RPS.sol\":2174:2184  randomHash */\n      dup2\n        /* \"RPS.sol\":2144:2185  bytes31 randomBytes = bytes31(randomHash) */\n      swap1\n      pop\n        /* \"RPS.sol\":2253:2270  bytes32 dataInput */\n      0x00\n        /* \"RPS.sol\":2298:2309  randomBytes */\n      dup2\n        /* \"RPS.sol\":2318:2324  choice */\n      dup7\n        /* \"RPS.sol\":2311:2325  bytes1(choice) */\n      0xf8\n      shl\n        /* \"RPS.sol\":2281:2326  abi.encodePacked(randomBytes, bytes1(choice)) */\n      add(0x20, mload(0x40))\n      tag_150\n      swap3\n      swap2\n      swap1\n      tag_151\n      jump\t// in\n    tag_150:\n      mload(0x40)\n      0x20\n      dup2\n      dup4\n      sub\n      sub\n      dup2\n      mstore\n      swap1\n      0x40\n      mstore\n        /* \"RPS.sol\":2273:2327  bytes32(abi.encodePacked(randomBytes, bytes1(choice))) */\n      tag_152\n      swap1\n      tag_153\n      jump\t// in\n    tag_152:\n        /* \"RPS.sol\":2253:2327  bytes32 dataInput = bytes32(abi.encodePacked(randomBytes, bytes1(choice))) */\n      swap1\n      pop\n        /* \"RPS.sol\":2355:2364  dataInput */\n      dup1\n        /* \"RPS.sol\":2348:2364  return dataInput */\n      swap4\n      pop\n      pop\n      pop\n      pop\n        /* \"RPS.sol\":1823:2372  function generateRandomBytes32(uint8 choice, string memory salt) public view returns (bytes32) {... */\n      swap3\n      swap2\n      pop\n      pop\n      jump\t// out\n        /* \"CommitReveal.sol\":1862:1974  function getHash(bytes32 data) public pure returns(bytes32){... */\n    tag_54:\n        /* \"CommitReveal.sol\":1913:1920  bytes32 */\n      0x00\n        /* \"CommitReveal.sol\":1962:1966  data */\n      dup2\n        /* \"CommitReveal.sol\":1945:1967  abi.encodePacked(data) */\n      add(0x20, mload(0x40))\n      tag_155\n      swap2\n      swap1\n      tag_156\n      jump\t// in\n    tag_155:\n      mload(0x40)\n      0x20\n      dup2\n      dup4\n      sub\n      sub\n      dup2\n      mstore\n      swap1\n      0x40\n      mstore\n        /* \"CommitReveal.sol\":1935:1968  keccak256(abi.encodePacked(data)) */\n      dup1\n      mload\n      swap1\n      0x20\n      add\n      keccak256\n        /* \"CommitReveal.sol\":1928:1968  return keccak256(abi.encodePacked(data)) */\n      swap1\n      pop\n        /* \"CommitReveal.sol\":1862:1974  function getHash(bytes32 data) public pure returns(bytes32){... */\n      swap2\n      swap1\n      pop\n      jump\t// out\n        /* \"RPS.sol\":569:608  uint public timeoutDeration = 1 minutes */\n    tag_58:\n      sload(0x0b)\n      dup2\n      jump\t// out\n        /* \"RPS.sol\":458:499  mapping (address => bool) public isCommit */\n    tag_63:\n      mstore(0x20, 0x08)\n      dup1\n      0x00\n      mstore\n      keccak256(0x00, 0x40)\n      0x00\n      swap2\n      pop\n      sload\n      swap1\n      0x0100\n      exp\n      swap1\n      div\n      0xff\n      and\n      dup2\n      jump\t// out\n        /* \"RPS.sol\":4621:6310  function timeOutWithDraw() public {... */\n    tag_67:\n        /* \"RPS.sol\":4687:4688  1 */\n      0x01\n        /* \"RPS.sol\":4674:4683  numPlayer */\n      sload(0x03)\n        /* \"RPS.sol\":4674:4688  numPlayer >= 1 */\n      lt\n      iszero\n        /* \"RPS.sol\":4666:4689  require(numPlayer >= 1) */\n      tag_158\n      jumpi\n      0x00\n      dup1\n      revert\n    tag_158:\n        /* \"RPS.sol\":4796:4811  timeoutDeration */\n      sload(0x0b)\n        /* \"RPS.sol\":4777:4793  elapsedSeconds() */\n      tag_159\n        /* \"RPS.sol\":4777:4791  elapsedSeconds */\n      tag_98\n        /* \"RPS.sol\":4777:4793  elapsedSeconds() */\n      jump\t// in\n    tag_159:\n        /* \"RPS.sol\":4777:4811  elapsedSeconds() > timeoutDeration */\n      gt\n        /* \"RPS.sol\":4769:4855  require(elapsedSeconds() > timeoutDeration, \"You need to wait 1 minute for withdraw.\") */\n      tag_160\n      jumpi\n      mload(0x40)\n      0x08c379a000000000000000000000000000000000000000000000000000000000\n      dup2\n      mstore\n      0x04\n      add\n      tag_161\n      swap1\n      tag_162\n      jump\t// in\n    tag_161:\n      mload(0x40)\n      dup1\n      swap2\n      sub\n      swap1\n      revert\n    tag_160:\n        /* \"RPS.sol\":4899:4905  reward */\n      sload(0x04)\n        /* \"RPS.sol\":4874:4895  address(this).balance */\n      selfbalance\n        /* \"RPS.sol\":4874:4905  address(this).balance >= reward */\n      lt\n      iszero\n        /* \"RPS.sol\":4866:4944  require(address(this).balance >= reward, \"Contract has insufficient balance.\") */\n      tag_163\n      jumpi\n      mload(0x40)\n      0x08c379a000000000000000000000000000000000000000000000000000000000\n      dup2\n      mstore\n      0x04\n      add\n      tag_164\n      swap1\n      tag_165\n      jump\t// in\n    tag_164:\n      mload(0x40)\n      dup1\n      swap2\n      sub\n      swap1\n      revert\n    tag_163:\n        /* \"RPS.sol\":4955:4979  address payable account0 */\n      0x00\n        /* \"RPS.sol\":4990:4997  players */\n      0x07\n        /* \"RPS.sol\":4998:4999  0 */\n      0x00\n        /* \"RPS.sol\":4990:5000  players[0] */\n      dup2\n      sload\n      dup2\n      lt\n      tag_166\n      jumpi\n      tag_167\n      tag_129\n      jump\t// in\n    tag_167:\n    tag_166:\n      swap1\n      0x00\n      mstore\n      keccak256(0x00, 0x20)\n      add\n      0x00\n      swap1\n      sload\n      swap1\n      0x0100\n      exp\n      swap1\n      div\n      0xffffffffffffffffffffffffffffffffffffffff\n      and\n        /* \"RPS.sol\":4955:5001  address payable account0 = payable(players[0]) */\n      swap1\n      pop\n        /* \"RPS.sol\":5057:5058  1 */\n      0x01\n        /* \"RPS.sol\":5044:5053  numPlayer */\n      sload(0x03)\n        /* \"RPS.sol\":5044:5058  numPlayer == 1 */\n      sub\n        /* \"RPS.sol\":5040:6301  if (numPlayer == 1) {... */\n      tag_169\n      jumpi\n        /* \"RPS.sol\":5075:5083  account0 */\n      dup1\n        /* \"RPS.sol\":5075:5092  account0.transfer */\n      0xffffffffffffffffffffffffffffffffffffffff\n      and\n        /* \"RPS.sol\":5075:5100  account0.transfer(reward) */\n      0x08fc\n        /* \"RPS.sol\":5093:5099  reward */\n      sload(0x04)\n        /* \"RPS.sol\":5075:5100  account0.transfer(reward) */\n      swap1\n      dup2\n      iszero\n      mul\n      swap1\n      mload(0x40)\n      0x00\n      mload(0x40)\n      dup1\n      dup4\n      sub\n      dup2\n      dup6\n      dup9\n      dup9\n      call\n      swap4\n      pop\n      pop\n      pop\n      pop\n      iszero\n      dup1\n      iszero\n      tag_171\n      jumpi\n      returndatasize\n      0x00\n      dup1\n      returndatacopy\n      revert(0x00, returndatasize)\n    tag_171:\n      pop\n        /* \"RPS.sol\":5115:5123  _reset() */\n      tag_172\n        /* \"RPS.sol\":5115:5121  _reset */\n      tag_173\n        /* \"RPS.sol\":5115:5123  _reset() */\n      jump\t// in\n    tag_172:\n        /* \"RPS.sol\":5040:6301  if (numPlayer == 1) {... */\n      jump(tag_174)\n    tag_169:\n        /* \"RPS.sol\":5167:5168  2 */\n      0x02\n        /* \"RPS.sol\":5154:5163  numPlayer */\n      sload(0x03)\n        /* \"RPS.sol\":5154:5168  numPlayer == 2 */\n      sub\n        /* \"RPS.sol\":5150:6301  if (numPlayer == 2) {... */\n      tag_175\n      jumpi\n        /* \"RPS.sol\":5185:5209  address payable account1 */\n      0x00\n        /* \"RPS.sol\":5220:5227  players */\n      0x07\n        /* \"RPS.sol\":5228:5229  1 */\n      0x01\n        /* \"RPS.sol\":5220:5230  players[1] */\n      dup2\n      sload\n      dup2\n      lt\n      tag_176\n      jumpi\n      tag_177\n      tag_129\n      jump\t// in\n    tag_177:\n    tag_176:\n      swap1\n      0x00\n      mstore\n      keccak256(0x00, 0x20)\n      add\n      0x00\n      swap1\n      sload\n      swap1\n      0x0100\n      exp\n      swap1\n      div\n      0xffffffffffffffffffffffffffffffffffffffff\n      and\n        /* \"RPS.sol\":5185:5231  address payable account1 = payable(players[1]) */\n      swap1\n      pop\n        /* \"RPS.sol\":5325:5326  0 */\n      0x00\n        /* \"RPS.sol\":5313:5321  numInput */\n      sload(0x09)\n        /* \"RPS.sol\":5313:5326  numInput == 0 */\n      eq\n        /* \"RPS.sol\":5313:5363  numInput == 0 || (numInput == 2 && numReveal == 0) */\n      dup1\n      tag_179\n      jumpi\n      pop\n        /* \"RPS.sol\":5343:5344  2 */\n      0x02\n        /* \"RPS.sol\":5331:5339  numInput */\n      sload(0x09)\n        /* \"RPS.sol\":5331:5344  numInput == 2 */\n      eq\n        /* \"RPS.sol\":5331:5362  numInput == 2 && numReveal == 0 */\n      dup1\n      iszero\n      tag_180\n      jumpi\n      pop\n        /* \"RPS.sol\":5361:5362  0 */\n      0x00\n        /* \"RPS.sol\":5348:5357  numReveal */\n      sload(0x0a)\n        /* \"RPS.sol\":5348:5362  numReveal == 0 */\n      eq\n        /* \"RPS.sol\":5331:5362  numInput == 2 && numReveal == 0 */\n    tag_180:\n        /* \"RPS.sol\":5313:5363  numInput == 0 || (numInput == 2 && numReveal == 0) */\n    tag_179:\n        /* \"RPS.sol\":5309:6290  if (numInput == 0 || (numInput == 2 && numReveal == 0)) {... */\n      iszero\n      tag_181\n      jumpi\n        /* \"RPS.sol\":5384:5392  account0 */\n      dup2\n        /* \"RPS.sol\":5384:5401  account0.transfer */\n      0xffffffffffffffffffffffffffffffffffffffff\n      and\n        /* \"RPS.sol\":5384:5413  account0.transfer(reward / 2) */\n      0x08fc\n        /* \"RPS.sol\":5411:5412  2 */\n      0x02\n        /* \"RPS.sol\":5402:5408  reward */\n      sload(0x04)\n        /* \"RPS.sol\":5402:5412  reward / 2 */\n      tag_182\n      swap2\n      swap1\n      tag_183\n      jump\t// in\n    tag_182:\n        /* \"RPS.sol\":5384:5413  account0.transfer(reward / 2) */\n      swap1\n      dup2\n      iszero\n      mul\n      swap1\n      mload(0x40)\n      0x00\n      mload(0x40)\n      dup1\n      dup4\n      sub\n      dup2\n      dup6\n      dup9\n      dup9\n      call\n      swap4\n      pop\n      pop\n      pop\n      pop\n      iszero\n      dup1\n      iszero\n      tag_185\n      jumpi\n      returndatasize\n      0x00\n      dup1\n      returndatacopy\n      revert(0x00, returndatasize)\n    tag_185:\n      pop\n        /* \"RPS.sol\":5432:5440  account1 */\n      dup1\n        /* \"RPS.sol\":5432:5449  account1.transfer */\n      0xffffffffffffffffffffffffffffffffffffffff\n      and\n        /* \"RPS.sol\":5432:5461  account1.transfer(reward / 2) */\n      0x08fc\n        /* \"RPS.sol\":5459:5460  2 */\n      0x02\n        /* \"RPS.sol\":5450:5456  reward */\n      sload(0x04)\n        /* \"RPS.sol\":5450:5460  reward / 2 */\n      tag_186\n      swap2\n      swap1\n      tag_183\n      jump\t// in\n    tag_186:\n        /* \"RPS.sol\":5432:5461  account1.transfer(reward / 2) */\n      swap1\n      dup2\n      iszero\n      mul\n      swap1\n      mload(0x40)\n      0x00\n      mload(0x40)\n      dup1\n      dup4\n      sub\n      dup2\n      dup6\n      dup9\n      dup9\n      call\n      swap4\n      pop\n      pop\n      pop\n      pop\n      iszero\n      dup1\n      iszero\n      tag_188\n      jumpi\n      returndatasize\n      0x00\n      dup1\n      returndatacopy\n      revert(0x00, returndatasize)\n    tag_188:\n      pop\n        /* \"RPS.sol\":5480:5488  _reset() */\n      tag_189\n        /* \"RPS.sol\":5480:5486  _reset */\n      tag_173\n        /* \"RPS.sol\":5480:5488  _reset() */\n      jump\t// in\n    tag_189:\n        /* \"RPS.sol\":5309:6290  if (numInput == 0 || (numInput == 2 && numReveal == 0)) {... */\n      jump(tag_190)\n    tag_181:\n        /* \"RPS.sol\":5583:5584  1 */\n      0x01\n        /* \"RPS.sol\":5571:5579  numInput */\n      sload(0x09)\n        /* \"RPS.sol\":5571:5584  numInput == 1 */\n      sub\n        /* \"RPS.sol\":5567:6290  if (numInput == 1) {... */\n      tag_191\n      jumpi\n        /* \"RPS.sol\":5679:5683  true */\n      0x01\n        /* \"RPS.sol\":5657:5683  isCommit[account0] == true */\n      iszero\n      iszero\n        /* \"RPS.sol\":5657:5665  isCommit */\n      0x08\n        /* \"RPS.sol\":5657:5675  isCommit[account0] */\n      0x00\n        /* \"RPS.sol\":5666:5674  account0 */\n      dup5\n        /* \"RPS.sol\":5657:5675  isCommit[account0] */\n      0xffffffffffffffffffffffffffffffffffffffff\n      and\n      0xffffffffffffffffffffffffffffffffffffffff\n      and\n      dup2\n      mstore\n      0x20\n      add\n      swap1\n      dup2\n      mstore\n      0x20\n      add\n      0x00\n      keccak256\n      0x00\n      swap1\n      sload\n      swap1\n      0x0100\n      exp\n      swap1\n      div\n      0xff\n      and\n        /* \"RPS.sol\":5657:5683  isCommit[account0] == true */\n      iszero\n      iszero\n      sub\n        /* \"RPS.sol\":5653:5844  if (isCommit[account0] == true) {... */\n      tag_192\n      jumpi\n        /* \"RPS.sol\":5708:5716  account0 */\n      dup2\n        /* \"RPS.sol\":5708:5725  account0.transfer */\n      0xffffffffffffffffffffffffffffffffffffffff\n      and\n        /* \"RPS.sol\":5708:5733  account0.transfer(reward) */\n      0x08fc\n        /* \"RPS.sol\":5726:5732  reward */\n      sload(0x04)\n        /* \"RPS.sol\":5708:5733  account0.transfer(reward) */\n      swap1\n      dup2\n      iszero\n      mul\n      swap1\n      mload(0x40)\n      0x00\n      mload(0x40)\n      dup1\n      dup4\n      sub\n      dup2\n      dup6\n      dup9\n      dup9\n      call\n      swap4\n      pop\n      pop\n      pop\n      pop\n      iszero\n      dup1\n      iszero\n      tag_194\n      jumpi\n      returndatasize\n      0x00\n      dup1\n      returndatacopy\n      revert(0x00, returndatasize)\n    tag_194:\n      pop\n        /* \"RPS.sol\":5653:5844  if (isCommit[account0] == true) {... */\n      jump(tag_195)\n    tag_192:\n        /* \"RPS.sol\":5799:5807  account1 */\n      dup1\n        /* \"RPS.sol\":5799:5816  account1.transfer */\n      0xffffffffffffffffffffffffffffffffffffffff\n      and\n        /* \"RPS.sol\":5799:5824  account1.transfer(reward) */\n      0x08fc\n        /* \"RPS.sol\":5817:5823  reward */\n      sload(0x04)\n        /* \"RPS.sol\":5799:5824  account1.transfer(reward) */\n      swap1\n      dup2\n      iszero\n      mul\n      swap1\n      mload(0x40)\n      0x00\n      mload(0x40)\n      dup1\n      dup4\n      sub\n      dup2\n      dup6\n      dup9\n      dup9\n      call\n      swap4\n      pop\n      pop\n      pop\n      pop\n      iszero\n      dup1\n      iszero\n      tag_197\n      jumpi\n      returndatasize\n      0x00\n      dup1\n      returndatacopy\n      revert(0x00, returndatasize)\n    tag_197:\n      pop\n        /* \"RPS.sol\":5653:5844  if (isCommit[account0] == true) {... */\n    tag_195:\n        /* \"RPS.sol\":5862:5870  _reset() */\n      tag_198\n        /* \"RPS.sol\":5862:5868  _reset */\n      tag_173\n        /* \"RPS.sol\":5862:5870  _reset() */\n      jump\t// in\n    tag_198:\n        /* \"RPS.sol\":5567:6290  if (numInput == 1) {... */\n      jump(tag_199)\n    tag_191:\n        /* \"RPS.sol\":5966:5967  2 */\n      0x02\n        /* \"RPS.sol\":5954:5962  numInput */\n      sload(0x09)\n        /* \"RPS.sol\":5954:5967  numInput == 2 */\n      eq\n        /* \"RPS.sol\":5954:5985  numInput == 2 && numReveal == 1 */\n      dup1\n      iszero\n      tag_200\n      jumpi\n      pop\n        /* \"RPS.sol\":5984:5985  1 */\n      0x01\n        /* \"RPS.sol\":5971:5980  numReveal */\n      sload(0x0a)\n        /* \"RPS.sol\":5971:5985  numReveal == 1 */\n      eq\n        /* \"RPS.sol\":5954:5985  numInput == 2 && numReveal == 1 */\n    tag_200:\n        /* \"RPS.sol\":5950:6290  if (numInput == 2 && numReveal == 1) {... */\n      iszero\n      tag_201\n      jumpi\n        /* \"RPS.sol\":6086:6087  5 */\n      0x05\n        /* \"RPS.sol\":6059:6072  player_choice */\n      dup1\n        /* \"RPS.sol\":6059:6082  player_choice[account0] */\n      0x00\n        /* \"RPS.sol\":6073:6081  account0 */\n      dup5\n        /* \"RPS.sol\":6059:6082  player_choice[account0] */\n      0xffffffffffffffffffffffffffffffffffffffff\n      and\n      0xffffffffffffffffffffffffffffffffffffffff\n      and\n      dup2\n      mstore\n      0x20\n      add\n      swap1\n      dup2\n      mstore\n      0x20\n      add\n      0x00\n      keccak256\n      sload\n        /* \"RPS.sol\":6059:6087  player_choice[account0] != 5 */\n      eq\n        /* \"RPS.sol\":6055:6248  if (player_choice[account0] != 5) {... */\n      tag_202\n      jumpi\n        /* \"RPS.sol\":6112:6120  account0 */\n      dup2\n        /* \"RPS.sol\":6112:6129  account0.transfer */\n      0xffffffffffffffffffffffffffffffffffffffff\n      and\n        /* \"RPS.sol\":6112:6137  account0.transfer(reward) */\n      0x08fc\n        /* \"RPS.sol\":6130:6136  reward */\n      sload(0x04)\n        /* \"RPS.sol\":6112:6137  account0.transfer(reward) */\n      swap1\n      dup2\n      iszero\n      mul\n      swap1\n      mload(0x40)\n      0x00\n      mload(0x40)\n      dup1\n      dup4\n      sub\n      dup2\n      dup6\n      dup9\n      dup9\n      call\n      swap4\n      pop\n      pop\n      pop\n      pop\n      iszero\n      dup1\n      iszero\n      tag_204\n      jumpi\n      returndatasize\n      0x00\n      dup1\n      returndatacopy\n      revert(0x00, returndatasize)\n    tag_204:\n      pop\n        /* \"RPS.sol\":6055:6248  if (player_choice[account0] != 5) {... */\n      jump(tag_205)\n    tag_202:\n        /* \"RPS.sol\":6203:6211  account1 */\n      dup1\n        /* \"RPS.sol\":6203:6220  account1.transfer */\n      0xffffffffffffffffffffffffffffffffffffffff\n      and\n        /* \"RPS.sol\":6203:6228  account1.transfer(reward) */\n      0x08fc\n        /* \"RPS.sol\":6221:6227  reward */\n      sload(0x04)\n        /* \"RPS.sol\":6203:6228  account1.transfer(reward) */\n      swap1\n      dup2\n      iszero\n      mul\n      swap1\n      mload(0x40)\n      0x00\n      mload(0x40)\n      dup1\n      dup4\n      sub\n      dup2\n      dup6\n      dup9\n      dup9\n      call\n      swap4\n      pop\n      pop\n      pop\n      pop\n      iszero\n      dup1\n      iszero\n      tag_207\n      jumpi\n      returndatasize\n      0x00\n      dup1\n      returndatacopy\n      revert(0x00, returndatasize)\n    tag_207:\n      pop\n        /* \"RPS.sol\":6055:6248  if (player_choice[account0] != 5) {... */\n    tag_205:\n        /* \"RPS.sol\":6266:6274  _reset() */\n      tag_208\n        /* \"RPS.sol\":6266:6272  _reset */\n      tag_173\n        /* \"RPS.sol\":6266:6274  _reset() */\n      jump\t// in\n    tag_208:\n        /* \"RPS.sol\":5950:6290  if (numInput == 2 && numReveal == 1) {... */\n    tag_201:\n        /* \"RPS.sol\":5567:6290  if (numInput == 1) {... */\n    tag_199:\n        /* \"RPS.sol\":5309:6290  if (numInput == 0 || (numInput == 2 && numReveal == 0)) {... */\n    tag_190:\n        /* \"RPS.sol\":5170:6301  {... */\n      pop\n        /* \"RPS.sol\":5150:6301  if (numPlayer == 2) {... */\n    tag_175:\n        /* \"RPS.sol\":5040:6301  if (numPlayer == 1) {... */\n    tag_174:\n        /* \"RPS.sol\":4655:6310  {... */\n      pop\n        /* \"RPS.sol\":4621:6310  function timeOutWithDraw() public {... */\n      jump\t// out\n        /* \"RPS.sol\":2985:3767  function revealChoice(bytes32 hashChoice) public {... */\n    tag_71:\n        /* \"RPS.sol\":3066:3067  2 */\n      0x02\n        /* \"RPS.sol\":3053:3062  numPlayer */\n      sload(0x03)\n        /* \"RPS.sol\":3053:3067  numPlayer == 2 */\n      eq\n        /* \"RPS.sol\":3045:3068  require(numPlayer == 2) */\n      tag_210\n      jumpi\n      0x00\n      dup1\n      revert\n    tag_210:\n        /* \"RPS.sol\":3099:3100  2 */\n      0x02\n        /* \"RPS.sol\":3087:3095  numInput */\n      sload(0x09)\n        /* \"RPS.sol\":3087:3100  numInput == 2 */\n      eq\n        /* \"RPS.sol\":3079:3101  require(numInput == 2) */\n      tag_211\n      jumpi\n      0x00\n      dup1\n      revert\n    tag_211:\n        /* \"RPS.sol\":3114:3125  uint choice */\n      0x00\n        /* \"RPS.sol\":3134:3144  hashChoice */\n      dup2\n        /* \"RPS.sol\":3145:3147  31 */\n      0x1f\n        /* \"RPS.sol\":3134:3148  hashChoice[31] */\n      0x20\n      dup2\n      lt\n      tag_212\n      jumpi\n      tag_213\n      tag_129\n      jump\t// in\n    tag_213:\n    tag_212:\n      byte\n      0xf8\n      shl\n        /* \"RPS.sol\":3128:3149  uint8(hashChoice[31]) */\n      0xf8\n      shr\n        /* \"RPS.sol\":3114:3149  uint choice = uint8(hashChoice[31]) */\n      0xff\n      and\n      swap1\n      pop\n        /* \"RPS.sol\":3178:3179  0 */\n      0x00\n        /* \"RPS.sol\":3168:3174  choice */\n      dup2\n        /* \"RPS.sol\":3168:3179  choice >= 0 */\n      lt\n      iszero\n        /* \"RPS.sol\":3168:3194  choice >= 0 && choice <= 4 */\n      dup1\n      iszero\n      tag_214\n      jumpi\n      pop\n        /* \"RPS.sol\":3193:3194  4 */\n      0x04\n        /* \"RPS.sol\":3183:3189  choice */\n      dup2\n        /* \"RPS.sol\":3183:3194  choice <= 4 */\n      gt\n      iszero\n        /* \"RPS.sol\":3168:3194  choice >= 0 && choice <= 4 */\n    tag_214:\n        /* \"RPS.sol\":3160:3237  require(choice >= 0 && choice <= 4, \"Your choice needs to be between 0 to 4\") */\n      tag_215\n      jumpi\n      mload(0x40)\n      0x08c379a000000000000000000000000000000000000000000000000000000000\n      dup2\n      mstore\n      0x04\n      add\n      tag_216\n      swap1\n      tag_217\n      jump\t// in\n    tag_216:\n      mload(0x40)\n      dup1\n      swap2\n      sub\n      swap1\n      revert\n    tag_215:\n        /* \"RPS.sol\":3256:3264  isCommit */\n      0x08\n        /* \"RPS.sol\":3256:3276  isCommit[msg.sender] */\n      0x00\n        /* \"RPS.sol\":3265:3275  msg.sender */\n      caller\n        /* \"RPS.sol\":3256:3276  isCommit[msg.sender] */\n      0xffffffffffffffffffffffffffffffffffffffff\n      and\n      0xffffffffffffffffffffffffffffffffffffffff\n      and\n      dup2\n      mstore\n      0x20\n      add\n      swap1\n      dup2\n      mstore\n      0x20\n      add\n      0x00\n      keccak256\n      0x00\n      swap1\n      sload\n      swap1\n      0x0100\n      exp\n      swap1\n      div\n      0xff\n      and\n        /* \"RPS.sol\":3248:3306  require(isCommit[msg.sender], \"You need to commit first.\") */\n      tag_218\n      jumpi\n      mload(0x40)\n      0x08c379a000000000000000000000000000000000000000000000000000000000\n      dup2\n      mstore\n      0x04\n      add\n      tag_219\n      swap1\n      tag_220\n      jump\t// in\n    tag_219:\n      mload(0x40)\n      dup1\n      swap2\n      sub\n      swap1\n      revert\n    tag_218:\n        /* \"RPS.sol\":3501:3519  reveal(hashChoice) */\n      tag_221\n        /* \"RPS.sol\":3508:3518  hashChoice */\n      dup3\n        /* \"RPS.sol\":3501:3507  reveal */\n      tag_222\n        /* \"RPS.sol\":3501:3519  reveal(hashChoice) */\n      jump\t// in\n    tag_221:\n        /* \"RPS.sol\":3560:3566  choice */\n      dup1\n        /* \"RPS.sol\":3532:3545  player_choice */\n      0x05\n        /* \"RPS.sol\":3532:3557  player_choice[msg.sender] */\n      0x00\n        /* \"RPS.sol\":3546:3556  msg.sender */\n      caller\n        /* \"RPS.sol\":3532:3557  player_choice[msg.sender] */\n      0xffffffffffffffffffffffffffffffffffffffff\n      and\n      0xffffffffffffffffffffffffffffffffffffffff\n      and\n      dup2\n      mstore\n      0x20\n      add\n      swap1\n      dup2\n      mstore\n      0x20\n      add\n      0x00\n      keccak256\n        /* \"RPS.sol\":3532:3566  player_choice[msg.sender] = choice */\n      dup2\n      swap1\n      sstore\n      pop\n        /* \"RPS.sol\":3579:3588  numReveal */\n      0x0a\n      0x00\n        /* \"RPS.sol\":3579:3590  numReveal++ */\n      dup2\n      sload\n      dup1\n      swap3\n      swap2\n      swap1\n      tag_223\n      swap1\n      tag_139\n      jump\t// in\n    tag_223:\n      swap2\n      swap1\n      pop\n      sstore\n      pop\n        /* \"RPS.sol\":3645:3659  setStartTime() */\n      tag_224\n        /* \"RPS.sol\":3645:3657  setStartTime */\n      tag_143\n        /* \"RPS.sol\":3645:3659  setStartTime() */\n      jump\t// in\n    tag_224:\n        /* \"RPS.sol\":3688:3689  2 */\n      0x02\n        /* \"RPS.sol\":3675:3684  numReveal */\n      sload(0x0a)\n        /* \"RPS.sol\":3675:3689  numReveal == 2 */\n      sub\n        /* \"RPS.sol\":3672:3760  if(numReveal == 2){... */\n      tag_225\n      jumpi\n        /* \"RPS.sol\":3705:3725  _checkWinnerAndPay() */\n      tag_226\n        /* \"RPS.sol\":3705:3723  _checkWinnerAndPay */\n      tag_227\n        /* \"RPS.sol\":3705:3725  _checkWinnerAndPay() */\n      jump\t// in\n    tag_226:\n        /* \"RPS.sol\":3740:3748  _reset() */\n      tag_228\n        /* \"RPS.sol\":3740:3746  _reset */\n      tag_173\n        /* \"RPS.sol\":3740:3748  _reset() */\n      jump\t// in\n    tag_228:\n        /* \"RPS.sol\":3672:3760  if(numReveal == 2){... */\n    tag_225:\n        /* \"RPS.sol\":3034:3767  {... */\n      pop\n        /* \"RPS.sol\":2985:3767  function revealChoice(bytes32 hashChoice) public {... */\n      pop\n      jump\t// out\n        /* \"CommitReveal.sol\":103:125  uint8 public max = 100 */\n    tag_74:\n      0x00\n      dup1\n      sload\n      swap1\n      0x0100\n      exp\n      swap1\n      div\n      0xff\n      and\n      dup2\n      jump\t// out\n        /* \"TimeUnit.sol\":307:331  uint256 public startTime */\n    tag_79:\n      sload(0x02)\n      dup2\n      jump\t// out\n        /* \"CommitReveal.sol\":218:260  mapping (address => Commit) public commits */\n    tag_84:\n      mstore(0x20, 0x01)\n      dup1\n      0x00\n      mstore\n      keccak256(0x00, 0x40)\n      0x00\n      swap2\n      pop\n      swap1\n      pop\n      dup1\n      0x00\n      add\n      sload\n      swap1\n      dup1\n      0x01\n      add\n      0x00\n      swap1\n      sload\n      swap1\n      0x0100\n      exp\n      swap1\n      div\n      0xffffffffffffffff\n      and\n      swap1\n      dup1\n      0x01\n      add\n      0x08\n      swap1\n      sload\n      swap1\n      0x0100\n      exp\n      swap1\n      div\n      0xff\n      and\n      swap1\n      pop\n      dup4\n      jump\t// out\n        /* \"RPS.sol\":180:205  uint public numPlayer = 0 */\n    tag_89:\n      sload(0x03)\n      dup2\n      jump\t// out\n        /* \"RPS.sol\":241:287  mapping (address => uint) public player_choice */\n    tag_94:\n      mstore(0x20, 0x05)\n      dup1\n      0x00\n      mstore\n      keccak256(0x00, 0x40)\n      0x00\n      swap2\n      pop\n      swap1\n      pop\n      sload\n      dup2\n      jump\t// out\n        /* \"TimeUnit.sol\":578:685  function elapsedSeconds() public view returns (uint256) { ... */\n    tag_98:\n        /* \"TimeUnit.sol\":625:632  uint256 */\n      0x00\n        /* \"TimeUnit.sol\":668:677  startTime */\n      sload(0x02)\n        /* \"TimeUnit.sol\":650:665  block.timestamp */\n      timestamp\n        /* \"TimeUnit.sol\":650:677  block.timestamp - startTime */\n      tag_230\n      swap2\n      swap1\n      tag_231\n      jump\t// in\n    tag_230:\n        /* \"TimeUnit.sol\":642:678  return (block.timestamp - startTime) */\n      swap1\n      pop\n        /* \"TimeUnit.sol\":578:685  function elapsedSeconds() public view returns (uint256) { ... */\n      swap1\n      jump\t// out\n        /* \"RPS.sol\":537:562  uint public numReveal = 0 */\n    tag_102:\n      sload(0x0a)\n      dup2\n      jump\t// out\n        /* \"RPS.sol\":2382:2913  function input(bytes32 hashAns) public  {... */\n    tag_107:\n        /* \"RPS.sol\":2454:2455  2 */\n      0x02\n        /* \"RPS.sol\":2441:2450  numPlayer */\n      sload(0x03)\n        /* \"RPS.sol\":2441:2455  numPlayer == 2 */\n      eq\n        /* \"RPS.sol\":2433:2481  require(numPlayer == 2, \"Game needs 2 players.\") */\n      tag_233\n      jumpi\n      mload(0x40)\n      0x08c379a000000000000000000000000000000000000000000000000000000000\n      dup2\n      mstore\n      0x04\n      add\n      tag_234\n      swap1\n      tag_235\n      jump\t// in\n    tag_234:\n      mload(0x40)\n      dup1\n      swap2\n      sub\n      swap1\n      revert\n    tag_233:\n        /* \"RPS.sol\":2511:2512  2 */\n      0x02\n        /* \"RPS.sol\":2500:2508  numInput */\n      sload(0x09)\n        /* \"RPS.sol\":2500:2512  numInput < 2 */\n      lt\n        /* \"RPS.sol\":2492:2513  require(numInput < 2) */\n      tag_236\n      jumpi\n      0x00\n      dup1\n      revert\n    tag_236:\n        /* \"RPS.sol\":2532:2549  player_not_played */\n      0x06\n        /* \"RPS.sol\":2532:2561  player_not_played[msg.sender] */\n      0x00\n        /* \"RPS.sol\":2550:2560  msg.sender */\n      caller\n        /* \"RPS.sol\":2532:2561  player_not_played[msg.sender] */\n      0xffffffffffffffffffffffffffffffffffffffff\n      and\n      0xffffffffffffffffffffffffffffffffffffffff\n      and\n      dup2\n      mstore\n      0x20\n      add\n      swap1\n      dup2\n      mstore\n      0x20\n      add\n      0x00\n      keccak256\n      0x00\n      swap1\n      sload\n      swap1\n      0x0100\n      exp\n      swap1\n      div\n      0xff\n      and\n        /* \"RPS.sol\":2524:2562  require(player_not_played[msg.sender]) */\n      tag_237\n      jumpi\n      0x00\n      dup1\n      revert\n    tag_237:\n        /* \"RPS.sol\":2605:2610  false */\n      0x00\n        /* \"RPS.sol\":2581:2610  isCommit[msg.sender] == false */\n      iszero\n      iszero\n        /* \"RPS.sol\":2581:2589  isCommit */\n      0x08\n        /* \"RPS.sol\":2581:2601  isCommit[msg.sender] */\n      0x00\n        /* \"RPS.sol\":2590:2600  msg.sender */\n      caller\n        /* \"RPS.sol\":2581:2601  isCommit[msg.sender] */\n      0xffffffffffffffffffffffffffffffffffffffff\n      and\n      0xffffffffffffffffffffffffffffffffffffffff\n      and\n      dup2\n      mstore\n      0x20\n      add\n      swap1\n      dup2\n      mstore\n      0x20\n      add\n      0x00\n      keccak256\n      0x00\n      swap1\n      sload\n      swap1\n      0x0100\n      exp\n      swap1\n      div\n      0xff\n      and\n        /* \"RPS.sol\":2581:2610  isCommit[msg.sender] == false */\n      iszero\n      iszero\n      eq\n        /* \"RPS.sol\":2573:2636  require(isCommit[msg.sender] == false, \"You already commited.\") */\n      tag_238\n      jumpi\n      mload(0x40)\n      0x08c379a000000000000000000000000000000000000000000000000000000000\n      dup2\n      mstore\n      0x04\n      add\n      tag_239\n      swap1\n      tag_240\n      jump\t// in\n    tag_239:\n      mload(0x40)\n      dup1\n      swap2\n      sub\n      swap1\n      revert\n    tag_238:\n        /* \"RPS.sol\":2689:2694  false */\n      0x00\n        /* \"RPS.sol\":2657:2674  player_not_played */\n      0x06\n        /* \"RPS.sol\":2657:2686  player_not_played[msg.sender] */\n      0x00\n        /* \"RPS.sol\":2675:2685  msg.sender */\n      caller\n        /* \"RPS.sol\":2657:2686  player_not_played[msg.sender] */\n      0xffffffffffffffffffffffffffffffffffffffff\n      and\n      0xffffffffffffffffffffffffffffffffffffffff\n      and\n      dup2\n      mstore\n      0x20\n      add\n      swap1\n      dup2\n      mstore\n      0x20\n      add\n      0x00\n      keccak256\n      0x00\n        /* \"RPS.sol\":2657:2694  player_not_played[msg.sender] = false */\n      0x0100\n      exp\n      dup2\n      sload\n      dup2\n      0xff\n      mul\n      not\n      and\n      swap1\n      dup4\n      iszero\n      iszero\n      mul\n      or\n      swap1\n      sstore\n      pop\n        /* \"RPS.sol\":2728:2732  true */\n      0x01\n        /* \"RPS.sol\":2705:2713  isCommit */\n      0x08\n        /* \"RPS.sol\":2705:2725  isCommit[msg.sender] */\n      0x00\n        /* \"RPS.sol\":2714:2724  msg.sender */\n      caller\n        /* \"RPS.sol\":2705:2725  isCommit[msg.sender] */\n      0xffffffffffffffffffffffffffffffffffffffff\n      and\n      0xffffffffffffffffffffffffffffffffffffffff\n      and\n      dup2\n      mstore\n      0x20\n      add\n      swap1\n      dup2\n      mstore\n      0x20\n      add\n      0x00\n      keccak256\n      0x00\n        /* \"RPS.sol\":2705:2732  isCommit[msg.sender] = true */\n      0x0100\n      exp\n      dup2\n      sload\n      dup2\n      0xff\n      mul\n      not\n      and\n      swap1\n      dup4\n      iszero\n      iszero\n      mul\n      or\n      swap1\n      sstore\n      pop\n        /* \"RPS.sol\":2743:2758  commit(hashAns) */\n      tag_241\n        /* \"RPS.sol\":2750:2757  hashAns */\n      dup2\n        /* \"RPS.sol\":2743:2749  commit */\n      tag_242\n        /* \"RPS.sol\":2743:2758  commit(hashAns) */\n      jump\t// in\n    tag_241:\n        /* \"RPS.sol\":2771:2779  numInput */\n      0x09\n      0x00\n        /* \"RPS.sol\":2771:2781  numInput++ */\n      dup2\n      sload\n      dup1\n      swap3\n      swap2\n      swap1\n      tag_243\n      swap1\n      tag_139\n      jump\t// in\n    tag_243:\n      swap2\n      swap1\n      pop\n      sstore\n      pop\n        /* \"RPS.sol\":2797:2836  playerCommitHashed(msg.sender,numInput) */\n      0x3928cc5abcbb1c0b781bebbc4f1e9b156f6d392796c791cc0937db5e42677ff7\n        /* \"RPS.sol\":2816:2826  msg.sender */\n      caller\n        /* \"RPS.sol\":2827:2835  numInput */\n      sload(0x09)\n        /* \"RPS.sol\":2797:2836  playerCommitHashed(msg.sender,numInput) */\n      mload(0x40)\n      tag_244\n      swap3\n      swap2\n      swap1\n      tag_141\n      jump\t// in\n    tag_244:\n      mload(0x40)\n      dup1\n      swap2\n      sub\n      swap1\n      log1\n        /* \"RPS.sol\":2891:2905  setStartTime() */\n      tag_245\n        /* \"RPS.sol\":2891:2903  setStartTime */\n      tag_143\n        /* \"RPS.sol\":2891:2905  setStartTime() */\n      jump\t// in\n    tag_245:\n        /* \"RPS.sol\":2382:2913  function input(bytes32 hashAns) public  {... */\n      pop\n      jump\t// out\n        /* \"TimeUnit.sol\":801:1084  function elapsedMinutes() public view returns (uint256) { ... */\n    tag_110:\n        /* \"TimeUnit.sol\":848:855  uint256 */\n      0x00\n        /* \"TimeUnit.sol\":1068:1077  1 minutes */\n      0x3c\n        /* \"TimeUnit.sol\":1055:1064  startTime */\n      sload(0x02)\n        /* \"TimeUnit.sol\":1037:1052  block.timestamp */\n      timestamp\n        /* \"TimeUnit.sol\":1037:1064  block.timestamp - startTime */\n      tag_247\n      swap2\n      swap1\n      tag_231\n      jump\t// in\n    tag_247:\n        /* \"TimeUnit.sol\":1036:1077  (block.timestamp - startTime) / 1 minutes */\n      tag_248\n      swap2\n      swap1\n      tag_183\n      jump\t// in\n    tag_248:\n        /* \"TimeUnit.sol\":1029:1077  return (block.timestamp - startTime) / 1 minutes */\n      swap1\n      pop\n        /* \"TimeUnit.sol\":801:1084  function elapsedMinutes() public view returns (uint256) { ... */\n      swap1\n      jump\t// out\n        /* \"RPS.sol\":425:449  address[] public players */\n    tag_116:\n      0x07\n      dup2\n      dup2\n      sload\n      dup2\n      lt\n      tag_249\n      jumpi\n      0x00\n      dup1\n      revert\n    tag_249:\n      swap1\n      0x00\n      mstore\n      keccak256(0x00, 0x20)\n      add\n      0x00\n      swap2\n      pop\n      sload\n      swap1\n      0x0100\n      exp\n      swap1\n      div\n      0xffffffffffffffffffffffffffffffffffffffff\n      and\n      dup2\n      jump\t// out\n        /* \"TimeUnit.sol\":379:454  function setStartTime() internal { ... */\n    tag_143:\n        /* \"TimeUnit.sol\":432:447  block.timestamp */\n      timestamp\n        /* \"TimeUnit.sol\":420:429  startTime */\n      0x02\n        /* \"TimeUnit.sol\":420:447  startTime = block.timestamp */\n      dup2\n      swap1\n      sstore\n      pop\n        /* \"TimeUnit.sol\":379:454  function setStartTime() internal { ... */\n      jump\t// out\n        /* \"RPS.sol\":4460:4613  function _reset() private {... */\n    tag_173:\n        /* \"RPS.sol\":4504:4511  players */\n      0x07\n      0x00\n        /* \"RPS.sol\":4497:4511  delete players */\n      tag_253\n      swap2\n      swap1\n      tag_254\n      jump\t// in\n    tag_253:\n        /* \"RPS.sol\":4536:4537  0 */\n      0x00\n        /* \"RPS.sol\":4524:4533  numPlayer */\n      0x03\n        /* \"RPS.sol\":4524:4537  numPlayer = 0 */\n      dup2\n      swap1\n      sstore\n      pop\n        /* \"RPS.sol\":4559:4560  0 */\n      0x00\n        /* \"RPS.sol\":4548:4556  numInput */\n      0x09\n        /* \"RPS.sol\":4548:4560  numInput = 0 */\n      dup2\n      swap1\n      sstore\n      pop\n        /* \"RPS.sol\":4583:4584  0 */\n      0x00\n        /* \"RPS.sol\":4571:4580  numReveal */\n      0x0a\n        /* \"RPS.sol\":4571:4584  numReveal = 0 */\n      dup2\n      swap1\n      sstore\n      pop\n        /* \"RPS.sol\":4604:4605  0 */\n      0x00\n        /* \"RPS.sol\":4595:4601  reward */\n      0x04\n        /* \"RPS.sol\":4595:4605  reward = 0 */\n      dup2\n      swap1\n      sstore\n      pop\n        /* \"RPS.sol\":4460:4613  function _reset() private {... */\n      jump\t// out\n        /* \"CommitReveal.sol\":620:1786  function reveal(bytes32 revealHash) internal {... */\n    tag_222:\n        /* \"CommitReveal.sol\":778:783  false */\n      0x00\n        /* \"CommitReveal.sol\":748:783  commits[msg.sender].revealed==false */\n      iszero\n      iszero\n        /* \"CommitReveal.sol\":748:755  commits */\n      0x01\n        /* \"CommitReveal.sol\":748:767  commits[msg.sender] */\n      0x00\n        /* \"CommitReveal.sol\":756:766  msg.sender */\n      caller\n        /* \"CommitReveal.sol\":748:767  commits[msg.sender] */\n      0xffffffffffffffffffffffffffffffffffffffff\n      and\n      0xffffffffffffffffffffffffffffffffffffffff\n      and\n      dup2\n      mstore\n      0x20\n      add\n      swap1\n      dup2\n      mstore\n      0x20\n      add\n      0x00\n      keccak256\n        /* \"CommitReveal.sol\":748:776  commits[msg.sender].revealed */\n      0x01\n      add\n      0x08\n      swap1\n      sload\n      swap1\n      0x0100\n      exp\n      swap1\n      div\n      0xff\n      and\n        /* \"CommitReveal.sol\":748:783  commits[msg.sender].revealed==false */\n      iszero\n      iszero\n      eq\n        /* \"CommitReveal.sol\":740:825  require(commits[msg.sender].revealed==false,\"CommitReveal::reveal: Already revealed\") */\n      tag_256\n      jumpi\n      mload(0x40)\n      0x08c379a000000000000000000000000000000000000000000000000000000000\n      dup2\n      mstore\n      0x04\n      add\n      tag_257\n      swap1\n      tag_258\n      jump\t// in\n    tag_257:\n      mload(0x40)\n      dup1\n      swap2\n      sub\n      swap1\n      revert\n    tag_256:\n        /* \"CommitReveal.sol\":861:865  true */\n      0x01\n        /* \"CommitReveal.sol\":832:839  commits */\n      dup1\n        /* \"CommitReveal.sol\":832:851  commits[msg.sender] */\n      0x00\n        /* \"CommitReveal.sol\":840:850  msg.sender */\n      caller\n        /* \"CommitReveal.sol\":832:851  commits[msg.sender] */\n      0xffffffffffffffffffffffffffffffffffffffff\n      and\n      0xffffffffffffffffffffffffffffffffffffffff\n      and\n      dup2\n      mstore\n      0x20\n      add\n      swap1\n      dup2\n      mstore\n      0x20\n      add\n      0x00\n      keccak256\n        /* \"CommitReveal.sol\":832:860  commits[msg.sender].revealed */\n      0x01\n      add\n      0x08\n        /* \"CommitReveal.sol\":832:865  commits[msg.sender].revealed=true */\n      0x0100\n      exp\n      dup2\n      sload\n      dup2\n      0xff\n      mul\n      not\n      and\n      swap1\n      dup4\n      iszero\n      iszero\n      mul\n      or\n      swap1\n      sstore\n      pop\n        /* \"CommitReveal.sol\":957:964  commits */\n      0x01\n        /* \"CommitReveal.sol\":957:976  commits[msg.sender] */\n      0x00\n        /* \"CommitReveal.sol\":965:975  msg.sender */\n      caller\n        /* \"CommitReveal.sol\":957:976  commits[msg.sender] */\n      0xffffffffffffffffffffffffffffffffffffffff\n      and\n      0xffffffffffffffffffffffffffffffffffffffff\n      and\n      dup2\n      mstore\n      0x20\n      add\n      swap1\n      dup2\n      mstore\n      0x20\n      add\n      0x00\n      keccak256\n        /* \"CommitReveal.sol\":957:983  commits[msg.sender].commit */\n      0x00\n      add\n      sload\n        /* \"CommitReveal.sol\":936:955  getHash(revealHash) */\n      tag_259\n        /* \"CommitReveal.sol\":944:954  revealHash */\n      dup3\n        /* \"CommitReveal.sol\":936:943  getHash */\n      tag_54\n        /* \"CommitReveal.sol\":936:955  getHash(revealHash) */\n      jump\t// in\n    tag_259:\n        /* \"CommitReveal.sol\":936:983  getHash(revealHash)==commits[msg.sender].commit */\n      eq\n        /* \"CommitReveal.sol\":928:1044  require(getHash(revealHash)==commits[msg.sender].commit,\"CommitReveal::reveal: Revealed hash does not match commit\") */\n      tag_260\n      jumpi\n      mload(0x40)\n      0x08c379a000000000000000000000000000000000000000000000000000000000\n      dup2\n      mstore\n      0x04\n      add\n      tag_261\n      swap1\n      tag_262\n      jump\t// in\n    tag_261:\n      mload(0x40)\n      dup1\n      swap2\n      sub\n      swap1\n      revert\n    tag_260:\n        /* \"CommitReveal.sol\":1152:1159  commits */\n      0x01\n        /* \"CommitReveal.sol\":1152:1171  commits[msg.sender] */\n      0x00\n        /* \"CommitReveal.sol\":1160:1170  msg.sender */\n      caller\n        /* \"CommitReveal.sol\":1152:1171  commits[msg.sender] */\n      0xffffffffffffffffffffffffffffffffffffffff\n      and\n      0xffffffffffffffffffffffffffffffffffffffff\n      and\n      dup2\n      mstore\n      0x20\n      add\n      swap1\n      dup2\n      mstore\n      0x20\n      add\n      0x00\n      keccak256\n        /* \"CommitReveal.sol\":1152:1177  commits[msg.sender].block */\n      0x01\n      add\n      0x00\n      swap1\n      sload\n      swap1\n      0x0100\n      exp\n      swap1\n      div\n      0xffffffffffffffff\n      and\n        /* \"CommitReveal.sol\":1131:1177  uint64(block.number)>commits[msg.sender].block */\n      0xffffffffffffffff\n      and\n        /* \"CommitReveal.sol\":1138:1150  block.number */\n      number\n        /* \"CommitReveal.sol\":1131:1177  uint64(block.number)>commits[msg.sender].block */\n      0xffffffffffffffff\n      and\n      gt\n        /* \"CommitReveal.sol\":1123:1247  require(uint64(block.number)>commits[msg.sender].block,\"CommitReveal::reveal: Reveal and commit happened on the same block\") */\n      tag_263\n      jumpi\n      mload(0x40)\n      0x08c379a000000000000000000000000000000000000000000000000000000000\n      dup2\n      mstore\n      0x04\n      add\n      tag_264\n      swap1\n      tag_265\n      jump\t// in\n    tag_264:\n      mload(0x40)\n      dup1\n      swap2\n      sub\n      swap1\n      revert\n    tag_263:\n        /* \"CommitReveal.sol\":1366:1369  250 */\n      0xfa\n        /* \"CommitReveal.sol\":1340:1347  commits */\n      0x01\n        /* \"CommitReveal.sol\":1340:1359  commits[msg.sender] */\n      0x00\n        /* \"CommitReveal.sol\":1348:1358  msg.sender */\n      caller\n        /* \"CommitReveal.sol\":1340:1359  commits[msg.sender] */\n      0xffffffffffffffffffffffffffffffffffffffff\n      and\n      0xffffffffffffffffffffffffffffffffffffffff\n      and\n      dup2\n      mstore\n      0x20\n      add\n      swap1\n      dup2\n      mstore\n      0x20\n      add\n      0x00\n      keccak256\n        /* \"CommitReveal.sol\":1340:1365  commits[msg.sender].block */\n      0x01\n      add\n      0x00\n      swap1\n      sload\n      swap1\n      0x0100\n      exp\n      swap1\n      div\n      0xffffffffffffffff\n      and\n        /* \"CommitReveal.sol\":1340:1369  commits[msg.sender].block+250 */\n      tag_266\n      swap2\n      swap1\n      tag_267\n      jump\t// in\n    tag_266:\n        /* \"CommitReveal.sol\":1318:1369  uint64(block.number)<=commits[msg.sender].block+250 */\n      0xffffffffffffffff\n      and\n        /* \"CommitReveal.sol\":1325:1337  block.number */\n      number\n        /* \"CommitReveal.sol\":1318:1369  uint64(block.number)<=commits[msg.sender].block+250 */\n      0xffffffffffffffff\n      and\n      gt\n      iszero\n        /* \"CommitReveal.sol\":1310:1412  require(uint64(block.number)<=commits[msg.sender].block+250,\"CommitReveal::reveal: Revealed too late\") */\n      tag_268\n      jumpi\n      mload(0x40)\n      0x08c379a000000000000000000000000000000000000000000000000000000000\n      dup2\n      mstore\n      0x04\n      add\n      tag_269\n      swap1\n      tag_270\n      jump\t// in\n    tag_269:\n      mload(0x40)\n      dup1\n      swap2\n      sub\n      swap1\n      revert\n    tag_268:\n        /* \"CommitReveal.sol\":1487:1504  bytes32 blockHash */\n      0x00\n        /* \"CommitReveal.sol\":1517:1524  commits */\n      0x01\n        /* \"CommitReveal.sol\":1517:1536  commits[msg.sender] */\n      0x00\n        /* \"CommitReveal.sol\":1525:1535  msg.sender */\n      caller\n        /* \"CommitReveal.sol\":1517:1536  commits[msg.sender] */\n      0xffffffffffffffffffffffffffffffffffffffff\n      and\n      0xffffffffffffffffffffffffffffffffffffffff\n      and\n      dup2\n      mstore\n      0x20\n      add\n      swap1\n      dup2\n      mstore\n      0x20\n      add\n      0x00\n      keccak256\n        /* \"CommitReveal.sol\":1517:1542  commits[msg.sender].block */\n      0x01\n      add\n      0x00\n      swap1\n      sload\n      swap1\n      0x0100\n      exp\n      swap1\n      div\n      0xffffffffffffffff\n      and\n        /* \"CommitReveal.sol\":1507:1543  blockhash(commits[msg.sender].block) */\n      0xffffffffffffffff\n      and\n      blockhash\n        /* \"CommitReveal.sol\":1487:1543  bytes32 blockHash = blockhash(commits[msg.sender].block) */\n      swap1\n      pop\n        /* \"CommitReveal.sol\":1655:1666  uint random */\n      0x00\n        /* \"CommitReveal.sol\":1725:1728  max */\n      dup1\n      0x00\n      swap1\n      sload\n      swap1\n      0x0100\n      exp\n      swap1\n      div\n      0xff\n      and\n        /* \"CommitReveal.sol\":1669:1728  uint(keccak256(abi.encodePacked(blockHash,revealHash)))%max */\n      0xff\n      and\n        /* \"CommitReveal.sol\":1701:1710  blockHash */\n      dup3\n        /* \"CommitReveal.sol\":1711:1721  revealHash */\n      dup5\n        /* \"CommitReveal.sol\":1684:1722  abi.encodePacked(blockHash,revealHash) */\n      add(0x20, mload(0x40))\n      tag_271\n      swap3\n      swap2\n      swap1\n      tag_272\n      jump\t// in\n    tag_271:\n      mload(0x40)\n      0x20\n      dup2\n      dup4\n      sub\n      sub\n      dup2\n      mstore\n      swap1\n      0x40\n      mstore\n        /* \"CommitReveal.sol\":1674:1723  keccak256(abi.encodePacked(blockHash,revealHash)) */\n      dup1\n      mload\n      swap1\n      0x20\n      add\n      keccak256\n        /* \"CommitReveal.sol\":1669:1724  uint(keccak256(abi.encodePacked(blockHash,revealHash))) */\n      0x00\n      shr\n        /* \"CommitReveal.sol\":1669:1728  uint(keccak256(abi.encodePacked(blockHash,revealHash)))%max */\n      tag_273\n      swap2\n      swap1\n      tag_274\n      jump\t// in\n    tag_273:\n        /* \"CommitReveal.sol\":1655:1728  uint random = uint(keccak256(abi.encodePacked(blockHash,revealHash)))%max */\n      swap1\n      pop\n        /* \"CommitReveal.sol\":1740:1780  RevealHash(msg.sender,revealHash,random) */\n      0xbc016dd1cadeaefcb851af7a0a93532e0023d536894b730801f7bcfe7065bcc2\n        /* \"CommitReveal.sol\":1751:1761  msg.sender */\n      caller\n        /* \"CommitReveal.sol\":1762:1772  revealHash */\n      dup5\n        /* \"CommitReveal.sol\":1773:1779  random */\n      dup4\n        /* \"CommitReveal.sol\":1740:1780  RevealHash(msg.sender,revealHash,random) */\n      mload(0x40)\n      tag_275\n      swap4\n      swap3\n      swap2\n      swap1\n      tag_276\n      jump\t// in\n    tag_275:\n      mload(0x40)\n      dup1\n      swap2\n      sub\n      swap1\n      log1\n        /* \"CommitReveal.sol\":665:1786  {... */\n      pop\n      pop\n        /* \"CommitReveal.sol\":620:1786  function reveal(bytes32 revealHash) internal {... */\n      pop\n      jump\t// out\n        /* \"RPS.sol\":3777:4452  function _checkWinnerAndPay() private {... */\n    tag_227:\n        /* \"RPS.sol\":3826:3839  uint p0Choice */\n      0x00\n        /* \"RPS.sol\":3842:3855  player_choice */\n      0x05\n        /* \"RPS.sol\":3842:3867  player_choice[players[0]] */\n      0x00\n        /* \"RPS.sol\":3856:3863  players */\n      0x07\n        /* \"RPS.sol\":3864:3865  0 */\n      0x00\n        /* \"RPS.sol\":3856:3866  players[0] */\n      dup2\n      sload\n      dup2\n      lt\n      tag_278\n      jumpi\n      tag_279\n      tag_129\n      jump\t// in\n    tag_279:\n    tag_278:\n      swap1\n      0x00\n      mstore\n      keccak256(0x00, 0x20)\n      add\n      0x00\n      swap1\n      sload\n      swap1\n      0x0100\n      exp\n      swap1\n      div\n      0xffffffffffffffffffffffffffffffffffffffff\n      and\n        /* \"RPS.sol\":3842:3867  player_choice[players[0]] */\n      0xffffffffffffffffffffffffffffffffffffffff\n      and\n      0xffffffffffffffffffffffffffffffffffffffff\n      and\n      dup2\n      mstore\n      0x20\n      add\n      swap1\n      dup2\n      mstore\n      0x20\n      add\n      0x00\n      keccak256\n      sload\n        /* \"RPS.sol\":3826:3867  uint p0Choice = player_choice[players[0]] */\n      swap1\n      pop\n        /* \"RPS.sol\":3878:3891  uint p1Choice */\n      0x00\n        /* \"RPS.sol\":3894:3907  player_choice */\n      0x05\n        /* \"RPS.sol\":3894:3919  player_choice[players[1]] */\n      0x00\n        /* \"RPS.sol\":3908:3915  players */\n      0x07\n        /* \"RPS.sol\":3916:3917  1 */\n      0x01\n        /* \"RPS.sol\":3908:3918  players[1] */\n      dup2\n      sload\n      dup2\n      lt\n      tag_281\n      jumpi\n      tag_282\n      tag_129\n      jump\t// in\n    tag_282:\n    tag_281:\n      swap1\n      0x00\n      mstore\n      keccak256(0x00, 0x20)\n      add\n      0x00\n      swap1\n      sload\n      swap1\n      0x0100\n      exp\n      swap1\n      div\n      0xffffffffffffffffffffffffffffffffffffffff\n      and\n        /* \"RPS.sol\":3894:3919  player_choice[players[1]] */\n      0xffffffffffffffffffffffffffffffffffffffff\n      and\n      0xffffffffffffffffffffffffffffffffffffffff\n      and\n      dup2\n      mstore\n      0x20\n      add\n      swap1\n      dup2\n      mstore\n      0x20\n      add\n      0x00\n      keccak256\n      sload\n        /* \"RPS.sol\":3878:3919  uint p1Choice = player_choice[players[1]] */\n      swap1\n      pop\n        /* \"RPS.sol\":3930:3954  address payable account0 */\n      0x00\n        /* \"RPS.sol\":3965:3972  players */\n      0x07\n        /* \"RPS.sol\":3973:3974  0 */\n      0x00\n        /* \"RPS.sol\":3965:3975  players[0] */\n      dup2\n      sload\n      dup2\n      lt\n      tag_284\n      jumpi\n      tag_285\n      tag_129\n      jump\t// in\n    tag_285:\n    tag_284:\n      swap1\n      0x00\n      mstore\n      keccak256(0x00, 0x20)\n      add\n      0x00\n      swap1\n      sload\n      swap1\n      0x0100\n      exp\n      swap1\n      div\n      0xffffffffffffffffffffffffffffffffffffffff\n      and\n        /* \"RPS.sol\":3930:3976  address payable account0 = payable(players[0]) */\n      swap1\n      pop\n        /* \"RPS.sol\":3987:4011  address payable account1 */\n      0x00\n        /* \"RPS.sol\":4022:4029  players */\n      0x07\n        /* \"RPS.sol\":4030:4031  1 */\n      0x01\n        /* \"RPS.sol\":4022:4032  players[1] */\n      dup2\n      sload\n      dup2\n      lt\n      tag_287\n      jumpi\n      tag_288\n      tag_129\n      jump\t// in\n    tag_288:\n    tag_287:\n      swap1\n      0x00\n      mstore\n      keccak256(0x00, 0x20)\n      add\n      0x00\n      swap1\n      sload\n      swap1\n      0x0100\n      exp\n      swap1\n      div\n      0xffffffffffffffffffffffffffffffffffffffff\n      and\n        /* \"RPS.sol\":3987:4033  address payable account1 = payable(players[1]) */\n      swap1\n      pop\n        /* \"RPS.sol\":4060:4068  p1Choice */\n      dup3\n        /* \"RPS.sol\":4048:4056  p0Choice */\n      dup5\n        /* \"RPS.sol\":4048:4068  p0Choice == p1Choice */\n      sub\n        /* \"RPS.sol\":4044:4445  if (p0Choice == p1Choice) {... */\n      tag_290\n      jumpi\n        /* \"RPS.sol\":4085:4093  account0 */\n      dup2\n        /* \"RPS.sol\":4085:4102  account0.transfer */\n      0xffffffffffffffffffffffffffffffffffffffff\n      and\n        /* \"RPS.sol\":4085:4114  account0.transfer(reward / 2) */\n      0x08fc\n        /* \"RPS.sol\":4112:4113  2 */\n      0x02\n        /* \"RPS.sol\":4103:4109  reward */\n      sload(0x04)\n        /* \"RPS.sol\":4103:4113  reward / 2 */\n      tag_291\n      swap2\n      swap1\n      tag_183\n      jump\t// in\n    tag_291:\n        /* \"RPS.sol\":4085:4114  account0.transfer(reward / 2) */\n      swap1\n      dup2\n      iszero\n      mul\n      swap1\n      mload(0x40)\n      0x00\n      mload(0x40)\n      dup1\n      dup4\n      sub\n      dup2\n      dup6\n      dup9\n      dup9\n      call\n      swap4\n      pop\n      pop\n      pop\n      pop\n      iszero\n      dup1\n      iszero\n      tag_293\n      jumpi\n      returndatasize\n      0x00\n      dup1\n      returndatacopy\n      revert(0x00, returndatasize)\n    tag_293:\n      pop\n        /* \"RPS.sol\":4129:4137  account1 */\n      dup1\n        /* \"RPS.sol\":4129:4146  account1.transfer */\n      0xffffffffffffffffffffffffffffffffffffffff\n      and\n        /* \"RPS.sol\":4129:4158  account1.transfer(reward / 2) */\n      0x08fc\n        /* \"RPS.sol\":4156:4157  2 */\n      0x02\n        /* \"RPS.sol\":4147:4153  reward */\n      sload(0x04)\n        /* \"RPS.sol\":4147:4157  reward / 2 */\n      tag_294\n      swap2\n      swap1\n      tag_183\n      jump\t// in\n    tag_294:\n        /* \"RPS.sol\":4129:4158  account1.transfer(reward / 2) */\n      swap1\n      dup2\n      iszero\n      mul\n      swap1\n      mload(0x40)\n      0x00\n      mload(0x40)\n      dup1\n      dup4\n      sub\n      dup2\n      dup6\n      dup9\n      dup9\n      call\n      swap4\n      pop\n      pop\n      pop\n      pop\n      iszero\n      dup1\n      iszero\n      tag_296\n      jumpi\n      returndatasize\n      0x00\n      dup1\n      returndatacopy\n      revert(0x00, returndatasize)\n    tag_296:\n      pop\n        /* \"RPS.sol\":4044:4445  if (p0Choice == p1Choice) {... */\n      jump(tag_297)\n    tag_290:\n        /* \"RPS.sol\":4212:4220  p1Choice */\n      dup3\n        /* \"RPS.sol\":4207:4208  5 */\n      0x05\n        /* \"RPS.sol\":4202:4203  1 */\n      0x01\n        /* \"RPS.sol\":4191:4199  p0Choice */\n      dup7\n        /* \"RPS.sol\":4191:4203  p0Choice + 1 */\n      tag_298\n      swap2\n      swap1\n      tag_136\n      jump\t// in\n    tag_298:\n        /* \"RPS.sol\":4190:4208  (p0Choice + 1) % 5 */\n      tag_299\n      swap2\n      swap1\n      tag_274\n      jump\t// in\n    tag_299:\n        /* \"RPS.sol\":4190:4220  (p0Choice + 1) % 5 == p1Choice */\n      eq\n        /* \"RPS.sol\":4190:4254  (p0Choice + 1) % 5 == p1Choice || (p0Choice + 3) % 5 == p1Choice */\n      dup1\n      tag_300\n      jumpi\n      pop\n        /* \"RPS.sol\":4246:4254  p1Choice */\n      dup3\n        /* \"RPS.sol\":4241:4242  5 */\n      0x05\n        /* \"RPS.sol\":4236:4237  3 */\n      0x03\n        /* \"RPS.sol\":4225:4233  p0Choice */\n      dup7\n        /* \"RPS.sol\":4225:4237  p0Choice + 3 */\n      tag_301\n      swap2\n      swap1\n      tag_136\n      jump\t// in\n    tag_301:\n        /* \"RPS.sol\":4224:4242  (p0Choice + 3) % 5 */\n      tag_302\n      swap2\n      swap1\n      tag_274\n      jump\t// in\n    tag_302:\n        /* \"RPS.sol\":4224:4254  (p0Choice + 3) % 5 == p1Choice */\n      eq\n        /* \"RPS.sol\":4190:4254  (p0Choice + 1) % 5 == p1Choice || (p0Choice + 3) % 5 == p1Choice */\n    tag_300:\n        /* \"RPS.sol\":4186:4445  if ((p0Choice + 1) % 5 == p1Choice || (p0Choice + 3) % 5 == p1Choice) {... */\n      iszero\n      tag_303\n      jumpi\n        /* \"RPS.sol\":4304:4312  account1 */\n      dup1\n        /* \"RPS.sol\":4304:4321  account1.transfer */\n      0xffffffffffffffffffffffffffffffffffffffff\n      and\n        /* \"RPS.sol\":4304:4329  account1.transfer(reward) */\n      0x08fc\n        /* \"RPS.sol\":4322:4328  reward */\n      sload(0x04)\n        /* \"RPS.sol\":4304:4329  account1.transfer(reward) */\n      swap1\n      dup2\n      iszero\n      mul\n      swap1\n      mload(0x40)\n      0x00\n      mload(0x40)\n      dup1\n      dup4\n      sub\n      dup2\n      dup6\n      dup9\n      dup9\n      call\n      swap4\n      pop\n      pop\n      pop\n      pop\n      iszero\n      dup1\n      iszero\n      tag_305\n      jumpi\n      returndatasize\n      0x00\n      dup1\n      returndatacopy\n      revert(0x00, returndatasize)\n    tag_305:\n      pop\n        /* \"RPS.sol\":4186:4445  if ((p0Choice + 1) % 5 == p1Choice || (p0Choice + 3) % 5 == p1Choice) {... */\n      jump(tag_306)\n    tag_303:\n        /* \"RPS.sol\":4404:4412  account0 */\n      dup2\n        /* \"RPS.sol\":4404:4421  account0.transfer */\n      0xffffffffffffffffffffffffffffffffffffffff\n      and\n        /* \"RPS.sol\":4404:4429  account0.transfer(reward) */\n      0x08fc\n        /* \"RPS.sol\":4422:4428  reward */\n      sload(0x04)\n        /* \"RPS.sol\":4404:4429  account0.transfer(reward) */\n      swap1\n      dup2\n      iszero\n      mul\n      swap1\n      mload(0x40)\n      0x00\n      mload(0x40)\n      dup1\n      dup4\n      sub\n      dup2\n      dup6\n      dup9\n      dup9\n      call\n      swap4\n      pop\n      pop\n      pop\n      pop\n      iszero\n      dup1\n      iszero\n      tag_308\n      jumpi\n      returndatasize\n      0x00\n      dup1\n      returndatacopy\n      revert(0x00, returndatasize)\n    tag_308:\n      pop\n        /* \"RPS.sol\":4186:4445  if ((p0Choice + 1) % 5 == p1Choice || (p0Choice + 3) % 5 == p1Choice) {... */\n    tag_306:\n        /* \"RPS.sol\":4044:4445  if (p0Choice == p1Choice) {... */\n    tag_297:\n        /* \"RPS.sol\":3815:4452  {... */\n      pop\n      pop\n      pop\n      pop\n        /* \"RPS.sol\":3777:4452  function _checkWinnerAndPay() private {... */\n      jump\t// out\n        /* \"CommitReveal.sol\":267:545  function commit(bytes32 dataHash) internal {... */\n    tag_242:\n        /* \"CommitReveal.sol\":346:354  dataHash */\n      dup1\n        /* \"CommitReveal.sol\":317:324  commits */\n      0x01\n        /* \"CommitReveal.sol\":317:336  commits[msg.sender] */\n      0x00\n        /* \"CommitReveal.sol\":325:335  msg.sender */\n      caller\n        /* \"CommitReveal.sol\":317:336  commits[msg.sender] */\n      0xffffffffffffffffffffffffffffffffffffffff\n      and\n      0xffffffffffffffffffffffffffffffffffffffff\n      and\n      dup2\n      mstore\n      0x20\n      add\n      swap1\n      dup2\n      mstore\n      0x20\n      add\n      0x00\n      keccak256\n        /* \"CommitReveal.sol\":317:343  commits[msg.sender].commit */\n      0x00\n      add\n        /* \"CommitReveal.sol\":317:354  commits[msg.sender].commit = dataHash */\n      dup2\n      swap1\n      sstore\n      pop\n        /* \"CommitReveal.sol\":396:408  block.number */\n      number\n        /* \"CommitReveal.sol\":361:368  commits */\n      0x01\n        /* \"CommitReveal.sol\":361:380  commits[msg.sender] */\n      0x00\n        /* \"CommitReveal.sol\":369:379  msg.sender */\n      caller\n        /* \"CommitReveal.sol\":361:380  commits[msg.sender] */\n      0xffffffffffffffffffffffffffffffffffffffff\n      and\n      0xffffffffffffffffffffffffffffffffffffffff\n      and\n      dup2\n      mstore\n      0x20\n      add\n      swap1\n      dup2\n      mstore\n      0x20\n      add\n      0x00\n      keccak256\n        /* \"CommitReveal.sol\":361:386  commits[msg.sender].block */\n      0x01\n      add\n      0x00\n        /* \"CommitReveal.sol\":361:409  commits[msg.sender].block = uint64(block.number) */\n      0x0100\n      exp\n      dup2\n      sload\n      dup2\n      0xffffffffffffffff\n      mul\n      not\n      and\n      swap1\n      dup4\n      0xffffffffffffffff\n      and\n      mul\n      or\n      swap1\n      sstore\n      pop\n        /* \"CommitReveal.sol\":447:452  false */\n      0x00\n        /* \"CommitReveal.sol\":416:423  commits */\n      0x01\n        /* \"CommitReveal.sol\":416:435  commits[msg.sender] */\n      0x00\n        /* \"CommitReveal.sol\":424:434  msg.sender */\n      caller\n        /* \"CommitReveal.sol\":416:435  commits[msg.sender] */\n      0xffffffffffffffffffffffffffffffffffffffff\n      and\n      0xffffffffffffffffffffffffffffffffffffffff\n      and\n      dup2\n      mstore\n      0x20\n      add\n      swap1\n      dup2\n      mstore\n      0x20\n      add\n      0x00\n      keccak256\n        /* \"CommitReveal.sol\":416:444  commits[msg.sender].revealed */\n      0x01\n      add\n      0x08\n        /* \"CommitReveal.sol\":416:452  commits[msg.sender].revealed = false */\n      0x0100\n      exp\n      dup2\n      sload\n      dup2\n      0xff\n      mul\n      not\n      and\n      swap1\n      dup4\n      iszero\n      iszero\n      mul\n      or\n      swap1\n      sstore\n      pop\n        /* \"CommitReveal.sol\":464:539  CommitHash(msg.sender,commits[msg.sender].commit,commits[msg.sender].block) */\n      0x3c1a1f8f38335b17f751c6da4ba7d1865f26b3997535176f5080de9fad891603\n        /* \"CommitReveal.sol\":475:485  msg.sender */\n      caller\n        /* \"CommitReveal.sol\":486:493  commits */\n      0x01\n        /* \"CommitReveal.sol\":486:505  commits[msg.sender] */\n      0x00\n        /* \"CommitReveal.sol\":494:504  msg.sender */\n      caller\n        /* \"CommitReveal.sol\":486:505  commits[msg.sender] */\n      0xffffffffffffffffffffffffffffffffffffffff\n      and\n      0xffffffffffffffffffffffffffffffffffffffff\n      and\n      dup2\n      mstore\n      0x20\n      add\n      swap1\n      dup2\n      mstore\n      0x20\n      add\n      0x00\n      keccak256\n        /* \"CommitReveal.sol\":486:512  commits[msg.sender].commit */\n      0x00\n      add\n      sload\n        /* \"CommitReveal.sol\":513:520  commits */\n      0x01\n        /* \"CommitReveal.sol\":513:532  commits[msg.sender] */\n      0x00\n        /* \"CommitReveal.sol\":521:531  msg.sender */\n      caller\n        /* \"CommitReveal.sol\":513:532  commits[msg.sender] */\n      0xffffffffffffffffffffffffffffffffffffffff\n      and\n      0xffffffffffffffffffffffffffffffffffffffff\n      and\n      dup2\n      mstore\n      0x20\n      add\n      swap1\n      dup2\n      mstore\n      0x20\n      add\n      0x00\n      keccak256\n        /* \"CommitReveal.sol\":513:538  commits[msg.sender].block */\n      0x01\n      add\n      0x00\n      swap1\n      sload\n      swap1\n      0x0100\n      exp\n      swap1\n      div\n      0xffffffffffffffff\n      and\n        /* \"CommitReveal.sol\":464:539  CommitHash(msg.sender,commits[msg.sender].commit,commits[msg.sender].block) */\n      mload(0x40)\n      tag_310\n      swap4\n      swap3\n      swap2\n      swap1\n      tag_311\n      jump\t// in\n    tag_310:\n      mload(0x40)\n      dup1\n      swap2\n      sub\n      swap1\n      log1\n        /* \"CommitReveal.sol\":267:545  function commit(bytes32 dataHash) internal {... */\n      pop\n      jump\t// out\n    tag_254:\n      pop\n      dup1\n      sload\n      0x00\n      dup3\n      sstore\n      swap1\n      0x00\n      mstore\n      keccak256(0x00, 0x20)\n      swap1\n      dup2\n      add\n      swap1\n      tag_313\n      swap2\n      swap1\n      tag_314\n      jump\t// in\n    tag_313:\n      pop\n      jump\t// out\n    tag_314:\n    tag_315:\n      dup1\n      dup3\n      gt\n      iszero\n      tag_316\n      jumpi\n      0x00\n      dup2\n      0x00\n      swap1\n      sstore\n      pop\n      0x01\n      add\n      jump(tag_315)\n    tag_316:\n      pop\n      swap1\n      jump\t// out\n        /* \"#utility.yul\":7:84   */\n    tag_317:\n        /* \"#utility.yul\":44:51   */\n      0x00\n        /* \"#utility.yul\":73:78   */\n      dup2\n        /* \"#utility.yul\":62:78   */\n      swap1\n      pop\n        /* \"#utility.yul\":7:84   */\n      swap2\n      swap1\n      pop\n      jump\t// out\n        /* \"#utility.yul\":90:208   */\n    tag_318:\n        /* \"#utility.yul\":177:201   */\n      tag_407\n        /* \"#utility.yul\":195:200   */\n      dup2\n        /* \"#utility.yul\":177:201   */\n      tag_317\n      jump\t// in\n    tag_407:\n        /* \"#utility.yul\":172:175   */\n      dup3\n        /* \"#utility.yul\":165:202   */\n      mstore\n        /* \"#utility.yul\":90:208   */\n      pop\n      pop\n      jump\t// out\n        /* \"#utility.yul\":214:436   */\n    tag_29:\n        /* \"#utility.yul\":307:311   */\n      0x00\n        /* \"#utility.yul\":345:347   */\n      0x20\n        /* \"#utility.yul\":334:343   */\n      dup3\n        /* \"#utility.yul\":330:348   */\n      add\n        /* \"#utility.yul\":322:348   */\n      swap1\n      pop\n        /* \"#utility.yul\":358:429   */\n      tag_409\n        /* \"#utility.yul\":426:427   */\n      0x00\n        /* \"#utility.yul\":415:424   */\n      dup4\n        /* \"#utility.yul\":411:428   */\n      add\n        /* \"#utility.yul\":402:408   */\n      dup5\n        /* \"#utility.yul\":358:429   */\n      tag_318\n      jump\t// in\n    tag_409:\n        /* \"#utility.yul\":214:436   */\n      swap3\n      swap2\n      pop\n      pop\n      jump\t// out\n        /* \"#utility.yul\":442:517   */\n    tag_319:\n        /* \"#utility.yul\":475:481   */\n      0x00\n        /* \"#utility.yul\":508:510   */\n      0x40\n        /* \"#utility.yul\":502:511   */\n      mload\n        /* \"#utility.yul\":492:511   */\n      swap1\n      pop\n        /* \"#utility.yul\":442:517   */\n      swap1\n      jump\t// out\n        /* \"#utility.yul\":523:640   */\n    tag_320:\n        /* \"#utility.yul\":632:633   */\n      0x00\n        /* \"#utility.yul\":629:630   */\n      dup1\n        /* \"#utility.yul\":622:634   */\n      revert\n        /* \"#utility.yul\":646:763   */\n    tag_321:\n        /* \"#utility.yul\":755:756   */\n      0x00\n        /* \"#utility.yul\":752:753   */\n      dup1\n        /* \"#utility.yul\":745:757   */\n      revert\n        /* \"#utility.yul\":769:895   */\n    tag_322:\n        /* \"#utility.yul\":806:813   */\n      0x00\n        /* \"#utility.yul\":846:888   */\n      0xffffffffffffffffffffffffffffffffffffffff\n        /* \"#utility.yul\":839:844   */\n      dup3\n        /* \"#utility.yul\":835:889   */\n      and\n        /* \"#utility.yul\":824:889   */\n      swap1\n      pop\n        /* \"#utility.yul\":769:895   */\n      swap2\n      swap1\n      pop\n      jump\t// out\n        /* \"#utility.yul\":901:997   */\n    tag_323:\n        /* \"#utility.yul\":938:945   */\n      0x00\n        /* \"#utility.yul\":967:991   */\n      tag_415\n        /* \"#utility.yul\":985:990   */\n      dup3\n        /* \"#utility.yul\":967:991   */\n      tag_322\n      jump\t// in\n    tag_415:\n        /* \"#utility.yul\":956:991   */\n      swap1\n      pop\n        /* \"#utility.yul\":901:997   */\n      swap2\n      swap1\n      pop\n      jump\t// out\n        /* \"#utility.yul\":1003:1125   */\n    tag_324:\n        /* \"#utility.yul\":1076:1100   */\n      tag_417\n        /* \"#utility.yul\":1094:1099   */\n      dup2\n        /* \"#utility.yul\":1076:1100   */\n      tag_323\n      jump\t// in\n    tag_417:\n        /* \"#utility.yul\":1069:1074   */\n      dup2\n        /* \"#utility.yul\":1066:1101   */\n      eq\n        /* \"#utility.yul\":1056:1119   */\n      tag_418\n      jumpi\n        /* \"#utility.yul\":1115:1116   */\n      0x00\n        /* \"#utility.yul\":1112:1113   */\n      dup1\n        /* \"#utility.yul\":1105:1117   */\n      revert\n        /* \"#utility.yul\":1056:1119   */\n    tag_418:\n        /* \"#utility.yul\":1003:1125   */\n      pop\n      jump\t// out\n        /* \"#utility.yul\":1131:1270   */\n    tag_325:\n        /* \"#utility.yul\":1177:1182   */\n      0x00\n        /* \"#utility.yul\":1215:1221   */\n      dup2\n        /* \"#utility.yul\":1202:1222   */\n      calldataload\n        /* \"#utility.yul\":1193:1222   */\n      swap1\n      pop\n        /* \"#utility.yul\":1231:1264   */\n      tag_420\n        /* \"#utility.yul\":1258:1263   */\n      dup2\n        /* \"#utility.yul\":1231:1264   */\n      tag_324\n      jump\t// in\n    tag_420:\n        /* \"#utility.yul\":1131:1270   */\n      swap3\n      swap2\n      pop\n      pop\n      jump\t// out\n        /* \"#utility.yul\":1276:1605   */\n    tag_33:\n        /* \"#utility.yul\":1335:1341   */\n      0x00\n        /* \"#utility.yul\":1384:1386   */\n      0x20\n        /* \"#utility.yul\":1372:1381   */\n      dup3\n        /* \"#utility.yul\":1363:1370   */\n      dup5\n        /* \"#utility.yul\":1359:1382   */\n      sub\n        /* \"#utility.yul\":1355:1387   */\n      slt\n        /* \"#utility.yul\":1352:1471   */\n      iszero\n      tag_422\n      jumpi\n        /* \"#utility.yul\":1390:1469   */\n      tag_423\n      tag_320\n      jump\t// in\n    tag_423:\n        /* \"#utility.yul\":1352:1471   */\n    tag_422:\n        /* \"#utility.yul\":1510:1511   */\n      0x00\n        /* \"#utility.yul\":1535:1588   */\n      tag_424\n        /* \"#utility.yul\":1580:1587   */\n      dup5\n        /* \"#utility.yul\":1571:1577   */\n      dup3\n        /* \"#utility.yul\":1560:1569   */\n      dup6\n        /* \"#utility.yul\":1556:1578   */\n      add\n        /* \"#utility.yul\":1535:1588   */\n      tag_325\n      jump\t// in\n    tag_424:\n        /* \"#utility.yul\":1525:1588   */\n      swap2\n      pop\n        /* \"#utility.yul\":1481:1598   */\n      pop\n        /* \"#utility.yul\":1276:1605   */\n      swap3\n      swap2\n      pop\n      pop\n      jump\t// out\n        /* \"#utility.yul\":1611:1701   */\n    tag_326:\n        /* \"#utility.yul\":1645:1652   */\n      0x00\n        /* \"#utility.yul\":1688:1693   */\n      dup2\n        /* \"#utility.yul\":1681:1694   */\n      iszero\n        /* \"#utility.yul\":1674:1695   */\n      iszero\n        /* \"#utility.yul\":1663:1695   */\n      swap1\n      pop\n        /* \"#utility.yul\":1611:1701   */\n      swap2\n      swap1\n      pop\n      jump\t// out\n        /* \"#utility.yul\":1707:1816   */\n    tag_327:\n        /* \"#utility.yul\":1788:1809   */\n      tag_427\n        /* \"#utility.yul\":1803:1808   */\n      dup2\n        /* \"#utility.yul\":1788:1809   */\n      tag_326\n      jump\t// in\n    tag_427:\n        /* \"#utility.yul\":1783:1786   */\n      dup3\n        /* \"#utility.yul\":1776:1810   */\n      mstore\n        /* \"#utility.yul\":1707:1816   */\n      pop\n      pop\n      jump\t// out\n        /* \"#utility.yul\":1822:2032   */\n    tag_36:\n        /* \"#utility.yul\":1909:1913   */\n      0x00\n        /* \"#utility.yul\":1947:1949   */\n      0x20\n        /* \"#utility.yul\":1936:1945   */\n      dup3\n        /* \"#utility.yul\":1932:1950   */\n      add\n        /* \"#utility.yul\":1924:1950   */\n      swap1\n      pop\n        /* \"#utility.yul\":1960:2025   */\n      tag_429\n        /* \"#utility.yul\":2022:2023   */\n      0x00\n        /* \"#utility.yul\":2011:2020   */\n      dup4\n        /* \"#utility.yul\":2007:2024   */\n      add\n        /* \"#utility.yul\":1998:2004   */\n      dup5\n        /* \"#utility.yul\":1960:2025   */\n      tag_327\n      jump\t// in\n    tag_429:\n        /* \"#utility.yul\":1822:2032   */\n      swap3\n      swap2\n      pop\n      pop\n      jump\t// out\n        /* \"#utility.yul\":2038:2124   */\n    tag_328:\n        /* \"#utility.yul\":2073:2080   */\n      0x00\n        /* \"#utility.yul\":2113:2117   */\n      0xff\n        /* \"#utility.yul\":2106:2111   */\n      dup3\n        /* \"#utility.yul\":2102:2118   */\n      and\n        /* \"#utility.yul\":2091:2118   */\n      swap1\n      pop\n        /* \"#utility.yul\":2038:2124   */\n      swap2\n      swap1\n      pop\n      jump\t// out\n        /* \"#utility.yul\":2130:2248   */\n    tag_329:\n        /* \"#utility.yul\":2201:2223   */\n      tag_432\n        /* \"#utility.yul\":2217:2222   */\n      dup2\n        /* \"#utility.yul\":2201:2223   */\n      tag_328\n      jump\t// in\n    tag_432:\n        /* \"#utility.yul\":2194:2199   */\n      dup2\n        /* \"#utility.yul\":2191:2224   */\n      eq\n        /* \"#utility.yul\":2181:2242   */\n      tag_433\n      jumpi\n        /* \"#utility.yul\":2238:2239   */\n      0x00\n        /* \"#utility.yul\":2235:2236   */\n      dup1\n        /* \"#utility.yul\":2228:2240   */\n      revert\n        /* \"#utility.yul\":2181:2242   */\n    tag_433:\n        /* \"#utility.yul\":2130:2248   */\n      pop\n      jump\t// out\n        /* \"#utility.yul\":2254:2389   */\n    tag_330:\n        /* \"#utility.yul\":2298:2303   */\n      0x00\n        /* \"#utility.yul\":2336:2342   */\n      dup2\n        /* \"#utility.yul\":2323:2343   */\n      calldataload\n        /* \"#utility.yul\":2314:2343   */\n      swap1\n      pop\n        /* \"#utility.yul\":2352:2383   */\n      tag_435\n        /* \"#utility.yul\":2377:2382   */\n      dup2\n        /* \"#utility.yul\":2352:2383   */\n      tag_329\n      jump\t// in\n    tag_435:\n        /* \"#utility.yul\":2254:2389   */\n      swap3\n      swap2\n      pop\n      pop\n      jump\t// out\n        /* \"#utility.yul\":2395:2512   */\n    tag_331:\n        /* \"#utility.yul\":2504:2505   */\n      0x00\n        /* \"#utility.yul\":2501:2502   */\n      dup1\n        /* \"#utility.yul\":2494:2506   */\n      revert\n        /* \"#utility.yul\":2518:2635   */\n    tag_332:\n        /* \"#utility.yul\":2627:2628   */\n      0x00\n        /* \"#utility.yul\":2624:2625   */\n      dup1\n        /* \"#utility.yul\":2617:2629   */\n      revert\n        /* \"#utility.yul\":2641:2743   */\n    tag_333:\n        /* \"#utility.yul\":2682:2688   */\n      0x00\n        /* \"#utility.yul\":2733:2735   */\n      0x1f\n        /* \"#utility.yul\":2729:2736   */\n      not\n        /* \"#utility.yul\":2724:2726   */\n      0x1f\n        /* \"#utility.yul\":2717:2722   */\n      dup4\n        /* \"#utility.yul\":2713:2727   */\n      add\n        /* \"#utility.yul\":2709:2737   */\n      and\n        /* \"#utility.yul\":2699:2737   */\n      swap1\n      pop\n        /* \"#utility.yul\":2641:2743   */\n      swap2\n      swap1\n      pop\n      jump\t// out\n        /* \"#utility.yul\":2749:2929   */\n    tag_334:\n        /* \"#utility.yul\":2797:2874   */\n      0x4e487b7100000000000000000000000000000000000000000000000000000000\n        /* \"#utility.yul\":2794:2795   */\n      0x00\n        /* \"#utility.yul\":2787:2875   */\n      mstore\n        /* \"#utility.yul\":2894:2898   */\n      0x41\n        /* \"#utility.yul\":2891:2892   */\n      0x04\n        /* \"#utility.yul\":2884:2899   */\n      mstore\n        /* \"#utility.yul\":2918:2922   */\n      0x24\n        /* \"#utility.yul\":2915:2916   */\n      0x00\n        /* \"#utility.yul\":2908:2923   */\n      revert\n        /* \"#utility.yul\":2935:3216   */\n    tag_335:\n        /* \"#utility.yul\":3018:3045   */\n      tag_441\n        /* \"#utility.yul\":3040:3044   */\n      dup3\n        /* \"#utility.yul\":3018:3045   */\n      tag_333\n      jump\t// in\n    tag_441:\n        /* \"#utility.yul\":3010:3016   */\n      dup2\n        /* \"#utility.yul\":3006:3046   */\n      add\n        /* \"#utility.yul\":3148:3154   */\n      dup2\n        /* \"#utility.yul\":3136:3146   */\n      dup2\n        /* \"#utility.yul\":3133:3155   */\n      lt\n        /* \"#utility.yul\":3112:3130   */\n      0xffffffffffffffff\n        /* \"#utility.yul\":3100:3110   */\n      dup3\n        /* \"#utility.yul\":3097:3131   */\n      gt\n        /* \"#utility.yul\":3094:3156   */\n      or\n        /* \"#utility.yul\":3091:3179   */\n      iszero\n      tag_442\n      jumpi\n        /* \"#utility.yul\":3159:3177   */\n      tag_443\n      tag_334\n      jump\t// in\n    tag_443:\n        /* \"#utility.yul\":3091:3179   */\n    tag_442:\n        /* \"#utility.yul\":3199:3209   */\n      dup1\n        /* \"#utility.yul\":3195:3197   */\n      0x40\n        /* \"#utility.yul\":3188:3210   */\n      mstore\n        /* \"#utility.yul\":2978:3216   */\n      pop\n        /* \"#utility.yul\":2935:3216   */\n      pop\n      pop\n      jump\t// out\n        /* \"#utility.yul\":3222:3351   */\n    tag_336:\n        /* \"#utility.yul\":3256:3262   */\n      0x00\n        /* \"#utility.yul\":3283:3303   */\n      tag_445\n      tag_319\n      jump\t// in\n    tag_445:\n        /* \"#utility.yul\":3273:3303   */\n      swap1\n      pop\n        /* \"#utility.yul\":3312:3345   */\n      tag_446\n        /* \"#utility.yul\":3340:3344   */\n      dup3\n        /* \"#utility.yul\":3332:3338   */\n      dup3\n        /* \"#utility.yul\":3312:3345   */\n      tag_335\n      jump\t// in\n    tag_446:\n        /* \"#utility.yul\":3222:3351   */\n      swap2\n      swap1\n      pop\n      jump\t// out\n        /* \"#utility.yul\":3357:3665   */\n    tag_337:\n        /* \"#utility.yul\":3419:3423   */\n      0x00\n        /* \"#utility.yul\":3509:3527   */\n      0xffffffffffffffff\n        /* \"#utility.yul\":3501:3507   */\n      dup3\n        /* \"#utility.yul\":3498:3528   */\n      gt\n        /* \"#utility.yul\":3495:3551   */\n      iszero\n      tag_448\n      jumpi\n        /* \"#utility.yul\":3531:3549   */\n      tag_449\n      tag_334\n      jump\t// in\n    tag_449:\n        /* \"#utility.yul\":3495:3551   */\n    tag_448:\n        /* \"#utility.yul\":3569:3598   */\n      tag_450\n        /* \"#utility.yul\":3591:3597   */\n      dup3\n        /* \"#utility.yul\":3569:3598   */\n      tag_333\n      jump\t// in\n    tag_450:\n        /* \"#utility.yul\":3561:3598   */\n      swap1\n      pop\n        /* \"#utility.yul\":3653:3657   */\n      0x20\n        /* \"#utility.yul\":3647:3651   */\n      dup2\n        /* \"#utility.yul\":3643:3658   */\n      add\n        /* \"#utility.yul\":3635:3658   */\n      swap1\n      pop\n        /* \"#utility.yul\":3357:3665   */\n      swap2\n      swap1\n      pop\n      jump\t// out\n        /* \"#utility.yul\":3671:3819   */\n    tag_338:\n        /* \"#utility.yul\":3769:3775   */\n      dup3\n        /* \"#utility.yul\":3764:3767   */\n      dup2\n        /* \"#utility.yul\":3759:3762   */\n      dup4\n        /* \"#utility.yul\":3746:3776   */\n      calldatacopy\n        /* \"#utility.yul\":3810:3811   */\n      0x00\n        /* \"#utility.yul\":3801:3807   */\n      dup4\n        /* \"#utility.yul\":3796:3799   */\n      dup4\n        /* \"#utility.yul\":3792:3808   */\n      add\n        /* \"#utility.yul\":3785:3812   */\n      mstore\n        /* \"#utility.yul\":3671:3819   */\n      pop\n      pop\n      pop\n      jump\t// out\n        /* \"#utility.yul\":3825:4250   */\n    tag_339:\n        /* \"#utility.yul\":3903:3908   */\n      0x00\n        /* \"#utility.yul\":3928:3994   */\n      tag_453\n        /* \"#utility.yul\":3944:3993   */\n      tag_454\n        /* \"#utility.yul\":3986:3992   */\n      dup5\n        /* \"#utility.yul\":3944:3993   */\n      tag_337\n      jump\t// in\n    tag_454:\n        /* \"#utility.yul\":3928:3994   */\n      tag_336\n      jump\t// in\n    tag_453:\n        /* \"#utility.yul\":3919:3994   */\n      swap1\n      pop\n        /* \"#utility.yul\":4017:4023   */\n      dup3\n        /* \"#utility.yul\":4010:4015   */\n      dup2\n        /* \"#utility.yul\":4003:4024   */\n      mstore\n        /* \"#utility.yul\":4055:4059   */\n      0x20\n        /* \"#utility.yul\":4048:4053   */\n      dup2\n        /* \"#utility.yul\":4044:4060   */\n      add\n        /* \"#utility.yul\":4093:4096   */\n      dup5\n        /* \"#utility.yul\":4084:4090   */\n      dup5\n        /* \"#utility.yul\":4079:4082   */\n      dup5\n        /* \"#utility.yul\":4075:4091   */\n      add\n        /* \"#utility.yul\":4072:4097   */\n      gt\n        /* \"#utility.yul\":4069:4181   */\n      iszero\n      tag_455\n      jumpi\n        /* \"#utility.yul\":4100:4179   */\n      tag_456\n      tag_332\n      jump\t// in\n    tag_456:\n        /* \"#utility.yul\":4069:4181   */\n    tag_455:\n        /* \"#utility.yul\":4190:4244   */\n      tag_457\n        /* \"#utility.yul\":4237:4243   */\n      dup5\n        /* \"#utility.yul\":4232:4235   */\n      dup3\n        /* \"#utility.yul\":4227:4230   */\n      dup6\n        /* \"#utility.yul\":4190:4244   */\n      tag_338\n      jump\t// in\n    tag_457:\n        /* \"#utility.yul\":3909:4250   */\n      pop\n        /* \"#utility.yul\":3825:4250   */\n      swap4\n      swap3\n      pop\n      pop\n      pop\n      jump\t// out\n        /* \"#utility.yul\":4270:4610   */\n    tag_340:\n        /* \"#utility.yul\":4326:4331   */\n      0x00\n        /* \"#utility.yul\":4375:4378   */\n      dup3\n        /* \"#utility.yul\":4368:4372   */\n      0x1f\n        /* \"#utility.yul\":4360:4366   */\n      dup4\n        /* \"#utility.yul\":4356:4373   */\n      add\n        /* \"#utility.yul\":4352:4379   */\n      slt\n        /* \"#utility.yul\":4342:4464   */\n      tag_459\n      jumpi\n        /* \"#utility.yul\":4383:4462   */\n      tag_460\n      tag_331\n      jump\t// in\n    tag_460:\n        /* \"#utility.yul\":4342:4464   */\n    tag_459:\n        /* \"#utility.yul\":4500:4506   */\n      dup2\n        /* \"#utility.yul\":4487:4507   */\n      calldataload\n        /* \"#utility.yul\":4525:4604   */\n      tag_461\n        /* \"#utility.yul\":4600:4603   */\n      dup5\n        /* \"#utility.yul\":4592:4598   */\n      dup3\n        /* \"#utility.yul\":4585:4589   */\n      0x20\n        /* \"#utility.yul\":4577:4583   */\n      dup7\n        /* \"#utility.yul\":4573:4590   */\n      add\n        /* \"#utility.yul\":4525:4604   */\n      tag_339\n      jump\t// in\n    tag_461:\n        /* \"#utility.yul\":4516:4604   */\n      swap2\n      pop\n        /* \"#utility.yul\":4332:4610   */\n      pop\n        /* \"#utility.yul\":4270:4610   */\n      swap3\n      swap2\n      pop\n      pop\n      jump\t// out\n        /* \"#utility.yul\":4616:5266   */\n    tag_46:\n        /* \"#utility.yul\":4692:4698   */\n      0x00\n        /* \"#utility.yul\":4700:4706   */\n      dup1\n        /* \"#utility.yul\":4749:4751   */\n      0x40\n        /* \"#utility.yul\":4737:4746   */\n      dup4\n        /* \"#utility.yul\":4728:4735   */\n      dup6\n        /* \"#utility.yul\":4724:4747   */\n      sub\n        /* \"#utility.yul\":4720:4752   */\n      slt\n        /* \"#utility.yul\":4717:4836   */\n      iszero\n      tag_463\n      jumpi\n        /* \"#utility.yul\":4755:4834   */\n      tag_464\n      tag_320\n      jump\t// in\n    tag_464:\n        /* \"#utility.yul\":4717:4836   */\n    tag_463:\n        /* \"#utility.yul\":4875:4876   */\n      0x00\n        /* \"#utility.yul\":4900:4951   */\n      tag_465\n        /* \"#utility.yul\":4943:4950   */\n      dup6\n        /* \"#utility.yul\":4934:4940   */\n      dup3\n        /* \"#utility.yul\":4923:4932   */\n      dup7\n        /* \"#utility.yul\":4919:4941   */\n      add\n        /* \"#utility.yul\":4900:4951   */\n      tag_330\n      jump\t// in\n    tag_465:\n        /* \"#utility.yul\":4890:4951   */\n      swap3\n      pop\n        /* \"#utility.yul\":4846:4961   */\n      pop\n        /* \"#utility.yul\":5028:5030   */\n      0x20\n        /* \"#utility.yul\":5017:5026   */\n      dup4\n        /* \"#utility.yul\":5013:5031   */\n      add\n        /* \"#utility.yul\":5000:5032   */\n      calldataload\n        /* \"#utility.yul\":5059:5077   */\n      0xffffffffffffffff\n        /* \"#utility.yul\":5051:5057   */\n      dup2\n        /* \"#utility.yul\":5048:5078   */\n      gt\n        /* \"#utility.yul\":5045:5162   */\n      iszero\n      tag_466\n      jumpi\n        /* \"#utility.yul\":5081:5160   */\n      tag_467\n      tag_321\n      jump\t// in\n    tag_467:\n        /* \"#utility.yul\":5045:5162   */\n    tag_466:\n        /* \"#utility.yul\":5186:5249   */\n      tag_468\n        /* \"#utility.yul\":5241:5248   */\n      dup6\n        /* \"#utility.yul\":5232:5238   */\n      dup3\n        /* \"#utility.yul\":5221:5230   */\n      dup7\n        /* \"#utility.yul\":5217:5239   */\n      add\n        /* \"#utility.yul\":5186:5249   */\n      tag_340\n      jump\t// in\n    tag_468:\n        /* \"#utility.yul\":5176:5249   */\n      swap2\n      pop\n        /* \"#utility.yul\":4971:5259   */\n      pop\n        /* \"#utility.yul\":4616:5266   */\n      swap3\n      pop\n      swap3\n      swap1\n      pop\n      jump\t// out\n        /* \"#utility.yul\":5272:5349   */\n    tag_341:\n        /* \"#utility.yul\":5309:5316   */\n      0x00\n        /* \"#utility.yul\":5338:5343   */\n      dup2\n        /* \"#utility.yul\":5327:5343   */\n      swap1\n      pop\n        /* \"#utility.yul\":5272:5349   */\n      swap2\n      swap1\n      pop\n      jump\t// out\n        /* \"#utility.yul\":5355:5473   */\n    tag_342:\n        /* \"#utility.yul\":5442:5466   */\n      tag_471\n        /* \"#utility.yul\":5460:5465   */\n      dup2\n        /* \"#utility.yul\":5442:5466   */\n      tag_341\n      jump\t// in\n    tag_471:\n        /* \"#utility.yul\":5437:5440   */\n      dup3\n        /* \"#utility.yul\":5430:5467   */\n      mstore\n        /* \"#utility.yul\":5355:5473   */\n      pop\n      pop\n      jump\t// out\n        /* \"#utility.yul\":5479:5701   */\n    tag_49:\n        /* \"#utility.yul\":5572:5576   */\n      0x00\n        /* \"#utility.yul\":5610:5612   */\n      0x20\n        /* \"#utility.yul\":5599:5608   */\n      dup3\n        /* \"#utility.yul\":5595:5613   */\n      add\n        /* \"#utility.yul\":5587:5613   */\n      swap1\n      pop\n        /* \"#utility.yul\":5623:5694   */\n      tag_473\n        /* \"#utility.yul\":5691:5692   */\n      0x00\n        /* \"#utility.yul\":5680:5689   */\n      dup4\n        /* \"#utility.yul\":5676:5693   */\n      add\n        /* \"#utility.yul\":5667:5673   */\n      dup5\n        /* \"#utility.yul\":5623:5694   */\n      tag_342\n      jump\t// in\n    tag_473:\n        /* \"#utility.yul\":5479:5701   */\n      swap3\n      swap2\n      pop\n      pop\n      jump\t// out\n        /* \"#utility.yul\":5707:5829   */\n    tag_343:\n        /* \"#utility.yul\":5780:5804   */\n      tag_475\n        /* \"#utility.yul\":5798:5803   */\n      dup2\n        /* \"#utility.yul\":5780:5804   */\n      tag_341\n      jump\t// in\n    tag_475:\n        /* \"#utility.yul\":5773:5778   */\n      dup2\n        /* \"#utility.yul\":5770:5805   */\n      eq\n        /* \"#utility.yul\":5760:5823   */\n      tag_476\n      jumpi\n        /* \"#utility.yul\":5819:5820   */\n      0x00\n        /* \"#utility.yul\":5816:5817   */\n      dup1\n        /* \"#utility.yul\":5809:5821   */\n      revert\n        /* \"#utility.yul\":5760:5823   */\n    tag_476:\n        /* \"#utility.yul\":5707:5829   */\n      pop\n      jump\t// out\n        /* \"#utility.yul\":5835:5974   */\n    tag_344:\n        /* \"#utility.yul\":5881:5886   */\n      0x00\n        /* \"#utility.yul\":5919:5925   */\n      dup2\n        /* \"#utility.yul\":5906:5926   */\n      calldataload\n        /* \"#utility.yul\":5897:5926   */\n      swap1\n      pop\n        /* \"#utility.yul\":5935:5968   */\n      tag_478\n        /* \"#utility.yul\":5962:5967   */\n      dup2\n        /* \"#utility.yul\":5935:5968   */\n      tag_343\n      jump\t// in\n    tag_478:\n        /* \"#utility.yul\":5835:5974   */\n      swap3\n      swap2\n      pop\n      pop\n      jump\t// out\n        /* \"#utility.yul\":5980:6309   */\n    tag_53:\n        /* \"#utility.yul\":6039:6045   */\n      0x00\n        /* \"#utility.yul\":6088:6090   */\n      0x20\n        /* \"#utility.yul\":6076:6085   */\n      dup3\n        /* \"#utility.yul\":6067:6074   */\n      dup5\n        /* \"#utility.yul\":6063:6086   */\n      sub\n        /* \"#utility.yul\":6059:6091   */\n      slt\n        /* \"#utility.yul\":6056:6175   */\n      iszero\n      tag_480\n      jumpi\n        /* \"#utility.yul\":6094:6173   */\n      tag_481\n      tag_320\n      jump\t// in\n    tag_481:\n        /* \"#utility.yul\":6056:6175   */\n    tag_480:\n        /* \"#utility.yul\":6214:6215   */\n      0x00\n        /* \"#utility.yul\":6239:6292   */\n      tag_482\n        /* \"#utility.yul\":6284:6291   */\n      dup5\n        /* \"#utility.yul\":6275:6281   */\n      dup3\n        /* \"#utility.yul\":6264:6273   */\n      dup6\n        /* \"#utility.yul\":6260:6282   */\n      add\n        /* \"#utility.yul\":6239:6292   */\n      tag_344\n      jump\t// in\n    tag_482:\n        /* \"#utility.yul\":6229:6292   */\n      swap2\n      pop\n        /* \"#utility.yul\":6185:6302   */\n      pop\n        /* \"#utility.yul\":5980:6309   */\n      swap3\n      swap2\n      pop\n      pop\n      jump\t// out\n        /* \"#utility.yul\":6315:6427   */\n    tag_345:\n        /* \"#utility.yul\":6398:6420   */\n      tag_484\n        /* \"#utility.yul\":6414:6419   */\n      dup2\n        /* \"#utility.yul\":6398:6420   */\n      tag_328\n      jump\t// in\n    tag_484:\n        /* \"#utility.yul\":6393:6396   */\n      dup3\n        /* \"#utility.yul\":6386:6421   */\n      mstore\n        /* \"#utility.yul\":6315:6427   */\n      pop\n      pop\n      jump\t// out\n        /* \"#utility.yul\":6433:6647   */\n    tag_76:\n        /* \"#utility.yul\":6522:6526   */\n      0x00\n        /* \"#utility.yul\":6560:6562   */\n      0x20\n        /* \"#utility.yul\":6549:6558   */\n      dup3\n        /* \"#utility.yul\":6545:6563   */\n      add\n        /* \"#utility.yul\":6537:6563   */\n      swap1\n      pop\n        /* \"#utility.yul\":6573:6640   */\n      tag_486\n        /* \"#utility.yul\":6637:6638   */\n      0x00\n        /* \"#utility.yul\":6626:6635   */\n      dup4\n        /* \"#utility.yul\":6622:6639   */\n      add\n        /* \"#utility.yul\":6613:6619   */\n      dup5\n        /* \"#utility.yul\":6573:6640   */\n      tag_345\n      jump\t// in\n    tag_486:\n        /* \"#utility.yul\":6433:6647   */\n      swap3\n      swap2\n      pop\n      pop\n      jump\t// out\n        /* \"#utility.yul\":6653:6754   */\n    tag_346:\n        /* \"#utility.yul\":6689:6696   */\n      0x00\n        /* \"#utility.yul\":6729:6747   */\n      0xffffffffffffffff\n        /* \"#utility.yul\":6722:6727   */\n      dup3\n        /* \"#utility.yul\":6718:6748   */\n      and\n        /* \"#utility.yul\":6707:6748   */\n      swap1\n      pop\n        /* \"#utility.yul\":6653:6754   */\n      swap2\n      swap1\n      pop\n      jump\t// out\n        /* \"#utility.yul\":6760:6875   */\n    tag_347:\n        /* \"#utility.yul\":6845:6868   */\n      tag_489\n        /* \"#utility.yul\":6862:6867   */\n      dup2\n        /* \"#utility.yul\":6845:6868   */\n      tag_346\n      jump\t// in\n    tag_489:\n        /* \"#utility.yul\":6840:6843   */\n      dup3\n        /* \"#utility.yul\":6833:6869   */\n      mstore\n        /* \"#utility.yul\":6760:6875   */\n      pop\n      pop\n      jump\t// out\n        /* \"#utility.yul\":6881:7307   */\n    tag_86:\n        /* \"#utility.yul\":7022:7026   */\n      0x00\n        /* \"#utility.yul\":7060:7062   */\n      0x60\n        /* \"#utility.yul\":7049:7058   */\n      dup3\n        /* \"#utility.yul\":7045:7063   */\n      add\n        /* \"#utility.yul\":7037:7063   */\n      swap1\n      pop\n        /* \"#utility.yul\":7073:7144   */\n      tag_491\n        /* \"#utility.yul\":7141:7142   */\n      0x00\n        /* \"#utility.yul\":7130:7139   */\n      dup4\n        /* \"#utility.yul\":7126:7143   */\n      add\n        /* \"#utility.yul\":7117:7123   */\n      dup7\n        /* \"#utility.yul\":7073:7144   */\n      tag_342\n      jump\t// in\n    tag_491:\n        /* \"#utility.yul\":7154:7224   */\n      tag_492\n        /* \"#utility.yul\":7220:7222   */\n      0x20\n        /* \"#utility.yul\":7209:7218   */\n      dup4\n        /* \"#utility.yul\":7205:7223   */\n      add\n        /* \"#utility.yul\":7196:7202   */\n      dup6\n        /* \"#utility.yul\":7154:7224   */\n      tag_347\n      jump\t// in\n    tag_492:\n        /* \"#utility.yul\":7234:7300   */\n      tag_493\n        /* \"#utility.yul\":7296:7298   */\n      0x40\n        /* \"#utility.yul\":7285:7294   */\n      dup4\n        /* \"#utility.yul\":7281:7299   */\n      add\n        /* \"#utility.yul\":7272:7278   */\n      dup5\n        /* \"#utility.yul\":7234:7300   */\n      tag_327\n      jump\t// in\n    tag_493:\n        /* \"#utility.yul\":6881:7307   */\n      swap5\n      swap4\n      pop\n      pop\n      pop\n      pop\n      jump\t// out\n        /* \"#utility.yul\":7313:7435   */\n    tag_348:\n        /* \"#utility.yul\":7386:7410   */\n      tag_495\n        /* \"#utility.yul\":7404:7409   */\n      dup2\n        /* \"#utility.yul\":7386:7410   */\n      tag_317\n      jump\t// in\n    tag_495:\n        /* \"#utility.yul\":7379:7384   */\n      dup2\n        /* \"#utility.yul\":7376:7411   */\n      eq\n        /* \"#utility.yul\":7366:7429   */\n      tag_496\n      jumpi\n        /* \"#utility.yul\":7425:7426   */\n      0x00\n        /* \"#utility.yul\":7422:7423   */\n      dup1\n        /* \"#utility.yul\":7415:7427   */\n      revert\n        /* \"#utility.yul\":7366:7429   */\n    tag_496:\n        /* \"#utility.yul\":7313:7435   */\n      pop\n      jump\t// out\n        /* \"#utility.yul\":7441:7580   */\n    tag_349:\n        /* \"#utility.yul\":7487:7492   */\n      0x00\n        /* \"#utility.yul\":7525:7531   */\n      dup2\n        /* \"#utility.yul\":7512:7532   */\n      calldataload\n        /* \"#utility.yul\":7503:7532   */\n      swap1\n      pop\n        /* \"#utility.yul\":7541:7574   */\n      tag_498\n        /* \"#utility.yul\":7568:7573   */\n      dup2\n        /* \"#utility.yul\":7541:7574   */\n      tag_348\n      jump\t// in\n    tag_498:\n        /* \"#utility.yul\":7441:7580   */\n      swap3\n      swap2\n      pop\n      pop\n      jump\t// out\n        /* \"#utility.yul\":7586:7915   */\n    tag_115:\n        /* \"#utility.yul\":7645:7651   */\n      0x00\n        /* \"#utility.yul\":7694:7696   */\n      0x20\n        /* \"#utility.yul\":7682:7691   */\n      dup3\n        /* \"#utility.yul\":7673:7680   */\n      dup5\n        /* \"#utility.yul\":7669:7692   */\n      sub\n        /* \"#utility.yul\":7665:7697   */\n      slt\n        /* \"#utility.yul\":7662:7781   */\n      iszero\n      tag_500\n      jumpi\n        /* \"#utility.yul\":7700:7779   */\n      tag_501\n      tag_320\n      jump\t// in\n    tag_501:\n        /* \"#utility.yul\":7662:7781   */\n    tag_500:\n        /* \"#utility.yul\":7820:7821   */\n      0x00\n        /* \"#utility.yul\":7845:7898   */\n      tag_502\n        /* \"#utility.yul\":7890:7897   */\n      dup5\n        /* \"#utility.yul\":7881:7887   */\n      dup3\n        /* \"#utility.yul\":7870:7879   */\n      dup6\n        /* \"#utility.yul\":7866:7888   */\n      add\n        /* \"#utility.yul\":7845:7898   */\n      tag_349\n      jump\t// in\n    tag_502:\n        /* \"#utility.yul\":7835:7898   */\n      swap2\n      pop\n        /* \"#utility.yul\":7791:7908   */\n      pop\n        /* \"#utility.yul\":7586:7915   */\n      swap3\n      swap2\n      pop\n      pop\n      jump\t// out\n        /* \"#utility.yul\":7921:8039   */\n    tag_350:\n        /* \"#utility.yul\":8008:8032   */\n      tag_504\n        /* \"#utility.yul\":8026:8031   */\n      dup2\n        /* \"#utility.yul\":8008:8032   */\n      tag_323\n      jump\t// in\n    tag_504:\n        /* \"#utility.yul\":8003:8006   */\n      dup3\n        /* \"#utility.yul\":7996:8033   */\n      mstore\n        /* \"#utility.yul\":7921:8039   */\n      pop\n      pop\n      jump\t// out\n        /* \"#utility.yul\":8045:8267   */\n    tag_118:\n        /* \"#utility.yul\":8138:8142   */\n      0x00\n        /* \"#utility.yul\":8176:8178   */\n      0x20\n        /* \"#utility.yul\":8165:8174   */\n      dup3\n        /* \"#utility.yul\":8161:8179   */\n      add\n        /* \"#utility.yul\":8153:8179   */\n      swap1\n      pop\n        /* \"#utility.yul\":8189:8260   */\n      tag_506\n        /* \"#utility.yul\":8257:8258   */\n      0x00\n        /* \"#utility.yul\":8246:8255   */\n      dup4\n        /* \"#utility.yul\":8242:8259   */\n      add\n        /* \"#utility.yul\":8233:8239   */\n      dup5\n        /* \"#utility.yul\":8189:8260   */\n      tag_350\n      jump\t// in\n    tag_506:\n        /* \"#utility.yul\":8045:8267   */\n      swap3\n      swap2\n      pop\n      pop\n      jump\t// out\n        /* \"#utility.yul\":8273:8442   */\n    tag_351:\n        /* \"#utility.yul\":8357:8368   */\n      0x00\n        /* \"#utility.yul\":8391:8397   */\n      dup3\n        /* \"#utility.yul\":8386:8389   */\n      dup3\n        /* \"#utility.yul\":8379:8398   */\n      mstore\n        /* \"#utility.yul\":8431:8435   */\n      0x20\n        /* \"#utility.yul\":8426:8429   */\n      dup3\n        /* \"#utility.yul\":8422:8436   */\n      add\n        /* \"#utility.yul\":8407:8436   */\n      swap1\n      pop\n        /* \"#utility.yul\":8273:8442   */\n      swap3\n      swap2\n      pop\n      pop\n      jump\t// out\n        /* \"#utility.yul\":8448:8625   */\n    tag_352:\n        /* \"#utility.yul\":8588:8617   */\n      0x47616d6520616c726561647920686173203220706c61796572732e0000000000\n        /* \"#utility.yul\":8584:8585   */\n      0x00\n        /* \"#utility.yul\":8576:8582   */\n      dup3\n        /* \"#utility.yul\":8572:8586   */\n      add\n        /* \"#utility.yul\":8565:8618   */\n      mstore\n        /* \"#utility.yul\":8448:8625   */\n      pop\n      jump\t// out\n        /* \"#utility.yul\":8631:8997   */\n    tag_353:\n        /* \"#utility.yul\":8773:8776   */\n      0x00\n        /* \"#utility.yul\":8794:8861   */\n      tag_510\n        /* \"#utility.yul\":8858:8860   */\n      0x1b\n        /* \"#utility.yul\":8853:8856   */\n      dup4\n        /* \"#utility.yul\":8794:8861   */\n      tag_351\n      jump\t// in\n    tag_510:\n        /* \"#utility.yul\":8787:8861   */\n      swap2\n      pop\n        /* \"#utility.yul\":8870:8963   */\n      tag_511\n        /* \"#utility.yul\":8959:8962   */\n      dup3\n        /* \"#utility.yul\":8870:8963   */\n      tag_352\n      jump\t// in\n    tag_511:\n        /* \"#utility.yul\":8988:8990   */\n      0x20\n        /* \"#utility.yul\":8983:8986   */\n      dup3\n        /* \"#utility.yul\":8979:8991   */\n      add\n        /* \"#utility.yul\":8972:8991   */\n      swap1\n      pop\n        /* \"#utility.yul\":8631:8997   */\n      swap2\n      swap1\n      pop\n      jump\t// out\n        /* \"#utility.yul\":9003:9422   */\n    tag_122:\n        /* \"#utility.yul\":9169:9173   */\n      0x00\n        /* \"#utility.yul\":9207:9209   */\n      0x20\n        /* \"#utility.yul\":9196:9205   */\n      dup3\n        /* \"#utility.yul\":9192:9210   */\n      add\n        /* \"#utility.yul\":9184:9210   */\n      swap1\n      pop\n        /* \"#utility.yul\":9256:9265   */\n      dup2\n        /* \"#utility.yul\":9250:9254   */\n      dup2\n        /* \"#utility.yul\":9246:9266   */\n      sub\n        /* \"#utility.yul\":9242:9243   */\n      0x00\n        /* \"#utility.yul\":9231:9240   */\n      dup4\n        /* \"#utility.yul\":9227:9244   */\n      add\n        /* \"#utility.yul\":9220:9267   */\n      mstore\n        /* \"#utility.yul\":9284:9415   */\n      tag_513\n        /* \"#utility.yul\":9410:9414   */\n      dup2\n        /* \"#utility.yul\":9284:9415   */\n      tag_353\n      jump\t// in\n    tag_513:\n        /* \"#utility.yul\":9276:9415   */\n      swap1\n      pop\n        /* \"#utility.yul\":9003:9422   */\n      swap2\n      swap1\n      pop\n      jump\t// out\n        /* \"#utility.yul\":9428:9606   */\n    tag_354:\n        /* \"#utility.yul\":9568:9598   */\n      0x596f7520617265206e6f7420616c6c6f77656420746f20706c61792e00000000\n        /* \"#utility.yul\":9564:9565   */\n      0x00\n        /* \"#utility.yul\":9556:9562   */\n      dup3\n        /* \"#utility.yul\":9552:9566   */\n      add\n        /* \"#utility.yul\":9545:9599   */\n      mstore\n        /* \"#utility.yul\":9428:9606   */\n      pop\n      jump\t// out\n        /* \"#utility.yul\":9612:9978   */\n    tag_355:\n        /* \"#utility.yul\":9754:9757   */\n      0x00\n        /* \"#utility.yul\":9775:9842   */\n      tag_516\n        /* \"#utility.yul\":9839:9841   */\n      0x1c\n        /* \"#utility.yul\":9834:9837   */\n      dup4\n        /* \"#utility.yul\":9775:9842   */\n      tag_351\n      jump\t// in\n    tag_516:\n        /* \"#utility.yul\":9768:9842   */\n      swap2\n      pop\n        /* \"#utility.yul\":9851:9944   */\n      tag_517\n        /* \"#utility.yul\":9940:9943   */\n      dup3\n        /* \"#utility.yul\":9851:9944   */\n      tag_354\n      jump\t// in\n    tag_517:\n        /* \"#utility.yul\":9969:9971   */\n      0x20\n        /* \"#utility.yul\":9964:9967   */\n      dup3\n        /* \"#utility.yul\":9960:9972   */\n      add\n        /* \"#utility.yul\":9953:9972   */\n      swap1\n      pop\n        /* \"#utility.yul\":9612:9978   */\n      swap2\n      swap1\n      pop\n      jump\t// out\n        /* \"#utility.yul\":9984:10403   */\n    tag_125:\n        /* \"#utility.yul\":10150:10154   */\n      0x00\n        /* \"#utility.yul\":10188:10190   */\n      0x20\n        /* \"#utility.yul\":10177:10186   */\n      dup3\n        /* \"#utility.yul\":10173:10191   */\n      add\n        /* \"#utility.yul\":10165:10191   */\n      swap1\n      pop\n        /* \"#utility.yul\":10237:10246   */\n      dup2\n        /* \"#utility.yul\":10231:10235   */\n      dup2\n        /* \"#utility.yul\":10227:10247   */\n      sub\n        /* \"#utility.yul\":10223:10224   */\n      0x00\n        /* \"#utility.yul\":10212:10221   */\n      dup4\n        /* \"#utility.yul\":10208:10225   */\n      add\n        /* \"#utility.yul\":10201:10248   */\n      mstore\n        /* \"#utility.yul\":10265:10396   */\n      tag_519\n        /* \"#utility.yul\":10391:10395   */\n      dup2\n        /* \"#utility.yul\":10265:10396   */\n      tag_355\n      jump\t// in\n    tag_519:\n        /* \"#utility.yul\":10257:10396   */\n      swap1\n      pop\n        /* \"#utility.yul\":9984:10403   */\n      swap2\n      swap1\n      pop\n      jump\t// out\n        /* \"#utility.yul\":10409:10589   */\n    tag_129:\n        /* \"#utility.yul\":10457:10534   */\n      0x4e487b7100000000000000000000000000000000000000000000000000000000\n        /* \"#utility.yul\":10454:10455   */\n      0x00\n        /* \"#utility.yul\":10447:10535   */\n      mstore\n        /* \"#utility.yul\":10554:10558   */\n      0x32\n        /* \"#utility.yul\":10551:10552   */\n      0x04\n        /* \"#utility.yul\":10544:10559   */\n      mstore\n        /* \"#utility.yul\":10578:10582   */\n      0x24\n        /* \"#utility.yul\":10575:10576   */\n      0x00\n        /* \"#utility.yul\":10568:10583   */\n      revert\n        /* \"#utility.yul\":10595:10770   */\n    tag_356:\n        /* \"#utility.yul\":10735:10762   */\n      0x506179203120657468657220746f20706c61792067616d652e00000000000000\n        /* \"#utility.yul\":10731:10732   */\n      0x00\n        /* \"#utility.yul\":10723:10729   */\n      dup3\n        /* \"#utility.yul\":10719:10733   */\n      add\n        /* \"#utility.yul\":10712:10763   */\n      mstore\n        /* \"#utility.yul\":10595:10770   */\n      pop\n      jump\t// out\n        /* \"#utility.yul\":10776:11142   */\n    tag_357:\n        /* \"#utility.yul\":10918:10921   */\n      0x00\n        /* \"#utility.yul\":10939:11006   */\n      tag_523\n        /* \"#utility.yul\":11003:11005   */\n      0x19\n        /* \"#utility.yul\":10998:11001   */\n      dup4\n        /* \"#utility.yul\":10939:11006   */\n      tag_351\n      jump\t// in\n    tag_523:\n        /* \"#utility.yul\":10932:11006   */\n      swap2\n      pop\n        /* \"#utility.yul\":11015:11108   */\n      tag_524\n        /* \"#utility.yul\":11104:11107   */\n      dup3\n        /* \"#utility.yul\":11015:11108   */\n      tag_356\n      jump\t// in\n    tag_524:\n        /* \"#utility.yul\":11133:11135   */\n      0x20\n        /* \"#utility.yul\":11128:11131   */\n      dup3\n        /* \"#utility.yul\":11124:11136   */\n      add\n        /* \"#utility.yul\":11117:11136   */\n      swap1\n      pop\n        /* \"#utility.yul\":10776:11142   */\n      swap2\n      swap1\n      pop\n      jump\t// out\n        /* \"#utility.yul\":11148:11567   */\n    tag_134:\n        /* \"#utility.yul\":11314:11318   */\n      0x00\n        /* \"#utility.yul\":11352:11354   */\n      0x20\n        /* \"#utility.yul\":11341:11350   */\n      dup3\n        /* \"#utility.yul\":11337:11355   */\n      add\n        /* \"#utility.yul\":11329:11355   */\n      swap1\n      pop\n        /* \"#utility.yul\":11401:11410   */\n      dup2\n        /* \"#utility.yul\":11395:11399   */\n      dup2\n        /* \"#utility.yul\":11391:11411   */\n      sub\n        /* \"#utility.yul\":11387:11388   */\n      0x00\n        /* \"#utility.yul\":11376:11385   */\n      dup4\n        /* \"#utility.yul\":11372:11389   */\n      add\n        /* \"#utility.yul\":11365:11412   */\n      mstore\n        /* \"#utility.yul\":11429:11560   */\n      tag_526\n        /* \"#utility.yul\":11555:11559   */\n      dup2\n        /* \"#utility.yul\":11429:11560   */\n      tag_357\n      jump\t// in\n    tag_526:\n        /* \"#utility.yul\":11421:11560   */\n      swap1\n      pop\n        /* \"#utility.yul\":11148:11567   */\n      swap2\n      swap1\n      pop\n      jump\t// out\n        /* \"#utility.yul\":11573:11753   */\n    tag_358:\n        /* \"#utility.yul\":11621:11698   */\n      0x4e487b7100000000000000000000000000000000000000000000000000000000\n        /* \"#utility.yul\":11618:11619   */\n      0x00\n        /* \"#utility.yul\":11611:11699   */\n      mstore\n        /* \"#utility.yul\":11718:11722   */\n      0x11\n        /* \"#utility.yul\":11715:11716   */\n      0x04\n        /* \"#utility.yul\":11708:11723   */\n      mstore\n        /* \"#utility.yul\":11742:11746   */\n      0x24\n        /* \"#utility.yul\":11739:11740   */\n      0x00\n        /* \"#utility.yul\":11732:11747   */\n      revert\n        /* \"#utility.yul\":11759:11950   */\n    tag_136:\n        /* \"#utility.yul\":11799:11802   */\n      0x00\n        /* \"#utility.yul\":11818:11838   */\n      tag_529\n        /* \"#utility.yul\":11836:11837   */\n      dup3\n        /* \"#utility.yul\":11818:11838   */\n      tag_317\n      jump\t// in\n    tag_529:\n        /* \"#utility.yul\":11813:11838   */\n      swap2\n      pop\n        /* \"#utility.yul\":11852:11872   */\n      tag_530\n        /* \"#utility.yul\":11870:11871   */\n      dup4\n        /* \"#utility.yul\":11852:11872   */\n      tag_317\n      jump\t// in\n    tag_530:\n        /* \"#utility.yul\":11847:11872   */\n      swap3\n      pop\n        /* \"#utility.yul\":11895:11896   */\n      dup3\n        /* \"#utility.yul\":11892:11893   */\n      dup3\n        /* \"#utility.yul\":11888:11897   */\n      add\n        /* \"#utility.yul\":11881:11897   */\n      swap1\n      pop\n        /* \"#utility.yul\":11916:11919   */\n      dup1\n        /* \"#utility.yul\":11913:11914   */\n      dup3\n        /* \"#utility.yul\":11910:11920   */\n      gt\n        /* \"#utility.yul\":11907:11943   */\n      iszero\n      tag_531\n      jumpi\n        /* \"#utility.yul\":11923:11941   */\n      tag_532\n      tag_358\n      jump\t// in\n    tag_532:\n        /* \"#utility.yul\":11907:11943   */\n    tag_531:\n        /* \"#utility.yul\":11759:11950   */\n      swap3\n      swap2\n      pop\n      pop\n      jump\t// out\n        /* \"#utility.yul\":11956:12189   */\n    tag_139:\n        /* \"#utility.yul\":11995:11998   */\n      0x00\n        /* \"#utility.yul\":12018:12042   */\n      tag_534\n        /* \"#utility.yul\":12036:12041   */\n      dup3\n        /* \"#utility.yul\":12018:12042   */\n      tag_317\n      jump\t// in\n    tag_534:\n        /* \"#utility.yul\":12009:12042   */\n      swap2\n      pop\n        /* \"#utility.yul\":12064:12130   */\n      0xffffffffffffffffffffffffffffffffffffffffffffffffffffffffffffffff\n        /* \"#utility.yul\":12057:12062   */\n      dup3\n        /* \"#utility.yul\":12054:12131   */\n      sub\n        /* \"#utility.yul\":12051:12154   */\n      tag_535\n      jumpi\n        /* \"#utility.yul\":12134:12152   */\n      tag_536\n      tag_358\n      jump\t// in\n    tag_536:\n        /* \"#utility.yul\":12051:12154   */\n    tag_535:\n        /* \"#utility.yul\":12181:12182   */\n      0x01\n        /* \"#utility.yul\":12174:12179   */\n      dup3\n        /* \"#utility.yul\":12170:12183   */\n      add\n        /* \"#utility.yul\":12163:12183   */\n      swap1\n      pop\n        /* \"#utility.yul\":11956:12189   */\n      swap2\n      swap1\n      pop\n      jump\t// out\n        /* \"#utility.yul\":12195:12527   */\n    tag_141:\n        /* \"#utility.yul\":12316:12320   */\n      0x00\n        /* \"#utility.yul\":12354:12356   */\n      0x40\n        /* \"#utility.yul\":12343:12352   */\n      dup3\n        /* \"#utility.yul\":12339:12357   */\n      add\n        /* \"#utility.yul\":12331:12357   */\n      swap1\n      pop\n        /* \"#utility.yul\":12367:12438   */\n      tag_538\n        /* \"#utility.yul\":12435:12436   */\n      0x00\n        /* \"#utility.yul\":12424:12433   */\n      dup4\n        /* \"#utility.yul\":12420:12437   */\n      add\n        /* \"#utility.yul\":12411:12417   */\n      dup6\n        /* \"#utility.yul\":12367:12438   */\n      tag_350\n      jump\t// in\n    tag_538:\n        /* \"#utility.yul\":12448:12520   */\n      tag_539\n        /* \"#utility.yul\":12516:12518   */\n      0x20\n        /* \"#utility.yul\":12505:12514   */\n      dup4\n        /* \"#utility.yul\":12501:12519   */\n      add\n        /* \"#utility.yul\":12492:12498   */\n      dup5\n        /* \"#utility.yul\":12448:12520   */\n      tag_318\n      jump\t// in\n    tag_539:\n        /* \"#utility.yul\":12195:12527   */\n      swap4\n      swap3\n      pop\n      pop\n      pop\n      jump\t// out\n        /* \"#utility.yul\":12533:12697   */\n    tag_359:\n        /* \"#utility.yul\":12673:12689   */\n      0x496e76616c69642063686f696365000000000000000000000000000000000000\n        /* \"#utility.yul\":12669:12670   */\n      0x00\n        /* \"#utility.yul\":12661:12667   */\n      dup3\n        /* \"#utility.yul\":12657:12671   */\n      add\n        /* \"#utility.yul\":12650:12690   */\n      mstore\n        /* \"#utility.yul\":12533:12697   */\n      pop\n      jump\t// out\n        /* \"#utility.yul\":12703:13069   */\n    tag_360:\n        /* \"#utility.yul\":12845:12848   */\n      0x00\n        /* \"#utility.yul\":12866:12933   */\n      tag_542\n        /* \"#utility.yul\":12930:12932   */\n      0x0e\n        /* \"#utility.yul\":12925:12928   */\n      dup4\n        /* \"#utility.yul\":12866:12933   */\n      tag_351\n      jump\t// in\n    tag_542:\n        /* \"#utility.yul\":12859:12933   */\n      swap2\n      pop\n        /* \"#utility.yul\":12942:13035   */\n      tag_543\n        /* \"#utility.yul\":13031:13034   */\n      dup3\n        /* \"#utility.yul\":12942:13035   */\n      tag_359\n      jump\t// in\n    tag_543:\n        /* \"#utility.yul\":13060:13062   */\n      0x20\n        /* \"#utility.yul\":13055:13058   */\n      dup3\n        /* \"#utility.yul\":13051:13063   */\n      add\n        /* \"#utility.yul\":13044:13063   */\n      swap1\n      pop\n        /* \"#utility.yul\":12703:13069   */\n      swap2\n      swap1\n      pop\n      jump\t// out\n        /* \"#utility.yul\":13075:13494   */\n    tag_147:\n        /* \"#utility.yul\":13241:13245   */\n      0x00\n        /* \"#utility.yul\":13279:13281   */\n      0x20\n        /* \"#utility.yul\":13268:13277   */\n      dup3\n        /* \"#utility.yul\":13264:13282   */\n      add\n        /* \"#utility.yul\":13256:13282   */\n      swap1\n      pop\n        /* \"#utility.yul\":13328:13337   */\n      dup2\n        /* \"#utility.yul\":13322:13326   */\n      dup2\n        /* \"#utility.yul\":13318:13338   */\n      sub\n        /* \"#utility.yul\":13314:13315   */\n      0x00\n        /* \"#utility.yul\":13303:13312   */\n      dup4\n        /* \"#utility.yul\":13299:13316   */\n      add\n        /* \"#utility.yul\":13292:13339   */\n      mstore\n        /* \"#utility.yul\":13356:13487   */\n      tag_545\n        /* \"#utility.yul\":13482:13486   */\n      dup2\n        /* \"#utility.yul\":13356:13487   */\n      tag_360\n      jump\t// in\n    tag_545:\n        /* \"#utility.yul\":13348:13487   */\n      swap1\n      pop\n        /* \"#utility.yul\":13075:13494   */\n      swap2\n      swap1\n      pop\n      jump\t// out\n        /* \"#utility.yul\":13500:13579   */\n    tag_361:\n        /* \"#utility.yul\":13539:13546   */\n      0x00\n        /* \"#utility.yul\":13568:13573   */\n      dup2\n        /* \"#utility.yul\":13557:13573   */\n      swap1\n      pop\n        /* \"#utility.yul\":13500:13579   */\n      swap2\n      swap1\n      pop\n      jump\t// out\n        /* \"#utility.yul\":13585:13742   */\n    tag_362:\n        /* \"#utility.yul\":13690:13735   */\n      tag_548\n        /* \"#utility.yul\":13710:13734   */\n      tag_549\n        /* \"#utility.yul\":13728:13733   */\n      dup3\n        /* \"#utility.yul\":13710:13734   */\n      tag_317\n      jump\t// in\n    tag_549:\n        /* \"#utility.yul\":13690:13735   */\n      tag_361\n      jump\t// in\n    tag_548:\n        /* \"#utility.yul\":13685:13688   */\n      dup3\n        /* \"#utility.yul\":13678:13736   */\n      mstore\n        /* \"#utility.yul\":13585:13742   */\n      pop\n      pop\n      jump\t// out\n        /* \"#utility.yul\":13748:13842   */\n    tag_363:\n        /* \"#utility.yul\":13781:13789   */\n      0x00\n        /* \"#utility.yul\":13829:13834   */\n      dup2\n        /* \"#utility.yul\":13825:13827   */\n      0x60\n        /* \"#utility.yul\":13821:13835   */\n      shl\n        /* \"#utility.yul\":13800:13835   */\n      swap1\n      pop\n        /* \"#utility.yul\":13748:13842   */\n      swap2\n      swap1\n      pop\n      jump\t// out\n        /* \"#utility.yul\":13848:13942   */\n    tag_364:\n        /* \"#utility.yul\":13887:13894   */\n      0x00\n        /* \"#utility.yul\":13916:13936   */\n      tag_552\n        /* \"#utility.yul\":13930:13935   */\n      dup3\n        /* \"#utility.yul\":13916:13936   */\n      tag_363\n      jump\t// in\n    tag_552:\n        /* \"#utility.yul\":13905:13936   */\n      swap1\n      pop\n        /* \"#utility.yul\":13848:13942   */\n      swap2\n      swap1\n      pop\n      jump\t// out\n        /* \"#utility.yul\":13948:14048   */\n    tag_365:\n        /* \"#utility.yul\":13987:13994   */\n      0x00\n        /* \"#utility.yul\":14016:14042   */\n      tag_554\n        /* \"#utility.yul\":14036:14041   */\n      dup3\n        /* \"#utility.yul\":14016:14042   */\n      tag_364\n      jump\t// in\n    tag_554:\n        /* \"#utility.yul\":14005:14042   */\n      swap1\n      pop\n        /* \"#utility.yul\":13948:14048   */\n      swap2\n      swap1\n      pop\n      jump\t// out\n        /* \"#utility.yul\":14054:14211   */\n    tag_366:\n        /* \"#utility.yul\":14159:14204   */\n      tag_556\n        /* \"#utility.yul\":14179:14203   */\n      tag_557\n        /* \"#utility.yul\":14197:14202   */\n      dup3\n        /* \"#utility.yul\":14179:14203   */\n      tag_323\n      jump\t// in\n    tag_557:\n        /* \"#utility.yul\":14159:14204   */\n      tag_365\n      jump\t// in\n    tag_556:\n        /* \"#utility.yul\":14154:14157   */\n      dup3\n        /* \"#utility.yul\":14147:14205   */\n      mstore\n        /* \"#utility.yul\":14054:14211   */\n      pop\n      pop\n      jump\t// out\n        /* \"#utility.yul\":14217:14316   */\n    tag_367:\n        /* \"#utility.yul\":14269:14275   */\n      0x00\n        /* \"#utility.yul\":14303:14308   */\n      dup2\n        /* \"#utility.yul\":14297:14309   */\n      mload\n        /* \"#utility.yul\":14287:14309   */\n      swap1\n      pop\n        /* \"#utility.yul\":14217:14316   */\n      swap2\n      swap1\n      pop\n      jump\t// out\n        /* \"#utility.yul\":14322:14470   */\n    tag_368:\n        /* \"#utility.yul\":14424:14435   */\n      0x00\n        /* \"#utility.yul\":14461:14464   */\n      dup2\n        /* \"#utility.yul\":14446:14464   */\n      swap1\n      pop\n        /* \"#utility.yul\":14322:14470   */\n      swap3\n      swap2\n      pop\n      pop\n      jump\t// out\n        /* \"#utility.yul\":14476:14615   */\n    tag_369:\n        /* \"#utility.yul\":14565:14571   */\n      dup3\n        /* \"#utility.yul\":14560:14563   */\n      dup2\n        /* \"#utility.yul\":14555:14558   */\n      dup4\n        /* \"#utility.yul\":14549:14572   */\n      mcopy\n        /* \"#utility.yul\":14606:14607   */\n      0x00\n        /* \"#utility.yul\":14597:14603   */\n      dup4\n        /* \"#utility.yul\":14592:14595   */\n      dup4\n        /* \"#utility.yul\":14588:14604   */\n      add\n        /* \"#utility.yul\":14581:14608   */\n      mstore\n        /* \"#utility.yul\":14476:14615   */\n      pop\n      pop\n      pop\n      jump\t// out\n        /* \"#utility.yul\":14621:15011   */\n    tag_370:\n        /* \"#utility.yul\":14727:14730   */\n      0x00\n        /* \"#utility.yul\":14755:14794   */\n      tag_562\n        /* \"#utility.yul\":14788:14793   */\n      dup3\n        /* \"#utility.yul\":14755:14794   */\n      tag_367\n      jump\t// in\n    tag_562:\n        /* \"#utility.yul\":14810:14899   */\n      tag_563\n        /* \"#utility.yul\":14892:14898   */\n      dup2\n        /* \"#utility.yul\":14887:14890   */\n      dup6\n        /* \"#utility.yul\":14810:14899   */\n      tag_368\n      jump\t// in\n    tag_563:\n        /* \"#utility.yul\":14803:14899   */\n      swap4\n      pop\n        /* \"#utility.yul\":14908:14973   */\n      tag_564\n        /* \"#utility.yul\":14966:14972   */\n      dup2\n        /* \"#utility.yul\":14961:14964   */\n      dup6\n        /* \"#utility.yul\":14954:14958   */\n      0x20\n        /* \"#utility.yul\":14947:14952   */\n      dup7\n        /* \"#utility.yul\":14943:14959   */\n      add\n        /* \"#utility.yul\":14908:14973   */\n      tag_369\n      jump\t// in\n    tag_564:\n        /* \"#utility.yul\":14998:15004   */\n      dup1\n        /* \"#utility.yul\":14993:14996   */\n      dup5\n        /* \"#utility.yul\":14989:15005   */\n      add\n        /* \"#utility.yul\":14982:15005   */\n      swap2\n      pop\n        /* \"#utility.yul\":14731:15011   */\n      pop\n        /* \"#utility.yul\":14621:15011   */\n      swap3\n      swap2\n      pop\n      pop\n      jump\t// out\n        /* \"#utility.yul\":15017:15715   */\n    tag_149:\n        /* \"#utility.yul\":15233:15236   */\n      0x00\n        /* \"#utility.yul\":15248:15323   */\n      tag_566\n        /* \"#utility.yul\":15319:15322   */\n      dup3\n        /* \"#utility.yul\":15310:15316   */\n      dup8\n        /* \"#utility.yul\":15248:15323   */\n      tag_362\n      jump\t// in\n    tag_566:\n        /* \"#utility.yul\":15348:15350   */\n      0x20\n        /* \"#utility.yul\":15343:15346   */\n      dup3\n        /* \"#utility.yul\":15339:15351   */\n      add\n        /* \"#utility.yul\":15332:15351   */\n      swap2\n      pop\n        /* \"#utility.yul\":15361:15436   */\n      tag_567\n        /* \"#utility.yul\":15432:15435   */\n      dup3\n        /* \"#utility.yul\":15423:15429   */\n      dup7\n        /* \"#utility.yul\":15361:15436   */\n      tag_362\n      jump\t// in\n    tag_567:\n        /* \"#utility.yul\":15461:15463   */\n      0x20\n        /* \"#utility.yul\":15456:15459   */\n      dup3\n        /* \"#utility.yul\":15452:15464   */\n      add\n        /* \"#utility.yul\":15445:15464   */\n      swap2\n      pop\n        /* \"#utility.yul\":15474:15549   */\n      tag_568\n        /* \"#utility.yul\":15545:15548   */\n      dup3\n        /* \"#utility.yul\":15536:15542   */\n      dup6\n        /* \"#utility.yul\":15474:15549   */\n      tag_366\n      jump\t// in\n    tag_568:\n        /* \"#utility.yul\":15574:15576   */\n      0x14\n        /* \"#utility.yul\":15569:15572   */\n      dup3\n        /* \"#utility.yul\":15565:15577   */\n      add\n        /* \"#utility.yul\":15558:15577   */\n      swap2\n      pop\n        /* \"#utility.yul\":15594:15689   */\n      tag_569\n        /* \"#utility.yul\":15685:15688   */\n      dup3\n        /* \"#utility.yul\":15676:15682   */\n      dup5\n        /* \"#utility.yul\":15594:15689   */\n      tag_370\n      jump\t// in\n    tag_569:\n        /* \"#utility.yul\":15587:15689   */\n      swap2\n      pop\n        /* \"#utility.yul\":15706:15709   */\n      dup2\n        /* \"#utility.yul\":15699:15709   */\n      swap1\n      pop\n        /* \"#utility.yul\":15017:15715   */\n      swap6\n      swap5\n      pop\n      pop\n      pop\n      pop\n      pop\n      jump\t// out\n        /* \"#utility.yul\":15721:15871   */\n    tag_371:\n        /* \"#utility.yul\":15758:15765   */\n      0x00\n        /* \"#utility.yul\":15798:15864   */\n      0xffffffffffffffffffffffffffffffffffffffffffffffffffffffffffffff00\n        /* \"#utility.yul\":15791:15796   */\n      dup3\n        /* \"#utility.yul\":15787:15865   */\n      and\n        /* \"#utility.yul\":15776:15865   */\n      swap1\n      pop\n        /* \"#utility.yul\":15721:15871   */\n      swap2\n      swap1\n      pop\n      jump\t// out\n        /* \"#utility.yul\":15877:15956   */\n    tag_372:\n        /* \"#utility.yul\":15916:15923   */\n      0x00\n        /* \"#utility.yul\":15945:15950   */\n      dup2\n        /* \"#utility.yul\":15934:15950   */\n      swap1\n      pop\n        /* \"#utility.yul\":15877:15956   */\n      swap2\n      swap1\n      pop\n      jump\t// out\n        /* \"#utility.yul\":15962:16119   */\n    tag_373:\n        /* \"#utility.yul\":16067:16112   */\n      tag_573\n        /* \"#utility.yul\":16087:16111   */\n      tag_574\n        /* \"#utility.yul\":16105:16110   */\n      dup3\n        /* \"#utility.yul\":16087:16111   */\n      tag_371\n      jump\t// in\n    tag_574:\n        /* \"#utility.yul\":16067:16112   */\n      tag_372\n      jump\t// in\n    tag_573:\n        /* \"#utility.yul\":16062:16065   */\n      dup3\n        /* \"#utility.yul\":16055:16113   */\n      mstore\n        /* \"#utility.yul\":15962:16119   */\n      pop\n      pop\n      jump\t// out\n        /* \"#utility.yul\":16125:16274   */\n    tag_374:\n        /* \"#utility.yul\":16161:16168   */\n      0x00\n        /* \"#utility.yul\":16201:16267   */\n      0xff00000000000000000000000000000000000000000000000000000000000000\n        /* \"#utility.yul\":16194:16199   */\n      dup3\n        /* \"#utility.yul\":16190:16268   */\n      and\n        /* \"#utility.yul\":16179:16268   */\n      swap1\n      pop\n        /* \"#utility.yul\":16125:16274   */\n      swap2\n      swap1\n      pop\n      jump\t// out\n        /* \"#utility.yul\":16280:16358   */\n    tag_375:\n        /* \"#utility.yul\":16318:16325   */\n      0x00\n        /* \"#utility.yul\":16347:16352   */\n      dup2\n        /* \"#utility.yul\":16336:16352   */\n      swap1\n      pop\n        /* \"#utility.yul\":16280:16358   */\n      swap2\n      swap1\n      pop\n      jump\t// out\n        /* \"#utility.yul\":16364:16517   */\n    tag_376:\n        /* \"#utility.yul\":16467:16510   */\n      tag_578\n        /* \"#utility.yul\":16486:16509   */\n      tag_579\n        /* \"#utility.yul\":16503:16508   */\n      dup3\n        /* \"#utility.yul\":16486:16509   */\n      tag_374\n      jump\t// in\n    tag_579:\n        /* \"#utility.yul\":16467:16510   */\n      tag_375\n      jump\t// in\n    tag_578:\n        /* \"#utility.yul\":16462:16465   */\n      dup3\n        /* \"#utility.yul\":16455:16511   */\n      mstore\n        /* \"#utility.yul\":16364:16517   */\n      pop\n      pop\n      jump\t// out\n        /* \"#utility.yul\":16523:16915   */\n    tag_151:\n        /* \"#utility.yul\":16661:16664   */\n      0x00\n        /* \"#utility.yul\":16676:16751   */\n      tag_581\n        /* \"#utility.yul\":16747:16750   */\n      dup3\n        /* \"#utility.yul\":16738:16744   */\n      dup6\n        /* \"#utility.yul\":16676:16751   */\n      tag_373\n      jump\t// in\n    tag_581:\n        /* \"#utility.yul\":16776:16778   */\n      0x1f\n        /* \"#utility.yul\":16771:16774   */\n      dup3\n        /* \"#utility.yul\":16767:16779   */\n      add\n        /* \"#utility.yul\":16760:16779   */\n      swap2\n      pop\n        /* \"#utility.yul\":16789:16862   */\n      tag_582\n        /* \"#utility.yul\":16858:16861   */\n      dup3\n        /* \"#utility.yul\":16849:16855   */\n      dup5\n        /* \"#utility.yul\":16789:16862   */\n      tag_376\n      jump\t// in\n    tag_582:\n        /* \"#utility.yul\":16887:16888   */\n      0x01\n        /* \"#utility.yul\":16882:16885   */\n      dup3\n        /* \"#utility.yul\":16878:16889   */\n      add\n        /* \"#utility.yul\":16871:16889   */\n      swap2\n      pop\n        /* \"#utility.yul\":16906:16909   */\n      dup2\n        /* \"#utility.yul\":16899:16909   */\n      swap1\n      pop\n        /* \"#utility.yul\":16523:16915   */\n      swap4\n      swap3\n      pop\n      pop\n      pop\n      jump\t// out\n        /* \"#utility.yul\":16921:17019   */\n    tag_377:\n        /* \"#utility.yul\":16972:16978   */\n      0x00\n        /* \"#utility.yul\":17006:17011   */\n      dup2\n        /* \"#utility.yul\":17000:17012   */\n      mload\n        /* \"#utility.yul\":16990:17012   */\n      swap1\n      pop\n        /* \"#utility.yul\":16921:17019   */\n      swap2\n      swap1\n      pop\n      jump\t// out\n        /* \"#utility.yul\":17025:17141   */\n    tag_378:\n        /* \"#utility.yul\":17076:17080   */\n      0x00\n        /* \"#utility.yul\":17099:17102   */\n      dup2\n        /* \"#utility.yul\":17091:17102   */\n      swap1\n      pop\n        /* \"#utility.yul\":17129:17133   */\n      0x20\n        /* \"#utility.yul\":17124:17127   */\n      dup3\n        /* \"#utility.yul\":17120:17134   */\n      add\n        /* \"#utility.yul\":17112:17134   */\n      swap1\n      pop\n        /* \"#utility.yul\":17025:17141   */\n      swap2\n      swap1\n      pop\n      jump\t// out\n        /* \"#utility.yul\":17147:17301   */\n    tag_379:\n        /* \"#utility.yul\":17190:17201   */\n      0x00\n        /* \"#utility.yul\":17226:17255   */\n      tag_586\n        /* \"#utility.yul\":17250:17253   */\n      dup3\n        /* \"#utility.yul\":17244:17254   */\n      mload\n        /* \"#utility.yul\":17226:17255   */\n      tag_341\n      jump\t// in\n    tag_586:\n        /* \"#utility.yul\":17289:17294   */\n      dup1\n        /* \"#utility.yul\":17265:17294   */\n      swap2\n      pop\n        /* \"#utility.yul\":17202:17301   */\n      pop\n        /* \"#utility.yul\":17147:17301   */\n      swap2\n      swap1\n      pop\n      jump\t// out\n        /* \"#utility.yul\":17307:17414   */\n    tag_380:\n        /* \"#utility.yul\":17351:17359   */\n      0x00\n        /* \"#utility.yul\":17401:17406   */\n      dup3\n        /* \"#utility.yul\":17395:17399   */\n      dup3\n        /* \"#utility.yul\":17391:17407   */\n      shl\n        /* \"#utility.yul\":17370:17407   */\n      swap1\n      pop\n        /* \"#utility.yul\":17307:17414   */\n      swap3\n      swap2\n      pop\n      pop\n      jump\t// out\n        /* \"#utility.yul\":17420:18014   */\n    tag_153:\n        /* \"#utility.yul\":17504:17509   */\n      0x00\n        /* \"#utility.yul\":17535:17573   */\n      tag_589\n        /* \"#utility.yul\":17567:17572   */\n      dup3\n        /* \"#utility.yul\":17535:17573   */\n      tag_377\n      jump\t// in\n    tag_589:\n        /* \"#utility.yul\":17598:17603   */\n      dup3\n        /* \"#utility.yul\":17625:17665   */\n      tag_590\n        /* \"#utility.yul\":17659:17664   */\n      dup5\n        /* \"#utility.yul\":17625:17665   */\n      tag_378\n      jump\t// in\n    tag_590:\n        /* \"#utility.yul\":17613:17665   */\n      swap1\n      pop\n        /* \"#utility.yul\":17684:17719   */\n      tag_591\n        /* \"#utility.yul\":17710:17718   */\n      dup2\n        /* \"#utility.yul\":17684:17719   */\n      tag_379\n      jump\t// in\n    tag_591:\n        /* \"#utility.yul\":17675:17719   */\n      swap3\n      pop\n        /* \"#utility.yul\":17743:17745   */\n      0x20\n        /* \"#utility.yul\":17735:17741   */\n      dup3\n        /* \"#utility.yul\":17732:17746   */\n      lt\n        /* \"#utility.yul\":17729:18007   */\n      iszero\n      tag_592\n      jumpi\n        /* \"#utility.yul\":17814:17983   */\n      tag_593\n        /* \"#utility.yul\":17899:17965   */\n      0xffffffffffffffffffffffffffffffffffffffffffffffffffffffffffffffff\n        /* \"#utility.yul\":17869:17875   */\n      dup4\n        /* \"#utility.yul\":17865:17867   */\n      0x20\n        /* \"#utility.yul\":17861:17876   */\n      sub\n        /* \"#utility.yul\":17858:17859   */\n      0x08\n        /* \"#utility.yul\":17854:17877   */\n      mul\n        /* \"#utility.yul\":17814:17983   */\n      tag_380\n      jump\t// in\n    tag_593:\n        /* \"#utility.yul\":17791:17796   */\n      dup4\n        /* \"#utility.yul\":17770:17997   */\n      and\n        /* \"#utility.yul\":17761:17997   */\n      swap3\n      pop\n        /* \"#utility.yul\":17729:18007   */\n    tag_592:\n        /* \"#utility.yul\":17510:18014   */\n      pop\n      pop\n        /* \"#utility.yul\":17420:18014   */\n      swap2\n      swap1\n      pop\n      jump\t// out\n        /* \"#utility.yul\":18020:18099   */\n    tag_381:\n        /* \"#utility.yul\":18059:18066   */\n      0x00\n        /* \"#utility.yul\":18088:18093   */\n      dup2\n        /* \"#utility.yul\":18077:18093   */\n      swap1\n      pop\n        /* \"#utility.yul\":18020:18099   */\n      swap2\n      swap1\n      pop\n      jump\t// out\n        /* \"#utility.yul\":18105:18262   */\n    tag_382:\n        /* \"#utility.yul\":18210:18255   */\n      tag_596\n        /* \"#utility.yul\":18230:18254   */\n      tag_597\n        /* \"#utility.yul\":18248:18253   */\n      dup3\n        /* \"#utility.yul\":18230:18254   */\n      tag_341\n      jump\t// in\n    tag_597:\n        /* \"#utility.yul\":18210:18255   */\n      tag_381\n      jump\t// in\n    tag_596:\n        /* \"#utility.yul\":18205:18208   */\n      dup3\n        /* \"#utility.yul\":18198:18256   */\n      mstore\n        /* \"#utility.yul\":18105:18262   */\n      pop\n      pop\n      jump\t// out\n        /* \"#utility.yul\":18268:18524   */\n    tag_156:\n        /* \"#utility.yul\":18380:18383   */\n      0x00\n        /* \"#utility.yul\":18395:18470   */\n      tag_599\n        /* \"#utility.yul\":18466:18469   */\n      dup3\n        /* \"#utility.yul\":18457:18463   */\n      dup5\n        /* \"#utility.yul\":18395:18470   */\n      tag_382\n      jump\t// in\n    tag_599:\n        /* \"#utility.yul\":18495:18497   */\n      0x20\n        /* \"#utility.yul\":18490:18493   */\n      dup3\n        /* \"#utility.yul\":18486:18498   */\n      add\n        /* \"#utility.yul\":18479:18498   */\n      swap2\n      pop\n        /* \"#utility.yul\":18515:18518   */\n      dup2\n        /* \"#utility.yul\":18508:18518   */\n      swap1\n      pop\n        /* \"#utility.yul\":18268:18524   */\n      swap3\n      swap2\n      pop\n      pop\n      jump\t// out\n        /* \"#utility.yul\":18530:18756   */\n    tag_383:\n        /* \"#utility.yul\":18670:18704   */\n      0x596f75206e65656420746f20776169742031206d696e75746520666f72207769\n        /* \"#utility.yul\":18666:18667   */\n      0x00\n        /* \"#utility.yul\":18658:18664   */\n      dup3\n        /* \"#utility.yul\":18654:18668   */\n      add\n        /* \"#utility.yul\":18647:18705   */\n      mstore\n        /* \"#utility.yul\":18739:18748   */\n      0x7468647261772e00000000000000000000000000000000000000000000000000\n        /* \"#utility.yul\":18734:18736   */\n      0x20\n        /* \"#utility.yul\":18726:18732   */\n      dup3\n        /* \"#utility.yul\":18722:18737   */\n      add\n        /* \"#utility.yul\":18715:18749   */\n      mstore\n        /* \"#utility.yul\":18530:18756   */\n      pop\n      jump\t// out\n        /* \"#utility.yul\":18762:19128   */\n    tag_384:\n        /* \"#utility.yul\":18904:18907   */\n      0x00\n        /* \"#utility.yul\":18925:18992   */\n      tag_602\n        /* \"#utility.yul\":18989:18991   */\n      0x27\n        /* \"#utility.yul\":18984:18987   */\n      dup4\n        /* \"#utility.yul\":18925:18992   */\n      tag_351\n      jump\t// in\n    tag_602:\n        /* \"#utility.yul\":18918:18992   */\n      swap2\n      pop\n        /* \"#utility.yul\":19001:19094   */\n      tag_603\n        /* \"#utility.yul\":19090:19093   */\n      dup3\n        /* \"#utility.yul\":19001:19094   */\n      tag_383\n      jump\t// in\n    tag_603:\n        /* \"#utility.yul\":19119:19121   */\n      0x40\n        /* \"#utility.yul\":19114:19117   */\n      dup3\n        /* \"#utility.yul\":19110:19122   */\n      add\n        /* \"#utility.yul\":19103:19122   */\n      swap1\n      pop\n        /* \"#utility.yul\":18762:19128   */\n      swap2\n      swap1\n      pop\n      jump\t// out\n        /* \"#utility.yul\":19134:19553   */\n    tag_162:\n        /* \"#utility.yul\":19300:19304   */\n      0x00\n        /* \"#utility.yul\":19338:19340   */\n      0x20\n        /* \"#utility.yul\":19327:19336   */\n      dup3\n        /* \"#utility.yul\":19323:19341   */\n      add\n        /* \"#utility.yul\":19315:19341   */\n      swap1\n      pop\n        /* \"#utility.yul\":19387:19396   */\n      dup2\n        /* \"#utility.yul\":19381:19385   */\n      dup2\n        /* \"#utility.yul\":19377:19397   */\n      sub\n        /* \"#utility.yul\":19373:19374   */\n      0x00\n        /* \"#utility.yul\":19362:19371   */\n      dup4\n        /* \"#utility.yul\":19358:19375   */\n      add\n        /* \"#utility.yul\":19351:19398   */\n      mstore\n        /* \"#utility.yul\":19415:19546   */\n      tag_605\n        /* \"#utility.yul\":19541:19545   */\n      dup2\n        /* \"#utility.yul\":19415:19546   */\n      tag_384\n      jump\t// in\n    tag_605:\n        /* \"#utility.yul\":19407:19546   */\n      swap1\n      pop\n        /* \"#utility.yul\":19134:19553   */\n      swap2\n      swap1\n      pop\n      jump\t// out\n        /* \"#utility.yul\":19559:19780   */\n    tag_385:\n        /* \"#utility.yul\":19699:19733   */\n      0x436f6e74726163742068617320696e73756666696369656e742062616c616e63\n        /* \"#utility.yul\":19695:19696   */\n      0x00\n        /* \"#utility.yul\":19687:19693   */\n      dup3\n        /* \"#utility.yul\":19683:19697   */\n      add\n        /* \"#utility.yul\":19676:19734   */\n      mstore\n        /* \"#utility.yul\":19768:19772   */\n      0x652e000000000000000000000000000000000000000000000000000000000000\n        /* \"#utility.yul\":19763:19765   */\n      0x20\n        /* \"#utility.yul\":19755:19761   */\n      dup3\n        /* \"#utility.yul\":19751:19766   */\n      add\n        /* \"#utility.yul\":19744:19773   */\n      mstore\n        /* \"#utility.yul\":19559:19780   */\n      pop\n      jump\t// out\n        /* \"#utility.yul\":19786:20152   */\n    tag_386:\n        /* \"#utility.yul\":19928:19931   */\n      0x00\n        /* \"#utility.yul\":19949:20016   */\n      tag_608\n        /* \"#utility.yul\":20013:20015   */\n      0x22\n        /* \"#utility.yul\":20008:20011   */\n      dup4\n        /* \"#utility.yul\":19949:20016   */\n      tag_351\n      jump\t// in\n    tag_608:\n        /* \"#utility.yul\":19942:20016   */\n      swap2\n      pop\n        /* \"#utility.yul\":20025:20118   */\n      tag_609\n        /* \"#utility.yul\":20114:20117   */\n      dup3\n        /* \"#utility.yul\":20025:20118   */\n      tag_385\n      jump\t// in\n    tag_609:\n        /* \"#utility.yul\":20143:20145   */\n      0x40\n        /* \"#utility.yul\":20138:20141   */\n      dup3\n        /* \"#utility.yul\":20134:20146   */\n      add\n        /* \"#utility.yul\":20127:20146   */\n      swap1\n      pop\n        /* \"#utility.yul\":19786:20152   */\n      swap2\n      swap1\n      pop\n      jump\t// out\n        /* \"#utility.yul\":20158:20577   */\n    tag_165:\n        /* \"#utility.yul\":20324:20328   */\n      0x00\n        /* \"#utility.yul\":20362:20364   */\n      0x20\n        /* \"#utility.yul\":20351:20360   */\n      dup3\n        /* \"#utility.yul\":20347:20365   */\n      add\n        /* \"#utility.yul\":20339:20365   */\n      swap1\n      pop\n        /* \"#utility.yul\":20411:20420   */\n      dup2\n        /* \"#utility.yul\":20405:20409   */\n      dup2\n        /* \"#utility.yul\":20401:20421   */\n      sub\n        /* \"#utility.yul\":20397:20398   */\n      0x00\n        /* \"#utility.yul\":20386:20395   */\n      dup4\n        /* \"#utility.yul\":20382:20399   */\n      add\n        /* \"#utility.yul\":20375:20422   */\n      mstore\n        /* \"#utility.yul\":20439:20570   */\n      tag_611\n        /* \"#utility.yul\":20565:20569   */\n      dup2\n        /* \"#utility.yul\":20439:20570   */\n      tag_386\n      jump\t// in\n    tag_611:\n        /* \"#utility.yul\":20431:20570   */\n      swap1\n      pop\n        /* \"#utility.yul\":20158:20577   */\n      swap2\n      swap1\n      pop\n      jump\t// out\n        /* \"#utility.yul\":20583:20763   */\n    tag_387:\n        /* \"#utility.yul\":20631:20708   */\n      0x4e487b7100000000000000000000000000000000000000000000000000000000\n        /* \"#utility.yul\":20628:20629   */\n      0x00\n        /* \"#utility.yul\":20621:20709   */\n      mstore\n        /* \"#utility.yul\":20728:20732   */\n      0x12\n        /* \"#utility.yul\":20725:20726   */\n      0x04\n        /* \"#utility.yul\":20718:20733   */\n      mstore\n        /* \"#utility.yul\":20752:20756   */\n      0x24\n        /* \"#utility.yul\":20749:20750   */\n      0x00\n        /* \"#utility.yul\":20742:20757   */\n      revert\n        /* \"#utility.yul\":20769:20954   */\n    tag_183:\n        /* \"#utility.yul\":20809:20810   */\n      0x00\n        /* \"#utility.yul\":20826:20846   */\n      tag_614\n        /* \"#utility.yul\":20844:20845   */\n      dup3\n        /* \"#utility.yul\":20826:20846   */\n      tag_317\n      jump\t// in\n    tag_614:\n        /* \"#utility.yul\":20821:20846   */\n      swap2\n      pop\n        /* \"#utility.yul\":20860:20880   */\n      tag_615\n        /* \"#utility.yul\":20878:20879   */\n      dup4\n        /* \"#utility.yul\":20860:20880   */\n      tag_317\n      jump\t// in\n    tag_615:\n        /* \"#utility.yul\":20855:20880   */\n      swap3\n      pop\n        /* \"#utility.yul\":20899:20900   */\n      dup3\n        /* \"#utility.yul\":20889:20924   */\n      tag_616\n      jumpi\n        /* \"#utility.yul\":20904:20922   */\n      tag_617\n      tag_387\n      jump\t// in\n    tag_617:\n        /* \"#utility.yul\":20889:20924   */\n    tag_616:\n        /* \"#utility.yul\":20946:20947   */\n      dup3\n        /* \"#utility.yul\":20943:20944   */\n      dup3\n        /* \"#utility.yul\":20939:20948   */\n      div\n        /* \"#utility.yul\":20934:20948   */\n      swap1\n      pop\n        /* \"#utility.yul\":20769:20954   */\n      swap3\n      swap2\n      pop\n      pop\n      jump\t// out\n        /* \"#utility.yul\":20960:21185   */\n    tag_388:\n        /* \"#utility.yul\":21100:21134   */\n      0x596f75722063686f696365206e6565647320746f206265206265747765656e20\n        /* \"#utility.yul\":21096:21097   */\n      0x00\n        /* \"#utility.yul\":21088:21094   */\n      dup3\n        /* \"#utility.yul\":21084:21098   */\n      add\n        /* \"#utility.yul\":21077:21135   */\n      mstore\n        /* \"#utility.yul\":21169:21177   */\n      0x3020746f20340000000000000000000000000000000000000000000000000000\n        /* \"#utility.yul\":21164:21166   */\n      0x20\n        /* \"#utility.yul\":21156:21162   */\n      dup3\n        /* \"#utility.yul\":21152:21167   */\n      add\n        /* \"#utility.yul\":21145:21178   */\n      mstore\n        /* \"#utility.yul\":20960:21185   */\n      pop\n      jump\t// out\n        /* \"#utility.yul\":21191:21557   */\n    tag_389:\n        /* \"#utility.yul\":21333:21336   */\n      0x00\n        /* \"#utility.yul\":21354:21421   */\n      tag_620\n        /* \"#utility.yul\":21418:21420   */\n      0x26\n        /* \"#utility.yul\":21413:21416   */\n      dup4\n        /* \"#utility.yul\":21354:21421   */\n      tag_351\n      jump\t// in\n    tag_620:\n        /* \"#utility.yul\":21347:21421   */\n      swap2\n      pop\n        /* \"#utility.yul\":21430:21523   */\n      tag_621\n        /* \"#utility.yul\":21519:21522   */\n      dup3\n        /* \"#utility.yul\":21430:21523   */\n      tag_388\n      jump\t// in\n    tag_621:\n        /* \"#utility.yul\":21548:21550   */\n      0x40\n        /* \"#utility.yul\":21543:21546   */\n      dup3\n        /* \"#utility.yul\":21539:21551   */\n      add\n        /* \"#utility.yul\":21532:21551   */\n      swap1\n      pop\n        /* \"#utility.yul\":21191:21557   */\n      swap2\n      swap1\n      pop\n      jump\t// out\n        /* \"#utility.yul\":21563:21982   */\n    tag_217:\n        /* \"#utility.yul\":21729:21733   */\n      0x00\n        /* \"#utility.yul\":21767:21769   */\n      0x20\n        /* \"#utility.yul\":21756:21765   */\n      dup3\n        /* \"#utility.yul\":21752:21770   */\n      add\n        /* \"#utility.yul\":21744:21770   */\n      swap1\n      pop\n        /* \"#utility.yul\":21816:21825   */\n      dup2\n        /* \"#utility.yul\":21810:21814   */\n      dup2\n        /* \"#utility.yul\":21806:21826   */\n      sub\n        /* \"#utility.yul\":21802:21803   */\n      0x00\n        /* \"#utility.yul\":21791:21800   */\n      dup4\n        /* \"#utility.yul\":21787:21804   */\n      add\n        /* \"#utility.yul\":21780:21827   */\n      mstore\n        /* \"#utility.yul\":21844:21975   */\n      tag_623\n        /* \"#utility.yul\":21970:21974   */\n      dup2\n        /* \"#utility.yul\":21844:21975   */\n      tag_389\n      jump\t// in\n    tag_623:\n        /* \"#utility.yul\":21836:21975   */\n      swap1\n      pop\n        /* \"#utility.yul\":21563:21982   */\n      swap2\n      swap1\n      pop\n      jump\t// out\n        /* \"#utility.yul\":21988:22163   */\n    tag_390:\n        /* \"#utility.yul\":22128:22155   */\n      0x596f75206e65656420746f20636f6d6d69742066697273742e00000000000000\n        /* \"#utility.yul\":22124:22125   */\n      0x00\n        /* \"#utility.yul\":22116:22122   */\n      dup3\n        /* \"#utility.yul\":22112:22126   */\n      add\n        /* \"#utility.yul\":22105:22156   */\n      mstore\n        /* \"#utility.yul\":21988:22163   */\n      pop\n      jump\t// out\n        /* \"#utility.yul\":22169:22535   */\n    tag_391:\n        /* \"#utility.yul\":22311:22314   */\n      0x00\n        /* \"#utility.yul\":22332:22399   */\n      tag_626\n        /* \"#utility.yul\":22396:22398   */\n      0x19\n        /* \"#utility.yul\":22391:22394   */\n      dup4\n        /* \"#utility.yul\":22332:22399   */\n      tag_351\n      jump\t// in\n    tag_626:\n        /* \"#utility.yul\":22325:22399   */\n      swap2\n      pop\n        /* \"#utility.yul\":22408:22501   */\n      tag_627\n        /* \"#utility.yul\":22497:22500   */\n      dup3\n        /* \"#utility.yul\":22408:22501   */\n      tag_390\n      jump\t// in\n    tag_627:\n        /* \"#utility.yul\":22526:22528   */\n      0x20\n        /* \"#utility.yul\":22521:22524   */\n      dup3\n        /* \"#utility.yul\":22517:22529   */\n      add\n        /* \"#utility.yul\":22510:22529   */\n      swap1\n      pop\n        /* \"#utility.yul\":22169:22535   */\n      swap2\n      swap1\n      pop\n      jump\t// out\n        /* \"#utility.yul\":22541:22960   */\n    tag_220:\n        /* \"#utility.yul\":22707:22711   */\n      0x00\n        /* \"#utility.yul\":22745:22747   */\n      0x20\n        /* \"#utility.yul\":22734:22743   */\n      dup3\n        /* \"#utility.yul\":22730:22748   */\n      add\n        /* \"#utility.yul\":22722:22748   */\n      swap1\n      pop\n        /* \"#utility.yul\":22794:22803   */\n      dup2\n        /* \"#utility.yul\":22788:22792   */\n      dup2\n        /* \"#utility.yul\":22784:22804   */\n      sub\n        /* \"#utility.yul\":22780:22781   */\n      0x00\n        /* \"#utility.yul\":22769:22778   */\n      dup4\n        /* \"#utility.yul\":22765:22782   */\n      add\n        /* \"#utility.yul\":22758:22805   */\n      mstore\n        /* \"#utility.yul\":22822:22953   */\n      tag_629\n        /* \"#utility.yul\":22948:22952   */\n      dup2\n        /* \"#utility.yul\":22822:22953   */\n      tag_391\n      jump\t// in\n    tag_629:\n        /* \"#utility.yul\":22814:22953   */\n      swap1\n      pop\n        /* \"#utility.yul\":22541:22960   */\n      swap2\n      swap1\n      pop\n      jump\t// out\n        /* \"#utility.yul\":22966:23160   */\n    tag_231:\n        /* \"#utility.yul\":23006:23010   */\n      0x00\n        /* \"#utility.yul\":23026:23046   */\n      tag_631\n        /* \"#utility.yul\":23044:23045   */\n      dup3\n        /* \"#utility.yul\":23026:23046   */\n      tag_317\n      jump\t// in\n    tag_631:\n        /* \"#utility.yul\":23021:23046   */\n      swap2\n      pop\n        /* \"#utility.yul\":23060:23080   */\n      tag_632\n        /* \"#utility.yul\":23078:23079   */\n      dup4\n        /* \"#utility.yul\":23060:23080   */\n      tag_317\n      jump\t// in\n    tag_632:\n        /* \"#utility.yul\":23055:23080   */\n      swap3\n      pop\n        /* \"#utility.yul\":23104:23105   */\n      dup3\n        /* \"#utility.yul\":23101:23102   */\n      dup3\n        /* \"#utility.yul\":23097:23106   */\n      sub\n        /* \"#utility.yul\":23089:23106   */\n      swap1\n      pop\n        /* \"#utility.yul\":23128:23129   */\n      dup2\n        /* \"#utility.yul\":23122:23126   */\n      dup2\n        /* \"#utility.yul\":23119:23130   */\n      gt\n        /* \"#utility.yul\":23116:23153   */\n      iszero\n      tag_633\n      jumpi\n        /* \"#utility.yul\":23133:23151   */\n      tag_634\n      tag_358\n      jump\t// in\n    tag_634:\n        /* \"#utility.yul\":23116:23153   */\n    tag_633:\n        /* \"#utility.yul\":22966:23160   */\n      swap3\n      swap2\n      pop\n      pop\n      jump\t// out\n        /* \"#utility.yul\":23166:23337   */\n    tag_392:\n        /* \"#utility.yul\":23306:23329   */\n      0x47616d65206e65656473203220706c61796572732e0000000000000000000000\n        /* \"#utility.yul\":23302:23303   */\n      0x00\n        /* \"#utility.yul\":23294:23300   */\n      dup3\n        /* \"#utility.yul\":23290:23304   */\n      add\n        /* \"#utility.yul\":23283:23330   */\n      mstore\n        /* \"#utility.yul\":23166:23337   */\n      pop\n      jump\t// out\n        /* \"#utility.yul\":23343:23709   */\n    tag_393:\n        /* \"#utility.yul\":23485:23488   */\n      0x00\n        /* \"#utility.yul\":23506:23573   */\n      tag_637\n        /* \"#utility.yul\":23570:23572   */\n      0x15\n        /* \"#utility.yul\":23565:23568   */\n      dup4\n        /* \"#utility.yul\":23506:23573   */\n      tag_351\n      jump\t// in\n    tag_637:\n        /* \"#utility.yul\":23499:23573   */\n      swap2\n      pop\n        /* \"#utility.yul\":23582:23675   */\n      tag_638\n        /* \"#utility.yul\":23671:23674   */\n      dup3\n        /* \"#utility.yul\":23582:23675   */\n      tag_392\n      jump\t// in\n    tag_638:\n        /* \"#utility.yul\":23700:23702   */\n      0x20\n        /* \"#utility.yul\":23695:23698   */\n      dup3\n        /* \"#utility.yul\":23691:23703   */\n      add\n        /* \"#utility.yul\":23684:23703   */\n      swap1\n      pop\n        /* \"#utility.yul\":23343:23709   */\n      swap2\n      swap1\n      pop\n      jump\t// out\n        /* \"#utility.yul\":23715:24134   */\n    tag_235:\n        /* \"#utility.yul\":23881:23885   */\n      0x00\n        /* \"#utility.yul\":23919:23921   */\n      0x20\n        /* \"#utility.yul\":23908:23917   */\n      dup3\n        /* \"#utility.yul\":23904:23922   */\n      add\n        /* \"#utility.yul\":23896:23922   */\n      swap1\n      pop\n        /* \"#utility.yul\":23968:23977   */\n      dup2\n        /* \"#utility.yul\":23962:23966   */\n      dup2\n        /* \"#utility.yul\":23958:23978   */\n      sub\n        /* \"#utility.yul\":23954:23955   */\n      0x00\n        /* \"#utility.yul\":23943:23952   */\n      dup4\n        /* \"#utility.yul\":23939:23956   */\n      add\n        /* \"#utility.yul\":23932:23979   */\n      mstore\n        /* \"#utility.yul\":23996:24127   */\n      tag_640\n        /* \"#utility.yul\":24122:24126   */\n      dup2\n        /* \"#utility.yul\":23996:24127   */\n      tag_393\n      jump\t// in\n    tag_640:\n        /* \"#utility.yul\":23988:24127   */\n      swap1\n      pop\n        /* \"#utility.yul\":23715:24134   */\n      swap2\n      swap1\n      pop\n      jump\t// out\n        /* \"#utility.yul\":24140:24311   */\n    tag_394:\n        /* \"#utility.yul\":24280:24303   */\n      0x596f7520616c726561647920636f6d6d697465642e0000000000000000000000\n        /* \"#utility.yul\":24276:24277   */\n      0x00\n        /* \"#utility.yul\":24268:24274   */\n      dup3\n        /* \"#utility.yul\":24264:24278   */\n      add\n        /* \"#utility.yul\":24257:24304   */\n      mstore\n        /* \"#utility.yul\":24140:24311   */\n      pop\n      jump\t// out\n        /* \"#utility.yul\":24317:24683   */\n    tag_395:\n        /* \"#utility.yul\":24459:24462   */\n      0x00\n        /* \"#utility.yul\":24480:24547   */\n      tag_643\n        /* \"#utility.yul\":24544:24546   */\n      0x15\n        /* \"#utility.yul\":24539:24542   */\n      dup4\n        /* \"#utility.yul\":24480:24547   */\n      tag_351\n      jump\t// in\n    tag_643:\n        /* \"#utility.yul\":24473:24547   */\n      swap2\n      pop\n        /* \"#utility.yul\":24556:24649   */\n      tag_644\n        /* \"#utility.yul\":24645:24648   */\n      dup3\n        /* \"#utility.yul\":24556:24649   */\n      tag_394\n      jump\t// in\n    tag_644:\n        /* \"#utility.yul\":24674:24676   */\n      0x20\n        /* \"#utility.yul\":24669:24672   */\n      dup3\n        /* \"#utility.yul\":24665:24677   */\n      add\n        /* \"#utility.yul\":24658:24677   */\n      swap1\n      pop\n        /* \"#utility.yul\":24317:24683   */\n      swap2\n      swap1\n      pop\n      jump\t// out\n        /* \"#utility.yul\":24689:25108   */\n    tag_240:\n        /* \"#utility.yul\":24855:24859   */\n      0x00\n        /* \"#utility.yul\":24893:24895   */\n      0x20\n        /* \"#utility.yul\":24882:24891   */\n      dup3\n        /* \"#utility.yul\":24878:24896   */\n      add\n        /* \"#utility.yul\":24870:24896   */\n      swap1\n      pop\n        /* \"#utility.yul\":24942:24951   */\n      dup2\n        /* \"#utility.yul\":24936:24940   */\n      dup2\n        /* \"#utility.yul\":24932:24952   */\n      sub\n        /* \"#utility.yul\":24928:24929   */\n      0x00\n        /* \"#utility.yul\":24917:24926   */\n      dup4\n        /* \"#utility.yul\":24913:24930   */\n      add\n        /* \"#utility.yul\":24906:24953   */\n      mstore\n        /* \"#utility.yul\":24970:25101   */\n      tag_646\n        /* \"#utility.yul\":25096:25100   */\n      dup2\n        /* \"#utility.yul\":24970:25101   */\n      tag_395\n      jump\t// in\n    tag_646:\n        /* \"#utility.yul\":24962:25101   */\n      swap1\n      pop\n        /* \"#utility.yul\":24689:25108   */\n      swap2\n      swap1\n      pop\n      jump\t// out\n        /* \"#utility.yul\":25114:25339   */\n    tag_396:\n        /* \"#utility.yul\":25254:25288   */\n      0x436f6d6d697452657665616c3a3a72657665616c3a20416c7265616479207265\n        /* \"#utility.yul\":25250:25251   */\n      0x00\n        /* \"#utility.yul\":25242:25248   */\n      dup3\n        /* \"#utility.yul\":25238:25252   */\n      add\n        /* \"#utility.yul\":25231:25289   */\n      mstore\n        /* \"#utility.yul\":25323:25331   */\n      0x7665616c65640000000000000000000000000000000000000000000000000000\n        /* \"#utility.yul\":25318:25320   */\n      0x20\n        /* \"#utility.yul\":25310:25316   */\n      dup3\n        /* \"#utility.yul\":25306:25321   */\n      add\n        /* \"#utility.yul\":25299:25332   */\n      mstore\n        /* \"#utility.yul\":25114:25339   */\n      pop\n      jump\t// out\n        /* \"#utility.yul\":25345:25711   */\n    tag_397:\n        /* \"#utility.yul\":25487:25490   */\n      0x00\n        /* \"#utility.yul\":25508:25575   */\n      tag_649\n        /* \"#utility.yul\":25572:25574   */\n      0x26\n        /* \"#utility.yul\":25567:25570   */\n      dup4\n        /* \"#utility.yul\":25508:25575   */\n      tag_351\n      jump\t// in\n    tag_649:\n        /* \"#utility.yul\":25501:25575   */\n      swap2\n      pop\n        /* \"#utility.yul\":25584:25677   */\n      tag_650\n        /* \"#utility.yul\":25673:25676   */\n      dup3\n        /* \"#utility.yul\":25584:25677   */\n      tag_396\n      jump\t// in\n    tag_650:\n        /* \"#utility.yul\":25702:25704   */\n      0x40\n        /* \"#utility.yul\":25697:25700   */\n      dup3\n        /* \"#utility.yul\":25693:25705   */\n      add\n        /* \"#utility.yul\":25686:25705   */\n      swap1\n      pop\n        /* \"#utility.yul\":25345:25711   */\n      swap2\n      swap1\n      pop\n      jump\t// out\n        /* \"#utility.yul\":25717:26136   */\n    tag_258:\n        /* \"#utility.yul\":25883:25887   */\n      0x00\n        /* \"#utility.yul\":25921:25923   */\n      0x20\n        /* \"#utility.yul\":25910:25919   */\n      dup3\n        /* \"#utility.yul\":25906:25924   */\n      add\n        /* \"#utility.yul\":25898:25924   */\n      swap1\n      pop\n        /* \"#utility.yul\":25970:25979   */\n      dup2\n        /* \"#utility.yul\":25964:25968   */\n      dup2\n        /* \"#utility.yul\":25960:25980   */\n      sub\n        /* \"#utility.yul\":25956:25957   */\n      0x00\n        /* \"#utility.yul\":25945:25954   */\n      dup4\n        /* \"#utility.yul\":25941:25958   */\n      add\n        /* \"#utility.yul\":25934:25981   */\n      mstore\n        /* \"#utility.yul\":25998:26129   */\n      tag_652\n        /* \"#utility.yul\":26124:26128   */\n      dup2\n        /* \"#utility.yul\":25998:26129   */\n      tag_397\n      jump\t// in\n    tag_652:\n        /* \"#utility.yul\":25990:26129   */\n      swap1\n      pop\n        /* \"#utility.yul\":25717:26136   */\n      swap2\n      swap1\n      pop\n      jump\t// out\n        /* \"#utility.yul\":26142:26386   */\n    tag_398:\n        /* \"#utility.yul\":26282:26316   */\n      0x436f6d6d697452657665616c3a3a72657665616c3a2052657665616c65642068\n        /* \"#utility.yul\":26278:26279   */\n      0x00\n        /* \"#utility.yul\":26270:26276   */\n      dup3\n        /* \"#utility.yul\":26266:26280   */\n      add\n        /* \"#utility.yul\":26259:26317   */\n      mstore\n        /* \"#utility.yul\":26351:26378   */\n      0x61736820646f6573206e6f74206d6174636820636f6d6d697400000000000000\n        /* \"#utility.yul\":26346:26348   */\n      0x20\n        /* \"#utility.yul\":26338:26344   */\n      dup3\n        /* \"#utility.yul\":26334:26349   */\n      add\n        /* \"#utility.yul\":26327:26379   */\n      mstore\n        /* \"#utility.yul\":26142:26386   */\n      pop\n      jump\t// out\n        /* \"#utility.yul\":26392:26758   */\n    tag_399:\n        /* \"#utility.yul\":26534:26537   */\n      0x00\n        /* \"#utility.yul\":26555:26622   */\n      tag_655\n        /* \"#utility.yul\":26619:26621   */\n      0x39\n        /* \"#utility.yul\":26614:26617   */\n      dup4\n        /* \"#utility.yul\":26555:26622   */\n      tag_351\n      jump\t// in\n    tag_655:\n        /* \"#utility.yul\":26548:26622   */\n      swap2\n      pop\n        /* \"#utility.yul\":26631:26724   */\n      tag_656\n        /* \"#utility.yul\":26720:26723   */\n      dup3\n        /* \"#utility.yul\":26631:26724   */\n      tag_398\n      jump\t// in\n    tag_656:\n        /* \"#utility.yul\":26749:26751   */\n      0x40\n        /* \"#utility.yul\":26744:26747   */\n      dup3\n        /* \"#utility.yul\":26740:26752   */\n      add\n        /* \"#utility.yul\":26733:26752   */\n      swap1\n      pop\n        /* \"#utility.yul\":26392:26758   */\n      swap2\n      swap1\n      pop\n      jump\t// out\n        /* \"#utility.yul\":26764:27183   */\n    tag_262:\n        /* \"#utility.yul\":26930:26934   */\n      0x00\n        /* \"#utility.yul\":26968:26970   */\n      0x20\n        /* \"#utility.yul\":26957:26966   */\n      dup3\n        /* \"#utility.yul\":26953:26971   */\n      add\n        /* \"#utility.yul\":26945:26971   */\n      swap1\n      pop\n        /* \"#utility.yul\":27017:27026   */\n      dup2\n        /* \"#utility.yul\":27011:27015   */\n      dup2\n        /* \"#utility.yul\":27007:27027   */\n      sub\n        /* \"#utility.yul\":27003:27004   */\n      0x00\n        /* \"#utility.yul\":26992:27001   */\n      dup4\n        /* \"#utility.yul\":26988:27005   */\n      add\n        /* \"#utility.yul\":26981:27028   */\n      mstore\n        /* \"#utility.yul\":27045:27176   */\n      tag_658\n        /* \"#utility.yul\":27171:27175   */\n      dup2\n        /* \"#utility.yul\":27045:27176   */\n      tag_399\n      jump\t// in\n    tag_658:\n        /* \"#utility.yul\":27037:27176   */\n      swap1\n      pop\n        /* \"#utility.yul\":26764:27183   */\n      swap2\n      swap1\n      pop\n      jump\t// out\n        /* \"#utility.yul\":27189:27479   */\n    tag_400:\n        /* \"#utility.yul\":27329:27363   */\n      0x436f6d6d697452657665616c3a3a72657665616c3a2052657665616c20616e64\n        /* \"#utility.yul\":27325:27326   */\n      0x00\n        /* \"#utility.yul\":27317:27323   */\n      dup3\n        /* \"#utility.yul\":27313:27327   */\n      add\n        /* \"#utility.yul\":27306:27364   */\n      mstore\n        /* \"#utility.yul\":27398:27432   */\n      0x20636f6d6d69742068617070656e6564206f6e207468652073616d6520626c6f\n        /* \"#utility.yul\":27393:27395   */\n      0x20\n        /* \"#utility.yul\":27385:27391   */\n      dup3\n        /* \"#utility.yul\":27381:27396   */\n      add\n        /* \"#utility.yul\":27374:27433   */\n      mstore\n        /* \"#utility.yul\":27467:27471   */\n      0x636b000000000000000000000000000000000000000000000000000000000000\n        /* \"#utility.yul\":27462:27464   */\n      0x40\n        /* \"#utility.yul\":27454:27460   */\n      dup3\n        /* \"#utility.yul\":27450:27465   */\n      add\n        /* \"#utility.yul\":27443:27472   */\n      mstore\n        /* \"#utility.yul\":27189:27479   */\n      pop\n      jump\t// out\n        /* \"#utility.yul\":27485:27851   */\n    tag_401:\n        /* \"#utility.yul\":27627:27630   */\n      0x00\n        /* \"#utility.yul\":27648:27715   */\n      tag_661\n        /* \"#utility.yul\":27712:27714   */\n      0x42\n        /* \"#utility.yul\":27707:27710   */\n      dup4\n        /* \"#utility.yul\":27648:27715   */\n      tag_351\n      jump\t// in\n    tag_661:\n        /* \"#utility.yul\":27641:27715   */\n      swap2\n      pop\n        /* \"#utility.yul\":27724:27817   */\n      tag_662\n        /* \"#utility.yul\":27813:27816   */\n      dup3\n        /* \"#utility.yul\":27724:27817   */\n      tag_400\n      jump\t// in\n    tag_662:\n        /* \"#utility.yul\":27842:27844   */\n      0x60\n        /* \"#utility.yul\":27837:27840   */\n      dup3\n        /* \"#utility.yul\":27833:27845   */\n      add\n        /* \"#utility.yul\":27826:27845   */\n      swap1\n      pop\n        /* \"#utility.yul\":27485:27851   */\n      swap2\n      swap1\n      pop\n      jump\t// out\n        /* \"#utility.yul\":27857:28276   */\n    tag_265:\n        /* \"#utility.yul\":28023:28027   */\n      0x00\n        /* \"#utility.yul\":28061:28063   */\n      0x20\n        /* \"#utility.yul\":28050:28059   */\n      dup3\n        /* \"#utility.yul\":28046:28064   */\n      add\n        /* \"#utility.yul\":28038:28064   */\n      swap1\n      pop\n        /* \"#utility.yul\":28110:28119   */\n      dup2\n        /* \"#utility.yul\":28104:28108   */\n      dup2\n        /* \"#utility.yul\":28100:28120   */\n      sub\n        /* \"#utility.yul\":28096:28097   */\n      0x00\n        /* \"#utility.yul\":28085:28094   */\n      dup4\n        /* \"#utility.yul\":28081:28098   */\n      add\n        /* \"#utility.yul\":28074:28121   */\n      mstore\n        /* \"#utility.yul\":28138:28269   */\n      tag_664\n        /* \"#utility.yul\":28264:28268   */\n      dup2\n        /* \"#utility.yul\":28138:28269   */\n      tag_401\n      jump\t// in\n    tag_664:\n        /* \"#utility.yul\":28130:28269   */\n      swap1\n      pop\n        /* \"#utility.yul\":27857:28276   */\n      swap2\n      swap1\n      pop\n      jump\t// out\n        /* \"#utility.yul\":28282:28487   */\n    tag_267:\n        /* \"#utility.yul\":28321:28324   */\n      0x00\n        /* \"#utility.yul\":28340:28359   */\n      tag_666\n        /* \"#utility.yul\":28357:28358   */\n      dup3\n        /* \"#utility.yul\":28340:28359   */\n      tag_346\n      jump\t// in\n    tag_666:\n        /* \"#utility.yul\":28335:28359   */\n      swap2\n      pop\n        /* \"#utility.yul\":28373:28392   */\n      tag_667\n        /* \"#utility.yul\":28390:28391   */\n      dup4\n        /* \"#utility.yul\":28373:28392   */\n      tag_346\n      jump\t// in\n    tag_667:\n        /* \"#utility.yul\":28368:28392   */\n      swap3\n      pop\n        /* \"#utility.yul\":28415:28416   */\n      dup3\n        /* \"#utility.yul\":28412:28413   */\n      dup3\n        /* \"#utility.yul\":28408:28417   */\n      add\n        /* \"#utility.yul\":28401:28417   */\n      swap1\n      pop\n        /* \"#utility.yul\":28438:28456   */\n      0xffffffffffffffff\n        /* \"#utility.yul\":28433:28436   */\n      dup2\n        /* \"#utility.yul\":28430:28457   */\n      gt\n        /* \"#utility.yul\":28427:28480   */\n      iszero\n      tag_668\n      jumpi\n        /* \"#utility.yul\":28460:28478   */\n      tag_669\n      tag_358\n      jump\t// in\n    tag_669:\n        /* \"#utility.yul\":28427:28480   */\n    tag_668:\n        /* \"#utility.yul\":28282:28487   */\n      swap3\n      swap2\n      pop\n      pop\n      jump\t// out\n        /* \"#utility.yul\":28493:28719   */\n    tag_402:\n        /* \"#utility.yul\":28633:28667   */\n      0x436f6d6d697452657665616c3a3a72657665616c3a2052657665616c65642074\n        /* \"#utility.yul\":28629:28630   */\n      0x00\n        /* \"#utility.yul\":28621:28627   */\n      dup3\n        /* \"#utility.yul\":28617:28631   */\n      add\n        /* \"#utility.yul\":28610:28668   */\n      mstore\n        /* \"#utility.yul\":28702:28711   */\n      0x6f6f206c61746500000000000000000000000000000000000000000000000000\n        /* \"#utility.yul\":28697:28699   */\n      0x20\n        /* \"#utility.yul\":28689:28695   */\n      dup3\n        /* \"#utility.yul\":28685:28700   */\n      add\n        /* \"#utility.yul\":28678:28712   */\n      mstore\n        /* \"#utility.yul\":28493:28719   */\n      pop\n      jump\t// out\n        /* \"#utility.yul\":28725:29091   */\n    tag_403:\n        /* \"#utility.yul\":28867:28870   */\n      0x00\n        /* \"#utility.yul\":28888:28955   */\n      tag_672\n        /* \"#utility.yul\":28952:28954   */\n      0x27\n        /* \"#utility.yul\":28947:28950   */\n      dup4\n        /* \"#utility.yul\":28888:28955   */\n      tag_351\n      jump\t// in\n    tag_672:\n        /* \"#utility.yul\":28881:28955   */\n      swap2\n      pop\n        /* \"#utility.yul\":28964:29057   */\n      tag_673\n        /* \"#utility.yul\":29053:29056   */\n      dup3\n        /* \"#utility.yul\":28964:29057   */\n      tag_402\n      jump\t// in\n    tag_673:\n        /* \"#utility.yul\":29082:29084   */\n      0x40\n        /* \"#utility.yul\":29077:29080   */\n      dup3\n        /* \"#utility.yul\":29073:29085   */\n      add\n        /* \"#utility.yul\":29066:29085   */\n      swap1\n      pop\n        /* \"#utility.yul\":28725:29091   */\n      swap2\n      swap1\n      pop\n      jump\t// out\n        /* \"#utility.yul\":29097:29516   */\n    tag_270:\n        /* \"#utility.yul\":29263:29267   */\n      0x00\n        /* \"#utility.yul\":29301:29303   */\n      0x20\n        /* \"#utility.yul\":29290:29299   */\n      dup3\n        /* \"#utility.yul\":29286:29304   */\n      add\n        /* \"#utility.yul\":29278:29304   */\n      swap1\n      pop\n        /* \"#utility.yul\":29350:29359   */\n      dup2\n        /* \"#utility.yul\":29344:29348   */\n      dup2\n        /* \"#utility.yul\":29340:29360   */\n      sub\n        /* \"#utility.yul\":29336:29337   */\n      0x00\n        /* \"#utility.yul\":29325:29334   */\n      dup4\n        /* \"#utility.yul\":29321:29338   */\n      add\n        /* \"#utility.yul\":29314:29361   */\n      mstore\n        /* \"#utility.yul\":29378:29509   */\n      tag_675\n        /* \"#utility.yul\":29504:29508   */\n      dup2\n        /* \"#utility.yul\":29378:29509   */\n      tag_403\n      jump\t// in\n    tag_675:\n        /* \"#utility.yul\":29370:29509   */\n      swap1\n      pop\n        /* \"#utility.yul\":29097:29516   */\n      swap2\n      swap1\n      pop\n      jump\t// out\n        /* \"#utility.yul\":29522:29919   */\n    tag_272:\n        /* \"#utility.yul\":29662:29665   */\n      0x00\n        /* \"#utility.yul\":29677:29752   */\n      tag_677\n        /* \"#utility.yul\":29748:29751   */\n      dup3\n        /* \"#utility.yul\":29739:29745   */\n      dup6\n        /* \"#utility.yul\":29677:29752   */\n      tag_382\n      jump\t// in\n    tag_677:\n        /* \"#utility.yul\":29777:29779   */\n      0x20\n        /* \"#utility.yul\":29772:29775   */\n      dup3\n        /* \"#utility.yul\":29768:29780   */\n      add\n        /* \"#utility.yul\":29761:29780   */\n      swap2\n      pop\n        /* \"#utility.yul\":29790:29865   */\n      tag_678\n        /* \"#utility.yul\":29861:29864   */\n      dup3\n        /* \"#utility.yul\":29852:29858   */\n      dup5\n        /* \"#utility.yul\":29790:29865   */\n      tag_382\n      jump\t// in\n    tag_678:\n        /* \"#utility.yul\":29890:29892   */\n      0x20\n        /* \"#utility.yul\":29885:29888   */\n      dup3\n        /* \"#utility.yul\":29881:29893   */\n      add\n        /* \"#utility.yul\":29874:29893   */\n      swap2\n      pop\n        /* \"#utility.yul\":29910:29913   */\n      dup2\n        /* \"#utility.yul\":29903:29913   */\n      swap1\n      pop\n        /* \"#utility.yul\":29522:29919   */\n      swap4\n      swap3\n      pop\n      pop\n      pop\n      jump\t// out\n        /* \"#utility.yul\":29925:30101   */\n    tag_274:\n        /* \"#utility.yul\":29957:29958   */\n      0x00\n        /* \"#utility.yul\":29974:29994   */\n      tag_680\n        /* \"#utility.yul\":29992:29993   */\n      dup3\n        /* \"#utility.yul\":29974:29994   */\n      tag_317\n      jump\t// in\n    tag_680:\n        /* \"#utility.yul\":29969:29994   */\n      swap2\n      pop\n        /* \"#utility.yul\":30008:30028   */\n      tag_681\n        /* \"#utility.yul\":30026:30027   */\n      dup4\n        /* \"#utility.yul\":30008:30028   */\n      tag_317\n      jump\t// in\n    tag_681:\n        /* \"#utility.yul\":30003:30028   */\n      swap3\n      pop\n        /* \"#utility.yul\":30047:30048   */\n      dup3\n        /* \"#utility.yul\":30037:30072   */\n      tag_682\n      jumpi\n        /* \"#utility.yul\":30052:30070   */\n      tag_683\n      tag_387\n      jump\t// in\n    tag_683:\n        /* \"#utility.yul\":30037:30072   */\n    tag_682:\n        /* \"#utility.yul\":30093:30094   */\n      dup3\n        /* \"#utility.yul\":30090:30091   */\n      dup3\n        /* \"#utility.yul\":30086:30095   */\n      mod\n        /* \"#utility.yul\":30081:30095   */\n      swap1\n      pop\n        /* \"#utility.yul\":29925:30101   */\n      swap3\n      swap2\n      pop\n      pop\n      jump\t// out\n        /* \"#utility.yul\":30107:30549   */\n    tag_276:\n        /* \"#utility.yul\":30256:30260   */\n      0x00\n        /* \"#utility.yul\":30294:30296   */\n      0x60\n        /* \"#utility.yul\":30283:30292   */\n      dup3\n        /* \"#utility.yul\":30279:30297   */\n      add\n        /* \"#utility.yul\":30271:30297   */\n      swap1\n      pop\n        /* \"#utility.yul\":30307:30378   */\n      tag_685\n        /* \"#utility.yul\":30375:30376   */\n      0x00\n        /* \"#utility.yul\":30364:30373   */\n      dup4\n        /* \"#utility.yul\":30360:30377   */\n      add\n        /* \"#utility.yul\":30351:30357   */\n      dup7\n        /* \"#utility.yul\":30307:30378   */\n      tag_350\n      jump\t// in\n    tag_685:\n        /* \"#utility.yul\":30388:30460   */\n      tag_686\n        /* \"#utility.yul\":30456:30458   */\n      0x20\n        /* \"#utility.yul\":30445:30454   */\n      dup4\n        /* \"#utility.yul\":30441:30459   */\n      add\n        /* \"#utility.yul\":30432:30438   */\n      dup6\n        /* \"#utility.yul\":30388:30460   */\n      tag_342\n      jump\t// in\n    tag_686:\n        /* \"#utility.yul\":30470:30542   */\n      tag_687\n        /* \"#utility.yul\":30538:30540   */\n      0x40\n        /* \"#utility.yul\":30527:30536   */\n      dup4\n        /* \"#utility.yul\":30523:30541   */\n      add\n        /* \"#utility.yul\":30514:30520   */\n      dup5\n        /* \"#utility.yul\":30470:30542   */\n      tag_318\n      jump\t// in\n    tag_687:\n        /* \"#utility.yul\":30107:30549   */\n      swap5\n      swap4\n      pop\n      pop\n      pop\n      pop\n      jump\t// out\n        /* \"#utility.yul\":30555:30993   */\n    tag_311:\n        /* \"#utility.yul\":30702:30706   */\n      0x00\n        /* \"#utility.yul\":30740:30742   */\n      0x60\n        /* \"#utility.yul\":30729:30738   */\n      dup3\n        /* \"#utility.yul\":30725:30743   */\n      add\n        /* \"#utility.yul\":30717:30743   */\n      swap1\n      pop\n        /* \"#utility.yul\":30753:30824   */\n      tag_689\n        /* \"#utility.yul\":30821:30822   */\n      0x00\n        /* \"#utility.yul\":30810:30819   */\n      dup4\n        /* \"#utility.yul\":30806:30823   */\n      add\n        /* \"#utility.yul\":30797:30803   */\n      dup7\n        /* \"#utility.yul\":30753:30824   */\n      tag_350\n      jump\t// in\n    tag_689:\n        /* \"#utility.yul\":30834:30906   */\n      tag_690\n        /* \"#utility.yul\":30902:30904   */\n      0x20\n        /* \"#utility.yul\":30891:30900   */\n      dup4\n        /* \"#utility.yul\":30887:30905   */\n      add\n        /* \"#utility.yul\":30878:30884   */\n      dup6\n        /* \"#utility.yul\":30834:30906   */\n      tag_342\n      jump\t// in\n    tag_690:\n        /* \"#utility.yul\":30916:30986   */\n      tag_691\n        /* \"#utility.yul\":30982:30984   */\n      0x40\n        /* \"#utility.yul\":30971:30980   */\n      dup4\n        /* \"#utility.yul\":30967:30985   */\n      add\n        /* \"#utility.yul\":30958:30964   */\n      dup5\n        /* \"#utility.yul\":30916:30986   */\n      tag_347\n      jump\t// in\n    tag_691:\n        /* \"#utility.yul\":30555:30993   */\n      swap5\n      swap4\n      pop\n      pop\n      pop\n      pop\n      jump\t// out\n\n    auxdata: 0xa26469706673582212207ca78bf8ff468070a4f4c7b776fb99e9e8ac89cfbedb7e0a5ce0ed14ca18ce4164736f6c634300081a0033\n}\n",
				"bytecode": {
					"linkReferences": {},
					"object": "608060405260645f806101000a81548160ff021916908360ff1602179055505f6003555f6004555f6009555f600a55603c600b5534801561003e575f80fd5b506001600c5f735b38da6a701c568545dcfcb03fcb875f56beddc473ffffffffffffffffffffffffffffffffffffffff1673ffffffffffffffffffffffffffffffffffffffff1681526020019081526020015f205f6101000a81548160ff0219169083151502179055506001600c5f73ab8483f64d9c6d1ecf9b849ae677dd3315835cb273ffffffffffffffffffffffffffffffffffffffff1673ffffffffffffffffffffffffffffffffffffffff1681526020019081526020015f205f6101000a81548160ff0219169083151502179055506001600c5f734b20993bc481177ec7e8f571cecae8a9e22c02db73ffffffffffffffffffffffffffffffffffffffff1673ffffffffffffffffffffffffffffffffffffffff1681526020019081526020015f205f6101000a81548160ff0219169083151502179055506001600c5f7378731d3ca6b7e34ac0f824c42a7cc18a495cabab73ffffffffffffffffffffffffffffffffffffffff1673ffffffffffffffffffffffffffffffffffffffff1681526020019081526020015f205f6101000a81548160ff021916908315150217905550612bf3806101f05f395ff3fe60806040526004361061011e575f3560e01c80636ac5db191161009f578063bc06b8cd11610063578063bc06b8cd146103d0578063c876e615146103fa578063d891f96914610424578063d97c84161461044c578063f71d96cb146104765761011e565b80636ac5db19146102d857806378e97925146103025780637b43a8e61461032c57806390d5d0c31461036a578063a040478d146103945761011e565b80633cf5040a116100e65780633cf5040a146101f85780633e2b58e01461023457806343cdd4381461025e578063558d51c61461029a57806365ce0ac6146102b05761011e565b8063086f781514610122578063190cf7451461014c578063228cb7331461018857806327b5db8a146101b25780632cd87161146101bc575b5f80fd5b34801561012d575f80fd5b506101366104b2565b6040516101439190611b78565b60405180910390f35b348015610157575f80fd5b50610172600480360381019061016d9190611bfc565b6104b8565b60405161017f9190611c41565b60405180910390f35b348015610193575f80fd5b5061019c6104d5565b6040516101a99190611b78565b60405180910390f35b6101ba6104db565b005b3480156101c7575f80fd5b506101e260048036038101906101dd9190611dcc565b61082f565b6040516101ef9190611e3e565b60405180910390f35b348015610203575f80fd5b5061021e60048036038101906102199190611e81565b6108e8565b60405161022b9190611e3e565b60405180910390f35b34801561023f575f80fd5b50610248610917565b6040516102559190611b78565b60405180910390f35b348015610269575f80fd5b50610284600480360381019061027f9190611bfc565b61091d565b6040516102919190611c41565b60405180910390f35b3480156102a5575f80fd5b506102ae61093a565b005b3480156102bb575f80fd5b506102d660048036038101906102d19190611e81565b610d92565b005b3480156102e3575f80fd5b506102ec610f31565b6040516102f99190611ebb565b60405180910390f35b34801561030d575f80fd5b50610316610f41565b6040516103239190611b78565b60405180910390f35b348015610337575f80fd5b50610352600480360381019061034d9190611bfc565b610f47565b60405161036193929190611ef6565b60405180910390f35b348015610375575f80fd5b5061037e610f8d565b60405161038b9190611b78565b60405180910390f35b34801561039f575f80fd5b506103ba60048036038101906103b59190611bfc565b610f93565b6040516103c79190611b78565b60405180910390f35b3480156103db575f80fd5b506103e4610fa8565b6040516103f19190611b78565b60405180910390f35b348015610405575f80fd5b5061040e610fbc565b60405161041b9190611b78565b60405180910390f35b34801561042f575f80fd5b5061044a60048036038101906104459190611e81565b610fc2565b005b348015610457575f80fd5b50610460611205565b60405161046d9190611b78565b60405180910390f35b348015610481575f80fd5b5061049c60048036038101906104979190611f55565b611225565b6040516104a99190611f8f565b60405180910390f35b60095481565b6006602052805f5260405f205f915054906101000a900460ff1681565b60045481565b600260035410610520576040517f08c379a000000000000000000000000000000000000000000000000000000000815260040161051790612002565b60405180910390fd5b600c5f3373ffffffffffffffffffffffffffffffffffffffff1673ffffffffffffffffffffffffffffffffffffffff1681526020019081526020015f205f9054906101000a900460ff166105a9576040517f08c379a00000000000000000000000000000000000000000000000000000000081526004016105a09061206a565b60405180910390fd5b5f60035411156106265760075f815481106105c7576105c6612088565b5b905f5260205f20015f9054906101000a900473ffffffffffffffffffffffffffffffffffffffff1673ffffffffffffffffffffffffffffffffffffffff163373ffffffffffffffffffffffffffffffffffffffff1603610625575f80fd5b5b670de0b6b3a76400003414610670576040517f08c379a0000000000000000000000000000000000000000000000000000000008152600401610667906120ff565b60405180910390fd5b3460045f828254610681919061214a565b92505081905550600160065f3373ffffffffffffffffffffffffffffffffffffffff1673ffffffffffffffffffffffffffffffffffffffff1681526020019081526020015f205f6101000a81548160ff021916908315150217905550600733908060018154018082558091505060019003905f5260205f20015f9091909190916101000a81548173ffffffffffffffffffffffffffffffffffffffff021916908373ffffffffffffffffffffffffffffffffffffffff1602179055506005805f3373ffffffffffffffffffffffffffffffffffffffff1673ffffffffffffffffffffffffffffffffffffffff1681526020019081526020015f20819055505f60085f3373ffffffffffffffffffffffffffffffffffffffff1673ffffffffffffffffffffffffffffffffffffffff1681526020019081526020015f205f6101000a81548160ff02191690831515021790555060035f8154809291906107e59061217d565b91905055507f313f9ebdca9d25ee9456dd69022e3324975c8261b7a8b134881905d3b6964d3c3360035460405161081d9291906121c4565b60405180910390a161082d611260565b565b5f60048360ff161115610877576040517f08c379a000000000000000000000000000000000000000000000000000000000815260040161086e90612235565b60405180910390fd5b5f4244338560405160200161088f949392919061230a565b6040516020818303038152906040528051906020012090505f8190505f818660f81b6040516020016108c29291906123e9565b6040516020818303038152906040526108da9061244d565b905080935050505092915050565b5f816040516020016108fa91906124d3565b604051602081830303815290604052805190602001209050919050565b600b5481565b6008602052805f5260405f205f915054906101000a900460ff1681565b60016003541015610949575f80fd5b600b54610954610fa8565b11610994576040517f08c379a000000000000000000000000000000000000000000000000000000000815260040161098b9061255d565b60405180910390fd5b6004544710156109d9576040517f08c379a00000000000000000000000000000000000000000000000000000000081526004016109d0906125eb565b60405180910390fd5b5f60075f815481106109ee576109ed612088565b5b905f5260205f20015f9054906101000a900473ffffffffffffffffffffffffffffffffffffffff169050600160035403610a75578073ffffffffffffffffffffffffffffffffffffffff166108fc60045490811502906040515f60405180830381858888f19350505050158015610a67573d5f803e3d5ffd5b50610a70611269565b610d8f565b600260035403610d8e575f6007600181548110610a9557610a94612088565b5b905f5260205f20015f9054906101000a900473ffffffffffffffffffffffffffffffffffffffff1690505f6009541480610ade57506002600954148015610add57505f600a54145b5b15610b94578173ffffffffffffffffffffffffffffffffffffffff166108fc6002600454610b0c9190612636565b90811502906040515f60405180830381858888f19350505050158015610b34573d5f803e3d5ffd5b508073ffffffffffffffffffffffffffffffffffffffff166108fc6002600454610b5e9190612636565b90811502906040515f60405180830381858888f19350505050158015610b86573d5f803e3d5ffd5b50610b8f611269565b610d8c565b600160095403610c92576001151560085f8473ffffffffffffffffffffffffffffffffffffffff1673ffffffffffffffffffffffffffffffffffffffff1681526020019081526020015f205f9054906101000a900460ff16151503610c3e578173ffffffffffffffffffffffffffffffffffffffff166108fc60045490811502906040515f60405180830381858888f19350505050158015610c38573d5f803e3d5ffd5b50610c85565b8073ffffffffffffffffffffffffffffffffffffffff166108fc60045490811502906040515f60405180830381858888f19350505050158015610c83573d5f803e3d5ffd5b505b610c8d611269565b610d8b565b6002600954148015610ca657506001600a54145b15610d8a576005805f8473ffffffffffffffffffffffffffffffffffffffff1673ffffffffffffffffffffffffffffffffffffffff1681526020019081526020015f205414610d3a578173ffffffffffffffffffffffffffffffffffffffff166108fc60045490811502906040515f60405180830381858888f19350505050158015610d34573d5f803e3d5ffd5b50610d81565b8073ffffffffffffffffffffffffffffffffffffffff166108fc60045490811502906040515f60405180830381858888f19350505050158015610d7f573d5f803e3d5ffd5b505b610d89611269565b5b5b5b505b5b50565b600260035414610da0575f80fd5b600260095414610dae575f80fd5b5f81601f60208110610dc357610dc2612088565b5b1a60f81b60f81c60ff1690505f8110158015610de0575060048111155b610e1f576040517f08c379a0000000000000000000000000000000000000000000000000000000008152600401610e16906126d6565b60405180910390fd5b60085f3373ffffffffffffffffffffffffffffffffffffffff1673ffffffffffffffffffffffffffffffffffffffff1681526020019081526020015f205f9054906101000a900460ff16610ea8576040517f08c379a0000000000000000000000000000000000000000000000000000000008152600401610e9f9061273e565b60405180910390fd5b610eb182611294565b8060055f3373ffffffffffffffffffffffffffffffffffffffff1673ffffffffffffffffffffffffffffffffffffffff1681526020019081526020015f2081905550600a5f815480929190610f059061217d565b9190505550610f12611260565b6002600a5403610f2d57610f24611652565b610f2c611269565b5b5050565b5f8054906101000a900460ff1681565b60025481565b6001602052805f5260405f205f91509050805f015490806001015f9054906101000a900467ffffffffffffffff16908060010160089054906101000a900460ff16905083565b60035481565b6005602052805f5260405f205f915090505481565b5f60025442610fb7919061275c565b905090565b600a5481565b600260035414611007576040517f08c379a0000000000000000000000000000000000000000000000000000000008152600401610ffe906127d9565b60405180910390fd5b600260095410611015575f80fd5b60065f3373ffffffffffffffffffffffffffffffffffffffff1673ffffffffffffffffffffffffffffffffffffffff1681526020019081526020015f205f9054906101000a900460ff16611067575f80fd5b5f151560085f3373ffffffffffffffffffffffffffffffffffffffff1673ffffffffffffffffffffffffffffffffffffffff1681526020019081526020015f205f9054906101000a900460ff161515146110f6576040517f08c379a00000000000000000000000000000000000000000000000000000000081526004016110ed90612841565b60405180910390fd5b5f60065f3373ffffffffffffffffffffffffffffffffffffffff1673ffffffffffffffffffffffffffffffffffffffff1681526020019081526020015f205f6101000a81548160ff021916908315150217905550600160085f3373ffffffffffffffffffffffffffffffffffffffff1673ffffffffffffffffffffffffffffffffffffffff1681526020019081526020015f205f6101000a81548160ff0219169083151502179055506111a881611955565b60095f8154809291906111ba9061217d565b91905055507f3928cc5abcbb1c0b781bebbc4f1e9b156f6d392796c791cc0937db5e42677ff7336009546040516111f29291906121c4565b60405180910390a1611202611260565b50565b5f603c60025442611216919061275c565b6112209190612636565b905090565b60078181548110611234575f80fd5b905f5260205f20015f915054906101000a900473ffffffffffffffffffffffffffffffffffffffff1681565b42600281905550565b60075f6112769190611b27565b5f6003819055505f6009819055505f600a819055505f600481905550565b5f151560015f3373ffffffffffffffffffffffffffffffffffffffff1673ffffffffffffffffffffffffffffffffffffffff1681526020019081526020015f2060010160089054906101000a900460ff16151514611327576040517f08c379a000000000000000000000000000000000000000000000000000000000815260040161131e906128cf565b60405180910390fd5b6001805f3373ffffffffffffffffffffffffffffffffffffffff1673ffffffffffffffffffffffffffffffffffffffff1681526020019081526020015f2060010160086101000a81548160ff02191690831515021790555060015f3373ffffffffffffffffffffffffffffffffffffffff1673ffffffffffffffffffffffffffffffffffffffff1681526020019081526020015f205f01546113c8826108e8565b14611408576040517f08c379a00000000000000000000000000000000000000000000000000000000081526004016113ff9061295d565b60405180910390fd5b60015f3373ffffffffffffffffffffffffffffffffffffffff1673ffffffffffffffffffffffffffffffffffffffff1681526020019081526020015f206001015f9054906101000a900467ffffffffffffffff1667ffffffffffffffff164367ffffffffffffffff16116114b1576040517f08c379a00000000000000000000000000000000000000000000000000000000081526004016114a890612a11565b60405180910390fd5b60fa60015f3373ffffffffffffffffffffffffffffffffffffffff1673ffffffffffffffffffffffffffffffffffffffff1681526020019081526020015f206001015f9054906101000a900467ffffffffffffffff166115119190612a2f565b67ffffffffffffffff164367ffffffffffffffff161115611567576040517f08c379a000000000000000000000000000000000000000000000000000000000815260040161155e90612ada565b60405180910390fd5b5f60015f3373ffffffffffffffffffffffffffffffffffffffff1673ffffffffffffffffffffffffffffffffffffffff1681526020019081526020015f206001015f9054906101000a900467ffffffffffffffff1667ffffffffffffffff164090505f805f9054906101000a900460ff1660ff1682846040516020016115ee929190612af8565b604051602081830303815290604052805190602001205f1c6116109190612b23565b90507fbc016dd1cadeaefcb851af7a0a93532e0023d536894b730801f7bcfe7065bcc233848360405161164593929190612b53565b60405180910390a1505050565b5f60055f60075f8154811061166a57611669612088565b5b905f5260205f20015f9054906101000a900473ffffffffffffffffffffffffffffffffffffffff1673ffffffffffffffffffffffffffffffffffffffff1673ffffffffffffffffffffffffffffffffffffffff1681526020019081526020015f205490505f60055f60076001815481106116e7576116e6612088565b5b905f5260205f20015f9054906101000a900473ffffffffffffffffffffffffffffffffffffffff1673ffffffffffffffffffffffffffffffffffffffff1673ffffffffffffffffffffffffffffffffffffffff1681526020019081526020015f205490505f60075f815481106117605761175f612088565b5b905f5260205f20015f9054906101000a900473ffffffffffffffffffffffffffffffffffffffff1690505f60076001815481106117a05761179f612088565b5b905f5260205f20015f9054906101000a900473ffffffffffffffffffffffffffffffffffffffff16905082840361187a578173ffffffffffffffffffffffffffffffffffffffff166108fc60026004546117fa9190612636565b90811502906040515f60405180830381858888f19350505050158015611822573d5f803e3d5ffd5b508073ffffffffffffffffffffffffffffffffffffffff166108fc600260045461184c9190612636565b90811502906040515f60405180830381858888f19350505050158015611874573d5f803e3d5ffd5b5061194f565b82600560018661188a919061214a565b6118949190612b23565b14806118b757508260056003866118ab919061214a565b6118b59190612b23565b145b15611907578073ffffffffffffffffffffffffffffffffffffffff166108fc60045490811502906040515f60405180830381858888f19350505050158015611901573d5f803e3d5ffd5b5061194e565b8173ffffffffffffffffffffffffffffffffffffffff166108fc60045490811502906040515f60405180830381858888f1935050505015801561194c573d5f803e3d5ffd5b505b5b50505050565b8060015f3373ffffffffffffffffffffffffffffffffffffffff1673ffffffffffffffffffffffffffffffffffffffff1681526020019081526020015f205f01819055504360015f3373ffffffffffffffffffffffffffffffffffffffff1673ffffffffffffffffffffffffffffffffffffffff1681526020019081526020015f206001015f6101000a81548167ffffffffffffffff021916908367ffffffffffffffff1602179055505f60015f3373ffffffffffffffffffffffffffffffffffffffff1673ffffffffffffffffffffffffffffffffffffffff1681526020019081526020015f2060010160086101000a81548160ff0219169083151502179055507f3c1a1f8f38335b17f751c6da4ba7d1865f26b3997535176f5080de9fad8916033360015f3373ffffffffffffffffffffffffffffffffffffffff1673ffffffffffffffffffffffffffffffffffffffff1681526020019081526020015f205f015460015f3373ffffffffffffffffffffffffffffffffffffffff1673ffffffffffffffffffffffffffffffffffffffff1681526020019081526020015f206001015f9054906101000a900467ffffffffffffffff16604051611b1c93929190612b88565b60405180910390a150565b5080545f8255905f5260205f2090810190611b429190611b45565b50565b5b80821115611b5c575f815f905550600101611b46565b5090565b5f819050919050565b611b7281611b60565b82525050565b5f602082019050611b8b5f830184611b69565b92915050565b5f604051905090565b5f80fd5b5f80fd5b5f73ffffffffffffffffffffffffffffffffffffffff82169050919050565b5f611bcb82611ba2565b9050919050565b611bdb81611bc1565b8114611be5575f80fd5b50565b5f81359050611bf681611bd2565b92915050565b5f60208284031215611c1157611c10611b9a565b5b5f611c1e84828501611be8565b91505092915050565b5f8115159050919050565b611c3b81611c27565b82525050565b5f602082019050611c545f830184611c32565b92915050565b5f60ff82169050919050565b611c6f81611c5a565b8114611c79575f80fd5b50565b5f81359050611c8a81611c66565b92915050565b5f80fd5b5f80fd5b5f601f19601f8301169050919050565b7f4e487b71000000000000000000000000000000000000000000000000000000005f52604160045260245ffd5b611cde82611c98565b810181811067ffffffffffffffff82111715611cfd57611cfc611ca8565b5b80604052505050565b5f611d0f611b91565b9050611d1b8282611cd5565b919050565b5f67ffffffffffffffff821115611d3a57611d39611ca8565b5b611d4382611c98565b9050602081019050919050565b828183375f83830152505050565b5f611d70611d6b84611d20565b611d06565b905082815260208101848484011115611d8c57611d8b611c94565b5b611d97848285611d50565b509392505050565b5f82601f830112611db357611db2611c90565b5b8135611dc3848260208601611d5e565b91505092915050565b5f8060408385031215611de257611de1611b9a565b5b5f611def85828601611c7c565b925050602083013567ffffffffffffffff811115611e1057611e0f611b9e565b5b611e1c85828601611d9f565b9150509250929050565b5f819050919050565b611e3881611e26565b82525050565b5f602082019050611e515f830184611e2f565b92915050565b611e6081611e26565b8114611e6a575f80fd5b50565b5f81359050611e7b81611e57565b92915050565b5f60208284031215611e9657611e95611b9a565b5b5f611ea384828501611e6d565b91505092915050565b611eb581611c5a565b82525050565b5f602082019050611ece5f830184611eac565b92915050565b5f67ffffffffffffffff82169050919050565b611ef081611ed4565b82525050565b5f606082019050611f095f830186611e2f565b611f166020830185611ee7565b611f236040830184611c32565b949350505050565b611f3481611b60565b8114611f3e575f80fd5b50565b5f81359050611f4f81611f2b565b92915050565b5f60208284031215611f6a57611f69611b9a565b5b5f611f7784828501611f41565b91505092915050565b611f8981611bc1565b82525050565b5f602082019050611fa25f830184611f80565b92915050565b5f82825260208201905092915050565b7f47616d6520616c726561647920686173203220706c61796572732e00000000005f82015250565b5f611fec601b83611fa8565b9150611ff782611fb8565b602082019050919050565b5f6020820190508181035f83015261201981611fe0565b9050919050565b7f596f7520617265206e6f7420616c6c6f77656420746f20706c61792e000000005f82015250565b5f612054601c83611fa8565b915061205f82612020565b602082019050919050565b5f6020820190508181035f83015261208181612048565b9050919050565b7f4e487b71000000000000000000000000000000000000000000000000000000005f52603260045260245ffd5b7f506179203120657468657220746f20706c61792067616d652e000000000000005f82015250565b5f6120e9601983611fa8565b91506120f4826120b5565b602082019050919050565b5f6020820190508181035f830152612116816120dd565b9050919050565b7f4e487b71000000000000000000000000000000000000000000000000000000005f52601160045260245ffd5b5f61215482611b60565b915061215f83611b60565b92508282019050808211156121775761217661211d565b5b92915050565b5f61218782611b60565b91507fffffffffffffffffffffffffffffffffffffffffffffffffffffffffffffffff82036121b9576121b861211d565b5b600182019050919050565b5f6040820190506121d75f830185611f80565b6121e46020830184611b69565b9392505050565b7f496e76616c69642063686f6963650000000000000000000000000000000000005f82015250565b5f61221f600e83611fa8565b915061222a826121eb565b602082019050919050565b5f6020820190508181035f83015261224c81612213565b9050919050565b5f819050919050565b61226d61226882611b60565b612253565b82525050565b5f8160601b9050919050565b5f61228982612273565b9050919050565b5f61229a8261227f565b9050919050565b6122b26122ad82611bc1565b612290565b82525050565b5f81519050919050565b5f81905092915050565b8281835e5f83830152505050565b5f6122e4826122b8565b6122ee81856122c2565b93506122fe8185602086016122cc565b80840191505092915050565b5f612315828761225c565b602082019150612325828661225c565b60208201915061233582856122a1565b60148201915061234582846122da565b915081905095945050505050565b5f7fffffffffffffffffffffffffffffffffffffffffffffffffffffffffffffff0082169050919050565b5f819050919050565b61239861239382612353565b61237e565b82525050565b5f7fff0000000000000000000000000000000000000000000000000000000000000082169050919050565b5f819050919050565b6123e36123de8261239e565b6123c9565b82525050565b5f6123f48285612387565b601f8201915061240482846123d2565b6001820191508190509392505050565b5f81519050919050565b5f819050602082019050919050565b5f6124388251611e26565b80915050919050565b5f82821b905092915050565b5f61245782612414565b826124618461241e565b905061246c8161242d565b925060208210156124ac576124a77fffffffffffffffffffffffffffffffffffffffffffffffffffffffffffffffff83602003600802612441565b831692505b5050919050565b5f819050919050565b6124cd6124c882611e26565b6124b3565b82525050565b5f6124de82846124bc565b60208201915081905092915050565b7f596f75206e65656420746f20776169742031206d696e75746520666f722077695f8201527f7468647261772e00000000000000000000000000000000000000000000000000602082015250565b5f612547602783611fa8565b9150612552826124ed565b604082019050919050565b5f6020820190508181035f8301526125748161253b565b9050919050565b7f436f6e74726163742068617320696e73756666696369656e742062616c616e635f8201527f652e000000000000000000000000000000000000000000000000000000000000602082015250565b5f6125d5602283611fa8565b91506125e08261257b565b604082019050919050565b5f6020820190508181035f830152612602816125c9565b9050919050565b7f4e487b71000000000000000000000000000000000000000000000000000000005f52601260045260245ffd5b5f61264082611b60565b915061264b83611b60565b92508261265b5761265a612609565b5b828204905092915050565b7f596f75722063686f696365206e6565647320746f206265206265747765656e205f8201527f3020746f20340000000000000000000000000000000000000000000000000000602082015250565b5f6126c0602683611fa8565b91506126cb82612666565b604082019050919050565b5f6020820190508181035f8301526126ed816126b4565b9050919050565b7f596f75206e65656420746f20636f6d6d69742066697273742e000000000000005f82015250565b5f612728601983611fa8565b9150612733826126f4565b602082019050919050565b5f6020820190508181035f8301526127558161271c565b9050919050565b5f61276682611b60565b915061277183611b60565b92508282039050818111156127895761278861211d565b5b92915050565b7f47616d65206e65656473203220706c61796572732e00000000000000000000005f82015250565b5f6127c3601583611fa8565b91506127ce8261278f565b602082019050919050565b5f6020820190508181035f8301526127f0816127b7565b9050919050565b7f596f7520616c726561647920636f6d6d697465642e00000000000000000000005f82015250565b5f61282b601583611fa8565b9150612836826127f7565b602082019050919050565b5f6020820190508181035f8301526128588161281f565b9050919050565b7f436f6d6d697452657665616c3a3a72657665616c3a20416c72656164792072655f8201527f7665616c65640000000000000000000000000000000000000000000000000000602082015250565b5f6128b9602683611fa8565b91506128c48261285f565b604082019050919050565b5f6020820190508181035f8301526128e6816128ad565b9050919050565b7f436f6d6d697452657665616c3a3a72657665616c3a2052657665616c656420685f8201527f61736820646f6573206e6f74206d6174636820636f6d6d697400000000000000602082015250565b5f612947603983611fa8565b9150612952826128ed565b604082019050919050565b5f6020820190508181035f8301526129748161293b565b9050919050565b7f436f6d6d697452657665616c3a3a72657665616c3a2052657665616c20616e645f8201527f20636f6d6d69742068617070656e6564206f6e207468652073616d6520626c6f60208201527f636b000000000000000000000000000000000000000000000000000000000000604082015250565b5f6129fb604283611fa8565b9150612a068261297b565b606082019050919050565b5f6020820190508181035f830152612a28816129ef565b9050919050565b5f612a3982611ed4565b9150612a4483611ed4565b9250828201905067ffffffffffffffff811115612a6457612a6361211d565b5b92915050565b7f436f6d6d697452657665616c3a3a72657665616c3a2052657665616c656420745f8201527f6f6f206c61746500000000000000000000000000000000000000000000000000602082015250565b5f612ac4602783611fa8565b9150612acf82612a6a565b604082019050919050565b5f6020820190508181035f830152612af181612ab8565b9050919050565b5f612b0382856124bc565b602082019150612b1382846124bc565b6020820191508190509392505050565b5f612b2d82611b60565b9150612b3883611b60565b925082612b4857612b47612609565b5b828206905092915050565b5f606082019050612b665f830186611f80565b612b736020830185611e2f565b612b806040830184611b69565b949350505050565b5f606082019050612b9b5f830186611f80565b612ba86020830185611e2f565b612bb56040830184611ee7565b94935050505056fea26469706673582212207ca78bf8ff468070a4f4c7b776fb99e9e8ac89cfbedb7e0a5ce0ed14ca18ce4164736f6c634300081a0033",
					"opcodes": "PUSH1 0x80 PUSH1 0x40 MSTORE PUSH1 0x64 PUSH0 DUP1 PUSH2 0x100 EXP DUP2 SLOAD DUP2 PUSH1 0xFF MUL NOT AND SWAP1 DUP4 PUSH1 0xFF AND MUL OR SWAP1 SSTORE POP PUSH0 PUSH1 0x3 SSTORE PUSH0 PUSH1 0x4 SSTORE PUSH0 PUSH1 0x9 SSTORE PUSH0 PUSH1 0xA SSTORE PUSH1 0x3C PUSH1 0xB SSTORE CALLVALUE DUP1 ISZERO PUSH2 0x3E JUMPI PUSH0 DUP1 REVERT JUMPDEST POP PUSH1 0x1 PUSH1 0xC PUSH0 PUSH20 0x5B38DA6A701C568545DCFCB03FCB875F56BEDDC4 PUSH20 0xFFFFFFFFFFFFFFFFFFFFFFFFFFFFFFFFFFFFFFFF AND PUSH20 0xFFFFFFFFFFFFFFFFFFFFFFFFFFFFFFFFFFFFFFFF AND DUP2 MSTORE PUSH1 0x20 ADD SWAP1 DUP2 MSTORE PUSH1 0x20 ADD PUSH0 KECCAK256 PUSH0 PUSH2 0x100 EXP DUP2 SLOAD DUP2 PUSH1 0xFF MUL NOT AND SWAP1 DUP4 ISZERO ISZERO MUL OR SWAP1 SSTORE POP PUSH1 0x1 PUSH1 0xC PUSH0 PUSH20 0xAB8483F64D9C6D1ECF9B849AE677DD3315835CB2 PUSH20 0xFFFFFFFFFFFFFFFFFFFFFFFFFFFFFFFFFFFFFFFF AND PUSH20 0xFFFFFFFFFFFFFFFFFFFFFFFFFFFFFFFFFFFFFFFF AND DUP2 MSTORE PUSH1 0x20 ADD SWAP1 DUP2 MSTORE PUSH1 0x20 ADD PUSH0 KECCAK256 PUSH0 PUSH2 0x100 EXP DUP2 SLOAD DUP2 PUSH1 0xFF MUL NOT AND SWAP1 DUP4 ISZERO ISZERO MUL OR SWAP1 SSTORE POP PUSH1 0x1 PUSH1 0xC PUSH0 PUSH20 0x4B20993BC481177EC7E8F571CECAE8A9E22C02DB PUSH20 0xFFFFFFFFFFFFFFFFFFFFFFFFFFFFFFFFFFFFFFFF AND PUSH20 0xFFFFFFFFFFFFFFFFFFFFFFFFFFFFFFFFFFFFFFFF AND DUP2 MSTORE PUSH1 0x20 ADD SWAP1 DUP2 MSTORE PUSH1 0x20 ADD PUSH0 KECCAK256 PUSH0 PUSH2 0x100 EXP DUP2 SLOAD DUP2 PUSH1 0xFF MUL NOT AND SWAP1 DUP4 ISZERO ISZERO MUL OR SWAP1 SSTORE POP PUSH1 0x1 PUSH1 0xC PUSH0 PUSH20 0x78731D3CA6B7E34AC0F824C42A7CC18A495CABAB PUSH20 0xFFFFFFFFFFFFFFFFFFFFFFFFFFFFFFFFFFFFFFFF AND PUSH20 0xFFFFFFFFFFFFFFFFFFFFFFFFFFFFFFFFFFFFFFFF AND DUP2 MSTORE PUSH1 0x20 ADD SWAP1 DUP2 MSTORE PUSH1 0x20 ADD PUSH0 KECCAK256 PUSH0 PUSH2 0x100 EXP DUP2 SLOAD DUP2 PUSH1 0xFF MUL NOT AND SWAP1 DUP4 ISZERO ISZERO MUL OR SWAP1 SSTORE POP PUSH2 0x2BF3 DUP1 PUSH2 0x1F0 PUSH0 CODECOPY PUSH0 RETURN INVALID PUSH1 0x80 PUSH1 0x40 MSTORE PUSH1 0x4 CALLDATASIZE LT PUSH2 0x11E JUMPI PUSH0 CALLDATALOAD PUSH1 0xE0 SHR DUP1 PUSH4 0x6AC5DB19 GT PUSH2 0x9F JUMPI DUP1 PUSH4 0xBC06B8CD GT PUSH2 0x63 JUMPI DUP1 PUSH4 0xBC06B8CD EQ PUSH2 0x3D0 JUMPI DUP1 PUSH4 0xC876E615 EQ PUSH2 0x3FA JUMPI DUP1 PUSH4 0xD891F969 EQ PUSH2 0x424 JUMPI DUP1 PUSH4 0xD97C8416 EQ PUSH2 0x44C JUMPI DUP1 PUSH4 0xF71D96CB EQ PUSH2 0x476 JUMPI PUSH2 0x11E JUMP JUMPDEST DUP1 PUSH4 0x6AC5DB19 EQ PUSH2 0x2D8 JUMPI DUP1 PUSH4 0x78E97925 EQ PUSH2 0x302 JUMPI DUP1 PUSH4 0x7B43A8E6 EQ PUSH2 0x32C JUMPI DUP1 PUSH4 0x90D5D0C3 EQ PUSH2 0x36A JUMPI DUP1 PUSH4 0xA040478D EQ PUSH2 0x394 JUMPI PUSH2 0x11E JUMP JUMPDEST DUP1 PUSH4 0x3CF5040A GT PUSH2 0xE6 JUMPI DUP1 PUSH4 0x3CF5040A EQ PUSH2 0x1F8 JUMPI DUP1 PUSH4 0x3E2B58E0 EQ PUSH2 0x234 JUMPI DUP1 PUSH4 0x43CDD438 EQ PUSH2 0x25E JUMPI DUP1 PUSH4 0x558D51C6 EQ PUSH2 0x29A JUMPI DUP1 PUSH4 0x65CE0AC6 EQ PUSH2 0x2B0 JUMPI PUSH2 0x11E JUMP JUMPDEST DUP1 PUSH4 0x86F7815 EQ PUSH2 0x122 JUMPI DUP1 PUSH4 0x190CF745 EQ PUSH2 0x14C JUMPI DUP1 PUSH4 0x228CB733 EQ PUSH2 0x188 JUMPI DUP1 PUSH4 0x27B5DB8A EQ PUSH2 0x1B2 JUMPI DUP1 PUSH4 0x2CD87161 EQ PUSH2 0x1BC JUMPI JUMPDEST PUSH0 DUP1 REVERT JUMPDEST CALLVALUE DUP1 ISZERO PUSH2 0x12D JUMPI PUSH0 DUP1 REVERT JUMPDEST POP PUSH2 0x136 PUSH2 0x4B2 JUMP JUMPDEST PUSH1 0x40 MLOAD PUSH2 0x143 SWAP2 SWAP1 PUSH2 0x1B78 JUMP JUMPDEST PUSH1 0x40 MLOAD DUP1 SWAP2 SUB SWAP1 RETURN JUMPDEST CALLVALUE DUP1 ISZERO PUSH2 0x157 JUMPI PUSH0 DUP1 REVERT JUMPDEST POP PUSH2 0x172 PUSH1 0x4 DUP1 CALLDATASIZE SUB DUP2 ADD SWAP1 PUSH2 0x16D SWAP2 SWAP1 PUSH2 0x1BFC JUMP JUMPDEST PUSH2 0x4B8 JUMP JUMPDEST PUSH1 0x40 MLOAD PUSH2 0x17F SWAP2 SWAP1 PUSH2 0x1C41 JUMP JUMPDEST PUSH1 0x40 MLOAD DUP1 SWAP2 SUB SWAP1 RETURN JUMPDEST CALLVALUE DUP1 ISZERO PUSH2 0x193 JUMPI PUSH0 DUP1 REVERT JUMPDEST POP PUSH2 0x19C PUSH2 0x4D5 JUMP JUMPDEST PUSH1 0x40 MLOAD PUSH2 0x1A9 SWAP2 SWAP1 PUSH2 0x1B78 JUMP JUMPDEST PUSH1 0x40 MLOAD DUP1 SWAP2 SUB SWAP1 RETURN JUMPDEST PUSH2 0x1BA PUSH2 0x4DB JUMP JUMPDEST STOP JUMPDEST CALLVALUE DUP1 ISZERO PUSH2 0x1C7 JUMPI PUSH0 DUP1 REVERT JUMPDEST POP PUSH2 0x1E2 PUSH1 0x4 DUP1 CALLDATASIZE SUB DUP2 ADD SWAP1 PUSH2 0x1DD SWAP2 SWAP1 PUSH2 0x1DCC JUMP JUMPDEST PUSH2 0x82F JUMP JUMPDEST PUSH1 0x40 MLOAD PUSH2 0x1EF SWAP2 SWAP1 PUSH2 0x1E3E JUMP JUMPDEST PUSH1 0x40 MLOAD DUP1 SWAP2 SUB SWAP1 RETURN JUMPDEST CALLVALUE DUP1 ISZERO PUSH2 0x203 JUMPI PUSH0 DUP1 REVERT JUMPDEST POP PUSH2 0x21E PUSH1 0x4 DUP1 CALLDATASIZE SUB DUP2 ADD SWAP1 PUSH2 0x219 SWAP2 SWAP1 PUSH2 0x1E81 JUMP JUMPDEST PUSH2 0x8E8 JUMP JUMPDEST PUSH1 0x40 MLOAD PUSH2 0x22B SWAP2 SWAP1 PUSH2 0x1E3E JUMP JUMPDEST PUSH1 0x40 MLOAD DUP1 SWAP2 SUB SWAP1 RETURN JUMPDEST CALLVALUE DUP1 ISZERO PUSH2 0x23F JUMPI PUSH0 DUP1 REVERT JUMPDEST POP PUSH2 0x248 PUSH2 0x917 JUMP JUMPDEST PUSH1 0x40 MLOAD PUSH2 0x255 SWAP2 SWAP1 PUSH2 0x1B78 JUMP JUMPDEST PUSH1 0x40 MLOAD DUP1 SWAP2 SUB SWAP1 RETURN JUMPDEST CALLVALUE DUP1 ISZERO PUSH2 0x269 JUMPI PUSH0 DUP1 REVERT JUMPDEST POP PUSH2 0x284 PUSH1 0x4 DUP1 CALLDATASIZE SUB DUP2 ADD SWAP1 PUSH2 0x27F SWAP2 SWAP1 PUSH2 0x1BFC JUMP JUMPDEST PUSH2 0x91D JUMP JUMPDEST PUSH1 0x40 MLOAD PUSH2 0x291 SWAP2 SWAP1 PUSH2 0x1C41 JUMP JUMPDEST PUSH1 0x40 MLOAD DUP1 SWAP2 SUB SWAP1 RETURN JUMPDEST CALLVALUE DUP1 ISZERO PUSH2 0x2A5 JUMPI PUSH0 DUP1 REVERT JUMPDEST POP PUSH2 0x2AE PUSH2 0x93A JUMP JUMPDEST STOP JUMPDEST CALLVALUE DUP1 ISZERO PUSH2 0x2BB JUMPI PUSH0 DUP1 REVERT JUMPDEST POP PUSH2 0x2D6 PUSH1 0x4 DUP1 CALLDATASIZE SUB DUP2 ADD SWAP1 PUSH2 0x2D1 SWAP2 SWAP1 PUSH2 0x1E81 JUMP JUMPDEST PUSH2 0xD92 JUMP JUMPDEST STOP JUMPDEST CALLVALUE DUP1 ISZERO PUSH2 0x2E3 JUMPI PUSH0 DUP1 REVERT JUMPDEST POP PUSH2 0x2EC PUSH2 0xF31 JUMP JUMPDEST PUSH1 0x40 MLOAD PUSH2 0x2F9 SWAP2 SWAP1 PUSH2 0x1EBB JUMP JUMPDEST PUSH1 0x40 MLOAD DUP1 SWAP2 SUB SWAP1 RETURN JUMPDEST CALLVALUE DUP1 ISZERO PUSH2 0x30D JUMPI PUSH0 DUP1 REVERT JUMPDEST POP PUSH2 0x316 PUSH2 0xF41 JUMP JUMPDEST PUSH1 0x40 MLOAD PUSH2 0x323 SWAP2 SWAP1 PUSH2 0x1B78 JUMP JUMPDEST PUSH1 0x40 MLOAD DUP1 SWAP2 SUB SWAP1 RETURN JUMPDEST CALLVALUE DUP1 ISZERO PUSH2 0x337 JUMPI PUSH0 DUP1 REVERT JUMPDEST POP PUSH2 0x352 PUSH1 0x4 DUP1 CALLDATASIZE SUB DUP2 ADD SWAP1 PUSH2 0x34D SWAP2 SWAP1 PUSH2 0x1BFC JUMP JUMPDEST PUSH2 0xF47 JUMP JUMPDEST PUSH1 0x40 MLOAD PUSH2 0x361 SWAP4 SWAP3 SWAP2 SWAP1 PUSH2 0x1EF6 JUMP JUMPDEST PUSH1 0x40 MLOAD DUP1 SWAP2 SUB SWAP1 RETURN JUMPDEST CALLVALUE DUP1 ISZERO PUSH2 0x375 JUMPI PUSH0 DUP1 REVERT JUMPDEST POP PUSH2 0x37E PUSH2 0xF8D JUMP JUMPDEST PUSH1 0x40 MLOAD PUSH2 0x38B SWAP2 SWAP1 PUSH2 0x1B78 JUMP JUMPDEST PUSH1 0x40 MLOAD DUP1 SWAP2 SUB SWAP1 RETURN JUMPDEST CALLVALUE DUP1 ISZERO PUSH2 0x39F JUMPI PUSH0 DUP1 REVERT JUMPDEST POP PUSH2 0x3BA PUSH1 0x4 DUP1 CALLDATASIZE SUB DUP2 ADD SWAP1 PUSH2 0x3B5 SWAP2 SWAP1 PUSH2 0x1BFC JUMP JUMPDEST PUSH2 0xF93 JUMP JUMPDEST PUSH1 0x40 MLOAD PUSH2 0x3C7 SWAP2 SWAP1 PUSH2 0x1B78 JUMP JUMPDEST PUSH1 0x40 MLOAD DUP1 SWAP2 SUB SWAP1 RETURN JUMPDEST CALLVALUE DUP1 ISZERO PUSH2 0x3DB JUMPI PUSH0 DUP1 REVERT JUMPDEST POP PUSH2 0x3E4 PUSH2 0xFA8 JUMP JUMPDEST PUSH1 0x40 MLOAD PUSH2 0x3F1 SWAP2 SWAP1 PUSH2 0x1B78 JUMP JUMPDEST PUSH1 0x40 MLOAD DUP1 SWAP2 SUB SWAP1 RETURN JUMPDEST CALLVALUE DUP1 ISZERO PUSH2 0x405 JUMPI PUSH0 DUP1 REVERT JUMPDEST POP PUSH2 0x40E PUSH2 0xFBC JUMP JUMPDEST PUSH1 0x40 MLOAD PUSH2 0x41B SWAP2 SWAP1 PUSH2 0x1B78 JUMP JUMPDEST PUSH1 0x40 MLOAD DUP1 SWAP2 SUB SWAP1 RETURN JUMPDEST CALLVALUE DUP1 ISZERO PUSH2 0x42F JUMPI PUSH0 DUP1 REVERT JUMPDEST POP PUSH2 0x44A PUSH1 0x4 DUP1 CALLDATASIZE SUB DUP2 ADD SWAP1 PUSH2 0x445 SWAP2 SWAP1 PUSH2 0x1E81 JUMP JUMPDEST PUSH2 0xFC2 JUMP JUMPDEST STOP JUMPDEST CALLVALUE DUP1 ISZERO PUSH2 0x457 JUMPI PUSH0 DUP1 REVERT JUMPDEST POP PUSH2 0x460 PUSH2 0x1205 JUMP JUMPDEST PUSH1 0x40 MLOAD PUSH2 0x46D SWAP2 SWAP1 PUSH2 0x1B78 JUMP JUMPDEST PUSH1 0x40 MLOAD DUP1 SWAP2 SUB SWAP1 RETURN JUMPDEST CALLVALUE DUP1 ISZERO PUSH2 0x481 JUMPI PUSH0 DUP1 REVERT JUMPDEST POP PUSH2 0x49C PUSH1 0x4 DUP1 CALLDATASIZE SUB DUP2 ADD SWAP1 PUSH2 0x497 SWAP2 SWAP1 PUSH2 0x1F55 JUMP JUMPDEST PUSH2 0x1225 JUMP JUMPDEST PUSH1 0x40 MLOAD PUSH2 0x4A9 SWAP2 SWAP1 PUSH2 0x1F8F JUMP JUMPDEST PUSH1 0x40 MLOAD DUP1 SWAP2 SUB SWAP1 RETURN JUMPDEST PUSH1 0x9 SLOAD DUP2 JUMP JUMPDEST PUSH1 0x6 PUSH1 0x20 MSTORE DUP1 PUSH0 MSTORE PUSH1 0x40 PUSH0 KECCAK256 PUSH0 SWAP2 POP SLOAD SWAP1 PUSH2 0x100 EXP SWAP1 DIV PUSH1 0xFF AND DUP2 JUMP JUMPDEST PUSH1 0x4 SLOAD DUP2 JUMP JUMPDEST PUSH1 0x2 PUSH1 0x3 SLOAD LT PUSH2 0x520 JUMPI PUSH1 0x40 MLOAD PUSH32 0x8C379A000000000000000000000000000000000000000000000000000000000 DUP2 MSTORE PUSH1 0x4 ADD PUSH2 0x517 SWAP1 PUSH2 0x2002 JUMP JUMPDEST PUSH1 0x40 MLOAD DUP1 SWAP2 SUB SWAP1 REVERT JUMPDEST PUSH1 0xC PUSH0 CALLER PUSH20 0xFFFFFFFFFFFFFFFFFFFFFFFFFFFFFFFFFFFFFFFF AND PUSH20 0xFFFFFFFFFFFFFFFFFFFFFFFFFFFFFFFFFFFFFFFF AND DUP2 MSTORE PUSH1 0x20 ADD SWAP1 DUP2 MSTORE PUSH1 0x20 ADD PUSH0 KECCAK256 PUSH0 SWAP1 SLOAD SWAP1 PUSH2 0x100 EXP SWAP1 DIV PUSH1 0xFF AND PUSH2 0x5A9 JUMPI PUSH1 0x40 MLOAD PUSH32 0x8C379A000000000000000000000000000000000000000000000000000000000 DUP2 MSTORE PUSH1 0x4 ADD PUSH2 0x5A0 SWAP1 PUSH2 0x206A JUMP JUMPDEST PUSH1 0x40 MLOAD DUP1 SWAP2 SUB SWAP1 REVERT JUMPDEST PUSH0 PUSH1 0x3 SLOAD GT ISZERO PUSH2 0x626 JUMPI PUSH1 0x7 PUSH0 DUP2 SLOAD DUP2 LT PUSH2 0x5C7 JUMPI PUSH2 0x5C6 PUSH2 0x2088 JUMP JUMPDEST JUMPDEST SWAP1 PUSH0 MSTORE PUSH1 0x20 PUSH0 KECCAK256 ADD PUSH0 SWAP1 SLOAD SWAP1 PUSH2 0x100 EXP SWAP1 DIV PUSH20 0xFFFFFFFFFFFFFFFFFFFFFFFFFFFFFFFFFFFFFFFF AND PUSH20 0xFFFFFFFFFFFFFFFFFFFFFFFFFFFFFFFFFFFFFFFF AND CALLER PUSH20 0xFFFFFFFFFFFFFFFFFFFFFFFFFFFFFFFFFFFFFFFF AND SUB PUSH2 0x625 JUMPI PUSH0 DUP1 REVERT JUMPDEST JUMPDEST PUSH8 0xDE0B6B3A7640000 CALLVALUE EQ PUSH2 0x670 JUMPI PUSH1 0x40 MLOAD PUSH32 0x8C379A000000000000000000000000000000000000000000000000000000000 DUP2 MSTORE PUSH1 0x4 ADD PUSH2 0x667 SWAP1 PUSH2 0x20FF JUMP JUMPDEST PUSH1 0x40 MLOAD DUP1 SWAP2 SUB SWAP1 REVERT JUMPDEST CALLVALUE PUSH1 0x4 PUSH0 DUP3 DUP3 SLOAD PUSH2 0x681 SWAP2 SWAP1 PUSH2 0x214A JUMP JUMPDEST SWAP3 POP POP DUP2 SWAP1 SSTORE POP PUSH1 0x1 PUSH1 0x6 PUSH0 CALLER PUSH20 0xFFFFFFFFFFFFFFFFFFFFFFFFFFFFFFFFFFFFFFFF AND PUSH20 0xFFFFFFFFFFFFFFFFFFFFFFFFFFFFFFFFFFFFFFFF AND DUP2 MSTORE PUSH1 0x20 ADD SWAP1 DUP2 MSTORE PUSH1 0x20 ADD PUSH0 KECCAK256 PUSH0 PUSH2 0x100 EXP DUP2 SLOAD DUP2 PUSH1 0xFF MUL NOT AND SWAP1 DUP4 ISZERO ISZERO MUL OR SWAP1 SSTORE POP PUSH1 0x7 CALLER SWAP1 DUP1 PUSH1 0x1 DUP2 SLOAD ADD DUP1 DUP3 SSTORE DUP1 SWAP2 POP POP PUSH1 0x1 SWAP1 SUB SWAP1 PUSH0 MSTORE PUSH1 0x20 PUSH0 KECCAK256 ADD PUSH0 SWAP1 SWAP2 SWAP1 SWAP2 SWAP1 SWAP2 PUSH2 0x100 EXP DUP2 SLOAD DUP2 PUSH20 0xFFFFFFFFFFFFFFFFFFFFFFFFFFFFFFFFFFFFFFFF MUL NOT AND SWAP1 DUP4 PUSH20 0xFFFFFFFFFFFFFFFFFFFFFFFFFFFFFFFFFFFFFFFF AND MUL OR SWAP1 SSTORE POP PUSH1 0x5 DUP1 PUSH0 CALLER PUSH20 0xFFFFFFFFFFFFFFFFFFFFFFFFFFFFFFFFFFFFFFFF AND PUSH20 0xFFFFFFFFFFFFFFFFFFFFFFFFFFFFFFFFFFFFFFFF AND DUP2 MSTORE PUSH1 0x20 ADD SWAP1 DUP2 MSTORE PUSH1 0x20 ADD PUSH0 KECCAK256 DUP2 SWAP1 SSTORE POP PUSH0 PUSH1 0x8 PUSH0 CALLER PUSH20 0xFFFFFFFFFFFFFFFFFFFFFFFFFFFFFFFFFFFFFFFF AND PUSH20 0xFFFFFFFFFFFFFFFFFFFFFFFFFFFFFFFFFFFFFFFF AND DUP2 MSTORE PUSH1 0x20 ADD SWAP1 DUP2 MSTORE PUSH1 0x20 ADD PUSH0 KECCAK256 PUSH0 PUSH2 0x100 EXP DUP2 SLOAD DUP2 PUSH1 0xFF MUL NOT AND SWAP1 DUP4 ISZERO ISZERO MUL OR SWAP1 SSTORE POP PUSH1 0x3 PUSH0 DUP2 SLOAD DUP1 SWAP3 SWAP2 SWAP1 PUSH2 0x7E5 SWAP1 PUSH2 0x217D JUMP JUMPDEST SWAP2 SWAP1 POP SSTORE POP PUSH32 0x313F9EBDCA9D25EE9456DD69022E3324975C8261B7A8B134881905D3B6964D3C CALLER PUSH1 0x3 SLOAD PUSH1 0x40 MLOAD PUSH2 0x81D SWAP3 SWAP2 SWAP1 PUSH2 0x21C4 JUMP JUMPDEST PUSH1 0x40 MLOAD DUP1 SWAP2 SUB SWAP1 LOG1 PUSH2 0x82D PUSH2 0x1260 JUMP JUMPDEST JUMP JUMPDEST PUSH0 PUSH1 0x4 DUP4 PUSH1 0xFF AND GT ISZERO PUSH2 0x877 JUMPI PUSH1 0x40 MLOAD PUSH32 0x8C379A000000000000000000000000000000000000000000000000000000000 DUP2 MSTORE PUSH1 0x4 ADD PUSH2 0x86E SWAP1 PUSH2 0x2235 JUMP JUMPDEST PUSH1 0x40 MLOAD DUP1 SWAP2 SUB SWAP1 REVERT JUMPDEST PUSH0 TIMESTAMP PREVRANDAO CALLER DUP6 PUSH1 0x40 MLOAD PUSH1 0x20 ADD PUSH2 0x88F SWAP5 SWAP4 SWAP3 SWAP2 SWAP1 PUSH2 0x230A JUMP JUMPDEST PUSH1 0x40 MLOAD PUSH1 0x20 DUP2 DUP4 SUB SUB DUP2 MSTORE SWAP1 PUSH1 0x40 MSTORE DUP1 MLOAD SWAP1 PUSH1 0x20 ADD KECCAK256 SWAP1 POP PUSH0 DUP2 SWAP1 POP PUSH0 DUP2 DUP7 PUSH1 0xF8 SHL PUSH1 0x40 MLOAD PUSH1 0x20 ADD PUSH2 0x8C2 SWAP3 SWAP2 SWAP1 PUSH2 0x23E9 JUMP JUMPDEST PUSH1 0x40 MLOAD PUSH1 0x20 DUP2 DUP4 SUB SUB DUP2 MSTORE SWAP1 PUSH1 0x40 MSTORE PUSH2 0x8DA SWAP1 PUSH2 0x244D JUMP JUMPDEST SWAP1 POP DUP1 SWAP4 POP POP POP POP SWAP3 SWAP2 POP POP JUMP JUMPDEST PUSH0 DUP2 PUSH1 0x40 MLOAD PUSH1 0x20 ADD PUSH2 0x8FA SWAP2 SWAP1 PUSH2 0x24D3 JUMP JUMPDEST PUSH1 0x40 MLOAD PUSH1 0x20 DUP2 DUP4 SUB SUB DUP2 MSTORE SWAP1 PUSH1 0x40 MSTORE DUP1 MLOAD SWAP1 PUSH1 0x20 ADD KECCAK256 SWAP1 POP SWAP2 SWAP1 POP JUMP JUMPDEST PUSH1 0xB SLOAD DUP2 JUMP JUMPDEST PUSH1 0x8 PUSH1 0x20 MSTORE DUP1 PUSH0 MSTORE PUSH1 0x40 PUSH0 KECCAK256 PUSH0 SWAP2 POP SLOAD SWAP1 PUSH2 0x100 EXP SWAP1 DIV PUSH1 0xFF AND DUP2 JUMP JUMPDEST PUSH1 0x1 PUSH1 0x3 SLOAD LT ISZERO PUSH2 0x949 JUMPI PUSH0 DUP1 REVERT JUMPDEST PUSH1 0xB SLOAD PUSH2 0x954 PUSH2 0xFA8 JUMP JUMPDEST GT PUSH2 0x994 JUMPI PUSH1 0x40 MLOAD PUSH32 0x8C379A000000000000000000000000000000000000000000000000000000000 DUP2 MSTORE PUSH1 0x4 ADD PUSH2 0x98B SWAP1 PUSH2 0x255D JUMP JUMPDEST PUSH1 0x40 MLOAD DUP1 SWAP2 SUB SWAP1 REVERT JUMPDEST PUSH1 0x4 SLOAD SELFBALANCE LT ISZERO PUSH2 0x9D9 JUMPI PUSH1 0x40 MLOAD PUSH32 0x8C379A000000000000000000000000000000000000000000000000000000000 DUP2 MSTORE PUSH1 0x4 ADD PUSH2 0x9D0 SWAP1 PUSH2 0x25EB JUMP JUMPDEST PUSH1 0x40 MLOAD DUP1 SWAP2 SUB SWAP1 REVERT JUMPDEST PUSH0 PUSH1 0x7 PUSH0 DUP2 SLOAD DUP2 LT PUSH2 0x9EE JUMPI PUSH2 0x9ED PUSH2 0x2088 JUMP JUMPDEST JUMPDEST SWAP1 PUSH0 MSTORE PUSH1 0x20 PUSH0 KECCAK256 ADD PUSH0 SWAP1 SLOAD SWAP1 PUSH2 0x100 EXP SWAP1 DIV PUSH20 0xFFFFFFFFFFFFFFFFFFFFFFFFFFFFFFFFFFFFFFFF AND SWAP1 POP PUSH1 0x1 PUSH1 0x3 SLOAD SUB PUSH2 0xA75 JUMPI DUP1 PUSH20 0xFFFFFFFFFFFFFFFFFFFFFFFFFFFFFFFFFFFFFFFF AND PUSH2 0x8FC PUSH1 0x4 SLOAD SWAP1 DUP2 ISZERO MUL SWAP1 PUSH1 0x40 MLOAD PUSH0 PUSH1 0x40 MLOAD DUP1 DUP4 SUB DUP2 DUP6 DUP9 DUP9 CALL SWAP4 POP POP POP POP ISZERO DUP1 ISZERO PUSH2 0xA67 JUMPI RETURNDATASIZE PUSH0 DUP1 RETURNDATACOPY RETURNDATASIZE PUSH0 REVERT JUMPDEST POP PUSH2 0xA70 PUSH2 0x1269 JUMP JUMPDEST PUSH2 0xD8F JUMP JUMPDEST PUSH1 0x2 PUSH1 0x3 SLOAD SUB PUSH2 0xD8E JUMPI PUSH0 PUSH1 0x7 PUSH1 0x1 DUP2 SLOAD DUP2 LT PUSH2 0xA95 JUMPI PUSH2 0xA94 PUSH2 0x2088 JUMP JUMPDEST JUMPDEST SWAP1 PUSH0 MSTORE PUSH1 0x20 PUSH0 KECCAK256 ADD PUSH0 SWAP1 SLOAD SWAP1 PUSH2 0x100 EXP SWAP1 DIV PUSH20 0xFFFFFFFFFFFFFFFFFFFFFFFFFFFFFFFFFFFFFFFF AND SWAP1 POP PUSH0 PUSH1 0x9 SLOAD EQ DUP1 PUSH2 0xADE JUMPI POP PUSH1 0x2 PUSH1 0x9 SLOAD EQ DUP1 ISZERO PUSH2 0xADD JUMPI POP PUSH0 PUSH1 0xA SLOAD EQ JUMPDEST JUMPDEST ISZERO PUSH2 0xB94 JUMPI DUP2 PUSH20 0xFFFFFFFFFFFFFFFFFFFFFFFFFFFFFFFFFFFFFFFF AND PUSH2 0x8FC PUSH1 0x2 PUSH1 0x4 SLOAD PUSH2 0xB0C SWAP2 SWAP1 PUSH2 0x2636 JUMP JUMPDEST SWAP1 DUP2 ISZERO MUL SWAP1 PUSH1 0x40 MLOAD PUSH0 PUSH1 0x40 MLOAD DUP1 DUP4 SUB DUP2 DUP6 DUP9 DUP9 CALL SWAP4 POP POP POP POP ISZERO DUP1 ISZERO PUSH2 0xB34 JUMPI RETURNDATASIZE PUSH0 DUP1 RETURNDATACOPY RETURNDATASIZE PUSH0 REVERT JUMPDEST POP DUP1 PUSH20 0xFFFFFFFFFFFFFFFFFFFFFFFFFFFFFFFFFFFFFFFF AND PUSH2 0x8FC PUSH1 0x2 PUSH1 0x4 SLOAD PUSH2 0xB5E SWAP2 SWAP1 PUSH2 0x2636 JUMP JUMPDEST SWAP1 DUP2 ISZERO MUL SWAP1 PUSH1 0x40 MLOAD PUSH0 PUSH1 0x40 MLOAD DUP1 DUP4 SUB DUP2 DUP6 DUP9 DUP9 CALL SWAP4 POP POP POP POP ISZERO DUP1 ISZERO PUSH2 0xB86 JUMPI RETURNDATASIZE PUSH0 DUP1 RETURNDATACOPY RETURNDATASIZE PUSH0 REVERT JUMPDEST POP PUSH2 0xB8F PUSH2 0x1269 JUMP JUMPDEST PUSH2 0xD8C JUMP JUMPDEST PUSH1 0x1 PUSH1 0x9 SLOAD SUB PUSH2 0xC92 JUMPI PUSH1 0x1 ISZERO ISZERO PUSH1 0x8 PUSH0 DUP5 PUSH20 0xFFFFFFFFFFFFFFFFFFFFFFFFFFFFFFFFFFFFFFFF AND PUSH20 0xFFFFFFFFFFFFFFFFFFFFFFFFFFFFFFFFFFFFFFFF AND DUP2 MSTORE PUSH1 0x20 ADD SWAP1 DUP2 MSTORE PUSH1 0x20 ADD PUSH0 KECCAK256 PUSH0 SWAP1 SLOAD SWAP1 PUSH2 0x100 EXP SWAP1 DIV PUSH1 0xFF AND ISZERO ISZERO SUB PUSH2 0xC3E JUMPI DUP2 PUSH20 0xFFFFFFFFFFFFFFFFFFFFFFFFFFFFFFFFFFFFFFFF AND PUSH2 0x8FC PUSH1 0x4 SLOAD SWAP1 DUP2 ISZERO MUL SWAP1 PUSH1 0x40 MLOAD PUSH0 PUSH1 0x40 MLOAD DUP1 DUP4 SUB DUP2 DUP6 DUP9 DUP9 CALL SWAP4 POP POP POP POP ISZERO DUP1 ISZERO PUSH2 0xC38 JUMPI RETURNDATASIZE PUSH0 DUP1 RETURNDATACOPY RETURNDATASIZE PUSH0 REVERT JUMPDEST POP PUSH2 0xC85 JUMP JUMPDEST DUP1 PUSH20 0xFFFFFFFFFFFFFFFFFFFFFFFFFFFFFFFFFFFFFFFF AND PUSH2 0x8FC PUSH1 0x4 SLOAD SWAP1 DUP2 ISZERO MUL SWAP1 PUSH1 0x40 MLOAD PUSH0 PUSH1 0x40 MLOAD DUP1 DUP4 SUB DUP2 DUP6 DUP9 DUP9 CALL SWAP4 POP POP POP POP ISZERO DUP1 ISZERO PUSH2 0xC83 JUMPI RETURNDATASIZE PUSH0 DUP1 RETURNDATACOPY RETURNDATASIZE PUSH0 REVERT JUMPDEST POP JUMPDEST PUSH2 0xC8D PUSH2 0x1269 JUMP JUMPDEST PUSH2 0xD8B JUMP JUMPDEST PUSH1 0x2 PUSH1 0x9 SLOAD EQ DUP1 ISZERO PUSH2 0xCA6 JUMPI POP PUSH1 0x1 PUSH1 0xA SLOAD EQ JUMPDEST ISZERO PUSH2 0xD8A JUMPI PUSH1 0x5 DUP1 PUSH0 DUP5 PUSH20 0xFFFFFFFFFFFFFFFFFFFFFFFFFFFFFFFFFFFFFFFF AND PUSH20 0xFFFFFFFFFFFFFFFFFFFFFFFFFFFFFFFFFFFFFFFF AND DUP2 MSTORE PUSH1 0x20 ADD SWAP1 DUP2 MSTORE PUSH1 0x20 ADD PUSH0 KECCAK256 SLOAD EQ PUSH2 0xD3A JUMPI DUP2 PUSH20 0xFFFFFFFFFFFFFFFFFFFFFFFFFFFFFFFFFFFFFFFF AND PUSH2 0x8FC PUSH1 0x4 SLOAD SWAP1 DUP2 ISZERO MUL SWAP1 PUSH1 0x40 MLOAD PUSH0 PUSH1 0x40 MLOAD DUP1 DUP4 SUB DUP2 DUP6 DUP9 DUP9 CALL SWAP4 POP POP POP POP ISZERO DUP1 ISZERO PUSH2 0xD34 JUMPI RETURNDATASIZE PUSH0 DUP1 RETURNDATACOPY RETURNDATASIZE PUSH0 REVERT JUMPDEST POP PUSH2 0xD81 JUMP JUMPDEST DUP1 PUSH20 0xFFFFFFFFFFFFFFFFFFFFFFFFFFFFFFFFFFFFFFFF AND PUSH2 0x8FC PUSH1 0x4 SLOAD SWAP1 DUP2 ISZERO MUL SWAP1 PUSH1 0x40 MLOAD PUSH0 PUSH1 0x40 MLOAD DUP1 DUP4 SUB DUP2 DUP6 DUP9 DUP9 CALL SWAP4 POP POP POP POP ISZERO DUP1 ISZERO PUSH2 0xD7F JUMPI RETURNDATASIZE PUSH0 DUP1 RETURNDATACOPY RETURNDATASIZE PUSH0 REVERT JUMPDEST POP JUMPDEST PUSH2 0xD89 PUSH2 0x1269 JUMP JUMPDEST JUMPDEST JUMPDEST JUMPDEST POP JUMPDEST JUMPDEST POP JUMP JUMPDEST PUSH1 0x2 PUSH1 0x3 SLOAD EQ PUSH2 0xDA0 JUMPI PUSH0 DUP1 REVERT JUMPDEST PUSH1 0x2 PUSH1 0x9 SLOAD EQ PUSH2 0xDAE JUMPI PUSH0 DUP1 REVERT JUMPDEST PUSH0 DUP2 PUSH1 0x1F PUSH1 0x20 DUP2 LT PUSH2 0xDC3 JUMPI PUSH2 0xDC2 PUSH2 0x2088 JUMP JUMPDEST JUMPDEST BYTE PUSH1 0xF8 SHL PUSH1 0xF8 SHR PUSH1 0xFF AND SWAP1 POP PUSH0 DUP2 LT ISZERO DUP1 ISZERO PUSH2 0xDE0 JUMPI POP PUSH1 0x4 DUP2 GT ISZERO JUMPDEST PUSH2 0xE1F JUMPI PUSH1 0x40 MLOAD PUSH32 0x8C379A000000000000000000000000000000000000000000000000000000000 DUP2 MSTORE PUSH1 0x4 ADD PUSH2 0xE16 SWAP1 PUSH2 0x26D6 JUMP JUMPDEST PUSH1 0x40 MLOAD DUP1 SWAP2 SUB SWAP1 REVERT JUMPDEST PUSH1 0x8 PUSH0 CALLER PUSH20 0xFFFFFFFFFFFFFFFFFFFFFFFFFFFFFFFFFFFFFFFF AND PUSH20 0xFFFFFFFFFFFFFFFFFFFFFFFFFFFFFFFFFFFFFFFF AND DUP2 MSTORE PUSH1 0x20 ADD SWAP1 DUP2 MSTORE PUSH1 0x20 ADD PUSH0 KECCAK256 PUSH0 SWAP1 SLOAD SWAP1 PUSH2 0x100 EXP SWAP1 DIV PUSH1 0xFF AND PUSH2 0xEA8 JUMPI PUSH1 0x40 MLOAD PUSH32 0x8C379A000000000000000000000000000000000000000000000000000000000 DUP2 MSTORE PUSH1 0x4 ADD PUSH2 0xE9F SWAP1 PUSH2 0x273E JUMP JUMPDEST PUSH1 0x40 MLOAD DUP1 SWAP2 SUB SWAP1 REVERT JUMPDEST PUSH2 0xEB1 DUP3 PUSH2 0x1294 JUMP JUMPDEST DUP1 PUSH1 0x5 PUSH0 CALLER PUSH20 0xFFFFFFFFFFFFFFFFFFFFFFFFFFFFFFFFFFFFFFFF AND PUSH20 0xFFFFFFFFFFFFFFFFFFFFFFFFFFFFFFFFFFFFFFFF AND DUP2 MSTORE PUSH1 0x20 ADD SWAP1 DUP2 MSTORE PUSH1 0x20 ADD PUSH0 KECCAK256 DUP2 SWAP1 SSTORE POP PUSH1 0xA PUSH0 DUP2 SLOAD DUP1 SWAP3 SWAP2 SWAP1 PUSH2 0xF05 SWAP1 PUSH2 0x217D JUMP JUMPDEST SWAP2 SWAP1 POP SSTORE POP PUSH2 0xF12 PUSH2 0x1260 JUMP JUMPDEST PUSH1 0x2 PUSH1 0xA SLOAD SUB PUSH2 0xF2D JUMPI PUSH2 0xF24 PUSH2 0x1652 JUMP JUMPDEST PUSH2 0xF2C PUSH2 0x1269 JUMP JUMPDEST JUMPDEST POP POP JUMP JUMPDEST PUSH0 DUP1 SLOAD SWAP1 PUSH2 0x100 EXP SWAP1 DIV PUSH1 0xFF AND DUP2 JUMP JUMPDEST PUSH1 0x2 SLOAD DUP2 JUMP JUMPDEST PUSH1 0x1 PUSH1 0x20 MSTORE DUP1 PUSH0 MSTORE PUSH1 0x40 PUSH0 KECCAK256 PUSH0 SWAP2 POP SWAP1 POP DUP1 PUSH0 ADD SLOAD SWAP1 DUP1 PUSH1 0x1 ADD PUSH0 SWAP1 SLOAD SWAP1 PUSH2 0x100 EXP SWAP1 DIV PUSH8 0xFFFFFFFFFFFFFFFF AND SWAP1 DUP1 PUSH1 0x1 ADD PUSH1 0x8 SWAP1 SLOAD SWAP1 PUSH2 0x100 EXP SWAP1 DIV PUSH1 0xFF AND SWAP1 POP DUP4 JUMP JUMPDEST PUSH1 0x3 SLOAD DUP2 JUMP JUMPDEST PUSH1 0x5 PUSH1 0x20 MSTORE DUP1 PUSH0 MSTORE PUSH1 0x40 PUSH0 KECCAK256 PUSH0 SWAP2 POP SWAP1 POP SLOAD DUP2 JUMP JUMPDEST PUSH0 PUSH1 0x2 SLOAD TIMESTAMP PUSH2 0xFB7 SWAP2 SWAP1 PUSH2 0x275C JUMP JUMPDEST SWAP1 POP SWAP1 JUMP JUMPDEST PUSH1 0xA SLOAD DUP2 JUMP JUMPDEST PUSH1 0x2 PUSH1 0x3 SLOAD EQ PUSH2 0x1007 JUMPI PUSH1 0x40 MLOAD PUSH32 0x8C379A000000000000000000000000000000000000000000000000000000000 DUP2 MSTORE PUSH1 0x4 ADD PUSH2 0xFFE SWAP1 PUSH2 0x27D9 JUMP JUMPDEST PUSH1 0x40 MLOAD DUP1 SWAP2 SUB SWAP1 REVERT JUMPDEST PUSH1 0x2 PUSH1 0x9 SLOAD LT PUSH2 0x1015 JUMPI PUSH0 DUP1 REVERT JUMPDEST PUSH1 0x6 PUSH0 CALLER PUSH20 0xFFFFFFFFFFFFFFFFFFFFFFFFFFFFFFFFFFFFFFFF AND PUSH20 0xFFFFFFFFFFFFFFFFFFFFFFFFFFFFFFFFFFFFFFFF AND DUP2 MSTORE PUSH1 0x20 ADD SWAP1 DUP2 MSTORE PUSH1 0x20 ADD PUSH0 KECCAK256 PUSH0 SWAP1 SLOAD SWAP1 PUSH2 0x100 EXP SWAP1 DIV PUSH1 0xFF AND PUSH2 0x1067 JUMPI PUSH0 DUP1 REVERT JUMPDEST PUSH0 ISZERO ISZERO PUSH1 0x8 PUSH0 CALLER PUSH20 0xFFFFFFFFFFFFFFFFFFFFFFFFFFFFFFFFFFFFFFFF AND PUSH20 0xFFFFFFFFFFFFFFFFFFFFFFFFFFFFFFFFFFFFFFFF AND DUP2 MSTORE PUSH1 0x20 ADD SWAP1 DUP2 MSTORE PUSH1 0x20 ADD PUSH0 KECCAK256 PUSH0 SWAP1 SLOAD SWAP1 PUSH2 0x100 EXP SWAP1 DIV PUSH1 0xFF AND ISZERO ISZERO EQ PUSH2 0x10F6 JUMPI PUSH1 0x40 MLOAD PUSH32 0x8C379A000000000000000000000000000000000000000000000000000000000 DUP2 MSTORE PUSH1 0x4 ADD PUSH2 0x10ED SWAP1 PUSH2 0x2841 JUMP JUMPDEST PUSH1 0x40 MLOAD DUP1 SWAP2 SUB SWAP1 REVERT JUMPDEST PUSH0 PUSH1 0x6 PUSH0 CALLER PUSH20 0xFFFFFFFFFFFFFFFFFFFFFFFFFFFFFFFFFFFFFFFF AND PUSH20 0xFFFFFFFFFFFFFFFFFFFFFFFFFFFFFFFFFFFFFFFF AND DUP2 MSTORE PUSH1 0x20 ADD SWAP1 DUP2 MSTORE PUSH1 0x20 ADD PUSH0 KECCAK256 PUSH0 PUSH2 0x100 EXP DUP2 SLOAD DUP2 PUSH1 0xFF MUL NOT AND SWAP1 DUP4 ISZERO ISZERO MUL OR SWAP1 SSTORE POP PUSH1 0x1 PUSH1 0x8 PUSH0 CALLER PUSH20 0xFFFFFFFFFFFFFFFFFFFFFFFFFFFFFFFFFFFFFFFF AND PUSH20 0xFFFFFFFFFFFFFFFFFFFFFFFFFFFFFFFFFFFFFFFF AND DUP2 MSTORE PUSH1 0x20 ADD SWAP1 DUP2 MSTORE PUSH1 0x20 ADD PUSH0 KECCAK256 PUSH0 PUSH2 0x100 EXP DUP2 SLOAD DUP2 PUSH1 0xFF MUL NOT AND SWAP1 DUP4 ISZERO ISZERO MUL OR SWAP1 SSTORE POP PUSH2 0x11A8 DUP2 PUSH2 0x1955 JUMP JUMPDEST PUSH1 0x9 PUSH0 DUP2 SLOAD DUP1 SWAP3 SWAP2 SWAP1 PUSH2 0x11BA SWAP1 PUSH2 0x217D JUMP JUMPDEST SWAP2 SWAP1 POP SSTORE POP PUSH32 0x3928CC5ABCBB1C0B781BEBBC4F1E9B156F6D392796C791CC0937DB5E42677FF7 CALLER PUSH1 0x9 SLOAD PUSH1 0x40 MLOAD PUSH2 0x11F2 SWAP3 SWAP2 SWAP1 PUSH2 0x21C4 JUMP JUMPDEST PUSH1 0x40 MLOAD DUP1 SWAP2 SUB SWAP1 LOG1 PUSH2 0x1202 PUSH2 0x1260 JUMP JUMPDEST POP JUMP JUMPDEST PUSH0 PUSH1 0x3C PUSH1 0x2 SLOAD TIMESTAMP PUSH2 0x1216 SWAP2 SWAP1 PUSH2 0x275C JUMP JUMPDEST PUSH2 0x1220 SWAP2 SWAP1 PUSH2 0x2636 JUMP JUMPDEST SWAP1 POP SWAP1 JUMP JUMPDEST PUSH1 0x7 DUP2 DUP2 SLOAD DUP2 LT PUSH2 0x1234 JUMPI PUSH0 DUP1 REVERT JUMPDEST SWAP1 PUSH0 MSTORE PUSH1 0x20 PUSH0 KECCAK256 ADD PUSH0 SWAP2 POP SLOAD SWAP1 PUSH2 0x100 EXP SWAP1 DIV PUSH20 0xFFFFFFFFFFFFFFFFFFFFFFFFFFFFFFFFFFFFFFFF AND DUP2 JUMP JUMPDEST TIMESTAMP PUSH1 0x2 DUP2 SWAP1 SSTORE POP JUMP JUMPDEST PUSH1 0x7 PUSH0 PUSH2 0x1276 SWAP2 SWAP1 PUSH2 0x1B27 JUMP JUMPDEST PUSH0 PUSH1 0x3 DUP2 SWAP1 SSTORE POP PUSH0 PUSH1 0x9 DUP2 SWAP1 SSTORE POP PUSH0 PUSH1 0xA DUP2 SWAP1 SSTORE POP PUSH0 PUSH1 0x4 DUP2 SWAP1 SSTORE POP JUMP JUMPDEST PUSH0 ISZERO ISZERO PUSH1 0x1 PUSH0 CALLER PUSH20 0xFFFFFFFFFFFFFFFFFFFFFFFFFFFFFFFFFFFFFFFF AND PUSH20 0xFFFFFFFFFFFFFFFFFFFFFFFFFFFFFFFFFFFFFFFF AND DUP2 MSTORE PUSH1 0x20 ADD SWAP1 DUP2 MSTORE PUSH1 0x20 ADD PUSH0 KECCAK256 PUSH1 0x1 ADD PUSH1 0x8 SWAP1 SLOAD SWAP1 PUSH2 0x100 EXP SWAP1 DIV PUSH1 0xFF AND ISZERO ISZERO EQ PUSH2 0x1327 JUMPI PUSH1 0x40 MLOAD PUSH32 0x8C379A000000000000000000000000000000000000000000000000000000000 DUP2 MSTORE PUSH1 0x4 ADD PUSH2 0x131E SWAP1 PUSH2 0x28CF JUMP JUMPDEST PUSH1 0x40 MLOAD DUP1 SWAP2 SUB SWAP1 REVERT JUMPDEST PUSH1 0x1 DUP1 PUSH0 CALLER PUSH20 0xFFFFFFFFFFFFFFFFFFFFFFFFFFFFFFFFFFFFFFFF AND PUSH20 0xFFFFFFFFFFFFFFFFFFFFFFFFFFFFFFFFFFFFFFFF AND DUP2 MSTORE PUSH1 0x20 ADD SWAP1 DUP2 MSTORE PUSH1 0x20 ADD PUSH0 KECCAK256 PUSH1 0x1 ADD PUSH1 0x8 PUSH2 0x100 EXP DUP2 SLOAD DUP2 PUSH1 0xFF MUL NOT AND SWAP1 DUP4 ISZERO ISZERO MUL OR SWAP1 SSTORE POP PUSH1 0x1 PUSH0 CALLER PUSH20 0xFFFFFFFFFFFFFFFFFFFFFFFFFFFFFFFFFFFFFFFF AND PUSH20 0xFFFFFFFFFFFFFFFFFFFFFFFFFFFFFFFFFFFFFFFF AND DUP2 MSTORE PUSH1 0x20 ADD SWAP1 DUP2 MSTORE PUSH1 0x20 ADD PUSH0 KECCAK256 PUSH0 ADD SLOAD PUSH2 0x13C8 DUP3 PUSH2 0x8E8 JUMP JUMPDEST EQ PUSH2 0x1408 JUMPI PUSH1 0x40 MLOAD PUSH32 0x8C379A000000000000000000000000000000000000000000000000000000000 DUP2 MSTORE PUSH1 0x4 ADD PUSH2 0x13FF SWAP1 PUSH2 0x295D JUMP JUMPDEST PUSH1 0x40 MLOAD DUP1 SWAP2 SUB SWAP1 REVERT JUMPDEST PUSH1 0x1 PUSH0 CALLER PUSH20 0xFFFFFFFFFFFFFFFFFFFFFFFFFFFFFFFFFFFFFFFF AND PUSH20 0xFFFFFFFFFFFFFFFFFFFFFFFFFFFFFFFFFFFFFFFF AND DUP2 MSTORE PUSH1 0x20 ADD SWAP1 DUP2 MSTORE PUSH1 0x20 ADD PUSH0 KECCAK256 PUSH1 0x1 ADD PUSH0 SWAP1 SLOAD SWAP1 PUSH2 0x100 EXP SWAP1 DIV PUSH8 0xFFFFFFFFFFFFFFFF AND PUSH8 0xFFFFFFFFFFFFFFFF AND NUMBER PUSH8 0xFFFFFFFFFFFFFFFF AND GT PUSH2 0x14B1 JUMPI PUSH1 0x40 MLOAD PUSH32 0x8C379A000000000000000000000000000000000000000000000000000000000 DUP2 MSTORE PUSH1 0x4 ADD PUSH2 0x14A8 SWAP1 PUSH2 0x2A11 JUMP JUMPDEST PUSH1 0x40 MLOAD DUP1 SWAP2 SUB SWAP1 REVERT JUMPDEST PUSH1 0xFA PUSH1 0x1 PUSH0 CALLER PUSH20 0xFFFFFFFFFFFFFFFFFFFFFFFFFFFFFFFFFFFFFFFF AND PUSH20 0xFFFFFFFFFFFFFFFFFFFFFFFFFFFFFFFFFFFFFFFF AND DUP2 MSTORE PUSH1 0x20 ADD SWAP1 DUP2 MSTORE PUSH1 0x20 ADD PUSH0 KECCAK256 PUSH1 0x1 ADD PUSH0 SWAP1 SLOAD SWAP1 PUSH2 0x100 EXP SWAP1 DIV PUSH8 0xFFFFFFFFFFFFFFFF AND PUSH2 0x1511 SWAP2 SWAP1 PUSH2 0x2A2F JUMP JUMPDEST PUSH8 0xFFFFFFFFFFFFFFFF AND NUMBER PUSH8 0xFFFFFFFFFFFFFFFF AND GT ISZERO PUSH2 0x1567 JUMPI PUSH1 0x40 MLOAD PUSH32 0x8C379A000000000000000000000000000000000000000000000000000000000 DUP2 MSTORE PUSH1 0x4 ADD PUSH2 0x155E SWAP1 PUSH2 0x2ADA JUMP JUMPDEST PUSH1 0x40 MLOAD DUP1 SWAP2 SUB SWAP1 REVERT JUMPDEST PUSH0 PUSH1 0x1 PUSH0 CALLER PUSH20 0xFFFFFFFFFFFFFFFFFFFFFFFFFFFFFFFFFFFFFFFF AND PUSH20 0xFFFFFFFFFFFFFFFFFFFFFFFFFFFFFFFFFFFFFFFF AND DUP2 MSTORE PUSH1 0x20 ADD SWAP1 DUP2 MSTORE PUSH1 0x20 ADD PUSH0 KECCAK256 PUSH1 0x1 ADD PUSH0 SWAP1 SLOAD SWAP1 PUSH2 0x100 EXP SWAP1 DIV PUSH8 0xFFFFFFFFFFFFFFFF AND PUSH8 0xFFFFFFFFFFFFFFFF AND BLOCKHASH SWAP1 POP PUSH0 DUP1 PUSH0 SWAP1 SLOAD SWAP1 PUSH2 0x100 EXP SWAP1 DIV PUSH1 0xFF AND PUSH1 0xFF AND DUP3 DUP5 PUSH1 0x40 MLOAD PUSH1 0x20 ADD PUSH2 0x15EE SWAP3 SWAP2 SWAP1 PUSH2 0x2AF8 JUMP JUMPDEST PUSH1 0x40 MLOAD PUSH1 0x20 DUP2 DUP4 SUB SUB DUP2 MSTORE SWAP1 PUSH1 0x40 MSTORE DUP1 MLOAD SWAP1 PUSH1 0x20 ADD KECCAK256 PUSH0 SHR PUSH2 0x1610 SWAP2 SWAP1 PUSH2 0x2B23 JUMP JUMPDEST SWAP1 POP PUSH32 0xBC016DD1CADEAEFCB851AF7A0A93532E0023D536894B730801F7BCFE7065BCC2 CALLER DUP5 DUP4 PUSH1 0x40 MLOAD PUSH2 0x1645 SWAP4 SWAP3 SWAP2 SWAP1 PUSH2 0x2B53 JUMP JUMPDEST PUSH1 0x40 MLOAD DUP1 SWAP2 SUB SWAP1 LOG1 POP POP POP JUMP JUMPDEST PUSH0 PUSH1 0x5 PUSH0 PUSH1 0x7 PUSH0 DUP2 SLOAD DUP2 LT PUSH2 0x166A JUMPI PUSH2 0x1669 PUSH2 0x2088 JUMP JUMPDEST JUMPDEST SWAP1 PUSH0 MSTORE PUSH1 0x20 PUSH0 KECCAK256 ADD PUSH0 SWAP1 SLOAD SWAP1 PUSH2 0x100 EXP SWAP1 DIV PUSH20 0xFFFFFFFFFFFFFFFFFFFFFFFFFFFFFFFFFFFFFFFF AND PUSH20 0xFFFFFFFFFFFFFFFFFFFFFFFFFFFFFFFFFFFFFFFF AND PUSH20 0xFFFFFFFFFFFFFFFFFFFFFFFFFFFFFFFFFFFFFFFF AND DUP2 MSTORE PUSH1 0x20 ADD SWAP1 DUP2 MSTORE PUSH1 0x20 ADD PUSH0 KECCAK256 SLOAD SWAP1 POP PUSH0 PUSH1 0x5 PUSH0 PUSH1 0x7 PUSH1 0x1 DUP2 SLOAD DUP2 LT PUSH2 0x16E7 JUMPI PUSH2 0x16E6 PUSH2 0x2088 JUMP JUMPDEST JUMPDEST SWAP1 PUSH0 MSTORE PUSH1 0x20 PUSH0 KECCAK256 ADD PUSH0 SWAP1 SLOAD SWAP1 PUSH2 0x100 EXP SWAP1 DIV PUSH20 0xFFFFFFFFFFFFFFFFFFFFFFFFFFFFFFFFFFFFFFFF AND PUSH20 0xFFFFFFFFFFFFFFFFFFFFFFFFFFFFFFFFFFFFFFFF AND PUSH20 0xFFFFFFFFFFFFFFFFFFFFFFFFFFFFFFFFFFFFFFFF AND DUP2 MSTORE PUSH1 0x20 ADD SWAP1 DUP2 MSTORE PUSH1 0x20 ADD PUSH0 KECCAK256 SLOAD SWAP1 POP PUSH0 PUSH1 0x7 PUSH0 DUP2 SLOAD DUP2 LT PUSH2 0x1760 JUMPI PUSH2 0x175F PUSH2 0x2088 JUMP JUMPDEST JUMPDEST SWAP1 PUSH0 MSTORE PUSH1 0x20 PUSH0 KECCAK256 ADD PUSH0 SWAP1 SLOAD SWAP1 PUSH2 0x100 EXP SWAP1 DIV PUSH20 0xFFFFFFFFFFFFFFFFFFFFFFFFFFFFFFFFFFFFFFFF AND SWAP1 POP PUSH0 PUSH1 0x7 PUSH1 0x1 DUP2 SLOAD DUP2 LT PUSH2 0x17A0 JUMPI PUSH2 0x179F PUSH2 0x2088 JUMP JUMPDEST JUMPDEST SWAP1 PUSH0 MSTORE PUSH1 0x20 PUSH0 KECCAK256 ADD PUSH0 SWAP1 SLOAD SWAP1 PUSH2 0x100 EXP SWAP1 DIV PUSH20 0xFFFFFFFFFFFFFFFFFFFFFFFFFFFFFFFFFFFFFFFF AND SWAP1 POP DUP3 DUP5 SUB PUSH2 0x187A JUMPI DUP2 PUSH20 0xFFFFFFFFFFFFFFFFFFFFFFFFFFFFFFFFFFFFFFFF AND PUSH2 0x8FC PUSH1 0x2 PUSH1 0x4 SLOAD PUSH2 0x17FA SWAP2 SWAP1 PUSH2 0x2636 JUMP JUMPDEST SWAP1 DUP2 ISZERO MUL SWAP1 PUSH1 0x40 MLOAD PUSH0 PUSH1 0x40 MLOAD DUP1 DUP4 SUB DUP2 DUP6 DUP9 DUP9 CALL SWAP4 POP POP POP POP ISZERO DUP1 ISZERO PUSH2 0x1822 JUMPI RETURNDATASIZE PUSH0 DUP1 RETURNDATACOPY RETURNDATASIZE PUSH0 REVERT JUMPDEST POP DUP1 PUSH20 0xFFFFFFFFFFFFFFFFFFFFFFFFFFFFFFFFFFFFFFFF AND PUSH2 0x8FC PUSH1 0x2 PUSH1 0x4 SLOAD PUSH2 0x184C SWAP2 SWAP1 PUSH2 0x2636 JUMP JUMPDEST SWAP1 DUP2 ISZERO MUL SWAP1 PUSH1 0x40 MLOAD PUSH0 PUSH1 0x40 MLOAD DUP1 DUP4 SUB DUP2 DUP6 DUP9 DUP9 CALL SWAP4 POP POP POP POP ISZERO DUP1 ISZERO PUSH2 0x1874 JUMPI RETURNDATASIZE PUSH0 DUP1 RETURNDATACOPY RETURNDATASIZE PUSH0 REVERT JUMPDEST POP PUSH2 0x194F JUMP JUMPDEST DUP3 PUSH1 0x5 PUSH1 0x1 DUP7 PUSH2 0x188A SWAP2 SWAP1 PUSH2 0x214A JUMP JUMPDEST PUSH2 0x1894 SWAP2 SWAP1 PUSH2 0x2B23 JUMP JUMPDEST EQ DUP1 PUSH2 0x18B7 JUMPI POP DUP3 PUSH1 0x5 PUSH1 0x3 DUP7 PUSH2 0x18AB SWAP2 SWAP1 PUSH2 0x214A JUMP JUMPDEST PUSH2 0x18B5 SWAP2 SWAP1 PUSH2 0x2B23 JUMP JUMPDEST EQ JUMPDEST ISZERO PUSH2 0x1907 JUMPI DUP1 PUSH20 0xFFFFFFFFFFFFFFFFFFFFFFFFFFFFFFFFFFFFFFFF AND PUSH2 0x8FC PUSH1 0x4 SLOAD SWAP1 DUP2 ISZERO MUL SWAP1 PUSH1 0x40 MLOAD PUSH0 PUSH1 0x40 MLOAD DUP1 DUP4 SUB DUP2 DUP6 DUP9 DUP9 CALL SWAP4 POP POP POP POP ISZERO DUP1 ISZERO PUSH2 0x1901 JUMPI RETURNDATASIZE PUSH0 DUP1 RETURNDATACOPY RETURNDATASIZE PUSH0 REVERT JUMPDEST POP PUSH2 0x194E JUMP JUMPDEST DUP2 PUSH20 0xFFFFFFFFFFFFFFFFFFFFFFFFFFFFFFFFFFFFFFFF AND PUSH2 0x8FC PUSH1 0x4 SLOAD SWAP1 DUP2 ISZERO MUL SWAP1 PUSH1 0x40 MLOAD PUSH0 PUSH1 0x40 MLOAD DUP1 DUP4 SUB DUP2 DUP6 DUP9 DUP9 CALL SWAP4 POP POP POP POP ISZERO DUP1 ISZERO PUSH2 0x194C JUMPI RETURNDATASIZE PUSH0 DUP1 RETURNDATACOPY RETURNDATASIZE PUSH0 REVERT JUMPDEST POP JUMPDEST JUMPDEST POP POP POP POP JUMP JUMPDEST DUP1 PUSH1 0x1 PUSH0 CALLER PUSH20 0xFFFFFFFFFFFFFFFFFFFFFFFFFFFFFFFFFFFFFFFF AND PUSH20 0xFFFFFFFFFFFFFFFFFFFFFFFFFFFFFFFFFFFFFFFF AND DUP2 MSTORE PUSH1 0x20 ADD SWAP1 DUP2 MSTORE PUSH1 0x20 ADD PUSH0 KECCAK256 PUSH0 ADD DUP2 SWAP1 SSTORE POP NUMBER PUSH1 0x1 PUSH0 CALLER PUSH20 0xFFFFFFFFFFFFFFFFFFFFFFFFFFFFFFFFFFFFFFFF AND PUSH20 0xFFFFFFFFFFFFFFFFFFFFFFFFFFFFFFFFFFFFFFFF AND DUP2 MSTORE PUSH1 0x20 ADD SWAP1 DUP2 MSTORE PUSH1 0x20 ADD PUSH0 KECCAK256 PUSH1 0x1 ADD PUSH0 PUSH2 0x100 EXP DUP2 SLOAD DUP2 PUSH8 0xFFFFFFFFFFFFFFFF MUL NOT AND SWAP1 DUP4 PUSH8 0xFFFFFFFFFFFFFFFF AND MUL OR SWAP1 SSTORE POP PUSH0 PUSH1 0x1 PUSH0 CALLER PUSH20 0xFFFFFFFFFFFFFFFFFFFFFFFFFFFFFFFFFFFFFFFF AND PUSH20 0xFFFFFFFFFFFFFFFFFFFFFFFFFFFFFFFFFFFFFFFF AND DUP2 MSTORE PUSH1 0x20 ADD SWAP1 DUP2 MSTORE PUSH1 0x20 ADD PUSH0 KECCAK256 PUSH1 0x1 ADD PUSH1 0x8 PUSH2 0x100 EXP DUP2 SLOAD DUP2 PUSH1 0xFF MUL NOT AND SWAP1 DUP4 ISZERO ISZERO MUL OR SWAP1 SSTORE POP PUSH32 0x3C1A1F8F38335B17F751C6DA4BA7D1865F26B3997535176F5080DE9FAD891603 CALLER PUSH1 0x1 PUSH0 CALLER PUSH20 0xFFFFFFFFFFFFFFFFFFFFFFFFFFFFFFFFFFFFFFFF AND PUSH20 0xFFFFFFFFFFFFFFFFFFFFFFFFFFFFFFFFFFFFFFFF AND DUP2 MSTORE PUSH1 0x20 ADD SWAP1 DUP2 MSTORE PUSH1 0x20 ADD PUSH0 KECCAK256 PUSH0 ADD SLOAD PUSH1 0x1 PUSH0 CALLER PUSH20 0xFFFFFFFFFFFFFFFFFFFFFFFFFFFFFFFFFFFFFFFF AND PUSH20 0xFFFFFFFFFFFFFFFFFFFFFFFFFFFFFFFFFFFFFFFF AND DUP2 MSTORE PUSH1 0x20 ADD SWAP1 DUP2 MSTORE PUSH1 0x20 ADD PUSH0 KECCAK256 PUSH1 0x1 ADD PUSH0 SWAP1 SLOAD SWAP1 PUSH2 0x100 EXP SWAP1 DIV PUSH8 0xFFFFFFFFFFFFFFFF AND PUSH1 0x40 MLOAD PUSH2 0x1B1C SWAP4 SWAP3 SWAP2 SWAP1 PUSH2 0x2B88 JUMP JUMPDEST PUSH1 0x40 MLOAD DUP1 SWAP2 SUB SWAP1 LOG1 POP JUMP JUMPDEST POP DUP1 SLOAD PUSH0 DUP3 SSTORE SWAP1 PUSH0 MSTORE PUSH1 0x20 PUSH0 KECCAK256 SWAP1 DUP2 ADD SWAP1 PUSH2 0x1B42 SWAP2 SWAP1 PUSH2 0x1B45 JUMP JUMPDEST POP JUMP JUMPDEST JUMPDEST DUP1 DUP3 GT ISZERO PUSH2 0x1B5C JUMPI PUSH0 DUP2 PUSH0 SWAP1 SSTORE POP PUSH1 0x1 ADD PUSH2 0x1B46 JUMP JUMPDEST POP SWAP1 JUMP JUMPDEST PUSH0 DUP2 SWAP1 POP SWAP2 SWAP1 POP JUMP JUMPDEST PUSH2 0x1B72 DUP2 PUSH2 0x1B60 JUMP JUMPDEST DUP3 MSTORE POP POP JUMP JUMPDEST PUSH0 PUSH1 0x20 DUP3 ADD SWAP1 POP PUSH2 0x1B8B PUSH0 DUP4 ADD DUP5 PUSH2 0x1B69 JUMP JUMPDEST SWAP3 SWAP2 POP POP JUMP JUMPDEST PUSH0 PUSH1 0x40 MLOAD SWAP1 POP SWAP1 JUMP JUMPDEST PUSH0 DUP1 REVERT JUMPDEST PUSH0 DUP1 REVERT JUMPDEST PUSH0 PUSH20 0xFFFFFFFFFFFFFFFFFFFFFFFFFFFFFFFFFFFFFFFF DUP3 AND SWAP1 POP SWAP2 SWAP1 POP JUMP JUMPDEST PUSH0 PUSH2 0x1BCB DUP3 PUSH2 0x1BA2 JUMP JUMPDEST SWAP1 POP SWAP2 SWAP1 POP JUMP JUMPDEST PUSH2 0x1BDB DUP2 PUSH2 0x1BC1 JUMP JUMPDEST DUP2 EQ PUSH2 0x1BE5 JUMPI PUSH0 DUP1 REVERT JUMPDEST POP JUMP JUMPDEST PUSH0 DUP2 CALLDATALOAD SWAP1 POP PUSH2 0x1BF6 DUP2 PUSH2 0x1BD2 JUMP JUMPDEST SWAP3 SWAP2 POP POP JUMP JUMPDEST PUSH0 PUSH1 0x20 DUP3 DUP5 SUB SLT ISZERO PUSH2 0x1C11 JUMPI PUSH2 0x1C10 PUSH2 0x1B9A JUMP JUMPDEST JUMPDEST PUSH0 PUSH2 0x1C1E DUP5 DUP3 DUP6 ADD PUSH2 0x1BE8 JUMP JUMPDEST SWAP2 POP POP SWAP3 SWAP2 POP POP JUMP JUMPDEST PUSH0 DUP2 ISZERO ISZERO SWAP1 POP SWAP2 SWAP1 POP JUMP JUMPDEST PUSH2 0x1C3B DUP2 PUSH2 0x1C27 JUMP JUMPDEST DUP3 MSTORE POP POP JUMP JUMPDEST PUSH0 PUSH1 0x20 DUP3 ADD SWAP1 POP PUSH2 0x1C54 PUSH0 DUP4 ADD DUP5 PUSH2 0x1C32 JUMP JUMPDEST SWAP3 SWAP2 POP POP JUMP JUMPDEST PUSH0 PUSH1 0xFF DUP3 AND SWAP1 POP SWAP2 SWAP1 POP JUMP JUMPDEST PUSH2 0x1C6F DUP2 PUSH2 0x1C5A JUMP JUMPDEST DUP2 EQ PUSH2 0x1C79 JUMPI PUSH0 DUP1 REVERT JUMPDEST POP JUMP JUMPDEST PUSH0 DUP2 CALLDATALOAD SWAP1 POP PUSH2 0x1C8A DUP2 PUSH2 0x1C66 JUMP JUMPDEST SWAP3 SWAP2 POP POP JUMP JUMPDEST PUSH0 DUP1 REVERT JUMPDEST PUSH0 DUP1 REVERT JUMPDEST PUSH0 PUSH1 0x1F NOT PUSH1 0x1F DUP4 ADD AND SWAP1 POP SWAP2 SWAP1 POP JUMP JUMPDEST PUSH32 0x4E487B7100000000000000000000000000000000000000000000000000000000 PUSH0 MSTORE PUSH1 0x41 PUSH1 0x4 MSTORE PUSH1 0x24 PUSH0 REVERT JUMPDEST PUSH2 0x1CDE DUP3 PUSH2 0x1C98 JUMP JUMPDEST DUP2 ADD DUP2 DUP2 LT PUSH8 0xFFFFFFFFFFFFFFFF DUP3 GT OR ISZERO PUSH2 0x1CFD JUMPI PUSH2 0x1CFC PUSH2 0x1CA8 JUMP JUMPDEST JUMPDEST DUP1 PUSH1 0x40 MSTORE POP POP POP JUMP JUMPDEST PUSH0 PUSH2 0x1D0F PUSH2 0x1B91 JUMP JUMPDEST SWAP1 POP PUSH2 0x1D1B DUP3 DUP3 PUSH2 0x1CD5 JUMP JUMPDEST SWAP2 SWAP1 POP JUMP JUMPDEST PUSH0 PUSH8 0xFFFFFFFFFFFFFFFF DUP3 GT ISZERO PUSH2 0x1D3A JUMPI PUSH2 0x1D39 PUSH2 0x1CA8 JUMP JUMPDEST JUMPDEST PUSH2 0x1D43 DUP3 PUSH2 0x1C98 JUMP JUMPDEST SWAP1 POP PUSH1 0x20 DUP2 ADD SWAP1 POP SWAP2 SWAP1 POP JUMP JUMPDEST DUP3 DUP2 DUP4 CALLDATACOPY PUSH0 DUP4 DUP4 ADD MSTORE POP POP POP JUMP JUMPDEST PUSH0 PUSH2 0x1D70 PUSH2 0x1D6B DUP5 PUSH2 0x1D20 JUMP JUMPDEST PUSH2 0x1D06 JUMP JUMPDEST SWAP1 POP DUP3 DUP2 MSTORE PUSH1 0x20 DUP2 ADD DUP5 DUP5 DUP5 ADD GT ISZERO PUSH2 0x1D8C JUMPI PUSH2 0x1D8B PUSH2 0x1C94 JUMP JUMPDEST JUMPDEST PUSH2 0x1D97 DUP5 DUP3 DUP6 PUSH2 0x1D50 JUMP JUMPDEST POP SWAP4 SWAP3 POP POP POP JUMP JUMPDEST PUSH0 DUP3 PUSH1 0x1F DUP4 ADD SLT PUSH2 0x1DB3 JUMPI PUSH2 0x1DB2 PUSH2 0x1C90 JUMP JUMPDEST JUMPDEST DUP2 CALLDATALOAD PUSH2 0x1DC3 DUP5 DUP3 PUSH1 0x20 DUP7 ADD PUSH2 0x1D5E JUMP JUMPDEST SWAP2 POP POP SWAP3 SWAP2 POP POP JUMP JUMPDEST PUSH0 DUP1 PUSH1 0x40 DUP4 DUP6 SUB SLT ISZERO PUSH2 0x1DE2 JUMPI PUSH2 0x1DE1 PUSH2 0x1B9A JUMP JUMPDEST JUMPDEST PUSH0 PUSH2 0x1DEF DUP6 DUP3 DUP7 ADD PUSH2 0x1C7C JUMP JUMPDEST SWAP3 POP POP PUSH1 0x20 DUP4 ADD CALLDATALOAD PUSH8 0xFFFFFFFFFFFFFFFF DUP2 GT ISZERO PUSH2 0x1E10 JUMPI PUSH2 0x1E0F PUSH2 0x1B9E JUMP JUMPDEST JUMPDEST PUSH2 0x1E1C DUP6 DUP3 DUP7 ADD PUSH2 0x1D9F JUMP JUMPDEST SWAP2 POP POP SWAP3 POP SWAP3 SWAP1 POP JUMP JUMPDEST PUSH0 DUP2 SWAP1 POP SWAP2 SWAP1 POP JUMP JUMPDEST PUSH2 0x1E38 DUP2 PUSH2 0x1E26 JUMP JUMPDEST DUP3 MSTORE POP POP JUMP JUMPDEST PUSH0 PUSH1 0x20 DUP3 ADD SWAP1 POP PUSH2 0x1E51 PUSH0 DUP4 ADD DUP5 PUSH2 0x1E2F JUMP JUMPDEST SWAP3 SWAP2 POP POP JUMP JUMPDEST PUSH2 0x1E60 DUP2 PUSH2 0x1E26 JUMP JUMPDEST DUP2 EQ PUSH2 0x1E6A JUMPI PUSH0 DUP1 REVERT JUMPDEST POP JUMP JUMPDEST PUSH0 DUP2 CALLDATALOAD SWAP1 POP PUSH2 0x1E7B DUP2 PUSH2 0x1E57 JUMP JUMPDEST SWAP3 SWAP2 POP POP JUMP JUMPDEST PUSH0 PUSH1 0x20 DUP3 DUP5 SUB SLT ISZERO PUSH2 0x1E96 JUMPI PUSH2 0x1E95 PUSH2 0x1B9A JUMP JUMPDEST JUMPDEST PUSH0 PUSH2 0x1EA3 DUP5 DUP3 DUP6 ADD PUSH2 0x1E6D JUMP JUMPDEST SWAP2 POP POP SWAP3 SWAP2 POP POP JUMP JUMPDEST PUSH2 0x1EB5 DUP2 PUSH2 0x1C5A JUMP JUMPDEST DUP3 MSTORE POP POP JUMP JUMPDEST PUSH0 PUSH1 0x20 DUP3 ADD SWAP1 POP PUSH2 0x1ECE PUSH0 DUP4 ADD DUP5 PUSH2 0x1EAC JUMP JUMPDEST SWAP3 SWAP2 POP POP JUMP JUMPDEST PUSH0 PUSH8 0xFFFFFFFFFFFFFFFF DUP3 AND SWAP1 POP SWAP2 SWAP1 POP JUMP JUMPDEST PUSH2 0x1EF0 DUP2 PUSH2 0x1ED4 JUMP JUMPDEST DUP3 MSTORE POP POP JUMP JUMPDEST PUSH0 PUSH1 0x60 DUP3 ADD SWAP1 POP PUSH2 0x1F09 PUSH0 DUP4 ADD DUP7 PUSH2 0x1E2F JUMP JUMPDEST PUSH2 0x1F16 PUSH1 0x20 DUP4 ADD DUP6 PUSH2 0x1EE7 JUMP JUMPDEST PUSH2 0x1F23 PUSH1 0x40 DUP4 ADD DUP5 PUSH2 0x1C32 JUMP JUMPDEST SWAP5 SWAP4 POP POP POP POP JUMP JUMPDEST PUSH2 0x1F34 DUP2 PUSH2 0x1B60 JUMP JUMPDEST DUP2 EQ PUSH2 0x1F3E JUMPI PUSH0 DUP1 REVERT JUMPDEST POP JUMP JUMPDEST PUSH0 DUP2 CALLDATALOAD SWAP1 POP PUSH2 0x1F4F DUP2 PUSH2 0x1F2B JUMP JUMPDEST SWAP3 SWAP2 POP POP JUMP JUMPDEST PUSH0 PUSH1 0x20 DUP3 DUP5 SUB SLT ISZERO PUSH2 0x1F6A JUMPI PUSH2 0x1F69 PUSH2 0x1B9A JUMP JUMPDEST JUMPDEST PUSH0 PUSH2 0x1F77 DUP5 DUP3 DUP6 ADD PUSH2 0x1F41 JUMP JUMPDEST SWAP2 POP POP SWAP3 SWAP2 POP POP JUMP JUMPDEST PUSH2 0x1F89 DUP2 PUSH2 0x1BC1 JUMP JUMPDEST DUP3 MSTORE POP POP JUMP JUMPDEST PUSH0 PUSH1 0x20 DUP3 ADD SWAP1 POP PUSH2 0x1FA2 PUSH0 DUP4 ADD DUP5 PUSH2 0x1F80 JUMP JUMPDEST SWAP3 SWAP2 POP POP JUMP JUMPDEST PUSH0 DUP3 DUP3 MSTORE PUSH1 0x20 DUP3 ADD SWAP1 POP SWAP3 SWAP2 POP POP JUMP JUMPDEST PUSH32 0x47616D6520616C726561647920686173203220706C61796572732E0000000000 PUSH0 DUP3 ADD MSTORE POP JUMP JUMPDEST PUSH0 PUSH2 0x1FEC PUSH1 0x1B DUP4 PUSH2 0x1FA8 JUMP JUMPDEST SWAP2 POP PUSH2 0x1FF7 DUP3 PUSH2 0x1FB8 JUMP JUMPDEST PUSH1 0x20 DUP3 ADD SWAP1 POP SWAP2 SWAP1 POP JUMP JUMPDEST PUSH0 PUSH1 0x20 DUP3 ADD SWAP1 POP DUP2 DUP2 SUB PUSH0 DUP4 ADD MSTORE PUSH2 0x2019 DUP2 PUSH2 0x1FE0 JUMP JUMPDEST SWAP1 POP SWAP2 SWAP1 POP JUMP JUMPDEST PUSH32 0x596F7520617265206E6F7420616C6C6F77656420746F20706C61792E00000000 PUSH0 DUP3 ADD MSTORE POP JUMP JUMPDEST PUSH0 PUSH2 0x2054 PUSH1 0x1C DUP4 PUSH2 0x1FA8 JUMP JUMPDEST SWAP2 POP PUSH2 0x205F DUP3 PUSH2 0x2020 JUMP JUMPDEST PUSH1 0x20 DUP3 ADD SWAP1 POP SWAP2 SWAP1 POP JUMP JUMPDEST PUSH0 PUSH1 0x20 DUP3 ADD SWAP1 POP DUP2 DUP2 SUB PUSH0 DUP4 ADD MSTORE PUSH2 0x2081 DUP2 PUSH2 0x2048 JUMP JUMPDEST SWAP1 POP SWAP2 SWAP1 POP JUMP JUMPDEST PUSH32 0x4E487B7100000000000000000000000000000000000000000000000000000000 PUSH0 MSTORE PUSH1 0x32 PUSH1 0x4 MSTORE PUSH1 0x24 PUSH0 REVERT JUMPDEST PUSH32 0x506179203120657468657220746F20706C61792067616D652E00000000000000 PUSH0 DUP3 ADD MSTORE POP JUMP JUMPDEST PUSH0 PUSH2 0x20E9 PUSH1 0x19 DUP4 PUSH2 0x1FA8 JUMP JUMPDEST SWAP2 POP PUSH2 0x20F4 DUP3 PUSH2 0x20B5 JUMP JUMPDEST PUSH1 0x20 DUP3 ADD SWAP1 POP SWAP2 SWAP1 POP JUMP JUMPDEST PUSH0 PUSH1 0x20 DUP3 ADD SWAP1 POP DUP2 DUP2 SUB PUSH0 DUP4 ADD MSTORE PUSH2 0x2116 DUP2 PUSH2 0x20DD JUMP JUMPDEST SWAP1 POP SWAP2 SWAP1 POP JUMP JUMPDEST PUSH32 0x4E487B7100000000000000000000000000000000000000000000000000000000 PUSH0 MSTORE PUSH1 0x11 PUSH1 0x4 MSTORE PUSH1 0x24 PUSH0 REVERT JUMPDEST PUSH0 PUSH2 0x2154 DUP3 PUSH2 0x1B60 JUMP JUMPDEST SWAP2 POP PUSH2 0x215F DUP4 PUSH2 0x1B60 JUMP JUMPDEST SWAP3 POP DUP3 DUP3 ADD SWAP1 POP DUP1 DUP3 GT ISZERO PUSH2 0x2177 JUMPI PUSH2 0x2176 PUSH2 0x211D JUMP JUMPDEST JUMPDEST SWAP3 SWAP2 POP POP JUMP JUMPDEST PUSH0 PUSH2 0x2187 DUP3 PUSH2 0x1B60 JUMP JUMPDEST SWAP2 POP PUSH32 0xFFFFFFFFFFFFFFFFFFFFFFFFFFFFFFFFFFFFFFFFFFFFFFFFFFFFFFFFFFFFFFFF DUP3 SUB PUSH2 0x21B9 JUMPI PUSH2 0x21B8 PUSH2 0x211D JUMP JUMPDEST JUMPDEST PUSH1 0x1 DUP3 ADD SWAP1 POP SWAP2 SWAP1 POP JUMP JUMPDEST PUSH0 PUSH1 0x40 DUP3 ADD SWAP1 POP PUSH2 0x21D7 PUSH0 DUP4 ADD DUP6 PUSH2 0x1F80 JUMP JUMPDEST PUSH2 0x21E4 PUSH1 0x20 DUP4 ADD DUP5 PUSH2 0x1B69 JUMP JUMPDEST SWAP4 SWAP3 POP POP POP JUMP JUMPDEST PUSH32 0x496E76616C69642063686F696365000000000000000000000000000000000000 PUSH0 DUP3 ADD MSTORE POP JUMP JUMPDEST PUSH0 PUSH2 0x221F PUSH1 0xE DUP4 PUSH2 0x1FA8 JUMP JUMPDEST SWAP2 POP PUSH2 0x222A DUP3 PUSH2 0x21EB JUMP JUMPDEST PUSH1 0x20 DUP3 ADD SWAP1 POP SWAP2 SWAP1 POP JUMP JUMPDEST PUSH0 PUSH1 0x20 DUP3 ADD SWAP1 POP DUP2 DUP2 SUB PUSH0 DUP4 ADD MSTORE PUSH2 0x224C DUP2 PUSH2 0x2213 JUMP JUMPDEST SWAP1 POP SWAP2 SWAP1 POP JUMP JUMPDEST PUSH0 DUP2 SWAP1 POP SWAP2 SWAP1 POP JUMP JUMPDEST PUSH2 0x226D PUSH2 0x2268 DUP3 PUSH2 0x1B60 JUMP JUMPDEST PUSH2 0x2253 JUMP JUMPDEST DUP3 MSTORE POP POP JUMP JUMPDEST PUSH0 DUP2 PUSH1 0x60 SHL SWAP1 POP SWAP2 SWAP1 POP JUMP JUMPDEST PUSH0 PUSH2 0x2289 DUP3 PUSH2 0x2273 JUMP JUMPDEST SWAP1 POP SWAP2 SWAP1 POP JUMP JUMPDEST PUSH0 PUSH2 0x229A DUP3 PUSH2 0x227F JUMP JUMPDEST SWAP1 POP SWAP2 SWAP1 POP JUMP JUMPDEST PUSH2 0x22B2 PUSH2 0x22AD DUP3 PUSH2 0x1BC1 JUMP JUMPDEST PUSH2 0x2290 JUMP JUMPDEST DUP3 MSTORE POP POP JUMP JUMPDEST PUSH0 DUP2 MLOAD SWAP1 POP SWAP2 SWAP1 POP JUMP JUMPDEST PUSH0 DUP2 SWAP1 POP SWAP3 SWAP2 POP POP JUMP JUMPDEST DUP3 DUP2 DUP4 MCOPY PUSH0 DUP4 DUP4 ADD MSTORE POP POP POP JUMP JUMPDEST PUSH0 PUSH2 0x22E4 DUP3 PUSH2 0x22B8 JUMP JUMPDEST PUSH2 0x22EE DUP2 DUP6 PUSH2 0x22C2 JUMP JUMPDEST SWAP4 POP PUSH2 0x22FE DUP2 DUP6 PUSH1 0x20 DUP7 ADD PUSH2 0x22CC JUMP JUMPDEST DUP1 DUP5 ADD SWAP2 POP POP SWAP3 SWAP2 POP POP JUMP JUMPDEST PUSH0 PUSH2 0x2315 DUP3 DUP8 PUSH2 0x225C JUMP JUMPDEST PUSH1 0x20 DUP3 ADD SWAP2 POP PUSH2 0x2325 DUP3 DUP7 PUSH2 0x225C JUMP JUMPDEST PUSH1 0x20 DUP3 ADD SWAP2 POP PUSH2 0x2335 DUP3 DUP6 PUSH2 0x22A1 JUMP JUMPDEST PUSH1 0x14 DUP3 ADD SWAP2 POP PUSH2 0x2345 DUP3 DUP5 PUSH2 0x22DA JUMP JUMPDEST SWAP2 POP DUP2 SWAP1 POP SWAP6 SWAP5 POP POP POP POP POP JUMP JUMPDEST PUSH0 PUSH32 0xFFFFFFFFFFFFFFFFFFFFFFFFFFFFFFFFFFFFFFFFFFFFFFFFFFFFFFFFFFFFFF00 DUP3 AND SWAP1 POP SWAP2 SWAP1 POP JUMP JUMPDEST PUSH0 DUP2 SWAP1 POP SWAP2 SWAP1 POP JUMP JUMPDEST PUSH2 0x2398 PUSH2 0x2393 DUP3 PUSH2 0x2353 JUMP JUMPDEST PUSH2 0x237E JUMP JUMPDEST DUP3 MSTORE POP POP JUMP JUMPDEST PUSH0 PUSH32 0xFF00000000000000000000000000000000000000000000000000000000000000 DUP3 AND SWAP1 POP SWAP2 SWAP1 POP JUMP JUMPDEST PUSH0 DUP2 SWAP1 POP SWAP2 SWAP1 POP JUMP JUMPDEST PUSH2 0x23E3 PUSH2 0x23DE DUP3 PUSH2 0x239E JUMP JUMPDEST PUSH2 0x23C9 JUMP JUMPDEST DUP3 MSTORE POP POP JUMP JUMPDEST PUSH0 PUSH2 0x23F4 DUP3 DUP6 PUSH2 0x2387 JUMP JUMPDEST PUSH1 0x1F DUP3 ADD SWAP2 POP PUSH2 0x2404 DUP3 DUP5 PUSH2 0x23D2 JUMP JUMPDEST PUSH1 0x1 DUP3 ADD SWAP2 POP DUP2 SWAP1 POP SWAP4 SWAP3 POP POP POP JUMP JUMPDEST PUSH0 DUP2 MLOAD SWAP1 POP SWAP2 SWAP1 POP JUMP JUMPDEST PUSH0 DUP2 SWAP1 POP PUSH1 0x20 DUP3 ADD SWAP1 POP SWAP2 SWAP1 POP JUMP JUMPDEST PUSH0 PUSH2 0x2438 DUP3 MLOAD PUSH2 0x1E26 JUMP JUMPDEST DUP1 SWAP2 POP POP SWAP2 SWAP1 POP JUMP JUMPDEST PUSH0 DUP3 DUP3 SHL SWAP1 POP SWAP3 SWAP2 POP POP JUMP JUMPDEST PUSH0 PUSH2 0x2457 DUP3 PUSH2 0x2414 JUMP JUMPDEST DUP3 PUSH2 0x2461 DUP5 PUSH2 0x241E JUMP JUMPDEST SWAP1 POP PUSH2 0x246C DUP2 PUSH2 0x242D JUMP JUMPDEST SWAP3 POP PUSH1 0x20 DUP3 LT ISZERO PUSH2 0x24AC JUMPI PUSH2 0x24A7 PUSH32 0xFFFFFFFFFFFFFFFFFFFFFFFFFFFFFFFFFFFFFFFFFFFFFFFFFFFFFFFFFFFFFFFF DUP4 PUSH1 0x20 SUB PUSH1 0x8 MUL PUSH2 0x2441 JUMP JUMPDEST DUP4 AND SWAP3 POP JUMPDEST POP POP SWAP2 SWAP1 POP JUMP JUMPDEST PUSH0 DUP2 SWAP1 POP SWAP2 SWAP1 POP JUMP JUMPDEST PUSH2 0x24CD PUSH2 0x24C8 DUP3 PUSH2 0x1E26 JUMP JUMPDEST PUSH2 0x24B3 JUMP JUMPDEST DUP3 MSTORE POP POP JUMP JUMPDEST PUSH0 PUSH2 0x24DE DUP3 DUP5 PUSH2 0x24BC JUMP JUMPDEST PUSH1 0x20 DUP3 ADD SWAP2 POP DUP2 SWAP1 POP SWAP3 SWAP2 POP POP JUMP JUMPDEST PUSH32 0x596F75206E65656420746F20776169742031206D696E75746520666F72207769 PUSH0 DUP3 ADD MSTORE PUSH32 0x7468647261772E00000000000000000000000000000000000000000000000000 PUSH1 0x20 DUP3 ADD MSTORE POP JUMP JUMPDEST PUSH0 PUSH2 0x2547 PUSH1 0x27 DUP4 PUSH2 0x1FA8 JUMP JUMPDEST SWAP2 POP PUSH2 0x2552 DUP3 PUSH2 0x24ED JUMP JUMPDEST PUSH1 0x40 DUP3 ADD SWAP1 POP SWAP2 SWAP1 POP JUMP JUMPDEST PUSH0 PUSH1 0x20 DUP3 ADD SWAP1 POP DUP2 DUP2 SUB PUSH0 DUP4 ADD MSTORE PUSH2 0x2574 DUP2 PUSH2 0x253B JUMP JUMPDEST SWAP1 POP SWAP2 SWAP1 POP JUMP JUMPDEST PUSH32 0x436F6E74726163742068617320696E73756666696369656E742062616C616E63 PUSH0 DUP3 ADD MSTORE PUSH32 0x652E000000000000000000000000000000000000000000000000000000000000 PUSH1 0x20 DUP3 ADD MSTORE POP JUMP JUMPDEST PUSH0 PUSH2 0x25D5 PUSH1 0x22 DUP4 PUSH2 0x1FA8 JUMP JUMPDEST SWAP2 POP PUSH2 0x25E0 DUP3 PUSH2 0x257B JUMP JUMPDEST PUSH1 0x40 DUP3 ADD SWAP1 POP SWAP2 SWAP1 POP JUMP JUMPDEST PUSH0 PUSH1 0x20 DUP3 ADD SWAP1 POP DUP2 DUP2 SUB PUSH0 DUP4 ADD MSTORE PUSH2 0x2602 DUP2 PUSH2 0x25C9 JUMP JUMPDEST SWAP1 POP SWAP2 SWAP1 POP JUMP JUMPDEST PUSH32 0x4E487B7100000000000000000000000000000000000000000000000000000000 PUSH0 MSTORE PUSH1 0x12 PUSH1 0x4 MSTORE PUSH1 0x24 PUSH0 REVERT JUMPDEST PUSH0 PUSH2 0x2640 DUP3 PUSH2 0x1B60 JUMP JUMPDEST SWAP2 POP PUSH2 0x264B DUP4 PUSH2 0x1B60 JUMP JUMPDEST SWAP3 POP DUP3 PUSH2 0x265B JUMPI PUSH2 0x265A PUSH2 0x2609 JUMP JUMPDEST JUMPDEST DUP3 DUP3 DIV SWAP1 POP SWAP3 SWAP2 POP POP JUMP JUMPDEST PUSH32 0x596F75722063686F696365206E6565647320746F206265206265747765656E20 PUSH0 DUP3 ADD MSTORE PUSH32 0x3020746F20340000000000000000000000000000000000000000000000000000 PUSH1 0x20 DUP3 ADD MSTORE POP JUMP JUMPDEST PUSH0 PUSH2 0x26C0 PUSH1 0x26 DUP4 PUSH2 0x1FA8 JUMP JUMPDEST SWAP2 POP PUSH2 0x26CB DUP3 PUSH2 0x2666 JUMP JUMPDEST PUSH1 0x40 DUP3 ADD SWAP1 POP SWAP2 SWAP1 POP JUMP JUMPDEST PUSH0 PUSH1 0x20 DUP3 ADD SWAP1 POP DUP2 DUP2 SUB PUSH0 DUP4 ADD MSTORE PUSH2 0x26ED DUP2 PUSH2 0x26B4 JUMP JUMPDEST SWAP1 POP SWAP2 SWAP1 POP JUMP JUMPDEST PUSH32 0x596F75206E65656420746F20636F6D6D69742066697273742E00000000000000 PUSH0 DUP3 ADD MSTORE POP JUMP JUMPDEST PUSH0 PUSH2 0x2728 PUSH1 0x19 DUP4 PUSH2 0x1FA8 JUMP JUMPDEST SWAP2 POP PUSH2 0x2733 DUP3 PUSH2 0x26F4 JUMP JUMPDEST PUSH1 0x20 DUP3 ADD SWAP1 POP SWAP2 SWAP1 POP JUMP JUMPDEST PUSH0 PUSH1 0x20 DUP3 ADD SWAP1 POP DUP2 DUP2 SUB PUSH0 DUP4 ADD MSTORE PUSH2 0x2755 DUP2 PUSH2 0x271C JUMP JUMPDEST SWAP1 POP SWAP2 SWAP1 POP JUMP JUMPDEST PUSH0 PUSH2 0x2766 DUP3 PUSH2 0x1B60 JUMP JUMPDEST SWAP2 POP PUSH2 0x2771 DUP4 PUSH2 0x1B60 JUMP JUMPDEST SWAP3 POP DUP3 DUP3 SUB SWAP1 POP DUP2 DUP2 GT ISZERO PUSH2 0x2789 JUMPI PUSH2 0x2788 PUSH2 0x211D JUMP JUMPDEST JUMPDEST SWAP3 SWAP2 POP POP JUMP JUMPDEST PUSH32 0x47616D65206E65656473203220706C61796572732E0000000000000000000000 PUSH0 DUP3 ADD MSTORE POP JUMP JUMPDEST PUSH0 PUSH2 0x27C3 PUSH1 0x15 DUP4 PUSH2 0x1FA8 JUMP JUMPDEST SWAP2 POP PUSH2 0x27CE DUP3 PUSH2 0x278F JUMP JUMPDEST PUSH1 0x20 DUP3 ADD SWAP1 POP SWAP2 SWAP1 POP JUMP JUMPDEST PUSH0 PUSH1 0x20 DUP3 ADD SWAP1 POP DUP2 DUP2 SUB PUSH0 DUP4 ADD MSTORE PUSH2 0x27F0 DUP2 PUSH2 0x27B7 JUMP JUMPDEST SWAP1 POP SWAP2 SWAP1 POP JUMP JUMPDEST PUSH32 0x596F7520616C726561647920636F6D6D697465642E0000000000000000000000 PUSH0 DUP3 ADD MSTORE POP JUMP JUMPDEST PUSH0 PUSH2 0x282B PUSH1 0x15 DUP4 PUSH2 0x1FA8 JUMP JUMPDEST SWAP2 POP PUSH2 0x2836 DUP3 PUSH2 0x27F7 JUMP JUMPDEST PUSH1 0x20 DUP3 ADD SWAP1 POP SWAP2 SWAP1 POP JUMP JUMPDEST PUSH0 PUSH1 0x20 DUP3 ADD SWAP1 POP DUP2 DUP2 SUB PUSH0 DUP4 ADD MSTORE PUSH2 0x2858 DUP2 PUSH2 0x281F JUMP JUMPDEST SWAP1 POP SWAP2 SWAP1 POP JUMP JUMPDEST PUSH32 0x436F6D6D697452657665616C3A3A72657665616C3A20416C7265616479207265 PUSH0 DUP3 ADD MSTORE PUSH32 0x7665616C65640000000000000000000000000000000000000000000000000000 PUSH1 0x20 DUP3 ADD MSTORE POP JUMP JUMPDEST PUSH0 PUSH2 0x28B9 PUSH1 0x26 DUP4 PUSH2 0x1FA8 JUMP JUMPDEST SWAP2 POP PUSH2 0x28C4 DUP3 PUSH2 0x285F JUMP JUMPDEST PUSH1 0x40 DUP3 ADD SWAP1 POP SWAP2 SWAP1 POP JUMP JUMPDEST PUSH0 PUSH1 0x20 DUP3 ADD SWAP1 POP DUP2 DUP2 SUB PUSH0 DUP4 ADD MSTORE PUSH2 0x28E6 DUP2 PUSH2 0x28AD JUMP JUMPDEST SWAP1 POP SWAP2 SWAP1 POP JUMP JUMPDEST PUSH32 0x436F6D6D697452657665616C3A3A72657665616C3A2052657665616C65642068 PUSH0 DUP3 ADD MSTORE PUSH32 0x61736820646F6573206E6F74206D6174636820636F6D6D697400000000000000 PUSH1 0x20 DUP3 ADD MSTORE POP JUMP JUMPDEST PUSH0 PUSH2 0x2947 PUSH1 0x39 DUP4 PUSH2 0x1FA8 JUMP JUMPDEST SWAP2 POP PUSH2 0x2952 DUP3 PUSH2 0x28ED JUMP JUMPDEST PUSH1 0x40 DUP3 ADD SWAP1 POP SWAP2 SWAP1 POP JUMP JUMPDEST PUSH0 PUSH1 0x20 DUP3 ADD SWAP1 POP DUP2 DUP2 SUB PUSH0 DUP4 ADD MSTORE PUSH2 0x2974 DUP2 PUSH2 0x293B JUMP JUMPDEST SWAP1 POP SWAP2 SWAP1 POP JUMP JUMPDEST PUSH32 0x436F6D6D697452657665616C3A3A72657665616C3A2052657665616C20616E64 PUSH0 DUP3 ADD MSTORE PUSH32 0x20636F6D6D69742068617070656E6564206F6E207468652073616D6520626C6F PUSH1 0x20 DUP3 ADD MSTORE PUSH32 0x636B000000000000000000000000000000000000000000000000000000000000 PUSH1 0x40 DUP3 ADD MSTORE POP JUMP JUMPDEST PUSH0 PUSH2 0x29FB PUSH1 0x42 DUP4 PUSH2 0x1FA8 JUMP JUMPDEST SWAP2 POP PUSH2 0x2A06 DUP3 PUSH2 0x297B JUMP JUMPDEST PUSH1 0x60 DUP3 ADD SWAP1 POP SWAP2 SWAP1 POP JUMP JUMPDEST PUSH0 PUSH1 0x20 DUP3 ADD SWAP1 POP DUP2 DUP2 SUB PUSH0 DUP4 ADD MSTORE PUSH2 0x2A28 DUP2 PUSH2 0x29EF JUMP JUMPDEST SWAP1 POP SWAP2 SWAP1 POP JUMP JUMPDEST PUSH0 PUSH2 0x2A39 DUP3 PUSH2 0x1ED4 JUMP JUMPDEST SWAP2 POP PUSH2 0x2A44 DUP4 PUSH2 0x1ED4 JUMP JUMPDEST SWAP3 POP DUP3 DUP3 ADD SWAP1 POP PUSH8 0xFFFFFFFFFFFFFFFF DUP2 GT ISZERO PUSH2 0x2A64 JUMPI PUSH2 0x2A63 PUSH2 0x211D JUMP JUMPDEST JUMPDEST SWAP3 SWAP2 POP POP JUMP JUMPDEST PUSH32 0x436F6D6D697452657665616C3A3A72657665616C3A2052657665616C65642074 PUSH0 DUP3 ADD MSTORE PUSH32 0x6F6F206C61746500000000000000000000000000000000000000000000000000 PUSH1 0x20 DUP3 ADD MSTORE POP JUMP JUMPDEST PUSH0 PUSH2 0x2AC4 PUSH1 0x27 DUP4 PUSH2 0x1FA8 JUMP JUMPDEST SWAP2 POP PUSH2 0x2ACF DUP3 PUSH2 0x2A6A JUMP JUMPDEST PUSH1 0x40 DUP3 ADD SWAP1 POP SWAP2 SWAP1 POP JUMP JUMPDEST PUSH0 PUSH1 0x20 DUP3 ADD SWAP1 POP DUP2 DUP2 SUB PUSH0 DUP4 ADD MSTORE PUSH2 0x2AF1 DUP2 PUSH2 0x2AB8 JUMP JUMPDEST SWAP1 POP SWAP2 SWAP1 POP JUMP JUMPDEST PUSH0 PUSH2 0x2B03 DUP3 DUP6 PUSH2 0x24BC JUMP JUMPDEST PUSH1 0x20 DUP3 ADD SWAP2 POP PUSH2 0x2B13 DUP3 DUP5 PUSH2 0x24BC JUMP JUMPDEST PUSH1 0x20 DUP3 ADD SWAP2 POP DUP2 SWAP1 POP SWAP4 SWAP3 POP POP POP JUMP JUMPDEST PUSH0 PUSH2 0x2B2D DUP3 PUSH2 0x1B60 JUMP JUMPDEST SWAP2 POP PUSH2 0x2B38 DUP4 PUSH2 0x1B60 JUMP JUMPDEST SWAP3 POP DUP3 PUSH2 0x2B48 JUMPI PUSH2 0x2B47 PUSH2 0x2609 JUMP JUMPDEST JUMPDEST DUP3 DUP3 MOD SWAP1 POP SWAP3 SWAP2 POP POP JUMP JUMPDEST PUSH0 PUSH1 0x60 DUP3 ADD SWAP1 POP PUSH2 0x2B66 PUSH0 DUP4 ADD DUP7 PUSH2 0x1F80 JUMP JUMPDEST PUSH2 0x2B73 PUSH1 0x20 DUP4 ADD DUP6 PUSH2 0x1E2F JUMP JUMPDEST PUSH2 0x2B80 PUSH1 0x40 DUP4 ADD DUP5 PUSH2 0x1B69 JUMP JUMPDEST SWAP5 SWAP4 POP POP POP POP JUMP JUMPDEST PUSH0 PUSH1 0x60 DUP3 ADD SWAP1 POP PUSH2 0x2B9B PUSH0 DUP4 ADD DUP7 PUSH2 0x1F80 JUMP JUMPDEST PUSH2 0x2BA8 PUSH1 0x20 DUP4 ADD DUP6 PUSH2 0x1E2F JUMP JUMPDEST PUSH2 0x2BB5 PUSH1 0x40 DUP4 ADD DUP5 PUSH2 0x1EE7 JUMP JUMPDEST SWAP5 SWAP4 POP POP POP POP JUMP INVALID LOG2 PUSH5 0x6970667358 0x22 SLT KECCAK256 PUSH29 0xA78BF8FF468070A4F4C7B776FB99E9E8AC89CFBEDB7E0A5CE0ED14CA18 0xCE COINBASE PUSH5 0x736F6C6343 STOP ADDMOD BYTE STOP CALLER "
				},
				"gasEstimates": {
					"creation": {
						"codeDepositCost": "2250200",
						"executionCost": "166211",
						"totalCost": "2416411"
					},
					"external": {
						"addPlayer()": "infinite",
						"commits(address)": "7437",
						"elapsedMinutes()": "infinite",
						"elapsedSeconds()": "infinite",
						"generateRandomBytes32(uint8,string)": "infinite",
						"getHash(bytes32)": "infinite",
						"input(bytes32)": "infinite",
						"isCommit(address)": "2900",
						"max()": "2486",
						"numInput()": "2449",
						"numPlayer()": "2514",
						"numReveal()": "2469",
						"player_choice(address)": "2913",
						"player_not_played(address)": "2879",
						"players(uint256)": "5054",
						"revealChoice(bytes32)": "infinite",
						"reward()": "2493",
						"startTime()": "2470",
						"timeOutWithDraw()": "infinite",
						"timeoutDeration()": "2470"
					},
					"internal": {
						"_checkWinnerAndPay()": "infinite",
						"_reset()": "infinite"
					}
				},
				"methodIdentifiers": {
					"addPlayer()": "27b5db8a",
					"commits(address)": "7b43a8e6",
					"elapsedMinutes()": "d97c8416",
					"elapsedSeconds()": "bc06b8cd",
					"generateRandomBytes32(uint8,string)": "2cd87161",
					"getHash(bytes32)": "3cf5040a",
					"input(bytes32)": "d891f969",
					"isCommit(address)": "43cdd438",
					"max()": "6ac5db19",
					"numInput()": "086f7815",
					"numPlayer()": "90d5d0c3",
					"numReveal()": "c876e615",
					"player_choice(address)": "a040478d",
					"player_not_played(address)": "190cf745",
					"players(uint256)": "f71d96cb",
					"revealChoice(bytes32)": "65ce0ac6",
					"reward()": "228cb733",
					"startTime()": "78e97925",
					"timeOutWithDraw()": "558d51c6",
					"timeoutDeration()": "3e2b58e0"
				}
			},
			"storageLayout": {
				"storage": [
					{
						"astId": 4,
						"contract": "RPS.sol:RPS",
						"label": "max",
						"offset": 0,
						"slot": "0",
						"type": "t_uint8"
					},
					{
						"astId": 16,
						"contract": "RPS.sol:RPS",
						"label": "commits",
						"offset": 0,
						"slot": "1",
						"type": "t_mapping(t_address,t_struct(Commit)11_storage)"
					},
					{
						"astId": 840,
						"contract": "RPS.sol:RPS",
						"label": "startTime",
						"offset": 0,
						"slot": "2",
						"type": "t_uint256"
					},
					{
						"astId": 210,
						"contract": "RPS.sol:RPS",
						"label": "numPlayer",
						"offset": 0,
						"slot": "3",
						"type": "t_uint256"
					},
					{
						"astId": 213,
						"contract": "RPS.sol:RPS",
						"label": "reward",
						"offset": 0,
						"slot": "4",
						"type": "t_uint256"
					},
					{
						"astId": 217,
						"contract": "RPS.sol:RPS",
						"label": "player_choice",
						"offset": 0,
						"slot": "5",
						"type": "t_mapping(t_address,t_uint256)"
					},
					{
						"astId": 221,
						"contract": "RPS.sol:RPS",
						"label": "player_not_played",
						"offset": 0,
						"slot": "6",
						"type": "t_mapping(t_address,t_bool)"
					},
					{
						"astId": 224,
						"contract": "RPS.sol:RPS",
						"label": "players",
						"offset": 0,
						"slot": "7",
						"type": "t_array(t_address)dyn_storage"
					},
					{
						"astId": 228,
						"contract": "RPS.sol:RPS",
						"label": "isCommit",
						"offset": 0,
						"slot": "8",
						"type": "t_mapping(t_address,t_bool)"
					},
					{
						"astId": 231,
						"contract": "RPS.sol:RPS",
						"label": "numInput",
						"offset": 0,
						"slot": "9",
						"type": "t_uint256"
					},
					{
						"astId": 234,
						"contract": "RPS.sol:RPS",
						"label": "numReveal",
						"offset": 0,
						"slot": "10",
						"type": "t_uint256"
					},
					{
						"astId": 237,
						"contract": "RPS.sol:RPS",
						"label": "timeoutDeration",
						"offset": 0,
						"slot": "11",
						"type": "t_uint256"
					},
					{
						"astId": 241,
						"contract": "RPS.sol:RPS",
						"label": "whitelistedPlayers",
						"offset": 0,
						"slot": "12",
						"type": "t_mapping(t_address,t_bool)"
					}
				],
				"types": {
					"t_address": {
						"encoding": "inplace",
						"label": "address",
						"numberOfBytes": "20"
					},
					"t_array(t_address)dyn_storage": {
						"base": "t_address",
						"encoding": "dynamic_array",
						"label": "address[]",
						"numberOfBytes": "32"
					},
					"t_bool": {
						"encoding": "inplace",
						"label": "bool",
						"numberOfBytes": "1"
					},
					"t_bytes32": {
						"encoding": "inplace",
						"label": "bytes32",
						"numberOfBytes": "32"
					},
					"t_mapping(t_address,t_bool)": {
						"encoding": "mapping",
						"key": "t_address",
						"label": "mapping(address => bool)",
						"numberOfBytes": "32",
						"value": "t_bool"
					},
					"t_mapping(t_address,t_struct(Commit)11_storage)": {
						"encoding": "mapping",
						"key": "t_address",
						"label": "mapping(address => struct CommitReveal.Commit)",
						"numberOfBytes": "32",
						"value": "t_struct(Commit)11_storage"
					},
					"t_mapping(t_address,t_uint256)": {
						"encoding": "mapping",
						"key": "t_address",
						"label": "mapping(address => uint256)",
						"numberOfBytes": "32",
						"value": "t_uint256"
					},
					"t_struct(Commit)11_storage": {
						"encoding": "inplace",
						"label": "struct CommitReveal.Commit",
						"members": [
							{
								"astId": 6,
								"contract": "RPS.sol:RPS",
								"label": "commit",
								"offset": 0,
								"slot": "0",
								"type": "t_bytes32"
							},
							{
								"astId": 8,
								"contract": "RPS.sol:RPS",
								"label": "block",
								"offset": 0,
								"slot": "1",
								"type": "t_uint64"
							},
							{
								"astId": 10,
								"contract": "RPS.sol:RPS",
								"label": "revealed",
								"offset": 8,
								"slot": "1",
								"type": "t_bool"
							}
						],
						"numberOfBytes": "64"
					},
					"t_uint256": {
						"encoding": "inplace",
						"label": "uint256",
						"numberOfBytes": "32"
					},
					"t_uint64": {
						"encoding": "inplace",
						"label": "uint64",
						"numberOfBytes": "8"
					},
					"t_uint8": {
						"encoding": "inplace",
						"label": "uint8",
						"numberOfBytes": "1"
					}
				}
			},
			"userdoc": {
				"kind": "user",
				"methods": {},
				"version": 1
			}
		}
	}
}