{
	"RPS1.sol": {
		"RPS": {
			"abi": [
				{
					"inputs": [
						{
							"internalType": "address",
							"name": "_token",
							"type": "address"
						}
					],
					"stateMutability": "nonpayable",
					"type": "constructor"
				},
				{
					"anonymous": false,
					"inputs": [
						{
							"indexed": false,
							"internalType": "address",
							"name": "sender",
							"type": "address"
						},
						{
							"indexed": false,
							"internalType": "bytes32",
							"name": "dataHash",
							"type": "bytes32"
						},
						{
							"indexed": false,
							"internalType": "uint64",
							"name": "block",
							"type": "uint64"
						}
					],
					"name": "CommitHash",
					"type": "event"
				},
				{
					"anonymous": false,
					"inputs": [
						{
							"indexed": false,
							"internalType": "address",
							"name": "sender",
							"type": "address"
						},
						{
							"indexed": false,
							"internalType": "uint256",
							"name": "numPlayer",
							"type": "uint256"
						}
					],
					"name": "PlayerAdded",
					"type": "event"
				},
				{
					"anonymous": false,
					"inputs": [
						{
							"indexed": false,
							"internalType": "address",
							"name": "sender",
							"type": "address"
						},
						{
							"indexed": false,
							"internalType": "uint256",
							"name": "numInput",
							"type": "uint256"
						}
					],
					"name": "PlayerCommitHashed",
					"type": "event"
				},
				{
					"anonymous": false,
					"inputs": [
						{
							"indexed": false,
							"internalType": "address",
							"name": "sender",
							"type": "address"
						},
						{
							"indexed": false,
							"internalType": "bytes32",
							"name": "revealHash",
							"type": "bytes32"
						},
						{
							"indexed": false,
							"internalType": "uint256",
							"name": "random",
							"type": "uint256"
						}
					],
					"name": "RevealHash",
					"type": "event"
				},
				{
					"inputs": [],
					"name": "addPlayer",
					"outputs": [],
					"stateMutability": "nonpayable",
					"type": "function"
				},
				{
					"inputs": [],
					"name": "checkAllowance",
					"outputs": [
						{
							"internalType": "uint256",
							"name": "",
							"type": "uint256"
						}
					],
					"stateMutability": "view",
					"type": "function"
				},
				{
					"inputs": [
						{
							"internalType": "address",
							"name": "",
							"type": "address"
						}
					],
					"name": "commits",
					"outputs": [
						{
							"internalType": "bytes32",
							"name": "commit",
							"type": "bytes32"
						},
						{
							"internalType": "uint64",
							"name": "block",
							"type": "uint64"
						},
						{
							"internalType": "bool",
							"name": "revealed",
							"type": "bool"
						}
					],
					"stateMutability": "view",
					"type": "function"
				},
				{
					"inputs": [],
					"name": "elapsedMinutes",
					"outputs": [
						{
							"internalType": "uint256",
							"name": "",
							"type": "uint256"
						}
					],
					"stateMutability": "view",
					"type": "function"
				},
				{
					"inputs": [],
					"name": "elapsedSeconds",
					"outputs": [
						{
							"internalType": "uint256",
							"name": "",
							"type": "uint256"
						}
					],
					"stateMutability": "view",
					"type": "function"
				},
				{
					"inputs": [
						{
							"internalType": "bytes32",
							"name": "data",
							"type": "bytes32"
						}
					],
					"name": "getHash",
					"outputs": [
						{
							"internalType": "bytes32",
							"name": "",
							"type": "bytes32"
						}
					],
					"stateMutability": "pure",
					"type": "function"
				},
				{
					"inputs": [
						{
							"internalType": "bytes32",
							"name": "hashAns",
							"type": "bytes32"
						}
					],
					"name": "input",
					"outputs": [],
					"stateMutability": "nonpayable",
					"type": "function"
				},
				{
					"inputs": [
						{
							"internalType": "address",
							"name": "",
							"type": "address"
						}
					],
					"name": "isCommit",
					"outputs": [
						{
							"internalType": "bool",
							"name": "",
							"type": "bool"
						}
					],
					"stateMutability": "view",
					"type": "function"
				},
				{
					"inputs": [],
					"name": "max",
					"outputs": [
						{
							"internalType": "uint8",
							"name": "",
							"type": "uint8"
						}
					],
					"stateMutability": "view",
					"type": "function"
				},
				{
					"inputs": [],
					"name": "numInput",
					"outputs": [
						{
							"internalType": "uint256",
							"name": "",
							"type": "uint256"
						}
					],
					"stateMutability": "view",
					"type": "function"
				},
				{
					"inputs": [],
					"name": "numPlayer",
					"outputs": [
						{
							"internalType": "uint256",
							"name": "",
							"type": "uint256"
						}
					],
					"stateMutability": "view",
					"type": "function"
				},
				{
					"inputs": [],
					"name": "numReveal",
					"outputs": [
						{
							"internalType": "uint256",
							"name": "",
							"type": "uint256"
						}
					],
					"stateMutability": "view",
					"type": "function"
				},
				{
					"inputs": [
						{
							"internalType": "address",
							"name": "",
							"type": "address"
						}
					],
					"name": "player_choice",
					"outputs": [
						{
							"internalType": "uint256",
							"name": "",
							"type": "uint256"
						}
					],
					"stateMutability": "view",
					"type": "function"
				},
				{
					"inputs": [
						{
							"internalType": "uint256",
							"name": "",
							"type": "uint256"
						}
					],
					"name": "players",
					"outputs": [
						{
							"internalType": "address",
							"name": "",
							"type": "address"
						}
					],
					"stateMutability": "view",
					"type": "function"
				},
				{
					"inputs": [],
					"name": "requiredAmount",
					"outputs": [
						{
							"internalType": "uint256",
							"name": "",
							"type": "uint256"
						}
					],
					"stateMutability": "view",
					"type": "function"
				},
				{
					"inputs": [
						{
							"internalType": "bytes32",
							"name": "hashChoice",
							"type": "bytes32"
						}
					],
					"name": "revealChoice",
					"outputs": [],
					"stateMutability": "nonpayable",
					"type": "function"
				},
				{
					"inputs": [],
					"name": "reward",
					"outputs": [
						{
							"internalType": "uint256",
							"name": "",
							"type": "uint256"
						}
					],
					"stateMutability": "view",
					"type": "function"
				},
				{
					"inputs": [],
					"name": "startTime",
					"outputs": [
						{
							"internalType": "uint256",
							"name": "",
							"type": "uint256"
						}
					],
					"stateMutability": "view",
					"type": "function"
				},
				{
					"inputs": [],
					"name": "timeOutWithDraw",
					"outputs": [],
					"stateMutability": "nonpayable",
					"type": "function"
				},
				{
					"inputs": [],
					"name": "timeoutDuration",
					"outputs": [
						{
							"internalType": "uint256",
							"name": "",
							"type": "uint256"
						}
					],
					"stateMutability": "view",
					"type": "function"
				},
				{
					"inputs": [],
					"name": "token",
					"outputs": [
						{
							"internalType": "contract IERC20",
							"name": "",
							"type": "address"
						}
					],
					"stateMutability": "view",
					"type": "function"
				}
			],
			"devdoc": {
				"kind": "dev",
				"methods": {},
				"version": 1
			},
			"evm": {
				"assembly": "    /* \"RPS1.sol\":190:5711  contract RPS is CommitReveal, TimeUnit {... */\n  mstore(0x40, 0x80)\n    /* \"CommitReveal.sol\":122:125  100 */\n  0x64\n    /* \"CommitReveal.sol\":103:125  uint8 public max = 100 */\n  0x00\n  dup1\n  0x0100\n  exp\n  dup2\n  sload\n  dup2\n  0xff\n  mul\n  not\n  and\n  swap1\n  dup4\n  0xff\n  and\n  mul\n  or\n  swap1\n  sstore\n  pop\n    /* \"RPS1.sol\":286:287  0 */\n  0x00\n    /* \"RPS1.sol\":262:287  uint public numPlayer = 0 */\n  0x04\n  sstore\n    /* \"RPS1.sol\":315:316  0 */\n  0x00\n    /* \"RPS1.sol\":294:316  uint public reward = 0 */\n  0x05\n  sstore\n    /* \"RPS1.sol\":445:446  0 */\n  0x00\n    /* \"RPS1.sol\":422:446  uint public numInput = 0 */\n  0x08\n  sstore\n    /* \"RPS1.sol\":477:478  0 */\n  0x00\n    /* \"RPS1.sol\":453:478  uint public numReveal = 0 */\n  0x09\n  sstore\n    /* \"RPS1.sol\":515:524  1 minutes */\n  0x3c\n    /* \"RPS1.sol\":485:524  uint public timeoutDuration = 1 minutes */\n  0x0a\n  sstore\n    /* \"RPS1.sol\":594:608  0.000001 ether */\n  0xe8d4a51000\n    /* \"RPS1.sol\":562:608  uint256 public requiredAmount = 0.000001 ether */\n  0x0c\n  sstore\n    /* \"RPS1.sol\":619:688  constructor(address _token) {... */\n  callvalue\n  dup1\n  iszero\n  tag_1\n  jumpi\n  0x00\n  dup1\n  revert\ntag_1:\n  pop\n  mload(0x40)\n  sub(codesize, bytecodeSize)\n  dup1\n  bytecodeSize\n  dup4\n  codecopy\n  dup2\n  dup2\n  add\n  0x40\n  mstore\n  dup2\n  add\n  swap1\n  tag_2\n  swap2\n  swap1\n  tag_3\n  jump\t// in\ntag_2:\n    /* \"RPS1.sol\":673:679  _token */\n  dup1\n    /* \"RPS1.sol\":658:663  token */\n  0x03\n  0x00\n    /* \"RPS1.sol\":658:680  token = IERC20(_token) */\n  0x0100\n  exp\n  dup2\n  sload\n  dup2\n  0xffffffffffffffffffffffffffffffffffffffff\n  mul\n  not\n  and\n  swap1\n  dup4\n  0xffffffffffffffffffffffffffffffffffffffff\n  and\n  mul\n  or\n  swap1\n  sstore\n  pop\n    /* \"RPS1.sol\":619:688  constructor(address _token) {... */\n  pop\n    /* \"RPS1.sol\":190:5711  contract RPS is CommitReveal, TimeUnit {... */\n  jump(tag_6)\n    /* \"#utility.yul\":88:205   */\ntag_8:\n    /* \"#utility.yul\":197:198   */\n  0x00\n    /* \"#utility.yul\":194:195   */\n  dup1\n    /* \"#utility.yul\":187:199   */\n  revert\n    /* \"#utility.yul\":334:460   */\ntag_10:\n    /* \"#utility.yul\":371:378   */\n  0x00\n    /* \"#utility.yul\":411:453   */\n  0xffffffffffffffffffffffffffffffffffffffff\n    /* \"#utility.yul\":404:409   */\n  dup3\n    /* \"#utility.yul\":400:454   */\n  and\n    /* \"#utility.yul\":389:454   */\n  swap1\n  pop\n    /* \"#utility.yul\":334:460   */\n  swap2\n  swap1\n  pop\n  jump\t// out\n    /* \"#utility.yul\":466:562   */\ntag_11:\n    /* \"#utility.yul\":503:510   */\n  0x00\n    /* \"#utility.yul\":532:556   */\n  tag_20\n    /* \"#utility.yul\":550:555   */\n  dup3\n    /* \"#utility.yul\":532:556   */\n  tag_10\n  jump\t// in\ntag_20:\n    /* \"#utility.yul\":521:556   */\n  swap1\n  pop\n    /* \"#utility.yul\":466:562   */\n  swap2\n  swap1\n  pop\n  jump\t// out\n    /* \"#utility.yul\":568:690   */\ntag_12:\n    /* \"#utility.yul\":641:665   */\n  tag_22\n    /* \"#utility.yul\":659:664   */\n  dup2\n    /* \"#utility.yul\":641:665   */\n  tag_11\n  jump\t// in\ntag_22:\n    /* \"#utility.yul\":634:639   */\n  dup2\n    /* \"#utility.yul\":631:666   */\n  eq\n    /* \"#utility.yul\":621:684   */\n  tag_23\n  jumpi\n    /* \"#utility.yul\":680:681   */\n  0x00\n    /* \"#utility.yul\":677:678   */\n  dup1\n    /* \"#utility.yul\":670:682   */\n  revert\n    /* \"#utility.yul\":621:684   */\ntag_23:\n    /* \"#utility.yul\":568:690   */\n  pop\n  jump\t// out\n    /* \"#utility.yul\":696:839   */\ntag_13:\n    /* \"#utility.yul\":753:758   */\n  0x00\n    /* \"#utility.yul\":784:790   */\n  dup2\n    /* \"#utility.yul\":778:791   */\n  mload\n    /* \"#utility.yul\":769:791   */\n  swap1\n  pop\n    /* \"#utility.yul\":800:833   */\n  tag_25\n    /* \"#utility.yul\":827:832   */\n  dup2\n    /* \"#utility.yul\":800:833   */\n  tag_12\n  jump\t// in\ntag_25:\n    /* \"#utility.yul\":696:839   */\n  swap3\n  swap2\n  pop\n  pop\n  jump\t// out\n    /* \"#utility.yul\":845:1196   */\ntag_3:\n    /* \"#utility.yul\":915:921   */\n  0x00\n    /* \"#utility.yul\":964:966   */\n  0x20\n    /* \"#utility.yul\":952:961   */\n  dup3\n    /* \"#utility.yul\":943:950   */\n  dup5\n    /* \"#utility.yul\":939:962   */\n  sub\n    /* \"#utility.yul\":935:967   */\n  slt\n    /* \"#utility.yul\":932:1051   */\n  iszero\n  tag_27\n  jumpi\n    /* \"#utility.yul\":970:1049   */\n  tag_28\n  tag_8\n  jump\t// in\ntag_28:\n    /* \"#utility.yul\":932:1051   */\ntag_27:\n    /* \"#utility.yul\":1090:1091   */\n  0x00\n    /* \"#utility.yul\":1115:1179   */\n  tag_29\n    /* \"#utility.yul\":1171:1178   */\n  dup5\n    /* \"#utility.yul\":1162:1168   */\n  dup3\n    /* \"#utility.yul\":1151:1160   */\n  dup6\n    /* \"#utility.yul\":1147:1169   */\n  add\n    /* \"#utility.yul\":1115:1179   */\n  tag_13\n  jump\t// in\ntag_29:\n    /* \"#utility.yul\":1105:1179   */\n  swap2\n  pop\n    /* \"#utility.yul\":1061:1189   */\n  pop\n    /* \"#utility.yul\":845:1196   */\n  swap3\n  swap2\n  pop\n  pop\n  jump\t// out\n    /* \"RPS1.sol\":190:5711  contract RPS is CommitReveal, TimeUnit {... */\ntag_6:\n  dataSize(sub_0)\n  dup1\n  dataOffset(sub_0)\n  0x00\n  codecopy\n  0x00\n  return\nstop\n\nsub_0: assembly {\n        /* \"RPS1.sol\":190:5711  contract RPS is CommitReveal, TimeUnit {... */\n      mstore(0x40, 0x80)\n      callvalue\n      dup1\n      iszero\n      tag_1\n      jumpi\n      0x00\n      dup1\n      revert\n    tag_1:\n      pop\n      jumpi(tag_2, lt(calldatasize, 0x04))\n      shr(0xe0, calldataload(0x00))\n      dup1\n      0x7b43a8e6\n      gt\n      tag_24\n      jumpi\n      dup1\n      0xbc06b8cd\n      gt\n      tag_25\n      jumpi\n      dup1\n      0xbc06b8cd\n      eq\n      tag_18\n      jumpi\n      dup1\n      0xc876e615\n      eq\n      tag_19\n      jumpi\n      dup1\n      0xd891f969\n      eq\n      tag_20\n      jumpi\n      dup1\n      0xd97c8416\n      eq\n      tag_21\n      jumpi\n      dup1\n      0xf71d96cb\n      eq\n      tag_22\n      jumpi\n      dup1\n      0xfc0c546a\n      eq\n      tag_23\n      jumpi\n      jump(tag_2)\n    tag_25:\n      dup1\n      0x7b43a8e6\n      eq\n      tag_13\n      jumpi\n      dup1\n      0x85d19e1a\n      eq\n      tag_14\n      jumpi\n      dup1\n      0x90d5d0c3\n      eq\n      tag_15\n      jumpi\n      dup1\n      0x9405de64\n      eq\n      tag_16\n      jumpi\n      dup1\n      0xa040478d\n      eq\n      tag_17\n      jumpi\n      jump(tag_2)\n    tag_24:\n      dup1\n      0x48b9ef40\n      gt\n      tag_26\n      jumpi\n      dup1\n      0x48b9ef40\n      eq\n      tag_8\n      jumpi\n      dup1\n      0x558d51c6\n      eq\n      tag_9\n      jumpi\n      dup1\n      0x65ce0ac6\n      eq\n      tag_10\n      jumpi\n      dup1\n      0x6ac5db19\n      eq\n      tag_11\n      jumpi\n      dup1\n      0x78e97925\n      eq\n      tag_12\n      jumpi\n      jump(tag_2)\n    tag_26:\n      dup1\n      0x086f7815\n      eq\n      tag_3\n      jumpi\n      dup1\n      0x228cb733\n      eq\n      tag_4\n      jumpi\n      dup1\n      0x27b5db8a\n      eq\n      tag_5\n      jumpi\n      dup1\n      0x3cf5040a\n      eq\n      tag_6\n      jumpi\n      dup1\n      0x43cdd438\n      eq\n      tag_7\n      jumpi\n    tag_2:\n      0x00\n      dup1\n      revert\n        /* \"RPS1.sol\":422:446  uint public numInput = 0 */\n    tag_3:\n      tag_27\n      tag_28\n      jump\t// in\n    tag_27:\n      mload(0x40)\n      tag_29\n      swap2\n      swap1\n      tag_30\n      jump\t// in\n    tag_29:\n      mload(0x40)\n      dup1\n      swap2\n      sub\n      swap1\n      return\n        /* \"RPS1.sol\":294:316  uint public reward = 0 */\n    tag_4:\n      tag_31\n      tag_32\n      jump\t// in\n    tag_31:\n      mload(0x40)\n      tag_33\n      swap2\n      swap1\n      tag_30\n      jump\t// in\n    tag_33:\n      mload(0x40)\n      dup1\n      swap2\n      sub\n      swap1\n      return\n        /* \"RPS1.sol\":825:1461  function addPlayer() public {... */\n    tag_5:\n      tag_34\n      tag_35\n      jump\t// in\n    tag_34:\n      stop\n        /* \"CommitReveal.sol\":1862:1974  function getHash(bytes32 data) public pure returns(bytes32){... */\n    tag_6:\n      tag_36\n      0x04\n      dup1\n      calldatasize\n      sub\n      dup2\n      add\n      swap1\n      tag_37\n      swap2\n      swap1\n      tag_38\n      jump\t// in\n    tag_37:\n      tag_39\n      jump\t// in\n    tag_36:\n      mload(0x40)\n      tag_40\n      swap2\n      swap1\n      tag_41\n      jump\t// in\n    tag_40:\n      mload(0x40)\n      dup1\n      swap2\n      sub\n      swap1\n      return\n        /* \"RPS1.sol\":375:415  mapping(address => bool) public isCommit */\n    tag_7:\n      tag_42\n      0x04\n      dup1\n      calldatasize\n      sub\n      dup2\n      add\n      swap1\n      tag_43\n      swap2\n      swap1\n      tag_44\n      jump\t// in\n    tag_43:\n      tag_45\n      jump\t// in\n    tag_42:\n      mload(0x40)\n      tag_46\n      swap2\n      swap1\n      tag_47\n      jump\t// in\n    tag_46:\n      mload(0x40)\n      dup1\n      swap2\n      sub\n      swap1\n      return\n        /* \"RPS1.sol\":562:608  uint256 public requiredAmount = 0.000001 ether */\n    tag_8:\n      tag_48\n      tag_49\n      jump\t// in\n    tag_48:\n      mload(0x40)\n      tag_50\n      swap2\n      swap1\n      tag_30\n      jump\t// in\n    tag_50:\n      mload(0x40)\n      dup1\n      swap2\n      sub\n      swap1\n      return\n        /* \"RPS1.sol\":3915:5708  function timeOutWithDraw() public {... */\n    tag_9:\n      tag_51\n      tag_52\n      jump\t// in\n    tag_51:\n      stop\n        /* \"RPS1.sol\":2085:2650  function revealChoice(bytes32 hashChoice) public {... */\n    tag_10:\n      tag_53\n      0x04\n      dup1\n      calldatasize\n      sub\n      dup2\n      add\n      swap1\n      tag_54\n      swap2\n      swap1\n      tag_38\n      jump\t// in\n    tag_54:\n      tag_55\n      jump\t// in\n    tag_53:\n      stop\n        /* \"CommitReveal.sol\":103:125  uint8 public max = 100 */\n    tag_11:\n      tag_56\n      tag_57\n      jump\t// in\n    tag_56:\n      mload(0x40)\n      tag_58\n      swap2\n      swap1\n      tag_59\n      jump\t// in\n    tag_58:\n      mload(0x40)\n      dup1\n      swap2\n      sub\n      swap1\n      return\n        /* \"TimeUnit.sol\":307:331  uint256 public startTime */\n    tag_12:\n      tag_60\n      tag_61\n      jump\t// in\n    tag_60:\n      mload(0x40)\n      tag_62\n      swap2\n      swap1\n      tag_30\n      jump\t// in\n    tag_62:\n      mload(0x40)\n      dup1\n      swap2\n      sub\n      swap1\n      return\n        /* \"CommitReveal.sol\":218:260  mapping (address => Commit) public commits */\n    tag_13:\n      tag_63\n      0x04\n      dup1\n      calldatasize\n      sub\n      dup2\n      add\n      swap1\n      tag_64\n      swap2\n      swap1\n      tag_44\n      jump\t// in\n    tag_64:\n      tag_65\n      jump\t// in\n    tag_63:\n      mload(0x40)\n      tag_66\n      swap4\n      swap3\n      swap2\n      swap1\n      tag_67\n      jump\t// in\n    tag_66:\n      mload(0x40)\n      dup1\n      swap2\n      sub\n      swap1\n      return\n        /* \"RPS1.sol\":485:524  uint public timeoutDuration = 1 minutes */\n    tag_14:\n      tag_68\n      tag_69\n      jump\t// in\n    tag_68:\n      mload(0x40)\n      tag_70\n      swap2\n      swap1\n      tag_30\n      jump\t// in\n    tag_70:\n      mload(0x40)\n      dup1\n      swap2\n      sub\n      swap1\n      return\n        /* \"RPS1.sol\":262:287  uint public numPlayer = 0 */\n    tag_15:\n      tag_71\n      tag_72\n      jump\t// in\n    tag_71:\n      mload(0x40)\n      tag_73\n      swap2\n      swap1\n      tag_30\n      jump\t// in\n    tag_73:\n      mload(0x40)\n      dup1\n      swap2\n      sub\n      swap1\n      return\n        /* \"RPS1.sol\":696:817  function checkAllowance() public view returns (uint256) {... */\n    tag_16:\n      tag_74\n      tag_75\n      jump\t// in\n    tag_74:\n      mload(0x40)\n      tag_76\n      swap2\n      swap1\n      tag_30\n      jump\t// in\n    tag_76:\n      mload(0x40)\n      dup1\n      swap2\n      sub\n      swap1\n      return\n        /* \"RPS1.sol\":323:368  mapping(address => uint) public player_choice */\n    tag_17:\n      tag_77\n      0x04\n      dup1\n      calldatasize\n      sub\n      dup2\n      add\n      swap1\n      tag_78\n      swap2\n      swap1\n      tag_44\n      jump\t// in\n    tag_78:\n      tag_79\n      jump\t// in\n    tag_77:\n      mload(0x40)\n      tag_80\n      swap2\n      swap1\n      tag_30\n      jump\t// in\n    tag_80:\n      mload(0x40)\n      dup1\n      swap2\n      sub\n      swap1\n      return\n        /* \"TimeUnit.sol\":578:685  function elapsedSeconds() public view returns (uint256) { ... */\n    tag_18:\n      tag_81\n      tag_82\n      jump\t// in\n    tag_81:\n      mload(0x40)\n      tag_83\n      swap2\n      swap1\n      tag_30\n      jump\t// in\n    tag_83:\n      mload(0x40)\n      dup1\n      swap2\n      sub\n      swap1\n      return\n        /* \"RPS1.sol\":453:478  uint public numReveal = 0 */\n    tag_19:\n      tag_84\n      tag_85\n      jump\t// in\n    tag_84:\n      mload(0x40)\n      tag_86\n      swap2\n      swap1\n      tag_30\n      jump\t// in\n    tag_86:\n      mload(0x40)\n      dup1\n      swap2\n      sub\n      swap1\n      return\n        /* \"RPS1.sol\":1527:2013  function input(bytes32 hashAns) public {... */\n    tag_20:\n      tag_87\n      0x04\n      dup1\n      calldatasize\n      sub\n      dup2\n      add\n      swap1\n      tag_88\n      swap2\n      swap1\n      tag_38\n      jump\t// in\n    tag_88:\n      tag_89\n      jump\t// in\n    tag_87:\n      stop\n        /* \"TimeUnit.sol\":801:1084  function elapsedMinutes() public view returns (uint256) { ... */\n    tag_21:\n      tag_90\n      tag_91\n      jump\t// in\n    tag_90:\n      mload(0x40)\n      tag_92\n      swap2\n      swap1\n      tag_30\n      jump\t// in\n    tag_92:\n      mload(0x40)\n      dup1\n      swap2\n      sub\n      swap1\n      return\n        /* \"RPS1.sol\":531:555  address[] public players */\n    tag_22:\n      tag_93\n      0x04\n      dup1\n      calldatasize\n      sub\n      dup2\n      add\n      swap1\n      tag_94\n      swap2\n      swap1\n      tag_95\n      jump\t// in\n    tag_94:\n      tag_96\n      jump\t// in\n    tag_93:\n      mload(0x40)\n      tag_97\n      swap2\n      swap1\n      tag_98\n      jump\t// in\n    tag_97:\n      mload(0x40)\n      dup1\n      swap2\n      sub\n      swap1\n      return\n        /* \"RPS1.sol\":236:255  IERC20 public token */\n    tag_23:\n      tag_99\n      tag_100\n      jump\t// in\n    tag_99:\n      mload(0x40)\n      tag_101\n      swap2\n      swap1\n      tag_102\n      jump\t// in\n    tag_101:\n      mload(0x40)\n      dup1\n      swap2\n      sub\n      swap1\n      return\n        /* \"RPS1.sol\":422:446  uint public numInput = 0 */\n    tag_28:\n      sload(0x08)\n      dup2\n      jump\t// out\n        /* \"RPS1.sol\":294:316  uint public reward = 0 */\n    tag_32:\n      sload(0x05)\n      dup2\n      jump\t// out\n        /* \"RPS1.sol\":825:1461  function addPlayer() public {... */\n    tag_35:\n        /* \"RPS1.sol\":884:885  2 */\n      0x02\n        /* \"RPS1.sol\":872:881  numPlayer */\n      sload(0x04)\n        /* \"RPS1.sol\":872:885  numPlayer < 2 */\n      lt\n        /* \"RPS1.sol\":864:917  require(numPlayer < 2, \"Game already has 2 players.\") */\n      tag_104\n      jumpi\n      mload(0x40)\n      0x08c379a000000000000000000000000000000000000000000000000000000000\n      dup2\n      mstore\n      0x04\n      add\n      tag_105\n      swap1\n      tag_106\n      jump\t// in\n    tag_105:\n      mload(0x40)\n      dup1\n      swap2\n      sub\n      swap1\n      revert\n    tag_104:\n        /* \"RPS1.sol\":979:993  requiredAmount */\n      sload(0x0c)\n        /* \"RPS1.sol\":936:941  token */\n      0x03\n      0x00\n      swap1\n      sload\n      swap1\n      0x0100\n      exp\n      swap1\n      div\n      0xffffffffffffffffffffffffffffffffffffffff\n      and\n        /* \"RPS1.sol\":936:951  token.allowance */\n      0xffffffffffffffffffffffffffffffffffffffff\n      and\n      0xdd62ed3e\n        /* \"RPS1.sol\":952:962  msg.sender */\n      caller\n        /* \"RPS1.sol\":964:974  msg.sender */\n      caller\n        /* \"RPS1.sol\":936:975  token.allowance(msg.sender, msg.sender) */\n      mload(0x40)\n      dup4\n      0xffffffff\n      and\n      0xe0\n      shl\n      dup2\n      mstore\n      0x04\n      add\n      tag_107\n      swap3\n      swap2\n      swap1\n      tag_108\n      jump\t// in\n    tag_107:\n      0x20\n      mload(0x40)\n      dup1\n      dup4\n      sub\n      dup2\n      dup7\n      gas\n      staticcall\n      iszero\n      dup1\n      iszero\n      tag_110\n      jumpi\n      returndatasize\n      0x00\n      dup1\n      returndatacopy\n      revert(0x00, returndatasize)\n    tag_110:\n      pop\n      pop\n      pop\n      pop\n      mload(0x40)\n      returndatasize\n      not(0x1f)\n      0x1f\n      dup3\n      add\n      and\n      dup3\n      add\n      dup1\n      0x40\n      mstore\n      pop\n      dup2\n      add\n      swap1\n      tag_111\n      swap2\n      swap1\n      tag_112\n      jump\t// in\n    tag_111:\n        /* \"RPS1.sol\":936:993  token.allowance(msg.sender, msg.sender) >= requiredAmount */\n      lt\n      iszero\n        /* \"RPS1.sol\":928:1033  require(token.allowance(msg.sender, msg.sender) >= requiredAmount, \"Approve contract to withdraw funds.\") */\n      tag_113\n      jumpi\n      mload(0x40)\n      0x08c379a000000000000000000000000000000000000000000000000000000000\n      dup2\n      mstore\n      0x04\n      add\n      tag_114\n      swap1\n      tag_115\n      jump\t// in\n    tag_114:\n      mload(0x40)\n      dup1\n      swap2\n      sub\n      swap1\n      revert\n    tag_113:\n        /* \"RPS1.sol\":1070:1071  0 */\n      0x00\n        /* \"RPS1.sol\":1058:1067  numPlayer */\n      sload(0x04)\n        /* \"RPS1.sol\":1058:1071  numPlayer > 0 */\n      gt\n        /* \"RPS1.sol\":1054:1165  if (numPlayer > 0) {... */\n      iszero\n      tag_116\n      jumpi\n        /* \"RPS1.sol\":1110:1117  players */\n      0x0b\n        /* \"RPS1.sol\":1118:1119  0 */\n      0x00\n        /* \"RPS1.sol\":1110:1120  players[0] */\n      dup2\n      sload\n      dup2\n      lt\n      tag_117\n      jumpi\n      tag_118\n      tag_119\n      jump\t// in\n    tag_118:\n    tag_117:\n      swap1\n      0x00\n      mstore\n      keccak256(0x00, 0x20)\n      add\n      0x00\n      swap1\n      sload\n      swap1\n      0x0100\n      exp\n      swap1\n      div\n      0xffffffffffffffffffffffffffffffffffffffff\n      and\n        /* \"RPS1.sol\":1096:1120  msg.sender != players[0] */\n      0xffffffffffffffffffffffffffffffffffffffff\n      and\n        /* \"RPS1.sol\":1096:1106  msg.sender */\n      caller\n        /* \"RPS1.sol\":1096:1120  msg.sender != players[0] */\n      0xffffffffffffffffffffffffffffffffffffffff\n      and\n      sub\n        /* \"RPS1.sol\":1088:1153  require(msg.sender != players[0], \"You are already in the game.\") */\n      tag_121\n      jumpi\n      mload(0x40)\n      0x08c379a000000000000000000000000000000000000000000000000000000000\n      dup2\n      mstore\n      0x04\n      add\n      tag_122\n      swap1\n      tag_123\n      jump\t// in\n    tag_122:\n      mload(0x40)\n      dup1\n      swap2\n      sub\n      swap1\n      revert\n    tag_121:\n        /* \"RPS1.sol\":1054:1165  if (numPlayer > 0) {... */\n    tag_116:\n        /* \"RPS1.sol\":1185:1192  players */\n      0x0b\n        /* \"RPS1.sol\":1198:1208  msg.sender */\n      caller\n        /* \"RPS1.sol\":1185:1209  players.push(msg.sender) */\n      swap1\n      dup1\n      0x01\n      dup2\n      sload\n      add\n      dup1\n      dup3\n      sstore\n      dup1\n      swap2\n      pop\n      pop\n      0x01\n      swap1\n      sub\n      swap1\n      0x00\n      mstore\n      keccak256(0x00, 0x20)\n      add\n      0x00\n      swap1\n      swap2\n      swap1\n      swap2\n      swap1\n      swap2\n      0x0100\n      exp\n      dup2\n      sload\n      dup2\n      0xffffffffffffffffffffffffffffffffffffffff\n      mul\n      not\n      and\n      swap1\n      dup4\n      0xffffffffffffffffffffffffffffffffffffffff\n      and\n      mul\n      or\n      swap1\n      sstore\n      pop\n        /* \"RPS1.sol\":1248:1249  5 */\n      0x05\n        /* \"RPS1.sol\":1220:1233  player_choice */\n      0x06\n        /* \"RPS1.sol\":1220:1245  player_choice[msg.sender] */\n      0x00\n        /* \"RPS1.sol\":1234:1244  msg.sender */\n      caller\n        /* \"RPS1.sol\":1220:1245  player_choice[msg.sender] */\n      0xffffffffffffffffffffffffffffffffffffffff\n      and\n      0xffffffffffffffffffffffffffffffffffffffff\n      and\n      dup2\n      mstore\n      0x20\n      add\n      swap1\n      dup2\n      mstore\n      0x20\n      add\n      0x00\n      keccak256\n        /* \"RPS1.sol\":1220:1249  player_choice[msg.sender] = 5 */\n      dup2\n      swap1\n      sstore\n      pop\n        /* \"RPS1.sol\":1296:1301  false */\n      0x00\n        /* \"RPS1.sol\":1273:1281  isCommit */\n      0x07\n        /* \"RPS1.sol\":1273:1293  isCommit[msg.sender] */\n      0x00\n        /* \"RPS1.sol\":1282:1292  msg.sender */\n      caller\n        /* \"RPS1.sol\":1273:1293  isCommit[msg.sender] */\n      0xffffffffffffffffffffffffffffffffffffffff\n      and\n      0xffffffffffffffffffffffffffffffffffffffff\n      and\n      dup2\n      mstore\n      0x20\n      add\n      swap1\n      dup2\n      mstore\n      0x20\n      add\n      0x00\n      keccak256\n      0x00\n        /* \"RPS1.sol\":1273:1301  isCommit[msg.sender] = false */\n      0x0100\n      exp\n      dup2\n      sload\n      dup2\n      0xff\n      mul\n      not\n      and\n      swap1\n      dup4\n      iszero\n      iszero\n      mul\n      or\n      swap1\n      sstore\n      pop\n        /* \"RPS1.sol\":1312:1321  numPlayer */\n      0x04\n      0x00\n        /* \"RPS1.sol\":1312:1323  numPlayer++ */\n      dup2\n      sload\n      dup1\n      swap3\n      swap2\n      swap1\n      tag_125\n      swap1\n      tag_126\n      jump\t// in\n    tag_125:\n      swap2\n      swap1\n      pop\n      sstore\n      pop\n        /* \"RPS1.sol\":1354:1368  requiredAmount */\n      sload(0x0c)\n        /* \"RPS1.sol\":1344:1350  reward */\n      0x05\n      0x00\n        /* \"RPS1.sol\":1344:1368  reward += requiredAmount */\n      dup3\n      dup3\n      sload\n      tag_127\n      swap2\n      swap1\n      tag_128\n      jump\t// in\n    tag_127:\n      swap3\n      pop\n      pop\n      dup2\n      swap1\n      sstore\n      pop\n        /* \"RPS1.sol\":1394:1428  PlayerAdded(msg.sender, numPlayer) */\n      0x0c1de8e9993c058a253c96414b4215583b25fa35e1b6e0facf4d5a0dc2a6f3f8\n        /* \"RPS1.sol\":1406:1416  msg.sender */\n      caller\n        /* \"RPS1.sol\":1418:1427  numPlayer */\n      sload(0x04)\n        /* \"RPS1.sol\":1394:1428  PlayerAdded(msg.sender, numPlayer) */\n      mload(0x40)\n      tag_129\n      swap3\n      swap2\n      swap1\n      tag_130\n      jump\t// in\n    tag_129:\n      mload(0x40)\n      dup1\n      swap2\n      sub\n      swap1\n      log1\n        /* \"RPS1.sol\":1439:1453  setStartTime() */\n      tag_131\n        /* \"RPS1.sol\":1439:1451  setStartTime */\n      tag_132\n        /* \"RPS1.sol\":1439:1453  setStartTime() */\n      jump\t// in\n    tag_131:\n        /* \"RPS1.sol\":825:1461  function addPlayer() public {... */\n      jump\t// out\n        /* \"CommitReveal.sol\":1862:1974  function getHash(bytes32 data) public pure returns(bytes32){... */\n    tag_39:\n        /* \"CommitReveal.sol\":1913:1920  bytes32 */\n      0x00\n        /* \"CommitReveal.sol\":1962:1966  data */\n      dup2\n        /* \"CommitReveal.sol\":1945:1967  abi.encodePacked(data) */\n      add(0x20, mload(0x40))\n      tag_134\n      swap2\n      swap1\n      tag_135\n      jump\t// in\n    tag_134:\n      mload(0x40)\n      0x20\n      dup2\n      dup4\n      sub\n      sub\n      dup2\n      mstore\n      swap1\n      0x40\n      mstore\n        /* \"CommitReveal.sol\":1935:1968  keccak256(abi.encodePacked(data)) */\n      dup1\n      mload\n      swap1\n      0x20\n      add\n      keccak256\n        /* \"CommitReveal.sol\":1928:1968  return keccak256(abi.encodePacked(data)) */\n      swap1\n      pop\n        /* \"CommitReveal.sol\":1862:1974  function getHash(bytes32 data) public pure returns(bytes32){... */\n      swap2\n      swap1\n      pop\n      jump\t// out\n        /* \"RPS1.sol\":375:415  mapping(address => bool) public isCommit */\n    tag_45:\n      mstore(0x20, 0x07)\n      dup1\n      0x00\n      mstore\n      keccak256(0x00, 0x40)\n      0x00\n      swap2\n      pop\n      sload\n      swap1\n      0x0100\n      exp\n      swap1\n      div\n      0xff\n      and\n      dup2\n      jump\t// out\n        /* \"RPS1.sol\":562:608  uint256 public requiredAmount = 0.000001 ether */\n    tag_49:\n      sload(0x0c)\n      dup2\n      jump\t// out\n        /* \"RPS1.sol\":3915:5708  function timeOutWithDraw() public {... */\n    tag_52:\n        /* \"RPS1.sol\":3981:3982  1 */\n      0x01\n        /* \"RPS1.sol\":3968:3977  numPlayer */\n      sload(0x04)\n        /* \"RPS1.sol\":3968:3982  numPlayer >= 1 */\n      lt\n      iszero\n        /* \"RPS1.sol\":3960:3983  require(numPlayer >= 1) */\n      tag_137\n      jumpi\n      0x00\n      dup1\n      revert\n    tag_137:\n        /* \"RPS1.sol\":4090:4105  timeoutDuration */\n      sload(0x0a)\n        /* \"RPS1.sol\":4071:4087  elapsedSeconds() */\n      tag_138\n        /* \"RPS1.sol\":4071:4085  elapsedSeconds */\n      tag_82\n        /* \"RPS1.sol\":4071:4087  elapsedSeconds() */\n      jump\t// in\n    tag_138:\n        /* \"RPS1.sol\":4071:4105  elapsedSeconds() > timeoutDuration */\n      gt\n        /* \"RPS1.sol\":4063:4149  require(elapsedSeconds() > timeoutDuration, \"You need to wait 1 minute for withdraw.\") */\n      tag_139\n      jumpi\n      mload(0x40)\n      0x08c379a000000000000000000000000000000000000000000000000000000000\n      dup2\n      mstore\n      0x04\n      add\n      tag_140\n      swap1\n      tag_141\n      jump\t// in\n    tag_140:\n      mload(0x40)\n      dup1\n      swap2\n      sub\n      swap1\n      revert\n    tag_139:\n        /* \"RPS1.sol\":4193:4199  reward */\n      sload(0x05)\n        /* \"RPS1.sol\":4168:4189  address(this).balance */\n      selfbalance\n        /* \"RPS1.sol\":4168:4199  address(this).balance >= reward */\n      lt\n      iszero\n        /* \"RPS1.sol\":4160:4238  require(address(this).balance >= reward, \"Contract has insufficient balance.\") */\n      tag_142\n      jumpi\n      mload(0x40)\n      0x08c379a000000000000000000000000000000000000000000000000000000000\n      dup2\n      mstore\n      0x04\n      add\n      tag_143\n      swap1\n      tag_144\n      jump\t// in\n    tag_143:\n      mload(0x40)\n      dup1\n      swap2\n      sub\n      swap1\n      revert\n    tag_142:\n        /* \"RPS1.sol\":4249:4273  address payable account0 */\n      0x00\n        /* \"RPS1.sol\":4284:4291  players */\n      0x0b\n        /* \"RPS1.sol\":4292:4293  0 */\n      0x00\n        /* \"RPS1.sol\":4284:4294  players[0] */\n      dup2\n      sload\n      dup2\n      lt\n      tag_145\n      jumpi\n      tag_146\n      tag_119\n      jump\t// in\n    tag_146:\n    tag_145:\n      swap1\n      0x00\n      mstore\n      keccak256(0x00, 0x20)\n      add\n      0x00\n      swap1\n      sload\n      swap1\n      0x0100\n      exp\n      swap1\n      div\n      0xffffffffffffffffffffffffffffffffffffffff\n      and\n        /* \"RPS1.sol\":4249:4295  address payable account0 = payable(players[0]) */\n      swap1\n      pop\n        /* \"RPS1.sol\":4351:4352  1 */\n      0x01\n        /* \"RPS1.sol\":4338:4347  numPlayer */\n      sload(0x04)\n        /* \"RPS1.sol\":4338:4352  numPlayer == 1 */\n      sub\n        /* \"RPS1.sol\":4334:5701  if (numPlayer == 1) {... */\n      tag_148\n      jumpi\n        /* \"RPS1.sol\":4369:4374  token */\n      0x03\n      0x00\n      swap1\n      sload\n      swap1\n      0x0100\n      exp\n      swap1\n      div\n      0xffffffffffffffffffffffffffffffffffffffff\n      and\n        /* \"RPS1.sol\":4369:4383  token.transfer */\n      0xffffffffffffffffffffffffffffffffffffffff\n      and\n      0xa9059cbb\n        /* \"RPS1.sol\":4384:4391  players */\n      0x0b\n        /* \"RPS1.sol\":4392:4393  0 */\n      0x00\n        /* \"RPS1.sol\":4384:4394  players[0] */\n      dup2\n      sload\n      dup2\n      lt\n      tag_149\n      jumpi\n      tag_150\n      tag_119\n      jump\t// in\n    tag_150:\n    tag_149:\n      swap1\n      0x00\n      mstore\n      keccak256(0x00, 0x20)\n      add\n      0x00\n      swap1\n      sload\n      swap1\n      0x0100\n      exp\n      swap1\n      div\n      0xffffffffffffffffffffffffffffffffffffffff\n      and\n        /* \"RPS1.sol\":4396:4402  reward */\n      sload(0x05)\n        /* \"RPS1.sol\":4369:4403  token.transfer(players[0], reward) */\n      mload(0x40)\n      dup4\n      0xffffffff\n      and\n      0xe0\n      shl\n      dup2\n      mstore\n      0x04\n      add\n      tag_152\n      swap3\n      swap2\n      swap1\n      tag_130\n      jump\t// in\n    tag_152:\n      0x20\n      mload(0x40)\n      dup1\n      dup4\n      sub\n      dup2\n      0x00\n      dup8\n      gas\n      call\n      iszero\n      dup1\n      iszero\n      tag_154\n      jumpi\n      returndatasize\n      0x00\n      dup1\n      returndatacopy\n      revert(0x00, returndatasize)\n    tag_154:\n      pop\n      pop\n      pop\n      pop\n      mload(0x40)\n      returndatasize\n      not(0x1f)\n      0x1f\n      dup3\n      add\n      and\n      dup3\n      add\n      dup1\n      0x40\n      mstore\n      pop\n      dup2\n      add\n      swap1\n      tag_155\n      swap2\n      swap1\n      tag_156\n      jump\t// in\n    tag_155:\n      pop\n        /* \"RPS1.sol\":4418:4426  _reset() */\n      tag_157\n        /* \"RPS1.sol\":4418:4424  _reset */\n      tag_158\n        /* \"RPS1.sol\":4418:4426  _reset() */\n      jump\t// in\n    tag_157:\n        /* \"RPS1.sol\":4334:5701  if (numPlayer == 1) {... */\n      jump(tag_159)\n    tag_148:\n        /* \"RPS1.sol\":4470:4471  2 */\n      0x02\n        /* \"RPS1.sol\":4457:4466  numPlayer */\n      sload(0x04)\n        /* \"RPS1.sol\":4457:4471  numPlayer == 2 */\n      sub\n        /* \"RPS1.sol\":4453:5701  if (numPlayer == 2) {... */\n      tag_160\n      jumpi\n        /* \"RPS1.sol\":4567:4568  0 */\n      0x00\n        /* \"RPS1.sol\":4555:4563  numInput */\n      sload(0x08)\n        /* \"RPS1.sol\":4555:4568  numInput == 0 */\n      eq\n        /* \"RPS1.sol\":4555:4605  numInput == 0 || (numInput == 2 && numReveal == 0) */\n      dup1\n      tag_161\n      jumpi\n      pop\n        /* \"RPS1.sol\":4585:4586  2 */\n      0x02\n        /* \"RPS1.sol\":4573:4581  numInput */\n      sload(0x08)\n        /* \"RPS1.sol\":4573:4586  numInput == 2 */\n      eq\n        /* \"RPS1.sol\":4573:4604  numInput == 2 && numReveal == 0 */\n      dup1\n      iszero\n      tag_162\n      jumpi\n      pop\n        /* \"RPS1.sol\":4603:4604  0 */\n      0x00\n        /* \"RPS1.sol\":4590:4599  numReveal */\n      sload(0x09)\n        /* \"RPS1.sol\":4590:4604  numReveal == 0 */\n      eq\n        /* \"RPS1.sol\":4573:4604  numInput == 2 && numReveal == 0 */\n    tag_162:\n        /* \"RPS1.sol\":4555:4605  numInput == 0 || (numInput == 2 && numReveal == 0) */\n    tag_161:\n        /* \"RPS1.sol\":4551:5690  if (numInput == 0 || (numInput == 2 && numReveal == 0)) {... */\n      iszero\n      tag_163\n      jumpi\n        /* \"RPS1.sol\":4626:4631  token */\n      0x03\n      0x00\n      swap1\n      sload\n      swap1\n      0x0100\n      exp\n      swap1\n      div\n      0xffffffffffffffffffffffffffffffffffffffff\n      and\n        /* \"RPS1.sol\":4626:4640  token.transfer */\n      0xffffffffffffffffffffffffffffffffffffffff\n      and\n      0xa9059cbb\n        /* \"RPS1.sol\":4641:4648  players */\n      0x0b\n        /* \"RPS1.sol\":4649:4650  0 */\n      0x00\n        /* \"RPS1.sol\":4641:4651  players[0] */\n      dup2\n      sload\n      dup2\n      lt\n      tag_164\n      jumpi\n      tag_165\n      tag_119\n      jump\t// in\n    tag_165:\n    tag_164:\n      swap1\n      0x00\n      mstore\n      keccak256(0x00, 0x20)\n      add\n      0x00\n      swap1\n      sload\n      swap1\n      0x0100\n      exp\n      swap1\n      div\n      0xffffffffffffffffffffffffffffffffffffffff\n      and\n        /* \"RPS1.sol\":4660:4661  2 */\n      0x02\n        /* \"RPS1.sol\":4653:4659  reward */\n      sload(0x05)\n        /* \"RPS1.sol\":4653:4661  reward/2 */\n      tag_167\n      swap2\n      swap1\n      tag_168\n      jump\t// in\n    tag_167:\n        /* \"RPS1.sol\":4626:4662  token.transfer(players[0], reward/2) */\n      mload(0x40)\n      dup4\n      0xffffffff\n      and\n      0xe0\n      shl\n      dup2\n      mstore\n      0x04\n      add\n      tag_169\n      swap3\n      swap2\n      swap1\n      tag_130\n      jump\t// in\n    tag_169:\n      0x20\n      mload(0x40)\n      dup1\n      dup4\n      sub\n      dup2\n      0x00\n      dup8\n      gas\n      call\n      iszero\n      dup1\n      iszero\n      tag_171\n      jumpi\n      returndatasize\n      0x00\n      dup1\n      returndatacopy\n      revert(0x00, returndatasize)\n    tag_171:\n      pop\n      pop\n      pop\n      pop\n      mload(0x40)\n      returndatasize\n      not(0x1f)\n      0x1f\n      dup3\n      add\n      and\n      dup3\n      add\n      dup1\n      0x40\n      mstore\n      pop\n      dup2\n      add\n      swap1\n      tag_172\n      swap2\n      swap1\n      tag_156\n      jump\t// in\n    tag_172:\n      pop\n        /* \"RPS1.sol\":4681:4686  token */\n      0x03\n      0x00\n      swap1\n      sload\n      swap1\n      0x0100\n      exp\n      swap1\n      div\n      0xffffffffffffffffffffffffffffffffffffffff\n      and\n        /* \"RPS1.sol\":4681:4695  token.transfer */\n      0xffffffffffffffffffffffffffffffffffffffff\n      and\n      0xa9059cbb\n        /* \"RPS1.sol\":4696:4703  players */\n      0x0b\n        /* \"RPS1.sol\":4704:4705  1 */\n      0x01\n        /* \"RPS1.sol\":4696:4706  players[1] */\n      dup2\n      sload\n      dup2\n      lt\n      tag_173\n      jumpi\n      tag_174\n      tag_119\n      jump\t// in\n    tag_174:\n    tag_173:\n      swap1\n      0x00\n      mstore\n      keccak256(0x00, 0x20)\n      add\n      0x00\n      swap1\n      sload\n      swap1\n      0x0100\n      exp\n      swap1\n      div\n      0xffffffffffffffffffffffffffffffffffffffff\n      and\n        /* \"RPS1.sol\":4715:4716  2 */\n      0x02\n        /* \"RPS1.sol\":4708:4714  reward */\n      sload(0x05)\n        /* \"RPS1.sol\":4708:4716  reward/2 */\n      tag_176\n      swap2\n      swap1\n      tag_168\n      jump\t// in\n    tag_176:\n        /* \"RPS1.sol\":4681:4717  token.transfer(players[1], reward/2) */\n      mload(0x40)\n      dup4\n      0xffffffff\n      and\n      0xe0\n      shl\n      dup2\n      mstore\n      0x04\n      add\n      tag_177\n      swap3\n      swap2\n      swap1\n      tag_130\n      jump\t// in\n    tag_177:\n      0x20\n      mload(0x40)\n      dup1\n      dup4\n      sub\n      dup2\n      0x00\n      dup8\n      gas\n      call\n      iszero\n      dup1\n      iszero\n      tag_179\n      jumpi\n      returndatasize\n      0x00\n      dup1\n      returndatacopy\n      revert(0x00, returndatasize)\n    tag_179:\n      pop\n      pop\n      pop\n      pop\n      mload(0x40)\n      returndatasize\n      not(0x1f)\n      0x1f\n      dup3\n      add\n      and\n      dup3\n      add\n      dup1\n      0x40\n      mstore\n      pop\n      dup2\n      add\n      swap1\n      tag_180\n      swap2\n      swap1\n      tag_156\n      jump\t// in\n    tag_180:\n      pop\n        /* \"RPS1.sol\":4736:4744  _reset() */\n      tag_181\n        /* \"RPS1.sol\":4736:4742  _reset */\n      tag_158\n        /* \"RPS1.sol\":4736:4744  _reset() */\n      jump\t// in\n    tag_181:\n        /* \"RPS1.sol\":4551:5690  if (numInput == 0 || (numInput == 2 && numReveal == 0)) {... */\n      jump(tag_182)\n    tag_163:\n        /* \"RPS1.sol\":4839:4840  1 */\n      0x01\n        /* \"RPS1.sol\":4827:4835  numInput */\n      sload(0x08)\n        /* \"RPS1.sol\":4827:4840  numInput == 1 */\n      sub\n        /* \"RPS1.sol\":4823:5690  if (numInput == 1) {... */\n      tag_183\n      jumpi\n        /* \"RPS1.sol\":4935:4939  true */\n      0x01\n        /* \"RPS1.sol\":4913:4939  isCommit[account0] == true */\n      iszero\n      iszero\n        /* \"RPS1.sol\":4913:4921  isCommit */\n      0x07\n        /* \"RPS1.sol\":4913:4931  isCommit[account0] */\n      0x00\n        /* \"RPS1.sol\":4922:4930  account0 */\n      dup4\n        /* \"RPS1.sol\":4913:4931  isCommit[account0] */\n      0xffffffffffffffffffffffffffffffffffffffff\n      and\n      0xffffffffffffffffffffffffffffffffffffffff\n      and\n      dup2\n      mstore\n      0x20\n      add\n      swap1\n      dup2\n      mstore\n      0x20\n      add\n      0x00\n      keccak256\n      0x00\n      swap1\n      sload\n      swap1\n      0x0100\n      exp\n      swap1\n      div\n      0xff\n      and\n        /* \"RPS1.sol\":4913:4939  isCommit[account0] == true */\n      iszero\n      iszero\n      sub\n        /* \"RPS1.sol\":4909:5118  if (isCommit[account0] == true) {... */\n      tag_184\n      jumpi\n        /* \"RPS1.sol\":4964:4969  token */\n      0x03\n      0x00\n      swap1\n      sload\n      swap1\n      0x0100\n      exp\n      swap1\n      div\n      0xffffffffffffffffffffffffffffffffffffffff\n      and\n        /* \"RPS1.sol\":4964:4978  token.transfer */\n      0xffffffffffffffffffffffffffffffffffffffff\n      and\n      0xa9059cbb\n        /* \"RPS1.sol\":4979:4986  players */\n      0x0b\n        /* \"RPS1.sol\":4987:4988  0 */\n      0x00\n        /* \"RPS1.sol\":4979:4989  players[0] */\n      dup2\n      sload\n      dup2\n      lt\n      tag_185\n      jumpi\n      tag_186\n      tag_119\n      jump\t// in\n    tag_186:\n    tag_185:\n      swap1\n      0x00\n      mstore\n      keccak256(0x00, 0x20)\n      add\n      0x00\n      swap1\n      sload\n      swap1\n      0x0100\n      exp\n      swap1\n      div\n      0xffffffffffffffffffffffffffffffffffffffff\n      and\n        /* \"RPS1.sol\":4991:4997  reward */\n      sload(0x05)\n        /* \"RPS1.sol\":4964:4998  token.transfer(players[0], reward) */\n      mload(0x40)\n      dup4\n      0xffffffff\n      and\n      0xe0\n      shl\n      dup2\n      mstore\n      0x04\n      add\n      tag_188\n      swap3\n      swap2\n      swap1\n      tag_130\n      jump\t// in\n    tag_188:\n      0x20\n      mload(0x40)\n      dup1\n      dup4\n      sub\n      dup2\n      0x00\n      dup8\n      gas\n      call\n      iszero\n      dup1\n      iszero\n      tag_190\n      jumpi\n      returndatasize\n      0x00\n      dup1\n      returndatacopy\n      revert(0x00, returndatasize)\n    tag_190:\n      pop\n      pop\n      pop\n      pop\n      mload(0x40)\n      returndatasize\n      not(0x1f)\n      0x1f\n      dup3\n      add\n      and\n      dup3\n      add\n      dup1\n      0x40\n      mstore\n      pop\n      dup2\n      add\n      swap1\n      tag_191\n      swap2\n      swap1\n      tag_156\n      jump\t// in\n    tag_191:\n      pop\n        /* \"RPS1.sol\":4909:5118  if (isCommit[account0] == true) {... */\n      jump(tag_192)\n    tag_184:\n        /* \"RPS1.sol\":5064:5069  token */\n      0x03\n      0x00\n      swap1\n      sload\n      swap1\n      0x0100\n      exp\n      swap1\n      div\n      0xffffffffffffffffffffffffffffffffffffffff\n      and\n        /* \"RPS1.sol\":5064:5078  token.transfer */\n      0xffffffffffffffffffffffffffffffffffffffff\n      and\n      0xa9059cbb\n        /* \"RPS1.sol\":5079:5086  players */\n      0x0b\n        /* \"RPS1.sol\":5087:5088  1 */\n      0x01\n        /* \"RPS1.sol\":5079:5089  players[1] */\n      dup2\n      sload\n      dup2\n      lt\n      tag_193\n      jumpi\n      tag_194\n      tag_119\n      jump\t// in\n    tag_194:\n    tag_193:\n      swap1\n      0x00\n      mstore\n      keccak256(0x00, 0x20)\n      add\n      0x00\n      swap1\n      sload\n      swap1\n      0x0100\n      exp\n      swap1\n      div\n      0xffffffffffffffffffffffffffffffffffffffff\n      and\n        /* \"RPS1.sol\":5091:5097  reward */\n      sload(0x05)\n        /* \"RPS1.sol\":5064:5098  token.transfer(players[1], reward) */\n      mload(0x40)\n      dup4\n      0xffffffff\n      and\n      0xe0\n      shl\n      dup2\n      mstore\n      0x04\n      add\n      tag_196\n      swap3\n      swap2\n      swap1\n      tag_130\n      jump\t// in\n    tag_196:\n      0x20\n      mload(0x40)\n      dup1\n      dup4\n      sub\n      dup2\n      0x00\n      dup8\n      gas\n      call\n      iszero\n      dup1\n      iszero\n      tag_198\n      jumpi\n      returndatasize\n      0x00\n      dup1\n      returndatacopy\n      revert(0x00, returndatasize)\n    tag_198:\n      pop\n      pop\n      pop\n      pop\n      mload(0x40)\n      returndatasize\n      not(0x1f)\n      0x1f\n      dup3\n      add\n      and\n      dup3\n      add\n      dup1\n      0x40\n      mstore\n      pop\n      dup2\n      add\n      swap1\n      tag_199\n      swap2\n      swap1\n      tag_156\n      jump\t// in\n    tag_199:\n      pop\n        /* \"RPS1.sol\":4909:5118  if (isCommit[account0] == true) {... */\n    tag_192:\n        /* \"RPS1.sol\":5136:5144  _reset() */\n      tag_200\n        /* \"RPS1.sol\":5136:5142  _reset */\n      tag_158\n        /* \"RPS1.sol\":5136:5144  _reset() */\n      jump\t// in\n    tag_200:\n        /* \"RPS1.sol\":4823:5690  if (numInput == 1) {... */\n      jump(tag_201)\n    tag_183:\n        /* \"RPS1.sol\":5240:5241  2 */\n      0x02\n        /* \"RPS1.sol\":5228:5236  numInput */\n      sload(0x08)\n        /* \"RPS1.sol\":5228:5241  numInput == 2 */\n      eq\n        /* \"RPS1.sol\":5228:5259  numInput == 2 && numReveal == 1 */\n      dup1\n      iszero\n      tag_202\n      jumpi\n      pop\n        /* \"RPS1.sol\":5258:5259  1 */\n      0x01\n        /* \"RPS1.sol\":5245:5254  numReveal */\n      sload(0x09)\n        /* \"RPS1.sol\":5245:5259  numReveal == 1 */\n      eq\n        /* \"RPS1.sol\":5228:5259  numInput == 2 && numReveal == 1 */\n    tag_202:\n        /* \"RPS1.sol\":5224:5690  if (numInput == 2 && numReveal == 1) {... */\n      iszero\n      tag_203\n      jumpi\n        /* \"RPS1.sol\":5360:5361  5 */\n      0x05\n        /* \"RPS1.sol\":5333:5346  player_choice */\n      0x06\n        /* \"RPS1.sol\":5333:5356  player_choice[account0] */\n      0x00\n        /* \"RPS1.sol\":5347:5355  account0 */\n      dup4\n        /* \"RPS1.sol\":5333:5356  player_choice[account0] */\n      0xffffffffffffffffffffffffffffffffffffffff\n      and\n      0xffffffffffffffffffffffffffffffffffffffff\n      and\n      dup2\n      mstore\n      0x20\n      add\n      swap1\n      dup2\n      mstore\n      0x20\n      add\n      0x00\n      keccak256\n      sload\n        /* \"RPS1.sol\":5333:5361  player_choice[account0] != 5 */\n      eq\n        /* \"RPS1.sol\":5329:5540  if (player_choice[account0] != 5) {... */\n      tag_204\n      jumpi\n        /* \"RPS1.sol\":5386:5391  token */\n      0x03\n      0x00\n      swap1\n      sload\n      swap1\n      0x0100\n      exp\n      swap1\n      div\n      0xffffffffffffffffffffffffffffffffffffffff\n      and\n        /* \"RPS1.sol\":5386:5400  token.transfer */\n      0xffffffffffffffffffffffffffffffffffffffff\n      and\n      0xa9059cbb\n        /* \"RPS1.sol\":5401:5408  players */\n      0x0b\n        /* \"RPS1.sol\":5409:5410  0 */\n      0x00\n        /* \"RPS1.sol\":5401:5411  players[0] */\n      dup2\n      sload\n      dup2\n      lt\n      tag_205\n      jumpi\n      tag_206\n      tag_119\n      jump\t// in\n    tag_206:\n    tag_205:\n      swap1\n      0x00\n      mstore\n      keccak256(0x00, 0x20)\n      add\n      0x00\n      swap1\n      sload\n      swap1\n      0x0100\n      exp\n      swap1\n      div\n      0xffffffffffffffffffffffffffffffffffffffff\n      and\n        /* \"RPS1.sol\":5413:5419  reward */\n      sload(0x05)\n        /* \"RPS1.sol\":5386:5420  token.transfer(players[0], reward) */\n      mload(0x40)\n      dup4\n      0xffffffff\n      and\n      0xe0\n      shl\n      dup2\n      mstore\n      0x04\n      add\n      tag_208\n      swap3\n      swap2\n      swap1\n      tag_130\n      jump\t// in\n    tag_208:\n      0x20\n      mload(0x40)\n      dup1\n      dup4\n      sub\n      dup2\n      0x00\n      dup8\n      gas\n      call\n      iszero\n      dup1\n      iszero\n      tag_210\n      jumpi\n      returndatasize\n      0x00\n      dup1\n      returndatacopy\n      revert(0x00, returndatasize)\n    tag_210:\n      pop\n      pop\n      pop\n      pop\n      mload(0x40)\n      returndatasize\n      not(0x1f)\n      0x1f\n      dup3\n      add\n      and\n      dup3\n      add\n      dup1\n      0x40\n      mstore\n      pop\n      dup2\n      add\n      swap1\n      tag_211\n      swap2\n      swap1\n      tag_156\n      jump\t// in\n    tag_211:\n      pop\n        /* \"RPS1.sol\":5329:5540  if (player_choice[account0] != 5) {... */\n      jump(tag_212)\n    tag_204:\n        /* \"RPS1.sol\":5486:5491  token */\n      0x03\n      0x00\n      swap1\n      sload\n      swap1\n      0x0100\n      exp\n      swap1\n      div\n      0xffffffffffffffffffffffffffffffffffffffff\n      and\n        /* \"RPS1.sol\":5486:5500  token.transfer */\n      0xffffffffffffffffffffffffffffffffffffffff\n      and\n      0xa9059cbb\n        /* \"RPS1.sol\":5501:5508  players */\n      0x0b\n        /* \"RPS1.sol\":5509:5510  1 */\n      0x01\n        /* \"RPS1.sol\":5501:5511  players[1] */\n      dup2\n      sload\n      dup2\n      lt\n      tag_213\n      jumpi\n      tag_214\n      tag_119\n      jump\t// in\n    tag_214:\n    tag_213:\n      swap1\n      0x00\n      mstore\n      keccak256(0x00, 0x20)\n      add\n      0x00\n      swap1\n      sload\n      swap1\n      0x0100\n      exp\n      swap1\n      div\n      0xffffffffffffffffffffffffffffffffffffffff\n      and\n        /* \"RPS1.sol\":5513:5519  reward */\n      sload(0x05)\n        /* \"RPS1.sol\":5486:5520  token.transfer(players[1], reward) */\n      mload(0x40)\n      dup4\n      0xffffffff\n      and\n      0xe0\n      shl\n      dup2\n      mstore\n      0x04\n      add\n      tag_216\n      swap3\n      swap2\n      swap1\n      tag_130\n      jump\t// in\n    tag_216:\n      0x20\n      mload(0x40)\n      dup1\n      dup4\n      sub\n      dup2\n      0x00\n      dup8\n      gas\n      call\n      iszero\n      dup1\n      iszero\n      tag_218\n      jumpi\n      returndatasize\n      0x00\n      dup1\n      returndatacopy\n      revert(0x00, returndatasize)\n    tag_218:\n      pop\n      pop\n      pop\n      pop\n      mload(0x40)\n      returndatasize\n      not(0x1f)\n      0x1f\n      dup3\n      add\n      and\n      dup3\n      add\n      dup1\n      0x40\n      mstore\n      pop\n      dup2\n      add\n      swap1\n      tag_219\n      swap2\n      swap1\n      tag_156\n      jump\t// in\n    tag_219:\n      pop\n        /* \"RPS1.sol\":5329:5540  if (player_choice[account0] != 5) {... */\n    tag_212:\n        /* \"RPS1.sol\":5558:5566  _reset() */\n      tag_220\n        /* \"RPS1.sol\":5558:5564  _reset */\n      tag_158\n        /* \"RPS1.sol\":5558:5566  _reset() */\n      jump\t// in\n    tag_220:\n        /* \"RPS1.sol\":5224:5690  if (numInput == 2 && numReveal == 1) {... */\n      jump(tag_221)\n    tag_203:\n        /* \"RPS1.sol\":5618:5619  2 */\n      0x02\n        /* \"RPS1.sol\":5605:5614  numReveal */\n      sload(0x09)\n        /* \"RPS1.sol\":5605:5619  numReveal == 2 */\n      sub\n        /* \"RPS1.sol\":5601:5690  if (numReveal == 2) {... */\n      tag_222\n      jumpi\n        /* \"RPS1.sol\":5640:5645  token */\n      0x03\n      0x00\n      swap1\n      sload\n      swap1\n      0x0100\n      exp\n      swap1\n      div\n      0xffffffffffffffffffffffffffffffffffffffff\n      and\n        /* \"RPS1.sol\":5640:5654  token.transfer */\n      0xffffffffffffffffffffffffffffffffffffffff\n      and\n      0xa9059cbb\n        /* \"RPS1.sol\":5655:5665  msg.sender */\n      caller\n        /* \"RPS1.sol\":5667:5673  reward */\n      sload(0x05)\n        /* \"RPS1.sol\":5640:5674  token.transfer(msg.sender, reward) */\n      mload(0x40)\n      dup4\n      0xffffffff\n      and\n      0xe0\n      shl\n      dup2\n      mstore\n      0x04\n      add\n      tag_223\n      swap3\n      swap2\n      swap1\n      tag_130\n      jump\t// in\n    tag_223:\n      0x20\n      mload(0x40)\n      dup1\n      dup4\n      sub\n      dup2\n      0x00\n      dup8\n      gas\n      call\n      iszero\n      dup1\n      iszero\n      tag_225\n      jumpi\n      returndatasize\n      0x00\n      dup1\n      returndatacopy\n      revert(0x00, returndatasize)\n    tag_225:\n      pop\n      pop\n      pop\n      pop\n      mload(0x40)\n      returndatasize\n      not(0x1f)\n      0x1f\n      dup3\n      add\n      and\n      dup3\n      add\n      dup1\n      0x40\n      mstore\n      pop\n      dup2\n      add\n      swap1\n      tag_226\n      swap2\n      swap1\n      tag_156\n      jump\t// in\n    tag_226:\n      pop\n        /* \"RPS1.sol\":5601:5690  if (numReveal == 2) {... */\n    tag_222:\n        /* \"RPS1.sol\":5224:5690  if (numInput == 2 && numReveal == 1) {... */\n    tag_221:\n        /* \"RPS1.sol\":4823:5690  if (numInput == 1) {... */\n    tag_201:\n        /* \"RPS1.sol\":4551:5690  if (numInput == 0 || (numInput == 2 && numReveal == 0)) {... */\n    tag_182:\n        /* \"RPS1.sol\":4453:5701  if (numPlayer == 2) {... */\n    tag_160:\n        /* \"RPS1.sol\":4334:5701  if (numPlayer == 1) {... */\n    tag_159:\n        /* \"RPS1.sol\":3949:5708  {... */\n      pop\n        /* \"RPS1.sol\":3915:5708  function timeOutWithDraw() public {... */\n      jump\t// out\n        /* \"RPS1.sol\":2085:2650  function revealChoice(bytes32 hashChoice) public {... */\n    tag_55:\n        /* \"RPS1.sol\":2166:2167  2 */\n      0x02\n        /* \"RPS1.sol\":2153:2162  numPlayer */\n      sload(0x04)\n        /* \"RPS1.sol\":2153:2167  numPlayer == 2 */\n      eq\n        /* \"RPS1.sol\":2145:2168  require(numPlayer == 2) */\n      tag_228\n      jumpi\n      0x00\n      dup1\n      revert\n    tag_228:\n        /* \"RPS1.sol\":2199:2200  2 */\n      0x02\n        /* \"RPS1.sol\":2187:2195  numInput */\n      sload(0x08)\n        /* \"RPS1.sol\":2187:2200  numInput == 2 */\n      eq\n        /* \"RPS1.sol\":2179:2201  require(numInput == 2) */\n      tag_229\n      jumpi\n      0x00\n      dup1\n      revert\n    tag_229:\n        /* \"RPS1.sol\":2220:2228  isCommit */\n      0x07\n        /* \"RPS1.sol\":2220:2240  isCommit[msg.sender] */\n      0x00\n        /* \"RPS1.sol\":2229:2239  msg.sender */\n      caller\n        /* \"RPS1.sol\":2220:2240  isCommit[msg.sender] */\n      0xffffffffffffffffffffffffffffffffffffffff\n      and\n      0xffffffffffffffffffffffffffffffffffffffff\n      and\n      dup2\n      mstore\n      0x20\n      add\n      swap1\n      dup2\n      mstore\n      0x20\n      add\n      0x00\n      keccak256\n      0x00\n      swap1\n      sload\n      swap1\n      0x0100\n      exp\n      swap1\n      div\n      0xff\n      and\n        /* \"RPS1.sol\":2212:2270  require(isCommit[msg.sender], \"You need to commit first.\") */\n      tag_230\n      jumpi\n      mload(0x40)\n      0x08c379a000000000000000000000000000000000000000000000000000000000\n      dup2\n      mstore\n      0x04\n      add\n      tag_231\n      swap1\n      tag_232\n      jump\t// in\n    tag_231:\n      mload(0x40)\n      dup1\n      swap2\n      sub\n      swap1\n      revert\n    tag_230:\n        /* \"RPS1.sol\":2291:2302  uint choice */\n      0x00\n        /* \"RPS1.sol\":2311:2321  hashChoice */\n      dup2\n        /* \"RPS1.sol\":2322:2324  31 */\n      0x1f\n        /* \"RPS1.sol\":2311:2325  hashChoice[31] */\n      0x20\n      dup2\n      lt\n      tag_233\n      jumpi\n      tag_234\n      tag_119\n      jump\t// in\n    tag_234:\n    tag_233:\n      byte\n      0xf8\n      shl\n        /* \"RPS1.sol\":2305:2326  uint8(hashChoice[31]) */\n      0xf8\n      shr\n        /* \"RPS1.sol\":2291:2326  uint choice = uint8(hashChoice[31]) */\n      0xff\n      and\n      swap1\n      pop\n        /* \"RPS1.sol\":2355:2356  0 */\n      0x00\n        /* \"RPS1.sol\":2345:2351  choice */\n      dup2\n        /* \"RPS1.sol\":2345:2356  choice >= 0 */\n      lt\n      iszero\n        /* \"RPS1.sol\":2345:2371  choice >= 0 && choice <= 4 */\n      dup1\n      iszero\n      tag_235\n      jumpi\n      pop\n        /* \"RPS1.sol\":2370:2371  4 */\n      0x04\n        /* \"RPS1.sol\":2360:2366  choice */\n      dup2\n        /* \"RPS1.sol\":2360:2371  choice <= 4 */\n      gt\n      iszero\n        /* \"RPS1.sol\":2345:2371  choice >= 0 && choice <= 4 */\n    tag_235:\n        /* \"RPS1.sol\":2337:2391  require(choice >= 0 && choice <= 4, \"Invalid choice.\") */\n      tag_236\n      jumpi\n      mload(0x40)\n      0x08c379a000000000000000000000000000000000000000000000000000000000\n      dup2\n      mstore\n      0x04\n      add\n      tag_237\n      swap1\n      tag_238\n      jump\t// in\n    tag_237:\n      mload(0x40)\n      dup1\n      swap2\n      sub\n      swap1\n      revert\n    tag_236:\n        /* \"RPS1.sol\":2412:2430  reveal(hashChoice) */\n      tag_239\n        /* \"RPS1.sol\":2419:2429  hashChoice */\n      dup3\n        /* \"RPS1.sol\":2412:2418  reveal */\n      tag_240\n        /* \"RPS1.sol\":2412:2430  reveal(hashChoice) */\n      jump\t// in\n    tag_239:\n        /* \"RPS1.sol\":2469:2475  choice */\n      dup1\n        /* \"RPS1.sol\":2441:2454  player_choice */\n      0x06\n        /* \"RPS1.sol\":2441:2466  player_choice[msg.sender] */\n      0x00\n        /* \"RPS1.sol\":2455:2465  msg.sender */\n      caller\n        /* \"RPS1.sol\":2441:2466  player_choice[msg.sender] */\n      0xffffffffffffffffffffffffffffffffffffffff\n      and\n      0xffffffffffffffffffffffffffffffffffffffff\n      and\n      dup2\n      mstore\n      0x20\n      add\n      swap1\n      dup2\n      mstore\n      0x20\n      add\n      0x00\n      keccak256\n        /* \"RPS1.sol\":2441:2475  player_choice[msg.sender] = choice */\n      dup2\n      swap1\n      sstore\n      pop\n        /* \"RPS1.sol\":2486:2495  numReveal */\n      0x09\n      0x00\n        /* \"RPS1.sol\":2486:2497  numReveal++ */\n      dup2\n      sload\n      dup1\n      swap3\n      swap2\n      swap1\n      tag_241\n      swap1\n      tag_126\n      jump\t// in\n    tag_241:\n      swap2\n      swap1\n      pop\n      sstore\n      pop\n        /* \"RPS1.sol\":2518:2532  setStartTime() */\n      tag_242\n        /* \"RPS1.sol\":2518:2530  setStartTime */\n      tag_132\n        /* \"RPS1.sol\":2518:2532  setStartTime() */\n      jump\t// in\n    tag_242:\n        /* \"RPS1.sol\":2570:2571  2 */\n      0x02\n        /* \"RPS1.sol\":2557:2566  numReveal */\n      sload(0x09)\n        /* \"RPS1.sol\":2557:2571  numReveal == 2 */\n      sub\n        /* \"RPS1.sol\":2553:2643  if (numReveal == 2) {... */\n      tag_243\n      jumpi\n        /* \"RPS1.sol\":2588:2608  _checkWinnerAndPay() */\n      tag_244\n        /* \"RPS1.sol\":2588:2606  _checkWinnerAndPay */\n      tag_245\n        /* \"RPS1.sol\":2588:2608  _checkWinnerAndPay() */\n      jump\t// in\n    tag_244:\n        /* \"RPS1.sol\":2623:2631  _reset() */\n      tag_246\n        /* \"RPS1.sol\":2623:2629  _reset */\n      tag_158\n        /* \"RPS1.sol\":2623:2631  _reset() */\n      jump\t// in\n    tag_246:\n        /* \"RPS1.sol\":2553:2643  if (numReveal == 2) {... */\n    tag_243:\n        /* \"RPS1.sol\":2134:2650  {... */\n      pop\n        /* \"RPS1.sol\":2085:2650  function revealChoice(bytes32 hashChoice) public {... */\n      pop\n      jump\t// out\n        /* \"CommitReveal.sol\":103:125  uint8 public max = 100 */\n    tag_57:\n      0x00\n      dup1\n      sload\n      swap1\n      0x0100\n      exp\n      swap1\n      div\n      0xff\n      and\n      dup2\n      jump\t// out\n        /* \"TimeUnit.sol\":307:331  uint256 public startTime */\n    tag_61:\n      sload(0x02)\n      dup2\n      jump\t// out\n        /* \"CommitReveal.sol\":218:260  mapping (address => Commit) public commits */\n    tag_65:\n      mstore(0x20, 0x01)\n      dup1\n      0x00\n      mstore\n      keccak256(0x00, 0x40)\n      0x00\n      swap2\n      pop\n      swap1\n      pop\n      dup1\n      0x00\n      add\n      sload\n      swap1\n      dup1\n      0x01\n      add\n      0x00\n      swap1\n      sload\n      swap1\n      0x0100\n      exp\n      swap1\n      div\n      0xffffffffffffffff\n      and\n      swap1\n      dup1\n      0x01\n      add\n      0x08\n      swap1\n      sload\n      swap1\n      0x0100\n      exp\n      swap1\n      div\n      0xff\n      and\n      swap1\n      pop\n      dup4\n      jump\t// out\n        /* \"RPS1.sol\":485:524  uint public timeoutDuration = 1 minutes */\n    tag_69:\n      sload(0x0a)\n      dup2\n      jump\t// out\n        /* \"RPS1.sol\":262:287  uint public numPlayer = 0 */\n    tag_72:\n      sload(0x04)\n      dup2\n      jump\t// out\n        /* \"RPS1.sol\":696:817  function checkAllowance() public view returns (uint256) {... */\n    tag_75:\n        /* \"RPS1.sol\":743:750  uint256 */\n      0x00\n        /* \"RPS1.sol\":770:775  token */\n      0x03\n      0x00\n      swap1\n      sload\n      swap1\n      0x0100\n      exp\n      swap1\n      div\n      0xffffffffffffffffffffffffffffffffffffffff\n      and\n        /* \"RPS1.sol\":770:785  token.allowance */\n      0xffffffffffffffffffffffffffffffffffffffff\n      and\n      0xdd62ed3e\n        /* \"RPS1.sol\":786:796  msg.sender */\n      caller\n        /* \"RPS1.sol\":798:808  msg.sender */\n      caller\n        /* \"RPS1.sol\":770:809  token.allowance(msg.sender, msg.sender) */\n      mload(0x40)\n      dup4\n      0xffffffff\n      and\n      0xe0\n      shl\n      dup2\n      mstore\n      0x04\n      add\n      tag_248\n      swap3\n      swap2\n      swap1\n      tag_108\n      jump\t// in\n    tag_248:\n      0x20\n      mload(0x40)\n      dup1\n      dup4\n      sub\n      dup2\n      dup7\n      gas\n      staticcall\n      iszero\n      dup1\n      iszero\n      tag_250\n      jumpi\n      returndatasize\n      0x00\n      dup1\n      returndatacopy\n      revert(0x00, returndatasize)\n    tag_250:\n      pop\n      pop\n      pop\n      pop\n      mload(0x40)\n      returndatasize\n      not(0x1f)\n      0x1f\n      dup3\n      add\n      and\n      dup3\n      add\n      dup1\n      0x40\n      mstore\n      pop\n      dup2\n      add\n      swap1\n      tag_251\n      swap2\n      swap1\n      tag_112\n      jump\t// in\n    tag_251:\n        /* \"RPS1.sol\":763:809  return token.allowance(msg.sender, msg.sender) */\n      swap1\n      pop\n        /* \"RPS1.sol\":696:817  function checkAllowance() public view returns (uint256) {... */\n      swap1\n      jump\t// out\n        /* \"RPS1.sol\":323:368  mapping(address => uint) public player_choice */\n    tag_79:\n      mstore(0x20, 0x06)\n      dup1\n      0x00\n      mstore\n      keccak256(0x00, 0x40)\n      0x00\n      swap2\n      pop\n      swap1\n      pop\n      sload\n      dup2\n      jump\t// out\n        /* \"TimeUnit.sol\":578:685  function elapsedSeconds() public view returns (uint256) { ... */\n    tag_82:\n        /* \"TimeUnit.sol\":625:632  uint256 */\n      0x00\n        /* \"TimeUnit.sol\":668:677  startTime */\n      sload(0x02)\n        /* \"TimeUnit.sol\":650:665  block.timestamp */\n      timestamp\n        /* \"TimeUnit.sol\":650:677  block.timestamp - startTime */\n      tag_253\n      swap2\n      swap1\n      tag_254\n      jump\t// in\n    tag_253:\n        /* \"TimeUnit.sol\":642:678  return (block.timestamp - startTime) */\n      swap1\n      pop\n        /* \"TimeUnit.sol\":578:685  function elapsedSeconds() public view returns (uint256) { ... */\n      swap1\n      jump\t// out\n        /* \"RPS1.sol\":453:478  uint public numReveal = 0 */\n    tag_85:\n      sload(0x09)\n      dup2\n      jump\t// out\n        /* \"RPS1.sol\":1527:2013  function input(bytes32 hashAns) public {... */\n    tag_89:\n        /* \"RPS1.sol\":1598:1599  2 */\n      0x02\n        /* \"RPS1.sol\":1585:1594  numPlayer */\n      sload(0x04)\n        /* \"RPS1.sol\":1585:1599  numPlayer == 2 */\n      eq\n        /* \"RPS1.sol\":1577:1625  require(numPlayer == 2, \"Game needs 2 players.\") */\n      tag_256\n      jumpi\n      mload(0x40)\n      0x08c379a000000000000000000000000000000000000000000000000000000000\n      dup2\n      mstore\n      0x04\n      add\n      tag_257\n      swap1\n      tag_258\n      jump\t// in\n    tag_257:\n      mload(0x40)\n      dup1\n      swap2\n      sub\n      swap1\n      revert\n    tag_256:\n        /* \"RPS1.sol\":1655:1656  2 */\n      0x02\n        /* \"RPS1.sol\":1644:1652  numInput */\n      sload(0x08)\n        /* \"RPS1.sol\":1644:1656  numInput < 2 */\n      lt\n        /* \"RPS1.sol\":1636:1679  require(numInput < 2, \"Already committed.\") */\n      tag_259\n      jumpi\n      mload(0x40)\n      0x08c379a000000000000000000000000000000000000000000000000000000000\n      dup2\n      mstore\n      0x04\n      add\n      tag_260\n      swap1\n      tag_261\n      jump\t// in\n    tag_260:\n      mload(0x40)\n      dup1\n      swap2\n      sub\n      swap1\n      revert\n    tag_259:\n        /* \"RPS1.sol\":1699:1707  isCommit */\n      0x07\n        /* \"RPS1.sol\":1699:1719  isCommit[msg.sender] */\n      0x00\n        /* \"RPS1.sol\":1708:1718  msg.sender */\n      caller\n        /* \"RPS1.sol\":1699:1719  isCommit[msg.sender] */\n      0xffffffffffffffffffffffffffffffffffffffff\n      and\n      0xffffffffffffffffffffffffffffffffffffffff\n      and\n      dup2\n      mstore\n      0x20\n      add\n      swap1\n      dup2\n      mstore\n      0x20\n      add\n      0x00\n      keccak256\n      0x00\n      swap1\n      sload\n      swap1\n      0x0100\n      exp\n      swap1\n      div\n      0xff\n      and\n        /* \"RPS1.sol\":1698:1719  !isCommit[msg.sender] */\n      iszero\n        /* \"RPS1.sol\":1690:1746  require(!isCommit[msg.sender], \"You already committed.\") */\n      tag_262\n      jumpi\n      mload(0x40)\n      0x08c379a000000000000000000000000000000000000000000000000000000000\n      dup2\n      mstore\n      0x04\n      add\n      tag_263\n      swap1\n      tag_264\n      jump\t// in\n    tag_263:\n      mload(0x40)\n      dup1\n      swap2\n      sub\n      swap1\n      revert\n    tag_262:\n        /* \"RPS1.sol\":1790:1794  true */\n      0x01\n        /* \"RPS1.sol\":1767:1775  isCommit */\n      0x07\n        /* \"RPS1.sol\":1767:1787  isCommit[msg.sender] */\n      0x00\n        /* \"RPS1.sol\":1776:1786  msg.sender */\n      caller\n        /* \"RPS1.sol\":1767:1787  isCommit[msg.sender] */\n      0xffffffffffffffffffffffffffffffffffffffff\n      and\n      0xffffffffffffffffffffffffffffffffffffffff\n      and\n      dup2\n      mstore\n      0x20\n      add\n      swap1\n      dup2\n      mstore\n      0x20\n      add\n      0x00\n      keccak256\n      0x00\n        /* \"RPS1.sol\":1767:1794  isCommit[msg.sender] = true */\n      0x0100\n      exp\n      dup2\n      sload\n      dup2\n      0xff\n      mul\n      not\n      and\n      swap1\n      dup4\n      iszero\n      iszero\n      mul\n      or\n      swap1\n      sstore\n      pop\n        /* \"RPS1.sol\":1805:1820  commit(hashAns) */\n      tag_265\n        /* \"RPS1.sol\":1812:1819  hashAns */\n      dup2\n        /* \"RPS1.sol\":1805:1811  commit */\n      tag_266\n        /* \"RPS1.sol\":1805:1820  commit(hashAns) */\n      jump\t// in\n    tag_265:\n        /* \"RPS1.sol\":1831:1839  numInput */\n      0x08\n      0x00\n        /* \"RPS1.sol\":1831:1841  numInput++ */\n      dup2\n      sload\n      dup1\n      swap3\n      swap2\n      swap1\n      tag_267\n      swap1\n      tag_126\n      jump\t// in\n    tag_267:\n      swap2\n      swap1\n      pop\n      sstore\n      pop\n        /* \"RPS1.sol\":1870:1871  2 */\n      0x02\n        /* \"RPS1.sol\":1858:1866  numInput */\n      sload(0x08)\n        /* \"RPS1.sol\":1858:1871  numInput == 2 */\n      sub\n        /* \"RPS1.sol\":1854:1915  if (numInput == 2) {... */\n      tag_268\n      jumpi\n        /* \"RPS1.sol\":1888:1903  _collectFunds() */\n      tag_269\n        /* \"RPS1.sol\":1888:1901  _collectFunds */\n      tag_270\n        /* \"RPS1.sol\":1888:1903  _collectFunds() */\n      jump\t// in\n    tag_269:\n        /* \"RPS1.sol\":1854:1915  if (numInput == 2) {... */\n    tag_268:\n        /* \"RPS1.sol\":1940:1980  PlayerCommitHashed(msg.sender, numInput) */\n      0xa8fb792d8bb1782eba00886b053364d6972fa987197717655665c13d3696ea9e\n        /* \"RPS1.sol\":1959:1969  msg.sender */\n      caller\n        /* \"RPS1.sol\":1971:1979  numInput */\n      sload(0x08)\n        /* \"RPS1.sol\":1940:1980  PlayerCommitHashed(msg.sender, numInput) */\n      mload(0x40)\n      tag_271\n      swap3\n      swap2\n      swap1\n      tag_130\n      jump\t// in\n    tag_271:\n      mload(0x40)\n      dup1\n      swap2\n      sub\n      swap1\n      log1\n        /* \"RPS1.sol\":1991:2005  setStartTime() */\n      tag_272\n        /* \"RPS1.sol\":1991:2003  setStartTime */\n      tag_132\n        /* \"RPS1.sol\":1991:2005  setStartTime() */\n      jump\t// in\n    tag_272:\n        /* \"RPS1.sol\":1527:2013  function input(bytes32 hashAns) public {... */\n      pop\n      jump\t// out\n        /* \"TimeUnit.sol\":801:1084  function elapsedMinutes() public view returns (uint256) { ... */\n    tag_91:\n        /* \"TimeUnit.sol\":848:855  uint256 */\n      0x00\n        /* \"TimeUnit.sol\":1068:1077  1 minutes */\n      0x3c\n        /* \"TimeUnit.sol\":1055:1064  startTime */\n      sload(0x02)\n        /* \"TimeUnit.sol\":1037:1052  block.timestamp */\n      timestamp\n        /* \"TimeUnit.sol\":1037:1064  block.timestamp - startTime */\n      tag_274\n      swap2\n      swap1\n      tag_254\n      jump\t// in\n    tag_274:\n        /* \"TimeUnit.sol\":1036:1077  (block.timestamp - startTime) / 1 minutes */\n      tag_275\n      swap2\n      swap1\n      tag_168\n      jump\t// in\n    tag_275:\n        /* \"TimeUnit.sol\":1029:1077  return (block.timestamp - startTime) / 1 minutes */\n      swap1\n      pop\n        /* \"TimeUnit.sol\":801:1084  function elapsedMinutes() public view returns (uint256) { ... */\n      swap1\n      jump\t// out\n        /* \"RPS1.sol\":531:555  address[] public players */\n    tag_96:\n      0x0b\n      dup2\n      dup2\n      sload\n      dup2\n      lt\n      tag_276\n      jumpi\n      0x00\n      dup1\n      revert\n    tag_276:\n      swap1\n      0x00\n      mstore\n      keccak256(0x00, 0x20)\n      add\n      0x00\n      swap2\n      pop\n      sload\n      swap1\n      0x0100\n      exp\n      swap1\n      div\n      0xffffffffffffffffffffffffffffffffffffffff\n      and\n      dup2\n      jump\t// out\n        /* \"RPS1.sol\":236:255  IERC20 public token */\n    tag_100:\n      0x03\n      0x00\n      swap1\n      sload\n      swap1\n      0x0100\n      exp\n      swap1\n      div\n      0xffffffffffffffffffffffffffffffffffffffff\n      and\n      dup2\n      jump\t// out\n        /* \"TimeUnit.sol\":379:454  function setStartTime() internal { ... */\n    tag_132:\n        /* \"TimeUnit.sol\":432:447  block.timestamp */\n      timestamp\n        /* \"TimeUnit.sol\":420:429  startTime */\n      0x02\n        /* \"TimeUnit.sol\":420:447  startTime = block.timestamp */\n      dup2\n      swap1\n      sstore\n      pop\n        /* \"TimeUnit.sol\":379:454  function setStartTime() internal { ... */\n      jump\t// out\n        /* \"RPS1.sol\":3756:3907  function _reset() private {... */\n    tag_158:\n        /* \"RPS1.sol\":3800:3807  players */\n      0x0b\n      0x00\n        /* \"RPS1.sol\":3793:3807  delete players */\n      tag_280\n      swap2\n      swap1\n      tag_281\n      jump\t// in\n    tag_280:\n        /* \"RPS1.sol\":3830:3831  0 */\n      0x00\n        /* \"RPS1.sol\":3818:3827  numPlayer */\n      0x04\n        /* \"RPS1.sol\":3818:3831  numPlayer = 0 */\n      dup2\n      swap1\n      sstore\n      pop\n        /* \"RPS1.sol\":3853:3854  0 */\n      0x00\n        /* \"RPS1.sol\":3842:3850  numInput */\n      0x08\n        /* \"RPS1.sol\":3842:3854  numInput = 0 */\n      dup2\n      swap1\n      sstore\n      pop\n        /* \"RPS1.sol\":3877:3878  0 */\n      0x00\n        /* \"RPS1.sol\":3865:3874  numReveal */\n      0x09\n        /* \"RPS1.sol\":3865:3878  numReveal = 0 */\n      dup2\n      swap1\n      sstore\n      pop\n        /* \"RPS1.sol\":3898:3899  0 */\n      0x00\n        /* \"RPS1.sol\":3889:3895  reward */\n      0x05\n        /* \"RPS1.sol\":3889:3899  reward = 0 */\n      dup2\n      swap1\n      sstore\n      pop\n        /* \"RPS1.sol\":3756:3907  function _reset() private {... */\n      jump\t// out\n        /* \"CommitReveal.sol\":620:1786  function reveal(bytes32 revealHash) internal {... */\n    tag_240:\n        /* \"CommitReveal.sol\":778:783  false */\n      0x00\n        /* \"CommitReveal.sol\":748:783  commits[msg.sender].revealed==false */\n      iszero\n      iszero\n        /* \"CommitReveal.sol\":748:755  commits */\n      0x01\n        /* \"CommitReveal.sol\":748:767  commits[msg.sender] */\n      0x00\n        /* \"CommitReveal.sol\":756:766  msg.sender */\n      caller\n        /* \"CommitReveal.sol\":748:767  commits[msg.sender] */\n      0xffffffffffffffffffffffffffffffffffffffff\n      and\n      0xffffffffffffffffffffffffffffffffffffffff\n      and\n      dup2\n      mstore\n      0x20\n      add\n      swap1\n      dup2\n      mstore\n      0x20\n      add\n      0x00\n      keccak256\n        /* \"CommitReveal.sol\":748:776  commits[msg.sender].revealed */\n      0x01\n      add\n      0x08\n      swap1\n      sload\n      swap1\n      0x0100\n      exp\n      swap1\n      div\n      0xff\n      and\n        /* \"CommitReveal.sol\":748:783  commits[msg.sender].revealed==false */\n      iszero\n      iszero\n      eq\n        /* \"CommitReveal.sol\":740:825  require(commits[msg.sender].revealed==false,\"CommitReveal::reveal: Already revealed\") */\n      tag_283\n      jumpi\n      mload(0x40)\n      0x08c379a000000000000000000000000000000000000000000000000000000000\n      dup2\n      mstore\n      0x04\n      add\n      tag_284\n      swap1\n      tag_285\n      jump\t// in\n    tag_284:\n      mload(0x40)\n      dup1\n      swap2\n      sub\n      swap1\n      revert\n    tag_283:\n        /* \"CommitReveal.sol\":861:865  true */\n      0x01\n        /* \"CommitReveal.sol\":832:839  commits */\n      dup1\n        /* \"CommitReveal.sol\":832:851  commits[msg.sender] */\n      0x00\n        /* \"CommitReveal.sol\":840:850  msg.sender */\n      caller\n        /* \"CommitReveal.sol\":832:851  commits[msg.sender] */\n      0xffffffffffffffffffffffffffffffffffffffff\n      and\n      0xffffffffffffffffffffffffffffffffffffffff\n      and\n      dup2\n      mstore\n      0x20\n      add\n      swap1\n      dup2\n      mstore\n      0x20\n      add\n      0x00\n      keccak256\n        /* \"CommitReveal.sol\":832:860  commits[msg.sender].revealed */\n      0x01\n      add\n      0x08\n        /* \"CommitReveal.sol\":832:865  commits[msg.sender].revealed=true */\n      0x0100\n      exp\n      dup2\n      sload\n      dup2\n      0xff\n      mul\n      not\n      and\n      swap1\n      dup4\n      iszero\n      iszero\n      mul\n      or\n      swap1\n      sstore\n      pop\n        /* \"CommitReveal.sol\":957:964  commits */\n      0x01\n        /* \"CommitReveal.sol\":957:976  commits[msg.sender] */\n      0x00\n        /* \"CommitReveal.sol\":965:975  msg.sender */\n      caller\n        /* \"CommitReveal.sol\":957:976  commits[msg.sender] */\n      0xffffffffffffffffffffffffffffffffffffffff\n      and\n      0xffffffffffffffffffffffffffffffffffffffff\n      and\n      dup2\n      mstore\n      0x20\n      add\n      swap1\n      dup2\n      mstore\n      0x20\n      add\n      0x00\n      keccak256\n        /* \"CommitReveal.sol\":957:983  commits[msg.sender].commit */\n      0x00\n      add\n      sload\n        /* \"CommitReveal.sol\":936:955  getHash(revealHash) */\n      tag_286\n        /* \"CommitReveal.sol\":944:954  revealHash */\n      dup3\n        /* \"CommitReveal.sol\":936:943  getHash */\n      tag_39\n        /* \"CommitReveal.sol\":936:955  getHash(revealHash) */\n      jump\t// in\n    tag_286:\n        /* \"CommitReveal.sol\":936:983  getHash(revealHash)==commits[msg.sender].commit */\n      eq\n        /* \"CommitReveal.sol\":928:1044  require(getHash(revealHash)==commits[msg.sender].commit,\"CommitReveal::reveal: Revealed hash does not match commit\") */\n      tag_287\n      jumpi\n      mload(0x40)\n      0x08c379a000000000000000000000000000000000000000000000000000000000\n      dup2\n      mstore\n      0x04\n      add\n      tag_288\n      swap1\n      tag_289\n      jump\t// in\n    tag_288:\n      mload(0x40)\n      dup1\n      swap2\n      sub\n      swap1\n      revert\n    tag_287:\n        /* \"CommitReveal.sol\":1152:1159  commits */\n      0x01\n        /* \"CommitReveal.sol\":1152:1171  commits[msg.sender] */\n      0x00\n        /* \"CommitReveal.sol\":1160:1170  msg.sender */\n      caller\n        /* \"CommitReveal.sol\":1152:1171  commits[msg.sender] */\n      0xffffffffffffffffffffffffffffffffffffffff\n      and\n      0xffffffffffffffffffffffffffffffffffffffff\n      and\n      dup2\n      mstore\n      0x20\n      add\n      swap1\n      dup2\n      mstore\n      0x20\n      add\n      0x00\n      keccak256\n        /* \"CommitReveal.sol\":1152:1177  commits[msg.sender].block */\n      0x01\n      add\n      0x00\n      swap1\n      sload\n      swap1\n      0x0100\n      exp\n      swap1\n      div\n      0xffffffffffffffff\n      and\n        /* \"CommitReveal.sol\":1131:1177  uint64(block.number)>commits[msg.sender].block */\n      0xffffffffffffffff\n      and\n        /* \"CommitReveal.sol\":1138:1150  block.number */\n      number\n        /* \"CommitReveal.sol\":1131:1177  uint64(block.number)>commits[msg.sender].block */\n      0xffffffffffffffff\n      and\n      gt\n        /* \"CommitReveal.sol\":1123:1247  require(uint64(block.number)>commits[msg.sender].block,\"CommitReveal::reveal: Reveal and commit happened on the same block\") */\n      tag_290\n      jumpi\n      mload(0x40)\n      0x08c379a000000000000000000000000000000000000000000000000000000000\n      dup2\n      mstore\n      0x04\n      add\n      tag_291\n      swap1\n      tag_292\n      jump\t// in\n    tag_291:\n      mload(0x40)\n      dup1\n      swap2\n      sub\n      swap1\n      revert\n    tag_290:\n        /* \"CommitReveal.sol\":1366:1369  250 */\n      0xfa\n        /* \"CommitReveal.sol\":1340:1347  commits */\n      0x01\n        /* \"CommitReveal.sol\":1340:1359  commits[msg.sender] */\n      0x00\n        /* \"CommitReveal.sol\":1348:1358  msg.sender */\n      caller\n        /* \"CommitReveal.sol\":1340:1359  commits[msg.sender] */\n      0xffffffffffffffffffffffffffffffffffffffff\n      and\n      0xffffffffffffffffffffffffffffffffffffffff\n      and\n      dup2\n      mstore\n      0x20\n      add\n      swap1\n      dup2\n      mstore\n      0x20\n      add\n      0x00\n      keccak256\n        /* \"CommitReveal.sol\":1340:1365  commits[msg.sender].block */\n      0x01\n      add\n      0x00\n      swap1\n      sload\n      swap1\n      0x0100\n      exp\n      swap1\n      div\n      0xffffffffffffffff\n      and\n        /* \"CommitReveal.sol\":1340:1369  commits[msg.sender].block+250 */\n      tag_293\n      swap2\n      swap1\n      tag_294\n      jump\t// in\n    tag_293:\n        /* \"CommitReveal.sol\":1318:1369  uint64(block.number)<=commits[msg.sender].block+250 */\n      0xffffffffffffffff\n      and\n        /* \"CommitReveal.sol\":1325:1337  block.number */\n      number\n        /* \"CommitReveal.sol\":1318:1369  uint64(block.number)<=commits[msg.sender].block+250 */\n      0xffffffffffffffff\n      and\n      gt\n      iszero\n        /* \"CommitReveal.sol\":1310:1412  require(uint64(block.number)<=commits[msg.sender].block+250,\"CommitReveal::reveal: Revealed too late\") */\n      tag_295\n      jumpi\n      mload(0x40)\n      0x08c379a000000000000000000000000000000000000000000000000000000000\n      dup2\n      mstore\n      0x04\n      add\n      tag_296\n      swap1\n      tag_297\n      jump\t// in\n    tag_296:\n      mload(0x40)\n      dup1\n      swap2\n      sub\n      swap1\n      revert\n    tag_295:\n        /* \"CommitReveal.sol\":1487:1504  bytes32 blockHash */\n      0x00\n        /* \"CommitReveal.sol\":1517:1524  commits */\n      0x01\n        /* \"CommitReveal.sol\":1517:1536  commits[msg.sender] */\n      0x00\n        /* \"CommitReveal.sol\":1525:1535  msg.sender */\n      caller\n        /* \"CommitReveal.sol\":1517:1536  commits[msg.sender] */\n      0xffffffffffffffffffffffffffffffffffffffff\n      and\n      0xffffffffffffffffffffffffffffffffffffffff\n      and\n      dup2\n      mstore\n      0x20\n      add\n      swap1\n      dup2\n      mstore\n      0x20\n      add\n      0x00\n      keccak256\n        /* \"CommitReveal.sol\":1517:1542  commits[msg.sender].block */\n      0x01\n      add\n      0x00\n      swap1\n      sload\n      swap1\n      0x0100\n      exp\n      swap1\n      div\n      0xffffffffffffffff\n      and\n        /* \"CommitReveal.sol\":1507:1543  blockhash(commits[msg.sender].block) */\n      0xffffffffffffffff\n      and\n      blockhash\n        /* \"CommitReveal.sol\":1487:1543  bytes32 blockHash = blockhash(commits[msg.sender].block) */\n      swap1\n      pop\n        /* \"CommitReveal.sol\":1655:1666  uint random */\n      0x00\n        /* \"CommitReveal.sol\":1725:1728  max */\n      dup1\n      0x00\n      swap1\n      sload\n      swap1\n      0x0100\n      exp\n      swap1\n      div\n      0xff\n      and\n        /* \"CommitReveal.sol\":1669:1728  uint(keccak256(abi.encodePacked(blockHash,revealHash)))%max */\n      0xff\n      and\n        /* \"CommitReveal.sol\":1701:1710  blockHash */\n      dup3\n        /* \"CommitReveal.sol\":1711:1721  revealHash */\n      dup5\n        /* \"CommitReveal.sol\":1684:1722  abi.encodePacked(blockHash,revealHash) */\n      add(0x20, mload(0x40))\n      tag_298\n      swap3\n      swap2\n      swap1\n      tag_299\n      jump\t// in\n    tag_298:\n      mload(0x40)\n      0x20\n      dup2\n      dup4\n      sub\n      sub\n      dup2\n      mstore\n      swap1\n      0x40\n      mstore\n        /* \"CommitReveal.sol\":1674:1723  keccak256(abi.encodePacked(blockHash,revealHash)) */\n      dup1\n      mload\n      swap1\n      0x20\n      add\n      keccak256\n        /* \"CommitReveal.sol\":1669:1724  uint(keccak256(abi.encodePacked(blockHash,revealHash))) */\n      0x00\n      shr\n        /* \"CommitReveal.sol\":1669:1728  uint(keccak256(abi.encodePacked(blockHash,revealHash)))%max */\n      tag_300\n      swap2\n      swap1\n      tag_301\n      jump\t// in\n    tag_300:\n        /* \"CommitReveal.sol\":1655:1728  uint random = uint(keccak256(abi.encodePacked(blockHash,revealHash)))%max */\n      swap1\n      pop\n        /* \"CommitReveal.sol\":1740:1780  RevealHash(msg.sender,revealHash,random) */\n      0xbc016dd1cadeaefcb851af7a0a93532e0023d536894b730801f7bcfe7065bcc2\n        /* \"CommitReveal.sol\":1751:1761  msg.sender */\n      caller\n        /* \"CommitReveal.sol\":1762:1772  revealHash */\n      dup5\n        /* \"CommitReveal.sol\":1773:1779  random */\n      dup4\n        /* \"CommitReveal.sol\":1740:1780  RevealHash(msg.sender,revealHash,random) */\n      mload(0x40)\n      tag_302\n      swap4\n      swap3\n      swap2\n      swap1\n      tag_303\n      jump\t// in\n    tag_302:\n      mload(0x40)\n      dup1\n      swap2\n      sub\n      swap1\n      log1\n        /* \"CommitReveal.sol\":665:1786  {... */\n      pop\n      pop\n        /* \"CommitReveal.sol\":620:1786  function reveal(bytes32 revealHash) internal {... */\n      pop\n      jump\t// out\n        /* \"RPS1.sol\":3140:3748  function _checkWinnerAndPay() private {... */\n    tag_245:\n        /* \"RPS1.sol\":3189:3202  uint p0Choice */\n      0x00\n        /* \"RPS1.sol\":3205:3218  player_choice */\n      0x06\n        /* \"RPS1.sol\":3205:3230  player_choice[players[0]] */\n      0x00\n        /* \"RPS1.sol\":3219:3226  players */\n      0x0b\n        /* \"RPS1.sol\":3227:3228  0 */\n      0x00\n        /* \"RPS1.sol\":3219:3229  players[0] */\n      dup2\n      sload\n      dup2\n      lt\n      tag_305\n      jumpi\n      tag_306\n      tag_119\n      jump\t// in\n    tag_306:\n    tag_305:\n      swap1\n      0x00\n      mstore\n      keccak256(0x00, 0x20)\n      add\n      0x00\n      swap1\n      sload\n      swap1\n      0x0100\n      exp\n      swap1\n      div\n      0xffffffffffffffffffffffffffffffffffffffff\n      and\n        /* \"RPS1.sol\":3205:3230  player_choice[players[0]] */\n      0xffffffffffffffffffffffffffffffffffffffff\n      and\n      0xffffffffffffffffffffffffffffffffffffffff\n      and\n      dup2\n      mstore\n      0x20\n      add\n      swap1\n      dup2\n      mstore\n      0x20\n      add\n      0x00\n      keccak256\n      sload\n        /* \"RPS1.sol\":3189:3230  uint p0Choice = player_choice[players[0]] */\n      swap1\n      pop\n        /* \"RPS1.sol\":3241:3254  uint p1Choice */\n      0x00\n        /* \"RPS1.sol\":3257:3270  player_choice */\n      0x06\n        /* \"RPS1.sol\":3257:3282  player_choice[players[1]] */\n      0x00\n        /* \"RPS1.sol\":3271:3278  players */\n      0x0b\n        /* \"RPS1.sol\":3279:3280  1 */\n      0x01\n        /* \"RPS1.sol\":3271:3281  players[1] */\n      dup2\n      sload\n      dup2\n      lt\n      tag_308\n      jumpi\n      tag_309\n      tag_119\n      jump\t// in\n    tag_309:\n    tag_308:\n      swap1\n      0x00\n      mstore\n      keccak256(0x00, 0x20)\n      add\n      0x00\n      swap1\n      sload\n      swap1\n      0x0100\n      exp\n      swap1\n      div\n      0xffffffffffffffffffffffffffffffffffffffff\n      and\n        /* \"RPS1.sol\":3257:3282  player_choice[players[1]] */\n      0xffffffffffffffffffffffffffffffffffffffff\n      and\n      0xffffffffffffffffffffffffffffffffffffffff\n      and\n      dup2\n      mstore\n      0x20\n      add\n      swap1\n      dup2\n      mstore\n      0x20\n      add\n      0x00\n      keccak256\n      sload\n        /* \"RPS1.sol\":3241:3282  uint p1Choice = player_choice[players[1]] */\n      swap1\n      pop\n        /* \"RPS1.sol\":3293:3307  address winner */\n      0x00\n        /* \"RPS1.sol\":3336:3344  p1Choice */\n      dup2\n        /* \"RPS1.sol\":3324:3332  p0Choice */\n      dup4\n        /* \"RPS1.sol\":3324:3344  p0Choice == p1Choice */\n      sub\n        /* \"RPS1.sol\":3320:3638  if (p0Choice == p1Choice) {... */\n      tag_311\n      jumpi\n        /* \"RPS1.sol\":3361:3366  token */\n      0x03\n      0x00\n      swap1\n      sload\n      swap1\n      0x0100\n      exp\n      swap1\n      div\n      0xffffffffffffffffffffffffffffffffffffffff\n      and\n        /* \"RPS1.sol\":3361:3375  token.transfer */\n      0xffffffffffffffffffffffffffffffffffffffff\n      and\n      0xa9059cbb\n        /* \"RPS1.sol\":3376:3383  players */\n      0x0b\n        /* \"RPS1.sol\":3384:3385  0 */\n      0x00\n        /* \"RPS1.sol\":3376:3386  players[0] */\n      dup2\n      sload\n      dup2\n      lt\n      tag_312\n      jumpi\n      tag_313\n      tag_119\n      jump\t// in\n    tag_313:\n    tag_312:\n      swap1\n      0x00\n      mstore\n      keccak256(0x00, 0x20)\n      add\n      0x00\n      swap1\n      sload\n      swap1\n      0x0100\n      exp\n      swap1\n      div\n      0xffffffffffffffffffffffffffffffffffffffff\n      and\n        /* \"RPS1.sol\":3397:3398  2 */\n      0x02\n        /* \"RPS1.sol\":3388:3394  reward */\n      sload(0x05)\n        /* \"RPS1.sol\":3388:3398  reward / 2 */\n      tag_315\n      swap2\n      swap1\n      tag_168\n      jump\t// in\n    tag_315:\n        /* \"RPS1.sol\":3361:3399  token.transfer(players[0], reward / 2) */\n      mload(0x40)\n      dup4\n      0xffffffff\n      and\n      0xe0\n      shl\n      dup2\n      mstore\n      0x04\n      add\n      tag_316\n      swap3\n      swap2\n      swap1\n      tag_130\n      jump\t// in\n    tag_316:\n      0x20\n      mload(0x40)\n      dup1\n      dup4\n      sub\n      dup2\n      0x00\n      dup8\n      gas\n      call\n      iszero\n      dup1\n      iszero\n      tag_318\n      jumpi\n      returndatasize\n      0x00\n      dup1\n      returndatacopy\n      revert(0x00, returndatasize)\n    tag_318:\n      pop\n      pop\n      pop\n      pop\n      mload(0x40)\n      returndatasize\n      not(0x1f)\n      0x1f\n      dup3\n      add\n      and\n      dup3\n      add\n      dup1\n      0x40\n      mstore\n      pop\n      dup2\n      add\n      swap1\n      tag_319\n      swap2\n      swap1\n      tag_156\n      jump\t// in\n    tag_319:\n      pop\n        /* \"RPS1.sol\":3414:3419  token */\n      0x03\n      0x00\n      swap1\n      sload\n      swap1\n      0x0100\n      exp\n      swap1\n      div\n      0xffffffffffffffffffffffffffffffffffffffff\n      and\n        /* \"RPS1.sol\":3414:3428  token.transfer */\n      0xffffffffffffffffffffffffffffffffffffffff\n      and\n      0xa9059cbb\n        /* \"RPS1.sol\":3429:3436  players */\n      0x0b\n        /* \"RPS1.sol\":3437:3438  1 */\n      0x01\n        /* \"RPS1.sol\":3429:3439  players[1] */\n      dup2\n      sload\n      dup2\n      lt\n      tag_320\n      jumpi\n      tag_321\n      tag_119\n      jump\t// in\n    tag_321:\n    tag_320:\n      swap1\n      0x00\n      mstore\n      keccak256(0x00, 0x20)\n      add\n      0x00\n      swap1\n      sload\n      swap1\n      0x0100\n      exp\n      swap1\n      div\n      0xffffffffffffffffffffffffffffffffffffffff\n      and\n        /* \"RPS1.sol\":3450:3451  2 */\n      0x02\n        /* \"RPS1.sol\":3441:3447  reward */\n      sload(0x05)\n        /* \"RPS1.sol\":3441:3451  reward / 2 */\n      tag_323\n      swap2\n      swap1\n      tag_168\n      jump\t// in\n    tag_323:\n        /* \"RPS1.sol\":3414:3452  token.transfer(players[1], reward / 2) */\n      mload(0x40)\n      dup4\n      0xffffffff\n      and\n      0xe0\n      shl\n      dup2\n      mstore\n      0x04\n      add\n      tag_324\n      swap3\n      swap2\n      swap1\n      tag_130\n      jump\t// in\n    tag_324:\n      0x20\n      mload(0x40)\n      dup1\n      dup4\n      sub\n      dup2\n      0x00\n      dup8\n      gas\n      call\n      iszero\n      dup1\n      iszero\n      tag_326\n      jumpi\n      returndatasize\n      0x00\n      dup1\n      returndatacopy\n      revert(0x00, returndatasize)\n    tag_326:\n      pop\n      pop\n      pop\n      pop\n      mload(0x40)\n      returndatasize\n      not(0x1f)\n      0x1f\n      dup3\n      add\n      and\n      dup3\n      add\n      dup1\n      0x40\n      mstore\n      pop\n      dup2\n      add\n      swap1\n      tag_327\n      swap2\n      swap1\n      tag_156\n      jump\t// in\n    tag_327:\n      pop\n        /* \"RPS1.sol\":3320:3638  if (p0Choice == p1Choice) {... */\n      jump(tag_328)\n    tag_311:\n        /* \"RPS1.sol\":3496:3504  p1Choice */\n      dup2\n        /* \"RPS1.sol\":3491:3492  5 */\n      0x05\n        /* \"RPS1.sol\":3486:3487  1 */\n      0x01\n        /* \"RPS1.sol\":3475:3483  p0Choice */\n      dup6\n        /* \"RPS1.sol\":3475:3487  p0Choice + 1 */\n      tag_329\n      swap2\n      swap1\n      tag_128\n      jump\t// in\n    tag_329:\n        /* \"RPS1.sol\":3474:3492  (p0Choice + 1) % 5 */\n      tag_330\n      swap2\n      swap1\n      tag_301\n      jump\t// in\n    tag_330:\n        /* \"RPS1.sol\":3474:3504  (p0Choice + 1) % 5 == p1Choice */\n      eq\n        /* \"RPS1.sol\":3474:3538  (p0Choice + 1) % 5 == p1Choice || (p0Choice + 3) % 5 == p1Choice */\n      dup1\n      tag_331\n      jumpi\n      pop\n        /* \"RPS1.sol\":3530:3538  p1Choice */\n      dup2\n        /* \"RPS1.sol\":3525:3526  5 */\n      0x05\n        /* \"RPS1.sol\":3520:3521  3 */\n      0x03\n        /* \"RPS1.sol\":3509:3517  p0Choice */\n      dup6\n        /* \"RPS1.sol\":3509:3521  p0Choice + 3 */\n      tag_332\n      swap2\n      swap1\n      tag_128\n      jump\t// in\n    tag_332:\n        /* \"RPS1.sol\":3508:3526  (p0Choice + 3) % 5 */\n      tag_333\n      swap2\n      swap1\n      tag_301\n      jump\t// in\n    tag_333:\n        /* \"RPS1.sol\":3508:3538  (p0Choice + 3) % 5 == p1Choice */\n      eq\n        /* \"RPS1.sol\":3474:3538  (p0Choice + 1) % 5 == p1Choice || (p0Choice + 3) % 5 == p1Choice */\n    tag_331:\n        /* \"RPS1.sol\":3470:3638  if ((p0Choice + 1) % 5 == p1Choice || (p0Choice + 3) % 5 == p1Choice) {... */\n      iszero\n      tag_334\n      jumpi\n        /* \"RPS1.sol\":3564:3571  players */\n      0x0b\n        /* \"RPS1.sol\":3572:3573  1 */\n      0x01\n        /* \"RPS1.sol\":3564:3574  players[1] */\n      dup2\n      sload\n      dup2\n      lt\n      tag_335\n      jumpi\n      tag_336\n      tag_119\n      jump\t// in\n    tag_336:\n    tag_335:\n      swap1\n      0x00\n      mstore\n      keccak256(0x00, 0x20)\n      add\n      0x00\n      swap1\n      sload\n      swap1\n      0x0100\n      exp\n      swap1\n      div\n      0xffffffffffffffffffffffffffffffffffffffff\n      and\n        /* \"RPS1.sol\":3555:3574  winner = players[1] */\n      swap1\n      pop\n        /* \"RPS1.sol\":3470:3638  if ((p0Choice + 1) % 5 == p1Choice || (p0Choice + 3) % 5 == p1Choice) {... */\n      jump(tag_338)\n    tag_334:\n        /* \"RPS1.sol\":3616:3623  players */\n      0x0b\n        /* \"RPS1.sol\":3624:3625  0 */\n      0x00\n        /* \"RPS1.sol\":3616:3626  players[0] */\n      dup2\n      sload\n      dup2\n      lt\n      tag_339\n      jumpi\n      tag_340\n      tag_119\n      jump\t// in\n    tag_340:\n    tag_339:\n      swap1\n      0x00\n      mstore\n      keccak256(0x00, 0x20)\n      add\n      0x00\n      swap1\n      sload\n      swap1\n      0x0100\n      exp\n      swap1\n      div\n      0xffffffffffffffffffffffffffffffffffffffff\n      and\n        /* \"RPS1.sol\":3607:3626  winner = players[0] */\n      swap1\n      pop\n        /* \"RPS1.sol\":3470:3638  if ((p0Choice + 1) % 5 == p1Choice || (p0Choice + 3) % 5 == p1Choice) {... */\n    tag_338:\n        /* \"RPS1.sol\":3320:3638  if (p0Choice == p1Choice) {... */\n    tag_328:\n        /* \"RPS1.sol\":3680:3681  0 */\n      0x00\n        /* \"RPS1.sol\":3662:3682  winner != address(0) */\n      0xffffffffffffffffffffffffffffffffffffffff\n      and\n        /* \"RPS1.sol\":3662:3668  winner */\n      dup2\n        /* \"RPS1.sol\":3662:3682  winner != address(0) */\n      0xffffffffffffffffffffffffffffffffffffffff\n      and\n      eq\n        /* \"RPS1.sol\":3658:3741  if (winner != address(0)) {... */\n      tag_342\n      jumpi\n        /* \"RPS1.sol\":3699:3704  token */\n      0x03\n      0x00\n      swap1\n      sload\n      swap1\n      0x0100\n      exp\n      swap1\n      div\n      0xffffffffffffffffffffffffffffffffffffffff\n      and\n        /* \"RPS1.sol\":3699:3713  token.transfer */\n      0xffffffffffffffffffffffffffffffffffffffff\n      and\n      0xa9059cbb\n        /* \"RPS1.sol\":3714:3720  winner */\n      dup3\n        /* \"RPS1.sol\":3722:3728  reward */\n      sload(0x05)\n        /* \"RPS1.sol\":3699:3729  token.transfer(winner, reward) */\n      mload(0x40)\n      dup4\n      0xffffffff\n      and\n      0xe0\n      shl\n      dup2\n      mstore\n      0x04\n      add\n      tag_343\n      swap3\n      swap2\n      swap1\n      tag_130\n      jump\t// in\n    tag_343:\n      0x20\n      mload(0x40)\n      dup1\n      dup4\n      sub\n      dup2\n      0x00\n      dup8\n      gas\n      call\n      iszero\n      dup1\n      iszero\n      tag_345\n      jumpi\n      returndatasize\n      0x00\n      dup1\n      returndatacopy\n      revert(0x00, returndatasize)\n    tag_345:\n      pop\n      pop\n      pop\n      pop\n      mload(0x40)\n      returndatasize\n      not(0x1f)\n      0x1f\n      dup3\n      add\n      and\n      dup3\n      add\n      dup1\n      0x40\n      mstore\n      pop\n      dup2\n      add\n      swap1\n      tag_346\n      swap2\n      swap1\n      tag_156\n      jump\t// in\n    tag_346:\n      pop\n        /* \"RPS1.sol\":3658:3741  if (winner != address(0)) {... */\n    tag_342:\n        /* \"RPS1.sol\":3178:3748  {... */\n      pop\n      pop\n      pop\n        /* \"RPS1.sol\":3140:3748  function _checkWinnerAndPay() private {... */\n      jump\t// out\n        /* \"CommitReveal.sol\":267:545  function commit(bytes32 dataHash) internal {... */\n    tag_266:\n        /* \"CommitReveal.sol\":346:354  dataHash */\n      dup1\n        /* \"CommitReveal.sol\":317:324  commits */\n      0x01\n        /* \"CommitReveal.sol\":317:336  commits[msg.sender] */\n      0x00\n        /* \"CommitReveal.sol\":325:335  msg.sender */\n      caller\n        /* \"CommitReveal.sol\":317:336  commits[msg.sender] */\n      0xffffffffffffffffffffffffffffffffffffffff\n      and\n      0xffffffffffffffffffffffffffffffffffffffff\n      and\n      dup2\n      mstore\n      0x20\n      add\n      swap1\n      dup2\n      mstore\n      0x20\n      add\n      0x00\n      keccak256\n        /* \"CommitReveal.sol\":317:343  commits[msg.sender].commit */\n      0x00\n      add\n        /* \"CommitReveal.sol\":317:354  commits[msg.sender].commit = dataHash */\n      dup2\n      swap1\n      sstore\n      pop\n        /* \"CommitReveal.sol\":396:408  block.number */\n      number\n        /* \"CommitReveal.sol\":361:368  commits */\n      0x01\n        /* \"CommitReveal.sol\":361:380  commits[msg.sender] */\n      0x00\n        /* \"CommitReveal.sol\":369:379  msg.sender */\n      caller\n        /* \"CommitReveal.sol\":361:380  commits[msg.sender] */\n      0xffffffffffffffffffffffffffffffffffffffff\n      and\n      0xffffffffffffffffffffffffffffffffffffffff\n      and\n      dup2\n      mstore\n      0x20\n      add\n      swap1\n      dup2\n      mstore\n      0x20\n      add\n      0x00\n      keccak256\n        /* \"CommitReveal.sol\":361:386  commits[msg.sender].block */\n      0x01\n      add\n      0x00\n        /* \"CommitReveal.sol\":361:409  commits[msg.sender].block = uint64(block.number) */\n      0x0100\n      exp\n      dup2\n      sload\n      dup2\n      0xffffffffffffffff\n      mul\n      not\n      and\n      swap1\n      dup4\n      0xffffffffffffffff\n      and\n      mul\n      or\n      swap1\n      sstore\n      pop\n        /* \"CommitReveal.sol\":447:452  false */\n      0x00\n        /* \"CommitReveal.sol\":416:423  commits */\n      0x01\n        /* \"CommitReveal.sol\":416:435  commits[msg.sender] */\n      0x00\n        /* \"CommitReveal.sol\":424:434  msg.sender */\n      caller\n        /* \"CommitReveal.sol\":416:435  commits[msg.sender] */\n      0xffffffffffffffffffffffffffffffffffffffff\n      and\n      0xffffffffffffffffffffffffffffffffffffffff\n      and\n      dup2\n      mstore\n      0x20\n      add\n      swap1\n      dup2\n      mstore\n      0x20\n      add\n      0x00\n      keccak256\n        /* \"CommitReveal.sol\":416:444  commits[msg.sender].revealed */\n      0x01\n      add\n      0x08\n        /* \"CommitReveal.sol\":416:452  commits[msg.sender].revealed = false */\n      0x0100\n      exp\n      dup2\n      sload\n      dup2\n      0xff\n      mul\n      not\n      and\n      swap1\n      dup4\n      iszero\n      iszero\n      mul\n      or\n      swap1\n      sstore\n      pop\n        /* \"CommitReveal.sol\":464:539  CommitHash(msg.sender,commits[msg.sender].commit,commits[msg.sender].block) */\n      0x3c1a1f8f38335b17f751c6da4ba7d1865f26b3997535176f5080de9fad891603\n        /* \"CommitReveal.sol\":475:485  msg.sender */\n      caller\n        /* \"CommitReveal.sol\":486:493  commits */\n      0x01\n        /* \"CommitReveal.sol\":486:505  commits[msg.sender] */\n      0x00\n        /* \"CommitReveal.sol\":494:504  msg.sender */\n      caller\n        /* \"CommitReveal.sol\":486:505  commits[msg.sender] */\n      0xffffffffffffffffffffffffffffffffffffffff\n      and\n      0xffffffffffffffffffffffffffffffffffffffff\n      and\n      dup2\n      mstore\n      0x20\n      add\n      swap1\n      dup2\n      mstore\n      0x20\n      add\n      0x00\n      keccak256\n        /* \"CommitReveal.sol\":486:512  commits[msg.sender].commit */\n      0x00\n      add\n      sload\n        /* \"CommitReveal.sol\":513:520  commits */\n      0x01\n        /* \"CommitReveal.sol\":513:532  commits[msg.sender] */\n      0x00\n        /* \"CommitReveal.sol\":521:531  msg.sender */\n      caller\n        /* \"CommitReveal.sol\":513:532  commits[msg.sender] */\n      0xffffffffffffffffffffffffffffffffffffffff\n      and\n      0xffffffffffffffffffffffffffffffffffffffff\n      and\n      dup2\n      mstore\n      0x20\n      add\n      swap1\n      dup2\n      mstore\n      0x20\n      add\n      0x00\n      keccak256\n        /* \"CommitReveal.sol\":513:538  commits[msg.sender].block */\n      0x01\n      add\n      0x00\n      swap1\n      sload\n      swap1\n      0x0100\n      exp\n      swap1\n      div\n      0xffffffffffffffff\n      and\n        /* \"CommitReveal.sol\":464:539  CommitHash(msg.sender,commits[msg.sender].commit,commits[msg.sender].block) */\n      mload(0x40)\n      tag_348\n      swap4\n      swap3\n      swap2\n      swap1\n      tag_349\n      jump\t// in\n    tag_348:\n      mload(0x40)\n      dup1\n      swap2\n      sub\n      swap1\n      log1\n        /* \"CommitReveal.sol\":267:545  function commit(bytes32 dataHash) internal {... */\n      pop\n      jump\t// out\n        /* \"RPS1.sol\":2658:3132  function _collectFunds() private {... */\n    tag_270:\n        /* \"RPS1.sol\":2753:2767  requiredAmount */\n      sload(0x0c)\n        /* \"RPS1.sol\":2710:2715  token */\n      0x03\n      0x00\n      swap1\n      sload\n      swap1\n      0x0100\n      exp\n      swap1\n      div\n      0xffffffffffffffffffffffffffffffffffffffff\n      and\n        /* \"RPS1.sol\":2710:2725  token.allowance */\n      0xffffffffffffffffffffffffffffffffffffffff\n      and\n      0xdd62ed3e\n        /* \"RPS1.sol\":2726:2733  players */\n      0x0b\n        /* \"RPS1.sol\":2734:2735  0 */\n      0x00\n        /* \"RPS1.sol\":2726:2736  players[0] */\n      dup2\n      sload\n      dup2\n      lt\n      tag_351\n      jumpi\n      tag_352\n      tag_119\n      jump\t// in\n    tag_352:\n    tag_351:\n      swap1\n      0x00\n      mstore\n      keccak256(0x00, 0x20)\n      add\n      0x00\n      swap1\n      sload\n      swap1\n      0x0100\n      exp\n      swap1\n      div\n      0xffffffffffffffffffffffffffffffffffffffff\n      and\n        /* \"RPS1.sol\":2738:2745  players */\n      0x0b\n        /* \"RPS1.sol\":2746:2747  0 */\n      0x00\n        /* \"RPS1.sol\":2738:2748  players[0] */\n      dup2\n      sload\n      dup2\n      lt\n      tag_354\n      jumpi\n      tag_355\n      tag_119\n      jump\t// in\n    tag_355:\n    tag_354:\n      swap1\n      0x00\n      mstore\n      keccak256(0x00, 0x20)\n      add\n      0x00\n      swap1\n      sload\n      swap1\n      0x0100\n      exp\n      swap1\n      div\n      0xffffffffffffffffffffffffffffffffffffffff\n      and\n        /* \"RPS1.sol\":2710:2749  token.allowance(players[0], players[0]) */\n      mload(0x40)\n      dup4\n      0xffffffff\n      and\n      0xe0\n      shl\n      dup2\n      mstore\n      0x04\n      add\n      tag_357\n      swap3\n      swap2\n      swap1\n      tag_108\n      jump\t// in\n    tag_357:\n      0x20\n      mload(0x40)\n      dup1\n      dup4\n      sub\n      dup2\n      dup7\n      gas\n      staticcall\n      iszero\n      dup1\n      iszero\n      tag_359\n      jumpi\n      returndatasize\n      0x00\n      dup1\n      returndatacopy\n      revert(0x00, returndatasize)\n    tag_359:\n      pop\n      pop\n      pop\n      pop\n      mload(0x40)\n      returndatasize\n      not(0x1f)\n      0x1f\n      dup3\n      add\n      and\n      dup3\n      add\n      dup1\n      0x40\n      mstore\n      pop\n      dup2\n      add\n      swap1\n      tag_360\n      swap2\n      swap1\n      tag_112\n      jump\t// in\n    tag_360:\n        /* \"RPS1.sol\":2710:2767  token.allowance(players[0], players[0]) >= requiredAmount */\n      lt\n      iszero\n        /* \"RPS1.sol\":2702:2811  require(token.allowance(players[0], players[0]) >= requiredAmount, \"Player 1 has not approved enough funds.\") */\n      tag_361\n      jumpi\n      mload(0x40)\n      0x08c379a000000000000000000000000000000000000000000000000000000000\n      dup2\n      mstore\n      0x04\n      add\n      tag_362\n      swap1\n      tag_363\n      jump\t// in\n    tag_362:\n      mload(0x40)\n      dup1\n      swap2\n      sub\n      swap1\n      revert\n    tag_361:\n        /* \"RPS1.sol\":2873:2887  requiredAmount */\n      sload(0x0c)\n        /* \"RPS1.sol\":2830:2835  token */\n      0x03\n      0x00\n      swap1\n      sload\n      swap1\n      0x0100\n      exp\n      swap1\n      div\n      0xffffffffffffffffffffffffffffffffffffffff\n      and\n        /* \"RPS1.sol\":2830:2845  token.allowance */\n      0xffffffffffffffffffffffffffffffffffffffff\n      and\n      0xdd62ed3e\n        /* \"RPS1.sol\":2846:2853  players */\n      0x0b\n        /* \"RPS1.sol\":2854:2855  1 */\n      0x01\n        /* \"RPS1.sol\":2846:2856  players[1] */\n      dup2\n      sload\n      dup2\n      lt\n      tag_364\n      jumpi\n      tag_365\n      tag_119\n      jump\t// in\n    tag_365:\n    tag_364:\n      swap1\n      0x00\n      mstore\n      keccak256(0x00, 0x20)\n      add\n      0x00\n      swap1\n      sload\n      swap1\n      0x0100\n      exp\n      swap1\n      div\n      0xffffffffffffffffffffffffffffffffffffffff\n      and\n        /* \"RPS1.sol\":2858:2865  players */\n      0x0b\n        /* \"RPS1.sol\":2866:2867  1 */\n      0x01\n        /* \"RPS1.sol\":2858:2868  players[1] */\n      dup2\n      sload\n      dup2\n      lt\n      tag_367\n      jumpi\n      tag_368\n      tag_119\n      jump\t// in\n    tag_368:\n    tag_367:\n      swap1\n      0x00\n      mstore\n      keccak256(0x00, 0x20)\n      add\n      0x00\n      swap1\n      sload\n      swap1\n      0x0100\n      exp\n      swap1\n      div\n      0xffffffffffffffffffffffffffffffffffffffff\n      and\n        /* \"RPS1.sol\":2830:2869  token.allowance(players[1], players[1]) */\n      mload(0x40)\n      dup4\n      0xffffffff\n      and\n      0xe0\n      shl\n      dup2\n      mstore\n      0x04\n      add\n      tag_370\n      swap3\n      swap2\n      swap1\n      tag_108\n      jump\t// in\n    tag_370:\n      0x20\n      mload(0x40)\n      dup1\n      dup4\n      sub\n      dup2\n      dup7\n      gas\n      staticcall\n      iszero\n      dup1\n      iszero\n      tag_372\n      jumpi\n      returndatasize\n      0x00\n      dup1\n      returndatacopy\n      revert(0x00, returndatasize)\n    tag_372:\n      pop\n      pop\n      pop\n      pop\n      mload(0x40)\n      returndatasize\n      not(0x1f)\n      0x1f\n      dup3\n      add\n      and\n      dup3\n      add\n      dup1\n      0x40\n      mstore\n      pop\n      dup2\n      add\n      swap1\n      tag_373\n      swap2\n      swap1\n      tag_112\n      jump\t// in\n    tag_373:\n        /* \"RPS1.sol\":2830:2887  token.allowance(players[1], players[1]) >= requiredAmount */\n      lt\n      iszero\n        /* \"RPS1.sol\":2822:2931  require(token.allowance(players[1], players[1]) >= requiredAmount, \"Player 2 has not approved enough funds.\") */\n      tag_374\n      jumpi\n      mload(0x40)\n      0x08c379a000000000000000000000000000000000000000000000000000000000\n      dup2\n      mstore\n      0x04\n      add\n      tag_375\n      swap1\n      tag_376\n      jump\t// in\n    tag_375:\n      mload(0x40)\n      dup1\n      swap2\n      sub\n      swap1\n      revert\n    tag_374:\n        /* \"RPS1.sol\":2952:2957  token */\n      0x03\n      0x00\n      swap1\n      sload\n      swap1\n      0x0100\n      exp\n      swap1\n      div\n      0xffffffffffffffffffffffffffffffffffffffff\n      and\n        /* \"RPS1.sol\":2952:2970  token.transferFrom */\n      0xffffffffffffffffffffffffffffffffffffffff\n      and\n      0x23b872dd\n        /* \"RPS1.sol\":2979:2983  this */\n      address\n        /* \"RPS1.sol\":2986:2993  players */\n      0x0b\n        /* \"RPS1.sol\":2994:2995  0 */\n      0x00\n        /* \"RPS1.sol\":2986:2996  players[0] */\n      dup2\n      sload\n      dup2\n      lt\n      tag_377\n      jumpi\n      tag_378\n      tag_119\n      jump\t// in\n    tag_378:\n    tag_377:\n      swap1\n      0x00\n      mstore\n      keccak256(0x00, 0x20)\n      add\n      0x00\n      swap1\n      sload\n      swap1\n      0x0100\n      exp\n      swap1\n      div\n      0xffffffffffffffffffffffffffffffffffffffff\n      and\n        /* \"RPS1.sol\":2998:3012  requiredAmount */\n      sload(0x0c)\n        /* \"RPS1.sol\":2952:3013  token.transferFrom(address(this), players[0], requiredAmount) */\n      mload(0x40)\n      dup5\n      0xffffffff\n      and\n      0xe0\n      shl\n      dup2\n      mstore\n      0x04\n      add\n      tag_380\n      swap4\n      swap3\n      swap2\n      swap1\n      tag_381\n      jump\t// in\n    tag_380:\n      0x20\n      mload(0x40)\n      dup1\n      dup4\n      sub\n      dup2\n      0x00\n      dup8\n      gas\n      call\n      iszero\n      dup1\n      iszero\n      tag_383\n      jumpi\n      returndatasize\n      0x00\n      dup1\n      returndatacopy\n      revert(0x00, returndatasize)\n    tag_383:\n      pop\n      pop\n      pop\n      pop\n      mload(0x40)\n      returndatasize\n      not(0x1f)\n      0x1f\n      dup3\n      add\n      and\n      dup3\n      add\n      dup1\n      0x40\n      mstore\n      pop\n      dup2\n      add\n      swap1\n      tag_384\n      swap2\n      swap1\n      tag_156\n      jump\t// in\n    tag_384:\n      pop\n        /* \"RPS1.sol\":3024:3029  token */\n      0x03\n      0x00\n      swap1\n      sload\n      swap1\n      0x0100\n      exp\n      swap1\n      div\n      0xffffffffffffffffffffffffffffffffffffffff\n      and\n        /* \"RPS1.sol\":3024:3042  token.transferFrom */\n      0xffffffffffffffffffffffffffffffffffffffff\n      and\n      0x23b872dd\n        /* \"RPS1.sol\":3051:3055  this */\n      address\n        /* \"RPS1.sol\":3058:3065  players */\n      0x0b\n        /* \"RPS1.sol\":3066:3067  1 */\n      0x01\n        /* \"RPS1.sol\":3058:3068  players[1] */\n      dup2\n      sload\n      dup2\n      lt\n      tag_385\n      jumpi\n      tag_386\n      tag_119\n      jump\t// in\n    tag_386:\n    tag_385:\n      swap1\n      0x00\n      mstore\n      keccak256(0x00, 0x20)\n      add\n      0x00\n      swap1\n      sload\n      swap1\n      0x0100\n      exp\n      swap1\n      div\n      0xffffffffffffffffffffffffffffffffffffffff\n      and\n        /* \"RPS1.sol\":3070:3084  requiredAmount */\n      sload(0x0c)\n        /* \"RPS1.sol\":3024:3085  token.transferFrom(address(this), players[1], requiredAmount) */\n      mload(0x40)\n      dup5\n      0xffffffff\n      and\n      0xe0\n      shl\n      dup2\n      mstore\n      0x04\n      add\n      tag_388\n      swap4\n      swap3\n      swap2\n      swap1\n      tag_381\n      jump\t// in\n    tag_388:\n      0x20\n      mload(0x40)\n      dup1\n      dup4\n      sub\n      dup2\n      0x00\n      dup8\n      gas\n      call\n      iszero\n      dup1\n      iszero\n      tag_390\n      jumpi\n      returndatasize\n      0x00\n      dup1\n      returndatacopy\n      revert(0x00, returndatasize)\n    tag_390:\n      pop\n      pop\n      pop\n      pop\n      mload(0x40)\n      returndatasize\n      not(0x1f)\n      0x1f\n      dup3\n      add\n      and\n      dup3\n      add\n      dup1\n      0x40\n      mstore\n      pop\n      dup2\n      add\n      swap1\n      tag_391\n      swap2\n      swap1\n      tag_156\n      jump\t// in\n    tag_391:\n      pop\n        /* \"RPS1.sol\":3123:3124  2 */\n      0x02\n        /* \"RPS1.sol\":3106:3120  requiredAmount */\n      sload(0x0c)\n        /* \"RPS1.sol\":3106:3124  requiredAmount * 2 */\n      tag_392\n      swap2\n      swap1\n      tag_393\n      jump\t// in\n    tag_392:\n        /* \"RPS1.sol\":3096:3102  reward */\n      0x05\n      0x00\n        /* \"RPS1.sol\":3096:3124  reward += requiredAmount * 2 */\n      dup3\n      dup3\n      sload\n      tag_394\n      swap2\n      swap1\n      tag_128\n      jump\t// in\n    tag_394:\n      swap3\n      pop\n      pop\n      dup2\n      swap1\n      sstore\n      pop\n        /* \"RPS1.sol\":2658:3132  function _collectFunds() private {... */\n      jump\t// out\n    tag_281:\n      pop\n      dup1\n      sload\n      0x00\n      dup3\n      sstore\n      swap1\n      0x00\n      mstore\n      keccak256(0x00, 0x20)\n      swap1\n      dup2\n      add\n      swap1\n      tag_396\n      swap2\n      swap1\n      tag_397\n      jump\t// in\n    tag_396:\n      pop\n      jump\t// out\n    tag_397:\n    tag_398:\n      dup1\n      dup3\n      gt\n      iszero\n      tag_399\n      jumpi\n      0x00\n      dup2\n      0x00\n      swap1\n      sstore\n      pop\n      0x01\n      add\n      jump(tag_398)\n    tag_399:\n      pop\n      swap1\n      jump\t// out\n        /* \"#utility.yul\":7:84   */\n    tag_400:\n        /* \"#utility.yul\":44:51   */\n      0x00\n        /* \"#utility.yul\":73:78   */\n      dup2\n        /* \"#utility.yul\":62:78   */\n      swap1\n      pop\n        /* \"#utility.yul\":7:84   */\n      swap2\n      swap1\n      pop\n      jump\t// out\n        /* \"#utility.yul\":90:208   */\n    tag_401:\n        /* \"#utility.yul\":177:201   */\n      tag_470\n        /* \"#utility.yul\":195:200   */\n      dup2\n        /* \"#utility.yul\":177:201   */\n      tag_400\n      jump\t// in\n    tag_470:\n        /* \"#utility.yul\":172:175   */\n      dup3\n        /* \"#utility.yul\":165:202   */\n      mstore\n        /* \"#utility.yul\":90:208   */\n      pop\n      pop\n      jump\t// out\n        /* \"#utility.yul\":214:436   */\n    tag_30:\n        /* \"#utility.yul\":307:311   */\n      0x00\n        /* \"#utility.yul\":345:347   */\n      0x20\n        /* \"#utility.yul\":334:343   */\n      dup3\n        /* \"#utility.yul\":330:348   */\n      add\n        /* \"#utility.yul\":322:348   */\n      swap1\n      pop\n        /* \"#utility.yul\":358:429   */\n      tag_472\n        /* \"#utility.yul\":426:427   */\n      0x00\n        /* \"#utility.yul\":415:424   */\n      dup4\n        /* \"#utility.yul\":411:428   */\n      add\n        /* \"#utility.yul\":402:408   */\n      dup5\n        /* \"#utility.yul\":358:429   */\n      tag_401\n      jump\t// in\n    tag_472:\n        /* \"#utility.yul\":214:436   */\n      swap3\n      swap2\n      pop\n      pop\n      jump\t// out\n        /* \"#utility.yul\":523:640   */\n    tag_403:\n        /* \"#utility.yul\":632:633   */\n      0x00\n        /* \"#utility.yul\":629:630   */\n      dup1\n        /* \"#utility.yul\":622:634   */\n      revert\n        /* \"#utility.yul\":769:846   */\n    tag_405:\n        /* \"#utility.yul\":806:813   */\n      0x00\n        /* \"#utility.yul\":835:840   */\n      dup2\n        /* \"#utility.yul\":824:840   */\n      swap1\n      pop\n        /* \"#utility.yul\":769:846   */\n      swap2\n      swap1\n      pop\n      jump\t// out\n        /* \"#utility.yul\":852:974   */\n    tag_406:\n        /* \"#utility.yul\":925:949   */\n      tag_478\n        /* \"#utility.yul\":943:948   */\n      dup2\n        /* \"#utility.yul\":925:949   */\n      tag_405\n      jump\t// in\n    tag_478:\n        /* \"#utility.yul\":918:923   */\n      dup2\n        /* \"#utility.yul\":915:950   */\n      eq\n        /* \"#utility.yul\":905:968   */\n      tag_479\n      jumpi\n        /* \"#utility.yul\":964:965   */\n      0x00\n        /* \"#utility.yul\":961:962   */\n      dup1\n        /* \"#utility.yul\":954:966   */\n      revert\n        /* \"#utility.yul\":905:968   */\n    tag_479:\n        /* \"#utility.yul\":852:974   */\n      pop\n      jump\t// out\n        /* \"#utility.yul\":980:1119   */\n    tag_407:\n        /* \"#utility.yul\":1026:1031   */\n      0x00\n        /* \"#utility.yul\":1064:1070   */\n      dup2\n        /* \"#utility.yul\":1051:1071   */\n      calldataload\n        /* \"#utility.yul\":1042:1071   */\n      swap1\n      pop\n        /* \"#utility.yul\":1080:1113   */\n      tag_481\n        /* \"#utility.yul\":1107:1112   */\n      dup2\n        /* \"#utility.yul\":1080:1113   */\n      tag_406\n      jump\t// in\n    tag_481:\n        /* \"#utility.yul\":980:1119   */\n      swap3\n      swap2\n      pop\n      pop\n      jump\t// out\n        /* \"#utility.yul\":1125:1454   */\n    tag_38:\n        /* \"#utility.yul\":1184:1190   */\n      0x00\n        /* \"#utility.yul\":1233:1235   */\n      0x20\n        /* \"#utility.yul\":1221:1230   */\n      dup3\n        /* \"#utility.yul\":1212:1219   */\n      dup5\n        /* \"#utility.yul\":1208:1231   */\n      sub\n        /* \"#utility.yul\":1204:1236   */\n      slt\n        /* \"#utility.yul\":1201:1320   */\n      iszero\n      tag_483\n      jumpi\n        /* \"#utility.yul\":1239:1318   */\n      tag_484\n      tag_403\n      jump\t// in\n    tag_484:\n        /* \"#utility.yul\":1201:1320   */\n    tag_483:\n        /* \"#utility.yul\":1359:1360   */\n      0x00\n        /* \"#utility.yul\":1384:1437   */\n      tag_485\n        /* \"#utility.yul\":1429:1436   */\n      dup5\n        /* \"#utility.yul\":1420:1426   */\n      dup3\n        /* \"#utility.yul\":1409:1418   */\n      dup6\n        /* \"#utility.yul\":1405:1427   */\n      add\n        /* \"#utility.yul\":1384:1437   */\n      tag_407\n      jump\t// in\n    tag_485:\n        /* \"#utility.yul\":1374:1437   */\n      swap2\n      pop\n        /* \"#utility.yul\":1330:1447   */\n      pop\n        /* \"#utility.yul\":1125:1454   */\n      swap3\n      swap2\n      pop\n      pop\n      jump\t// out\n        /* \"#utility.yul\":1460:1578   */\n    tag_408:\n        /* \"#utility.yul\":1547:1571   */\n      tag_487\n        /* \"#utility.yul\":1565:1570   */\n      dup2\n        /* \"#utility.yul\":1547:1571   */\n      tag_405\n      jump\t// in\n    tag_487:\n        /* \"#utility.yul\":1542:1545   */\n      dup3\n        /* \"#utility.yul\":1535:1572   */\n      mstore\n        /* \"#utility.yul\":1460:1578   */\n      pop\n      pop\n      jump\t// out\n        /* \"#utility.yul\":1584:1806   */\n    tag_41:\n        /* \"#utility.yul\":1677:1681   */\n      0x00\n        /* \"#utility.yul\":1715:1717   */\n      0x20\n        /* \"#utility.yul\":1704:1713   */\n      dup3\n        /* \"#utility.yul\":1700:1718   */\n      add\n        /* \"#utility.yul\":1692:1718   */\n      swap1\n      pop\n        /* \"#utility.yul\":1728:1799   */\n      tag_489\n        /* \"#utility.yul\":1796:1797   */\n      0x00\n        /* \"#utility.yul\":1785:1794   */\n      dup4\n        /* \"#utility.yul\":1781:1798   */\n      add\n        /* \"#utility.yul\":1772:1778   */\n      dup5\n        /* \"#utility.yul\":1728:1799   */\n      tag_408\n      jump\t// in\n    tag_489:\n        /* \"#utility.yul\":1584:1806   */\n      swap3\n      swap2\n      pop\n      pop\n      jump\t// out\n        /* \"#utility.yul\":1812:1938   */\n    tag_409:\n        /* \"#utility.yul\":1849:1856   */\n      0x00\n        /* \"#utility.yul\":1889:1931   */\n      0xffffffffffffffffffffffffffffffffffffffff\n        /* \"#utility.yul\":1882:1887   */\n      dup3\n        /* \"#utility.yul\":1878:1932   */\n      and\n        /* \"#utility.yul\":1867:1932   */\n      swap1\n      pop\n        /* \"#utility.yul\":1812:1938   */\n      swap2\n      swap1\n      pop\n      jump\t// out\n        /* \"#utility.yul\":1944:2040   */\n    tag_410:\n        /* \"#utility.yul\":1981:1988   */\n      0x00\n        /* \"#utility.yul\":2010:2034   */\n      tag_492\n        /* \"#utility.yul\":2028:2033   */\n      dup3\n        /* \"#utility.yul\":2010:2034   */\n      tag_409\n      jump\t// in\n    tag_492:\n        /* \"#utility.yul\":1999:2034   */\n      swap1\n      pop\n        /* \"#utility.yul\":1944:2040   */\n      swap2\n      swap1\n      pop\n      jump\t// out\n        /* \"#utility.yul\":2046:2168   */\n    tag_411:\n        /* \"#utility.yul\":2119:2143   */\n      tag_494\n        /* \"#utility.yul\":2137:2142   */\n      dup2\n        /* \"#utility.yul\":2119:2143   */\n      tag_410\n      jump\t// in\n    tag_494:\n        /* \"#utility.yul\":2112:2117   */\n      dup2\n        /* \"#utility.yul\":2109:2144   */\n      eq\n        /* \"#utility.yul\":2099:2162   */\n      tag_495\n      jumpi\n        /* \"#utility.yul\":2158:2159   */\n      0x00\n        /* \"#utility.yul\":2155:2156   */\n      dup1\n        /* \"#utility.yul\":2148:2160   */\n      revert\n        /* \"#utility.yul\":2099:2162   */\n    tag_495:\n        /* \"#utility.yul\":2046:2168   */\n      pop\n      jump\t// out\n        /* \"#utility.yul\":2174:2313   */\n    tag_412:\n        /* \"#utility.yul\":2220:2225   */\n      0x00\n        /* \"#utility.yul\":2258:2264   */\n      dup2\n        /* \"#utility.yul\":2245:2265   */\n      calldataload\n        /* \"#utility.yul\":2236:2265   */\n      swap1\n      pop\n        /* \"#utility.yul\":2274:2307   */\n      tag_497\n        /* \"#utility.yul\":2301:2306   */\n      dup2\n        /* \"#utility.yul\":2274:2307   */\n      tag_411\n      jump\t// in\n    tag_497:\n        /* \"#utility.yul\":2174:2313   */\n      swap3\n      swap2\n      pop\n      pop\n      jump\t// out\n        /* \"#utility.yul\":2319:2648   */\n    tag_44:\n        /* \"#utility.yul\":2378:2384   */\n      0x00\n        /* \"#utility.yul\":2427:2429   */\n      0x20\n        /* \"#utility.yul\":2415:2424   */\n      dup3\n        /* \"#utility.yul\":2406:2413   */\n      dup5\n        /* \"#utility.yul\":2402:2425   */\n      sub\n        /* \"#utility.yul\":2398:2430   */\n      slt\n        /* \"#utility.yul\":2395:2514   */\n      iszero\n      tag_499\n      jumpi\n        /* \"#utility.yul\":2433:2512   */\n      tag_500\n      tag_403\n      jump\t// in\n    tag_500:\n        /* \"#utility.yul\":2395:2514   */\n    tag_499:\n        /* \"#utility.yul\":2553:2554   */\n      0x00\n        /* \"#utility.yul\":2578:2631   */\n      tag_501\n        /* \"#utility.yul\":2623:2630   */\n      dup5\n        /* \"#utility.yul\":2614:2620   */\n      dup3\n        /* \"#utility.yul\":2603:2612   */\n      dup6\n        /* \"#utility.yul\":2599:2621   */\n      add\n        /* \"#utility.yul\":2578:2631   */\n      tag_412\n      jump\t// in\n    tag_501:\n        /* \"#utility.yul\":2568:2631   */\n      swap2\n      pop\n        /* \"#utility.yul\":2524:2641   */\n      pop\n        /* \"#utility.yul\":2319:2648   */\n      swap3\n      swap2\n      pop\n      pop\n      jump\t// out\n        /* \"#utility.yul\":2654:2744   */\n    tag_413:\n        /* \"#utility.yul\":2688:2695   */\n      0x00\n        /* \"#utility.yul\":2731:2736   */\n      dup2\n        /* \"#utility.yul\":2724:2737   */\n      iszero\n        /* \"#utility.yul\":2717:2738   */\n      iszero\n        /* \"#utility.yul\":2706:2738   */\n      swap1\n      pop\n        /* \"#utility.yul\":2654:2744   */\n      swap2\n      swap1\n      pop\n      jump\t// out\n        /* \"#utility.yul\":2750:2859   */\n    tag_414:\n        /* \"#utility.yul\":2831:2852   */\n      tag_504\n        /* \"#utility.yul\":2846:2851   */\n      dup2\n        /* \"#utility.yul\":2831:2852   */\n      tag_413\n      jump\t// in\n    tag_504:\n        /* \"#utility.yul\":2826:2829   */\n      dup3\n        /* \"#utility.yul\":2819:2853   */\n      mstore\n        /* \"#utility.yul\":2750:2859   */\n      pop\n      pop\n      jump\t// out\n        /* \"#utility.yul\":2865:3075   */\n    tag_47:\n        /* \"#utility.yul\":2952:2956   */\n      0x00\n        /* \"#utility.yul\":2990:2992   */\n      0x20\n        /* \"#utility.yul\":2979:2988   */\n      dup3\n        /* \"#utility.yul\":2975:2993   */\n      add\n        /* \"#utility.yul\":2967:2993   */\n      swap1\n      pop\n        /* \"#utility.yul\":3003:3068   */\n      tag_506\n        /* \"#utility.yul\":3065:3066   */\n      0x00\n        /* \"#utility.yul\":3054:3063   */\n      dup4\n        /* \"#utility.yul\":3050:3067   */\n      add\n        /* \"#utility.yul\":3041:3047   */\n      dup5\n        /* \"#utility.yul\":3003:3068   */\n      tag_414\n      jump\t// in\n    tag_506:\n        /* \"#utility.yul\":2865:3075   */\n      swap3\n      swap2\n      pop\n      pop\n      jump\t// out\n        /* \"#utility.yul\":3081:3167   */\n    tag_415:\n        /* \"#utility.yul\":3116:3123   */\n      0x00\n        /* \"#utility.yul\":3156:3160   */\n      0xff\n        /* \"#utility.yul\":3149:3154   */\n      dup3\n        /* \"#utility.yul\":3145:3161   */\n      and\n        /* \"#utility.yul\":3134:3161   */\n      swap1\n      pop\n        /* \"#utility.yul\":3081:3167   */\n      swap2\n      swap1\n      pop\n      jump\t// out\n        /* \"#utility.yul\":3173:3285   */\n    tag_416:\n        /* \"#utility.yul\":3256:3278   */\n      tag_509\n        /* \"#utility.yul\":3272:3277   */\n      dup2\n        /* \"#utility.yul\":3256:3278   */\n      tag_415\n      jump\t// in\n    tag_509:\n        /* \"#utility.yul\":3251:3254   */\n      dup3\n        /* \"#utility.yul\":3244:3279   */\n      mstore\n        /* \"#utility.yul\":3173:3285   */\n      pop\n      pop\n      jump\t// out\n        /* \"#utility.yul\":3291:3505   */\n    tag_59:\n        /* \"#utility.yul\":3380:3384   */\n      0x00\n        /* \"#utility.yul\":3418:3420   */\n      0x20\n        /* \"#utility.yul\":3407:3416   */\n      dup3\n        /* \"#utility.yul\":3403:3421   */\n      add\n        /* \"#utility.yul\":3395:3421   */\n      swap1\n      pop\n        /* \"#utility.yul\":3431:3498   */\n      tag_511\n        /* \"#utility.yul\":3495:3496   */\n      0x00\n        /* \"#utility.yul\":3484:3493   */\n      dup4\n        /* \"#utility.yul\":3480:3497   */\n      add\n        /* \"#utility.yul\":3471:3477   */\n      dup5\n        /* \"#utility.yul\":3431:3498   */\n      tag_416\n      jump\t// in\n    tag_511:\n        /* \"#utility.yul\":3291:3505   */\n      swap3\n      swap2\n      pop\n      pop\n      jump\t// out\n        /* \"#utility.yul\":3511:3612   */\n    tag_417:\n        /* \"#utility.yul\":3547:3554   */\n      0x00\n        /* \"#utility.yul\":3587:3605   */\n      0xffffffffffffffff\n        /* \"#utility.yul\":3580:3585   */\n      dup3\n        /* \"#utility.yul\":3576:3606   */\n      and\n        /* \"#utility.yul\":3565:3606   */\n      swap1\n      pop\n        /* \"#utility.yul\":3511:3612   */\n      swap2\n      swap1\n      pop\n      jump\t// out\n        /* \"#utility.yul\":3618:3733   */\n    tag_418:\n        /* \"#utility.yul\":3703:3726   */\n      tag_514\n        /* \"#utility.yul\":3720:3725   */\n      dup2\n        /* \"#utility.yul\":3703:3726   */\n      tag_417\n      jump\t// in\n    tag_514:\n        /* \"#utility.yul\":3698:3701   */\n      dup3\n        /* \"#utility.yul\":3691:3727   */\n      mstore\n        /* \"#utility.yul\":3618:3733   */\n      pop\n      pop\n      jump\t// out\n        /* \"#utility.yul\":3739:4165   */\n    tag_67:\n        /* \"#utility.yul\":3880:3884   */\n      0x00\n        /* \"#utility.yul\":3918:3920   */\n      0x60\n        /* \"#utility.yul\":3907:3916   */\n      dup3\n        /* \"#utility.yul\":3903:3921   */\n      add\n        /* \"#utility.yul\":3895:3921   */\n      swap1\n      pop\n        /* \"#utility.yul\":3931:4002   */\n      tag_516\n        /* \"#utility.yul\":3999:4000   */\n      0x00\n        /* \"#utility.yul\":3988:3997   */\n      dup4\n        /* \"#utility.yul\":3984:4001   */\n      add\n        /* \"#utility.yul\":3975:3981   */\n      dup7\n        /* \"#utility.yul\":3931:4002   */\n      tag_408\n      jump\t// in\n    tag_516:\n        /* \"#utility.yul\":4012:4082   */\n      tag_517\n        /* \"#utility.yul\":4078:4080   */\n      0x20\n        /* \"#utility.yul\":4067:4076   */\n      dup4\n        /* \"#utility.yul\":4063:4081   */\n      add\n        /* \"#utility.yul\":4054:4060   */\n      dup6\n        /* \"#utility.yul\":4012:4082   */\n      tag_418\n      jump\t// in\n    tag_517:\n        /* \"#utility.yul\":4092:4158   */\n      tag_518\n        /* \"#utility.yul\":4154:4156   */\n      0x40\n        /* \"#utility.yul\":4143:4152   */\n      dup4\n        /* \"#utility.yul\":4139:4157   */\n      add\n        /* \"#utility.yul\":4130:4136   */\n      dup5\n        /* \"#utility.yul\":4092:4158   */\n      tag_414\n      jump\t// in\n    tag_518:\n        /* \"#utility.yul\":3739:4165   */\n      swap5\n      swap4\n      pop\n      pop\n      pop\n      pop\n      jump\t// out\n        /* \"#utility.yul\":4171:4293   */\n    tag_419:\n        /* \"#utility.yul\":4244:4268   */\n      tag_520\n        /* \"#utility.yul\":4262:4267   */\n      dup2\n        /* \"#utility.yul\":4244:4268   */\n      tag_400\n      jump\t// in\n    tag_520:\n        /* \"#utility.yul\":4237:4242   */\n      dup2\n        /* \"#utility.yul\":4234:4269   */\n      eq\n        /* \"#utility.yul\":4224:4287   */\n      tag_521\n      jumpi\n        /* \"#utility.yul\":4283:4284   */\n      0x00\n        /* \"#utility.yul\":4280:4281   */\n      dup1\n        /* \"#utility.yul\":4273:4285   */\n      revert\n        /* \"#utility.yul\":4224:4287   */\n    tag_521:\n        /* \"#utility.yul\":4171:4293   */\n      pop\n      jump\t// out\n        /* \"#utility.yul\":4299:4438   */\n    tag_420:\n        /* \"#utility.yul\":4345:4350   */\n      0x00\n        /* \"#utility.yul\":4383:4389   */\n      dup2\n        /* \"#utility.yul\":4370:4390   */\n      calldataload\n        /* \"#utility.yul\":4361:4390   */\n      swap1\n      pop\n        /* \"#utility.yul\":4399:4432   */\n      tag_523\n        /* \"#utility.yul\":4426:4431   */\n      dup2\n        /* \"#utility.yul\":4399:4432   */\n      tag_419\n      jump\t// in\n    tag_523:\n        /* \"#utility.yul\":4299:4438   */\n      swap3\n      swap2\n      pop\n      pop\n      jump\t// out\n        /* \"#utility.yul\":4444:4773   */\n    tag_95:\n        /* \"#utility.yul\":4503:4509   */\n      0x00\n        /* \"#utility.yul\":4552:4554   */\n      0x20\n        /* \"#utility.yul\":4540:4549   */\n      dup3\n        /* \"#utility.yul\":4531:4538   */\n      dup5\n        /* \"#utility.yul\":4527:4550   */\n      sub\n        /* \"#utility.yul\":4523:4555   */\n      slt\n        /* \"#utility.yul\":4520:4639   */\n      iszero\n      tag_525\n      jumpi\n        /* \"#utility.yul\":4558:4637   */\n      tag_526\n      tag_403\n      jump\t// in\n    tag_526:\n        /* \"#utility.yul\":4520:4639   */\n    tag_525:\n        /* \"#utility.yul\":4678:4679   */\n      0x00\n        /* \"#utility.yul\":4703:4756   */\n      tag_527\n        /* \"#utility.yul\":4748:4755   */\n      dup5\n        /* \"#utility.yul\":4739:4745   */\n      dup3\n        /* \"#utility.yul\":4728:4737   */\n      dup6\n        /* \"#utility.yul\":4724:4746   */\n      add\n        /* \"#utility.yul\":4703:4756   */\n      tag_420\n      jump\t// in\n    tag_527:\n        /* \"#utility.yul\":4693:4756   */\n      swap2\n      pop\n        /* \"#utility.yul\":4649:4766   */\n      pop\n        /* \"#utility.yul\":4444:4773   */\n      swap3\n      swap2\n      pop\n      pop\n      jump\t// out\n        /* \"#utility.yul\":4779:4897   */\n    tag_421:\n        /* \"#utility.yul\":4866:4890   */\n      tag_529\n        /* \"#utility.yul\":4884:4889   */\n      dup2\n        /* \"#utility.yul\":4866:4890   */\n      tag_410\n      jump\t// in\n    tag_529:\n        /* \"#utility.yul\":4861:4864   */\n      dup3\n        /* \"#utility.yul\":4854:4891   */\n      mstore\n        /* \"#utility.yul\":4779:4897   */\n      pop\n      pop\n      jump\t// out\n        /* \"#utility.yul\":4903:5125   */\n    tag_98:\n        /* \"#utility.yul\":4996:5000   */\n      0x00\n        /* \"#utility.yul\":5034:5036   */\n      0x20\n        /* \"#utility.yul\":5023:5032   */\n      dup3\n        /* \"#utility.yul\":5019:5037   */\n      add\n        /* \"#utility.yul\":5011:5037   */\n      swap1\n      pop\n        /* \"#utility.yul\":5047:5118   */\n      tag_531\n        /* \"#utility.yul\":5115:5116   */\n      0x00\n        /* \"#utility.yul\":5104:5113   */\n      dup4\n        /* \"#utility.yul\":5100:5117   */\n      add\n        /* \"#utility.yul\":5091:5097   */\n      dup5\n        /* \"#utility.yul\":5047:5118   */\n      tag_421\n      jump\t// in\n    tag_531:\n        /* \"#utility.yul\":4903:5125   */\n      swap3\n      swap2\n      pop\n      pop\n      jump\t// out\n        /* \"#utility.yul\":5131:5191   */\n    tag_422:\n        /* \"#utility.yul\":5159:5162   */\n      0x00\n        /* \"#utility.yul\":5180:5185   */\n      dup2\n        /* \"#utility.yul\":5173:5185   */\n      swap1\n      pop\n        /* \"#utility.yul\":5131:5191   */\n      swap2\n      swap1\n      pop\n      jump\t// out\n        /* \"#utility.yul\":5197:5339   */\n    tag_423:\n        /* \"#utility.yul\":5247:5256   */\n      0x00\n        /* \"#utility.yul\":5280:5333   */\n      tag_534\n        /* \"#utility.yul\":5298:5332   */\n      tag_535\n        /* \"#utility.yul\":5307:5331   */\n      tag_536\n        /* \"#utility.yul\":5325:5330   */\n      dup5\n        /* \"#utility.yul\":5307:5331   */\n      tag_409\n      jump\t// in\n    tag_536:\n        /* \"#utility.yul\":5298:5332   */\n      tag_422\n      jump\t// in\n    tag_535:\n        /* \"#utility.yul\":5280:5333   */\n      tag_409\n      jump\t// in\n    tag_534:\n        /* \"#utility.yul\":5267:5333   */\n      swap1\n      pop\n        /* \"#utility.yul\":5197:5339   */\n      swap2\n      swap1\n      pop\n      jump\t// out\n        /* \"#utility.yul\":5345:5471   */\n    tag_424:\n        /* \"#utility.yul\":5395:5404   */\n      0x00\n        /* \"#utility.yul\":5428:5465   */\n      tag_538\n        /* \"#utility.yul\":5459:5464   */\n      dup3\n        /* \"#utility.yul\":5428:5465   */\n      tag_423\n      jump\t// in\n    tag_538:\n        /* \"#utility.yul\":5415:5465   */\n      swap1\n      pop\n        /* \"#utility.yul\":5345:5471   */\n      swap2\n      swap1\n      pop\n      jump\t// out\n        /* \"#utility.yul\":5477:5616   */\n    tag_425:\n        /* \"#utility.yul\":5540:5549   */\n      0x00\n        /* \"#utility.yul\":5573:5610   */\n      tag_540\n        /* \"#utility.yul\":5604:5609   */\n      dup3\n        /* \"#utility.yul\":5573:5610   */\n      tag_424\n      jump\t// in\n    tag_540:\n        /* \"#utility.yul\":5560:5610   */\n      swap1\n      pop\n        /* \"#utility.yul\":5477:5616   */\n      swap2\n      swap1\n      pop\n      jump\t// out\n        /* \"#utility.yul\":5622:5779   */\n    tag_426:\n        /* \"#utility.yul\":5722:5772   */\n      tag_542\n        /* \"#utility.yul\":5766:5771   */\n      dup2\n        /* \"#utility.yul\":5722:5772   */\n      tag_425\n      jump\t// in\n    tag_542:\n        /* \"#utility.yul\":5717:5720   */\n      dup3\n        /* \"#utility.yul\":5710:5773   */\n      mstore\n        /* \"#utility.yul\":5622:5779   */\n      pop\n      pop\n      jump\t// out\n        /* \"#utility.yul\":5785:6033   */\n    tag_102:\n        /* \"#utility.yul\":5891:5895   */\n      0x00\n        /* \"#utility.yul\":5929:5931   */\n      0x20\n        /* \"#utility.yul\":5918:5927   */\n      dup3\n        /* \"#utility.yul\":5914:5932   */\n      add\n        /* \"#utility.yul\":5906:5932   */\n      swap1\n      pop\n        /* \"#utility.yul\":5942:6026   */\n      tag_544\n        /* \"#utility.yul\":6023:6024   */\n      0x00\n        /* \"#utility.yul\":6012:6021   */\n      dup4\n        /* \"#utility.yul\":6008:6025   */\n      add\n        /* \"#utility.yul\":5999:6005   */\n      dup5\n        /* \"#utility.yul\":5942:6026   */\n      tag_426\n      jump\t// in\n    tag_544:\n        /* \"#utility.yul\":5785:6033   */\n      swap3\n      swap2\n      pop\n      pop\n      jump\t// out\n        /* \"#utility.yul\":6039:6208   */\n    tag_427:\n        /* \"#utility.yul\":6123:6134   */\n      0x00\n        /* \"#utility.yul\":6157:6163   */\n      dup3\n        /* \"#utility.yul\":6152:6155   */\n      dup3\n        /* \"#utility.yul\":6145:6164   */\n      mstore\n        /* \"#utility.yul\":6197:6201   */\n      0x20\n        /* \"#utility.yul\":6192:6195   */\n      dup3\n        /* \"#utility.yul\":6188:6202   */\n      add\n        /* \"#utility.yul\":6173:6202   */\n      swap1\n      pop\n        /* \"#utility.yul\":6039:6208   */\n      swap3\n      swap2\n      pop\n      pop\n      jump\t// out\n        /* \"#utility.yul\":6214:6391   */\n    tag_428:\n        /* \"#utility.yul\":6354:6383   */\n      0x47616d6520616c726561647920686173203220706c61796572732e0000000000\n        /* \"#utility.yul\":6350:6351   */\n      0x00\n        /* \"#utility.yul\":6342:6348   */\n      dup3\n        /* \"#utility.yul\":6338:6352   */\n      add\n        /* \"#utility.yul\":6331:6384   */\n      mstore\n        /* \"#utility.yul\":6214:6391   */\n      pop\n      jump\t// out\n        /* \"#utility.yul\":6397:6763   */\n    tag_429:\n        /* \"#utility.yul\":6539:6542   */\n      0x00\n        /* \"#utility.yul\":6560:6627   */\n      tag_548\n        /* \"#utility.yul\":6624:6626   */\n      0x1b\n        /* \"#utility.yul\":6619:6622   */\n      dup4\n        /* \"#utility.yul\":6560:6627   */\n      tag_427\n      jump\t// in\n    tag_548:\n        /* \"#utility.yul\":6553:6627   */\n      swap2\n      pop\n        /* \"#utility.yul\":6636:6729   */\n      tag_549\n        /* \"#utility.yul\":6725:6728   */\n      dup3\n        /* \"#utility.yul\":6636:6729   */\n      tag_428\n      jump\t// in\n    tag_549:\n        /* \"#utility.yul\":6754:6756   */\n      0x20\n        /* \"#utility.yul\":6749:6752   */\n      dup3\n        /* \"#utility.yul\":6745:6757   */\n      add\n        /* \"#utility.yul\":6738:6757   */\n      swap1\n      pop\n        /* \"#utility.yul\":6397:6763   */\n      swap2\n      swap1\n      pop\n      jump\t// out\n        /* \"#utility.yul\":6769:7188   */\n    tag_106:\n        /* \"#utility.yul\":6935:6939   */\n      0x00\n        /* \"#utility.yul\":6973:6975   */\n      0x20\n        /* \"#utility.yul\":6962:6971   */\n      dup3\n        /* \"#utility.yul\":6958:6976   */\n      add\n        /* \"#utility.yul\":6950:6976   */\n      swap1\n      pop\n        /* \"#utility.yul\":7022:7031   */\n      dup2\n        /* \"#utility.yul\":7016:7020   */\n      dup2\n        /* \"#utility.yul\":7012:7032   */\n      sub\n        /* \"#utility.yul\":7008:7009   */\n      0x00\n        /* \"#utility.yul\":6997:7006   */\n      dup4\n        /* \"#utility.yul\":6993:7010   */\n      add\n        /* \"#utility.yul\":6986:7033   */\n      mstore\n        /* \"#utility.yul\":7050:7181   */\n      tag_551\n        /* \"#utility.yul\":7176:7180   */\n      dup2\n        /* \"#utility.yul\":7050:7181   */\n      tag_429\n      jump\t// in\n    tag_551:\n        /* \"#utility.yul\":7042:7181   */\n      swap1\n      pop\n        /* \"#utility.yul\":6769:7188   */\n      swap2\n      swap1\n      pop\n      jump\t// out\n        /* \"#utility.yul\":7194:7526   */\n    tag_108:\n        /* \"#utility.yul\":7315:7319   */\n      0x00\n        /* \"#utility.yul\":7353:7355   */\n      0x40\n        /* \"#utility.yul\":7342:7351   */\n      dup3\n        /* \"#utility.yul\":7338:7356   */\n      add\n        /* \"#utility.yul\":7330:7356   */\n      swap1\n      pop\n        /* \"#utility.yul\":7366:7437   */\n      tag_553\n        /* \"#utility.yul\":7434:7435   */\n      0x00\n        /* \"#utility.yul\":7423:7432   */\n      dup4\n        /* \"#utility.yul\":7419:7436   */\n      add\n        /* \"#utility.yul\":7410:7416   */\n      dup6\n        /* \"#utility.yul\":7366:7437   */\n      tag_421\n      jump\t// in\n    tag_553:\n        /* \"#utility.yul\":7447:7519   */\n      tag_554\n        /* \"#utility.yul\":7515:7517   */\n      0x20\n        /* \"#utility.yul\":7504:7513   */\n      dup4\n        /* \"#utility.yul\":7500:7518   */\n      add\n        /* \"#utility.yul\":7491:7497   */\n      dup5\n        /* \"#utility.yul\":7447:7519   */\n      tag_421\n      jump\t// in\n    tag_554:\n        /* \"#utility.yul\":7194:7526   */\n      swap4\n      swap3\n      pop\n      pop\n      pop\n      jump\t// out\n        /* \"#utility.yul\":7532:7675   */\n    tag_430:\n        /* \"#utility.yul\":7589:7594   */\n      0x00\n        /* \"#utility.yul\":7620:7626   */\n      dup2\n        /* \"#utility.yul\":7614:7627   */\n      mload\n        /* \"#utility.yul\":7605:7627   */\n      swap1\n      pop\n        /* \"#utility.yul\":7636:7669   */\n      tag_556\n        /* \"#utility.yul\":7663:7668   */\n      dup2\n        /* \"#utility.yul\":7636:7669   */\n      tag_419\n      jump\t// in\n    tag_556:\n        /* \"#utility.yul\":7532:7675   */\n      swap3\n      swap2\n      pop\n      pop\n      jump\t// out\n        /* \"#utility.yul\":7681:8032   */\n    tag_112:\n        /* \"#utility.yul\":7751:7757   */\n      0x00\n        /* \"#utility.yul\":7800:7802   */\n      0x20\n        /* \"#utility.yul\":7788:7797   */\n      dup3\n        /* \"#utility.yul\":7779:7786   */\n      dup5\n        /* \"#utility.yul\":7775:7798   */\n      sub\n        /* \"#utility.yul\":7771:7803   */\n      slt\n        /* \"#utility.yul\":7768:7887   */\n      iszero\n      tag_558\n      jumpi\n        /* \"#utility.yul\":7806:7885   */\n      tag_559\n      tag_403\n      jump\t// in\n    tag_559:\n        /* \"#utility.yul\":7768:7887   */\n    tag_558:\n        /* \"#utility.yul\":7926:7927   */\n      0x00\n        /* \"#utility.yul\":7951:8015   */\n      tag_560\n        /* \"#utility.yul\":8007:8014   */\n      dup5\n        /* \"#utility.yul\":7998:8004   */\n      dup3\n        /* \"#utility.yul\":7987:7996   */\n      dup6\n        /* \"#utility.yul\":7983:8005   */\n      add\n        /* \"#utility.yul\":7951:8015   */\n      tag_430\n      jump\t// in\n    tag_560:\n        /* \"#utility.yul\":7941:8015   */\n      swap2\n      pop\n        /* \"#utility.yul\":7897:8025   */\n      pop\n        /* \"#utility.yul\":7681:8032   */\n      swap3\n      swap2\n      pop\n      pop\n      jump\t// out\n        /* \"#utility.yul\":8038:8260   */\n    tag_431:\n        /* \"#utility.yul\":8178:8212   */\n      0x417070726f766520636f6e747261637420746f2077697468647261772066756e\n        /* \"#utility.yul\":8174:8175   */\n      0x00\n        /* \"#utility.yul\":8166:8172   */\n      dup3\n        /* \"#utility.yul\":8162:8176   */\n      add\n        /* \"#utility.yul\":8155:8213   */\n      mstore\n        /* \"#utility.yul\":8247:8252   */\n      0x64732e0000000000000000000000000000000000000000000000000000000000\n        /* \"#utility.yul\":8242:8244   */\n      0x20\n        /* \"#utility.yul\":8234:8240   */\n      dup3\n        /* \"#utility.yul\":8230:8245   */\n      add\n        /* \"#utility.yul\":8223:8253   */\n      mstore\n        /* \"#utility.yul\":8038:8260   */\n      pop\n      jump\t// out\n        /* \"#utility.yul\":8266:8632   */\n    tag_432:\n        /* \"#utility.yul\":8408:8411   */\n      0x00\n        /* \"#utility.yul\":8429:8496   */\n      tag_563\n        /* \"#utility.yul\":8493:8495   */\n      0x23\n        /* \"#utility.yul\":8488:8491   */\n      dup4\n        /* \"#utility.yul\":8429:8496   */\n      tag_427\n      jump\t// in\n    tag_563:\n        /* \"#utility.yul\":8422:8496   */\n      swap2\n      pop\n        /* \"#utility.yul\":8505:8598   */\n      tag_564\n        /* \"#utility.yul\":8594:8597   */\n      dup3\n        /* \"#utility.yul\":8505:8598   */\n      tag_431\n      jump\t// in\n    tag_564:\n        /* \"#utility.yul\":8623:8625   */\n      0x40\n        /* \"#utility.yul\":8618:8621   */\n      dup3\n        /* \"#utility.yul\":8614:8626   */\n      add\n        /* \"#utility.yul\":8607:8626   */\n      swap1\n      pop\n        /* \"#utility.yul\":8266:8632   */\n      swap2\n      swap1\n      pop\n      jump\t// out\n        /* \"#utility.yul\":8638:9057   */\n    tag_115:\n        /* \"#utility.yul\":8804:8808   */\n      0x00\n        /* \"#utility.yul\":8842:8844   */\n      0x20\n        /* \"#utility.yul\":8831:8840   */\n      dup3\n        /* \"#utility.yul\":8827:8845   */\n      add\n        /* \"#utility.yul\":8819:8845   */\n      swap1\n      pop\n        /* \"#utility.yul\":8891:8900   */\n      dup2\n        /* \"#utility.yul\":8885:8889   */\n      dup2\n        /* \"#utility.yul\":8881:8901   */\n      sub\n        /* \"#utility.yul\":8877:8878   */\n      0x00\n        /* \"#utility.yul\":8866:8875   */\n      dup4\n        /* \"#utility.yul\":8862:8879   */\n      add\n        /* \"#utility.yul\":8855:8902   */\n      mstore\n        /* \"#utility.yul\":8919:9050   */\n      tag_566\n        /* \"#utility.yul\":9045:9049   */\n      dup2\n        /* \"#utility.yul\":8919:9050   */\n      tag_432\n      jump\t// in\n    tag_566:\n        /* \"#utility.yul\":8911:9050   */\n      swap1\n      pop\n        /* \"#utility.yul\":8638:9057   */\n      swap2\n      swap1\n      pop\n      jump\t// out\n        /* \"#utility.yul\":9063:9243   */\n    tag_119:\n        /* \"#utility.yul\":9111:9188   */\n      0x4e487b7100000000000000000000000000000000000000000000000000000000\n        /* \"#utility.yul\":9108:9109   */\n      0x00\n        /* \"#utility.yul\":9101:9189   */\n      mstore\n        /* \"#utility.yul\":9208:9212   */\n      0x32\n        /* \"#utility.yul\":9205:9206   */\n      0x04\n        /* \"#utility.yul\":9198:9213   */\n      mstore\n        /* \"#utility.yul\":9232:9236   */\n      0x24\n        /* \"#utility.yul\":9229:9230   */\n      0x00\n        /* \"#utility.yul\":9222:9237   */\n      revert\n        /* \"#utility.yul\":9249:9427   */\n    tag_433:\n        /* \"#utility.yul\":9389:9419   */\n      0x596f752061726520616c726561647920696e207468652067616d652e00000000\n        /* \"#utility.yul\":9385:9386   */\n      0x00\n        /* \"#utility.yul\":9377:9383   */\n      dup3\n        /* \"#utility.yul\":9373:9387   */\n      add\n        /* \"#utility.yul\":9366:9420   */\n      mstore\n        /* \"#utility.yul\":9249:9427   */\n      pop\n      jump\t// out\n        /* \"#utility.yul\":9433:9799   */\n    tag_434:\n        /* \"#utility.yul\":9575:9578   */\n      0x00\n        /* \"#utility.yul\":9596:9663   */\n      tag_570\n        /* \"#utility.yul\":9660:9662   */\n      0x1c\n        /* \"#utility.yul\":9655:9658   */\n      dup4\n        /* \"#utility.yul\":9596:9663   */\n      tag_427\n      jump\t// in\n    tag_570:\n        /* \"#utility.yul\":9589:9663   */\n      swap2\n      pop\n        /* \"#utility.yul\":9672:9765   */\n      tag_571\n        /* \"#utility.yul\":9761:9764   */\n      dup3\n        /* \"#utility.yul\":9672:9765   */\n      tag_433\n      jump\t// in\n    tag_571:\n        /* \"#utility.yul\":9790:9792   */\n      0x20\n        /* \"#utility.yul\":9785:9788   */\n      dup3\n        /* \"#utility.yul\":9781:9793   */\n      add\n        /* \"#utility.yul\":9774:9793   */\n      swap1\n      pop\n        /* \"#utility.yul\":9433:9799   */\n      swap2\n      swap1\n      pop\n      jump\t// out\n        /* \"#utility.yul\":9805:10224   */\n    tag_123:\n        /* \"#utility.yul\":9971:9975   */\n      0x00\n        /* \"#utility.yul\":10009:10011   */\n      0x20\n        /* \"#utility.yul\":9998:10007   */\n      dup3\n        /* \"#utility.yul\":9994:10012   */\n      add\n        /* \"#utility.yul\":9986:10012   */\n      swap1\n      pop\n        /* \"#utility.yul\":10058:10067   */\n      dup2\n        /* \"#utility.yul\":10052:10056   */\n      dup2\n        /* \"#utility.yul\":10048:10068   */\n      sub\n        /* \"#utility.yul\":10044:10045   */\n      0x00\n        /* \"#utility.yul\":10033:10042   */\n      dup4\n        /* \"#utility.yul\":10029:10046   */\n      add\n        /* \"#utility.yul\":10022:10069   */\n      mstore\n        /* \"#utility.yul\":10086:10217   */\n      tag_573\n        /* \"#utility.yul\":10212:10216   */\n      dup2\n        /* \"#utility.yul\":10086:10217   */\n      tag_434\n      jump\t// in\n    tag_573:\n        /* \"#utility.yul\":10078:10217   */\n      swap1\n      pop\n        /* \"#utility.yul\":9805:10224   */\n      swap2\n      swap1\n      pop\n      jump\t// out\n        /* \"#utility.yul\":10230:10410   */\n    tag_435:\n        /* \"#utility.yul\":10278:10355   */\n      0x4e487b7100000000000000000000000000000000000000000000000000000000\n        /* \"#utility.yul\":10275:10276   */\n      0x00\n        /* \"#utility.yul\":10268:10356   */\n      mstore\n        /* \"#utility.yul\":10375:10379   */\n      0x11\n        /* \"#utility.yul\":10372:10373   */\n      0x04\n        /* \"#utility.yul\":10365:10380   */\n      mstore\n        /* \"#utility.yul\":10399:10403   */\n      0x24\n        /* \"#utility.yul\":10396:10397   */\n      0x00\n        /* \"#utility.yul\":10389:10404   */\n      revert\n        /* \"#utility.yul\":10416:10649   */\n    tag_126:\n        /* \"#utility.yul\":10455:10458   */\n      0x00\n        /* \"#utility.yul\":10478:10502   */\n      tag_576\n        /* \"#utility.yul\":10496:10501   */\n      dup3\n        /* \"#utility.yul\":10478:10502   */\n      tag_400\n      jump\t// in\n    tag_576:\n        /* \"#utility.yul\":10469:10502   */\n      swap2\n      pop\n        /* \"#utility.yul\":10524:10590   */\n      0xffffffffffffffffffffffffffffffffffffffffffffffffffffffffffffffff\n        /* \"#utility.yul\":10517:10522   */\n      dup3\n        /* \"#utility.yul\":10514:10591   */\n      sub\n        /* \"#utility.yul\":10511:10614   */\n      tag_577\n      jumpi\n        /* \"#utility.yul\":10594:10612   */\n      tag_578\n      tag_435\n      jump\t// in\n    tag_578:\n        /* \"#utility.yul\":10511:10614   */\n    tag_577:\n        /* \"#utility.yul\":10641:10642   */\n      0x01\n        /* \"#utility.yul\":10634:10639   */\n      dup3\n        /* \"#utility.yul\":10630:10643   */\n      add\n        /* \"#utility.yul\":10623:10643   */\n      swap1\n      pop\n        /* \"#utility.yul\":10416:10649   */\n      swap2\n      swap1\n      pop\n      jump\t// out\n        /* \"#utility.yul\":10655:10846   */\n    tag_128:\n        /* \"#utility.yul\":10695:10698   */\n      0x00\n        /* \"#utility.yul\":10714:10734   */\n      tag_580\n        /* \"#utility.yul\":10732:10733   */\n      dup3\n        /* \"#utility.yul\":10714:10734   */\n      tag_400\n      jump\t// in\n    tag_580:\n        /* \"#utility.yul\":10709:10734   */\n      swap2\n      pop\n        /* \"#utility.yul\":10748:10768   */\n      tag_581\n        /* \"#utility.yul\":10766:10767   */\n      dup4\n        /* \"#utility.yul\":10748:10768   */\n      tag_400\n      jump\t// in\n    tag_581:\n        /* \"#utility.yul\":10743:10768   */\n      swap3\n      pop\n        /* \"#utility.yul\":10791:10792   */\n      dup3\n        /* \"#utility.yul\":10788:10789   */\n      dup3\n        /* \"#utility.yul\":10784:10793   */\n      add\n        /* \"#utility.yul\":10777:10793   */\n      swap1\n      pop\n        /* \"#utility.yul\":10812:10815   */\n      dup1\n        /* \"#utility.yul\":10809:10810   */\n      dup3\n        /* \"#utility.yul\":10806:10816   */\n      gt\n        /* \"#utility.yul\":10803:10839   */\n      iszero\n      tag_582\n      jumpi\n        /* \"#utility.yul\":10819:10837   */\n      tag_583\n      tag_435\n      jump\t// in\n    tag_583:\n        /* \"#utility.yul\":10803:10839   */\n    tag_582:\n        /* \"#utility.yul\":10655:10846   */\n      swap3\n      swap2\n      pop\n      pop\n      jump\t// out\n        /* \"#utility.yul\":10852:11184   */\n    tag_130:\n        /* \"#utility.yul\":10973:10977   */\n      0x00\n        /* \"#utility.yul\":11011:11013   */\n      0x40\n        /* \"#utility.yul\":11000:11009   */\n      dup3\n        /* \"#utility.yul\":10996:11014   */\n      add\n        /* \"#utility.yul\":10988:11014   */\n      swap1\n      pop\n        /* \"#utility.yul\":11024:11095   */\n      tag_585\n        /* \"#utility.yul\":11092:11093   */\n      0x00\n        /* \"#utility.yul\":11081:11090   */\n      dup4\n        /* \"#utility.yul\":11077:11094   */\n      add\n        /* \"#utility.yul\":11068:11074   */\n      dup6\n        /* \"#utility.yul\":11024:11095   */\n      tag_421\n      jump\t// in\n    tag_585:\n        /* \"#utility.yul\":11105:11177   */\n      tag_586\n        /* \"#utility.yul\":11173:11175   */\n      0x20\n        /* \"#utility.yul\":11162:11171   */\n      dup4\n        /* \"#utility.yul\":11158:11176   */\n      add\n        /* \"#utility.yul\":11149:11155   */\n      dup5\n        /* \"#utility.yul\":11105:11177   */\n      tag_401\n      jump\t// in\n    tag_586:\n        /* \"#utility.yul\":10852:11184   */\n      swap4\n      swap3\n      pop\n      pop\n      pop\n      jump\t// out\n        /* \"#utility.yul\":11190:11269   */\n    tag_436:\n        /* \"#utility.yul\":11229:11236   */\n      0x00\n        /* \"#utility.yul\":11258:11263   */\n      dup2\n        /* \"#utility.yul\":11247:11263   */\n      swap1\n      pop\n        /* \"#utility.yul\":11190:11269   */\n      swap2\n      swap1\n      pop\n      jump\t// out\n        /* \"#utility.yul\":11275:11432   */\n    tag_437:\n        /* \"#utility.yul\":11380:11425   */\n      tag_589\n        /* \"#utility.yul\":11400:11424   */\n      tag_590\n        /* \"#utility.yul\":11418:11423   */\n      dup3\n        /* \"#utility.yul\":11400:11424   */\n      tag_405\n      jump\t// in\n    tag_590:\n        /* \"#utility.yul\":11380:11425   */\n      tag_436\n      jump\t// in\n    tag_589:\n        /* \"#utility.yul\":11375:11378   */\n      dup3\n        /* \"#utility.yul\":11368:11426   */\n      mstore\n        /* \"#utility.yul\":11275:11432   */\n      pop\n      pop\n      jump\t// out\n        /* \"#utility.yul\":11438:11694   */\n    tag_135:\n        /* \"#utility.yul\":11550:11553   */\n      0x00\n        /* \"#utility.yul\":11565:11640   */\n      tag_592\n        /* \"#utility.yul\":11636:11639   */\n      dup3\n        /* \"#utility.yul\":11627:11633   */\n      dup5\n        /* \"#utility.yul\":11565:11640   */\n      tag_437\n      jump\t// in\n    tag_592:\n        /* \"#utility.yul\":11665:11667   */\n      0x20\n        /* \"#utility.yul\":11660:11663   */\n      dup3\n        /* \"#utility.yul\":11656:11668   */\n      add\n        /* \"#utility.yul\":11649:11668   */\n      swap2\n      pop\n        /* \"#utility.yul\":11685:11688   */\n      dup2\n        /* \"#utility.yul\":11678:11688   */\n      swap1\n      pop\n        /* \"#utility.yul\":11438:11694   */\n      swap3\n      swap2\n      pop\n      pop\n      jump\t// out\n        /* \"#utility.yul\":11700:11926   */\n    tag_438:\n        /* \"#utility.yul\":11840:11874   */\n      0x596f75206e65656420746f20776169742031206d696e75746520666f72207769\n        /* \"#utility.yul\":11836:11837   */\n      0x00\n        /* \"#utility.yul\":11828:11834   */\n      dup3\n        /* \"#utility.yul\":11824:11838   */\n      add\n        /* \"#utility.yul\":11817:11875   */\n      mstore\n        /* \"#utility.yul\":11909:11918   */\n      0x7468647261772e00000000000000000000000000000000000000000000000000\n        /* \"#utility.yul\":11904:11906   */\n      0x20\n        /* \"#utility.yul\":11896:11902   */\n      dup3\n        /* \"#utility.yul\":11892:11907   */\n      add\n        /* \"#utility.yul\":11885:11919   */\n      mstore\n        /* \"#utility.yul\":11700:11926   */\n      pop\n      jump\t// out\n        /* \"#utility.yul\":11932:12298   */\n    tag_439:\n        /* \"#utility.yul\":12074:12077   */\n      0x00\n        /* \"#utility.yul\":12095:12162   */\n      tag_595\n        /* \"#utility.yul\":12159:12161   */\n      0x27\n        /* \"#utility.yul\":12154:12157   */\n      dup4\n        /* \"#utility.yul\":12095:12162   */\n      tag_427\n      jump\t// in\n    tag_595:\n        /* \"#utility.yul\":12088:12162   */\n      swap2\n      pop\n        /* \"#utility.yul\":12171:12264   */\n      tag_596\n        /* \"#utility.yul\":12260:12263   */\n      dup3\n        /* \"#utility.yul\":12171:12264   */\n      tag_438\n      jump\t// in\n    tag_596:\n        /* \"#utility.yul\":12289:12291   */\n      0x40\n        /* \"#utility.yul\":12284:12287   */\n      dup3\n        /* \"#utility.yul\":12280:12292   */\n      add\n        /* \"#utility.yul\":12273:12292   */\n      swap1\n      pop\n        /* \"#utility.yul\":11932:12298   */\n      swap2\n      swap1\n      pop\n      jump\t// out\n        /* \"#utility.yul\":12304:12723   */\n    tag_141:\n        /* \"#utility.yul\":12470:12474   */\n      0x00\n        /* \"#utility.yul\":12508:12510   */\n      0x20\n        /* \"#utility.yul\":12497:12506   */\n      dup3\n        /* \"#utility.yul\":12493:12511   */\n      add\n        /* \"#utility.yul\":12485:12511   */\n      swap1\n      pop\n        /* \"#utility.yul\":12557:12566   */\n      dup2\n        /* \"#utility.yul\":12551:12555   */\n      dup2\n        /* \"#utility.yul\":12547:12567   */\n      sub\n        /* \"#utility.yul\":12543:12544   */\n      0x00\n        /* \"#utility.yul\":12532:12541   */\n      dup4\n        /* \"#utility.yul\":12528:12545   */\n      add\n        /* \"#utility.yul\":12521:12568   */\n      mstore\n        /* \"#utility.yul\":12585:12716   */\n      tag_598\n        /* \"#utility.yul\":12711:12715   */\n      dup2\n        /* \"#utility.yul\":12585:12716   */\n      tag_439\n      jump\t// in\n    tag_598:\n        /* \"#utility.yul\":12577:12716   */\n      swap1\n      pop\n        /* \"#utility.yul\":12304:12723   */\n      swap2\n      swap1\n      pop\n      jump\t// out\n        /* \"#utility.yul\":12729:12950   */\n    tag_440:\n        /* \"#utility.yul\":12869:12903   */\n      0x436f6e74726163742068617320696e73756666696369656e742062616c616e63\n        /* \"#utility.yul\":12865:12866   */\n      0x00\n        /* \"#utility.yul\":12857:12863   */\n      dup3\n        /* \"#utility.yul\":12853:12867   */\n      add\n        /* \"#utility.yul\":12846:12904   */\n      mstore\n        /* \"#utility.yul\":12938:12942   */\n      0x652e000000000000000000000000000000000000000000000000000000000000\n        /* \"#utility.yul\":12933:12935   */\n      0x20\n        /* \"#utility.yul\":12925:12931   */\n      dup3\n        /* \"#utility.yul\":12921:12936   */\n      add\n        /* \"#utility.yul\":12914:12943   */\n      mstore\n        /* \"#utility.yul\":12729:12950   */\n      pop\n      jump\t// out\n        /* \"#utility.yul\":12956:13322   */\n    tag_441:\n        /* \"#utility.yul\":13098:13101   */\n      0x00\n        /* \"#utility.yul\":13119:13186   */\n      tag_601\n        /* \"#utility.yul\":13183:13185   */\n      0x22\n        /* \"#utility.yul\":13178:13181   */\n      dup4\n        /* \"#utility.yul\":13119:13186   */\n      tag_427\n      jump\t// in\n    tag_601:\n        /* \"#utility.yul\":13112:13186   */\n      swap2\n      pop\n        /* \"#utility.yul\":13195:13288   */\n      tag_602\n        /* \"#utility.yul\":13284:13287   */\n      dup3\n        /* \"#utility.yul\":13195:13288   */\n      tag_440\n      jump\t// in\n    tag_602:\n        /* \"#utility.yul\":13313:13315   */\n      0x40\n        /* \"#utility.yul\":13308:13311   */\n      dup3\n        /* \"#utility.yul\":13304:13316   */\n      add\n        /* \"#utility.yul\":13297:13316   */\n      swap1\n      pop\n        /* \"#utility.yul\":12956:13322   */\n      swap2\n      swap1\n      pop\n      jump\t// out\n        /* \"#utility.yul\":13328:13747   */\n    tag_144:\n        /* \"#utility.yul\":13494:13498   */\n      0x00\n        /* \"#utility.yul\":13532:13534   */\n      0x20\n        /* \"#utility.yul\":13521:13530   */\n      dup3\n        /* \"#utility.yul\":13517:13535   */\n      add\n        /* \"#utility.yul\":13509:13535   */\n      swap1\n      pop\n        /* \"#utility.yul\":13581:13590   */\n      dup2\n        /* \"#utility.yul\":13575:13579   */\n      dup2\n        /* \"#utility.yul\":13571:13591   */\n      sub\n        /* \"#utility.yul\":13567:13568   */\n      0x00\n        /* \"#utility.yul\":13556:13565   */\n      dup4\n        /* \"#utility.yul\":13552:13569   */\n      add\n        /* \"#utility.yul\":13545:13592   */\n      mstore\n        /* \"#utility.yul\":13609:13740   */\n      tag_604\n        /* \"#utility.yul\":13735:13739   */\n      dup2\n        /* \"#utility.yul\":13609:13740   */\n      tag_441\n      jump\t// in\n    tag_604:\n        /* \"#utility.yul\":13601:13740   */\n      swap1\n      pop\n        /* \"#utility.yul\":13328:13747   */\n      swap2\n      swap1\n      pop\n      jump\t// out\n        /* \"#utility.yul\":13753:13869   */\n    tag_442:\n        /* \"#utility.yul\":13823:13844   */\n      tag_606\n        /* \"#utility.yul\":13838:13843   */\n      dup2\n        /* \"#utility.yul\":13823:13844   */\n      tag_413\n      jump\t// in\n    tag_606:\n        /* \"#utility.yul\":13816:13821   */\n      dup2\n        /* \"#utility.yul\":13813:13845   */\n      eq\n        /* \"#utility.yul\":13803:13863   */\n      tag_607\n      jumpi\n        /* \"#utility.yul\":13859:13860   */\n      0x00\n        /* \"#utility.yul\":13856:13857   */\n      dup1\n        /* \"#utility.yul\":13849:13861   */\n      revert\n        /* \"#utility.yul\":13803:13863   */\n    tag_607:\n        /* \"#utility.yul\":13753:13869   */\n      pop\n      jump\t// out\n        /* \"#utility.yul\":13875:14012   */\n    tag_443:\n        /* \"#utility.yul\":13929:13934   */\n      0x00\n        /* \"#utility.yul\":13960:13966   */\n      dup2\n        /* \"#utility.yul\":13954:13967   */\n      mload\n        /* \"#utility.yul\":13945:13967   */\n      swap1\n      pop\n        /* \"#utility.yul\":13976:14006   */\n      tag_609\n        /* \"#utility.yul\":14000:14005   */\n      dup2\n        /* \"#utility.yul\":13976:14006   */\n      tag_442\n      jump\t// in\n    tag_609:\n        /* \"#utility.yul\":13875:14012   */\n      swap3\n      swap2\n      pop\n      pop\n      jump\t// out\n        /* \"#utility.yul\":14018:14363   */\n    tag_156:\n        /* \"#utility.yul\":14085:14091   */\n      0x00\n        /* \"#utility.yul\":14134:14136   */\n      0x20\n        /* \"#utility.yul\":14122:14131   */\n      dup3\n        /* \"#utility.yul\":14113:14120   */\n      dup5\n        /* \"#utility.yul\":14109:14132   */\n      sub\n        /* \"#utility.yul\":14105:14137   */\n      slt\n        /* \"#utility.yul\":14102:14221   */\n      iszero\n      tag_611\n      jumpi\n        /* \"#utility.yul\":14140:14219   */\n      tag_612\n      tag_403\n      jump\t// in\n    tag_612:\n        /* \"#utility.yul\":14102:14221   */\n    tag_611:\n        /* \"#utility.yul\":14260:14261   */\n      0x00\n        /* \"#utility.yul\":14285:14346   */\n      tag_613\n        /* \"#utility.yul\":14338:14345   */\n      dup5\n        /* \"#utility.yul\":14329:14335   */\n      dup3\n        /* \"#utility.yul\":14318:14327   */\n      dup6\n        /* \"#utility.yul\":14314:14336   */\n      add\n        /* \"#utility.yul\":14285:14346   */\n      tag_443\n      jump\t// in\n    tag_613:\n        /* \"#utility.yul\":14275:14346   */\n      swap2\n      pop\n        /* \"#utility.yul\":14231:14356   */\n      pop\n        /* \"#utility.yul\":14018:14363   */\n      swap3\n      swap2\n      pop\n      pop\n      jump\t// out\n        /* \"#utility.yul\":14369:14549   */\n    tag_444:\n        /* \"#utility.yul\":14417:14494   */\n      0x4e487b7100000000000000000000000000000000000000000000000000000000\n        /* \"#utility.yul\":14414:14415   */\n      0x00\n        /* \"#utility.yul\":14407:14495   */\n      mstore\n        /* \"#utility.yul\":14514:14518   */\n      0x12\n        /* \"#utility.yul\":14511:14512   */\n      0x04\n        /* \"#utility.yul\":14504:14519   */\n      mstore\n        /* \"#utility.yul\":14538:14542   */\n      0x24\n        /* \"#utility.yul\":14535:14536   */\n      0x00\n        /* \"#utility.yul\":14528:14543   */\n      revert\n        /* \"#utility.yul\":14555:14740   */\n    tag_168:\n        /* \"#utility.yul\":14595:14596   */\n      0x00\n        /* \"#utility.yul\":14612:14632   */\n      tag_616\n        /* \"#utility.yul\":14630:14631   */\n      dup3\n        /* \"#utility.yul\":14612:14632   */\n      tag_400\n      jump\t// in\n    tag_616:\n        /* \"#utility.yul\":14607:14632   */\n      swap2\n      pop\n        /* \"#utility.yul\":14646:14666   */\n      tag_617\n        /* \"#utility.yul\":14664:14665   */\n      dup4\n        /* \"#utility.yul\":14646:14666   */\n      tag_400\n      jump\t// in\n    tag_617:\n        /* \"#utility.yul\":14641:14666   */\n      swap3\n      pop\n        /* \"#utility.yul\":14685:14686   */\n      dup3\n        /* \"#utility.yul\":14675:14710   */\n      tag_618\n      jumpi\n        /* \"#utility.yul\":14690:14708   */\n      tag_619\n      tag_444\n      jump\t// in\n    tag_619:\n        /* \"#utility.yul\":14675:14710   */\n    tag_618:\n        /* \"#utility.yul\":14732:14733   */\n      dup3\n        /* \"#utility.yul\":14729:14730   */\n      dup3\n        /* \"#utility.yul\":14725:14734   */\n      div\n        /* \"#utility.yul\":14720:14734   */\n      swap1\n      pop\n        /* \"#utility.yul\":14555:14740   */\n      swap3\n      swap2\n      pop\n      pop\n      jump\t// out\n        /* \"#utility.yul\":14746:14921   */\n    tag_445:\n        /* \"#utility.yul\":14886:14913   */\n      0x596f75206e65656420746f20636f6d6d69742066697273742e00000000000000\n        /* \"#utility.yul\":14882:14883   */\n      0x00\n        /* \"#utility.yul\":14874:14880   */\n      dup3\n        /* \"#utility.yul\":14870:14884   */\n      add\n        /* \"#utility.yul\":14863:14914   */\n      mstore\n        /* \"#utility.yul\":14746:14921   */\n      pop\n      jump\t// out\n        /* \"#utility.yul\":14927:15293   */\n    tag_446:\n        /* \"#utility.yul\":15069:15072   */\n      0x00\n        /* \"#utility.yul\":15090:15157   */\n      tag_622\n        /* \"#utility.yul\":15154:15156   */\n      0x19\n        /* \"#utility.yul\":15149:15152   */\n      dup4\n        /* \"#utility.yul\":15090:15157   */\n      tag_427\n      jump\t// in\n    tag_622:\n        /* \"#utility.yul\":15083:15157   */\n      swap2\n      pop\n        /* \"#utility.yul\":15166:15259   */\n      tag_623\n        /* \"#utility.yul\":15255:15258   */\n      dup3\n        /* \"#utility.yul\":15166:15259   */\n      tag_445\n      jump\t// in\n    tag_623:\n        /* \"#utility.yul\":15284:15286   */\n      0x20\n        /* \"#utility.yul\":15279:15282   */\n      dup3\n        /* \"#utility.yul\":15275:15287   */\n      add\n        /* \"#utility.yul\":15268:15287   */\n      swap1\n      pop\n        /* \"#utility.yul\":14927:15293   */\n      swap2\n      swap1\n      pop\n      jump\t// out\n        /* \"#utility.yul\":15299:15718   */\n    tag_232:\n        /* \"#utility.yul\":15465:15469   */\n      0x00\n        /* \"#utility.yul\":15503:15505   */\n      0x20\n        /* \"#utility.yul\":15492:15501   */\n      dup3\n        /* \"#utility.yul\":15488:15506   */\n      add\n        /* \"#utility.yul\":15480:15506   */\n      swap1\n      pop\n        /* \"#utility.yul\":15552:15561   */\n      dup2\n        /* \"#utility.yul\":15546:15550   */\n      dup2\n        /* \"#utility.yul\":15542:15562   */\n      sub\n        /* \"#utility.yul\":15538:15539   */\n      0x00\n        /* \"#utility.yul\":15527:15536   */\n      dup4\n        /* \"#utility.yul\":15523:15540   */\n      add\n        /* \"#utility.yul\":15516:15563   */\n      mstore\n        /* \"#utility.yul\":15580:15711   */\n      tag_625\n        /* \"#utility.yul\":15706:15710   */\n      dup2\n        /* \"#utility.yul\":15580:15711   */\n      tag_446\n      jump\t// in\n    tag_625:\n        /* \"#utility.yul\":15572:15711   */\n      swap1\n      pop\n        /* \"#utility.yul\":15299:15718   */\n      swap2\n      swap1\n      pop\n      jump\t// out\n        /* \"#utility.yul\":15724:15889   */\n    tag_447:\n        /* \"#utility.yul\":15864:15881   */\n      0x496e76616c69642063686f6963652e0000000000000000000000000000000000\n        /* \"#utility.yul\":15860:15861   */\n      0x00\n        /* \"#utility.yul\":15852:15858   */\n      dup3\n        /* \"#utility.yul\":15848:15862   */\n      add\n        /* \"#utility.yul\":15841:15882   */\n      mstore\n        /* \"#utility.yul\":15724:15889   */\n      pop\n      jump\t// out\n        /* \"#utility.yul\":15895:16261   */\n    tag_448:\n        /* \"#utility.yul\":16037:16040   */\n      0x00\n        /* \"#utility.yul\":16058:16125   */\n      tag_628\n        /* \"#utility.yul\":16122:16124   */\n      0x0f\n        /* \"#utility.yul\":16117:16120   */\n      dup4\n        /* \"#utility.yul\":16058:16125   */\n      tag_427\n      jump\t// in\n    tag_628:\n        /* \"#utility.yul\":16051:16125   */\n      swap2\n      pop\n        /* \"#utility.yul\":16134:16227   */\n      tag_629\n        /* \"#utility.yul\":16223:16226   */\n      dup3\n        /* \"#utility.yul\":16134:16227   */\n      tag_447\n      jump\t// in\n    tag_629:\n        /* \"#utility.yul\":16252:16254   */\n      0x20\n        /* \"#utility.yul\":16247:16250   */\n      dup3\n        /* \"#utility.yul\":16243:16255   */\n      add\n        /* \"#utility.yul\":16236:16255   */\n      swap1\n      pop\n        /* \"#utility.yul\":15895:16261   */\n      swap2\n      swap1\n      pop\n      jump\t// out\n        /* \"#utility.yul\":16267:16686   */\n    tag_238:\n        /* \"#utility.yul\":16433:16437   */\n      0x00\n        /* \"#utility.yul\":16471:16473   */\n      0x20\n        /* \"#utility.yul\":16460:16469   */\n      dup3\n        /* \"#utility.yul\":16456:16474   */\n      add\n        /* \"#utility.yul\":16448:16474   */\n      swap1\n      pop\n        /* \"#utility.yul\":16520:16529   */\n      dup2\n        /* \"#utility.yul\":16514:16518   */\n      dup2\n        /* \"#utility.yul\":16510:16530   */\n      sub\n        /* \"#utility.yul\":16506:16507   */\n      0x00\n        /* \"#utility.yul\":16495:16504   */\n      dup4\n        /* \"#utility.yul\":16491:16508   */\n      add\n        /* \"#utility.yul\":16484:16531   */\n      mstore\n        /* \"#utility.yul\":16548:16679   */\n      tag_631\n        /* \"#utility.yul\":16674:16678   */\n      dup2\n        /* \"#utility.yul\":16548:16679   */\n      tag_448\n      jump\t// in\n    tag_631:\n        /* \"#utility.yul\":16540:16679   */\n      swap1\n      pop\n        /* \"#utility.yul\":16267:16686   */\n      swap2\n      swap1\n      pop\n      jump\t// out\n        /* \"#utility.yul\":16692:16886   */\n    tag_254:\n        /* \"#utility.yul\":16732:16736   */\n      0x00\n        /* \"#utility.yul\":16752:16772   */\n      tag_633\n        /* \"#utility.yul\":16770:16771   */\n      dup3\n        /* \"#utility.yul\":16752:16772   */\n      tag_400\n      jump\t// in\n    tag_633:\n        /* \"#utility.yul\":16747:16772   */\n      swap2\n      pop\n        /* \"#utility.yul\":16786:16806   */\n      tag_634\n        /* \"#utility.yul\":16804:16805   */\n      dup4\n        /* \"#utility.yul\":16786:16806   */\n      tag_400\n      jump\t// in\n    tag_634:\n        /* \"#utility.yul\":16781:16806   */\n      swap3\n      pop\n        /* \"#utility.yul\":16830:16831   */\n      dup3\n        /* \"#utility.yul\":16827:16828   */\n      dup3\n        /* \"#utility.yul\":16823:16832   */\n      sub\n        /* \"#utility.yul\":16815:16832   */\n      swap1\n      pop\n        /* \"#utility.yul\":16854:16855   */\n      dup2\n        /* \"#utility.yul\":16848:16852   */\n      dup2\n        /* \"#utility.yul\":16845:16856   */\n      gt\n        /* \"#utility.yul\":16842:16879   */\n      iszero\n      tag_635\n      jumpi\n        /* \"#utility.yul\":16859:16877   */\n      tag_636\n      tag_435\n      jump\t// in\n    tag_636:\n        /* \"#utility.yul\":16842:16879   */\n    tag_635:\n        /* \"#utility.yul\":16692:16886   */\n      swap3\n      swap2\n      pop\n      pop\n      jump\t// out\n        /* \"#utility.yul\":16892:17063   */\n    tag_449:\n        /* \"#utility.yul\":17032:17055   */\n      0x47616d65206e65656473203220706c61796572732e0000000000000000000000\n        /* \"#utility.yul\":17028:17029   */\n      0x00\n        /* \"#utility.yul\":17020:17026   */\n      dup3\n        /* \"#utility.yul\":17016:17030   */\n      add\n        /* \"#utility.yul\":17009:17056   */\n      mstore\n        /* \"#utility.yul\":16892:17063   */\n      pop\n      jump\t// out\n        /* \"#utility.yul\":17069:17435   */\n    tag_450:\n        /* \"#utility.yul\":17211:17214   */\n      0x00\n        /* \"#utility.yul\":17232:17299   */\n      tag_639\n        /* \"#utility.yul\":17296:17298   */\n      0x15\n        /* \"#utility.yul\":17291:17294   */\n      dup4\n        /* \"#utility.yul\":17232:17299   */\n      tag_427\n      jump\t// in\n    tag_639:\n        /* \"#utility.yul\":17225:17299   */\n      swap2\n      pop\n        /* \"#utility.yul\":17308:17401   */\n      tag_640\n        /* \"#utility.yul\":17397:17400   */\n      dup3\n        /* \"#utility.yul\":17308:17401   */\n      tag_449\n      jump\t// in\n    tag_640:\n        /* \"#utility.yul\":17426:17428   */\n      0x20\n        /* \"#utility.yul\":17421:17424   */\n      dup3\n        /* \"#utility.yul\":17417:17429   */\n      add\n        /* \"#utility.yul\":17410:17429   */\n      swap1\n      pop\n        /* \"#utility.yul\":17069:17435   */\n      swap2\n      swap1\n      pop\n      jump\t// out\n        /* \"#utility.yul\":17441:17860   */\n    tag_258:\n        /* \"#utility.yul\":17607:17611   */\n      0x00\n        /* \"#utility.yul\":17645:17647   */\n      0x20\n        /* \"#utility.yul\":17634:17643   */\n      dup3\n        /* \"#utility.yul\":17630:17648   */\n      add\n        /* \"#utility.yul\":17622:17648   */\n      swap1\n      pop\n        /* \"#utility.yul\":17694:17703   */\n      dup2\n        /* \"#utility.yul\":17688:17692   */\n      dup2\n        /* \"#utility.yul\":17684:17704   */\n      sub\n        /* \"#utility.yul\":17680:17681   */\n      0x00\n        /* \"#utility.yul\":17669:17678   */\n      dup4\n        /* \"#utility.yul\":17665:17682   */\n      add\n        /* \"#utility.yul\":17658:17705   */\n      mstore\n        /* \"#utility.yul\":17722:17853   */\n      tag_642\n        /* \"#utility.yul\":17848:17852   */\n      dup2\n        /* \"#utility.yul\":17722:17853   */\n      tag_450\n      jump\t// in\n    tag_642:\n        /* \"#utility.yul\":17714:17853   */\n      swap1\n      pop\n        /* \"#utility.yul\":17441:17860   */\n      swap2\n      swap1\n      pop\n      jump\t// out\n        /* \"#utility.yul\":17866:18034   */\n    tag_451:\n        /* \"#utility.yul\":18006:18026   */\n      0x416c726561647920636f6d6d69747465642e0000000000000000000000000000\n        /* \"#utility.yul\":18002:18003   */\n      0x00\n        /* \"#utility.yul\":17994:18000   */\n      dup3\n        /* \"#utility.yul\":17990:18004   */\n      add\n        /* \"#utility.yul\":17983:18027   */\n      mstore\n        /* \"#utility.yul\":17866:18034   */\n      pop\n      jump\t// out\n        /* \"#utility.yul\":18040:18406   */\n    tag_452:\n        /* \"#utility.yul\":18182:18185   */\n      0x00\n        /* \"#utility.yul\":18203:18270   */\n      tag_645\n        /* \"#utility.yul\":18267:18269   */\n      0x12\n        /* \"#utility.yul\":18262:18265   */\n      dup4\n        /* \"#utility.yul\":18203:18270   */\n      tag_427\n      jump\t// in\n    tag_645:\n        /* \"#utility.yul\":18196:18270   */\n      swap2\n      pop\n        /* \"#utility.yul\":18279:18372   */\n      tag_646\n        /* \"#utility.yul\":18368:18371   */\n      dup3\n        /* \"#utility.yul\":18279:18372   */\n      tag_451\n      jump\t// in\n    tag_646:\n        /* \"#utility.yul\":18397:18399   */\n      0x20\n        /* \"#utility.yul\":18392:18395   */\n      dup3\n        /* \"#utility.yul\":18388:18400   */\n      add\n        /* \"#utility.yul\":18381:18400   */\n      swap1\n      pop\n        /* \"#utility.yul\":18040:18406   */\n      swap2\n      swap1\n      pop\n      jump\t// out\n        /* \"#utility.yul\":18412:18831   */\n    tag_261:\n        /* \"#utility.yul\":18578:18582   */\n      0x00\n        /* \"#utility.yul\":18616:18618   */\n      0x20\n        /* \"#utility.yul\":18605:18614   */\n      dup3\n        /* \"#utility.yul\":18601:18619   */\n      add\n        /* \"#utility.yul\":18593:18619   */\n      swap1\n      pop\n        /* \"#utility.yul\":18665:18674   */\n      dup2\n        /* \"#utility.yul\":18659:18663   */\n      dup2\n        /* \"#utility.yul\":18655:18675   */\n      sub\n        /* \"#utility.yul\":18651:18652   */\n      0x00\n        /* \"#utility.yul\":18640:18649   */\n      dup4\n        /* \"#utility.yul\":18636:18653   */\n      add\n        /* \"#utility.yul\":18629:18676   */\n      mstore\n        /* \"#utility.yul\":18693:18824   */\n      tag_648\n        /* \"#utility.yul\":18819:18823   */\n      dup2\n        /* \"#utility.yul\":18693:18824   */\n      tag_452\n      jump\t// in\n    tag_648:\n        /* \"#utility.yul\":18685:18824   */\n      swap1\n      pop\n        /* \"#utility.yul\":18412:18831   */\n      swap2\n      swap1\n      pop\n      jump\t// out\n        /* \"#utility.yul\":18837:19009   */\n    tag_453:\n        /* \"#utility.yul\":18977:19001   */\n      0x596f7520616c726561647920636f6d6d69747465642e00000000000000000000\n        /* \"#utility.yul\":18973:18974   */\n      0x00\n        /* \"#utility.yul\":18965:18971   */\n      dup3\n        /* \"#utility.yul\":18961:18975   */\n      add\n        /* \"#utility.yul\":18954:19002   */\n      mstore\n        /* \"#utility.yul\":18837:19009   */\n      pop\n      jump\t// out\n        /* \"#utility.yul\":19015:19381   */\n    tag_454:\n        /* \"#utility.yul\":19157:19160   */\n      0x00\n        /* \"#utility.yul\":19178:19245   */\n      tag_651\n        /* \"#utility.yul\":19242:19244   */\n      0x16\n        /* \"#utility.yul\":19237:19240   */\n      dup4\n        /* \"#utility.yul\":19178:19245   */\n      tag_427\n      jump\t// in\n    tag_651:\n        /* \"#utility.yul\":19171:19245   */\n      swap2\n      pop\n        /* \"#utility.yul\":19254:19347   */\n      tag_652\n        /* \"#utility.yul\":19343:19346   */\n      dup3\n        /* \"#utility.yul\":19254:19347   */\n      tag_453\n      jump\t// in\n    tag_652:\n        /* \"#utility.yul\":19372:19374   */\n      0x20\n        /* \"#utility.yul\":19367:19370   */\n      dup3\n        /* \"#utility.yul\":19363:19375   */\n      add\n        /* \"#utility.yul\":19356:19375   */\n      swap1\n      pop\n        /* \"#utility.yul\":19015:19381   */\n      swap2\n      swap1\n      pop\n      jump\t// out\n        /* \"#utility.yul\":19387:19806   */\n    tag_264:\n        /* \"#utility.yul\":19553:19557   */\n      0x00\n        /* \"#utility.yul\":19591:19593   */\n      0x20\n        /* \"#utility.yul\":19580:19589   */\n      dup3\n        /* \"#utility.yul\":19576:19594   */\n      add\n        /* \"#utility.yul\":19568:19594   */\n      swap1\n      pop\n        /* \"#utility.yul\":19640:19649   */\n      dup2\n        /* \"#utility.yul\":19634:19638   */\n      dup2\n        /* \"#utility.yul\":19630:19650   */\n      sub\n        /* \"#utility.yul\":19626:19627   */\n      0x00\n        /* \"#utility.yul\":19615:19624   */\n      dup4\n        /* \"#utility.yul\":19611:19628   */\n      add\n        /* \"#utility.yul\":19604:19651   */\n      mstore\n        /* \"#utility.yul\":19668:19799   */\n      tag_654\n        /* \"#utility.yul\":19794:19798   */\n      dup2\n        /* \"#utility.yul\":19668:19799   */\n      tag_454\n      jump\t// in\n    tag_654:\n        /* \"#utility.yul\":19660:19799   */\n      swap1\n      pop\n        /* \"#utility.yul\":19387:19806   */\n      swap2\n      swap1\n      pop\n      jump\t// out\n        /* \"#utility.yul\":19812:20037   */\n    tag_455:\n        /* \"#utility.yul\":19952:19986   */\n      0x436f6d6d697452657665616c3a3a72657665616c3a20416c7265616479207265\n        /* \"#utility.yul\":19948:19949   */\n      0x00\n        /* \"#utility.yul\":19940:19946   */\n      dup3\n        /* \"#utility.yul\":19936:19950   */\n      add\n        /* \"#utility.yul\":19929:19987   */\n      mstore\n        /* \"#utility.yul\":20021:20029   */\n      0x7665616c65640000000000000000000000000000000000000000000000000000\n        /* \"#utility.yul\":20016:20018   */\n      0x20\n        /* \"#utility.yul\":20008:20014   */\n      dup3\n        /* \"#utility.yul\":20004:20019   */\n      add\n        /* \"#utility.yul\":19997:20030   */\n      mstore\n        /* \"#utility.yul\":19812:20037   */\n      pop\n      jump\t// out\n        /* \"#utility.yul\":20043:20409   */\n    tag_456:\n        /* \"#utility.yul\":20185:20188   */\n      0x00\n        /* \"#utility.yul\":20206:20273   */\n      tag_657\n        /* \"#utility.yul\":20270:20272   */\n      0x26\n        /* \"#utility.yul\":20265:20268   */\n      dup4\n        /* \"#utility.yul\":20206:20273   */\n      tag_427\n      jump\t// in\n    tag_657:\n        /* \"#utility.yul\":20199:20273   */\n      swap2\n      pop\n        /* \"#utility.yul\":20282:20375   */\n      tag_658\n        /* \"#utility.yul\":20371:20374   */\n      dup3\n        /* \"#utility.yul\":20282:20375   */\n      tag_455\n      jump\t// in\n    tag_658:\n        /* \"#utility.yul\":20400:20402   */\n      0x40\n        /* \"#utility.yul\":20395:20398   */\n      dup3\n        /* \"#utility.yul\":20391:20403   */\n      add\n        /* \"#utility.yul\":20384:20403   */\n      swap1\n      pop\n        /* \"#utility.yul\":20043:20409   */\n      swap2\n      swap1\n      pop\n      jump\t// out\n        /* \"#utility.yul\":20415:20834   */\n    tag_285:\n        /* \"#utility.yul\":20581:20585   */\n      0x00\n        /* \"#utility.yul\":20619:20621   */\n      0x20\n        /* \"#utility.yul\":20608:20617   */\n      dup3\n        /* \"#utility.yul\":20604:20622   */\n      add\n        /* \"#utility.yul\":20596:20622   */\n      swap1\n      pop\n        /* \"#utility.yul\":20668:20677   */\n      dup2\n        /* \"#utility.yul\":20662:20666   */\n      dup2\n        /* \"#utility.yul\":20658:20678   */\n      sub\n        /* \"#utility.yul\":20654:20655   */\n      0x00\n        /* \"#utility.yul\":20643:20652   */\n      dup4\n        /* \"#utility.yul\":20639:20656   */\n      add\n        /* \"#utility.yul\":20632:20679   */\n      mstore\n        /* \"#utility.yul\":20696:20827   */\n      tag_660\n        /* \"#utility.yul\":20822:20826   */\n      dup2\n        /* \"#utility.yul\":20696:20827   */\n      tag_456\n      jump\t// in\n    tag_660:\n        /* \"#utility.yul\":20688:20827   */\n      swap1\n      pop\n        /* \"#utility.yul\":20415:20834   */\n      swap2\n      swap1\n      pop\n      jump\t// out\n        /* \"#utility.yul\":20840:21084   */\n    tag_457:\n        /* \"#utility.yul\":20980:21014   */\n      0x436f6d6d697452657665616c3a3a72657665616c3a2052657665616c65642068\n        /* \"#utility.yul\":20976:20977   */\n      0x00\n        /* \"#utility.yul\":20968:20974   */\n      dup3\n        /* \"#utility.yul\":20964:20978   */\n      add\n        /* \"#utility.yul\":20957:21015   */\n      mstore\n        /* \"#utility.yul\":21049:21076   */\n      0x61736820646f6573206e6f74206d6174636820636f6d6d697400000000000000\n        /* \"#utility.yul\":21044:21046   */\n      0x20\n        /* \"#utility.yul\":21036:21042   */\n      dup3\n        /* \"#utility.yul\":21032:21047   */\n      add\n        /* \"#utility.yul\":21025:21077   */\n      mstore\n        /* \"#utility.yul\":20840:21084   */\n      pop\n      jump\t// out\n        /* \"#utility.yul\":21090:21456   */\n    tag_458:\n        /* \"#utility.yul\":21232:21235   */\n      0x00\n        /* \"#utility.yul\":21253:21320   */\n      tag_663\n        /* \"#utility.yul\":21317:21319   */\n      0x39\n        /* \"#utility.yul\":21312:21315   */\n      dup4\n        /* \"#utility.yul\":21253:21320   */\n      tag_427\n      jump\t// in\n    tag_663:\n        /* \"#utility.yul\":21246:21320   */\n      swap2\n      pop\n        /* \"#utility.yul\":21329:21422   */\n      tag_664\n        /* \"#utility.yul\":21418:21421   */\n      dup3\n        /* \"#utility.yul\":21329:21422   */\n      tag_457\n      jump\t// in\n    tag_664:\n        /* \"#utility.yul\":21447:21449   */\n      0x40\n        /* \"#utility.yul\":21442:21445   */\n      dup3\n        /* \"#utility.yul\":21438:21450   */\n      add\n        /* \"#utility.yul\":21431:21450   */\n      swap1\n      pop\n        /* \"#utility.yul\":21090:21456   */\n      swap2\n      swap1\n      pop\n      jump\t// out\n        /* \"#utility.yul\":21462:21881   */\n    tag_289:\n        /* \"#utility.yul\":21628:21632   */\n      0x00\n        /* \"#utility.yul\":21666:21668   */\n      0x20\n        /* \"#utility.yul\":21655:21664   */\n      dup3\n        /* \"#utility.yul\":21651:21669   */\n      add\n        /* \"#utility.yul\":21643:21669   */\n      swap1\n      pop\n        /* \"#utility.yul\":21715:21724   */\n      dup2\n        /* \"#utility.yul\":21709:21713   */\n      dup2\n        /* \"#utility.yul\":21705:21725   */\n      sub\n        /* \"#utility.yul\":21701:21702   */\n      0x00\n        /* \"#utility.yul\":21690:21699   */\n      dup4\n        /* \"#utility.yul\":21686:21703   */\n      add\n        /* \"#utility.yul\":21679:21726   */\n      mstore\n        /* \"#utility.yul\":21743:21874   */\n      tag_666\n        /* \"#utility.yul\":21869:21873   */\n      dup2\n        /* \"#utility.yul\":21743:21874   */\n      tag_458\n      jump\t// in\n    tag_666:\n        /* \"#utility.yul\":21735:21874   */\n      swap1\n      pop\n        /* \"#utility.yul\":21462:21881   */\n      swap2\n      swap1\n      pop\n      jump\t// out\n        /* \"#utility.yul\":21887:22177   */\n    tag_459:\n        /* \"#utility.yul\":22027:22061   */\n      0x436f6d6d697452657665616c3a3a72657665616c3a2052657665616c20616e64\n        /* \"#utility.yul\":22023:22024   */\n      0x00\n        /* \"#utility.yul\":22015:22021   */\n      dup3\n        /* \"#utility.yul\":22011:22025   */\n      add\n        /* \"#utility.yul\":22004:22062   */\n      mstore\n        /* \"#utility.yul\":22096:22130   */\n      0x20636f6d6d69742068617070656e6564206f6e207468652073616d6520626c6f\n        /* \"#utility.yul\":22091:22093   */\n      0x20\n        /* \"#utility.yul\":22083:22089   */\n      dup3\n        /* \"#utility.yul\":22079:22094   */\n      add\n        /* \"#utility.yul\":22072:22131   */\n      mstore\n        /* \"#utility.yul\":22165:22169   */\n      0x636b000000000000000000000000000000000000000000000000000000000000\n        /* \"#utility.yul\":22160:22162   */\n      0x40\n        /* \"#utility.yul\":22152:22158   */\n      dup3\n        /* \"#utility.yul\":22148:22163   */\n      add\n        /* \"#utility.yul\":22141:22170   */\n      mstore\n        /* \"#utility.yul\":21887:22177   */\n      pop\n      jump\t// out\n        /* \"#utility.yul\":22183:22549   */\n    tag_460:\n        /* \"#utility.yul\":22325:22328   */\n      0x00\n        /* \"#utility.yul\":22346:22413   */\n      tag_669\n        /* \"#utility.yul\":22410:22412   */\n      0x42\n        /* \"#utility.yul\":22405:22408   */\n      dup4\n        /* \"#utility.yul\":22346:22413   */\n      tag_427\n      jump\t// in\n    tag_669:\n        /* \"#utility.yul\":22339:22413   */\n      swap2\n      pop\n        /* \"#utility.yul\":22422:22515   */\n      tag_670\n        /* \"#utility.yul\":22511:22514   */\n      dup3\n        /* \"#utility.yul\":22422:22515   */\n      tag_459\n      jump\t// in\n    tag_670:\n        /* \"#utility.yul\":22540:22542   */\n      0x60\n        /* \"#utility.yul\":22535:22538   */\n      dup3\n        /* \"#utility.yul\":22531:22543   */\n      add\n        /* \"#utility.yul\":22524:22543   */\n      swap1\n      pop\n        /* \"#utility.yul\":22183:22549   */\n      swap2\n      swap1\n      pop\n      jump\t// out\n        /* \"#utility.yul\":22555:22974   */\n    tag_292:\n        /* \"#utility.yul\":22721:22725   */\n      0x00\n        /* \"#utility.yul\":22759:22761   */\n      0x20\n        /* \"#utility.yul\":22748:22757   */\n      dup3\n        /* \"#utility.yul\":22744:22762   */\n      add\n        /* \"#utility.yul\":22736:22762   */\n      swap1\n      pop\n        /* \"#utility.yul\":22808:22817   */\n      dup2\n        /* \"#utility.yul\":22802:22806   */\n      dup2\n        /* \"#utility.yul\":22798:22818   */\n      sub\n        /* \"#utility.yul\":22794:22795   */\n      0x00\n        /* \"#utility.yul\":22783:22792   */\n      dup4\n        /* \"#utility.yul\":22779:22796   */\n      add\n        /* \"#utility.yul\":22772:22819   */\n      mstore\n        /* \"#utility.yul\":22836:22967   */\n      tag_672\n        /* \"#utility.yul\":22962:22966   */\n      dup2\n        /* \"#utility.yul\":22836:22967   */\n      tag_460\n      jump\t// in\n    tag_672:\n        /* \"#utility.yul\":22828:22967   */\n      swap1\n      pop\n        /* \"#utility.yul\":22555:22974   */\n      swap2\n      swap1\n      pop\n      jump\t// out\n        /* \"#utility.yul\":22980:23185   */\n    tag_294:\n        /* \"#utility.yul\":23019:23022   */\n      0x00\n        /* \"#utility.yul\":23038:23057   */\n      tag_674\n        /* \"#utility.yul\":23055:23056   */\n      dup3\n        /* \"#utility.yul\":23038:23057   */\n      tag_417\n      jump\t// in\n    tag_674:\n        /* \"#utility.yul\":23033:23057   */\n      swap2\n      pop\n        /* \"#utility.yul\":23071:23090   */\n      tag_675\n        /* \"#utility.yul\":23088:23089   */\n      dup4\n        /* \"#utility.yul\":23071:23090   */\n      tag_417\n      jump\t// in\n    tag_675:\n        /* \"#utility.yul\":23066:23090   */\n      swap3\n      pop\n        /* \"#utility.yul\":23113:23114   */\n      dup3\n        /* \"#utility.yul\":23110:23111   */\n      dup3\n        /* \"#utility.yul\":23106:23115   */\n      add\n        /* \"#utility.yul\":23099:23115   */\n      swap1\n      pop\n        /* \"#utility.yul\":23136:23154   */\n      0xffffffffffffffff\n        /* \"#utility.yul\":23131:23134   */\n      dup2\n        /* \"#utility.yul\":23128:23155   */\n      gt\n        /* \"#utility.yul\":23125:23178   */\n      iszero\n      tag_676\n      jumpi\n        /* \"#utility.yul\":23158:23176   */\n      tag_677\n      tag_435\n      jump\t// in\n    tag_677:\n        /* \"#utility.yul\":23125:23178   */\n    tag_676:\n        /* \"#utility.yul\":22980:23185   */\n      swap3\n      swap2\n      pop\n      pop\n      jump\t// out\n        /* \"#utility.yul\":23191:23417   */\n    tag_461:\n        /* \"#utility.yul\":23331:23365   */\n      0x436f6d6d697452657665616c3a3a72657665616c3a2052657665616c65642074\n        /* \"#utility.yul\":23327:23328   */\n      0x00\n        /* \"#utility.yul\":23319:23325   */\n      dup3\n        /* \"#utility.yul\":23315:23329   */\n      add\n        /* \"#utility.yul\":23308:23366   */\n      mstore\n        /* \"#utility.yul\":23400:23409   */\n      0x6f6f206c61746500000000000000000000000000000000000000000000000000\n        /* \"#utility.yul\":23395:23397   */\n      0x20\n        /* \"#utility.yul\":23387:23393   */\n      dup3\n        /* \"#utility.yul\":23383:23398   */\n      add\n        /* \"#utility.yul\":23376:23410   */\n      mstore\n        /* \"#utility.yul\":23191:23417   */\n      pop\n      jump\t// out\n        /* \"#utility.yul\":23423:23789   */\n    tag_462:\n        /* \"#utility.yul\":23565:23568   */\n      0x00\n        /* \"#utility.yul\":23586:23653   */\n      tag_680\n        /* \"#utility.yul\":23650:23652   */\n      0x27\n        /* \"#utility.yul\":23645:23648   */\n      dup4\n        /* \"#utility.yul\":23586:23653   */\n      tag_427\n      jump\t// in\n    tag_680:\n        /* \"#utility.yul\":23579:23653   */\n      swap2\n      pop\n        /* \"#utility.yul\":23662:23755   */\n      tag_681\n        /* \"#utility.yul\":23751:23754   */\n      dup3\n        /* \"#utility.yul\":23662:23755   */\n      tag_461\n      jump\t// in\n    tag_681:\n        /* \"#utility.yul\":23780:23782   */\n      0x40\n        /* \"#utility.yul\":23775:23778   */\n      dup3\n        /* \"#utility.yul\":23771:23783   */\n      add\n        /* \"#utility.yul\":23764:23783   */\n      swap1\n      pop\n        /* \"#utility.yul\":23423:23789   */\n      swap2\n      swap1\n      pop\n      jump\t// out\n        /* \"#utility.yul\":23795:24214   */\n    tag_297:\n        /* \"#utility.yul\":23961:23965   */\n      0x00\n        /* \"#utility.yul\":23999:24001   */\n      0x20\n        /* \"#utility.yul\":23988:23997   */\n      dup3\n        /* \"#utility.yul\":23984:24002   */\n      add\n        /* \"#utility.yul\":23976:24002   */\n      swap1\n      pop\n        /* \"#utility.yul\":24048:24057   */\n      dup2\n        /* \"#utility.yul\":24042:24046   */\n      dup2\n        /* \"#utility.yul\":24038:24058   */\n      sub\n        /* \"#utility.yul\":24034:24035   */\n      0x00\n        /* \"#utility.yul\":24023:24032   */\n      dup4\n        /* \"#utility.yul\":24019:24036   */\n      add\n        /* \"#utility.yul\":24012:24059   */\n      mstore\n        /* \"#utility.yul\":24076:24207   */\n      tag_683\n        /* \"#utility.yul\":24202:24206   */\n      dup2\n        /* \"#utility.yul\":24076:24207   */\n      tag_462\n      jump\t// in\n    tag_683:\n        /* \"#utility.yul\":24068:24207   */\n      swap1\n      pop\n        /* \"#utility.yul\":23795:24214   */\n      swap2\n      swap1\n      pop\n      jump\t// out\n        /* \"#utility.yul\":24220:24617   */\n    tag_299:\n        /* \"#utility.yul\":24360:24363   */\n      0x00\n        /* \"#utility.yul\":24375:24450   */\n      tag_685\n        /* \"#utility.yul\":24446:24449   */\n      dup3\n        /* \"#utility.yul\":24437:24443   */\n      dup6\n        /* \"#utility.yul\":24375:24450   */\n      tag_437\n      jump\t// in\n    tag_685:\n        /* \"#utility.yul\":24475:24477   */\n      0x20\n        /* \"#utility.yul\":24470:24473   */\n      dup3\n        /* \"#utility.yul\":24466:24478   */\n      add\n        /* \"#utility.yul\":24459:24478   */\n      swap2\n      pop\n        /* \"#utility.yul\":24488:24563   */\n      tag_686\n        /* \"#utility.yul\":24559:24562   */\n      dup3\n        /* \"#utility.yul\":24550:24556   */\n      dup5\n        /* \"#utility.yul\":24488:24563   */\n      tag_437\n      jump\t// in\n    tag_686:\n        /* \"#utility.yul\":24588:24590   */\n      0x20\n        /* \"#utility.yul\":24583:24586   */\n      dup3\n        /* \"#utility.yul\":24579:24591   */\n      add\n        /* \"#utility.yul\":24572:24591   */\n      swap2\n      pop\n        /* \"#utility.yul\":24608:24611   */\n      dup2\n        /* \"#utility.yul\":24601:24611   */\n      swap1\n      pop\n        /* \"#utility.yul\":24220:24617   */\n      swap4\n      swap3\n      pop\n      pop\n      pop\n      jump\t// out\n        /* \"#utility.yul\":24623:24799   */\n    tag_301:\n        /* \"#utility.yul\":24655:24656   */\n      0x00\n        /* \"#utility.yul\":24672:24692   */\n      tag_688\n        /* \"#utility.yul\":24690:24691   */\n      dup3\n        /* \"#utility.yul\":24672:24692   */\n      tag_400\n      jump\t// in\n    tag_688:\n        /* \"#utility.yul\":24667:24692   */\n      swap2\n      pop\n        /* \"#utility.yul\":24706:24726   */\n      tag_689\n        /* \"#utility.yul\":24724:24725   */\n      dup4\n        /* \"#utility.yul\":24706:24726   */\n      tag_400\n      jump\t// in\n    tag_689:\n        /* \"#utility.yul\":24701:24726   */\n      swap3\n      pop\n        /* \"#utility.yul\":24745:24746   */\n      dup3\n        /* \"#utility.yul\":24735:24770   */\n      tag_690\n      jumpi\n        /* \"#utility.yul\":24750:24768   */\n      tag_691\n      tag_444\n      jump\t// in\n    tag_691:\n        /* \"#utility.yul\":24735:24770   */\n    tag_690:\n        /* \"#utility.yul\":24791:24792   */\n      dup3\n        /* \"#utility.yul\":24788:24789   */\n      dup3\n        /* \"#utility.yul\":24784:24793   */\n      mod\n        /* \"#utility.yul\":24779:24793   */\n      swap1\n      pop\n        /* \"#utility.yul\":24623:24799   */\n      swap3\n      swap2\n      pop\n      pop\n      jump\t// out\n        /* \"#utility.yul\":24805:25247   */\n    tag_303:\n        /* \"#utility.yul\":24954:24958   */\n      0x00\n        /* \"#utility.yul\":24992:24994   */\n      0x60\n        /* \"#utility.yul\":24981:24990   */\n      dup3\n        /* \"#utility.yul\":24977:24995   */\n      add\n        /* \"#utility.yul\":24969:24995   */\n      swap1\n      pop\n        /* \"#utility.yul\":25005:25076   */\n      tag_693\n        /* \"#utility.yul\":25073:25074   */\n      0x00\n        /* \"#utility.yul\":25062:25071   */\n      dup4\n        /* \"#utility.yul\":25058:25075   */\n      add\n        /* \"#utility.yul\":25049:25055   */\n      dup7\n        /* \"#utility.yul\":25005:25076   */\n      tag_421\n      jump\t// in\n    tag_693:\n        /* \"#utility.yul\":25086:25158   */\n      tag_694\n        /* \"#utility.yul\":25154:25156   */\n      0x20\n        /* \"#utility.yul\":25143:25152   */\n      dup4\n        /* \"#utility.yul\":25139:25157   */\n      add\n        /* \"#utility.yul\":25130:25136   */\n      dup6\n        /* \"#utility.yul\":25086:25158   */\n      tag_408\n      jump\t// in\n    tag_694:\n        /* \"#utility.yul\":25168:25240   */\n      tag_695\n        /* \"#utility.yul\":25236:25238   */\n      0x40\n        /* \"#utility.yul\":25225:25234   */\n      dup4\n        /* \"#utility.yul\":25221:25239   */\n      add\n        /* \"#utility.yul\":25212:25218   */\n      dup5\n        /* \"#utility.yul\":25168:25240   */\n      tag_401\n      jump\t// in\n    tag_695:\n        /* \"#utility.yul\":24805:25247   */\n      swap5\n      swap4\n      pop\n      pop\n      pop\n      pop\n      jump\t// out\n        /* \"#utility.yul\":25253:25691   */\n    tag_349:\n        /* \"#utility.yul\":25400:25404   */\n      0x00\n        /* \"#utility.yul\":25438:25440   */\n      0x60\n        /* \"#utility.yul\":25427:25436   */\n      dup3\n        /* \"#utility.yul\":25423:25441   */\n      add\n        /* \"#utility.yul\":25415:25441   */\n      swap1\n      pop\n        /* \"#utility.yul\":25451:25522   */\n      tag_697\n        /* \"#utility.yul\":25519:25520   */\n      0x00\n        /* \"#utility.yul\":25508:25517   */\n      dup4\n        /* \"#utility.yul\":25504:25521   */\n      add\n        /* \"#utility.yul\":25495:25501   */\n      dup7\n        /* \"#utility.yul\":25451:25522   */\n      tag_421\n      jump\t// in\n    tag_697:\n        /* \"#utility.yul\":25532:25604   */\n      tag_698\n        /* \"#utility.yul\":25600:25602   */\n      0x20\n        /* \"#utility.yul\":25589:25598   */\n      dup4\n        /* \"#utility.yul\":25585:25603   */\n      add\n        /* \"#utility.yul\":25576:25582   */\n      dup6\n        /* \"#utility.yul\":25532:25604   */\n      tag_408\n      jump\t// in\n    tag_698:\n        /* \"#utility.yul\":25614:25684   */\n      tag_699\n        /* \"#utility.yul\":25680:25682   */\n      0x40\n        /* \"#utility.yul\":25669:25678   */\n      dup4\n        /* \"#utility.yul\":25665:25683   */\n      add\n        /* \"#utility.yul\":25656:25662   */\n      dup5\n        /* \"#utility.yul\":25614:25684   */\n      tag_418\n      jump\t// in\n    tag_699:\n        /* \"#utility.yul\":25253:25691   */\n      swap5\n      swap4\n      pop\n      pop\n      pop\n      pop\n      jump\t// out\n        /* \"#utility.yul\":25697:25923   */\n    tag_463:\n        /* \"#utility.yul\":25837:25871   */\n      0x506c61796572203120686173206e6f7420617070726f76656420656e6f756768\n        /* \"#utility.yul\":25833:25834   */\n      0x00\n        /* \"#utility.yul\":25825:25831   */\n      dup3\n        /* \"#utility.yul\":25821:25835   */\n      add\n        /* \"#utility.yul\":25814:25872   */\n      mstore\n        /* \"#utility.yul\":25906:25915   */\n      0x2066756e64732e00000000000000000000000000000000000000000000000000\n        /* \"#utility.yul\":25901:25903   */\n      0x20\n        /* \"#utility.yul\":25893:25899   */\n      dup3\n        /* \"#utility.yul\":25889:25904   */\n      add\n        /* \"#utility.yul\":25882:25916   */\n      mstore\n        /* \"#utility.yul\":25697:25923   */\n      pop\n      jump\t// out\n        /* \"#utility.yul\":25929:26295   */\n    tag_464:\n        /* \"#utility.yul\":26071:26074   */\n      0x00\n        /* \"#utility.yul\":26092:26159   */\n      tag_702\n        /* \"#utility.yul\":26156:26158   */\n      0x27\n        /* \"#utility.yul\":26151:26154   */\n      dup4\n        /* \"#utility.yul\":26092:26159   */\n      tag_427\n      jump\t// in\n    tag_702:\n        /* \"#utility.yul\":26085:26159   */\n      swap2\n      pop\n        /* \"#utility.yul\":26168:26261   */\n      tag_703\n        /* \"#utility.yul\":26257:26260   */\n      dup3\n        /* \"#utility.yul\":26168:26261   */\n      tag_463\n      jump\t// in\n    tag_703:\n        /* \"#utility.yul\":26286:26288   */\n      0x40\n        /* \"#utility.yul\":26281:26284   */\n      dup3\n        /* \"#utility.yul\":26277:26289   */\n      add\n        /* \"#utility.yul\":26270:26289   */\n      swap1\n      pop\n        /* \"#utility.yul\":25929:26295   */\n      swap2\n      swap1\n      pop\n      jump\t// out\n        /* \"#utility.yul\":26301:26720   */\n    tag_363:\n        /* \"#utility.yul\":26467:26471   */\n      0x00\n        /* \"#utility.yul\":26505:26507   */\n      0x20\n        /* \"#utility.yul\":26494:26503   */\n      dup3\n        /* \"#utility.yul\":26490:26508   */\n      add\n        /* \"#utility.yul\":26482:26508   */\n      swap1\n      pop\n        /* \"#utility.yul\":26554:26563   */\n      dup2\n        /* \"#utility.yul\":26548:26552   */\n      dup2\n        /* \"#utility.yul\":26544:26564   */\n      sub\n        /* \"#utility.yul\":26540:26541   */\n      0x00\n        /* \"#utility.yul\":26529:26538   */\n      dup4\n        /* \"#utility.yul\":26525:26542   */\n      add\n        /* \"#utility.yul\":26518:26565   */\n      mstore\n        /* \"#utility.yul\":26582:26713   */\n      tag_705\n        /* \"#utility.yul\":26708:26712   */\n      dup2\n        /* \"#utility.yul\":26582:26713   */\n      tag_464\n      jump\t// in\n    tag_705:\n        /* \"#utility.yul\":26574:26713   */\n      swap1\n      pop\n        /* \"#utility.yul\":26301:26720   */\n      swap2\n      swap1\n      pop\n      jump\t// out\n        /* \"#utility.yul\":26726:26952   */\n    tag_465:\n        /* \"#utility.yul\":26866:26900   */\n      0x506c61796572203220686173206e6f7420617070726f76656420656e6f756768\n        /* \"#utility.yul\":26862:26863   */\n      0x00\n        /* \"#utility.yul\":26854:26860   */\n      dup3\n        /* \"#utility.yul\":26850:26864   */\n      add\n        /* \"#utility.yul\":26843:26901   */\n      mstore\n        /* \"#utility.yul\":26935:26944   */\n      0x2066756e64732e00000000000000000000000000000000000000000000000000\n        /* \"#utility.yul\":26930:26932   */\n      0x20\n        /* \"#utility.yul\":26922:26928   */\n      dup3\n        /* \"#utility.yul\":26918:26933   */\n      add\n        /* \"#utility.yul\":26911:26945   */\n      mstore\n        /* \"#utility.yul\":26726:26952   */\n      pop\n      jump\t// out\n        /* \"#utility.yul\":26958:27324   */\n    tag_466:\n        /* \"#utility.yul\":27100:27103   */\n      0x00\n        /* \"#utility.yul\":27121:27188   */\n      tag_708\n        /* \"#utility.yul\":27185:27187   */\n      0x27\n        /* \"#utility.yul\":27180:27183   */\n      dup4\n        /* \"#utility.yul\":27121:27188   */\n      tag_427\n      jump\t// in\n    tag_708:\n        /* \"#utility.yul\":27114:27188   */\n      swap2\n      pop\n        /* \"#utility.yul\":27197:27290   */\n      tag_709\n        /* \"#utility.yul\":27286:27289   */\n      dup3\n        /* \"#utility.yul\":27197:27290   */\n      tag_465\n      jump\t// in\n    tag_709:\n        /* \"#utility.yul\":27315:27317   */\n      0x40\n        /* \"#utility.yul\":27310:27313   */\n      dup3\n        /* \"#utility.yul\":27306:27318   */\n      add\n        /* \"#utility.yul\":27299:27318   */\n      swap1\n      pop\n        /* \"#utility.yul\":26958:27324   */\n      swap2\n      swap1\n      pop\n      jump\t// out\n        /* \"#utility.yul\":27330:27749   */\n    tag_376:\n        /* \"#utility.yul\":27496:27500   */\n      0x00\n        /* \"#utility.yul\":27534:27536   */\n      0x20\n        /* \"#utility.yul\":27523:27532   */\n      dup3\n        /* \"#utility.yul\":27519:27537   */\n      add\n        /* \"#utility.yul\":27511:27537   */\n      swap1\n      pop\n        /* \"#utility.yul\":27583:27592   */\n      dup2\n        /* \"#utility.yul\":27577:27581   */\n      dup2\n        /* \"#utility.yul\":27573:27593   */\n      sub\n        /* \"#utility.yul\":27569:27570   */\n      0x00\n        /* \"#utility.yul\":27558:27567   */\n      dup4\n        /* \"#utility.yul\":27554:27571   */\n      add\n        /* \"#utility.yul\":27547:27594   */\n      mstore\n        /* \"#utility.yul\":27611:27742   */\n      tag_711\n        /* \"#utility.yul\":27737:27741   */\n      dup2\n        /* \"#utility.yul\":27611:27742   */\n      tag_466\n      jump\t// in\n    tag_711:\n        /* \"#utility.yul\":27603:27742   */\n      swap1\n      pop\n        /* \"#utility.yul\":27330:27749   */\n      swap2\n      swap1\n      pop\n      jump\t// out\n        /* \"#utility.yul\":27755:28197   */\n    tag_381:\n        /* \"#utility.yul\":27904:27908   */\n      0x00\n        /* \"#utility.yul\":27942:27944   */\n      0x60\n        /* \"#utility.yul\":27931:27940   */\n      dup3\n        /* \"#utility.yul\":27927:27945   */\n      add\n        /* \"#utility.yul\":27919:27945   */\n      swap1\n      pop\n        /* \"#utility.yul\":27955:28026   */\n      tag_713\n        /* \"#utility.yul\":28023:28024   */\n      0x00\n        /* \"#utility.yul\":28012:28021   */\n      dup4\n        /* \"#utility.yul\":28008:28025   */\n      add\n        /* \"#utility.yul\":27999:28005   */\n      dup7\n        /* \"#utility.yul\":27955:28026   */\n      tag_421\n      jump\t// in\n    tag_713:\n        /* \"#utility.yul\":28036:28108   */\n      tag_714\n        /* \"#utility.yul\":28104:28106   */\n      0x20\n        /* \"#utility.yul\":28093:28102   */\n      dup4\n        /* \"#utility.yul\":28089:28107   */\n      add\n        /* \"#utility.yul\":28080:28086   */\n      dup6\n        /* \"#utility.yul\":28036:28108   */\n      tag_421\n      jump\t// in\n    tag_714:\n        /* \"#utility.yul\":28118:28190   */\n      tag_715\n        /* \"#utility.yul\":28186:28188   */\n      0x40\n        /* \"#utility.yul\":28175:28184   */\n      dup4\n        /* \"#utility.yul\":28171:28189   */\n      add\n        /* \"#utility.yul\":28162:28168   */\n      dup5\n        /* \"#utility.yul\":28118:28190   */\n      tag_401\n      jump\t// in\n    tag_715:\n        /* \"#utility.yul\":27755:28197   */\n      swap5\n      swap4\n      pop\n      pop\n      pop\n      pop\n      jump\t// out\n        /* \"#utility.yul\":28203:28613   */\n    tag_393:\n        /* \"#utility.yul\":28243:28250   */\n      0x00\n        /* \"#utility.yul\":28266:28286   */\n      tag_717\n        /* \"#utility.yul\":28284:28285   */\n      dup3\n        /* \"#utility.yul\":28266:28286   */\n      tag_400\n      jump\t// in\n    tag_717:\n        /* \"#utility.yul\":28261:28286   */\n      swap2\n      pop\n        /* \"#utility.yul\":28300:28320   */\n      tag_718\n        /* \"#utility.yul\":28318:28319   */\n      dup4\n        /* \"#utility.yul\":28300:28320   */\n      tag_400\n      jump\t// in\n    tag_718:\n        /* \"#utility.yul\":28295:28320   */\n      swap3\n      pop\n        /* \"#utility.yul\":28355:28356   */\n      dup3\n        /* \"#utility.yul\":28352:28353   */\n      dup3\n        /* \"#utility.yul\":28348:28357   */\n      mul\n        /* \"#utility.yul\":28377:28407   */\n      tag_719\n        /* \"#utility.yul\":28395:28406   */\n      dup2\n        /* \"#utility.yul\":28377:28407   */\n      tag_400\n      jump\t// in\n    tag_719:\n        /* \"#utility.yul\":28366:28407   */\n      swap2\n      pop\n        /* \"#utility.yul\":28556:28557   */\n      dup3\n        /* \"#utility.yul\":28547:28554   */\n      dup3\n        /* \"#utility.yul\":28543:28558   */\n      div\n        /* \"#utility.yul\":28540:28541   */\n      dup5\n        /* \"#utility.yul\":28537:28559   */\n      eq\n        /* \"#utility.yul\":28517:28518   */\n      dup4\n        /* \"#utility.yul\":28510:28519   */\n      iszero\n        /* \"#utility.yul\":28490:28573   */\n      or\n        /* \"#utility.yul\":28467:28606   */\n      tag_720\n      jumpi\n        /* \"#utility.yul\":28586:28604   */\n      tag_721\n      tag_435\n      jump\t// in\n    tag_721:\n        /* \"#utility.yul\":28467:28606   */\n    tag_720:\n        /* \"#utility.yul\":28251:28613   */\n      pop\n        /* \"#utility.yul\":28203:28613   */\n      swap3\n      swap2\n      pop\n      pop\n      jump\t// out\n\n    auxdata: 0xa264697066735822122057bd9c1c0c67f49ad3ad92856b48501a14f72d879a28b33b25627bb9e505953f64736f6c634300081a0033\n}\n",
				"bytecode": {
					"linkReferences": {},
					"object": "608060405260645f806101000a81548160ff021916908360ff1602179055505f6004555f6005555f6008555f600955603c600a5564e8d4a51000600c55348015610047575f80fd5b506040516134f83803806134f88339818101604052810190610069919061010d565b8060035f6101000a81548173ffffffffffffffffffffffffffffffffffffffff021916908373ffffffffffffffffffffffffffffffffffffffff16021790555050610138565b5f80fd5b5f73ffffffffffffffffffffffffffffffffffffffff82169050919050565b5f6100dc826100b3565b9050919050565b6100ec816100d2565b81146100f6575f80fd5b50565b5f81519050610107816100e3565b92915050565b5f60208284031215610122576101216100af565b5b5f61012f848285016100f9565b91505092915050565b6133b3806101455f395ff3fe608060405234801561000f575f80fd5b5060043610610135575f3560e01c80637b43a8e6116100b6578063bc06b8cd1161007a578063bc06b8cd1461031b578063c876e61514610339578063d891f96914610357578063d97c841614610373578063f71d96cb14610391578063fc0c546a146103c157610135565b80637b43a8e61461025f57806385d19e1a1461029157806390d5d0c3146102af5780639405de64146102cd578063a040478d146102eb57610135565b806348b9ef40116100fd57806348b9ef40146101df578063558d51c6146101fd57806365ce0ac6146102075780636ac5db191461022357806378e979251461024157610135565b8063086f781514610139578063228cb7331461015757806327b5db8a146101755780633cf5040a1461017f57806343cdd438146101af575b5f80fd5b6101416103df565b60405161014e91906124a4565b60405180910390f35b61015f6103e5565b60405161016c91906124a4565b60405180910390f35b61017d6103eb565b005b610199600480360381019061019491906124f4565b610730565b6040516101a6919061252e565b60405180910390f35b6101c960048036038101906101c491906125a1565b61075f565b6040516101d691906125e6565b60405180910390f35b6101e761077c565b6040516101f491906124a4565b60405180910390f35b610205610782565b005b610221600480360381019061021c91906124f4565b611058565b005b61022b6111f7565b604051610238919061261a565b60405180910390f35b610249611207565b60405161025691906124a4565b60405180910390f35b610279600480360381019061027491906125a1565b61120d565b60405161028893929190612655565b60405180910390f35b610299611253565b6040516102a691906124a4565b60405180910390f35b6102b7611259565b6040516102c491906124a4565b60405180910390f35b6102d561125f565b6040516102e291906124a4565b60405180910390f35b610305600480360381019061030091906125a1565b611300565b60405161031291906124a4565b60405180910390f35b610323611315565b60405161033091906124a4565b60405180910390f35b610341611329565b60405161034e91906124a4565b60405180910390f35b610371600480360381019061036c91906124f4565b61132f565b005b61037b611511565b60405161038891906124a4565b60405180910390f35b6103ab60048036038101906103a691906126b4565b611531565b6040516103b891906126ee565b60405180910390f35b6103c961156c565b6040516103d69190612762565b60405180910390f35b60085481565b60055481565b600260045410610430576040517f08c379a0000000000000000000000000000000000000000000000000000000008152600401610427906127d5565b60405180910390fd5b600c5460035f9054906101000a900473ffffffffffffffffffffffffffffffffffffffff1673ffffffffffffffffffffffffffffffffffffffff1663dd62ed3e33336040518363ffffffff1660e01b815260040161048f9291906127f3565b602060405180830381865afa1580156104aa573d5f803e3d5ffd5b505050506040513d601f19601f820116820180604052508101906104ce919061282e565b101561050f576040517f08c379a0000000000000000000000000000000000000000000000000000000008152600401610506906128c9565b60405180910390fd5b5f60045411156105c357600b5f8154811061052d5761052c6128e7565b5b905f5260205f20015f9054906101000a900473ffffffffffffffffffffffffffffffffffffffff1673ffffffffffffffffffffffffffffffffffffffff163373ffffffffffffffffffffffffffffffffffffffff16036105c2576040517f08c379a00000000000000000000000000000000000000000000000000000000081526004016105b99061295e565b60405180910390fd5b5b600b33908060018154018082558091505060019003905f5260205f20015f9091909190916101000a81548173ffffffffffffffffffffffffffffffffffffffff021916908373ffffffffffffffffffffffffffffffffffffffff160217905550600560065f3373ffffffffffffffffffffffffffffffffffffffff1673ffffffffffffffffffffffffffffffffffffffff1681526020019081526020015f20819055505f60075f3373ffffffffffffffffffffffffffffffffffffffff1673ffffffffffffffffffffffffffffffffffffffff1681526020019081526020015f205f6101000a81548160ff02191690831515021790555060045f8154809291906106cc906129a9565b9190505550600c5460055f8282546106e491906129f0565b925050819055507f0c1de8e9993c058a253c96414b4215583b25fa35e1b6e0facf4d5a0dc2a6f3f83360045460405161071e929190612a23565b60405180910390a161072e611591565b565b5f816040516020016107429190612a6a565b604051602081830303815290604052805190602001209050919050565b6007602052805f5260405f205f915054906101000a900460ff1681565b600c5481565b60016004541015610791575f80fd5b600a5461079c611315565b116107dc576040517f08c379a00000000000000000000000000000000000000000000000000000000081526004016107d390612af4565b60405180910390fd5b600554471015610821576040517f08c379a000000000000000000000000000000000000000000000000000000000815260040161081890612b82565b60405180910390fd5b5f600b5f81548110610836576108356128e7565b5b905f5260205f20015f9054906101000a900473ffffffffffffffffffffffffffffffffffffffff1690506001600454036109515760035f9054906101000a900473ffffffffffffffffffffffffffffffffffffffff1673ffffffffffffffffffffffffffffffffffffffff1663a9059cbb600b5f815481106108bb576108ba6128e7565b5b905f5260205f20015f9054906101000a900473ffffffffffffffffffffffffffffffffffffffff166005546040518363ffffffff1660e01b8152600401610903929190612a23565b6020604051808303815f875af115801561091f573d5f803e3d5ffd5b505050506040513d601f19601f820116820180604052508101906109439190612bca565b5061094c61159a565b611055565b600260045403611054575f600854148061097a5750600260085414801561097957505f600954145b5b15610b595760035f9054906101000a900473ffffffffffffffffffffffffffffffffffffffff1673ffffffffffffffffffffffffffffffffffffffff1663a9059cbb600b5f815481106109d0576109cf6128e7565b5b905f5260205f20015f9054906101000a900473ffffffffffffffffffffffffffffffffffffffff166002600554610a079190612c22565b6040518363ffffffff1660e01b8152600401610a24929190612a23565b6020604051808303815f875af1158015610a40573d5f803e3d5ffd5b505050506040513d601f19601f82011682018060405250810190610a649190612bca565b5060035f9054906101000a900473ffffffffffffffffffffffffffffffffffffffff1673ffffffffffffffffffffffffffffffffffffffff1663a9059cbb600b600181548110610ab757610ab66128e7565b5b905f5260205f20015f9054906101000a900473ffffffffffffffffffffffffffffffffffffffff166002600554610aee9190612c22565b6040518363ffffffff1660e01b8152600401610b0b929190612a23565b6020604051808303815f875af1158015610b27573d5f803e3d5ffd5b505050506040513d601f19601f82011682018060405250810190610b4b9190612bca565b50610b5461159a565b611053565b600160085403610d80576001151560075f8373ffffffffffffffffffffffffffffffffffffffff1673ffffffffffffffffffffffffffffffffffffffff1681526020019081526020015f205f9054906101000a900460ff16151503610c975760035f9054906101000a900473ffffffffffffffffffffffffffffffffffffffff1673ffffffffffffffffffffffffffffffffffffffff1663a9059cbb600b5f81548110610c0957610c086128e7565b5b905f5260205f20015f9054906101000a900473ffffffffffffffffffffffffffffffffffffffff166005546040518363ffffffff1660e01b8152600401610c51929190612a23565b6020604051808303815f875af1158015610c6d573d5f803e3d5ffd5b505050506040513d601f19601f82011682018060405250810190610c919190612bca565b50610d73565b60035f9054906101000a900473ffffffffffffffffffffffffffffffffffffffff1673ffffffffffffffffffffffffffffffffffffffff1663a9059cbb600b600181548110610ce957610ce86128e7565b5b905f5260205f20015f9054906101000a900473ffffffffffffffffffffffffffffffffffffffff166005546040518363ffffffff1660e01b8152600401610d31929190612a23565b6020604051808303815f875af1158015610d4d573d5f803e3d5ffd5b505050506040513d601f19601f82011682018060405250810190610d719190612bca565b505b610d7b61159a565b611052565b6002600854148015610d9457506001600954145b15610fa657600560065f8373ffffffffffffffffffffffffffffffffffffffff1673ffffffffffffffffffffffffffffffffffffffff1681526020019081526020015f205414610ebd5760035f9054906101000a900473ffffffffffffffffffffffffffffffffffffffff1673ffffffffffffffffffffffffffffffffffffffff1663a9059cbb600b5f81548110610e2f57610e2e6128e7565b5b905f5260205f20015f9054906101000a900473ffffffffffffffffffffffffffffffffffffffff166005546040518363ffffffff1660e01b8152600401610e77929190612a23565b6020604051808303815f875af1158015610e93573d5f803e3d5ffd5b505050506040513d601f19601f82011682018060405250810190610eb79190612bca565b50610f99565b60035f9054906101000a900473ffffffffffffffffffffffffffffffffffffffff1673ffffffffffffffffffffffffffffffffffffffff1663a9059cbb600b600181548110610f0f57610f0e6128e7565b5b905f5260205f20015f9054906101000a900473ffffffffffffffffffffffffffffffffffffffff166005546040518363ffffffff1660e01b8152600401610f57929190612a23565b6020604051808303815f875af1158015610f73573d5f803e3d5ffd5b505050506040513d601f19601f82011682018060405250810190610f979190612bca565b505b610fa161159a565b611051565b6002600954036110505760035f9054906101000a900473ffffffffffffffffffffffffffffffffffffffff1673ffffffffffffffffffffffffffffffffffffffff1663a9059cbb336005546040518363ffffffff1660e01b815260040161100e929190612a23565b6020604051808303815f875af115801561102a573d5f803e3d5ffd5b505050506040513d601f19601f8201168201806040525081019061104e9190612bca565b505b5b5b5b5b5b50565b600260045414611066575f80fd5b600260085414611074575f80fd5b60075f3373ffffffffffffffffffffffffffffffffffffffff1673ffffffffffffffffffffffffffffffffffffffff1681526020019081526020015f205f9054906101000a900460ff166110fd576040517f08c379a00000000000000000000000000000000000000000000000000000000081526004016110f490612c9c565b60405180910390fd5b5f81601f60208110611112576111116128e7565b5b1a60f81b60f81c60ff1690505f811015801561112f575060048111155b61116e576040517f08c379a000000000000000000000000000000000000000000000000000000000815260040161116590612d04565b60405180910390fd5b611177826115c5565b8060065f3373ffffffffffffffffffffffffffffffffffffffff1673ffffffffffffffffffffffffffffffffffffffff1681526020019081526020015f208190555060095f8154809291906111cb906129a9565b91905055506111d8611591565b6002600954036111f3576111ea611983565b6111f261159a565b5b5050565b5f8054906101000a900460ff1681565b60025481565b6001602052805f5260405f205f91509050805f015490806001015f9054906101000a900467ffffffffffffffff16908060010160089054906101000a900460ff16905083565b600a5481565b60045481565b5f60035f9054906101000a900473ffffffffffffffffffffffffffffffffffffffff1673ffffffffffffffffffffffffffffffffffffffff1663dd62ed3e33336040518363ffffffff1660e01b81526004016112bc9291906127f3565b602060405180830381865afa1580156112d7573d5f803e3d5ffd5b505050506040513d601f19601f820116820180604052508101906112fb919061282e565b905090565b6006602052805f5260405f205f915090505481565b5f600254426113249190612d22565b905090565b60095481565b600260045414611374576040517f08c379a000000000000000000000000000000000000000000000000000000000815260040161136b90612d9f565b60405180910390fd5b6002600854106113b9576040517f08c379a00000000000000000000000000000000000000000000000000000000081526004016113b090612e07565b60405180910390fd5b60075f3373ffffffffffffffffffffffffffffffffffffffff1673ffffffffffffffffffffffffffffffffffffffff1681526020019081526020015f205f9054906101000a900460ff1615611443576040517f08c379a000000000000000000000000000000000000000000000000000000000815260040161143a90612e6f565b60405180910390fd5b600160075f3373ffffffffffffffffffffffffffffffffffffffff1673ffffffffffffffffffffffffffffffffffffffff1681526020019081526020015f205f6101000a81548160ff0219169083151502179055506114a181611df4565b60085f8154809291906114b3906129a9565b91905055506002600854036114cb576114ca611fc6565b5b7fa8fb792d8bb1782eba00886b053364d6972fa987197717655665c13d3696ea9e336008546040516114fe929190612a23565b60405180910390a161150e611591565b50565b5f603c600254426115229190612d22565b61152c9190612c22565b905090565b600b8181548110611540575f80fd5b905f5260205f20015f915054906101000a900473ffffffffffffffffffffffffffffffffffffffff1681565b60035f9054906101000a900473ffffffffffffffffffffffffffffffffffffffff1681565b42600281905550565b600b5f6115a79190612453565b5f6004819055505f6008819055505f6009819055505f600581905550565b5f151560015f3373ffffffffffffffffffffffffffffffffffffffff1673ffffffffffffffffffffffffffffffffffffffff1681526020019081526020015f2060010160089054906101000a900460ff16151514611658576040517f08c379a000000000000000000000000000000000000000000000000000000000815260040161164f90612efd565b60405180910390fd5b6001805f3373ffffffffffffffffffffffffffffffffffffffff1673ffffffffffffffffffffffffffffffffffffffff1681526020019081526020015f2060010160086101000a81548160ff02191690831515021790555060015f3373ffffffffffffffffffffffffffffffffffffffff1673ffffffffffffffffffffffffffffffffffffffff1681526020019081526020015f205f01546116f982610730565b14611739576040517f08c379a000000000000000000000000000000000000000000000000000000000815260040161173090612f8b565b60405180910390fd5b60015f3373ffffffffffffffffffffffffffffffffffffffff1673ffffffffffffffffffffffffffffffffffffffff1681526020019081526020015f206001015f9054906101000a900467ffffffffffffffff1667ffffffffffffffff164367ffffffffffffffff16116117e2576040517f08c379a00000000000000000000000000000000000000000000000000000000081526004016117d99061303f565b60405180910390fd5b60fa60015f3373ffffffffffffffffffffffffffffffffffffffff1673ffffffffffffffffffffffffffffffffffffffff1681526020019081526020015f206001015f9054906101000a900467ffffffffffffffff16611842919061305d565b67ffffffffffffffff164367ffffffffffffffff161115611898576040517f08c379a000000000000000000000000000000000000000000000000000000000815260040161188f90613108565b60405180910390fd5b5f60015f3373ffffffffffffffffffffffffffffffffffffffff1673ffffffffffffffffffffffffffffffffffffffff1681526020019081526020015f206001015f9054906101000a900467ffffffffffffffff1667ffffffffffffffff164090505f805f9054906101000a900460ff1660ff16828460405160200161191f929190613126565b604051602081830303815290604052805190602001205f1c6119419190613151565b90507fbc016dd1cadeaefcb851af7a0a93532e0023d536894b730801f7bcfe7065bcc233848360405161197693929190613181565b60405180910390a1505050565b5f60065f600b5f8154811061199b5761199a6128e7565b5b905f5260205f20015f9054906101000a900473ffffffffffffffffffffffffffffffffffffffff1673ffffffffffffffffffffffffffffffffffffffff1673ffffffffffffffffffffffffffffffffffffffff1681526020019081526020015f205490505f60065f600b600181548110611a1857611a176128e7565b5b905f5260205f20015f9054906101000a900473ffffffffffffffffffffffffffffffffffffffff1673ffffffffffffffffffffffffffffffffffffffff1673ffffffffffffffffffffffffffffffffffffffff1681526020019081526020015f205490505f818303611c565760035f9054906101000a900473ffffffffffffffffffffffffffffffffffffffff1673ffffffffffffffffffffffffffffffffffffffff1663a9059cbb600b5f81548110611ad557611ad46128e7565b5b905f5260205f20015f9054906101000a900473ffffffffffffffffffffffffffffffffffffffff166002600554611b0c9190612c22565b6040518363ffffffff1660e01b8152600401611b29929190612a23565b6020604051808303815f875af1158015611b45573d5f803e3d5ffd5b505050506040513d601f19601f82011682018060405250810190611b699190612bca565b5060035f9054906101000a900473ffffffffffffffffffffffffffffffffffffffff1673ffffffffffffffffffffffffffffffffffffffff1663a9059cbb600b600181548110611bbc57611bbb6128e7565b5b905f5260205f20015f9054906101000a900473ffffffffffffffffffffffffffffffffffffffff166002600554611bf39190612c22565b6040518363ffffffff1660e01b8152600401611c10929190612a23565b6020604051808303815f875af1158015611c2c573d5f803e3d5ffd5b505050506040513d601f19601f82011682018060405250810190611c509190612bca565b50611d1c565b816005600185611c6691906129f0565b611c709190613151565b1480611c935750816005600385611c8791906129f0565b611c919190613151565b145b15611cdc57600b600181548110611cad57611cac6128e7565b5b905f5260205f20015f9054906101000a900473ffffffffffffffffffffffffffffffffffffffff169050611d1b565b600b5f81548110611cf057611cef6128e7565b5b905f5260205f20015f9054906101000a900473ffffffffffffffffffffffffffffffffffffffff1690505b5b5f73ffffffffffffffffffffffffffffffffffffffff168173ffffffffffffffffffffffffffffffffffffffff1614611def5760035f9054906101000a900473ffffffffffffffffffffffffffffffffffffffff1673ffffffffffffffffffffffffffffffffffffffff1663a9059cbb826005546040518363ffffffff1660e01b8152600401611dad929190612a23565b6020604051808303815f875af1158015611dc9573d5f803e3d5ffd5b505050506040513d601f19601f82011682018060405250810190611ded9190612bca565b505b505050565b8060015f3373ffffffffffffffffffffffffffffffffffffffff1673ffffffffffffffffffffffffffffffffffffffff1681526020019081526020015f205f01819055504360015f3373ffffffffffffffffffffffffffffffffffffffff1673ffffffffffffffffffffffffffffffffffffffff1681526020019081526020015f206001015f6101000a81548167ffffffffffffffff021916908367ffffffffffffffff1602179055505f60015f3373ffffffffffffffffffffffffffffffffffffffff1673ffffffffffffffffffffffffffffffffffffffff1681526020019081526020015f2060010160086101000a81548160ff0219169083151502179055507f3c1a1f8f38335b17f751c6da4ba7d1865f26b3997535176f5080de9fad8916033360015f3373ffffffffffffffffffffffffffffffffffffffff1673ffffffffffffffffffffffffffffffffffffffff1681526020019081526020015f205f015460015f3373ffffffffffffffffffffffffffffffffffffffff1673ffffffffffffffffffffffffffffffffffffffff1681526020019081526020015f206001015f9054906101000a900467ffffffffffffffff16604051611fbb939291906131b6565b60405180910390a150565b600c5460035f9054906101000a900473ffffffffffffffffffffffffffffffffffffffff1673ffffffffffffffffffffffffffffffffffffffff1663dd62ed3e600b5f8154811061201a576120196128e7565b5b905f5260205f20015f9054906101000a900473ffffffffffffffffffffffffffffffffffffffff16600b5f81548110612056576120556128e7565b5b905f5260205f20015f9054906101000a900473ffffffffffffffffffffffffffffffffffffffff166040518363ffffffff1660e01b815260040161209b9291906127f3565b602060405180830381865afa1580156120b6573d5f803e3d5ffd5b505050506040513d601f19601f820116820180604052508101906120da919061282e565b101561211b576040517f08c379a00000000000000000000000000000000000000000000000000000000081526004016121129061325b565b60405180910390fd5b600c5460035f9054906101000a900473ffffffffffffffffffffffffffffffffffffffff1673ffffffffffffffffffffffffffffffffffffffff1663dd62ed3e600b6001815481106121705761216f6128e7565b5b905f5260205f20015f9054906101000a900473ffffffffffffffffffffffffffffffffffffffff16600b6001815481106121ad576121ac6128e7565b5b905f5260205f20015f9054906101000a900473ffffffffffffffffffffffffffffffffffffffff166040518363ffffffff1660e01b81526004016121f29291906127f3565b602060405180830381865afa15801561220d573d5f803e3d5ffd5b505050506040513d601f19601f82011682018060405250810190612231919061282e565b1015612272576040517f08c379a0000000000000000000000000000000000000000000000000000000008152600401612269906132e9565b60405180910390fd5b60035f9054906101000a900473ffffffffffffffffffffffffffffffffffffffff1673ffffffffffffffffffffffffffffffffffffffff166323b872dd30600b5f815481106122c4576122c36128e7565b5b905f5260205f20015f9054906101000a900473ffffffffffffffffffffffffffffffffffffffff16600c546040518463ffffffff1660e01b815260040161230d93929190613307565b6020604051808303815f875af1158015612329573d5f803e3d5ffd5b505050506040513d601f19601f8201168201806040525081019061234d9190612bca565b5060035f9054906101000a900473ffffffffffffffffffffffffffffffffffffffff1673ffffffffffffffffffffffffffffffffffffffff166323b872dd30600b6001815481106123a1576123a06128e7565b5b905f5260205f20015f9054906101000a900473ffffffffffffffffffffffffffffffffffffffff16600c546040518463ffffffff1660e01b81526004016123ea93929190613307565b6020604051808303815f875af1158015612406573d5f803e3d5ffd5b505050506040513d601f19601f8201168201806040525081019061242a9190612bca565b506002600c5461243a919061333c565b60055f82825461244a91906129f0565b92505081905550565b5080545f8255905f5260205f209081019061246e9190612471565b50565b5b80821115612488575f815f905550600101612472565b5090565b5f819050919050565b61249e8161248c565b82525050565b5f6020820190506124b75f830184612495565b92915050565b5f80fd5b5f819050919050565b6124d3816124c1565b81146124dd575f80fd5b50565b5f813590506124ee816124ca565b92915050565b5f60208284031215612509576125086124bd565b5b5f612516848285016124e0565b91505092915050565b612528816124c1565b82525050565b5f6020820190506125415f83018461251f565b92915050565b5f73ffffffffffffffffffffffffffffffffffffffff82169050919050565b5f61257082612547565b9050919050565b61258081612566565b811461258a575f80fd5b50565b5f8135905061259b81612577565b92915050565b5f602082840312156125b6576125b56124bd565b5b5f6125c38482850161258d565b91505092915050565b5f8115159050919050565b6125e0816125cc565b82525050565b5f6020820190506125f95f8301846125d7565b92915050565b5f60ff82169050919050565b612614816125ff565b82525050565b5f60208201905061262d5f83018461260b565b92915050565b5f67ffffffffffffffff82169050919050565b61264f81612633565b82525050565b5f6060820190506126685f83018661251f565b6126756020830185612646565b61268260408301846125d7565b949350505050565b6126938161248c565b811461269d575f80fd5b50565b5f813590506126ae8161268a565b92915050565b5f602082840312156126c9576126c86124bd565b5b5f6126d6848285016126a0565b91505092915050565b6126e881612566565b82525050565b5f6020820190506127015f8301846126df565b92915050565b5f819050919050565b5f61272a61272561272084612547565b612707565b612547565b9050919050565b5f61273b82612710565b9050919050565b5f61274c82612731565b9050919050565b61275c81612742565b82525050565b5f6020820190506127755f830184612753565b92915050565b5f82825260208201905092915050565b7f47616d6520616c726561647920686173203220706c61796572732e00000000005f82015250565b5f6127bf601b8361277b565b91506127ca8261278b565b602082019050919050565b5f6020820190508181035f8301526127ec816127b3565b9050919050565b5f6040820190506128065f8301856126df565b61281360208301846126df565b9392505050565b5f815190506128288161268a565b92915050565b5f60208284031215612843576128426124bd565b5b5f6128508482850161281a565b91505092915050565b7f417070726f766520636f6e747261637420746f2077697468647261772066756e5f8201527f64732e0000000000000000000000000000000000000000000000000000000000602082015250565b5f6128b360238361277b565b91506128be82612859565b604082019050919050565b5f6020820190508181035f8301526128e0816128a7565b9050919050565b7f4e487b71000000000000000000000000000000000000000000000000000000005f52603260045260245ffd5b7f596f752061726520616c726561647920696e207468652067616d652e000000005f82015250565b5f612948601c8361277b565b915061295382612914565b602082019050919050565b5f6020820190508181035f8301526129758161293c565b9050919050565b7f4e487b71000000000000000000000000000000000000000000000000000000005f52601160045260245ffd5b5f6129b38261248c565b91507fffffffffffffffffffffffffffffffffffffffffffffffffffffffffffffffff82036129e5576129e461297c565b5b600182019050919050565b5f6129fa8261248c565b9150612a058361248c565b9250828201905080821115612a1d57612a1c61297c565b5b92915050565b5f604082019050612a365f8301856126df565b612a436020830184612495565b9392505050565b5f819050919050565b612a64612a5f826124c1565b612a4a565b82525050565b5f612a758284612a53565b60208201915081905092915050565b7f596f75206e65656420746f20776169742031206d696e75746520666f722077695f8201527f7468647261772e00000000000000000000000000000000000000000000000000602082015250565b5f612ade60278361277b565b9150612ae982612a84565b604082019050919050565b5f6020820190508181035f830152612b0b81612ad2565b9050919050565b7f436f6e74726163742068617320696e73756666696369656e742062616c616e635f8201527f652e000000000000000000000000000000000000000000000000000000000000602082015250565b5f612b6c60228361277b565b9150612b7782612b12565b604082019050919050565b5f6020820190508181035f830152612b9981612b60565b9050919050565b612ba9816125cc565b8114612bb3575f80fd5b50565b5f81519050612bc481612ba0565b92915050565b5f60208284031215612bdf57612bde6124bd565b5b5f612bec84828501612bb6565b91505092915050565b7f4e487b71000000000000000000000000000000000000000000000000000000005f52601260045260245ffd5b5f612c2c8261248c565b9150612c378361248c565b925082612c4757612c46612bf5565b5b828204905092915050565b7f596f75206e65656420746f20636f6d6d69742066697273742e000000000000005f82015250565b5f612c8660198361277b565b9150612c9182612c52565b602082019050919050565b5f6020820190508181035f830152612cb381612c7a565b9050919050565b7f496e76616c69642063686f6963652e00000000000000000000000000000000005f82015250565b5f612cee600f8361277b565b9150612cf982612cba565b602082019050919050565b5f6020820190508181035f830152612d1b81612ce2565b9050919050565b5f612d2c8261248c565b9150612d378361248c565b9250828203905081811115612d4f57612d4e61297c565b5b92915050565b7f47616d65206e65656473203220706c61796572732e00000000000000000000005f82015250565b5f612d8960158361277b565b9150612d9482612d55565b602082019050919050565b5f6020820190508181035f830152612db681612d7d565b9050919050565b7f416c726561647920636f6d6d69747465642e00000000000000000000000000005f82015250565b5f612df160128361277b565b9150612dfc82612dbd565b602082019050919050565b5f6020820190508181035f830152612e1e81612de5565b9050919050565b7f596f7520616c726561647920636f6d6d69747465642e000000000000000000005f82015250565b5f612e5960168361277b565b9150612e6482612e25565b602082019050919050565b5f6020820190508181035f830152612e8681612e4d565b9050919050565b7f436f6d6d697452657665616c3a3a72657665616c3a20416c72656164792072655f8201527f7665616c65640000000000000000000000000000000000000000000000000000602082015250565b5f612ee760268361277b565b9150612ef282612e8d565b604082019050919050565b5f6020820190508181035f830152612f1481612edb565b9050919050565b7f436f6d6d697452657665616c3a3a72657665616c3a2052657665616c656420685f8201527f61736820646f6573206e6f74206d6174636820636f6d6d697400000000000000602082015250565b5f612f7560398361277b565b9150612f8082612f1b565b604082019050919050565b5f6020820190508181035f830152612fa281612f69565b9050919050565b7f436f6d6d697452657665616c3a3a72657665616c3a2052657665616c20616e645f8201527f20636f6d6d69742068617070656e6564206f6e207468652073616d6520626c6f60208201527f636b000000000000000000000000000000000000000000000000000000000000604082015250565b5f61302960428361277b565b915061303482612fa9565b606082019050919050565b5f6020820190508181035f8301526130568161301d565b9050919050565b5f61306782612633565b915061307283612633565b9250828201905067ffffffffffffffff8111156130925761309161297c565b5b92915050565b7f436f6d6d697452657665616c3a3a72657665616c3a2052657665616c656420745f8201527f6f6f206c61746500000000000000000000000000000000000000000000000000602082015250565b5f6130f260278361277b565b91506130fd82613098565b604082019050919050565b5f6020820190508181035f83015261311f816130e6565b9050919050565b5f6131318285612a53565b6020820191506131418284612a53565b6020820191508190509392505050565b5f61315b8261248c565b91506131668361248c565b92508261317657613175612bf5565b5b828206905092915050565b5f6060820190506131945f8301866126df565b6131a1602083018561251f565b6131ae6040830184612495565b949350505050565b5f6060820190506131c95f8301866126df565b6131d6602083018561251f565b6131e36040830184612646565b949350505050565b7f506c61796572203120686173206e6f7420617070726f76656420656e6f7567685f8201527f2066756e64732e00000000000000000000000000000000000000000000000000602082015250565b5f61324560278361277b565b9150613250826131eb565b604082019050919050565b5f6020820190508181035f83015261327281613239565b9050919050565b7f506c61796572203220686173206e6f7420617070726f76656420656e6f7567685f8201527f2066756e64732e00000000000000000000000000000000000000000000000000602082015250565b5f6132d360278361277b565b91506132de82613279565b604082019050919050565b5f6020820190508181035f830152613300816132c7565b9050919050565b5f60608201905061331a5f8301866126df565b61332760208301856126df565b6133346040830184612495565b949350505050565b5f6133468261248c565b91506133518361248c565b925082820261335f8161248c565b915082820484148315176133765761337561297c565b5b509291505056fea264697066735822122057bd9c1c0c67f49ad3ad92856b48501a14f72d879a28b33b25627bb9e505953f64736f6c634300081a0033",
					"opcodes": "PUSH1 0x80 PUSH1 0x40 MSTORE PUSH1 0x64 PUSH0 DUP1 PUSH2 0x100 EXP DUP2 SLOAD DUP2 PUSH1 0xFF MUL NOT AND SWAP1 DUP4 PUSH1 0xFF AND MUL OR SWAP1 SSTORE POP PUSH0 PUSH1 0x4 SSTORE PUSH0 PUSH1 0x5 SSTORE PUSH0 PUSH1 0x8 SSTORE PUSH0 PUSH1 0x9 SSTORE PUSH1 0x3C PUSH1 0xA SSTORE PUSH5 0xE8D4A51000 PUSH1 0xC SSTORE CALLVALUE DUP1 ISZERO PUSH2 0x47 JUMPI PUSH0 DUP1 REVERT JUMPDEST POP PUSH1 0x40 MLOAD PUSH2 0x34F8 CODESIZE SUB DUP1 PUSH2 0x34F8 DUP4 CODECOPY DUP2 DUP2 ADD PUSH1 0x40 MSTORE DUP2 ADD SWAP1 PUSH2 0x69 SWAP2 SWAP1 PUSH2 0x10D JUMP JUMPDEST DUP1 PUSH1 0x3 PUSH0 PUSH2 0x100 EXP DUP2 SLOAD DUP2 PUSH20 0xFFFFFFFFFFFFFFFFFFFFFFFFFFFFFFFFFFFFFFFF MUL NOT AND SWAP1 DUP4 PUSH20 0xFFFFFFFFFFFFFFFFFFFFFFFFFFFFFFFFFFFFFFFF AND MUL OR SWAP1 SSTORE POP POP PUSH2 0x138 JUMP JUMPDEST PUSH0 DUP1 REVERT JUMPDEST PUSH0 PUSH20 0xFFFFFFFFFFFFFFFFFFFFFFFFFFFFFFFFFFFFFFFF DUP3 AND SWAP1 POP SWAP2 SWAP1 POP JUMP JUMPDEST PUSH0 PUSH2 0xDC DUP3 PUSH2 0xB3 JUMP JUMPDEST SWAP1 POP SWAP2 SWAP1 POP JUMP JUMPDEST PUSH2 0xEC DUP2 PUSH2 0xD2 JUMP JUMPDEST DUP2 EQ PUSH2 0xF6 JUMPI PUSH0 DUP1 REVERT JUMPDEST POP JUMP JUMPDEST PUSH0 DUP2 MLOAD SWAP1 POP PUSH2 0x107 DUP2 PUSH2 0xE3 JUMP JUMPDEST SWAP3 SWAP2 POP POP JUMP JUMPDEST PUSH0 PUSH1 0x20 DUP3 DUP5 SUB SLT ISZERO PUSH2 0x122 JUMPI PUSH2 0x121 PUSH2 0xAF JUMP JUMPDEST JUMPDEST PUSH0 PUSH2 0x12F DUP5 DUP3 DUP6 ADD PUSH2 0xF9 JUMP JUMPDEST SWAP2 POP POP SWAP3 SWAP2 POP POP JUMP JUMPDEST PUSH2 0x33B3 DUP1 PUSH2 0x145 PUSH0 CODECOPY PUSH0 RETURN INVALID PUSH1 0x80 PUSH1 0x40 MSTORE CALLVALUE DUP1 ISZERO PUSH2 0xF JUMPI PUSH0 DUP1 REVERT JUMPDEST POP PUSH1 0x4 CALLDATASIZE LT PUSH2 0x135 JUMPI PUSH0 CALLDATALOAD PUSH1 0xE0 SHR DUP1 PUSH4 0x7B43A8E6 GT PUSH2 0xB6 JUMPI DUP1 PUSH4 0xBC06B8CD GT PUSH2 0x7A JUMPI DUP1 PUSH4 0xBC06B8CD EQ PUSH2 0x31B JUMPI DUP1 PUSH4 0xC876E615 EQ PUSH2 0x339 JUMPI DUP1 PUSH4 0xD891F969 EQ PUSH2 0x357 JUMPI DUP1 PUSH4 0xD97C8416 EQ PUSH2 0x373 JUMPI DUP1 PUSH4 0xF71D96CB EQ PUSH2 0x391 JUMPI DUP1 PUSH4 0xFC0C546A EQ PUSH2 0x3C1 JUMPI PUSH2 0x135 JUMP JUMPDEST DUP1 PUSH4 0x7B43A8E6 EQ PUSH2 0x25F JUMPI DUP1 PUSH4 0x85D19E1A EQ PUSH2 0x291 JUMPI DUP1 PUSH4 0x90D5D0C3 EQ PUSH2 0x2AF JUMPI DUP1 PUSH4 0x9405DE64 EQ PUSH2 0x2CD JUMPI DUP1 PUSH4 0xA040478D EQ PUSH2 0x2EB JUMPI PUSH2 0x135 JUMP JUMPDEST DUP1 PUSH4 0x48B9EF40 GT PUSH2 0xFD JUMPI DUP1 PUSH4 0x48B9EF40 EQ PUSH2 0x1DF JUMPI DUP1 PUSH4 0x558D51C6 EQ PUSH2 0x1FD JUMPI DUP1 PUSH4 0x65CE0AC6 EQ PUSH2 0x207 JUMPI DUP1 PUSH4 0x6AC5DB19 EQ PUSH2 0x223 JUMPI DUP1 PUSH4 0x78E97925 EQ PUSH2 0x241 JUMPI PUSH2 0x135 JUMP JUMPDEST DUP1 PUSH4 0x86F7815 EQ PUSH2 0x139 JUMPI DUP1 PUSH4 0x228CB733 EQ PUSH2 0x157 JUMPI DUP1 PUSH4 0x27B5DB8A EQ PUSH2 0x175 JUMPI DUP1 PUSH4 0x3CF5040A EQ PUSH2 0x17F JUMPI DUP1 PUSH4 0x43CDD438 EQ PUSH2 0x1AF JUMPI JUMPDEST PUSH0 DUP1 REVERT JUMPDEST PUSH2 0x141 PUSH2 0x3DF JUMP JUMPDEST PUSH1 0x40 MLOAD PUSH2 0x14E SWAP2 SWAP1 PUSH2 0x24A4 JUMP JUMPDEST PUSH1 0x40 MLOAD DUP1 SWAP2 SUB SWAP1 RETURN JUMPDEST PUSH2 0x15F PUSH2 0x3E5 JUMP JUMPDEST PUSH1 0x40 MLOAD PUSH2 0x16C SWAP2 SWAP1 PUSH2 0x24A4 JUMP JUMPDEST PUSH1 0x40 MLOAD DUP1 SWAP2 SUB SWAP1 RETURN JUMPDEST PUSH2 0x17D PUSH2 0x3EB JUMP JUMPDEST STOP JUMPDEST PUSH2 0x199 PUSH1 0x4 DUP1 CALLDATASIZE SUB DUP2 ADD SWAP1 PUSH2 0x194 SWAP2 SWAP1 PUSH2 0x24F4 JUMP JUMPDEST PUSH2 0x730 JUMP JUMPDEST PUSH1 0x40 MLOAD PUSH2 0x1A6 SWAP2 SWAP1 PUSH2 0x252E JUMP JUMPDEST PUSH1 0x40 MLOAD DUP1 SWAP2 SUB SWAP1 RETURN JUMPDEST PUSH2 0x1C9 PUSH1 0x4 DUP1 CALLDATASIZE SUB DUP2 ADD SWAP1 PUSH2 0x1C4 SWAP2 SWAP1 PUSH2 0x25A1 JUMP JUMPDEST PUSH2 0x75F JUMP JUMPDEST PUSH1 0x40 MLOAD PUSH2 0x1D6 SWAP2 SWAP1 PUSH2 0x25E6 JUMP JUMPDEST PUSH1 0x40 MLOAD DUP1 SWAP2 SUB SWAP1 RETURN JUMPDEST PUSH2 0x1E7 PUSH2 0x77C JUMP JUMPDEST PUSH1 0x40 MLOAD PUSH2 0x1F4 SWAP2 SWAP1 PUSH2 0x24A4 JUMP JUMPDEST PUSH1 0x40 MLOAD DUP1 SWAP2 SUB SWAP1 RETURN JUMPDEST PUSH2 0x205 PUSH2 0x782 JUMP JUMPDEST STOP JUMPDEST PUSH2 0x221 PUSH1 0x4 DUP1 CALLDATASIZE SUB DUP2 ADD SWAP1 PUSH2 0x21C SWAP2 SWAP1 PUSH2 0x24F4 JUMP JUMPDEST PUSH2 0x1058 JUMP JUMPDEST STOP JUMPDEST PUSH2 0x22B PUSH2 0x11F7 JUMP JUMPDEST PUSH1 0x40 MLOAD PUSH2 0x238 SWAP2 SWAP1 PUSH2 0x261A JUMP JUMPDEST PUSH1 0x40 MLOAD DUP1 SWAP2 SUB SWAP1 RETURN JUMPDEST PUSH2 0x249 PUSH2 0x1207 JUMP JUMPDEST PUSH1 0x40 MLOAD PUSH2 0x256 SWAP2 SWAP1 PUSH2 0x24A4 JUMP JUMPDEST PUSH1 0x40 MLOAD DUP1 SWAP2 SUB SWAP1 RETURN JUMPDEST PUSH2 0x279 PUSH1 0x4 DUP1 CALLDATASIZE SUB DUP2 ADD SWAP1 PUSH2 0x274 SWAP2 SWAP1 PUSH2 0x25A1 JUMP JUMPDEST PUSH2 0x120D JUMP JUMPDEST PUSH1 0x40 MLOAD PUSH2 0x288 SWAP4 SWAP3 SWAP2 SWAP1 PUSH2 0x2655 JUMP JUMPDEST PUSH1 0x40 MLOAD DUP1 SWAP2 SUB SWAP1 RETURN JUMPDEST PUSH2 0x299 PUSH2 0x1253 JUMP JUMPDEST PUSH1 0x40 MLOAD PUSH2 0x2A6 SWAP2 SWAP1 PUSH2 0x24A4 JUMP JUMPDEST PUSH1 0x40 MLOAD DUP1 SWAP2 SUB SWAP1 RETURN JUMPDEST PUSH2 0x2B7 PUSH2 0x1259 JUMP JUMPDEST PUSH1 0x40 MLOAD PUSH2 0x2C4 SWAP2 SWAP1 PUSH2 0x24A4 JUMP JUMPDEST PUSH1 0x40 MLOAD DUP1 SWAP2 SUB SWAP1 RETURN JUMPDEST PUSH2 0x2D5 PUSH2 0x125F JUMP JUMPDEST PUSH1 0x40 MLOAD PUSH2 0x2E2 SWAP2 SWAP1 PUSH2 0x24A4 JUMP JUMPDEST PUSH1 0x40 MLOAD DUP1 SWAP2 SUB SWAP1 RETURN JUMPDEST PUSH2 0x305 PUSH1 0x4 DUP1 CALLDATASIZE SUB DUP2 ADD SWAP1 PUSH2 0x300 SWAP2 SWAP1 PUSH2 0x25A1 JUMP JUMPDEST PUSH2 0x1300 JUMP JUMPDEST PUSH1 0x40 MLOAD PUSH2 0x312 SWAP2 SWAP1 PUSH2 0x24A4 JUMP JUMPDEST PUSH1 0x40 MLOAD DUP1 SWAP2 SUB SWAP1 RETURN JUMPDEST PUSH2 0x323 PUSH2 0x1315 JUMP JUMPDEST PUSH1 0x40 MLOAD PUSH2 0x330 SWAP2 SWAP1 PUSH2 0x24A4 JUMP JUMPDEST PUSH1 0x40 MLOAD DUP1 SWAP2 SUB SWAP1 RETURN JUMPDEST PUSH2 0x341 PUSH2 0x1329 JUMP JUMPDEST PUSH1 0x40 MLOAD PUSH2 0x34E SWAP2 SWAP1 PUSH2 0x24A4 JUMP JUMPDEST PUSH1 0x40 MLOAD DUP1 SWAP2 SUB SWAP1 RETURN JUMPDEST PUSH2 0x371 PUSH1 0x4 DUP1 CALLDATASIZE SUB DUP2 ADD SWAP1 PUSH2 0x36C SWAP2 SWAP1 PUSH2 0x24F4 JUMP JUMPDEST PUSH2 0x132F JUMP JUMPDEST STOP JUMPDEST PUSH2 0x37B PUSH2 0x1511 JUMP JUMPDEST PUSH1 0x40 MLOAD PUSH2 0x388 SWAP2 SWAP1 PUSH2 0x24A4 JUMP JUMPDEST PUSH1 0x40 MLOAD DUP1 SWAP2 SUB SWAP1 RETURN JUMPDEST PUSH2 0x3AB PUSH1 0x4 DUP1 CALLDATASIZE SUB DUP2 ADD SWAP1 PUSH2 0x3A6 SWAP2 SWAP1 PUSH2 0x26B4 JUMP JUMPDEST PUSH2 0x1531 JUMP JUMPDEST PUSH1 0x40 MLOAD PUSH2 0x3B8 SWAP2 SWAP1 PUSH2 0x26EE JUMP JUMPDEST PUSH1 0x40 MLOAD DUP1 SWAP2 SUB SWAP1 RETURN JUMPDEST PUSH2 0x3C9 PUSH2 0x156C JUMP JUMPDEST PUSH1 0x40 MLOAD PUSH2 0x3D6 SWAP2 SWAP1 PUSH2 0x2762 JUMP JUMPDEST PUSH1 0x40 MLOAD DUP1 SWAP2 SUB SWAP1 RETURN JUMPDEST PUSH1 0x8 SLOAD DUP2 JUMP JUMPDEST PUSH1 0x5 SLOAD DUP2 JUMP JUMPDEST PUSH1 0x2 PUSH1 0x4 SLOAD LT PUSH2 0x430 JUMPI PUSH1 0x40 MLOAD PUSH32 0x8C379A000000000000000000000000000000000000000000000000000000000 DUP2 MSTORE PUSH1 0x4 ADD PUSH2 0x427 SWAP1 PUSH2 0x27D5 JUMP JUMPDEST PUSH1 0x40 MLOAD DUP1 SWAP2 SUB SWAP1 REVERT JUMPDEST PUSH1 0xC SLOAD PUSH1 0x3 PUSH0 SWAP1 SLOAD SWAP1 PUSH2 0x100 EXP SWAP1 DIV PUSH20 0xFFFFFFFFFFFFFFFFFFFFFFFFFFFFFFFFFFFFFFFF AND PUSH20 0xFFFFFFFFFFFFFFFFFFFFFFFFFFFFFFFFFFFFFFFF AND PUSH4 0xDD62ED3E CALLER CALLER PUSH1 0x40 MLOAD DUP4 PUSH4 0xFFFFFFFF AND PUSH1 0xE0 SHL DUP2 MSTORE PUSH1 0x4 ADD PUSH2 0x48F SWAP3 SWAP2 SWAP1 PUSH2 0x27F3 JUMP JUMPDEST PUSH1 0x20 PUSH1 0x40 MLOAD DUP1 DUP4 SUB DUP2 DUP7 GAS STATICCALL ISZERO DUP1 ISZERO PUSH2 0x4AA JUMPI RETURNDATASIZE PUSH0 DUP1 RETURNDATACOPY RETURNDATASIZE PUSH0 REVERT JUMPDEST POP POP POP POP PUSH1 0x40 MLOAD RETURNDATASIZE PUSH1 0x1F NOT PUSH1 0x1F DUP3 ADD AND DUP3 ADD DUP1 PUSH1 0x40 MSTORE POP DUP2 ADD SWAP1 PUSH2 0x4CE SWAP2 SWAP1 PUSH2 0x282E JUMP JUMPDEST LT ISZERO PUSH2 0x50F JUMPI PUSH1 0x40 MLOAD PUSH32 0x8C379A000000000000000000000000000000000000000000000000000000000 DUP2 MSTORE PUSH1 0x4 ADD PUSH2 0x506 SWAP1 PUSH2 0x28C9 JUMP JUMPDEST PUSH1 0x40 MLOAD DUP1 SWAP2 SUB SWAP1 REVERT JUMPDEST PUSH0 PUSH1 0x4 SLOAD GT ISZERO PUSH2 0x5C3 JUMPI PUSH1 0xB PUSH0 DUP2 SLOAD DUP2 LT PUSH2 0x52D JUMPI PUSH2 0x52C PUSH2 0x28E7 JUMP JUMPDEST JUMPDEST SWAP1 PUSH0 MSTORE PUSH1 0x20 PUSH0 KECCAK256 ADD PUSH0 SWAP1 SLOAD SWAP1 PUSH2 0x100 EXP SWAP1 DIV PUSH20 0xFFFFFFFFFFFFFFFFFFFFFFFFFFFFFFFFFFFFFFFF AND PUSH20 0xFFFFFFFFFFFFFFFFFFFFFFFFFFFFFFFFFFFFFFFF AND CALLER PUSH20 0xFFFFFFFFFFFFFFFFFFFFFFFFFFFFFFFFFFFFFFFF AND SUB PUSH2 0x5C2 JUMPI PUSH1 0x40 MLOAD PUSH32 0x8C379A000000000000000000000000000000000000000000000000000000000 DUP2 MSTORE PUSH1 0x4 ADD PUSH2 0x5B9 SWAP1 PUSH2 0x295E JUMP JUMPDEST PUSH1 0x40 MLOAD DUP1 SWAP2 SUB SWAP1 REVERT JUMPDEST JUMPDEST PUSH1 0xB CALLER SWAP1 DUP1 PUSH1 0x1 DUP2 SLOAD ADD DUP1 DUP3 SSTORE DUP1 SWAP2 POP POP PUSH1 0x1 SWAP1 SUB SWAP1 PUSH0 MSTORE PUSH1 0x20 PUSH0 KECCAK256 ADD PUSH0 SWAP1 SWAP2 SWAP1 SWAP2 SWAP1 SWAP2 PUSH2 0x100 EXP DUP2 SLOAD DUP2 PUSH20 0xFFFFFFFFFFFFFFFFFFFFFFFFFFFFFFFFFFFFFFFF MUL NOT AND SWAP1 DUP4 PUSH20 0xFFFFFFFFFFFFFFFFFFFFFFFFFFFFFFFFFFFFFFFF AND MUL OR SWAP1 SSTORE POP PUSH1 0x5 PUSH1 0x6 PUSH0 CALLER PUSH20 0xFFFFFFFFFFFFFFFFFFFFFFFFFFFFFFFFFFFFFFFF AND PUSH20 0xFFFFFFFFFFFFFFFFFFFFFFFFFFFFFFFFFFFFFFFF AND DUP2 MSTORE PUSH1 0x20 ADD SWAP1 DUP2 MSTORE PUSH1 0x20 ADD PUSH0 KECCAK256 DUP2 SWAP1 SSTORE POP PUSH0 PUSH1 0x7 PUSH0 CALLER PUSH20 0xFFFFFFFFFFFFFFFFFFFFFFFFFFFFFFFFFFFFFFFF AND PUSH20 0xFFFFFFFFFFFFFFFFFFFFFFFFFFFFFFFFFFFFFFFF AND DUP2 MSTORE PUSH1 0x20 ADD SWAP1 DUP2 MSTORE PUSH1 0x20 ADD PUSH0 KECCAK256 PUSH0 PUSH2 0x100 EXP DUP2 SLOAD DUP2 PUSH1 0xFF MUL NOT AND SWAP1 DUP4 ISZERO ISZERO MUL OR SWAP1 SSTORE POP PUSH1 0x4 PUSH0 DUP2 SLOAD DUP1 SWAP3 SWAP2 SWAP1 PUSH2 0x6CC SWAP1 PUSH2 0x29A9 JUMP JUMPDEST SWAP2 SWAP1 POP SSTORE POP PUSH1 0xC SLOAD PUSH1 0x5 PUSH0 DUP3 DUP3 SLOAD PUSH2 0x6E4 SWAP2 SWAP1 PUSH2 0x29F0 JUMP JUMPDEST SWAP3 POP POP DUP2 SWAP1 SSTORE POP PUSH32 0xC1DE8E9993C058A253C96414B4215583B25FA35E1B6E0FACF4D5A0DC2A6F3F8 CALLER PUSH1 0x4 SLOAD PUSH1 0x40 MLOAD PUSH2 0x71E SWAP3 SWAP2 SWAP1 PUSH2 0x2A23 JUMP JUMPDEST PUSH1 0x40 MLOAD DUP1 SWAP2 SUB SWAP1 LOG1 PUSH2 0x72E PUSH2 0x1591 JUMP JUMPDEST JUMP JUMPDEST PUSH0 DUP2 PUSH1 0x40 MLOAD PUSH1 0x20 ADD PUSH2 0x742 SWAP2 SWAP1 PUSH2 0x2A6A JUMP JUMPDEST PUSH1 0x40 MLOAD PUSH1 0x20 DUP2 DUP4 SUB SUB DUP2 MSTORE SWAP1 PUSH1 0x40 MSTORE DUP1 MLOAD SWAP1 PUSH1 0x20 ADD KECCAK256 SWAP1 POP SWAP2 SWAP1 POP JUMP JUMPDEST PUSH1 0x7 PUSH1 0x20 MSTORE DUP1 PUSH0 MSTORE PUSH1 0x40 PUSH0 KECCAK256 PUSH0 SWAP2 POP SLOAD SWAP1 PUSH2 0x100 EXP SWAP1 DIV PUSH1 0xFF AND DUP2 JUMP JUMPDEST PUSH1 0xC SLOAD DUP2 JUMP JUMPDEST PUSH1 0x1 PUSH1 0x4 SLOAD LT ISZERO PUSH2 0x791 JUMPI PUSH0 DUP1 REVERT JUMPDEST PUSH1 0xA SLOAD PUSH2 0x79C PUSH2 0x1315 JUMP JUMPDEST GT PUSH2 0x7DC JUMPI PUSH1 0x40 MLOAD PUSH32 0x8C379A000000000000000000000000000000000000000000000000000000000 DUP2 MSTORE PUSH1 0x4 ADD PUSH2 0x7D3 SWAP1 PUSH2 0x2AF4 JUMP JUMPDEST PUSH1 0x40 MLOAD DUP1 SWAP2 SUB SWAP1 REVERT JUMPDEST PUSH1 0x5 SLOAD SELFBALANCE LT ISZERO PUSH2 0x821 JUMPI PUSH1 0x40 MLOAD PUSH32 0x8C379A000000000000000000000000000000000000000000000000000000000 DUP2 MSTORE PUSH1 0x4 ADD PUSH2 0x818 SWAP1 PUSH2 0x2B82 JUMP JUMPDEST PUSH1 0x40 MLOAD DUP1 SWAP2 SUB SWAP1 REVERT JUMPDEST PUSH0 PUSH1 0xB PUSH0 DUP2 SLOAD DUP2 LT PUSH2 0x836 JUMPI PUSH2 0x835 PUSH2 0x28E7 JUMP JUMPDEST JUMPDEST SWAP1 PUSH0 MSTORE PUSH1 0x20 PUSH0 KECCAK256 ADD PUSH0 SWAP1 SLOAD SWAP1 PUSH2 0x100 EXP SWAP1 DIV PUSH20 0xFFFFFFFFFFFFFFFFFFFFFFFFFFFFFFFFFFFFFFFF AND SWAP1 POP PUSH1 0x1 PUSH1 0x4 SLOAD SUB PUSH2 0x951 JUMPI PUSH1 0x3 PUSH0 SWAP1 SLOAD SWAP1 PUSH2 0x100 EXP SWAP1 DIV PUSH20 0xFFFFFFFFFFFFFFFFFFFFFFFFFFFFFFFFFFFFFFFF AND PUSH20 0xFFFFFFFFFFFFFFFFFFFFFFFFFFFFFFFFFFFFFFFF AND PUSH4 0xA9059CBB PUSH1 0xB PUSH0 DUP2 SLOAD DUP2 LT PUSH2 0x8BB JUMPI PUSH2 0x8BA PUSH2 0x28E7 JUMP JUMPDEST JUMPDEST SWAP1 PUSH0 MSTORE PUSH1 0x20 PUSH0 KECCAK256 ADD PUSH0 SWAP1 SLOAD SWAP1 PUSH2 0x100 EXP SWAP1 DIV PUSH20 0xFFFFFFFFFFFFFFFFFFFFFFFFFFFFFFFFFFFFFFFF AND PUSH1 0x5 SLOAD PUSH1 0x40 MLOAD DUP4 PUSH4 0xFFFFFFFF AND PUSH1 0xE0 SHL DUP2 MSTORE PUSH1 0x4 ADD PUSH2 0x903 SWAP3 SWAP2 SWAP1 PUSH2 0x2A23 JUMP JUMPDEST PUSH1 0x20 PUSH1 0x40 MLOAD DUP1 DUP4 SUB DUP2 PUSH0 DUP8 GAS CALL ISZERO DUP1 ISZERO PUSH2 0x91F JUMPI RETURNDATASIZE PUSH0 DUP1 RETURNDATACOPY RETURNDATASIZE PUSH0 REVERT JUMPDEST POP POP POP POP PUSH1 0x40 MLOAD RETURNDATASIZE PUSH1 0x1F NOT PUSH1 0x1F DUP3 ADD AND DUP3 ADD DUP1 PUSH1 0x40 MSTORE POP DUP2 ADD SWAP1 PUSH2 0x943 SWAP2 SWAP1 PUSH2 0x2BCA JUMP JUMPDEST POP PUSH2 0x94C PUSH2 0x159A JUMP JUMPDEST PUSH2 0x1055 JUMP JUMPDEST PUSH1 0x2 PUSH1 0x4 SLOAD SUB PUSH2 0x1054 JUMPI PUSH0 PUSH1 0x8 SLOAD EQ DUP1 PUSH2 0x97A JUMPI POP PUSH1 0x2 PUSH1 0x8 SLOAD EQ DUP1 ISZERO PUSH2 0x979 JUMPI POP PUSH0 PUSH1 0x9 SLOAD EQ JUMPDEST JUMPDEST ISZERO PUSH2 0xB59 JUMPI PUSH1 0x3 PUSH0 SWAP1 SLOAD SWAP1 PUSH2 0x100 EXP SWAP1 DIV PUSH20 0xFFFFFFFFFFFFFFFFFFFFFFFFFFFFFFFFFFFFFFFF AND PUSH20 0xFFFFFFFFFFFFFFFFFFFFFFFFFFFFFFFFFFFFFFFF AND PUSH4 0xA9059CBB PUSH1 0xB PUSH0 DUP2 SLOAD DUP2 LT PUSH2 0x9D0 JUMPI PUSH2 0x9CF PUSH2 0x28E7 JUMP JUMPDEST JUMPDEST SWAP1 PUSH0 MSTORE PUSH1 0x20 PUSH0 KECCAK256 ADD PUSH0 SWAP1 SLOAD SWAP1 PUSH2 0x100 EXP SWAP1 DIV PUSH20 0xFFFFFFFFFFFFFFFFFFFFFFFFFFFFFFFFFFFFFFFF AND PUSH1 0x2 PUSH1 0x5 SLOAD PUSH2 0xA07 SWAP2 SWAP1 PUSH2 0x2C22 JUMP JUMPDEST PUSH1 0x40 MLOAD DUP4 PUSH4 0xFFFFFFFF AND PUSH1 0xE0 SHL DUP2 MSTORE PUSH1 0x4 ADD PUSH2 0xA24 SWAP3 SWAP2 SWAP1 PUSH2 0x2A23 JUMP JUMPDEST PUSH1 0x20 PUSH1 0x40 MLOAD DUP1 DUP4 SUB DUP2 PUSH0 DUP8 GAS CALL ISZERO DUP1 ISZERO PUSH2 0xA40 JUMPI RETURNDATASIZE PUSH0 DUP1 RETURNDATACOPY RETURNDATASIZE PUSH0 REVERT JUMPDEST POP POP POP POP PUSH1 0x40 MLOAD RETURNDATASIZE PUSH1 0x1F NOT PUSH1 0x1F DUP3 ADD AND DUP3 ADD DUP1 PUSH1 0x40 MSTORE POP DUP2 ADD SWAP1 PUSH2 0xA64 SWAP2 SWAP1 PUSH2 0x2BCA JUMP JUMPDEST POP PUSH1 0x3 PUSH0 SWAP1 SLOAD SWAP1 PUSH2 0x100 EXP SWAP1 DIV PUSH20 0xFFFFFFFFFFFFFFFFFFFFFFFFFFFFFFFFFFFFFFFF AND PUSH20 0xFFFFFFFFFFFFFFFFFFFFFFFFFFFFFFFFFFFFFFFF AND PUSH4 0xA9059CBB PUSH1 0xB PUSH1 0x1 DUP2 SLOAD DUP2 LT PUSH2 0xAB7 JUMPI PUSH2 0xAB6 PUSH2 0x28E7 JUMP JUMPDEST JUMPDEST SWAP1 PUSH0 MSTORE PUSH1 0x20 PUSH0 KECCAK256 ADD PUSH0 SWAP1 SLOAD SWAP1 PUSH2 0x100 EXP SWAP1 DIV PUSH20 0xFFFFFFFFFFFFFFFFFFFFFFFFFFFFFFFFFFFFFFFF AND PUSH1 0x2 PUSH1 0x5 SLOAD PUSH2 0xAEE SWAP2 SWAP1 PUSH2 0x2C22 JUMP JUMPDEST PUSH1 0x40 MLOAD DUP4 PUSH4 0xFFFFFFFF AND PUSH1 0xE0 SHL DUP2 MSTORE PUSH1 0x4 ADD PUSH2 0xB0B SWAP3 SWAP2 SWAP1 PUSH2 0x2A23 JUMP JUMPDEST PUSH1 0x20 PUSH1 0x40 MLOAD DUP1 DUP4 SUB DUP2 PUSH0 DUP8 GAS CALL ISZERO DUP1 ISZERO PUSH2 0xB27 JUMPI RETURNDATASIZE PUSH0 DUP1 RETURNDATACOPY RETURNDATASIZE PUSH0 REVERT JUMPDEST POP POP POP POP PUSH1 0x40 MLOAD RETURNDATASIZE PUSH1 0x1F NOT PUSH1 0x1F DUP3 ADD AND DUP3 ADD DUP1 PUSH1 0x40 MSTORE POP DUP2 ADD SWAP1 PUSH2 0xB4B SWAP2 SWAP1 PUSH2 0x2BCA JUMP JUMPDEST POP PUSH2 0xB54 PUSH2 0x159A JUMP JUMPDEST PUSH2 0x1053 JUMP JUMPDEST PUSH1 0x1 PUSH1 0x8 SLOAD SUB PUSH2 0xD80 JUMPI PUSH1 0x1 ISZERO ISZERO PUSH1 0x7 PUSH0 DUP4 PUSH20 0xFFFFFFFFFFFFFFFFFFFFFFFFFFFFFFFFFFFFFFFF AND PUSH20 0xFFFFFFFFFFFFFFFFFFFFFFFFFFFFFFFFFFFFFFFF AND DUP2 MSTORE PUSH1 0x20 ADD SWAP1 DUP2 MSTORE PUSH1 0x20 ADD PUSH0 KECCAK256 PUSH0 SWAP1 SLOAD SWAP1 PUSH2 0x100 EXP SWAP1 DIV PUSH1 0xFF AND ISZERO ISZERO SUB PUSH2 0xC97 JUMPI PUSH1 0x3 PUSH0 SWAP1 SLOAD SWAP1 PUSH2 0x100 EXP SWAP1 DIV PUSH20 0xFFFFFFFFFFFFFFFFFFFFFFFFFFFFFFFFFFFFFFFF AND PUSH20 0xFFFFFFFFFFFFFFFFFFFFFFFFFFFFFFFFFFFFFFFF AND PUSH4 0xA9059CBB PUSH1 0xB PUSH0 DUP2 SLOAD DUP2 LT PUSH2 0xC09 JUMPI PUSH2 0xC08 PUSH2 0x28E7 JUMP JUMPDEST JUMPDEST SWAP1 PUSH0 MSTORE PUSH1 0x20 PUSH0 KECCAK256 ADD PUSH0 SWAP1 SLOAD SWAP1 PUSH2 0x100 EXP SWAP1 DIV PUSH20 0xFFFFFFFFFFFFFFFFFFFFFFFFFFFFFFFFFFFFFFFF AND PUSH1 0x5 SLOAD PUSH1 0x40 MLOAD DUP4 PUSH4 0xFFFFFFFF AND PUSH1 0xE0 SHL DUP2 MSTORE PUSH1 0x4 ADD PUSH2 0xC51 SWAP3 SWAP2 SWAP1 PUSH2 0x2A23 JUMP JUMPDEST PUSH1 0x20 PUSH1 0x40 MLOAD DUP1 DUP4 SUB DUP2 PUSH0 DUP8 GAS CALL ISZERO DUP1 ISZERO PUSH2 0xC6D JUMPI RETURNDATASIZE PUSH0 DUP1 RETURNDATACOPY RETURNDATASIZE PUSH0 REVERT JUMPDEST POP POP POP POP PUSH1 0x40 MLOAD RETURNDATASIZE PUSH1 0x1F NOT PUSH1 0x1F DUP3 ADD AND DUP3 ADD DUP1 PUSH1 0x40 MSTORE POP DUP2 ADD SWAP1 PUSH2 0xC91 SWAP2 SWAP1 PUSH2 0x2BCA JUMP JUMPDEST POP PUSH2 0xD73 JUMP JUMPDEST PUSH1 0x3 PUSH0 SWAP1 SLOAD SWAP1 PUSH2 0x100 EXP SWAP1 DIV PUSH20 0xFFFFFFFFFFFFFFFFFFFFFFFFFFFFFFFFFFFFFFFF AND PUSH20 0xFFFFFFFFFFFFFFFFFFFFFFFFFFFFFFFFFFFFFFFF AND PUSH4 0xA9059CBB PUSH1 0xB PUSH1 0x1 DUP2 SLOAD DUP2 LT PUSH2 0xCE9 JUMPI PUSH2 0xCE8 PUSH2 0x28E7 JUMP JUMPDEST JUMPDEST SWAP1 PUSH0 MSTORE PUSH1 0x20 PUSH0 KECCAK256 ADD PUSH0 SWAP1 SLOAD SWAP1 PUSH2 0x100 EXP SWAP1 DIV PUSH20 0xFFFFFFFFFFFFFFFFFFFFFFFFFFFFFFFFFFFFFFFF AND PUSH1 0x5 SLOAD PUSH1 0x40 MLOAD DUP4 PUSH4 0xFFFFFFFF AND PUSH1 0xE0 SHL DUP2 MSTORE PUSH1 0x4 ADD PUSH2 0xD31 SWAP3 SWAP2 SWAP1 PUSH2 0x2A23 JUMP JUMPDEST PUSH1 0x20 PUSH1 0x40 MLOAD DUP1 DUP4 SUB DUP2 PUSH0 DUP8 GAS CALL ISZERO DUP1 ISZERO PUSH2 0xD4D JUMPI RETURNDATASIZE PUSH0 DUP1 RETURNDATACOPY RETURNDATASIZE PUSH0 REVERT JUMPDEST POP POP POP POP PUSH1 0x40 MLOAD RETURNDATASIZE PUSH1 0x1F NOT PUSH1 0x1F DUP3 ADD AND DUP3 ADD DUP1 PUSH1 0x40 MSTORE POP DUP2 ADD SWAP1 PUSH2 0xD71 SWAP2 SWAP1 PUSH2 0x2BCA JUMP JUMPDEST POP JUMPDEST PUSH2 0xD7B PUSH2 0x159A JUMP JUMPDEST PUSH2 0x1052 JUMP JUMPDEST PUSH1 0x2 PUSH1 0x8 SLOAD EQ DUP1 ISZERO PUSH2 0xD94 JUMPI POP PUSH1 0x1 PUSH1 0x9 SLOAD EQ JUMPDEST ISZERO PUSH2 0xFA6 JUMPI PUSH1 0x5 PUSH1 0x6 PUSH0 DUP4 PUSH20 0xFFFFFFFFFFFFFFFFFFFFFFFFFFFFFFFFFFFFFFFF AND PUSH20 0xFFFFFFFFFFFFFFFFFFFFFFFFFFFFFFFFFFFFFFFF AND DUP2 MSTORE PUSH1 0x20 ADD SWAP1 DUP2 MSTORE PUSH1 0x20 ADD PUSH0 KECCAK256 SLOAD EQ PUSH2 0xEBD JUMPI PUSH1 0x3 PUSH0 SWAP1 SLOAD SWAP1 PUSH2 0x100 EXP SWAP1 DIV PUSH20 0xFFFFFFFFFFFFFFFFFFFFFFFFFFFFFFFFFFFFFFFF AND PUSH20 0xFFFFFFFFFFFFFFFFFFFFFFFFFFFFFFFFFFFFFFFF AND PUSH4 0xA9059CBB PUSH1 0xB PUSH0 DUP2 SLOAD DUP2 LT PUSH2 0xE2F JUMPI PUSH2 0xE2E PUSH2 0x28E7 JUMP JUMPDEST JUMPDEST SWAP1 PUSH0 MSTORE PUSH1 0x20 PUSH0 KECCAK256 ADD PUSH0 SWAP1 SLOAD SWAP1 PUSH2 0x100 EXP SWAP1 DIV PUSH20 0xFFFFFFFFFFFFFFFFFFFFFFFFFFFFFFFFFFFFFFFF AND PUSH1 0x5 SLOAD PUSH1 0x40 MLOAD DUP4 PUSH4 0xFFFFFFFF AND PUSH1 0xE0 SHL DUP2 MSTORE PUSH1 0x4 ADD PUSH2 0xE77 SWAP3 SWAP2 SWAP1 PUSH2 0x2A23 JUMP JUMPDEST PUSH1 0x20 PUSH1 0x40 MLOAD DUP1 DUP4 SUB DUP2 PUSH0 DUP8 GAS CALL ISZERO DUP1 ISZERO PUSH2 0xE93 JUMPI RETURNDATASIZE PUSH0 DUP1 RETURNDATACOPY RETURNDATASIZE PUSH0 REVERT JUMPDEST POP POP POP POP PUSH1 0x40 MLOAD RETURNDATASIZE PUSH1 0x1F NOT PUSH1 0x1F DUP3 ADD AND DUP3 ADD DUP1 PUSH1 0x40 MSTORE POP DUP2 ADD SWAP1 PUSH2 0xEB7 SWAP2 SWAP1 PUSH2 0x2BCA JUMP JUMPDEST POP PUSH2 0xF99 JUMP JUMPDEST PUSH1 0x3 PUSH0 SWAP1 SLOAD SWAP1 PUSH2 0x100 EXP SWAP1 DIV PUSH20 0xFFFFFFFFFFFFFFFFFFFFFFFFFFFFFFFFFFFFFFFF AND PUSH20 0xFFFFFFFFFFFFFFFFFFFFFFFFFFFFFFFFFFFFFFFF AND PUSH4 0xA9059CBB PUSH1 0xB PUSH1 0x1 DUP2 SLOAD DUP2 LT PUSH2 0xF0F JUMPI PUSH2 0xF0E PUSH2 0x28E7 JUMP JUMPDEST JUMPDEST SWAP1 PUSH0 MSTORE PUSH1 0x20 PUSH0 KECCAK256 ADD PUSH0 SWAP1 SLOAD SWAP1 PUSH2 0x100 EXP SWAP1 DIV PUSH20 0xFFFFFFFFFFFFFFFFFFFFFFFFFFFFFFFFFFFFFFFF AND PUSH1 0x5 SLOAD PUSH1 0x40 MLOAD DUP4 PUSH4 0xFFFFFFFF AND PUSH1 0xE0 SHL DUP2 MSTORE PUSH1 0x4 ADD PUSH2 0xF57 SWAP3 SWAP2 SWAP1 PUSH2 0x2A23 JUMP JUMPDEST PUSH1 0x20 PUSH1 0x40 MLOAD DUP1 DUP4 SUB DUP2 PUSH0 DUP8 GAS CALL ISZERO DUP1 ISZERO PUSH2 0xF73 JUMPI RETURNDATASIZE PUSH0 DUP1 RETURNDATACOPY RETURNDATASIZE PUSH0 REVERT JUMPDEST POP POP POP POP PUSH1 0x40 MLOAD RETURNDATASIZE PUSH1 0x1F NOT PUSH1 0x1F DUP3 ADD AND DUP3 ADD DUP1 PUSH1 0x40 MSTORE POP DUP2 ADD SWAP1 PUSH2 0xF97 SWAP2 SWAP1 PUSH2 0x2BCA JUMP JUMPDEST POP JUMPDEST PUSH2 0xFA1 PUSH2 0x159A JUMP JUMPDEST PUSH2 0x1051 JUMP JUMPDEST PUSH1 0x2 PUSH1 0x9 SLOAD SUB PUSH2 0x1050 JUMPI PUSH1 0x3 PUSH0 SWAP1 SLOAD SWAP1 PUSH2 0x100 EXP SWAP1 DIV PUSH20 0xFFFFFFFFFFFFFFFFFFFFFFFFFFFFFFFFFFFFFFFF AND PUSH20 0xFFFFFFFFFFFFFFFFFFFFFFFFFFFFFFFFFFFFFFFF AND PUSH4 0xA9059CBB CALLER PUSH1 0x5 SLOAD PUSH1 0x40 MLOAD DUP4 PUSH4 0xFFFFFFFF AND PUSH1 0xE0 SHL DUP2 MSTORE PUSH1 0x4 ADD PUSH2 0x100E SWAP3 SWAP2 SWAP1 PUSH2 0x2A23 JUMP JUMPDEST PUSH1 0x20 PUSH1 0x40 MLOAD DUP1 DUP4 SUB DUP2 PUSH0 DUP8 GAS CALL ISZERO DUP1 ISZERO PUSH2 0x102A JUMPI RETURNDATASIZE PUSH0 DUP1 RETURNDATACOPY RETURNDATASIZE PUSH0 REVERT JUMPDEST POP POP POP POP PUSH1 0x40 MLOAD RETURNDATASIZE PUSH1 0x1F NOT PUSH1 0x1F DUP3 ADD AND DUP3 ADD DUP1 PUSH1 0x40 MSTORE POP DUP2 ADD SWAP1 PUSH2 0x104E SWAP2 SWAP1 PUSH2 0x2BCA JUMP JUMPDEST POP JUMPDEST JUMPDEST JUMPDEST JUMPDEST JUMPDEST JUMPDEST POP JUMP JUMPDEST PUSH1 0x2 PUSH1 0x4 SLOAD EQ PUSH2 0x1066 JUMPI PUSH0 DUP1 REVERT JUMPDEST PUSH1 0x2 PUSH1 0x8 SLOAD EQ PUSH2 0x1074 JUMPI PUSH0 DUP1 REVERT JUMPDEST PUSH1 0x7 PUSH0 CALLER PUSH20 0xFFFFFFFFFFFFFFFFFFFFFFFFFFFFFFFFFFFFFFFF AND PUSH20 0xFFFFFFFFFFFFFFFFFFFFFFFFFFFFFFFFFFFFFFFF AND DUP2 MSTORE PUSH1 0x20 ADD SWAP1 DUP2 MSTORE PUSH1 0x20 ADD PUSH0 KECCAK256 PUSH0 SWAP1 SLOAD SWAP1 PUSH2 0x100 EXP SWAP1 DIV PUSH1 0xFF AND PUSH2 0x10FD JUMPI PUSH1 0x40 MLOAD PUSH32 0x8C379A000000000000000000000000000000000000000000000000000000000 DUP2 MSTORE PUSH1 0x4 ADD PUSH2 0x10F4 SWAP1 PUSH2 0x2C9C JUMP JUMPDEST PUSH1 0x40 MLOAD DUP1 SWAP2 SUB SWAP1 REVERT JUMPDEST PUSH0 DUP2 PUSH1 0x1F PUSH1 0x20 DUP2 LT PUSH2 0x1112 JUMPI PUSH2 0x1111 PUSH2 0x28E7 JUMP JUMPDEST JUMPDEST BYTE PUSH1 0xF8 SHL PUSH1 0xF8 SHR PUSH1 0xFF AND SWAP1 POP PUSH0 DUP2 LT ISZERO DUP1 ISZERO PUSH2 0x112F JUMPI POP PUSH1 0x4 DUP2 GT ISZERO JUMPDEST PUSH2 0x116E JUMPI PUSH1 0x40 MLOAD PUSH32 0x8C379A000000000000000000000000000000000000000000000000000000000 DUP2 MSTORE PUSH1 0x4 ADD PUSH2 0x1165 SWAP1 PUSH2 0x2D04 JUMP JUMPDEST PUSH1 0x40 MLOAD DUP1 SWAP2 SUB SWAP1 REVERT JUMPDEST PUSH2 0x1177 DUP3 PUSH2 0x15C5 JUMP JUMPDEST DUP1 PUSH1 0x6 PUSH0 CALLER PUSH20 0xFFFFFFFFFFFFFFFFFFFFFFFFFFFFFFFFFFFFFFFF AND PUSH20 0xFFFFFFFFFFFFFFFFFFFFFFFFFFFFFFFFFFFFFFFF AND DUP2 MSTORE PUSH1 0x20 ADD SWAP1 DUP2 MSTORE PUSH1 0x20 ADD PUSH0 KECCAK256 DUP2 SWAP1 SSTORE POP PUSH1 0x9 PUSH0 DUP2 SLOAD DUP1 SWAP3 SWAP2 SWAP1 PUSH2 0x11CB SWAP1 PUSH2 0x29A9 JUMP JUMPDEST SWAP2 SWAP1 POP SSTORE POP PUSH2 0x11D8 PUSH2 0x1591 JUMP JUMPDEST PUSH1 0x2 PUSH1 0x9 SLOAD SUB PUSH2 0x11F3 JUMPI PUSH2 0x11EA PUSH2 0x1983 JUMP JUMPDEST PUSH2 0x11F2 PUSH2 0x159A JUMP JUMPDEST JUMPDEST POP POP JUMP JUMPDEST PUSH0 DUP1 SLOAD SWAP1 PUSH2 0x100 EXP SWAP1 DIV PUSH1 0xFF AND DUP2 JUMP JUMPDEST PUSH1 0x2 SLOAD DUP2 JUMP JUMPDEST PUSH1 0x1 PUSH1 0x20 MSTORE DUP1 PUSH0 MSTORE PUSH1 0x40 PUSH0 KECCAK256 PUSH0 SWAP2 POP SWAP1 POP DUP1 PUSH0 ADD SLOAD SWAP1 DUP1 PUSH1 0x1 ADD PUSH0 SWAP1 SLOAD SWAP1 PUSH2 0x100 EXP SWAP1 DIV PUSH8 0xFFFFFFFFFFFFFFFF AND SWAP1 DUP1 PUSH1 0x1 ADD PUSH1 0x8 SWAP1 SLOAD SWAP1 PUSH2 0x100 EXP SWAP1 DIV PUSH1 0xFF AND SWAP1 POP DUP4 JUMP JUMPDEST PUSH1 0xA SLOAD DUP2 JUMP JUMPDEST PUSH1 0x4 SLOAD DUP2 JUMP JUMPDEST PUSH0 PUSH1 0x3 PUSH0 SWAP1 SLOAD SWAP1 PUSH2 0x100 EXP SWAP1 DIV PUSH20 0xFFFFFFFFFFFFFFFFFFFFFFFFFFFFFFFFFFFFFFFF AND PUSH20 0xFFFFFFFFFFFFFFFFFFFFFFFFFFFFFFFFFFFFFFFF AND PUSH4 0xDD62ED3E CALLER CALLER PUSH1 0x40 MLOAD DUP4 PUSH4 0xFFFFFFFF AND PUSH1 0xE0 SHL DUP2 MSTORE PUSH1 0x4 ADD PUSH2 0x12BC SWAP3 SWAP2 SWAP1 PUSH2 0x27F3 JUMP JUMPDEST PUSH1 0x20 PUSH1 0x40 MLOAD DUP1 DUP4 SUB DUP2 DUP7 GAS STATICCALL ISZERO DUP1 ISZERO PUSH2 0x12D7 JUMPI RETURNDATASIZE PUSH0 DUP1 RETURNDATACOPY RETURNDATASIZE PUSH0 REVERT JUMPDEST POP POP POP POP PUSH1 0x40 MLOAD RETURNDATASIZE PUSH1 0x1F NOT PUSH1 0x1F DUP3 ADD AND DUP3 ADD DUP1 PUSH1 0x40 MSTORE POP DUP2 ADD SWAP1 PUSH2 0x12FB SWAP2 SWAP1 PUSH2 0x282E JUMP JUMPDEST SWAP1 POP SWAP1 JUMP JUMPDEST PUSH1 0x6 PUSH1 0x20 MSTORE DUP1 PUSH0 MSTORE PUSH1 0x40 PUSH0 KECCAK256 PUSH0 SWAP2 POP SWAP1 POP SLOAD DUP2 JUMP JUMPDEST PUSH0 PUSH1 0x2 SLOAD TIMESTAMP PUSH2 0x1324 SWAP2 SWAP1 PUSH2 0x2D22 JUMP JUMPDEST SWAP1 POP SWAP1 JUMP JUMPDEST PUSH1 0x9 SLOAD DUP2 JUMP JUMPDEST PUSH1 0x2 PUSH1 0x4 SLOAD EQ PUSH2 0x1374 JUMPI PUSH1 0x40 MLOAD PUSH32 0x8C379A000000000000000000000000000000000000000000000000000000000 DUP2 MSTORE PUSH1 0x4 ADD PUSH2 0x136B SWAP1 PUSH2 0x2D9F JUMP JUMPDEST PUSH1 0x40 MLOAD DUP1 SWAP2 SUB SWAP1 REVERT JUMPDEST PUSH1 0x2 PUSH1 0x8 SLOAD LT PUSH2 0x13B9 JUMPI PUSH1 0x40 MLOAD PUSH32 0x8C379A000000000000000000000000000000000000000000000000000000000 DUP2 MSTORE PUSH1 0x4 ADD PUSH2 0x13B0 SWAP1 PUSH2 0x2E07 JUMP JUMPDEST PUSH1 0x40 MLOAD DUP1 SWAP2 SUB SWAP1 REVERT JUMPDEST PUSH1 0x7 PUSH0 CALLER PUSH20 0xFFFFFFFFFFFFFFFFFFFFFFFFFFFFFFFFFFFFFFFF AND PUSH20 0xFFFFFFFFFFFFFFFFFFFFFFFFFFFFFFFFFFFFFFFF AND DUP2 MSTORE PUSH1 0x20 ADD SWAP1 DUP2 MSTORE PUSH1 0x20 ADD PUSH0 KECCAK256 PUSH0 SWAP1 SLOAD SWAP1 PUSH2 0x100 EXP SWAP1 DIV PUSH1 0xFF AND ISZERO PUSH2 0x1443 JUMPI PUSH1 0x40 MLOAD PUSH32 0x8C379A000000000000000000000000000000000000000000000000000000000 DUP2 MSTORE PUSH1 0x4 ADD PUSH2 0x143A SWAP1 PUSH2 0x2E6F JUMP JUMPDEST PUSH1 0x40 MLOAD DUP1 SWAP2 SUB SWAP1 REVERT JUMPDEST PUSH1 0x1 PUSH1 0x7 PUSH0 CALLER PUSH20 0xFFFFFFFFFFFFFFFFFFFFFFFFFFFFFFFFFFFFFFFF AND PUSH20 0xFFFFFFFFFFFFFFFFFFFFFFFFFFFFFFFFFFFFFFFF AND DUP2 MSTORE PUSH1 0x20 ADD SWAP1 DUP2 MSTORE PUSH1 0x20 ADD PUSH0 KECCAK256 PUSH0 PUSH2 0x100 EXP DUP2 SLOAD DUP2 PUSH1 0xFF MUL NOT AND SWAP1 DUP4 ISZERO ISZERO MUL OR SWAP1 SSTORE POP PUSH2 0x14A1 DUP2 PUSH2 0x1DF4 JUMP JUMPDEST PUSH1 0x8 PUSH0 DUP2 SLOAD DUP1 SWAP3 SWAP2 SWAP1 PUSH2 0x14B3 SWAP1 PUSH2 0x29A9 JUMP JUMPDEST SWAP2 SWAP1 POP SSTORE POP PUSH1 0x2 PUSH1 0x8 SLOAD SUB PUSH2 0x14CB JUMPI PUSH2 0x14CA PUSH2 0x1FC6 JUMP JUMPDEST JUMPDEST PUSH32 0xA8FB792D8BB1782EBA00886B053364D6972FA987197717655665C13D3696EA9E CALLER PUSH1 0x8 SLOAD PUSH1 0x40 MLOAD PUSH2 0x14FE SWAP3 SWAP2 SWAP1 PUSH2 0x2A23 JUMP JUMPDEST PUSH1 0x40 MLOAD DUP1 SWAP2 SUB SWAP1 LOG1 PUSH2 0x150E PUSH2 0x1591 JUMP JUMPDEST POP JUMP JUMPDEST PUSH0 PUSH1 0x3C PUSH1 0x2 SLOAD TIMESTAMP PUSH2 0x1522 SWAP2 SWAP1 PUSH2 0x2D22 JUMP JUMPDEST PUSH2 0x152C SWAP2 SWAP1 PUSH2 0x2C22 JUMP JUMPDEST SWAP1 POP SWAP1 JUMP JUMPDEST PUSH1 0xB DUP2 DUP2 SLOAD DUP2 LT PUSH2 0x1540 JUMPI PUSH0 DUP1 REVERT JUMPDEST SWAP1 PUSH0 MSTORE PUSH1 0x20 PUSH0 KECCAK256 ADD PUSH0 SWAP2 POP SLOAD SWAP1 PUSH2 0x100 EXP SWAP1 DIV PUSH20 0xFFFFFFFFFFFFFFFFFFFFFFFFFFFFFFFFFFFFFFFF AND DUP2 JUMP JUMPDEST PUSH1 0x3 PUSH0 SWAP1 SLOAD SWAP1 PUSH2 0x100 EXP SWAP1 DIV PUSH20 0xFFFFFFFFFFFFFFFFFFFFFFFFFFFFFFFFFFFFFFFF AND DUP2 JUMP JUMPDEST TIMESTAMP PUSH1 0x2 DUP2 SWAP1 SSTORE POP JUMP JUMPDEST PUSH1 0xB PUSH0 PUSH2 0x15A7 SWAP2 SWAP1 PUSH2 0x2453 JUMP JUMPDEST PUSH0 PUSH1 0x4 DUP2 SWAP1 SSTORE POP PUSH0 PUSH1 0x8 DUP2 SWAP1 SSTORE POP PUSH0 PUSH1 0x9 DUP2 SWAP1 SSTORE POP PUSH0 PUSH1 0x5 DUP2 SWAP1 SSTORE POP JUMP JUMPDEST PUSH0 ISZERO ISZERO PUSH1 0x1 PUSH0 CALLER PUSH20 0xFFFFFFFFFFFFFFFFFFFFFFFFFFFFFFFFFFFFFFFF AND PUSH20 0xFFFFFFFFFFFFFFFFFFFFFFFFFFFFFFFFFFFFFFFF AND DUP2 MSTORE PUSH1 0x20 ADD SWAP1 DUP2 MSTORE PUSH1 0x20 ADD PUSH0 KECCAK256 PUSH1 0x1 ADD PUSH1 0x8 SWAP1 SLOAD SWAP1 PUSH2 0x100 EXP SWAP1 DIV PUSH1 0xFF AND ISZERO ISZERO EQ PUSH2 0x1658 JUMPI PUSH1 0x40 MLOAD PUSH32 0x8C379A000000000000000000000000000000000000000000000000000000000 DUP2 MSTORE PUSH1 0x4 ADD PUSH2 0x164F SWAP1 PUSH2 0x2EFD JUMP JUMPDEST PUSH1 0x40 MLOAD DUP1 SWAP2 SUB SWAP1 REVERT JUMPDEST PUSH1 0x1 DUP1 PUSH0 CALLER PUSH20 0xFFFFFFFFFFFFFFFFFFFFFFFFFFFFFFFFFFFFFFFF AND PUSH20 0xFFFFFFFFFFFFFFFFFFFFFFFFFFFFFFFFFFFFFFFF AND DUP2 MSTORE PUSH1 0x20 ADD SWAP1 DUP2 MSTORE PUSH1 0x20 ADD PUSH0 KECCAK256 PUSH1 0x1 ADD PUSH1 0x8 PUSH2 0x100 EXP DUP2 SLOAD DUP2 PUSH1 0xFF MUL NOT AND SWAP1 DUP4 ISZERO ISZERO MUL OR SWAP1 SSTORE POP PUSH1 0x1 PUSH0 CALLER PUSH20 0xFFFFFFFFFFFFFFFFFFFFFFFFFFFFFFFFFFFFFFFF AND PUSH20 0xFFFFFFFFFFFFFFFFFFFFFFFFFFFFFFFFFFFFFFFF AND DUP2 MSTORE PUSH1 0x20 ADD SWAP1 DUP2 MSTORE PUSH1 0x20 ADD PUSH0 KECCAK256 PUSH0 ADD SLOAD PUSH2 0x16F9 DUP3 PUSH2 0x730 JUMP JUMPDEST EQ PUSH2 0x1739 JUMPI PUSH1 0x40 MLOAD PUSH32 0x8C379A000000000000000000000000000000000000000000000000000000000 DUP2 MSTORE PUSH1 0x4 ADD PUSH2 0x1730 SWAP1 PUSH2 0x2F8B JUMP JUMPDEST PUSH1 0x40 MLOAD DUP1 SWAP2 SUB SWAP1 REVERT JUMPDEST PUSH1 0x1 PUSH0 CALLER PUSH20 0xFFFFFFFFFFFFFFFFFFFFFFFFFFFFFFFFFFFFFFFF AND PUSH20 0xFFFFFFFFFFFFFFFFFFFFFFFFFFFFFFFFFFFFFFFF AND DUP2 MSTORE PUSH1 0x20 ADD SWAP1 DUP2 MSTORE PUSH1 0x20 ADD PUSH0 KECCAK256 PUSH1 0x1 ADD PUSH0 SWAP1 SLOAD SWAP1 PUSH2 0x100 EXP SWAP1 DIV PUSH8 0xFFFFFFFFFFFFFFFF AND PUSH8 0xFFFFFFFFFFFFFFFF AND NUMBER PUSH8 0xFFFFFFFFFFFFFFFF AND GT PUSH2 0x17E2 JUMPI PUSH1 0x40 MLOAD PUSH32 0x8C379A000000000000000000000000000000000000000000000000000000000 DUP2 MSTORE PUSH1 0x4 ADD PUSH2 0x17D9 SWAP1 PUSH2 0x303F JUMP JUMPDEST PUSH1 0x40 MLOAD DUP1 SWAP2 SUB SWAP1 REVERT JUMPDEST PUSH1 0xFA PUSH1 0x1 PUSH0 CALLER PUSH20 0xFFFFFFFFFFFFFFFFFFFFFFFFFFFFFFFFFFFFFFFF AND PUSH20 0xFFFFFFFFFFFFFFFFFFFFFFFFFFFFFFFFFFFFFFFF AND DUP2 MSTORE PUSH1 0x20 ADD SWAP1 DUP2 MSTORE PUSH1 0x20 ADD PUSH0 KECCAK256 PUSH1 0x1 ADD PUSH0 SWAP1 SLOAD SWAP1 PUSH2 0x100 EXP SWAP1 DIV PUSH8 0xFFFFFFFFFFFFFFFF AND PUSH2 0x1842 SWAP2 SWAP1 PUSH2 0x305D JUMP JUMPDEST PUSH8 0xFFFFFFFFFFFFFFFF AND NUMBER PUSH8 0xFFFFFFFFFFFFFFFF AND GT ISZERO PUSH2 0x1898 JUMPI PUSH1 0x40 MLOAD PUSH32 0x8C379A000000000000000000000000000000000000000000000000000000000 DUP2 MSTORE PUSH1 0x4 ADD PUSH2 0x188F SWAP1 PUSH2 0x3108 JUMP JUMPDEST PUSH1 0x40 MLOAD DUP1 SWAP2 SUB SWAP1 REVERT JUMPDEST PUSH0 PUSH1 0x1 PUSH0 CALLER PUSH20 0xFFFFFFFFFFFFFFFFFFFFFFFFFFFFFFFFFFFFFFFF AND PUSH20 0xFFFFFFFFFFFFFFFFFFFFFFFFFFFFFFFFFFFFFFFF AND DUP2 MSTORE PUSH1 0x20 ADD SWAP1 DUP2 MSTORE PUSH1 0x20 ADD PUSH0 KECCAK256 PUSH1 0x1 ADD PUSH0 SWAP1 SLOAD SWAP1 PUSH2 0x100 EXP SWAP1 DIV PUSH8 0xFFFFFFFFFFFFFFFF AND PUSH8 0xFFFFFFFFFFFFFFFF AND BLOCKHASH SWAP1 POP PUSH0 DUP1 PUSH0 SWAP1 SLOAD SWAP1 PUSH2 0x100 EXP SWAP1 DIV PUSH1 0xFF AND PUSH1 0xFF AND DUP3 DUP5 PUSH1 0x40 MLOAD PUSH1 0x20 ADD PUSH2 0x191F SWAP3 SWAP2 SWAP1 PUSH2 0x3126 JUMP JUMPDEST PUSH1 0x40 MLOAD PUSH1 0x20 DUP2 DUP4 SUB SUB DUP2 MSTORE SWAP1 PUSH1 0x40 MSTORE DUP1 MLOAD SWAP1 PUSH1 0x20 ADD KECCAK256 PUSH0 SHR PUSH2 0x1941 SWAP2 SWAP1 PUSH2 0x3151 JUMP JUMPDEST SWAP1 POP PUSH32 0xBC016DD1CADEAEFCB851AF7A0A93532E0023D536894B730801F7BCFE7065BCC2 CALLER DUP5 DUP4 PUSH1 0x40 MLOAD PUSH2 0x1976 SWAP4 SWAP3 SWAP2 SWAP1 PUSH2 0x3181 JUMP JUMPDEST PUSH1 0x40 MLOAD DUP1 SWAP2 SUB SWAP1 LOG1 POP POP POP JUMP JUMPDEST PUSH0 PUSH1 0x6 PUSH0 PUSH1 0xB PUSH0 DUP2 SLOAD DUP2 LT PUSH2 0x199B JUMPI PUSH2 0x199A PUSH2 0x28E7 JUMP JUMPDEST JUMPDEST SWAP1 PUSH0 MSTORE PUSH1 0x20 PUSH0 KECCAK256 ADD PUSH0 SWAP1 SLOAD SWAP1 PUSH2 0x100 EXP SWAP1 DIV PUSH20 0xFFFFFFFFFFFFFFFFFFFFFFFFFFFFFFFFFFFFFFFF AND PUSH20 0xFFFFFFFFFFFFFFFFFFFFFFFFFFFFFFFFFFFFFFFF AND PUSH20 0xFFFFFFFFFFFFFFFFFFFFFFFFFFFFFFFFFFFFFFFF AND DUP2 MSTORE PUSH1 0x20 ADD SWAP1 DUP2 MSTORE PUSH1 0x20 ADD PUSH0 KECCAK256 SLOAD SWAP1 POP PUSH0 PUSH1 0x6 PUSH0 PUSH1 0xB PUSH1 0x1 DUP2 SLOAD DUP2 LT PUSH2 0x1A18 JUMPI PUSH2 0x1A17 PUSH2 0x28E7 JUMP JUMPDEST JUMPDEST SWAP1 PUSH0 MSTORE PUSH1 0x20 PUSH0 KECCAK256 ADD PUSH0 SWAP1 SLOAD SWAP1 PUSH2 0x100 EXP SWAP1 DIV PUSH20 0xFFFFFFFFFFFFFFFFFFFFFFFFFFFFFFFFFFFFFFFF AND PUSH20 0xFFFFFFFFFFFFFFFFFFFFFFFFFFFFFFFFFFFFFFFF AND PUSH20 0xFFFFFFFFFFFFFFFFFFFFFFFFFFFFFFFFFFFFFFFF AND DUP2 MSTORE PUSH1 0x20 ADD SWAP1 DUP2 MSTORE PUSH1 0x20 ADD PUSH0 KECCAK256 SLOAD SWAP1 POP PUSH0 DUP2 DUP4 SUB PUSH2 0x1C56 JUMPI PUSH1 0x3 PUSH0 SWAP1 SLOAD SWAP1 PUSH2 0x100 EXP SWAP1 DIV PUSH20 0xFFFFFFFFFFFFFFFFFFFFFFFFFFFFFFFFFFFFFFFF AND PUSH20 0xFFFFFFFFFFFFFFFFFFFFFFFFFFFFFFFFFFFFFFFF AND PUSH4 0xA9059CBB PUSH1 0xB PUSH0 DUP2 SLOAD DUP2 LT PUSH2 0x1AD5 JUMPI PUSH2 0x1AD4 PUSH2 0x28E7 JUMP JUMPDEST JUMPDEST SWAP1 PUSH0 MSTORE PUSH1 0x20 PUSH0 KECCAK256 ADD PUSH0 SWAP1 SLOAD SWAP1 PUSH2 0x100 EXP SWAP1 DIV PUSH20 0xFFFFFFFFFFFFFFFFFFFFFFFFFFFFFFFFFFFFFFFF AND PUSH1 0x2 PUSH1 0x5 SLOAD PUSH2 0x1B0C SWAP2 SWAP1 PUSH2 0x2C22 JUMP JUMPDEST PUSH1 0x40 MLOAD DUP4 PUSH4 0xFFFFFFFF AND PUSH1 0xE0 SHL DUP2 MSTORE PUSH1 0x4 ADD PUSH2 0x1B29 SWAP3 SWAP2 SWAP1 PUSH2 0x2A23 JUMP JUMPDEST PUSH1 0x20 PUSH1 0x40 MLOAD DUP1 DUP4 SUB DUP2 PUSH0 DUP8 GAS CALL ISZERO DUP1 ISZERO PUSH2 0x1B45 JUMPI RETURNDATASIZE PUSH0 DUP1 RETURNDATACOPY RETURNDATASIZE PUSH0 REVERT JUMPDEST POP POP POP POP PUSH1 0x40 MLOAD RETURNDATASIZE PUSH1 0x1F NOT PUSH1 0x1F DUP3 ADD AND DUP3 ADD DUP1 PUSH1 0x40 MSTORE POP DUP2 ADD SWAP1 PUSH2 0x1B69 SWAP2 SWAP1 PUSH2 0x2BCA JUMP JUMPDEST POP PUSH1 0x3 PUSH0 SWAP1 SLOAD SWAP1 PUSH2 0x100 EXP SWAP1 DIV PUSH20 0xFFFFFFFFFFFFFFFFFFFFFFFFFFFFFFFFFFFFFFFF AND PUSH20 0xFFFFFFFFFFFFFFFFFFFFFFFFFFFFFFFFFFFFFFFF AND PUSH4 0xA9059CBB PUSH1 0xB PUSH1 0x1 DUP2 SLOAD DUP2 LT PUSH2 0x1BBC JUMPI PUSH2 0x1BBB PUSH2 0x28E7 JUMP JUMPDEST JUMPDEST SWAP1 PUSH0 MSTORE PUSH1 0x20 PUSH0 KECCAK256 ADD PUSH0 SWAP1 SLOAD SWAP1 PUSH2 0x100 EXP SWAP1 DIV PUSH20 0xFFFFFFFFFFFFFFFFFFFFFFFFFFFFFFFFFFFFFFFF AND PUSH1 0x2 PUSH1 0x5 SLOAD PUSH2 0x1BF3 SWAP2 SWAP1 PUSH2 0x2C22 JUMP JUMPDEST PUSH1 0x40 MLOAD DUP4 PUSH4 0xFFFFFFFF AND PUSH1 0xE0 SHL DUP2 MSTORE PUSH1 0x4 ADD PUSH2 0x1C10 SWAP3 SWAP2 SWAP1 PUSH2 0x2A23 JUMP JUMPDEST PUSH1 0x20 PUSH1 0x40 MLOAD DUP1 DUP4 SUB DUP2 PUSH0 DUP8 GAS CALL ISZERO DUP1 ISZERO PUSH2 0x1C2C JUMPI RETURNDATASIZE PUSH0 DUP1 RETURNDATACOPY RETURNDATASIZE PUSH0 REVERT JUMPDEST POP POP POP POP PUSH1 0x40 MLOAD RETURNDATASIZE PUSH1 0x1F NOT PUSH1 0x1F DUP3 ADD AND DUP3 ADD DUP1 PUSH1 0x40 MSTORE POP DUP2 ADD SWAP1 PUSH2 0x1C50 SWAP2 SWAP1 PUSH2 0x2BCA JUMP JUMPDEST POP PUSH2 0x1D1C JUMP JUMPDEST DUP2 PUSH1 0x5 PUSH1 0x1 DUP6 PUSH2 0x1C66 SWAP2 SWAP1 PUSH2 0x29F0 JUMP JUMPDEST PUSH2 0x1C70 SWAP2 SWAP1 PUSH2 0x3151 JUMP JUMPDEST EQ DUP1 PUSH2 0x1C93 JUMPI POP DUP2 PUSH1 0x5 PUSH1 0x3 DUP6 PUSH2 0x1C87 SWAP2 SWAP1 PUSH2 0x29F0 JUMP JUMPDEST PUSH2 0x1C91 SWAP2 SWAP1 PUSH2 0x3151 JUMP JUMPDEST EQ JUMPDEST ISZERO PUSH2 0x1CDC JUMPI PUSH1 0xB PUSH1 0x1 DUP2 SLOAD DUP2 LT PUSH2 0x1CAD JUMPI PUSH2 0x1CAC PUSH2 0x28E7 JUMP JUMPDEST JUMPDEST SWAP1 PUSH0 MSTORE PUSH1 0x20 PUSH0 KECCAK256 ADD PUSH0 SWAP1 SLOAD SWAP1 PUSH2 0x100 EXP SWAP1 DIV PUSH20 0xFFFFFFFFFFFFFFFFFFFFFFFFFFFFFFFFFFFFFFFF AND SWAP1 POP PUSH2 0x1D1B JUMP JUMPDEST PUSH1 0xB PUSH0 DUP2 SLOAD DUP2 LT PUSH2 0x1CF0 JUMPI PUSH2 0x1CEF PUSH2 0x28E7 JUMP JUMPDEST JUMPDEST SWAP1 PUSH0 MSTORE PUSH1 0x20 PUSH0 KECCAK256 ADD PUSH0 SWAP1 SLOAD SWAP1 PUSH2 0x100 EXP SWAP1 DIV PUSH20 0xFFFFFFFFFFFFFFFFFFFFFFFFFFFFFFFFFFFFFFFF AND SWAP1 POP JUMPDEST JUMPDEST PUSH0 PUSH20 0xFFFFFFFFFFFFFFFFFFFFFFFFFFFFFFFFFFFFFFFF AND DUP2 PUSH20 0xFFFFFFFFFFFFFFFFFFFFFFFFFFFFFFFFFFFFFFFF AND EQ PUSH2 0x1DEF JUMPI PUSH1 0x3 PUSH0 SWAP1 SLOAD SWAP1 PUSH2 0x100 EXP SWAP1 DIV PUSH20 0xFFFFFFFFFFFFFFFFFFFFFFFFFFFFFFFFFFFFFFFF AND PUSH20 0xFFFFFFFFFFFFFFFFFFFFFFFFFFFFFFFFFFFFFFFF AND PUSH4 0xA9059CBB DUP3 PUSH1 0x5 SLOAD PUSH1 0x40 MLOAD DUP4 PUSH4 0xFFFFFFFF AND PUSH1 0xE0 SHL DUP2 MSTORE PUSH1 0x4 ADD PUSH2 0x1DAD SWAP3 SWAP2 SWAP1 PUSH2 0x2A23 JUMP JUMPDEST PUSH1 0x20 PUSH1 0x40 MLOAD DUP1 DUP4 SUB DUP2 PUSH0 DUP8 GAS CALL ISZERO DUP1 ISZERO PUSH2 0x1DC9 JUMPI RETURNDATASIZE PUSH0 DUP1 RETURNDATACOPY RETURNDATASIZE PUSH0 REVERT JUMPDEST POP POP POP POP PUSH1 0x40 MLOAD RETURNDATASIZE PUSH1 0x1F NOT PUSH1 0x1F DUP3 ADD AND DUP3 ADD DUP1 PUSH1 0x40 MSTORE POP DUP2 ADD SWAP1 PUSH2 0x1DED SWAP2 SWAP1 PUSH2 0x2BCA JUMP JUMPDEST POP JUMPDEST POP POP POP JUMP JUMPDEST DUP1 PUSH1 0x1 PUSH0 CALLER PUSH20 0xFFFFFFFFFFFFFFFFFFFFFFFFFFFFFFFFFFFFFFFF AND PUSH20 0xFFFFFFFFFFFFFFFFFFFFFFFFFFFFFFFFFFFFFFFF AND DUP2 MSTORE PUSH1 0x20 ADD SWAP1 DUP2 MSTORE PUSH1 0x20 ADD PUSH0 KECCAK256 PUSH0 ADD DUP2 SWAP1 SSTORE POP NUMBER PUSH1 0x1 PUSH0 CALLER PUSH20 0xFFFFFFFFFFFFFFFFFFFFFFFFFFFFFFFFFFFFFFFF AND PUSH20 0xFFFFFFFFFFFFFFFFFFFFFFFFFFFFFFFFFFFFFFFF AND DUP2 MSTORE PUSH1 0x20 ADD SWAP1 DUP2 MSTORE PUSH1 0x20 ADD PUSH0 KECCAK256 PUSH1 0x1 ADD PUSH0 PUSH2 0x100 EXP DUP2 SLOAD DUP2 PUSH8 0xFFFFFFFFFFFFFFFF MUL NOT AND SWAP1 DUP4 PUSH8 0xFFFFFFFFFFFFFFFF AND MUL OR SWAP1 SSTORE POP PUSH0 PUSH1 0x1 PUSH0 CALLER PUSH20 0xFFFFFFFFFFFFFFFFFFFFFFFFFFFFFFFFFFFFFFFF AND PUSH20 0xFFFFFFFFFFFFFFFFFFFFFFFFFFFFFFFFFFFFFFFF AND DUP2 MSTORE PUSH1 0x20 ADD SWAP1 DUP2 MSTORE PUSH1 0x20 ADD PUSH0 KECCAK256 PUSH1 0x1 ADD PUSH1 0x8 PUSH2 0x100 EXP DUP2 SLOAD DUP2 PUSH1 0xFF MUL NOT AND SWAP1 DUP4 ISZERO ISZERO MUL OR SWAP1 SSTORE POP PUSH32 0x3C1A1F8F38335B17F751C6DA4BA7D1865F26B3997535176F5080DE9FAD891603 CALLER PUSH1 0x1 PUSH0 CALLER PUSH20 0xFFFFFFFFFFFFFFFFFFFFFFFFFFFFFFFFFFFFFFFF AND PUSH20 0xFFFFFFFFFFFFFFFFFFFFFFFFFFFFFFFFFFFFFFFF AND DUP2 MSTORE PUSH1 0x20 ADD SWAP1 DUP2 MSTORE PUSH1 0x20 ADD PUSH0 KECCAK256 PUSH0 ADD SLOAD PUSH1 0x1 PUSH0 CALLER PUSH20 0xFFFFFFFFFFFFFFFFFFFFFFFFFFFFFFFFFFFFFFFF AND PUSH20 0xFFFFFFFFFFFFFFFFFFFFFFFFFFFFFFFFFFFFFFFF AND DUP2 MSTORE PUSH1 0x20 ADD SWAP1 DUP2 MSTORE PUSH1 0x20 ADD PUSH0 KECCAK256 PUSH1 0x1 ADD PUSH0 SWAP1 SLOAD SWAP1 PUSH2 0x100 EXP SWAP1 DIV PUSH8 0xFFFFFFFFFFFFFFFF AND PUSH1 0x40 MLOAD PUSH2 0x1FBB SWAP4 SWAP3 SWAP2 SWAP1 PUSH2 0x31B6 JUMP JUMPDEST PUSH1 0x40 MLOAD DUP1 SWAP2 SUB SWAP1 LOG1 POP JUMP JUMPDEST PUSH1 0xC SLOAD PUSH1 0x3 PUSH0 SWAP1 SLOAD SWAP1 PUSH2 0x100 EXP SWAP1 DIV PUSH20 0xFFFFFFFFFFFFFFFFFFFFFFFFFFFFFFFFFFFFFFFF AND PUSH20 0xFFFFFFFFFFFFFFFFFFFFFFFFFFFFFFFFFFFFFFFF AND PUSH4 0xDD62ED3E PUSH1 0xB PUSH0 DUP2 SLOAD DUP2 LT PUSH2 0x201A JUMPI PUSH2 0x2019 PUSH2 0x28E7 JUMP JUMPDEST JUMPDEST SWAP1 PUSH0 MSTORE PUSH1 0x20 PUSH0 KECCAK256 ADD PUSH0 SWAP1 SLOAD SWAP1 PUSH2 0x100 EXP SWAP1 DIV PUSH20 0xFFFFFFFFFFFFFFFFFFFFFFFFFFFFFFFFFFFFFFFF AND PUSH1 0xB PUSH0 DUP2 SLOAD DUP2 LT PUSH2 0x2056 JUMPI PUSH2 0x2055 PUSH2 0x28E7 JUMP JUMPDEST JUMPDEST SWAP1 PUSH0 MSTORE PUSH1 0x20 PUSH0 KECCAK256 ADD PUSH0 SWAP1 SLOAD SWAP1 PUSH2 0x100 EXP SWAP1 DIV PUSH20 0xFFFFFFFFFFFFFFFFFFFFFFFFFFFFFFFFFFFFFFFF AND PUSH1 0x40 MLOAD DUP4 PUSH4 0xFFFFFFFF AND PUSH1 0xE0 SHL DUP2 MSTORE PUSH1 0x4 ADD PUSH2 0x209B SWAP3 SWAP2 SWAP1 PUSH2 0x27F3 JUMP JUMPDEST PUSH1 0x20 PUSH1 0x40 MLOAD DUP1 DUP4 SUB DUP2 DUP7 GAS STATICCALL ISZERO DUP1 ISZERO PUSH2 0x20B6 JUMPI RETURNDATASIZE PUSH0 DUP1 RETURNDATACOPY RETURNDATASIZE PUSH0 REVERT JUMPDEST POP POP POP POP PUSH1 0x40 MLOAD RETURNDATASIZE PUSH1 0x1F NOT PUSH1 0x1F DUP3 ADD AND DUP3 ADD DUP1 PUSH1 0x40 MSTORE POP DUP2 ADD SWAP1 PUSH2 0x20DA SWAP2 SWAP1 PUSH2 0x282E JUMP JUMPDEST LT ISZERO PUSH2 0x211B JUMPI PUSH1 0x40 MLOAD PUSH32 0x8C379A000000000000000000000000000000000000000000000000000000000 DUP2 MSTORE PUSH1 0x4 ADD PUSH2 0x2112 SWAP1 PUSH2 0x325B JUMP JUMPDEST PUSH1 0x40 MLOAD DUP1 SWAP2 SUB SWAP1 REVERT JUMPDEST PUSH1 0xC SLOAD PUSH1 0x3 PUSH0 SWAP1 SLOAD SWAP1 PUSH2 0x100 EXP SWAP1 DIV PUSH20 0xFFFFFFFFFFFFFFFFFFFFFFFFFFFFFFFFFFFFFFFF AND PUSH20 0xFFFFFFFFFFFFFFFFFFFFFFFFFFFFFFFFFFFFFFFF AND PUSH4 0xDD62ED3E PUSH1 0xB PUSH1 0x1 DUP2 SLOAD DUP2 LT PUSH2 0x2170 JUMPI PUSH2 0x216F PUSH2 0x28E7 JUMP JUMPDEST JUMPDEST SWAP1 PUSH0 MSTORE PUSH1 0x20 PUSH0 KECCAK256 ADD PUSH0 SWAP1 SLOAD SWAP1 PUSH2 0x100 EXP SWAP1 DIV PUSH20 0xFFFFFFFFFFFFFFFFFFFFFFFFFFFFFFFFFFFFFFFF AND PUSH1 0xB PUSH1 0x1 DUP2 SLOAD DUP2 LT PUSH2 0x21AD JUMPI PUSH2 0x21AC PUSH2 0x28E7 JUMP JUMPDEST JUMPDEST SWAP1 PUSH0 MSTORE PUSH1 0x20 PUSH0 KECCAK256 ADD PUSH0 SWAP1 SLOAD SWAP1 PUSH2 0x100 EXP SWAP1 DIV PUSH20 0xFFFFFFFFFFFFFFFFFFFFFFFFFFFFFFFFFFFFFFFF AND PUSH1 0x40 MLOAD DUP4 PUSH4 0xFFFFFFFF AND PUSH1 0xE0 SHL DUP2 MSTORE PUSH1 0x4 ADD PUSH2 0x21F2 SWAP3 SWAP2 SWAP1 PUSH2 0x27F3 JUMP JUMPDEST PUSH1 0x20 PUSH1 0x40 MLOAD DUP1 DUP4 SUB DUP2 DUP7 GAS STATICCALL ISZERO DUP1 ISZERO PUSH2 0x220D JUMPI RETURNDATASIZE PUSH0 DUP1 RETURNDATACOPY RETURNDATASIZE PUSH0 REVERT JUMPDEST POP POP POP POP PUSH1 0x40 MLOAD RETURNDATASIZE PUSH1 0x1F NOT PUSH1 0x1F DUP3 ADD AND DUP3 ADD DUP1 PUSH1 0x40 MSTORE POP DUP2 ADD SWAP1 PUSH2 0x2231 SWAP2 SWAP1 PUSH2 0x282E JUMP JUMPDEST LT ISZERO PUSH2 0x2272 JUMPI PUSH1 0x40 MLOAD PUSH32 0x8C379A000000000000000000000000000000000000000000000000000000000 DUP2 MSTORE PUSH1 0x4 ADD PUSH2 0x2269 SWAP1 PUSH2 0x32E9 JUMP JUMPDEST PUSH1 0x40 MLOAD DUP1 SWAP2 SUB SWAP1 REVERT JUMPDEST PUSH1 0x3 PUSH0 SWAP1 SLOAD SWAP1 PUSH2 0x100 EXP SWAP1 DIV PUSH20 0xFFFFFFFFFFFFFFFFFFFFFFFFFFFFFFFFFFFFFFFF AND PUSH20 0xFFFFFFFFFFFFFFFFFFFFFFFFFFFFFFFFFFFFFFFF AND PUSH4 0x23B872DD ADDRESS PUSH1 0xB PUSH0 DUP2 SLOAD DUP2 LT PUSH2 0x22C4 JUMPI PUSH2 0x22C3 PUSH2 0x28E7 JUMP JUMPDEST JUMPDEST SWAP1 PUSH0 MSTORE PUSH1 0x20 PUSH0 KECCAK256 ADD PUSH0 SWAP1 SLOAD SWAP1 PUSH2 0x100 EXP SWAP1 DIV PUSH20 0xFFFFFFFFFFFFFFFFFFFFFFFFFFFFFFFFFFFFFFFF AND PUSH1 0xC SLOAD PUSH1 0x40 MLOAD DUP5 PUSH4 0xFFFFFFFF AND PUSH1 0xE0 SHL DUP2 MSTORE PUSH1 0x4 ADD PUSH2 0x230D SWAP4 SWAP3 SWAP2 SWAP1 PUSH2 0x3307 JUMP JUMPDEST PUSH1 0x20 PUSH1 0x40 MLOAD DUP1 DUP4 SUB DUP2 PUSH0 DUP8 GAS CALL ISZERO DUP1 ISZERO PUSH2 0x2329 JUMPI RETURNDATASIZE PUSH0 DUP1 RETURNDATACOPY RETURNDATASIZE PUSH0 REVERT JUMPDEST POP POP POP POP PUSH1 0x40 MLOAD RETURNDATASIZE PUSH1 0x1F NOT PUSH1 0x1F DUP3 ADD AND DUP3 ADD DUP1 PUSH1 0x40 MSTORE POP DUP2 ADD SWAP1 PUSH2 0x234D SWAP2 SWAP1 PUSH2 0x2BCA JUMP JUMPDEST POP PUSH1 0x3 PUSH0 SWAP1 SLOAD SWAP1 PUSH2 0x100 EXP SWAP1 DIV PUSH20 0xFFFFFFFFFFFFFFFFFFFFFFFFFFFFFFFFFFFFFFFF AND PUSH20 0xFFFFFFFFFFFFFFFFFFFFFFFFFFFFFFFFFFFFFFFF AND PUSH4 0x23B872DD ADDRESS PUSH1 0xB PUSH1 0x1 DUP2 SLOAD DUP2 LT PUSH2 0x23A1 JUMPI PUSH2 0x23A0 PUSH2 0x28E7 JUMP JUMPDEST JUMPDEST SWAP1 PUSH0 MSTORE PUSH1 0x20 PUSH0 KECCAK256 ADD PUSH0 SWAP1 SLOAD SWAP1 PUSH2 0x100 EXP SWAP1 DIV PUSH20 0xFFFFFFFFFFFFFFFFFFFFFFFFFFFFFFFFFFFFFFFF AND PUSH1 0xC SLOAD PUSH1 0x40 MLOAD DUP5 PUSH4 0xFFFFFFFF AND PUSH1 0xE0 SHL DUP2 MSTORE PUSH1 0x4 ADD PUSH2 0x23EA SWAP4 SWAP3 SWAP2 SWAP1 PUSH2 0x3307 JUMP JUMPDEST PUSH1 0x20 PUSH1 0x40 MLOAD DUP1 DUP4 SUB DUP2 PUSH0 DUP8 GAS CALL ISZERO DUP1 ISZERO PUSH2 0x2406 JUMPI RETURNDATASIZE PUSH0 DUP1 RETURNDATACOPY RETURNDATASIZE PUSH0 REVERT JUMPDEST POP POP POP POP PUSH1 0x40 MLOAD RETURNDATASIZE PUSH1 0x1F NOT PUSH1 0x1F DUP3 ADD AND DUP3 ADD DUP1 PUSH1 0x40 MSTORE POP DUP2 ADD SWAP1 PUSH2 0x242A SWAP2 SWAP1 PUSH2 0x2BCA JUMP JUMPDEST POP PUSH1 0x2 PUSH1 0xC SLOAD PUSH2 0x243A SWAP2 SWAP1 PUSH2 0x333C JUMP JUMPDEST PUSH1 0x5 PUSH0 DUP3 DUP3 SLOAD PUSH2 0x244A SWAP2 SWAP1 PUSH2 0x29F0 JUMP JUMPDEST SWAP3 POP POP DUP2 SWAP1 SSTORE POP JUMP JUMPDEST POP DUP1 SLOAD PUSH0 DUP3 SSTORE SWAP1 PUSH0 MSTORE PUSH1 0x20 PUSH0 KECCAK256 SWAP1 DUP2 ADD SWAP1 PUSH2 0x246E SWAP2 SWAP1 PUSH2 0x2471 JUMP JUMPDEST POP JUMP JUMPDEST JUMPDEST DUP1 DUP3 GT ISZERO PUSH2 0x2488 JUMPI PUSH0 DUP2 PUSH0 SWAP1 SSTORE POP PUSH1 0x1 ADD PUSH2 0x2472 JUMP JUMPDEST POP SWAP1 JUMP JUMPDEST PUSH0 DUP2 SWAP1 POP SWAP2 SWAP1 POP JUMP JUMPDEST PUSH2 0x249E DUP2 PUSH2 0x248C JUMP JUMPDEST DUP3 MSTORE POP POP JUMP JUMPDEST PUSH0 PUSH1 0x20 DUP3 ADD SWAP1 POP PUSH2 0x24B7 PUSH0 DUP4 ADD DUP5 PUSH2 0x2495 JUMP JUMPDEST SWAP3 SWAP2 POP POP JUMP JUMPDEST PUSH0 DUP1 REVERT JUMPDEST PUSH0 DUP2 SWAP1 POP SWAP2 SWAP1 POP JUMP JUMPDEST PUSH2 0x24D3 DUP2 PUSH2 0x24C1 JUMP JUMPDEST DUP2 EQ PUSH2 0x24DD JUMPI PUSH0 DUP1 REVERT JUMPDEST POP JUMP JUMPDEST PUSH0 DUP2 CALLDATALOAD SWAP1 POP PUSH2 0x24EE DUP2 PUSH2 0x24CA JUMP JUMPDEST SWAP3 SWAP2 POP POP JUMP JUMPDEST PUSH0 PUSH1 0x20 DUP3 DUP5 SUB SLT ISZERO PUSH2 0x2509 JUMPI PUSH2 0x2508 PUSH2 0x24BD JUMP JUMPDEST JUMPDEST PUSH0 PUSH2 0x2516 DUP5 DUP3 DUP6 ADD PUSH2 0x24E0 JUMP JUMPDEST SWAP2 POP POP SWAP3 SWAP2 POP POP JUMP JUMPDEST PUSH2 0x2528 DUP2 PUSH2 0x24C1 JUMP JUMPDEST DUP3 MSTORE POP POP JUMP JUMPDEST PUSH0 PUSH1 0x20 DUP3 ADD SWAP1 POP PUSH2 0x2541 PUSH0 DUP4 ADD DUP5 PUSH2 0x251F JUMP JUMPDEST SWAP3 SWAP2 POP POP JUMP JUMPDEST PUSH0 PUSH20 0xFFFFFFFFFFFFFFFFFFFFFFFFFFFFFFFFFFFFFFFF DUP3 AND SWAP1 POP SWAP2 SWAP1 POP JUMP JUMPDEST PUSH0 PUSH2 0x2570 DUP3 PUSH2 0x2547 JUMP JUMPDEST SWAP1 POP SWAP2 SWAP1 POP JUMP JUMPDEST PUSH2 0x2580 DUP2 PUSH2 0x2566 JUMP JUMPDEST DUP2 EQ PUSH2 0x258A JUMPI PUSH0 DUP1 REVERT JUMPDEST POP JUMP JUMPDEST PUSH0 DUP2 CALLDATALOAD SWAP1 POP PUSH2 0x259B DUP2 PUSH2 0x2577 JUMP JUMPDEST SWAP3 SWAP2 POP POP JUMP JUMPDEST PUSH0 PUSH1 0x20 DUP3 DUP5 SUB SLT ISZERO PUSH2 0x25B6 JUMPI PUSH2 0x25B5 PUSH2 0x24BD JUMP JUMPDEST JUMPDEST PUSH0 PUSH2 0x25C3 DUP5 DUP3 DUP6 ADD PUSH2 0x258D JUMP JUMPDEST SWAP2 POP POP SWAP3 SWAP2 POP POP JUMP JUMPDEST PUSH0 DUP2 ISZERO ISZERO SWAP1 POP SWAP2 SWAP1 POP JUMP JUMPDEST PUSH2 0x25E0 DUP2 PUSH2 0x25CC JUMP JUMPDEST DUP3 MSTORE POP POP JUMP JUMPDEST PUSH0 PUSH1 0x20 DUP3 ADD SWAP1 POP PUSH2 0x25F9 PUSH0 DUP4 ADD DUP5 PUSH2 0x25D7 JUMP JUMPDEST SWAP3 SWAP2 POP POP JUMP JUMPDEST PUSH0 PUSH1 0xFF DUP3 AND SWAP1 POP SWAP2 SWAP1 POP JUMP JUMPDEST PUSH2 0x2614 DUP2 PUSH2 0x25FF JUMP JUMPDEST DUP3 MSTORE POP POP JUMP JUMPDEST PUSH0 PUSH1 0x20 DUP3 ADD SWAP1 POP PUSH2 0x262D PUSH0 DUP4 ADD DUP5 PUSH2 0x260B JUMP JUMPDEST SWAP3 SWAP2 POP POP JUMP JUMPDEST PUSH0 PUSH8 0xFFFFFFFFFFFFFFFF DUP3 AND SWAP1 POP SWAP2 SWAP1 POP JUMP JUMPDEST PUSH2 0x264F DUP2 PUSH2 0x2633 JUMP JUMPDEST DUP3 MSTORE POP POP JUMP JUMPDEST PUSH0 PUSH1 0x60 DUP3 ADD SWAP1 POP PUSH2 0x2668 PUSH0 DUP4 ADD DUP7 PUSH2 0x251F JUMP JUMPDEST PUSH2 0x2675 PUSH1 0x20 DUP4 ADD DUP6 PUSH2 0x2646 JUMP JUMPDEST PUSH2 0x2682 PUSH1 0x40 DUP4 ADD DUP5 PUSH2 0x25D7 JUMP JUMPDEST SWAP5 SWAP4 POP POP POP POP JUMP JUMPDEST PUSH2 0x2693 DUP2 PUSH2 0x248C JUMP JUMPDEST DUP2 EQ PUSH2 0x269D JUMPI PUSH0 DUP1 REVERT JUMPDEST POP JUMP JUMPDEST PUSH0 DUP2 CALLDATALOAD SWAP1 POP PUSH2 0x26AE DUP2 PUSH2 0x268A JUMP JUMPDEST SWAP3 SWAP2 POP POP JUMP JUMPDEST PUSH0 PUSH1 0x20 DUP3 DUP5 SUB SLT ISZERO PUSH2 0x26C9 JUMPI PUSH2 0x26C8 PUSH2 0x24BD JUMP JUMPDEST JUMPDEST PUSH0 PUSH2 0x26D6 DUP5 DUP3 DUP6 ADD PUSH2 0x26A0 JUMP JUMPDEST SWAP2 POP POP SWAP3 SWAP2 POP POP JUMP JUMPDEST PUSH2 0x26E8 DUP2 PUSH2 0x2566 JUMP JUMPDEST DUP3 MSTORE POP POP JUMP JUMPDEST PUSH0 PUSH1 0x20 DUP3 ADD SWAP1 POP PUSH2 0x2701 PUSH0 DUP4 ADD DUP5 PUSH2 0x26DF JUMP JUMPDEST SWAP3 SWAP2 POP POP JUMP JUMPDEST PUSH0 DUP2 SWAP1 POP SWAP2 SWAP1 POP JUMP JUMPDEST PUSH0 PUSH2 0x272A PUSH2 0x2725 PUSH2 0x2720 DUP5 PUSH2 0x2547 JUMP JUMPDEST PUSH2 0x2707 JUMP JUMPDEST PUSH2 0x2547 JUMP JUMPDEST SWAP1 POP SWAP2 SWAP1 POP JUMP JUMPDEST PUSH0 PUSH2 0x273B DUP3 PUSH2 0x2710 JUMP JUMPDEST SWAP1 POP SWAP2 SWAP1 POP JUMP JUMPDEST PUSH0 PUSH2 0x274C DUP3 PUSH2 0x2731 JUMP JUMPDEST SWAP1 POP SWAP2 SWAP1 POP JUMP JUMPDEST PUSH2 0x275C DUP2 PUSH2 0x2742 JUMP JUMPDEST DUP3 MSTORE POP POP JUMP JUMPDEST PUSH0 PUSH1 0x20 DUP3 ADD SWAP1 POP PUSH2 0x2775 PUSH0 DUP4 ADD DUP5 PUSH2 0x2753 JUMP JUMPDEST SWAP3 SWAP2 POP POP JUMP JUMPDEST PUSH0 DUP3 DUP3 MSTORE PUSH1 0x20 DUP3 ADD SWAP1 POP SWAP3 SWAP2 POP POP JUMP JUMPDEST PUSH32 0x47616D6520616C726561647920686173203220706C61796572732E0000000000 PUSH0 DUP3 ADD MSTORE POP JUMP JUMPDEST PUSH0 PUSH2 0x27BF PUSH1 0x1B DUP4 PUSH2 0x277B JUMP JUMPDEST SWAP2 POP PUSH2 0x27CA DUP3 PUSH2 0x278B JUMP JUMPDEST PUSH1 0x20 DUP3 ADD SWAP1 POP SWAP2 SWAP1 POP JUMP JUMPDEST PUSH0 PUSH1 0x20 DUP3 ADD SWAP1 POP DUP2 DUP2 SUB PUSH0 DUP4 ADD MSTORE PUSH2 0x27EC DUP2 PUSH2 0x27B3 JUMP JUMPDEST SWAP1 POP SWAP2 SWAP1 POP JUMP JUMPDEST PUSH0 PUSH1 0x40 DUP3 ADD SWAP1 POP PUSH2 0x2806 PUSH0 DUP4 ADD DUP6 PUSH2 0x26DF JUMP JUMPDEST PUSH2 0x2813 PUSH1 0x20 DUP4 ADD DUP5 PUSH2 0x26DF JUMP JUMPDEST SWAP4 SWAP3 POP POP POP JUMP JUMPDEST PUSH0 DUP2 MLOAD SWAP1 POP PUSH2 0x2828 DUP2 PUSH2 0x268A JUMP JUMPDEST SWAP3 SWAP2 POP POP JUMP JUMPDEST PUSH0 PUSH1 0x20 DUP3 DUP5 SUB SLT ISZERO PUSH2 0x2843 JUMPI PUSH2 0x2842 PUSH2 0x24BD JUMP JUMPDEST JUMPDEST PUSH0 PUSH2 0x2850 DUP5 DUP3 DUP6 ADD PUSH2 0x281A JUMP JUMPDEST SWAP2 POP POP SWAP3 SWAP2 POP POP JUMP JUMPDEST PUSH32 0x417070726F766520636F6E747261637420746F2077697468647261772066756E PUSH0 DUP3 ADD MSTORE PUSH32 0x64732E0000000000000000000000000000000000000000000000000000000000 PUSH1 0x20 DUP3 ADD MSTORE POP JUMP JUMPDEST PUSH0 PUSH2 0x28B3 PUSH1 0x23 DUP4 PUSH2 0x277B JUMP JUMPDEST SWAP2 POP PUSH2 0x28BE DUP3 PUSH2 0x2859 JUMP JUMPDEST PUSH1 0x40 DUP3 ADD SWAP1 POP SWAP2 SWAP1 POP JUMP JUMPDEST PUSH0 PUSH1 0x20 DUP3 ADD SWAP1 POP DUP2 DUP2 SUB PUSH0 DUP4 ADD MSTORE PUSH2 0x28E0 DUP2 PUSH2 0x28A7 JUMP JUMPDEST SWAP1 POP SWAP2 SWAP1 POP JUMP JUMPDEST PUSH32 0x4E487B7100000000000000000000000000000000000000000000000000000000 PUSH0 MSTORE PUSH1 0x32 PUSH1 0x4 MSTORE PUSH1 0x24 PUSH0 REVERT JUMPDEST PUSH32 0x596F752061726520616C726561647920696E207468652067616D652E00000000 PUSH0 DUP3 ADD MSTORE POP JUMP JUMPDEST PUSH0 PUSH2 0x2948 PUSH1 0x1C DUP4 PUSH2 0x277B JUMP JUMPDEST SWAP2 POP PUSH2 0x2953 DUP3 PUSH2 0x2914 JUMP JUMPDEST PUSH1 0x20 DUP3 ADD SWAP1 POP SWAP2 SWAP1 POP JUMP JUMPDEST PUSH0 PUSH1 0x20 DUP3 ADD SWAP1 POP DUP2 DUP2 SUB PUSH0 DUP4 ADD MSTORE PUSH2 0x2975 DUP2 PUSH2 0x293C JUMP JUMPDEST SWAP1 POP SWAP2 SWAP1 POP JUMP JUMPDEST PUSH32 0x4E487B7100000000000000000000000000000000000000000000000000000000 PUSH0 MSTORE PUSH1 0x11 PUSH1 0x4 MSTORE PUSH1 0x24 PUSH0 REVERT JUMPDEST PUSH0 PUSH2 0x29B3 DUP3 PUSH2 0x248C JUMP JUMPDEST SWAP2 POP PUSH32 0xFFFFFFFFFFFFFFFFFFFFFFFFFFFFFFFFFFFFFFFFFFFFFFFFFFFFFFFFFFFFFFFF DUP3 SUB PUSH2 0x29E5 JUMPI PUSH2 0x29E4 PUSH2 0x297C JUMP JUMPDEST JUMPDEST PUSH1 0x1 DUP3 ADD SWAP1 POP SWAP2 SWAP1 POP JUMP JUMPDEST PUSH0 PUSH2 0x29FA DUP3 PUSH2 0x248C JUMP JUMPDEST SWAP2 POP PUSH2 0x2A05 DUP4 PUSH2 0x248C JUMP JUMPDEST SWAP3 POP DUP3 DUP3 ADD SWAP1 POP DUP1 DUP3 GT ISZERO PUSH2 0x2A1D JUMPI PUSH2 0x2A1C PUSH2 0x297C JUMP JUMPDEST JUMPDEST SWAP3 SWAP2 POP POP JUMP JUMPDEST PUSH0 PUSH1 0x40 DUP3 ADD SWAP1 POP PUSH2 0x2A36 PUSH0 DUP4 ADD DUP6 PUSH2 0x26DF JUMP JUMPDEST PUSH2 0x2A43 PUSH1 0x20 DUP4 ADD DUP5 PUSH2 0x2495 JUMP JUMPDEST SWAP4 SWAP3 POP POP POP JUMP JUMPDEST PUSH0 DUP2 SWAP1 POP SWAP2 SWAP1 POP JUMP JUMPDEST PUSH2 0x2A64 PUSH2 0x2A5F DUP3 PUSH2 0x24C1 JUMP JUMPDEST PUSH2 0x2A4A JUMP JUMPDEST DUP3 MSTORE POP POP JUMP JUMPDEST PUSH0 PUSH2 0x2A75 DUP3 DUP5 PUSH2 0x2A53 JUMP JUMPDEST PUSH1 0x20 DUP3 ADD SWAP2 POP DUP2 SWAP1 POP SWAP3 SWAP2 POP POP JUMP JUMPDEST PUSH32 0x596F75206E65656420746F20776169742031206D696E75746520666F72207769 PUSH0 DUP3 ADD MSTORE PUSH32 0x7468647261772E00000000000000000000000000000000000000000000000000 PUSH1 0x20 DUP3 ADD MSTORE POP JUMP JUMPDEST PUSH0 PUSH2 0x2ADE PUSH1 0x27 DUP4 PUSH2 0x277B JUMP JUMPDEST SWAP2 POP PUSH2 0x2AE9 DUP3 PUSH2 0x2A84 JUMP JUMPDEST PUSH1 0x40 DUP3 ADD SWAP1 POP SWAP2 SWAP1 POP JUMP JUMPDEST PUSH0 PUSH1 0x20 DUP3 ADD SWAP1 POP DUP2 DUP2 SUB PUSH0 DUP4 ADD MSTORE PUSH2 0x2B0B DUP2 PUSH2 0x2AD2 JUMP JUMPDEST SWAP1 POP SWAP2 SWAP1 POP JUMP JUMPDEST PUSH32 0x436F6E74726163742068617320696E73756666696369656E742062616C616E63 PUSH0 DUP3 ADD MSTORE PUSH32 0x652E000000000000000000000000000000000000000000000000000000000000 PUSH1 0x20 DUP3 ADD MSTORE POP JUMP JUMPDEST PUSH0 PUSH2 0x2B6C PUSH1 0x22 DUP4 PUSH2 0x277B JUMP JUMPDEST SWAP2 POP PUSH2 0x2B77 DUP3 PUSH2 0x2B12 JUMP JUMPDEST PUSH1 0x40 DUP3 ADD SWAP1 POP SWAP2 SWAP1 POP JUMP JUMPDEST PUSH0 PUSH1 0x20 DUP3 ADD SWAP1 POP DUP2 DUP2 SUB PUSH0 DUP4 ADD MSTORE PUSH2 0x2B99 DUP2 PUSH2 0x2B60 JUMP JUMPDEST SWAP1 POP SWAP2 SWAP1 POP JUMP JUMPDEST PUSH2 0x2BA9 DUP2 PUSH2 0x25CC JUMP JUMPDEST DUP2 EQ PUSH2 0x2BB3 JUMPI PUSH0 DUP1 REVERT JUMPDEST POP JUMP JUMPDEST PUSH0 DUP2 MLOAD SWAP1 POP PUSH2 0x2BC4 DUP2 PUSH2 0x2BA0 JUMP JUMPDEST SWAP3 SWAP2 POP POP JUMP JUMPDEST PUSH0 PUSH1 0x20 DUP3 DUP5 SUB SLT ISZERO PUSH2 0x2BDF JUMPI PUSH2 0x2BDE PUSH2 0x24BD JUMP JUMPDEST JUMPDEST PUSH0 PUSH2 0x2BEC DUP5 DUP3 DUP6 ADD PUSH2 0x2BB6 JUMP JUMPDEST SWAP2 POP POP SWAP3 SWAP2 POP POP JUMP JUMPDEST PUSH32 0x4E487B7100000000000000000000000000000000000000000000000000000000 PUSH0 MSTORE PUSH1 0x12 PUSH1 0x4 MSTORE PUSH1 0x24 PUSH0 REVERT JUMPDEST PUSH0 PUSH2 0x2C2C DUP3 PUSH2 0x248C JUMP JUMPDEST SWAP2 POP PUSH2 0x2C37 DUP4 PUSH2 0x248C JUMP JUMPDEST SWAP3 POP DUP3 PUSH2 0x2C47 JUMPI PUSH2 0x2C46 PUSH2 0x2BF5 JUMP JUMPDEST JUMPDEST DUP3 DUP3 DIV SWAP1 POP SWAP3 SWAP2 POP POP JUMP JUMPDEST PUSH32 0x596F75206E65656420746F20636F6D6D69742066697273742E00000000000000 PUSH0 DUP3 ADD MSTORE POP JUMP JUMPDEST PUSH0 PUSH2 0x2C86 PUSH1 0x19 DUP4 PUSH2 0x277B JUMP JUMPDEST SWAP2 POP PUSH2 0x2C91 DUP3 PUSH2 0x2C52 JUMP JUMPDEST PUSH1 0x20 DUP3 ADD SWAP1 POP SWAP2 SWAP1 POP JUMP JUMPDEST PUSH0 PUSH1 0x20 DUP3 ADD SWAP1 POP DUP2 DUP2 SUB PUSH0 DUP4 ADD MSTORE PUSH2 0x2CB3 DUP2 PUSH2 0x2C7A JUMP JUMPDEST SWAP1 POP SWAP2 SWAP1 POP JUMP JUMPDEST PUSH32 0x496E76616C69642063686F6963652E0000000000000000000000000000000000 PUSH0 DUP3 ADD MSTORE POP JUMP JUMPDEST PUSH0 PUSH2 0x2CEE PUSH1 0xF DUP4 PUSH2 0x277B JUMP JUMPDEST SWAP2 POP PUSH2 0x2CF9 DUP3 PUSH2 0x2CBA JUMP JUMPDEST PUSH1 0x20 DUP3 ADD SWAP1 POP SWAP2 SWAP1 POP JUMP JUMPDEST PUSH0 PUSH1 0x20 DUP3 ADD SWAP1 POP DUP2 DUP2 SUB PUSH0 DUP4 ADD MSTORE PUSH2 0x2D1B DUP2 PUSH2 0x2CE2 JUMP JUMPDEST SWAP1 POP SWAP2 SWAP1 POP JUMP JUMPDEST PUSH0 PUSH2 0x2D2C DUP3 PUSH2 0x248C JUMP JUMPDEST SWAP2 POP PUSH2 0x2D37 DUP4 PUSH2 0x248C JUMP JUMPDEST SWAP3 POP DUP3 DUP3 SUB SWAP1 POP DUP2 DUP2 GT ISZERO PUSH2 0x2D4F JUMPI PUSH2 0x2D4E PUSH2 0x297C JUMP JUMPDEST JUMPDEST SWAP3 SWAP2 POP POP JUMP JUMPDEST PUSH32 0x47616D65206E65656473203220706C61796572732E0000000000000000000000 PUSH0 DUP3 ADD MSTORE POP JUMP JUMPDEST PUSH0 PUSH2 0x2D89 PUSH1 0x15 DUP4 PUSH2 0x277B JUMP JUMPDEST SWAP2 POP PUSH2 0x2D94 DUP3 PUSH2 0x2D55 JUMP JUMPDEST PUSH1 0x20 DUP3 ADD SWAP1 POP SWAP2 SWAP1 POP JUMP JUMPDEST PUSH0 PUSH1 0x20 DUP3 ADD SWAP1 POP DUP2 DUP2 SUB PUSH0 DUP4 ADD MSTORE PUSH2 0x2DB6 DUP2 PUSH2 0x2D7D JUMP JUMPDEST SWAP1 POP SWAP2 SWAP1 POP JUMP JUMPDEST PUSH32 0x416C726561647920636F6D6D69747465642E0000000000000000000000000000 PUSH0 DUP3 ADD MSTORE POP JUMP JUMPDEST PUSH0 PUSH2 0x2DF1 PUSH1 0x12 DUP4 PUSH2 0x277B JUMP JUMPDEST SWAP2 POP PUSH2 0x2DFC DUP3 PUSH2 0x2DBD JUMP JUMPDEST PUSH1 0x20 DUP3 ADD SWAP1 POP SWAP2 SWAP1 POP JUMP JUMPDEST PUSH0 PUSH1 0x20 DUP3 ADD SWAP1 POP DUP2 DUP2 SUB PUSH0 DUP4 ADD MSTORE PUSH2 0x2E1E DUP2 PUSH2 0x2DE5 JUMP JUMPDEST SWAP1 POP SWAP2 SWAP1 POP JUMP JUMPDEST PUSH32 0x596F7520616C726561647920636F6D6D69747465642E00000000000000000000 PUSH0 DUP3 ADD MSTORE POP JUMP JUMPDEST PUSH0 PUSH2 0x2E59 PUSH1 0x16 DUP4 PUSH2 0x277B JUMP JUMPDEST SWAP2 POP PUSH2 0x2E64 DUP3 PUSH2 0x2E25 JUMP JUMPDEST PUSH1 0x20 DUP3 ADD SWAP1 POP SWAP2 SWAP1 POP JUMP JUMPDEST PUSH0 PUSH1 0x20 DUP3 ADD SWAP1 POP DUP2 DUP2 SUB PUSH0 DUP4 ADD MSTORE PUSH2 0x2E86 DUP2 PUSH2 0x2E4D JUMP JUMPDEST SWAP1 POP SWAP2 SWAP1 POP JUMP JUMPDEST PUSH32 0x436F6D6D697452657665616C3A3A72657665616C3A20416C7265616479207265 PUSH0 DUP3 ADD MSTORE PUSH32 0x7665616C65640000000000000000000000000000000000000000000000000000 PUSH1 0x20 DUP3 ADD MSTORE POP JUMP JUMPDEST PUSH0 PUSH2 0x2EE7 PUSH1 0x26 DUP4 PUSH2 0x277B JUMP JUMPDEST SWAP2 POP PUSH2 0x2EF2 DUP3 PUSH2 0x2E8D JUMP JUMPDEST PUSH1 0x40 DUP3 ADD SWAP1 POP SWAP2 SWAP1 POP JUMP JUMPDEST PUSH0 PUSH1 0x20 DUP3 ADD SWAP1 POP DUP2 DUP2 SUB PUSH0 DUP4 ADD MSTORE PUSH2 0x2F14 DUP2 PUSH2 0x2EDB JUMP JUMPDEST SWAP1 POP SWAP2 SWAP1 POP JUMP JUMPDEST PUSH32 0x436F6D6D697452657665616C3A3A72657665616C3A2052657665616C65642068 PUSH0 DUP3 ADD MSTORE PUSH32 0x61736820646F6573206E6F74206D6174636820636F6D6D697400000000000000 PUSH1 0x20 DUP3 ADD MSTORE POP JUMP JUMPDEST PUSH0 PUSH2 0x2F75 PUSH1 0x39 DUP4 PUSH2 0x277B JUMP JUMPDEST SWAP2 POP PUSH2 0x2F80 DUP3 PUSH2 0x2F1B JUMP JUMPDEST PUSH1 0x40 DUP3 ADD SWAP1 POP SWAP2 SWAP1 POP JUMP JUMPDEST PUSH0 PUSH1 0x20 DUP3 ADD SWAP1 POP DUP2 DUP2 SUB PUSH0 DUP4 ADD MSTORE PUSH2 0x2FA2 DUP2 PUSH2 0x2F69 JUMP JUMPDEST SWAP1 POP SWAP2 SWAP1 POP JUMP JUMPDEST PUSH32 0x436F6D6D697452657665616C3A3A72657665616C3A2052657665616C20616E64 PUSH0 DUP3 ADD MSTORE PUSH32 0x20636F6D6D69742068617070656E6564206F6E207468652073616D6520626C6F PUSH1 0x20 DUP3 ADD MSTORE PUSH32 0x636B000000000000000000000000000000000000000000000000000000000000 PUSH1 0x40 DUP3 ADD MSTORE POP JUMP JUMPDEST PUSH0 PUSH2 0x3029 PUSH1 0x42 DUP4 PUSH2 0x277B JUMP JUMPDEST SWAP2 POP PUSH2 0x3034 DUP3 PUSH2 0x2FA9 JUMP JUMPDEST PUSH1 0x60 DUP3 ADD SWAP1 POP SWAP2 SWAP1 POP JUMP JUMPDEST PUSH0 PUSH1 0x20 DUP3 ADD SWAP1 POP DUP2 DUP2 SUB PUSH0 DUP4 ADD MSTORE PUSH2 0x3056 DUP2 PUSH2 0x301D JUMP JUMPDEST SWAP1 POP SWAP2 SWAP1 POP JUMP JUMPDEST PUSH0 PUSH2 0x3067 DUP3 PUSH2 0x2633 JUMP JUMPDEST SWAP2 POP PUSH2 0x3072 DUP4 PUSH2 0x2633 JUMP JUMPDEST SWAP3 POP DUP3 DUP3 ADD SWAP1 POP PUSH8 0xFFFFFFFFFFFFFFFF DUP2 GT ISZERO PUSH2 0x3092 JUMPI PUSH2 0x3091 PUSH2 0x297C JUMP JUMPDEST JUMPDEST SWAP3 SWAP2 POP POP JUMP JUMPDEST PUSH32 0x436F6D6D697452657665616C3A3A72657665616C3A2052657665616C65642074 PUSH0 DUP3 ADD MSTORE PUSH32 0x6F6F206C61746500000000000000000000000000000000000000000000000000 PUSH1 0x20 DUP3 ADD MSTORE POP JUMP JUMPDEST PUSH0 PUSH2 0x30F2 PUSH1 0x27 DUP4 PUSH2 0x277B JUMP JUMPDEST SWAP2 POP PUSH2 0x30FD DUP3 PUSH2 0x3098 JUMP JUMPDEST PUSH1 0x40 DUP3 ADD SWAP1 POP SWAP2 SWAP1 POP JUMP JUMPDEST PUSH0 PUSH1 0x20 DUP3 ADD SWAP1 POP DUP2 DUP2 SUB PUSH0 DUP4 ADD MSTORE PUSH2 0x311F DUP2 PUSH2 0x30E6 JUMP JUMPDEST SWAP1 POP SWAP2 SWAP1 POP JUMP JUMPDEST PUSH0 PUSH2 0x3131 DUP3 DUP6 PUSH2 0x2A53 JUMP JUMPDEST PUSH1 0x20 DUP3 ADD SWAP2 POP PUSH2 0x3141 DUP3 DUP5 PUSH2 0x2A53 JUMP JUMPDEST PUSH1 0x20 DUP3 ADD SWAP2 POP DUP2 SWAP1 POP SWAP4 SWAP3 POP POP POP JUMP JUMPDEST PUSH0 PUSH2 0x315B DUP3 PUSH2 0x248C JUMP JUMPDEST SWAP2 POP PUSH2 0x3166 DUP4 PUSH2 0x248C JUMP JUMPDEST SWAP3 POP DUP3 PUSH2 0x3176 JUMPI PUSH2 0x3175 PUSH2 0x2BF5 JUMP JUMPDEST JUMPDEST DUP3 DUP3 MOD SWAP1 POP SWAP3 SWAP2 POP POP JUMP JUMPDEST PUSH0 PUSH1 0x60 DUP3 ADD SWAP1 POP PUSH2 0x3194 PUSH0 DUP4 ADD DUP7 PUSH2 0x26DF JUMP JUMPDEST PUSH2 0x31A1 PUSH1 0x20 DUP4 ADD DUP6 PUSH2 0x251F JUMP JUMPDEST PUSH2 0x31AE PUSH1 0x40 DUP4 ADD DUP5 PUSH2 0x2495 JUMP JUMPDEST SWAP5 SWAP4 POP POP POP POP JUMP JUMPDEST PUSH0 PUSH1 0x60 DUP3 ADD SWAP1 POP PUSH2 0x31C9 PUSH0 DUP4 ADD DUP7 PUSH2 0x26DF JUMP JUMPDEST PUSH2 0x31D6 PUSH1 0x20 DUP4 ADD DUP6 PUSH2 0x251F JUMP JUMPDEST PUSH2 0x31E3 PUSH1 0x40 DUP4 ADD DUP5 PUSH2 0x2646 JUMP JUMPDEST SWAP5 SWAP4 POP POP POP POP JUMP JUMPDEST PUSH32 0x506C61796572203120686173206E6F7420617070726F76656420656E6F756768 PUSH0 DUP3 ADD MSTORE PUSH32 0x2066756E64732E00000000000000000000000000000000000000000000000000 PUSH1 0x20 DUP3 ADD MSTORE POP JUMP JUMPDEST PUSH0 PUSH2 0x3245 PUSH1 0x27 DUP4 PUSH2 0x277B JUMP JUMPDEST SWAP2 POP PUSH2 0x3250 DUP3 PUSH2 0x31EB JUMP JUMPDEST PUSH1 0x40 DUP3 ADD SWAP1 POP SWAP2 SWAP1 POP JUMP JUMPDEST PUSH0 PUSH1 0x20 DUP3 ADD SWAP1 POP DUP2 DUP2 SUB PUSH0 DUP4 ADD MSTORE PUSH2 0x3272 DUP2 PUSH2 0x3239 JUMP JUMPDEST SWAP1 POP SWAP2 SWAP1 POP JUMP JUMPDEST PUSH32 0x506C61796572203220686173206E6F7420617070726F76656420656E6F756768 PUSH0 DUP3 ADD MSTORE PUSH32 0x2066756E64732E00000000000000000000000000000000000000000000000000 PUSH1 0x20 DUP3 ADD MSTORE POP JUMP JUMPDEST PUSH0 PUSH2 0x32D3 PUSH1 0x27 DUP4 PUSH2 0x277B JUMP JUMPDEST SWAP2 POP PUSH2 0x32DE DUP3 PUSH2 0x3279 JUMP JUMPDEST PUSH1 0x40 DUP3 ADD SWAP1 POP SWAP2 SWAP1 POP JUMP JUMPDEST PUSH0 PUSH1 0x20 DUP3 ADD SWAP1 POP DUP2 DUP2 SUB PUSH0 DUP4 ADD MSTORE PUSH2 0x3300 DUP2 PUSH2 0x32C7 JUMP JUMPDEST SWAP1 POP SWAP2 SWAP1 POP JUMP JUMPDEST PUSH0 PUSH1 0x60 DUP3 ADD SWAP1 POP PUSH2 0x331A PUSH0 DUP4 ADD DUP7 PUSH2 0x26DF JUMP JUMPDEST PUSH2 0x3327 PUSH1 0x20 DUP4 ADD DUP6 PUSH2 0x26DF JUMP JUMPDEST PUSH2 0x3334 PUSH1 0x40 DUP4 ADD DUP5 PUSH2 0x2495 JUMP JUMPDEST SWAP5 SWAP4 POP POP POP POP JUMP JUMPDEST PUSH0 PUSH2 0x3346 DUP3 PUSH2 0x248C JUMP JUMPDEST SWAP2 POP PUSH2 0x3351 DUP4 PUSH2 0x248C JUMP JUMPDEST SWAP3 POP DUP3 DUP3 MUL PUSH2 0x335F DUP2 PUSH2 0x248C JUMP JUMPDEST SWAP2 POP DUP3 DUP3 DIV DUP5 EQ DUP4 ISZERO OR PUSH2 0x3376 JUMPI PUSH2 0x3375 PUSH2 0x297C JUMP JUMPDEST JUMPDEST POP SWAP3 SWAP2 POP POP JUMP INVALID LOG2 PUSH5 0x6970667358 0x22 SLT KECCAK256 JUMPI 0xBD SWAP13 SHR 0xC PUSH8 0xF49AD3AD92856B48 POP BYTE EQ 0xF7 0x2D DUP8 SWAP11 0x28 0xB3 EXTCODESIZE 0x25 PUSH3 0x7BB9E5 SDIV SWAP6 EXTCODEHASH PUSH5 0x736F6C6343 STOP ADDMOD BYTE STOP CALLER "
				},
				"gasEstimates": {
					"creation": {
						"codeDepositCost": "2647000",
						"executionCost": "infinite",
						"totalCost": "infinite"
					},
					"external": {
						"addPlayer()": "infinite",
						"checkAllowance()": "infinite",
						"commits(address)": "7393",
						"elapsedMinutes()": "infinite",
						"elapsedSeconds()": "infinite",
						"getHash(bytes32)": "infinite",
						"input(bytes32)": "infinite",
						"isCommit(address)": "2945",
						"max()": "2552",
						"numInput()": "2449",
						"numPlayer()": "2492",
						"numReveal()": "2469",
						"player_choice(address)": "2913",
						"players(uint256)": "5054",
						"requiredAmount()": "2448",
						"revealChoice(bytes32)": "infinite",
						"reward()": "2471",
						"startTime()": "2536",
						"timeOutWithDraw()": "infinite",
						"timeoutDuration()": "2470",
						"token()": "infinite"
					},
					"internal": {
						"_checkWinnerAndPay()": "infinite",
						"_collectFunds()": "infinite",
						"_reset()": "infinite"
					}
				},
				"methodIdentifiers": {
					"addPlayer()": "27b5db8a",
					"checkAllowance()": "9405de64",
					"commits(address)": "7b43a8e6",
					"elapsedMinutes()": "d97c8416",
					"elapsedSeconds()": "bc06b8cd",
					"getHash(bytes32)": "3cf5040a",
					"input(bytes32)": "d891f969",
					"isCommit(address)": "43cdd438",
					"max()": "6ac5db19",
					"numInput()": "086f7815",
					"numPlayer()": "90d5d0c3",
					"numReveal()": "c876e615",
					"player_choice(address)": "a040478d",
					"players(uint256)": "f71d96cb",
					"requiredAmount()": "48b9ef40",
					"revealChoice(bytes32)": "65ce0ac6",
					"reward()": "228cb733",
					"startTime()": "78e97925",
					"timeOutWithDraw()": "558d51c6",
					"timeoutDuration()": "85d19e1a",
					"token()": "fc0c546a"
				}
			},
			"storageLayout": {
				"storage": [
					{
						"astId": 82,
						"contract": "RPS1.sol:RPS",
						"label": "max",
						"offset": 0,
						"slot": "0",
						"type": "t_uint8"
					},
					{
						"astId": 94,
						"contract": "RPS1.sol:RPS",
						"label": "commits",
						"offset": 0,
						"slot": "1",
						"type": "t_mapping(t_address,t_struct(Commit)89_storage)"
					},
					{
						"astId": 941,
						"contract": "RPS1.sol:RPS",
						"label": "startTime",
						"offset": 0,
						"slot": "2",
						"type": "t_uint256"
					},
					{
						"astId": 289,
						"contract": "RPS1.sol:RPS",
						"label": "token",
						"offset": 0,
						"slot": "3",
						"type": "t_contract(IERC20)77"
					},
					{
						"astId": 292,
						"contract": "RPS1.sol:RPS",
						"label": "numPlayer",
						"offset": 0,
						"slot": "4",
						"type": "t_uint256"
					},
					{
						"astId": 295,
						"contract": "RPS1.sol:RPS",
						"label": "reward",
						"offset": 0,
						"slot": "5",
						"type": "t_uint256"
					},
					{
						"astId": 299,
						"contract": "RPS1.sol:RPS",
						"label": "player_choice",
						"offset": 0,
						"slot": "6",
						"type": "t_mapping(t_address,t_uint256)"
					},
					{
						"astId": 303,
						"contract": "RPS1.sol:RPS",
						"label": "isCommit",
						"offset": 0,
						"slot": "7",
						"type": "t_mapping(t_address,t_bool)"
					},
					{
						"astId": 306,
						"contract": "RPS1.sol:RPS",
						"label": "numInput",
						"offset": 0,
						"slot": "8",
						"type": "t_uint256"
					},
					{
						"astId": 309,
						"contract": "RPS1.sol:RPS",
						"label": "numReveal",
						"offset": 0,
						"slot": "9",
						"type": "t_uint256"
					},
					{
						"astId": 312,
						"contract": "RPS1.sol:RPS",
						"label": "timeoutDuration",
						"offset": 0,
						"slot": "10",
						"type": "t_uint256"
					},
					{
						"astId": 315,
						"contract": "RPS1.sol:RPS",
						"label": "players",
						"offset": 0,
						"slot": "11",
						"type": "t_array(t_address)dyn_storage"
					},
					{
						"astId": 318,
						"contract": "RPS1.sol:RPS",
						"label": "requiredAmount",
						"offset": 0,
						"slot": "12",
						"type": "t_uint256"
					}
				],
				"types": {
					"t_address": {
						"encoding": "inplace",
						"label": "address",
						"numberOfBytes": "20"
					},
					"t_array(t_address)dyn_storage": {
						"base": "t_address",
						"encoding": "dynamic_array",
						"label": "address[]",
						"numberOfBytes": "32"
					},
					"t_bool": {
						"encoding": "inplace",
						"label": "bool",
						"numberOfBytes": "1"
					},
					"t_bytes32": {
						"encoding": "inplace",
						"label": "bytes32",
						"numberOfBytes": "32"
					},
					"t_contract(IERC20)77": {
						"encoding": "inplace",
						"label": "contract IERC20",
						"numberOfBytes": "20"
					},
					"t_mapping(t_address,t_bool)": {
						"encoding": "mapping",
						"key": "t_address",
						"label": "mapping(address => bool)",
						"numberOfBytes": "32",
						"value": "t_bool"
					},
					"t_mapping(t_address,t_struct(Commit)89_storage)": {
						"encoding": "mapping",
						"key": "t_address",
						"label": "mapping(address => struct CommitReveal.Commit)",
						"numberOfBytes": "32",
						"value": "t_struct(Commit)89_storage"
					},
					"t_mapping(t_address,t_uint256)": {
						"encoding": "mapping",
						"key": "t_address",
						"label": "mapping(address => uint256)",
						"numberOfBytes": "32",
						"value": "t_uint256"
					},
					"t_struct(Commit)89_storage": {
						"encoding": "inplace",
						"label": "struct CommitReveal.Commit",
						"members": [
							{
								"astId": 84,
								"contract": "RPS1.sol:RPS",
								"label": "commit",
								"offset": 0,
								"slot": "0",
								"type": "t_bytes32"
							},
							{
								"astId": 86,
								"contract": "RPS1.sol:RPS",
								"label": "block",
								"offset": 0,
								"slot": "1",
								"type": "t_uint64"
							},
							{
								"astId": 88,
								"contract": "RPS1.sol:RPS",
								"label": "revealed",
								"offset": 8,
								"slot": "1",
								"type": "t_bool"
							}
						],
						"numberOfBytes": "64"
					},
					"t_uint256": {
						"encoding": "inplace",
						"label": "uint256",
						"numberOfBytes": "32"
					},
					"t_uint64": {
						"encoding": "inplace",
						"label": "uint64",
						"numberOfBytes": "8"
					},
					"t_uint8": {
						"encoding": "inplace",
						"label": "uint8",
						"numberOfBytes": "1"
					}
				}
			},
			"userdoc": {
				"kind": "user",
				"methods": {},
				"version": 1
			}
		}
	}
}