{
	"CommitReveal.sol": {
		"CommitReveal": {
			"abi": [
				{
					"anonymous": false,
					"inputs": [
						{
							"indexed": false,
							"internalType": "address",
							"name": "sender",
							"type": "address"
						},
						{
							"indexed": false,
							"internalType": "bytes32",
							"name": "dataHash",
							"type": "bytes32"
						},
						{
							"indexed": false,
							"internalType": "uint64",
							"name": "block",
							"type": "uint64"
						}
					],
					"name": "CommitHash",
					"type": "event"
				},
				{
					"anonymous": false,
					"inputs": [
						{
							"indexed": false,
							"internalType": "address",
							"name": "sender",
							"type": "address"
						},
						{
							"indexed": false,
							"internalType": "bytes32",
							"name": "answer",
							"type": "bytes32"
						},
						{
							"indexed": false,
							"internalType": "bytes32",
							"name": "salt",
							"type": "bytes32"
						}
					],
					"name": "RevealAnswer",
					"type": "event"
				},
				{
					"anonymous": false,
					"inputs": [
						{
							"indexed": false,
							"internalType": "address",
							"name": "sender",
							"type": "address"
						},
						{
							"indexed": false,
							"internalType": "bytes32",
							"name": "revealHash",
							"type": "bytes32"
						},
						{
							"indexed": false,
							"internalType": "uint256",
							"name": "random",
							"type": "uint256"
						}
					],
					"name": "RevealHash",
					"type": "event"
				},
				{
					"inputs": [
						{
							"internalType": "bytes32",
							"name": "dataHash",
							"type": "bytes32"
						}
					],
					"name": "commit",
					"outputs": [],
					"stateMutability": "nonpayable",
					"type": "function"
				},
				{
					"inputs": [
						{
							"internalType": "address",
							"name": "",
							"type": "address"
						}
					],
					"name": "commits",
					"outputs": [
						{
							"internalType": "bytes32",
							"name": "commit",
							"type": "bytes32"
						},
						{
							"internalType": "uint64",
							"name": "block",
							"type": "uint64"
						},
						{
							"internalType": "bool",
							"name": "revealed",
							"type": "bool"
						}
					],
					"stateMutability": "view",
					"type": "function"
				},
				{
					"inputs": [
						{
							"internalType": "bytes32",
							"name": "data",
							"type": "bytes32"
						}
					],
					"name": "getHash",
					"outputs": [
						{
							"internalType": "bytes32",
							"name": "",
							"type": "bytes32"
						}
					],
					"stateMutability": "view",
					"type": "function"
				},
				{
					"inputs": [
						{
							"internalType": "bytes32",
							"name": "data",
							"type": "bytes32"
						},
						{
							"internalType": "bytes32",
							"name": "salt",
							"type": "bytes32"
						}
					],
					"name": "getSaltedHash",
					"outputs": [
						{
							"internalType": "bytes32",
							"name": "",
							"type": "bytes32"
						}
					],
					"stateMutability": "view",
					"type": "function"
				},
				{
					"inputs": [],
					"name": "max",
					"outputs": [
						{
							"internalType": "uint8",
							"name": "",
							"type": "uint8"
						}
					],
					"stateMutability": "view",
					"type": "function"
				},
				{
					"inputs": [
						{
							"internalType": "bytes32",
							"name": "revealHash",
							"type": "bytes32"
						}
					],
					"name": "reveal",
					"outputs": [],
					"stateMutability": "nonpayable",
					"type": "function"
				},
				{
					"inputs": [
						{
							"internalType": "bytes32",
							"name": "answer",
							"type": "bytes32"
						},
						{
							"internalType": "bytes32",
							"name": "salt",
							"type": "bytes32"
						}
					],
					"name": "revealAnswer",
					"outputs": [],
					"stateMutability": "nonpayable",
					"type": "function"
				}
			],
			"devdoc": {
				"kind": "dev",
				"methods": {},
				"version": 1
			},
			"evm": {
				"assembly": "    /* \"CommitReveal.sol\":70:2673  contract CommitReveal {... */\n  mstore(0x40, 0x80)\n    /* \"CommitReveal.sol\":116:119  100 */\n  0x64\n    /* \"CommitReveal.sol\":97:119  uint8 public max = 100 */\n  0x00\n  dup1\n  0x0100\n  exp\n  dup2\n  sload\n  dup2\n  0xff\n  mul\n  not\n  and\n  swap1\n  dup4\n  0xff\n  and\n  mul\n  or\n  swap1\n  sstore\n  pop\n    /* \"CommitReveal.sol\":70:2673  contract CommitReveal {... */\n  callvalue\n  dup1\n  iszero\n  tag_1\n  jumpi\n  0x00\n  dup1\n  revert\ntag_1:\n  pop\n  dataSize(sub_0)\n  dup1\n  dataOffset(sub_0)\n  0x00\n  codecopy\n  0x00\n  return\nstop\n\nsub_0: assembly {\n        /* \"CommitReveal.sol\":70:2673  contract CommitReveal {... */\n      mstore(0x40, 0x80)\n      callvalue\n      dup1\n      iszero\n      tag_1\n      jumpi\n      0x00\n      dup1\n      revert\n    tag_1:\n      pop\n      jumpi(tag_2, lt(calldatasize, 0x04))\n      shr(0xe0, calldataload(0x00))\n      dup1\n      0x7b43a8e6\n      gt\n      tag_10\n      jumpi\n      dup1\n      0x7b43a8e6\n      eq\n      tag_6\n      jumpi\n      dup1\n      0x8dddbf36\n      eq\n      tag_7\n      jumpi\n      dup1\n      0xde8e9033\n      eq\n      tag_8\n      jumpi\n      dup1\n      0xf14fcbc8\n      eq\n      tag_9\n      jumpi\n      jump(tag_2)\n    tag_10:\n      dup1\n      0x3cf5040a\n      eq\n      tag_3\n      jumpi\n      dup1\n      0x6ac5db19\n      eq\n      tag_4\n      jumpi\n      dup1\n      0x701fd0f1\n      eq\n      tag_5\n      jumpi\n    tag_2:\n      0x00\n      dup1\n      revert\n        /* \"CommitReveal.sol\":1816:1941  function getHash(bytes32 data) public view returns(bytes32){... */\n    tag_3:\n      tag_11\n      0x04\n      dup1\n      calldatasize\n      sub\n      dup2\n      add\n      swap1\n      tag_12\n      swap2\n      swap1\n      tag_13\n      jump\t// in\n    tag_12:\n      tag_14\n      jump\t// in\n    tag_11:\n      mload(0x40)\n      tag_15\n      swap2\n      swap1\n      tag_16\n      jump\t// in\n    tag_15:\n      mload(0x40)\n      dup1\n      swap2\n      sub\n      swap1\n      return\n        /* \"CommitReveal.sol\":97:119  uint8 public max = 100 */\n    tag_4:\n      tag_17\n      tag_18\n      jump\t// in\n    tag_17:\n      mload(0x40)\n      tag_19\n      swap2\n      swap1\n      tag_20\n      jump\t// in\n    tag_19:\n      mload(0x40)\n      dup1\n      swap2\n      sub\n      swap1\n      return\n        /* \"CommitReveal.sol\":594:1743  function reveal(bytes32 revealHash) public {... */\n    tag_5:\n      tag_21\n      0x04\n      dup1\n      calldatasize\n      sub\n      dup2\n      add\n      swap1\n      tag_22\n      swap2\n      swap1\n      tag_13\n      jump\t// in\n    tag_22:\n      tag_23\n      jump\t// in\n    tag_21:\n      stop\n        /* \"CommitReveal.sol\":204:246  mapping (address => Commit) public commits */\n    tag_6:\n      tag_24\n      0x04\n      dup1\n      calldatasize\n      sub\n      dup2\n      add\n      swap1\n      tag_25\n      swap2\n      swap1\n      tag_26\n      jump\t// in\n    tag_25:\n      tag_27\n      jump\t// in\n    tag_24:\n      mload(0x40)\n      tag_28\n      swap4\n      swap3\n      swap2\n      swap1\n      tag_29\n      jump\t// in\n    tag_28:\n      mload(0x40)\n      dup1\n      swap2\n      sub\n      swap1\n      return\n        /* \"CommitReveal.sol\":2520:2670  function getSaltedHash(bytes32 data,bytes32 salt) public view returns(bytes32){... */\n    tag_7:\n      tag_30\n      0x04\n      dup1\n      calldatasize\n      sub\n      dup2\n      add\n      swap1\n      tag_31\n      swap2\n      swap1\n      tag_32\n      jump\t// in\n    tag_31:\n      tag_33\n      jump\t// in\n    tag_30:\n      mload(0x40)\n      tag_34\n      swap2\n      swap1\n      tag_16\n      jump\t// in\n    tag_34:\n      mload(0x40)\n      dup1\n      swap2\n      sub\n      swap1\n      return\n        /* \"CommitReveal.sol\":1945:2448  function revealAnswer(bytes32 answer,bytes32 salt) public {... */\n    tag_8:\n      tag_35\n      0x04\n      dup1\n      calldatasize\n      sub\n      dup2\n      add\n      swap1\n      tag_36\n      swap2\n      swap1\n      tag_32\n      jump\t// in\n    tag_36:\n      tag_37\n      jump\t// in\n    tag_35:\n      stop\n        /* \"CommitReveal.sol\":251:522  function commit(bytes32 dataHash) public {... */\n    tag_9:\n      tag_38\n      0x04\n      dup1\n      calldatasize\n      sub\n      dup2\n      add\n      swap1\n      tag_39\n      swap2\n      swap1\n      tag_13\n      jump\t// in\n    tag_39:\n      tag_40\n      jump\t// in\n    tag_38:\n      stop\n        /* \"CommitReveal.sol\":1816:1941  function getHash(bytes32 data) public view returns(bytes32){... */\n    tag_14:\n        /* \"CommitReveal.sol\":1867:1874  bytes32 */\n      0x00\n        /* \"CommitReveal.sol\":1923:1927  this */\n      address\n        /* \"CommitReveal.sol\":1930:1934  data */\n      dup3\n        /* \"CommitReveal.sol\":1898:1935  abi.encodePacked(address(this), data) */\n      add(0x20, mload(0x40))\n      tag_42\n      swap3\n      swap2\n      swap1\n      tag_43\n      jump\t// in\n    tag_42:\n      mload(0x40)\n      0x20\n      dup2\n      dup4\n      sub\n      sub\n      dup2\n      mstore\n      swap1\n      0x40\n      mstore\n        /* \"CommitReveal.sol\":1888:1936  keccak256(abi.encodePacked(address(this), data)) */\n      dup1\n      mload\n      swap1\n      0x20\n      add\n      keccak256\n        /* \"CommitReveal.sol\":1881:1936  return keccak256(abi.encodePacked(address(this), data)) */\n      swap1\n      pop\n        /* \"CommitReveal.sol\":1816:1941  function getHash(bytes32 data) public view returns(bytes32){... */\n      swap2\n      swap1\n      pop\n      jump\t// out\n        /* \"CommitReveal.sol\":97:119  uint8 public max = 100 */\n    tag_18:\n      0x00\n      dup1\n      sload\n      swap1\n      0x0100\n      exp\n      swap1\n      div\n      0xff\n      and\n      dup2\n      jump\t// out\n        /* \"CommitReveal.sol\":594:1743  function reveal(bytes32 revealHash) public {... */\n    tag_23:\n        /* \"CommitReveal.sol\":748:753  false */\n      0x00\n        /* \"CommitReveal.sol\":718:753  commits[msg.sender].revealed==false */\n      iszero\n      iszero\n        /* \"CommitReveal.sol\":718:725  commits */\n      0x01\n        /* \"CommitReveal.sol\":718:737  commits[msg.sender] */\n      0x00\n        /* \"CommitReveal.sol\":726:736  msg.sender */\n      caller\n        /* \"CommitReveal.sol\":718:737  commits[msg.sender] */\n      0xffffffffffffffffffffffffffffffffffffffff\n      and\n      0xffffffffffffffffffffffffffffffffffffffff\n      and\n      dup2\n      mstore\n      0x20\n      add\n      swap1\n      dup2\n      mstore\n      0x20\n      add\n      0x00\n      keccak256\n        /* \"CommitReveal.sol\":718:746  commits[msg.sender].revealed */\n      0x01\n      add\n      0x08\n      swap1\n      sload\n      swap1\n      0x0100\n      exp\n      swap1\n      div\n      0xff\n      and\n        /* \"CommitReveal.sol\":718:753  commits[msg.sender].revealed==false */\n      iszero\n      iszero\n      eq\n        /* \"CommitReveal.sol\":710:795  require(commits[msg.sender].revealed==false,\"CommitReveal::reveal: Already revealed\") */\n      tag_45\n      jumpi\n      mload(0x40)\n      0x08c379a000000000000000000000000000000000000000000000000000000000\n      dup2\n      mstore\n      0x04\n      add\n      tag_46\n      swap1\n      tag_47\n      jump\t// in\n    tag_46:\n      mload(0x40)\n      dup1\n      swap2\n      sub\n      swap1\n      revert\n    tag_45:\n        /* \"CommitReveal.sol\":830:834  true */\n      0x01\n        /* \"CommitReveal.sol\":801:808  commits */\n      dup1\n        /* \"CommitReveal.sol\":801:820  commits[msg.sender] */\n      0x00\n        /* \"CommitReveal.sol\":809:819  msg.sender */\n      caller\n        /* \"CommitReveal.sol\":801:820  commits[msg.sender] */\n      0xffffffffffffffffffffffffffffffffffffffff\n      and\n      0xffffffffffffffffffffffffffffffffffffffff\n      and\n      dup2\n      mstore\n      0x20\n      add\n      swap1\n      dup2\n      mstore\n      0x20\n      add\n      0x00\n      keccak256\n        /* \"CommitReveal.sol\":801:829  commits[msg.sender].revealed */\n      0x01\n      add\n      0x08\n        /* \"CommitReveal.sol\":801:834  commits[msg.sender].revealed=true */\n      0x0100\n      exp\n      dup2\n      sload\n      dup2\n      0xff\n      mul\n      not\n      and\n      swap1\n      dup4\n      iszero\n      iszero\n      mul\n      or\n      swap1\n      sstore\n      pop\n        /* \"CommitReveal.sol\":924:931  commits */\n      0x01\n        /* \"CommitReveal.sol\":924:943  commits[msg.sender] */\n      0x00\n        /* \"CommitReveal.sol\":932:942  msg.sender */\n      caller\n        /* \"CommitReveal.sol\":924:943  commits[msg.sender] */\n      0xffffffffffffffffffffffffffffffffffffffff\n      and\n      0xffffffffffffffffffffffffffffffffffffffff\n      and\n      dup2\n      mstore\n      0x20\n      add\n      swap1\n      dup2\n      mstore\n      0x20\n      add\n      0x00\n      keccak256\n        /* \"CommitReveal.sol\":924:950  commits[msg.sender].commit */\n      0x00\n      add\n      sload\n        /* \"CommitReveal.sol\":903:922  getHash(revealHash) */\n      tag_48\n        /* \"CommitReveal.sol\":911:921  revealHash */\n      dup3\n        /* \"CommitReveal.sol\":903:910  getHash */\n      tag_14\n        /* \"CommitReveal.sol\":903:922  getHash(revealHash) */\n      jump\t// in\n    tag_48:\n        /* \"CommitReveal.sol\":903:950  getHash(revealHash)==commits[msg.sender].commit */\n      eq\n        /* \"CommitReveal.sol\":895:1011  require(getHash(revealHash)==commits[msg.sender].commit,\"CommitReveal::reveal: Revealed hash does not match commit\") */\n      tag_49\n      jumpi\n      mload(0x40)\n      0x08c379a000000000000000000000000000000000000000000000000000000000\n      dup2\n      mstore\n      0x04\n      add\n      tag_50\n      swap1\n      tag_51\n      jump\t// in\n    tag_50:\n      mload(0x40)\n      dup1\n      swap2\n      sub\n      swap1\n      revert\n    tag_49:\n        /* \"CommitReveal.sol\":1117:1124  commits */\n      0x01\n        /* \"CommitReveal.sol\":1117:1136  commits[msg.sender] */\n      0x00\n        /* \"CommitReveal.sol\":1125:1135  msg.sender */\n      caller\n        /* \"CommitReveal.sol\":1117:1136  commits[msg.sender] */\n      0xffffffffffffffffffffffffffffffffffffffff\n      and\n      0xffffffffffffffffffffffffffffffffffffffff\n      and\n      dup2\n      mstore\n      0x20\n      add\n      swap1\n      dup2\n      mstore\n      0x20\n      add\n      0x00\n      keccak256\n        /* \"CommitReveal.sol\":1117:1142  commits[msg.sender].block */\n      0x01\n      add\n      0x00\n      swap1\n      sload\n      swap1\n      0x0100\n      exp\n      swap1\n      div\n      0xffffffffffffffff\n      and\n        /* \"CommitReveal.sol\":1096:1142  uint64(block.number)>commits[msg.sender].block */\n      0xffffffffffffffff\n      and\n        /* \"CommitReveal.sol\":1103:1115  block.number */\n      number\n        /* \"CommitReveal.sol\":1096:1142  uint64(block.number)>commits[msg.sender].block */\n      0xffffffffffffffff\n      and\n      gt\n        /* \"CommitReveal.sol\":1088:1212  require(uint64(block.number)>commits[msg.sender].block,\"CommitReveal::reveal: Reveal and commit happened on the same block\") */\n      tag_52\n      jumpi\n      mload(0x40)\n      0x08c379a000000000000000000000000000000000000000000000000000000000\n      dup2\n      mstore\n      0x04\n      add\n      tag_53\n      swap1\n      tag_54\n      jump\t// in\n    tag_53:\n      mload(0x40)\n      dup1\n      swap2\n      sub\n      swap1\n      revert\n    tag_52:\n        /* \"CommitReveal.sol\":1329:1332  250 */\n      0xfa\n        /* \"CommitReveal.sol\":1303:1310  commits */\n      0x01\n        /* \"CommitReveal.sol\":1303:1322  commits[msg.sender] */\n      0x00\n        /* \"CommitReveal.sol\":1311:1321  msg.sender */\n      caller\n        /* \"CommitReveal.sol\":1303:1322  commits[msg.sender] */\n      0xffffffffffffffffffffffffffffffffffffffff\n      and\n      0xffffffffffffffffffffffffffffffffffffffff\n      and\n      dup2\n      mstore\n      0x20\n      add\n      swap1\n      dup2\n      mstore\n      0x20\n      add\n      0x00\n      keccak256\n        /* \"CommitReveal.sol\":1303:1328  commits[msg.sender].block */\n      0x01\n      add\n      0x00\n      swap1\n      sload\n      swap1\n      0x0100\n      exp\n      swap1\n      div\n      0xffffffffffffffff\n      and\n        /* \"CommitReveal.sol\":1303:1332  commits[msg.sender].block+250 */\n      tag_55\n      swap2\n      swap1\n      tag_56\n      jump\t// in\n    tag_55:\n        /* \"CommitReveal.sol\":1281:1332  uint64(block.number)<=commits[msg.sender].block+250 */\n      0xffffffffffffffff\n      and\n        /* \"CommitReveal.sol\":1288:1300  block.number */\n      number\n        /* \"CommitReveal.sol\":1281:1332  uint64(block.number)<=commits[msg.sender].block+250 */\n      0xffffffffffffffff\n      and\n      gt\n      iszero\n        /* \"CommitReveal.sol\":1273:1375  require(uint64(block.number)<=commits[msg.sender].block+250,\"CommitReveal::reveal: Revealed too late\") */\n      tag_57\n      jumpi\n      mload(0x40)\n      0x08c379a000000000000000000000000000000000000000000000000000000000\n      dup2\n      mstore\n      0x04\n      add\n      tag_58\n      swap1\n      tag_59\n      jump\t// in\n    tag_58:\n      mload(0x40)\n      dup1\n      swap2\n      sub\n      swap1\n      revert\n    tag_57:\n        /* \"CommitReveal.sol\":1448:1465  bytes32 blockHash */\n      0x00\n        /* \"CommitReveal.sol\":1478:1485  commits */\n      0x01\n        /* \"CommitReveal.sol\":1478:1497  commits[msg.sender] */\n      0x00\n        /* \"CommitReveal.sol\":1486:1496  msg.sender */\n      caller\n        /* \"CommitReveal.sol\":1478:1497  commits[msg.sender] */\n      0xffffffffffffffffffffffffffffffffffffffff\n      and\n      0xffffffffffffffffffffffffffffffffffffffff\n      and\n      dup2\n      mstore\n      0x20\n      add\n      swap1\n      dup2\n      mstore\n      0x20\n      add\n      0x00\n      keccak256\n        /* \"CommitReveal.sol\":1478:1503  commits[msg.sender].block */\n      0x01\n      add\n      0x00\n      swap1\n      sload\n      swap1\n      0x0100\n      exp\n      swap1\n      div\n      0xffffffffffffffff\n      and\n        /* \"CommitReveal.sol\":1468:1504  blockhash(commits[msg.sender].block) */\n      0xffffffffffffffff\n      and\n      blockhash\n        /* \"CommitReveal.sol\":1448:1504  bytes32 blockHash = blockhash(commits[msg.sender].block) */\n      swap1\n      pop\n        /* \"CommitReveal.sol\":1614:1625  uint random */\n      0x00\n        /* \"CommitReveal.sol\":1684:1687  max */\n      dup1\n      0x00\n      swap1\n      sload\n      swap1\n      0x0100\n      exp\n      swap1\n      div\n      0xff\n      and\n        /* \"CommitReveal.sol\":1628:1687  uint(keccak256(abi.encodePacked(blockHash,revealHash)))%max */\n      0xff\n      and\n        /* \"CommitReveal.sol\":1660:1669  blockHash */\n      dup3\n        /* \"CommitReveal.sol\":1670:1680  revealHash */\n      dup5\n        /* \"CommitReveal.sol\":1643:1681  abi.encodePacked(blockHash,revealHash) */\n      add(0x20, mload(0x40))\n      tag_60\n      swap3\n      swap2\n      swap1\n      tag_61\n      jump\t// in\n    tag_60:\n      mload(0x40)\n      0x20\n      dup2\n      dup4\n      sub\n      sub\n      dup2\n      mstore\n      swap1\n      0x40\n      mstore\n        /* \"CommitReveal.sol\":1633:1682  keccak256(abi.encodePacked(blockHash,revealHash)) */\n      dup1\n      mload\n      swap1\n      0x20\n      add\n      keccak256\n        /* \"CommitReveal.sol\":1628:1683  uint(keccak256(abi.encodePacked(blockHash,revealHash))) */\n      0x00\n      shr\n        /* \"CommitReveal.sol\":1628:1687  uint(keccak256(abi.encodePacked(blockHash,revealHash)))%max */\n      tag_62\n      swap2\n      swap1\n      tag_63\n      jump\t// in\n    tag_62:\n        /* \"CommitReveal.sol\":1614:1687  uint random = uint(keccak256(abi.encodePacked(blockHash,revealHash)))%max */\n      swap1\n      pop\n        /* \"CommitReveal.sol\":1698:1738  RevealHash(msg.sender,revealHash,random) */\n      0xbc016dd1cadeaefcb851af7a0a93532e0023d536894b730801f7bcfe7065bcc2\n        /* \"CommitReveal.sol\":1709:1719  msg.sender */\n      caller\n        /* \"CommitReveal.sol\":1720:1730  revealHash */\n      dup5\n        /* \"CommitReveal.sol\":1731:1737  random */\n      dup4\n        /* \"CommitReveal.sol\":1698:1738  RevealHash(msg.sender,revealHash,random) */\n      mload(0x40)\n      tag_64\n      swap4\n      swap3\n      swap2\n      swap1\n      tag_65\n      jump\t// in\n    tag_64:\n      mload(0x40)\n      dup1\n      swap2\n      sub\n      swap1\n      log1\n        /* \"CommitReveal.sol\":637:1743  {... */\n      pop\n      pop\n        /* \"CommitReveal.sol\":594:1743  function reveal(bytes32 revealHash) public {... */\n      pop\n      jump\t// out\n        /* \"CommitReveal.sol\":204:246  mapping (address => Commit) public commits */\n    tag_27:\n      mstore(0x20, 0x01)\n      dup1\n      0x00\n      mstore\n      keccak256(0x00, 0x40)\n      0x00\n      swap2\n      pop\n      swap1\n      pop\n      dup1\n      0x00\n      add\n      sload\n      swap1\n      dup1\n      0x01\n      add\n      0x00\n      swap1\n      sload\n      swap1\n      0x0100\n      exp\n      swap1\n      div\n      0xffffffffffffffff\n      and\n      swap1\n      dup1\n      0x01\n      add\n      0x08\n      swap1\n      sload\n      swap1\n      0x0100\n      exp\n      swap1\n      div\n      0xff\n      and\n      swap1\n      pop\n      dup4\n      jump\t// out\n        /* \"CommitReveal.sol\":2520:2670  function getSaltedHash(bytes32 data,bytes32 salt) public view returns(bytes32){... */\n    tag_33:\n        /* \"CommitReveal.sol\":2590:2597  bytes32 */\n      0x00\n        /* \"CommitReveal.sol\":2646:2650  this */\n      address\n        /* \"CommitReveal.sol\":2653:2657  data */\n      dup4\n        /* \"CommitReveal.sol\":2659:2663  salt */\n      dup4\n        /* \"CommitReveal.sol\":2621:2664  abi.encodePacked(address(this), data, salt) */\n      add(0x20, mload(0x40))\n      tag_67\n      swap4\n      swap3\n      swap2\n      swap1\n      tag_68\n      jump\t// in\n    tag_67:\n      mload(0x40)\n      0x20\n      dup2\n      dup4\n      sub\n      sub\n      dup2\n      mstore\n      swap1\n      0x40\n      mstore\n        /* \"CommitReveal.sol\":2611:2665  keccak256(abi.encodePacked(address(this), data, salt)) */\n      dup1\n      mload\n      swap1\n      0x20\n      add\n      keccak256\n        /* \"CommitReveal.sol\":2604:2665  return keccak256(abi.encodePacked(address(this), data, salt)) */\n      swap1\n      pop\n        /* \"CommitReveal.sol\":2520:2670  function getSaltedHash(bytes32 data,bytes32 salt) public view returns(bytes32){... */\n      swap3\n      swap2\n      pop\n      pop\n      jump\t// out\n        /* \"CommitReveal.sol\":1945:2448  function revealAnswer(bytes32 answer,bytes32 salt) public {... */\n    tag_37:\n        /* \"CommitReveal.sol\":2114:2119  false */\n      0x00\n        /* \"CommitReveal.sol\":2084:2119  commits[msg.sender].revealed==false */\n      iszero\n      iszero\n        /* \"CommitReveal.sol\":2084:2091  commits */\n      0x01\n        /* \"CommitReveal.sol\":2084:2103  commits[msg.sender] */\n      0x00\n        /* \"CommitReveal.sol\":2092:2102  msg.sender */\n      caller\n        /* \"CommitReveal.sol\":2084:2103  commits[msg.sender] */\n      0xffffffffffffffffffffffffffffffffffffffff\n      and\n      0xffffffffffffffffffffffffffffffffffffffff\n      and\n      dup2\n      mstore\n      0x20\n      add\n      swap1\n      dup2\n      mstore\n      0x20\n      add\n      0x00\n      keccak256\n        /* \"CommitReveal.sol\":2084:2112  commits[msg.sender].revealed */\n      0x01\n      add\n      0x08\n      swap1\n      sload\n      swap1\n      0x0100\n      exp\n      swap1\n      div\n      0xff\n      and\n        /* \"CommitReveal.sol\":2084:2119  commits[msg.sender].revealed==false */\n      iszero\n      iszero\n      eq\n        /* \"CommitReveal.sol\":2076:2167  require(commits[msg.sender].revealed==false,\"CommitReveal::revealAnswer: Already revealed\") */\n      tag_70\n      jumpi\n      mload(0x40)\n      0x08c379a000000000000000000000000000000000000000000000000000000000\n      dup2\n      mstore\n      0x04\n      add\n      tag_71\n      swap1\n      tag_72\n      jump\t// in\n    tag_71:\n      mload(0x40)\n      dup1\n      swap2\n      sub\n      swap1\n      revert\n    tag_70:\n        /* \"CommitReveal.sol\":2202:2206  true */\n      0x01\n        /* \"CommitReveal.sol\":2173:2180  commits */\n      dup1\n        /* \"CommitReveal.sol\":2173:2192  commits[msg.sender] */\n      0x00\n        /* \"CommitReveal.sol\":2181:2191  msg.sender */\n      caller\n        /* \"CommitReveal.sol\":2173:2192  commits[msg.sender] */\n      0xffffffffffffffffffffffffffffffffffffffff\n      and\n      0xffffffffffffffffffffffffffffffffffffffff\n      and\n      dup2\n      mstore\n      0x20\n      add\n      swap1\n      dup2\n      mstore\n      0x20\n      add\n      0x00\n      keccak256\n        /* \"CommitReveal.sol\":2173:2201  commits[msg.sender].revealed */\n      0x01\n      add\n      0x08\n        /* \"CommitReveal.sol\":2173:2206  commits[msg.sender].revealed=true */\n      0x0100\n      exp\n      dup2\n      sload\n      dup2\n      0xff\n      mul\n      not\n      and\n      swap1\n      dup4\n      iszero\n      iszero\n      mul\n      or\n      swap1\n      sstore\n      pop\n        /* \"CommitReveal.sol\":2303:2310  commits */\n      0x01\n        /* \"CommitReveal.sol\":2303:2322  commits[msg.sender] */\n      0x00\n        /* \"CommitReveal.sol\":2311:2321  msg.sender */\n      caller\n        /* \"CommitReveal.sol\":2303:2322  commits[msg.sender] */\n      0xffffffffffffffffffffffffffffffffffffffff\n      and\n      0xffffffffffffffffffffffffffffffffffffffff\n      and\n      dup2\n      mstore\n      0x20\n      add\n      swap1\n      dup2\n      mstore\n      0x20\n      add\n      0x00\n      keccak256\n        /* \"CommitReveal.sol\":2303:2329  commits[msg.sender].commit */\n      0x00\n      add\n      sload\n        /* \"CommitReveal.sol\":2275:2301  getSaltedHash(answer,salt) */\n      tag_73\n        /* \"CommitReveal.sol\":2289:2295  answer */\n      dup4\n        /* \"CommitReveal.sol\":2296:2300  salt */\n      dup4\n        /* \"CommitReveal.sol\":2275:2288  getSaltedHash */\n      tag_33\n        /* \"CommitReveal.sol\":2275:2301  getSaltedHash(answer,salt) */\n      jump\t// in\n    tag_73:\n        /* \"CommitReveal.sol\":2275:2329  getSaltedHash(answer,salt)==commits[msg.sender].commit */\n      eq\n        /* \"CommitReveal.sol\":2267:2396  require(getSaltedHash(answer,salt)==commits[msg.sender].commit,\"CommitReveal::revealAnswer: Revealed hash does not match commit\") */\n      tag_74\n      jumpi\n      mload(0x40)\n      0x08c379a000000000000000000000000000000000000000000000000000000000\n      dup2\n      mstore\n      0x04\n      add\n      tag_75\n      swap1\n      tag_76\n      jump\t// in\n    tag_75:\n      mload(0x40)\n      dup1\n      swap2\n      sub\n      swap1\n      revert\n    tag_74:\n        /* \"CommitReveal.sol\":2407:2443  RevealAnswer(msg.sender,answer,salt) */\n      0x8bed02c4d61e56ed1d90657e7a0ba48f15cca20fcc2899d7235221b2cb0423a6\n        /* \"CommitReveal.sol\":2420:2430  msg.sender */\n      caller\n        /* \"CommitReveal.sol\":2431:2437  answer */\n      dup4\n        /* \"CommitReveal.sol\":2438:2442  salt */\n      dup4\n        /* \"CommitReveal.sol\":2407:2443  RevealAnswer(msg.sender,answer,salt) */\n      mload(0x40)\n      tag_77\n      swap4\n      swap3\n      swap2\n      swap1\n      tag_78\n      jump\t// in\n    tag_77:\n      mload(0x40)\n      dup1\n      swap2\n      sub\n      swap1\n      log1\n        /* \"CommitReveal.sol\":1945:2448  function revealAnswer(bytes32 answer,bytes32 salt) public {... */\n      pop\n      pop\n      jump\t// out\n        /* \"CommitReveal.sol\":251:522  function commit(bytes32 dataHash) public {... */\n    tag_40:\n        /* \"CommitReveal.sol\":327:335  dataHash */\n      dup1\n        /* \"CommitReveal.sol\":298:305  commits */\n      0x01\n        /* \"CommitReveal.sol\":298:317  commits[msg.sender] */\n      0x00\n        /* \"CommitReveal.sol\":306:316  msg.sender */\n      caller\n        /* \"CommitReveal.sol\":298:317  commits[msg.sender] */\n      0xffffffffffffffffffffffffffffffffffffffff\n      and\n      0xffffffffffffffffffffffffffffffffffffffff\n      and\n      dup2\n      mstore\n      0x20\n      add\n      swap1\n      dup2\n      mstore\n      0x20\n      add\n      0x00\n      keccak256\n        /* \"CommitReveal.sol\":298:324  commits[msg.sender].commit */\n      0x00\n      add\n        /* \"CommitReveal.sol\":298:335  commits[msg.sender].commit = dataHash */\n      dup2\n      swap1\n      sstore\n      pop\n        /* \"CommitReveal.sol\":376:388  block.number */\n      number\n        /* \"CommitReveal.sol\":341:348  commits */\n      0x01\n        /* \"CommitReveal.sol\":341:360  commits[msg.sender] */\n      0x00\n        /* \"CommitReveal.sol\":349:359  msg.sender */\n      caller\n        /* \"CommitReveal.sol\":341:360  commits[msg.sender] */\n      0xffffffffffffffffffffffffffffffffffffffff\n      and\n      0xffffffffffffffffffffffffffffffffffffffff\n      and\n      dup2\n      mstore\n      0x20\n      add\n      swap1\n      dup2\n      mstore\n      0x20\n      add\n      0x00\n      keccak256\n        /* \"CommitReveal.sol\":341:366  commits[msg.sender].block */\n      0x01\n      add\n      0x00\n        /* \"CommitReveal.sol\":341:389  commits[msg.sender].block = uint64(block.number) */\n      0x0100\n      exp\n      dup2\n      sload\n      dup2\n      0xffffffffffffffff\n      mul\n      not\n      and\n      swap1\n      dup4\n      0xffffffffffffffff\n      and\n      mul\n      or\n      swap1\n      sstore\n      pop\n        /* \"CommitReveal.sol\":426:431  false */\n      0x00\n        /* \"CommitReveal.sol\":395:402  commits */\n      0x01\n        /* \"CommitReveal.sol\":395:414  commits[msg.sender] */\n      0x00\n        /* \"CommitReveal.sol\":403:413  msg.sender */\n      caller\n        /* \"CommitReveal.sol\":395:414  commits[msg.sender] */\n      0xffffffffffffffffffffffffffffffffffffffff\n      and\n      0xffffffffffffffffffffffffffffffffffffffff\n      and\n      dup2\n      mstore\n      0x20\n      add\n      swap1\n      dup2\n      mstore\n      0x20\n      add\n      0x00\n      keccak256\n        /* \"CommitReveal.sol\":395:423  commits[msg.sender].revealed */\n      0x01\n      add\n      0x08\n        /* \"CommitReveal.sol\":395:431  commits[msg.sender].revealed = false */\n      0x0100\n      exp\n      dup2\n      sload\n      dup2\n      0xff\n      mul\n      not\n      and\n      swap1\n      dup4\n      iszero\n      iszero\n      mul\n      or\n      swap1\n      sstore\n      pop\n        /* \"CommitReveal.sol\":442:517  CommitHash(msg.sender,commits[msg.sender].commit,commits[msg.sender].block) */\n      0x3c1a1f8f38335b17f751c6da4ba7d1865f26b3997535176f5080de9fad891603\n        /* \"CommitReveal.sol\":453:463  msg.sender */\n      caller\n        /* \"CommitReveal.sol\":464:471  commits */\n      0x01\n        /* \"CommitReveal.sol\":464:483  commits[msg.sender] */\n      0x00\n        /* \"CommitReveal.sol\":472:482  msg.sender */\n      caller\n        /* \"CommitReveal.sol\":464:483  commits[msg.sender] */\n      0xffffffffffffffffffffffffffffffffffffffff\n      and\n      0xffffffffffffffffffffffffffffffffffffffff\n      and\n      dup2\n      mstore\n      0x20\n      add\n      swap1\n      dup2\n      mstore\n      0x20\n      add\n      0x00\n      keccak256\n        /* \"CommitReveal.sol\":464:490  commits[msg.sender].commit */\n      0x00\n      add\n      sload\n        /* \"CommitReveal.sol\":491:498  commits */\n      0x01\n        /* \"CommitReveal.sol\":491:510  commits[msg.sender] */\n      0x00\n        /* \"CommitReveal.sol\":499:509  msg.sender */\n      caller\n        /* \"CommitReveal.sol\":491:510  commits[msg.sender] */\n      0xffffffffffffffffffffffffffffffffffffffff\n      and\n      0xffffffffffffffffffffffffffffffffffffffff\n      and\n      dup2\n      mstore\n      0x20\n      add\n      swap1\n      dup2\n      mstore\n      0x20\n      add\n      0x00\n      keccak256\n        /* \"CommitReveal.sol\":491:516  commits[msg.sender].block */\n      0x01\n      add\n      0x00\n      swap1\n      sload\n      swap1\n      0x0100\n      exp\n      swap1\n      div\n      0xffffffffffffffff\n      and\n        /* \"CommitReveal.sol\":442:517  CommitHash(msg.sender,commits[msg.sender].commit,commits[msg.sender].block) */\n      mload(0x40)\n      tag_80\n      swap4\n      swap3\n      swap2\n      swap1\n      tag_81\n      jump\t// in\n    tag_80:\n      mload(0x40)\n      dup1\n      swap2\n      sub\n      swap1\n      log1\n        /* \"CommitReveal.sol\":251:522  function commit(bytes32 dataHash) public {... */\n      pop\n      jump\t// out\n        /* \"#utility.yul\":88:205   */\n    tag_83:\n        /* \"#utility.yul\":197:198   */\n      0x00\n        /* \"#utility.yul\":194:195   */\n      dup1\n        /* \"#utility.yul\":187:199   */\n      revert\n        /* \"#utility.yul\":334:411   */\n    tag_85:\n        /* \"#utility.yul\":371:378   */\n      0x00\n        /* \"#utility.yul\":400:405   */\n      dup2\n        /* \"#utility.yul\":389:405   */\n      swap1\n      pop\n        /* \"#utility.yul\":334:411   */\n      swap2\n      swap1\n      pop\n      jump\t// out\n        /* \"#utility.yul\":417:539   */\n    tag_86:\n        /* \"#utility.yul\":490:514   */\n      tag_129\n        /* \"#utility.yul\":508:513   */\n      dup2\n        /* \"#utility.yul\":490:514   */\n      tag_85\n      jump\t// in\n    tag_129:\n        /* \"#utility.yul\":483:488   */\n      dup2\n        /* \"#utility.yul\":480:515   */\n      eq\n        /* \"#utility.yul\":470:533   */\n      tag_130\n      jumpi\n        /* \"#utility.yul\":529:530   */\n      0x00\n        /* \"#utility.yul\":526:527   */\n      dup1\n        /* \"#utility.yul\":519:531   */\n      revert\n        /* \"#utility.yul\":470:533   */\n    tag_130:\n        /* \"#utility.yul\":417:539   */\n      pop\n      jump\t// out\n        /* \"#utility.yul\":545:684   */\n    tag_87:\n        /* \"#utility.yul\":591:596   */\n      0x00\n        /* \"#utility.yul\":629:635   */\n      dup2\n        /* \"#utility.yul\":616:636   */\n      calldataload\n        /* \"#utility.yul\":607:636   */\n      swap1\n      pop\n        /* \"#utility.yul\":645:678   */\n      tag_132\n        /* \"#utility.yul\":672:677   */\n      dup2\n        /* \"#utility.yul\":645:678   */\n      tag_86\n      jump\t// in\n    tag_132:\n        /* \"#utility.yul\":545:684   */\n      swap3\n      swap2\n      pop\n      pop\n      jump\t// out\n        /* \"#utility.yul\":690:1019   */\n    tag_13:\n        /* \"#utility.yul\":749:755   */\n      0x00\n        /* \"#utility.yul\":798:800   */\n      0x20\n        /* \"#utility.yul\":786:795   */\n      dup3\n        /* \"#utility.yul\":777:784   */\n      dup5\n        /* \"#utility.yul\":773:796   */\n      sub\n        /* \"#utility.yul\":769:801   */\n      slt\n        /* \"#utility.yul\":766:885   */\n      iszero\n      tag_134\n      jumpi\n        /* \"#utility.yul\":804:883   */\n      tag_135\n      tag_83\n      jump\t// in\n    tag_135:\n        /* \"#utility.yul\":766:885   */\n    tag_134:\n        /* \"#utility.yul\":924:925   */\n      0x00\n        /* \"#utility.yul\":949:1002   */\n      tag_136\n        /* \"#utility.yul\":994:1001   */\n      dup5\n        /* \"#utility.yul\":985:991   */\n      dup3\n        /* \"#utility.yul\":974:983   */\n      dup6\n        /* \"#utility.yul\":970:992   */\n      add\n        /* \"#utility.yul\":949:1002   */\n      tag_87\n      jump\t// in\n    tag_136:\n        /* \"#utility.yul\":939:1002   */\n      swap2\n      pop\n        /* \"#utility.yul\":895:1012   */\n      pop\n        /* \"#utility.yul\":690:1019   */\n      swap3\n      swap2\n      pop\n      pop\n      jump\t// out\n        /* \"#utility.yul\":1025:1143   */\n    tag_88:\n        /* \"#utility.yul\":1112:1136   */\n      tag_138\n        /* \"#utility.yul\":1130:1135   */\n      dup2\n        /* \"#utility.yul\":1112:1136   */\n      tag_85\n      jump\t// in\n    tag_138:\n        /* \"#utility.yul\":1107:1110   */\n      dup3\n        /* \"#utility.yul\":1100:1137   */\n      mstore\n        /* \"#utility.yul\":1025:1143   */\n      pop\n      pop\n      jump\t// out\n        /* \"#utility.yul\":1149:1371   */\n    tag_16:\n        /* \"#utility.yul\":1242:1246   */\n      0x00\n        /* \"#utility.yul\":1280:1282   */\n      0x20\n        /* \"#utility.yul\":1269:1278   */\n      dup3\n        /* \"#utility.yul\":1265:1283   */\n      add\n        /* \"#utility.yul\":1257:1283   */\n      swap1\n      pop\n        /* \"#utility.yul\":1293:1364   */\n      tag_140\n        /* \"#utility.yul\":1361:1362   */\n      0x00\n        /* \"#utility.yul\":1350:1359   */\n      dup4\n        /* \"#utility.yul\":1346:1363   */\n      add\n        /* \"#utility.yul\":1337:1343   */\n      dup5\n        /* \"#utility.yul\":1293:1364   */\n      tag_88\n      jump\t// in\n    tag_140:\n        /* \"#utility.yul\":1149:1371   */\n      swap3\n      swap2\n      pop\n      pop\n      jump\t// out\n        /* \"#utility.yul\":1377:1463   */\n    tag_89:\n        /* \"#utility.yul\":1412:1419   */\n      0x00\n        /* \"#utility.yul\":1452:1456   */\n      0xff\n        /* \"#utility.yul\":1445:1450   */\n      dup3\n        /* \"#utility.yul\":1441:1457   */\n      and\n        /* \"#utility.yul\":1430:1457   */\n      swap1\n      pop\n        /* \"#utility.yul\":1377:1463   */\n      swap2\n      swap1\n      pop\n      jump\t// out\n        /* \"#utility.yul\":1469:1581   */\n    tag_90:\n        /* \"#utility.yul\":1552:1574   */\n      tag_143\n        /* \"#utility.yul\":1568:1573   */\n      dup2\n        /* \"#utility.yul\":1552:1574   */\n      tag_89\n      jump\t// in\n    tag_143:\n        /* \"#utility.yul\":1547:1550   */\n      dup3\n        /* \"#utility.yul\":1540:1575   */\n      mstore\n        /* \"#utility.yul\":1469:1581   */\n      pop\n      pop\n      jump\t// out\n        /* \"#utility.yul\":1587:1801   */\n    tag_20:\n        /* \"#utility.yul\":1676:1680   */\n      0x00\n        /* \"#utility.yul\":1714:1716   */\n      0x20\n        /* \"#utility.yul\":1703:1712   */\n      dup3\n        /* \"#utility.yul\":1699:1717   */\n      add\n        /* \"#utility.yul\":1691:1717   */\n      swap1\n      pop\n        /* \"#utility.yul\":1727:1794   */\n      tag_145\n        /* \"#utility.yul\":1791:1792   */\n      0x00\n        /* \"#utility.yul\":1780:1789   */\n      dup4\n        /* \"#utility.yul\":1776:1793   */\n      add\n        /* \"#utility.yul\":1767:1773   */\n      dup5\n        /* \"#utility.yul\":1727:1794   */\n      tag_90\n      jump\t// in\n    tag_145:\n        /* \"#utility.yul\":1587:1801   */\n      swap3\n      swap2\n      pop\n      pop\n      jump\t// out\n        /* \"#utility.yul\":1807:1933   */\n    tag_91:\n        /* \"#utility.yul\":1844:1851   */\n      0x00\n        /* \"#utility.yul\":1884:1926   */\n      0xffffffffffffffffffffffffffffffffffffffff\n        /* \"#utility.yul\":1877:1882   */\n      dup3\n        /* \"#utility.yul\":1873:1927   */\n      and\n        /* \"#utility.yul\":1862:1927   */\n      swap1\n      pop\n        /* \"#utility.yul\":1807:1933   */\n      swap2\n      swap1\n      pop\n      jump\t// out\n        /* \"#utility.yul\":1939:2035   */\n    tag_92:\n        /* \"#utility.yul\":1976:1983   */\n      0x00\n        /* \"#utility.yul\":2005:2029   */\n      tag_148\n        /* \"#utility.yul\":2023:2028   */\n      dup3\n        /* \"#utility.yul\":2005:2029   */\n      tag_91\n      jump\t// in\n    tag_148:\n        /* \"#utility.yul\":1994:2029   */\n      swap1\n      pop\n        /* \"#utility.yul\":1939:2035   */\n      swap2\n      swap1\n      pop\n      jump\t// out\n        /* \"#utility.yul\":2041:2163   */\n    tag_93:\n        /* \"#utility.yul\":2114:2138   */\n      tag_150\n        /* \"#utility.yul\":2132:2137   */\n      dup2\n        /* \"#utility.yul\":2114:2138   */\n      tag_92\n      jump\t// in\n    tag_150:\n        /* \"#utility.yul\":2107:2112   */\n      dup2\n        /* \"#utility.yul\":2104:2139   */\n      eq\n        /* \"#utility.yul\":2094:2157   */\n      tag_151\n      jumpi\n        /* \"#utility.yul\":2153:2154   */\n      0x00\n        /* \"#utility.yul\":2150:2151   */\n      dup1\n        /* \"#utility.yul\":2143:2155   */\n      revert\n        /* \"#utility.yul\":2094:2157   */\n    tag_151:\n        /* \"#utility.yul\":2041:2163   */\n      pop\n      jump\t// out\n        /* \"#utility.yul\":2169:2308   */\n    tag_94:\n        /* \"#utility.yul\":2215:2220   */\n      0x00\n        /* \"#utility.yul\":2253:2259   */\n      dup2\n        /* \"#utility.yul\":2240:2260   */\n      calldataload\n        /* \"#utility.yul\":2231:2260   */\n      swap1\n      pop\n        /* \"#utility.yul\":2269:2302   */\n      tag_153\n        /* \"#utility.yul\":2296:2301   */\n      dup2\n        /* \"#utility.yul\":2269:2302   */\n      tag_93\n      jump\t// in\n    tag_153:\n        /* \"#utility.yul\":2169:2308   */\n      swap3\n      swap2\n      pop\n      pop\n      jump\t// out\n        /* \"#utility.yul\":2314:2643   */\n    tag_26:\n        /* \"#utility.yul\":2373:2379   */\n      0x00\n        /* \"#utility.yul\":2422:2424   */\n      0x20\n        /* \"#utility.yul\":2410:2419   */\n      dup3\n        /* \"#utility.yul\":2401:2408   */\n      dup5\n        /* \"#utility.yul\":2397:2420   */\n      sub\n        /* \"#utility.yul\":2393:2425   */\n      slt\n        /* \"#utility.yul\":2390:2509   */\n      iszero\n      tag_155\n      jumpi\n        /* \"#utility.yul\":2428:2507   */\n      tag_156\n      tag_83\n      jump\t// in\n    tag_156:\n        /* \"#utility.yul\":2390:2509   */\n    tag_155:\n        /* \"#utility.yul\":2548:2549   */\n      0x00\n        /* \"#utility.yul\":2573:2626   */\n      tag_157\n        /* \"#utility.yul\":2618:2625   */\n      dup5\n        /* \"#utility.yul\":2609:2615   */\n      dup3\n        /* \"#utility.yul\":2598:2607   */\n      dup6\n        /* \"#utility.yul\":2594:2616   */\n      add\n        /* \"#utility.yul\":2573:2626   */\n      tag_94\n      jump\t// in\n    tag_157:\n        /* \"#utility.yul\":2563:2626   */\n      swap2\n      pop\n        /* \"#utility.yul\":2519:2636   */\n      pop\n        /* \"#utility.yul\":2314:2643   */\n      swap3\n      swap2\n      pop\n      pop\n      jump\t// out\n        /* \"#utility.yul\":2649:2750   */\n    tag_95:\n        /* \"#utility.yul\":2685:2692   */\n      0x00\n        /* \"#utility.yul\":2725:2743   */\n      0xffffffffffffffff\n        /* \"#utility.yul\":2718:2723   */\n      dup3\n        /* \"#utility.yul\":2714:2744   */\n      and\n        /* \"#utility.yul\":2703:2744   */\n      swap1\n      pop\n        /* \"#utility.yul\":2649:2750   */\n      swap2\n      swap1\n      pop\n      jump\t// out\n        /* \"#utility.yul\":2756:2871   */\n    tag_96:\n        /* \"#utility.yul\":2841:2864   */\n      tag_160\n        /* \"#utility.yul\":2858:2863   */\n      dup2\n        /* \"#utility.yul\":2841:2864   */\n      tag_95\n      jump\t// in\n    tag_160:\n        /* \"#utility.yul\":2836:2839   */\n      dup3\n        /* \"#utility.yul\":2829:2865   */\n      mstore\n        /* \"#utility.yul\":2756:2871   */\n      pop\n      pop\n      jump\t// out\n        /* \"#utility.yul\":2877:2967   */\n    tag_97:\n        /* \"#utility.yul\":2911:2918   */\n      0x00\n        /* \"#utility.yul\":2954:2959   */\n      dup2\n        /* \"#utility.yul\":2947:2960   */\n      iszero\n        /* \"#utility.yul\":2940:2961   */\n      iszero\n        /* \"#utility.yul\":2929:2961   */\n      swap1\n      pop\n        /* \"#utility.yul\":2877:2967   */\n      swap2\n      swap1\n      pop\n      jump\t// out\n        /* \"#utility.yul\":2973:3082   */\n    tag_98:\n        /* \"#utility.yul\":3054:3075   */\n      tag_163\n        /* \"#utility.yul\":3069:3074   */\n      dup2\n        /* \"#utility.yul\":3054:3075   */\n      tag_97\n      jump\t// in\n    tag_163:\n        /* \"#utility.yul\":3049:3052   */\n      dup3\n        /* \"#utility.yul\":3042:3076   */\n      mstore\n        /* \"#utility.yul\":2973:3082   */\n      pop\n      pop\n      jump\t// out\n        /* \"#utility.yul\":3088:3514   */\n    tag_29:\n        /* \"#utility.yul\":3229:3233   */\n      0x00\n        /* \"#utility.yul\":3267:3269   */\n      0x60\n        /* \"#utility.yul\":3256:3265   */\n      dup3\n        /* \"#utility.yul\":3252:3270   */\n      add\n        /* \"#utility.yul\":3244:3270   */\n      swap1\n      pop\n        /* \"#utility.yul\":3280:3351   */\n      tag_165\n        /* \"#utility.yul\":3348:3349   */\n      0x00\n        /* \"#utility.yul\":3337:3346   */\n      dup4\n        /* \"#utility.yul\":3333:3350   */\n      add\n        /* \"#utility.yul\":3324:3330   */\n      dup7\n        /* \"#utility.yul\":3280:3351   */\n      tag_88\n      jump\t// in\n    tag_165:\n        /* \"#utility.yul\":3361:3431   */\n      tag_166\n        /* \"#utility.yul\":3427:3429   */\n      0x20\n        /* \"#utility.yul\":3416:3425   */\n      dup4\n        /* \"#utility.yul\":3412:3430   */\n      add\n        /* \"#utility.yul\":3403:3409   */\n      dup6\n        /* \"#utility.yul\":3361:3431   */\n      tag_96\n      jump\t// in\n    tag_166:\n        /* \"#utility.yul\":3441:3507   */\n      tag_167\n        /* \"#utility.yul\":3503:3505   */\n      0x40\n        /* \"#utility.yul\":3492:3501   */\n      dup4\n        /* \"#utility.yul\":3488:3506   */\n      add\n        /* \"#utility.yul\":3479:3485   */\n      dup5\n        /* \"#utility.yul\":3441:3507   */\n      tag_98\n      jump\t// in\n    tag_167:\n        /* \"#utility.yul\":3088:3514   */\n      swap5\n      swap4\n      pop\n      pop\n      pop\n      pop\n      jump\t// out\n        /* \"#utility.yul\":3520:3994   */\n    tag_32:\n        /* \"#utility.yul\":3588:3594   */\n      0x00\n        /* \"#utility.yul\":3596:3602   */\n      dup1\n        /* \"#utility.yul\":3645:3647   */\n      0x40\n        /* \"#utility.yul\":3633:3642   */\n      dup4\n        /* \"#utility.yul\":3624:3631   */\n      dup6\n        /* \"#utility.yul\":3620:3643   */\n      sub\n        /* \"#utility.yul\":3616:3648   */\n      slt\n        /* \"#utility.yul\":3613:3732   */\n      iszero\n      tag_169\n      jumpi\n        /* \"#utility.yul\":3651:3730   */\n      tag_170\n      tag_83\n      jump\t// in\n    tag_170:\n        /* \"#utility.yul\":3613:3732   */\n    tag_169:\n        /* \"#utility.yul\":3771:3772   */\n      0x00\n        /* \"#utility.yul\":3796:3849   */\n      tag_171\n        /* \"#utility.yul\":3841:3848   */\n      dup6\n        /* \"#utility.yul\":3832:3838   */\n      dup3\n        /* \"#utility.yul\":3821:3830   */\n      dup7\n        /* \"#utility.yul\":3817:3839   */\n      add\n        /* \"#utility.yul\":3796:3849   */\n      tag_87\n      jump\t// in\n    tag_171:\n        /* \"#utility.yul\":3786:3849   */\n      swap3\n      pop\n        /* \"#utility.yul\":3742:3859   */\n      pop\n        /* \"#utility.yul\":3898:3900   */\n      0x20\n        /* \"#utility.yul\":3924:3977   */\n      tag_172\n        /* \"#utility.yul\":3969:3976   */\n      dup6\n        /* \"#utility.yul\":3960:3966   */\n      dup3\n        /* \"#utility.yul\":3949:3958   */\n      dup7\n        /* \"#utility.yul\":3945:3967   */\n      add\n        /* \"#utility.yul\":3924:3977   */\n      tag_87\n      jump\t// in\n    tag_172:\n        /* \"#utility.yul\":3914:3977   */\n      swap2\n      pop\n        /* \"#utility.yul\":3869:3987   */\n      pop\n        /* \"#utility.yul\":3520:3994   */\n      swap3\n      pop\n      swap3\n      swap1\n      pop\n      jump\t// out\n        /* \"#utility.yul\":4000:4094   */\n    tag_99:\n        /* \"#utility.yul\":4033:4041   */\n      0x00\n        /* \"#utility.yul\":4081:4086   */\n      dup2\n        /* \"#utility.yul\":4077:4079   */\n      0x60\n        /* \"#utility.yul\":4073:4087   */\n      shl\n        /* \"#utility.yul\":4052:4087   */\n      swap1\n      pop\n        /* \"#utility.yul\":4000:4094   */\n      swap2\n      swap1\n      pop\n      jump\t// out\n        /* \"#utility.yul\":4100:4194   */\n    tag_100:\n        /* \"#utility.yul\":4139:4146   */\n      0x00\n        /* \"#utility.yul\":4168:4188   */\n      tag_175\n        /* \"#utility.yul\":4182:4187   */\n      dup3\n        /* \"#utility.yul\":4168:4188   */\n      tag_99\n      jump\t// in\n    tag_175:\n        /* \"#utility.yul\":4157:4188   */\n      swap1\n      pop\n        /* \"#utility.yul\":4100:4194   */\n      swap2\n      swap1\n      pop\n      jump\t// out\n        /* \"#utility.yul\":4200:4300   */\n    tag_101:\n        /* \"#utility.yul\":4239:4246   */\n      0x00\n        /* \"#utility.yul\":4268:4294   */\n      tag_177\n        /* \"#utility.yul\":4288:4293   */\n      dup3\n        /* \"#utility.yul\":4268:4294   */\n      tag_100\n      jump\t// in\n    tag_177:\n        /* \"#utility.yul\":4257:4294   */\n      swap1\n      pop\n        /* \"#utility.yul\":4200:4300   */\n      swap2\n      swap1\n      pop\n      jump\t// out\n        /* \"#utility.yul\":4306:4463   */\n    tag_102:\n        /* \"#utility.yul\":4411:4456   */\n      tag_179\n        /* \"#utility.yul\":4431:4455   */\n      tag_180\n        /* \"#utility.yul\":4449:4454   */\n      dup3\n        /* \"#utility.yul\":4431:4455   */\n      tag_92\n      jump\t// in\n    tag_180:\n        /* \"#utility.yul\":4411:4456   */\n      tag_101\n      jump\t// in\n    tag_179:\n        /* \"#utility.yul\":4406:4409   */\n      dup3\n        /* \"#utility.yul\":4399:4457   */\n      mstore\n        /* \"#utility.yul\":4306:4463   */\n      pop\n      pop\n      jump\t// out\n        /* \"#utility.yul\":4469:4548   */\n    tag_103:\n        /* \"#utility.yul\":4508:4515   */\n      0x00\n        /* \"#utility.yul\":4537:4542   */\n      dup2\n        /* \"#utility.yul\":4526:4542   */\n      swap1\n      pop\n        /* \"#utility.yul\":4469:4548   */\n      swap2\n      swap1\n      pop\n      jump\t// out\n        /* \"#utility.yul\":4554:4711   */\n    tag_104:\n        /* \"#utility.yul\":4659:4704   */\n      tag_183\n        /* \"#utility.yul\":4679:4703   */\n      tag_184\n        /* \"#utility.yul\":4697:4702   */\n      dup3\n        /* \"#utility.yul\":4679:4703   */\n      tag_85\n      jump\t// in\n    tag_184:\n        /* \"#utility.yul\":4659:4704   */\n      tag_103\n      jump\t// in\n    tag_183:\n        /* \"#utility.yul\":4654:4657   */\n      dup3\n        /* \"#utility.yul\":4647:4705   */\n      mstore\n        /* \"#utility.yul\":4554:4711   */\n      pop\n      pop\n      jump\t// out\n        /* \"#utility.yul\":4717:5114   */\n    tag_43:\n        /* \"#utility.yul\":4857:4860   */\n      0x00\n        /* \"#utility.yul\":4872:4947   */\n      tag_186\n        /* \"#utility.yul\":4943:4946   */\n      dup3\n        /* \"#utility.yul\":4934:4940   */\n      dup6\n        /* \"#utility.yul\":4872:4947   */\n      tag_102\n      jump\t// in\n    tag_186:\n        /* \"#utility.yul\":4972:4974   */\n      0x14\n        /* \"#utility.yul\":4967:4970   */\n      dup3\n        /* \"#utility.yul\":4963:4975   */\n      add\n        /* \"#utility.yul\":4956:4975   */\n      swap2\n      pop\n        /* \"#utility.yul\":4985:5060   */\n      tag_187\n        /* \"#utility.yul\":5056:5059   */\n      dup3\n        /* \"#utility.yul\":5047:5053   */\n      dup5\n        /* \"#utility.yul\":4985:5060   */\n      tag_104\n      jump\t// in\n    tag_187:\n        /* \"#utility.yul\":5085:5087   */\n      0x20\n        /* \"#utility.yul\":5080:5083   */\n      dup3\n        /* \"#utility.yul\":5076:5088   */\n      add\n        /* \"#utility.yul\":5069:5088   */\n      swap2\n      pop\n        /* \"#utility.yul\":5105:5108   */\n      dup2\n        /* \"#utility.yul\":5098:5108   */\n      swap1\n      pop\n        /* \"#utility.yul\":4717:5114   */\n      swap4\n      swap3\n      pop\n      pop\n      pop\n      jump\t// out\n        /* \"#utility.yul\":5120:5289   */\n    tag_105:\n        /* \"#utility.yul\":5204:5215   */\n      0x00\n        /* \"#utility.yul\":5238:5244   */\n      dup3\n        /* \"#utility.yul\":5233:5236   */\n      dup3\n        /* \"#utility.yul\":5226:5245   */\n      mstore\n        /* \"#utility.yul\":5278:5282   */\n      0x20\n        /* \"#utility.yul\":5273:5276   */\n      dup3\n        /* \"#utility.yul\":5269:5283   */\n      add\n        /* \"#utility.yul\":5254:5283   */\n      swap1\n      pop\n        /* \"#utility.yul\":5120:5289   */\n      swap3\n      swap2\n      pop\n      pop\n      jump\t// out\n        /* \"#utility.yul\":5295:5520   */\n    tag_106:\n        /* \"#utility.yul\":5435:5469   */\n      0x436f6d6d697452657665616c3a3a72657665616c3a20416c7265616479207265\n        /* \"#utility.yul\":5431:5432   */\n      0x00\n        /* \"#utility.yul\":5423:5429   */\n      dup3\n        /* \"#utility.yul\":5419:5433   */\n      add\n        /* \"#utility.yul\":5412:5470   */\n      mstore\n        /* \"#utility.yul\":5504:5512   */\n      0x7665616c65640000000000000000000000000000000000000000000000000000\n        /* \"#utility.yul\":5499:5501   */\n      0x20\n        /* \"#utility.yul\":5491:5497   */\n      dup3\n        /* \"#utility.yul\":5487:5502   */\n      add\n        /* \"#utility.yul\":5480:5513   */\n      mstore\n        /* \"#utility.yul\":5295:5520   */\n      pop\n      jump\t// out\n        /* \"#utility.yul\":5526:5892   */\n    tag_107:\n        /* \"#utility.yul\":5668:5671   */\n      0x00\n        /* \"#utility.yul\":5689:5756   */\n      tag_191\n        /* \"#utility.yul\":5753:5755   */\n      0x26\n        /* \"#utility.yul\":5748:5751   */\n      dup4\n        /* \"#utility.yul\":5689:5756   */\n      tag_105\n      jump\t// in\n    tag_191:\n        /* \"#utility.yul\":5682:5756   */\n      swap2\n      pop\n        /* \"#utility.yul\":5765:5858   */\n      tag_192\n        /* \"#utility.yul\":5854:5857   */\n      dup3\n        /* \"#utility.yul\":5765:5858   */\n      tag_106\n      jump\t// in\n    tag_192:\n        /* \"#utility.yul\":5883:5885   */\n      0x40\n        /* \"#utility.yul\":5878:5881   */\n      dup3\n        /* \"#utility.yul\":5874:5886   */\n      add\n        /* \"#utility.yul\":5867:5886   */\n      swap1\n      pop\n        /* \"#utility.yul\":5526:5892   */\n      swap2\n      swap1\n      pop\n      jump\t// out\n        /* \"#utility.yul\":5898:6317   */\n    tag_47:\n        /* \"#utility.yul\":6064:6068   */\n      0x00\n        /* \"#utility.yul\":6102:6104   */\n      0x20\n        /* \"#utility.yul\":6091:6100   */\n      dup3\n        /* \"#utility.yul\":6087:6105   */\n      add\n        /* \"#utility.yul\":6079:6105   */\n      swap1\n      pop\n        /* \"#utility.yul\":6151:6160   */\n      dup2\n        /* \"#utility.yul\":6145:6149   */\n      dup2\n        /* \"#utility.yul\":6141:6161   */\n      sub\n        /* \"#utility.yul\":6137:6138   */\n      0x00\n        /* \"#utility.yul\":6126:6135   */\n      dup4\n        /* \"#utility.yul\":6122:6139   */\n      add\n        /* \"#utility.yul\":6115:6162   */\n      mstore\n        /* \"#utility.yul\":6179:6310   */\n      tag_194\n        /* \"#utility.yul\":6305:6309   */\n      dup2\n        /* \"#utility.yul\":6179:6310   */\n      tag_107\n      jump\t// in\n    tag_194:\n        /* \"#utility.yul\":6171:6310   */\n      swap1\n      pop\n        /* \"#utility.yul\":5898:6317   */\n      swap2\n      swap1\n      pop\n      jump\t// out\n        /* \"#utility.yul\":6323:6567   */\n    tag_108:\n        /* \"#utility.yul\":6463:6497   */\n      0x436f6d6d697452657665616c3a3a72657665616c3a2052657665616c65642068\n        /* \"#utility.yul\":6459:6460   */\n      0x00\n        /* \"#utility.yul\":6451:6457   */\n      dup3\n        /* \"#utility.yul\":6447:6461   */\n      add\n        /* \"#utility.yul\":6440:6498   */\n      mstore\n        /* \"#utility.yul\":6532:6559   */\n      0x61736820646f6573206e6f74206d6174636820636f6d6d697400000000000000\n        /* \"#utility.yul\":6527:6529   */\n      0x20\n        /* \"#utility.yul\":6519:6525   */\n      dup3\n        /* \"#utility.yul\":6515:6530   */\n      add\n        /* \"#utility.yul\":6508:6560   */\n      mstore\n        /* \"#utility.yul\":6323:6567   */\n      pop\n      jump\t// out\n        /* \"#utility.yul\":6573:6939   */\n    tag_109:\n        /* \"#utility.yul\":6715:6718   */\n      0x00\n        /* \"#utility.yul\":6736:6803   */\n      tag_197\n        /* \"#utility.yul\":6800:6802   */\n      0x39\n        /* \"#utility.yul\":6795:6798   */\n      dup4\n        /* \"#utility.yul\":6736:6803   */\n      tag_105\n      jump\t// in\n    tag_197:\n        /* \"#utility.yul\":6729:6803   */\n      swap2\n      pop\n        /* \"#utility.yul\":6812:6905   */\n      tag_198\n        /* \"#utility.yul\":6901:6904   */\n      dup3\n        /* \"#utility.yul\":6812:6905   */\n      tag_108\n      jump\t// in\n    tag_198:\n        /* \"#utility.yul\":6930:6932   */\n      0x40\n        /* \"#utility.yul\":6925:6928   */\n      dup3\n        /* \"#utility.yul\":6921:6933   */\n      add\n        /* \"#utility.yul\":6914:6933   */\n      swap1\n      pop\n        /* \"#utility.yul\":6573:6939   */\n      swap2\n      swap1\n      pop\n      jump\t// out\n        /* \"#utility.yul\":6945:7364   */\n    tag_51:\n        /* \"#utility.yul\":7111:7115   */\n      0x00\n        /* \"#utility.yul\":7149:7151   */\n      0x20\n        /* \"#utility.yul\":7138:7147   */\n      dup3\n        /* \"#utility.yul\":7134:7152   */\n      add\n        /* \"#utility.yul\":7126:7152   */\n      swap1\n      pop\n        /* \"#utility.yul\":7198:7207   */\n      dup2\n        /* \"#utility.yul\":7192:7196   */\n      dup2\n        /* \"#utility.yul\":7188:7208   */\n      sub\n        /* \"#utility.yul\":7184:7185   */\n      0x00\n        /* \"#utility.yul\":7173:7182   */\n      dup4\n        /* \"#utility.yul\":7169:7186   */\n      add\n        /* \"#utility.yul\":7162:7209   */\n      mstore\n        /* \"#utility.yul\":7226:7357   */\n      tag_200\n        /* \"#utility.yul\":7352:7356   */\n      dup2\n        /* \"#utility.yul\":7226:7357   */\n      tag_109\n      jump\t// in\n    tag_200:\n        /* \"#utility.yul\":7218:7357   */\n      swap1\n      pop\n        /* \"#utility.yul\":6945:7364   */\n      swap2\n      swap1\n      pop\n      jump\t// out\n        /* \"#utility.yul\":7370:7660   */\n    tag_110:\n        /* \"#utility.yul\":7510:7544   */\n      0x436f6d6d697452657665616c3a3a72657665616c3a2052657665616c20616e64\n        /* \"#utility.yul\":7506:7507   */\n      0x00\n        /* \"#utility.yul\":7498:7504   */\n      dup3\n        /* \"#utility.yul\":7494:7508   */\n      add\n        /* \"#utility.yul\":7487:7545   */\n      mstore\n        /* \"#utility.yul\":7579:7613   */\n      0x20636f6d6d69742068617070656e6564206f6e207468652073616d6520626c6f\n        /* \"#utility.yul\":7574:7576   */\n      0x20\n        /* \"#utility.yul\":7566:7572   */\n      dup3\n        /* \"#utility.yul\":7562:7577   */\n      add\n        /* \"#utility.yul\":7555:7614   */\n      mstore\n        /* \"#utility.yul\":7648:7652   */\n      0x636b000000000000000000000000000000000000000000000000000000000000\n        /* \"#utility.yul\":7643:7645   */\n      0x40\n        /* \"#utility.yul\":7635:7641   */\n      dup3\n        /* \"#utility.yul\":7631:7646   */\n      add\n        /* \"#utility.yul\":7624:7653   */\n      mstore\n        /* \"#utility.yul\":7370:7660   */\n      pop\n      jump\t// out\n        /* \"#utility.yul\":7666:8032   */\n    tag_111:\n        /* \"#utility.yul\":7808:7811   */\n      0x00\n        /* \"#utility.yul\":7829:7896   */\n      tag_203\n        /* \"#utility.yul\":7893:7895   */\n      0x42\n        /* \"#utility.yul\":7888:7891   */\n      dup4\n        /* \"#utility.yul\":7829:7896   */\n      tag_105\n      jump\t// in\n    tag_203:\n        /* \"#utility.yul\":7822:7896   */\n      swap2\n      pop\n        /* \"#utility.yul\":7905:7998   */\n      tag_204\n        /* \"#utility.yul\":7994:7997   */\n      dup3\n        /* \"#utility.yul\":7905:7998   */\n      tag_110\n      jump\t// in\n    tag_204:\n        /* \"#utility.yul\":8023:8025   */\n      0x60\n        /* \"#utility.yul\":8018:8021   */\n      dup3\n        /* \"#utility.yul\":8014:8026   */\n      add\n        /* \"#utility.yul\":8007:8026   */\n      swap1\n      pop\n        /* \"#utility.yul\":7666:8032   */\n      swap2\n      swap1\n      pop\n      jump\t// out\n        /* \"#utility.yul\":8038:8457   */\n    tag_54:\n        /* \"#utility.yul\":8204:8208   */\n      0x00\n        /* \"#utility.yul\":8242:8244   */\n      0x20\n        /* \"#utility.yul\":8231:8240   */\n      dup3\n        /* \"#utility.yul\":8227:8245   */\n      add\n        /* \"#utility.yul\":8219:8245   */\n      swap1\n      pop\n        /* \"#utility.yul\":8291:8300   */\n      dup2\n        /* \"#utility.yul\":8285:8289   */\n      dup2\n        /* \"#utility.yul\":8281:8301   */\n      sub\n        /* \"#utility.yul\":8277:8278   */\n      0x00\n        /* \"#utility.yul\":8266:8275   */\n      dup4\n        /* \"#utility.yul\":8262:8279   */\n      add\n        /* \"#utility.yul\":8255:8302   */\n      mstore\n        /* \"#utility.yul\":8319:8450   */\n      tag_206\n        /* \"#utility.yul\":8445:8449   */\n      dup2\n        /* \"#utility.yul\":8319:8450   */\n      tag_111\n      jump\t// in\n    tag_206:\n        /* \"#utility.yul\":8311:8450   */\n      swap1\n      pop\n        /* \"#utility.yul\":8038:8457   */\n      swap2\n      swap1\n      pop\n      jump\t// out\n        /* \"#utility.yul\":8463:8643   */\n    tag_112:\n        /* \"#utility.yul\":8511:8588   */\n      0x4e487b7100000000000000000000000000000000000000000000000000000000\n        /* \"#utility.yul\":8508:8509   */\n      0x00\n        /* \"#utility.yul\":8501:8589   */\n      mstore\n        /* \"#utility.yul\":8608:8612   */\n      0x11\n        /* \"#utility.yul\":8605:8606   */\n      0x04\n        /* \"#utility.yul\":8598:8613   */\n      mstore\n        /* \"#utility.yul\":8632:8636   */\n      0x24\n        /* \"#utility.yul\":8629:8630   */\n      0x00\n        /* \"#utility.yul\":8622:8637   */\n      revert\n        /* \"#utility.yul\":8649:8854   */\n    tag_56:\n        /* \"#utility.yul\":8688:8691   */\n      0x00\n        /* \"#utility.yul\":8707:8726   */\n      tag_209\n        /* \"#utility.yul\":8724:8725   */\n      dup3\n        /* \"#utility.yul\":8707:8726   */\n      tag_95\n      jump\t// in\n    tag_209:\n        /* \"#utility.yul\":8702:8726   */\n      swap2\n      pop\n        /* \"#utility.yul\":8740:8759   */\n      tag_210\n        /* \"#utility.yul\":8757:8758   */\n      dup4\n        /* \"#utility.yul\":8740:8759   */\n      tag_95\n      jump\t// in\n    tag_210:\n        /* \"#utility.yul\":8735:8759   */\n      swap3\n      pop\n        /* \"#utility.yul\":8782:8783   */\n      dup3\n        /* \"#utility.yul\":8779:8780   */\n      dup3\n        /* \"#utility.yul\":8775:8784   */\n      add\n        /* \"#utility.yul\":8768:8784   */\n      swap1\n      pop\n        /* \"#utility.yul\":8805:8823   */\n      0xffffffffffffffff\n        /* \"#utility.yul\":8800:8803   */\n      dup2\n        /* \"#utility.yul\":8797:8824   */\n      gt\n        /* \"#utility.yul\":8794:8847   */\n      iszero\n      tag_211\n      jumpi\n        /* \"#utility.yul\":8827:8845   */\n      tag_212\n      tag_112\n      jump\t// in\n    tag_212:\n        /* \"#utility.yul\":8794:8847   */\n    tag_211:\n        /* \"#utility.yul\":8649:8854   */\n      swap3\n      swap2\n      pop\n      pop\n      jump\t// out\n        /* \"#utility.yul\":8860:9086   */\n    tag_113:\n        /* \"#utility.yul\":9000:9034   */\n      0x436f6d6d697452657665616c3a3a72657665616c3a2052657665616c65642074\n        /* \"#utility.yul\":8996:8997   */\n      0x00\n        /* \"#utility.yul\":8988:8994   */\n      dup3\n        /* \"#utility.yul\":8984:8998   */\n      add\n        /* \"#utility.yul\":8977:9035   */\n      mstore\n        /* \"#utility.yul\":9069:9078   */\n      0x6f6f206c61746500000000000000000000000000000000000000000000000000\n        /* \"#utility.yul\":9064:9066   */\n      0x20\n        /* \"#utility.yul\":9056:9062   */\n      dup3\n        /* \"#utility.yul\":9052:9067   */\n      add\n        /* \"#utility.yul\":9045:9079   */\n      mstore\n        /* \"#utility.yul\":8860:9086   */\n      pop\n      jump\t// out\n        /* \"#utility.yul\":9092:9458   */\n    tag_114:\n        /* \"#utility.yul\":9234:9237   */\n      0x00\n        /* \"#utility.yul\":9255:9322   */\n      tag_215\n        /* \"#utility.yul\":9319:9321   */\n      0x27\n        /* \"#utility.yul\":9314:9317   */\n      dup4\n        /* \"#utility.yul\":9255:9322   */\n      tag_105\n      jump\t// in\n    tag_215:\n        /* \"#utility.yul\":9248:9322   */\n      swap2\n      pop\n        /* \"#utility.yul\":9331:9424   */\n      tag_216\n        /* \"#utility.yul\":9420:9423   */\n      dup3\n        /* \"#utility.yul\":9331:9424   */\n      tag_113\n      jump\t// in\n    tag_216:\n        /* \"#utility.yul\":9449:9451   */\n      0x40\n        /* \"#utility.yul\":9444:9447   */\n      dup3\n        /* \"#utility.yul\":9440:9452   */\n      add\n        /* \"#utility.yul\":9433:9452   */\n      swap1\n      pop\n        /* \"#utility.yul\":9092:9458   */\n      swap2\n      swap1\n      pop\n      jump\t// out\n        /* \"#utility.yul\":9464:9883   */\n    tag_59:\n        /* \"#utility.yul\":9630:9634   */\n      0x00\n        /* \"#utility.yul\":9668:9670   */\n      0x20\n        /* \"#utility.yul\":9657:9666   */\n      dup3\n        /* \"#utility.yul\":9653:9671   */\n      add\n        /* \"#utility.yul\":9645:9671   */\n      swap1\n      pop\n        /* \"#utility.yul\":9717:9726   */\n      dup2\n        /* \"#utility.yul\":9711:9715   */\n      dup2\n        /* \"#utility.yul\":9707:9727   */\n      sub\n        /* \"#utility.yul\":9703:9704   */\n      0x00\n        /* \"#utility.yul\":9692:9701   */\n      dup4\n        /* \"#utility.yul\":9688:9705   */\n      add\n        /* \"#utility.yul\":9681:9728   */\n      mstore\n        /* \"#utility.yul\":9745:9876   */\n      tag_218\n        /* \"#utility.yul\":9871:9875   */\n      dup2\n        /* \"#utility.yul\":9745:9876   */\n      tag_114\n      jump\t// in\n    tag_218:\n        /* \"#utility.yul\":9737:9876   */\n      swap1\n      pop\n        /* \"#utility.yul\":9464:9883   */\n      swap2\n      swap1\n      pop\n      jump\t// out\n        /* \"#utility.yul\":9889:10286   */\n    tag_61:\n        /* \"#utility.yul\":10029:10032   */\n      0x00\n        /* \"#utility.yul\":10044:10119   */\n      tag_220\n        /* \"#utility.yul\":10115:10118   */\n      dup3\n        /* \"#utility.yul\":10106:10112   */\n      dup6\n        /* \"#utility.yul\":10044:10119   */\n      tag_104\n      jump\t// in\n    tag_220:\n        /* \"#utility.yul\":10144:10146   */\n      0x20\n        /* \"#utility.yul\":10139:10142   */\n      dup3\n        /* \"#utility.yul\":10135:10147   */\n      add\n        /* \"#utility.yul\":10128:10147   */\n      swap2\n      pop\n        /* \"#utility.yul\":10157:10232   */\n      tag_221\n        /* \"#utility.yul\":10228:10231   */\n      dup3\n        /* \"#utility.yul\":10219:10225   */\n      dup5\n        /* \"#utility.yul\":10157:10232   */\n      tag_104\n      jump\t// in\n    tag_221:\n        /* \"#utility.yul\":10257:10259   */\n      0x20\n        /* \"#utility.yul\":10252:10255   */\n      dup3\n        /* \"#utility.yul\":10248:10260   */\n      add\n        /* \"#utility.yul\":10241:10260   */\n      swap2\n      pop\n        /* \"#utility.yul\":10277:10280   */\n      dup2\n        /* \"#utility.yul\":10270:10280   */\n      swap1\n      pop\n        /* \"#utility.yul\":9889:10286   */\n      swap4\n      swap3\n      pop\n      pop\n      pop\n      jump\t// out\n        /* \"#utility.yul\":10292:10369   */\n    tag_115:\n        /* \"#utility.yul\":10329:10336   */\n      0x00\n        /* \"#utility.yul\":10358:10363   */\n      dup2\n        /* \"#utility.yul\":10347:10363   */\n      swap1\n      pop\n        /* \"#utility.yul\":10292:10369   */\n      swap2\n      swap1\n      pop\n      jump\t// out\n        /* \"#utility.yul\":10375:10555   */\n    tag_116:\n        /* \"#utility.yul\":10423:10500   */\n      0x4e487b7100000000000000000000000000000000000000000000000000000000\n        /* \"#utility.yul\":10420:10421   */\n      0x00\n        /* \"#utility.yul\":10413:10501   */\n      mstore\n        /* \"#utility.yul\":10520:10524   */\n      0x12\n        /* \"#utility.yul\":10517:10518   */\n      0x04\n        /* \"#utility.yul\":10510:10525   */\n      mstore\n        /* \"#utility.yul\":10544:10548   */\n      0x24\n        /* \"#utility.yul\":10541:10542   */\n      0x00\n        /* \"#utility.yul\":10534:10549   */\n      revert\n        /* \"#utility.yul\":10561:10737   */\n    tag_63:\n        /* \"#utility.yul\":10593:10594   */\n      0x00\n        /* \"#utility.yul\":10610:10630   */\n      tag_225\n        /* \"#utility.yul\":10628:10629   */\n      dup3\n        /* \"#utility.yul\":10610:10630   */\n      tag_115\n      jump\t// in\n    tag_225:\n        /* \"#utility.yul\":10605:10630   */\n      swap2\n      pop\n        /* \"#utility.yul\":10644:10664   */\n      tag_226\n        /* \"#utility.yul\":10662:10663   */\n      dup4\n        /* \"#utility.yul\":10644:10664   */\n      tag_115\n      jump\t// in\n    tag_226:\n        /* \"#utility.yul\":10639:10664   */\n      swap3\n      pop\n        /* \"#utility.yul\":10683:10684   */\n      dup3\n        /* \"#utility.yul\":10673:10708   */\n      tag_227\n      jumpi\n        /* \"#utility.yul\":10688:10706   */\n      tag_228\n      tag_116\n      jump\t// in\n    tag_228:\n        /* \"#utility.yul\":10673:10708   */\n    tag_227:\n        /* \"#utility.yul\":10729:10730   */\n      dup3\n        /* \"#utility.yul\":10726:10727   */\n      dup3\n        /* \"#utility.yul\":10722:10731   */\n      mod\n        /* \"#utility.yul\":10717:10731   */\n      swap1\n      pop\n        /* \"#utility.yul\":10561:10737   */\n      swap3\n      swap2\n      pop\n      pop\n      jump\t// out\n        /* \"#utility.yul\":10743:10861   */\n    tag_117:\n        /* \"#utility.yul\":10830:10854   */\n      tag_230\n        /* \"#utility.yul\":10848:10853   */\n      dup2\n        /* \"#utility.yul\":10830:10854   */\n      tag_92\n      jump\t// in\n    tag_230:\n        /* \"#utility.yul\":10825:10828   */\n      dup3\n        /* \"#utility.yul\":10818:10855   */\n      mstore\n        /* \"#utility.yul\":10743:10861   */\n      pop\n      pop\n      jump\t// out\n        /* \"#utility.yul\":10867:10985   */\n    tag_118:\n        /* \"#utility.yul\":10954:10978   */\n      tag_232\n        /* \"#utility.yul\":10972:10977   */\n      dup2\n        /* \"#utility.yul\":10954:10978   */\n      tag_115\n      jump\t// in\n    tag_232:\n        /* \"#utility.yul\":10949:10952   */\n      dup3\n        /* \"#utility.yul\":10942:10979   */\n      mstore\n        /* \"#utility.yul\":10867:10985   */\n      pop\n      pop\n      jump\t// out\n        /* \"#utility.yul\":10991:11433   */\n    tag_65:\n        /* \"#utility.yul\":11140:11144   */\n      0x00\n        /* \"#utility.yul\":11178:11180   */\n      0x60\n        /* \"#utility.yul\":11167:11176   */\n      dup3\n        /* \"#utility.yul\":11163:11181   */\n      add\n        /* \"#utility.yul\":11155:11181   */\n      swap1\n      pop\n        /* \"#utility.yul\":11191:11262   */\n      tag_234\n        /* \"#utility.yul\":11259:11260   */\n      0x00\n        /* \"#utility.yul\":11248:11257   */\n      dup4\n        /* \"#utility.yul\":11244:11261   */\n      add\n        /* \"#utility.yul\":11235:11241   */\n      dup7\n        /* \"#utility.yul\":11191:11262   */\n      tag_117\n      jump\t// in\n    tag_234:\n        /* \"#utility.yul\":11272:11344   */\n      tag_235\n        /* \"#utility.yul\":11340:11342   */\n      0x20\n        /* \"#utility.yul\":11329:11338   */\n      dup4\n        /* \"#utility.yul\":11325:11343   */\n      add\n        /* \"#utility.yul\":11316:11322   */\n      dup6\n        /* \"#utility.yul\":11272:11344   */\n      tag_88\n      jump\t// in\n    tag_235:\n        /* \"#utility.yul\":11354:11426   */\n      tag_236\n        /* \"#utility.yul\":11422:11424   */\n      0x40\n        /* \"#utility.yul\":11411:11420   */\n      dup4\n        /* \"#utility.yul\":11407:11425   */\n      add\n        /* \"#utility.yul\":11398:11404   */\n      dup5\n        /* \"#utility.yul\":11354:11426   */\n      tag_118\n      jump\t// in\n    tag_236:\n        /* \"#utility.yul\":10991:11433   */\n      swap5\n      swap4\n      pop\n      pop\n      pop\n      pop\n      jump\t// out\n        /* \"#utility.yul\":11439:11977   */\n    tag_68:\n        /* \"#utility.yul\":11607:11610   */\n      0x00\n        /* \"#utility.yul\":11622:11697   */\n      tag_238\n        /* \"#utility.yul\":11693:11696   */\n      dup3\n        /* \"#utility.yul\":11684:11690   */\n      dup7\n        /* \"#utility.yul\":11622:11697   */\n      tag_102\n      jump\t// in\n    tag_238:\n        /* \"#utility.yul\":11722:11724   */\n      0x14\n        /* \"#utility.yul\":11717:11720   */\n      dup3\n        /* \"#utility.yul\":11713:11725   */\n      add\n        /* \"#utility.yul\":11706:11725   */\n      swap2\n      pop\n        /* \"#utility.yul\":11735:11810   */\n      tag_239\n        /* \"#utility.yul\":11806:11809   */\n      dup3\n        /* \"#utility.yul\":11797:11803   */\n      dup6\n        /* \"#utility.yul\":11735:11810   */\n      tag_104\n      jump\t// in\n    tag_239:\n        /* \"#utility.yul\":11835:11837   */\n      0x20\n        /* \"#utility.yul\":11830:11833   */\n      dup3\n        /* \"#utility.yul\":11826:11838   */\n      add\n        /* \"#utility.yul\":11819:11838   */\n      swap2\n      pop\n        /* \"#utility.yul\":11848:11923   */\n      tag_240\n        /* \"#utility.yul\":11919:11922   */\n      dup3\n        /* \"#utility.yul\":11910:11916   */\n      dup5\n        /* \"#utility.yul\":11848:11923   */\n      tag_104\n      jump\t// in\n    tag_240:\n        /* \"#utility.yul\":11948:11950   */\n      0x20\n        /* \"#utility.yul\":11943:11946   */\n      dup3\n        /* \"#utility.yul\":11939:11951   */\n      add\n        /* \"#utility.yul\":11932:11951   */\n      swap2\n      pop\n        /* \"#utility.yul\":11968:11971   */\n      dup2\n        /* \"#utility.yul\":11961:11971   */\n      swap1\n      pop\n        /* \"#utility.yul\":11439:11977   */\n      swap5\n      swap4\n      pop\n      pop\n      pop\n      pop\n      jump\t// out\n        /* \"#utility.yul\":11983:12214   */\n    tag_119:\n        /* \"#utility.yul\":12123:12157   */\n      0x436f6d6d697452657665616c3a3a72657665616c416e737765723a20416c7265\n        /* \"#utility.yul\":12119:12120   */\n      0x00\n        /* \"#utility.yul\":12111:12117   */\n      dup3\n        /* \"#utility.yul\":12107:12121   */\n      add\n        /* \"#utility.yul\":12100:12158   */\n      mstore\n        /* \"#utility.yul\":12192:12206   */\n      0x6164792072657665616c65640000000000000000000000000000000000000000\n        /* \"#utility.yul\":12187:12189   */\n      0x20\n        /* \"#utility.yul\":12179:12185   */\n      dup3\n        /* \"#utility.yul\":12175:12190   */\n      add\n        /* \"#utility.yul\":12168:12207   */\n      mstore\n        /* \"#utility.yul\":11983:12214   */\n      pop\n      jump\t// out\n        /* \"#utility.yul\":12220:12586   */\n    tag_120:\n        /* \"#utility.yul\":12362:12365   */\n      0x00\n        /* \"#utility.yul\":12383:12450   */\n      tag_243\n        /* \"#utility.yul\":12447:12449   */\n      0x2c\n        /* \"#utility.yul\":12442:12445   */\n      dup4\n        /* \"#utility.yul\":12383:12450   */\n      tag_105\n      jump\t// in\n    tag_243:\n        /* \"#utility.yul\":12376:12450   */\n      swap2\n      pop\n        /* \"#utility.yul\":12459:12552   */\n      tag_244\n        /* \"#utility.yul\":12548:12551   */\n      dup3\n        /* \"#utility.yul\":12459:12552   */\n      tag_119\n      jump\t// in\n    tag_244:\n        /* \"#utility.yul\":12577:12579   */\n      0x40\n        /* \"#utility.yul\":12572:12575   */\n      dup3\n        /* \"#utility.yul\":12568:12580   */\n      add\n        /* \"#utility.yul\":12561:12580   */\n      swap1\n      pop\n        /* \"#utility.yul\":12220:12586   */\n      swap2\n      swap1\n      pop\n      jump\t// out\n        /* \"#utility.yul\":12592:13011   */\n    tag_72:\n        /* \"#utility.yul\":12758:12762   */\n      0x00\n        /* \"#utility.yul\":12796:12798   */\n      0x20\n        /* \"#utility.yul\":12785:12794   */\n      dup3\n        /* \"#utility.yul\":12781:12799   */\n      add\n        /* \"#utility.yul\":12773:12799   */\n      swap1\n      pop\n        /* \"#utility.yul\":12845:12854   */\n      dup2\n        /* \"#utility.yul\":12839:12843   */\n      dup2\n        /* \"#utility.yul\":12835:12855   */\n      sub\n        /* \"#utility.yul\":12831:12832   */\n      0x00\n        /* \"#utility.yul\":12820:12829   */\n      dup4\n        /* \"#utility.yul\":12816:12833   */\n      add\n        /* \"#utility.yul\":12809:12856   */\n      mstore\n        /* \"#utility.yul\":12873:13004   */\n      tag_246\n        /* \"#utility.yul\":12999:13003   */\n      dup2\n        /* \"#utility.yul\":12873:13004   */\n      tag_120\n      jump\t// in\n    tag_246:\n        /* \"#utility.yul\":12865:13004   */\n      swap1\n      pop\n        /* \"#utility.yul\":12592:13011   */\n      swap2\n      swap1\n      pop\n      jump\t// out\n        /* \"#utility.yul\":13017:13267   */\n    tag_121:\n        /* \"#utility.yul\":13157:13191   */\n      0x436f6d6d697452657665616c3a3a72657665616c416e737765723a2052657665\n        /* \"#utility.yul\":13153:13154   */\n      0x00\n        /* \"#utility.yul\":13145:13151   */\n      dup3\n        /* \"#utility.yul\":13141:13155   */\n      add\n        /* \"#utility.yul\":13134:13192   */\n      mstore\n        /* \"#utility.yul\":13226:13259   */\n      0x616c6564206861736820646f6573206e6f74206d6174636820636f6d6d697400\n        /* \"#utility.yul\":13221:13223   */\n      0x20\n        /* \"#utility.yul\":13213:13219   */\n      dup3\n        /* \"#utility.yul\":13209:13224   */\n      add\n        /* \"#utility.yul\":13202:13260   */\n      mstore\n        /* \"#utility.yul\":13017:13267   */\n      pop\n      jump\t// out\n        /* \"#utility.yul\":13273:13639   */\n    tag_122:\n        /* \"#utility.yul\":13415:13418   */\n      0x00\n        /* \"#utility.yul\":13436:13503   */\n      tag_249\n        /* \"#utility.yul\":13500:13502   */\n      0x3f\n        /* \"#utility.yul\":13495:13498   */\n      dup4\n        /* \"#utility.yul\":13436:13503   */\n      tag_105\n      jump\t// in\n    tag_249:\n        /* \"#utility.yul\":13429:13503   */\n      swap2\n      pop\n        /* \"#utility.yul\":13512:13605   */\n      tag_250\n        /* \"#utility.yul\":13601:13604   */\n      dup3\n        /* \"#utility.yul\":13512:13605   */\n      tag_121\n      jump\t// in\n    tag_250:\n        /* \"#utility.yul\":13630:13632   */\n      0x40\n        /* \"#utility.yul\":13625:13628   */\n      dup3\n        /* \"#utility.yul\":13621:13633   */\n      add\n        /* \"#utility.yul\":13614:13633   */\n      swap1\n      pop\n        /* \"#utility.yul\":13273:13639   */\n      swap2\n      swap1\n      pop\n      jump\t// out\n        /* \"#utility.yul\":13645:14064   */\n    tag_76:\n        /* \"#utility.yul\":13811:13815   */\n      0x00\n        /* \"#utility.yul\":13849:13851   */\n      0x20\n        /* \"#utility.yul\":13838:13847   */\n      dup3\n        /* \"#utility.yul\":13834:13852   */\n      add\n        /* \"#utility.yul\":13826:13852   */\n      swap1\n      pop\n        /* \"#utility.yul\":13898:13907   */\n      dup2\n        /* \"#utility.yul\":13892:13896   */\n      dup2\n        /* \"#utility.yul\":13888:13908   */\n      sub\n        /* \"#utility.yul\":13884:13885   */\n      0x00\n        /* \"#utility.yul\":13873:13882   */\n      dup4\n        /* \"#utility.yul\":13869:13886   */\n      add\n        /* \"#utility.yul\":13862:13909   */\n      mstore\n        /* \"#utility.yul\":13926:14057   */\n      tag_252\n        /* \"#utility.yul\":14052:14056   */\n      dup2\n        /* \"#utility.yul\":13926:14057   */\n      tag_122\n      jump\t// in\n    tag_252:\n        /* \"#utility.yul\":13918:14057   */\n      swap1\n      pop\n        /* \"#utility.yul\":13645:14064   */\n      swap2\n      swap1\n      pop\n      jump\t// out\n        /* \"#utility.yul\":14070:14512   */\n    tag_78:\n        /* \"#utility.yul\":14219:14223   */\n      0x00\n        /* \"#utility.yul\":14257:14259   */\n      0x60\n        /* \"#utility.yul\":14246:14255   */\n      dup3\n        /* \"#utility.yul\":14242:14260   */\n      add\n        /* \"#utility.yul\":14234:14260   */\n      swap1\n      pop\n        /* \"#utility.yul\":14270:14341   */\n      tag_254\n        /* \"#utility.yul\":14338:14339   */\n      0x00\n        /* \"#utility.yul\":14327:14336   */\n      dup4\n        /* \"#utility.yul\":14323:14340   */\n      add\n        /* \"#utility.yul\":14314:14320   */\n      dup7\n        /* \"#utility.yul\":14270:14341   */\n      tag_117\n      jump\t// in\n    tag_254:\n        /* \"#utility.yul\":14351:14423   */\n      tag_255\n        /* \"#utility.yul\":14419:14421   */\n      0x20\n        /* \"#utility.yul\":14408:14417   */\n      dup4\n        /* \"#utility.yul\":14404:14422   */\n      add\n        /* \"#utility.yul\":14395:14401   */\n      dup6\n        /* \"#utility.yul\":14351:14423   */\n      tag_88\n      jump\t// in\n    tag_255:\n        /* \"#utility.yul\":14433:14505   */\n      tag_256\n        /* \"#utility.yul\":14501:14503   */\n      0x40\n        /* \"#utility.yul\":14490:14499   */\n      dup4\n        /* \"#utility.yul\":14486:14504   */\n      add\n        /* \"#utility.yul\":14477:14483   */\n      dup5\n        /* \"#utility.yul\":14433:14505   */\n      tag_88\n      jump\t// in\n    tag_256:\n        /* \"#utility.yul\":14070:14512   */\n      swap5\n      swap4\n      pop\n      pop\n      pop\n      pop\n      jump\t// out\n        /* \"#utility.yul\":14518:14956   */\n    tag_81:\n        /* \"#utility.yul\":14665:14669   */\n      0x00\n        /* \"#utility.yul\":14703:14705   */\n      0x60\n        /* \"#utility.yul\":14692:14701   */\n      dup3\n        /* \"#utility.yul\":14688:14706   */\n      add\n        /* \"#utility.yul\":14680:14706   */\n      swap1\n      pop\n        /* \"#utility.yul\":14716:14787   */\n      tag_258\n        /* \"#utility.yul\":14784:14785   */\n      0x00\n        /* \"#utility.yul\":14773:14782   */\n      dup4\n        /* \"#utility.yul\":14769:14786   */\n      add\n        /* \"#utility.yul\":14760:14766   */\n      dup7\n        /* \"#utility.yul\":14716:14787   */\n      tag_117\n      jump\t// in\n    tag_258:\n        /* \"#utility.yul\":14797:14869   */\n      tag_259\n        /* \"#utility.yul\":14865:14867   */\n      0x20\n        /* \"#utility.yul\":14854:14863   */\n      dup4\n        /* \"#utility.yul\":14850:14868   */\n      add\n        /* \"#utility.yul\":14841:14847   */\n      dup6\n        /* \"#utility.yul\":14797:14869   */\n      tag_88\n      jump\t// in\n    tag_259:\n        /* \"#utility.yul\":14879:14949   */\n      tag_260\n        /* \"#utility.yul\":14945:14947   */\n      0x40\n        /* \"#utility.yul\":14934:14943   */\n      dup4\n        /* \"#utility.yul\":14930:14948   */\n      add\n        /* \"#utility.yul\":14921:14927   */\n      dup5\n        /* \"#utility.yul\":14879:14949   */\n      tag_96\n      jump\t// in\n    tag_260:\n        /* \"#utility.yul\":14518:14956   */\n      swap5\n      swap4\n      pop\n      pop\n      pop\n      pop\n      jump\t// out\n\n    auxdata: 0xa26469706673582212204d2026d255c8314d9f0ca7b20fa0615b37d425ddd183e3e001c0ec9172d489c664736f6c63430008180033\n}\n",
				"bytecode": {
					"linkReferences": {},
					"object": "608060405260645f806101000a81548160ff021916908360ff160217905550348015610029575f80fd5b506111b6806100375f395ff3fe608060405234801561000f575f80fd5b506004361061007b575f3560e01c80637b43a8e6116100595780637b43a8e6146100e95780638dddbf361461011b578063de8e90331461014b578063f14fcbc8146101675761007b565b80633cf5040a1461007f5780636ac5db19146100af578063701fd0f1146100cd575b5f80fd5b610099600480360381019061009491906109b9565b610183565b6040516100a691906109f3565b60405180910390f35b6100b76101b4565b6040516100c49190610a27565b60405180910390f35b6100e760048036038101906100e291906109b9565b6101c4565b005b61010360048036038101906100fe9190610a9a565b610582565b60405161011293929190610b01565b60405180910390f35b61013560048036038101906101309190610b36565b6105c8565b60405161014291906109f3565b60405180910390f35b61016560048036038101906101609190610b36565b6105fc565b005b610181600480360381019061017c91906109b9565b6107b0565b005b5f3082604051602001610197929190610bd9565b604051602081830303815290604052805190602001209050919050565b5f8054906101000a900460ff1681565b5f151560015f3373ffffffffffffffffffffffffffffffffffffffff1673ffffffffffffffffffffffffffffffffffffffff1681526020019081526020015f2060010160089054906101000a900460ff16151514610257576040517f08c379a000000000000000000000000000000000000000000000000000000000815260040161024e90610c84565b60405180910390fd5b6001805f3373ffffffffffffffffffffffffffffffffffffffff1673ffffffffffffffffffffffffffffffffffffffff1681526020019081526020015f2060010160086101000a81548160ff02191690831515021790555060015f3373ffffffffffffffffffffffffffffffffffffffff1673ffffffffffffffffffffffffffffffffffffffff1681526020019081526020015f205f01546102f882610183565b14610338576040517f08c379a000000000000000000000000000000000000000000000000000000000815260040161032f90610d12565b60405180910390fd5b60015f3373ffffffffffffffffffffffffffffffffffffffff1673ffffffffffffffffffffffffffffffffffffffff1681526020019081526020015f206001015f9054906101000a900467ffffffffffffffff1667ffffffffffffffff164367ffffffffffffffff16116103e1576040517f08c379a00000000000000000000000000000000000000000000000000000000081526004016103d890610dc6565b60405180910390fd5b60fa60015f3373ffffffffffffffffffffffffffffffffffffffff1673ffffffffffffffffffffffffffffffffffffffff1681526020019081526020015f206001015f9054906101000a900467ffffffffffffffff166104419190610e11565b67ffffffffffffffff164367ffffffffffffffff161115610497576040517f08c379a000000000000000000000000000000000000000000000000000000000815260040161048e90610ebc565b60405180910390fd5b5f60015f3373ffffffffffffffffffffffffffffffffffffffff1673ffffffffffffffffffffffffffffffffffffffff1681526020019081526020015f206001015f9054906101000a900467ffffffffffffffff1667ffffffffffffffff164090505f805f9054906101000a900460ff1660ff16828460405160200161051e929190610eda565b604051602081830303815290604052805190602001205f1c6105409190610f3b565b90507fbc016dd1cadeaefcb851af7a0a93532e0023d536894b730801f7bcfe7065bcc233848360405161057593929190610f89565b60405180910390a1505050565b6001602052805f5260405f205f91509050805f015490806001015f9054906101000a900467ffffffffffffffff16908060010160089054906101000a900460ff16905083565b5f3083836040516020016105de93929190610fbe565b60405160208183030381529060405280519060200120905092915050565b5f151560015f3373ffffffffffffffffffffffffffffffffffffffff1673ffffffffffffffffffffffffffffffffffffffff1681526020019081526020015f2060010160089054906101000a900460ff1615151461068f576040517f08c379a00000000000000000000000000000000000000000000000000000000081526004016106869061106a565b60405180910390fd5b6001805f3373ffffffffffffffffffffffffffffffffffffffff1673ffffffffffffffffffffffffffffffffffffffff1681526020019081526020015f2060010160086101000a81548160ff02191690831515021790555060015f3373ffffffffffffffffffffffffffffffffffffffff1673ffffffffffffffffffffffffffffffffffffffff1681526020019081526020015f205f015461073183836105c8565b14610771576040517f08c379a0000000000000000000000000000000000000000000000000000000008152600401610768906110f8565b60405180910390fd5b7f8bed02c4d61e56ed1d90657e7a0ba48f15cca20fcc2899d7235221b2cb0423a63383836040516107a493929190611116565b60405180910390a15050565b8060015f3373ffffffffffffffffffffffffffffffffffffffff1673ffffffffffffffffffffffffffffffffffffffff1681526020019081526020015f205f01819055504360015f3373ffffffffffffffffffffffffffffffffffffffff1673ffffffffffffffffffffffffffffffffffffffff1681526020019081526020015f206001015f6101000a81548167ffffffffffffffff021916908367ffffffffffffffff1602179055505f60015f3373ffffffffffffffffffffffffffffffffffffffff1673ffffffffffffffffffffffffffffffffffffffff1681526020019081526020015f2060010160086101000a81548160ff0219169083151502179055507f3c1a1f8f38335b17f751c6da4ba7d1865f26b3997535176f5080de9fad8916033360015f3373ffffffffffffffffffffffffffffffffffffffff1673ffffffffffffffffffffffffffffffffffffffff1681526020019081526020015f205f015460015f3373ffffffffffffffffffffffffffffffffffffffff1673ffffffffffffffffffffffffffffffffffffffff1681526020019081526020015f206001015f9054906101000a900467ffffffffffffffff166040516109779392919061114b565b60405180910390a150565b5f80fd5b5f819050919050565b61099881610986565b81146109a2575f80fd5b50565b5f813590506109b38161098f565b92915050565b5f602082840312156109ce576109cd610982565b5b5f6109db848285016109a5565b91505092915050565b6109ed81610986565b82525050565b5f602082019050610a065f8301846109e4565b92915050565b5f60ff82169050919050565b610a2181610a0c565b82525050565b5f602082019050610a3a5f830184610a18565b92915050565b5f73ffffffffffffffffffffffffffffffffffffffff82169050919050565b5f610a6982610a40565b9050919050565b610a7981610a5f565b8114610a83575f80fd5b50565b5f81359050610a9481610a70565b92915050565b5f60208284031215610aaf57610aae610982565b5b5f610abc84828501610a86565b91505092915050565b5f67ffffffffffffffff82169050919050565b610ae181610ac5565b82525050565b5f8115159050919050565b610afb81610ae7565b82525050565b5f606082019050610b145f8301866109e4565b610b216020830185610ad8565b610b2e6040830184610af2565b949350505050565b5f8060408385031215610b4c57610b4b610982565b5b5f610b59858286016109a5565b9250506020610b6a858286016109a5565b9150509250929050565b5f8160601b9050919050565b5f610b8a82610b74565b9050919050565b5f610b9b82610b80565b9050919050565b610bb3610bae82610a5f565b610b91565b82525050565b5f819050919050565b610bd3610bce82610986565b610bb9565b82525050565b5f610be48285610ba2565b601482019150610bf48284610bc2565b6020820191508190509392505050565b5f82825260208201905092915050565b7f436f6d6d697452657665616c3a3a72657665616c3a20416c72656164792072655f8201527f7665616c65640000000000000000000000000000000000000000000000000000602082015250565b5f610c6e602683610c04565b9150610c7982610c14565b604082019050919050565b5f6020820190508181035f830152610c9b81610c62565b9050919050565b7f436f6d6d697452657665616c3a3a72657665616c3a2052657665616c656420685f8201527f61736820646f6573206e6f74206d6174636820636f6d6d697400000000000000602082015250565b5f610cfc603983610c04565b9150610d0782610ca2565b604082019050919050565b5f6020820190508181035f830152610d2981610cf0565b9050919050565b7f436f6d6d697452657665616c3a3a72657665616c3a2052657665616c20616e645f8201527f20636f6d6d69742068617070656e6564206f6e207468652073616d6520626c6f60208201527f636b000000000000000000000000000000000000000000000000000000000000604082015250565b5f610db0604283610c04565b9150610dbb82610d30565b606082019050919050565b5f6020820190508181035f830152610ddd81610da4565b9050919050565b7f4e487b71000000000000000000000000000000000000000000000000000000005f52601160045260245ffd5b5f610e1b82610ac5565b9150610e2683610ac5565b9250828201905067ffffffffffffffff811115610e4657610e45610de4565b5b92915050565b7f436f6d6d697452657665616c3a3a72657665616c3a2052657665616c656420745f8201527f6f6f206c61746500000000000000000000000000000000000000000000000000602082015250565b5f610ea6602783610c04565b9150610eb182610e4c565b604082019050919050565b5f6020820190508181035f830152610ed381610e9a565b9050919050565b5f610ee58285610bc2565b602082019150610ef58284610bc2565b6020820191508190509392505050565b5f819050919050565b7f4e487b71000000000000000000000000000000000000000000000000000000005f52601260045260245ffd5b5f610f4582610f05565b9150610f5083610f05565b925082610f6057610f5f610f0e565b5b828206905092915050565b610f7481610a5f565b82525050565b610f8381610f05565b82525050565b5f606082019050610f9c5f830186610f6b565b610fa960208301856109e4565b610fb66040830184610f7a565b949350505050565b5f610fc98286610ba2565b601482019150610fd98285610bc2565b602082019150610fe98284610bc2565b602082019150819050949350505050565b7f436f6d6d697452657665616c3a3a72657665616c416e737765723a20416c72655f8201527f6164792072657665616c65640000000000000000000000000000000000000000602082015250565b5f611054602c83610c04565b915061105f82610ffa565b604082019050919050565b5f6020820190508181035f83015261108181611048565b9050919050565b7f436f6d6d697452657665616c3a3a72657665616c416e737765723a20526576655f8201527f616c6564206861736820646f6573206e6f74206d6174636820636f6d6d697400602082015250565b5f6110e2603f83610c04565b91506110ed82611088565b604082019050919050565b5f6020820190508181035f83015261110f816110d6565b9050919050565b5f6060820190506111295f830186610f6b565b61113660208301856109e4565b61114360408301846109e4565b949350505050565b5f60608201905061115e5f830186610f6b565b61116b60208301856109e4565b6111786040830184610ad8565b94935050505056fea26469706673582212204d2026d255c8314d9f0ca7b20fa0615b37d425ddd183e3e001c0ec9172d489c664736f6c63430008180033",
					"opcodes": "PUSH1 0x80 PUSH1 0x40 MSTORE PUSH1 0x64 PUSH0 DUP1 PUSH2 0x100 EXP DUP2 SLOAD DUP2 PUSH1 0xFF MUL NOT AND SWAP1 DUP4 PUSH1 0xFF AND MUL OR SWAP1 SSTORE POP CALLVALUE DUP1 ISZERO PUSH2 0x29 JUMPI PUSH0 DUP1 REVERT JUMPDEST POP PUSH2 0x11B6 DUP1 PUSH2 0x37 PUSH0 CODECOPY PUSH0 RETURN INVALID PUSH1 0x80 PUSH1 0x40 MSTORE CALLVALUE DUP1 ISZERO PUSH2 0xF JUMPI PUSH0 DUP1 REVERT JUMPDEST POP PUSH1 0x4 CALLDATASIZE LT PUSH2 0x7B JUMPI PUSH0 CALLDATALOAD PUSH1 0xE0 SHR DUP1 PUSH4 0x7B43A8E6 GT PUSH2 0x59 JUMPI DUP1 PUSH4 0x7B43A8E6 EQ PUSH2 0xE9 JUMPI DUP1 PUSH4 0x8DDDBF36 EQ PUSH2 0x11B JUMPI DUP1 PUSH4 0xDE8E9033 EQ PUSH2 0x14B JUMPI DUP1 PUSH4 0xF14FCBC8 EQ PUSH2 0x167 JUMPI PUSH2 0x7B JUMP JUMPDEST DUP1 PUSH4 0x3CF5040A EQ PUSH2 0x7F JUMPI DUP1 PUSH4 0x6AC5DB19 EQ PUSH2 0xAF JUMPI DUP1 PUSH4 0x701FD0F1 EQ PUSH2 0xCD JUMPI JUMPDEST PUSH0 DUP1 REVERT JUMPDEST PUSH2 0x99 PUSH1 0x4 DUP1 CALLDATASIZE SUB DUP2 ADD SWAP1 PUSH2 0x94 SWAP2 SWAP1 PUSH2 0x9B9 JUMP JUMPDEST PUSH2 0x183 JUMP JUMPDEST PUSH1 0x40 MLOAD PUSH2 0xA6 SWAP2 SWAP1 PUSH2 0x9F3 JUMP JUMPDEST PUSH1 0x40 MLOAD DUP1 SWAP2 SUB SWAP1 RETURN JUMPDEST PUSH2 0xB7 PUSH2 0x1B4 JUMP JUMPDEST PUSH1 0x40 MLOAD PUSH2 0xC4 SWAP2 SWAP1 PUSH2 0xA27 JUMP JUMPDEST PUSH1 0x40 MLOAD DUP1 SWAP2 SUB SWAP1 RETURN JUMPDEST PUSH2 0xE7 PUSH1 0x4 DUP1 CALLDATASIZE SUB DUP2 ADD SWAP1 PUSH2 0xE2 SWAP2 SWAP1 PUSH2 0x9B9 JUMP JUMPDEST PUSH2 0x1C4 JUMP JUMPDEST STOP JUMPDEST PUSH2 0x103 PUSH1 0x4 DUP1 CALLDATASIZE SUB DUP2 ADD SWAP1 PUSH2 0xFE SWAP2 SWAP1 PUSH2 0xA9A JUMP JUMPDEST PUSH2 0x582 JUMP JUMPDEST PUSH1 0x40 MLOAD PUSH2 0x112 SWAP4 SWAP3 SWAP2 SWAP1 PUSH2 0xB01 JUMP JUMPDEST PUSH1 0x40 MLOAD DUP1 SWAP2 SUB SWAP1 RETURN JUMPDEST PUSH2 0x135 PUSH1 0x4 DUP1 CALLDATASIZE SUB DUP2 ADD SWAP1 PUSH2 0x130 SWAP2 SWAP1 PUSH2 0xB36 JUMP JUMPDEST PUSH2 0x5C8 JUMP JUMPDEST PUSH1 0x40 MLOAD PUSH2 0x142 SWAP2 SWAP1 PUSH2 0x9F3 JUMP JUMPDEST PUSH1 0x40 MLOAD DUP1 SWAP2 SUB SWAP1 RETURN JUMPDEST PUSH2 0x165 PUSH1 0x4 DUP1 CALLDATASIZE SUB DUP2 ADD SWAP1 PUSH2 0x160 SWAP2 SWAP1 PUSH2 0xB36 JUMP JUMPDEST PUSH2 0x5FC JUMP JUMPDEST STOP JUMPDEST PUSH2 0x181 PUSH1 0x4 DUP1 CALLDATASIZE SUB DUP2 ADD SWAP1 PUSH2 0x17C SWAP2 SWAP1 PUSH2 0x9B9 JUMP JUMPDEST PUSH2 0x7B0 JUMP JUMPDEST STOP JUMPDEST PUSH0 ADDRESS DUP3 PUSH1 0x40 MLOAD PUSH1 0x20 ADD PUSH2 0x197 SWAP3 SWAP2 SWAP1 PUSH2 0xBD9 JUMP JUMPDEST PUSH1 0x40 MLOAD PUSH1 0x20 DUP2 DUP4 SUB SUB DUP2 MSTORE SWAP1 PUSH1 0x40 MSTORE DUP1 MLOAD SWAP1 PUSH1 0x20 ADD KECCAK256 SWAP1 POP SWAP2 SWAP1 POP JUMP JUMPDEST PUSH0 DUP1 SLOAD SWAP1 PUSH2 0x100 EXP SWAP1 DIV PUSH1 0xFF AND DUP2 JUMP JUMPDEST PUSH0 ISZERO ISZERO PUSH1 0x1 PUSH0 CALLER PUSH20 0xFFFFFFFFFFFFFFFFFFFFFFFFFFFFFFFFFFFFFFFF AND PUSH20 0xFFFFFFFFFFFFFFFFFFFFFFFFFFFFFFFFFFFFFFFF AND DUP2 MSTORE PUSH1 0x20 ADD SWAP1 DUP2 MSTORE PUSH1 0x20 ADD PUSH0 KECCAK256 PUSH1 0x1 ADD PUSH1 0x8 SWAP1 SLOAD SWAP1 PUSH2 0x100 EXP SWAP1 DIV PUSH1 0xFF AND ISZERO ISZERO EQ PUSH2 0x257 JUMPI PUSH1 0x40 MLOAD PUSH32 0x8C379A000000000000000000000000000000000000000000000000000000000 DUP2 MSTORE PUSH1 0x4 ADD PUSH2 0x24E SWAP1 PUSH2 0xC84 JUMP JUMPDEST PUSH1 0x40 MLOAD DUP1 SWAP2 SUB SWAP1 REVERT JUMPDEST PUSH1 0x1 DUP1 PUSH0 CALLER PUSH20 0xFFFFFFFFFFFFFFFFFFFFFFFFFFFFFFFFFFFFFFFF AND PUSH20 0xFFFFFFFFFFFFFFFFFFFFFFFFFFFFFFFFFFFFFFFF AND DUP2 MSTORE PUSH1 0x20 ADD SWAP1 DUP2 MSTORE PUSH1 0x20 ADD PUSH0 KECCAK256 PUSH1 0x1 ADD PUSH1 0x8 PUSH2 0x100 EXP DUP2 SLOAD DUP2 PUSH1 0xFF MUL NOT AND SWAP1 DUP4 ISZERO ISZERO MUL OR SWAP1 SSTORE POP PUSH1 0x1 PUSH0 CALLER PUSH20 0xFFFFFFFFFFFFFFFFFFFFFFFFFFFFFFFFFFFFFFFF AND PUSH20 0xFFFFFFFFFFFFFFFFFFFFFFFFFFFFFFFFFFFFFFFF AND DUP2 MSTORE PUSH1 0x20 ADD SWAP1 DUP2 MSTORE PUSH1 0x20 ADD PUSH0 KECCAK256 PUSH0 ADD SLOAD PUSH2 0x2F8 DUP3 PUSH2 0x183 JUMP JUMPDEST EQ PUSH2 0x338 JUMPI PUSH1 0x40 MLOAD PUSH32 0x8C379A000000000000000000000000000000000000000000000000000000000 DUP2 MSTORE PUSH1 0x4 ADD PUSH2 0x32F SWAP1 PUSH2 0xD12 JUMP JUMPDEST PUSH1 0x40 MLOAD DUP1 SWAP2 SUB SWAP1 REVERT JUMPDEST PUSH1 0x1 PUSH0 CALLER PUSH20 0xFFFFFFFFFFFFFFFFFFFFFFFFFFFFFFFFFFFFFFFF AND PUSH20 0xFFFFFFFFFFFFFFFFFFFFFFFFFFFFFFFFFFFFFFFF AND DUP2 MSTORE PUSH1 0x20 ADD SWAP1 DUP2 MSTORE PUSH1 0x20 ADD PUSH0 KECCAK256 PUSH1 0x1 ADD PUSH0 SWAP1 SLOAD SWAP1 PUSH2 0x100 EXP SWAP1 DIV PUSH8 0xFFFFFFFFFFFFFFFF AND PUSH8 0xFFFFFFFFFFFFFFFF AND NUMBER PUSH8 0xFFFFFFFFFFFFFFFF AND GT PUSH2 0x3E1 JUMPI PUSH1 0x40 MLOAD PUSH32 0x8C379A000000000000000000000000000000000000000000000000000000000 DUP2 MSTORE PUSH1 0x4 ADD PUSH2 0x3D8 SWAP1 PUSH2 0xDC6 JUMP JUMPDEST PUSH1 0x40 MLOAD DUP1 SWAP2 SUB SWAP1 REVERT JUMPDEST PUSH1 0xFA PUSH1 0x1 PUSH0 CALLER PUSH20 0xFFFFFFFFFFFFFFFFFFFFFFFFFFFFFFFFFFFFFFFF AND PUSH20 0xFFFFFFFFFFFFFFFFFFFFFFFFFFFFFFFFFFFFFFFF AND DUP2 MSTORE PUSH1 0x20 ADD SWAP1 DUP2 MSTORE PUSH1 0x20 ADD PUSH0 KECCAK256 PUSH1 0x1 ADD PUSH0 SWAP1 SLOAD SWAP1 PUSH2 0x100 EXP SWAP1 DIV PUSH8 0xFFFFFFFFFFFFFFFF AND PUSH2 0x441 SWAP2 SWAP1 PUSH2 0xE11 JUMP JUMPDEST PUSH8 0xFFFFFFFFFFFFFFFF AND NUMBER PUSH8 0xFFFFFFFFFFFFFFFF AND GT ISZERO PUSH2 0x497 JUMPI PUSH1 0x40 MLOAD PUSH32 0x8C379A000000000000000000000000000000000000000000000000000000000 DUP2 MSTORE PUSH1 0x4 ADD PUSH2 0x48E SWAP1 PUSH2 0xEBC JUMP JUMPDEST PUSH1 0x40 MLOAD DUP1 SWAP2 SUB SWAP1 REVERT JUMPDEST PUSH0 PUSH1 0x1 PUSH0 CALLER PUSH20 0xFFFFFFFFFFFFFFFFFFFFFFFFFFFFFFFFFFFFFFFF AND PUSH20 0xFFFFFFFFFFFFFFFFFFFFFFFFFFFFFFFFFFFFFFFF AND DUP2 MSTORE PUSH1 0x20 ADD SWAP1 DUP2 MSTORE PUSH1 0x20 ADD PUSH0 KECCAK256 PUSH1 0x1 ADD PUSH0 SWAP1 SLOAD SWAP1 PUSH2 0x100 EXP SWAP1 DIV PUSH8 0xFFFFFFFFFFFFFFFF AND PUSH8 0xFFFFFFFFFFFFFFFF AND BLOCKHASH SWAP1 POP PUSH0 DUP1 PUSH0 SWAP1 SLOAD SWAP1 PUSH2 0x100 EXP SWAP1 DIV PUSH1 0xFF AND PUSH1 0xFF AND DUP3 DUP5 PUSH1 0x40 MLOAD PUSH1 0x20 ADD PUSH2 0x51E SWAP3 SWAP2 SWAP1 PUSH2 0xEDA JUMP JUMPDEST PUSH1 0x40 MLOAD PUSH1 0x20 DUP2 DUP4 SUB SUB DUP2 MSTORE SWAP1 PUSH1 0x40 MSTORE DUP1 MLOAD SWAP1 PUSH1 0x20 ADD KECCAK256 PUSH0 SHR PUSH2 0x540 SWAP2 SWAP1 PUSH2 0xF3B JUMP JUMPDEST SWAP1 POP PUSH32 0xBC016DD1CADEAEFCB851AF7A0A93532E0023D536894B730801F7BCFE7065BCC2 CALLER DUP5 DUP4 PUSH1 0x40 MLOAD PUSH2 0x575 SWAP4 SWAP3 SWAP2 SWAP1 PUSH2 0xF89 JUMP JUMPDEST PUSH1 0x40 MLOAD DUP1 SWAP2 SUB SWAP1 LOG1 POP POP POP JUMP JUMPDEST PUSH1 0x1 PUSH1 0x20 MSTORE DUP1 PUSH0 MSTORE PUSH1 0x40 PUSH0 KECCAK256 PUSH0 SWAP2 POP SWAP1 POP DUP1 PUSH0 ADD SLOAD SWAP1 DUP1 PUSH1 0x1 ADD PUSH0 SWAP1 SLOAD SWAP1 PUSH2 0x100 EXP SWAP1 DIV PUSH8 0xFFFFFFFFFFFFFFFF AND SWAP1 DUP1 PUSH1 0x1 ADD PUSH1 0x8 SWAP1 SLOAD SWAP1 PUSH2 0x100 EXP SWAP1 DIV PUSH1 0xFF AND SWAP1 POP DUP4 JUMP JUMPDEST PUSH0 ADDRESS DUP4 DUP4 PUSH1 0x40 MLOAD PUSH1 0x20 ADD PUSH2 0x5DE SWAP4 SWAP3 SWAP2 SWAP1 PUSH2 0xFBE JUMP JUMPDEST PUSH1 0x40 MLOAD PUSH1 0x20 DUP2 DUP4 SUB SUB DUP2 MSTORE SWAP1 PUSH1 0x40 MSTORE DUP1 MLOAD SWAP1 PUSH1 0x20 ADD KECCAK256 SWAP1 POP SWAP3 SWAP2 POP POP JUMP JUMPDEST PUSH0 ISZERO ISZERO PUSH1 0x1 PUSH0 CALLER PUSH20 0xFFFFFFFFFFFFFFFFFFFFFFFFFFFFFFFFFFFFFFFF AND PUSH20 0xFFFFFFFFFFFFFFFFFFFFFFFFFFFFFFFFFFFFFFFF AND DUP2 MSTORE PUSH1 0x20 ADD SWAP1 DUP2 MSTORE PUSH1 0x20 ADD PUSH0 KECCAK256 PUSH1 0x1 ADD PUSH1 0x8 SWAP1 SLOAD SWAP1 PUSH2 0x100 EXP SWAP1 DIV PUSH1 0xFF AND ISZERO ISZERO EQ PUSH2 0x68F JUMPI PUSH1 0x40 MLOAD PUSH32 0x8C379A000000000000000000000000000000000000000000000000000000000 DUP2 MSTORE PUSH1 0x4 ADD PUSH2 0x686 SWAP1 PUSH2 0x106A JUMP JUMPDEST PUSH1 0x40 MLOAD DUP1 SWAP2 SUB SWAP1 REVERT JUMPDEST PUSH1 0x1 DUP1 PUSH0 CALLER PUSH20 0xFFFFFFFFFFFFFFFFFFFFFFFFFFFFFFFFFFFFFFFF AND PUSH20 0xFFFFFFFFFFFFFFFFFFFFFFFFFFFFFFFFFFFFFFFF AND DUP2 MSTORE PUSH1 0x20 ADD SWAP1 DUP2 MSTORE PUSH1 0x20 ADD PUSH0 KECCAK256 PUSH1 0x1 ADD PUSH1 0x8 PUSH2 0x100 EXP DUP2 SLOAD DUP2 PUSH1 0xFF MUL NOT AND SWAP1 DUP4 ISZERO ISZERO MUL OR SWAP1 SSTORE POP PUSH1 0x1 PUSH0 CALLER PUSH20 0xFFFFFFFFFFFFFFFFFFFFFFFFFFFFFFFFFFFFFFFF AND PUSH20 0xFFFFFFFFFFFFFFFFFFFFFFFFFFFFFFFFFFFFFFFF AND DUP2 MSTORE PUSH1 0x20 ADD SWAP1 DUP2 MSTORE PUSH1 0x20 ADD PUSH0 KECCAK256 PUSH0 ADD SLOAD PUSH2 0x731 DUP4 DUP4 PUSH2 0x5C8 JUMP JUMPDEST EQ PUSH2 0x771 JUMPI PUSH1 0x40 MLOAD PUSH32 0x8C379A000000000000000000000000000000000000000000000000000000000 DUP2 MSTORE PUSH1 0x4 ADD PUSH2 0x768 SWAP1 PUSH2 0x10F8 JUMP JUMPDEST PUSH1 0x40 MLOAD DUP1 SWAP2 SUB SWAP1 REVERT JUMPDEST PUSH32 0x8BED02C4D61E56ED1D90657E7A0BA48F15CCA20FCC2899D7235221B2CB0423A6 CALLER DUP4 DUP4 PUSH1 0x40 MLOAD PUSH2 0x7A4 SWAP4 SWAP3 SWAP2 SWAP1 PUSH2 0x1116 JUMP JUMPDEST PUSH1 0x40 MLOAD DUP1 SWAP2 SUB SWAP1 LOG1 POP POP JUMP JUMPDEST DUP1 PUSH1 0x1 PUSH0 CALLER PUSH20 0xFFFFFFFFFFFFFFFFFFFFFFFFFFFFFFFFFFFFFFFF AND PUSH20 0xFFFFFFFFFFFFFFFFFFFFFFFFFFFFFFFFFFFFFFFF AND DUP2 MSTORE PUSH1 0x20 ADD SWAP1 DUP2 MSTORE PUSH1 0x20 ADD PUSH0 KECCAK256 PUSH0 ADD DUP2 SWAP1 SSTORE POP NUMBER PUSH1 0x1 PUSH0 CALLER PUSH20 0xFFFFFFFFFFFFFFFFFFFFFFFFFFFFFFFFFFFFFFFF AND PUSH20 0xFFFFFFFFFFFFFFFFFFFFFFFFFFFFFFFFFFFFFFFF AND DUP2 MSTORE PUSH1 0x20 ADD SWAP1 DUP2 MSTORE PUSH1 0x20 ADD PUSH0 KECCAK256 PUSH1 0x1 ADD PUSH0 PUSH2 0x100 EXP DUP2 SLOAD DUP2 PUSH8 0xFFFFFFFFFFFFFFFF MUL NOT AND SWAP1 DUP4 PUSH8 0xFFFFFFFFFFFFFFFF AND MUL OR SWAP1 SSTORE POP PUSH0 PUSH1 0x1 PUSH0 CALLER PUSH20 0xFFFFFFFFFFFFFFFFFFFFFFFFFFFFFFFFFFFFFFFF AND PUSH20 0xFFFFFFFFFFFFFFFFFFFFFFFFFFFFFFFFFFFFFFFF AND DUP2 MSTORE PUSH1 0x20 ADD SWAP1 DUP2 MSTORE PUSH1 0x20 ADD PUSH0 KECCAK256 PUSH1 0x1 ADD PUSH1 0x8 PUSH2 0x100 EXP DUP2 SLOAD DUP2 PUSH1 0xFF MUL NOT AND SWAP1 DUP4 ISZERO ISZERO MUL OR SWAP1 SSTORE POP PUSH32 0x3C1A1F8F38335B17F751C6DA4BA7D1865F26B3997535176F5080DE9FAD891603 CALLER PUSH1 0x1 PUSH0 CALLER PUSH20 0xFFFFFFFFFFFFFFFFFFFFFFFFFFFFFFFFFFFFFFFF AND PUSH20 0xFFFFFFFFFFFFFFFFFFFFFFFFFFFFFFFFFFFFFFFF AND DUP2 MSTORE PUSH1 0x20 ADD SWAP1 DUP2 MSTORE PUSH1 0x20 ADD PUSH0 KECCAK256 PUSH0 ADD SLOAD PUSH1 0x1 PUSH0 CALLER PUSH20 0xFFFFFFFFFFFFFFFFFFFFFFFFFFFFFFFFFFFFFFFF AND PUSH20 0xFFFFFFFFFFFFFFFFFFFFFFFFFFFFFFFFFFFFFFFF AND DUP2 MSTORE PUSH1 0x20 ADD SWAP1 DUP2 MSTORE PUSH1 0x20 ADD PUSH0 KECCAK256 PUSH1 0x1 ADD PUSH0 SWAP1 SLOAD SWAP1 PUSH2 0x100 EXP SWAP1 DIV PUSH8 0xFFFFFFFFFFFFFFFF AND PUSH1 0x40 MLOAD PUSH2 0x977 SWAP4 SWAP3 SWAP2 SWAP1 PUSH2 0x114B JUMP JUMPDEST PUSH1 0x40 MLOAD DUP1 SWAP2 SUB SWAP1 LOG1 POP JUMP JUMPDEST PUSH0 DUP1 REVERT JUMPDEST PUSH0 DUP2 SWAP1 POP SWAP2 SWAP1 POP JUMP JUMPDEST PUSH2 0x998 DUP2 PUSH2 0x986 JUMP JUMPDEST DUP2 EQ PUSH2 0x9A2 JUMPI PUSH0 DUP1 REVERT JUMPDEST POP JUMP JUMPDEST PUSH0 DUP2 CALLDATALOAD SWAP1 POP PUSH2 0x9B3 DUP2 PUSH2 0x98F JUMP JUMPDEST SWAP3 SWAP2 POP POP JUMP JUMPDEST PUSH0 PUSH1 0x20 DUP3 DUP5 SUB SLT ISZERO PUSH2 0x9CE JUMPI PUSH2 0x9CD PUSH2 0x982 JUMP JUMPDEST JUMPDEST PUSH0 PUSH2 0x9DB DUP5 DUP3 DUP6 ADD PUSH2 0x9A5 JUMP JUMPDEST SWAP2 POP POP SWAP3 SWAP2 POP POP JUMP JUMPDEST PUSH2 0x9ED DUP2 PUSH2 0x986 JUMP JUMPDEST DUP3 MSTORE POP POP JUMP JUMPDEST PUSH0 PUSH1 0x20 DUP3 ADD SWAP1 POP PUSH2 0xA06 PUSH0 DUP4 ADD DUP5 PUSH2 0x9E4 JUMP JUMPDEST SWAP3 SWAP2 POP POP JUMP JUMPDEST PUSH0 PUSH1 0xFF DUP3 AND SWAP1 POP SWAP2 SWAP1 POP JUMP JUMPDEST PUSH2 0xA21 DUP2 PUSH2 0xA0C JUMP JUMPDEST DUP3 MSTORE POP POP JUMP JUMPDEST PUSH0 PUSH1 0x20 DUP3 ADD SWAP1 POP PUSH2 0xA3A PUSH0 DUP4 ADD DUP5 PUSH2 0xA18 JUMP JUMPDEST SWAP3 SWAP2 POP POP JUMP JUMPDEST PUSH0 PUSH20 0xFFFFFFFFFFFFFFFFFFFFFFFFFFFFFFFFFFFFFFFF DUP3 AND SWAP1 POP SWAP2 SWAP1 POP JUMP JUMPDEST PUSH0 PUSH2 0xA69 DUP3 PUSH2 0xA40 JUMP JUMPDEST SWAP1 POP SWAP2 SWAP1 POP JUMP JUMPDEST PUSH2 0xA79 DUP2 PUSH2 0xA5F JUMP JUMPDEST DUP2 EQ PUSH2 0xA83 JUMPI PUSH0 DUP1 REVERT JUMPDEST POP JUMP JUMPDEST PUSH0 DUP2 CALLDATALOAD SWAP1 POP PUSH2 0xA94 DUP2 PUSH2 0xA70 JUMP JUMPDEST SWAP3 SWAP2 POP POP JUMP JUMPDEST PUSH0 PUSH1 0x20 DUP3 DUP5 SUB SLT ISZERO PUSH2 0xAAF JUMPI PUSH2 0xAAE PUSH2 0x982 JUMP JUMPDEST JUMPDEST PUSH0 PUSH2 0xABC DUP5 DUP3 DUP6 ADD PUSH2 0xA86 JUMP JUMPDEST SWAP2 POP POP SWAP3 SWAP2 POP POP JUMP JUMPDEST PUSH0 PUSH8 0xFFFFFFFFFFFFFFFF DUP3 AND SWAP1 POP SWAP2 SWAP1 POP JUMP JUMPDEST PUSH2 0xAE1 DUP2 PUSH2 0xAC5 JUMP JUMPDEST DUP3 MSTORE POP POP JUMP JUMPDEST PUSH0 DUP2 ISZERO ISZERO SWAP1 POP SWAP2 SWAP1 POP JUMP JUMPDEST PUSH2 0xAFB DUP2 PUSH2 0xAE7 JUMP JUMPDEST DUP3 MSTORE POP POP JUMP JUMPDEST PUSH0 PUSH1 0x60 DUP3 ADD SWAP1 POP PUSH2 0xB14 PUSH0 DUP4 ADD DUP7 PUSH2 0x9E4 JUMP JUMPDEST PUSH2 0xB21 PUSH1 0x20 DUP4 ADD DUP6 PUSH2 0xAD8 JUMP JUMPDEST PUSH2 0xB2E PUSH1 0x40 DUP4 ADD DUP5 PUSH2 0xAF2 JUMP JUMPDEST SWAP5 SWAP4 POP POP POP POP JUMP JUMPDEST PUSH0 DUP1 PUSH1 0x40 DUP4 DUP6 SUB SLT ISZERO PUSH2 0xB4C JUMPI PUSH2 0xB4B PUSH2 0x982 JUMP JUMPDEST JUMPDEST PUSH0 PUSH2 0xB59 DUP6 DUP3 DUP7 ADD PUSH2 0x9A5 JUMP JUMPDEST SWAP3 POP POP PUSH1 0x20 PUSH2 0xB6A DUP6 DUP3 DUP7 ADD PUSH2 0x9A5 JUMP JUMPDEST SWAP2 POP POP SWAP3 POP SWAP3 SWAP1 POP JUMP JUMPDEST PUSH0 DUP2 PUSH1 0x60 SHL SWAP1 POP SWAP2 SWAP1 POP JUMP JUMPDEST PUSH0 PUSH2 0xB8A DUP3 PUSH2 0xB74 JUMP JUMPDEST SWAP1 POP SWAP2 SWAP1 POP JUMP JUMPDEST PUSH0 PUSH2 0xB9B DUP3 PUSH2 0xB80 JUMP JUMPDEST SWAP1 POP SWAP2 SWAP1 POP JUMP JUMPDEST PUSH2 0xBB3 PUSH2 0xBAE DUP3 PUSH2 0xA5F JUMP JUMPDEST PUSH2 0xB91 JUMP JUMPDEST DUP3 MSTORE POP POP JUMP JUMPDEST PUSH0 DUP2 SWAP1 POP SWAP2 SWAP1 POP JUMP JUMPDEST PUSH2 0xBD3 PUSH2 0xBCE DUP3 PUSH2 0x986 JUMP JUMPDEST PUSH2 0xBB9 JUMP JUMPDEST DUP3 MSTORE POP POP JUMP JUMPDEST PUSH0 PUSH2 0xBE4 DUP3 DUP6 PUSH2 0xBA2 JUMP JUMPDEST PUSH1 0x14 DUP3 ADD SWAP2 POP PUSH2 0xBF4 DUP3 DUP5 PUSH2 0xBC2 JUMP JUMPDEST PUSH1 0x20 DUP3 ADD SWAP2 POP DUP2 SWAP1 POP SWAP4 SWAP3 POP POP POP JUMP JUMPDEST PUSH0 DUP3 DUP3 MSTORE PUSH1 0x20 DUP3 ADD SWAP1 POP SWAP3 SWAP2 POP POP JUMP JUMPDEST PUSH32 0x436F6D6D697452657665616C3A3A72657665616C3A20416C7265616479207265 PUSH0 DUP3 ADD MSTORE PUSH32 0x7665616C65640000000000000000000000000000000000000000000000000000 PUSH1 0x20 DUP3 ADD MSTORE POP JUMP JUMPDEST PUSH0 PUSH2 0xC6E PUSH1 0x26 DUP4 PUSH2 0xC04 JUMP JUMPDEST SWAP2 POP PUSH2 0xC79 DUP3 PUSH2 0xC14 JUMP JUMPDEST PUSH1 0x40 DUP3 ADD SWAP1 POP SWAP2 SWAP1 POP JUMP JUMPDEST PUSH0 PUSH1 0x20 DUP3 ADD SWAP1 POP DUP2 DUP2 SUB PUSH0 DUP4 ADD MSTORE PUSH2 0xC9B DUP2 PUSH2 0xC62 JUMP JUMPDEST SWAP1 POP SWAP2 SWAP1 POP JUMP JUMPDEST PUSH32 0x436F6D6D697452657665616C3A3A72657665616C3A2052657665616C65642068 PUSH0 DUP3 ADD MSTORE PUSH32 0x61736820646F6573206E6F74206D6174636820636F6D6D697400000000000000 PUSH1 0x20 DUP3 ADD MSTORE POP JUMP JUMPDEST PUSH0 PUSH2 0xCFC PUSH1 0x39 DUP4 PUSH2 0xC04 JUMP JUMPDEST SWAP2 POP PUSH2 0xD07 DUP3 PUSH2 0xCA2 JUMP JUMPDEST PUSH1 0x40 DUP3 ADD SWAP1 POP SWAP2 SWAP1 POP JUMP JUMPDEST PUSH0 PUSH1 0x20 DUP3 ADD SWAP1 POP DUP2 DUP2 SUB PUSH0 DUP4 ADD MSTORE PUSH2 0xD29 DUP2 PUSH2 0xCF0 JUMP JUMPDEST SWAP1 POP SWAP2 SWAP1 POP JUMP JUMPDEST PUSH32 0x436F6D6D697452657665616C3A3A72657665616C3A2052657665616C20616E64 PUSH0 DUP3 ADD MSTORE PUSH32 0x20636F6D6D69742068617070656E6564206F6E207468652073616D6520626C6F PUSH1 0x20 DUP3 ADD MSTORE PUSH32 0x636B000000000000000000000000000000000000000000000000000000000000 PUSH1 0x40 DUP3 ADD MSTORE POP JUMP JUMPDEST PUSH0 PUSH2 0xDB0 PUSH1 0x42 DUP4 PUSH2 0xC04 JUMP JUMPDEST SWAP2 POP PUSH2 0xDBB DUP3 PUSH2 0xD30 JUMP JUMPDEST PUSH1 0x60 DUP3 ADD SWAP1 POP SWAP2 SWAP1 POP JUMP JUMPDEST PUSH0 PUSH1 0x20 DUP3 ADD SWAP1 POP DUP2 DUP2 SUB PUSH0 DUP4 ADD MSTORE PUSH2 0xDDD DUP2 PUSH2 0xDA4 JUMP JUMPDEST SWAP1 POP SWAP2 SWAP1 POP JUMP JUMPDEST PUSH32 0x4E487B7100000000000000000000000000000000000000000000000000000000 PUSH0 MSTORE PUSH1 0x11 PUSH1 0x4 MSTORE PUSH1 0x24 PUSH0 REVERT JUMPDEST PUSH0 PUSH2 0xE1B DUP3 PUSH2 0xAC5 JUMP JUMPDEST SWAP2 POP PUSH2 0xE26 DUP4 PUSH2 0xAC5 JUMP JUMPDEST SWAP3 POP DUP3 DUP3 ADD SWAP1 POP PUSH8 0xFFFFFFFFFFFFFFFF DUP2 GT ISZERO PUSH2 0xE46 JUMPI PUSH2 0xE45 PUSH2 0xDE4 JUMP JUMPDEST JUMPDEST SWAP3 SWAP2 POP POP JUMP JUMPDEST PUSH32 0x436F6D6D697452657665616C3A3A72657665616C3A2052657665616C65642074 PUSH0 DUP3 ADD MSTORE PUSH32 0x6F6F206C61746500000000000000000000000000000000000000000000000000 PUSH1 0x20 DUP3 ADD MSTORE POP JUMP JUMPDEST PUSH0 PUSH2 0xEA6 PUSH1 0x27 DUP4 PUSH2 0xC04 JUMP JUMPDEST SWAP2 POP PUSH2 0xEB1 DUP3 PUSH2 0xE4C JUMP JUMPDEST PUSH1 0x40 DUP3 ADD SWAP1 POP SWAP2 SWAP1 POP JUMP JUMPDEST PUSH0 PUSH1 0x20 DUP3 ADD SWAP1 POP DUP2 DUP2 SUB PUSH0 DUP4 ADD MSTORE PUSH2 0xED3 DUP2 PUSH2 0xE9A JUMP JUMPDEST SWAP1 POP SWAP2 SWAP1 POP JUMP JUMPDEST PUSH0 PUSH2 0xEE5 DUP3 DUP6 PUSH2 0xBC2 JUMP JUMPDEST PUSH1 0x20 DUP3 ADD SWAP2 POP PUSH2 0xEF5 DUP3 DUP5 PUSH2 0xBC2 JUMP JUMPDEST PUSH1 0x20 DUP3 ADD SWAP2 POP DUP2 SWAP1 POP SWAP4 SWAP3 POP POP POP JUMP JUMPDEST PUSH0 DUP2 SWAP1 POP SWAP2 SWAP1 POP JUMP JUMPDEST PUSH32 0x4E487B7100000000000000000000000000000000000000000000000000000000 PUSH0 MSTORE PUSH1 0x12 PUSH1 0x4 MSTORE PUSH1 0x24 PUSH0 REVERT JUMPDEST PUSH0 PUSH2 0xF45 DUP3 PUSH2 0xF05 JUMP JUMPDEST SWAP2 POP PUSH2 0xF50 DUP4 PUSH2 0xF05 JUMP JUMPDEST SWAP3 POP DUP3 PUSH2 0xF60 JUMPI PUSH2 0xF5F PUSH2 0xF0E JUMP JUMPDEST JUMPDEST DUP3 DUP3 MOD SWAP1 POP SWAP3 SWAP2 POP POP JUMP JUMPDEST PUSH2 0xF74 DUP2 PUSH2 0xA5F JUMP JUMPDEST DUP3 MSTORE POP POP JUMP JUMPDEST PUSH2 0xF83 DUP2 PUSH2 0xF05 JUMP JUMPDEST DUP3 MSTORE POP POP JUMP JUMPDEST PUSH0 PUSH1 0x60 DUP3 ADD SWAP1 POP PUSH2 0xF9C PUSH0 DUP4 ADD DUP7 PUSH2 0xF6B JUMP JUMPDEST PUSH2 0xFA9 PUSH1 0x20 DUP4 ADD DUP6 PUSH2 0x9E4 JUMP JUMPDEST PUSH2 0xFB6 PUSH1 0x40 DUP4 ADD DUP5 PUSH2 0xF7A JUMP JUMPDEST SWAP5 SWAP4 POP POP POP POP JUMP JUMPDEST PUSH0 PUSH2 0xFC9 DUP3 DUP7 PUSH2 0xBA2 JUMP JUMPDEST PUSH1 0x14 DUP3 ADD SWAP2 POP PUSH2 0xFD9 DUP3 DUP6 PUSH2 0xBC2 JUMP JUMPDEST PUSH1 0x20 DUP3 ADD SWAP2 POP PUSH2 0xFE9 DUP3 DUP5 PUSH2 0xBC2 JUMP JUMPDEST PUSH1 0x20 DUP3 ADD SWAP2 POP DUP2 SWAP1 POP SWAP5 SWAP4 POP POP POP POP JUMP JUMPDEST PUSH32 0x436F6D6D697452657665616C3A3A72657665616C416E737765723A20416C7265 PUSH0 DUP3 ADD MSTORE PUSH32 0x6164792072657665616C65640000000000000000000000000000000000000000 PUSH1 0x20 DUP3 ADD MSTORE POP JUMP JUMPDEST PUSH0 PUSH2 0x1054 PUSH1 0x2C DUP4 PUSH2 0xC04 JUMP JUMPDEST SWAP2 POP PUSH2 0x105F DUP3 PUSH2 0xFFA JUMP JUMPDEST PUSH1 0x40 DUP3 ADD SWAP1 POP SWAP2 SWAP1 POP JUMP JUMPDEST PUSH0 PUSH1 0x20 DUP3 ADD SWAP1 POP DUP2 DUP2 SUB PUSH0 DUP4 ADD MSTORE PUSH2 0x1081 DUP2 PUSH2 0x1048 JUMP JUMPDEST SWAP1 POP SWAP2 SWAP1 POP JUMP JUMPDEST PUSH32 0x436F6D6D697452657665616C3A3A72657665616C416E737765723A2052657665 PUSH0 DUP3 ADD MSTORE PUSH32 0x616C6564206861736820646F6573206E6F74206D6174636820636F6D6D697400 PUSH1 0x20 DUP3 ADD MSTORE POP JUMP JUMPDEST PUSH0 PUSH2 0x10E2 PUSH1 0x3F DUP4 PUSH2 0xC04 JUMP JUMPDEST SWAP2 POP PUSH2 0x10ED DUP3 PUSH2 0x1088 JUMP JUMPDEST PUSH1 0x40 DUP3 ADD SWAP1 POP SWAP2 SWAP1 POP JUMP JUMPDEST PUSH0 PUSH1 0x20 DUP3 ADD SWAP1 POP DUP2 DUP2 SUB PUSH0 DUP4 ADD MSTORE PUSH2 0x110F DUP2 PUSH2 0x10D6 JUMP JUMPDEST SWAP1 POP SWAP2 SWAP1 POP JUMP JUMPDEST PUSH0 PUSH1 0x60 DUP3 ADD SWAP1 POP PUSH2 0x1129 PUSH0 DUP4 ADD DUP7 PUSH2 0xF6B JUMP JUMPDEST PUSH2 0x1136 PUSH1 0x20 DUP4 ADD DUP6 PUSH2 0x9E4 JUMP JUMPDEST PUSH2 0x1143 PUSH1 0x40 DUP4 ADD DUP5 PUSH2 0x9E4 JUMP JUMPDEST SWAP5 SWAP4 POP POP POP POP JUMP JUMPDEST PUSH0 PUSH1 0x60 DUP3 ADD SWAP1 POP PUSH2 0x115E PUSH0 DUP4 ADD DUP7 PUSH2 0xF6B JUMP JUMPDEST PUSH2 0x116B PUSH1 0x20 DUP4 ADD DUP6 PUSH2 0x9E4 JUMP JUMPDEST PUSH2 0x1178 PUSH1 0x40 DUP4 ADD DUP5 PUSH2 0xAD8 JUMP JUMPDEST SWAP5 SWAP4 POP POP POP POP JUMP INVALID LOG2 PUSH5 0x6970667358 0x22 SLT KECCAK256 0x4D KECCAK256 0x26 0xD2 SSTORE 0xC8 BALANCE 0x4D SWAP16 0xC 0xA7 0xB2 0xF LOG0 PUSH2 0x5B37 0xD4 0x25 0xDD 0xD1 DUP4 0xE3 0xE0 ADD 0xC0 0xEC SWAP2 PUSH19 0xD489C664736F6C634300081800330000000000 "
				},
				"gasEstimates": {
					"creation": {
						"codeDepositCost": "906800",
						"executionCost": "25206",
						"totalCost": "932006"
					},
					"external": {
						"commit(bytes32)": "infinite",
						"commits(address)": "7370",
						"getHash(bytes32)": "infinite",
						"getSaltedHash(bytes32,bytes32)": "infinite",
						"max()": "2486",
						"reveal(bytes32)": "infinite",
						"revealAnswer(bytes32,bytes32)": "infinite"
					}
				},
				"methodIdentifiers": {
					"commit(bytes32)": "f14fcbc8",
					"commits(address)": "7b43a8e6",
					"getHash(bytes32)": "3cf5040a",
					"getSaltedHash(bytes32,bytes32)": "8dddbf36",
					"max()": "6ac5db19",
					"reveal(bytes32)": "701fd0f1",
					"revealAnswer(bytes32,bytes32)": "de8e9033"
				}
			},
			"storageLayout": {
				"storage": [
					{
						"astId": 4,
						"contract": "CommitReveal.sol:CommitReveal",
						"label": "max",
						"offset": 0,
						"slot": "0",
						"type": "t_uint8"
					},
					{
						"astId": 16,
						"contract": "CommitReveal.sol:CommitReveal",
						"label": "commits",
						"offset": 0,
						"slot": "1",
						"type": "t_mapping(t_address,t_struct(Commit)11_storage)"
					}
				],
				"types": {
					"t_address": {
						"encoding": "inplace",
						"label": "address",
						"numberOfBytes": "20"
					},
					"t_bool": {
						"encoding": "inplace",
						"label": "bool",
						"numberOfBytes": "1"
					},
					"t_bytes32": {
						"encoding": "inplace",
						"label": "bytes32",
						"numberOfBytes": "32"
					},
					"t_mapping(t_address,t_struct(Commit)11_storage)": {
						"encoding": "mapping",
						"key": "t_address",
						"label": "mapping(address => struct CommitReveal.Commit)",
						"numberOfBytes": "32",
						"value": "t_struct(Commit)11_storage"
					},
					"t_struct(Commit)11_storage": {
						"encoding": "inplace",
						"label": "struct CommitReveal.Commit",
						"members": [
							{
								"astId": 6,
								"contract": "CommitReveal.sol:CommitReveal",
								"label": "commit",
								"offset": 0,
								"slot": "0",
								"type": "t_bytes32"
							},
							{
								"astId": 8,
								"contract": "CommitReveal.sol:CommitReveal",
								"label": "block",
								"offset": 0,
								"slot": "1",
								"type": "t_uint64"
							},
							{
								"astId": 10,
								"contract": "CommitReveal.sol:CommitReveal",
								"label": "revealed",
								"offset": 8,
								"slot": "1",
								"type": "t_bool"
							}
						],
						"numberOfBytes": "64"
					},
					"t_uint64": {
						"encoding": "inplace",
						"label": "uint64",
						"numberOfBytes": "8"
					},
					"t_uint8": {
						"encoding": "inplace",
						"label": "uint8",
						"numberOfBytes": "1"
					}
				}
			},
			"userdoc": {
				"kind": "user",
				"methods": {},
				"version": 1
			}
		}
	}
}