{
	"RPS.sol": {
		"RPS": {
			"abi": [
				{
					"anonymous": false,
					"inputs": [
						{
							"indexed": false,
							"internalType": "address",
							"name": "sender",
							"type": "address"
						},
						{
							"indexed": false,
							"internalType": "bytes32",
							"name": "dataHash",
							"type": "bytes32"
						},
						{
							"indexed": false,
							"internalType": "uint64",
							"name": "block",
							"type": "uint64"
						}
					],
					"name": "CommitHash",
					"type": "event"
				},
				{
					"anonymous": false,
					"inputs": [
						{
							"indexed": false,
							"internalType": "address",
							"name": "sender",
							"type": "address"
						},
						{
							"indexed": false,
							"internalType": "bytes32",
							"name": "answer",
							"type": "bytes32"
						},
						{
							"indexed": false,
							"internalType": "bytes32",
							"name": "salt",
							"type": "bytes32"
						}
					],
					"name": "RevealAnswer",
					"type": "event"
				},
				{
					"anonymous": false,
					"inputs": [
						{
							"indexed": false,
							"internalType": "address",
							"name": "sender",
							"type": "address"
						},
						{
							"indexed": false,
							"internalType": "bytes32",
							"name": "revealHash",
							"type": "bytes32"
						},
						{
							"indexed": false,
							"internalType": "uint256",
							"name": "random",
							"type": "uint256"
						}
					],
					"name": "RevealHash",
					"type": "event"
				},
				{
					"anonymous": false,
					"inputs": [
						{
							"indexed": false,
							"internalType": "address",
							"name": "sender",
							"type": "address"
						},
						{
							"indexed": false,
							"internalType": "uint256",
							"name": "numPlayer",
							"type": "uint256"
						}
					],
					"name": "playerAdded",
					"type": "event"
				},
				{
					"anonymous": false,
					"inputs": [
						{
							"indexed": false,
							"internalType": "address",
							"name": "sender",
							"type": "address"
						},
						{
							"indexed": false,
							"internalType": "uint256",
							"name": "numInput",
							"type": "uint256"
						}
					],
					"name": "playerCommitHashed",
					"type": "event"
				},
				{
					"inputs": [],
					"name": "addPlayer",
					"outputs": [],
					"stateMutability": "payable",
					"type": "function"
				},
				{
					"inputs": [
						{
							"internalType": "bytes32",
							"name": "dataHash",
							"type": "bytes32"
						}
					],
					"name": "commit",
					"outputs": [],
					"stateMutability": "nonpayable",
					"type": "function"
				},
				{
					"inputs": [
						{
							"internalType": "address",
							"name": "",
							"type": "address"
						}
					],
					"name": "commits",
					"outputs": [
						{
							"internalType": "bytes32",
							"name": "commit",
							"type": "bytes32"
						},
						{
							"internalType": "uint64",
							"name": "block",
							"type": "uint64"
						},
						{
							"internalType": "bool",
							"name": "revealed",
							"type": "bool"
						}
					],
					"stateMutability": "view",
					"type": "function"
				},
				{
					"inputs": [],
					"name": "deadlineDuration",
					"outputs": [
						{
							"internalType": "uint256",
							"name": "",
							"type": "uint256"
						}
					],
					"stateMutability": "view",
					"type": "function"
				},
				{
					"inputs": [
						{
							"internalType": "uint256",
							"name": "choice",
							"type": "uint256"
						},
						{
							"internalType": "string",
							"name": "salt",
							"type": "string"
						}
					],
					"name": "getBytes32",
					"outputs": [
						{
							"internalType": "bytes32",
							"name": "",
							"type": "bytes32"
						}
					],
					"stateMutability": "view",
					"type": "function"
				},
				{
					"inputs": [
						{
							"internalType": "bytes32",
							"name": "data",
							"type": "bytes32"
						}
					],
					"name": "getHash",
					"outputs": [
						{
							"internalType": "bytes32",
							"name": "",
							"type": "bytes32"
						}
					],
					"stateMutability": "view",
					"type": "function"
				},
				{
					"inputs": [
						{
							"internalType": "bytes32",
							"name": "data",
							"type": "bytes32"
						},
						{
							"internalType": "bytes32",
							"name": "salt",
							"type": "bytes32"
						}
					],
					"name": "getSaltedHash",
					"outputs": [
						{
							"internalType": "bytes32",
							"name": "",
							"type": "bytes32"
						}
					],
					"stateMutability": "view",
					"type": "function"
				},
				{
					"inputs": [
						{
							"internalType": "bytes32",
							"name": "hashAns",
							"type": "bytes32"
						},
						{
							"internalType": "uint256",
							"name": "idx",
							"type": "uint256"
						}
					],
					"name": "input",
					"outputs": [],
					"stateMutability": "nonpayable",
					"type": "function"
				},
				{
					"inputs": [],
					"name": "lastAction",
					"outputs": [
						{
							"internalType": "uint256",
							"name": "",
							"type": "uint256"
						}
					],
					"stateMutability": "view",
					"type": "function"
				},
				{
					"inputs": [],
					"name": "max",
					"outputs": [
						{
							"internalType": "uint8",
							"name": "",
							"type": "uint8"
						}
					],
					"stateMutability": "view",
					"type": "function"
				},
				{
					"inputs": [],
					"name": "numInput",
					"outputs": [
						{
							"internalType": "uint256",
							"name": "",
							"type": "uint256"
						}
					],
					"stateMutability": "view",
					"type": "function"
				},
				{
					"inputs": [],
					"name": "numPlayer",
					"outputs": [
						{
							"internalType": "uint256",
							"name": "",
							"type": "uint256"
						}
					],
					"stateMutability": "view",
					"type": "function"
				},
				{
					"inputs": [],
					"name": "numReveal",
					"outputs": [
						{
							"internalType": "uint256",
							"name": "",
							"type": "uint256"
						}
					],
					"stateMutability": "view",
					"type": "function"
				},
				{
					"inputs": [
						{
							"internalType": "uint256",
							"name": "",
							"type": "uint256"
						}
					],
					"name": "player",
					"outputs": [
						{
							"internalType": "uint256",
							"name": "choice",
							"type": "uint256"
						},
						{
							"internalType": "address",
							"name": "addr",
							"type": "address"
						},
						{
							"internalType": "bool",
							"name": "isCommit",
							"type": "bool"
						}
					],
					"stateMutability": "view",
					"type": "function"
				},
				{
					"inputs": [
						{
							"internalType": "bytes32",
							"name": "revealHash",
							"type": "bytes32"
						}
					],
					"name": "reveal",
					"outputs": [],
					"stateMutability": "nonpayable",
					"type": "function"
				},
				{
					"inputs": [
						{
							"internalType": "bytes32",
							"name": "answer",
							"type": "bytes32"
						},
						{
							"internalType": "bytes32",
							"name": "salt",
							"type": "bytes32"
						}
					],
					"name": "revealAnswer",
					"outputs": [],
					"stateMutability": "nonpayable",
					"type": "function"
				},
				{
					"inputs": [
						{
							"internalType": "uint256",
							"name": "choice",
							"type": "uint256"
						},
						{
							"internalType": "uint256",
							"name": "idx",
							"type": "uint256"
						},
						{
							"internalType": "string",
							"name": "salt",
							"type": "string"
						}
					],
					"name": "revealChoice",
					"outputs": [],
					"stateMutability": "nonpayable",
					"type": "function"
				},
				{
					"inputs": [],
					"name": "reward",
					"outputs": [
						{
							"internalType": "uint256",
							"name": "",
							"type": "uint256"
						}
					],
					"stateMutability": "view",
					"type": "function"
				},
				{
					"inputs": [],
					"name": "timeOutWithDraw",
					"outputs": [],
					"stateMutability": "nonpayable",
					"type": "function"
				}
			],
			"devdoc": {
				"kind": "dev",
				"methods": {},
				"version": 1
			},
			"evm": {
				"assembly": "    /* \"RPS.sol\":106:4721  contract RPS is CommitReveal {... */\n  mstore(0x40, 0x80)\n    /* \"CommitReveal.sol\":116:119  100 */\n  0x64\n    /* \"CommitReveal.sol\":97:119  uint8 public max = 100 */\n  0x00\n  dup1\n  0x0100\n  exp\n  dup2\n  sload\n  dup2\n  0xff\n  mul\n  not\n  and\n  swap1\n  dup4\n  0xff\n  and\n  mul\n  or\n  swap1\n  sstore\n  pop\n    /* \"RPS.sol\":316:317  0 */\n  0x00\n    /* \"RPS.sol\":292:317  uint public numPlayer = 0 */\n  0x02\n  sstore\n    /* \"RPS.sol\":345:346  0 */\n  0x00\n    /* \"RPS.sol\":324:346  uint public reward = 0 */\n  0x03\n  sstore\n    /* \"RPS.sol\":421:422  0 */\n  0x00\n    /* \"RPS.sol\":398:422  uint public numInput = 0 */\n  0x05\n  sstore\n    /* \"RPS.sol\":453:454  0 */\n  0x00\n    /* \"RPS.sol\":429:454  uint public numReveal = 0 */\n  0x06\n  sstore\n    /* \"RPS.sol\":492:501  1 minutes */\n  0x3c\n    /* \"RPS.sol\":461:501  uint public deadlineDuration = 1 minutes */\n  0x07\n  sstore\n    /* \"RPS.sol\":533:548  block.timestamp */\n  timestamp\n    /* \"RPS.sol\":508:548  uint public lastAction = block.timestamp */\n  0x08\n  sstore\n    /* \"RPS.sol\":106:4721  contract RPS is CommitReveal {... */\n  callvalue\n  dup1\n  iszero\n  tag_1\n  jumpi\n  0x00\n  dup1\n  revert\ntag_1:\n  pop\n  dataSize(sub_0)\n  dup1\n  dataOffset(sub_0)\n  0x00\n  codecopy\n  0x00\n  return\nstop\n\nsub_0: assembly {\n        /* \"RPS.sol\":106:4721  contract RPS is CommitReveal {... */\n      mstore(0x40, 0x80)\n      jumpi(tag_1, lt(calldatasize, 0x04))\n      shr(0xe0, calldataload(0x00))\n      dup1\n      0x89f71d53\n      gt\n      tag_21\n      jumpi\n      dup1\n      0xc876e615\n      gt\n      tag_22\n      jumpi\n      dup1\n      0xc876e615\n      eq\n      tag_16\n      jumpi\n      dup1\n      0xd09a0a3b\n      eq\n      tag_17\n      jumpi\n      dup1\n      0xd1adbd72\n      eq\n      tag_18\n      jumpi\n      dup1\n      0xde8e9033\n      eq\n      tag_19\n      jumpi\n      dup1\n      0xf14fcbc8\n      eq\n      tag_20\n      jumpi\n      jump(tag_1)\n    tag_22:\n      dup1\n      0x89f71d53\n      eq\n      tag_11\n      jumpi\n      dup1\n      0x8dddbf36\n      eq\n      tag_12\n      jumpi\n      dup1\n      0x90d5d0c3\n      eq\n      tag_13\n      jumpi\n      dup1\n      0x9e0551c6\n      eq\n      tag_14\n      jumpi\n      dup1\n      0xba71ae9f\n      eq\n      tag_15\n      jumpi\n      jump(tag_1)\n    tag_21:\n      dup1\n      0x558d51c6\n      gt\n      tag_23\n      jumpi\n      dup1\n      0x558d51c6\n      eq\n      tag_6\n      jumpi\n      dup1\n      0x5afa1fd8\n      eq\n      tag_7\n      jumpi\n      dup1\n      0x6ac5db19\n      eq\n      tag_8\n      jumpi\n      dup1\n      0x701fd0f1\n      eq\n      tag_9\n      jumpi\n      dup1\n      0x7b43a8e6\n      eq\n      tag_10\n      jumpi\n      jump(tag_1)\n    tag_23:\n      dup1\n      0x086f7815\n      eq\n      tag_2\n      jumpi\n      dup1\n      0x228cb733\n      eq\n      tag_3\n      jumpi\n      dup1\n      0x27b5db8a\n      eq\n      tag_4\n      jumpi\n      dup1\n      0x3cf5040a\n      eq\n      tag_5\n      jumpi\n    tag_1:\n      0x00\n      dup1\n      revert\n        /* \"RPS.sol\":398:422  uint public numInput = 0 */\n    tag_2:\n      callvalue\n      dup1\n      iszero\n      tag_24\n      jumpi\n      0x00\n      dup1\n      revert\n    tag_24:\n      pop\n      tag_25\n      tag_26\n      jump\t// in\n    tag_25:\n      mload(0x40)\n      tag_27\n      swap2\n      swap1\n      tag_28\n      jump\t// in\n    tag_27:\n      mload(0x40)\n      dup1\n      swap2\n      sub\n      swap1\n      return\n        /* \"RPS.sol\":324:346  uint public reward = 0 */\n    tag_3:\n      callvalue\n      dup1\n      iszero\n      tag_29\n      jumpi\n      0x00\n      dup1\n      revert\n    tag_29:\n      pop\n      tag_30\n      tag_31\n      jump\t// in\n    tag_30:\n      mload(0x40)\n      tag_32\n      swap2\n      swap1\n      tag_28\n      jump\t// in\n    tag_32:\n      mload(0x40)\n      dup1\n      swap2\n      sub\n      swap1\n      return\n        /* \"RPS.sol\":557:947  function addPlayer() public payable {... */\n    tag_4:\n      tag_33\n      tag_34\n      jump\t// in\n    tag_33:\n      stop\n        /* \"CommitReveal.sol\":1816:1941  function getHash(bytes32 data) public view returns(bytes32){... */\n    tag_5:\n      callvalue\n      dup1\n      iszero\n      tag_35\n      jumpi\n      0x00\n      dup1\n      revert\n    tag_35:\n      pop\n      tag_36\n      0x04\n      dup1\n      calldatasize\n      sub\n      dup2\n      add\n      swap1\n      tag_37\n      swap2\n      swap1\n      tag_38\n      jump\t// in\n    tag_37:\n      tag_39\n      jump\t// in\n    tag_36:\n      mload(0x40)\n      tag_40\n      swap2\n      swap1\n      tag_41\n      jump\t// in\n    tag_40:\n      mload(0x40)\n      dup1\n      swap2\n      sub\n      swap1\n      return\n        /* \"RPS.sol\":3320:4718  function timeOutWithDraw() public {... */\n    tag_6:\n      callvalue\n      dup1\n      iszero\n      tag_42\n      jumpi\n      0x00\n      dup1\n      revert\n    tag_42:\n      pop\n      tag_43\n      tag_44\n      jump\t// in\n    tag_43:\n      stop\n        /* \"RPS.sol\":1821:2498  function revealChoice(uint choice, uint idx, string memory salt) public {... */\n    tag_7:\n      callvalue\n      dup1\n      iszero\n      tag_45\n      jumpi\n      0x00\n      dup1\n      revert\n    tag_45:\n      pop\n      tag_46\n      0x04\n      dup1\n      calldatasize\n      sub\n      dup2\n      add\n      swap1\n      tag_47\n      swap2\n      swap1\n      tag_48\n      jump\t// in\n    tag_47:\n      tag_49\n      jump\t// in\n    tag_46:\n      stop\n        /* \"CommitReveal.sol\":97:119  uint8 public max = 100 */\n    tag_8:\n      callvalue\n      dup1\n      iszero\n      tag_50\n      jumpi\n      0x00\n      dup1\n      revert\n    tag_50:\n      pop\n      tag_51\n      tag_52\n      jump\t// in\n    tag_51:\n      mload(0x40)\n      tag_53\n      swap2\n      swap1\n      tag_54\n      jump\t// in\n    tag_53:\n      mload(0x40)\n      dup1\n      swap2\n      sub\n      swap1\n      return\n        /* \"CommitReveal.sol\":594:1743  function reveal(bytes32 revealHash) public {... */\n    tag_9:\n      callvalue\n      dup1\n      iszero\n      tag_55\n      jumpi\n      0x00\n      dup1\n      revert\n    tag_55:\n      pop\n      tag_56\n      0x04\n      dup1\n      calldatasize\n      sub\n      dup2\n      add\n      swap1\n      tag_57\n      swap2\n      swap1\n      tag_38\n      jump\t// in\n    tag_57:\n      tag_58\n      jump\t// in\n    tag_56:\n      stop\n        /* \"CommitReveal.sol\":204:246  mapping (address => Commit) public commits */\n    tag_10:\n      callvalue\n      dup1\n      iszero\n      tag_59\n      jumpi\n      0x00\n      dup1\n      revert\n    tag_59:\n      pop\n      tag_60\n      0x04\n      dup1\n      calldatasize\n      sub\n      dup2\n      add\n      swap1\n      tag_61\n      swap2\n      swap1\n      tag_62\n      jump\t// in\n    tag_61:\n      tag_63\n      jump\t// in\n    tag_60:\n      mload(0x40)\n      tag_64\n      swap4\n      swap3\n      swap2\n      swap1\n      tag_65\n      jump\t// in\n    tag_64:\n      mload(0x40)\n      dup1\n      swap2\n      sub\n      swap1\n      return\n        /* \"RPS.sol\":508:548  uint public lastAction = block.timestamp */\n    tag_11:\n      callvalue\n      dup1\n      iszero\n      tag_66\n      jumpi\n      0x00\n      dup1\n      revert\n    tag_66:\n      pop\n      tag_67\n      tag_68\n      jump\t// in\n    tag_67:\n      mload(0x40)\n      tag_69\n      swap2\n      swap1\n      tag_28\n      jump\t// in\n    tag_69:\n      mload(0x40)\n      dup1\n      swap2\n      sub\n      swap1\n      return\n        /* \"CommitReveal.sol\":2520:2670  function getSaltedHash(bytes32 data,bytes32 salt) public view returns(bytes32){... */\n    tag_12:\n      callvalue\n      dup1\n      iszero\n      tag_70\n      jumpi\n      0x00\n      dup1\n      revert\n    tag_70:\n      pop\n      tag_71\n      0x04\n      dup1\n      calldatasize\n      sub\n      dup2\n      add\n      swap1\n      tag_72\n      swap2\n      swap1\n      tag_73\n      jump\t// in\n    tag_72:\n      tag_74\n      jump\t// in\n    tag_71:\n      mload(0x40)\n      tag_75\n      swap2\n      swap1\n      tag_41\n      jump\t// in\n    tag_75:\n      mload(0x40)\n      dup1\n      swap2\n      sub\n      swap1\n      return\n        /* \"RPS.sol\":292:317  uint public numPlayer = 0 */\n    tag_13:\n      callvalue\n      dup1\n      iszero\n      tag_76\n      jumpi\n      0x00\n      dup1\n      revert\n    tag_76:\n      pop\n      tag_77\n      tag_78\n      jump\t// in\n    tag_77:\n      mload(0x40)\n      tag_79\n      swap2\n      swap1\n      tag_28\n      jump\t// in\n    tag_79:\n      mload(0x40)\n      dup1\n      swap2\n      sub\n      swap1\n      return\n        /* \"RPS.sol\":353:391  mapping (uint => Player) public player */\n    tag_14:\n      callvalue\n      dup1\n      iszero\n      tag_80\n      jumpi\n      0x00\n      dup1\n      revert\n    tag_80:\n      pop\n      tag_81\n      0x04\n      dup1\n      calldatasize\n      sub\n      dup2\n      add\n      swap1\n      tag_82\n      swap2\n      swap1\n      tag_83\n      jump\t// in\n    tag_82:\n      tag_84\n      jump\t// in\n    tag_81:\n      mload(0x40)\n      tag_85\n      swap4\n      swap3\n      swap2\n      swap1\n      tag_86\n      jump\t// in\n    tag_85:\n      mload(0x40)\n      dup1\n      swap2\n      sub\n      swap1\n      return\n        /* \"RPS.sol\":461:501  uint public deadlineDuration = 1 minutes */\n    tag_15:\n      callvalue\n      dup1\n      iszero\n      tag_87\n      jumpi\n      0x00\n      dup1\n      revert\n    tag_87:\n      pop\n      tag_88\n      tag_89\n      jump\t// in\n    tag_88:\n      mload(0x40)\n      tag_90\n      swap2\n      swap1\n      tag_28\n      jump\t// in\n    tag_90:\n      mload(0x40)\n      dup1\n      swap2\n      sub\n      swap1\n      return\n        /* \"RPS.sol\":429:454  uint public numReveal = 0 */\n    tag_16:\n      callvalue\n      dup1\n      iszero\n      tag_91\n      jumpi\n      0x00\n      dup1\n      revert\n    tag_91:\n      pop\n      tag_92\n      tag_93\n      jump\t// in\n    tag_92:\n      mload(0x40)\n      tag_94\n      swap2\n      swap1\n      tag_28\n      jump\t// in\n    tag_94:\n      mload(0x40)\n      dup1\n      swap2\n      sub\n      swap1\n      return\n        /* \"RPS.sol\":1017:1333  function getBytes32(uint choice, string memory salt) view  public returns (bytes32){... */\n    tag_17:\n      callvalue\n      dup1\n      iszero\n      tag_95\n      jumpi\n      0x00\n      dup1\n      revert\n    tag_95:\n      pop\n      tag_96\n      0x04\n      dup1\n      calldatasize\n      sub\n      dup2\n      add\n      swap1\n      tag_97\n      swap2\n      swap1\n      tag_98\n      jump\t// in\n    tag_97:\n      tag_99\n      jump\t// in\n    tag_96:\n      mload(0x40)\n      tag_100\n      swap2\n      swap1\n      tag_41\n      jump\t// in\n    tag_100:\n      mload(0x40)\n      dup1\n      swap2\n      sub\n      swap1\n      return\n        /* \"RPS.sol\":1341:1745  function input(bytes32 hashAns, uint idx) public  {... */\n    tag_18:\n      callvalue\n      dup1\n      iszero\n      tag_101\n      jumpi\n      0x00\n      dup1\n      revert\n    tag_101:\n      pop\n      tag_102\n      0x04\n      dup1\n      calldatasize\n      sub\n      dup2\n      add\n      swap1\n      tag_103\n      swap2\n      swap1\n      tag_104\n      jump\t// in\n    tag_103:\n      tag_105\n      jump\t// in\n    tag_102:\n      stop\n        /* \"CommitReveal.sol\":1945:2448  function revealAnswer(bytes32 answer,bytes32 salt) public {... */\n    tag_19:\n      callvalue\n      dup1\n      iszero\n      tag_106\n      jumpi\n      0x00\n      dup1\n      revert\n    tag_106:\n      pop\n      tag_107\n      0x04\n      dup1\n      calldatasize\n      sub\n      dup2\n      add\n      swap1\n      tag_108\n      swap2\n      swap1\n      tag_73\n      jump\t// in\n    tag_108:\n      tag_109\n      jump\t// in\n    tag_107:\n      stop\n        /* \"CommitReveal.sol\":251:522  function commit(bytes32 dataHash) public {... */\n    tag_20:\n      callvalue\n      dup1\n      iszero\n      tag_110\n      jumpi\n      0x00\n      dup1\n      revert\n    tag_110:\n      pop\n      tag_111\n      0x04\n      dup1\n      calldatasize\n      sub\n      dup2\n      add\n      swap1\n      tag_112\n      swap2\n      swap1\n      tag_38\n      jump\t// in\n    tag_112:\n      tag_113\n      jump\t// in\n    tag_111:\n      stop\n        /* \"RPS.sol\":398:422  uint public numInput = 0 */\n    tag_26:\n      sload(0x05)\n      dup2\n      jump\t// out\n        /* \"RPS.sol\":324:346  uint public reward = 0 */\n    tag_31:\n      sload(0x03)\n      dup2\n      jump\t// out\n        /* \"RPS.sol\":557:947  function addPlayer() public payable {... */\n    tag_34:\n        /* \"RPS.sol\":624:625  2 */\n      0x02\n        /* \"RPS.sol\":612:621  numPlayer */\n      dup1\n      sload\n        /* \"RPS.sol\":612:625  numPlayer < 2 */\n      lt\n        /* \"RPS.sol\":604:626  require(numPlayer < 2) */\n      tag_115\n      jumpi\n      0x00\n      dup1\n      revert\n    tag_115:\n        /* \"RPS.sol\":658:665  1 ether */\n      0x0de0b6b3a7640000\n        /* \"RPS.sol\":645:654  msg.value */\n      callvalue\n        /* \"RPS.sol\":645:665  msg.value == 1 ether */\n      eq\n        /* \"RPS.sol\":637:666  require(msg.value == 1 ether) */\n      tag_116\n      jumpi\n      0x00\n      dup1\n      revert\n    tag_116:\n        /* \"RPS.sol\":687:696  msg.value */\n      callvalue\n        /* \"RPS.sol\":677:683  reward */\n      0x03\n      0x00\n        /* \"RPS.sol\":677:696  reward += msg.value */\n      dup3\n      dup3\n      sload\n      tag_117\n      swap2\n      swap1\n      tag_118\n      jump\t// in\n    tag_117:\n      swap3\n      pop\n      pop\n      dup2\n      swap1\n      sstore\n      pop\n        /* \"RPS.sol\":732:742  msg.sender */\n      caller\n        /* \"RPS.sol\":707:713  player */\n      0x04\n        /* \"RPS.sol\":707:724  player[numPlayer] */\n      0x00\n        /* \"RPS.sol\":714:723  numPlayer */\n      sload(0x02)\n        /* \"RPS.sol\":707:724  player[numPlayer] */\n      dup2\n      mstore\n      0x20\n      add\n      swap1\n      dup2\n      mstore\n      0x20\n      add\n      0x00\n      keccak256\n        /* \"RPS.sol\":707:729  player[numPlayer].addr */\n      0x01\n      add\n      0x00\n        /* \"RPS.sol\":707:742  player[numPlayer].addr = msg.sender */\n      0x0100\n      exp\n      dup2\n      sload\n      dup2\n      0xffffffffffffffffffffffffffffffffffffffff\n      mul\n      not\n      and\n      swap1\n      dup4\n      0xffffffffffffffffffffffffffffffffffffffff\n      and\n      mul\n      or\n      swap1\n      sstore\n      pop\n        /* \"RPS.sol\":780:781  3 */\n      0x03\n        /* \"RPS.sol\":753:759  player */\n      0x04\n        /* \"RPS.sol\":753:770  player[numPlayer] */\n      0x00\n        /* \"RPS.sol\":760:769  numPlayer */\n      sload(0x02)\n        /* \"RPS.sol\":753:770  player[numPlayer] */\n      dup2\n      mstore\n      0x20\n      add\n      swap1\n      dup2\n      mstore\n      0x20\n      add\n      0x00\n      keccak256\n        /* \"RPS.sol\":753:777  player[numPlayer].choice */\n      0x00\n      add\n        /* \"RPS.sol\":753:781  player[numPlayer].choice = 3 */\n      dup2\n      swap1\n      sstore\n      pop\n        /* \"RPS.sol\":821:826  false */\n      0x00\n        /* \"RPS.sol\":792:798  player */\n      0x04\n        /* \"RPS.sol\":792:809  player[numPlayer] */\n      0x00\n        /* \"RPS.sol\":799:808  numPlayer */\n      sload(0x02)\n        /* \"RPS.sol\":792:809  player[numPlayer] */\n      dup2\n      mstore\n      0x20\n      add\n      swap1\n      dup2\n      mstore\n      0x20\n      add\n      0x00\n      keccak256\n        /* \"RPS.sol\":792:818  player[numPlayer].isCommit */\n      0x01\n      add\n      0x14\n        /* \"RPS.sol\":792:826  player[numPlayer].isCommit = false */\n      0x0100\n      exp\n      dup2\n      sload\n      dup2\n      0xff\n      mul\n      not\n      and\n      swap1\n      dup4\n      iszero\n      iszero\n      mul\n      or\n      swap1\n      sstore\n      pop\n        /* \"RPS.sol\":837:846  numPlayer */\n      0x02\n      0x00\n        /* \"RPS.sol\":837:848  numPlayer++ */\n      dup2\n      sload\n      dup1\n      swap3\n      swap2\n      swap1\n      tag_119\n      swap1\n      tag_120\n      jump\t// in\n    tag_119:\n      swap2\n      swap1\n      pop\n      sstore\n      pop\n        /* \"RPS.sol\":864:898  playerAdded(msg.sender, numPlayer) */\n      0x313f9ebdca9d25ee9456dd69022e3324975c8261b7a8b134881905d3b6964d3c\n        /* \"RPS.sol\":876:886  msg.sender */\n      caller\n        /* \"RPS.sol\":888:897  numPlayer */\n      sload(0x02)\n        /* \"RPS.sol\":864:898  playerAdded(msg.sender, numPlayer) */\n      mload(0x40)\n      tag_121\n      swap3\n      swap2\n      swap1\n      tag_122\n      jump\t// in\n    tag_121:\n      mload(0x40)\n      dup1\n      swap2\n      sub\n      swap1\n      log1\n        /* \"RPS.sol\":924:939  block.timestamp */\n      timestamp\n        /* \"RPS.sol\":911:921  lastAction */\n      0x08\n        /* \"RPS.sol\":911:939  lastAction = block.timestamp */\n      dup2\n      swap1\n      sstore\n      pop\n        /* \"RPS.sol\":557:947  function addPlayer() public payable {... */\n      jump\t// out\n        /* \"CommitReveal.sol\":1816:1941  function getHash(bytes32 data) public view returns(bytes32){... */\n    tag_39:\n        /* \"CommitReveal.sol\":1867:1874  bytes32 */\n      0x00\n        /* \"CommitReveal.sol\":1923:1927  this */\n      address\n        /* \"CommitReveal.sol\":1930:1934  data */\n      dup3\n        /* \"CommitReveal.sol\":1898:1935  abi.encodePacked(address(this), data) */\n      add(0x20, mload(0x40))\n      tag_124\n      swap3\n      swap2\n      swap1\n      tag_125\n      jump\t// in\n    tag_124:\n      mload(0x40)\n      0x20\n      dup2\n      dup4\n      sub\n      sub\n      dup2\n      mstore\n      swap1\n      0x40\n      mstore\n        /* \"CommitReveal.sol\":1888:1936  keccak256(abi.encodePacked(address(this), data)) */\n      dup1\n      mload\n      swap1\n      0x20\n      add\n      keccak256\n        /* \"CommitReveal.sol\":1881:1936  return keccak256(abi.encodePacked(address(this), data)) */\n      swap1\n      pop\n        /* \"CommitReveal.sol\":1816:1941  function getHash(bytes32 data) public view returns(bytes32){... */\n      swap2\n      swap1\n      pop\n      jump\t// out\n        /* \"RPS.sol\":3320:4718  function timeOutWithDraw() public {... */\n    tag_44:\n        /* \"RPS.sol\":3386:3387  1 */\n      0x01\n        /* \"RPS.sol\":3373:3382  numPlayer */\n      sload(0x02)\n        /* \"RPS.sol\":3373:3387  numPlayer >= 1 */\n      lt\n      iszero\n        /* \"RPS.sol\":3365:3388  require(numPlayer >= 1) */\n      tag_127\n      jumpi\n      0x00\n      dup1\n      revert\n    tag_127:\n        /* \"RPS.sol\":3438:3454  deadlineDuration */\n      sload(0x07)\n        /* \"RPS.sol\":3425:3435  lastAction */\n      sload(0x08)\n        /* \"RPS.sol\":3425:3454  lastAction + deadlineDuration */\n      tag_128\n      swap2\n      swap1\n      tag_118\n      jump\t// in\n    tag_128:\n        /* \"RPS.sol\":3407:3422  block.timestamp */\n      timestamp\n        /* \"RPS.sol\":3407:3454  block.timestamp > lastAction + deadlineDuration */\n      gt\n        /* \"RPS.sol\":3399:3455  require(block.timestamp > lastAction + deadlineDuration) */\n      tag_129\n      jumpi\n      0x00\n      dup1\n      revert\n    tag_129:\n        /* \"RPS.sol\":3466:3490  address payable account0 */\n      0x00\n        /* \"RPS.sol\":3501:3507  player */\n      0x04\n        /* \"RPS.sol\":3501:3510  player[0] */\n      0x00\n        /* \"RPS.sol\":3508:3509  0 */\n      dup1\n        /* \"RPS.sol\":3501:3510  player[0] */\n      dup2\n      mstore\n      0x20\n      add\n      swap1\n      dup2\n      mstore\n      0x20\n      add\n      0x00\n      keccak256\n        /* \"RPS.sol\":3501:3515  player[0].addr */\n      0x01\n      add\n      0x00\n      swap1\n      sload\n      swap1\n      0x0100\n      exp\n      swap1\n      div\n      0xffffffffffffffffffffffffffffffffffffffff\n      and\n        /* \"RPS.sol\":3466:3516  address payable account0 = payable(player[0].addr) */\n      swap1\n      pop\n        /* \"RPS.sol\":3527:3551  address payable account1 */\n      0x00\n        /* \"RPS.sol\":3562:3568  player */\n      0x04\n        /* \"RPS.sol\":3562:3571  player[1] */\n      0x00\n        /* \"RPS.sol\":3569:3570  1 */\n      0x01\n        /* \"RPS.sol\":3562:3571  player[1] */\n      dup2\n      mstore\n      0x20\n      add\n      swap1\n      dup2\n      mstore\n      0x20\n      add\n      0x00\n      keccak256\n        /* \"RPS.sol\":3562:3576  player[1].addr */\n      0x01\n      add\n      0x00\n      swap1\n      sload\n      swap1\n      0x0100\n      exp\n      swap1\n      div\n      0xffffffffffffffffffffffffffffffffffffffff\n      and\n        /* \"RPS.sol\":3527:3577  address payable account1 = payable(player[1].addr) */\n      swap1\n      pop\n        /* \"RPS.sol\":3633:3634  1 */\n      0x01\n        /* \"RPS.sol\":3620:3629  numPlayer */\n      sload(0x02)\n        /* \"RPS.sol\":3620:3634  numPlayer == 1 */\n      sub\n        /* \"RPS.sol\":3616:4711  if (numPlayer == 1) {... */\n      tag_130\n      jumpi\n        /* \"RPS.sol\":3651:3659  account0 */\n      dup2\n        /* \"RPS.sol\":3651:3668  account0.transfer */\n      0xffffffffffffffffffffffffffffffffffffffff\n      and\n        /* \"RPS.sol\":3651:3676  account0.transfer(reward) */\n      0x08fc\n        /* \"RPS.sol\":3669:3675  reward */\n      sload(0x03)\n        /* \"RPS.sol\":3651:3676  account0.transfer(reward) */\n      swap1\n      dup2\n      iszero\n      mul\n      swap1\n      mload(0x40)\n      0x00\n      mload(0x40)\n      dup1\n      dup4\n      sub\n      dup2\n      dup6\n      dup9\n      dup9\n      call\n      swap4\n      pop\n      pop\n      pop\n      pop\n      iszero\n      dup1\n      iszero\n      tag_132\n      jumpi\n      returndatasize\n      0x00\n      dup1\n      returndatacopy\n      revert(0x00, returndatasize)\n    tag_132:\n      pop\n        /* \"RPS.sol\":3691:3699  _reset() */\n      tag_133\n        /* \"RPS.sol\":3691:3697  _reset */\n      tag_134\n        /* \"RPS.sol\":3691:3699  _reset() */\n      jump\t// in\n    tag_133:\n        /* \"RPS.sol\":3616:4711  if (numPlayer == 1) {... */\n      jump(tag_135)\n    tag_130:\n        /* \"RPS.sol\":3802:3803  2 */\n      0x02\n        /* \"RPS.sol\":3789:3798  numPlayer */\n      dup1\n      sload\n        /* \"RPS.sol\":3789:3803  numPlayer == 2 */\n      eq\n        /* \"RPS.sol\":3789:3859  numPlayer == 2 && (numInput == 0 || (numInput == 2 && numReveal == 0)) */\n      dup1\n      iszero\n      tag_136\n      jumpi\n      pop\n        /* \"RPS.sol\":3820:3821  0 */\n      0x00\n        /* \"RPS.sol\":3808:3816  numInput */\n      sload(0x05)\n        /* \"RPS.sol\":3808:3821  numInput == 0 */\n      eq\n        /* \"RPS.sol\":3808:3858  numInput == 0 || (numInput == 2 && numReveal == 0) */\n      dup1\n      tag_137\n      jumpi\n      pop\n        /* \"RPS.sol\":3838:3839  2 */\n      0x02\n        /* \"RPS.sol\":3826:3834  numInput */\n      sload(0x05)\n        /* \"RPS.sol\":3826:3839  numInput == 2 */\n      eq\n        /* \"RPS.sol\":3826:3857  numInput == 2 && numReveal == 0 */\n      dup1\n      iszero\n      tag_138\n      jumpi\n      pop\n        /* \"RPS.sol\":3856:3857  0 */\n      0x00\n        /* \"RPS.sol\":3843:3852  numReveal */\n      sload(0x06)\n        /* \"RPS.sol\":3843:3857  numReveal == 0 */\n      eq\n        /* \"RPS.sol\":3826:3857  numInput == 2 && numReveal == 0 */\n    tag_138:\n        /* \"RPS.sol\":3808:3858  numInput == 0 || (numInput == 2 && numReveal == 0) */\n    tag_137:\n        /* \"RPS.sol\":3789:3859  numPlayer == 2 && (numInput == 0 || (numInput == 2 && numReveal == 0)) */\n    tag_136:\n        /* \"RPS.sol\":3785:4711  if (numPlayer == 2 && (numInput == 0 || (numInput == 2 && numReveal == 0))) {... */\n      iszero\n      tag_139\n      jumpi\n        /* \"RPS.sol\":3876:3884  account0 */\n      dup2\n        /* \"RPS.sol\":3876:3893  account0.transfer */\n      0xffffffffffffffffffffffffffffffffffffffff\n      and\n        /* \"RPS.sol\":3876:3905  account0.transfer(reward / 2) */\n      0x08fc\n        /* \"RPS.sol\":3903:3904  2 */\n      0x02\n        /* \"RPS.sol\":3894:3900  reward */\n      sload(0x03)\n        /* \"RPS.sol\":3894:3904  reward / 2 */\n      tag_140\n      swap2\n      swap1\n      tag_141\n      jump\t// in\n    tag_140:\n        /* \"RPS.sol\":3876:3905  account0.transfer(reward / 2) */\n      swap1\n      dup2\n      iszero\n      mul\n      swap1\n      mload(0x40)\n      0x00\n      mload(0x40)\n      dup1\n      dup4\n      sub\n      dup2\n      dup6\n      dup9\n      dup9\n      call\n      swap4\n      pop\n      pop\n      pop\n      pop\n      iszero\n      dup1\n      iszero\n      tag_143\n      jumpi\n      returndatasize\n      0x00\n      dup1\n      returndatacopy\n      revert(0x00, returndatasize)\n    tag_143:\n      pop\n        /* \"RPS.sol\":3920:3928  account1 */\n      dup1\n        /* \"RPS.sol\":3920:3937  account1.transfer */\n      0xffffffffffffffffffffffffffffffffffffffff\n      and\n        /* \"RPS.sol\":3920:3949  account1.transfer(reward / 2) */\n      0x08fc\n        /* \"RPS.sol\":3947:3948  2 */\n      0x02\n        /* \"RPS.sol\":3938:3944  reward */\n      sload(0x03)\n        /* \"RPS.sol\":3938:3948  reward / 2 */\n      tag_144\n      swap2\n      swap1\n      tag_141\n      jump\t// in\n    tag_144:\n        /* \"RPS.sol\":3920:3949  account1.transfer(reward / 2) */\n      swap1\n      dup2\n      iszero\n      mul\n      swap1\n      mload(0x40)\n      0x00\n      mload(0x40)\n      dup1\n      dup4\n      sub\n      dup2\n      dup6\n      dup9\n      dup9\n      call\n      swap4\n      pop\n      pop\n      pop\n      pop\n      iszero\n      dup1\n      iszero\n      tag_146\n      jumpi\n      returndatasize\n      0x00\n      dup1\n      returndatacopy\n      revert(0x00, returndatasize)\n    tag_146:\n      pop\n        /* \"RPS.sol\":3964:3972  _reset() */\n      tag_147\n        /* \"RPS.sol\":3964:3970  _reset */\n      tag_134\n        /* \"RPS.sol\":3964:3972  _reset() */\n      jump\t// in\n    tag_147:\n        /* \"RPS.sol\":3785:4711  if (numPlayer == 2 && (numInput == 0 || (numInput == 2 && numReveal == 0))) {... */\n      jump(tag_148)\n    tag_139:\n        /* \"RPS.sol\":4056:4057  2 */\n      0x02\n        /* \"RPS.sol\":4043:4052  numPlayer */\n      dup1\n      sload\n        /* \"RPS.sol\":4043:4057  numPlayer == 2 */\n      eq\n        /* \"RPS.sol\":4043:4074  numPlayer == 2 && numInput == 1 */\n      dup1\n      iszero\n      tag_149\n      jumpi\n      pop\n        /* \"RPS.sol\":4073:4074  1 */\n      0x01\n        /* \"RPS.sol\":4061:4069  numInput */\n      sload(0x05)\n        /* \"RPS.sol\":4061:4074  numInput == 1 */\n      eq\n        /* \"RPS.sol\":4043:4074  numPlayer == 2 && numInput == 1 */\n    tag_149:\n        /* \"RPS.sol\":4039:4711  if (numPlayer == 2 && numInput == 1) {... */\n      iszero\n      tag_150\n      jumpi\n        /* \"RPS.sol\":4161:4165  true */\n      0x01\n        /* \"RPS.sol\":4139:4165  player[0].isCommit == true */\n      iszero\n      iszero\n        /* \"RPS.sol\":4139:4145  player */\n      0x04\n        /* \"RPS.sol\":4139:4148  player[0] */\n      0x00\n        /* \"RPS.sol\":4146:4147  0 */\n      dup1\n        /* \"RPS.sol\":4139:4148  player[0] */\n      dup2\n      mstore\n      0x20\n      add\n      swap1\n      dup2\n      mstore\n      0x20\n      add\n      0x00\n      keccak256\n        /* \"RPS.sol\":4139:4157  player[0].isCommit */\n      0x01\n      add\n      0x14\n      swap1\n      sload\n      swap1\n      0x0100\n      exp\n      swap1\n      div\n      0xff\n      and\n        /* \"RPS.sol\":4139:4165  player[0].isCommit == true */\n      iszero\n      iszero\n      sub\n        /* \"RPS.sol\":4135:4306  if (player[0].isCommit == true) {... */\n      tag_151\n      jumpi\n        /* \"RPS.sol\":4186:4194  account0 */\n      dup2\n        /* \"RPS.sol\":4186:4203  account0.transfer */\n      0xffffffffffffffffffffffffffffffffffffffff\n      and\n        /* \"RPS.sol\":4186:4211  account0.transfer(reward) */\n      0x08fc\n        /* \"RPS.sol\":4204:4210  reward */\n      sload(0x03)\n        /* \"RPS.sol\":4186:4211  account0.transfer(reward) */\n      swap1\n      dup2\n      iszero\n      mul\n      swap1\n      mload(0x40)\n      0x00\n      mload(0x40)\n      dup1\n      dup4\n      sub\n      dup2\n      dup6\n      dup9\n      dup9\n      call\n      swap4\n      pop\n      pop\n      pop\n      pop\n      iszero\n      dup1\n      iszero\n      tag_153\n      jumpi\n      returndatasize\n      0x00\n      dup1\n      returndatacopy\n      revert(0x00, returndatasize)\n    tag_153:\n      pop\n        /* \"RPS.sol\":4135:4306  if (player[0].isCommit == true) {... */\n      jump(tag_154)\n    tag_151:\n        /* \"RPS.sol\":4265:4273  account1 */\n      dup1\n        /* \"RPS.sol\":4265:4282  account1.transfer */\n      0xffffffffffffffffffffffffffffffffffffffff\n      and\n        /* \"RPS.sol\":4265:4290  account1.transfer(reward) */\n      0x08fc\n        /* \"RPS.sol\":4283:4289  reward */\n      sload(0x03)\n        /* \"RPS.sol\":4265:4290  account1.transfer(reward) */\n      swap1\n      dup2\n      iszero\n      mul\n      swap1\n      mload(0x40)\n      0x00\n      mload(0x40)\n      dup1\n      dup4\n      sub\n      dup2\n      dup6\n      dup9\n      dup9\n      call\n      swap4\n      pop\n      pop\n      pop\n      pop\n      iszero\n      dup1\n      iszero\n      tag_156\n      jumpi\n      returndatasize\n      0x00\n      dup1\n      returndatacopy\n      revert(0x00, returndatasize)\n    tag_156:\n      pop\n        /* \"RPS.sol\":4135:4306  if (player[0].isCommit == true) {... */\n    tag_154:\n        /* \"RPS.sol\":4320:4328  _reset() */\n      tag_157\n        /* \"RPS.sol\":4320:4326  _reset */\n      tag_134\n        /* \"RPS.sol\":4320:4328  _reset() */\n      jump\t// in\n    tag_157:\n        /* \"RPS.sol\":4039:4711  if (numPlayer == 2 && numInput == 1) {... */\n      jump(tag_158)\n    tag_150:\n        /* \"RPS.sol\":4413:4414  2 */\n      0x02\n        /* \"RPS.sol\":4400:4409  numPlayer */\n      dup1\n      sload\n        /* \"RPS.sol\":4400:4414  numPlayer == 2 */\n      eq\n        /* \"RPS.sol\":4400:4431  numPlayer == 2 && numInput == 2 */\n      dup1\n      iszero\n      tag_159\n      jumpi\n      pop\n        /* \"RPS.sol\":4430:4431  2 */\n      0x02\n        /* \"RPS.sol\":4418:4426  numInput */\n      sload(0x05)\n        /* \"RPS.sol\":4418:4431  numInput == 2 */\n      eq\n        /* \"RPS.sol\":4400:4431  numPlayer == 2 && numInput == 2 */\n    tag_159:\n        /* \"RPS.sol\":4400:4449  numPlayer == 2 && numInput == 2 && numReveal == 1 */\n      dup1\n      iszero\n      tag_160\n      jumpi\n      pop\n        /* \"RPS.sol\":4448:4449  1 */\n      0x01\n        /* \"RPS.sol\":4435:4444  numReveal */\n      sload(0x06)\n        /* \"RPS.sol\":4435:4449  numReveal == 1 */\n      eq\n        /* \"RPS.sol\":4400:4449  numPlayer == 2 && numInput == 2 && numReveal == 1 */\n    tag_160:\n        /* \"RPS.sol\":4396:4711  if (numPlayer == 2 && numInput == 2 && numReveal == 1) {... */\n      iszero\n      tag_161\n      jumpi\n        /* \"RPS.sol\":4535:4536  3 */\n      0x03\n        /* \"RPS.sol\":4515:4521  player */\n      0x04\n        /* \"RPS.sol\":4515:4524  player[0] */\n      0x00\n        /* \"RPS.sol\":4522:4523  0 */\n      dup1\n        /* \"RPS.sol\":4515:4524  player[0] */\n      dup2\n      mstore\n      0x20\n      add\n      swap1\n      dup2\n      mstore\n      0x20\n      add\n      0x00\n      keccak256\n        /* \"RPS.sol\":4515:4531  player[0].choice */\n      0x00\n      add\n      sload\n        /* \"RPS.sol\":4515:4536  player[0].choice != 3 */\n      eq\n        /* \"RPS.sol\":4511:4677  if (player[0].choice != 3) {... */\n      tag_162\n      jumpi\n        /* \"RPS.sol\":4557:4565  account0 */\n      dup2\n        /* \"RPS.sol\":4557:4574  account0.transfer */\n      0xffffffffffffffffffffffffffffffffffffffff\n      and\n        /* \"RPS.sol\":4557:4582  account0.transfer(reward) */\n      0x08fc\n        /* \"RPS.sol\":4575:4581  reward */\n      sload(0x03)\n        /* \"RPS.sol\":4557:4582  account0.transfer(reward) */\n      swap1\n      dup2\n      iszero\n      mul\n      swap1\n      mload(0x40)\n      0x00\n      mload(0x40)\n      dup1\n      dup4\n      sub\n      dup2\n      dup6\n      dup9\n      dup9\n      call\n      swap4\n      pop\n      pop\n      pop\n      pop\n      iszero\n      dup1\n      iszero\n      tag_164\n      jumpi\n      returndatasize\n      0x00\n      dup1\n      returndatacopy\n      revert(0x00, returndatasize)\n    tag_164:\n      pop\n        /* \"RPS.sol\":4511:4677  if (player[0].choice != 3) {... */\n      jump(tag_165)\n    tag_162:\n        /* \"RPS.sol\":4636:4644  account1 */\n      dup1\n        /* \"RPS.sol\":4636:4653  account1.transfer */\n      0xffffffffffffffffffffffffffffffffffffffff\n      and\n        /* \"RPS.sol\":4636:4661  account1.transfer(reward) */\n      0x08fc\n        /* \"RPS.sol\":4654:4660  reward */\n      sload(0x03)\n        /* \"RPS.sol\":4636:4661  account1.transfer(reward) */\n      swap1\n      dup2\n      iszero\n      mul\n      swap1\n      mload(0x40)\n      0x00\n      mload(0x40)\n      dup1\n      dup4\n      sub\n      dup2\n      dup6\n      dup9\n      dup9\n      call\n      swap4\n      pop\n      pop\n      pop\n      pop\n      iszero\n      dup1\n      iszero\n      tag_167\n      jumpi\n      returndatasize\n      0x00\n      dup1\n      returndatacopy\n      revert(0x00, returndatasize)\n    tag_167:\n      pop\n        /* \"RPS.sol\":4511:4677  if (player[0].choice != 3) {... */\n    tag_165:\n        /* \"RPS.sol\":4691:4699  _reset() */\n      tag_168\n        /* \"RPS.sol\":4691:4697  _reset */\n      tag_134\n        /* \"RPS.sol\":4691:4699  _reset() */\n      jump\t// in\n    tag_168:\n        /* \"RPS.sol\":4396:4711  if (numPlayer == 2 && numInput == 2 && numReveal == 1) {... */\n    tag_161:\n        /* \"RPS.sol\":4039:4711  if (numPlayer == 2 && numInput == 1) {... */\n    tag_158:\n        /* \"RPS.sol\":3785:4711  if (numPlayer == 2 && (numInput == 0 || (numInput == 2 && numReveal == 0))) {... */\n    tag_148:\n        /* \"RPS.sol\":3616:4711  if (numPlayer == 1) {... */\n    tag_135:\n        /* \"RPS.sol\":3354:4718  {... */\n      pop\n      pop\n        /* \"RPS.sol\":3320:4718  function timeOutWithDraw() public {... */\n      jump\t// out\n        /* \"RPS.sol\":1821:2498  function revealChoice(uint choice, uint idx, string memory salt) public {... */\n    tag_49:\n        /* \"RPS.sol\":1925:1926  2 */\n      0x02\n        /* \"RPS.sol\":1912:1921  numPlayer */\n      dup1\n      sload\n        /* \"RPS.sol\":1912:1926  numPlayer == 2 */\n      eq\n        /* \"RPS.sol\":1904:1927  require(numPlayer == 2) */\n      tag_170\n      jumpi\n      0x00\n      dup1\n      revert\n    tag_170:\n        /* \"RPS.sol\":1958:1959  2 */\n      0x02\n        /* \"RPS.sol\":1946:1954  numInput */\n      sload(0x05)\n        /* \"RPS.sol\":1946:1959  numInput == 2 */\n      eq\n        /* \"RPS.sol\":1938:1960  require(numInput == 2) */\n      tag_171\n      jumpi\n      0x00\n      dup1\n      revert\n    tag_171:\n        /* \"RPS.sol\":1993:1999  player */\n      0x04\n        /* \"RPS.sol\":1993:2004  player[idx] */\n      0x00\n        /* \"RPS.sol\":2000:2003  idx */\n      dup4\n        /* \"RPS.sol\":1993:2004  player[idx] */\n      dup2\n      mstore\n      0x20\n      add\n      swap1\n      dup2\n      mstore\n      0x20\n      add\n      0x00\n      keccak256\n        /* \"RPS.sol\":1993:2009  player[idx].addr */\n      0x01\n      add\n      0x00\n      swap1\n      sload\n      swap1\n      0x0100\n      exp\n      swap1\n      div\n      0xffffffffffffffffffffffffffffffffffffffff\n      and\n        /* \"RPS.sol\":1979:2009  msg.sender == player[idx].addr */\n      0xffffffffffffffffffffffffffffffffffffffff\n      and\n        /* \"RPS.sol\":1979:1989  msg.sender */\n      caller\n        /* \"RPS.sol\":1979:2009  msg.sender == player[idx].addr */\n      0xffffffffffffffffffffffffffffffffffffffff\n      and\n      eq\n        /* \"RPS.sol\":1971:2010  require(msg.sender == player[idx].addr) */\n      tag_172\n      jumpi\n      0x00\n      dup1\n      revert\n    tag_172:\n        /* \"RPS.sol\":2039:2040  0 */\n      0x00\n        /* \"RPS.sol\":2029:2035  choice */\n      dup4\n        /* \"RPS.sol\":2029:2040  choice >= 0 */\n      lt\n      iszero\n        /* \"RPS.sol\":2029:2055  choice >= 0 && choice <= 3 */\n      dup1\n      iszero\n      tag_173\n      jumpi\n      pop\n        /* \"RPS.sol\":2054:2055  3 */\n      0x03\n        /* \"RPS.sol\":2044:2050  choice */\n      dup4\n        /* \"RPS.sol\":2044:2055  choice <= 3 */\n      gt\n      iszero\n        /* \"RPS.sol\":2029:2055  choice >= 0 && choice <= 3 */\n    tag_173:\n        /* \"RPS.sol\":2021:2056  require(choice >= 0 && choice <= 3) */\n      tag_174\n      jumpi\n      0x00\n      dup1\n      revert\n    tag_174:\n        /* \"RPS.sol\":2099:2103  true */\n      0x01\n        /* \"RPS.sol\":2075:2103  player[idx].isCommit == true */\n      iszero\n      iszero\n        /* \"RPS.sol\":2075:2081  player */\n      0x04\n        /* \"RPS.sol\":2075:2086  player[idx] */\n      0x00\n        /* \"RPS.sol\":2082:2085  idx */\n      dup5\n        /* \"RPS.sol\":2075:2086  player[idx] */\n      dup2\n      mstore\n      0x20\n      add\n      swap1\n      dup2\n      mstore\n      0x20\n      add\n      0x00\n      keccak256\n        /* \"RPS.sol\":2075:2095  player[idx].isCommit */\n      0x01\n      add\n      0x14\n      swap1\n      sload\n      swap1\n      0x0100\n      exp\n      swap1\n      div\n      0xff\n      and\n        /* \"RPS.sol\":2075:2103  player[idx].isCommit == true */\n      iszero\n      iszero\n      eq\n        /* \"RPS.sol\":2067:2104  require(player[idx].isCommit == true) */\n      tag_175\n      jumpi\n      0x00\n      dup1\n      revert\n    tag_175:\n        /* \"RPS.sol\":2125:2141  bytes32 saltByte */\n      0x00\n        /* \"RPS.sol\":2169:2173  salt */\n      dup2\n        /* \"RPS.sol\":2152:2174  abi.encodePacked(salt) */\n      add(0x20, mload(0x40))\n      tag_176\n      swap2\n      swap1\n      tag_177\n      jump\t// in\n    tag_176:\n      mload(0x40)\n      0x20\n      dup2\n      dup4\n      sub\n      sub\n      dup2\n      mstore\n      swap1\n      0x40\n      mstore\n        /* \"RPS.sol\":2144:2175  bytes32(abi.encodePacked(salt)) */\n      tag_178\n      swap1\n      tag_179\n      jump\t// in\n    tag_178:\n        /* \"RPS.sol\":2125:2175  bytes32 saltByte = bytes32(abi.encodePacked(salt)) */\n      swap1\n      pop\n        /* \"RPS.sol\":2186:2204  bytes32 ChoiceByte */\n      0x00\n        /* \"RPS.sol\":2232:2238  choice */\n      dup5\n        /* \"RPS.sol\":2215:2239  abi.encodePacked(choice) */\n      add(0x20, mload(0x40))\n      tag_180\n      swap2\n      swap1\n      tag_181\n      jump\t// in\n    tag_180:\n      mload(0x40)\n      0x20\n      dup2\n      dup4\n      sub\n      sub\n      dup2\n      mstore\n      swap1\n      0x40\n      mstore\n        /* \"RPS.sol\":2207:2240  bytes32(abi.encodePacked(choice)) */\n      tag_182\n      swap1\n      tag_179\n      jump\t// in\n    tag_182:\n        /* \"RPS.sol\":2186:2240  bytes32 ChoiceByte = bytes32(abi.encodePacked(choice)) */\n      swap1\n      pop\n        /* \"RPS.sol\":2253:2287  revealAnswer(ChoiceByte, saltByte) */\n      tag_183\n        /* \"RPS.sol\":2266:2276  ChoiceByte */\n      dup2\n        /* \"RPS.sol\":2278:2286  saltByte */\n      dup4\n        /* \"RPS.sol\":2253:2265  revealAnswer */\n      tag_109\n        /* \"RPS.sol\":2253:2287  revealAnswer(ChoiceByte, saltByte) */\n      jump\t// in\n    tag_183:\n        /* \"RPS.sol\":2319:2325  choice */\n      dup5\n        /* \"RPS.sol\":2298:2304  player */\n      0x04\n        /* \"RPS.sol\":2298:2309  player[idx] */\n      0x00\n        /* \"RPS.sol\":2305:2308  idx */\n      dup7\n        /* \"RPS.sol\":2298:2309  player[idx] */\n      dup2\n      mstore\n      0x20\n      add\n      swap1\n      dup2\n      mstore\n      0x20\n      add\n      0x00\n      keccak256\n        /* \"RPS.sol\":2298:2316  player[idx].choice */\n      0x00\n      add\n        /* \"RPS.sol\":2298:2325  player[idx].choice = choice */\n      dup2\n      swap1\n      sstore\n      pop\n        /* \"RPS.sol\":2336:2345  numReveal */\n      0x06\n      0x00\n        /* \"RPS.sol\":2336:2347  numReveal++ */\n      dup2\n      sload\n      dup1\n      swap3\n      swap2\n      swap1\n      tag_184\n      swap1\n      tag_120\n      jump\t// in\n    tag_184:\n      swap2\n      swap1\n      pop\n      sstore\n      pop\n        /* \"RPS.sol\":2373:2388  block.timestamp */\n      timestamp\n        /* \"RPS.sol\":2360:2370  lastAction */\n      0x08\n        /* \"RPS.sol\":2360:2388  lastAction = block.timestamp */\n      dup2\n      swap1\n      sstore\n      pop\n        /* \"RPS.sol\":2418:2419  2 */\n      0x02\n        /* \"RPS.sol\":2405:2414  numReveal */\n      sload(0x06)\n        /* \"RPS.sol\":2405:2419  numReveal == 2 */\n      sub\n        /* \"RPS.sol\":2401:2491  if (numReveal == 2) {... */\n      tag_185\n      jumpi\n        /* \"RPS.sol\":2436:2456  _checkWinnerAndPay() */\n      tag_186\n        /* \"RPS.sol\":2436:2454  _checkWinnerAndPay */\n      tag_187\n        /* \"RPS.sol\":2436:2456  _checkWinnerAndPay() */\n      jump\t// in\n    tag_186:\n        /* \"RPS.sol\":2471:2479  _reset() */\n      tag_188\n        /* \"RPS.sol\":2471:2477  _reset */\n      tag_134\n        /* \"RPS.sol\":2471:2479  _reset() */\n      jump\t// in\n    tag_188:\n        /* \"RPS.sol\":2401:2491  if (numReveal == 2) {... */\n    tag_185:\n        /* \"RPS.sol\":1893:2498  {... */\n      pop\n      pop\n        /* \"RPS.sol\":1821:2498  function revealChoice(uint choice, uint idx, string memory salt) public {... */\n      pop\n      pop\n      pop\n      jump\t// out\n        /* \"CommitReveal.sol\":97:119  uint8 public max = 100 */\n    tag_52:\n      0x00\n      dup1\n      sload\n      swap1\n      0x0100\n      exp\n      swap1\n      div\n      0xff\n      and\n      dup2\n      jump\t// out\n        /* \"CommitReveal.sol\":594:1743  function reveal(bytes32 revealHash) public {... */\n    tag_58:\n        /* \"CommitReveal.sol\":748:753  false */\n      0x00\n        /* \"CommitReveal.sol\":718:753  commits[msg.sender].revealed==false */\n      iszero\n      iszero\n        /* \"CommitReveal.sol\":718:725  commits */\n      0x01\n        /* \"CommitReveal.sol\":718:737  commits[msg.sender] */\n      0x00\n        /* \"CommitReveal.sol\":726:736  msg.sender */\n      caller\n        /* \"CommitReveal.sol\":718:737  commits[msg.sender] */\n      0xffffffffffffffffffffffffffffffffffffffff\n      and\n      0xffffffffffffffffffffffffffffffffffffffff\n      and\n      dup2\n      mstore\n      0x20\n      add\n      swap1\n      dup2\n      mstore\n      0x20\n      add\n      0x00\n      keccak256\n        /* \"CommitReveal.sol\":718:746  commits[msg.sender].revealed */\n      0x01\n      add\n      0x08\n      swap1\n      sload\n      swap1\n      0x0100\n      exp\n      swap1\n      div\n      0xff\n      and\n        /* \"CommitReveal.sol\":718:753  commits[msg.sender].revealed==false */\n      iszero\n      iszero\n      eq\n        /* \"CommitReveal.sol\":710:795  require(commits[msg.sender].revealed==false,\"CommitReveal::reveal: Already revealed\") */\n      tag_190\n      jumpi\n      mload(0x40)\n      0x08c379a000000000000000000000000000000000000000000000000000000000\n      dup2\n      mstore\n      0x04\n      add\n      tag_191\n      swap1\n      tag_192\n      jump\t// in\n    tag_191:\n      mload(0x40)\n      dup1\n      swap2\n      sub\n      swap1\n      revert\n    tag_190:\n        /* \"CommitReveal.sol\":830:834  true */\n      0x01\n        /* \"CommitReveal.sol\":801:808  commits */\n      dup1\n        /* \"CommitReveal.sol\":801:820  commits[msg.sender] */\n      0x00\n        /* \"CommitReveal.sol\":809:819  msg.sender */\n      caller\n        /* \"CommitReveal.sol\":801:820  commits[msg.sender] */\n      0xffffffffffffffffffffffffffffffffffffffff\n      and\n      0xffffffffffffffffffffffffffffffffffffffff\n      and\n      dup2\n      mstore\n      0x20\n      add\n      swap1\n      dup2\n      mstore\n      0x20\n      add\n      0x00\n      keccak256\n        /* \"CommitReveal.sol\":801:829  commits[msg.sender].revealed */\n      0x01\n      add\n      0x08\n        /* \"CommitReveal.sol\":801:834  commits[msg.sender].revealed=true */\n      0x0100\n      exp\n      dup2\n      sload\n      dup2\n      0xff\n      mul\n      not\n      and\n      swap1\n      dup4\n      iszero\n      iszero\n      mul\n      or\n      swap1\n      sstore\n      pop\n        /* \"CommitReveal.sol\":924:931  commits */\n      0x01\n        /* \"CommitReveal.sol\":924:943  commits[msg.sender] */\n      0x00\n        /* \"CommitReveal.sol\":932:942  msg.sender */\n      caller\n        /* \"CommitReveal.sol\":924:943  commits[msg.sender] */\n      0xffffffffffffffffffffffffffffffffffffffff\n      and\n      0xffffffffffffffffffffffffffffffffffffffff\n      and\n      dup2\n      mstore\n      0x20\n      add\n      swap1\n      dup2\n      mstore\n      0x20\n      add\n      0x00\n      keccak256\n        /* \"CommitReveal.sol\":924:950  commits[msg.sender].commit */\n      0x00\n      add\n      sload\n        /* \"CommitReveal.sol\":903:922  getHash(revealHash) */\n      tag_193\n        /* \"CommitReveal.sol\":911:921  revealHash */\n      dup3\n        /* \"CommitReveal.sol\":903:910  getHash */\n      tag_39\n        /* \"CommitReveal.sol\":903:922  getHash(revealHash) */\n      jump\t// in\n    tag_193:\n        /* \"CommitReveal.sol\":903:950  getHash(revealHash)==commits[msg.sender].commit */\n      eq\n        /* \"CommitReveal.sol\":895:1011  require(getHash(revealHash)==commits[msg.sender].commit,\"CommitReveal::reveal: Revealed hash does not match commit\") */\n      tag_194\n      jumpi\n      mload(0x40)\n      0x08c379a000000000000000000000000000000000000000000000000000000000\n      dup2\n      mstore\n      0x04\n      add\n      tag_195\n      swap1\n      tag_196\n      jump\t// in\n    tag_195:\n      mload(0x40)\n      dup1\n      swap2\n      sub\n      swap1\n      revert\n    tag_194:\n        /* \"CommitReveal.sol\":1117:1124  commits */\n      0x01\n        /* \"CommitReveal.sol\":1117:1136  commits[msg.sender] */\n      0x00\n        /* \"CommitReveal.sol\":1125:1135  msg.sender */\n      caller\n        /* \"CommitReveal.sol\":1117:1136  commits[msg.sender] */\n      0xffffffffffffffffffffffffffffffffffffffff\n      and\n      0xffffffffffffffffffffffffffffffffffffffff\n      and\n      dup2\n      mstore\n      0x20\n      add\n      swap1\n      dup2\n      mstore\n      0x20\n      add\n      0x00\n      keccak256\n        /* \"CommitReveal.sol\":1117:1142  commits[msg.sender].block */\n      0x01\n      add\n      0x00\n      swap1\n      sload\n      swap1\n      0x0100\n      exp\n      swap1\n      div\n      0xffffffffffffffff\n      and\n        /* \"CommitReveal.sol\":1096:1142  uint64(block.number)>commits[msg.sender].block */\n      0xffffffffffffffff\n      and\n        /* \"CommitReveal.sol\":1103:1115  block.number */\n      number\n        /* \"CommitReveal.sol\":1096:1142  uint64(block.number)>commits[msg.sender].block */\n      0xffffffffffffffff\n      and\n      gt\n        /* \"CommitReveal.sol\":1088:1212  require(uint64(block.number)>commits[msg.sender].block,\"CommitReveal::reveal: Reveal and commit happened on the same block\") */\n      tag_197\n      jumpi\n      mload(0x40)\n      0x08c379a000000000000000000000000000000000000000000000000000000000\n      dup2\n      mstore\n      0x04\n      add\n      tag_198\n      swap1\n      tag_199\n      jump\t// in\n    tag_198:\n      mload(0x40)\n      dup1\n      swap2\n      sub\n      swap1\n      revert\n    tag_197:\n        /* \"CommitReveal.sol\":1329:1332  250 */\n      0xfa\n        /* \"CommitReveal.sol\":1303:1310  commits */\n      0x01\n        /* \"CommitReveal.sol\":1303:1322  commits[msg.sender] */\n      0x00\n        /* \"CommitReveal.sol\":1311:1321  msg.sender */\n      caller\n        /* \"CommitReveal.sol\":1303:1322  commits[msg.sender] */\n      0xffffffffffffffffffffffffffffffffffffffff\n      and\n      0xffffffffffffffffffffffffffffffffffffffff\n      and\n      dup2\n      mstore\n      0x20\n      add\n      swap1\n      dup2\n      mstore\n      0x20\n      add\n      0x00\n      keccak256\n        /* \"CommitReveal.sol\":1303:1328  commits[msg.sender].block */\n      0x01\n      add\n      0x00\n      swap1\n      sload\n      swap1\n      0x0100\n      exp\n      swap1\n      div\n      0xffffffffffffffff\n      and\n        /* \"CommitReveal.sol\":1303:1332  commits[msg.sender].block+250 */\n      tag_200\n      swap2\n      swap1\n      tag_201\n      jump\t// in\n    tag_200:\n        /* \"CommitReveal.sol\":1281:1332  uint64(block.number)<=commits[msg.sender].block+250 */\n      0xffffffffffffffff\n      and\n        /* \"CommitReveal.sol\":1288:1300  block.number */\n      number\n        /* \"CommitReveal.sol\":1281:1332  uint64(block.number)<=commits[msg.sender].block+250 */\n      0xffffffffffffffff\n      and\n      gt\n      iszero\n        /* \"CommitReveal.sol\":1273:1375  require(uint64(block.number)<=commits[msg.sender].block+250,\"CommitReveal::reveal: Revealed too late\") */\n      tag_202\n      jumpi\n      mload(0x40)\n      0x08c379a000000000000000000000000000000000000000000000000000000000\n      dup2\n      mstore\n      0x04\n      add\n      tag_203\n      swap1\n      tag_204\n      jump\t// in\n    tag_203:\n      mload(0x40)\n      dup1\n      swap2\n      sub\n      swap1\n      revert\n    tag_202:\n        /* \"CommitReveal.sol\":1448:1465  bytes32 blockHash */\n      0x00\n        /* \"CommitReveal.sol\":1478:1485  commits */\n      0x01\n        /* \"CommitReveal.sol\":1478:1497  commits[msg.sender] */\n      0x00\n        /* \"CommitReveal.sol\":1486:1496  msg.sender */\n      caller\n        /* \"CommitReveal.sol\":1478:1497  commits[msg.sender] */\n      0xffffffffffffffffffffffffffffffffffffffff\n      and\n      0xffffffffffffffffffffffffffffffffffffffff\n      and\n      dup2\n      mstore\n      0x20\n      add\n      swap1\n      dup2\n      mstore\n      0x20\n      add\n      0x00\n      keccak256\n        /* \"CommitReveal.sol\":1478:1503  commits[msg.sender].block */\n      0x01\n      add\n      0x00\n      swap1\n      sload\n      swap1\n      0x0100\n      exp\n      swap1\n      div\n      0xffffffffffffffff\n      and\n        /* \"CommitReveal.sol\":1468:1504  blockhash(commits[msg.sender].block) */\n      0xffffffffffffffff\n      and\n      blockhash\n        /* \"CommitReveal.sol\":1448:1504  bytes32 blockHash = blockhash(commits[msg.sender].block) */\n      swap1\n      pop\n        /* \"CommitReveal.sol\":1614:1625  uint random */\n      0x00\n        /* \"CommitReveal.sol\":1684:1687  max */\n      dup1\n      0x00\n      swap1\n      sload\n      swap1\n      0x0100\n      exp\n      swap1\n      div\n      0xff\n      and\n        /* \"CommitReveal.sol\":1628:1687  uint(keccak256(abi.encodePacked(blockHash,revealHash)))%max */\n      0xff\n      and\n        /* \"CommitReveal.sol\":1660:1669  blockHash */\n      dup3\n        /* \"CommitReveal.sol\":1670:1680  revealHash */\n      dup5\n        /* \"CommitReveal.sol\":1643:1681  abi.encodePacked(blockHash,revealHash) */\n      add(0x20, mload(0x40))\n      tag_205\n      swap3\n      swap2\n      swap1\n      tag_206\n      jump\t// in\n    tag_205:\n      mload(0x40)\n      0x20\n      dup2\n      dup4\n      sub\n      sub\n      dup2\n      mstore\n      swap1\n      0x40\n      mstore\n        /* \"CommitReveal.sol\":1633:1682  keccak256(abi.encodePacked(blockHash,revealHash)) */\n      dup1\n      mload\n      swap1\n      0x20\n      add\n      keccak256\n        /* \"CommitReveal.sol\":1628:1683  uint(keccak256(abi.encodePacked(blockHash,revealHash))) */\n      0x00\n      shr\n        /* \"CommitReveal.sol\":1628:1687  uint(keccak256(abi.encodePacked(blockHash,revealHash)))%max */\n      tag_207\n      swap2\n      swap1\n      tag_208\n      jump\t// in\n    tag_207:\n        /* \"CommitReveal.sol\":1614:1687  uint random = uint(keccak256(abi.encodePacked(blockHash,revealHash)))%max */\n      swap1\n      pop\n        /* \"CommitReveal.sol\":1698:1738  RevealHash(msg.sender,revealHash,random) */\n      0xbc016dd1cadeaefcb851af7a0a93532e0023d536894b730801f7bcfe7065bcc2\n        /* \"CommitReveal.sol\":1709:1719  msg.sender */\n      caller\n        /* \"CommitReveal.sol\":1720:1730  revealHash */\n      dup5\n        /* \"CommitReveal.sol\":1731:1737  random */\n      dup4\n        /* \"CommitReveal.sol\":1698:1738  RevealHash(msg.sender,revealHash,random) */\n      mload(0x40)\n      tag_209\n      swap4\n      swap3\n      swap2\n      swap1\n      tag_210\n      jump\t// in\n    tag_209:\n      mload(0x40)\n      dup1\n      swap2\n      sub\n      swap1\n      log1\n        /* \"CommitReveal.sol\":637:1743  {... */\n      pop\n      pop\n        /* \"CommitReveal.sol\":594:1743  function reveal(bytes32 revealHash) public {... */\n      pop\n      jump\t// out\n        /* \"CommitReveal.sol\":204:246  mapping (address => Commit) public commits */\n    tag_63:\n      mstore(0x20, 0x01)\n      dup1\n      0x00\n      mstore\n      keccak256(0x00, 0x40)\n      0x00\n      swap2\n      pop\n      swap1\n      pop\n      dup1\n      0x00\n      add\n      sload\n      swap1\n      dup1\n      0x01\n      add\n      0x00\n      swap1\n      sload\n      swap1\n      0x0100\n      exp\n      swap1\n      div\n      0xffffffffffffffff\n      and\n      swap1\n      dup1\n      0x01\n      add\n      0x08\n      swap1\n      sload\n      swap1\n      0x0100\n      exp\n      swap1\n      div\n      0xff\n      and\n      swap1\n      pop\n      dup4\n      jump\t// out\n        /* \"RPS.sol\":508:548  uint public lastAction = block.timestamp */\n    tag_68:\n      sload(0x08)\n      dup2\n      jump\t// out\n        /* \"CommitReveal.sol\":2520:2670  function getSaltedHash(bytes32 data,bytes32 salt) public view returns(bytes32){... */\n    tag_74:\n        /* \"CommitReveal.sol\":2590:2597  bytes32 */\n      0x00\n        /* \"CommitReveal.sol\":2646:2650  this */\n      address\n        /* \"CommitReveal.sol\":2653:2657  data */\n      dup4\n        /* \"CommitReveal.sol\":2659:2663  salt */\n      dup4\n        /* \"CommitReveal.sol\":2621:2664  abi.encodePacked(address(this), data, salt) */\n      add(0x20, mload(0x40))\n      tag_212\n      swap4\n      swap3\n      swap2\n      swap1\n      tag_213\n      jump\t// in\n    tag_212:\n      mload(0x40)\n      0x20\n      dup2\n      dup4\n      sub\n      sub\n      dup2\n      mstore\n      swap1\n      0x40\n      mstore\n        /* \"CommitReveal.sol\":2611:2665  keccak256(abi.encodePacked(address(this), data, salt)) */\n      dup1\n      mload\n      swap1\n      0x20\n      add\n      keccak256\n        /* \"CommitReveal.sol\":2604:2665  return keccak256(abi.encodePacked(address(this), data, salt)) */\n      swap1\n      pop\n        /* \"CommitReveal.sol\":2520:2670  function getSaltedHash(bytes32 data,bytes32 salt) public view returns(bytes32){... */\n      swap3\n      swap2\n      pop\n      pop\n      jump\t// out\n        /* \"RPS.sol\":292:317  uint public numPlayer = 0 */\n    tag_78:\n      sload(0x02)\n      dup2\n      jump\t// out\n        /* \"RPS.sol\":353:391  mapping (uint => Player) public player */\n    tag_84:\n      mstore(0x20, 0x04)\n      dup1\n      0x00\n      mstore\n      keccak256(0x00, 0x40)\n      0x00\n      swap2\n      pop\n      swap1\n      pop\n      dup1\n      0x00\n      add\n      sload\n      swap1\n      dup1\n      0x01\n      add\n      0x00\n      swap1\n      sload\n      swap1\n      0x0100\n      exp\n      swap1\n      div\n      0xffffffffffffffffffffffffffffffffffffffff\n      and\n      swap1\n      dup1\n      0x01\n      add\n      0x14\n      swap1\n      sload\n      swap1\n      0x0100\n      exp\n      swap1\n      div\n      0xff\n      and\n      swap1\n      pop\n      dup4\n      jump\t// out\n        /* \"RPS.sol\":461:501  uint public deadlineDuration = 1 minutes */\n    tag_89:\n      sload(0x07)\n      dup2\n      jump\t// out\n        /* \"RPS.sol\":429:454  uint public numReveal = 0 */\n    tag_93:\n      sload(0x06)\n      dup2\n      jump\t// out\n        /* \"RPS.sol\":1017:1333  function getBytes32(uint choice, string memory salt) view  public returns (bytes32){... */\n    tag_99:\n        /* \"RPS.sol\":1092:1099  bytes32 */\n      0x00\n        /* \"RPS.sol\":1129:1130  0 */\n      dup1\n        /* \"RPS.sol\":1119:1125  choice */\n      dup4\n        /* \"RPS.sol\":1119:1130  choice >= 0 */\n      lt\n      iszero\n        /* \"RPS.sol\":1119:1145  choice >= 0 && choice <= 3 */\n      dup1\n      iszero\n      tag_215\n      jumpi\n      pop\n        /* \"RPS.sol\":1144:1145  3 */\n      0x03\n        /* \"RPS.sol\":1134:1140  choice */\n      dup4\n        /* \"RPS.sol\":1134:1145  choice <= 3 */\n      gt\n      iszero\n        /* \"RPS.sol\":1119:1145  choice >= 0 && choice <= 3 */\n    tag_215:\n        /* \"RPS.sol\":1111:1146  require(choice >= 0 && choice <= 3) */\n      tag_216\n      jumpi\n      0x00\n      dup1\n      revert\n    tag_216:\n        /* \"RPS.sol\":1157:1173  bytes32 saltByte */\n      0x00\n        /* \"RPS.sol\":1201:1205  salt */\n      dup3\n        /* \"RPS.sol\":1184:1206  abi.encodePacked(salt) */\n      add(0x20, mload(0x40))\n      tag_217\n      swap2\n      swap1\n      tag_177\n      jump\t// in\n    tag_217:\n      mload(0x40)\n      0x20\n      dup2\n      dup4\n      sub\n      sub\n      dup2\n      mstore\n      swap1\n      0x40\n      mstore\n        /* \"RPS.sol\":1176:1207  bytes32(abi.encodePacked(salt)) */\n      tag_218\n      swap1\n      tag_179\n      jump\t// in\n    tag_218:\n        /* \"RPS.sol\":1157:1207  bytes32 saltByte = bytes32(abi.encodePacked(salt)) */\n      swap1\n      pop\n        /* \"RPS.sol\":1218:1236  bytes32 ChoiceByte */\n      0x00\n        /* \"RPS.sol\":1264:1270  choice */\n      dup5\n        /* \"RPS.sol\":1247:1271  abi.encodePacked(choice) */\n      add(0x20, mload(0x40))\n      tag_219\n      swap2\n      swap1\n      tag_181\n      jump\t// in\n    tag_219:\n      mload(0x40)\n      0x20\n      dup2\n      dup4\n      sub\n      sub\n      dup2\n      mstore\n      swap1\n      0x40\n      mstore\n        /* \"RPS.sol\":1239:1272  bytes32(abi.encodePacked(choice)) */\n      tag_220\n      swap1\n      tag_179\n      jump\t// in\n    tag_220:\n        /* \"RPS.sol\":1218:1272  bytes32 ChoiceByte = bytes32(abi.encodePacked(choice)) */\n      swap1\n      pop\n        /* \"RPS.sol\":1290:1325  getSaltedHash(ChoiceByte, saltByte) */\n      tag_221\n        /* \"RPS.sol\":1304:1314  ChoiceByte */\n      dup2\n        /* \"RPS.sol\":1316:1324  saltByte */\n      dup4\n        /* \"RPS.sol\":1290:1303  getSaltedHash */\n      tag_74\n        /* \"RPS.sol\":1290:1325  getSaltedHash(ChoiceByte, saltByte) */\n      jump\t// in\n    tag_221:\n        /* \"RPS.sol\":1283:1325  return getSaltedHash(ChoiceByte, saltByte) */\n      swap3\n      pop\n      pop\n      pop\n        /* \"RPS.sol\":1017:1333  function getBytes32(uint choice, string memory salt) view  public returns (bytes32){... */\n      swap3\n      swap2\n      pop\n      pop\n      jump\t// out\n        /* \"RPS.sol\":1341:1745  function input(bytes32 hashAns, uint idx) public  {... */\n    tag_105:\n        /* \"RPS.sol\":1423:1424  2 */\n      0x02\n        /* \"RPS.sol\":1410:1419  numPlayer */\n      dup1\n      sload\n        /* \"RPS.sol\":1410:1424  numPlayer == 2 */\n      eq\n        /* \"RPS.sol\":1402:1425  require(numPlayer == 2) */\n      tag_223\n      jumpi\n      0x00\n      dup1\n      revert\n    tag_223:\n        /* \"RPS.sol\":1455:1456  2 */\n      0x02\n        /* \"RPS.sol\":1444:1452  numInput */\n      sload(0x05)\n        /* \"RPS.sol\":1444:1456  numInput < 2 */\n      lt\n        /* \"RPS.sol\":1436:1457  require(numInput < 2) */\n      tag_224\n      jumpi\n      0x00\n      dup1\n      revert\n    tag_224:\n        /* \"RPS.sol\":1490:1496  player */\n      0x04\n        /* \"RPS.sol\":1490:1501  player[idx] */\n      0x00\n        /* \"RPS.sol\":1497:1500  idx */\n      dup3\n        /* \"RPS.sol\":1490:1501  player[idx] */\n      dup2\n      mstore\n      0x20\n      add\n      swap1\n      dup2\n      mstore\n      0x20\n      add\n      0x00\n      keccak256\n        /* \"RPS.sol\":1490:1506  player[idx].addr */\n      0x01\n      add\n      0x00\n      swap1\n      sload\n      swap1\n      0x0100\n      exp\n      swap1\n      div\n      0xffffffffffffffffffffffffffffffffffffffff\n      and\n        /* \"RPS.sol\":1476:1506  msg.sender == player[idx].addr */\n      0xffffffffffffffffffffffffffffffffffffffff\n      and\n        /* \"RPS.sol\":1476:1486  msg.sender */\n      caller\n        /* \"RPS.sol\":1476:1506  msg.sender == player[idx].addr */\n      0xffffffffffffffffffffffffffffffffffffffff\n      and\n      eq\n        /* \"RPS.sol\":1468:1507  require(msg.sender == player[idx].addr) */\n      tag_225\n      jumpi\n      0x00\n      dup1\n      revert\n    tag_225:\n        /* \"RPS.sol\":1550:1555  false */\n      0x00\n        /* \"RPS.sol\":1526:1555  player[idx].isCommit == false */\n      iszero\n      iszero\n        /* \"RPS.sol\":1526:1532  player */\n      0x04\n        /* \"RPS.sol\":1526:1537  player[idx] */\n      0x00\n        /* \"RPS.sol\":1533:1536  idx */\n      dup4\n        /* \"RPS.sol\":1526:1537  player[idx] */\n      dup2\n      mstore\n      0x20\n      add\n      swap1\n      dup2\n      mstore\n      0x20\n      add\n      0x00\n      keccak256\n        /* \"RPS.sol\":1526:1546  player[idx].isCommit */\n      0x01\n      add\n      0x14\n      swap1\n      sload\n      swap1\n      0x0100\n      exp\n      swap1\n      div\n      0xff\n      and\n        /* \"RPS.sol\":1526:1555  player[idx].isCommit == false */\n      iszero\n      iszero\n      eq\n        /* \"RPS.sol\":1518:1556  require(player[idx].isCommit == false) */\n      tag_226\n      jumpi\n      0x00\n      dup1\n      revert\n    tag_226:\n        /* \"RPS.sol\":1590:1594  true */\n      0x01\n        /* \"RPS.sol\":1567:1573  player */\n      0x04\n        /* \"RPS.sol\":1567:1578  player[idx] */\n      0x00\n        /* \"RPS.sol\":1574:1577  idx */\n      dup4\n        /* \"RPS.sol\":1567:1578  player[idx] */\n      dup2\n      mstore\n      0x20\n      add\n      swap1\n      dup2\n      mstore\n      0x20\n      add\n      0x00\n      keccak256\n        /* \"RPS.sol\":1567:1587  player[idx].isCommit */\n      0x01\n      add\n      0x14\n        /* \"RPS.sol\":1567:1594  player[idx].isCommit = true */\n      0x0100\n      exp\n      dup2\n      sload\n      dup2\n      0xff\n      mul\n      not\n      and\n      swap1\n      dup4\n      iszero\n      iszero\n      mul\n      or\n      swap1\n      sstore\n      pop\n        /* \"RPS.sol\":1605:1620  commit(hashAns) */\n      tag_227\n        /* \"RPS.sol\":1612:1619  hashAns */\n      dup3\n        /* \"RPS.sol\":1605:1611  commit */\n      tag_113\n        /* \"RPS.sol\":1605:1620  commit(hashAns) */\n      jump\t// in\n    tag_227:\n        /* \"RPS.sol\":1631:1639  numInput */\n      0x05\n      0x00\n        /* \"RPS.sol\":1631:1641  numInput++ */\n      dup2\n      sload\n      dup1\n      swap3\n      swap2\n      swap1\n      tag_228\n      swap1\n      tag_120\n      jump\t// in\n    tag_228:\n      swap2\n      swap1\n      pop\n      sstore\n      pop\n        /* \"RPS.sol\":1657:1696  playerCommitHashed(msg.sender,numInput) */\n      0x3928cc5abcbb1c0b781bebbc4f1e9b156f6d392796c791cc0937db5e42677ff7\n        /* \"RPS.sol\":1676:1686  msg.sender */\n      caller\n        /* \"RPS.sol\":1687:1695  numInput */\n      sload(0x05)\n        /* \"RPS.sol\":1657:1696  playerCommitHashed(msg.sender,numInput) */\n      mload(0x40)\n      tag_229\n      swap3\n      swap2\n      swap1\n      tag_122\n      jump\t// in\n    tag_229:\n      mload(0x40)\n      dup1\n      swap2\n      sub\n      swap1\n      log1\n        /* \"RPS.sol\":1722:1737  block.timestamp */\n      timestamp\n        /* \"RPS.sol\":1709:1719  lastAction */\n      0x08\n        /* \"RPS.sol\":1709:1737  lastAction = block.timestamp */\n      dup2\n      swap1\n      sstore\n      pop\n        /* \"RPS.sol\":1341:1745  function input(bytes32 hashAns, uint idx) public  {... */\n      pop\n      pop\n      jump\t// out\n        /* \"CommitReveal.sol\":1945:2448  function revealAnswer(bytes32 answer,bytes32 salt) public {... */\n    tag_109:\n        /* \"CommitReveal.sol\":2114:2119  false */\n      0x00\n        /* \"CommitReveal.sol\":2084:2119  commits[msg.sender].revealed==false */\n      iszero\n      iszero\n        /* \"CommitReveal.sol\":2084:2091  commits */\n      0x01\n        /* \"CommitReveal.sol\":2084:2103  commits[msg.sender] */\n      0x00\n        /* \"CommitReveal.sol\":2092:2102  msg.sender */\n      caller\n        /* \"CommitReveal.sol\":2084:2103  commits[msg.sender] */\n      0xffffffffffffffffffffffffffffffffffffffff\n      and\n      0xffffffffffffffffffffffffffffffffffffffff\n      and\n      dup2\n      mstore\n      0x20\n      add\n      swap1\n      dup2\n      mstore\n      0x20\n      add\n      0x00\n      keccak256\n        /* \"CommitReveal.sol\":2084:2112  commits[msg.sender].revealed */\n      0x01\n      add\n      0x08\n      swap1\n      sload\n      swap1\n      0x0100\n      exp\n      swap1\n      div\n      0xff\n      and\n        /* \"CommitReveal.sol\":2084:2119  commits[msg.sender].revealed==false */\n      iszero\n      iszero\n      eq\n        /* \"CommitReveal.sol\":2076:2167  require(commits[msg.sender].revealed==false,\"CommitReveal::revealAnswer: Already revealed\") */\n      tag_231\n      jumpi\n      mload(0x40)\n      0x08c379a000000000000000000000000000000000000000000000000000000000\n      dup2\n      mstore\n      0x04\n      add\n      tag_232\n      swap1\n      tag_233\n      jump\t// in\n    tag_232:\n      mload(0x40)\n      dup1\n      swap2\n      sub\n      swap1\n      revert\n    tag_231:\n        /* \"CommitReveal.sol\":2202:2206  true */\n      0x01\n        /* \"CommitReveal.sol\":2173:2180  commits */\n      dup1\n        /* \"CommitReveal.sol\":2173:2192  commits[msg.sender] */\n      0x00\n        /* \"CommitReveal.sol\":2181:2191  msg.sender */\n      caller\n        /* \"CommitReveal.sol\":2173:2192  commits[msg.sender] */\n      0xffffffffffffffffffffffffffffffffffffffff\n      and\n      0xffffffffffffffffffffffffffffffffffffffff\n      and\n      dup2\n      mstore\n      0x20\n      add\n      swap1\n      dup2\n      mstore\n      0x20\n      add\n      0x00\n      keccak256\n        /* \"CommitReveal.sol\":2173:2201  commits[msg.sender].revealed */\n      0x01\n      add\n      0x08\n        /* \"CommitReveal.sol\":2173:2206  commits[msg.sender].revealed=true */\n      0x0100\n      exp\n      dup2\n      sload\n      dup2\n      0xff\n      mul\n      not\n      and\n      swap1\n      dup4\n      iszero\n      iszero\n      mul\n      or\n      swap1\n      sstore\n      pop\n        /* \"CommitReveal.sol\":2303:2310  commits */\n      0x01\n        /* \"CommitReveal.sol\":2303:2322  commits[msg.sender] */\n      0x00\n        /* \"CommitReveal.sol\":2311:2321  msg.sender */\n      caller\n        /* \"CommitReveal.sol\":2303:2322  commits[msg.sender] */\n      0xffffffffffffffffffffffffffffffffffffffff\n      and\n      0xffffffffffffffffffffffffffffffffffffffff\n      and\n      dup2\n      mstore\n      0x20\n      add\n      swap1\n      dup2\n      mstore\n      0x20\n      add\n      0x00\n      keccak256\n        /* \"CommitReveal.sol\":2303:2329  commits[msg.sender].commit */\n      0x00\n      add\n      sload\n        /* \"CommitReveal.sol\":2275:2301  getSaltedHash(answer,salt) */\n      tag_234\n        /* \"CommitReveal.sol\":2289:2295  answer */\n      dup4\n        /* \"CommitReveal.sol\":2296:2300  salt */\n      dup4\n        /* \"CommitReveal.sol\":2275:2288  getSaltedHash */\n      tag_74\n        /* \"CommitReveal.sol\":2275:2301  getSaltedHash(answer,salt) */\n      jump\t// in\n    tag_234:\n        /* \"CommitReveal.sol\":2275:2329  getSaltedHash(answer,salt)==commits[msg.sender].commit */\n      eq\n        /* \"CommitReveal.sol\":2267:2396  require(getSaltedHash(answer,salt)==commits[msg.sender].commit,\"CommitReveal::revealAnswer: Revealed hash does not match commit\") */\n      tag_235\n      jumpi\n      mload(0x40)\n      0x08c379a000000000000000000000000000000000000000000000000000000000\n      dup2\n      mstore\n      0x04\n      add\n      tag_236\n      swap1\n      tag_237\n      jump\t// in\n    tag_236:\n      mload(0x40)\n      dup1\n      swap2\n      sub\n      swap1\n      revert\n    tag_235:\n        /* \"CommitReveal.sol\":2407:2443  RevealAnswer(msg.sender,answer,salt) */\n      0x8bed02c4d61e56ed1d90657e7a0ba48f15cca20fcc2899d7235221b2cb0423a6\n        /* \"CommitReveal.sol\":2420:2430  msg.sender */\n      caller\n        /* \"CommitReveal.sol\":2431:2437  answer */\n      dup4\n        /* \"CommitReveal.sol\":2438:2442  salt */\n      dup4\n        /* \"CommitReveal.sol\":2407:2443  RevealAnswer(msg.sender,answer,salt) */\n      mload(0x40)\n      tag_238\n      swap4\n      swap3\n      swap2\n      swap1\n      tag_239\n      jump\t// in\n    tag_238:\n      mload(0x40)\n      dup1\n      swap2\n      sub\n      swap1\n      log1\n        /* \"CommitReveal.sol\":1945:2448  function revealAnswer(bytes32 answer,bytes32 salt) public {... */\n      pop\n      pop\n      jump\t// out\n        /* \"CommitReveal.sol\":251:522  function commit(bytes32 dataHash) public {... */\n    tag_113:\n        /* \"CommitReveal.sol\":327:335  dataHash */\n      dup1\n        /* \"CommitReveal.sol\":298:305  commits */\n      0x01\n        /* \"CommitReveal.sol\":298:317  commits[msg.sender] */\n      0x00\n        /* \"CommitReveal.sol\":306:316  msg.sender */\n      caller\n        /* \"CommitReveal.sol\":298:317  commits[msg.sender] */\n      0xffffffffffffffffffffffffffffffffffffffff\n      and\n      0xffffffffffffffffffffffffffffffffffffffff\n      and\n      dup2\n      mstore\n      0x20\n      add\n      swap1\n      dup2\n      mstore\n      0x20\n      add\n      0x00\n      keccak256\n        /* \"CommitReveal.sol\":298:324  commits[msg.sender].commit */\n      0x00\n      add\n        /* \"CommitReveal.sol\":298:335  commits[msg.sender].commit = dataHash */\n      dup2\n      swap1\n      sstore\n      pop\n        /* \"CommitReveal.sol\":376:388  block.number */\n      number\n        /* \"CommitReveal.sol\":341:348  commits */\n      0x01\n        /* \"CommitReveal.sol\":341:360  commits[msg.sender] */\n      0x00\n        /* \"CommitReveal.sol\":349:359  msg.sender */\n      caller\n        /* \"CommitReveal.sol\":341:360  commits[msg.sender] */\n      0xffffffffffffffffffffffffffffffffffffffff\n      and\n      0xffffffffffffffffffffffffffffffffffffffff\n      and\n      dup2\n      mstore\n      0x20\n      add\n      swap1\n      dup2\n      mstore\n      0x20\n      add\n      0x00\n      keccak256\n        /* \"CommitReveal.sol\":341:366  commits[msg.sender].block */\n      0x01\n      add\n      0x00\n        /* \"CommitReveal.sol\":341:389  commits[msg.sender].block = uint64(block.number) */\n      0x0100\n      exp\n      dup2\n      sload\n      dup2\n      0xffffffffffffffff\n      mul\n      not\n      and\n      swap1\n      dup4\n      0xffffffffffffffff\n      and\n      mul\n      or\n      swap1\n      sstore\n      pop\n        /* \"CommitReveal.sol\":426:431  false */\n      0x00\n        /* \"CommitReveal.sol\":395:402  commits */\n      0x01\n        /* \"CommitReveal.sol\":395:414  commits[msg.sender] */\n      0x00\n        /* \"CommitReveal.sol\":403:413  msg.sender */\n      caller\n        /* \"CommitReveal.sol\":395:414  commits[msg.sender] */\n      0xffffffffffffffffffffffffffffffffffffffff\n      and\n      0xffffffffffffffffffffffffffffffffffffffff\n      and\n      dup2\n      mstore\n      0x20\n      add\n      swap1\n      dup2\n      mstore\n      0x20\n      add\n      0x00\n      keccak256\n        /* \"CommitReveal.sol\":395:423  commits[msg.sender].revealed */\n      0x01\n      add\n      0x08\n        /* \"CommitReveal.sol\":395:431  commits[msg.sender].revealed = false */\n      0x0100\n      exp\n      dup2\n      sload\n      dup2\n      0xff\n      mul\n      not\n      and\n      swap1\n      dup4\n      iszero\n      iszero\n      mul\n      or\n      swap1\n      sstore\n      pop\n        /* \"CommitReveal.sol\":442:517  CommitHash(msg.sender,commits[msg.sender].commit,commits[msg.sender].block) */\n      0x3c1a1f8f38335b17f751c6da4ba7d1865f26b3997535176f5080de9fad891603\n        /* \"CommitReveal.sol\":453:463  msg.sender */\n      caller\n        /* \"CommitReveal.sol\":464:471  commits */\n      0x01\n        /* \"CommitReveal.sol\":464:483  commits[msg.sender] */\n      0x00\n        /* \"CommitReveal.sol\":472:482  msg.sender */\n      caller\n        /* \"CommitReveal.sol\":464:483  commits[msg.sender] */\n      0xffffffffffffffffffffffffffffffffffffffff\n      and\n      0xffffffffffffffffffffffffffffffffffffffff\n      and\n      dup2\n      mstore\n      0x20\n      add\n      swap1\n      dup2\n      mstore\n      0x20\n      add\n      0x00\n      keccak256\n        /* \"CommitReveal.sol\":464:490  commits[msg.sender].commit */\n      0x00\n      add\n      sload\n        /* \"CommitReveal.sol\":491:498  commits */\n      0x01\n        /* \"CommitReveal.sol\":491:510  commits[msg.sender] */\n      0x00\n        /* \"CommitReveal.sol\":499:509  msg.sender */\n      caller\n        /* \"CommitReveal.sol\":491:510  commits[msg.sender] */\n      0xffffffffffffffffffffffffffffffffffffffff\n      and\n      0xffffffffffffffffffffffffffffffffffffffff\n      and\n      dup2\n      mstore\n      0x20\n      add\n      swap1\n      dup2\n      mstore\n      0x20\n      add\n      0x00\n      keccak256\n        /* \"CommitReveal.sol\":491:516  commits[msg.sender].block */\n      0x01\n      add\n      0x00\n      swap1\n      sload\n      swap1\n      0x0100\n      exp\n      swap1\n      div\n      0xffffffffffffffff\n      and\n        /* \"CommitReveal.sol\":442:517  CommitHash(msg.sender,commits[msg.sender].commit,commits[msg.sender].block) */\n      mload(0x40)\n      tag_241\n      swap4\n      swap3\n      swap2\n      swap1\n      tag_242\n      jump\t// in\n    tag_241:\n      mload(0x40)\n      dup1\n      swap2\n      sub\n      swap1\n      log1\n        /* \"CommitReveal.sol\":251:522  function commit(bytes32 dataHash) public {... */\n      pop\n      jump\t// out\n        /* \"RPS.sol\":3186:3312  function _reset() private {... */\n    tag_134:\n        /* \"RPS.sol\":3235:3236  0 */\n      0x00\n        /* \"RPS.sol\":3223:3232  numPlayer */\n      0x02\n        /* \"RPS.sol\":3223:3236  numPlayer = 0 */\n      dup2\n      swap1\n      sstore\n      pop\n        /* \"RPS.sol\":3256:3257  0 */\n      0x00\n        /* \"RPS.sol\":3247:3253  reward */\n      0x03\n        /* \"RPS.sol\":3247:3257  reward = 0 */\n      dup2\n      swap1\n      sstore\n      pop\n        /* \"RPS.sol\":3279:3280  0 */\n      0x00\n        /* \"RPS.sol\":3268:3276  numInput */\n      0x05\n        /* \"RPS.sol\":3268:3280  numInput = 0 */\n      dup2\n      swap1\n      sstore\n      pop\n        /* \"RPS.sol\":3303:3304  0 */\n      0x00\n        /* \"RPS.sol\":3291:3300  numReveal */\n      0x06\n        /* \"RPS.sol\":3291:3304  numReveal = 0 */\n      dup2\n      swap1\n      sstore\n      pop\n        /* \"RPS.sol\":3186:3312  function _reset() private {... */\n      jump\t// out\n        /* \"RPS.sol\":2506:3178  function _checkWinnerAndPay() private {... */\n    tag_187:\n        /* \"RPS.sol\":2555:2568  uint p0Choice */\n      0x00\n        /* \"RPS.sol\":2571:2577  player */\n      0x04\n        /* \"RPS.sol\":2571:2580  player[0] */\n      0x00\n        /* \"RPS.sol\":2578:2579  0 */\n      dup1\n        /* \"RPS.sol\":2571:2580  player[0] */\n      dup2\n      mstore\n      0x20\n      add\n      swap1\n      dup2\n      mstore\n      0x20\n      add\n      0x00\n      keccak256\n        /* \"RPS.sol\":2571:2587  player[0].choice */\n      0x00\n      add\n      sload\n        /* \"RPS.sol\":2555:2587  uint p0Choice = player[0].choice */\n      swap1\n      pop\n        /* \"RPS.sol\":2598:2611  uint p1Choice */\n      0x00\n        /* \"RPS.sol\":2614:2620  player */\n      0x04\n        /* \"RPS.sol\":2614:2623  player[1] */\n      0x00\n        /* \"RPS.sol\":2621:2622  1 */\n      0x01\n        /* \"RPS.sol\":2614:2623  player[1] */\n      dup2\n      mstore\n      0x20\n      add\n      swap1\n      dup2\n      mstore\n      0x20\n      add\n      0x00\n      keccak256\n        /* \"RPS.sol\":2614:2630  player[1].choice */\n      0x00\n      add\n      sload\n        /* \"RPS.sol\":2598:2630  uint p1Choice = player[1].choice */\n      swap1\n      pop\n        /* \"RPS.sol\":2641:2665  address payable account0 */\n      0x00\n        /* \"RPS.sol\":2676:2682  player */\n      0x04\n        /* \"RPS.sol\":2676:2685  player[0] */\n      0x00\n        /* \"RPS.sol\":2683:2684  0 */\n      dup1\n        /* \"RPS.sol\":2676:2685  player[0] */\n      dup2\n      mstore\n      0x20\n      add\n      swap1\n      dup2\n      mstore\n      0x20\n      add\n      0x00\n      keccak256\n        /* \"RPS.sol\":2676:2690  player[0].addr */\n      0x01\n      add\n      0x00\n      swap1\n      sload\n      swap1\n      0x0100\n      exp\n      swap1\n      div\n      0xffffffffffffffffffffffffffffffffffffffff\n      and\n        /* \"RPS.sol\":2641:2691  address payable account0 = payable(player[0].addr) */\n      swap1\n      pop\n        /* \"RPS.sol\":2702:2726  address payable account1 */\n      0x00\n        /* \"RPS.sol\":2737:2743  player */\n      0x04\n        /* \"RPS.sol\":2737:2746  player[1] */\n      0x00\n        /* \"RPS.sol\":2744:2745  1 */\n      0x01\n        /* \"RPS.sol\":2737:2746  player[1] */\n      dup2\n      mstore\n      0x20\n      add\n      swap1\n      dup2\n      mstore\n      0x20\n      add\n      0x00\n      keccak256\n        /* \"RPS.sol\":2737:2751  player[1].addr */\n      0x01\n      add\n      0x00\n      swap1\n      sload\n      swap1\n      0x0100\n      exp\n      swap1\n      div\n      0xffffffffffffffffffffffffffffffffffffffff\n      and\n        /* \"RPS.sol\":2702:2752  address payable account1 = payable(player[1].addr) */\n      swap1\n      pop\n        /* \"RPS.sol\":2789:2797  p1Choice */\n      dup3\n        /* \"RPS.sol\":2784:2785  3 */\n      0x03\n        /* \"RPS.sol\":2779:2780  1 */\n      0x01\n        /* \"RPS.sol\":2768:2776  p0Choice */\n      dup7\n        /* \"RPS.sol\":2768:2780  p0Choice + 1 */\n      tag_245\n      swap2\n      swap1\n      tag_118\n      jump\t// in\n    tag_245:\n        /* \"RPS.sol\":2767:2785  (p0Choice + 1) % 3 */\n      tag_246\n      swap2\n      swap1\n      tag_208\n      jump\t// in\n    tag_246:\n        /* \"RPS.sol\":2767:2797  (p0Choice + 1) % 3 == p1Choice */\n      sub\n        /* \"RPS.sol\":2763:3171  if ((p0Choice + 1) % 3 == p1Choice) {... */\n      tag_247\n      jumpi\n        /* \"RPS.sol\":2847:2855  account1 */\n      dup1\n        /* \"RPS.sol\":2847:2864  account1.transfer */\n      0xffffffffffffffffffffffffffffffffffffffff\n      and\n        /* \"RPS.sol\":2847:2872  account1.transfer(reward) */\n      0x08fc\n        /* \"RPS.sol\":2865:2871  reward */\n      sload(0x03)\n        /* \"RPS.sol\":2847:2872  account1.transfer(reward) */\n      swap1\n      dup2\n      iszero\n      mul\n      swap1\n      mload(0x40)\n      0x00\n      mload(0x40)\n      dup1\n      dup4\n      sub\n      dup2\n      dup6\n      dup9\n      dup9\n      call\n      swap4\n      pop\n      pop\n      pop\n      pop\n      iszero\n      dup1\n      iszero\n      tag_249\n      jumpi\n      returndatasize\n      0x00\n      dup1\n      returndatacopy\n      revert(0x00, returndatasize)\n    tag_249:\n      pop\n        /* \"RPS.sol\":2763:3171  if ((p0Choice + 1) % 3 == p1Choice) {... */\n      jump(tag_250)\n    tag_247:\n        /* \"RPS.sol\":2925:2933  p0Choice */\n      dup4\n        /* \"RPS.sol\":2920:2921  3 */\n      0x03\n        /* \"RPS.sol\":2915:2916  1 */\n      0x01\n        /* \"RPS.sol\":2904:2912  p1Choice */\n      dup6\n        /* \"RPS.sol\":2904:2916  p1Choice + 1 */\n      tag_251\n      swap2\n      swap1\n      tag_118\n      jump\t// in\n    tag_251:\n        /* \"RPS.sol\":2903:2921  (p1Choice + 1) % 3 */\n      tag_252\n      swap2\n      swap1\n      tag_208\n      jump\t// in\n    tag_252:\n        /* \"RPS.sol\":2903:2933  (p1Choice + 1) % 3 == p0Choice */\n      sub\n        /* \"RPS.sol\":2899:3171  if ((p1Choice + 1) % 3 == p0Choice) {... */\n      tag_253\n      jumpi\n        /* \"RPS.sol\":2983:2991  account0 */\n      dup2\n        /* \"RPS.sol\":2983:3000  account0.transfer */\n      0xffffffffffffffffffffffffffffffffffffffff\n      and\n        /* \"RPS.sol\":2983:3008  account0.transfer(reward) */\n      0x08fc\n        /* \"RPS.sol\":3001:3007  reward */\n      sload(0x03)\n        /* \"RPS.sol\":2983:3008  account0.transfer(reward) */\n      swap1\n      dup2\n      iszero\n      mul\n      swap1\n      mload(0x40)\n      0x00\n      mload(0x40)\n      dup1\n      dup4\n      sub\n      dup2\n      dup6\n      dup9\n      dup9\n      call\n      swap4\n      pop\n      pop\n      pop\n      pop\n      iszero\n      dup1\n      iszero\n      tag_255\n      jumpi\n      returndatasize\n      0x00\n      dup1\n      returndatacopy\n      revert(0x00, returndatasize)\n    tag_255:\n      pop\n        /* \"RPS.sol\":2899:3171  if ((p1Choice + 1) % 3 == p0Choice) {... */\n      jump(tag_256)\n    tag_253:\n        /* \"RPS.sol\":3086:3094  account0 */\n      dup2\n        /* \"RPS.sol\":3086:3103  account0.transfer */\n      0xffffffffffffffffffffffffffffffffffffffff\n      and\n        /* \"RPS.sol\":3086:3115  account0.transfer(reward / 2) */\n      0x08fc\n        /* \"RPS.sol\":3113:3114  2 */\n      0x02\n        /* \"RPS.sol\":3104:3110  reward */\n      sload(0x03)\n        /* \"RPS.sol\":3104:3114  reward / 2 */\n      tag_257\n      swap2\n      swap1\n      tag_141\n      jump\t// in\n    tag_257:\n        /* \"RPS.sol\":3086:3115  account0.transfer(reward / 2) */\n      swap1\n      dup2\n      iszero\n      mul\n      swap1\n      mload(0x40)\n      0x00\n      mload(0x40)\n      dup1\n      dup4\n      sub\n      dup2\n      dup6\n      dup9\n      dup9\n      call\n      swap4\n      pop\n      pop\n      pop\n      pop\n      iszero\n      dup1\n      iszero\n      tag_259\n      jumpi\n      returndatasize\n      0x00\n      dup1\n      returndatacopy\n      revert(0x00, returndatasize)\n    tag_259:\n      pop\n        /* \"RPS.sol\":3130:3138  account1 */\n      dup1\n        /* \"RPS.sol\":3130:3147  account1.transfer */\n      0xffffffffffffffffffffffffffffffffffffffff\n      and\n        /* \"RPS.sol\":3130:3159  account1.transfer(reward / 2) */\n      0x08fc\n        /* \"RPS.sol\":3157:3158  2 */\n      0x02\n        /* \"RPS.sol\":3148:3154  reward */\n      sload(0x03)\n        /* \"RPS.sol\":3148:3158  reward / 2 */\n      tag_260\n      swap2\n      swap1\n      tag_141\n      jump\t// in\n    tag_260:\n        /* \"RPS.sol\":3130:3159  account1.transfer(reward / 2) */\n      swap1\n      dup2\n      iszero\n      mul\n      swap1\n      mload(0x40)\n      0x00\n      mload(0x40)\n      dup1\n      dup4\n      sub\n      dup2\n      dup6\n      dup9\n      dup9\n      call\n      swap4\n      pop\n      pop\n      pop\n      pop\n      iszero\n      dup1\n      iszero\n      tag_262\n      jumpi\n      returndatasize\n      0x00\n      dup1\n      returndatacopy\n      revert(0x00, returndatasize)\n    tag_262:\n      pop\n        /* \"RPS.sol\":2899:3171  if ((p1Choice + 1) % 3 == p0Choice) {... */\n    tag_256:\n        /* \"RPS.sol\":2763:3171  if ((p0Choice + 1) % 3 == p1Choice) {... */\n    tag_250:\n        /* \"RPS.sol\":2544:3178  {... */\n      pop\n      pop\n      pop\n      pop\n        /* \"RPS.sol\":2506:3178  function _checkWinnerAndPay() private {... */\n      jump\t// out\n        /* \"#utility.yul\":7:84   */\n    tag_263:\n        /* \"#utility.yul\":44:51   */\n      0x00\n        /* \"#utility.yul\":73:78   */\n      dup2\n        /* \"#utility.yul\":62:78   */\n      swap1\n      pop\n        /* \"#utility.yul\":7:84   */\n      swap2\n      swap1\n      pop\n      jump\t// out\n        /* \"#utility.yul\":90:208   */\n    tag_264:\n        /* \"#utility.yul\":177:201   */\n      tag_329\n        /* \"#utility.yul\":195:200   */\n      dup2\n        /* \"#utility.yul\":177:201   */\n      tag_263\n      jump\t// in\n    tag_329:\n        /* \"#utility.yul\":172:175   */\n      dup3\n        /* \"#utility.yul\":165:202   */\n      mstore\n        /* \"#utility.yul\":90:208   */\n      pop\n      pop\n      jump\t// out\n        /* \"#utility.yul\":214:436   */\n    tag_28:\n        /* \"#utility.yul\":307:311   */\n      0x00\n        /* \"#utility.yul\":345:347   */\n      0x20\n        /* \"#utility.yul\":334:343   */\n      dup3\n        /* \"#utility.yul\":330:348   */\n      add\n        /* \"#utility.yul\":322:348   */\n      swap1\n      pop\n        /* \"#utility.yul\":358:429   */\n      tag_331\n        /* \"#utility.yul\":426:427   */\n      0x00\n        /* \"#utility.yul\":415:424   */\n      dup4\n        /* \"#utility.yul\":411:428   */\n      add\n        /* \"#utility.yul\":402:408   */\n      dup5\n        /* \"#utility.yul\":358:429   */\n      tag_264\n      jump\t// in\n    tag_331:\n        /* \"#utility.yul\":214:436   */\n      swap3\n      swap2\n      pop\n      pop\n      jump\t// out\n        /* \"#utility.yul\":442:517   */\n    tag_265:\n        /* \"#utility.yul\":475:481   */\n      0x00\n        /* \"#utility.yul\":508:510   */\n      0x40\n        /* \"#utility.yul\":502:511   */\n      mload\n        /* \"#utility.yul\":492:511   */\n      swap1\n      pop\n        /* \"#utility.yul\":442:517   */\n      swap1\n      jump\t// out\n        /* \"#utility.yul\":523:640   */\n    tag_266:\n        /* \"#utility.yul\":632:633   */\n      0x00\n        /* \"#utility.yul\":629:630   */\n      dup1\n        /* \"#utility.yul\":622:634   */\n      revert\n        /* \"#utility.yul\":646:763   */\n    tag_267:\n        /* \"#utility.yul\":755:756   */\n      0x00\n        /* \"#utility.yul\":752:753   */\n      dup1\n        /* \"#utility.yul\":745:757   */\n      revert\n        /* \"#utility.yul\":769:846   */\n    tag_268:\n        /* \"#utility.yul\":806:813   */\n      0x00\n        /* \"#utility.yul\":835:840   */\n      dup2\n        /* \"#utility.yul\":824:840   */\n      swap1\n      pop\n        /* \"#utility.yul\":769:846   */\n      swap2\n      swap1\n      pop\n      jump\t// out\n        /* \"#utility.yul\":852:974   */\n    tag_269:\n        /* \"#utility.yul\":925:949   */\n      tag_337\n        /* \"#utility.yul\":943:948   */\n      dup2\n        /* \"#utility.yul\":925:949   */\n      tag_268\n      jump\t// in\n    tag_337:\n        /* \"#utility.yul\":918:923   */\n      dup2\n        /* \"#utility.yul\":915:950   */\n      eq\n        /* \"#utility.yul\":905:968   */\n      tag_338\n      jumpi\n        /* \"#utility.yul\":964:965   */\n      0x00\n        /* \"#utility.yul\":961:962   */\n      dup1\n        /* \"#utility.yul\":954:966   */\n      revert\n        /* \"#utility.yul\":905:968   */\n    tag_338:\n        /* \"#utility.yul\":852:974   */\n      pop\n      jump\t// out\n        /* \"#utility.yul\":980:1119   */\n    tag_270:\n        /* \"#utility.yul\":1026:1031   */\n      0x00\n        /* \"#utility.yul\":1064:1070   */\n      dup2\n        /* \"#utility.yul\":1051:1071   */\n      calldataload\n        /* \"#utility.yul\":1042:1071   */\n      swap1\n      pop\n        /* \"#utility.yul\":1080:1113   */\n      tag_340\n        /* \"#utility.yul\":1107:1112   */\n      dup2\n        /* \"#utility.yul\":1080:1113   */\n      tag_269\n      jump\t// in\n    tag_340:\n        /* \"#utility.yul\":980:1119   */\n      swap3\n      swap2\n      pop\n      pop\n      jump\t// out\n        /* \"#utility.yul\":1125:1454   */\n    tag_38:\n        /* \"#utility.yul\":1184:1190   */\n      0x00\n        /* \"#utility.yul\":1233:1235   */\n      0x20\n        /* \"#utility.yul\":1221:1230   */\n      dup3\n        /* \"#utility.yul\":1212:1219   */\n      dup5\n        /* \"#utility.yul\":1208:1231   */\n      sub\n        /* \"#utility.yul\":1204:1236   */\n      slt\n        /* \"#utility.yul\":1201:1320   */\n      iszero\n      tag_342\n      jumpi\n        /* \"#utility.yul\":1239:1318   */\n      tag_343\n      tag_266\n      jump\t// in\n    tag_343:\n        /* \"#utility.yul\":1201:1320   */\n    tag_342:\n        /* \"#utility.yul\":1359:1360   */\n      0x00\n        /* \"#utility.yul\":1384:1437   */\n      tag_344\n        /* \"#utility.yul\":1429:1436   */\n      dup5\n        /* \"#utility.yul\":1420:1426   */\n      dup3\n        /* \"#utility.yul\":1409:1418   */\n      dup6\n        /* \"#utility.yul\":1405:1427   */\n      add\n        /* \"#utility.yul\":1384:1437   */\n      tag_270\n      jump\t// in\n    tag_344:\n        /* \"#utility.yul\":1374:1437   */\n      swap2\n      pop\n        /* \"#utility.yul\":1330:1447   */\n      pop\n        /* \"#utility.yul\":1125:1454   */\n      swap3\n      swap2\n      pop\n      pop\n      jump\t// out\n        /* \"#utility.yul\":1460:1578   */\n    tag_271:\n        /* \"#utility.yul\":1547:1571   */\n      tag_346\n        /* \"#utility.yul\":1565:1570   */\n      dup2\n        /* \"#utility.yul\":1547:1571   */\n      tag_268\n      jump\t// in\n    tag_346:\n        /* \"#utility.yul\":1542:1545   */\n      dup3\n        /* \"#utility.yul\":1535:1572   */\n      mstore\n        /* \"#utility.yul\":1460:1578   */\n      pop\n      pop\n      jump\t// out\n        /* \"#utility.yul\":1584:1806   */\n    tag_41:\n        /* \"#utility.yul\":1677:1681   */\n      0x00\n        /* \"#utility.yul\":1715:1717   */\n      0x20\n        /* \"#utility.yul\":1704:1713   */\n      dup3\n        /* \"#utility.yul\":1700:1718   */\n      add\n        /* \"#utility.yul\":1692:1718   */\n      swap1\n      pop\n        /* \"#utility.yul\":1728:1799   */\n      tag_348\n        /* \"#utility.yul\":1796:1797   */\n      0x00\n        /* \"#utility.yul\":1785:1794   */\n      dup4\n        /* \"#utility.yul\":1781:1798   */\n      add\n        /* \"#utility.yul\":1772:1778   */\n      dup5\n        /* \"#utility.yul\":1728:1799   */\n      tag_271\n      jump\t// in\n    tag_348:\n        /* \"#utility.yul\":1584:1806   */\n      swap3\n      swap2\n      pop\n      pop\n      jump\t// out\n        /* \"#utility.yul\":1812:1934   */\n    tag_272:\n        /* \"#utility.yul\":1885:1909   */\n      tag_350\n        /* \"#utility.yul\":1903:1908   */\n      dup2\n        /* \"#utility.yul\":1885:1909   */\n      tag_263\n      jump\t// in\n    tag_350:\n        /* \"#utility.yul\":1878:1883   */\n      dup2\n        /* \"#utility.yul\":1875:1910   */\n      eq\n        /* \"#utility.yul\":1865:1928   */\n      tag_351\n      jumpi\n        /* \"#utility.yul\":1924:1925   */\n      0x00\n        /* \"#utility.yul\":1921:1922   */\n      dup1\n        /* \"#utility.yul\":1914:1926   */\n      revert\n        /* \"#utility.yul\":1865:1928   */\n    tag_351:\n        /* \"#utility.yul\":1812:1934   */\n      pop\n      jump\t// out\n        /* \"#utility.yul\":1940:2079   */\n    tag_273:\n        /* \"#utility.yul\":1986:1991   */\n      0x00\n        /* \"#utility.yul\":2024:2030   */\n      dup2\n        /* \"#utility.yul\":2011:2031   */\n      calldataload\n        /* \"#utility.yul\":2002:2031   */\n      swap1\n      pop\n        /* \"#utility.yul\":2040:2073   */\n      tag_353\n        /* \"#utility.yul\":2067:2072   */\n      dup2\n        /* \"#utility.yul\":2040:2073   */\n      tag_272\n      jump\t// in\n    tag_353:\n        /* \"#utility.yul\":1940:2079   */\n      swap3\n      swap2\n      pop\n      pop\n      jump\t// out\n        /* \"#utility.yul\":2085:2202   */\n    tag_274:\n        /* \"#utility.yul\":2194:2195   */\n      0x00\n        /* \"#utility.yul\":2191:2192   */\n      dup1\n        /* \"#utility.yul\":2184:2196   */\n      revert\n        /* \"#utility.yul\":2208:2325   */\n    tag_275:\n        /* \"#utility.yul\":2317:2318   */\n      0x00\n        /* \"#utility.yul\":2314:2315   */\n      dup1\n        /* \"#utility.yul\":2307:2319   */\n      revert\n        /* \"#utility.yul\":2331:2433   */\n    tag_276:\n        /* \"#utility.yul\":2372:2378   */\n      0x00\n        /* \"#utility.yul\":2423:2425   */\n      0x1f\n        /* \"#utility.yul\":2419:2426   */\n      not\n        /* \"#utility.yul\":2414:2416   */\n      0x1f\n        /* \"#utility.yul\":2407:2412   */\n      dup4\n        /* \"#utility.yul\":2403:2417   */\n      add\n        /* \"#utility.yul\":2399:2427   */\n      and\n        /* \"#utility.yul\":2389:2427   */\n      swap1\n      pop\n        /* \"#utility.yul\":2331:2433   */\n      swap2\n      swap1\n      pop\n      jump\t// out\n        /* \"#utility.yul\":2439:2619   */\n    tag_277:\n        /* \"#utility.yul\":2487:2564   */\n      0x4e487b7100000000000000000000000000000000000000000000000000000000\n        /* \"#utility.yul\":2484:2485   */\n      0x00\n        /* \"#utility.yul\":2477:2565   */\n      mstore\n        /* \"#utility.yul\":2584:2588   */\n      0x41\n        /* \"#utility.yul\":2581:2582   */\n      0x04\n        /* \"#utility.yul\":2574:2589   */\n      mstore\n        /* \"#utility.yul\":2608:2612   */\n      0x24\n        /* \"#utility.yul\":2605:2606   */\n      0x00\n        /* \"#utility.yul\":2598:2613   */\n      revert\n        /* \"#utility.yul\":2625:2906   */\n    tag_278:\n        /* \"#utility.yul\":2708:2735   */\n      tag_359\n        /* \"#utility.yul\":2730:2734   */\n      dup3\n        /* \"#utility.yul\":2708:2735   */\n      tag_276\n      jump\t// in\n    tag_359:\n        /* \"#utility.yul\":2700:2706   */\n      dup2\n        /* \"#utility.yul\":2696:2736   */\n      add\n        /* \"#utility.yul\":2838:2844   */\n      dup2\n        /* \"#utility.yul\":2826:2836   */\n      dup2\n        /* \"#utility.yul\":2823:2845   */\n      lt\n        /* \"#utility.yul\":2802:2820   */\n      0xffffffffffffffff\n        /* \"#utility.yul\":2790:2800   */\n      dup3\n        /* \"#utility.yul\":2787:2821   */\n      gt\n        /* \"#utility.yul\":2784:2846   */\n      or\n        /* \"#utility.yul\":2781:2869   */\n      iszero\n      tag_360\n      jumpi\n        /* \"#utility.yul\":2849:2867   */\n      tag_361\n      tag_277\n      jump\t// in\n    tag_361:\n        /* \"#utility.yul\":2781:2869   */\n    tag_360:\n        /* \"#utility.yul\":2889:2899   */\n      dup1\n        /* \"#utility.yul\":2885:2887   */\n      0x40\n        /* \"#utility.yul\":2878:2900   */\n      mstore\n        /* \"#utility.yul\":2668:2906   */\n      pop\n        /* \"#utility.yul\":2625:2906   */\n      pop\n      pop\n      jump\t// out\n        /* \"#utility.yul\":2912:3041   */\n    tag_279:\n        /* \"#utility.yul\":2946:2952   */\n      0x00\n        /* \"#utility.yul\":2973:2993   */\n      tag_363\n      tag_265\n      jump\t// in\n    tag_363:\n        /* \"#utility.yul\":2963:2993   */\n      swap1\n      pop\n        /* \"#utility.yul\":3002:3035   */\n      tag_364\n        /* \"#utility.yul\":3030:3034   */\n      dup3\n        /* \"#utility.yul\":3022:3028   */\n      dup3\n        /* \"#utility.yul\":3002:3035   */\n      tag_278\n      jump\t// in\n    tag_364:\n        /* \"#utility.yul\":2912:3041   */\n      swap2\n      swap1\n      pop\n      jump\t// out\n        /* \"#utility.yul\":3047:3355   */\n    tag_280:\n        /* \"#utility.yul\":3109:3113   */\n      0x00\n        /* \"#utility.yul\":3199:3217   */\n      0xffffffffffffffff\n        /* \"#utility.yul\":3191:3197   */\n      dup3\n        /* \"#utility.yul\":3188:3218   */\n      gt\n        /* \"#utility.yul\":3185:3241   */\n      iszero\n      tag_366\n      jumpi\n        /* \"#utility.yul\":3221:3239   */\n      tag_367\n      tag_277\n      jump\t// in\n    tag_367:\n        /* \"#utility.yul\":3185:3241   */\n    tag_366:\n        /* \"#utility.yul\":3259:3288   */\n      tag_368\n        /* \"#utility.yul\":3281:3287   */\n      dup3\n        /* \"#utility.yul\":3259:3288   */\n      tag_276\n      jump\t// in\n    tag_368:\n        /* \"#utility.yul\":3251:3288   */\n      swap1\n      pop\n        /* \"#utility.yul\":3343:3347   */\n      0x20\n        /* \"#utility.yul\":3337:3341   */\n      dup2\n        /* \"#utility.yul\":3333:3348   */\n      add\n        /* \"#utility.yul\":3325:3348   */\n      swap1\n      pop\n        /* \"#utility.yul\":3047:3355   */\n      swap2\n      swap1\n      pop\n      jump\t// out\n        /* \"#utility.yul\":3361:3507   */\n    tag_281:\n        /* \"#utility.yul\":3458:3464   */\n      dup3\n        /* \"#utility.yul\":3453:3456   */\n      dup2\n        /* \"#utility.yul\":3448:3451   */\n      dup4\n        /* \"#utility.yul\":3435:3465   */\n      calldatacopy\n        /* \"#utility.yul\":3499:3500   */\n      0x00\n        /* \"#utility.yul\":3490:3496   */\n      dup4\n        /* \"#utility.yul\":3485:3488   */\n      dup4\n        /* \"#utility.yul\":3481:3497   */\n      add\n        /* \"#utility.yul\":3474:3501   */\n      mstore\n        /* \"#utility.yul\":3361:3507   */\n      pop\n      pop\n      pop\n      jump\t// out\n        /* \"#utility.yul\":3513:3938   */\n    tag_282:\n        /* \"#utility.yul\":3591:3596   */\n      0x00\n        /* \"#utility.yul\":3616:3682   */\n      tag_371\n        /* \"#utility.yul\":3632:3681   */\n      tag_372\n        /* \"#utility.yul\":3674:3680   */\n      dup5\n        /* \"#utility.yul\":3632:3681   */\n      tag_280\n      jump\t// in\n    tag_372:\n        /* \"#utility.yul\":3616:3682   */\n      tag_279\n      jump\t// in\n    tag_371:\n        /* \"#utility.yul\":3607:3682   */\n      swap1\n      pop\n        /* \"#utility.yul\":3705:3711   */\n      dup3\n        /* \"#utility.yul\":3698:3703   */\n      dup2\n        /* \"#utility.yul\":3691:3712   */\n      mstore\n        /* \"#utility.yul\":3743:3747   */\n      0x20\n        /* \"#utility.yul\":3736:3741   */\n      dup2\n        /* \"#utility.yul\":3732:3748   */\n      add\n        /* \"#utility.yul\":3781:3784   */\n      dup5\n        /* \"#utility.yul\":3772:3778   */\n      dup5\n        /* \"#utility.yul\":3767:3770   */\n      dup5\n        /* \"#utility.yul\":3763:3779   */\n      add\n        /* \"#utility.yul\":3760:3785   */\n      gt\n        /* \"#utility.yul\":3757:3869   */\n      iszero\n      tag_373\n      jumpi\n        /* \"#utility.yul\":3788:3867   */\n      tag_374\n      tag_275\n      jump\t// in\n    tag_374:\n        /* \"#utility.yul\":3757:3869   */\n    tag_373:\n        /* \"#utility.yul\":3878:3932   */\n      tag_375\n        /* \"#utility.yul\":3925:3931   */\n      dup5\n        /* \"#utility.yul\":3920:3923   */\n      dup3\n        /* \"#utility.yul\":3915:3918   */\n      dup6\n        /* \"#utility.yul\":3878:3932   */\n      tag_281\n      jump\t// in\n    tag_375:\n        /* \"#utility.yul\":3597:3938   */\n      pop\n        /* \"#utility.yul\":3513:3938   */\n      swap4\n      swap3\n      pop\n      pop\n      pop\n      jump\t// out\n        /* \"#utility.yul\":3958:4298   */\n    tag_283:\n        /* \"#utility.yul\":4014:4019   */\n      0x00\n        /* \"#utility.yul\":4063:4066   */\n      dup3\n        /* \"#utility.yul\":4056:4060   */\n      0x1f\n        /* \"#utility.yul\":4048:4054   */\n      dup4\n        /* \"#utility.yul\":4044:4061   */\n      add\n        /* \"#utility.yul\":4040:4067   */\n      slt\n        /* \"#utility.yul\":4030:4152   */\n      tag_377\n      jumpi\n        /* \"#utility.yul\":4071:4150   */\n      tag_378\n      tag_274\n      jump\t// in\n    tag_378:\n        /* \"#utility.yul\":4030:4152   */\n    tag_377:\n        /* \"#utility.yul\":4188:4194   */\n      dup2\n        /* \"#utility.yul\":4175:4195   */\n      calldataload\n        /* \"#utility.yul\":4213:4292   */\n      tag_379\n        /* \"#utility.yul\":4288:4291   */\n      dup5\n        /* \"#utility.yul\":4280:4286   */\n      dup3\n        /* \"#utility.yul\":4273:4277   */\n      0x20\n        /* \"#utility.yul\":4265:4271   */\n      dup7\n        /* \"#utility.yul\":4261:4278   */\n      add\n        /* \"#utility.yul\":4213:4292   */\n      tag_282\n      jump\t// in\n    tag_379:\n        /* \"#utility.yul\":4204:4292   */\n      swap2\n      pop\n        /* \"#utility.yul\":4020:4298   */\n      pop\n        /* \"#utility.yul\":3958:4298   */\n      swap3\n      swap2\n      pop\n      pop\n      jump\t// out\n        /* \"#utility.yul\":4304:5103   */\n    tag_48:\n        /* \"#utility.yul\":4391:4397   */\n      0x00\n        /* \"#utility.yul\":4399:4405   */\n      dup1\n        /* \"#utility.yul\":4407:4413   */\n      0x00\n        /* \"#utility.yul\":4456:4458   */\n      0x60\n        /* \"#utility.yul\":4444:4453   */\n      dup5\n        /* \"#utility.yul\":4435:4442   */\n      dup7\n        /* \"#utility.yul\":4431:4454   */\n      sub\n        /* \"#utility.yul\":4427:4459   */\n      slt\n        /* \"#utility.yul\":4424:4543   */\n      iszero\n      tag_381\n      jumpi\n        /* \"#utility.yul\":4462:4541   */\n      tag_382\n      tag_266\n      jump\t// in\n    tag_382:\n        /* \"#utility.yul\":4424:4543   */\n    tag_381:\n        /* \"#utility.yul\":4582:4583   */\n      0x00\n        /* \"#utility.yul\":4607:4660   */\n      tag_383\n        /* \"#utility.yul\":4652:4659   */\n      dup7\n        /* \"#utility.yul\":4643:4649   */\n      dup3\n        /* \"#utility.yul\":4632:4641   */\n      dup8\n        /* \"#utility.yul\":4628:4650   */\n      add\n        /* \"#utility.yul\":4607:4660   */\n      tag_273\n      jump\t// in\n    tag_383:\n        /* \"#utility.yul\":4597:4660   */\n      swap4\n      pop\n        /* \"#utility.yul\":4553:4670   */\n      pop\n        /* \"#utility.yul\":4709:4711   */\n      0x20\n        /* \"#utility.yul\":4735:4788   */\n      tag_384\n        /* \"#utility.yul\":4780:4787   */\n      dup7\n        /* \"#utility.yul\":4771:4777   */\n      dup3\n        /* \"#utility.yul\":4760:4769   */\n      dup8\n        /* \"#utility.yul\":4756:4778   */\n      add\n        /* \"#utility.yul\":4735:4788   */\n      tag_273\n      jump\t// in\n    tag_384:\n        /* \"#utility.yul\":4725:4788   */\n      swap3\n      pop\n        /* \"#utility.yul\":4680:4798   */\n      pop\n        /* \"#utility.yul\":4865:4867   */\n      0x40\n        /* \"#utility.yul\":4854:4863   */\n      dup5\n        /* \"#utility.yul\":4850:4868   */\n      add\n        /* \"#utility.yul\":4837:4869   */\n      calldataload\n        /* \"#utility.yul\":4896:4914   */\n      0xffffffffffffffff\n        /* \"#utility.yul\":4888:4894   */\n      dup2\n        /* \"#utility.yul\":4885:4915   */\n      gt\n        /* \"#utility.yul\":4882:4999   */\n      iszero\n      tag_385\n      jumpi\n        /* \"#utility.yul\":4918:4997   */\n      tag_386\n      tag_267\n      jump\t// in\n    tag_386:\n        /* \"#utility.yul\":4882:4999   */\n    tag_385:\n        /* \"#utility.yul\":5023:5086   */\n      tag_387\n        /* \"#utility.yul\":5078:5085   */\n      dup7\n        /* \"#utility.yul\":5069:5075   */\n      dup3\n        /* \"#utility.yul\":5058:5067   */\n      dup8\n        /* \"#utility.yul\":5054:5076   */\n      add\n        /* \"#utility.yul\":5023:5086   */\n      tag_283\n      jump\t// in\n    tag_387:\n        /* \"#utility.yul\":5013:5086   */\n      swap2\n      pop\n        /* \"#utility.yul\":4808:5096   */\n      pop\n        /* \"#utility.yul\":4304:5103   */\n      swap3\n      pop\n      swap3\n      pop\n      swap3\n      jump\t// out\n        /* \"#utility.yul\":5109:5195   */\n    tag_284:\n        /* \"#utility.yul\":5144:5151   */\n      0x00\n        /* \"#utility.yul\":5184:5188   */\n      0xff\n        /* \"#utility.yul\":5177:5182   */\n      dup3\n        /* \"#utility.yul\":5173:5189   */\n      and\n        /* \"#utility.yul\":5162:5189   */\n      swap1\n      pop\n        /* \"#utility.yul\":5109:5195   */\n      swap2\n      swap1\n      pop\n      jump\t// out\n        /* \"#utility.yul\":5201:5313   */\n    tag_285:\n        /* \"#utility.yul\":5284:5306   */\n      tag_390\n        /* \"#utility.yul\":5300:5305   */\n      dup2\n        /* \"#utility.yul\":5284:5306   */\n      tag_284\n      jump\t// in\n    tag_390:\n        /* \"#utility.yul\":5279:5282   */\n      dup3\n        /* \"#utility.yul\":5272:5307   */\n      mstore\n        /* \"#utility.yul\":5201:5313   */\n      pop\n      pop\n      jump\t// out\n        /* \"#utility.yul\":5319:5533   */\n    tag_54:\n        /* \"#utility.yul\":5408:5412   */\n      0x00\n        /* \"#utility.yul\":5446:5448   */\n      0x20\n        /* \"#utility.yul\":5435:5444   */\n      dup3\n        /* \"#utility.yul\":5431:5449   */\n      add\n        /* \"#utility.yul\":5423:5449   */\n      swap1\n      pop\n        /* \"#utility.yul\":5459:5526   */\n      tag_392\n        /* \"#utility.yul\":5523:5524   */\n      0x00\n        /* \"#utility.yul\":5512:5521   */\n      dup4\n        /* \"#utility.yul\":5508:5525   */\n      add\n        /* \"#utility.yul\":5499:5505   */\n      dup5\n        /* \"#utility.yul\":5459:5526   */\n      tag_285\n      jump\t// in\n    tag_392:\n        /* \"#utility.yul\":5319:5533   */\n      swap3\n      swap2\n      pop\n      pop\n      jump\t// out\n        /* \"#utility.yul\":5539:5665   */\n    tag_286:\n        /* \"#utility.yul\":5576:5583   */\n      0x00\n        /* \"#utility.yul\":5616:5658   */\n      0xffffffffffffffffffffffffffffffffffffffff\n        /* \"#utility.yul\":5609:5614   */\n      dup3\n        /* \"#utility.yul\":5605:5659   */\n      and\n        /* \"#utility.yul\":5594:5659   */\n      swap1\n      pop\n        /* \"#utility.yul\":5539:5665   */\n      swap2\n      swap1\n      pop\n      jump\t// out\n        /* \"#utility.yul\":5671:5767   */\n    tag_287:\n        /* \"#utility.yul\":5708:5715   */\n      0x00\n        /* \"#utility.yul\":5737:5761   */\n      tag_395\n        /* \"#utility.yul\":5755:5760   */\n      dup3\n        /* \"#utility.yul\":5737:5761   */\n      tag_286\n      jump\t// in\n    tag_395:\n        /* \"#utility.yul\":5726:5761   */\n      swap1\n      pop\n        /* \"#utility.yul\":5671:5767   */\n      swap2\n      swap1\n      pop\n      jump\t// out\n        /* \"#utility.yul\":5773:5895   */\n    tag_288:\n        /* \"#utility.yul\":5846:5870   */\n      tag_397\n        /* \"#utility.yul\":5864:5869   */\n      dup2\n        /* \"#utility.yul\":5846:5870   */\n      tag_287\n      jump\t// in\n    tag_397:\n        /* \"#utility.yul\":5839:5844   */\n      dup2\n        /* \"#utility.yul\":5836:5871   */\n      eq\n        /* \"#utility.yul\":5826:5889   */\n      tag_398\n      jumpi\n        /* \"#utility.yul\":5885:5886   */\n      0x00\n        /* \"#utility.yul\":5882:5883   */\n      dup1\n        /* \"#utility.yul\":5875:5887   */\n      revert\n        /* \"#utility.yul\":5826:5889   */\n    tag_398:\n        /* \"#utility.yul\":5773:5895   */\n      pop\n      jump\t// out\n        /* \"#utility.yul\":5901:6040   */\n    tag_289:\n        /* \"#utility.yul\":5947:5952   */\n      0x00\n        /* \"#utility.yul\":5985:5991   */\n      dup2\n        /* \"#utility.yul\":5972:5992   */\n      calldataload\n        /* \"#utility.yul\":5963:5992   */\n      swap1\n      pop\n        /* \"#utility.yul\":6001:6034   */\n      tag_400\n        /* \"#utility.yul\":6028:6033   */\n      dup2\n        /* \"#utility.yul\":6001:6034   */\n      tag_288\n      jump\t// in\n    tag_400:\n        /* \"#utility.yul\":5901:6040   */\n      swap3\n      swap2\n      pop\n      pop\n      jump\t// out\n        /* \"#utility.yul\":6046:6375   */\n    tag_62:\n        /* \"#utility.yul\":6105:6111   */\n      0x00\n        /* \"#utility.yul\":6154:6156   */\n      0x20\n        /* \"#utility.yul\":6142:6151   */\n      dup3\n        /* \"#utility.yul\":6133:6140   */\n      dup5\n        /* \"#utility.yul\":6129:6152   */\n      sub\n        /* \"#utility.yul\":6125:6157   */\n      slt\n        /* \"#utility.yul\":6122:6241   */\n      iszero\n      tag_402\n      jumpi\n        /* \"#utility.yul\":6160:6239   */\n      tag_403\n      tag_266\n      jump\t// in\n    tag_403:\n        /* \"#utility.yul\":6122:6241   */\n    tag_402:\n        /* \"#utility.yul\":6280:6281   */\n      0x00\n        /* \"#utility.yul\":6305:6358   */\n      tag_404\n        /* \"#utility.yul\":6350:6357   */\n      dup5\n        /* \"#utility.yul\":6341:6347   */\n      dup3\n        /* \"#utility.yul\":6330:6339   */\n      dup6\n        /* \"#utility.yul\":6326:6348   */\n      add\n        /* \"#utility.yul\":6305:6358   */\n      tag_289\n      jump\t// in\n    tag_404:\n        /* \"#utility.yul\":6295:6358   */\n      swap2\n      pop\n        /* \"#utility.yul\":6251:6368   */\n      pop\n        /* \"#utility.yul\":6046:6375   */\n      swap3\n      swap2\n      pop\n      pop\n      jump\t// out\n        /* \"#utility.yul\":6381:6482   */\n    tag_290:\n        /* \"#utility.yul\":6417:6424   */\n      0x00\n        /* \"#utility.yul\":6457:6475   */\n      0xffffffffffffffff\n        /* \"#utility.yul\":6450:6455   */\n      dup3\n        /* \"#utility.yul\":6446:6476   */\n      and\n        /* \"#utility.yul\":6435:6476   */\n      swap1\n      pop\n        /* \"#utility.yul\":6381:6482   */\n      swap2\n      swap1\n      pop\n      jump\t// out\n        /* \"#utility.yul\":6488:6603   */\n    tag_291:\n        /* \"#utility.yul\":6573:6596   */\n      tag_407\n        /* \"#utility.yul\":6590:6595   */\n      dup2\n        /* \"#utility.yul\":6573:6596   */\n      tag_290\n      jump\t// in\n    tag_407:\n        /* \"#utility.yul\":6568:6571   */\n      dup3\n        /* \"#utility.yul\":6561:6597   */\n      mstore\n        /* \"#utility.yul\":6488:6603   */\n      pop\n      pop\n      jump\t// out\n        /* \"#utility.yul\":6609:6699   */\n    tag_292:\n        /* \"#utility.yul\":6643:6650   */\n      0x00\n        /* \"#utility.yul\":6686:6691   */\n      dup2\n        /* \"#utility.yul\":6679:6692   */\n      iszero\n        /* \"#utility.yul\":6672:6693   */\n      iszero\n        /* \"#utility.yul\":6661:6693   */\n      swap1\n      pop\n        /* \"#utility.yul\":6609:6699   */\n      swap2\n      swap1\n      pop\n      jump\t// out\n        /* \"#utility.yul\":6705:6814   */\n    tag_293:\n        /* \"#utility.yul\":6786:6807   */\n      tag_410\n        /* \"#utility.yul\":6801:6806   */\n      dup2\n        /* \"#utility.yul\":6786:6807   */\n      tag_292\n      jump\t// in\n    tag_410:\n        /* \"#utility.yul\":6781:6784   */\n      dup3\n        /* \"#utility.yul\":6774:6808   */\n      mstore\n        /* \"#utility.yul\":6705:6814   */\n      pop\n      pop\n      jump\t// out\n        /* \"#utility.yul\":6820:7246   */\n    tag_65:\n        /* \"#utility.yul\":6961:6965   */\n      0x00\n        /* \"#utility.yul\":6999:7001   */\n      0x60\n        /* \"#utility.yul\":6988:6997   */\n      dup3\n        /* \"#utility.yul\":6984:7002   */\n      add\n        /* \"#utility.yul\":6976:7002   */\n      swap1\n      pop\n        /* \"#utility.yul\":7012:7083   */\n      tag_412\n        /* \"#utility.yul\":7080:7081   */\n      0x00\n        /* \"#utility.yul\":7069:7078   */\n      dup4\n        /* \"#utility.yul\":7065:7082   */\n      add\n        /* \"#utility.yul\":7056:7062   */\n      dup7\n        /* \"#utility.yul\":7012:7083   */\n      tag_271\n      jump\t// in\n    tag_412:\n        /* \"#utility.yul\":7093:7163   */\n      tag_413\n        /* \"#utility.yul\":7159:7161   */\n      0x20\n        /* \"#utility.yul\":7148:7157   */\n      dup4\n        /* \"#utility.yul\":7144:7162   */\n      add\n        /* \"#utility.yul\":7135:7141   */\n      dup6\n        /* \"#utility.yul\":7093:7163   */\n      tag_291\n      jump\t// in\n    tag_413:\n        /* \"#utility.yul\":7173:7239   */\n      tag_414\n        /* \"#utility.yul\":7235:7237   */\n      0x40\n        /* \"#utility.yul\":7224:7233   */\n      dup4\n        /* \"#utility.yul\":7220:7238   */\n      add\n        /* \"#utility.yul\":7211:7217   */\n      dup5\n        /* \"#utility.yul\":7173:7239   */\n      tag_293\n      jump\t// in\n    tag_414:\n        /* \"#utility.yul\":6820:7246   */\n      swap5\n      swap4\n      pop\n      pop\n      pop\n      pop\n      jump\t// out\n        /* \"#utility.yul\":7252:7726   */\n    tag_73:\n        /* \"#utility.yul\":7320:7326   */\n      0x00\n        /* \"#utility.yul\":7328:7334   */\n      dup1\n        /* \"#utility.yul\":7377:7379   */\n      0x40\n        /* \"#utility.yul\":7365:7374   */\n      dup4\n        /* \"#utility.yul\":7356:7363   */\n      dup6\n        /* \"#utility.yul\":7352:7375   */\n      sub\n        /* \"#utility.yul\":7348:7380   */\n      slt\n        /* \"#utility.yul\":7345:7464   */\n      iszero\n      tag_416\n      jumpi\n        /* \"#utility.yul\":7383:7462   */\n      tag_417\n      tag_266\n      jump\t// in\n    tag_417:\n        /* \"#utility.yul\":7345:7464   */\n    tag_416:\n        /* \"#utility.yul\":7503:7504   */\n      0x00\n        /* \"#utility.yul\":7528:7581   */\n      tag_418\n        /* \"#utility.yul\":7573:7580   */\n      dup6\n        /* \"#utility.yul\":7564:7570   */\n      dup3\n        /* \"#utility.yul\":7553:7562   */\n      dup7\n        /* \"#utility.yul\":7549:7571   */\n      add\n        /* \"#utility.yul\":7528:7581   */\n      tag_270\n      jump\t// in\n    tag_418:\n        /* \"#utility.yul\":7518:7581   */\n      swap3\n      pop\n        /* \"#utility.yul\":7474:7591   */\n      pop\n        /* \"#utility.yul\":7630:7632   */\n      0x20\n        /* \"#utility.yul\":7656:7709   */\n      tag_419\n        /* \"#utility.yul\":7701:7708   */\n      dup6\n        /* \"#utility.yul\":7692:7698   */\n      dup3\n        /* \"#utility.yul\":7681:7690   */\n      dup7\n        /* \"#utility.yul\":7677:7699   */\n      add\n        /* \"#utility.yul\":7656:7709   */\n      tag_270\n      jump\t// in\n    tag_419:\n        /* \"#utility.yul\":7646:7709   */\n      swap2\n      pop\n        /* \"#utility.yul\":7601:7719   */\n      pop\n        /* \"#utility.yul\":7252:7726   */\n      swap3\n      pop\n      swap3\n      swap1\n      pop\n      jump\t// out\n        /* \"#utility.yul\":7732:8061   */\n    tag_83:\n        /* \"#utility.yul\":7791:7797   */\n      0x00\n        /* \"#utility.yul\":7840:7842   */\n      0x20\n        /* \"#utility.yul\":7828:7837   */\n      dup3\n        /* \"#utility.yul\":7819:7826   */\n      dup5\n        /* \"#utility.yul\":7815:7838   */\n      sub\n        /* \"#utility.yul\":7811:7843   */\n      slt\n        /* \"#utility.yul\":7808:7927   */\n      iszero\n      tag_421\n      jumpi\n        /* \"#utility.yul\":7846:7925   */\n      tag_422\n      tag_266\n      jump\t// in\n    tag_422:\n        /* \"#utility.yul\":7808:7927   */\n    tag_421:\n        /* \"#utility.yul\":7966:7967   */\n      0x00\n        /* \"#utility.yul\":7991:8044   */\n      tag_423\n        /* \"#utility.yul\":8036:8043   */\n      dup5\n        /* \"#utility.yul\":8027:8033   */\n      dup3\n        /* \"#utility.yul\":8016:8025   */\n      dup6\n        /* \"#utility.yul\":8012:8034   */\n      add\n        /* \"#utility.yul\":7991:8044   */\n      tag_273\n      jump\t// in\n    tag_423:\n        /* \"#utility.yul\":7981:8044   */\n      swap2\n      pop\n        /* \"#utility.yul\":7937:8054   */\n      pop\n        /* \"#utility.yul\":7732:8061   */\n      swap3\n      swap2\n      pop\n      pop\n      jump\t// out\n        /* \"#utility.yul\":8067:8185   */\n    tag_294:\n        /* \"#utility.yul\":8154:8178   */\n      tag_425\n        /* \"#utility.yul\":8172:8177   */\n      dup2\n        /* \"#utility.yul\":8154:8178   */\n      tag_287\n      jump\t// in\n    tag_425:\n        /* \"#utility.yul\":8149:8152   */\n      dup3\n        /* \"#utility.yul\":8142:8179   */\n      mstore\n        /* \"#utility.yul\":8067:8185   */\n      pop\n      pop\n      jump\t// out\n        /* \"#utility.yul\":8191:8621   */\n    tag_86:\n        /* \"#utility.yul\":8334:8338   */\n      0x00\n        /* \"#utility.yul\":8372:8374   */\n      0x60\n        /* \"#utility.yul\":8361:8370   */\n      dup3\n        /* \"#utility.yul\":8357:8375   */\n      add\n        /* \"#utility.yul\":8349:8375   */\n      swap1\n      pop\n        /* \"#utility.yul\":8385:8456   */\n      tag_427\n        /* \"#utility.yul\":8453:8454   */\n      0x00\n        /* \"#utility.yul\":8442:8451   */\n      dup4\n        /* \"#utility.yul\":8438:8455   */\n      add\n        /* \"#utility.yul\":8429:8435   */\n      dup7\n        /* \"#utility.yul\":8385:8456   */\n      tag_264\n      jump\t// in\n    tag_427:\n        /* \"#utility.yul\":8466:8538   */\n      tag_428\n        /* \"#utility.yul\":8534:8536   */\n      0x20\n        /* \"#utility.yul\":8523:8532   */\n      dup4\n        /* \"#utility.yul\":8519:8537   */\n      add\n        /* \"#utility.yul\":8510:8516   */\n      dup6\n        /* \"#utility.yul\":8466:8538   */\n      tag_294\n      jump\t// in\n    tag_428:\n        /* \"#utility.yul\":8548:8614   */\n      tag_429\n        /* \"#utility.yul\":8610:8612   */\n      0x40\n        /* \"#utility.yul\":8599:8608   */\n      dup4\n        /* \"#utility.yul\":8595:8613   */\n      add\n        /* \"#utility.yul\":8586:8592   */\n      dup5\n        /* \"#utility.yul\":8548:8614   */\n      tag_293\n      jump\t// in\n    tag_429:\n        /* \"#utility.yul\":8191:8621   */\n      swap5\n      swap4\n      pop\n      pop\n      pop\n      pop\n      jump\t// out\n        /* \"#utility.yul\":8627:9281   */\n    tag_98:\n        /* \"#utility.yul\":8705:8711   */\n      0x00\n        /* \"#utility.yul\":8713:8719   */\n      dup1\n        /* \"#utility.yul\":8762:8764   */\n      0x40\n        /* \"#utility.yul\":8750:8759   */\n      dup4\n        /* \"#utility.yul\":8741:8748   */\n      dup6\n        /* \"#utility.yul\":8737:8760   */\n      sub\n        /* \"#utility.yul\":8733:8765   */\n      slt\n        /* \"#utility.yul\":8730:8849   */\n      iszero\n      tag_431\n      jumpi\n        /* \"#utility.yul\":8768:8847   */\n      tag_432\n      tag_266\n      jump\t// in\n    tag_432:\n        /* \"#utility.yul\":8730:8849   */\n    tag_431:\n        /* \"#utility.yul\":8888:8889   */\n      0x00\n        /* \"#utility.yul\":8913:8966   */\n      tag_433\n        /* \"#utility.yul\":8958:8965   */\n      dup6\n        /* \"#utility.yul\":8949:8955   */\n      dup3\n        /* \"#utility.yul\":8938:8947   */\n      dup7\n        /* \"#utility.yul\":8934:8956   */\n      add\n        /* \"#utility.yul\":8913:8966   */\n      tag_273\n      jump\t// in\n    tag_433:\n        /* \"#utility.yul\":8903:8966   */\n      swap3\n      pop\n        /* \"#utility.yul\":8859:8976   */\n      pop\n        /* \"#utility.yul\":9043:9045   */\n      0x20\n        /* \"#utility.yul\":9032:9041   */\n      dup4\n        /* \"#utility.yul\":9028:9046   */\n      add\n        /* \"#utility.yul\":9015:9047   */\n      calldataload\n        /* \"#utility.yul\":9074:9092   */\n      0xffffffffffffffff\n        /* \"#utility.yul\":9066:9072   */\n      dup2\n        /* \"#utility.yul\":9063:9093   */\n      gt\n        /* \"#utility.yul\":9060:9177   */\n      iszero\n      tag_434\n      jumpi\n        /* \"#utility.yul\":9096:9175   */\n      tag_435\n      tag_267\n      jump\t// in\n    tag_435:\n        /* \"#utility.yul\":9060:9177   */\n    tag_434:\n        /* \"#utility.yul\":9201:9264   */\n      tag_436\n        /* \"#utility.yul\":9256:9263   */\n      dup6\n        /* \"#utility.yul\":9247:9253   */\n      dup3\n        /* \"#utility.yul\":9236:9245   */\n      dup7\n        /* \"#utility.yul\":9232:9254   */\n      add\n        /* \"#utility.yul\":9201:9264   */\n      tag_283\n      jump\t// in\n    tag_436:\n        /* \"#utility.yul\":9191:9264   */\n      swap2\n      pop\n        /* \"#utility.yul\":8986:9274   */\n      pop\n        /* \"#utility.yul\":8627:9281   */\n      swap3\n      pop\n      swap3\n      swap1\n      pop\n      jump\t// out\n        /* \"#utility.yul\":9287:9761   */\n    tag_104:\n        /* \"#utility.yul\":9355:9361   */\n      0x00\n        /* \"#utility.yul\":9363:9369   */\n      dup1\n        /* \"#utility.yul\":9412:9414   */\n      0x40\n        /* \"#utility.yul\":9400:9409   */\n      dup4\n        /* \"#utility.yul\":9391:9398   */\n      dup6\n        /* \"#utility.yul\":9387:9410   */\n      sub\n        /* \"#utility.yul\":9383:9415   */\n      slt\n        /* \"#utility.yul\":9380:9499   */\n      iszero\n      tag_438\n      jumpi\n        /* \"#utility.yul\":9418:9497   */\n      tag_439\n      tag_266\n      jump\t// in\n    tag_439:\n        /* \"#utility.yul\":9380:9499   */\n    tag_438:\n        /* \"#utility.yul\":9538:9539   */\n      0x00\n        /* \"#utility.yul\":9563:9616   */\n      tag_440\n        /* \"#utility.yul\":9608:9615   */\n      dup6\n        /* \"#utility.yul\":9599:9605   */\n      dup3\n        /* \"#utility.yul\":9588:9597   */\n      dup7\n        /* \"#utility.yul\":9584:9606   */\n      add\n        /* \"#utility.yul\":9563:9616   */\n      tag_270\n      jump\t// in\n    tag_440:\n        /* \"#utility.yul\":9553:9616   */\n      swap3\n      pop\n        /* \"#utility.yul\":9509:9626   */\n      pop\n        /* \"#utility.yul\":9665:9667   */\n      0x20\n        /* \"#utility.yul\":9691:9744   */\n      tag_441\n        /* \"#utility.yul\":9736:9743   */\n      dup6\n        /* \"#utility.yul\":9727:9733   */\n      dup3\n        /* \"#utility.yul\":9716:9725   */\n      dup7\n        /* \"#utility.yul\":9712:9734   */\n      add\n        /* \"#utility.yul\":9691:9744   */\n      tag_273\n      jump\t// in\n    tag_441:\n        /* \"#utility.yul\":9681:9744   */\n      swap2\n      pop\n        /* \"#utility.yul\":9636:9754   */\n      pop\n        /* \"#utility.yul\":9287:9761   */\n      swap3\n      pop\n      swap3\n      swap1\n      pop\n      jump\t// out\n        /* \"#utility.yul\":9767:9947   */\n    tag_295:\n        /* \"#utility.yul\":9815:9892   */\n      0x4e487b7100000000000000000000000000000000000000000000000000000000\n        /* \"#utility.yul\":9812:9813   */\n      0x00\n        /* \"#utility.yul\":9805:9893   */\n      mstore\n        /* \"#utility.yul\":9912:9916   */\n      0x11\n        /* \"#utility.yul\":9909:9910   */\n      0x04\n        /* \"#utility.yul\":9902:9917   */\n      mstore\n        /* \"#utility.yul\":9936:9940   */\n      0x24\n        /* \"#utility.yul\":9933:9934   */\n      0x00\n        /* \"#utility.yul\":9926:9941   */\n      revert\n        /* \"#utility.yul\":9953:10144   */\n    tag_118:\n        /* \"#utility.yul\":9993:9996   */\n      0x00\n        /* \"#utility.yul\":10012:10032   */\n      tag_444\n        /* \"#utility.yul\":10030:10031   */\n      dup3\n        /* \"#utility.yul\":10012:10032   */\n      tag_263\n      jump\t// in\n    tag_444:\n        /* \"#utility.yul\":10007:10032   */\n      swap2\n      pop\n        /* \"#utility.yul\":10046:10066   */\n      tag_445\n        /* \"#utility.yul\":10064:10065   */\n      dup4\n        /* \"#utility.yul\":10046:10066   */\n      tag_263\n      jump\t// in\n    tag_445:\n        /* \"#utility.yul\":10041:10066   */\n      swap3\n      pop\n        /* \"#utility.yul\":10089:10090   */\n      dup3\n        /* \"#utility.yul\":10086:10087   */\n      dup3\n        /* \"#utility.yul\":10082:10091   */\n      add\n        /* \"#utility.yul\":10075:10091   */\n      swap1\n      pop\n        /* \"#utility.yul\":10110:10113   */\n      dup1\n        /* \"#utility.yul\":10107:10108   */\n      dup3\n        /* \"#utility.yul\":10104:10114   */\n      gt\n        /* \"#utility.yul\":10101:10137   */\n      iszero\n      tag_446\n      jumpi\n        /* \"#utility.yul\":10117:10135   */\n      tag_447\n      tag_295\n      jump\t// in\n    tag_447:\n        /* \"#utility.yul\":10101:10137   */\n    tag_446:\n        /* \"#utility.yul\":9953:10144   */\n      swap3\n      swap2\n      pop\n      pop\n      jump\t// out\n        /* \"#utility.yul\":10150:10383   */\n    tag_120:\n        /* \"#utility.yul\":10189:10192   */\n      0x00\n        /* \"#utility.yul\":10212:10236   */\n      tag_449\n        /* \"#utility.yul\":10230:10235   */\n      dup3\n        /* \"#utility.yul\":10212:10236   */\n      tag_263\n      jump\t// in\n    tag_449:\n        /* \"#utility.yul\":10203:10236   */\n      swap2\n      pop\n        /* \"#utility.yul\":10258:10324   */\n      0xffffffffffffffffffffffffffffffffffffffffffffffffffffffffffffffff\n        /* \"#utility.yul\":10251:10256   */\n      dup3\n        /* \"#utility.yul\":10248:10325   */\n      sub\n        /* \"#utility.yul\":10245:10348   */\n      tag_450\n      jumpi\n        /* \"#utility.yul\":10328:10346   */\n      tag_451\n      tag_295\n      jump\t// in\n    tag_451:\n        /* \"#utility.yul\":10245:10348   */\n    tag_450:\n        /* \"#utility.yul\":10375:10376   */\n      0x01\n        /* \"#utility.yul\":10368:10373   */\n      dup3\n        /* \"#utility.yul\":10364:10377   */\n      add\n        /* \"#utility.yul\":10357:10377   */\n      swap1\n      pop\n        /* \"#utility.yul\":10150:10383   */\n      swap2\n      swap1\n      pop\n      jump\t// out\n        /* \"#utility.yul\":10389:10721   */\n    tag_122:\n        /* \"#utility.yul\":10510:10514   */\n      0x00\n        /* \"#utility.yul\":10548:10550   */\n      0x40\n        /* \"#utility.yul\":10537:10546   */\n      dup3\n        /* \"#utility.yul\":10533:10551   */\n      add\n        /* \"#utility.yul\":10525:10551   */\n      swap1\n      pop\n        /* \"#utility.yul\":10561:10632   */\n      tag_453\n        /* \"#utility.yul\":10629:10630   */\n      0x00\n        /* \"#utility.yul\":10618:10627   */\n      dup4\n        /* \"#utility.yul\":10614:10631   */\n      add\n        /* \"#utility.yul\":10605:10611   */\n      dup6\n        /* \"#utility.yul\":10561:10632   */\n      tag_294\n      jump\t// in\n    tag_453:\n        /* \"#utility.yul\":10642:10714   */\n      tag_454\n        /* \"#utility.yul\":10710:10712   */\n      0x20\n        /* \"#utility.yul\":10699:10708   */\n      dup4\n        /* \"#utility.yul\":10695:10713   */\n      add\n        /* \"#utility.yul\":10686:10692   */\n      dup5\n        /* \"#utility.yul\":10642:10714   */\n      tag_264\n      jump\t// in\n    tag_454:\n        /* \"#utility.yul\":10389:10721   */\n      swap4\n      swap3\n      pop\n      pop\n      pop\n      jump\t// out\n        /* \"#utility.yul\":10727:10821   */\n    tag_296:\n        /* \"#utility.yul\":10760:10768   */\n      0x00\n        /* \"#utility.yul\":10808:10813   */\n      dup2\n        /* \"#utility.yul\":10804:10806   */\n      0x60\n        /* \"#utility.yul\":10800:10814   */\n      shl\n        /* \"#utility.yul\":10779:10814   */\n      swap1\n      pop\n        /* \"#utility.yul\":10727:10821   */\n      swap2\n      swap1\n      pop\n      jump\t// out\n        /* \"#utility.yul\":10827:10921   */\n    tag_297:\n        /* \"#utility.yul\":10866:10873   */\n      0x00\n        /* \"#utility.yul\":10895:10915   */\n      tag_457\n        /* \"#utility.yul\":10909:10914   */\n      dup3\n        /* \"#utility.yul\":10895:10915   */\n      tag_296\n      jump\t// in\n    tag_457:\n        /* \"#utility.yul\":10884:10915   */\n      swap1\n      pop\n        /* \"#utility.yul\":10827:10921   */\n      swap2\n      swap1\n      pop\n      jump\t// out\n        /* \"#utility.yul\":10927:11027   */\n    tag_298:\n        /* \"#utility.yul\":10966:10973   */\n      0x00\n        /* \"#utility.yul\":10995:11021   */\n      tag_459\n        /* \"#utility.yul\":11015:11020   */\n      dup3\n        /* \"#utility.yul\":10995:11021   */\n      tag_297\n      jump\t// in\n    tag_459:\n        /* \"#utility.yul\":10984:11021   */\n      swap1\n      pop\n        /* \"#utility.yul\":10927:11027   */\n      swap2\n      swap1\n      pop\n      jump\t// out\n        /* \"#utility.yul\":11033:11190   */\n    tag_299:\n        /* \"#utility.yul\":11138:11183   */\n      tag_461\n        /* \"#utility.yul\":11158:11182   */\n      tag_462\n        /* \"#utility.yul\":11176:11181   */\n      dup3\n        /* \"#utility.yul\":11158:11182   */\n      tag_287\n      jump\t// in\n    tag_462:\n        /* \"#utility.yul\":11138:11183   */\n      tag_298\n      jump\t// in\n    tag_461:\n        /* \"#utility.yul\":11133:11136   */\n      dup3\n        /* \"#utility.yul\":11126:11184   */\n      mstore\n        /* \"#utility.yul\":11033:11190   */\n      pop\n      pop\n      jump\t// out\n        /* \"#utility.yul\":11196:11275   */\n    tag_300:\n        /* \"#utility.yul\":11235:11242   */\n      0x00\n        /* \"#utility.yul\":11264:11269   */\n      dup2\n        /* \"#utility.yul\":11253:11269   */\n      swap1\n      pop\n        /* \"#utility.yul\":11196:11275   */\n      swap2\n      swap1\n      pop\n      jump\t// out\n        /* \"#utility.yul\":11281:11438   */\n    tag_301:\n        /* \"#utility.yul\":11386:11431   */\n      tag_465\n        /* \"#utility.yul\":11406:11430   */\n      tag_466\n        /* \"#utility.yul\":11424:11429   */\n      dup3\n        /* \"#utility.yul\":11406:11430   */\n      tag_268\n      jump\t// in\n    tag_466:\n        /* \"#utility.yul\":11386:11431   */\n      tag_300\n      jump\t// in\n    tag_465:\n        /* \"#utility.yul\":11381:11384   */\n      dup3\n        /* \"#utility.yul\":11374:11432   */\n      mstore\n        /* \"#utility.yul\":11281:11438   */\n      pop\n      pop\n      jump\t// out\n        /* \"#utility.yul\":11444:11841   */\n    tag_125:\n        /* \"#utility.yul\":11584:11587   */\n      0x00\n        /* \"#utility.yul\":11599:11674   */\n      tag_468\n        /* \"#utility.yul\":11670:11673   */\n      dup3\n        /* \"#utility.yul\":11661:11667   */\n      dup6\n        /* \"#utility.yul\":11599:11674   */\n      tag_299\n      jump\t// in\n    tag_468:\n        /* \"#utility.yul\":11699:11701   */\n      0x14\n        /* \"#utility.yul\":11694:11697   */\n      dup3\n        /* \"#utility.yul\":11690:11702   */\n      add\n        /* \"#utility.yul\":11683:11702   */\n      swap2\n      pop\n        /* \"#utility.yul\":11712:11787   */\n      tag_469\n        /* \"#utility.yul\":11783:11786   */\n      dup3\n        /* \"#utility.yul\":11774:11780   */\n      dup5\n        /* \"#utility.yul\":11712:11787   */\n      tag_301\n      jump\t// in\n    tag_469:\n        /* \"#utility.yul\":11812:11814   */\n      0x20\n        /* \"#utility.yul\":11807:11810   */\n      dup3\n        /* \"#utility.yul\":11803:11815   */\n      add\n        /* \"#utility.yul\":11796:11815   */\n      swap2\n      pop\n        /* \"#utility.yul\":11832:11835   */\n      dup2\n        /* \"#utility.yul\":11825:11835   */\n      swap1\n      pop\n        /* \"#utility.yul\":11444:11841   */\n      swap4\n      swap3\n      pop\n      pop\n      pop\n      jump\t// out\n        /* \"#utility.yul\":11847:12027   */\n    tag_302:\n        /* \"#utility.yul\":11895:11972   */\n      0x4e487b7100000000000000000000000000000000000000000000000000000000\n        /* \"#utility.yul\":11892:11893   */\n      0x00\n        /* \"#utility.yul\":11885:11973   */\n      mstore\n        /* \"#utility.yul\":11992:11996   */\n      0x12\n        /* \"#utility.yul\":11989:11990   */\n      0x04\n        /* \"#utility.yul\":11982:11997   */\n      mstore\n        /* \"#utility.yul\":12016:12020   */\n      0x24\n        /* \"#utility.yul\":12013:12014   */\n      0x00\n        /* \"#utility.yul\":12006:12021   */\n      revert\n        /* \"#utility.yul\":12033:12218   */\n    tag_141:\n        /* \"#utility.yul\":12073:12074   */\n      0x00\n        /* \"#utility.yul\":12090:12110   */\n      tag_472\n        /* \"#utility.yul\":12108:12109   */\n      dup3\n        /* \"#utility.yul\":12090:12110   */\n      tag_263\n      jump\t// in\n    tag_472:\n        /* \"#utility.yul\":12085:12110   */\n      swap2\n      pop\n        /* \"#utility.yul\":12124:12144   */\n      tag_473\n        /* \"#utility.yul\":12142:12143   */\n      dup4\n        /* \"#utility.yul\":12124:12144   */\n      tag_263\n      jump\t// in\n    tag_473:\n        /* \"#utility.yul\":12119:12144   */\n      swap3\n      pop\n        /* \"#utility.yul\":12163:12164   */\n      dup3\n        /* \"#utility.yul\":12153:12188   */\n      tag_474\n      jumpi\n        /* \"#utility.yul\":12168:12186   */\n      tag_475\n      tag_302\n      jump\t// in\n    tag_475:\n        /* \"#utility.yul\":12153:12188   */\n    tag_474:\n        /* \"#utility.yul\":12210:12211   */\n      dup3\n        /* \"#utility.yul\":12207:12208   */\n      dup3\n        /* \"#utility.yul\":12203:12212   */\n      div\n        /* \"#utility.yul\":12198:12212   */\n      swap1\n      pop\n        /* \"#utility.yul\":12033:12218   */\n      swap3\n      swap2\n      pop\n      pop\n      jump\t// out\n        /* \"#utility.yul\":12224:12323   */\n    tag_303:\n        /* \"#utility.yul\":12276:12282   */\n      0x00\n        /* \"#utility.yul\":12310:12315   */\n      dup2\n        /* \"#utility.yul\":12304:12316   */\n      mload\n        /* \"#utility.yul\":12294:12316   */\n      swap1\n      pop\n        /* \"#utility.yul\":12224:12323   */\n      swap2\n      swap1\n      pop\n      jump\t// out\n        /* \"#utility.yul\":12329:12477   */\n    tag_304:\n        /* \"#utility.yul\":12431:12442   */\n      0x00\n        /* \"#utility.yul\":12468:12471   */\n      dup2\n        /* \"#utility.yul\":12453:12471   */\n      swap1\n      pop\n        /* \"#utility.yul\":12329:12477   */\n      swap3\n      swap2\n      pop\n      pop\n      jump\t// out\n        /* \"#utility.yul\":12483:12729   */\n    tag_305:\n        /* \"#utility.yul\":12564:12565   */\n      0x00\n        /* \"#utility.yul\":12574:12687   */\n    tag_479:\n        /* \"#utility.yul\":12588:12594   */\n      dup4\n        /* \"#utility.yul\":12585:12586   */\n      dup2\n        /* \"#utility.yul\":12582:12595   */\n      lt\n        /* \"#utility.yul\":12574:12687   */\n      iszero\n      tag_481\n      jumpi\n        /* \"#utility.yul\":12673:12674   */\n      dup1\n        /* \"#utility.yul\":12668:12671   */\n      dup3\n        /* \"#utility.yul\":12664:12675   */\n      add\n        /* \"#utility.yul\":12658:12676   */\n      mload\n        /* \"#utility.yul\":12654:12655   */\n      dup2\n        /* \"#utility.yul\":12649:12652   */\n      dup5\n        /* \"#utility.yul\":12645:12656   */\n      add\n        /* \"#utility.yul\":12638:12677   */\n      mstore\n        /* \"#utility.yul\":12610:12612   */\n      0x20\n        /* \"#utility.yul\":12607:12608   */\n      dup2\n        /* \"#utility.yul\":12603:12613   */\n      add\n        /* \"#utility.yul\":12598:12613   */\n      swap1\n      pop\n        /* \"#utility.yul\":12574:12687   */\n      jump(tag_479)\n    tag_481:\n        /* \"#utility.yul\":12721:12722   */\n      0x00\n        /* \"#utility.yul\":12712:12718   */\n      dup5\n        /* \"#utility.yul\":12707:12710   */\n      dup5\n        /* \"#utility.yul\":12703:12719   */\n      add\n        /* \"#utility.yul\":12696:12723   */\n      mstore\n        /* \"#utility.yul\":12545:12729   */\n      pop\n        /* \"#utility.yul\":12483:12729   */\n      pop\n      pop\n      pop\n      jump\t// out\n        /* \"#utility.yul\":12735:13125   */\n    tag_306:\n        /* \"#utility.yul\":12841:12844   */\n      0x00\n        /* \"#utility.yul\":12869:12908   */\n      tag_483\n        /* \"#utility.yul\":12902:12907   */\n      dup3\n        /* \"#utility.yul\":12869:12908   */\n      tag_303\n      jump\t// in\n    tag_483:\n        /* \"#utility.yul\":12924:13013   */\n      tag_484\n        /* \"#utility.yul\":13006:13012   */\n      dup2\n        /* \"#utility.yul\":13001:13004   */\n      dup6\n        /* \"#utility.yul\":12924:13013   */\n      tag_304\n      jump\t// in\n    tag_484:\n        /* \"#utility.yul\":12917:13013   */\n      swap4\n      pop\n        /* \"#utility.yul\":13022:13087   */\n      tag_485\n        /* \"#utility.yul\":13080:13086   */\n      dup2\n        /* \"#utility.yul\":13075:13078   */\n      dup6\n        /* \"#utility.yul\":13068:13072   */\n      0x20\n        /* \"#utility.yul\":13061:13066   */\n      dup7\n        /* \"#utility.yul\":13057:13073   */\n      add\n        /* \"#utility.yul\":13022:13087   */\n      tag_305\n      jump\t// in\n    tag_485:\n        /* \"#utility.yul\":13112:13118   */\n      dup1\n        /* \"#utility.yul\":13107:13110   */\n      dup5\n        /* \"#utility.yul\":13103:13119   */\n      add\n        /* \"#utility.yul\":13096:13119   */\n      swap2\n      pop\n        /* \"#utility.yul\":12845:13125   */\n      pop\n        /* \"#utility.yul\":12735:13125   */\n      swap3\n      swap2\n      pop\n      pop\n      jump\t// out\n        /* \"#utility.yul\":13131:13406   */\n    tag_177:\n        /* \"#utility.yul\":13263:13266   */\n      0x00\n        /* \"#utility.yul\":13285:13380   */\n      tag_487\n        /* \"#utility.yul\":13376:13379   */\n      dup3\n        /* \"#utility.yul\":13367:13373   */\n      dup5\n        /* \"#utility.yul\":13285:13380   */\n      tag_306\n      jump\t// in\n    tag_487:\n        /* \"#utility.yul\":13278:13380   */\n      swap2\n      pop\n        /* \"#utility.yul\":13397:13400   */\n      dup2\n        /* \"#utility.yul\":13390:13400   */\n      swap1\n      pop\n        /* \"#utility.yul\":13131:13406   */\n      swap3\n      swap2\n      pop\n      pop\n      jump\t// out\n        /* \"#utility.yul\":13412:13510   */\n    tag_307:\n        /* \"#utility.yul\":13463:13469   */\n      0x00\n        /* \"#utility.yul\":13497:13502   */\n      dup2\n        /* \"#utility.yul\":13491:13503   */\n      mload\n        /* \"#utility.yul\":13481:13503   */\n      swap1\n      pop\n        /* \"#utility.yul\":13412:13510   */\n      swap2\n      swap1\n      pop\n      jump\t// out\n        /* \"#utility.yul\":13516:13632   */\n    tag_308:\n        /* \"#utility.yul\":13567:13571   */\n      0x00\n        /* \"#utility.yul\":13590:13593   */\n      dup2\n        /* \"#utility.yul\":13582:13593   */\n      swap1\n      pop\n        /* \"#utility.yul\":13620:13624   */\n      0x20\n        /* \"#utility.yul\":13615:13618   */\n      dup3\n        /* \"#utility.yul\":13611:13625   */\n      add\n        /* \"#utility.yul\":13603:13625   */\n      swap1\n      pop\n        /* \"#utility.yul\":13516:13632   */\n      swap2\n      swap1\n      pop\n      jump\t// out\n        /* \"#utility.yul\":13638:13792   */\n    tag_309:\n        /* \"#utility.yul\":13681:13692   */\n      0x00\n        /* \"#utility.yul\":13717:13746   */\n      tag_491\n        /* \"#utility.yul\":13741:13744   */\n      dup3\n        /* \"#utility.yul\":13735:13745   */\n      mload\n        /* \"#utility.yul\":13717:13746   */\n      tag_268\n      jump\t// in\n    tag_491:\n        /* \"#utility.yul\":13780:13785   */\n      dup1\n        /* \"#utility.yul\":13756:13785   */\n      swap2\n      pop\n        /* \"#utility.yul\":13693:13792   */\n      pop\n        /* \"#utility.yul\":13638:13792   */\n      swap2\n      swap1\n      pop\n      jump\t// out\n        /* \"#utility.yul\":13798:13905   */\n    tag_310:\n        /* \"#utility.yul\":13842:13850   */\n      0x00\n        /* \"#utility.yul\":13892:13897   */\n      dup3\n        /* \"#utility.yul\":13886:13890   */\n      dup3\n        /* \"#utility.yul\":13882:13898   */\n      shl\n        /* \"#utility.yul\":13861:13898   */\n      swap1\n      pop\n        /* \"#utility.yul\":13798:13905   */\n      swap3\n      swap2\n      pop\n      pop\n      jump\t// out\n        /* \"#utility.yul\":13911:14505   */\n    tag_179:\n        /* \"#utility.yul\":13995:14000   */\n      0x00\n        /* \"#utility.yul\":14026:14064   */\n      tag_494\n        /* \"#utility.yul\":14058:14063   */\n      dup3\n        /* \"#utility.yul\":14026:14064   */\n      tag_307\n      jump\t// in\n    tag_494:\n        /* \"#utility.yul\":14089:14094   */\n      dup3\n        /* \"#utility.yul\":14116:14156   */\n      tag_495\n        /* \"#utility.yul\":14150:14155   */\n      dup5\n        /* \"#utility.yul\":14116:14156   */\n      tag_308\n      jump\t// in\n    tag_495:\n        /* \"#utility.yul\":14104:14156   */\n      swap1\n      pop\n        /* \"#utility.yul\":14175:14210   */\n      tag_496\n        /* \"#utility.yul\":14201:14209   */\n      dup2\n        /* \"#utility.yul\":14175:14210   */\n      tag_309\n      jump\t// in\n    tag_496:\n        /* \"#utility.yul\":14166:14210   */\n      swap3\n      pop\n        /* \"#utility.yul\":14234:14236   */\n      0x20\n        /* \"#utility.yul\":14226:14232   */\n      dup3\n        /* \"#utility.yul\":14223:14237   */\n      lt\n        /* \"#utility.yul\":14220:14498   */\n      iszero\n      tag_497\n      jumpi\n        /* \"#utility.yul\":14305:14474   */\n      tag_498\n        /* \"#utility.yul\":14390:14456   */\n      0xffffffffffffffffffffffffffffffffffffffffffffffffffffffffffffffff\n        /* \"#utility.yul\":14360:14366   */\n      dup4\n        /* \"#utility.yul\":14356:14358   */\n      0x20\n        /* \"#utility.yul\":14352:14367   */\n      sub\n        /* \"#utility.yul\":14349:14350   */\n      0x08\n        /* \"#utility.yul\":14345:14368   */\n      mul\n        /* \"#utility.yul\":14305:14474   */\n      tag_310\n      jump\t// in\n    tag_498:\n        /* \"#utility.yul\":14282:14287   */\n      dup4\n        /* \"#utility.yul\":14261:14488   */\n      and\n        /* \"#utility.yul\":14252:14488   */\n      swap3\n      pop\n        /* \"#utility.yul\":14220:14498   */\n    tag_497:\n        /* \"#utility.yul\":14001:14505   */\n      pop\n      pop\n        /* \"#utility.yul\":13911:14505   */\n      swap2\n      swap1\n      pop\n      jump\t// out\n        /* \"#utility.yul\":14511:14590   */\n    tag_311:\n        /* \"#utility.yul\":14550:14557   */\n      0x00\n        /* \"#utility.yul\":14579:14584   */\n      dup2\n        /* \"#utility.yul\":14568:14584   */\n      swap1\n      pop\n        /* \"#utility.yul\":14511:14590   */\n      swap2\n      swap1\n      pop\n      jump\t// out\n        /* \"#utility.yul\":14596:14753   */\n    tag_312:\n        /* \"#utility.yul\":14701:14746   */\n      tag_501\n        /* \"#utility.yul\":14721:14745   */\n      tag_502\n        /* \"#utility.yul\":14739:14744   */\n      dup3\n        /* \"#utility.yul\":14721:14745   */\n      tag_263\n      jump\t// in\n    tag_502:\n        /* \"#utility.yul\":14701:14746   */\n      tag_311\n      jump\t// in\n    tag_501:\n        /* \"#utility.yul\":14696:14699   */\n      dup3\n        /* \"#utility.yul\":14689:14747   */\n      mstore\n        /* \"#utility.yul\":14596:14753   */\n      pop\n      pop\n      jump\t// out\n        /* \"#utility.yul\":14759:15015   */\n    tag_181:\n        /* \"#utility.yul\":14871:14874   */\n      0x00\n        /* \"#utility.yul\":14886:14961   */\n      tag_504\n        /* \"#utility.yul\":14957:14960   */\n      dup3\n        /* \"#utility.yul\":14948:14954   */\n      dup5\n        /* \"#utility.yul\":14886:14961   */\n      tag_312\n      jump\t// in\n    tag_504:\n        /* \"#utility.yul\":14986:14988   */\n      0x20\n        /* \"#utility.yul\":14981:14984   */\n      dup3\n        /* \"#utility.yul\":14977:14989   */\n      add\n        /* \"#utility.yul\":14970:14989   */\n      swap2\n      pop\n        /* \"#utility.yul\":15006:15009   */\n      dup2\n        /* \"#utility.yul\":14999:15009   */\n      swap1\n      pop\n        /* \"#utility.yul\":14759:15015   */\n      swap3\n      swap2\n      pop\n      pop\n      jump\t// out\n        /* \"#utility.yul\":15021:15190   */\n    tag_313:\n        /* \"#utility.yul\":15105:15116   */\n      0x00\n        /* \"#utility.yul\":15139:15145   */\n      dup3\n        /* \"#utility.yul\":15134:15137   */\n      dup3\n        /* \"#utility.yul\":15127:15146   */\n      mstore\n        /* \"#utility.yul\":15179:15183   */\n      0x20\n        /* \"#utility.yul\":15174:15177   */\n      dup3\n        /* \"#utility.yul\":15170:15184   */\n      add\n        /* \"#utility.yul\":15155:15184   */\n      swap1\n      pop\n        /* \"#utility.yul\":15021:15190   */\n      swap3\n      swap2\n      pop\n      pop\n      jump\t// out\n        /* \"#utility.yul\":15196:15421   */\n    tag_314:\n        /* \"#utility.yul\":15336:15370   */\n      0x436f6d6d697452657665616c3a3a72657665616c3a20416c7265616479207265\n        /* \"#utility.yul\":15332:15333   */\n      0x00\n        /* \"#utility.yul\":15324:15330   */\n      dup3\n        /* \"#utility.yul\":15320:15334   */\n      add\n        /* \"#utility.yul\":15313:15371   */\n      mstore\n        /* \"#utility.yul\":15405:15413   */\n      0x7665616c65640000000000000000000000000000000000000000000000000000\n        /* \"#utility.yul\":15400:15402   */\n      0x20\n        /* \"#utility.yul\":15392:15398   */\n      dup3\n        /* \"#utility.yul\":15388:15403   */\n      add\n        /* \"#utility.yul\":15381:15414   */\n      mstore\n        /* \"#utility.yul\":15196:15421   */\n      pop\n      jump\t// out\n        /* \"#utility.yul\":15427:15793   */\n    tag_315:\n        /* \"#utility.yul\":15569:15572   */\n      0x00\n        /* \"#utility.yul\":15590:15657   */\n      tag_508\n        /* \"#utility.yul\":15654:15656   */\n      0x26\n        /* \"#utility.yul\":15649:15652   */\n      dup4\n        /* \"#utility.yul\":15590:15657   */\n      tag_313\n      jump\t// in\n    tag_508:\n        /* \"#utility.yul\":15583:15657   */\n      swap2\n      pop\n        /* \"#utility.yul\":15666:15759   */\n      tag_509\n        /* \"#utility.yul\":15755:15758   */\n      dup3\n        /* \"#utility.yul\":15666:15759   */\n      tag_314\n      jump\t// in\n    tag_509:\n        /* \"#utility.yul\":15784:15786   */\n      0x40\n        /* \"#utility.yul\":15779:15782   */\n      dup3\n        /* \"#utility.yul\":15775:15787   */\n      add\n        /* \"#utility.yul\":15768:15787   */\n      swap1\n      pop\n        /* \"#utility.yul\":15427:15793   */\n      swap2\n      swap1\n      pop\n      jump\t// out\n        /* \"#utility.yul\":15799:16218   */\n    tag_192:\n        /* \"#utility.yul\":15965:15969   */\n      0x00\n        /* \"#utility.yul\":16003:16005   */\n      0x20\n        /* \"#utility.yul\":15992:16001   */\n      dup3\n        /* \"#utility.yul\":15988:16006   */\n      add\n        /* \"#utility.yul\":15980:16006   */\n      swap1\n      pop\n        /* \"#utility.yul\":16052:16061   */\n      dup2\n        /* \"#utility.yul\":16046:16050   */\n      dup2\n        /* \"#utility.yul\":16042:16062   */\n      sub\n        /* \"#utility.yul\":16038:16039   */\n      0x00\n        /* \"#utility.yul\":16027:16036   */\n      dup4\n        /* \"#utility.yul\":16023:16040   */\n      add\n        /* \"#utility.yul\":16016:16063   */\n      mstore\n        /* \"#utility.yul\":16080:16211   */\n      tag_511\n        /* \"#utility.yul\":16206:16210   */\n      dup2\n        /* \"#utility.yul\":16080:16211   */\n      tag_315\n      jump\t// in\n    tag_511:\n        /* \"#utility.yul\":16072:16211   */\n      swap1\n      pop\n        /* \"#utility.yul\":15799:16218   */\n      swap2\n      swap1\n      pop\n      jump\t// out\n        /* \"#utility.yul\":16224:16468   */\n    tag_316:\n        /* \"#utility.yul\":16364:16398   */\n      0x436f6d6d697452657665616c3a3a72657665616c3a2052657665616c65642068\n        /* \"#utility.yul\":16360:16361   */\n      0x00\n        /* \"#utility.yul\":16352:16358   */\n      dup3\n        /* \"#utility.yul\":16348:16362   */\n      add\n        /* \"#utility.yul\":16341:16399   */\n      mstore\n        /* \"#utility.yul\":16433:16460   */\n      0x61736820646f6573206e6f74206d6174636820636f6d6d697400000000000000\n        /* \"#utility.yul\":16428:16430   */\n      0x20\n        /* \"#utility.yul\":16420:16426   */\n      dup3\n        /* \"#utility.yul\":16416:16431   */\n      add\n        /* \"#utility.yul\":16409:16461   */\n      mstore\n        /* \"#utility.yul\":16224:16468   */\n      pop\n      jump\t// out\n        /* \"#utility.yul\":16474:16840   */\n    tag_317:\n        /* \"#utility.yul\":16616:16619   */\n      0x00\n        /* \"#utility.yul\":16637:16704   */\n      tag_514\n        /* \"#utility.yul\":16701:16703   */\n      0x39\n        /* \"#utility.yul\":16696:16699   */\n      dup4\n        /* \"#utility.yul\":16637:16704   */\n      tag_313\n      jump\t// in\n    tag_514:\n        /* \"#utility.yul\":16630:16704   */\n      swap2\n      pop\n        /* \"#utility.yul\":16713:16806   */\n      tag_515\n        /* \"#utility.yul\":16802:16805   */\n      dup3\n        /* \"#utility.yul\":16713:16806   */\n      tag_316\n      jump\t// in\n    tag_515:\n        /* \"#utility.yul\":16831:16833   */\n      0x40\n        /* \"#utility.yul\":16826:16829   */\n      dup3\n        /* \"#utility.yul\":16822:16834   */\n      add\n        /* \"#utility.yul\":16815:16834   */\n      swap1\n      pop\n        /* \"#utility.yul\":16474:16840   */\n      swap2\n      swap1\n      pop\n      jump\t// out\n        /* \"#utility.yul\":16846:17265   */\n    tag_196:\n        /* \"#utility.yul\":17012:17016   */\n      0x00\n        /* \"#utility.yul\":17050:17052   */\n      0x20\n        /* \"#utility.yul\":17039:17048   */\n      dup3\n        /* \"#utility.yul\":17035:17053   */\n      add\n        /* \"#utility.yul\":17027:17053   */\n      swap1\n      pop\n        /* \"#utility.yul\":17099:17108   */\n      dup2\n        /* \"#utility.yul\":17093:17097   */\n      dup2\n        /* \"#utility.yul\":17089:17109   */\n      sub\n        /* \"#utility.yul\":17085:17086   */\n      0x00\n        /* \"#utility.yul\":17074:17083   */\n      dup4\n        /* \"#utility.yul\":17070:17087   */\n      add\n        /* \"#utility.yul\":17063:17110   */\n      mstore\n        /* \"#utility.yul\":17127:17258   */\n      tag_517\n        /* \"#utility.yul\":17253:17257   */\n      dup2\n        /* \"#utility.yul\":17127:17258   */\n      tag_317\n      jump\t// in\n    tag_517:\n        /* \"#utility.yul\":17119:17258   */\n      swap1\n      pop\n        /* \"#utility.yul\":16846:17265   */\n      swap2\n      swap1\n      pop\n      jump\t// out\n        /* \"#utility.yul\":17271:17561   */\n    tag_318:\n        /* \"#utility.yul\":17411:17445   */\n      0x436f6d6d697452657665616c3a3a72657665616c3a2052657665616c20616e64\n        /* \"#utility.yul\":17407:17408   */\n      0x00\n        /* \"#utility.yul\":17399:17405   */\n      dup3\n        /* \"#utility.yul\":17395:17409   */\n      add\n        /* \"#utility.yul\":17388:17446   */\n      mstore\n        /* \"#utility.yul\":17480:17514   */\n      0x20636f6d6d69742068617070656e6564206f6e207468652073616d6520626c6f\n        /* \"#utility.yul\":17475:17477   */\n      0x20\n        /* \"#utility.yul\":17467:17473   */\n      dup3\n        /* \"#utility.yul\":17463:17478   */\n      add\n        /* \"#utility.yul\":17456:17515   */\n      mstore\n        /* \"#utility.yul\":17549:17553   */\n      0x636b000000000000000000000000000000000000000000000000000000000000\n        /* \"#utility.yul\":17544:17546   */\n      0x40\n        /* \"#utility.yul\":17536:17542   */\n      dup3\n        /* \"#utility.yul\":17532:17547   */\n      add\n        /* \"#utility.yul\":17525:17554   */\n      mstore\n        /* \"#utility.yul\":17271:17561   */\n      pop\n      jump\t// out\n        /* \"#utility.yul\":17567:17933   */\n    tag_319:\n        /* \"#utility.yul\":17709:17712   */\n      0x00\n        /* \"#utility.yul\":17730:17797   */\n      tag_520\n        /* \"#utility.yul\":17794:17796   */\n      0x42\n        /* \"#utility.yul\":17789:17792   */\n      dup4\n        /* \"#utility.yul\":17730:17797   */\n      tag_313\n      jump\t// in\n    tag_520:\n        /* \"#utility.yul\":17723:17797   */\n      swap2\n      pop\n        /* \"#utility.yul\":17806:17899   */\n      tag_521\n        /* \"#utility.yul\":17895:17898   */\n      dup3\n        /* \"#utility.yul\":17806:17899   */\n      tag_318\n      jump\t// in\n    tag_521:\n        /* \"#utility.yul\":17924:17926   */\n      0x60\n        /* \"#utility.yul\":17919:17922   */\n      dup3\n        /* \"#utility.yul\":17915:17927   */\n      add\n        /* \"#utility.yul\":17908:17927   */\n      swap1\n      pop\n        /* \"#utility.yul\":17567:17933   */\n      swap2\n      swap1\n      pop\n      jump\t// out\n        /* \"#utility.yul\":17939:18358   */\n    tag_199:\n        /* \"#utility.yul\":18105:18109   */\n      0x00\n        /* \"#utility.yul\":18143:18145   */\n      0x20\n        /* \"#utility.yul\":18132:18141   */\n      dup3\n        /* \"#utility.yul\":18128:18146   */\n      add\n        /* \"#utility.yul\":18120:18146   */\n      swap1\n      pop\n        /* \"#utility.yul\":18192:18201   */\n      dup2\n        /* \"#utility.yul\":18186:18190   */\n      dup2\n        /* \"#utility.yul\":18182:18202   */\n      sub\n        /* \"#utility.yul\":18178:18179   */\n      0x00\n        /* \"#utility.yul\":18167:18176   */\n      dup4\n        /* \"#utility.yul\":18163:18180   */\n      add\n        /* \"#utility.yul\":18156:18203   */\n      mstore\n        /* \"#utility.yul\":18220:18351   */\n      tag_523\n        /* \"#utility.yul\":18346:18350   */\n      dup2\n        /* \"#utility.yul\":18220:18351   */\n      tag_319\n      jump\t// in\n    tag_523:\n        /* \"#utility.yul\":18212:18351   */\n      swap1\n      pop\n        /* \"#utility.yul\":17939:18358   */\n      swap2\n      swap1\n      pop\n      jump\t// out\n        /* \"#utility.yul\":18364:18569   */\n    tag_201:\n        /* \"#utility.yul\":18403:18406   */\n      0x00\n        /* \"#utility.yul\":18422:18441   */\n      tag_525\n        /* \"#utility.yul\":18439:18440   */\n      dup3\n        /* \"#utility.yul\":18422:18441   */\n      tag_290\n      jump\t// in\n    tag_525:\n        /* \"#utility.yul\":18417:18441   */\n      swap2\n      pop\n        /* \"#utility.yul\":18455:18474   */\n      tag_526\n        /* \"#utility.yul\":18472:18473   */\n      dup4\n        /* \"#utility.yul\":18455:18474   */\n      tag_290\n      jump\t// in\n    tag_526:\n        /* \"#utility.yul\":18450:18474   */\n      swap3\n      pop\n        /* \"#utility.yul\":18497:18498   */\n      dup3\n        /* \"#utility.yul\":18494:18495   */\n      dup3\n        /* \"#utility.yul\":18490:18499   */\n      add\n        /* \"#utility.yul\":18483:18499   */\n      swap1\n      pop\n        /* \"#utility.yul\":18520:18538   */\n      0xffffffffffffffff\n        /* \"#utility.yul\":18515:18518   */\n      dup2\n        /* \"#utility.yul\":18512:18539   */\n      gt\n        /* \"#utility.yul\":18509:18562   */\n      iszero\n      tag_527\n      jumpi\n        /* \"#utility.yul\":18542:18560   */\n      tag_528\n      tag_295\n      jump\t// in\n    tag_528:\n        /* \"#utility.yul\":18509:18562   */\n    tag_527:\n        /* \"#utility.yul\":18364:18569   */\n      swap3\n      swap2\n      pop\n      pop\n      jump\t// out\n        /* \"#utility.yul\":18575:18801   */\n    tag_320:\n        /* \"#utility.yul\":18715:18749   */\n      0x436f6d6d697452657665616c3a3a72657665616c3a2052657665616c65642074\n        /* \"#utility.yul\":18711:18712   */\n      0x00\n        /* \"#utility.yul\":18703:18709   */\n      dup3\n        /* \"#utility.yul\":18699:18713   */\n      add\n        /* \"#utility.yul\":18692:18750   */\n      mstore\n        /* \"#utility.yul\":18784:18793   */\n      0x6f6f206c61746500000000000000000000000000000000000000000000000000\n        /* \"#utility.yul\":18779:18781   */\n      0x20\n        /* \"#utility.yul\":18771:18777   */\n      dup3\n        /* \"#utility.yul\":18767:18782   */\n      add\n        /* \"#utility.yul\":18760:18794   */\n      mstore\n        /* \"#utility.yul\":18575:18801   */\n      pop\n      jump\t// out\n        /* \"#utility.yul\":18807:19173   */\n    tag_321:\n        /* \"#utility.yul\":18949:18952   */\n      0x00\n        /* \"#utility.yul\":18970:19037   */\n      tag_531\n        /* \"#utility.yul\":19034:19036   */\n      0x27\n        /* \"#utility.yul\":19029:19032   */\n      dup4\n        /* \"#utility.yul\":18970:19037   */\n      tag_313\n      jump\t// in\n    tag_531:\n        /* \"#utility.yul\":18963:19037   */\n      swap2\n      pop\n        /* \"#utility.yul\":19046:19139   */\n      tag_532\n        /* \"#utility.yul\":19135:19138   */\n      dup3\n        /* \"#utility.yul\":19046:19139   */\n      tag_320\n      jump\t// in\n    tag_532:\n        /* \"#utility.yul\":19164:19166   */\n      0x40\n        /* \"#utility.yul\":19159:19162   */\n      dup3\n        /* \"#utility.yul\":19155:19167   */\n      add\n        /* \"#utility.yul\":19148:19167   */\n      swap1\n      pop\n        /* \"#utility.yul\":18807:19173   */\n      swap2\n      swap1\n      pop\n      jump\t// out\n        /* \"#utility.yul\":19179:19598   */\n    tag_204:\n        /* \"#utility.yul\":19345:19349   */\n      0x00\n        /* \"#utility.yul\":19383:19385   */\n      0x20\n        /* \"#utility.yul\":19372:19381   */\n      dup3\n        /* \"#utility.yul\":19368:19386   */\n      add\n        /* \"#utility.yul\":19360:19386   */\n      swap1\n      pop\n        /* \"#utility.yul\":19432:19441   */\n      dup2\n        /* \"#utility.yul\":19426:19430   */\n      dup2\n        /* \"#utility.yul\":19422:19442   */\n      sub\n        /* \"#utility.yul\":19418:19419   */\n      0x00\n        /* \"#utility.yul\":19407:19416   */\n      dup4\n        /* \"#utility.yul\":19403:19420   */\n      add\n        /* \"#utility.yul\":19396:19443   */\n      mstore\n        /* \"#utility.yul\":19460:19591   */\n      tag_534\n        /* \"#utility.yul\":19586:19590   */\n      dup2\n        /* \"#utility.yul\":19460:19591   */\n      tag_321\n      jump\t// in\n    tag_534:\n        /* \"#utility.yul\":19452:19591   */\n      swap1\n      pop\n        /* \"#utility.yul\":19179:19598   */\n      swap2\n      swap1\n      pop\n      jump\t// out\n        /* \"#utility.yul\":19604:20001   */\n    tag_206:\n        /* \"#utility.yul\":19744:19747   */\n      0x00\n        /* \"#utility.yul\":19759:19834   */\n      tag_536\n        /* \"#utility.yul\":19830:19833   */\n      dup3\n        /* \"#utility.yul\":19821:19827   */\n      dup6\n        /* \"#utility.yul\":19759:19834   */\n      tag_301\n      jump\t// in\n    tag_536:\n        /* \"#utility.yul\":19859:19861   */\n      0x20\n        /* \"#utility.yul\":19854:19857   */\n      dup3\n        /* \"#utility.yul\":19850:19862   */\n      add\n        /* \"#utility.yul\":19843:19862   */\n      swap2\n      pop\n        /* \"#utility.yul\":19872:19947   */\n      tag_537\n        /* \"#utility.yul\":19943:19946   */\n      dup3\n        /* \"#utility.yul\":19934:19940   */\n      dup5\n        /* \"#utility.yul\":19872:19947   */\n      tag_301\n      jump\t// in\n    tag_537:\n        /* \"#utility.yul\":19972:19974   */\n      0x20\n        /* \"#utility.yul\":19967:19970   */\n      dup3\n        /* \"#utility.yul\":19963:19975   */\n      add\n        /* \"#utility.yul\":19956:19975   */\n      swap2\n      pop\n        /* \"#utility.yul\":19992:19995   */\n      dup2\n        /* \"#utility.yul\":19985:19995   */\n      swap1\n      pop\n        /* \"#utility.yul\":19604:20001   */\n      swap4\n      swap3\n      pop\n      pop\n      pop\n      jump\t// out\n        /* \"#utility.yul\":20007:20183   */\n    tag_208:\n        /* \"#utility.yul\":20039:20040   */\n      0x00\n        /* \"#utility.yul\":20056:20076   */\n      tag_539\n        /* \"#utility.yul\":20074:20075   */\n      dup3\n        /* \"#utility.yul\":20056:20076   */\n      tag_263\n      jump\t// in\n    tag_539:\n        /* \"#utility.yul\":20051:20076   */\n      swap2\n      pop\n        /* \"#utility.yul\":20090:20110   */\n      tag_540\n        /* \"#utility.yul\":20108:20109   */\n      dup4\n        /* \"#utility.yul\":20090:20110   */\n      tag_263\n      jump\t// in\n    tag_540:\n        /* \"#utility.yul\":20085:20110   */\n      swap3\n      pop\n        /* \"#utility.yul\":20129:20130   */\n      dup3\n        /* \"#utility.yul\":20119:20154   */\n      tag_541\n      jumpi\n        /* \"#utility.yul\":20134:20152   */\n      tag_542\n      tag_302\n      jump\t// in\n    tag_542:\n        /* \"#utility.yul\":20119:20154   */\n    tag_541:\n        /* \"#utility.yul\":20175:20176   */\n      dup3\n        /* \"#utility.yul\":20172:20173   */\n      dup3\n        /* \"#utility.yul\":20168:20177   */\n      mod\n        /* \"#utility.yul\":20163:20177   */\n      swap1\n      pop\n        /* \"#utility.yul\":20007:20183   */\n      swap3\n      swap2\n      pop\n      pop\n      jump\t// out\n        /* \"#utility.yul\":20189:20631   */\n    tag_210:\n        /* \"#utility.yul\":20338:20342   */\n      0x00\n        /* \"#utility.yul\":20376:20378   */\n      0x60\n        /* \"#utility.yul\":20365:20374   */\n      dup3\n        /* \"#utility.yul\":20361:20379   */\n      add\n        /* \"#utility.yul\":20353:20379   */\n      swap1\n      pop\n        /* \"#utility.yul\":20389:20460   */\n      tag_544\n        /* \"#utility.yul\":20457:20458   */\n      0x00\n        /* \"#utility.yul\":20446:20455   */\n      dup4\n        /* \"#utility.yul\":20442:20459   */\n      add\n        /* \"#utility.yul\":20433:20439   */\n      dup7\n        /* \"#utility.yul\":20389:20460   */\n      tag_294\n      jump\t// in\n    tag_544:\n        /* \"#utility.yul\":20470:20542   */\n      tag_545\n        /* \"#utility.yul\":20538:20540   */\n      0x20\n        /* \"#utility.yul\":20527:20536   */\n      dup4\n        /* \"#utility.yul\":20523:20541   */\n      add\n        /* \"#utility.yul\":20514:20520   */\n      dup6\n        /* \"#utility.yul\":20470:20542   */\n      tag_271\n      jump\t// in\n    tag_545:\n        /* \"#utility.yul\":20552:20624   */\n      tag_546\n        /* \"#utility.yul\":20620:20622   */\n      0x40\n        /* \"#utility.yul\":20609:20618   */\n      dup4\n        /* \"#utility.yul\":20605:20623   */\n      add\n        /* \"#utility.yul\":20596:20602   */\n      dup5\n        /* \"#utility.yul\":20552:20624   */\n      tag_264\n      jump\t// in\n    tag_546:\n        /* \"#utility.yul\":20189:20631   */\n      swap5\n      swap4\n      pop\n      pop\n      pop\n      pop\n      jump\t// out\n        /* \"#utility.yul\":20637:21175   */\n    tag_213:\n        /* \"#utility.yul\":20805:20808   */\n      0x00\n        /* \"#utility.yul\":20820:20895   */\n      tag_548\n        /* \"#utility.yul\":20891:20894   */\n      dup3\n        /* \"#utility.yul\":20882:20888   */\n      dup7\n        /* \"#utility.yul\":20820:20895   */\n      tag_299\n      jump\t// in\n    tag_548:\n        /* \"#utility.yul\":20920:20922   */\n      0x14\n        /* \"#utility.yul\":20915:20918   */\n      dup3\n        /* \"#utility.yul\":20911:20923   */\n      add\n        /* \"#utility.yul\":20904:20923   */\n      swap2\n      pop\n        /* \"#utility.yul\":20933:21008   */\n      tag_549\n        /* \"#utility.yul\":21004:21007   */\n      dup3\n        /* \"#utility.yul\":20995:21001   */\n      dup6\n        /* \"#utility.yul\":20933:21008   */\n      tag_301\n      jump\t// in\n    tag_549:\n        /* \"#utility.yul\":21033:21035   */\n      0x20\n        /* \"#utility.yul\":21028:21031   */\n      dup3\n        /* \"#utility.yul\":21024:21036   */\n      add\n        /* \"#utility.yul\":21017:21036   */\n      swap2\n      pop\n        /* \"#utility.yul\":21046:21121   */\n      tag_550\n        /* \"#utility.yul\":21117:21120   */\n      dup3\n        /* \"#utility.yul\":21108:21114   */\n      dup5\n        /* \"#utility.yul\":21046:21121   */\n      tag_301\n      jump\t// in\n    tag_550:\n        /* \"#utility.yul\":21146:21148   */\n      0x20\n        /* \"#utility.yul\":21141:21144   */\n      dup3\n        /* \"#utility.yul\":21137:21149   */\n      add\n        /* \"#utility.yul\":21130:21149   */\n      swap2\n      pop\n        /* \"#utility.yul\":21166:21169   */\n      dup2\n        /* \"#utility.yul\":21159:21169   */\n      swap1\n      pop\n        /* \"#utility.yul\":20637:21175   */\n      swap5\n      swap4\n      pop\n      pop\n      pop\n      pop\n      jump\t// out\n        /* \"#utility.yul\":21181:21412   */\n    tag_322:\n        /* \"#utility.yul\":21321:21355   */\n      0x436f6d6d697452657665616c3a3a72657665616c416e737765723a20416c7265\n        /* \"#utility.yul\":21317:21318   */\n      0x00\n        /* \"#utility.yul\":21309:21315   */\n      dup3\n        /* \"#utility.yul\":21305:21319   */\n      add\n        /* \"#utility.yul\":21298:21356   */\n      mstore\n        /* \"#utility.yul\":21390:21404   */\n      0x6164792072657665616c65640000000000000000000000000000000000000000\n        /* \"#utility.yul\":21385:21387   */\n      0x20\n        /* \"#utility.yul\":21377:21383   */\n      dup3\n        /* \"#utility.yul\":21373:21388   */\n      add\n        /* \"#utility.yul\":21366:21405   */\n      mstore\n        /* \"#utility.yul\":21181:21412   */\n      pop\n      jump\t// out\n        /* \"#utility.yul\":21418:21784   */\n    tag_323:\n        /* \"#utility.yul\":21560:21563   */\n      0x00\n        /* \"#utility.yul\":21581:21648   */\n      tag_553\n        /* \"#utility.yul\":21645:21647   */\n      0x2c\n        /* \"#utility.yul\":21640:21643   */\n      dup4\n        /* \"#utility.yul\":21581:21648   */\n      tag_313\n      jump\t// in\n    tag_553:\n        /* \"#utility.yul\":21574:21648   */\n      swap2\n      pop\n        /* \"#utility.yul\":21657:21750   */\n      tag_554\n        /* \"#utility.yul\":21746:21749   */\n      dup3\n        /* \"#utility.yul\":21657:21750   */\n      tag_322\n      jump\t// in\n    tag_554:\n        /* \"#utility.yul\":21775:21777   */\n      0x40\n        /* \"#utility.yul\":21770:21773   */\n      dup3\n        /* \"#utility.yul\":21766:21778   */\n      add\n        /* \"#utility.yul\":21759:21778   */\n      swap1\n      pop\n        /* \"#utility.yul\":21418:21784   */\n      swap2\n      swap1\n      pop\n      jump\t// out\n        /* \"#utility.yul\":21790:22209   */\n    tag_233:\n        /* \"#utility.yul\":21956:21960   */\n      0x00\n        /* \"#utility.yul\":21994:21996   */\n      0x20\n        /* \"#utility.yul\":21983:21992   */\n      dup3\n        /* \"#utility.yul\":21979:21997   */\n      add\n        /* \"#utility.yul\":21971:21997   */\n      swap1\n      pop\n        /* \"#utility.yul\":22043:22052   */\n      dup2\n        /* \"#utility.yul\":22037:22041   */\n      dup2\n        /* \"#utility.yul\":22033:22053   */\n      sub\n        /* \"#utility.yul\":22029:22030   */\n      0x00\n        /* \"#utility.yul\":22018:22027   */\n      dup4\n        /* \"#utility.yul\":22014:22031   */\n      add\n        /* \"#utility.yul\":22007:22054   */\n      mstore\n        /* \"#utility.yul\":22071:22202   */\n      tag_556\n        /* \"#utility.yul\":22197:22201   */\n      dup2\n        /* \"#utility.yul\":22071:22202   */\n      tag_323\n      jump\t// in\n    tag_556:\n        /* \"#utility.yul\":22063:22202   */\n      swap1\n      pop\n        /* \"#utility.yul\":21790:22209   */\n      swap2\n      swap1\n      pop\n      jump\t// out\n        /* \"#utility.yul\":22215:22465   */\n    tag_324:\n        /* \"#utility.yul\":22355:22389   */\n      0x436f6d6d697452657665616c3a3a72657665616c416e737765723a2052657665\n        /* \"#utility.yul\":22351:22352   */\n      0x00\n        /* \"#utility.yul\":22343:22349   */\n      dup3\n        /* \"#utility.yul\":22339:22353   */\n      add\n        /* \"#utility.yul\":22332:22390   */\n      mstore\n        /* \"#utility.yul\":22424:22457   */\n      0x616c6564206861736820646f6573206e6f74206d6174636820636f6d6d697400\n        /* \"#utility.yul\":22419:22421   */\n      0x20\n        /* \"#utility.yul\":22411:22417   */\n      dup3\n        /* \"#utility.yul\":22407:22422   */\n      add\n        /* \"#utility.yul\":22400:22458   */\n      mstore\n        /* \"#utility.yul\":22215:22465   */\n      pop\n      jump\t// out\n        /* \"#utility.yul\":22471:22837   */\n    tag_325:\n        /* \"#utility.yul\":22613:22616   */\n      0x00\n        /* \"#utility.yul\":22634:22701   */\n      tag_559\n        /* \"#utility.yul\":22698:22700   */\n      0x3f\n        /* \"#utility.yul\":22693:22696   */\n      dup4\n        /* \"#utility.yul\":22634:22701   */\n      tag_313\n      jump\t// in\n    tag_559:\n        /* \"#utility.yul\":22627:22701   */\n      swap2\n      pop\n        /* \"#utility.yul\":22710:22803   */\n      tag_560\n        /* \"#utility.yul\":22799:22802   */\n      dup3\n        /* \"#utility.yul\":22710:22803   */\n      tag_324\n      jump\t// in\n    tag_560:\n        /* \"#utility.yul\":22828:22830   */\n      0x40\n        /* \"#utility.yul\":22823:22826   */\n      dup3\n        /* \"#utility.yul\":22819:22831   */\n      add\n        /* \"#utility.yul\":22812:22831   */\n      swap1\n      pop\n        /* \"#utility.yul\":22471:22837   */\n      swap2\n      swap1\n      pop\n      jump\t// out\n        /* \"#utility.yul\":22843:23262   */\n    tag_237:\n        /* \"#utility.yul\":23009:23013   */\n      0x00\n        /* \"#utility.yul\":23047:23049   */\n      0x20\n        /* \"#utility.yul\":23036:23045   */\n      dup3\n        /* \"#utility.yul\":23032:23050   */\n      add\n        /* \"#utility.yul\":23024:23050   */\n      swap1\n      pop\n        /* \"#utility.yul\":23096:23105   */\n      dup2\n        /* \"#utility.yul\":23090:23094   */\n      dup2\n        /* \"#utility.yul\":23086:23106   */\n      sub\n        /* \"#utility.yul\":23082:23083   */\n      0x00\n        /* \"#utility.yul\":23071:23080   */\n      dup4\n        /* \"#utility.yul\":23067:23084   */\n      add\n        /* \"#utility.yul\":23060:23107   */\n      mstore\n        /* \"#utility.yul\":23124:23255   */\n      tag_562\n        /* \"#utility.yul\":23250:23254   */\n      dup2\n        /* \"#utility.yul\":23124:23255   */\n      tag_325\n      jump\t// in\n    tag_562:\n        /* \"#utility.yul\":23116:23255   */\n      swap1\n      pop\n        /* \"#utility.yul\":22843:23262   */\n      swap2\n      swap1\n      pop\n      jump\t// out\n        /* \"#utility.yul\":23268:23710   */\n    tag_239:\n        /* \"#utility.yul\":23417:23421   */\n      0x00\n        /* \"#utility.yul\":23455:23457   */\n      0x60\n        /* \"#utility.yul\":23444:23453   */\n      dup3\n        /* \"#utility.yul\":23440:23458   */\n      add\n        /* \"#utility.yul\":23432:23458   */\n      swap1\n      pop\n        /* \"#utility.yul\":23468:23539   */\n      tag_564\n        /* \"#utility.yul\":23536:23537   */\n      0x00\n        /* \"#utility.yul\":23525:23534   */\n      dup4\n        /* \"#utility.yul\":23521:23538   */\n      add\n        /* \"#utility.yul\":23512:23518   */\n      dup7\n        /* \"#utility.yul\":23468:23539   */\n      tag_294\n      jump\t// in\n    tag_564:\n        /* \"#utility.yul\":23549:23621   */\n      tag_565\n        /* \"#utility.yul\":23617:23619   */\n      0x20\n        /* \"#utility.yul\":23606:23615   */\n      dup4\n        /* \"#utility.yul\":23602:23620   */\n      add\n        /* \"#utility.yul\":23593:23599   */\n      dup6\n        /* \"#utility.yul\":23549:23621   */\n      tag_271\n      jump\t// in\n    tag_565:\n        /* \"#utility.yul\":23631:23703   */\n      tag_566\n        /* \"#utility.yul\":23699:23701   */\n      0x40\n        /* \"#utility.yul\":23688:23697   */\n      dup4\n        /* \"#utility.yul\":23684:23702   */\n      add\n        /* \"#utility.yul\":23675:23681   */\n      dup5\n        /* \"#utility.yul\":23631:23703   */\n      tag_271\n      jump\t// in\n    tag_566:\n        /* \"#utility.yul\":23268:23710   */\n      swap5\n      swap4\n      pop\n      pop\n      pop\n      pop\n      jump\t// out\n        /* \"#utility.yul\":23716:24154   */\n    tag_242:\n        /* \"#utility.yul\":23863:23867   */\n      0x00\n        /* \"#utility.yul\":23901:23903   */\n      0x60\n        /* \"#utility.yul\":23890:23899   */\n      dup3\n        /* \"#utility.yul\":23886:23904   */\n      add\n        /* \"#utility.yul\":23878:23904   */\n      swap1\n      pop\n        /* \"#utility.yul\":23914:23985   */\n      tag_568\n        /* \"#utility.yul\":23982:23983   */\n      0x00\n        /* \"#utility.yul\":23971:23980   */\n      dup4\n        /* \"#utility.yul\":23967:23984   */\n      add\n        /* \"#utility.yul\":23958:23964   */\n      dup7\n        /* \"#utility.yul\":23914:23985   */\n      tag_294\n      jump\t// in\n    tag_568:\n        /* \"#utility.yul\":23995:24067   */\n      tag_569\n        /* \"#utility.yul\":24063:24065   */\n      0x20\n        /* \"#utility.yul\":24052:24061   */\n      dup4\n        /* \"#utility.yul\":24048:24066   */\n      add\n        /* \"#utility.yul\":24039:24045   */\n      dup6\n        /* \"#utility.yul\":23995:24067   */\n      tag_271\n      jump\t// in\n    tag_569:\n        /* \"#utility.yul\":24077:24147   */\n      tag_570\n        /* \"#utility.yul\":24143:24145   */\n      0x40\n        /* \"#utility.yul\":24132:24141   */\n      dup4\n        /* \"#utility.yul\":24128:24146   */\n      add\n        /* \"#utility.yul\":24119:24125   */\n      dup5\n        /* \"#utility.yul\":24077:24147   */\n      tag_291\n      jump\t// in\n    tag_570:\n        /* \"#utility.yul\":23716:24154   */\n      swap5\n      swap4\n      pop\n      pop\n      pop\n      pop\n      jump\t// out\n\n    auxdata: 0xa26469706673582212209222608763866df730a9bac6849e64c0ebea12799275143480423bb32bf51fc364736f6c63430008180033\n}\n",
				"bytecode": {
					"linkReferences": {},
					"object": "608060405260645f806101000a81548160ff021916908360ff1602179055505f6002555f6003555f6005555f600655603c60075542600855348015610042575f80fd5b5061247b806100505f395ff3fe608060405260043610610113575f3560e01c806389f71d531161009f578063c876e61511610063578063c876e61514610377578063d09a0a3b146103a1578063d1adbd72146103dd578063de8e903314610405578063f14fcbc81461042d57610113565b806389f71d531461027f5780638dddbf36146102a957806390d5d0c3146102e55780639e0551c61461030f578063ba71ae9f1461034d57610113565b8063558d51c6116100e6578063558d51c6146101b15780635afa1fd8146101c75780636ac5db19146101ef578063701fd0f1146102195780637b43a8e61461024157610113565b8063086f781514610117578063228cb7331461014157806327b5db8a1461016b5780633cf5040a14610175575b5f80fd5b348015610122575f80fd5b5061012b610455565b6040516101389190611743565b60405180910390f35b34801561014c575f80fd5b5061015561045b565b6040516101629190611743565b60405180910390f35b610173610461565b005b348015610180575f80fd5b5061019b600480360381019061019691906117a0565b610591565b6040516101a891906117da565b60405180910390f35b3480156101bc575f80fd5b506101c56105c2565b005b3480156101d2575f80fd5b506101ed60048036038101906101e89190611959565b610960565b005b3480156101fa575f80fd5b50610203610ae9565b60405161021091906119e0565b60405180910390f35b348015610224575f80fd5b5061023f600480360381019061023a91906117a0565b610af9565b005b34801561024c575f80fd5b5061026760048036038101906102629190611a53565b610eb7565b60405161027693929190611aba565b60405180910390f35b34801561028a575f80fd5b50610293610efd565b6040516102a09190611743565b60405180910390f35b3480156102b4575f80fd5b506102cf60048036038101906102ca9190611aef565b610f03565b6040516102dc91906117da565b60405180910390f35b3480156102f0575f80fd5b506102f9610f37565b6040516103069190611743565b60405180910390f35b34801561031a575f80fd5b5061033560048036038101906103309190611b2d565b610f3d565b60405161034493929190611b67565b60405180910390f35b348015610358575f80fd5b50610361610f8f565b60405161036e9190611743565b60405180910390f35b348015610382575f80fd5b5061038b610f95565b6040516103989190611743565b60405180910390f35b3480156103ac575f80fd5b506103c760048036038101906103c29190611b9c565b610f9b565b6040516103d491906117da565b60405180910390f35b3480156103e8575f80fd5b5061040360048036038101906103fe9190611bf6565b611021565b005b348015610410575f80fd5b5061042b60048036038101906104269190611aef565b611169565b005b348015610438575f80fd5b50610453600480360381019061044e91906117a0565b61131d565b005b60055481565b60035481565b600280541061046e575f80fd5b670de0b6b3a76400003414610481575f80fd5b3460035f8282546104929190611c61565b925050819055503360045f60025481526020019081526020015f206001015f6101000a81548173ffffffffffffffffffffffffffffffffffffffff021916908373ffffffffffffffffffffffffffffffffffffffff160217905550600360045f60025481526020019081526020015f205f01819055505f60045f60025481526020019081526020015f2060010160146101000a81548160ff02191690831515021790555060025f81548092919061054890611c94565b91905055507f313f9ebdca9d25ee9456dd69022e3324975c8261b7a8b134881905d3b6964d3c33600254604051610580929190611cdb565b60405180910390a142600881905550565b5f30826040516020016105a5929190611d67565b604051602081830303815290604052805190602001209050919050565b600160025410156105d1575f80fd5b6007546008546105e19190611c61565b42116105eb575f80fd5b5f60045f8081526020019081526020015f206001015f9054906101000a900473ffffffffffffffffffffffffffffffffffffffff1690505f60045f600181526020019081526020015f206001015f9054906101000a900473ffffffffffffffffffffffffffffffffffffffff1690506001600254036106b7578173ffffffffffffffffffffffffffffffffffffffff166108fc60035490811502906040515f60405180830381858888f193505050501580156106a9573d5f803e3d5ffd5b506106b26114ef565b61095c565b600280541480156106e357505f60055414806106e2575060026005541480156106e157505f600654145b5b5b15610799578173ffffffffffffffffffffffffffffffffffffffff166108fc60026003546107119190611dbf565b90811502906040515f60405180830381858888f19350505050158015610739573d5f803e3d5ffd5b508073ffffffffffffffffffffffffffffffffffffffff166108fc60026003546107639190611dbf565b90811502906040515f60405180830381858888f1935050505015801561078b573d5f803e3d5ffd5b506107946114ef565b61095b565b600280541480156107ac57506001600554145b1561087d576001151560045f8081526020019081526020015f2060010160149054906101000a900460ff16151503610829578173ffffffffffffffffffffffffffffffffffffffff166108fc60035490811502906040515f60405180830381858888f19350505050158015610823573d5f803e3d5ffd5b50610870565b8073ffffffffffffffffffffffffffffffffffffffff166108fc60035490811502906040515f60405180830381858888f1935050505015801561086e573d5f803e3d5ffd5b505b6108786114ef565b61095a565b6002805414801561089057506002600554145b801561089e57506001600654145b1561095957600360045f8081526020019081526020015f205f015414610909578173ffffffffffffffffffffffffffffffffffffffff166108fc60035490811502906040515f60405180830381858888f19350505050158015610903573d5f803e3d5ffd5b50610950565b8073ffffffffffffffffffffffffffffffffffffffff166108fc60035490811502906040515f60405180830381858888f1935050505015801561094e573d5f803e3d5ffd5b505b6109586114ef565b5b5b5b5b5050565b600280541461096d575f80fd5b60026005541461097b575f80fd5b60045f8381526020019081526020015f206001015f9054906101000a900473ffffffffffffffffffffffffffffffffffffffff1673ffffffffffffffffffffffffffffffffffffffff163373ffffffffffffffffffffffffffffffffffffffff16146109e5575f80fd5b5f83101580156109f6575060038311155b6109fe575f80fd5b6001151560045f8481526020019081526020015f2060010160149054906101000a900460ff16151514610a2f575f80fd5b5f81604051602001610a419190611e5b565b604051602081830303815290604052610a5990611eaa565b90505f84604051602001610a6d9190611f30565b604051602081830303815290604052610a8590611eaa565b9050610a918183611169565b8460045f8681526020019081526020015f205f018190555060065f815480929190610abb90611c94565b919050555042600881905550600260065403610ae257610ad961150d565b610ae16114ef565b5b5050505050565b5f8054906101000a900460ff1681565b5f151560015f3373ffffffffffffffffffffffffffffffffffffffff1673ffffffffffffffffffffffffffffffffffffffff1681526020019081526020015f2060010160089054906101000a900460ff16151514610b8c576040517f08c379a0000000000000000000000000000000000000000000000000000000008152600401610b8390611fca565b60405180910390fd5b6001805f3373ffffffffffffffffffffffffffffffffffffffff1673ffffffffffffffffffffffffffffffffffffffff1681526020019081526020015f2060010160086101000a81548160ff02191690831515021790555060015f3373ffffffffffffffffffffffffffffffffffffffff1673ffffffffffffffffffffffffffffffffffffffff1681526020019081526020015f205f0154610c2d82610591565b14610c6d576040517f08c379a0000000000000000000000000000000000000000000000000000000008152600401610c6490612058565b60405180910390fd5b60015f3373ffffffffffffffffffffffffffffffffffffffff1673ffffffffffffffffffffffffffffffffffffffff1681526020019081526020015f206001015f9054906101000a900467ffffffffffffffff1667ffffffffffffffff164367ffffffffffffffff1611610d16576040517f08c379a0000000000000000000000000000000000000000000000000000000008152600401610d0d9061210c565b60405180910390fd5b60fa60015f3373ffffffffffffffffffffffffffffffffffffffff1673ffffffffffffffffffffffffffffffffffffffff1681526020019081526020015f206001015f9054906101000a900467ffffffffffffffff16610d76919061212a565b67ffffffffffffffff164367ffffffffffffffff161115610dcc576040517f08c379a0000000000000000000000000000000000000000000000000000000008152600401610dc3906121d5565b60405180910390fd5b5f60015f3373ffffffffffffffffffffffffffffffffffffffff1673ffffffffffffffffffffffffffffffffffffffff1681526020019081526020015f206001015f9054906101000a900467ffffffffffffffff1667ffffffffffffffff164090505f805f9054906101000a900460ff1660ff168284604051602001610e539291906121f3565b604051602081830303815290604052805190602001205f1c610e75919061221e565b90507fbc016dd1cadeaefcb851af7a0a93532e0023d536894b730801f7bcfe7065bcc2338483604051610eaa9392919061224e565b60405180910390a1505050565b6001602052805f5260405f205f91509050805f015490806001015f9054906101000a900467ffffffffffffffff16908060010160089054906101000a900460ff16905083565b60085481565b5f308383604051602001610f1993929190612283565b60405160208183030381529060405280519060200120905092915050565b60025481565b6004602052805f5260405f205f91509050805f015490806001015f9054906101000a900473ffffffffffffffffffffffffffffffffffffffff16908060010160149054906101000a900460ff16905083565b60075481565b60065481565b5f808310158015610fad575060038311155b610fb5575f80fd5b5f82604051602001610fc79190611e5b565b604051602081830303815290604052610fdf90611eaa565b90505f84604051602001610ff39190611f30565b60405160208183030381529060405261100b90611eaa565b90506110178183610f03565b9250505092915050565b600280541461102e575f80fd5b60026005541061103c575f80fd5b60045f8281526020019081526020015f206001015f9054906101000a900473ffffffffffffffffffffffffffffffffffffffff1673ffffffffffffffffffffffffffffffffffffffff163373ffffffffffffffffffffffffffffffffffffffff16146110a6575f80fd5b5f151560045f8381526020019081526020015f2060010160149054906101000a900460ff161515146110d6575f80fd5b600160045f8381526020019081526020015f2060010160146101000a81548160ff02191690831515021790555061110c8261131d565b60055f81548092919061111e90611c94565b91905055507f3928cc5abcbb1c0b781bebbc4f1e9b156f6d392796c791cc0937db5e42677ff733600554604051611156929190611cdb565b60405180910390a1426008819055505050565b5f151560015f3373ffffffffffffffffffffffffffffffffffffffff1673ffffffffffffffffffffffffffffffffffffffff1681526020019081526020015f2060010160089054906101000a900460ff161515146111fc576040517f08c379a00000000000000000000000000000000000000000000000000000000081526004016111f39061232f565b60405180910390fd5b6001805f3373ffffffffffffffffffffffffffffffffffffffff1673ffffffffffffffffffffffffffffffffffffffff1681526020019081526020015f2060010160086101000a81548160ff02191690831515021790555060015f3373ffffffffffffffffffffffffffffffffffffffff1673ffffffffffffffffffffffffffffffffffffffff1681526020019081526020015f205f015461129e8383610f03565b146112de576040517f08c379a00000000000000000000000000000000000000000000000000000000081526004016112d5906123bd565b60405180910390fd5b7f8bed02c4d61e56ed1d90657e7a0ba48f15cca20fcc2899d7235221b2cb0423a6338383604051611311939291906123db565b60405180910390a15050565b8060015f3373ffffffffffffffffffffffffffffffffffffffff1673ffffffffffffffffffffffffffffffffffffffff1681526020019081526020015f205f01819055504360015f3373ffffffffffffffffffffffffffffffffffffffff1673ffffffffffffffffffffffffffffffffffffffff1681526020019081526020015f206001015f6101000a81548167ffffffffffffffff021916908367ffffffffffffffff1602179055505f60015f3373ffffffffffffffffffffffffffffffffffffffff1673ffffffffffffffffffffffffffffffffffffffff1681526020019081526020015f2060010160086101000a81548160ff0219169083151502179055507f3c1a1f8f38335b17f751c6da4ba7d1865f26b3997535176f5080de9fad8916033360015f3373ffffffffffffffffffffffffffffffffffffffff1673ffffffffffffffffffffffffffffffffffffffff1681526020019081526020015f205f015460015f3373ffffffffffffffffffffffffffffffffffffffff1673ffffffffffffffffffffffffffffffffffffffff1681526020019081526020015f206001015f9054906101000a900467ffffffffffffffff166040516114e493929190612410565b60405180910390a150565b5f6002819055505f6003819055505f6005819055505f600681905550565b5f60045f8081526020019081526020015f205f015490505f60045f600181526020019081526020015f205f015490505f60045f8081526020019081526020015f206001015f9054906101000a900473ffffffffffffffffffffffffffffffffffffffff1690505f60045f600181526020019081526020015f206001015f9054906101000a900473ffffffffffffffffffffffffffffffffffffffff1690508260036001866115bb9190611c61565b6115c5919061221e565b03611615578073ffffffffffffffffffffffffffffffffffffffff166108fc60035490811502906040515f60405180830381858888f1935050505015801561160f573d5f803e3d5ffd5b50611725565b8360036001856116259190611c61565b61162f919061221e565b0361167f578173ffffffffffffffffffffffffffffffffffffffff166108fc60035490811502906040515f60405180830381858888f19350505050158015611679573d5f803e3d5ffd5b50611724565b8173ffffffffffffffffffffffffffffffffffffffff166108fc60026003546116a89190611dbf565b90811502906040515f60405180830381858888f193505050501580156116d0573d5f803e3d5ffd5b508073ffffffffffffffffffffffffffffffffffffffff166108fc60026003546116fa9190611dbf565b90811502906040515f60405180830381858888f19350505050158015611722573d5f803e3d5ffd5b505b5b50505050565b5f819050919050565b61173d8161172b565b82525050565b5f6020820190506117565f830184611734565b92915050565b5f604051905090565b5f80fd5b5f80fd5b5f819050919050565b61177f8161176d565b8114611789575f80fd5b50565b5f8135905061179a81611776565b92915050565b5f602082840312156117b5576117b4611765565b5b5f6117c28482850161178c565b91505092915050565b6117d48161176d565b82525050565b5f6020820190506117ed5f8301846117cb565b92915050565b6117fc8161172b565b8114611806575f80fd5b50565b5f81359050611817816117f3565b92915050565b5f80fd5b5f80fd5b5f601f19601f8301169050919050565b7f4e487b71000000000000000000000000000000000000000000000000000000005f52604160045260245ffd5b61186b82611825565b810181811067ffffffffffffffff8211171561188a57611889611835565b5b80604052505050565b5f61189c61175c565b90506118a88282611862565b919050565b5f67ffffffffffffffff8211156118c7576118c6611835565b5b6118d082611825565b9050602081019050919050565b828183375f83830152505050565b5f6118fd6118f8846118ad565b611893565b90508281526020810184848401111561191957611918611821565b5b6119248482856118dd565b509392505050565b5f82601f8301126119405761193f61181d565b5b81356119508482602086016118eb565b91505092915050565b5f805f606084860312156119705761196f611765565b5b5f61197d86828701611809565b935050602061198e86828701611809565b925050604084013567ffffffffffffffff8111156119af576119ae611769565b5b6119bb8682870161192c565b9150509250925092565b5f60ff82169050919050565b6119da816119c5565b82525050565b5f6020820190506119f35f8301846119d1565b92915050565b5f73ffffffffffffffffffffffffffffffffffffffff82169050919050565b5f611a22826119f9565b9050919050565b611a3281611a18565b8114611a3c575f80fd5b50565b5f81359050611a4d81611a29565b92915050565b5f60208284031215611a6857611a67611765565b5b5f611a7584828501611a3f565b91505092915050565b5f67ffffffffffffffff82169050919050565b611a9a81611a7e565b82525050565b5f8115159050919050565b611ab481611aa0565b82525050565b5f606082019050611acd5f8301866117cb565b611ada6020830185611a91565b611ae76040830184611aab565b949350505050565b5f8060408385031215611b0557611b04611765565b5b5f611b128582860161178c565b9250506020611b238582860161178c565b9150509250929050565b5f60208284031215611b4257611b41611765565b5b5f611b4f84828501611809565b91505092915050565b611b6181611a18565b82525050565b5f606082019050611b7a5f830186611734565b611b876020830185611b58565b611b946040830184611aab565b949350505050565b5f8060408385031215611bb257611bb1611765565b5b5f611bbf85828601611809565b925050602083013567ffffffffffffffff811115611be057611bdf611769565b5b611bec8582860161192c565b9150509250929050565b5f8060408385031215611c0c57611c0b611765565b5b5f611c198582860161178c565b9250506020611c2a85828601611809565b9150509250929050565b7f4e487b71000000000000000000000000000000000000000000000000000000005f52601160045260245ffd5b5f611c6b8261172b565b9150611c768361172b565b9250828201905080821115611c8e57611c8d611c34565b5b92915050565b5f611c9e8261172b565b91507fffffffffffffffffffffffffffffffffffffffffffffffffffffffffffffffff8203611cd057611ccf611c34565b5b600182019050919050565b5f604082019050611cee5f830185611b58565b611cfb6020830184611734565b9392505050565b5f8160601b9050919050565b5f611d1882611d02565b9050919050565b5f611d2982611d0e565b9050919050565b611d41611d3c82611a18565b611d1f565b82525050565b5f819050919050565b611d61611d5c8261176d565b611d47565b82525050565b5f611d728285611d30565b601482019150611d828284611d50565b6020820191508190509392505050565b7f4e487b71000000000000000000000000000000000000000000000000000000005f52601260045260245ffd5b5f611dc98261172b565b9150611dd48361172b565b925082611de457611de3611d92565b5b828204905092915050565b5f81519050919050565b5f81905092915050565b5f5b83811015611e20578082015181840152602081019050611e05565b5f8484015250505050565b5f611e3582611def565b611e3f8185611df9565b9350611e4f818560208601611e03565b80840191505092915050565b5f611e668284611e2b565b915081905092915050565b5f81519050919050565b5f819050602082019050919050565b5f611e95825161176d565b80915050919050565b5f82821b905092915050565b5f611eb482611e71565b82611ebe84611e7b565b9050611ec981611e8a565b92506020821015611f0957611f047fffffffffffffffffffffffffffffffffffffffffffffffffffffffffffffffff83602003600802611e9e565b831692505b5050919050565b5f819050919050565b611f2a611f258261172b565b611f10565b82525050565b5f611f3b8284611f19565b60208201915081905092915050565b5f82825260208201905092915050565b7f436f6d6d697452657665616c3a3a72657665616c3a20416c72656164792072655f8201527f7665616c65640000000000000000000000000000000000000000000000000000602082015250565b5f611fb4602683611f4a565b9150611fbf82611f5a565b604082019050919050565b5f6020820190508181035f830152611fe181611fa8565b9050919050565b7f436f6d6d697452657665616c3a3a72657665616c3a2052657665616c656420685f8201527f61736820646f6573206e6f74206d6174636820636f6d6d697400000000000000602082015250565b5f612042603983611f4a565b915061204d82611fe8565b604082019050919050565b5f6020820190508181035f83015261206f81612036565b9050919050565b7f436f6d6d697452657665616c3a3a72657665616c3a2052657665616c20616e645f8201527f20636f6d6d69742068617070656e6564206f6e207468652073616d6520626c6f60208201527f636b000000000000000000000000000000000000000000000000000000000000604082015250565b5f6120f6604283611f4a565b915061210182612076565b606082019050919050565b5f6020820190508181035f830152612123816120ea565b9050919050565b5f61213482611a7e565b915061213f83611a7e565b9250828201905067ffffffffffffffff81111561215f5761215e611c34565b5b92915050565b7f436f6d6d697452657665616c3a3a72657665616c3a2052657665616c656420745f8201527f6f6f206c61746500000000000000000000000000000000000000000000000000602082015250565b5f6121bf602783611f4a565b91506121ca82612165565b604082019050919050565b5f6020820190508181035f8301526121ec816121b3565b9050919050565b5f6121fe8285611d50565b60208201915061220e8284611d50565b6020820191508190509392505050565b5f6122288261172b565b91506122338361172b565b92508261224357612242611d92565b5b828206905092915050565b5f6060820190506122615f830186611b58565b61226e60208301856117cb565b61227b6040830184611734565b949350505050565b5f61228e8286611d30565b60148201915061229e8285611d50565b6020820191506122ae8284611d50565b602082019150819050949350505050565b7f436f6d6d697452657665616c3a3a72657665616c416e737765723a20416c72655f8201527f6164792072657665616c65640000000000000000000000000000000000000000602082015250565b5f612319602c83611f4a565b9150612324826122bf565b604082019050919050565b5f6020820190508181035f8301526123468161230d565b9050919050565b7f436f6d6d697452657665616c3a3a72657665616c416e737765723a20526576655f8201527f616c6564206861736820646f6573206e6f74206d6174636820636f6d6d697400602082015250565b5f6123a7603f83611f4a565b91506123b28261234d565b604082019050919050565b5f6020820190508181035f8301526123d48161239b565b9050919050565b5f6060820190506123ee5f830186611b58565b6123fb60208301856117cb565b61240860408301846117cb565b949350505050565b5f6060820190506124235f830186611b58565b61243060208301856117cb565b61243d6040830184611a91565b94935050505056fea26469706673582212209222608763866df730a9bac6849e64c0ebea12799275143480423bb32bf51fc364736f6c63430008180033",
					"opcodes": "PUSH1 0x80 PUSH1 0x40 MSTORE PUSH1 0x64 PUSH0 DUP1 PUSH2 0x100 EXP DUP2 SLOAD DUP2 PUSH1 0xFF MUL NOT AND SWAP1 DUP4 PUSH1 0xFF AND MUL OR SWAP1 SSTORE POP PUSH0 PUSH1 0x2 SSTORE PUSH0 PUSH1 0x3 SSTORE PUSH0 PUSH1 0x5 SSTORE PUSH0 PUSH1 0x6 SSTORE PUSH1 0x3C PUSH1 0x7 SSTORE TIMESTAMP PUSH1 0x8 SSTORE CALLVALUE DUP1 ISZERO PUSH2 0x42 JUMPI PUSH0 DUP1 REVERT JUMPDEST POP PUSH2 0x247B DUP1 PUSH2 0x50 PUSH0 CODECOPY PUSH0 RETURN INVALID PUSH1 0x80 PUSH1 0x40 MSTORE PUSH1 0x4 CALLDATASIZE LT PUSH2 0x113 JUMPI PUSH0 CALLDATALOAD PUSH1 0xE0 SHR DUP1 PUSH4 0x89F71D53 GT PUSH2 0x9F JUMPI DUP1 PUSH4 0xC876E615 GT PUSH2 0x63 JUMPI DUP1 PUSH4 0xC876E615 EQ PUSH2 0x377 JUMPI DUP1 PUSH4 0xD09A0A3B EQ PUSH2 0x3A1 JUMPI DUP1 PUSH4 0xD1ADBD72 EQ PUSH2 0x3DD JUMPI DUP1 PUSH4 0xDE8E9033 EQ PUSH2 0x405 JUMPI DUP1 PUSH4 0xF14FCBC8 EQ PUSH2 0x42D JUMPI PUSH2 0x113 JUMP JUMPDEST DUP1 PUSH4 0x89F71D53 EQ PUSH2 0x27F JUMPI DUP1 PUSH4 0x8DDDBF36 EQ PUSH2 0x2A9 JUMPI DUP1 PUSH4 0x90D5D0C3 EQ PUSH2 0x2E5 JUMPI DUP1 PUSH4 0x9E0551C6 EQ PUSH2 0x30F JUMPI DUP1 PUSH4 0xBA71AE9F EQ PUSH2 0x34D JUMPI PUSH2 0x113 JUMP JUMPDEST DUP1 PUSH4 0x558D51C6 GT PUSH2 0xE6 JUMPI DUP1 PUSH4 0x558D51C6 EQ PUSH2 0x1B1 JUMPI DUP1 PUSH4 0x5AFA1FD8 EQ PUSH2 0x1C7 JUMPI DUP1 PUSH4 0x6AC5DB19 EQ PUSH2 0x1EF JUMPI DUP1 PUSH4 0x701FD0F1 EQ PUSH2 0x219 JUMPI DUP1 PUSH4 0x7B43A8E6 EQ PUSH2 0x241 JUMPI PUSH2 0x113 JUMP JUMPDEST DUP1 PUSH4 0x86F7815 EQ PUSH2 0x117 JUMPI DUP1 PUSH4 0x228CB733 EQ PUSH2 0x141 JUMPI DUP1 PUSH4 0x27B5DB8A EQ PUSH2 0x16B JUMPI DUP1 PUSH4 0x3CF5040A EQ PUSH2 0x175 JUMPI JUMPDEST PUSH0 DUP1 REVERT JUMPDEST CALLVALUE DUP1 ISZERO PUSH2 0x122 JUMPI PUSH0 DUP1 REVERT JUMPDEST POP PUSH2 0x12B PUSH2 0x455 JUMP JUMPDEST PUSH1 0x40 MLOAD PUSH2 0x138 SWAP2 SWAP1 PUSH2 0x1743 JUMP JUMPDEST PUSH1 0x40 MLOAD DUP1 SWAP2 SUB SWAP1 RETURN JUMPDEST CALLVALUE DUP1 ISZERO PUSH2 0x14C JUMPI PUSH0 DUP1 REVERT JUMPDEST POP PUSH2 0x155 PUSH2 0x45B JUMP JUMPDEST PUSH1 0x40 MLOAD PUSH2 0x162 SWAP2 SWAP1 PUSH2 0x1743 JUMP JUMPDEST PUSH1 0x40 MLOAD DUP1 SWAP2 SUB SWAP1 RETURN JUMPDEST PUSH2 0x173 PUSH2 0x461 JUMP JUMPDEST STOP JUMPDEST CALLVALUE DUP1 ISZERO PUSH2 0x180 JUMPI PUSH0 DUP1 REVERT JUMPDEST POP PUSH2 0x19B PUSH1 0x4 DUP1 CALLDATASIZE SUB DUP2 ADD SWAP1 PUSH2 0x196 SWAP2 SWAP1 PUSH2 0x17A0 JUMP JUMPDEST PUSH2 0x591 JUMP JUMPDEST PUSH1 0x40 MLOAD PUSH2 0x1A8 SWAP2 SWAP1 PUSH2 0x17DA JUMP JUMPDEST PUSH1 0x40 MLOAD DUP1 SWAP2 SUB SWAP1 RETURN JUMPDEST CALLVALUE DUP1 ISZERO PUSH2 0x1BC JUMPI PUSH0 DUP1 REVERT JUMPDEST POP PUSH2 0x1C5 PUSH2 0x5C2 JUMP JUMPDEST STOP JUMPDEST CALLVALUE DUP1 ISZERO PUSH2 0x1D2 JUMPI PUSH0 DUP1 REVERT JUMPDEST POP PUSH2 0x1ED PUSH1 0x4 DUP1 CALLDATASIZE SUB DUP2 ADD SWAP1 PUSH2 0x1E8 SWAP2 SWAP1 PUSH2 0x1959 JUMP JUMPDEST PUSH2 0x960 JUMP JUMPDEST STOP JUMPDEST CALLVALUE DUP1 ISZERO PUSH2 0x1FA JUMPI PUSH0 DUP1 REVERT JUMPDEST POP PUSH2 0x203 PUSH2 0xAE9 JUMP JUMPDEST PUSH1 0x40 MLOAD PUSH2 0x210 SWAP2 SWAP1 PUSH2 0x19E0 JUMP JUMPDEST PUSH1 0x40 MLOAD DUP1 SWAP2 SUB SWAP1 RETURN JUMPDEST CALLVALUE DUP1 ISZERO PUSH2 0x224 JUMPI PUSH0 DUP1 REVERT JUMPDEST POP PUSH2 0x23F PUSH1 0x4 DUP1 CALLDATASIZE SUB DUP2 ADD SWAP1 PUSH2 0x23A SWAP2 SWAP1 PUSH2 0x17A0 JUMP JUMPDEST PUSH2 0xAF9 JUMP JUMPDEST STOP JUMPDEST CALLVALUE DUP1 ISZERO PUSH2 0x24C JUMPI PUSH0 DUP1 REVERT JUMPDEST POP PUSH2 0x267 PUSH1 0x4 DUP1 CALLDATASIZE SUB DUP2 ADD SWAP1 PUSH2 0x262 SWAP2 SWAP1 PUSH2 0x1A53 JUMP JUMPDEST PUSH2 0xEB7 JUMP JUMPDEST PUSH1 0x40 MLOAD PUSH2 0x276 SWAP4 SWAP3 SWAP2 SWAP1 PUSH2 0x1ABA JUMP JUMPDEST PUSH1 0x40 MLOAD DUP1 SWAP2 SUB SWAP1 RETURN JUMPDEST CALLVALUE DUP1 ISZERO PUSH2 0x28A JUMPI PUSH0 DUP1 REVERT JUMPDEST POP PUSH2 0x293 PUSH2 0xEFD JUMP JUMPDEST PUSH1 0x40 MLOAD PUSH2 0x2A0 SWAP2 SWAP1 PUSH2 0x1743 JUMP JUMPDEST PUSH1 0x40 MLOAD DUP1 SWAP2 SUB SWAP1 RETURN JUMPDEST CALLVALUE DUP1 ISZERO PUSH2 0x2B4 JUMPI PUSH0 DUP1 REVERT JUMPDEST POP PUSH2 0x2CF PUSH1 0x4 DUP1 CALLDATASIZE SUB DUP2 ADD SWAP1 PUSH2 0x2CA SWAP2 SWAP1 PUSH2 0x1AEF JUMP JUMPDEST PUSH2 0xF03 JUMP JUMPDEST PUSH1 0x40 MLOAD PUSH2 0x2DC SWAP2 SWAP1 PUSH2 0x17DA JUMP JUMPDEST PUSH1 0x40 MLOAD DUP1 SWAP2 SUB SWAP1 RETURN JUMPDEST CALLVALUE DUP1 ISZERO PUSH2 0x2F0 JUMPI PUSH0 DUP1 REVERT JUMPDEST POP PUSH2 0x2F9 PUSH2 0xF37 JUMP JUMPDEST PUSH1 0x40 MLOAD PUSH2 0x306 SWAP2 SWAP1 PUSH2 0x1743 JUMP JUMPDEST PUSH1 0x40 MLOAD DUP1 SWAP2 SUB SWAP1 RETURN JUMPDEST CALLVALUE DUP1 ISZERO PUSH2 0x31A JUMPI PUSH0 DUP1 REVERT JUMPDEST POP PUSH2 0x335 PUSH1 0x4 DUP1 CALLDATASIZE SUB DUP2 ADD SWAP1 PUSH2 0x330 SWAP2 SWAP1 PUSH2 0x1B2D JUMP JUMPDEST PUSH2 0xF3D JUMP JUMPDEST PUSH1 0x40 MLOAD PUSH2 0x344 SWAP4 SWAP3 SWAP2 SWAP1 PUSH2 0x1B67 JUMP JUMPDEST PUSH1 0x40 MLOAD DUP1 SWAP2 SUB SWAP1 RETURN JUMPDEST CALLVALUE DUP1 ISZERO PUSH2 0x358 JUMPI PUSH0 DUP1 REVERT JUMPDEST POP PUSH2 0x361 PUSH2 0xF8F JUMP JUMPDEST PUSH1 0x40 MLOAD PUSH2 0x36E SWAP2 SWAP1 PUSH2 0x1743 JUMP JUMPDEST PUSH1 0x40 MLOAD DUP1 SWAP2 SUB SWAP1 RETURN JUMPDEST CALLVALUE DUP1 ISZERO PUSH2 0x382 JUMPI PUSH0 DUP1 REVERT JUMPDEST POP PUSH2 0x38B PUSH2 0xF95 JUMP JUMPDEST PUSH1 0x40 MLOAD PUSH2 0x398 SWAP2 SWAP1 PUSH2 0x1743 JUMP JUMPDEST PUSH1 0x40 MLOAD DUP1 SWAP2 SUB SWAP1 RETURN JUMPDEST CALLVALUE DUP1 ISZERO PUSH2 0x3AC JUMPI PUSH0 DUP1 REVERT JUMPDEST POP PUSH2 0x3C7 PUSH1 0x4 DUP1 CALLDATASIZE SUB DUP2 ADD SWAP1 PUSH2 0x3C2 SWAP2 SWAP1 PUSH2 0x1B9C JUMP JUMPDEST PUSH2 0xF9B JUMP JUMPDEST PUSH1 0x40 MLOAD PUSH2 0x3D4 SWAP2 SWAP1 PUSH2 0x17DA JUMP JUMPDEST PUSH1 0x40 MLOAD DUP1 SWAP2 SUB SWAP1 RETURN JUMPDEST CALLVALUE DUP1 ISZERO PUSH2 0x3E8 JUMPI PUSH0 DUP1 REVERT JUMPDEST POP PUSH2 0x403 PUSH1 0x4 DUP1 CALLDATASIZE SUB DUP2 ADD SWAP1 PUSH2 0x3FE SWAP2 SWAP1 PUSH2 0x1BF6 JUMP JUMPDEST PUSH2 0x1021 JUMP JUMPDEST STOP JUMPDEST CALLVALUE DUP1 ISZERO PUSH2 0x410 JUMPI PUSH0 DUP1 REVERT JUMPDEST POP PUSH2 0x42B PUSH1 0x4 DUP1 CALLDATASIZE SUB DUP2 ADD SWAP1 PUSH2 0x426 SWAP2 SWAP1 PUSH2 0x1AEF JUMP JUMPDEST PUSH2 0x1169 JUMP JUMPDEST STOP JUMPDEST CALLVALUE DUP1 ISZERO PUSH2 0x438 JUMPI PUSH0 DUP1 REVERT JUMPDEST POP PUSH2 0x453 PUSH1 0x4 DUP1 CALLDATASIZE SUB DUP2 ADD SWAP1 PUSH2 0x44E SWAP2 SWAP1 PUSH2 0x17A0 JUMP JUMPDEST PUSH2 0x131D JUMP JUMPDEST STOP JUMPDEST PUSH1 0x5 SLOAD DUP2 JUMP JUMPDEST PUSH1 0x3 SLOAD DUP2 JUMP JUMPDEST PUSH1 0x2 DUP1 SLOAD LT PUSH2 0x46E JUMPI PUSH0 DUP1 REVERT JUMPDEST PUSH8 0xDE0B6B3A7640000 CALLVALUE EQ PUSH2 0x481 JUMPI PUSH0 DUP1 REVERT JUMPDEST CALLVALUE PUSH1 0x3 PUSH0 DUP3 DUP3 SLOAD PUSH2 0x492 SWAP2 SWAP1 PUSH2 0x1C61 JUMP JUMPDEST SWAP3 POP POP DUP2 SWAP1 SSTORE POP CALLER PUSH1 0x4 PUSH0 PUSH1 0x2 SLOAD DUP2 MSTORE PUSH1 0x20 ADD SWAP1 DUP2 MSTORE PUSH1 0x20 ADD PUSH0 KECCAK256 PUSH1 0x1 ADD PUSH0 PUSH2 0x100 EXP DUP2 SLOAD DUP2 PUSH20 0xFFFFFFFFFFFFFFFFFFFFFFFFFFFFFFFFFFFFFFFF MUL NOT AND SWAP1 DUP4 PUSH20 0xFFFFFFFFFFFFFFFFFFFFFFFFFFFFFFFFFFFFFFFF AND MUL OR SWAP1 SSTORE POP PUSH1 0x3 PUSH1 0x4 PUSH0 PUSH1 0x2 SLOAD DUP2 MSTORE PUSH1 0x20 ADD SWAP1 DUP2 MSTORE PUSH1 0x20 ADD PUSH0 KECCAK256 PUSH0 ADD DUP2 SWAP1 SSTORE POP PUSH0 PUSH1 0x4 PUSH0 PUSH1 0x2 SLOAD DUP2 MSTORE PUSH1 0x20 ADD SWAP1 DUP2 MSTORE PUSH1 0x20 ADD PUSH0 KECCAK256 PUSH1 0x1 ADD PUSH1 0x14 PUSH2 0x100 EXP DUP2 SLOAD DUP2 PUSH1 0xFF MUL NOT AND SWAP1 DUP4 ISZERO ISZERO MUL OR SWAP1 SSTORE POP PUSH1 0x2 PUSH0 DUP2 SLOAD DUP1 SWAP3 SWAP2 SWAP1 PUSH2 0x548 SWAP1 PUSH2 0x1C94 JUMP JUMPDEST SWAP2 SWAP1 POP SSTORE POP PUSH32 0x313F9EBDCA9D25EE9456DD69022E3324975C8261B7A8B134881905D3B6964D3C CALLER PUSH1 0x2 SLOAD PUSH1 0x40 MLOAD PUSH2 0x580 SWAP3 SWAP2 SWAP1 PUSH2 0x1CDB JUMP JUMPDEST PUSH1 0x40 MLOAD DUP1 SWAP2 SUB SWAP1 LOG1 TIMESTAMP PUSH1 0x8 DUP2 SWAP1 SSTORE POP JUMP JUMPDEST PUSH0 ADDRESS DUP3 PUSH1 0x40 MLOAD PUSH1 0x20 ADD PUSH2 0x5A5 SWAP3 SWAP2 SWAP1 PUSH2 0x1D67 JUMP JUMPDEST PUSH1 0x40 MLOAD PUSH1 0x20 DUP2 DUP4 SUB SUB DUP2 MSTORE SWAP1 PUSH1 0x40 MSTORE DUP1 MLOAD SWAP1 PUSH1 0x20 ADD KECCAK256 SWAP1 POP SWAP2 SWAP1 POP JUMP JUMPDEST PUSH1 0x1 PUSH1 0x2 SLOAD LT ISZERO PUSH2 0x5D1 JUMPI PUSH0 DUP1 REVERT JUMPDEST PUSH1 0x7 SLOAD PUSH1 0x8 SLOAD PUSH2 0x5E1 SWAP2 SWAP1 PUSH2 0x1C61 JUMP JUMPDEST TIMESTAMP GT PUSH2 0x5EB JUMPI PUSH0 DUP1 REVERT JUMPDEST PUSH0 PUSH1 0x4 PUSH0 DUP1 DUP2 MSTORE PUSH1 0x20 ADD SWAP1 DUP2 MSTORE PUSH1 0x20 ADD PUSH0 KECCAK256 PUSH1 0x1 ADD PUSH0 SWAP1 SLOAD SWAP1 PUSH2 0x100 EXP SWAP1 DIV PUSH20 0xFFFFFFFFFFFFFFFFFFFFFFFFFFFFFFFFFFFFFFFF AND SWAP1 POP PUSH0 PUSH1 0x4 PUSH0 PUSH1 0x1 DUP2 MSTORE PUSH1 0x20 ADD SWAP1 DUP2 MSTORE PUSH1 0x20 ADD PUSH0 KECCAK256 PUSH1 0x1 ADD PUSH0 SWAP1 SLOAD SWAP1 PUSH2 0x100 EXP SWAP1 DIV PUSH20 0xFFFFFFFFFFFFFFFFFFFFFFFFFFFFFFFFFFFFFFFF AND SWAP1 POP PUSH1 0x1 PUSH1 0x2 SLOAD SUB PUSH2 0x6B7 JUMPI DUP2 PUSH20 0xFFFFFFFFFFFFFFFFFFFFFFFFFFFFFFFFFFFFFFFF AND PUSH2 0x8FC PUSH1 0x3 SLOAD SWAP1 DUP2 ISZERO MUL SWAP1 PUSH1 0x40 MLOAD PUSH0 PUSH1 0x40 MLOAD DUP1 DUP4 SUB DUP2 DUP6 DUP9 DUP9 CALL SWAP4 POP POP POP POP ISZERO DUP1 ISZERO PUSH2 0x6A9 JUMPI RETURNDATASIZE PUSH0 DUP1 RETURNDATACOPY RETURNDATASIZE PUSH0 REVERT JUMPDEST POP PUSH2 0x6B2 PUSH2 0x14EF JUMP JUMPDEST PUSH2 0x95C JUMP JUMPDEST PUSH1 0x2 DUP1 SLOAD EQ DUP1 ISZERO PUSH2 0x6E3 JUMPI POP PUSH0 PUSH1 0x5 SLOAD EQ DUP1 PUSH2 0x6E2 JUMPI POP PUSH1 0x2 PUSH1 0x5 SLOAD EQ DUP1 ISZERO PUSH2 0x6E1 JUMPI POP PUSH0 PUSH1 0x6 SLOAD EQ JUMPDEST JUMPDEST JUMPDEST ISZERO PUSH2 0x799 JUMPI DUP2 PUSH20 0xFFFFFFFFFFFFFFFFFFFFFFFFFFFFFFFFFFFFFFFF AND PUSH2 0x8FC PUSH1 0x2 PUSH1 0x3 SLOAD PUSH2 0x711 SWAP2 SWAP1 PUSH2 0x1DBF JUMP JUMPDEST SWAP1 DUP2 ISZERO MUL SWAP1 PUSH1 0x40 MLOAD PUSH0 PUSH1 0x40 MLOAD DUP1 DUP4 SUB DUP2 DUP6 DUP9 DUP9 CALL SWAP4 POP POP POP POP ISZERO DUP1 ISZERO PUSH2 0x739 JUMPI RETURNDATASIZE PUSH0 DUP1 RETURNDATACOPY RETURNDATASIZE PUSH0 REVERT JUMPDEST POP DUP1 PUSH20 0xFFFFFFFFFFFFFFFFFFFFFFFFFFFFFFFFFFFFFFFF AND PUSH2 0x8FC PUSH1 0x2 PUSH1 0x3 SLOAD PUSH2 0x763 SWAP2 SWAP1 PUSH2 0x1DBF JUMP JUMPDEST SWAP1 DUP2 ISZERO MUL SWAP1 PUSH1 0x40 MLOAD PUSH0 PUSH1 0x40 MLOAD DUP1 DUP4 SUB DUP2 DUP6 DUP9 DUP9 CALL SWAP4 POP POP POP POP ISZERO DUP1 ISZERO PUSH2 0x78B JUMPI RETURNDATASIZE PUSH0 DUP1 RETURNDATACOPY RETURNDATASIZE PUSH0 REVERT JUMPDEST POP PUSH2 0x794 PUSH2 0x14EF JUMP JUMPDEST PUSH2 0x95B JUMP JUMPDEST PUSH1 0x2 DUP1 SLOAD EQ DUP1 ISZERO PUSH2 0x7AC JUMPI POP PUSH1 0x1 PUSH1 0x5 SLOAD EQ JUMPDEST ISZERO PUSH2 0x87D JUMPI PUSH1 0x1 ISZERO ISZERO PUSH1 0x4 PUSH0 DUP1 DUP2 MSTORE PUSH1 0x20 ADD SWAP1 DUP2 MSTORE PUSH1 0x20 ADD PUSH0 KECCAK256 PUSH1 0x1 ADD PUSH1 0x14 SWAP1 SLOAD SWAP1 PUSH2 0x100 EXP SWAP1 DIV PUSH1 0xFF AND ISZERO ISZERO SUB PUSH2 0x829 JUMPI DUP2 PUSH20 0xFFFFFFFFFFFFFFFFFFFFFFFFFFFFFFFFFFFFFFFF AND PUSH2 0x8FC PUSH1 0x3 SLOAD SWAP1 DUP2 ISZERO MUL SWAP1 PUSH1 0x40 MLOAD PUSH0 PUSH1 0x40 MLOAD DUP1 DUP4 SUB DUP2 DUP6 DUP9 DUP9 CALL SWAP4 POP POP POP POP ISZERO DUP1 ISZERO PUSH2 0x823 JUMPI RETURNDATASIZE PUSH0 DUP1 RETURNDATACOPY RETURNDATASIZE PUSH0 REVERT JUMPDEST POP PUSH2 0x870 JUMP JUMPDEST DUP1 PUSH20 0xFFFFFFFFFFFFFFFFFFFFFFFFFFFFFFFFFFFFFFFF AND PUSH2 0x8FC PUSH1 0x3 SLOAD SWAP1 DUP2 ISZERO MUL SWAP1 PUSH1 0x40 MLOAD PUSH0 PUSH1 0x40 MLOAD DUP1 DUP4 SUB DUP2 DUP6 DUP9 DUP9 CALL SWAP4 POP POP POP POP ISZERO DUP1 ISZERO PUSH2 0x86E JUMPI RETURNDATASIZE PUSH0 DUP1 RETURNDATACOPY RETURNDATASIZE PUSH0 REVERT JUMPDEST POP JUMPDEST PUSH2 0x878 PUSH2 0x14EF JUMP JUMPDEST PUSH2 0x95A JUMP JUMPDEST PUSH1 0x2 DUP1 SLOAD EQ DUP1 ISZERO PUSH2 0x890 JUMPI POP PUSH1 0x2 PUSH1 0x5 SLOAD EQ JUMPDEST DUP1 ISZERO PUSH2 0x89E JUMPI POP PUSH1 0x1 PUSH1 0x6 SLOAD EQ JUMPDEST ISZERO PUSH2 0x959 JUMPI PUSH1 0x3 PUSH1 0x4 PUSH0 DUP1 DUP2 MSTORE PUSH1 0x20 ADD SWAP1 DUP2 MSTORE PUSH1 0x20 ADD PUSH0 KECCAK256 PUSH0 ADD SLOAD EQ PUSH2 0x909 JUMPI DUP2 PUSH20 0xFFFFFFFFFFFFFFFFFFFFFFFFFFFFFFFFFFFFFFFF AND PUSH2 0x8FC PUSH1 0x3 SLOAD SWAP1 DUP2 ISZERO MUL SWAP1 PUSH1 0x40 MLOAD PUSH0 PUSH1 0x40 MLOAD DUP1 DUP4 SUB DUP2 DUP6 DUP9 DUP9 CALL SWAP4 POP POP POP POP ISZERO DUP1 ISZERO PUSH2 0x903 JUMPI RETURNDATASIZE PUSH0 DUP1 RETURNDATACOPY RETURNDATASIZE PUSH0 REVERT JUMPDEST POP PUSH2 0x950 JUMP JUMPDEST DUP1 PUSH20 0xFFFFFFFFFFFFFFFFFFFFFFFFFFFFFFFFFFFFFFFF AND PUSH2 0x8FC PUSH1 0x3 SLOAD SWAP1 DUP2 ISZERO MUL SWAP1 PUSH1 0x40 MLOAD PUSH0 PUSH1 0x40 MLOAD DUP1 DUP4 SUB DUP2 DUP6 DUP9 DUP9 CALL SWAP4 POP POP POP POP ISZERO DUP1 ISZERO PUSH2 0x94E JUMPI RETURNDATASIZE PUSH0 DUP1 RETURNDATACOPY RETURNDATASIZE PUSH0 REVERT JUMPDEST POP JUMPDEST PUSH2 0x958 PUSH2 0x14EF JUMP JUMPDEST JUMPDEST JUMPDEST JUMPDEST JUMPDEST POP POP JUMP JUMPDEST PUSH1 0x2 DUP1 SLOAD EQ PUSH2 0x96D JUMPI PUSH0 DUP1 REVERT JUMPDEST PUSH1 0x2 PUSH1 0x5 SLOAD EQ PUSH2 0x97B JUMPI PUSH0 DUP1 REVERT JUMPDEST PUSH1 0x4 PUSH0 DUP4 DUP2 MSTORE PUSH1 0x20 ADD SWAP1 DUP2 MSTORE PUSH1 0x20 ADD PUSH0 KECCAK256 PUSH1 0x1 ADD PUSH0 SWAP1 SLOAD SWAP1 PUSH2 0x100 EXP SWAP1 DIV PUSH20 0xFFFFFFFFFFFFFFFFFFFFFFFFFFFFFFFFFFFFFFFF AND PUSH20 0xFFFFFFFFFFFFFFFFFFFFFFFFFFFFFFFFFFFFFFFF AND CALLER PUSH20 0xFFFFFFFFFFFFFFFFFFFFFFFFFFFFFFFFFFFFFFFF AND EQ PUSH2 0x9E5 JUMPI PUSH0 DUP1 REVERT JUMPDEST PUSH0 DUP4 LT ISZERO DUP1 ISZERO PUSH2 0x9F6 JUMPI POP PUSH1 0x3 DUP4 GT ISZERO JUMPDEST PUSH2 0x9FE JUMPI PUSH0 DUP1 REVERT JUMPDEST PUSH1 0x1 ISZERO ISZERO PUSH1 0x4 PUSH0 DUP5 DUP2 MSTORE PUSH1 0x20 ADD SWAP1 DUP2 MSTORE PUSH1 0x20 ADD PUSH0 KECCAK256 PUSH1 0x1 ADD PUSH1 0x14 SWAP1 SLOAD SWAP1 PUSH2 0x100 EXP SWAP1 DIV PUSH1 0xFF AND ISZERO ISZERO EQ PUSH2 0xA2F JUMPI PUSH0 DUP1 REVERT JUMPDEST PUSH0 DUP2 PUSH1 0x40 MLOAD PUSH1 0x20 ADD PUSH2 0xA41 SWAP2 SWAP1 PUSH2 0x1E5B JUMP JUMPDEST PUSH1 0x40 MLOAD PUSH1 0x20 DUP2 DUP4 SUB SUB DUP2 MSTORE SWAP1 PUSH1 0x40 MSTORE PUSH2 0xA59 SWAP1 PUSH2 0x1EAA JUMP JUMPDEST SWAP1 POP PUSH0 DUP5 PUSH1 0x40 MLOAD PUSH1 0x20 ADD PUSH2 0xA6D SWAP2 SWAP1 PUSH2 0x1F30 JUMP JUMPDEST PUSH1 0x40 MLOAD PUSH1 0x20 DUP2 DUP4 SUB SUB DUP2 MSTORE SWAP1 PUSH1 0x40 MSTORE PUSH2 0xA85 SWAP1 PUSH2 0x1EAA JUMP JUMPDEST SWAP1 POP PUSH2 0xA91 DUP2 DUP4 PUSH2 0x1169 JUMP JUMPDEST DUP5 PUSH1 0x4 PUSH0 DUP7 DUP2 MSTORE PUSH1 0x20 ADD SWAP1 DUP2 MSTORE PUSH1 0x20 ADD PUSH0 KECCAK256 PUSH0 ADD DUP2 SWAP1 SSTORE POP PUSH1 0x6 PUSH0 DUP2 SLOAD DUP1 SWAP3 SWAP2 SWAP1 PUSH2 0xABB SWAP1 PUSH2 0x1C94 JUMP JUMPDEST SWAP2 SWAP1 POP SSTORE POP TIMESTAMP PUSH1 0x8 DUP2 SWAP1 SSTORE POP PUSH1 0x2 PUSH1 0x6 SLOAD SUB PUSH2 0xAE2 JUMPI PUSH2 0xAD9 PUSH2 0x150D JUMP JUMPDEST PUSH2 0xAE1 PUSH2 0x14EF JUMP JUMPDEST JUMPDEST POP POP POP POP POP JUMP JUMPDEST PUSH0 DUP1 SLOAD SWAP1 PUSH2 0x100 EXP SWAP1 DIV PUSH1 0xFF AND DUP2 JUMP JUMPDEST PUSH0 ISZERO ISZERO PUSH1 0x1 PUSH0 CALLER PUSH20 0xFFFFFFFFFFFFFFFFFFFFFFFFFFFFFFFFFFFFFFFF AND PUSH20 0xFFFFFFFFFFFFFFFFFFFFFFFFFFFFFFFFFFFFFFFF AND DUP2 MSTORE PUSH1 0x20 ADD SWAP1 DUP2 MSTORE PUSH1 0x20 ADD PUSH0 KECCAK256 PUSH1 0x1 ADD PUSH1 0x8 SWAP1 SLOAD SWAP1 PUSH2 0x100 EXP SWAP1 DIV PUSH1 0xFF AND ISZERO ISZERO EQ PUSH2 0xB8C JUMPI PUSH1 0x40 MLOAD PUSH32 0x8C379A000000000000000000000000000000000000000000000000000000000 DUP2 MSTORE PUSH1 0x4 ADD PUSH2 0xB83 SWAP1 PUSH2 0x1FCA JUMP JUMPDEST PUSH1 0x40 MLOAD DUP1 SWAP2 SUB SWAP1 REVERT JUMPDEST PUSH1 0x1 DUP1 PUSH0 CALLER PUSH20 0xFFFFFFFFFFFFFFFFFFFFFFFFFFFFFFFFFFFFFFFF AND PUSH20 0xFFFFFFFFFFFFFFFFFFFFFFFFFFFFFFFFFFFFFFFF AND DUP2 MSTORE PUSH1 0x20 ADD SWAP1 DUP2 MSTORE PUSH1 0x20 ADD PUSH0 KECCAK256 PUSH1 0x1 ADD PUSH1 0x8 PUSH2 0x100 EXP DUP2 SLOAD DUP2 PUSH1 0xFF MUL NOT AND SWAP1 DUP4 ISZERO ISZERO MUL OR SWAP1 SSTORE POP PUSH1 0x1 PUSH0 CALLER PUSH20 0xFFFFFFFFFFFFFFFFFFFFFFFFFFFFFFFFFFFFFFFF AND PUSH20 0xFFFFFFFFFFFFFFFFFFFFFFFFFFFFFFFFFFFFFFFF AND DUP2 MSTORE PUSH1 0x20 ADD SWAP1 DUP2 MSTORE PUSH1 0x20 ADD PUSH0 KECCAK256 PUSH0 ADD SLOAD PUSH2 0xC2D DUP3 PUSH2 0x591 JUMP JUMPDEST EQ PUSH2 0xC6D JUMPI PUSH1 0x40 MLOAD PUSH32 0x8C379A000000000000000000000000000000000000000000000000000000000 DUP2 MSTORE PUSH1 0x4 ADD PUSH2 0xC64 SWAP1 PUSH2 0x2058 JUMP JUMPDEST PUSH1 0x40 MLOAD DUP1 SWAP2 SUB SWAP1 REVERT JUMPDEST PUSH1 0x1 PUSH0 CALLER PUSH20 0xFFFFFFFFFFFFFFFFFFFFFFFFFFFFFFFFFFFFFFFF AND PUSH20 0xFFFFFFFFFFFFFFFFFFFFFFFFFFFFFFFFFFFFFFFF AND DUP2 MSTORE PUSH1 0x20 ADD SWAP1 DUP2 MSTORE PUSH1 0x20 ADD PUSH0 KECCAK256 PUSH1 0x1 ADD PUSH0 SWAP1 SLOAD SWAP1 PUSH2 0x100 EXP SWAP1 DIV PUSH8 0xFFFFFFFFFFFFFFFF AND PUSH8 0xFFFFFFFFFFFFFFFF AND NUMBER PUSH8 0xFFFFFFFFFFFFFFFF AND GT PUSH2 0xD16 JUMPI PUSH1 0x40 MLOAD PUSH32 0x8C379A000000000000000000000000000000000000000000000000000000000 DUP2 MSTORE PUSH1 0x4 ADD PUSH2 0xD0D SWAP1 PUSH2 0x210C JUMP JUMPDEST PUSH1 0x40 MLOAD DUP1 SWAP2 SUB SWAP1 REVERT JUMPDEST PUSH1 0xFA PUSH1 0x1 PUSH0 CALLER PUSH20 0xFFFFFFFFFFFFFFFFFFFFFFFFFFFFFFFFFFFFFFFF AND PUSH20 0xFFFFFFFFFFFFFFFFFFFFFFFFFFFFFFFFFFFFFFFF AND DUP2 MSTORE PUSH1 0x20 ADD SWAP1 DUP2 MSTORE PUSH1 0x20 ADD PUSH0 KECCAK256 PUSH1 0x1 ADD PUSH0 SWAP1 SLOAD SWAP1 PUSH2 0x100 EXP SWAP1 DIV PUSH8 0xFFFFFFFFFFFFFFFF AND PUSH2 0xD76 SWAP2 SWAP1 PUSH2 0x212A JUMP JUMPDEST PUSH8 0xFFFFFFFFFFFFFFFF AND NUMBER PUSH8 0xFFFFFFFFFFFFFFFF AND GT ISZERO PUSH2 0xDCC JUMPI PUSH1 0x40 MLOAD PUSH32 0x8C379A000000000000000000000000000000000000000000000000000000000 DUP2 MSTORE PUSH1 0x4 ADD PUSH2 0xDC3 SWAP1 PUSH2 0x21D5 JUMP JUMPDEST PUSH1 0x40 MLOAD DUP1 SWAP2 SUB SWAP1 REVERT JUMPDEST PUSH0 PUSH1 0x1 PUSH0 CALLER PUSH20 0xFFFFFFFFFFFFFFFFFFFFFFFFFFFFFFFFFFFFFFFF AND PUSH20 0xFFFFFFFFFFFFFFFFFFFFFFFFFFFFFFFFFFFFFFFF AND DUP2 MSTORE PUSH1 0x20 ADD SWAP1 DUP2 MSTORE PUSH1 0x20 ADD PUSH0 KECCAK256 PUSH1 0x1 ADD PUSH0 SWAP1 SLOAD SWAP1 PUSH2 0x100 EXP SWAP1 DIV PUSH8 0xFFFFFFFFFFFFFFFF AND PUSH8 0xFFFFFFFFFFFFFFFF AND BLOCKHASH SWAP1 POP PUSH0 DUP1 PUSH0 SWAP1 SLOAD SWAP1 PUSH2 0x100 EXP SWAP1 DIV PUSH1 0xFF AND PUSH1 0xFF AND DUP3 DUP5 PUSH1 0x40 MLOAD PUSH1 0x20 ADD PUSH2 0xE53 SWAP3 SWAP2 SWAP1 PUSH2 0x21F3 JUMP JUMPDEST PUSH1 0x40 MLOAD PUSH1 0x20 DUP2 DUP4 SUB SUB DUP2 MSTORE SWAP1 PUSH1 0x40 MSTORE DUP1 MLOAD SWAP1 PUSH1 0x20 ADD KECCAK256 PUSH0 SHR PUSH2 0xE75 SWAP2 SWAP1 PUSH2 0x221E JUMP JUMPDEST SWAP1 POP PUSH32 0xBC016DD1CADEAEFCB851AF7A0A93532E0023D536894B730801F7BCFE7065BCC2 CALLER DUP5 DUP4 PUSH1 0x40 MLOAD PUSH2 0xEAA SWAP4 SWAP3 SWAP2 SWAP1 PUSH2 0x224E JUMP JUMPDEST PUSH1 0x40 MLOAD DUP1 SWAP2 SUB SWAP1 LOG1 POP POP POP JUMP JUMPDEST PUSH1 0x1 PUSH1 0x20 MSTORE DUP1 PUSH0 MSTORE PUSH1 0x40 PUSH0 KECCAK256 PUSH0 SWAP2 POP SWAP1 POP DUP1 PUSH0 ADD SLOAD SWAP1 DUP1 PUSH1 0x1 ADD PUSH0 SWAP1 SLOAD SWAP1 PUSH2 0x100 EXP SWAP1 DIV PUSH8 0xFFFFFFFFFFFFFFFF AND SWAP1 DUP1 PUSH1 0x1 ADD PUSH1 0x8 SWAP1 SLOAD SWAP1 PUSH2 0x100 EXP SWAP1 DIV PUSH1 0xFF AND SWAP1 POP DUP4 JUMP JUMPDEST PUSH1 0x8 SLOAD DUP2 JUMP JUMPDEST PUSH0 ADDRESS DUP4 DUP4 PUSH1 0x40 MLOAD PUSH1 0x20 ADD PUSH2 0xF19 SWAP4 SWAP3 SWAP2 SWAP1 PUSH2 0x2283 JUMP JUMPDEST PUSH1 0x40 MLOAD PUSH1 0x20 DUP2 DUP4 SUB SUB DUP2 MSTORE SWAP1 PUSH1 0x40 MSTORE DUP1 MLOAD SWAP1 PUSH1 0x20 ADD KECCAK256 SWAP1 POP SWAP3 SWAP2 POP POP JUMP JUMPDEST PUSH1 0x2 SLOAD DUP2 JUMP JUMPDEST PUSH1 0x4 PUSH1 0x20 MSTORE DUP1 PUSH0 MSTORE PUSH1 0x40 PUSH0 KECCAK256 PUSH0 SWAP2 POP SWAP1 POP DUP1 PUSH0 ADD SLOAD SWAP1 DUP1 PUSH1 0x1 ADD PUSH0 SWAP1 SLOAD SWAP1 PUSH2 0x100 EXP SWAP1 DIV PUSH20 0xFFFFFFFFFFFFFFFFFFFFFFFFFFFFFFFFFFFFFFFF AND SWAP1 DUP1 PUSH1 0x1 ADD PUSH1 0x14 SWAP1 SLOAD SWAP1 PUSH2 0x100 EXP SWAP1 DIV PUSH1 0xFF AND SWAP1 POP DUP4 JUMP JUMPDEST PUSH1 0x7 SLOAD DUP2 JUMP JUMPDEST PUSH1 0x6 SLOAD DUP2 JUMP JUMPDEST PUSH0 DUP1 DUP4 LT ISZERO DUP1 ISZERO PUSH2 0xFAD JUMPI POP PUSH1 0x3 DUP4 GT ISZERO JUMPDEST PUSH2 0xFB5 JUMPI PUSH0 DUP1 REVERT JUMPDEST PUSH0 DUP3 PUSH1 0x40 MLOAD PUSH1 0x20 ADD PUSH2 0xFC7 SWAP2 SWAP1 PUSH2 0x1E5B JUMP JUMPDEST PUSH1 0x40 MLOAD PUSH1 0x20 DUP2 DUP4 SUB SUB DUP2 MSTORE SWAP1 PUSH1 0x40 MSTORE PUSH2 0xFDF SWAP1 PUSH2 0x1EAA JUMP JUMPDEST SWAP1 POP PUSH0 DUP5 PUSH1 0x40 MLOAD PUSH1 0x20 ADD PUSH2 0xFF3 SWAP2 SWAP1 PUSH2 0x1F30 JUMP JUMPDEST PUSH1 0x40 MLOAD PUSH1 0x20 DUP2 DUP4 SUB SUB DUP2 MSTORE SWAP1 PUSH1 0x40 MSTORE PUSH2 0x100B SWAP1 PUSH2 0x1EAA JUMP JUMPDEST SWAP1 POP PUSH2 0x1017 DUP2 DUP4 PUSH2 0xF03 JUMP JUMPDEST SWAP3 POP POP POP SWAP3 SWAP2 POP POP JUMP JUMPDEST PUSH1 0x2 DUP1 SLOAD EQ PUSH2 0x102E JUMPI PUSH0 DUP1 REVERT JUMPDEST PUSH1 0x2 PUSH1 0x5 SLOAD LT PUSH2 0x103C JUMPI PUSH0 DUP1 REVERT JUMPDEST PUSH1 0x4 PUSH0 DUP3 DUP2 MSTORE PUSH1 0x20 ADD SWAP1 DUP2 MSTORE PUSH1 0x20 ADD PUSH0 KECCAK256 PUSH1 0x1 ADD PUSH0 SWAP1 SLOAD SWAP1 PUSH2 0x100 EXP SWAP1 DIV PUSH20 0xFFFFFFFFFFFFFFFFFFFFFFFFFFFFFFFFFFFFFFFF AND PUSH20 0xFFFFFFFFFFFFFFFFFFFFFFFFFFFFFFFFFFFFFFFF AND CALLER PUSH20 0xFFFFFFFFFFFFFFFFFFFFFFFFFFFFFFFFFFFFFFFF AND EQ PUSH2 0x10A6 JUMPI PUSH0 DUP1 REVERT JUMPDEST PUSH0 ISZERO ISZERO PUSH1 0x4 PUSH0 DUP4 DUP2 MSTORE PUSH1 0x20 ADD SWAP1 DUP2 MSTORE PUSH1 0x20 ADD PUSH0 KECCAK256 PUSH1 0x1 ADD PUSH1 0x14 SWAP1 SLOAD SWAP1 PUSH2 0x100 EXP SWAP1 DIV PUSH1 0xFF AND ISZERO ISZERO EQ PUSH2 0x10D6 JUMPI PUSH0 DUP1 REVERT JUMPDEST PUSH1 0x1 PUSH1 0x4 PUSH0 DUP4 DUP2 MSTORE PUSH1 0x20 ADD SWAP1 DUP2 MSTORE PUSH1 0x20 ADD PUSH0 KECCAK256 PUSH1 0x1 ADD PUSH1 0x14 PUSH2 0x100 EXP DUP2 SLOAD DUP2 PUSH1 0xFF MUL NOT AND SWAP1 DUP4 ISZERO ISZERO MUL OR SWAP1 SSTORE POP PUSH2 0x110C DUP3 PUSH2 0x131D JUMP JUMPDEST PUSH1 0x5 PUSH0 DUP2 SLOAD DUP1 SWAP3 SWAP2 SWAP1 PUSH2 0x111E SWAP1 PUSH2 0x1C94 JUMP JUMPDEST SWAP2 SWAP1 POP SSTORE POP PUSH32 0x3928CC5ABCBB1C0B781BEBBC4F1E9B156F6D392796C791CC0937DB5E42677FF7 CALLER PUSH1 0x5 SLOAD PUSH1 0x40 MLOAD PUSH2 0x1156 SWAP3 SWAP2 SWAP1 PUSH2 0x1CDB JUMP JUMPDEST PUSH1 0x40 MLOAD DUP1 SWAP2 SUB SWAP1 LOG1 TIMESTAMP PUSH1 0x8 DUP2 SWAP1 SSTORE POP POP POP JUMP JUMPDEST PUSH0 ISZERO ISZERO PUSH1 0x1 PUSH0 CALLER PUSH20 0xFFFFFFFFFFFFFFFFFFFFFFFFFFFFFFFFFFFFFFFF AND PUSH20 0xFFFFFFFFFFFFFFFFFFFFFFFFFFFFFFFFFFFFFFFF AND DUP2 MSTORE PUSH1 0x20 ADD SWAP1 DUP2 MSTORE PUSH1 0x20 ADD PUSH0 KECCAK256 PUSH1 0x1 ADD PUSH1 0x8 SWAP1 SLOAD SWAP1 PUSH2 0x100 EXP SWAP1 DIV PUSH1 0xFF AND ISZERO ISZERO EQ PUSH2 0x11FC JUMPI PUSH1 0x40 MLOAD PUSH32 0x8C379A000000000000000000000000000000000000000000000000000000000 DUP2 MSTORE PUSH1 0x4 ADD PUSH2 0x11F3 SWAP1 PUSH2 0x232F JUMP JUMPDEST PUSH1 0x40 MLOAD DUP1 SWAP2 SUB SWAP1 REVERT JUMPDEST PUSH1 0x1 DUP1 PUSH0 CALLER PUSH20 0xFFFFFFFFFFFFFFFFFFFFFFFFFFFFFFFFFFFFFFFF AND PUSH20 0xFFFFFFFFFFFFFFFFFFFFFFFFFFFFFFFFFFFFFFFF AND DUP2 MSTORE PUSH1 0x20 ADD SWAP1 DUP2 MSTORE PUSH1 0x20 ADD PUSH0 KECCAK256 PUSH1 0x1 ADD PUSH1 0x8 PUSH2 0x100 EXP DUP2 SLOAD DUP2 PUSH1 0xFF MUL NOT AND SWAP1 DUP4 ISZERO ISZERO MUL OR SWAP1 SSTORE POP PUSH1 0x1 PUSH0 CALLER PUSH20 0xFFFFFFFFFFFFFFFFFFFFFFFFFFFFFFFFFFFFFFFF AND PUSH20 0xFFFFFFFFFFFFFFFFFFFFFFFFFFFFFFFFFFFFFFFF AND DUP2 MSTORE PUSH1 0x20 ADD SWAP1 DUP2 MSTORE PUSH1 0x20 ADD PUSH0 KECCAK256 PUSH0 ADD SLOAD PUSH2 0x129E DUP4 DUP4 PUSH2 0xF03 JUMP JUMPDEST EQ PUSH2 0x12DE JUMPI PUSH1 0x40 MLOAD PUSH32 0x8C379A000000000000000000000000000000000000000000000000000000000 DUP2 MSTORE PUSH1 0x4 ADD PUSH2 0x12D5 SWAP1 PUSH2 0x23BD JUMP JUMPDEST PUSH1 0x40 MLOAD DUP1 SWAP2 SUB SWAP1 REVERT JUMPDEST PUSH32 0x8BED02C4D61E56ED1D90657E7A0BA48F15CCA20FCC2899D7235221B2CB0423A6 CALLER DUP4 DUP4 PUSH1 0x40 MLOAD PUSH2 0x1311 SWAP4 SWAP3 SWAP2 SWAP1 PUSH2 0x23DB JUMP JUMPDEST PUSH1 0x40 MLOAD DUP1 SWAP2 SUB SWAP1 LOG1 POP POP JUMP JUMPDEST DUP1 PUSH1 0x1 PUSH0 CALLER PUSH20 0xFFFFFFFFFFFFFFFFFFFFFFFFFFFFFFFFFFFFFFFF AND PUSH20 0xFFFFFFFFFFFFFFFFFFFFFFFFFFFFFFFFFFFFFFFF AND DUP2 MSTORE PUSH1 0x20 ADD SWAP1 DUP2 MSTORE PUSH1 0x20 ADD PUSH0 KECCAK256 PUSH0 ADD DUP2 SWAP1 SSTORE POP NUMBER PUSH1 0x1 PUSH0 CALLER PUSH20 0xFFFFFFFFFFFFFFFFFFFFFFFFFFFFFFFFFFFFFFFF AND PUSH20 0xFFFFFFFFFFFFFFFFFFFFFFFFFFFFFFFFFFFFFFFF AND DUP2 MSTORE PUSH1 0x20 ADD SWAP1 DUP2 MSTORE PUSH1 0x20 ADD PUSH0 KECCAK256 PUSH1 0x1 ADD PUSH0 PUSH2 0x100 EXP DUP2 SLOAD DUP2 PUSH8 0xFFFFFFFFFFFFFFFF MUL NOT AND SWAP1 DUP4 PUSH8 0xFFFFFFFFFFFFFFFF AND MUL OR SWAP1 SSTORE POP PUSH0 PUSH1 0x1 PUSH0 CALLER PUSH20 0xFFFFFFFFFFFFFFFFFFFFFFFFFFFFFFFFFFFFFFFF AND PUSH20 0xFFFFFFFFFFFFFFFFFFFFFFFFFFFFFFFFFFFFFFFF AND DUP2 MSTORE PUSH1 0x20 ADD SWAP1 DUP2 MSTORE PUSH1 0x20 ADD PUSH0 KECCAK256 PUSH1 0x1 ADD PUSH1 0x8 PUSH2 0x100 EXP DUP2 SLOAD DUP2 PUSH1 0xFF MUL NOT AND SWAP1 DUP4 ISZERO ISZERO MUL OR SWAP1 SSTORE POP PUSH32 0x3C1A1F8F38335B17F751C6DA4BA7D1865F26B3997535176F5080DE9FAD891603 CALLER PUSH1 0x1 PUSH0 CALLER PUSH20 0xFFFFFFFFFFFFFFFFFFFFFFFFFFFFFFFFFFFFFFFF AND PUSH20 0xFFFFFFFFFFFFFFFFFFFFFFFFFFFFFFFFFFFFFFFF AND DUP2 MSTORE PUSH1 0x20 ADD SWAP1 DUP2 MSTORE PUSH1 0x20 ADD PUSH0 KECCAK256 PUSH0 ADD SLOAD PUSH1 0x1 PUSH0 CALLER PUSH20 0xFFFFFFFFFFFFFFFFFFFFFFFFFFFFFFFFFFFFFFFF AND PUSH20 0xFFFFFFFFFFFFFFFFFFFFFFFFFFFFFFFFFFFFFFFF AND DUP2 MSTORE PUSH1 0x20 ADD SWAP1 DUP2 MSTORE PUSH1 0x20 ADD PUSH0 KECCAK256 PUSH1 0x1 ADD PUSH0 SWAP1 SLOAD SWAP1 PUSH2 0x100 EXP SWAP1 DIV PUSH8 0xFFFFFFFFFFFFFFFF AND PUSH1 0x40 MLOAD PUSH2 0x14E4 SWAP4 SWAP3 SWAP2 SWAP1 PUSH2 0x2410 JUMP JUMPDEST PUSH1 0x40 MLOAD DUP1 SWAP2 SUB SWAP1 LOG1 POP JUMP JUMPDEST PUSH0 PUSH1 0x2 DUP2 SWAP1 SSTORE POP PUSH0 PUSH1 0x3 DUP2 SWAP1 SSTORE POP PUSH0 PUSH1 0x5 DUP2 SWAP1 SSTORE POP PUSH0 PUSH1 0x6 DUP2 SWAP1 SSTORE POP JUMP JUMPDEST PUSH0 PUSH1 0x4 PUSH0 DUP1 DUP2 MSTORE PUSH1 0x20 ADD SWAP1 DUP2 MSTORE PUSH1 0x20 ADD PUSH0 KECCAK256 PUSH0 ADD SLOAD SWAP1 POP PUSH0 PUSH1 0x4 PUSH0 PUSH1 0x1 DUP2 MSTORE PUSH1 0x20 ADD SWAP1 DUP2 MSTORE PUSH1 0x20 ADD PUSH0 KECCAK256 PUSH0 ADD SLOAD SWAP1 POP PUSH0 PUSH1 0x4 PUSH0 DUP1 DUP2 MSTORE PUSH1 0x20 ADD SWAP1 DUP2 MSTORE PUSH1 0x20 ADD PUSH0 KECCAK256 PUSH1 0x1 ADD PUSH0 SWAP1 SLOAD SWAP1 PUSH2 0x100 EXP SWAP1 DIV PUSH20 0xFFFFFFFFFFFFFFFFFFFFFFFFFFFFFFFFFFFFFFFF AND SWAP1 POP PUSH0 PUSH1 0x4 PUSH0 PUSH1 0x1 DUP2 MSTORE PUSH1 0x20 ADD SWAP1 DUP2 MSTORE PUSH1 0x20 ADD PUSH0 KECCAK256 PUSH1 0x1 ADD PUSH0 SWAP1 SLOAD SWAP1 PUSH2 0x100 EXP SWAP1 DIV PUSH20 0xFFFFFFFFFFFFFFFFFFFFFFFFFFFFFFFFFFFFFFFF AND SWAP1 POP DUP3 PUSH1 0x3 PUSH1 0x1 DUP7 PUSH2 0x15BB SWAP2 SWAP1 PUSH2 0x1C61 JUMP JUMPDEST PUSH2 0x15C5 SWAP2 SWAP1 PUSH2 0x221E JUMP JUMPDEST SUB PUSH2 0x1615 JUMPI DUP1 PUSH20 0xFFFFFFFFFFFFFFFFFFFFFFFFFFFFFFFFFFFFFFFF AND PUSH2 0x8FC PUSH1 0x3 SLOAD SWAP1 DUP2 ISZERO MUL SWAP1 PUSH1 0x40 MLOAD PUSH0 PUSH1 0x40 MLOAD DUP1 DUP4 SUB DUP2 DUP6 DUP9 DUP9 CALL SWAP4 POP POP POP POP ISZERO DUP1 ISZERO PUSH2 0x160F JUMPI RETURNDATASIZE PUSH0 DUP1 RETURNDATACOPY RETURNDATASIZE PUSH0 REVERT JUMPDEST POP PUSH2 0x1725 JUMP JUMPDEST DUP4 PUSH1 0x3 PUSH1 0x1 DUP6 PUSH2 0x1625 SWAP2 SWAP1 PUSH2 0x1C61 JUMP JUMPDEST PUSH2 0x162F SWAP2 SWAP1 PUSH2 0x221E JUMP JUMPDEST SUB PUSH2 0x167F JUMPI DUP2 PUSH20 0xFFFFFFFFFFFFFFFFFFFFFFFFFFFFFFFFFFFFFFFF AND PUSH2 0x8FC PUSH1 0x3 SLOAD SWAP1 DUP2 ISZERO MUL SWAP1 PUSH1 0x40 MLOAD PUSH0 PUSH1 0x40 MLOAD DUP1 DUP4 SUB DUP2 DUP6 DUP9 DUP9 CALL SWAP4 POP POP POP POP ISZERO DUP1 ISZERO PUSH2 0x1679 JUMPI RETURNDATASIZE PUSH0 DUP1 RETURNDATACOPY RETURNDATASIZE PUSH0 REVERT JUMPDEST POP PUSH2 0x1724 JUMP JUMPDEST DUP2 PUSH20 0xFFFFFFFFFFFFFFFFFFFFFFFFFFFFFFFFFFFFFFFF AND PUSH2 0x8FC PUSH1 0x2 PUSH1 0x3 SLOAD PUSH2 0x16A8 SWAP2 SWAP1 PUSH2 0x1DBF JUMP JUMPDEST SWAP1 DUP2 ISZERO MUL SWAP1 PUSH1 0x40 MLOAD PUSH0 PUSH1 0x40 MLOAD DUP1 DUP4 SUB DUP2 DUP6 DUP9 DUP9 CALL SWAP4 POP POP POP POP ISZERO DUP1 ISZERO PUSH2 0x16D0 JUMPI RETURNDATASIZE PUSH0 DUP1 RETURNDATACOPY RETURNDATASIZE PUSH0 REVERT JUMPDEST POP DUP1 PUSH20 0xFFFFFFFFFFFFFFFFFFFFFFFFFFFFFFFFFFFFFFFF AND PUSH2 0x8FC PUSH1 0x2 PUSH1 0x3 SLOAD PUSH2 0x16FA SWAP2 SWAP1 PUSH2 0x1DBF JUMP JUMPDEST SWAP1 DUP2 ISZERO MUL SWAP1 PUSH1 0x40 MLOAD PUSH0 PUSH1 0x40 MLOAD DUP1 DUP4 SUB DUP2 DUP6 DUP9 DUP9 CALL SWAP4 POP POP POP POP ISZERO DUP1 ISZERO PUSH2 0x1722 JUMPI RETURNDATASIZE PUSH0 DUP1 RETURNDATACOPY RETURNDATASIZE PUSH0 REVERT JUMPDEST POP JUMPDEST JUMPDEST POP POP POP POP JUMP JUMPDEST PUSH0 DUP2 SWAP1 POP SWAP2 SWAP1 POP JUMP JUMPDEST PUSH2 0x173D DUP2 PUSH2 0x172B JUMP JUMPDEST DUP3 MSTORE POP POP JUMP JUMPDEST PUSH0 PUSH1 0x20 DUP3 ADD SWAP1 POP PUSH2 0x1756 PUSH0 DUP4 ADD DUP5 PUSH2 0x1734 JUMP JUMPDEST SWAP3 SWAP2 POP POP JUMP JUMPDEST PUSH0 PUSH1 0x40 MLOAD SWAP1 POP SWAP1 JUMP JUMPDEST PUSH0 DUP1 REVERT JUMPDEST PUSH0 DUP1 REVERT JUMPDEST PUSH0 DUP2 SWAP1 POP SWAP2 SWAP1 POP JUMP JUMPDEST PUSH2 0x177F DUP2 PUSH2 0x176D JUMP JUMPDEST DUP2 EQ PUSH2 0x1789 JUMPI PUSH0 DUP1 REVERT JUMPDEST POP JUMP JUMPDEST PUSH0 DUP2 CALLDATALOAD SWAP1 POP PUSH2 0x179A DUP2 PUSH2 0x1776 JUMP JUMPDEST SWAP3 SWAP2 POP POP JUMP JUMPDEST PUSH0 PUSH1 0x20 DUP3 DUP5 SUB SLT ISZERO PUSH2 0x17B5 JUMPI PUSH2 0x17B4 PUSH2 0x1765 JUMP JUMPDEST JUMPDEST PUSH0 PUSH2 0x17C2 DUP5 DUP3 DUP6 ADD PUSH2 0x178C JUMP JUMPDEST SWAP2 POP POP SWAP3 SWAP2 POP POP JUMP JUMPDEST PUSH2 0x17D4 DUP2 PUSH2 0x176D JUMP JUMPDEST DUP3 MSTORE POP POP JUMP JUMPDEST PUSH0 PUSH1 0x20 DUP3 ADD SWAP1 POP PUSH2 0x17ED PUSH0 DUP4 ADD DUP5 PUSH2 0x17CB JUMP JUMPDEST SWAP3 SWAP2 POP POP JUMP JUMPDEST PUSH2 0x17FC DUP2 PUSH2 0x172B JUMP JUMPDEST DUP2 EQ PUSH2 0x1806 JUMPI PUSH0 DUP1 REVERT JUMPDEST POP JUMP JUMPDEST PUSH0 DUP2 CALLDATALOAD SWAP1 POP PUSH2 0x1817 DUP2 PUSH2 0x17F3 JUMP JUMPDEST SWAP3 SWAP2 POP POP JUMP JUMPDEST PUSH0 DUP1 REVERT JUMPDEST PUSH0 DUP1 REVERT JUMPDEST PUSH0 PUSH1 0x1F NOT PUSH1 0x1F DUP4 ADD AND SWAP1 POP SWAP2 SWAP1 POP JUMP JUMPDEST PUSH32 0x4E487B7100000000000000000000000000000000000000000000000000000000 PUSH0 MSTORE PUSH1 0x41 PUSH1 0x4 MSTORE PUSH1 0x24 PUSH0 REVERT JUMPDEST PUSH2 0x186B DUP3 PUSH2 0x1825 JUMP JUMPDEST DUP2 ADD DUP2 DUP2 LT PUSH8 0xFFFFFFFFFFFFFFFF DUP3 GT OR ISZERO PUSH2 0x188A JUMPI PUSH2 0x1889 PUSH2 0x1835 JUMP JUMPDEST JUMPDEST DUP1 PUSH1 0x40 MSTORE POP POP POP JUMP JUMPDEST PUSH0 PUSH2 0x189C PUSH2 0x175C JUMP JUMPDEST SWAP1 POP PUSH2 0x18A8 DUP3 DUP3 PUSH2 0x1862 JUMP JUMPDEST SWAP2 SWAP1 POP JUMP JUMPDEST PUSH0 PUSH8 0xFFFFFFFFFFFFFFFF DUP3 GT ISZERO PUSH2 0x18C7 JUMPI PUSH2 0x18C6 PUSH2 0x1835 JUMP JUMPDEST JUMPDEST PUSH2 0x18D0 DUP3 PUSH2 0x1825 JUMP JUMPDEST SWAP1 POP PUSH1 0x20 DUP2 ADD SWAP1 POP SWAP2 SWAP1 POP JUMP JUMPDEST DUP3 DUP2 DUP4 CALLDATACOPY PUSH0 DUP4 DUP4 ADD MSTORE POP POP POP JUMP JUMPDEST PUSH0 PUSH2 0x18FD PUSH2 0x18F8 DUP5 PUSH2 0x18AD JUMP JUMPDEST PUSH2 0x1893 JUMP JUMPDEST SWAP1 POP DUP3 DUP2 MSTORE PUSH1 0x20 DUP2 ADD DUP5 DUP5 DUP5 ADD GT ISZERO PUSH2 0x1919 JUMPI PUSH2 0x1918 PUSH2 0x1821 JUMP JUMPDEST JUMPDEST PUSH2 0x1924 DUP5 DUP3 DUP6 PUSH2 0x18DD JUMP JUMPDEST POP SWAP4 SWAP3 POP POP POP JUMP JUMPDEST PUSH0 DUP3 PUSH1 0x1F DUP4 ADD SLT PUSH2 0x1940 JUMPI PUSH2 0x193F PUSH2 0x181D JUMP JUMPDEST JUMPDEST DUP2 CALLDATALOAD PUSH2 0x1950 DUP5 DUP3 PUSH1 0x20 DUP7 ADD PUSH2 0x18EB JUMP JUMPDEST SWAP2 POP POP SWAP3 SWAP2 POP POP JUMP JUMPDEST PUSH0 DUP1 PUSH0 PUSH1 0x60 DUP5 DUP7 SUB SLT ISZERO PUSH2 0x1970 JUMPI PUSH2 0x196F PUSH2 0x1765 JUMP JUMPDEST JUMPDEST PUSH0 PUSH2 0x197D DUP7 DUP3 DUP8 ADD PUSH2 0x1809 JUMP JUMPDEST SWAP4 POP POP PUSH1 0x20 PUSH2 0x198E DUP7 DUP3 DUP8 ADD PUSH2 0x1809 JUMP JUMPDEST SWAP3 POP POP PUSH1 0x40 DUP5 ADD CALLDATALOAD PUSH8 0xFFFFFFFFFFFFFFFF DUP2 GT ISZERO PUSH2 0x19AF JUMPI PUSH2 0x19AE PUSH2 0x1769 JUMP JUMPDEST JUMPDEST PUSH2 0x19BB DUP7 DUP3 DUP8 ADD PUSH2 0x192C JUMP JUMPDEST SWAP2 POP POP SWAP3 POP SWAP3 POP SWAP3 JUMP JUMPDEST PUSH0 PUSH1 0xFF DUP3 AND SWAP1 POP SWAP2 SWAP1 POP JUMP JUMPDEST PUSH2 0x19DA DUP2 PUSH2 0x19C5 JUMP JUMPDEST DUP3 MSTORE POP POP JUMP JUMPDEST PUSH0 PUSH1 0x20 DUP3 ADD SWAP1 POP PUSH2 0x19F3 PUSH0 DUP4 ADD DUP5 PUSH2 0x19D1 JUMP JUMPDEST SWAP3 SWAP2 POP POP JUMP JUMPDEST PUSH0 PUSH20 0xFFFFFFFFFFFFFFFFFFFFFFFFFFFFFFFFFFFFFFFF DUP3 AND SWAP1 POP SWAP2 SWAP1 POP JUMP JUMPDEST PUSH0 PUSH2 0x1A22 DUP3 PUSH2 0x19F9 JUMP JUMPDEST SWAP1 POP SWAP2 SWAP1 POP JUMP JUMPDEST PUSH2 0x1A32 DUP2 PUSH2 0x1A18 JUMP JUMPDEST DUP2 EQ PUSH2 0x1A3C JUMPI PUSH0 DUP1 REVERT JUMPDEST POP JUMP JUMPDEST PUSH0 DUP2 CALLDATALOAD SWAP1 POP PUSH2 0x1A4D DUP2 PUSH2 0x1A29 JUMP JUMPDEST SWAP3 SWAP2 POP POP JUMP JUMPDEST PUSH0 PUSH1 0x20 DUP3 DUP5 SUB SLT ISZERO PUSH2 0x1A68 JUMPI PUSH2 0x1A67 PUSH2 0x1765 JUMP JUMPDEST JUMPDEST PUSH0 PUSH2 0x1A75 DUP5 DUP3 DUP6 ADD PUSH2 0x1A3F JUMP JUMPDEST SWAP2 POP POP SWAP3 SWAP2 POP POP JUMP JUMPDEST PUSH0 PUSH8 0xFFFFFFFFFFFFFFFF DUP3 AND SWAP1 POP SWAP2 SWAP1 POP JUMP JUMPDEST PUSH2 0x1A9A DUP2 PUSH2 0x1A7E JUMP JUMPDEST DUP3 MSTORE POP POP JUMP JUMPDEST PUSH0 DUP2 ISZERO ISZERO SWAP1 POP SWAP2 SWAP1 POP JUMP JUMPDEST PUSH2 0x1AB4 DUP2 PUSH2 0x1AA0 JUMP JUMPDEST DUP3 MSTORE POP POP JUMP JUMPDEST PUSH0 PUSH1 0x60 DUP3 ADD SWAP1 POP PUSH2 0x1ACD PUSH0 DUP4 ADD DUP7 PUSH2 0x17CB JUMP JUMPDEST PUSH2 0x1ADA PUSH1 0x20 DUP4 ADD DUP6 PUSH2 0x1A91 JUMP JUMPDEST PUSH2 0x1AE7 PUSH1 0x40 DUP4 ADD DUP5 PUSH2 0x1AAB JUMP JUMPDEST SWAP5 SWAP4 POP POP POP POP JUMP JUMPDEST PUSH0 DUP1 PUSH1 0x40 DUP4 DUP6 SUB SLT ISZERO PUSH2 0x1B05 JUMPI PUSH2 0x1B04 PUSH2 0x1765 JUMP JUMPDEST JUMPDEST PUSH0 PUSH2 0x1B12 DUP6 DUP3 DUP7 ADD PUSH2 0x178C JUMP JUMPDEST SWAP3 POP POP PUSH1 0x20 PUSH2 0x1B23 DUP6 DUP3 DUP7 ADD PUSH2 0x178C JUMP JUMPDEST SWAP2 POP POP SWAP3 POP SWAP3 SWAP1 POP JUMP JUMPDEST PUSH0 PUSH1 0x20 DUP3 DUP5 SUB SLT ISZERO PUSH2 0x1B42 JUMPI PUSH2 0x1B41 PUSH2 0x1765 JUMP JUMPDEST JUMPDEST PUSH0 PUSH2 0x1B4F DUP5 DUP3 DUP6 ADD PUSH2 0x1809 JUMP JUMPDEST SWAP2 POP POP SWAP3 SWAP2 POP POP JUMP JUMPDEST PUSH2 0x1B61 DUP2 PUSH2 0x1A18 JUMP JUMPDEST DUP3 MSTORE POP POP JUMP JUMPDEST PUSH0 PUSH1 0x60 DUP3 ADD SWAP1 POP PUSH2 0x1B7A PUSH0 DUP4 ADD DUP7 PUSH2 0x1734 JUMP JUMPDEST PUSH2 0x1B87 PUSH1 0x20 DUP4 ADD DUP6 PUSH2 0x1B58 JUMP JUMPDEST PUSH2 0x1B94 PUSH1 0x40 DUP4 ADD DUP5 PUSH2 0x1AAB JUMP JUMPDEST SWAP5 SWAP4 POP POP POP POP JUMP JUMPDEST PUSH0 DUP1 PUSH1 0x40 DUP4 DUP6 SUB SLT ISZERO PUSH2 0x1BB2 JUMPI PUSH2 0x1BB1 PUSH2 0x1765 JUMP JUMPDEST JUMPDEST PUSH0 PUSH2 0x1BBF DUP6 DUP3 DUP7 ADD PUSH2 0x1809 JUMP JUMPDEST SWAP3 POP POP PUSH1 0x20 DUP4 ADD CALLDATALOAD PUSH8 0xFFFFFFFFFFFFFFFF DUP2 GT ISZERO PUSH2 0x1BE0 JUMPI PUSH2 0x1BDF PUSH2 0x1769 JUMP JUMPDEST JUMPDEST PUSH2 0x1BEC DUP6 DUP3 DUP7 ADD PUSH2 0x192C JUMP JUMPDEST SWAP2 POP POP SWAP3 POP SWAP3 SWAP1 POP JUMP JUMPDEST PUSH0 DUP1 PUSH1 0x40 DUP4 DUP6 SUB SLT ISZERO PUSH2 0x1C0C JUMPI PUSH2 0x1C0B PUSH2 0x1765 JUMP JUMPDEST JUMPDEST PUSH0 PUSH2 0x1C19 DUP6 DUP3 DUP7 ADD PUSH2 0x178C JUMP JUMPDEST SWAP3 POP POP PUSH1 0x20 PUSH2 0x1C2A DUP6 DUP3 DUP7 ADD PUSH2 0x1809 JUMP JUMPDEST SWAP2 POP POP SWAP3 POP SWAP3 SWAP1 POP JUMP JUMPDEST PUSH32 0x4E487B7100000000000000000000000000000000000000000000000000000000 PUSH0 MSTORE PUSH1 0x11 PUSH1 0x4 MSTORE PUSH1 0x24 PUSH0 REVERT JUMPDEST PUSH0 PUSH2 0x1C6B DUP3 PUSH2 0x172B JUMP JUMPDEST SWAP2 POP PUSH2 0x1C76 DUP4 PUSH2 0x172B JUMP JUMPDEST SWAP3 POP DUP3 DUP3 ADD SWAP1 POP DUP1 DUP3 GT ISZERO PUSH2 0x1C8E JUMPI PUSH2 0x1C8D PUSH2 0x1C34 JUMP JUMPDEST JUMPDEST SWAP3 SWAP2 POP POP JUMP JUMPDEST PUSH0 PUSH2 0x1C9E DUP3 PUSH2 0x172B JUMP JUMPDEST SWAP2 POP PUSH32 0xFFFFFFFFFFFFFFFFFFFFFFFFFFFFFFFFFFFFFFFFFFFFFFFFFFFFFFFFFFFFFFFF DUP3 SUB PUSH2 0x1CD0 JUMPI PUSH2 0x1CCF PUSH2 0x1C34 JUMP JUMPDEST JUMPDEST PUSH1 0x1 DUP3 ADD SWAP1 POP SWAP2 SWAP1 POP JUMP JUMPDEST PUSH0 PUSH1 0x40 DUP3 ADD SWAP1 POP PUSH2 0x1CEE PUSH0 DUP4 ADD DUP6 PUSH2 0x1B58 JUMP JUMPDEST PUSH2 0x1CFB PUSH1 0x20 DUP4 ADD DUP5 PUSH2 0x1734 JUMP JUMPDEST SWAP4 SWAP3 POP POP POP JUMP JUMPDEST PUSH0 DUP2 PUSH1 0x60 SHL SWAP1 POP SWAP2 SWAP1 POP JUMP JUMPDEST PUSH0 PUSH2 0x1D18 DUP3 PUSH2 0x1D02 JUMP JUMPDEST SWAP1 POP SWAP2 SWAP1 POP JUMP JUMPDEST PUSH0 PUSH2 0x1D29 DUP3 PUSH2 0x1D0E JUMP JUMPDEST SWAP1 POP SWAP2 SWAP1 POP JUMP JUMPDEST PUSH2 0x1D41 PUSH2 0x1D3C DUP3 PUSH2 0x1A18 JUMP JUMPDEST PUSH2 0x1D1F JUMP JUMPDEST DUP3 MSTORE POP POP JUMP JUMPDEST PUSH0 DUP2 SWAP1 POP SWAP2 SWAP1 POP JUMP JUMPDEST PUSH2 0x1D61 PUSH2 0x1D5C DUP3 PUSH2 0x176D JUMP JUMPDEST PUSH2 0x1D47 JUMP JUMPDEST DUP3 MSTORE POP POP JUMP JUMPDEST PUSH0 PUSH2 0x1D72 DUP3 DUP6 PUSH2 0x1D30 JUMP JUMPDEST PUSH1 0x14 DUP3 ADD SWAP2 POP PUSH2 0x1D82 DUP3 DUP5 PUSH2 0x1D50 JUMP JUMPDEST PUSH1 0x20 DUP3 ADD SWAP2 POP DUP2 SWAP1 POP SWAP4 SWAP3 POP POP POP JUMP JUMPDEST PUSH32 0x4E487B7100000000000000000000000000000000000000000000000000000000 PUSH0 MSTORE PUSH1 0x12 PUSH1 0x4 MSTORE PUSH1 0x24 PUSH0 REVERT JUMPDEST PUSH0 PUSH2 0x1DC9 DUP3 PUSH2 0x172B JUMP JUMPDEST SWAP2 POP PUSH2 0x1DD4 DUP4 PUSH2 0x172B JUMP JUMPDEST SWAP3 POP DUP3 PUSH2 0x1DE4 JUMPI PUSH2 0x1DE3 PUSH2 0x1D92 JUMP JUMPDEST JUMPDEST DUP3 DUP3 DIV SWAP1 POP SWAP3 SWAP2 POP POP JUMP JUMPDEST PUSH0 DUP2 MLOAD SWAP1 POP SWAP2 SWAP1 POP JUMP JUMPDEST PUSH0 DUP2 SWAP1 POP SWAP3 SWAP2 POP POP JUMP JUMPDEST PUSH0 JUMPDEST DUP4 DUP2 LT ISZERO PUSH2 0x1E20 JUMPI DUP1 DUP3 ADD MLOAD DUP2 DUP5 ADD MSTORE PUSH1 0x20 DUP2 ADD SWAP1 POP PUSH2 0x1E05 JUMP JUMPDEST PUSH0 DUP5 DUP5 ADD MSTORE POP POP POP POP JUMP JUMPDEST PUSH0 PUSH2 0x1E35 DUP3 PUSH2 0x1DEF JUMP JUMPDEST PUSH2 0x1E3F DUP2 DUP6 PUSH2 0x1DF9 JUMP JUMPDEST SWAP4 POP PUSH2 0x1E4F DUP2 DUP6 PUSH1 0x20 DUP7 ADD PUSH2 0x1E03 JUMP JUMPDEST DUP1 DUP5 ADD SWAP2 POP POP SWAP3 SWAP2 POP POP JUMP JUMPDEST PUSH0 PUSH2 0x1E66 DUP3 DUP5 PUSH2 0x1E2B JUMP JUMPDEST SWAP2 POP DUP2 SWAP1 POP SWAP3 SWAP2 POP POP JUMP JUMPDEST PUSH0 DUP2 MLOAD SWAP1 POP SWAP2 SWAP1 POP JUMP JUMPDEST PUSH0 DUP2 SWAP1 POP PUSH1 0x20 DUP3 ADD SWAP1 POP SWAP2 SWAP1 POP JUMP JUMPDEST PUSH0 PUSH2 0x1E95 DUP3 MLOAD PUSH2 0x176D JUMP JUMPDEST DUP1 SWAP2 POP POP SWAP2 SWAP1 POP JUMP JUMPDEST PUSH0 DUP3 DUP3 SHL SWAP1 POP SWAP3 SWAP2 POP POP JUMP JUMPDEST PUSH0 PUSH2 0x1EB4 DUP3 PUSH2 0x1E71 JUMP JUMPDEST DUP3 PUSH2 0x1EBE DUP5 PUSH2 0x1E7B JUMP JUMPDEST SWAP1 POP PUSH2 0x1EC9 DUP2 PUSH2 0x1E8A JUMP JUMPDEST SWAP3 POP PUSH1 0x20 DUP3 LT ISZERO PUSH2 0x1F09 JUMPI PUSH2 0x1F04 PUSH32 0xFFFFFFFFFFFFFFFFFFFFFFFFFFFFFFFFFFFFFFFFFFFFFFFFFFFFFFFFFFFFFFFF DUP4 PUSH1 0x20 SUB PUSH1 0x8 MUL PUSH2 0x1E9E JUMP JUMPDEST DUP4 AND SWAP3 POP JUMPDEST POP POP SWAP2 SWAP1 POP JUMP JUMPDEST PUSH0 DUP2 SWAP1 POP SWAP2 SWAP1 POP JUMP JUMPDEST PUSH2 0x1F2A PUSH2 0x1F25 DUP3 PUSH2 0x172B JUMP JUMPDEST PUSH2 0x1F10 JUMP JUMPDEST DUP3 MSTORE POP POP JUMP JUMPDEST PUSH0 PUSH2 0x1F3B DUP3 DUP5 PUSH2 0x1F19 JUMP JUMPDEST PUSH1 0x20 DUP3 ADD SWAP2 POP DUP2 SWAP1 POP SWAP3 SWAP2 POP POP JUMP JUMPDEST PUSH0 DUP3 DUP3 MSTORE PUSH1 0x20 DUP3 ADD SWAP1 POP SWAP3 SWAP2 POP POP JUMP JUMPDEST PUSH32 0x436F6D6D697452657665616C3A3A72657665616C3A20416C7265616479207265 PUSH0 DUP3 ADD MSTORE PUSH32 0x7665616C65640000000000000000000000000000000000000000000000000000 PUSH1 0x20 DUP3 ADD MSTORE POP JUMP JUMPDEST PUSH0 PUSH2 0x1FB4 PUSH1 0x26 DUP4 PUSH2 0x1F4A JUMP JUMPDEST SWAP2 POP PUSH2 0x1FBF DUP3 PUSH2 0x1F5A JUMP JUMPDEST PUSH1 0x40 DUP3 ADD SWAP1 POP SWAP2 SWAP1 POP JUMP JUMPDEST PUSH0 PUSH1 0x20 DUP3 ADD SWAP1 POP DUP2 DUP2 SUB PUSH0 DUP4 ADD MSTORE PUSH2 0x1FE1 DUP2 PUSH2 0x1FA8 JUMP JUMPDEST SWAP1 POP SWAP2 SWAP1 POP JUMP JUMPDEST PUSH32 0x436F6D6D697452657665616C3A3A72657665616C3A2052657665616C65642068 PUSH0 DUP3 ADD MSTORE PUSH32 0x61736820646F6573206E6F74206D6174636820636F6D6D697400000000000000 PUSH1 0x20 DUP3 ADD MSTORE POP JUMP JUMPDEST PUSH0 PUSH2 0x2042 PUSH1 0x39 DUP4 PUSH2 0x1F4A JUMP JUMPDEST SWAP2 POP PUSH2 0x204D DUP3 PUSH2 0x1FE8 JUMP JUMPDEST PUSH1 0x40 DUP3 ADD SWAP1 POP SWAP2 SWAP1 POP JUMP JUMPDEST PUSH0 PUSH1 0x20 DUP3 ADD SWAP1 POP DUP2 DUP2 SUB PUSH0 DUP4 ADD MSTORE PUSH2 0x206F DUP2 PUSH2 0x2036 JUMP JUMPDEST SWAP1 POP SWAP2 SWAP1 POP JUMP JUMPDEST PUSH32 0x436F6D6D697452657665616C3A3A72657665616C3A2052657665616C20616E64 PUSH0 DUP3 ADD MSTORE PUSH32 0x20636F6D6D69742068617070656E6564206F6E207468652073616D6520626C6F PUSH1 0x20 DUP3 ADD MSTORE PUSH32 0x636B000000000000000000000000000000000000000000000000000000000000 PUSH1 0x40 DUP3 ADD MSTORE POP JUMP JUMPDEST PUSH0 PUSH2 0x20F6 PUSH1 0x42 DUP4 PUSH2 0x1F4A JUMP JUMPDEST SWAP2 POP PUSH2 0x2101 DUP3 PUSH2 0x2076 JUMP JUMPDEST PUSH1 0x60 DUP3 ADD SWAP1 POP SWAP2 SWAP1 POP JUMP JUMPDEST PUSH0 PUSH1 0x20 DUP3 ADD SWAP1 POP DUP2 DUP2 SUB PUSH0 DUP4 ADD MSTORE PUSH2 0x2123 DUP2 PUSH2 0x20EA JUMP JUMPDEST SWAP1 POP SWAP2 SWAP1 POP JUMP JUMPDEST PUSH0 PUSH2 0x2134 DUP3 PUSH2 0x1A7E JUMP JUMPDEST SWAP2 POP PUSH2 0x213F DUP4 PUSH2 0x1A7E JUMP JUMPDEST SWAP3 POP DUP3 DUP3 ADD SWAP1 POP PUSH8 0xFFFFFFFFFFFFFFFF DUP2 GT ISZERO PUSH2 0x215F JUMPI PUSH2 0x215E PUSH2 0x1C34 JUMP JUMPDEST JUMPDEST SWAP3 SWAP2 POP POP JUMP JUMPDEST PUSH32 0x436F6D6D697452657665616C3A3A72657665616C3A2052657665616C65642074 PUSH0 DUP3 ADD MSTORE PUSH32 0x6F6F206C61746500000000000000000000000000000000000000000000000000 PUSH1 0x20 DUP3 ADD MSTORE POP JUMP JUMPDEST PUSH0 PUSH2 0x21BF PUSH1 0x27 DUP4 PUSH2 0x1F4A JUMP JUMPDEST SWAP2 POP PUSH2 0x21CA DUP3 PUSH2 0x2165 JUMP JUMPDEST PUSH1 0x40 DUP3 ADD SWAP1 POP SWAP2 SWAP1 POP JUMP JUMPDEST PUSH0 PUSH1 0x20 DUP3 ADD SWAP1 POP DUP2 DUP2 SUB PUSH0 DUP4 ADD MSTORE PUSH2 0x21EC DUP2 PUSH2 0x21B3 JUMP JUMPDEST SWAP1 POP SWAP2 SWAP1 POP JUMP JUMPDEST PUSH0 PUSH2 0x21FE DUP3 DUP6 PUSH2 0x1D50 JUMP JUMPDEST PUSH1 0x20 DUP3 ADD SWAP2 POP PUSH2 0x220E DUP3 DUP5 PUSH2 0x1D50 JUMP JUMPDEST PUSH1 0x20 DUP3 ADD SWAP2 POP DUP2 SWAP1 POP SWAP4 SWAP3 POP POP POP JUMP JUMPDEST PUSH0 PUSH2 0x2228 DUP3 PUSH2 0x172B JUMP JUMPDEST SWAP2 POP PUSH2 0x2233 DUP4 PUSH2 0x172B JUMP JUMPDEST SWAP3 POP DUP3 PUSH2 0x2243 JUMPI PUSH2 0x2242 PUSH2 0x1D92 JUMP JUMPDEST JUMPDEST DUP3 DUP3 MOD SWAP1 POP SWAP3 SWAP2 POP POP JUMP JUMPDEST PUSH0 PUSH1 0x60 DUP3 ADD SWAP1 POP PUSH2 0x2261 PUSH0 DUP4 ADD DUP7 PUSH2 0x1B58 JUMP JUMPDEST PUSH2 0x226E PUSH1 0x20 DUP4 ADD DUP6 PUSH2 0x17CB JUMP JUMPDEST PUSH2 0x227B PUSH1 0x40 DUP4 ADD DUP5 PUSH2 0x1734 JUMP JUMPDEST SWAP5 SWAP4 POP POP POP POP JUMP JUMPDEST PUSH0 PUSH2 0x228E DUP3 DUP7 PUSH2 0x1D30 JUMP JUMPDEST PUSH1 0x14 DUP3 ADD SWAP2 POP PUSH2 0x229E DUP3 DUP6 PUSH2 0x1D50 JUMP JUMPDEST PUSH1 0x20 DUP3 ADD SWAP2 POP PUSH2 0x22AE DUP3 DUP5 PUSH2 0x1D50 JUMP JUMPDEST PUSH1 0x20 DUP3 ADD SWAP2 POP DUP2 SWAP1 POP SWAP5 SWAP4 POP POP POP POP JUMP JUMPDEST PUSH32 0x436F6D6D697452657665616C3A3A72657665616C416E737765723A20416C7265 PUSH0 DUP3 ADD MSTORE PUSH32 0x6164792072657665616C65640000000000000000000000000000000000000000 PUSH1 0x20 DUP3 ADD MSTORE POP JUMP JUMPDEST PUSH0 PUSH2 0x2319 PUSH1 0x2C DUP4 PUSH2 0x1F4A JUMP JUMPDEST SWAP2 POP PUSH2 0x2324 DUP3 PUSH2 0x22BF JUMP JUMPDEST PUSH1 0x40 DUP3 ADD SWAP1 POP SWAP2 SWAP1 POP JUMP JUMPDEST PUSH0 PUSH1 0x20 DUP3 ADD SWAP1 POP DUP2 DUP2 SUB PUSH0 DUP4 ADD MSTORE PUSH2 0x2346 DUP2 PUSH2 0x230D JUMP JUMPDEST SWAP1 POP SWAP2 SWAP1 POP JUMP JUMPDEST PUSH32 0x436F6D6D697452657665616C3A3A72657665616C416E737765723A2052657665 PUSH0 DUP3 ADD MSTORE PUSH32 0x616C6564206861736820646F6573206E6F74206D6174636820636F6D6D697400 PUSH1 0x20 DUP3 ADD MSTORE POP JUMP JUMPDEST PUSH0 PUSH2 0x23A7 PUSH1 0x3F DUP4 PUSH2 0x1F4A JUMP JUMPDEST SWAP2 POP PUSH2 0x23B2 DUP3 PUSH2 0x234D JUMP JUMPDEST PUSH1 0x40 DUP3 ADD SWAP1 POP SWAP2 SWAP1 POP JUMP JUMPDEST PUSH0 PUSH1 0x20 DUP3 ADD SWAP1 POP DUP2 DUP2 SUB PUSH0 DUP4 ADD MSTORE PUSH2 0x23D4 DUP2 PUSH2 0x239B JUMP JUMPDEST SWAP1 POP SWAP2 SWAP1 POP JUMP JUMPDEST PUSH0 PUSH1 0x60 DUP3 ADD SWAP1 POP PUSH2 0x23EE PUSH0 DUP4 ADD DUP7 PUSH2 0x1B58 JUMP JUMPDEST PUSH2 0x23FB PUSH1 0x20 DUP4 ADD DUP6 PUSH2 0x17CB JUMP JUMPDEST PUSH2 0x2408 PUSH1 0x40 DUP4 ADD DUP5 PUSH2 0x17CB JUMP JUMPDEST SWAP5 SWAP4 POP POP POP POP JUMP JUMPDEST PUSH0 PUSH1 0x60 DUP3 ADD SWAP1 POP PUSH2 0x2423 PUSH0 DUP4 ADD DUP7 PUSH2 0x1B58 JUMP JUMPDEST PUSH2 0x2430 PUSH1 0x20 DUP4 ADD DUP6 PUSH2 0x17CB JUMP JUMPDEST PUSH2 0x243D PUSH1 0x40 DUP4 ADD DUP5 PUSH2 0x1A91 JUMP JUMPDEST SWAP5 SWAP4 POP POP POP POP JUMP INVALID LOG2 PUSH5 0x6970667358 0x22 SLT KECCAK256 SWAP3 0x22 PUSH1 0x87 PUSH4 0x866DF730 0xA9 0xBA 0xC6 DUP5 SWAP15 PUSH5 0xC0EBEA1279 SWAP3 PUSH22 0x143480423BB32BF51FC364736F6C6343000818003300 "
				},
				"gasEstimates": {
					"creation": {
						"codeDepositCost": "1867800",
						"executionCost": "90464",
						"totalCost": "1958264"
					},
					"external": {
						"addPlayer()": "infinite",
						"commit(bytes32)": "infinite",
						"commits(address)": "7481",
						"deadlineDuration()": "2536",
						"getBytes32(uint256,string)": "infinite",
						"getHash(bytes32)": "infinite",
						"getSaltedHash(bytes32,bytes32)": "infinite",
						"input(bytes32,uint256)": "infinite",
						"lastAction()": "2448",
						"max()": "2530",
						"numInput()": "2449",
						"numPlayer()": "2492",
						"numReveal()": "2447",
						"player(uint256)": "infinite",
						"reveal(bytes32)": "infinite",
						"revealAnswer(bytes32,bytes32)": "infinite",
						"revealChoice(uint256,uint256,string)": "infinite",
						"reward()": "2471",
						"timeOutWithDraw()": "infinite"
					},
					"internal": {
						"_checkWinnerAndPay()": "infinite",
						"_reset()": "20061"
					}
				},
				"methodIdentifiers": {
					"addPlayer()": "27b5db8a",
					"commit(bytes32)": "f14fcbc8",
					"commits(address)": "7b43a8e6",
					"deadlineDuration()": "ba71ae9f",
					"getBytes32(uint256,string)": "d09a0a3b",
					"getHash(bytes32)": "3cf5040a",
					"getSaltedHash(bytes32,bytes32)": "8dddbf36",
					"input(bytes32,uint256)": "d1adbd72",
					"lastAction()": "89f71d53",
					"max()": "6ac5db19",
					"numInput()": "086f7815",
					"numPlayer()": "90d5d0c3",
					"numReveal()": "c876e615",
					"player(uint256)": "9e0551c6",
					"reveal(bytes32)": "701fd0f1",
					"revealAnswer(bytes32,bytes32)": "de8e9033",
					"revealChoice(uint256,uint256,string)": "5afa1fd8",
					"reward()": "228cb733",
					"timeOutWithDraw()": "558d51c6"
				}
			},
			"storageLayout": {
				"storage": [
					{
						"astId": 4,
						"contract": "RPS.sol:RPS",
						"label": "max",
						"offset": 0,
						"slot": "0",
						"type": "t_uint8"
					},
					{
						"astId": 16,
						"contract": "RPS.sol:RPS",
						"label": "commits",
						"offset": 0,
						"slot": "1",
						"type": "t_mapping(t_address,t_struct(Commit)11_storage)"
					},
					{
						"astId": 296,
						"contract": "RPS.sol:RPS",
						"label": "numPlayer",
						"offset": 0,
						"slot": "2",
						"type": "t_uint256"
					},
					{
						"astId": 299,
						"contract": "RPS.sol:RPS",
						"label": "reward",
						"offset": 0,
						"slot": "3",
						"type": "t_uint256"
					},
					{
						"astId": 304,
						"contract": "RPS.sol:RPS",
						"label": "player",
						"offset": 0,
						"slot": "4",
						"type": "t_mapping(t_uint256,t_struct(Player)293_storage)"
					},
					{
						"astId": 307,
						"contract": "RPS.sol:RPS",
						"label": "numInput",
						"offset": 0,
						"slot": "5",
						"type": "t_uint256"
					},
					{
						"astId": 310,
						"contract": "RPS.sol:RPS",
						"label": "numReveal",
						"offset": 0,
						"slot": "6",
						"type": "t_uint256"
					},
					{
						"astId": 313,
						"contract": "RPS.sol:RPS",
						"label": "deadlineDuration",
						"offset": 0,
						"slot": "7",
						"type": "t_uint256"
					},
					{
						"astId": 317,
						"contract": "RPS.sol:RPS",
						"label": "lastAction",
						"offset": 0,
						"slot": "8",
						"type": "t_uint256"
					}
				],
				"types": {
					"t_address": {
						"encoding": "inplace",
						"label": "address",
						"numberOfBytes": "20"
					},
					"t_bool": {
						"encoding": "inplace",
						"label": "bool",
						"numberOfBytes": "1"
					},
					"t_bytes32": {
						"encoding": "inplace",
						"label": "bytes32",
						"numberOfBytes": "32"
					},
					"t_mapping(t_address,t_struct(Commit)11_storage)": {
						"encoding": "mapping",
						"key": "t_address",
						"label": "mapping(address => struct CommitReveal.Commit)",
						"numberOfBytes": "32",
						"value": "t_struct(Commit)11_storage"
					},
					"t_mapping(t_uint256,t_struct(Player)293_storage)": {
						"encoding": "mapping",
						"key": "t_uint256",
						"label": "mapping(uint256 => struct RPS.Player)",
						"numberOfBytes": "32",
						"value": "t_struct(Player)293_storage"
					},
					"t_struct(Commit)11_storage": {
						"encoding": "inplace",
						"label": "struct CommitReveal.Commit",
						"members": [
							{
								"astId": 6,
								"contract": "RPS.sol:RPS",
								"label": "commit",
								"offset": 0,
								"slot": "0",
								"type": "t_bytes32"
							},
							{
								"astId": 8,
								"contract": "RPS.sol:RPS",
								"label": "block",
								"offset": 0,
								"slot": "1",
								"type": "t_uint64"
							},
							{
								"astId": 10,
								"contract": "RPS.sol:RPS",
								"label": "revealed",
								"offset": 8,
								"slot": "1",
								"type": "t_bool"
							}
						],
						"numberOfBytes": "64"
					},
					"t_struct(Player)293_storage": {
						"encoding": "inplace",
						"label": "struct RPS.Player",
						"members": [
							{
								"astId": 288,
								"contract": "RPS.sol:RPS",
								"label": "choice",
								"offset": 0,
								"slot": "0",
								"type": "t_uint256"
							},
							{
								"astId": 290,
								"contract": "RPS.sol:RPS",
								"label": "addr",
								"offset": 0,
								"slot": "1",
								"type": "t_address"
							},
							{
								"astId": 292,
								"contract": "RPS.sol:RPS",
								"label": "isCommit",
								"offset": 20,
								"slot": "1",
								"type": "t_bool"
							}
						],
						"numberOfBytes": "64"
					},
					"t_uint256": {
						"encoding": "inplace",
						"label": "uint256",
						"numberOfBytes": "32"
					},
					"t_uint64": {
						"encoding": "inplace",
						"label": "uint64",
						"numberOfBytes": "8"
					},
					"t_uint8": {
						"encoding": "inplace",
						"label": "uint8",
						"numberOfBytes": "1"
					}
				}
			},
			"userdoc": {
				"kind": "user",
				"methods": {},
				"version": 1
			}
		}
	}
}