{
	"RPS1.sol": {
		"RPS": {
			"abi": [
				{
					"inputs": [
						{
							"internalType": "address",
							"name": "_token",
							"type": "address"
						}
					],
					"stateMutability": "nonpayable",
					"type": "constructor"
				},
				{
					"anonymous": false,
					"inputs": [
						{
							"indexed": false,
							"internalType": "address",
							"name": "sender",
							"type": "address"
						},
						{
							"indexed": false,
							"internalType": "bytes32",
							"name": "dataHash",
							"type": "bytes32"
						},
						{
							"indexed": false,
							"internalType": "uint64",
							"name": "block",
							"type": "uint64"
						}
					],
					"name": "CommitHash",
					"type": "event"
				},
				{
					"anonymous": false,
					"inputs": [
						{
							"indexed": false,
							"internalType": "address",
							"name": "sender",
							"type": "address"
						},
						{
							"indexed": false,
							"internalType": "uint256",
							"name": "numPlayer",
							"type": "uint256"
						}
					],
					"name": "PlayerAdded",
					"type": "event"
				},
				{
					"anonymous": false,
					"inputs": [
						{
							"indexed": false,
							"internalType": "address",
							"name": "sender",
							"type": "address"
						},
						{
							"indexed": false,
							"internalType": "uint256",
							"name": "numInput",
							"type": "uint256"
						}
					],
					"name": "PlayerCommitHashed",
					"type": "event"
				},
				{
					"anonymous": false,
					"inputs": [
						{
							"indexed": false,
							"internalType": "address",
							"name": "sender",
							"type": "address"
						},
						{
							"indexed": false,
							"internalType": "bytes32",
							"name": "revealHash",
							"type": "bytes32"
						},
						{
							"indexed": false,
							"internalType": "uint256",
							"name": "random",
							"type": "uint256"
						}
					],
					"name": "RevealHash",
					"type": "event"
				},
				{
					"inputs": [],
					"name": "addPlayer",
					"outputs": [],
					"stateMutability": "nonpayable",
					"type": "function"
				},
				{
					"inputs": [
						{
							"internalType": "address",
							"name": "",
							"type": "address"
						}
					],
					"name": "commits",
					"outputs": [
						{
							"internalType": "bytes32",
							"name": "commit",
							"type": "bytes32"
						},
						{
							"internalType": "uint64",
							"name": "block",
							"type": "uint64"
						},
						{
							"internalType": "bool",
							"name": "revealed",
							"type": "bool"
						}
					],
					"stateMutability": "view",
					"type": "function"
				},
				{
					"inputs": [],
					"name": "elapsedMinutes",
					"outputs": [
						{
							"internalType": "uint256",
							"name": "",
							"type": "uint256"
						}
					],
					"stateMutability": "view",
					"type": "function"
				},
				{
					"inputs": [],
					"name": "elapsedSeconds",
					"outputs": [
						{
							"internalType": "uint256",
							"name": "",
							"type": "uint256"
						}
					],
					"stateMutability": "view",
					"type": "function"
				},
				{
					"inputs": [
						{
							"internalType": "bytes32",
							"name": "data",
							"type": "bytes32"
						}
					],
					"name": "getHash",
					"outputs": [
						{
							"internalType": "bytes32",
							"name": "",
							"type": "bytes32"
						}
					],
					"stateMutability": "pure",
					"type": "function"
				},
				{
					"inputs": [
						{
							"internalType": "bytes32",
							"name": "hashAns",
							"type": "bytes32"
						}
					],
					"name": "input",
					"outputs": [],
					"stateMutability": "nonpayable",
					"type": "function"
				},
				{
					"inputs": [
						{
							"internalType": "address",
							"name": "",
							"type": "address"
						}
					],
					"name": "isCommit",
					"outputs": [
						{
							"internalType": "bool",
							"name": "",
							"type": "bool"
						}
					],
					"stateMutability": "view",
					"type": "function"
				},
				{
					"inputs": [],
					"name": "max",
					"outputs": [
						{
							"internalType": "uint8",
							"name": "",
							"type": "uint8"
						}
					],
					"stateMutability": "view",
					"type": "function"
				},
				{
					"inputs": [],
					"name": "numInput",
					"outputs": [
						{
							"internalType": "uint256",
							"name": "",
							"type": "uint256"
						}
					],
					"stateMutability": "view",
					"type": "function"
				},
				{
					"inputs": [],
					"name": "numPlayer",
					"outputs": [
						{
							"internalType": "uint256",
							"name": "",
							"type": "uint256"
						}
					],
					"stateMutability": "view",
					"type": "function"
				},
				{
					"inputs": [],
					"name": "numReveal",
					"outputs": [
						{
							"internalType": "uint256",
							"name": "",
							"type": "uint256"
						}
					],
					"stateMutability": "view",
					"type": "function"
				},
				{
					"inputs": [
						{
							"internalType": "address",
							"name": "",
							"type": "address"
						}
					],
					"name": "player_choice",
					"outputs": [
						{
							"internalType": "uint256",
							"name": "",
							"type": "uint256"
						}
					],
					"stateMutability": "view",
					"type": "function"
				},
				{
					"inputs": [
						{
							"internalType": "uint256",
							"name": "",
							"type": "uint256"
						}
					],
					"name": "players",
					"outputs": [
						{
							"internalType": "address",
							"name": "",
							"type": "address"
						}
					],
					"stateMutability": "view",
					"type": "function"
				},
				{
					"inputs": [],
					"name": "requiredAmount",
					"outputs": [
						{
							"internalType": "uint256",
							"name": "",
							"type": "uint256"
						}
					],
					"stateMutability": "view",
					"type": "function"
				},
				{
					"inputs": [
						{
							"internalType": "bytes32",
							"name": "hashChoice",
							"type": "bytes32"
						}
					],
					"name": "revealChoice",
					"outputs": [],
					"stateMutability": "nonpayable",
					"type": "function"
				},
				{
					"inputs": [],
					"name": "reward",
					"outputs": [
						{
							"internalType": "uint256",
							"name": "",
							"type": "uint256"
						}
					],
					"stateMutability": "view",
					"type": "function"
				},
				{
					"inputs": [],
					"name": "startTime",
					"outputs": [
						{
							"internalType": "uint256",
							"name": "",
							"type": "uint256"
						}
					],
					"stateMutability": "view",
					"type": "function"
				},
				{
					"inputs": [],
					"name": "timeOutWithdraw",
					"outputs": [],
					"stateMutability": "nonpayable",
					"type": "function"
				},
				{
					"inputs": [],
					"name": "timeoutDuration",
					"outputs": [
						{
							"internalType": "uint256",
							"name": "",
							"type": "uint256"
						}
					],
					"stateMutability": "view",
					"type": "function"
				},
				{
					"inputs": [],
					"name": "token",
					"outputs": [
						{
							"internalType": "contract IERC20",
							"name": "",
							"type": "address"
						}
					],
					"stateMutability": "view",
					"type": "function"
				}
			],
			"devdoc": {
				"kind": "dev",
				"methods": {},
				"version": 1
			},
			"evm": {
				"assembly": "    /* \"RPS1.sol\":155:4429  contract RPS is CommitReveal, TimeUnit {... */\n  mstore(0x40, 0x80)\n    /* \"CommitReveal.sol\":122:125  100 */\n  0x64\n    /* \"CommitReveal.sol\":103:125  uint8 public max = 100 */\n  0x00\n  dup1\n  0x0100\n  exp\n  dup2\n  sload\n  dup2\n  0xff\n  mul\n  not\n  and\n  swap1\n  dup4\n  0xff\n  and\n  mul\n  or\n  swap1\n  sstore\n  pop\n    /* \"RPS1.sol\":251:252  0 */\n  0x00\n    /* \"RPS1.sol\":227:252  uint public numPlayer = 0 */\n  0x04\n  sstore\n    /* \"RPS1.sol\":280:281  0 */\n  0x00\n    /* \"RPS1.sol\":259:281  uint public reward = 0 */\n  0x05\n  sstore\n    /* \"RPS1.sol\":410:411  0 */\n  0x00\n    /* \"RPS1.sol\":387:411  uint public numInput = 0 */\n  0x08\n  sstore\n    /* \"RPS1.sol\":442:443  0 */\n  0x00\n    /* \"RPS1.sol\":418:443  uint public numReveal = 0 */\n  0x09\n  sstore\n    /* \"RPS1.sol\":480:489  1 minutes */\n  0x3c\n    /* \"RPS1.sol\":450:489  uint public timeoutDuration = 1 minutes */\n  0x0a\n  sstore\n    /* \"RPS1.sol\":559:573  0.000001 ether */\n  0xe8d4a51000\n    /* \"RPS1.sol\":527:573  uint256 public requiredAmount = 0.000001 ether */\n  0x0c\n  sstore\n    /* \"RPS1.sol\":582:651  constructor(address _token) {... */\n  callvalue\n  dup1\n  iszero\n  tag_1\n  jumpi\n  0x00\n  dup1\n  revert\ntag_1:\n  pop\n  mload(0x40)\n  sub(codesize, bytecodeSize)\n  dup1\n  bytecodeSize\n  dup4\n  codecopy\n  dup2\n  dup2\n  add\n  0x40\n  mstore\n  dup2\n  add\n  swap1\n  tag_2\n  swap2\n  swap1\n  tag_3\n  jump\t// in\ntag_2:\n    /* \"RPS1.sol\":636:642  _token */\n  dup1\n    /* \"RPS1.sol\":621:626  token */\n  0x03\n  0x00\n    /* \"RPS1.sol\":621:643  token = IERC20(_token) */\n  0x0100\n  exp\n  dup2\n  sload\n  dup2\n  0xffffffffffffffffffffffffffffffffffffffff\n  mul\n  not\n  and\n  swap1\n  dup4\n  0xffffffffffffffffffffffffffffffffffffffff\n  and\n  mul\n  or\n  swap1\n  sstore\n  pop\n    /* \"RPS1.sol\":582:651  constructor(address _token) {... */\n  pop\n    /* \"RPS1.sol\":155:4429  contract RPS is CommitReveal, TimeUnit {... */\n  jump(tag_6)\n    /* \"#utility.yul\":88:205   */\ntag_8:\n    /* \"#utility.yul\":197:198   */\n  0x00\n    /* \"#utility.yul\":194:195   */\n  dup1\n    /* \"#utility.yul\":187:199   */\n  revert\n    /* \"#utility.yul\":334:460   */\ntag_10:\n    /* \"#utility.yul\":371:378   */\n  0x00\n    /* \"#utility.yul\":411:453   */\n  0xffffffffffffffffffffffffffffffffffffffff\n    /* \"#utility.yul\":404:409   */\n  dup3\n    /* \"#utility.yul\":400:454   */\n  and\n    /* \"#utility.yul\":389:454   */\n  swap1\n  pop\n    /* \"#utility.yul\":334:460   */\n  swap2\n  swap1\n  pop\n  jump\t// out\n    /* \"#utility.yul\":466:562   */\ntag_11:\n    /* \"#utility.yul\":503:510   */\n  0x00\n    /* \"#utility.yul\":532:556   */\n  tag_20\n    /* \"#utility.yul\":550:555   */\n  dup3\n    /* \"#utility.yul\":532:556   */\n  tag_10\n  jump\t// in\ntag_20:\n    /* \"#utility.yul\":521:556   */\n  swap1\n  pop\n    /* \"#utility.yul\":466:562   */\n  swap2\n  swap1\n  pop\n  jump\t// out\n    /* \"#utility.yul\":568:690   */\ntag_12:\n    /* \"#utility.yul\":641:665   */\n  tag_22\n    /* \"#utility.yul\":659:664   */\n  dup2\n    /* \"#utility.yul\":641:665   */\n  tag_11\n  jump\t// in\ntag_22:\n    /* \"#utility.yul\":634:639   */\n  dup2\n    /* \"#utility.yul\":631:666   */\n  eq\n    /* \"#utility.yul\":621:684   */\n  tag_23\n  jumpi\n    /* \"#utility.yul\":680:681   */\n  0x00\n    /* \"#utility.yul\":677:678   */\n  dup1\n    /* \"#utility.yul\":670:682   */\n  revert\n    /* \"#utility.yul\":621:684   */\ntag_23:\n    /* \"#utility.yul\":568:690   */\n  pop\n  jump\t// out\n    /* \"#utility.yul\":696:839   */\ntag_13:\n    /* \"#utility.yul\":753:758   */\n  0x00\n    /* \"#utility.yul\":784:790   */\n  dup2\n    /* \"#utility.yul\":778:791   */\n  mload\n    /* \"#utility.yul\":769:791   */\n  swap1\n  pop\n    /* \"#utility.yul\":800:833   */\n  tag_25\n    /* \"#utility.yul\":827:832   */\n  dup2\n    /* \"#utility.yul\":800:833   */\n  tag_12\n  jump\t// in\ntag_25:\n    /* \"#utility.yul\":696:839   */\n  swap3\n  swap2\n  pop\n  pop\n  jump\t// out\n    /* \"#utility.yul\":845:1196   */\ntag_3:\n    /* \"#utility.yul\":915:921   */\n  0x00\n    /* \"#utility.yul\":964:966   */\n  0x20\n    /* \"#utility.yul\":952:961   */\n  dup3\n    /* \"#utility.yul\":943:950   */\n  dup5\n    /* \"#utility.yul\":939:962   */\n  sub\n    /* \"#utility.yul\":935:967   */\n  slt\n    /* \"#utility.yul\":932:1051   */\n  iszero\n  tag_27\n  jumpi\n    /* \"#utility.yul\":970:1049   */\n  tag_28\n  tag_8\n  jump\t// in\ntag_28:\n    /* \"#utility.yul\":932:1051   */\ntag_27:\n    /* \"#utility.yul\":1090:1091   */\n  0x00\n    /* \"#utility.yul\":1115:1179   */\n  tag_29\n    /* \"#utility.yul\":1171:1178   */\n  dup5\n    /* \"#utility.yul\":1162:1168   */\n  dup3\n    /* \"#utility.yul\":1151:1160   */\n  dup6\n    /* \"#utility.yul\":1147:1169   */\n  add\n    /* \"#utility.yul\":1115:1179   */\n  tag_13\n  jump\t// in\ntag_29:\n    /* \"#utility.yul\":1105:1179   */\n  swap2\n  pop\n    /* \"#utility.yul\":1061:1189   */\n  pop\n    /* \"#utility.yul\":845:1196   */\n  swap3\n  swap2\n  pop\n  pop\n  jump\t// out\n    /* \"RPS1.sol\":155:4429  contract RPS is CommitReveal, TimeUnit {... */\ntag_6:\n  dataSize(sub_0)\n  dup1\n  dataOffset(sub_0)\n  0x00\n  codecopy\n  0x00\n  return\nstop\n\nsub_0: assembly {\n        /* \"RPS1.sol\":155:4429  contract RPS is CommitReveal, TimeUnit {... */\n      mstore(0x40, 0x80)\n      callvalue\n      dup1\n      iszero\n      tag_1\n      jumpi\n      0x00\n      dup1\n      revert\n    tag_1:\n      pop\n      jumpi(tag_2, lt(calldatasize, 0x04))\n      shr(0xe0, calldataload(0x00))\n      dup1\n      0x7b43a8e6\n      gt\n      tag_23\n      jumpi\n      dup1\n      0xc876e615\n      gt\n      tag_24\n      jumpi\n      dup1\n      0xc876e615\n      eq\n      tag_18\n      jumpi\n      dup1\n      0xd891f969\n      eq\n      tag_19\n      jumpi\n      dup1\n      0xd97c8416\n      eq\n      tag_20\n      jumpi\n      dup1\n      0xf71d96cb\n      eq\n      tag_21\n      jumpi\n      dup1\n      0xfc0c546a\n      eq\n      tag_22\n      jumpi\n      jump(tag_2)\n    tag_24:\n      dup1\n      0x7b43a8e6\n      eq\n      tag_13\n      jumpi\n      dup1\n      0x85d19e1a\n      eq\n      tag_14\n      jumpi\n      dup1\n      0x90d5d0c3\n      eq\n      tag_15\n      jumpi\n      dup1\n      0xa040478d\n      eq\n      tag_16\n      jumpi\n      dup1\n      0xbc06b8cd\n      eq\n      tag_17\n      jumpi\n      jump(tag_2)\n    tag_23:\n      dup1\n      0x43cdd438\n      gt\n      tag_25\n      jumpi\n      dup1\n      0x43cdd438\n      eq\n      tag_8\n      jumpi\n      dup1\n      0x48b9ef40\n      eq\n      tag_9\n      jumpi\n      dup1\n      0x65ce0ac6\n      eq\n      tag_10\n      jumpi\n      dup1\n      0x6ac5db19\n      eq\n      tag_11\n      jumpi\n      dup1\n      0x78e97925\n      eq\n      tag_12\n      jumpi\n      jump(tag_2)\n    tag_25:\n      dup1\n      0x086f7815\n      eq\n      tag_3\n      jumpi\n      dup1\n      0x13454255\n      eq\n      tag_4\n      jumpi\n      dup1\n      0x228cb733\n      eq\n      tag_5\n      jumpi\n      dup1\n      0x27b5db8a\n      eq\n      tag_6\n      jumpi\n      dup1\n      0x3cf5040a\n      eq\n      tag_7\n      jumpi\n    tag_2:\n      0x00\n      dup1\n      revert\n        /* \"RPS1.sol\":387:411  uint public numInput = 0 */\n    tag_3:\n      tag_26\n      tag_27\n      jump\t// in\n    tag_26:\n      mload(0x40)\n      tag_28\n      swap2\n      swap1\n      tag_29\n      jump\t// in\n    tag_28:\n      mload(0x40)\n      dup1\n      swap2\n      sub\n      swap1\n      return\n        /* \"RPS1.sol\":3715:4426  function timeOutWithdraw() public {... */\n    tag_4:\n      tag_30\n      tag_31\n      jump\t// in\n    tag_30:\n      stop\n        /* \"RPS1.sol\":259:281  uint public reward = 0 */\n    tag_5:\n      tag_32\n      tag_33\n      jump\t// in\n    tag_32:\n      mload(0x40)\n      tag_34\n      swap2\n      swap1\n      tag_29\n      jump\t// in\n    tag_34:\n      mload(0x40)\n      dup1\n      swap2\n      sub\n      swap1\n      return\n        /* \"RPS1.sol\":659:1298  function addPlayer() public {... */\n    tag_6:\n      tag_35\n      tag_36\n      jump\t// in\n    tag_35:\n      stop\n        /* \"CommitReveal.sol\":1862:1974  function getHash(bytes32 data) public pure returns(bytes32){... */\n    tag_7:\n      tag_37\n      0x04\n      dup1\n      calldatasize\n      sub\n      dup2\n      add\n      swap1\n      tag_38\n      swap2\n      swap1\n      tag_39\n      jump\t// in\n    tag_38:\n      tag_40\n      jump\t// in\n    tag_37:\n      mload(0x40)\n      tag_41\n      swap2\n      swap1\n      tag_42\n      jump\t// in\n    tag_41:\n      mload(0x40)\n      dup1\n      swap2\n      sub\n      swap1\n      return\n        /* \"RPS1.sol\":340:380  mapping(address => bool) public isCommit */\n    tag_8:\n      tag_43\n      0x04\n      dup1\n      calldatasize\n      sub\n      dup2\n      add\n      swap1\n      tag_44\n      swap2\n      swap1\n      tag_45\n      jump\t// in\n    tag_44:\n      tag_46\n      jump\t// in\n    tag_43:\n      mload(0x40)\n      tag_47\n      swap2\n      swap1\n      tag_48\n      jump\t// in\n    tag_47:\n      mload(0x40)\n      dup1\n      swap2\n      sub\n      swap1\n      return\n        /* \"RPS1.sol\":527:573  uint256 public requiredAmount = 0.000001 ether */\n    tag_9:\n      tag_49\n      tag_50\n      jump\t// in\n    tag_49:\n      mload(0x40)\n      tag_51\n      swap2\n      swap1\n      tag_29\n      jump\t// in\n    tag_51:\n      mload(0x40)\n      dup1\n      swap2\n      sub\n      swap1\n      return\n        /* \"RPS1.sol\":1849:2444  function revealChoice(bytes32 hashChoice) public {... */\n    tag_10:\n      tag_52\n      0x04\n      dup1\n      calldatasize\n      sub\n      dup2\n      add\n      swap1\n      tag_53\n      swap2\n      swap1\n      tag_39\n      jump\t// in\n    tag_53:\n      tag_54\n      jump\t// in\n    tag_52:\n      stop\n        /* \"CommitReveal.sol\":103:125  uint8 public max = 100 */\n    tag_11:\n      tag_55\n      tag_56\n      jump\t// in\n    tag_55:\n      mload(0x40)\n      tag_57\n      swap2\n      swap1\n      tag_58\n      jump\t// in\n    tag_57:\n      mload(0x40)\n      dup1\n      swap2\n      sub\n      swap1\n      return\n        /* \"TimeUnit.sol\":307:331  uint256 public startTime */\n    tag_12:\n      tag_59\n      tag_60\n      jump\t// in\n    tag_59:\n      mload(0x40)\n      tag_61\n      swap2\n      swap1\n      tag_29\n      jump\t// in\n    tag_61:\n      mload(0x40)\n      dup1\n      swap2\n      sub\n      swap1\n      return\n        /* \"CommitReveal.sol\":218:260  mapping (address => Commit) public commits */\n    tag_13:\n      tag_62\n      0x04\n      dup1\n      calldatasize\n      sub\n      dup2\n      add\n      swap1\n      tag_63\n      swap2\n      swap1\n      tag_45\n      jump\t// in\n    tag_63:\n      tag_64\n      jump\t// in\n    tag_62:\n      mload(0x40)\n      tag_65\n      swap4\n      swap3\n      swap2\n      swap1\n      tag_66\n      jump\t// in\n    tag_65:\n      mload(0x40)\n      dup1\n      swap2\n      sub\n      swap1\n      return\n        /* \"RPS1.sol\":450:489  uint public timeoutDuration = 1 minutes */\n    tag_14:\n      tag_67\n      tag_68\n      jump\t// in\n    tag_67:\n      mload(0x40)\n      tag_69\n      swap2\n      swap1\n      tag_29\n      jump\t// in\n    tag_69:\n      mload(0x40)\n      dup1\n      swap2\n      sub\n      swap1\n      return\n        /* \"RPS1.sol\":227:252  uint public numPlayer = 0 */\n    tag_15:\n      tag_70\n      tag_71\n      jump\t// in\n    tag_70:\n      mload(0x40)\n      tag_72\n      swap2\n      swap1\n      tag_29\n      jump\t// in\n    tag_72:\n      mload(0x40)\n      dup1\n      swap2\n      sub\n      swap1\n      return\n        /* \"RPS1.sol\":288:333  mapping(address => uint) public player_choice */\n    tag_16:\n      tag_73\n      0x04\n      dup1\n      calldatasize\n      sub\n      dup2\n      add\n      swap1\n      tag_74\n      swap2\n      swap1\n      tag_45\n      jump\t// in\n    tag_74:\n      tag_75\n      jump\t// in\n    tag_73:\n      mload(0x40)\n      tag_76\n      swap2\n      swap1\n      tag_29\n      jump\t// in\n    tag_76:\n      mload(0x40)\n      dup1\n      swap2\n      sub\n      swap1\n      return\n        /* \"TimeUnit.sol\":578:685  function elapsedSeconds() public view returns (uint256) { ... */\n    tag_17:\n      tag_77\n      tag_78\n      jump\t// in\n    tag_77:\n      mload(0x40)\n      tag_79\n      swap2\n      swap1\n      tag_29\n      jump\t// in\n    tag_79:\n      mload(0x40)\n      dup1\n      swap2\n      sub\n      swap1\n      return\n        /* \"RPS1.sol\":418:443  uint public numReveal = 0 */\n    tag_18:\n      tag_80\n      tag_81\n      jump\t// in\n    tag_80:\n      mload(0x40)\n      tag_82\n      swap2\n      swap1\n      tag_29\n      jump\t// in\n    tag_82:\n      mload(0x40)\n      dup1\n      swap2\n      sub\n      swap1\n      return\n        /* \"RPS1.sol\":1364:1777  function input(bytes32 hashAns) public {... */\n    tag_19:\n      tag_83\n      0x04\n      dup1\n      calldatasize\n      sub\n      dup2\n      add\n      swap1\n      tag_84\n      swap2\n      swap1\n      tag_39\n      jump\t// in\n    tag_84:\n      tag_85\n      jump\t// in\n    tag_83:\n      stop\n        /* \"TimeUnit.sol\":801:1084  function elapsedMinutes() public view returns (uint256) { ... */\n    tag_20:\n      tag_86\n      tag_87\n      jump\t// in\n    tag_86:\n      mload(0x40)\n      tag_88\n      swap2\n      swap1\n      tag_29\n      jump\t// in\n    tag_88:\n      mload(0x40)\n      dup1\n      swap2\n      sub\n      swap1\n      return\n        /* \"RPS1.sol\":496:520  address[] public players */\n    tag_21:\n      tag_89\n      0x04\n      dup1\n      calldatasize\n      sub\n      dup2\n      add\n      swap1\n      tag_90\n      swap2\n      swap1\n      tag_91\n      jump\t// in\n    tag_90:\n      tag_92\n      jump\t// in\n    tag_89:\n      mload(0x40)\n      tag_93\n      swap2\n      swap1\n      tag_94\n      jump\t// in\n    tag_93:\n      mload(0x40)\n      dup1\n      swap2\n      sub\n      swap1\n      return\n        /* \"RPS1.sol\":201:220  IERC20 public token */\n    tag_22:\n      tag_95\n      tag_96\n      jump\t// in\n    tag_95:\n      mload(0x40)\n      tag_97\n      swap2\n      swap1\n      tag_98\n      jump\t// in\n    tag_97:\n      mload(0x40)\n      dup1\n      swap2\n      sub\n      swap1\n      return\n        /* \"RPS1.sol\":387:411  uint public numInput = 0 */\n    tag_27:\n      sload(0x08)\n      dup2\n      jump\t// out\n        /* \"RPS1.sol\":3715:4426  function timeOutWithdraw() public {... */\n    tag_31:\n        /* \"RPS1.sol\":3780:3781  0 */\n      0x00\n        /* \"RPS1.sol\":3768:3777  numPlayer */\n      sload(0x04)\n        /* \"RPS1.sol\":3768:3781  numPlayer > 0 */\n      gt\n        /* \"RPS1.sol\":3760:3809  require(numPlayer > 0, \"No players in the game.\") */\n      tag_100\n      jumpi\n      mload(0x40)\n      0x08c379a000000000000000000000000000000000000000000000000000000000\n      dup2\n      mstore\n      0x04\n      add\n      tag_101\n      swap1\n      tag_102\n      jump\t// in\n    tag_101:\n      mload(0x40)\n      dup1\n      swap2\n      sub\n      swap1\n      revert\n    tag_100:\n        /* \"RPS1.sol\":3847:3862  timeoutDuration */\n      sload(0x0a)\n        /* \"RPS1.sol\":3828:3844  elapsedSeconds() */\n      tag_103\n        /* \"RPS1.sol\":3828:3842  elapsedSeconds */\n      tag_78\n        /* \"RPS1.sol\":3828:3844  elapsedSeconds() */\n      jump\t// in\n    tag_103:\n        /* \"RPS1.sol\":3828:3862  elapsedSeconds() > timeoutDuration */\n      gt\n        /* \"RPS1.sol\":3820:3887  require(elapsedSeconds() > timeoutDuration, \"Timeout not reached.\") */\n      tag_104\n      jumpi\n      mload(0x40)\n      0x08c379a000000000000000000000000000000000000000000000000000000000\n      dup2\n      mstore\n      0x04\n      add\n      tag_105\n      swap1\n      tag_106\n      jump\t// in\n    tag_105:\n      mload(0x40)\n      dup1\n      swap2\n      sub\n      swap1\n      revert\n    tag_104:\n        /* \"RPS1.sol\":3925:3926  1 */\n      0x01\n        /* \"RPS1.sol\":3912:3921  numPlayer */\n      sload(0x04)\n        /* \"RPS1.sol\":3912:3926  numPlayer == 1 */\n      eq\n        /* \"RPS1.sol\":3912:3944  numPlayer == 1 || numReveal == 0 */\n      dup1\n      tag_107\n      jumpi\n      pop\n        /* \"RPS1.sol\":3943:3944  0 */\n      0x00\n        /* \"RPS1.sol\":3930:3939  numReveal */\n      sload(0x09)\n        /* \"RPS1.sol\":3930:3944  numReveal == 0 */\n      eq\n        /* \"RPS1.sol\":3912:3944  numPlayer == 1 || numReveal == 0 */\n    tag_107:\n        /* \"RPS1.sol\":3908:4390  if (numPlayer == 1 || numReveal == 0) {... */\n      iszero\n      tag_108\n      jumpi\n        /* \"RPS1.sol\":3961:3966  token */\n      0x03\n      0x00\n      swap1\n      sload\n      swap1\n      0x0100\n      exp\n      swap1\n      div\n      0xffffffffffffffffffffffffffffffffffffffff\n      and\n        /* \"RPS1.sol\":3961:3975  token.transfer */\n      0xffffffffffffffffffffffffffffffffffffffff\n      and\n      0xa9059cbb\n        /* \"RPS1.sol\":3976:3983  players */\n      0x0b\n        /* \"RPS1.sol\":3984:3985  0 */\n      0x00\n        /* \"RPS1.sol\":3976:3986  players[0] */\n      dup2\n      sload\n      dup2\n      lt\n      tag_109\n      jumpi\n      tag_110\n      tag_111\n      jump\t// in\n    tag_110:\n    tag_109:\n      swap1\n      0x00\n      mstore\n      keccak256(0x00, 0x20)\n      add\n      0x00\n      swap1\n      sload\n      swap1\n      0x0100\n      exp\n      swap1\n      div\n      0xffffffffffffffffffffffffffffffffffffffff\n      and\n        /* \"RPS1.sol\":3988:3994  reward */\n      sload(0x05)\n        /* \"RPS1.sol\":3961:3995  token.transfer(players[0], reward) */\n      mload(0x40)\n      dup4\n      0xffffffff\n      and\n      0xe0\n      shl\n      dup2\n      mstore\n      0x04\n      add\n      tag_113\n      swap3\n      swap2\n      swap1\n      tag_114\n      jump\t// in\n    tag_113:\n      0x20\n      mload(0x40)\n      dup1\n      dup4\n      sub\n      dup2\n      0x00\n      dup8\n      gas\n      call\n      iszero\n      dup1\n      iszero\n      tag_116\n      jumpi\n      returndatasize\n      0x00\n      dup1\n      returndatacopy\n      revert(0x00, returndatasize)\n    tag_116:\n      pop\n      pop\n      pop\n      pop\n      mload(0x40)\n      returndatasize\n      not(0x1f)\n      0x1f\n      dup3\n      add\n      and\n      dup3\n      add\n      dup1\n      0x40\n      mstore\n      pop\n      dup2\n      add\n      swap1\n      tag_117\n      swap2\n      swap1\n      tag_118\n      jump\t// in\n    tag_117:\n      pop\n        /* \"RPS1.sol\":3908:4390  if (numPlayer == 1 || numReveal == 0) {... */\n      jump(tag_119)\n    tag_108:\n        /* \"RPS1.sol\":4030:4031  1 */\n      0x01\n        /* \"RPS1.sol\":4017:4026  numReveal */\n      sload(0x09)\n        /* \"RPS1.sol\":4017:4031  numReveal == 1 */\n      sub\n        /* \"RPS1.sol\":4013:4390  if (numReveal == 1) {... */\n      tag_120\n      jumpi\n        /* \"RPS1.sol\":4048:4065  address forfeiter */\n      0x00\n        /* \"RPS1.sol\":4098:4099  5 */\n      0x05\n        /* \"RPS1.sol\":4069:4082  player_choice */\n      0x06\n        /* \"RPS1.sol\":4069:4094  player_choice[players[0]] */\n      0x00\n        /* \"RPS1.sol\":4083:4090  players */\n      0x0b\n        /* \"RPS1.sol\":4091:4092  0 */\n      0x00\n        /* \"RPS1.sol\":4083:4093  players[0] */\n      dup2\n      sload\n      dup2\n      lt\n      tag_121\n      jumpi\n      tag_122\n      tag_111\n      jump\t// in\n    tag_122:\n    tag_121:\n      swap1\n      0x00\n      mstore\n      keccak256(0x00, 0x20)\n      add\n      0x00\n      swap1\n      sload\n      swap1\n      0x0100\n      exp\n      swap1\n      div\n      0xffffffffffffffffffffffffffffffffffffffff\n      and\n        /* \"RPS1.sol\":4069:4094  player_choice[players[0]] */\n      0xffffffffffffffffffffffffffffffffffffffff\n      and\n      0xffffffffffffffffffffffffffffffffffffffff\n      and\n      dup2\n      mstore\n      0x20\n      add\n      swap1\n      dup2\n      mstore\n      0x20\n      add\n      0x00\n      keccak256\n      sload\n        /* \"RPS1.sol\":4069:4099  player_choice[players[0]] == 5 */\n      eq\n        /* \"RPS1.sol\":4068:4126  (player_choice[players[0]] == 5) ? players[0] : players[1] */\n      tag_124\n      jumpi\n        /* \"RPS1.sol\":4116:4123  players */\n      0x0b\n        /* \"RPS1.sol\":4124:4125  1 */\n      0x01\n        /* \"RPS1.sol\":4116:4126  players[1] */\n      dup2\n      sload\n      dup2\n      lt\n      tag_125\n      jumpi\n      tag_126\n      tag_111\n      jump\t// in\n    tag_126:\n    tag_125:\n      swap1\n      0x00\n      mstore\n      keccak256(0x00, 0x20)\n      add\n      0x00\n      swap1\n      sload\n      swap1\n      0x0100\n      exp\n      swap1\n      div\n      0xffffffffffffffffffffffffffffffffffffffff\n      and\n        /* \"RPS1.sol\":4068:4126  (player_choice[players[0]] == 5) ? players[0] : players[1] */\n      jump(tag_128)\n    tag_124:\n        /* \"RPS1.sol\":4103:4110  players */\n      0x0b\n        /* \"RPS1.sol\":4111:4112  0 */\n      0x00\n        /* \"RPS1.sol\":4103:4113  players[0] */\n      dup2\n      sload\n      dup2\n      lt\n      tag_129\n      jumpi\n      tag_130\n      tag_111\n      jump\t// in\n    tag_130:\n    tag_129:\n      swap1\n      0x00\n      mstore\n      keccak256(0x00, 0x20)\n      add\n      0x00\n      swap1\n      sload\n      swap1\n      0x0100\n      exp\n      swap1\n      div\n      0xffffffffffffffffffffffffffffffffffffffff\n      and\n        /* \"RPS1.sol\":4068:4126  (player_choice[players[0]] == 5) ? players[0] : players[1] */\n    tag_128:\n        /* \"RPS1.sol\":4048:4126  address forfeiter = (player_choice[players[0]] == 5) ? players[0] : players[1] */\n      swap1\n      pop\n        /* \"RPS1.sol\":4141:4155  address winner */\n      0x00\n        /* \"RPS1.sol\":4172:4179  players */\n      0x0b\n        /* \"RPS1.sol\":4180:4181  0 */\n      0x00\n        /* \"RPS1.sol\":4172:4182  players[0] */\n      dup2\n      sload\n      dup2\n      lt\n      tag_132\n      jumpi\n      tag_133\n      tag_111\n      jump\t// in\n    tag_133:\n    tag_132:\n      swap1\n      0x00\n      mstore\n      keccak256(0x00, 0x20)\n      add\n      0x00\n      swap1\n      sload\n      swap1\n      0x0100\n      exp\n      swap1\n      div\n      0xffffffffffffffffffffffffffffffffffffffff\n      and\n        /* \"RPS1.sol\":4159:4182  forfeiter == players[0] */\n      0xffffffffffffffffffffffffffffffffffffffff\n      and\n        /* \"RPS1.sol\":4159:4168  forfeiter */\n      dup3\n        /* \"RPS1.sol\":4159:4182  forfeiter == players[0] */\n      0xffffffffffffffffffffffffffffffffffffffff\n      and\n      eq\n        /* \"RPS1.sol\":4158:4209  (forfeiter == players[0]) ? players[1] : players[0] */\n      tag_135\n      jumpi\n        /* \"RPS1.sol\":4199:4206  players */\n      0x0b\n        /* \"RPS1.sol\":4207:4208  0 */\n      0x00\n        /* \"RPS1.sol\":4199:4209  players[0] */\n      dup2\n      sload\n      dup2\n      lt\n      tag_136\n      jumpi\n      tag_137\n      tag_111\n      jump\t// in\n    tag_137:\n    tag_136:\n      swap1\n      0x00\n      mstore\n      keccak256(0x00, 0x20)\n      add\n      0x00\n      swap1\n      sload\n      swap1\n      0x0100\n      exp\n      swap1\n      div\n      0xffffffffffffffffffffffffffffffffffffffff\n      and\n        /* \"RPS1.sol\":4158:4209  (forfeiter == players[0]) ? players[1] : players[0] */\n      jump(tag_139)\n    tag_135:\n        /* \"RPS1.sol\":4186:4193  players */\n      0x0b\n        /* \"RPS1.sol\":4194:4195  1 */\n      0x01\n        /* \"RPS1.sol\":4186:4196  players[1] */\n      dup2\n      sload\n      dup2\n      lt\n      tag_140\n      jumpi\n      tag_141\n      tag_111\n      jump\t// in\n    tag_141:\n    tag_140:\n      swap1\n      0x00\n      mstore\n      keccak256(0x00, 0x20)\n      add\n      0x00\n      swap1\n      sload\n      swap1\n      0x0100\n      exp\n      swap1\n      div\n      0xffffffffffffffffffffffffffffffffffffffff\n      and\n        /* \"RPS1.sol\":4158:4209  (forfeiter == players[0]) ? players[1] : players[0] */\n    tag_139:\n        /* \"RPS1.sol\":4141:4209  address winner = (forfeiter == players[0]) ? players[1] : players[0] */\n      swap1\n      pop\n        /* \"RPS1.sol\":4224:4229  token */\n      0x03\n      0x00\n      swap1\n      sload\n      swap1\n      0x0100\n      exp\n      swap1\n      div\n      0xffffffffffffffffffffffffffffffffffffffff\n      and\n        /* \"RPS1.sol\":4224:4238  token.transfer */\n      0xffffffffffffffffffffffffffffffffffffffff\n      and\n      0xa9059cbb\n        /* \"RPS1.sol\":4239:4245  winner */\n      dup3\n        /* \"RPS1.sol\":4247:4253  reward */\n      sload(0x05)\n        /* \"RPS1.sol\":4224:4254  token.transfer(winner, reward) */\n      mload(0x40)\n      dup4\n      0xffffffff\n      and\n      0xe0\n      shl\n      dup2\n      mstore\n      0x04\n      add\n      tag_143\n      swap3\n      swap2\n      swap1\n      tag_114\n      jump\t// in\n    tag_143:\n      0x20\n      mload(0x40)\n      dup1\n      dup4\n      sub\n      dup2\n      0x00\n      dup8\n      gas\n      call\n      iszero\n      dup1\n      iszero\n      tag_145\n      jumpi\n      returndatasize\n      0x00\n      dup1\n      returndatacopy\n      revert(0x00, returndatasize)\n    tag_145:\n      pop\n      pop\n      pop\n      pop\n      mload(0x40)\n      returndatasize\n      not(0x1f)\n      0x1f\n      dup3\n      add\n      and\n      dup3\n      add\n      dup1\n      0x40\n      mstore\n      pop\n      dup2\n      add\n      swap1\n      tag_146\n      swap2\n      swap1\n      tag_118\n      jump\t// in\n    tag_146:\n      pop\n        /* \"RPS1.sol\":4033:4266  {... */\n      pop\n      pop\n        /* \"RPS1.sol\":4013:4390  if (numReveal == 1) {... */\n      jump(tag_147)\n    tag_120:\n        /* \"RPS1.sol\":4287:4292  token */\n      0x03\n      0x00\n      swap1\n      sload\n      swap1\n      0x0100\n      exp\n      swap1\n      div\n      0xffffffffffffffffffffffffffffffffffffffff\n      and\n        /* \"RPS1.sol\":4287:4301  token.transfer */\n      0xffffffffffffffffffffffffffffffffffffffff\n      and\n      0xa9059cbb\n        /* \"RPS1.sol\":4302:4309  players */\n      0x0b\n        /* \"RPS1.sol\":4310:4311  0 */\n      0x00\n        /* \"RPS1.sol\":4302:4312  players[0] */\n      dup2\n      sload\n      dup2\n      lt\n      tag_148\n      jumpi\n      tag_149\n      tag_111\n      jump\t// in\n    tag_149:\n    tag_148:\n      swap1\n      0x00\n      mstore\n      keccak256(0x00, 0x20)\n      add\n      0x00\n      swap1\n      sload\n      swap1\n      0x0100\n      exp\n      swap1\n      div\n      0xffffffffffffffffffffffffffffffffffffffff\n      and\n        /* \"RPS1.sol\":4323:4324  2 */\n      0x02\n        /* \"RPS1.sol\":4314:4320  reward */\n      sload(0x05)\n        /* \"RPS1.sol\":4314:4324  reward / 2 */\n      tag_151\n      swap2\n      swap1\n      tag_152\n      jump\t// in\n    tag_151:\n        /* \"RPS1.sol\":4287:4325  token.transfer(players[0], reward / 2) */\n      mload(0x40)\n      dup4\n      0xffffffff\n      and\n      0xe0\n      shl\n      dup2\n      mstore\n      0x04\n      add\n      tag_153\n      swap3\n      swap2\n      swap1\n      tag_114\n      jump\t// in\n    tag_153:\n      0x20\n      mload(0x40)\n      dup1\n      dup4\n      sub\n      dup2\n      0x00\n      dup8\n      gas\n      call\n      iszero\n      dup1\n      iszero\n      tag_155\n      jumpi\n      returndatasize\n      0x00\n      dup1\n      returndatacopy\n      revert(0x00, returndatasize)\n    tag_155:\n      pop\n      pop\n      pop\n      pop\n      mload(0x40)\n      returndatasize\n      not(0x1f)\n      0x1f\n      dup3\n      add\n      and\n      dup3\n      add\n      dup1\n      0x40\n      mstore\n      pop\n      dup2\n      add\n      swap1\n      tag_156\n      swap2\n      swap1\n      tag_118\n      jump\t// in\n    tag_156:\n      pop\n        /* \"RPS1.sol\":4340:4345  token */\n      0x03\n      0x00\n      swap1\n      sload\n      swap1\n      0x0100\n      exp\n      swap1\n      div\n      0xffffffffffffffffffffffffffffffffffffffff\n      and\n        /* \"RPS1.sol\":4340:4354  token.transfer */\n      0xffffffffffffffffffffffffffffffffffffffff\n      and\n      0xa9059cbb\n        /* \"RPS1.sol\":4355:4362  players */\n      0x0b\n        /* \"RPS1.sol\":4363:4364  1 */\n      0x01\n        /* \"RPS1.sol\":4355:4365  players[1] */\n      dup2\n      sload\n      dup2\n      lt\n      tag_157\n      jumpi\n      tag_158\n      tag_111\n      jump\t// in\n    tag_158:\n    tag_157:\n      swap1\n      0x00\n      mstore\n      keccak256(0x00, 0x20)\n      add\n      0x00\n      swap1\n      sload\n      swap1\n      0x0100\n      exp\n      swap1\n      div\n      0xffffffffffffffffffffffffffffffffffffffff\n      and\n        /* \"RPS1.sol\":4376:4377  2 */\n      0x02\n        /* \"RPS1.sol\":4367:4373  reward */\n      sload(0x05)\n        /* \"RPS1.sol\":4367:4377  reward / 2 */\n      tag_160\n      swap2\n      swap1\n      tag_152\n      jump\t// in\n    tag_160:\n        /* \"RPS1.sol\":4340:4378  token.transfer(players[1], reward / 2) */\n      mload(0x40)\n      dup4\n      0xffffffff\n      and\n      0xe0\n      shl\n      dup2\n      mstore\n      0x04\n      add\n      tag_161\n      swap3\n      swap2\n      swap1\n      tag_114\n      jump\t// in\n    tag_161:\n      0x20\n      mload(0x40)\n      dup1\n      dup4\n      sub\n      dup2\n      0x00\n      dup8\n      gas\n      call\n      iszero\n      dup1\n      iszero\n      tag_163\n      jumpi\n      returndatasize\n      0x00\n      dup1\n      returndatacopy\n      revert(0x00, returndatasize)\n    tag_163:\n      pop\n      pop\n      pop\n      pop\n      mload(0x40)\n      returndatasize\n      not(0x1f)\n      0x1f\n      dup3\n      add\n      and\n      dup3\n      add\n      dup1\n      0x40\n      mstore\n      pop\n      dup2\n      add\n      swap1\n      tag_164\n      swap2\n      swap1\n      tag_118\n      jump\t// in\n    tag_164:\n      pop\n        /* \"RPS1.sol\":4013:4390  if (numReveal == 1) {... */\n    tag_147:\n        /* \"RPS1.sol\":3908:4390  if (numPlayer == 1 || numReveal == 0) {... */\n    tag_119:\n        /* \"RPS1.sol\":4410:4418  _reset() */\n      tag_165\n        /* \"RPS1.sol\":4410:4416  _reset */\n      tag_166\n        /* \"RPS1.sol\":4410:4418  _reset() */\n      jump\t// in\n    tag_165:\n        /* \"RPS1.sol\":3715:4426  function timeOutWithdraw() public {... */\n      jump\t// out\n        /* \"RPS1.sol\":259:281  uint public reward = 0 */\n    tag_33:\n      sload(0x05)\n      dup2\n      jump\t// out\n        /* \"RPS1.sol\":659:1298  function addPlayer() public {... */\n    tag_36:\n        /* \"RPS1.sol\":718:719  2 */\n      0x02\n        /* \"RPS1.sol\":706:715  numPlayer */\n      sload(0x04)\n        /* \"RPS1.sol\":706:719  numPlayer < 2 */\n      lt\n        /* \"RPS1.sol\":698:751  require(numPlayer < 2, \"Game already has 2 players.\") */\n      tag_168\n      jumpi\n      mload(0x40)\n      0x08c379a000000000000000000000000000000000000000000000000000000000\n      dup2\n      mstore\n      0x04\n      add\n      tag_169\n      swap1\n      tag_170\n      jump\t// in\n    tag_169:\n      mload(0x40)\n      dup1\n      swap2\n      sub\n      swap1\n      revert\n    tag_168:\n        /* \"RPS1.sol\":816:830  requiredAmount */\n      sload(0x0c)\n        /* \"RPS1.sol\":770:775  token */\n      0x03\n      0x00\n      swap1\n      sload\n      swap1\n      0x0100\n      exp\n      swap1\n      div\n      0xffffffffffffffffffffffffffffffffffffffff\n      and\n        /* \"RPS1.sol\":770:785  token.allowance */\n      0xffffffffffffffffffffffffffffffffffffffff\n      and\n      0xdd62ed3e\n        /* \"RPS1.sol\":786:796  msg.sender */\n      caller\n        /* \"RPS1.sol\":806:810  this */\n      address\n        /* \"RPS1.sol\":770:812  token.allowance(msg.sender, address(this)) */\n      mload(0x40)\n      dup4\n      0xffffffff\n      and\n      0xe0\n      shl\n      dup2\n      mstore\n      0x04\n      add\n      tag_171\n      swap3\n      swap2\n      swap1\n      tag_172\n      jump\t// in\n    tag_171:\n      0x20\n      mload(0x40)\n      dup1\n      dup4\n      sub\n      dup2\n      dup7\n      gas\n      staticcall\n      iszero\n      dup1\n      iszero\n      tag_174\n      jumpi\n      returndatasize\n      0x00\n      dup1\n      returndatacopy\n      revert(0x00, returndatasize)\n    tag_174:\n      pop\n      pop\n      pop\n      pop\n      mload(0x40)\n      returndatasize\n      not(0x1f)\n      0x1f\n      dup3\n      add\n      and\n      dup3\n      add\n      dup1\n      0x40\n      mstore\n      pop\n      dup2\n      add\n      swap1\n      tag_175\n      swap2\n      swap1\n      tag_176\n      jump\t// in\n    tag_175:\n        /* \"RPS1.sol\":770:830  token.allowance(msg.sender, address(this)) >= requiredAmount */\n      lt\n      iszero\n        /* \"RPS1.sol\":762:870  require(token.allowance(msg.sender, address(this)) >= requiredAmount, \"Approve contract to withdraw funds.\") */\n      tag_177\n      jumpi\n      mload(0x40)\n      0x08c379a000000000000000000000000000000000000000000000000000000000\n      dup2\n      mstore\n      0x04\n      add\n      tag_178\n      swap1\n      tag_179\n      jump\t// in\n    tag_178:\n      mload(0x40)\n      dup1\n      swap2\n      sub\n      swap1\n      revert\n    tag_177:\n        /* \"RPS1.sol\":907:908  0 */\n      0x00\n        /* \"RPS1.sol\":895:904  numPlayer */\n      sload(0x04)\n        /* \"RPS1.sol\":895:908  numPlayer > 0 */\n      gt\n        /* \"RPS1.sol\":891:1002  if (numPlayer > 0) {... */\n      iszero\n      tag_180\n      jumpi\n        /* \"RPS1.sol\":947:954  players */\n      0x0b\n        /* \"RPS1.sol\":955:956  0 */\n      0x00\n        /* \"RPS1.sol\":947:957  players[0] */\n      dup2\n      sload\n      dup2\n      lt\n      tag_181\n      jumpi\n      tag_182\n      tag_111\n      jump\t// in\n    tag_182:\n    tag_181:\n      swap1\n      0x00\n      mstore\n      keccak256(0x00, 0x20)\n      add\n      0x00\n      swap1\n      sload\n      swap1\n      0x0100\n      exp\n      swap1\n      div\n      0xffffffffffffffffffffffffffffffffffffffff\n      and\n        /* \"RPS1.sol\":933:957  msg.sender != players[0] */\n      0xffffffffffffffffffffffffffffffffffffffff\n      and\n        /* \"RPS1.sol\":933:943  msg.sender */\n      caller\n        /* \"RPS1.sol\":933:957  msg.sender != players[0] */\n      0xffffffffffffffffffffffffffffffffffffffff\n      and\n      sub\n        /* \"RPS1.sol\":925:990  require(msg.sender != players[0], \"You are already in the game.\") */\n      tag_184\n      jumpi\n      mload(0x40)\n      0x08c379a000000000000000000000000000000000000000000000000000000000\n      dup2\n      mstore\n      0x04\n      add\n      tag_185\n      swap1\n      tag_186\n      jump\t// in\n    tag_185:\n      mload(0x40)\n      dup1\n      swap2\n      sub\n      swap1\n      revert\n    tag_184:\n        /* \"RPS1.sol\":891:1002  if (numPlayer > 0) {... */\n    tag_180:\n        /* \"RPS1.sol\":1022:1029  players */\n      0x0b\n        /* \"RPS1.sol\":1035:1045  msg.sender */\n      caller\n        /* \"RPS1.sol\":1022:1046  players.push(msg.sender) */\n      swap1\n      dup1\n      0x01\n      dup2\n      sload\n      add\n      dup1\n      dup3\n      sstore\n      dup1\n      swap2\n      pop\n      pop\n      0x01\n      swap1\n      sub\n      swap1\n      0x00\n      mstore\n      keccak256(0x00, 0x20)\n      add\n      0x00\n      swap1\n      swap2\n      swap1\n      swap2\n      swap1\n      swap2\n      0x0100\n      exp\n      dup2\n      sload\n      dup2\n      0xffffffffffffffffffffffffffffffffffffffff\n      mul\n      not\n      and\n      swap1\n      dup4\n      0xffffffffffffffffffffffffffffffffffffffff\n      and\n      mul\n      or\n      swap1\n      sstore\n      pop\n        /* \"RPS1.sol\":1085:1086  5 */\n      0x05\n        /* \"RPS1.sol\":1057:1070  player_choice */\n      0x06\n        /* \"RPS1.sol\":1057:1082  player_choice[msg.sender] */\n      0x00\n        /* \"RPS1.sol\":1071:1081  msg.sender */\n      caller\n        /* \"RPS1.sol\":1057:1082  player_choice[msg.sender] */\n      0xffffffffffffffffffffffffffffffffffffffff\n      and\n      0xffffffffffffffffffffffffffffffffffffffff\n      and\n      dup2\n      mstore\n      0x20\n      add\n      swap1\n      dup2\n      mstore\n      0x20\n      add\n      0x00\n      keccak256\n        /* \"RPS1.sol\":1057:1086  player_choice[msg.sender] = 5 */\n      dup2\n      swap1\n      sstore\n      pop\n        /* \"RPS1.sol\":1133:1138  false */\n      0x00\n        /* \"RPS1.sol\":1110:1118  isCommit */\n      0x07\n        /* \"RPS1.sol\":1110:1130  isCommit[msg.sender] */\n      0x00\n        /* \"RPS1.sol\":1119:1129  msg.sender */\n      caller\n        /* \"RPS1.sol\":1110:1130  isCommit[msg.sender] */\n      0xffffffffffffffffffffffffffffffffffffffff\n      and\n      0xffffffffffffffffffffffffffffffffffffffff\n      and\n      dup2\n      mstore\n      0x20\n      add\n      swap1\n      dup2\n      mstore\n      0x20\n      add\n      0x00\n      keccak256\n      0x00\n        /* \"RPS1.sol\":1110:1138  isCommit[msg.sender] = false */\n      0x0100\n      exp\n      dup2\n      sload\n      dup2\n      0xff\n      mul\n      not\n      and\n      swap1\n      dup4\n      iszero\n      iszero\n      mul\n      or\n      swap1\n      sstore\n      pop\n        /* \"RPS1.sol\":1149:1158  numPlayer */\n      0x04\n      0x00\n        /* \"RPS1.sol\":1149:1160  numPlayer++ */\n      dup2\n      sload\n      dup1\n      swap3\n      swap2\n      swap1\n      tag_188\n      swap1\n      tag_189\n      jump\t// in\n    tag_188:\n      swap2\n      swap1\n      pop\n      sstore\n      pop\n        /* \"RPS1.sol\":1191:1205  requiredAmount */\n      sload(0x0c)\n        /* \"RPS1.sol\":1181:1187  reward */\n      0x05\n      0x00\n        /* \"RPS1.sol\":1181:1205  reward += requiredAmount */\n      dup3\n      dup3\n      sload\n      tag_190\n      swap2\n      swap1\n      tag_191\n      jump\t// in\n    tag_190:\n      swap3\n      pop\n      pop\n      dup2\n      swap1\n      sstore\n      pop\n        /* \"RPS1.sol\":1231:1265  PlayerAdded(msg.sender, numPlayer) */\n      0x0c1de8e9993c058a253c96414b4215583b25fa35e1b6e0facf4d5a0dc2a6f3f8\n        /* \"RPS1.sol\":1243:1253  msg.sender */\n      caller\n        /* \"RPS1.sol\":1255:1264  numPlayer */\n      sload(0x04)\n        /* \"RPS1.sol\":1231:1265  PlayerAdded(msg.sender, numPlayer) */\n      mload(0x40)\n      tag_192\n      swap3\n      swap2\n      swap1\n      tag_114\n      jump\t// in\n    tag_192:\n      mload(0x40)\n      dup1\n      swap2\n      sub\n      swap1\n      log1\n        /* \"RPS1.sol\":1276:1290  setStartTime() */\n      tag_193\n        /* \"RPS1.sol\":1276:1288  setStartTime */\n      tag_194\n        /* \"RPS1.sol\":1276:1290  setStartTime() */\n      jump\t// in\n    tag_193:\n        /* \"RPS1.sol\":659:1298  function addPlayer() public {... */\n      jump\t// out\n        /* \"CommitReveal.sol\":1862:1974  function getHash(bytes32 data) public pure returns(bytes32){... */\n    tag_40:\n        /* \"CommitReveal.sol\":1913:1920  bytes32 */\n      0x00\n        /* \"CommitReveal.sol\":1962:1966  data */\n      dup2\n        /* \"CommitReveal.sol\":1945:1967  abi.encodePacked(data) */\n      add(0x20, mload(0x40))\n      tag_196\n      swap2\n      swap1\n      tag_197\n      jump\t// in\n    tag_196:\n      mload(0x40)\n      0x20\n      dup2\n      dup4\n      sub\n      sub\n      dup2\n      mstore\n      swap1\n      0x40\n      mstore\n        /* \"CommitReveal.sol\":1935:1968  keccak256(abi.encodePacked(data)) */\n      dup1\n      mload\n      swap1\n      0x20\n      add\n      keccak256\n        /* \"CommitReveal.sol\":1928:1968  return keccak256(abi.encodePacked(data)) */\n      swap1\n      pop\n        /* \"CommitReveal.sol\":1862:1974  function getHash(bytes32 data) public pure returns(bytes32){... */\n      swap2\n      swap1\n      pop\n      jump\t// out\n        /* \"RPS1.sol\":340:380  mapping(address => bool) public isCommit */\n    tag_46:\n      mstore(0x20, 0x07)\n      dup1\n      0x00\n      mstore\n      keccak256(0x00, 0x40)\n      0x00\n      swap2\n      pop\n      sload\n      swap1\n      0x0100\n      exp\n      swap1\n      div\n      0xff\n      and\n      dup2\n      jump\t// out\n        /* \"RPS1.sol\":527:573  uint256 public requiredAmount = 0.000001 ether */\n    tag_50:\n      sload(0x0c)\n      dup2\n      jump\t// out\n        /* \"RPS1.sol\":1849:2444  function revealChoice(bytes32 hashChoice) public {... */\n    tag_54:\n        /* \"RPS1.sol\":1930:1931  2 */\n      0x02\n        /* \"RPS1.sol\":1917:1926  numPlayer */\n      sload(0x04)\n        /* \"RPS1.sol\":1917:1931  numPlayer == 2 */\n      eq\n        /* \"RPS1.sol\":1909:1932  require(numPlayer == 2) */\n      tag_199\n      jumpi\n      0x00\n      dup1\n      revert\n    tag_199:\n        /* \"RPS1.sol\":1963:1964  2 */\n      0x02\n        /* \"RPS1.sol\":1951:1959  numInput */\n      sload(0x08)\n        /* \"RPS1.sol\":1951:1964  numInput == 2 */\n      eq\n        /* \"RPS1.sol\":1943:1965  require(numInput == 2) */\n      tag_200\n      jumpi\n      0x00\n      dup1\n      revert\n    tag_200:\n        /* \"RPS1.sol\":1984:1992  isCommit */\n      0x07\n        /* \"RPS1.sol\":1984:2004  isCommit[msg.sender] */\n      0x00\n        /* \"RPS1.sol\":1993:2003  msg.sender */\n      caller\n        /* \"RPS1.sol\":1984:2004  isCommit[msg.sender] */\n      0xffffffffffffffffffffffffffffffffffffffff\n      and\n      0xffffffffffffffffffffffffffffffffffffffff\n      and\n      dup2\n      mstore\n      0x20\n      add\n      swap1\n      dup2\n      mstore\n      0x20\n      add\n      0x00\n      keccak256\n      0x00\n      swap1\n      sload\n      swap1\n      0x0100\n      exp\n      swap1\n      div\n      0xff\n      and\n        /* \"RPS1.sol\":1976:2034  require(isCommit[msg.sender], \"You need to commit first.\") */\n      tag_201\n      jumpi\n      mload(0x40)\n      0x08c379a000000000000000000000000000000000000000000000000000000000\n      dup2\n      mstore\n      0x04\n      add\n      tag_202\n      swap1\n      tag_203\n      jump\t// in\n    tag_202:\n      mload(0x40)\n      dup1\n      swap2\n      sub\n      swap1\n      revert\n    tag_201:\n        /* \"RPS1.sol\":2055:2066  uint choice */\n      0x00\n        /* \"RPS1.sol\":2075:2085  hashChoice */\n      dup2\n        /* \"RPS1.sol\":2086:2088  31 */\n      0x1f\n        /* \"RPS1.sol\":2075:2089  hashChoice[31] */\n      0x20\n      dup2\n      lt\n      tag_204\n      jumpi\n      tag_205\n      tag_111\n      jump\t// in\n    tag_205:\n    tag_204:\n      byte\n      0xf8\n      shl\n        /* \"RPS1.sol\":2069:2090  uint8(hashChoice[31]) */\n      0xf8\n      shr\n        /* \"RPS1.sol\":2055:2090  uint choice = uint8(hashChoice[31]) */\n      0xff\n      and\n      swap1\n      pop\n        /* \"RPS1.sol\":2119:2120  0 */\n      0x00\n        /* \"RPS1.sol\":2109:2115  choice */\n      dup2\n        /* \"RPS1.sol\":2109:2120  choice >= 0 */\n      lt\n      iszero\n        /* \"RPS1.sol\":2109:2135  choice >= 0 && choice <= 4 */\n      dup1\n      iszero\n      tag_206\n      jumpi\n      pop\n        /* \"RPS1.sol\":2134:2135  4 */\n      0x04\n        /* \"RPS1.sol\":2124:2130  choice */\n      dup2\n        /* \"RPS1.sol\":2124:2135  choice <= 4 */\n      gt\n      iszero\n        /* \"RPS1.sol\":2109:2135  choice >= 0 && choice <= 4 */\n    tag_206:\n        /* \"RPS1.sol\":2101:2155  require(choice >= 0 && choice <= 4, \"Invalid choice.\") */\n      tag_207\n      jumpi\n      mload(0x40)\n      0x08c379a000000000000000000000000000000000000000000000000000000000\n      dup2\n      mstore\n      0x04\n      add\n      tag_208\n      swap1\n      tag_209\n      jump\t// in\n    tag_208:\n      mload(0x40)\n      dup1\n      swap2\n      sub\n      swap1\n      revert\n    tag_207:\n        /* \"RPS1.sol\":2176:2194  reveal(hashChoice) */\n      tag_210\n        /* \"RPS1.sol\":2183:2193  hashChoice */\n      dup3\n        /* \"RPS1.sol\":2176:2182  reveal */\n      tag_211\n        /* \"RPS1.sol\":2176:2194  reveal(hashChoice) */\n      jump\t// in\n    tag_210:\n        /* \"RPS1.sol\":2233:2239  choice */\n      dup1\n        /* \"RPS1.sol\":2205:2218  player_choice */\n      0x06\n        /* \"RPS1.sol\":2205:2230  player_choice[msg.sender] */\n      0x00\n        /* \"RPS1.sol\":2219:2229  msg.sender */\n      caller\n        /* \"RPS1.sol\":2205:2230  player_choice[msg.sender] */\n      0xffffffffffffffffffffffffffffffffffffffff\n      and\n      0xffffffffffffffffffffffffffffffffffffffff\n      and\n      dup2\n      mstore\n      0x20\n      add\n      swap1\n      dup2\n      mstore\n      0x20\n      add\n      0x00\n      keccak256\n        /* \"RPS1.sol\":2205:2239  player_choice[msg.sender] = choice */\n      dup2\n      swap1\n      sstore\n      pop\n        /* \"RPS1.sol\":2250:2259  numReveal */\n      0x09\n      0x00\n        /* \"RPS1.sol\":2250:2261  numReveal++ */\n      dup2\n      sload\n      dup1\n      swap3\n      swap2\n      swap1\n      tag_212\n      swap1\n      tag_189\n      jump\t// in\n    tag_212:\n      swap2\n      swap1\n      pop\n      sstore\n      pop\n        /* \"RPS1.sol\":2282:2296  setStartTime() */\n      tag_213\n        /* \"RPS1.sol\":2282:2294  setStartTime */\n      tag_194\n        /* \"RPS1.sol\":2282:2296  setStartTime() */\n      jump\t// in\n    tag_213:\n        /* \"RPS1.sol\":2334:2335  2 */\n      0x02\n        /* \"RPS1.sol\":2321:2330  numReveal */\n      sload(0x09)\n        /* \"RPS1.sol\":2321:2335  numReveal == 2 */\n      sub\n        /* \"RPS1.sol\":2317:2437  if (numReveal == 2) {... */\n      tag_214\n      jumpi\n        /* \"RPS1.sol\":2352:2367  _collectFunds() */\n      tag_215\n        /* \"RPS1.sol\":2352:2365  _collectFunds */\n      tag_216\n        /* \"RPS1.sol\":2352:2367  _collectFunds() */\n      jump\t// in\n    tag_215:\n        /* \"RPS1.sol\":2382:2402  _checkWinnerAndPay() */\n      tag_217\n        /* \"RPS1.sol\":2382:2400  _checkWinnerAndPay */\n      tag_218\n        /* \"RPS1.sol\":2382:2402  _checkWinnerAndPay() */\n      jump\t// in\n    tag_217:\n        /* \"RPS1.sol\":2417:2425  _reset() */\n      tag_219\n        /* \"RPS1.sol\":2417:2423  _reset */\n      tag_166\n        /* \"RPS1.sol\":2417:2425  _reset() */\n      jump\t// in\n    tag_219:\n        /* \"RPS1.sol\":2317:2437  if (numReveal == 2) {... */\n    tag_214:\n        /* \"RPS1.sol\":1898:2444  {... */\n      pop\n        /* \"RPS1.sol\":1849:2444  function revealChoice(bytes32 hashChoice) public {... */\n      pop\n      jump\t// out\n        /* \"CommitReveal.sol\":103:125  uint8 public max = 100 */\n    tag_56:\n      0x00\n      dup1\n      sload\n      swap1\n      0x0100\n      exp\n      swap1\n      div\n      0xff\n      and\n      dup2\n      jump\t// out\n        /* \"TimeUnit.sol\":307:331  uint256 public startTime */\n    tag_60:\n      sload(0x02)\n      dup2\n      jump\t// out\n        /* \"CommitReveal.sol\":218:260  mapping (address => Commit) public commits */\n    tag_64:\n      mstore(0x20, 0x01)\n      dup1\n      0x00\n      mstore\n      keccak256(0x00, 0x40)\n      0x00\n      swap2\n      pop\n      swap1\n      pop\n      dup1\n      0x00\n      add\n      sload\n      swap1\n      dup1\n      0x01\n      add\n      0x00\n      swap1\n      sload\n      swap1\n      0x0100\n      exp\n      swap1\n      div\n      0xffffffffffffffff\n      and\n      swap1\n      dup1\n      0x01\n      add\n      0x08\n      swap1\n      sload\n      swap1\n      0x0100\n      exp\n      swap1\n      div\n      0xff\n      and\n      swap1\n      pop\n      dup4\n      jump\t// out\n        /* \"RPS1.sol\":450:489  uint public timeoutDuration = 1 minutes */\n    tag_68:\n      sload(0x0a)\n      dup2\n      jump\t// out\n        /* \"RPS1.sol\":227:252  uint public numPlayer = 0 */\n    tag_71:\n      sload(0x04)\n      dup2\n      jump\t// out\n        /* \"RPS1.sol\":288:333  mapping(address => uint) public player_choice */\n    tag_75:\n      mstore(0x20, 0x06)\n      dup1\n      0x00\n      mstore\n      keccak256(0x00, 0x40)\n      0x00\n      swap2\n      pop\n      swap1\n      pop\n      sload\n      dup2\n      jump\t// out\n        /* \"TimeUnit.sol\":578:685  function elapsedSeconds() public view returns (uint256) { ... */\n    tag_78:\n        /* \"TimeUnit.sol\":625:632  uint256 */\n      0x00\n        /* \"TimeUnit.sol\":668:677  startTime */\n      sload(0x02)\n        /* \"TimeUnit.sol\":650:665  block.timestamp */\n      timestamp\n        /* \"TimeUnit.sol\":650:677  block.timestamp - startTime */\n      tag_221\n      swap2\n      swap1\n      tag_222\n      jump\t// in\n    tag_221:\n        /* \"TimeUnit.sol\":642:678  return (block.timestamp - startTime) */\n      swap1\n      pop\n        /* \"TimeUnit.sol\":578:685  function elapsedSeconds() public view returns (uint256) { ... */\n      swap1\n      jump\t// out\n        /* \"RPS1.sol\":418:443  uint public numReveal = 0 */\n    tag_81:\n      sload(0x09)\n      dup2\n      jump\t// out\n        /* \"RPS1.sol\":1364:1777  function input(bytes32 hashAns) public {... */\n    tag_85:\n        /* \"RPS1.sol\":1435:1436  2 */\n      0x02\n        /* \"RPS1.sol\":1422:1431  numPlayer */\n      sload(0x04)\n        /* \"RPS1.sol\":1422:1436  numPlayer == 2 */\n      eq\n        /* \"RPS1.sol\":1414:1462  require(numPlayer == 2, \"Game needs 2 players.\") */\n      tag_224\n      jumpi\n      mload(0x40)\n      0x08c379a000000000000000000000000000000000000000000000000000000000\n      dup2\n      mstore\n      0x04\n      add\n      tag_225\n      swap1\n      tag_226\n      jump\t// in\n    tag_225:\n      mload(0x40)\n      dup1\n      swap2\n      sub\n      swap1\n      revert\n    tag_224:\n        /* \"RPS1.sol\":1492:1493  2 */\n      0x02\n        /* \"RPS1.sol\":1481:1489  numInput */\n      sload(0x08)\n        /* \"RPS1.sol\":1481:1493  numInput < 2 */\n      lt\n        /* \"RPS1.sol\":1473:1516  require(numInput < 2, \"Already committed.\") */\n      tag_227\n      jumpi\n      mload(0x40)\n      0x08c379a000000000000000000000000000000000000000000000000000000000\n      dup2\n      mstore\n      0x04\n      add\n      tag_228\n      swap1\n      tag_229\n      jump\t// in\n    tag_228:\n      mload(0x40)\n      dup1\n      swap2\n      sub\n      swap1\n      revert\n    tag_227:\n        /* \"RPS1.sol\":1536:1544  isCommit */\n      0x07\n        /* \"RPS1.sol\":1536:1556  isCommit[msg.sender] */\n      0x00\n        /* \"RPS1.sol\":1545:1555  msg.sender */\n      caller\n        /* \"RPS1.sol\":1536:1556  isCommit[msg.sender] */\n      0xffffffffffffffffffffffffffffffffffffffff\n      and\n      0xffffffffffffffffffffffffffffffffffffffff\n      and\n      dup2\n      mstore\n      0x20\n      add\n      swap1\n      dup2\n      mstore\n      0x20\n      add\n      0x00\n      keccak256\n      0x00\n      swap1\n      sload\n      swap1\n      0x0100\n      exp\n      swap1\n      div\n      0xff\n      and\n        /* \"RPS1.sol\":1535:1556  !isCommit[msg.sender] */\n      iszero\n        /* \"RPS1.sol\":1527:1583  require(!isCommit[msg.sender], \"You already committed.\") */\n      tag_230\n      jumpi\n      mload(0x40)\n      0x08c379a000000000000000000000000000000000000000000000000000000000\n      dup2\n      mstore\n      0x04\n      add\n      tag_231\n      swap1\n      tag_232\n      jump\t// in\n    tag_231:\n      mload(0x40)\n      dup1\n      swap2\n      sub\n      swap1\n      revert\n    tag_230:\n        /* \"RPS1.sol\":1627:1631  true */\n      0x01\n        /* \"RPS1.sol\":1604:1612  isCommit */\n      0x07\n        /* \"RPS1.sol\":1604:1624  isCommit[msg.sender] */\n      0x00\n        /* \"RPS1.sol\":1613:1623  msg.sender */\n      caller\n        /* \"RPS1.sol\":1604:1624  isCommit[msg.sender] */\n      0xffffffffffffffffffffffffffffffffffffffff\n      and\n      0xffffffffffffffffffffffffffffffffffffffff\n      and\n      dup2\n      mstore\n      0x20\n      add\n      swap1\n      dup2\n      mstore\n      0x20\n      add\n      0x00\n      keccak256\n      0x00\n        /* \"RPS1.sol\":1604:1631  isCommit[msg.sender] = true */\n      0x0100\n      exp\n      dup2\n      sload\n      dup2\n      0xff\n      mul\n      not\n      and\n      swap1\n      dup4\n      iszero\n      iszero\n      mul\n      or\n      swap1\n      sstore\n      pop\n        /* \"RPS1.sol\":1642:1657  commit(hashAns) */\n      tag_233\n        /* \"RPS1.sol\":1649:1656  hashAns */\n      dup2\n        /* \"RPS1.sol\":1642:1648  commit */\n      tag_234\n        /* \"RPS1.sol\":1642:1657  commit(hashAns) */\n      jump\t// in\n    tag_233:\n        /* \"RPS1.sol\":1668:1676  numInput */\n      0x08\n      0x00\n        /* \"RPS1.sol\":1668:1678  numInput++ */\n      dup2\n      sload\n      dup1\n      swap3\n      swap2\n      swap1\n      tag_235\n      swap1\n      tag_189\n      jump\t// in\n    tag_235:\n      swap2\n      swap1\n      pop\n      sstore\n      pop\n        /* \"RPS1.sol\":1704:1744  PlayerCommitHashed(msg.sender, numInput) */\n      0xa8fb792d8bb1782eba00886b053364d6972fa987197717655665c13d3696ea9e\n        /* \"RPS1.sol\":1723:1733  msg.sender */\n      caller\n        /* \"RPS1.sol\":1735:1743  numInput */\n      sload(0x08)\n        /* \"RPS1.sol\":1704:1744  PlayerCommitHashed(msg.sender, numInput) */\n      mload(0x40)\n      tag_236\n      swap3\n      swap2\n      swap1\n      tag_114\n      jump\t// in\n    tag_236:\n      mload(0x40)\n      dup1\n      swap2\n      sub\n      swap1\n      log1\n        /* \"RPS1.sol\":1755:1769  setStartTime() */\n      tag_237\n        /* \"RPS1.sol\":1755:1767  setStartTime */\n      tag_194\n        /* \"RPS1.sol\":1755:1769  setStartTime() */\n      jump\t// in\n    tag_237:\n        /* \"RPS1.sol\":1364:1777  function input(bytes32 hashAns) public {... */\n      pop\n      jump\t// out\n        /* \"TimeUnit.sol\":801:1084  function elapsedMinutes() public view returns (uint256) { ... */\n    tag_87:\n        /* \"TimeUnit.sol\":848:855  uint256 */\n      0x00\n        /* \"TimeUnit.sol\":1068:1077  1 minutes */\n      0x3c\n        /* \"TimeUnit.sol\":1055:1064  startTime */\n      sload(0x02)\n        /* \"TimeUnit.sol\":1037:1052  block.timestamp */\n      timestamp\n        /* \"TimeUnit.sol\":1037:1064  block.timestamp - startTime */\n      tag_239\n      swap2\n      swap1\n      tag_222\n      jump\t// in\n    tag_239:\n        /* \"TimeUnit.sol\":1036:1077  (block.timestamp - startTime) / 1 minutes */\n      tag_240\n      swap2\n      swap1\n      tag_152\n      jump\t// in\n    tag_240:\n        /* \"TimeUnit.sol\":1029:1077  return (block.timestamp - startTime) / 1 minutes */\n      swap1\n      pop\n        /* \"TimeUnit.sol\":801:1084  function elapsedMinutes() public view returns (uint256) { ... */\n      swap1\n      jump\t// out\n        /* \"RPS1.sol\":496:520  address[] public players */\n    tag_92:\n      0x0b\n      dup2\n      dup2\n      sload\n      dup2\n      lt\n      tag_241\n      jumpi\n      0x00\n      dup1\n      revert\n    tag_241:\n      swap1\n      0x00\n      mstore\n      keccak256(0x00, 0x20)\n      add\n      0x00\n      swap2\n      pop\n      sload\n      swap1\n      0x0100\n      exp\n      swap1\n      div\n      0xffffffffffffffffffffffffffffffffffffffff\n      and\n      dup2\n      jump\t// out\n        /* \"RPS1.sol\":201:220  IERC20 public token */\n    tag_96:\n      0x03\n      0x00\n      swap1\n      sload\n      swap1\n      0x0100\n      exp\n      swap1\n      div\n      0xffffffffffffffffffffffffffffffffffffffff\n      and\n      dup2\n      jump\t// out\n        /* \"RPS1.sol\":3556:3707  function _reset() private {... */\n    tag_166:\n        /* \"RPS1.sol\":3600:3607  players */\n      0x0b\n      0x00\n        /* \"RPS1.sol\":3593:3607  delete players */\n      tag_244\n      swap2\n      swap1\n      tag_245\n      jump\t// in\n    tag_244:\n        /* \"RPS1.sol\":3630:3631  0 */\n      0x00\n        /* \"RPS1.sol\":3618:3627  numPlayer */\n      0x04\n        /* \"RPS1.sol\":3618:3631  numPlayer = 0 */\n      dup2\n      swap1\n      sstore\n      pop\n        /* \"RPS1.sol\":3653:3654  0 */\n      0x00\n        /* \"RPS1.sol\":3642:3650  numInput */\n      0x08\n        /* \"RPS1.sol\":3642:3654  numInput = 0 */\n      dup2\n      swap1\n      sstore\n      pop\n        /* \"RPS1.sol\":3677:3678  0 */\n      0x00\n        /* \"RPS1.sol\":3665:3674  numReveal */\n      0x09\n        /* \"RPS1.sol\":3665:3678  numReveal = 0 */\n      dup2\n      swap1\n      sstore\n      pop\n        /* \"RPS1.sol\":3698:3699  0 */\n      0x00\n        /* \"RPS1.sol\":3689:3695  reward */\n      0x05\n        /* \"RPS1.sol\":3689:3699  reward = 0 */\n      dup2\n      swap1\n      sstore\n      pop\n        /* \"RPS1.sol\":3556:3707  function _reset() private {... */\n      jump\t// out\n        /* \"TimeUnit.sol\":379:454  function setStartTime() internal { ... */\n    tag_194:\n        /* \"TimeUnit.sol\":432:447  block.timestamp */\n      timestamp\n        /* \"TimeUnit.sol\":420:429  startTime */\n      0x02\n        /* \"TimeUnit.sol\":420:447  startTime = block.timestamp */\n      dup2\n      swap1\n      sstore\n      pop\n        /* \"TimeUnit.sol\":379:454  function setStartTime() internal { ... */\n      jump\t// out\n        /* \"CommitReveal.sol\":620:1786  function reveal(bytes32 revealHash) internal {... */\n    tag_211:\n        /* \"CommitReveal.sol\":778:783  false */\n      0x00\n        /* \"CommitReveal.sol\":748:783  commits[msg.sender].revealed==false */\n      iszero\n      iszero\n        /* \"CommitReveal.sol\":748:755  commits */\n      0x01\n        /* \"CommitReveal.sol\":748:767  commits[msg.sender] */\n      0x00\n        /* \"CommitReveal.sol\":756:766  msg.sender */\n      caller\n        /* \"CommitReveal.sol\":748:767  commits[msg.sender] */\n      0xffffffffffffffffffffffffffffffffffffffff\n      and\n      0xffffffffffffffffffffffffffffffffffffffff\n      and\n      dup2\n      mstore\n      0x20\n      add\n      swap1\n      dup2\n      mstore\n      0x20\n      add\n      0x00\n      keccak256\n        /* \"CommitReveal.sol\":748:776  commits[msg.sender].revealed */\n      0x01\n      add\n      0x08\n      swap1\n      sload\n      swap1\n      0x0100\n      exp\n      swap1\n      div\n      0xff\n      and\n        /* \"CommitReveal.sol\":748:783  commits[msg.sender].revealed==false */\n      iszero\n      iszero\n      eq\n        /* \"CommitReveal.sol\":740:825  require(commits[msg.sender].revealed==false,\"CommitReveal::reveal: Already revealed\") */\n      tag_248\n      jumpi\n      mload(0x40)\n      0x08c379a000000000000000000000000000000000000000000000000000000000\n      dup2\n      mstore\n      0x04\n      add\n      tag_249\n      swap1\n      tag_250\n      jump\t// in\n    tag_249:\n      mload(0x40)\n      dup1\n      swap2\n      sub\n      swap1\n      revert\n    tag_248:\n        /* \"CommitReveal.sol\":861:865  true */\n      0x01\n        /* \"CommitReveal.sol\":832:839  commits */\n      dup1\n        /* \"CommitReveal.sol\":832:851  commits[msg.sender] */\n      0x00\n        /* \"CommitReveal.sol\":840:850  msg.sender */\n      caller\n        /* \"CommitReveal.sol\":832:851  commits[msg.sender] */\n      0xffffffffffffffffffffffffffffffffffffffff\n      and\n      0xffffffffffffffffffffffffffffffffffffffff\n      and\n      dup2\n      mstore\n      0x20\n      add\n      swap1\n      dup2\n      mstore\n      0x20\n      add\n      0x00\n      keccak256\n        /* \"CommitReveal.sol\":832:860  commits[msg.sender].revealed */\n      0x01\n      add\n      0x08\n        /* \"CommitReveal.sol\":832:865  commits[msg.sender].revealed=true */\n      0x0100\n      exp\n      dup2\n      sload\n      dup2\n      0xff\n      mul\n      not\n      and\n      swap1\n      dup4\n      iszero\n      iszero\n      mul\n      or\n      swap1\n      sstore\n      pop\n        /* \"CommitReveal.sol\":957:964  commits */\n      0x01\n        /* \"CommitReveal.sol\":957:976  commits[msg.sender] */\n      0x00\n        /* \"CommitReveal.sol\":965:975  msg.sender */\n      caller\n        /* \"CommitReveal.sol\":957:976  commits[msg.sender] */\n      0xffffffffffffffffffffffffffffffffffffffff\n      and\n      0xffffffffffffffffffffffffffffffffffffffff\n      and\n      dup2\n      mstore\n      0x20\n      add\n      swap1\n      dup2\n      mstore\n      0x20\n      add\n      0x00\n      keccak256\n        /* \"CommitReveal.sol\":957:983  commits[msg.sender].commit */\n      0x00\n      add\n      sload\n        /* \"CommitReveal.sol\":936:955  getHash(revealHash) */\n      tag_251\n        /* \"CommitReveal.sol\":944:954  revealHash */\n      dup3\n        /* \"CommitReveal.sol\":936:943  getHash */\n      tag_40\n        /* \"CommitReveal.sol\":936:955  getHash(revealHash) */\n      jump\t// in\n    tag_251:\n        /* \"CommitReveal.sol\":936:983  getHash(revealHash)==commits[msg.sender].commit */\n      eq\n        /* \"CommitReveal.sol\":928:1044  require(getHash(revealHash)==commits[msg.sender].commit,\"CommitReveal::reveal: Revealed hash does not match commit\") */\n      tag_252\n      jumpi\n      mload(0x40)\n      0x08c379a000000000000000000000000000000000000000000000000000000000\n      dup2\n      mstore\n      0x04\n      add\n      tag_253\n      swap1\n      tag_254\n      jump\t// in\n    tag_253:\n      mload(0x40)\n      dup1\n      swap2\n      sub\n      swap1\n      revert\n    tag_252:\n        /* \"CommitReveal.sol\":1152:1159  commits */\n      0x01\n        /* \"CommitReveal.sol\":1152:1171  commits[msg.sender] */\n      0x00\n        /* \"CommitReveal.sol\":1160:1170  msg.sender */\n      caller\n        /* \"CommitReveal.sol\":1152:1171  commits[msg.sender] */\n      0xffffffffffffffffffffffffffffffffffffffff\n      and\n      0xffffffffffffffffffffffffffffffffffffffff\n      and\n      dup2\n      mstore\n      0x20\n      add\n      swap1\n      dup2\n      mstore\n      0x20\n      add\n      0x00\n      keccak256\n        /* \"CommitReveal.sol\":1152:1177  commits[msg.sender].block */\n      0x01\n      add\n      0x00\n      swap1\n      sload\n      swap1\n      0x0100\n      exp\n      swap1\n      div\n      0xffffffffffffffff\n      and\n        /* \"CommitReveal.sol\":1131:1177  uint64(block.number)>commits[msg.sender].block */\n      0xffffffffffffffff\n      and\n        /* \"CommitReveal.sol\":1138:1150  block.number */\n      number\n        /* \"CommitReveal.sol\":1131:1177  uint64(block.number)>commits[msg.sender].block */\n      0xffffffffffffffff\n      and\n      gt\n        /* \"CommitReveal.sol\":1123:1247  require(uint64(block.number)>commits[msg.sender].block,\"CommitReveal::reveal: Reveal and commit happened on the same block\") */\n      tag_255\n      jumpi\n      mload(0x40)\n      0x08c379a000000000000000000000000000000000000000000000000000000000\n      dup2\n      mstore\n      0x04\n      add\n      tag_256\n      swap1\n      tag_257\n      jump\t// in\n    tag_256:\n      mload(0x40)\n      dup1\n      swap2\n      sub\n      swap1\n      revert\n    tag_255:\n        /* \"CommitReveal.sol\":1366:1369  250 */\n      0xfa\n        /* \"CommitReveal.sol\":1340:1347  commits */\n      0x01\n        /* \"CommitReveal.sol\":1340:1359  commits[msg.sender] */\n      0x00\n        /* \"CommitReveal.sol\":1348:1358  msg.sender */\n      caller\n        /* \"CommitReveal.sol\":1340:1359  commits[msg.sender] */\n      0xffffffffffffffffffffffffffffffffffffffff\n      and\n      0xffffffffffffffffffffffffffffffffffffffff\n      and\n      dup2\n      mstore\n      0x20\n      add\n      swap1\n      dup2\n      mstore\n      0x20\n      add\n      0x00\n      keccak256\n        /* \"CommitReveal.sol\":1340:1365  commits[msg.sender].block */\n      0x01\n      add\n      0x00\n      swap1\n      sload\n      swap1\n      0x0100\n      exp\n      swap1\n      div\n      0xffffffffffffffff\n      and\n        /* \"CommitReveal.sol\":1340:1369  commits[msg.sender].block+250 */\n      tag_258\n      swap2\n      swap1\n      tag_259\n      jump\t// in\n    tag_258:\n        /* \"CommitReveal.sol\":1318:1369  uint64(block.number)<=commits[msg.sender].block+250 */\n      0xffffffffffffffff\n      and\n        /* \"CommitReveal.sol\":1325:1337  block.number */\n      number\n        /* \"CommitReveal.sol\":1318:1369  uint64(block.number)<=commits[msg.sender].block+250 */\n      0xffffffffffffffff\n      and\n      gt\n      iszero\n        /* \"CommitReveal.sol\":1310:1412  require(uint64(block.number)<=commits[msg.sender].block+250,\"CommitReveal::reveal: Revealed too late\") */\n      tag_260\n      jumpi\n      mload(0x40)\n      0x08c379a000000000000000000000000000000000000000000000000000000000\n      dup2\n      mstore\n      0x04\n      add\n      tag_261\n      swap1\n      tag_262\n      jump\t// in\n    tag_261:\n      mload(0x40)\n      dup1\n      swap2\n      sub\n      swap1\n      revert\n    tag_260:\n        /* \"CommitReveal.sol\":1487:1504  bytes32 blockHash */\n      0x00\n        /* \"CommitReveal.sol\":1517:1524  commits */\n      0x01\n        /* \"CommitReveal.sol\":1517:1536  commits[msg.sender] */\n      0x00\n        /* \"CommitReveal.sol\":1525:1535  msg.sender */\n      caller\n        /* \"CommitReveal.sol\":1517:1536  commits[msg.sender] */\n      0xffffffffffffffffffffffffffffffffffffffff\n      and\n      0xffffffffffffffffffffffffffffffffffffffff\n      and\n      dup2\n      mstore\n      0x20\n      add\n      swap1\n      dup2\n      mstore\n      0x20\n      add\n      0x00\n      keccak256\n        /* \"CommitReveal.sol\":1517:1542  commits[msg.sender].block */\n      0x01\n      add\n      0x00\n      swap1\n      sload\n      swap1\n      0x0100\n      exp\n      swap1\n      div\n      0xffffffffffffffff\n      and\n        /* \"CommitReveal.sol\":1507:1543  blockhash(commits[msg.sender].block) */\n      0xffffffffffffffff\n      and\n      blockhash\n        /* \"CommitReveal.sol\":1487:1543  bytes32 blockHash = blockhash(commits[msg.sender].block) */\n      swap1\n      pop\n        /* \"CommitReveal.sol\":1655:1666  uint random */\n      0x00\n        /* \"CommitReveal.sol\":1725:1728  max */\n      dup1\n      0x00\n      swap1\n      sload\n      swap1\n      0x0100\n      exp\n      swap1\n      div\n      0xff\n      and\n        /* \"CommitReveal.sol\":1669:1728  uint(keccak256(abi.encodePacked(blockHash,revealHash)))%max */\n      0xff\n      and\n        /* \"CommitReveal.sol\":1701:1710  blockHash */\n      dup3\n        /* \"CommitReveal.sol\":1711:1721  revealHash */\n      dup5\n        /* \"CommitReveal.sol\":1684:1722  abi.encodePacked(blockHash,revealHash) */\n      add(0x20, mload(0x40))\n      tag_263\n      swap3\n      swap2\n      swap1\n      tag_264\n      jump\t// in\n    tag_263:\n      mload(0x40)\n      0x20\n      dup2\n      dup4\n      sub\n      sub\n      dup2\n      mstore\n      swap1\n      0x40\n      mstore\n        /* \"CommitReveal.sol\":1674:1723  keccak256(abi.encodePacked(blockHash,revealHash)) */\n      dup1\n      mload\n      swap1\n      0x20\n      add\n      keccak256\n        /* \"CommitReveal.sol\":1669:1724  uint(keccak256(abi.encodePacked(blockHash,revealHash))) */\n      0x00\n      shr\n        /* \"CommitReveal.sol\":1669:1728  uint(keccak256(abi.encodePacked(blockHash,revealHash)))%max */\n      tag_265\n      swap2\n      swap1\n      tag_266\n      jump\t// in\n    tag_265:\n        /* \"CommitReveal.sol\":1655:1728  uint random = uint(keccak256(abi.encodePacked(blockHash,revealHash)))%max */\n      swap1\n      pop\n        /* \"CommitReveal.sol\":1740:1780  RevealHash(msg.sender,revealHash,random) */\n      0xbc016dd1cadeaefcb851af7a0a93532e0023d536894b730801f7bcfe7065bcc2\n        /* \"CommitReveal.sol\":1751:1761  msg.sender */\n      caller\n        /* \"CommitReveal.sol\":1762:1772  revealHash */\n      dup5\n        /* \"CommitReveal.sol\":1773:1779  random */\n      dup4\n        /* \"CommitReveal.sol\":1740:1780  RevealHash(msg.sender,revealHash,random) */\n      mload(0x40)\n      tag_267\n      swap4\n      swap3\n      swap2\n      swap1\n      tag_268\n      jump\t// in\n    tag_267:\n      mload(0x40)\n      dup1\n      swap2\n      sub\n      swap1\n      log1\n        /* \"CommitReveal.sol\":665:1786  {... */\n      pop\n      pop\n        /* \"CommitReveal.sol\":620:1786  function reveal(bytes32 revealHash) internal {... */\n      pop\n      jump\t// out\n        /* \"RPS1.sol\":2452:2932  function _collectFunds() private {... */\n    tag_216:\n        /* \"RPS1.sol\":2550:2564  requiredAmount */\n      sload(0x0c)\n        /* \"RPS1.sol\":2504:2509  token */\n      0x03\n      0x00\n      swap1\n      sload\n      swap1\n      0x0100\n      exp\n      swap1\n      div\n      0xffffffffffffffffffffffffffffffffffffffff\n      and\n        /* \"RPS1.sol\":2504:2519  token.allowance */\n      0xffffffffffffffffffffffffffffffffffffffff\n      and\n      0xdd62ed3e\n        /* \"RPS1.sol\":2520:2527  players */\n      0x0b\n        /* \"RPS1.sol\":2528:2529  0 */\n      0x00\n        /* \"RPS1.sol\":2520:2530  players[0] */\n      dup2\n      sload\n      dup2\n      lt\n      tag_270\n      jumpi\n      tag_271\n      tag_111\n      jump\t// in\n    tag_271:\n    tag_270:\n      swap1\n      0x00\n      mstore\n      keccak256(0x00, 0x20)\n      add\n      0x00\n      swap1\n      sload\n      swap1\n      0x0100\n      exp\n      swap1\n      div\n      0xffffffffffffffffffffffffffffffffffffffff\n      and\n        /* \"RPS1.sol\":2540:2544  this */\n      address\n        /* \"RPS1.sol\":2504:2546  token.allowance(players[0], address(this)) */\n      mload(0x40)\n      dup4\n      0xffffffff\n      and\n      0xe0\n      shl\n      dup2\n      mstore\n      0x04\n      add\n      tag_273\n      swap3\n      swap2\n      swap1\n      tag_172\n      jump\t// in\n    tag_273:\n      0x20\n      mload(0x40)\n      dup1\n      dup4\n      sub\n      dup2\n      dup7\n      gas\n      staticcall\n      iszero\n      dup1\n      iszero\n      tag_275\n      jumpi\n      returndatasize\n      0x00\n      dup1\n      returndatacopy\n      revert(0x00, returndatasize)\n    tag_275:\n      pop\n      pop\n      pop\n      pop\n      mload(0x40)\n      returndatasize\n      not(0x1f)\n      0x1f\n      dup3\n      add\n      and\n      dup3\n      add\n      dup1\n      0x40\n      mstore\n      pop\n      dup2\n      add\n      swap1\n      tag_276\n      swap2\n      swap1\n      tag_176\n      jump\t// in\n    tag_276:\n        /* \"RPS1.sol\":2504:2564  token.allowance(players[0], address(this)) >= requiredAmount */\n      lt\n      iszero\n        /* \"RPS1.sol\":2496:2608  require(token.allowance(players[0], address(this)) >= requiredAmount, \"Player 1 has not approved enough funds.\") */\n      tag_277\n      jumpi\n      mload(0x40)\n      0x08c379a000000000000000000000000000000000000000000000000000000000\n      dup2\n      mstore\n      0x04\n      add\n      tag_278\n      swap1\n      tag_279\n      jump\t// in\n    tag_278:\n      mload(0x40)\n      dup1\n      swap2\n      sub\n      swap1\n      revert\n    tag_277:\n        /* \"RPS1.sol\":2673:2687  requiredAmount */\n      sload(0x0c)\n        /* \"RPS1.sol\":2627:2632  token */\n      0x03\n      0x00\n      swap1\n      sload\n      swap1\n      0x0100\n      exp\n      swap1\n      div\n      0xffffffffffffffffffffffffffffffffffffffff\n      and\n        /* \"RPS1.sol\":2627:2642  token.allowance */\n      0xffffffffffffffffffffffffffffffffffffffff\n      and\n      0xdd62ed3e\n        /* \"RPS1.sol\":2643:2650  players */\n      0x0b\n        /* \"RPS1.sol\":2651:2652  1 */\n      0x01\n        /* \"RPS1.sol\":2643:2653  players[1] */\n      dup2\n      sload\n      dup2\n      lt\n      tag_280\n      jumpi\n      tag_281\n      tag_111\n      jump\t// in\n    tag_281:\n    tag_280:\n      swap1\n      0x00\n      mstore\n      keccak256(0x00, 0x20)\n      add\n      0x00\n      swap1\n      sload\n      swap1\n      0x0100\n      exp\n      swap1\n      div\n      0xffffffffffffffffffffffffffffffffffffffff\n      and\n        /* \"RPS1.sol\":2663:2667  this */\n      address\n        /* \"RPS1.sol\":2627:2669  token.allowance(players[1], address(this)) */\n      mload(0x40)\n      dup4\n      0xffffffff\n      and\n      0xe0\n      shl\n      dup2\n      mstore\n      0x04\n      add\n      tag_283\n      swap3\n      swap2\n      swap1\n      tag_172\n      jump\t// in\n    tag_283:\n      0x20\n      mload(0x40)\n      dup1\n      dup4\n      sub\n      dup2\n      dup7\n      gas\n      staticcall\n      iszero\n      dup1\n      iszero\n      tag_285\n      jumpi\n      returndatasize\n      0x00\n      dup1\n      returndatacopy\n      revert(0x00, returndatasize)\n    tag_285:\n      pop\n      pop\n      pop\n      pop\n      mload(0x40)\n      returndatasize\n      not(0x1f)\n      0x1f\n      dup3\n      add\n      and\n      dup3\n      add\n      dup1\n      0x40\n      mstore\n      pop\n      dup2\n      add\n      swap1\n      tag_286\n      swap2\n      swap1\n      tag_176\n      jump\t// in\n    tag_286:\n        /* \"RPS1.sol\":2627:2687  token.allowance(players[1], address(this)) >= requiredAmount */\n      lt\n      iszero\n        /* \"RPS1.sol\":2619:2731  require(token.allowance(players[1], address(this)) >= requiredAmount, \"Player 2 has not approved enough funds.\") */\n      tag_287\n      jumpi\n      mload(0x40)\n      0x08c379a000000000000000000000000000000000000000000000000000000000\n      dup2\n      mstore\n      0x04\n      add\n      tag_288\n      swap1\n      tag_289\n      jump\t// in\n    tag_288:\n      mload(0x40)\n      dup1\n      swap2\n      sub\n      swap1\n      revert\n    tag_287:\n        /* \"RPS1.sol\":2752:2757  token */\n      0x03\n      0x00\n      swap1\n      sload\n      swap1\n      0x0100\n      exp\n      swap1\n      div\n      0xffffffffffffffffffffffffffffffffffffffff\n      and\n        /* \"RPS1.sol\":2752:2770  token.transferFrom */\n      0xffffffffffffffffffffffffffffffffffffffff\n      and\n      0x23b872dd\n        /* \"RPS1.sol\":2771:2778  players */\n      0x0b\n        /* \"RPS1.sol\":2779:2780  0 */\n      0x00\n        /* \"RPS1.sol\":2771:2781  players[0] */\n      dup2\n      sload\n      dup2\n      lt\n      tag_290\n      jumpi\n      tag_291\n      tag_111\n      jump\t// in\n    tag_291:\n    tag_290:\n      swap1\n      0x00\n      mstore\n      keccak256(0x00, 0x20)\n      add\n      0x00\n      swap1\n      sload\n      swap1\n      0x0100\n      exp\n      swap1\n      div\n      0xffffffffffffffffffffffffffffffffffffffff\n      and\n        /* \"RPS1.sol\":2791:2795  this */\n      address\n        /* \"RPS1.sol\":2798:2812  requiredAmount */\n      sload(0x0c)\n        /* \"RPS1.sol\":2752:2813  token.transferFrom(players[0], address(this), requiredAmount) */\n      mload(0x40)\n      dup5\n      0xffffffff\n      and\n      0xe0\n      shl\n      dup2\n      mstore\n      0x04\n      add\n      tag_293\n      swap4\n      swap3\n      swap2\n      swap1\n      tag_294\n      jump\t// in\n    tag_293:\n      0x20\n      mload(0x40)\n      dup1\n      dup4\n      sub\n      dup2\n      0x00\n      dup8\n      gas\n      call\n      iszero\n      dup1\n      iszero\n      tag_296\n      jumpi\n      returndatasize\n      0x00\n      dup1\n      returndatacopy\n      revert(0x00, returndatasize)\n    tag_296:\n      pop\n      pop\n      pop\n      pop\n      mload(0x40)\n      returndatasize\n      not(0x1f)\n      0x1f\n      dup3\n      add\n      and\n      dup3\n      add\n      dup1\n      0x40\n      mstore\n      pop\n      dup2\n      add\n      swap1\n      tag_297\n      swap2\n      swap1\n      tag_118\n      jump\t// in\n    tag_297:\n      pop\n        /* \"RPS1.sol\":2824:2829  token */\n      0x03\n      0x00\n      swap1\n      sload\n      swap1\n      0x0100\n      exp\n      swap1\n      div\n      0xffffffffffffffffffffffffffffffffffffffff\n      and\n        /* \"RPS1.sol\":2824:2842  token.transferFrom */\n      0xffffffffffffffffffffffffffffffffffffffff\n      and\n      0x23b872dd\n        /* \"RPS1.sol\":2843:2850  players */\n      0x0b\n        /* \"RPS1.sol\":2851:2852  1 */\n      0x01\n        /* \"RPS1.sol\":2843:2853  players[1] */\n      dup2\n      sload\n      dup2\n      lt\n      tag_298\n      jumpi\n      tag_299\n      tag_111\n      jump\t// in\n    tag_299:\n    tag_298:\n      swap1\n      0x00\n      mstore\n      keccak256(0x00, 0x20)\n      add\n      0x00\n      swap1\n      sload\n      swap1\n      0x0100\n      exp\n      swap1\n      div\n      0xffffffffffffffffffffffffffffffffffffffff\n      and\n        /* \"RPS1.sol\":2863:2867  this */\n      address\n        /* \"RPS1.sol\":2870:2884  requiredAmount */\n      sload(0x0c)\n        /* \"RPS1.sol\":2824:2885  token.transferFrom(players[1], address(this), requiredAmount) */\n      mload(0x40)\n      dup5\n      0xffffffff\n      and\n      0xe0\n      shl\n      dup2\n      mstore\n      0x04\n      add\n      tag_301\n      swap4\n      swap3\n      swap2\n      swap1\n      tag_294\n      jump\t// in\n    tag_301:\n      0x20\n      mload(0x40)\n      dup1\n      dup4\n      sub\n      dup2\n      0x00\n      dup8\n      gas\n      call\n      iszero\n      dup1\n      iszero\n      tag_303\n      jumpi\n      returndatasize\n      0x00\n      dup1\n      returndatacopy\n      revert(0x00, returndatasize)\n    tag_303:\n      pop\n      pop\n      pop\n      pop\n      mload(0x40)\n      returndatasize\n      not(0x1f)\n      0x1f\n      dup3\n      add\n      and\n      dup3\n      add\n      dup1\n      0x40\n      mstore\n      pop\n      dup2\n      add\n      swap1\n      tag_304\n      swap2\n      swap1\n      tag_118\n      jump\t// in\n    tag_304:\n      pop\n        /* \"RPS1.sol\":2923:2924  2 */\n      0x02\n        /* \"RPS1.sol\":2906:2920  requiredAmount */\n      sload(0x0c)\n        /* \"RPS1.sol\":2906:2924  requiredAmount * 2 */\n      tag_305\n      swap2\n      swap1\n      tag_306\n      jump\t// in\n    tag_305:\n        /* \"RPS1.sol\":2896:2902  reward */\n      0x05\n      0x00\n        /* \"RPS1.sol\":2896:2924  reward += requiredAmount * 2 */\n      dup3\n      dup3\n      sload\n      tag_307\n      swap2\n      swap1\n      tag_191\n      jump\t// in\n    tag_307:\n      swap3\n      pop\n      pop\n      dup2\n      swap1\n      sstore\n      pop\n        /* \"RPS1.sol\":2452:2932  function _collectFunds() private {... */\n      jump\t// out\n        /* \"RPS1.sol\":2940:3548  function _checkWinnerAndPay() private {... */\n    tag_218:\n        /* \"RPS1.sol\":2989:3002  uint p0Choice */\n      0x00\n        /* \"RPS1.sol\":3005:3018  player_choice */\n      0x06\n        /* \"RPS1.sol\":3005:3030  player_choice[players[0]] */\n      0x00\n        /* \"RPS1.sol\":3019:3026  players */\n      0x0b\n        /* \"RPS1.sol\":3027:3028  0 */\n      0x00\n        /* \"RPS1.sol\":3019:3029  players[0] */\n      dup2\n      sload\n      dup2\n      lt\n      tag_309\n      jumpi\n      tag_310\n      tag_111\n      jump\t// in\n    tag_310:\n    tag_309:\n      swap1\n      0x00\n      mstore\n      keccak256(0x00, 0x20)\n      add\n      0x00\n      swap1\n      sload\n      swap1\n      0x0100\n      exp\n      swap1\n      div\n      0xffffffffffffffffffffffffffffffffffffffff\n      and\n        /* \"RPS1.sol\":3005:3030  player_choice[players[0]] */\n      0xffffffffffffffffffffffffffffffffffffffff\n      and\n      0xffffffffffffffffffffffffffffffffffffffff\n      and\n      dup2\n      mstore\n      0x20\n      add\n      swap1\n      dup2\n      mstore\n      0x20\n      add\n      0x00\n      keccak256\n      sload\n        /* \"RPS1.sol\":2989:3030  uint p0Choice = player_choice[players[0]] */\n      swap1\n      pop\n        /* \"RPS1.sol\":3041:3054  uint p1Choice */\n      0x00\n        /* \"RPS1.sol\":3057:3070  player_choice */\n      0x06\n        /* \"RPS1.sol\":3057:3082  player_choice[players[1]] */\n      0x00\n        /* \"RPS1.sol\":3071:3078  players */\n      0x0b\n        /* \"RPS1.sol\":3079:3080  1 */\n      0x01\n        /* \"RPS1.sol\":3071:3081  players[1] */\n      dup2\n      sload\n      dup2\n      lt\n      tag_312\n      jumpi\n      tag_313\n      tag_111\n      jump\t// in\n    tag_313:\n    tag_312:\n      swap1\n      0x00\n      mstore\n      keccak256(0x00, 0x20)\n      add\n      0x00\n      swap1\n      sload\n      swap1\n      0x0100\n      exp\n      swap1\n      div\n      0xffffffffffffffffffffffffffffffffffffffff\n      and\n        /* \"RPS1.sol\":3057:3082  player_choice[players[1]] */\n      0xffffffffffffffffffffffffffffffffffffffff\n      and\n      0xffffffffffffffffffffffffffffffffffffffff\n      and\n      dup2\n      mstore\n      0x20\n      add\n      swap1\n      dup2\n      mstore\n      0x20\n      add\n      0x00\n      keccak256\n      sload\n        /* \"RPS1.sol\":3041:3082  uint p1Choice = player_choice[players[1]] */\n      swap1\n      pop\n        /* \"RPS1.sol\":3093:3107  address winner */\n      0x00\n        /* \"RPS1.sol\":3136:3144  p1Choice */\n      dup2\n        /* \"RPS1.sol\":3124:3132  p0Choice */\n      dup4\n        /* \"RPS1.sol\":3124:3144  p0Choice == p1Choice */\n      sub\n        /* \"RPS1.sol\":3120:3438  if (p0Choice == p1Choice) {... */\n      tag_315\n      jumpi\n        /* \"RPS1.sol\":3161:3166  token */\n      0x03\n      0x00\n      swap1\n      sload\n      swap1\n      0x0100\n      exp\n      swap1\n      div\n      0xffffffffffffffffffffffffffffffffffffffff\n      and\n        /* \"RPS1.sol\":3161:3175  token.transfer */\n      0xffffffffffffffffffffffffffffffffffffffff\n      and\n      0xa9059cbb\n        /* \"RPS1.sol\":3176:3183  players */\n      0x0b\n        /* \"RPS1.sol\":3184:3185  0 */\n      0x00\n        /* \"RPS1.sol\":3176:3186  players[0] */\n      dup2\n      sload\n      dup2\n      lt\n      tag_316\n      jumpi\n      tag_317\n      tag_111\n      jump\t// in\n    tag_317:\n    tag_316:\n      swap1\n      0x00\n      mstore\n      keccak256(0x00, 0x20)\n      add\n      0x00\n      swap1\n      sload\n      swap1\n      0x0100\n      exp\n      swap1\n      div\n      0xffffffffffffffffffffffffffffffffffffffff\n      and\n        /* \"RPS1.sol\":3197:3198  2 */\n      0x02\n        /* \"RPS1.sol\":3188:3194  reward */\n      sload(0x05)\n        /* \"RPS1.sol\":3188:3198  reward / 2 */\n      tag_319\n      swap2\n      swap1\n      tag_152\n      jump\t// in\n    tag_319:\n        /* \"RPS1.sol\":3161:3199  token.transfer(players[0], reward / 2) */\n      mload(0x40)\n      dup4\n      0xffffffff\n      and\n      0xe0\n      shl\n      dup2\n      mstore\n      0x04\n      add\n      tag_320\n      swap3\n      swap2\n      swap1\n      tag_114\n      jump\t// in\n    tag_320:\n      0x20\n      mload(0x40)\n      dup1\n      dup4\n      sub\n      dup2\n      0x00\n      dup8\n      gas\n      call\n      iszero\n      dup1\n      iszero\n      tag_322\n      jumpi\n      returndatasize\n      0x00\n      dup1\n      returndatacopy\n      revert(0x00, returndatasize)\n    tag_322:\n      pop\n      pop\n      pop\n      pop\n      mload(0x40)\n      returndatasize\n      not(0x1f)\n      0x1f\n      dup3\n      add\n      and\n      dup3\n      add\n      dup1\n      0x40\n      mstore\n      pop\n      dup2\n      add\n      swap1\n      tag_323\n      swap2\n      swap1\n      tag_118\n      jump\t// in\n    tag_323:\n      pop\n        /* \"RPS1.sol\":3214:3219  token */\n      0x03\n      0x00\n      swap1\n      sload\n      swap1\n      0x0100\n      exp\n      swap1\n      div\n      0xffffffffffffffffffffffffffffffffffffffff\n      and\n        /* \"RPS1.sol\":3214:3228  token.transfer */\n      0xffffffffffffffffffffffffffffffffffffffff\n      and\n      0xa9059cbb\n        /* \"RPS1.sol\":3229:3236  players */\n      0x0b\n        /* \"RPS1.sol\":3237:3238  1 */\n      0x01\n        /* \"RPS1.sol\":3229:3239  players[1] */\n      dup2\n      sload\n      dup2\n      lt\n      tag_324\n      jumpi\n      tag_325\n      tag_111\n      jump\t// in\n    tag_325:\n    tag_324:\n      swap1\n      0x00\n      mstore\n      keccak256(0x00, 0x20)\n      add\n      0x00\n      swap1\n      sload\n      swap1\n      0x0100\n      exp\n      swap1\n      div\n      0xffffffffffffffffffffffffffffffffffffffff\n      and\n        /* \"RPS1.sol\":3250:3251  2 */\n      0x02\n        /* \"RPS1.sol\":3241:3247  reward */\n      sload(0x05)\n        /* \"RPS1.sol\":3241:3251  reward / 2 */\n      tag_327\n      swap2\n      swap1\n      tag_152\n      jump\t// in\n    tag_327:\n        /* \"RPS1.sol\":3214:3252  token.transfer(players[1], reward / 2) */\n      mload(0x40)\n      dup4\n      0xffffffff\n      and\n      0xe0\n      shl\n      dup2\n      mstore\n      0x04\n      add\n      tag_328\n      swap3\n      swap2\n      swap1\n      tag_114\n      jump\t// in\n    tag_328:\n      0x20\n      mload(0x40)\n      dup1\n      dup4\n      sub\n      dup2\n      0x00\n      dup8\n      gas\n      call\n      iszero\n      dup1\n      iszero\n      tag_330\n      jumpi\n      returndatasize\n      0x00\n      dup1\n      returndatacopy\n      revert(0x00, returndatasize)\n    tag_330:\n      pop\n      pop\n      pop\n      pop\n      mload(0x40)\n      returndatasize\n      not(0x1f)\n      0x1f\n      dup3\n      add\n      and\n      dup3\n      add\n      dup1\n      0x40\n      mstore\n      pop\n      dup2\n      add\n      swap1\n      tag_331\n      swap2\n      swap1\n      tag_118\n      jump\t// in\n    tag_331:\n      pop\n        /* \"RPS1.sol\":3120:3438  if (p0Choice == p1Choice) {... */\n      jump(tag_332)\n    tag_315:\n        /* \"RPS1.sol\":3296:3304  p1Choice */\n      dup2\n        /* \"RPS1.sol\":3291:3292  5 */\n      0x05\n        /* \"RPS1.sol\":3286:3287  1 */\n      0x01\n        /* \"RPS1.sol\":3275:3283  p0Choice */\n      dup6\n        /* \"RPS1.sol\":3275:3287  p0Choice + 1 */\n      tag_333\n      swap2\n      swap1\n      tag_191\n      jump\t// in\n    tag_333:\n        /* \"RPS1.sol\":3274:3292  (p0Choice + 1) % 5 */\n      tag_334\n      swap2\n      swap1\n      tag_266\n      jump\t// in\n    tag_334:\n        /* \"RPS1.sol\":3274:3304  (p0Choice + 1) % 5 == p1Choice */\n      eq\n        /* \"RPS1.sol\":3274:3338  (p0Choice + 1) % 5 == p1Choice || (p0Choice + 3) % 5 == p1Choice */\n      dup1\n      tag_335\n      jumpi\n      pop\n        /* \"RPS1.sol\":3330:3338  p1Choice */\n      dup2\n        /* \"RPS1.sol\":3325:3326  5 */\n      0x05\n        /* \"RPS1.sol\":3320:3321  3 */\n      0x03\n        /* \"RPS1.sol\":3309:3317  p0Choice */\n      dup6\n        /* \"RPS1.sol\":3309:3321  p0Choice + 3 */\n      tag_336\n      swap2\n      swap1\n      tag_191\n      jump\t// in\n    tag_336:\n        /* \"RPS1.sol\":3308:3326  (p0Choice + 3) % 5 */\n      tag_337\n      swap2\n      swap1\n      tag_266\n      jump\t// in\n    tag_337:\n        /* \"RPS1.sol\":3308:3338  (p0Choice + 3) % 5 == p1Choice */\n      eq\n        /* \"RPS1.sol\":3274:3338  (p0Choice + 1) % 5 == p1Choice || (p0Choice + 3) % 5 == p1Choice */\n    tag_335:\n        /* \"RPS1.sol\":3270:3438  if ((p0Choice + 1) % 5 == p1Choice || (p0Choice + 3) % 5 == p1Choice) {... */\n      iszero\n      tag_338\n      jumpi\n        /* \"RPS1.sol\":3364:3371  players */\n      0x0b\n        /* \"RPS1.sol\":3372:3373  1 */\n      0x01\n        /* \"RPS1.sol\":3364:3374  players[1] */\n      dup2\n      sload\n      dup2\n      lt\n      tag_339\n      jumpi\n      tag_340\n      tag_111\n      jump\t// in\n    tag_340:\n    tag_339:\n      swap1\n      0x00\n      mstore\n      keccak256(0x00, 0x20)\n      add\n      0x00\n      swap1\n      sload\n      swap1\n      0x0100\n      exp\n      swap1\n      div\n      0xffffffffffffffffffffffffffffffffffffffff\n      and\n        /* \"RPS1.sol\":3355:3374  winner = players[1] */\n      swap1\n      pop\n        /* \"RPS1.sol\":3270:3438  if ((p0Choice + 1) % 5 == p1Choice || (p0Choice + 3) % 5 == p1Choice) {... */\n      jump(tag_342)\n    tag_338:\n        /* \"RPS1.sol\":3416:3423  players */\n      0x0b\n        /* \"RPS1.sol\":3424:3425  0 */\n      0x00\n        /* \"RPS1.sol\":3416:3426  players[0] */\n      dup2\n      sload\n      dup2\n      lt\n      tag_343\n      jumpi\n      tag_344\n      tag_111\n      jump\t// in\n    tag_344:\n    tag_343:\n      swap1\n      0x00\n      mstore\n      keccak256(0x00, 0x20)\n      add\n      0x00\n      swap1\n      sload\n      swap1\n      0x0100\n      exp\n      swap1\n      div\n      0xffffffffffffffffffffffffffffffffffffffff\n      and\n        /* \"RPS1.sol\":3407:3426  winner = players[0] */\n      swap1\n      pop\n        /* \"RPS1.sol\":3270:3438  if ((p0Choice + 1) % 5 == p1Choice || (p0Choice + 3) % 5 == p1Choice) {... */\n    tag_342:\n        /* \"RPS1.sol\":3120:3438  if (p0Choice == p1Choice) {... */\n    tag_332:\n        /* \"RPS1.sol\":3480:3481  0 */\n      0x00\n        /* \"RPS1.sol\":3462:3482  winner != address(0) */\n      0xffffffffffffffffffffffffffffffffffffffff\n      and\n        /* \"RPS1.sol\":3462:3468  winner */\n      dup2\n        /* \"RPS1.sol\":3462:3482  winner != address(0) */\n      0xffffffffffffffffffffffffffffffffffffffff\n      and\n      eq\n        /* \"RPS1.sol\":3458:3541  if (winner != address(0)) {... */\n      tag_346\n      jumpi\n        /* \"RPS1.sol\":3499:3504  token */\n      0x03\n      0x00\n      swap1\n      sload\n      swap1\n      0x0100\n      exp\n      swap1\n      div\n      0xffffffffffffffffffffffffffffffffffffffff\n      and\n        /* \"RPS1.sol\":3499:3513  token.transfer */\n      0xffffffffffffffffffffffffffffffffffffffff\n      and\n      0xa9059cbb\n        /* \"RPS1.sol\":3514:3520  winner */\n      dup3\n        /* \"RPS1.sol\":3522:3528  reward */\n      sload(0x05)\n        /* \"RPS1.sol\":3499:3529  token.transfer(winner, reward) */\n      mload(0x40)\n      dup4\n      0xffffffff\n      and\n      0xe0\n      shl\n      dup2\n      mstore\n      0x04\n      add\n      tag_347\n      swap3\n      swap2\n      swap1\n      tag_114\n      jump\t// in\n    tag_347:\n      0x20\n      mload(0x40)\n      dup1\n      dup4\n      sub\n      dup2\n      0x00\n      dup8\n      gas\n      call\n      iszero\n      dup1\n      iszero\n      tag_349\n      jumpi\n      returndatasize\n      0x00\n      dup1\n      returndatacopy\n      revert(0x00, returndatasize)\n    tag_349:\n      pop\n      pop\n      pop\n      pop\n      mload(0x40)\n      returndatasize\n      not(0x1f)\n      0x1f\n      dup3\n      add\n      and\n      dup3\n      add\n      dup1\n      0x40\n      mstore\n      pop\n      dup2\n      add\n      swap1\n      tag_350\n      swap2\n      swap1\n      tag_118\n      jump\t// in\n    tag_350:\n      pop\n        /* \"RPS1.sol\":3458:3541  if (winner != address(0)) {... */\n    tag_346:\n        /* \"RPS1.sol\":2978:3548  {... */\n      pop\n      pop\n      pop\n        /* \"RPS1.sol\":2940:3548  function _checkWinnerAndPay() private {... */\n      jump\t// out\n        /* \"CommitReveal.sol\":267:545  function commit(bytes32 dataHash) internal {... */\n    tag_234:\n        /* \"CommitReveal.sol\":346:354  dataHash */\n      dup1\n        /* \"CommitReveal.sol\":317:324  commits */\n      0x01\n        /* \"CommitReveal.sol\":317:336  commits[msg.sender] */\n      0x00\n        /* \"CommitReveal.sol\":325:335  msg.sender */\n      caller\n        /* \"CommitReveal.sol\":317:336  commits[msg.sender] */\n      0xffffffffffffffffffffffffffffffffffffffff\n      and\n      0xffffffffffffffffffffffffffffffffffffffff\n      and\n      dup2\n      mstore\n      0x20\n      add\n      swap1\n      dup2\n      mstore\n      0x20\n      add\n      0x00\n      keccak256\n        /* \"CommitReveal.sol\":317:343  commits[msg.sender].commit */\n      0x00\n      add\n        /* \"CommitReveal.sol\":317:354  commits[msg.sender].commit = dataHash */\n      dup2\n      swap1\n      sstore\n      pop\n        /* \"CommitReveal.sol\":396:408  block.number */\n      number\n        /* \"CommitReveal.sol\":361:368  commits */\n      0x01\n        /* \"CommitReveal.sol\":361:380  commits[msg.sender] */\n      0x00\n        /* \"CommitReveal.sol\":369:379  msg.sender */\n      caller\n        /* \"CommitReveal.sol\":361:380  commits[msg.sender] */\n      0xffffffffffffffffffffffffffffffffffffffff\n      and\n      0xffffffffffffffffffffffffffffffffffffffff\n      and\n      dup2\n      mstore\n      0x20\n      add\n      swap1\n      dup2\n      mstore\n      0x20\n      add\n      0x00\n      keccak256\n        /* \"CommitReveal.sol\":361:386  commits[msg.sender].block */\n      0x01\n      add\n      0x00\n        /* \"CommitReveal.sol\":361:409  commits[msg.sender].block = uint64(block.number) */\n      0x0100\n      exp\n      dup2\n      sload\n      dup2\n      0xffffffffffffffff\n      mul\n      not\n      and\n      swap1\n      dup4\n      0xffffffffffffffff\n      and\n      mul\n      or\n      swap1\n      sstore\n      pop\n        /* \"CommitReveal.sol\":447:452  false */\n      0x00\n        /* \"CommitReveal.sol\":416:423  commits */\n      0x01\n        /* \"CommitReveal.sol\":416:435  commits[msg.sender] */\n      0x00\n        /* \"CommitReveal.sol\":424:434  msg.sender */\n      caller\n        /* \"CommitReveal.sol\":416:435  commits[msg.sender] */\n      0xffffffffffffffffffffffffffffffffffffffff\n      and\n      0xffffffffffffffffffffffffffffffffffffffff\n      and\n      dup2\n      mstore\n      0x20\n      add\n      swap1\n      dup2\n      mstore\n      0x20\n      add\n      0x00\n      keccak256\n        /* \"CommitReveal.sol\":416:444  commits[msg.sender].revealed */\n      0x01\n      add\n      0x08\n        /* \"CommitReveal.sol\":416:452  commits[msg.sender].revealed = false */\n      0x0100\n      exp\n      dup2\n      sload\n      dup2\n      0xff\n      mul\n      not\n      and\n      swap1\n      dup4\n      iszero\n      iszero\n      mul\n      or\n      swap1\n      sstore\n      pop\n        /* \"CommitReveal.sol\":464:539  CommitHash(msg.sender,commits[msg.sender].commit,commits[msg.sender].block) */\n      0x3c1a1f8f38335b17f751c6da4ba7d1865f26b3997535176f5080de9fad891603\n        /* \"CommitReveal.sol\":475:485  msg.sender */\n      caller\n        /* \"CommitReveal.sol\":486:493  commits */\n      0x01\n        /* \"CommitReveal.sol\":486:505  commits[msg.sender] */\n      0x00\n        /* \"CommitReveal.sol\":494:504  msg.sender */\n      caller\n        /* \"CommitReveal.sol\":486:505  commits[msg.sender] */\n      0xffffffffffffffffffffffffffffffffffffffff\n      and\n      0xffffffffffffffffffffffffffffffffffffffff\n      and\n      dup2\n      mstore\n      0x20\n      add\n      swap1\n      dup2\n      mstore\n      0x20\n      add\n      0x00\n      keccak256\n        /* \"CommitReveal.sol\":486:512  commits[msg.sender].commit */\n      0x00\n      add\n      sload\n        /* \"CommitReveal.sol\":513:520  commits */\n      0x01\n        /* \"CommitReveal.sol\":513:532  commits[msg.sender] */\n      0x00\n        /* \"CommitReveal.sol\":521:531  msg.sender */\n      caller\n        /* \"CommitReveal.sol\":513:532  commits[msg.sender] */\n      0xffffffffffffffffffffffffffffffffffffffff\n      and\n      0xffffffffffffffffffffffffffffffffffffffff\n      and\n      dup2\n      mstore\n      0x20\n      add\n      swap1\n      dup2\n      mstore\n      0x20\n      add\n      0x00\n      keccak256\n        /* \"CommitReveal.sol\":513:538  commits[msg.sender].block */\n      0x01\n      add\n      0x00\n      swap1\n      sload\n      swap1\n      0x0100\n      exp\n      swap1\n      div\n      0xffffffffffffffff\n      and\n        /* \"CommitReveal.sol\":464:539  CommitHash(msg.sender,commits[msg.sender].commit,commits[msg.sender].block) */\n      mload(0x40)\n      tag_352\n      swap4\n      swap3\n      swap2\n      swap1\n      tag_353\n      jump\t// in\n    tag_352:\n      mload(0x40)\n      dup1\n      swap2\n      sub\n      swap1\n      log1\n        /* \"CommitReveal.sol\":267:545  function commit(bytes32 dataHash) internal {... */\n      pop\n      jump\t// out\n    tag_245:\n      pop\n      dup1\n      sload\n      0x00\n      dup3\n      sstore\n      swap1\n      0x00\n      mstore\n      keccak256(0x00, 0x20)\n      swap1\n      dup2\n      add\n      swap1\n      tag_355\n      swap2\n      swap1\n      tag_356\n      jump\t// in\n    tag_355:\n      pop\n      jump\t// out\n    tag_356:\n    tag_357:\n      dup1\n      dup3\n      gt\n      iszero\n      tag_358\n      jumpi\n      0x00\n      dup2\n      0x00\n      swap1\n      sstore\n      pop\n      0x01\n      add\n      jump(tag_357)\n    tag_358:\n      pop\n      swap1\n      jump\t// out\n        /* \"#utility.yul\":7:84   */\n    tag_359:\n        /* \"#utility.yul\":44:51   */\n      0x00\n        /* \"#utility.yul\":73:78   */\n      dup2\n        /* \"#utility.yul\":62:78   */\n      swap1\n      pop\n        /* \"#utility.yul\":7:84   */\n      swap2\n      swap1\n      pop\n      jump\t// out\n        /* \"#utility.yul\":90:208   */\n    tag_360:\n        /* \"#utility.yul\":177:201   */\n      tag_429\n        /* \"#utility.yul\":195:200   */\n      dup2\n        /* \"#utility.yul\":177:201   */\n      tag_359\n      jump\t// in\n    tag_429:\n        /* \"#utility.yul\":172:175   */\n      dup3\n        /* \"#utility.yul\":165:202   */\n      mstore\n        /* \"#utility.yul\":90:208   */\n      pop\n      pop\n      jump\t// out\n        /* \"#utility.yul\":214:436   */\n    tag_29:\n        /* \"#utility.yul\":307:311   */\n      0x00\n        /* \"#utility.yul\":345:347   */\n      0x20\n        /* \"#utility.yul\":334:343   */\n      dup3\n        /* \"#utility.yul\":330:348   */\n      add\n        /* \"#utility.yul\":322:348   */\n      swap1\n      pop\n        /* \"#utility.yul\":358:429   */\n      tag_431\n        /* \"#utility.yul\":426:427   */\n      0x00\n        /* \"#utility.yul\":415:424   */\n      dup4\n        /* \"#utility.yul\":411:428   */\n      add\n        /* \"#utility.yul\":402:408   */\n      dup5\n        /* \"#utility.yul\":358:429   */\n      tag_360\n      jump\t// in\n    tag_431:\n        /* \"#utility.yul\":214:436   */\n      swap3\n      swap2\n      pop\n      pop\n      jump\t// out\n        /* \"#utility.yul\":523:640   */\n    tag_362:\n        /* \"#utility.yul\":632:633   */\n      0x00\n        /* \"#utility.yul\":629:630   */\n      dup1\n        /* \"#utility.yul\":622:634   */\n      revert\n        /* \"#utility.yul\":769:846   */\n    tag_364:\n        /* \"#utility.yul\":806:813   */\n      0x00\n        /* \"#utility.yul\":835:840   */\n      dup2\n        /* \"#utility.yul\":824:840   */\n      swap1\n      pop\n        /* \"#utility.yul\":769:846   */\n      swap2\n      swap1\n      pop\n      jump\t// out\n        /* \"#utility.yul\":852:974   */\n    tag_365:\n        /* \"#utility.yul\":925:949   */\n      tag_437\n        /* \"#utility.yul\":943:948   */\n      dup2\n        /* \"#utility.yul\":925:949   */\n      tag_364\n      jump\t// in\n    tag_437:\n        /* \"#utility.yul\":918:923   */\n      dup2\n        /* \"#utility.yul\":915:950   */\n      eq\n        /* \"#utility.yul\":905:968   */\n      tag_438\n      jumpi\n        /* \"#utility.yul\":964:965   */\n      0x00\n        /* \"#utility.yul\":961:962   */\n      dup1\n        /* \"#utility.yul\":954:966   */\n      revert\n        /* \"#utility.yul\":905:968   */\n    tag_438:\n        /* \"#utility.yul\":852:974   */\n      pop\n      jump\t// out\n        /* \"#utility.yul\":980:1119   */\n    tag_366:\n        /* \"#utility.yul\":1026:1031   */\n      0x00\n        /* \"#utility.yul\":1064:1070   */\n      dup2\n        /* \"#utility.yul\":1051:1071   */\n      calldataload\n        /* \"#utility.yul\":1042:1071   */\n      swap1\n      pop\n        /* \"#utility.yul\":1080:1113   */\n      tag_440\n        /* \"#utility.yul\":1107:1112   */\n      dup2\n        /* \"#utility.yul\":1080:1113   */\n      tag_365\n      jump\t// in\n    tag_440:\n        /* \"#utility.yul\":980:1119   */\n      swap3\n      swap2\n      pop\n      pop\n      jump\t// out\n        /* \"#utility.yul\":1125:1454   */\n    tag_39:\n        /* \"#utility.yul\":1184:1190   */\n      0x00\n        /* \"#utility.yul\":1233:1235   */\n      0x20\n        /* \"#utility.yul\":1221:1230   */\n      dup3\n        /* \"#utility.yul\":1212:1219   */\n      dup5\n        /* \"#utility.yul\":1208:1231   */\n      sub\n        /* \"#utility.yul\":1204:1236   */\n      slt\n        /* \"#utility.yul\":1201:1320   */\n      iszero\n      tag_442\n      jumpi\n        /* \"#utility.yul\":1239:1318   */\n      tag_443\n      tag_362\n      jump\t// in\n    tag_443:\n        /* \"#utility.yul\":1201:1320   */\n    tag_442:\n        /* \"#utility.yul\":1359:1360   */\n      0x00\n        /* \"#utility.yul\":1384:1437   */\n      tag_444\n        /* \"#utility.yul\":1429:1436   */\n      dup5\n        /* \"#utility.yul\":1420:1426   */\n      dup3\n        /* \"#utility.yul\":1409:1418   */\n      dup6\n        /* \"#utility.yul\":1405:1427   */\n      add\n        /* \"#utility.yul\":1384:1437   */\n      tag_366\n      jump\t// in\n    tag_444:\n        /* \"#utility.yul\":1374:1437   */\n      swap2\n      pop\n        /* \"#utility.yul\":1330:1447   */\n      pop\n        /* \"#utility.yul\":1125:1454   */\n      swap3\n      swap2\n      pop\n      pop\n      jump\t// out\n        /* \"#utility.yul\":1460:1578   */\n    tag_367:\n        /* \"#utility.yul\":1547:1571   */\n      tag_446\n        /* \"#utility.yul\":1565:1570   */\n      dup2\n        /* \"#utility.yul\":1547:1571   */\n      tag_364\n      jump\t// in\n    tag_446:\n        /* \"#utility.yul\":1542:1545   */\n      dup3\n        /* \"#utility.yul\":1535:1572   */\n      mstore\n        /* \"#utility.yul\":1460:1578   */\n      pop\n      pop\n      jump\t// out\n        /* \"#utility.yul\":1584:1806   */\n    tag_42:\n        /* \"#utility.yul\":1677:1681   */\n      0x00\n        /* \"#utility.yul\":1715:1717   */\n      0x20\n        /* \"#utility.yul\":1704:1713   */\n      dup3\n        /* \"#utility.yul\":1700:1718   */\n      add\n        /* \"#utility.yul\":1692:1718   */\n      swap1\n      pop\n        /* \"#utility.yul\":1728:1799   */\n      tag_448\n        /* \"#utility.yul\":1796:1797   */\n      0x00\n        /* \"#utility.yul\":1785:1794   */\n      dup4\n        /* \"#utility.yul\":1781:1798   */\n      add\n        /* \"#utility.yul\":1772:1778   */\n      dup5\n        /* \"#utility.yul\":1728:1799   */\n      tag_367\n      jump\t// in\n    tag_448:\n        /* \"#utility.yul\":1584:1806   */\n      swap3\n      swap2\n      pop\n      pop\n      jump\t// out\n        /* \"#utility.yul\":1812:1938   */\n    tag_368:\n        /* \"#utility.yul\":1849:1856   */\n      0x00\n        /* \"#utility.yul\":1889:1931   */\n      0xffffffffffffffffffffffffffffffffffffffff\n        /* \"#utility.yul\":1882:1887   */\n      dup3\n        /* \"#utility.yul\":1878:1932   */\n      and\n        /* \"#utility.yul\":1867:1932   */\n      swap1\n      pop\n        /* \"#utility.yul\":1812:1938   */\n      swap2\n      swap1\n      pop\n      jump\t// out\n        /* \"#utility.yul\":1944:2040   */\n    tag_369:\n        /* \"#utility.yul\":1981:1988   */\n      0x00\n        /* \"#utility.yul\":2010:2034   */\n      tag_451\n        /* \"#utility.yul\":2028:2033   */\n      dup3\n        /* \"#utility.yul\":2010:2034   */\n      tag_368\n      jump\t// in\n    tag_451:\n        /* \"#utility.yul\":1999:2034   */\n      swap1\n      pop\n        /* \"#utility.yul\":1944:2040   */\n      swap2\n      swap1\n      pop\n      jump\t// out\n        /* \"#utility.yul\":2046:2168   */\n    tag_370:\n        /* \"#utility.yul\":2119:2143   */\n      tag_453\n        /* \"#utility.yul\":2137:2142   */\n      dup2\n        /* \"#utility.yul\":2119:2143   */\n      tag_369\n      jump\t// in\n    tag_453:\n        /* \"#utility.yul\":2112:2117   */\n      dup2\n        /* \"#utility.yul\":2109:2144   */\n      eq\n        /* \"#utility.yul\":2099:2162   */\n      tag_454\n      jumpi\n        /* \"#utility.yul\":2158:2159   */\n      0x00\n        /* \"#utility.yul\":2155:2156   */\n      dup1\n        /* \"#utility.yul\":2148:2160   */\n      revert\n        /* \"#utility.yul\":2099:2162   */\n    tag_454:\n        /* \"#utility.yul\":2046:2168   */\n      pop\n      jump\t// out\n        /* \"#utility.yul\":2174:2313   */\n    tag_371:\n        /* \"#utility.yul\":2220:2225   */\n      0x00\n        /* \"#utility.yul\":2258:2264   */\n      dup2\n        /* \"#utility.yul\":2245:2265   */\n      calldataload\n        /* \"#utility.yul\":2236:2265   */\n      swap1\n      pop\n        /* \"#utility.yul\":2274:2307   */\n      tag_456\n        /* \"#utility.yul\":2301:2306   */\n      dup2\n        /* \"#utility.yul\":2274:2307   */\n      tag_370\n      jump\t// in\n    tag_456:\n        /* \"#utility.yul\":2174:2313   */\n      swap3\n      swap2\n      pop\n      pop\n      jump\t// out\n        /* \"#utility.yul\":2319:2648   */\n    tag_45:\n        /* \"#utility.yul\":2378:2384   */\n      0x00\n        /* \"#utility.yul\":2427:2429   */\n      0x20\n        /* \"#utility.yul\":2415:2424   */\n      dup3\n        /* \"#utility.yul\":2406:2413   */\n      dup5\n        /* \"#utility.yul\":2402:2425   */\n      sub\n        /* \"#utility.yul\":2398:2430   */\n      slt\n        /* \"#utility.yul\":2395:2514   */\n      iszero\n      tag_458\n      jumpi\n        /* \"#utility.yul\":2433:2512   */\n      tag_459\n      tag_362\n      jump\t// in\n    tag_459:\n        /* \"#utility.yul\":2395:2514   */\n    tag_458:\n        /* \"#utility.yul\":2553:2554   */\n      0x00\n        /* \"#utility.yul\":2578:2631   */\n      tag_460\n        /* \"#utility.yul\":2623:2630   */\n      dup5\n        /* \"#utility.yul\":2614:2620   */\n      dup3\n        /* \"#utility.yul\":2603:2612   */\n      dup6\n        /* \"#utility.yul\":2599:2621   */\n      add\n        /* \"#utility.yul\":2578:2631   */\n      tag_371\n      jump\t// in\n    tag_460:\n        /* \"#utility.yul\":2568:2631   */\n      swap2\n      pop\n        /* \"#utility.yul\":2524:2641   */\n      pop\n        /* \"#utility.yul\":2319:2648   */\n      swap3\n      swap2\n      pop\n      pop\n      jump\t// out\n        /* \"#utility.yul\":2654:2744   */\n    tag_372:\n        /* \"#utility.yul\":2688:2695   */\n      0x00\n        /* \"#utility.yul\":2731:2736   */\n      dup2\n        /* \"#utility.yul\":2724:2737   */\n      iszero\n        /* \"#utility.yul\":2717:2738   */\n      iszero\n        /* \"#utility.yul\":2706:2738   */\n      swap1\n      pop\n        /* \"#utility.yul\":2654:2744   */\n      swap2\n      swap1\n      pop\n      jump\t// out\n        /* \"#utility.yul\":2750:2859   */\n    tag_373:\n        /* \"#utility.yul\":2831:2852   */\n      tag_463\n        /* \"#utility.yul\":2846:2851   */\n      dup2\n        /* \"#utility.yul\":2831:2852   */\n      tag_372\n      jump\t// in\n    tag_463:\n        /* \"#utility.yul\":2826:2829   */\n      dup3\n        /* \"#utility.yul\":2819:2853   */\n      mstore\n        /* \"#utility.yul\":2750:2859   */\n      pop\n      pop\n      jump\t// out\n        /* \"#utility.yul\":2865:3075   */\n    tag_48:\n        /* \"#utility.yul\":2952:2956   */\n      0x00\n        /* \"#utility.yul\":2990:2992   */\n      0x20\n        /* \"#utility.yul\":2979:2988   */\n      dup3\n        /* \"#utility.yul\":2975:2993   */\n      add\n        /* \"#utility.yul\":2967:2993   */\n      swap1\n      pop\n        /* \"#utility.yul\":3003:3068   */\n      tag_465\n        /* \"#utility.yul\":3065:3066   */\n      0x00\n        /* \"#utility.yul\":3054:3063   */\n      dup4\n        /* \"#utility.yul\":3050:3067   */\n      add\n        /* \"#utility.yul\":3041:3047   */\n      dup5\n        /* \"#utility.yul\":3003:3068   */\n      tag_373\n      jump\t// in\n    tag_465:\n        /* \"#utility.yul\":2865:3075   */\n      swap3\n      swap2\n      pop\n      pop\n      jump\t// out\n        /* \"#utility.yul\":3081:3167   */\n    tag_374:\n        /* \"#utility.yul\":3116:3123   */\n      0x00\n        /* \"#utility.yul\":3156:3160   */\n      0xff\n        /* \"#utility.yul\":3149:3154   */\n      dup3\n        /* \"#utility.yul\":3145:3161   */\n      and\n        /* \"#utility.yul\":3134:3161   */\n      swap1\n      pop\n        /* \"#utility.yul\":3081:3167   */\n      swap2\n      swap1\n      pop\n      jump\t// out\n        /* \"#utility.yul\":3173:3285   */\n    tag_375:\n        /* \"#utility.yul\":3256:3278   */\n      tag_468\n        /* \"#utility.yul\":3272:3277   */\n      dup2\n        /* \"#utility.yul\":3256:3278   */\n      tag_374\n      jump\t// in\n    tag_468:\n        /* \"#utility.yul\":3251:3254   */\n      dup3\n        /* \"#utility.yul\":3244:3279   */\n      mstore\n        /* \"#utility.yul\":3173:3285   */\n      pop\n      pop\n      jump\t// out\n        /* \"#utility.yul\":3291:3505   */\n    tag_58:\n        /* \"#utility.yul\":3380:3384   */\n      0x00\n        /* \"#utility.yul\":3418:3420   */\n      0x20\n        /* \"#utility.yul\":3407:3416   */\n      dup3\n        /* \"#utility.yul\":3403:3421   */\n      add\n        /* \"#utility.yul\":3395:3421   */\n      swap1\n      pop\n        /* \"#utility.yul\":3431:3498   */\n      tag_470\n        /* \"#utility.yul\":3495:3496   */\n      0x00\n        /* \"#utility.yul\":3484:3493   */\n      dup4\n        /* \"#utility.yul\":3480:3497   */\n      add\n        /* \"#utility.yul\":3471:3477   */\n      dup5\n        /* \"#utility.yul\":3431:3498   */\n      tag_375\n      jump\t// in\n    tag_470:\n        /* \"#utility.yul\":3291:3505   */\n      swap3\n      swap2\n      pop\n      pop\n      jump\t// out\n        /* \"#utility.yul\":3511:3612   */\n    tag_376:\n        /* \"#utility.yul\":3547:3554   */\n      0x00\n        /* \"#utility.yul\":3587:3605   */\n      0xffffffffffffffff\n        /* \"#utility.yul\":3580:3585   */\n      dup3\n        /* \"#utility.yul\":3576:3606   */\n      and\n        /* \"#utility.yul\":3565:3606   */\n      swap1\n      pop\n        /* \"#utility.yul\":3511:3612   */\n      swap2\n      swap1\n      pop\n      jump\t// out\n        /* \"#utility.yul\":3618:3733   */\n    tag_377:\n        /* \"#utility.yul\":3703:3726   */\n      tag_473\n        /* \"#utility.yul\":3720:3725   */\n      dup2\n        /* \"#utility.yul\":3703:3726   */\n      tag_376\n      jump\t// in\n    tag_473:\n        /* \"#utility.yul\":3698:3701   */\n      dup3\n        /* \"#utility.yul\":3691:3727   */\n      mstore\n        /* \"#utility.yul\":3618:3733   */\n      pop\n      pop\n      jump\t// out\n        /* \"#utility.yul\":3739:4165   */\n    tag_66:\n        /* \"#utility.yul\":3880:3884   */\n      0x00\n        /* \"#utility.yul\":3918:3920   */\n      0x60\n        /* \"#utility.yul\":3907:3916   */\n      dup3\n        /* \"#utility.yul\":3903:3921   */\n      add\n        /* \"#utility.yul\":3895:3921   */\n      swap1\n      pop\n        /* \"#utility.yul\":3931:4002   */\n      tag_475\n        /* \"#utility.yul\":3999:4000   */\n      0x00\n        /* \"#utility.yul\":3988:3997   */\n      dup4\n        /* \"#utility.yul\":3984:4001   */\n      add\n        /* \"#utility.yul\":3975:3981   */\n      dup7\n        /* \"#utility.yul\":3931:4002   */\n      tag_367\n      jump\t// in\n    tag_475:\n        /* \"#utility.yul\":4012:4082   */\n      tag_476\n        /* \"#utility.yul\":4078:4080   */\n      0x20\n        /* \"#utility.yul\":4067:4076   */\n      dup4\n        /* \"#utility.yul\":4063:4081   */\n      add\n        /* \"#utility.yul\":4054:4060   */\n      dup6\n        /* \"#utility.yul\":4012:4082   */\n      tag_377\n      jump\t// in\n    tag_476:\n        /* \"#utility.yul\":4092:4158   */\n      tag_477\n        /* \"#utility.yul\":4154:4156   */\n      0x40\n        /* \"#utility.yul\":4143:4152   */\n      dup4\n        /* \"#utility.yul\":4139:4157   */\n      add\n        /* \"#utility.yul\":4130:4136   */\n      dup5\n        /* \"#utility.yul\":4092:4158   */\n      tag_373\n      jump\t// in\n    tag_477:\n        /* \"#utility.yul\":3739:4165   */\n      swap5\n      swap4\n      pop\n      pop\n      pop\n      pop\n      jump\t// out\n        /* \"#utility.yul\":4171:4293   */\n    tag_378:\n        /* \"#utility.yul\":4244:4268   */\n      tag_479\n        /* \"#utility.yul\":4262:4267   */\n      dup2\n        /* \"#utility.yul\":4244:4268   */\n      tag_359\n      jump\t// in\n    tag_479:\n        /* \"#utility.yul\":4237:4242   */\n      dup2\n        /* \"#utility.yul\":4234:4269   */\n      eq\n        /* \"#utility.yul\":4224:4287   */\n      tag_480\n      jumpi\n        /* \"#utility.yul\":4283:4284   */\n      0x00\n        /* \"#utility.yul\":4280:4281   */\n      dup1\n        /* \"#utility.yul\":4273:4285   */\n      revert\n        /* \"#utility.yul\":4224:4287   */\n    tag_480:\n        /* \"#utility.yul\":4171:4293   */\n      pop\n      jump\t// out\n        /* \"#utility.yul\":4299:4438   */\n    tag_379:\n        /* \"#utility.yul\":4345:4350   */\n      0x00\n        /* \"#utility.yul\":4383:4389   */\n      dup2\n        /* \"#utility.yul\":4370:4390   */\n      calldataload\n        /* \"#utility.yul\":4361:4390   */\n      swap1\n      pop\n        /* \"#utility.yul\":4399:4432   */\n      tag_482\n        /* \"#utility.yul\":4426:4431   */\n      dup2\n        /* \"#utility.yul\":4399:4432   */\n      tag_378\n      jump\t// in\n    tag_482:\n        /* \"#utility.yul\":4299:4438   */\n      swap3\n      swap2\n      pop\n      pop\n      jump\t// out\n        /* \"#utility.yul\":4444:4773   */\n    tag_91:\n        /* \"#utility.yul\":4503:4509   */\n      0x00\n        /* \"#utility.yul\":4552:4554   */\n      0x20\n        /* \"#utility.yul\":4540:4549   */\n      dup3\n        /* \"#utility.yul\":4531:4538   */\n      dup5\n        /* \"#utility.yul\":4527:4550   */\n      sub\n        /* \"#utility.yul\":4523:4555   */\n      slt\n        /* \"#utility.yul\":4520:4639   */\n      iszero\n      tag_484\n      jumpi\n        /* \"#utility.yul\":4558:4637   */\n      tag_485\n      tag_362\n      jump\t// in\n    tag_485:\n        /* \"#utility.yul\":4520:4639   */\n    tag_484:\n        /* \"#utility.yul\":4678:4679   */\n      0x00\n        /* \"#utility.yul\":4703:4756   */\n      tag_486\n        /* \"#utility.yul\":4748:4755   */\n      dup5\n        /* \"#utility.yul\":4739:4745   */\n      dup3\n        /* \"#utility.yul\":4728:4737   */\n      dup6\n        /* \"#utility.yul\":4724:4746   */\n      add\n        /* \"#utility.yul\":4703:4756   */\n      tag_379\n      jump\t// in\n    tag_486:\n        /* \"#utility.yul\":4693:4756   */\n      swap2\n      pop\n        /* \"#utility.yul\":4649:4766   */\n      pop\n        /* \"#utility.yul\":4444:4773   */\n      swap3\n      swap2\n      pop\n      pop\n      jump\t// out\n        /* \"#utility.yul\":4779:4897   */\n    tag_380:\n        /* \"#utility.yul\":4866:4890   */\n      tag_488\n        /* \"#utility.yul\":4884:4889   */\n      dup2\n        /* \"#utility.yul\":4866:4890   */\n      tag_369\n      jump\t// in\n    tag_488:\n        /* \"#utility.yul\":4861:4864   */\n      dup3\n        /* \"#utility.yul\":4854:4891   */\n      mstore\n        /* \"#utility.yul\":4779:4897   */\n      pop\n      pop\n      jump\t// out\n        /* \"#utility.yul\":4903:5125   */\n    tag_94:\n        /* \"#utility.yul\":4996:5000   */\n      0x00\n        /* \"#utility.yul\":5034:5036   */\n      0x20\n        /* \"#utility.yul\":5023:5032   */\n      dup3\n        /* \"#utility.yul\":5019:5037   */\n      add\n        /* \"#utility.yul\":5011:5037   */\n      swap1\n      pop\n        /* \"#utility.yul\":5047:5118   */\n      tag_490\n        /* \"#utility.yul\":5115:5116   */\n      0x00\n        /* \"#utility.yul\":5104:5113   */\n      dup4\n        /* \"#utility.yul\":5100:5117   */\n      add\n        /* \"#utility.yul\":5091:5097   */\n      dup5\n        /* \"#utility.yul\":5047:5118   */\n      tag_380\n      jump\t// in\n    tag_490:\n        /* \"#utility.yul\":4903:5125   */\n      swap3\n      swap2\n      pop\n      pop\n      jump\t// out\n        /* \"#utility.yul\":5131:5191   */\n    tag_381:\n        /* \"#utility.yul\":5159:5162   */\n      0x00\n        /* \"#utility.yul\":5180:5185   */\n      dup2\n        /* \"#utility.yul\":5173:5185   */\n      swap1\n      pop\n        /* \"#utility.yul\":5131:5191   */\n      swap2\n      swap1\n      pop\n      jump\t// out\n        /* \"#utility.yul\":5197:5339   */\n    tag_382:\n        /* \"#utility.yul\":5247:5256   */\n      0x00\n        /* \"#utility.yul\":5280:5333   */\n      tag_493\n        /* \"#utility.yul\":5298:5332   */\n      tag_494\n        /* \"#utility.yul\":5307:5331   */\n      tag_495\n        /* \"#utility.yul\":5325:5330   */\n      dup5\n        /* \"#utility.yul\":5307:5331   */\n      tag_368\n      jump\t// in\n    tag_495:\n        /* \"#utility.yul\":5298:5332   */\n      tag_381\n      jump\t// in\n    tag_494:\n        /* \"#utility.yul\":5280:5333   */\n      tag_368\n      jump\t// in\n    tag_493:\n        /* \"#utility.yul\":5267:5333   */\n      swap1\n      pop\n        /* \"#utility.yul\":5197:5339   */\n      swap2\n      swap1\n      pop\n      jump\t// out\n        /* \"#utility.yul\":5345:5471   */\n    tag_383:\n        /* \"#utility.yul\":5395:5404   */\n      0x00\n        /* \"#utility.yul\":5428:5465   */\n      tag_497\n        /* \"#utility.yul\":5459:5464   */\n      dup3\n        /* \"#utility.yul\":5428:5465   */\n      tag_382\n      jump\t// in\n    tag_497:\n        /* \"#utility.yul\":5415:5465   */\n      swap1\n      pop\n        /* \"#utility.yul\":5345:5471   */\n      swap2\n      swap1\n      pop\n      jump\t// out\n        /* \"#utility.yul\":5477:5617   */\n    tag_384:\n        /* \"#utility.yul\":5541:5550   */\n      0x00\n        /* \"#utility.yul\":5574:5611   */\n      tag_499\n        /* \"#utility.yul\":5605:5610   */\n      dup3\n        /* \"#utility.yul\":5574:5611   */\n      tag_383\n      jump\t// in\n    tag_499:\n        /* \"#utility.yul\":5561:5611   */\n      swap1\n      pop\n        /* \"#utility.yul\":5477:5617   */\n      swap2\n      swap1\n      pop\n      jump\t// out\n        /* \"#utility.yul\":5623:5782   */\n    tag_385:\n        /* \"#utility.yul\":5724:5775   */\n      tag_501\n        /* \"#utility.yul\":5769:5774   */\n      dup2\n        /* \"#utility.yul\":5724:5775   */\n      tag_384\n      jump\t// in\n    tag_501:\n        /* \"#utility.yul\":5719:5722   */\n      dup3\n        /* \"#utility.yul\":5712:5776   */\n      mstore\n        /* \"#utility.yul\":5623:5782   */\n      pop\n      pop\n      jump\t// out\n        /* \"#utility.yul\":5788:6038   */\n    tag_98:\n        /* \"#utility.yul\":5895:5899   */\n      0x00\n        /* \"#utility.yul\":5933:5935   */\n      0x20\n        /* \"#utility.yul\":5922:5931   */\n      dup3\n        /* \"#utility.yul\":5918:5936   */\n      add\n        /* \"#utility.yul\":5910:5936   */\n      swap1\n      pop\n        /* \"#utility.yul\":5946:6031   */\n      tag_503\n        /* \"#utility.yul\":6028:6029   */\n      0x00\n        /* \"#utility.yul\":6017:6026   */\n      dup4\n        /* \"#utility.yul\":6013:6030   */\n      add\n        /* \"#utility.yul\":6004:6010   */\n      dup5\n        /* \"#utility.yul\":5946:6031   */\n      tag_385\n      jump\t// in\n    tag_503:\n        /* \"#utility.yul\":5788:6038   */\n      swap3\n      swap2\n      pop\n      pop\n      jump\t// out\n        /* \"#utility.yul\":6044:6213   */\n    tag_386:\n        /* \"#utility.yul\":6128:6139   */\n      0x00\n        /* \"#utility.yul\":6162:6168   */\n      dup3\n        /* \"#utility.yul\":6157:6160   */\n      dup3\n        /* \"#utility.yul\":6150:6169   */\n      mstore\n        /* \"#utility.yul\":6202:6206   */\n      0x20\n        /* \"#utility.yul\":6197:6200   */\n      dup3\n        /* \"#utility.yul\":6193:6207   */\n      add\n        /* \"#utility.yul\":6178:6207   */\n      swap1\n      pop\n        /* \"#utility.yul\":6044:6213   */\n      swap3\n      swap2\n      pop\n      pop\n      jump\t// out\n        /* \"#utility.yul\":6219:6392   */\n    tag_387:\n        /* \"#utility.yul\":6359:6384   */\n      0x4e6f20706c617965727320696e207468652067616d652e000000000000000000\n        /* \"#utility.yul\":6355:6356   */\n      0x00\n        /* \"#utility.yul\":6347:6353   */\n      dup3\n        /* \"#utility.yul\":6343:6357   */\n      add\n        /* \"#utility.yul\":6336:6385   */\n      mstore\n        /* \"#utility.yul\":6219:6392   */\n      pop\n      jump\t// out\n        /* \"#utility.yul\":6398:6764   */\n    tag_388:\n        /* \"#utility.yul\":6540:6543   */\n      0x00\n        /* \"#utility.yul\":6561:6628   */\n      tag_507\n        /* \"#utility.yul\":6625:6627   */\n      0x17\n        /* \"#utility.yul\":6620:6623   */\n      dup4\n        /* \"#utility.yul\":6561:6628   */\n      tag_386\n      jump\t// in\n    tag_507:\n        /* \"#utility.yul\":6554:6628   */\n      swap2\n      pop\n        /* \"#utility.yul\":6637:6730   */\n      tag_508\n        /* \"#utility.yul\":6726:6729   */\n      dup3\n        /* \"#utility.yul\":6637:6730   */\n      tag_387\n      jump\t// in\n    tag_508:\n        /* \"#utility.yul\":6755:6757   */\n      0x20\n        /* \"#utility.yul\":6750:6753   */\n      dup3\n        /* \"#utility.yul\":6746:6758   */\n      add\n        /* \"#utility.yul\":6739:6758   */\n      swap1\n      pop\n        /* \"#utility.yul\":6398:6764   */\n      swap2\n      swap1\n      pop\n      jump\t// out\n        /* \"#utility.yul\":6770:7189   */\n    tag_102:\n        /* \"#utility.yul\":6936:6940   */\n      0x00\n        /* \"#utility.yul\":6974:6976   */\n      0x20\n        /* \"#utility.yul\":6963:6972   */\n      dup3\n        /* \"#utility.yul\":6959:6977   */\n      add\n        /* \"#utility.yul\":6951:6977   */\n      swap1\n      pop\n        /* \"#utility.yul\":7023:7032   */\n      dup2\n        /* \"#utility.yul\":7017:7021   */\n      dup2\n        /* \"#utility.yul\":7013:7033   */\n      sub\n        /* \"#utility.yul\":7009:7010   */\n      0x00\n        /* \"#utility.yul\":6998:7007   */\n      dup4\n        /* \"#utility.yul\":6994:7011   */\n      add\n        /* \"#utility.yul\":6987:7034   */\n      mstore\n        /* \"#utility.yul\":7051:7182   */\n      tag_510\n        /* \"#utility.yul\":7177:7181   */\n      dup2\n        /* \"#utility.yul\":7051:7182   */\n      tag_388\n      jump\t// in\n    tag_510:\n        /* \"#utility.yul\":7043:7182   */\n      swap1\n      pop\n        /* \"#utility.yul\":6770:7189   */\n      swap2\n      swap1\n      pop\n      jump\t// out\n        /* \"#utility.yul\":7195:7365   */\n    tag_389:\n        /* \"#utility.yul\":7335:7357   */\n      0x54696d656f7574206e6f7420726561636865642e000000000000000000000000\n        /* \"#utility.yul\":7331:7332   */\n      0x00\n        /* \"#utility.yul\":7323:7329   */\n      dup3\n        /* \"#utility.yul\":7319:7333   */\n      add\n        /* \"#utility.yul\":7312:7358   */\n      mstore\n        /* \"#utility.yul\":7195:7365   */\n      pop\n      jump\t// out\n        /* \"#utility.yul\":7371:7737   */\n    tag_390:\n        /* \"#utility.yul\":7513:7516   */\n      0x00\n        /* \"#utility.yul\":7534:7601   */\n      tag_513\n        /* \"#utility.yul\":7598:7600   */\n      0x14\n        /* \"#utility.yul\":7593:7596   */\n      dup4\n        /* \"#utility.yul\":7534:7601   */\n      tag_386\n      jump\t// in\n    tag_513:\n        /* \"#utility.yul\":7527:7601   */\n      swap2\n      pop\n        /* \"#utility.yul\":7610:7703   */\n      tag_514\n        /* \"#utility.yul\":7699:7702   */\n      dup3\n        /* \"#utility.yul\":7610:7703   */\n      tag_389\n      jump\t// in\n    tag_514:\n        /* \"#utility.yul\":7728:7730   */\n      0x20\n        /* \"#utility.yul\":7723:7726   */\n      dup3\n        /* \"#utility.yul\":7719:7731   */\n      add\n        /* \"#utility.yul\":7712:7731   */\n      swap1\n      pop\n        /* \"#utility.yul\":7371:7737   */\n      swap2\n      swap1\n      pop\n      jump\t// out\n        /* \"#utility.yul\":7743:8162   */\n    tag_106:\n        /* \"#utility.yul\":7909:7913   */\n      0x00\n        /* \"#utility.yul\":7947:7949   */\n      0x20\n        /* \"#utility.yul\":7936:7945   */\n      dup3\n        /* \"#utility.yul\":7932:7950   */\n      add\n        /* \"#utility.yul\":7924:7950   */\n      swap1\n      pop\n        /* \"#utility.yul\":7996:8005   */\n      dup2\n        /* \"#utility.yul\":7990:7994   */\n      dup2\n        /* \"#utility.yul\":7986:8006   */\n      sub\n        /* \"#utility.yul\":7982:7983   */\n      0x00\n        /* \"#utility.yul\":7971:7980   */\n      dup4\n        /* \"#utility.yul\":7967:7984   */\n      add\n        /* \"#utility.yul\":7960:8007   */\n      mstore\n        /* \"#utility.yul\":8024:8155   */\n      tag_516\n        /* \"#utility.yul\":8150:8154   */\n      dup2\n        /* \"#utility.yul\":8024:8155   */\n      tag_390\n      jump\t// in\n    tag_516:\n        /* \"#utility.yul\":8016:8155   */\n      swap1\n      pop\n        /* \"#utility.yul\":7743:8162   */\n      swap2\n      swap1\n      pop\n      jump\t// out\n        /* \"#utility.yul\":8168:8348   */\n    tag_111:\n        /* \"#utility.yul\":8216:8293   */\n      0x4e487b7100000000000000000000000000000000000000000000000000000000\n        /* \"#utility.yul\":8213:8214   */\n      0x00\n        /* \"#utility.yul\":8206:8294   */\n      mstore\n        /* \"#utility.yul\":8313:8317   */\n      0x32\n        /* \"#utility.yul\":8310:8311   */\n      0x04\n        /* \"#utility.yul\":8303:8318   */\n      mstore\n        /* \"#utility.yul\":8337:8341   */\n      0x24\n        /* \"#utility.yul\":8334:8335   */\n      0x00\n        /* \"#utility.yul\":8327:8342   */\n      revert\n        /* \"#utility.yul\":8354:8686   */\n    tag_114:\n        /* \"#utility.yul\":8475:8479   */\n      0x00\n        /* \"#utility.yul\":8513:8515   */\n      0x40\n        /* \"#utility.yul\":8502:8511   */\n      dup3\n        /* \"#utility.yul\":8498:8516   */\n      add\n        /* \"#utility.yul\":8490:8516   */\n      swap1\n      pop\n        /* \"#utility.yul\":8526:8597   */\n      tag_519\n        /* \"#utility.yul\":8594:8595   */\n      0x00\n        /* \"#utility.yul\":8583:8592   */\n      dup4\n        /* \"#utility.yul\":8579:8596   */\n      add\n        /* \"#utility.yul\":8570:8576   */\n      dup6\n        /* \"#utility.yul\":8526:8597   */\n      tag_380\n      jump\t// in\n    tag_519:\n        /* \"#utility.yul\":8607:8679   */\n      tag_520\n        /* \"#utility.yul\":8675:8677   */\n      0x20\n        /* \"#utility.yul\":8664:8673   */\n      dup4\n        /* \"#utility.yul\":8660:8678   */\n      add\n        /* \"#utility.yul\":8651:8657   */\n      dup5\n        /* \"#utility.yul\":8607:8679   */\n      tag_360\n      jump\t// in\n    tag_520:\n        /* \"#utility.yul\":8354:8686   */\n      swap4\n      swap3\n      pop\n      pop\n      pop\n      jump\t// out\n        /* \"#utility.yul\":8692:8808   */\n    tag_391:\n        /* \"#utility.yul\":8762:8783   */\n      tag_522\n        /* \"#utility.yul\":8777:8782   */\n      dup2\n        /* \"#utility.yul\":8762:8783   */\n      tag_372\n      jump\t// in\n    tag_522:\n        /* \"#utility.yul\":8755:8760   */\n      dup2\n        /* \"#utility.yul\":8752:8784   */\n      eq\n        /* \"#utility.yul\":8742:8802   */\n      tag_523\n      jumpi\n        /* \"#utility.yul\":8798:8799   */\n      0x00\n        /* \"#utility.yul\":8795:8796   */\n      dup1\n        /* \"#utility.yul\":8788:8800   */\n      revert\n        /* \"#utility.yul\":8742:8802   */\n    tag_523:\n        /* \"#utility.yul\":8692:8808   */\n      pop\n      jump\t// out\n        /* \"#utility.yul\":8814:8951   */\n    tag_392:\n        /* \"#utility.yul\":8868:8873   */\n      0x00\n        /* \"#utility.yul\":8899:8905   */\n      dup2\n        /* \"#utility.yul\":8893:8906   */\n      mload\n        /* \"#utility.yul\":8884:8906   */\n      swap1\n      pop\n        /* \"#utility.yul\":8915:8945   */\n      tag_525\n        /* \"#utility.yul\":8939:8944   */\n      dup2\n        /* \"#utility.yul\":8915:8945   */\n      tag_391\n      jump\t// in\n    tag_525:\n        /* \"#utility.yul\":8814:8951   */\n      swap3\n      swap2\n      pop\n      pop\n      jump\t// out\n        /* \"#utility.yul\":8957:9302   */\n    tag_118:\n        /* \"#utility.yul\":9024:9030   */\n      0x00\n        /* \"#utility.yul\":9073:9075   */\n      0x20\n        /* \"#utility.yul\":9061:9070   */\n      dup3\n        /* \"#utility.yul\":9052:9059   */\n      dup5\n        /* \"#utility.yul\":9048:9071   */\n      sub\n        /* \"#utility.yul\":9044:9076   */\n      slt\n        /* \"#utility.yul\":9041:9160   */\n      iszero\n      tag_527\n      jumpi\n        /* \"#utility.yul\":9079:9158   */\n      tag_528\n      tag_362\n      jump\t// in\n    tag_528:\n        /* \"#utility.yul\":9041:9160   */\n    tag_527:\n        /* \"#utility.yul\":9199:9200   */\n      0x00\n        /* \"#utility.yul\":9224:9285   */\n      tag_529\n        /* \"#utility.yul\":9277:9284   */\n      dup5\n        /* \"#utility.yul\":9268:9274   */\n      dup3\n        /* \"#utility.yul\":9257:9266   */\n      dup6\n        /* \"#utility.yul\":9253:9275   */\n      add\n        /* \"#utility.yul\":9224:9285   */\n      tag_392\n      jump\t// in\n    tag_529:\n        /* \"#utility.yul\":9214:9285   */\n      swap2\n      pop\n        /* \"#utility.yul\":9170:9295   */\n      pop\n        /* \"#utility.yul\":8957:9302   */\n      swap3\n      swap2\n      pop\n      pop\n      jump\t// out\n        /* \"#utility.yul\":9308:9488   */\n    tag_393:\n        /* \"#utility.yul\":9356:9433   */\n      0x4e487b7100000000000000000000000000000000000000000000000000000000\n        /* \"#utility.yul\":9353:9354   */\n      0x00\n        /* \"#utility.yul\":9346:9434   */\n      mstore\n        /* \"#utility.yul\":9453:9457   */\n      0x12\n        /* \"#utility.yul\":9450:9451   */\n      0x04\n        /* \"#utility.yul\":9443:9458   */\n      mstore\n        /* \"#utility.yul\":9477:9481   */\n      0x24\n        /* \"#utility.yul\":9474:9475   */\n      0x00\n        /* \"#utility.yul\":9467:9482   */\n      revert\n        /* \"#utility.yul\":9494:9674   */\n    tag_394:\n        /* \"#utility.yul\":9542:9619   */\n      0x4e487b7100000000000000000000000000000000000000000000000000000000\n        /* \"#utility.yul\":9539:9540   */\n      0x00\n        /* \"#utility.yul\":9532:9620   */\n      mstore\n        /* \"#utility.yul\":9639:9643   */\n      0x11\n        /* \"#utility.yul\":9636:9637   */\n      0x04\n        /* \"#utility.yul\":9629:9644   */\n      mstore\n        /* \"#utility.yul\":9663:9667   */\n      0x24\n        /* \"#utility.yul\":9660:9661   */\n      0x00\n        /* \"#utility.yul\":9653:9668   */\n      revert\n        /* \"#utility.yul\":9680:9865   */\n    tag_152:\n        /* \"#utility.yul\":9720:9721   */\n      0x00\n        /* \"#utility.yul\":9737:9757   */\n      tag_533\n        /* \"#utility.yul\":9755:9756   */\n      dup3\n        /* \"#utility.yul\":9737:9757   */\n      tag_359\n      jump\t// in\n    tag_533:\n        /* \"#utility.yul\":9732:9757   */\n      swap2\n      pop\n        /* \"#utility.yul\":9771:9791   */\n      tag_534\n        /* \"#utility.yul\":9789:9790   */\n      dup4\n        /* \"#utility.yul\":9771:9791   */\n      tag_359\n      jump\t// in\n    tag_534:\n        /* \"#utility.yul\":9766:9791   */\n      swap3\n      pop\n        /* \"#utility.yul\":9810:9811   */\n      dup3\n        /* \"#utility.yul\":9800:9835   */\n      tag_535\n      jumpi\n        /* \"#utility.yul\":9815:9833   */\n      tag_536\n      tag_393\n      jump\t// in\n    tag_536:\n        /* \"#utility.yul\":9800:9835   */\n    tag_535:\n        /* \"#utility.yul\":9857:9858   */\n      dup3\n        /* \"#utility.yul\":9854:9855   */\n      dup3\n        /* \"#utility.yul\":9850:9859   */\n      div\n        /* \"#utility.yul\":9845:9859   */\n      swap1\n      pop\n        /* \"#utility.yul\":9680:9865   */\n      swap3\n      swap2\n      pop\n      pop\n      jump\t// out\n        /* \"#utility.yul\":9871:10048   */\n    tag_395:\n        /* \"#utility.yul\":10011:10040   */\n      0x47616d6520616c726561647920686173203220706c61796572732e0000000000\n        /* \"#utility.yul\":10007:10008   */\n      0x00\n        /* \"#utility.yul\":9999:10005   */\n      dup3\n        /* \"#utility.yul\":9995:10009   */\n      add\n        /* \"#utility.yul\":9988:10041   */\n      mstore\n        /* \"#utility.yul\":9871:10048   */\n      pop\n      jump\t// out\n        /* \"#utility.yul\":10054:10420   */\n    tag_396:\n        /* \"#utility.yul\":10196:10199   */\n      0x00\n        /* \"#utility.yul\":10217:10284   */\n      tag_539\n        /* \"#utility.yul\":10281:10283   */\n      0x1b\n        /* \"#utility.yul\":10276:10279   */\n      dup4\n        /* \"#utility.yul\":10217:10284   */\n      tag_386\n      jump\t// in\n    tag_539:\n        /* \"#utility.yul\":10210:10284   */\n      swap2\n      pop\n        /* \"#utility.yul\":10293:10386   */\n      tag_540\n        /* \"#utility.yul\":10382:10385   */\n      dup3\n        /* \"#utility.yul\":10293:10386   */\n      tag_395\n      jump\t// in\n    tag_540:\n        /* \"#utility.yul\":10411:10413   */\n      0x20\n        /* \"#utility.yul\":10406:10409   */\n      dup3\n        /* \"#utility.yul\":10402:10414   */\n      add\n        /* \"#utility.yul\":10395:10414   */\n      swap1\n      pop\n        /* \"#utility.yul\":10054:10420   */\n      swap2\n      swap1\n      pop\n      jump\t// out\n        /* \"#utility.yul\":10426:10845   */\n    tag_170:\n        /* \"#utility.yul\":10592:10596   */\n      0x00\n        /* \"#utility.yul\":10630:10632   */\n      0x20\n        /* \"#utility.yul\":10619:10628   */\n      dup3\n        /* \"#utility.yul\":10615:10633   */\n      add\n        /* \"#utility.yul\":10607:10633   */\n      swap1\n      pop\n        /* \"#utility.yul\":10679:10688   */\n      dup2\n        /* \"#utility.yul\":10673:10677   */\n      dup2\n        /* \"#utility.yul\":10669:10689   */\n      sub\n        /* \"#utility.yul\":10665:10666   */\n      0x00\n        /* \"#utility.yul\":10654:10663   */\n      dup4\n        /* \"#utility.yul\":10650:10667   */\n      add\n        /* \"#utility.yul\":10643:10690   */\n      mstore\n        /* \"#utility.yul\":10707:10838   */\n      tag_542\n        /* \"#utility.yul\":10833:10837   */\n      dup2\n        /* \"#utility.yul\":10707:10838   */\n      tag_396\n      jump\t// in\n    tag_542:\n        /* \"#utility.yul\":10699:10838   */\n      swap1\n      pop\n        /* \"#utility.yul\":10426:10845   */\n      swap2\n      swap1\n      pop\n      jump\t// out\n        /* \"#utility.yul\":10851:11183   */\n    tag_172:\n        /* \"#utility.yul\":10972:10976   */\n      0x00\n        /* \"#utility.yul\":11010:11012   */\n      0x40\n        /* \"#utility.yul\":10999:11008   */\n      dup3\n        /* \"#utility.yul\":10995:11013   */\n      add\n        /* \"#utility.yul\":10987:11013   */\n      swap1\n      pop\n        /* \"#utility.yul\":11023:11094   */\n      tag_544\n        /* \"#utility.yul\":11091:11092   */\n      0x00\n        /* \"#utility.yul\":11080:11089   */\n      dup4\n        /* \"#utility.yul\":11076:11093   */\n      add\n        /* \"#utility.yul\":11067:11073   */\n      dup6\n        /* \"#utility.yul\":11023:11094   */\n      tag_380\n      jump\t// in\n    tag_544:\n        /* \"#utility.yul\":11104:11176   */\n      tag_545\n        /* \"#utility.yul\":11172:11174   */\n      0x20\n        /* \"#utility.yul\":11161:11170   */\n      dup4\n        /* \"#utility.yul\":11157:11175   */\n      add\n        /* \"#utility.yul\":11148:11154   */\n      dup5\n        /* \"#utility.yul\":11104:11176   */\n      tag_380\n      jump\t// in\n    tag_545:\n        /* \"#utility.yul\":10851:11183   */\n      swap4\n      swap3\n      pop\n      pop\n      pop\n      jump\t// out\n        /* \"#utility.yul\":11189:11332   */\n    tag_397:\n        /* \"#utility.yul\":11246:11251   */\n      0x00\n        /* \"#utility.yul\":11277:11283   */\n      dup2\n        /* \"#utility.yul\":11271:11284   */\n      mload\n        /* \"#utility.yul\":11262:11284   */\n      swap1\n      pop\n        /* \"#utility.yul\":11293:11326   */\n      tag_547\n        /* \"#utility.yul\":11320:11325   */\n      dup2\n        /* \"#utility.yul\":11293:11326   */\n      tag_378\n      jump\t// in\n    tag_547:\n        /* \"#utility.yul\":11189:11332   */\n      swap3\n      swap2\n      pop\n      pop\n      jump\t// out\n        /* \"#utility.yul\":11338:11689   */\n    tag_176:\n        /* \"#utility.yul\":11408:11414   */\n      0x00\n        /* \"#utility.yul\":11457:11459   */\n      0x20\n        /* \"#utility.yul\":11445:11454   */\n      dup3\n        /* \"#utility.yul\":11436:11443   */\n      dup5\n        /* \"#utility.yul\":11432:11455   */\n      sub\n        /* \"#utility.yul\":11428:11460   */\n      slt\n        /* \"#utility.yul\":11425:11544   */\n      iszero\n      tag_549\n      jumpi\n        /* \"#utility.yul\":11463:11542   */\n      tag_550\n      tag_362\n      jump\t// in\n    tag_550:\n        /* \"#utility.yul\":11425:11544   */\n    tag_549:\n        /* \"#utility.yul\":11583:11584   */\n      0x00\n        /* \"#utility.yul\":11608:11672   */\n      tag_551\n        /* \"#utility.yul\":11664:11671   */\n      dup5\n        /* \"#utility.yul\":11655:11661   */\n      dup3\n        /* \"#utility.yul\":11644:11653   */\n      dup6\n        /* \"#utility.yul\":11640:11662   */\n      add\n        /* \"#utility.yul\":11608:11672   */\n      tag_397\n      jump\t// in\n    tag_551:\n        /* \"#utility.yul\":11598:11672   */\n      swap2\n      pop\n        /* \"#utility.yul\":11554:11682   */\n      pop\n        /* \"#utility.yul\":11338:11689   */\n      swap3\n      swap2\n      pop\n      pop\n      jump\t// out\n        /* \"#utility.yul\":11695:11917   */\n    tag_398:\n        /* \"#utility.yul\":11835:11869   */\n      0x417070726f766520636f6e747261637420746f2077697468647261772066756e\n        /* \"#utility.yul\":11831:11832   */\n      0x00\n        /* \"#utility.yul\":11823:11829   */\n      dup3\n        /* \"#utility.yul\":11819:11833   */\n      add\n        /* \"#utility.yul\":11812:11870   */\n      mstore\n        /* \"#utility.yul\":11904:11909   */\n      0x64732e0000000000000000000000000000000000000000000000000000000000\n        /* \"#utility.yul\":11899:11901   */\n      0x20\n        /* \"#utility.yul\":11891:11897   */\n      dup3\n        /* \"#utility.yul\":11887:11902   */\n      add\n        /* \"#utility.yul\":11880:11910   */\n      mstore\n        /* \"#utility.yul\":11695:11917   */\n      pop\n      jump\t// out\n        /* \"#utility.yul\":11923:12289   */\n    tag_399:\n        /* \"#utility.yul\":12065:12068   */\n      0x00\n        /* \"#utility.yul\":12086:12153   */\n      tag_554\n        /* \"#utility.yul\":12150:12152   */\n      0x23\n        /* \"#utility.yul\":12145:12148   */\n      dup4\n        /* \"#utility.yul\":12086:12153   */\n      tag_386\n      jump\t// in\n    tag_554:\n        /* \"#utility.yul\":12079:12153   */\n      swap2\n      pop\n        /* \"#utility.yul\":12162:12255   */\n      tag_555\n        /* \"#utility.yul\":12251:12254   */\n      dup3\n        /* \"#utility.yul\":12162:12255   */\n      tag_398\n      jump\t// in\n    tag_555:\n        /* \"#utility.yul\":12280:12282   */\n      0x40\n        /* \"#utility.yul\":12275:12278   */\n      dup3\n        /* \"#utility.yul\":12271:12283   */\n      add\n        /* \"#utility.yul\":12264:12283   */\n      swap1\n      pop\n        /* \"#utility.yul\":11923:12289   */\n      swap2\n      swap1\n      pop\n      jump\t// out\n        /* \"#utility.yul\":12295:12714   */\n    tag_179:\n        /* \"#utility.yul\":12461:12465   */\n      0x00\n        /* \"#utility.yul\":12499:12501   */\n      0x20\n        /* \"#utility.yul\":12488:12497   */\n      dup3\n        /* \"#utility.yul\":12484:12502   */\n      add\n        /* \"#utility.yul\":12476:12502   */\n      swap1\n      pop\n        /* \"#utility.yul\":12548:12557   */\n      dup2\n        /* \"#utility.yul\":12542:12546   */\n      dup2\n        /* \"#utility.yul\":12538:12558   */\n      sub\n        /* \"#utility.yul\":12534:12535   */\n      0x00\n        /* \"#utility.yul\":12523:12532   */\n      dup4\n        /* \"#utility.yul\":12519:12536   */\n      add\n        /* \"#utility.yul\":12512:12559   */\n      mstore\n        /* \"#utility.yul\":12576:12707   */\n      tag_557\n        /* \"#utility.yul\":12702:12706   */\n      dup2\n        /* \"#utility.yul\":12576:12707   */\n      tag_399\n      jump\t// in\n    tag_557:\n        /* \"#utility.yul\":12568:12707   */\n      swap1\n      pop\n        /* \"#utility.yul\":12295:12714   */\n      swap2\n      swap1\n      pop\n      jump\t// out\n        /* \"#utility.yul\":12720:12898   */\n    tag_400:\n        /* \"#utility.yul\":12860:12890   */\n      0x596f752061726520616c726561647920696e207468652067616d652e00000000\n        /* \"#utility.yul\":12856:12857   */\n      0x00\n        /* \"#utility.yul\":12848:12854   */\n      dup3\n        /* \"#utility.yul\":12844:12858   */\n      add\n        /* \"#utility.yul\":12837:12891   */\n      mstore\n        /* \"#utility.yul\":12720:12898   */\n      pop\n      jump\t// out\n        /* \"#utility.yul\":12904:13270   */\n    tag_401:\n        /* \"#utility.yul\":13046:13049   */\n      0x00\n        /* \"#utility.yul\":13067:13134   */\n      tag_560\n        /* \"#utility.yul\":13131:13133   */\n      0x1c\n        /* \"#utility.yul\":13126:13129   */\n      dup4\n        /* \"#utility.yul\":13067:13134   */\n      tag_386\n      jump\t// in\n    tag_560:\n        /* \"#utility.yul\":13060:13134   */\n      swap2\n      pop\n        /* \"#utility.yul\":13143:13236   */\n      tag_561\n        /* \"#utility.yul\":13232:13235   */\n      dup3\n        /* \"#utility.yul\":13143:13236   */\n      tag_400\n      jump\t// in\n    tag_561:\n        /* \"#utility.yul\":13261:13263   */\n      0x20\n        /* \"#utility.yul\":13256:13259   */\n      dup3\n        /* \"#utility.yul\":13252:13264   */\n      add\n        /* \"#utility.yul\":13245:13264   */\n      swap1\n      pop\n        /* \"#utility.yul\":12904:13270   */\n      swap2\n      swap1\n      pop\n      jump\t// out\n        /* \"#utility.yul\":13276:13695   */\n    tag_186:\n        /* \"#utility.yul\":13442:13446   */\n      0x00\n        /* \"#utility.yul\":13480:13482   */\n      0x20\n        /* \"#utility.yul\":13469:13478   */\n      dup3\n        /* \"#utility.yul\":13465:13483   */\n      add\n        /* \"#utility.yul\":13457:13483   */\n      swap1\n      pop\n        /* \"#utility.yul\":13529:13538   */\n      dup2\n        /* \"#utility.yul\":13523:13527   */\n      dup2\n        /* \"#utility.yul\":13519:13539   */\n      sub\n        /* \"#utility.yul\":13515:13516   */\n      0x00\n        /* \"#utility.yul\":13504:13513   */\n      dup4\n        /* \"#utility.yul\":13500:13517   */\n      add\n        /* \"#utility.yul\":13493:13540   */\n      mstore\n        /* \"#utility.yul\":13557:13688   */\n      tag_563\n        /* \"#utility.yul\":13683:13687   */\n      dup2\n        /* \"#utility.yul\":13557:13688   */\n      tag_401\n      jump\t// in\n    tag_563:\n        /* \"#utility.yul\":13549:13688   */\n      swap1\n      pop\n        /* \"#utility.yul\":13276:13695   */\n      swap2\n      swap1\n      pop\n      jump\t// out\n        /* \"#utility.yul\":13701:13934   */\n    tag_189:\n        /* \"#utility.yul\":13740:13743   */\n      0x00\n        /* \"#utility.yul\":13763:13787   */\n      tag_565\n        /* \"#utility.yul\":13781:13786   */\n      dup3\n        /* \"#utility.yul\":13763:13787   */\n      tag_359\n      jump\t// in\n    tag_565:\n        /* \"#utility.yul\":13754:13787   */\n      swap2\n      pop\n        /* \"#utility.yul\":13809:13875   */\n      0xffffffffffffffffffffffffffffffffffffffffffffffffffffffffffffffff\n        /* \"#utility.yul\":13802:13807   */\n      dup3\n        /* \"#utility.yul\":13799:13876   */\n      sub\n        /* \"#utility.yul\":13796:13899   */\n      tag_566\n      jumpi\n        /* \"#utility.yul\":13879:13897   */\n      tag_567\n      tag_394\n      jump\t// in\n    tag_567:\n        /* \"#utility.yul\":13796:13899   */\n    tag_566:\n        /* \"#utility.yul\":13926:13927   */\n      0x01\n        /* \"#utility.yul\":13919:13924   */\n      dup3\n        /* \"#utility.yul\":13915:13928   */\n      add\n        /* \"#utility.yul\":13908:13928   */\n      swap1\n      pop\n        /* \"#utility.yul\":13701:13934   */\n      swap2\n      swap1\n      pop\n      jump\t// out\n        /* \"#utility.yul\":13940:14131   */\n    tag_191:\n        /* \"#utility.yul\":13980:13983   */\n      0x00\n        /* \"#utility.yul\":13999:14019   */\n      tag_569\n        /* \"#utility.yul\":14017:14018   */\n      dup3\n        /* \"#utility.yul\":13999:14019   */\n      tag_359\n      jump\t// in\n    tag_569:\n        /* \"#utility.yul\":13994:14019   */\n      swap2\n      pop\n        /* \"#utility.yul\":14033:14053   */\n      tag_570\n        /* \"#utility.yul\":14051:14052   */\n      dup4\n        /* \"#utility.yul\":14033:14053   */\n      tag_359\n      jump\t// in\n    tag_570:\n        /* \"#utility.yul\":14028:14053   */\n      swap3\n      pop\n        /* \"#utility.yul\":14076:14077   */\n      dup3\n        /* \"#utility.yul\":14073:14074   */\n      dup3\n        /* \"#utility.yul\":14069:14078   */\n      add\n        /* \"#utility.yul\":14062:14078   */\n      swap1\n      pop\n        /* \"#utility.yul\":14097:14100   */\n      dup1\n        /* \"#utility.yul\":14094:14095   */\n      dup3\n        /* \"#utility.yul\":14091:14101   */\n      gt\n        /* \"#utility.yul\":14088:14124   */\n      iszero\n      tag_571\n      jumpi\n        /* \"#utility.yul\":14104:14122   */\n      tag_572\n      tag_394\n      jump\t// in\n    tag_572:\n        /* \"#utility.yul\":14088:14124   */\n    tag_571:\n        /* \"#utility.yul\":13940:14131   */\n      swap3\n      swap2\n      pop\n      pop\n      jump\t// out\n        /* \"#utility.yul\":14137:14216   */\n    tag_402:\n        /* \"#utility.yul\":14176:14183   */\n      0x00\n        /* \"#utility.yul\":14205:14210   */\n      dup2\n        /* \"#utility.yul\":14194:14210   */\n      swap1\n      pop\n        /* \"#utility.yul\":14137:14216   */\n      swap2\n      swap1\n      pop\n      jump\t// out\n        /* \"#utility.yul\":14222:14379   */\n    tag_403:\n        /* \"#utility.yul\":14327:14372   */\n      tag_575\n        /* \"#utility.yul\":14347:14371   */\n      tag_576\n        /* \"#utility.yul\":14365:14370   */\n      dup3\n        /* \"#utility.yul\":14347:14371   */\n      tag_364\n      jump\t// in\n    tag_576:\n        /* \"#utility.yul\":14327:14372   */\n      tag_402\n      jump\t// in\n    tag_575:\n        /* \"#utility.yul\":14322:14325   */\n      dup3\n        /* \"#utility.yul\":14315:14373   */\n      mstore\n        /* \"#utility.yul\":14222:14379   */\n      pop\n      pop\n      jump\t// out\n        /* \"#utility.yul\":14385:14641   */\n    tag_197:\n        /* \"#utility.yul\":14497:14500   */\n      0x00\n        /* \"#utility.yul\":14512:14587   */\n      tag_578\n        /* \"#utility.yul\":14583:14586   */\n      dup3\n        /* \"#utility.yul\":14574:14580   */\n      dup5\n        /* \"#utility.yul\":14512:14587   */\n      tag_403\n      jump\t// in\n    tag_578:\n        /* \"#utility.yul\":14612:14614   */\n      0x20\n        /* \"#utility.yul\":14607:14610   */\n      dup3\n        /* \"#utility.yul\":14603:14615   */\n      add\n        /* \"#utility.yul\":14596:14615   */\n      swap2\n      pop\n        /* \"#utility.yul\":14632:14635   */\n      dup2\n        /* \"#utility.yul\":14625:14635   */\n      swap1\n      pop\n        /* \"#utility.yul\":14385:14641   */\n      swap3\n      swap2\n      pop\n      pop\n      jump\t// out\n        /* \"#utility.yul\":14647:14822   */\n    tag_404:\n        /* \"#utility.yul\":14787:14814   */\n      0x596f75206e65656420746f20636f6d6d69742066697273742e00000000000000\n        /* \"#utility.yul\":14783:14784   */\n      0x00\n        /* \"#utility.yul\":14775:14781   */\n      dup3\n        /* \"#utility.yul\":14771:14785   */\n      add\n        /* \"#utility.yul\":14764:14815   */\n      mstore\n        /* \"#utility.yul\":14647:14822   */\n      pop\n      jump\t// out\n        /* \"#utility.yul\":14828:15194   */\n    tag_405:\n        /* \"#utility.yul\":14970:14973   */\n      0x00\n        /* \"#utility.yul\":14991:15058   */\n      tag_581\n        /* \"#utility.yul\":15055:15057   */\n      0x19\n        /* \"#utility.yul\":15050:15053   */\n      dup4\n        /* \"#utility.yul\":14991:15058   */\n      tag_386\n      jump\t// in\n    tag_581:\n        /* \"#utility.yul\":14984:15058   */\n      swap2\n      pop\n        /* \"#utility.yul\":15067:15160   */\n      tag_582\n        /* \"#utility.yul\":15156:15159   */\n      dup3\n        /* \"#utility.yul\":15067:15160   */\n      tag_404\n      jump\t// in\n    tag_582:\n        /* \"#utility.yul\":15185:15187   */\n      0x20\n        /* \"#utility.yul\":15180:15183   */\n      dup3\n        /* \"#utility.yul\":15176:15188   */\n      add\n        /* \"#utility.yul\":15169:15188   */\n      swap1\n      pop\n        /* \"#utility.yul\":14828:15194   */\n      swap2\n      swap1\n      pop\n      jump\t// out\n        /* \"#utility.yul\":15200:15619   */\n    tag_203:\n        /* \"#utility.yul\":15366:15370   */\n      0x00\n        /* \"#utility.yul\":15404:15406   */\n      0x20\n        /* \"#utility.yul\":15393:15402   */\n      dup3\n        /* \"#utility.yul\":15389:15407   */\n      add\n        /* \"#utility.yul\":15381:15407   */\n      swap1\n      pop\n        /* \"#utility.yul\":15453:15462   */\n      dup2\n        /* \"#utility.yul\":15447:15451   */\n      dup2\n        /* \"#utility.yul\":15443:15463   */\n      sub\n        /* \"#utility.yul\":15439:15440   */\n      0x00\n        /* \"#utility.yul\":15428:15437   */\n      dup4\n        /* \"#utility.yul\":15424:15441   */\n      add\n        /* \"#utility.yul\":15417:15464   */\n      mstore\n        /* \"#utility.yul\":15481:15612   */\n      tag_584\n        /* \"#utility.yul\":15607:15611   */\n      dup2\n        /* \"#utility.yul\":15481:15612   */\n      tag_405\n      jump\t// in\n    tag_584:\n        /* \"#utility.yul\":15473:15612   */\n      swap1\n      pop\n        /* \"#utility.yul\":15200:15619   */\n      swap2\n      swap1\n      pop\n      jump\t// out\n        /* \"#utility.yul\":15625:15790   */\n    tag_406:\n        /* \"#utility.yul\":15765:15782   */\n      0x496e76616c69642063686f6963652e0000000000000000000000000000000000\n        /* \"#utility.yul\":15761:15762   */\n      0x00\n        /* \"#utility.yul\":15753:15759   */\n      dup3\n        /* \"#utility.yul\":15749:15763   */\n      add\n        /* \"#utility.yul\":15742:15783   */\n      mstore\n        /* \"#utility.yul\":15625:15790   */\n      pop\n      jump\t// out\n        /* \"#utility.yul\":15796:16162   */\n    tag_407:\n        /* \"#utility.yul\":15938:15941   */\n      0x00\n        /* \"#utility.yul\":15959:16026   */\n      tag_587\n        /* \"#utility.yul\":16023:16025   */\n      0x0f\n        /* \"#utility.yul\":16018:16021   */\n      dup4\n        /* \"#utility.yul\":15959:16026   */\n      tag_386\n      jump\t// in\n    tag_587:\n        /* \"#utility.yul\":15952:16026   */\n      swap2\n      pop\n        /* \"#utility.yul\":16035:16128   */\n      tag_588\n        /* \"#utility.yul\":16124:16127   */\n      dup3\n        /* \"#utility.yul\":16035:16128   */\n      tag_406\n      jump\t// in\n    tag_588:\n        /* \"#utility.yul\":16153:16155   */\n      0x20\n        /* \"#utility.yul\":16148:16151   */\n      dup3\n        /* \"#utility.yul\":16144:16156   */\n      add\n        /* \"#utility.yul\":16137:16156   */\n      swap1\n      pop\n        /* \"#utility.yul\":15796:16162   */\n      swap2\n      swap1\n      pop\n      jump\t// out\n        /* \"#utility.yul\":16168:16587   */\n    tag_209:\n        /* \"#utility.yul\":16334:16338   */\n      0x00\n        /* \"#utility.yul\":16372:16374   */\n      0x20\n        /* \"#utility.yul\":16361:16370   */\n      dup3\n        /* \"#utility.yul\":16357:16375   */\n      add\n        /* \"#utility.yul\":16349:16375   */\n      swap1\n      pop\n        /* \"#utility.yul\":16421:16430   */\n      dup2\n        /* \"#utility.yul\":16415:16419   */\n      dup2\n        /* \"#utility.yul\":16411:16431   */\n      sub\n        /* \"#utility.yul\":16407:16408   */\n      0x00\n        /* \"#utility.yul\":16396:16405   */\n      dup4\n        /* \"#utility.yul\":16392:16409   */\n      add\n        /* \"#utility.yul\":16385:16432   */\n      mstore\n        /* \"#utility.yul\":16449:16580   */\n      tag_590\n        /* \"#utility.yul\":16575:16579   */\n      dup2\n        /* \"#utility.yul\":16449:16580   */\n      tag_407\n      jump\t// in\n    tag_590:\n        /* \"#utility.yul\":16441:16580   */\n      swap1\n      pop\n        /* \"#utility.yul\":16168:16587   */\n      swap2\n      swap1\n      pop\n      jump\t// out\n        /* \"#utility.yul\":16593:16787   */\n    tag_222:\n        /* \"#utility.yul\":16633:16637   */\n      0x00\n        /* \"#utility.yul\":16653:16673   */\n      tag_592\n        /* \"#utility.yul\":16671:16672   */\n      dup3\n        /* \"#utility.yul\":16653:16673   */\n      tag_359\n      jump\t// in\n    tag_592:\n        /* \"#utility.yul\":16648:16673   */\n      swap2\n      pop\n        /* \"#utility.yul\":16687:16707   */\n      tag_593\n        /* \"#utility.yul\":16705:16706   */\n      dup4\n        /* \"#utility.yul\":16687:16707   */\n      tag_359\n      jump\t// in\n    tag_593:\n        /* \"#utility.yul\":16682:16707   */\n      swap3\n      pop\n        /* \"#utility.yul\":16731:16732   */\n      dup3\n        /* \"#utility.yul\":16728:16729   */\n      dup3\n        /* \"#utility.yul\":16724:16733   */\n      sub\n        /* \"#utility.yul\":16716:16733   */\n      swap1\n      pop\n        /* \"#utility.yul\":16755:16756   */\n      dup2\n        /* \"#utility.yul\":16749:16753   */\n      dup2\n        /* \"#utility.yul\":16746:16757   */\n      gt\n        /* \"#utility.yul\":16743:16780   */\n      iszero\n      tag_594\n      jumpi\n        /* \"#utility.yul\":16760:16778   */\n      tag_595\n      tag_394\n      jump\t// in\n    tag_595:\n        /* \"#utility.yul\":16743:16780   */\n    tag_594:\n        /* \"#utility.yul\":16593:16787   */\n      swap3\n      swap2\n      pop\n      pop\n      jump\t// out\n        /* \"#utility.yul\":16793:16964   */\n    tag_408:\n        /* \"#utility.yul\":16933:16956   */\n      0x47616d65206e65656473203220706c61796572732e0000000000000000000000\n        /* \"#utility.yul\":16929:16930   */\n      0x00\n        /* \"#utility.yul\":16921:16927   */\n      dup3\n        /* \"#utility.yul\":16917:16931   */\n      add\n        /* \"#utility.yul\":16910:16957   */\n      mstore\n        /* \"#utility.yul\":16793:16964   */\n      pop\n      jump\t// out\n        /* \"#utility.yul\":16970:17336   */\n    tag_409:\n        /* \"#utility.yul\":17112:17115   */\n      0x00\n        /* \"#utility.yul\":17133:17200   */\n      tag_598\n        /* \"#utility.yul\":17197:17199   */\n      0x15\n        /* \"#utility.yul\":17192:17195   */\n      dup4\n        /* \"#utility.yul\":17133:17200   */\n      tag_386\n      jump\t// in\n    tag_598:\n        /* \"#utility.yul\":17126:17200   */\n      swap2\n      pop\n        /* \"#utility.yul\":17209:17302   */\n      tag_599\n        /* \"#utility.yul\":17298:17301   */\n      dup3\n        /* \"#utility.yul\":17209:17302   */\n      tag_408\n      jump\t// in\n    tag_599:\n        /* \"#utility.yul\":17327:17329   */\n      0x20\n        /* \"#utility.yul\":17322:17325   */\n      dup3\n        /* \"#utility.yul\":17318:17330   */\n      add\n        /* \"#utility.yul\":17311:17330   */\n      swap1\n      pop\n        /* \"#utility.yul\":16970:17336   */\n      swap2\n      swap1\n      pop\n      jump\t// out\n        /* \"#utility.yul\":17342:17761   */\n    tag_226:\n        /* \"#utility.yul\":17508:17512   */\n      0x00\n        /* \"#utility.yul\":17546:17548   */\n      0x20\n        /* \"#utility.yul\":17535:17544   */\n      dup3\n        /* \"#utility.yul\":17531:17549   */\n      add\n        /* \"#utility.yul\":17523:17549   */\n      swap1\n      pop\n        /* \"#utility.yul\":17595:17604   */\n      dup2\n        /* \"#utility.yul\":17589:17593   */\n      dup2\n        /* \"#utility.yul\":17585:17605   */\n      sub\n        /* \"#utility.yul\":17581:17582   */\n      0x00\n        /* \"#utility.yul\":17570:17579   */\n      dup4\n        /* \"#utility.yul\":17566:17583   */\n      add\n        /* \"#utility.yul\":17559:17606   */\n      mstore\n        /* \"#utility.yul\":17623:17754   */\n      tag_601\n        /* \"#utility.yul\":17749:17753   */\n      dup2\n        /* \"#utility.yul\":17623:17754   */\n      tag_409\n      jump\t// in\n    tag_601:\n        /* \"#utility.yul\":17615:17754   */\n      swap1\n      pop\n        /* \"#utility.yul\":17342:17761   */\n      swap2\n      swap1\n      pop\n      jump\t// out\n        /* \"#utility.yul\":17767:17935   */\n    tag_410:\n        /* \"#utility.yul\":17907:17927   */\n      0x416c726561647920636f6d6d69747465642e0000000000000000000000000000\n        /* \"#utility.yul\":17903:17904   */\n      0x00\n        /* \"#utility.yul\":17895:17901   */\n      dup3\n        /* \"#utility.yul\":17891:17905   */\n      add\n        /* \"#utility.yul\":17884:17928   */\n      mstore\n        /* \"#utility.yul\":17767:17935   */\n      pop\n      jump\t// out\n        /* \"#utility.yul\":17941:18307   */\n    tag_411:\n        /* \"#utility.yul\":18083:18086   */\n      0x00\n        /* \"#utility.yul\":18104:18171   */\n      tag_604\n        /* \"#utility.yul\":18168:18170   */\n      0x12\n        /* \"#utility.yul\":18163:18166   */\n      dup4\n        /* \"#utility.yul\":18104:18171   */\n      tag_386\n      jump\t// in\n    tag_604:\n        /* \"#utility.yul\":18097:18171   */\n      swap2\n      pop\n        /* \"#utility.yul\":18180:18273   */\n      tag_605\n        /* \"#utility.yul\":18269:18272   */\n      dup3\n        /* \"#utility.yul\":18180:18273   */\n      tag_410\n      jump\t// in\n    tag_605:\n        /* \"#utility.yul\":18298:18300   */\n      0x20\n        /* \"#utility.yul\":18293:18296   */\n      dup3\n        /* \"#utility.yul\":18289:18301   */\n      add\n        /* \"#utility.yul\":18282:18301   */\n      swap1\n      pop\n        /* \"#utility.yul\":17941:18307   */\n      swap2\n      swap1\n      pop\n      jump\t// out\n        /* \"#utility.yul\":18313:18732   */\n    tag_229:\n        /* \"#utility.yul\":18479:18483   */\n      0x00\n        /* \"#utility.yul\":18517:18519   */\n      0x20\n        /* \"#utility.yul\":18506:18515   */\n      dup3\n        /* \"#utility.yul\":18502:18520   */\n      add\n        /* \"#utility.yul\":18494:18520   */\n      swap1\n      pop\n        /* \"#utility.yul\":18566:18575   */\n      dup2\n        /* \"#utility.yul\":18560:18564   */\n      dup2\n        /* \"#utility.yul\":18556:18576   */\n      sub\n        /* \"#utility.yul\":18552:18553   */\n      0x00\n        /* \"#utility.yul\":18541:18550   */\n      dup4\n        /* \"#utility.yul\":18537:18554   */\n      add\n        /* \"#utility.yul\":18530:18577   */\n      mstore\n        /* \"#utility.yul\":18594:18725   */\n      tag_607\n        /* \"#utility.yul\":18720:18724   */\n      dup2\n        /* \"#utility.yul\":18594:18725   */\n      tag_411\n      jump\t// in\n    tag_607:\n        /* \"#utility.yul\":18586:18725   */\n      swap1\n      pop\n        /* \"#utility.yul\":18313:18732   */\n      swap2\n      swap1\n      pop\n      jump\t// out\n        /* \"#utility.yul\":18738:18910   */\n    tag_412:\n        /* \"#utility.yul\":18878:18902   */\n      0x596f7520616c726561647920636f6d6d69747465642e00000000000000000000\n        /* \"#utility.yul\":18874:18875   */\n      0x00\n        /* \"#utility.yul\":18866:18872   */\n      dup3\n        /* \"#utility.yul\":18862:18876   */\n      add\n        /* \"#utility.yul\":18855:18903   */\n      mstore\n        /* \"#utility.yul\":18738:18910   */\n      pop\n      jump\t// out\n        /* \"#utility.yul\":18916:19282   */\n    tag_413:\n        /* \"#utility.yul\":19058:19061   */\n      0x00\n        /* \"#utility.yul\":19079:19146   */\n      tag_610\n        /* \"#utility.yul\":19143:19145   */\n      0x16\n        /* \"#utility.yul\":19138:19141   */\n      dup4\n        /* \"#utility.yul\":19079:19146   */\n      tag_386\n      jump\t// in\n    tag_610:\n        /* \"#utility.yul\":19072:19146   */\n      swap2\n      pop\n        /* \"#utility.yul\":19155:19248   */\n      tag_611\n        /* \"#utility.yul\":19244:19247   */\n      dup3\n        /* \"#utility.yul\":19155:19248   */\n      tag_412\n      jump\t// in\n    tag_611:\n        /* \"#utility.yul\":19273:19275   */\n      0x20\n        /* \"#utility.yul\":19268:19271   */\n      dup3\n        /* \"#utility.yul\":19264:19276   */\n      add\n        /* \"#utility.yul\":19257:19276   */\n      swap1\n      pop\n        /* \"#utility.yul\":18916:19282   */\n      swap2\n      swap1\n      pop\n      jump\t// out\n        /* \"#utility.yul\":19288:19707   */\n    tag_232:\n        /* \"#utility.yul\":19454:19458   */\n      0x00\n        /* \"#utility.yul\":19492:19494   */\n      0x20\n        /* \"#utility.yul\":19481:19490   */\n      dup3\n        /* \"#utility.yul\":19477:19495   */\n      add\n        /* \"#utility.yul\":19469:19495   */\n      swap1\n      pop\n        /* \"#utility.yul\":19541:19550   */\n      dup2\n        /* \"#utility.yul\":19535:19539   */\n      dup2\n        /* \"#utility.yul\":19531:19551   */\n      sub\n        /* \"#utility.yul\":19527:19528   */\n      0x00\n        /* \"#utility.yul\":19516:19525   */\n      dup4\n        /* \"#utility.yul\":19512:19529   */\n      add\n        /* \"#utility.yul\":19505:19552   */\n      mstore\n        /* \"#utility.yul\":19569:19700   */\n      tag_613\n        /* \"#utility.yul\":19695:19699   */\n      dup2\n        /* \"#utility.yul\":19569:19700   */\n      tag_413\n      jump\t// in\n    tag_613:\n        /* \"#utility.yul\":19561:19700   */\n      swap1\n      pop\n        /* \"#utility.yul\":19288:19707   */\n      swap2\n      swap1\n      pop\n      jump\t// out\n        /* \"#utility.yul\":19713:19938   */\n    tag_414:\n        /* \"#utility.yul\":19853:19887   */\n      0x436f6d6d697452657665616c3a3a72657665616c3a20416c7265616479207265\n        /* \"#utility.yul\":19849:19850   */\n      0x00\n        /* \"#utility.yul\":19841:19847   */\n      dup3\n        /* \"#utility.yul\":19837:19851   */\n      add\n        /* \"#utility.yul\":19830:19888   */\n      mstore\n        /* \"#utility.yul\":19922:19930   */\n      0x7665616c65640000000000000000000000000000000000000000000000000000\n        /* \"#utility.yul\":19917:19919   */\n      0x20\n        /* \"#utility.yul\":19909:19915   */\n      dup3\n        /* \"#utility.yul\":19905:19920   */\n      add\n        /* \"#utility.yul\":19898:19931   */\n      mstore\n        /* \"#utility.yul\":19713:19938   */\n      pop\n      jump\t// out\n        /* \"#utility.yul\":19944:20310   */\n    tag_415:\n        /* \"#utility.yul\":20086:20089   */\n      0x00\n        /* \"#utility.yul\":20107:20174   */\n      tag_616\n        /* \"#utility.yul\":20171:20173   */\n      0x26\n        /* \"#utility.yul\":20166:20169   */\n      dup4\n        /* \"#utility.yul\":20107:20174   */\n      tag_386\n      jump\t// in\n    tag_616:\n        /* \"#utility.yul\":20100:20174   */\n      swap2\n      pop\n        /* \"#utility.yul\":20183:20276   */\n      tag_617\n        /* \"#utility.yul\":20272:20275   */\n      dup3\n        /* \"#utility.yul\":20183:20276   */\n      tag_414\n      jump\t// in\n    tag_617:\n        /* \"#utility.yul\":20301:20303   */\n      0x40\n        /* \"#utility.yul\":20296:20299   */\n      dup3\n        /* \"#utility.yul\":20292:20304   */\n      add\n        /* \"#utility.yul\":20285:20304   */\n      swap1\n      pop\n        /* \"#utility.yul\":19944:20310   */\n      swap2\n      swap1\n      pop\n      jump\t// out\n        /* \"#utility.yul\":20316:20735   */\n    tag_250:\n        /* \"#utility.yul\":20482:20486   */\n      0x00\n        /* \"#utility.yul\":20520:20522   */\n      0x20\n        /* \"#utility.yul\":20509:20518   */\n      dup3\n        /* \"#utility.yul\":20505:20523   */\n      add\n        /* \"#utility.yul\":20497:20523   */\n      swap1\n      pop\n        /* \"#utility.yul\":20569:20578   */\n      dup2\n        /* \"#utility.yul\":20563:20567   */\n      dup2\n        /* \"#utility.yul\":20559:20579   */\n      sub\n        /* \"#utility.yul\":20555:20556   */\n      0x00\n        /* \"#utility.yul\":20544:20553   */\n      dup4\n        /* \"#utility.yul\":20540:20557   */\n      add\n        /* \"#utility.yul\":20533:20580   */\n      mstore\n        /* \"#utility.yul\":20597:20728   */\n      tag_619\n        /* \"#utility.yul\":20723:20727   */\n      dup2\n        /* \"#utility.yul\":20597:20728   */\n      tag_415\n      jump\t// in\n    tag_619:\n        /* \"#utility.yul\":20589:20728   */\n      swap1\n      pop\n        /* \"#utility.yul\":20316:20735   */\n      swap2\n      swap1\n      pop\n      jump\t// out\n        /* \"#utility.yul\":20741:20985   */\n    tag_416:\n        /* \"#utility.yul\":20881:20915   */\n      0x436f6d6d697452657665616c3a3a72657665616c3a2052657665616c65642068\n        /* \"#utility.yul\":20877:20878   */\n      0x00\n        /* \"#utility.yul\":20869:20875   */\n      dup3\n        /* \"#utility.yul\":20865:20879   */\n      add\n        /* \"#utility.yul\":20858:20916   */\n      mstore\n        /* \"#utility.yul\":20950:20977   */\n      0x61736820646f6573206e6f74206d6174636820636f6d6d697400000000000000\n        /* \"#utility.yul\":20945:20947   */\n      0x20\n        /* \"#utility.yul\":20937:20943   */\n      dup3\n        /* \"#utility.yul\":20933:20948   */\n      add\n        /* \"#utility.yul\":20926:20978   */\n      mstore\n        /* \"#utility.yul\":20741:20985   */\n      pop\n      jump\t// out\n        /* \"#utility.yul\":20991:21357   */\n    tag_417:\n        /* \"#utility.yul\":21133:21136   */\n      0x00\n        /* \"#utility.yul\":21154:21221   */\n      tag_622\n        /* \"#utility.yul\":21218:21220   */\n      0x39\n        /* \"#utility.yul\":21213:21216   */\n      dup4\n        /* \"#utility.yul\":21154:21221   */\n      tag_386\n      jump\t// in\n    tag_622:\n        /* \"#utility.yul\":21147:21221   */\n      swap2\n      pop\n        /* \"#utility.yul\":21230:21323   */\n      tag_623\n        /* \"#utility.yul\":21319:21322   */\n      dup3\n        /* \"#utility.yul\":21230:21323   */\n      tag_416\n      jump\t// in\n    tag_623:\n        /* \"#utility.yul\":21348:21350   */\n      0x40\n        /* \"#utility.yul\":21343:21346   */\n      dup3\n        /* \"#utility.yul\":21339:21351   */\n      add\n        /* \"#utility.yul\":21332:21351   */\n      swap1\n      pop\n        /* \"#utility.yul\":20991:21357   */\n      swap2\n      swap1\n      pop\n      jump\t// out\n        /* \"#utility.yul\":21363:21782   */\n    tag_254:\n        /* \"#utility.yul\":21529:21533   */\n      0x00\n        /* \"#utility.yul\":21567:21569   */\n      0x20\n        /* \"#utility.yul\":21556:21565   */\n      dup3\n        /* \"#utility.yul\":21552:21570   */\n      add\n        /* \"#utility.yul\":21544:21570   */\n      swap1\n      pop\n        /* \"#utility.yul\":21616:21625   */\n      dup2\n        /* \"#utility.yul\":21610:21614   */\n      dup2\n        /* \"#utility.yul\":21606:21626   */\n      sub\n        /* \"#utility.yul\":21602:21603   */\n      0x00\n        /* \"#utility.yul\":21591:21600   */\n      dup4\n        /* \"#utility.yul\":21587:21604   */\n      add\n        /* \"#utility.yul\":21580:21627   */\n      mstore\n        /* \"#utility.yul\":21644:21775   */\n      tag_625\n        /* \"#utility.yul\":21770:21774   */\n      dup2\n        /* \"#utility.yul\":21644:21775   */\n      tag_417\n      jump\t// in\n    tag_625:\n        /* \"#utility.yul\":21636:21775   */\n      swap1\n      pop\n        /* \"#utility.yul\":21363:21782   */\n      swap2\n      swap1\n      pop\n      jump\t// out\n        /* \"#utility.yul\":21788:22078   */\n    tag_418:\n        /* \"#utility.yul\":21928:21962   */\n      0x436f6d6d697452657665616c3a3a72657665616c3a2052657665616c20616e64\n        /* \"#utility.yul\":21924:21925   */\n      0x00\n        /* \"#utility.yul\":21916:21922   */\n      dup3\n        /* \"#utility.yul\":21912:21926   */\n      add\n        /* \"#utility.yul\":21905:21963   */\n      mstore\n        /* \"#utility.yul\":21997:22031   */\n      0x20636f6d6d69742068617070656e6564206f6e207468652073616d6520626c6f\n        /* \"#utility.yul\":21992:21994   */\n      0x20\n        /* \"#utility.yul\":21984:21990   */\n      dup3\n        /* \"#utility.yul\":21980:21995   */\n      add\n        /* \"#utility.yul\":21973:22032   */\n      mstore\n        /* \"#utility.yul\":22066:22070   */\n      0x636b000000000000000000000000000000000000000000000000000000000000\n        /* \"#utility.yul\":22061:22063   */\n      0x40\n        /* \"#utility.yul\":22053:22059   */\n      dup3\n        /* \"#utility.yul\":22049:22064   */\n      add\n        /* \"#utility.yul\":22042:22071   */\n      mstore\n        /* \"#utility.yul\":21788:22078   */\n      pop\n      jump\t// out\n        /* \"#utility.yul\":22084:22450   */\n    tag_419:\n        /* \"#utility.yul\":22226:22229   */\n      0x00\n        /* \"#utility.yul\":22247:22314   */\n      tag_628\n        /* \"#utility.yul\":22311:22313   */\n      0x42\n        /* \"#utility.yul\":22306:22309   */\n      dup4\n        /* \"#utility.yul\":22247:22314   */\n      tag_386\n      jump\t// in\n    tag_628:\n        /* \"#utility.yul\":22240:22314   */\n      swap2\n      pop\n        /* \"#utility.yul\":22323:22416   */\n      tag_629\n        /* \"#utility.yul\":22412:22415   */\n      dup3\n        /* \"#utility.yul\":22323:22416   */\n      tag_418\n      jump\t// in\n    tag_629:\n        /* \"#utility.yul\":22441:22443   */\n      0x60\n        /* \"#utility.yul\":22436:22439   */\n      dup3\n        /* \"#utility.yul\":22432:22444   */\n      add\n        /* \"#utility.yul\":22425:22444   */\n      swap1\n      pop\n        /* \"#utility.yul\":22084:22450   */\n      swap2\n      swap1\n      pop\n      jump\t// out\n        /* \"#utility.yul\":22456:22875   */\n    tag_257:\n        /* \"#utility.yul\":22622:22626   */\n      0x00\n        /* \"#utility.yul\":22660:22662   */\n      0x20\n        /* \"#utility.yul\":22649:22658   */\n      dup3\n        /* \"#utility.yul\":22645:22663   */\n      add\n        /* \"#utility.yul\":22637:22663   */\n      swap1\n      pop\n        /* \"#utility.yul\":22709:22718   */\n      dup2\n        /* \"#utility.yul\":22703:22707   */\n      dup2\n        /* \"#utility.yul\":22699:22719   */\n      sub\n        /* \"#utility.yul\":22695:22696   */\n      0x00\n        /* \"#utility.yul\":22684:22693   */\n      dup4\n        /* \"#utility.yul\":22680:22697   */\n      add\n        /* \"#utility.yul\":22673:22720   */\n      mstore\n        /* \"#utility.yul\":22737:22868   */\n      tag_631\n        /* \"#utility.yul\":22863:22867   */\n      dup2\n        /* \"#utility.yul\":22737:22868   */\n      tag_419\n      jump\t// in\n    tag_631:\n        /* \"#utility.yul\":22729:22868   */\n      swap1\n      pop\n        /* \"#utility.yul\":22456:22875   */\n      swap2\n      swap1\n      pop\n      jump\t// out\n        /* \"#utility.yul\":22881:23086   */\n    tag_259:\n        /* \"#utility.yul\":22920:22923   */\n      0x00\n        /* \"#utility.yul\":22939:22958   */\n      tag_633\n        /* \"#utility.yul\":22956:22957   */\n      dup3\n        /* \"#utility.yul\":22939:22958   */\n      tag_376\n      jump\t// in\n    tag_633:\n        /* \"#utility.yul\":22934:22958   */\n      swap2\n      pop\n        /* \"#utility.yul\":22972:22991   */\n      tag_634\n        /* \"#utility.yul\":22989:22990   */\n      dup4\n        /* \"#utility.yul\":22972:22991   */\n      tag_376\n      jump\t// in\n    tag_634:\n        /* \"#utility.yul\":22967:22991   */\n      swap3\n      pop\n        /* \"#utility.yul\":23014:23015   */\n      dup3\n        /* \"#utility.yul\":23011:23012   */\n      dup3\n        /* \"#utility.yul\":23007:23016   */\n      add\n        /* \"#utility.yul\":23000:23016   */\n      swap1\n      pop\n        /* \"#utility.yul\":23037:23055   */\n      0xffffffffffffffff\n        /* \"#utility.yul\":23032:23035   */\n      dup2\n        /* \"#utility.yul\":23029:23056   */\n      gt\n        /* \"#utility.yul\":23026:23079   */\n      iszero\n      tag_635\n      jumpi\n        /* \"#utility.yul\":23059:23077   */\n      tag_636\n      tag_394\n      jump\t// in\n    tag_636:\n        /* \"#utility.yul\":23026:23079   */\n    tag_635:\n        /* \"#utility.yul\":22881:23086   */\n      swap3\n      swap2\n      pop\n      pop\n      jump\t// out\n        /* \"#utility.yul\":23092:23318   */\n    tag_420:\n        /* \"#utility.yul\":23232:23266   */\n      0x436f6d6d697452657665616c3a3a72657665616c3a2052657665616c65642074\n        /* \"#utility.yul\":23228:23229   */\n      0x00\n        /* \"#utility.yul\":23220:23226   */\n      dup3\n        /* \"#utility.yul\":23216:23230   */\n      add\n        /* \"#utility.yul\":23209:23267   */\n      mstore\n        /* \"#utility.yul\":23301:23310   */\n      0x6f6f206c61746500000000000000000000000000000000000000000000000000\n        /* \"#utility.yul\":23296:23298   */\n      0x20\n        /* \"#utility.yul\":23288:23294   */\n      dup3\n        /* \"#utility.yul\":23284:23299   */\n      add\n        /* \"#utility.yul\":23277:23311   */\n      mstore\n        /* \"#utility.yul\":23092:23318   */\n      pop\n      jump\t// out\n        /* \"#utility.yul\":23324:23690   */\n    tag_421:\n        /* \"#utility.yul\":23466:23469   */\n      0x00\n        /* \"#utility.yul\":23487:23554   */\n      tag_639\n        /* \"#utility.yul\":23551:23553   */\n      0x27\n        /* \"#utility.yul\":23546:23549   */\n      dup4\n        /* \"#utility.yul\":23487:23554   */\n      tag_386\n      jump\t// in\n    tag_639:\n        /* \"#utility.yul\":23480:23554   */\n      swap2\n      pop\n        /* \"#utility.yul\":23563:23656   */\n      tag_640\n        /* \"#utility.yul\":23652:23655   */\n      dup3\n        /* \"#utility.yul\":23563:23656   */\n      tag_420\n      jump\t// in\n    tag_640:\n        /* \"#utility.yul\":23681:23683   */\n      0x40\n        /* \"#utility.yul\":23676:23679   */\n      dup3\n        /* \"#utility.yul\":23672:23684   */\n      add\n        /* \"#utility.yul\":23665:23684   */\n      swap1\n      pop\n        /* \"#utility.yul\":23324:23690   */\n      swap2\n      swap1\n      pop\n      jump\t// out\n        /* \"#utility.yul\":23696:24115   */\n    tag_262:\n        /* \"#utility.yul\":23862:23866   */\n      0x00\n        /* \"#utility.yul\":23900:23902   */\n      0x20\n        /* \"#utility.yul\":23889:23898   */\n      dup3\n        /* \"#utility.yul\":23885:23903   */\n      add\n        /* \"#utility.yul\":23877:23903   */\n      swap1\n      pop\n        /* \"#utility.yul\":23949:23958   */\n      dup2\n        /* \"#utility.yul\":23943:23947   */\n      dup2\n        /* \"#utility.yul\":23939:23959   */\n      sub\n        /* \"#utility.yul\":23935:23936   */\n      0x00\n        /* \"#utility.yul\":23924:23933   */\n      dup4\n        /* \"#utility.yul\":23920:23937   */\n      add\n        /* \"#utility.yul\":23913:23960   */\n      mstore\n        /* \"#utility.yul\":23977:24108   */\n      tag_642\n        /* \"#utility.yul\":24103:24107   */\n      dup2\n        /* \"#utility.yul\":23977:24108   */\n      tag_421\n      jump\t// in\n    tag_642:\n        /* \"#utility.yul\":23969:24108   */\n      swap1\n      pop\n        /* \"#utility.yul\":23696:24115   */\n      swap2\n      swap1\n      pop\n      jump\t// out\n        /* \"#utility.yul\":24121:24518   */\n    tag_264:\n        /* \"#utility.yul\":24261:24264   */\n      0x00\n        /* \"#utility.yul\":24276:24351   */\n      tag_644\n        /* \"#utility.yul\":24347:24350   */\n      dup3\n        /* \"#utility.yul\":24338:24344   */\n      dup6\n        /* \"#utility.yul\":24276:24351   */\n      tag_403\n      jump\t// in\n    tag_644:\n        /* \"#utility.yul\":24376:24378   */\n      0x20\n        /* \"#utility.yul\":24371:24374   */\n      dup3\n        /* \"#utility.yul\":24367:24379   */\n      add\n        /* \"#utility.yul\":24360:24379   */\n      swap2\n      pop\n        /* \"#utility.yul\":24389:24464   */\n      tag_645\n        /* \"#utility.yul\":24460:24463   */\n      dup3\n        /* \"#utility.yul\":24451:24457   */\n      dup5\n        /* \"#utility.yul\":24389:24464   */\n      tag_403\n      jump\t// in\n    tag_645:\n        /* \"#utility.yul\":24489:24491   */\n      0x20\n        /* \"#utility.yul\":24484:24487   */\n      dup3\n        /* \"#utility.yul\":24480:24492   */\n      add\n        /* \"#utility.yul\":24473:24492   */\n      swap2\n      pop\n        /* \"#utility.yul\":24509:24512   */\n      dup2\n        /* \"#utility.yul\":24502:24512   */\n      swap1\n      pop\n        /* \"#utility.yul\":24121:24518   */\n      swap4\n      swap3\n      pop\n      pop\n      pop\n      jump\t// out\n        /* \"#utility.yul\":24524:24700   */\n    tag_266:\n        /* \"#utility.yul\":24556:24557   */\n      0x00\n        /* \"#utility.yul\":24573:24593   */\n      tag_647\n        /* \"#utility.yul\":24591:24592   */\n      dup3\n        /* \"#utility.yul\":24573:24593   */\n      tag_359\n      jump\t// in\n    tag_647:\n        /* \"#utility.yul\":24568:24593   */\n      swap2\n      pop\n        /* \"#utility.yul\":24607:24627   */\n      tag_648\n        /* \"#utility.yul\":24625:24626   */\n      dup4\n        /* \"#utility.yul\":24607:24627   */\n      tag_359\n      jump\t// in\n    tag_648:\n        /* \"#utility.yul\":24602:24627   */\n      swap3\n      pop\n        /* \"#utility.yul\":24646:24647   */\n      dup3\n        /* \"#utility.yul\":24636:24671   */\n      tag_649\n      jumpi\n        /* \"#utility.yul\":24651:24669   */\n      tag_650\n      tag_393\n      jump\t// in\n    tag_650:\n        /* \"#utility.yul\":24636:24671   */\n    tag_649:\n        /* \"#utility.yul\":24692:24693   */\n      dup3\n        /* \"#utility.yul\":24689:24690   */\n      dup3\n        /* \"#utility.yul\":24685:24694   */\n      mod\n        /* \"#utility.yul\":24680:24694   */\n      swap1\n      pop\n        /* \"#utility.yul\":24524:24700   */\n      swap3\n      swap2\n      pop\n      pop\n      jump\t// out\n        /* \"#utility.yul\":24706:25148   */\n    tag_268:\n        /* \"#utility.yul\":24855:24859   */\n      0x00\n        /* \"#utility.yul\":24893:24895   */\n      0x60\n        /* \"#utility.yul\":24882:24891   */\n      dup3\n        /* \"#utility.yul\":24878:24896   */\n      add\n        /* \"#utility.yul\":24870:24896   */\n      swap1\n      pop\n        /* \"#utility.yul\":24906:24977   */\n      tag_652\n        /* \"#utility.yul\":24974:24975   */\n      0x00\n        /* \"#utility.yul\":24963:24972   */\n      dup4\n        /* \"#utility.yul\":24959:24976   */\n      add\n        /* \"#utility.yul\":24950:24956   */\n      dup7\n        /* \"#utility.yul\":24906:24977   */\n      tag_380\n      jump\t// in\n    tag_652:\n        /* \"#utility.yul\":24987:25059   */\n      tag_653\n        /* \"#utility.yul\":25055:25057   */\n      0x20\n        /* \"#utility.yul\":25044:25053   */\n      dup4\n        /* \"#utility.yul\":25040:25058   */\n      add\n        /* \"#utility.yul\":25031:25037   */\n      dup6\n        /* \"#utility.yul\":24987:25059   */\n      tag_367\n      jump\t// in\n    tag_653:\n        /* \"#utility.yul\":25069:25141   */\n      tag_654\n        /* \"#utility.yul\":25137:25139   */\n      0x40\n        /* \"#utility.yul\":25126:25135   */\n      dup4\n        /* \"#utility.yul\":25122:25140   */\n      add\n        /* \"#utility.yul\":25113:25119   */\n      dup5\n        /* \"#utility.yul\":25069:25141   */\n      tag_360\n      jump\t// in\n    tag_654:\n        /* \"#utility.yul\":24706:25148   */\n      swap5\n      swap4\n      pop\n      pop\n      pop\n      pop\n      jump\t// out\n        /* \"#utility.yul\":25154:25380   */\n    tag_422:\n        /* \"#utility.yul\":25294:25328   */\n      0x506c61796572203120686173206e6f7420617070726f76656420656e6f756768\n        /* \"#utility.yul\":25290:25291   */\n      0x00\n        /* \"#utility.yul\":25282:25288   */\n      dup3\n        /* \"#utility.yul\":25278:25292   */\n      add\n        /* \"#utility.yul\":25271:25329   */\n      mstore\n        /* \"#utility.yul\":25363:25372   */\n      0x2066756e64732e00000000000000000000000000000000000000000000000000\n        /* \"#utility.yul\":25358:25360   */\n      0x20\n        /* \"#utility.yul\":25350:25356   */\n      dup3\n        /* \"#utility.yul\":25346:25361   */\n      add\n        /* \"#utility.yul\":25339:25373   */\n      mstore\n        /* \"#utility.yul\":25154:25380   */\n      pop\n      jump\t// out\n        /* \"#utility.yul\":25386:25752   */\n    tag_423:\n        /* \"#utility.yul\":25528:25531   */\n      0x00\n        /* \"#utility.yul\":25549:25616   */\n      tag_657\n        /* \"#utility.yul\":25613:25615   */\n      0x27\n        /* \"#utility.yul\":25608:25611   */\n      dup4\n        /* \"#utility.yul\":25549:25616   */\n      tag_386\n      jump\t// in\n    tag_657:\n        /* \"#utility.yul\":25542:25616   */\n      swap2\n      pop\n        /* \"#utility.yul\":25625:25718   */\n      tag_658\n        /* \"#utility.yul\":25714:25717   */\n      dup3\n        /* \"#utility.yul\":25625:25718   */\n      tag_422\n      jump\t// in\n    tag_658:\n        /* \"#utility.yul\":25743:25745   */\n      0x40\n        /* \"#utility.yul\":25738:25741   */\n      dup3\n        /* \"#utility.yul\":25734:25746   */\n      add\n        /* \"#utility.yul\":25727:25746   */\n      swap1\n      pop\n        /* \"#utility.yul\":25386:25752   */\n      swap2\n      swap1\n      pop\n      jump\t// out\n        /* \"#utility.yul\":25758:26177   */\n    tag_279:\n        /* \"#utility.yul\":25924:25928   */\n      0x00\n        /* \"#utility.yul\":25962:25964   */\n      0x20\n        /* \"#utility.yul\":25951:25960   */\n      dup3\n        /* \"#utility.yul\":25947:25965   */\n      add\n        /* \"#utility.yul\":25939:25965   */\n      swap1\n      pop\n        /* \"#utility.yul\":26011:26020   */\n      dup2\n        /* \"#utility.yul\":26005:26009   */\n      dup2\n        /* \"#utility.yul\":26001:26021   */\n      sub\n        /* \"#utility.yul\":25997:25998   */\n      0x00\n        /* \"#utility.yul\":25986:25995   */\n      dup4\n        /* \"#utility.yul\":25982:25999   */\n      add\n        /* \"#utility.yul\":25975:26022   */\n      mstore\n        /* \"#utility.yul\":26039:26170   */\n      tag_660\n        /* \"#utility.yul\":26165:26169   */\n      dup2\n        /* \"#utility.yul\":26039:26170   */\n      tag_423\n      jump\t// in\n    tag_660:\n        /* \"#utility.yul\":26031:26170   */\n      swap1\n      pop\n        /* \"#utility.yul\":25758:26177   */\n      swap2\n      swap1\n      pop\n      jump\t// out\n        /* \"#utility.yul\":26183:26409   */\n    tag_424:\n        /* \"#utility.yul\":26323:26357   */\n      0x506c61796572203220686173206e6f7420617070726f76656420656e6f756768\n        /* \"#utility.yul\":26319:26320   */\n      0x00\n        /* \"#utility.yul\":26311:26317   */\n      dup3\n        /* \"#utility.yul\":26307:26321   */\n      add\n        /* \"#utility.yul\":26300:26358   */\n      mstore\n        /* \"#utility.yul\":26392:26401   */\n      0x2066756e64732e00000000000000000000000000000000000000000000000000\n        /* \"#utility.yul\":26387:26389   */\n      0x20\n        /* \"#utility.yul\":26379:26385   */\n      dup3\n        /* \"#utility.yul\":26375:26390   */\n      add\n        /* \"#utility.yul\":26368:26402   */\n      mstore\n        /* \"#utility.yul\":26183:26409   */\n      pop\n      jump\t// out\n        /* \"#utility.yul\":26415:26781   */\n    tag_425:\n        /* \"#utility.yul\":26557:26560   */\n      0x00\n        /* \"#utility.yul\":26578:26645   */\n      tag_663\n        /* \"#utility.yul\":26642:26644   */\n      0x27\n        /* \"#utility.yul\":26637:26640   */\n      dup4\n        /* \"#utility.yul\":26578:26645   */\n      tag_386\n      jump\t// in\n    tag_663:\n        /* \"#utility.yul\":26571:26645   */\n      swap2\n      pop\n        /* \"#utility.yul\":26654:26747   */\n      tag_664\n        /* \"#utility.yul\":26743:26746   */\n      dup3\n        /* \"#utility.yul\":26654:26747   */\n      tag_424\n      jump\t// in\n    tag_664:\n        /* \"#utility.yul\":26772:26774   */\n      0x40\n        /* \"#utility.yul\":26767:26770   */\n      dup3\n        /* \"#utility.yul\":26763:26775   */\n      add\n        /* \"#utility.yul\":26756:26775   */\n      swap1\n      pop\n        /* \"#utility.yul\":26415:26781   */\n      swap2\n      swap1\n      pop\n      jump\t// out\n        /* \"#utility.yul\":26787:27206   */\n    tag_289:\n        /* \"#utility.yul\":26953:26957   */\n      0x00\n        /* \"#utility.yul\":26991:26993   */\n      0x20\n        /* \"#utility.yul\":26980:26989   */\n      dup3\n        /* \"#utility.yul\":26976:26994   */\n      add\n        /* \"#utility.yul\":26968:26994   */\n      swap1\n      pop\n        /* \"#utility.yul\":27040:27049   */\n      dup2\n        /* \"#utility.yul\":27034:27038   */\n      dup2\n        /* \"#utility.yul\":27030:27050   */\n      sub\n        /* \"#utility.yul\":27026:27027   */\n      0x00\n        /* \"#utility.yul\":27015:27024   */\n      dup4\n        /* \"#utility.yul\":27011:27028   */\n      add\n        /* \"#utility.yul\":27004:27051   */\n      mstore\n        /* \"#utility.yul\":27068:27199   */\n      tag_666\n        /* \"#utility.yul\":27194:27198   */\n      dup2\n        /* \"#utility.yul\":27068:27199   */\n      tag_425\n      jump\t// in\n    tag_666:\n        /* \"#utility.yul\":27060:27199   */\n      swap1\n      pop\n        /* \"#utility.yul\":26787:27206   */\n      swap2\n      swap1\n      pop\n      jump\t// out\n        /* \"#utility.yul\":27212:27654   */\n    tag_294:\n        /* \"#utility.yul\":27361:27365   */\n      0x00\n        /* \"#utility.yul\":27399:27401   */\n      0x60\n        /* \"#utility.yul\":27388:27397   */\n      dup3\n        /* \"#utility.yul\":27384:27402   */\n      add\n        /* \"#utility.yul\":27376:27402   */\n      swap1\n      pop\n        /* \"#utility.yul\":27412:27483   */\n      tag_668\n        /* \"#utility.yul\":27480:27481   */\n      0x00\n        /* \"#utility.yul\":27469:27478   */\n      dup4\n        /* \"#utility.yul\":27465:27482   */\n      add\n        /* \"#utility.yul\":27456:27462   */\n      dup7\n        /* \"#utility.yul\":27412:27483   */\n      tag_380\n      jump\t// in\n    tag_668:\n        /* \"#utility.yul\":27493:27565   */\n      tag_669\n        /* \"#utility.yul\":27561:27563   */\n      0x20\n        /* \"#utility.yul\":27550:27559   */\n      dup4\n        /* \"#utility.yul\":27546:27564   */\n      add\n        /* \"#utility.yul\":27537:27543   */\n      dup6\n        /* \"#utility.yul\":27493:27565   */\n      tag_380\n      jump\t// in\n    tag_669:\n        /* \"#utility.yul\":27575:27647   */\n      tag_670\n        /* \"#utility.yul\":27643:27645   */\n      0x40\n        /* \"#utility.yul\":27632:27641   */\n      dup4\n        /* \"#utility.yul\":27628:27646   */\n      add\n        /* \"#utility.yul\":27619:27625   */\n      dup5\n        /* \"#utility.yul\":27575:27647   */\n      tag_360\n      jump\t// in\n    tag_670:\n        /* \"#utility.yul\":27212:27654   */\n      swap5\n      swap4\n      pop\n      pop\n      pop\n      pop\n      jump\t// out\n        /* \"#utility.yul\":27660:28070   */\n    tag_306:\n        /* \"#utility.yul\":27700:27707   */\n      0x00\n        /* \"#utility.yul\":27723:27743   */\n      tag_672\n        /* \"#utility.yul\":27741:27742   */\n      dup3\n        /* \"#utility.yul\":27723:27743   */\n      tag_359\n      jump\t// in\n    tag_672:\n        /* \"#utility.yul\":27718:27743   */\n      swap2\n      pop\n        /* \"#utility.yul\":27757:27777   */\n      tag_673\n        /* \"#utility.yul\":27775:27776   */\n      dup4\n        /* \"#utility.yul\":27757:27777   */\n      tag_359\n      jump\t// in\n    tag_673:\n        /* \"#utility.yul\":27752:27777   */\n      swap3\n      pop\n        /* \"#utility.yul\":27812:27813   */\n      dup3\n        /* \"#utility.yul\":27809:27810   */\n      dup3\n        /* \"#utility.yul\":27805:27814   */\n      mul\n        /* \"#utility.yul\":27834:27864   */\n      tag_674\n        /* \"#utility.yul\":27852:27863   */\n      dup2\n        /* \"#utility.yul\":27834:27864   */\n      tag_359\n      jump\t// in\n    tag_674:\n        /* \"#utility.yul\":27823:27864   */\n      swap2\n      pop\n        /* \"#utility.yul\":28013:28014   */\n      dup3\n        /* \"#utility.yul\":28004:28011   */\n      dup3\n        /* \"#utility.yul\":28000:28015   */\n      div\n        /* \"#utility.yul\":27997:27998   */\n      dup5\n        /* \"#utility.yul\":27994:28016   */\n      eq\n        /* \"#utility.yul\":27974:27975   */\n      dup4\n        /* \"#utility.yul\":27967:27976   */\n      iszero\n        /* \"#utility.yul\":27947:28030   */\n      or\n        /* \"#utility.yul\":27924:28063   */\n      tag_675\n      jumpi\n        /* \"#utility.yul\":28043:28061   */\n      tag_676\n      tag_394\n      jump\t// in\n    tag_676:\n        /* \"#utility.yul\":27924:28063   */\n    tag_675:\n        /* \"#utility.yul\":27708:28070   */\n      pop\n        /* \"#utility.yul\":27660:28070   */\n      swap3\n      swap2\n      pop\n      pop\n      jump\t// out\n        /* \"#utility.yul\":28076:28514   */\n    tag_353:\n        /* \"#utility.yul\":28223:28227   */\n      0x00\n        /* \"#utility.yul\":28261:28263   */\n      0x60\n        /* \"#utility.yul\":28250:28259   */\n      dup3\n        /* \"#utility.yul\":28246:28264   */\n      add\n        /* \"#utility.yul\":28238:28264   */\n      swap1\n      pop\n        /* \"#utility.yul\":28274:28345   */\n      tag_678\n        /* \"#utility.yul\":28342:28343   */\n      0x00\n        /* \"#utility.yul\":28331:28340   */\n      dup4\n        /* \"#utility.yul\":28327:28344   */\n      add\n        /* \"#utility.yul\":28318:28324   */\n      dup7\n        /* \"#utility.yul\":28274:28345   */\n      tag_380\n      jump\t// in\n    tag_678:\n        /* \"#utility.yul\":28355:28427   */\n      tag_679\n        /* \"#utility.yul\":28423:28425   */\n      0x20\n        /* \"#utility.yul\":28412:28421   */\n      dup4\n        /* \"#utility.yul\":28408:28426   */\n      add\n        /* \"#utility.yul\":28399:28405   */\n      dup6\n        /* \"#utility.yul\":28355:28427   */\n      tag_367\n      jump\t// in\n    tag_679:\n        /* \"#utility.yul\":28437:28507   */\n      tag_680\n        /* \"#utility.yul\":28503:28505   */\n      0x40\n        /* \"#utility.yul\":28492:28501   */\n      dup4\n        /* \"#utility.yul\":28488:28506   */\n      add\n        /* \"#utility.yul\":28479:28485   */\n      dup5\n        /* \"#utility.yul\":28437:28507   */\n      tag_377\n      jump\t// in\n    tag_680:\n        /* \"#utility.yul\":28076:28514   */\n      swap5\n      swap4\n      pop\n      pop\n      pop\n      pop\n      jump\t// out\n\n    auxdata: 0xa264697066735822122039e068f57342d6a71c9d47b33da1e01ea9876f280752cc912d055d949fc8a78564736f6c634300081a0033\n}\n",
				"bytecode": {
					"linkReferences": {},
					"object": "608060405260645f806101000a81548160ff021916908360ff1602179055505f6004555f6005555f6008555f600955603c600a5564e8d4a51000600c55348015610047575f80fd5b5060405161308a38038061308a8339818101604052810190610069919061010d565b8060035f6101000a81548173ffffffffffffffffffffffffffffffffffffffff021916908373ffffffffffffffffffffffffffffffffffffffff16021790555050610138565b5f80fd5b5f73ffffffffffffffffffffffffffffffffffffffff82169050919050565b5f6100dc826100b3565b9050919050565b6100ec816100d2565b81146100f6575f80fd5b50565b5f81519050610107816100e3565b92915050565b5f60208284031215610122576101216100af565b5b5f61012f848285016100f9565b91505092915050565b612f45806101455f395ff3fe608060405234801561000f575f80fd5b506004361061012a575f3560e01c80637b43a8e6116100ab578063c876e6151161006f578063c876e61514610310578063d891f9691461032e578063d97c84161461034a578063f71d96cb14610368578063fc0c546a146103985761012a565b80637b43a8e61461025457806385d19e1a1461028657806390d5d0c3146102a4578063a040478d146102c2578063bc06b8cd146102f25761012a565b806343cdd438116100f257806343cdd438146101ae57806348b9ef40146101de57806365ce0ac6146101fc5780636ac5db191461021857806378e97925146102365761012a565b8063086f78151461012e578063134542551461014c578063228cb7331461015657806327b5db8a146101745780633cf5040a1461017e575b5f80fd5b6101366103b6565b6040516101439190612082565b60405180910390f35b6101546103bc565b005b61015e6109bc565b60405161016b9190612082565b60405180910390f35b61017c6109c2565b005b610198600480360381019061019391906120d2565b610d07565b6040516101a5919061210c565b60405180910390f35b6101c860048036038101906101c3919061217f565b610d36565b6040516101d591906121c4565b60405180910390f35b6101e6610d53565b6040516101f39190612082565b60405180910390f35b610216600480360381019061021191906120d2565b610d59565b005b610220610f00565b60405161022d91906121f8565b60405180910390f35b61023e610f10565b60405161024b9190612082565b60405180910390f35b61026e6004803603810190610269919061217f565b610f16565b60405161027d93929190612233565b60405180910390f35b61028e610f5c565b60405161029b9190612082565b60405180910390f35b6102ac610f62565b6040516102b99190612082565b60405180910390f35b6102dc60048036038101906102d7919061217f565b610f68565b6040516102e99190612082565b60405180910390f35b6102fa610f7d565b6040516103079190612082565b60405180910390f35b610318610f91565b6040516103259190612082565b60405180910390f35b610348600480360381019061034391906120d2565b610f97565b005b610352611166565b60405161035f9190612082565b60405180910390f35b610382600480360381019061037d9190612292565b611186565b60405161038f91906122cc565b60405180910390f35b6103a06111c1565b6040516103ad9190612340565b60405180910390f35b60085481565b5f60045411610400576040517f08c379a00000000000000000000000000000000000000000000000000000000081526004016103f7906123b3565b60405180910390fd5b600a5461040b610f7d565b1161044b576040517f08c379a00000000000000000000000000000000000000000000000000000000081526004016104429061241b565b60405180910390fd5b6001600454148061045d57505f600954145b156105415760035f9054906101000a900473ffffffffffffffffffffffffffffffffffffffff1673ffffffffffffffffffffffffffffffffffffffff1663a9059cbb600b5f815481106104b3576104b2612439565b5b905f5260205f20015f9054906101000a900473ffffffffffffffffffffffffffffffffffffffff166005546040518363ffffffff1660e01b81526004016104fb929190612466565b6020604051808303815f875af1158015610517573d5f803e3d5ffd5b505050506040513d601f19601f8201168201806040525081019061053b91906124b7565b506109b2565b6001600954036107e3575f600560065f600b5f8154811061056557610564612439565b5b905f5260205f20015f9054906101000a900473ffffffffffffffffffffffffffffffffffffffff1673ffffffffffffffffffffffffffffffffffffffff1673ffffffffffffffffffffffffffffffffffffffff1681526020019081526020015f20541461060e57600b6001815481106105e1576105e0612439565b5b905f5260205f20015f9054906101000a900473ffffffffffffffffffffffffffffffffffffffff1661064b565b600b5f8154811061062257610621612439565b5b905f5260205f20015f9054906101000a900473ffffffffffffffffffffffffffffffffffffffff165b90505f600b5f8154811061066257610661612439565b5b905f5260205f20015f9054906101000a900473ffffffffffffffffffffffffffffffffffffffff1673ffffffffffffffffffffffffffffffffffffffff168273ffffffffffffffffffffffffffffffffffffffff16146106fd57600b5f815481106106d0576106cf612439565b5b905f5260205f20015f9054906101000a900473ffffffffffffffffffffffffffffffffffffffff1661073b565b600b60018154811061071257610711612439565b5b905f5260205f20015f9054906101000a900473ffffffffffffffffffffffffffffffffffffffff165b905060035f9054906101000a900473ffffffffffffffffffffffffffffffffffffffff1673ffffffffffffffffffffffffffffffffffffffff1663a9059cbb826005546040518363ffffffff1660e01b815260040161079b929190612466565b6020604051808303815f875af11580156107b7573d5f803e3d5ffd5b505050506040513d601f19601f820116820180604052508101906107db91906124b7565b5050506109b1565b60035f9054906101000a900473ffffffffffffffffffffffffffffffffffffffff1673ffffffffffffffffffffffffffffffffffffffff1663a9059cbb600b5f8154811061083457610833612439565b5b905f5260205f20015f9054906101000a900473ffffffffffffffffffffffffffffffffffffffff16600260055461086b919061253c565b6040518363ffffffff1660e01b8152600401610888929190612466565b6020604051808303815f875af11580156108a4573d5f803e3d5ffd5b505050506040513d601f19601f820116820180604052508101906108c891906124b7565b5060035f9054906101000a900473ffffffffffffffffffffffffffffffffffffffff1673ffffffffffffffffffffffffffffffffffffffff1663a9059cbb600b60018154811061091b5761091a612439565b5b905f5260205f20015f9054906101000a900473ffffffffffffffffffffffffffffffffffffffff166002600554610952919061253c565b6040518363ffffffff1660e01b815260040161096f929190612466565b6020604051808303815f875af115801561098b573d5f803e3d5ffd5b505050506040513d601f19601f820116820180604052508101906109af91906124b7565b505b5b6109ba6111e6565b565b60055481565b600260045410610a07576040517f08c379a00000000000000000000000000000000000000000000000000000000081526004016109fe906125b6565b60405180910390fd5b600c5460035f9054906101000a900473ffffffffffffffffffffffffffffffffffffffff1673ffffffffffffffffffffffffffffffffffffffff1663dd62ed3e33306040518363ffffffff1660e01b8152600401610a669291906125d4565b602060405180830381865afa158015610a81573d5f803e3d5ffd5b505050506040513d601f19601f82011682018060405250810190610aa5919061260f565b1015610ae6576040517f08c379a0000000000000000000000000000000000000000000000000000000008152600401610add906126aa565b60405180910390fd5b5f6004541115610b9a57600b5f81548110610b0457610b03612439565b5b905f5260205f20015f9054906101000a900473ffffffffffffffffffffffffffffffffffffffff1673ffffffffffffffffffffffffffffffffffffffff163373ffffffffffffffffffffffffffffffffffffffff1603610b99576040517f08c379a0000000000000000000000000000000000000000000000000000000008152600401610b9090612712565b60405180910390fd5b5b600b33908060018154018082558091505060019003905f5260205f20015f9091909190916101000a81548173ffffffffffffffffffffffffffffffffffffffff021916908373ffffffffffffffffffffffffffffffffffffffff160217905550600560065f3373ffffffffffffffffffffffffffffffffffffffff1673ffffffffffffffffffffffffffffffffffffffff1681526020019081526020015f20819055505f60075f3373ffffffffffffffffffffffffffffffffffffffff1673ffffffffffffffffffffffffffffffffffffffff1681526020019081526020015f205f6101000a81548160ff02191690831515021790555060045f815480929190610ca390612730565b9190505550600c5460055f828254610cbb9190612777565b925050819055507f0c1de8e9993c058a253c96414b4215583b25fa35e1b6e0facf4d5a0dc2a6f3f833600454604051610cf5929190612466565b60405180910390a1610d05611211565b565b5f81604051602001610d1991906127ca565b604051602081830303815290604052805190602001209050919050565b6007602052805f5260405f205f915054906101000a900460ff1681565b600c5481565b600260045414610d67575f80fd5b600260085414610d75575f80fd5b60075f3373ffffffffffffffffffffffffffffffffffffffff1673ffffffffffffffffffffffffffffffffffffffff1681526020019081526020015f205f9054906101000a900460ff16610dfe576040517f08c379a0000000000000000000000000000000000000000000000000000000008152600401610df59061282e565b60405180910390fd5b5f81601f60208110610e1357610e12612439565b5b1a60f81b60f81c60ff1690505f8110158015610e30575060048111155b610e6f576040517f08c379a0000000000000000000000000000000000000000000000000000000008152600401610e6690612896565b60405180910390fd5b610e788261121a565b8060065f3373ffffffffffffffffffffffffffffffffffffffff1673ffffffffffffffffffffffffffffffffffffffff1681526020019081526020015f208190555060095f815480929190610ecc90612730565b9190505550610ed9611211565b600260095403610efc57610eeb6115d8565b610ef36119ee565b610efb6111e6565b5b5050565b5f8054906101000a900460ff1681565b60025481565b6001602052805f5260405f205f91509050805f015490806001015f9054906101000a900467ffffffffffffffff16908060010160089054906101000a900460ff16905083565b600a5481565b60045481565b6006602052805f5260405f205f915090505481565b5f60025442610f8c91906128b4565b905090565b60095481565b600260045414610fdc576040517f08c379a0000000000000000000000000000000000000000000000000000000008152600401610fd390612931565b60405180910390fd5b600260085410611021576040517f08c379a000000000000000000000000000000000000000000000000000000000815260040161101890612999565b60405180910390fd5b60075f3373ffffffffffffffffffffffffffffffffffffffff1673ffffffffffffffffffffffffffffffffffffffff1681526020019081526020015f205f9054906101000a900460ff16156110ab576040517f08c379a00000000000000000000000000000000000000000000000000000000081526004016110a290612a01565b60405180910390fd5b600160075f3373ffffffffffffffffffffffffffffffffffffffff1673ffffffffffffffffffffffffffffffffffffffff1681526020019081526020015f205f6101000a81548160ff02191690831515021790555061110981611e5f565b60085f81548092919061111b90612730565b91905055507fa8fb792d8bb1782eba00886b053364d6972fa987197717655665c13d3696ea9e33600854604051611153929190612466565b60405180910390a1611163611211565b50565b5f603c6002544261117791906128b4565b611181919061253c565b905090565b600b8181548110611195575f80fd5b905f5260205f20015f915054906101000a900473ffffffffffffffffffffffffffffffffffffffff1681565b60035f9054906101000a900473ffffffffffffffffffffffffffffffffffffffff1681565b600b5f6111f39190612031565b5f6004819055505f6008819055505f6009819055505f600581905550565b42600281905550565b5f151560015f3373ffffffffffffffffffffffffffffffffffffffff1673ffffffffffffffffffffffffffffffffffffffff1681526020019081526020015f2060010160089054906101000a900460ff161515146112ad576040517f08c379a00000000000000000000000000000000000000000000000000000000081526004016112a490612a8f565b60405180910390fd5b6001805f3373ffffffffffffffffffffffffffffffffffffffff1673ffffffffffffffffffffffffffffffffffffffff1681526020019081526020015f2060010160086101000a81548160ff02191690831515021790555060015f3373ffffffffffffffffffffffffffffffffffffffff1673ffffffffffffffffffffffffffffffffffffffff1681526020019081526020015f205f015461134e82610d07565b1461138e576040517f08c379a000000000000000000000000000000000000000000000000000000000815260040161138590612b1d565b60405180910390fd5b60015f3373ffffffffffffffffffffffffffffffffffffffff1673ffffffffffffffffffffffffffffffffffffffff1681526020019081526020015f206001015f9054906101000a900467ffffffffffffffff1667ffffffffffffffff164367ffffffffffffffff1611611437576040517f08c379a000000000000000000000000000000000000000000000000000000000815260040161142e90612bd1565b60405180910390fd5b60fa60015f3373ffffffffffffffffffffffffffffffffffffffff1673ffffffffffffffffffffffffffffffffffffffff1681526020019081526020015f206001015f9054906101000a900467ffffffffffffffff166114979190612bef565b67ffffffffffffffff164367ffffffffffffffff1611156114ed576040517f08c379a00000000000000000000000000000000000000000000000000000000081526004016114e490612c9a565b60405180910390fd5b5f60015f3373ffffffffffffffffffffffffffffffffffffffff1673ffffffffffffffffffffffffffffffffffffffff1681526020019081526020015f206001015f9054906101000a900467ffffffffffffffff1667ffffffffffffffff164090505f805f9054906101000a900460ff1660ff168284604051602001611574929190612cb8565b604051602081830303815290604052805190602001205f1c6115969190612ce3565b90507fbc016dd1cadeaefcb851af7a0a93532e0023d536894b730801f7bcfe7065bcc23384836040516115cb93929190612d13565b60405180910390a1505050565b600c5460035f9054906101000a900473ffffffffffffffffffffffffffffffffffffffff1673ffffffffffffffffffffffffffffffffffffffff1663dd62ed3e600b5f8154811061162c5761162b612439565b5b905f5260205f20015f9054906101000a900473ffffffffffffffffffffffffffffffffffffffff16306040518363ffffffff1660e01b81526004016116729291906125d4565b602060405180830381865afa15801561168d573d5f803e3d5ffd5b505050506040513d601f19601f820116820180604052508101906116b1919061260f565b10156116f2576040517f08c379a00000000000000000000000000000000000000000000000000000000081526004016116e990612db8565b60405180910390fd5b600c5460035f9054906101000a900473ffffffffffffffffffffffffffffffffffffffff1673ffffffffffffffffffffffffffffffffffffffff1663dd62ed3e600b60018154811061174757611746612439565b5b905f5260205f20015f9054906101000a900473ffffffffffffffffffffffffffffffffffffffff16306040518363ffffffff1660e01b815260040161178d9291906125d4565b602060405180830381865afa1580156117a8573d5f803e3d5ffd5b505050506040513d601f19601f820116820180604052508101906117cc919061260f565b101561180d576040517f08c379a000000000000000000000000000000000000000000000000000000000815260040161180490612e46565b60405180910390fd5b60035f9054906101000a900473ffffffffffffffffffffffffffffffffffffffff1673ffffffffffffffffffffffffffffffffffffffff166323b872dd600b5f8154811061185e5761185d612439565b5b905f5260205f20015f9054906101000a900473ffffffffffffffffffffffffffffffffffffffff1630600c546040518463ffffffff1660e01b81526004016118a893929190612e64565b6020604051808303815f875af11580156118c4573d5f803e3d5ffd5b505050506040513d601f19601f820116820180604052508101906118e891906124b7565b5060035f9054906101000a900473ffffffffffffffffffffffffffffffffffffffff1673ffffffffffffffffffffffffffffffffffffffff166323b872dd600b60018154811061193b5761193a612439565b5b905f5260205f20015f9054906101000a900473ffffffffffffffffffffffffffffffffffffffff1630600c546040518463ffffffff1660e01b815260040161198593929190612e64565b6020604051808303815f875af11580156119a1573d5f803e3d5ffd5b505050506040513d601f19601f820116820180604052508101906119c591906124b7565b506002600c546119d59190612e99565b60055f8282546119e59190612777565b92505081905550565b5f60065f600b5f81548110611a0657611a05612439565b5b905f5260205f20015f9054906101000a900473ffffffffffffffffffffffffffffffffffffffff1673ffffffffffffffffffffffffffffffffffffffff1673ffffffffffffffffffffffffffffffffffffffff1681526020019081526020015f205490505f60065f600b600181548110611a8357611a82612439565b5b905f5260205f20015f9054906101000a900473ffffffffffffffffffffffffffffffffffffffff1673ffffffffffffffffffffffffffffffffffffffff1673ffffffffffffffffffffffffffffffffffffffff1681526020019081526020015f205490505f818303611cc15760035f9054906101000a900473ffffffffffffffffffffffffffffffffffffffff1673ffffffffffffffffffffffffffffffffffffffff1663a9059cbb600b5f81548110611b4057611b3f612439565b5b905f5260205f20015f9054906101000a900473ffffffffffffffffffffffffffffffffffffffff166002600554611b77919061253c565b6040518363ffffffff1660e01b8152600401611b94929190612466565b6020604051808303815f875af1158015611bb0573d5f803e3d5ffd5b505050506040513d601f19601f82011682018060405250810190611bd491906124b7565b5060035f9054906101000a900473ffffffffffffffffffffffffffffffffffffffff1673ffffffffffffffffffffffffffffffffffffffff1663a9059cbb600b600181548110611c2757611c26612439565b5b905f5260205f20015f9054906101000a900473ffffffffffffffffffffffffffffffffffffffff166002600554611c5e919061253c565b6040518363ffffffff1660e01b8152600401611c7b929190612466565b6020604051808303815f875af1158015611c97573d5f803e3d5ffd5b505050506040513d601f19601f82011682018060405250810190611cbb91906124b7565b50611d87565b816005600185611cd19190612777565b611cdb9190612ce3565b1480611cfe5750816005600385611cf29190612777565b611cfc9190612ce3565b145b15611d4757600b600181548110611d1857611d17612439565b5b905f5260205f20015f9054906101000a900473ffffffffffffffffffffffffffffffffffffffff169050611d86565b600b5f81548110611d5b57611d5a612439565b5b905f5260205f20015f9054906101000a900473ffffffffffffffffffffffffffffffffffffffff1690505b5b5f73ffffffffffffffffffffffffffffffffffffffff168173ffffffffffffffffffffffffffffffffffffffff1614611e5a5760035f9054906101000a900473ffffffffffffffffffffffffffffffffffffffff1673ffffffffffffffffffffffffffffffffffffffff1663a9059cbb826005546040518363ffffffff1660e01b8152600401611e18929190612466565b6020604051808303815f875af1158015611e34573d5f803e3d5ffd5b505050506040513d601f19601f82011682018060405250810190611e5891906124b7565b505b505050565b8060015f3373ffffffffffffffffffffffffffffffffffffffff1673ffffffffffffffffffffffffffffffffffffffff1681526020019081526020015f205f01819055504360015f3373ffffffffffffffffffffffffffffffffffffffff1673ffffffffffffffffffffffffffffffffffffffff1681526020019081526020015f206001015f6101000a81548167ffffffffffffffff021916908367ffffffffffffffff1602179055505f60015f3373ffffffffffffffffffffffffffffffffffffffff1673ffffffffffffffffffffffffffffffffffffffff1681526020019081526020015f2060010160086101000a81548160ff0219169083151502179055507f3c1a1f8f38335b17f751c6da4ba7d1865f26b3997535176f5080de9fad8916033360015f3373ffffffffffffffffffffffffffffffffffffffff1673ffffffffffffffffffffffffffffffffffffffff1681526020019081526020015f205f015460015f3373ffffffffffffffffffffffffffffffffffffffff1673ffffffffffffffffffffffffffffffffffffffff1681526020019081526020015f206001015f9054906101000a900467ffffffffffffffff1660405161202693929190612eda565b60405180910390a150565b5080545f8255905f5260205f209081019061204c919061204f565b50565b5b80821115612066575f815f905550600101612050565b5090565b5f819050919050565b61207c8161206a565b82525050565b5f6020820190506120955f830184612073565b92915050565b5f80fd5b5f819050919050565b6120b18161209f565b81146120bb575f80fd5b50565b5f813590506120cc816120a8565b92915050565b5f602082840312156120e7576120e661209b565b5b5f6120f4848285016120be565b91505092915050565b6121068161209f565b82525050565b5f60208201905061211f5f8301846120fd565b92915050565b5f73ffffffffffffffffffffffffffffffffffffffff82169050919050565b5f61214e82612125565b9050919050565b61215e81612144565b8114612168575f80fd5b50565b5f8135905061217981612155565b92915050565b5f602082840312156121945761219361209b565b5b5f6121a18482850161216b565b91505092915050565b5f8115159050919050565b6121be816121aa565b82525050565b5f6020820190506121d75f8301846121b5565b92915050565b5f60ff82169050919050565b6121f2816121dd565b82525050565b5f60208201905061220b5f8301846121e9565b92915050565b5f67ffffffffffffffff82169050919050565b61222d81612211565b82525050565b5f6060820190506122465f8301866120fd565b6122536020830185612224565b61226060408301846121b5565b949350505050565b6122718161206a565b811461227b575f80fd5b50565b5f8135905061228c81612268565b92915050565b5f602082840312156122a7576122a661209b565b5b5f6122b48482850161227e565b91505092915050565b6122c681612144565b82525050565b5f6020820190506122df5f8301846122bd565b92915050565b5f819050919050565b5f6123086123036122fe84612125565b6122e5565b612125565b9050919050565b5f612319826122ee565b9050919050565b5f61232a8261230f565b9050919050565b61233a81612320565b82525050565b5f6020820190506123535f830184612331565b92915050565b5f82825260208201905092915050565b7f4e6f20706c617965727320696e207468652067616d652e0000000000000000005f82015250565b5f61239d601783612359565b91506123a882612369565b602082019050919050565b5f6020820190508181035f8301526123ca81612391565b9050919050565b7f54696d656f7574206e6f7420726561636865642e0000000000000000000000005f82015250565b5f612405601483612359565b9150612410826123d1565b602082019050919050565b5f6020820190508181035f830152612432816123f9565b9050919050565b7f4e487b71000000000000000000000000000000000000000000000000000000005f52603260045260245ffd5b5f6040820190506124795f8301856122bd565b6124866020830184612073565b9392505050565b612496816121aa565b81146124a0575f80fd5b50565b5f815190506124b18161248d565b92915050565b5f602082840312156124cc576124cb61209b565b5b5f6124d9848285016124a3565b91505092915050565b7f4e487b71000000000000000000000000000000000000000000000000000000005f52601260045260245ffd5b7f4e487b71000000000000000000000000000000000000000000000000000000005f52601160045260245ffd5b5f6125468261206a565b91506125518361206a565b925082612561576125606124e2565b5b828204905092915050565b7f47616d6520616c726561647920686173203220706c61796572732e00000000005f82015250565b5f6125a0601b83612359565b91506125ab8261256c565b602082019050919050565b5f6020820190508181035f8301526125cd81612594565b9050919050565b5f6040820190506125e75f8301856122bd565b6125f460208301846122bd565b9392505050565b5f8151905061260981612268565b92915050565b5f602082840312156126245761262361209b565b5b5f612631848285016125fb565b91505092915050565b7f417070726f766520636f6e747261637420746f2077697468647261772066756e5f8201527f64732e0000000000000000000000000000000000000000000000000000000000602082015250565b5f612694602383612359565b915061269f8261263a565b604082019050919050565b5f6020820190508181035f8301526126c181612688565b9050919050565b7f596f752061726520616c726561647920696e207468652067616d652e000000005f82015250565b5f6126fc601c83612359565b9150612707826126c8565b602082019050919050565b5f6020820190508181035f830152612729816126f0565b9050919050565b5f61273a8261206a565b91507fffffffffffffffffffffffffffffffffffffffffffffffffffffffffffffffff820361276c5761276b61250f565b5b600182019050919050565b5f6127818261206a565b915061278c8361206a565b92508282019050808211156127a4576127a361250f565b5b92915050565b5f819050919050565b6127c46127bf8261209f565b6127aa565b82525050565b5f6127d582846127b3565b60208201915081905092915050565b7f596f75206e65656420746f20636f6d6d69742066697273742e000000000000005f82015250565b5f612818601983612359565b9150612823826127e4565b602082019050919050565b5f6020820190508181035f8301526128458161280c565b9050919050565b7f496e76616c69642063686f6963652e00000000000000000000000000000000005f82015250565b5f612880600f83612359565b915061288b8261284c565b602082019050919050565b5f6020820190508181035f8301526128ad81612874565b9050919050565b5f6128be8261206a565b91506128c98361206a565b92508282039050818111156128e1576128e061250f565b5b92915050565b7f47616d65206e65656473203220706c61796572732e00000000000000000000005f82015250565b5f61291b601583612359565b9150612926826128e7565b602082019050919050565b5f6020820190508181035f8301526129488161290f565b9050919050565b7f416c726561647920636f6d6d69747465642e00000000000000000000000000005f82015250565b5f612983601283612359565b915061298e8261294f565b602082019050919050565b5f6020820190508181035f8301526129b081612977565b9050919050565b7f596f7520616c726561647920636f6d6d69747465642e000000000000000000005f82015250565b5f6129eb601683612359565b91506129f6826129b7565b602082019050919050565b5f6020820190508181035f830152612a18816129df565b9050919050565b7f436f6d6d697452657665616c3a3a72657665616c3a20416c72656164792072655f8201527f7665616c65640000000000000000000000000000000000000000000000000000602082015250565b5f612a79602683612359565b9150612a8482612a1f565b604082019050919050565b5f6020820190508181035f830152612aa681612a6d565b9050919050565b7f436f6d6d697452657665616c3a3a72657665616c3a2052657665616c656420685f8201527f61736820646f6573206e6f74206d6174636820636f6d6d697400000000000000602082015250565b5f612b07603983612359565b9150612b1282612aad565b604082019050919050565b5f6020820190508181035f830152612b3481612afb565b9050919050565b7f436f6d6d697452657665616c3a3a72657665616c3a2052657665616c20616e645f8201527f20636f6d6d69742068617070656e6564206f6e207468652073616d6520626c6f60208201527f636b000000000000000000000000000000000000000000000000000000000000604082015250565b5f612bbb604283612359565b9150612bc682612b3b565b606082019050919050565b5f6020820190508181035f830152612be881612baf565b9050919050565b5f612bf982612211565b9150612c0483612211565b9250828201905067ffffffffffffffff811115612c2457612c2361250f565b5b92915050565b7f436f6d6d697452657665616c3a3a72657665616c3a2052657665616c656420745f8201527f6f6f206c61746500000000000000000000000000000000000000000000000000602082015250565b5f612c84602783612359565b9150612c8f82612c2a565b604082019050919050565b5f6020820190508181035f830152612cb181612c78565b9050919050565b5f612cc382856127b3565b602082019150612cd382846127b3565b6020820191508190509392505050565b5f612ced8261206a565b9150612cf88361206a565b925082612d0857612d076124e2565b5b828206905092915050565b5f606082019050612d265f8301866122bd565b612d3360208301856120fd565b612d406040830184612073565b949350505050565b7f506c61796572203120686173206e6f7420617070726f76656420656e6f7567685f8201527f2066756e64732e00000000000000000000000000000000000000000000000000602082015250565b5f612da2602783612359565b9150612dad82612d48565b604082019050919050565b5f6020820190508181035f830152612dcf81612d96565b9050919050565b7f506c61796572203220686173206e6f7420617070726f76656420656e6f7567685f8201527f2066756e64732e00000000000000000000000000000000000000000000000000602082015250565b5f612e30602783612359565b9150612e3b82612dd6565b604082019050919050565b5f6020820190508181035f830152612e5d81612e24565b9050919050565b5f606082019050612e775f8301866122bd565b612e8460208301856122bd565b612e916040830184612073565b949350505050565b5f612ea38261206a565b9150612eae8361206a565b9250828202612ebc8161206a565b91508282048414831517612ed357612ed261250f565b5b5092915050565b5f606082019050612eed5f8301866122bd565b612efa60208301856120fd565b612f076040830184612224565b94935050505056fea264697066735822122039e068f57342d6a71c9d47b33da1e01ea9876f280752cc912d055d949fc8a78564736f6c634300081a0033",
					"opcodes": "PUSH1 0x80 PUSH1 0x40 MSTORE PUSH1 0x64 PUSH0 DUP1 PUSH2 0x100 EXP DUP2 SLOAD DUP2 PUSH1 0xFF MUL NOT AND SWAP1 DUP4 PUSH1 0xFF AND MUL OR SWAP1 SSTORE POP PUSH0 PUSH1 0x4 SSTORE PUSH0 PUSH1 0x5 SSTORE PUSH0 PUSH1 0x8 SSTORE PUSH0 PUSH1 0x9 SSTORE PUSH1 0x3C PUSH1 0xA SSTORE PUSH5 0xE8D4A51000 PUSH1 0xC SSTORE CALLVALUE DUP1 ISZERO PUSH2 0x47 JUMPI PUSH0 DUP1 REVERT JUMPDEST POP PUSH1 0x40 MLOAD PUSH2 0x308A CODESIZE SUB DUP1 PUSH2 0x308A DUP4 CODECOPY DUP2 DUP2 ADD PUSH1 0x40 MSTORE DUP2 ADD SWAP1 PUSH2 0x69 SWAP2 SWAP1 PUSH2 0x10D JUMP JUMPDEST DUP1 PUSH1 0x3 PUSH0 PUSH2 0x100 EXP DUP2 SLOAD DUP2 PUSH20 0xFFFFFFFFFFFFFFFFFFFFFFFFFFFFFFFFFFFFFFFF MUL NOT AND SWAP1 DUP4 PUSH20 0xFFFFFFFFFFFFFFFFFFFFFFFFFFFFFFFFFFFFFFFF AND MUL OR SWAP1 SSTORE POP POP PUSH2 0x138 JUMP JUMPDEST PUSH0 DUP1 REVERT JUMPDEST PUSH0 PUSH20 0xFFFFFFFFFFFFFFFFFFFFFFFFFFFFFFFFFFFFFFFF DUP3 AND SWAP1 POP SWAP2 SWAP1 POP JUMP JUMPDEST PUSH0 PUSH2 0xDC DUP3 PUSH2 0xB3 JUMP JUMPDEST SWAP1 POP SWAP2 SWAP1 POP JUMP JUMPDEST PUSH2 0xEC DUP2 PUSH2 0xD2 JUMP JUMPDEST DUP2 EQ PUSH2 0xF6 JUMPI PUSH0 DUP1 REVERT JUMPDEST POP JUMP JUMPDEST PUSH0 DUP2 MLOAD SWAP1 POP PUSH2 0x107 DUP2 PUSH2 0xE3 JUMP JUMPDEST SWAP3 SWAP2 POP POP JUMP JUMPDEST PUSH0 PUSH1 0x20 DUP3 DUP5 SUB SLT ISZERO PUSH2 0x122 JUMPI PUSH2 0x121 PUSH2 0xAF JUMP JUMPDEST JUMPDEST PUSH0 PUSH2 0x12F DUP5 DUP3 DUP6 ADD PUSH2 0xF9 JUMP JUMPDEST SWAP2 POP POP SWAP3 SWAP2 POP POP JUMP JUMPDEST PUSH2 0x2F45 DUP1 PUSH2 0x145 PUSH0 CODECOPY PUSH0 RETURN INVALID PUSH1 0x80 PUSH1 0x40 MSTORE CALLVALUE DUP1 ISZERO PUSH2 0xF JUMPI PUSH0 DUP1 REVERT JUMPDEST POP PUSH1 0x4 CALLDATASIZE LT PUSH2 0x12A JUMPI PUSH0 CALLDATALOAD PUSH1 0xE0 SHR DUP1 PUSH4 0x7B43A8E6 GT PUSH2 0xAB JUMPI DUP1 PUSH4 0xC876E615 GT PUSH2 0x6F JUMPI DUP1 PUSH4 0xC876E615 EQ PUSH2 0x310 JUMPI DUP1 PUSH4 0xD891F969 EQ PUSH2 0x32E JUMPI DUP1 PUSH4 0xD97C8416 EQ PUSH2 0x34A JUMPI DUP1 PUSH4 0xF71D96CB EQ PUSH2 0x368 JUMPI DUP1 PUSH4 0xFC0C546A EQ PUSH2 0x398 JUMPI PUSH2 0x12A JUMP JUMPDEST DUP1 PUSH4 0x7B43A8E6 EQ PUSH2 0x254 JUMPI DUP1 PUSH4 0x85D19E1A EQ PUSH2 0x286 JUMPI DUP1 PUSH4 0x90D5D0C3 EQ PUSH2 0x2A4 JUMPI DUP1 PUSH4 0xA040478D EQ PUSH2 0x2C2 JUMPI DUP1 PUSH4 0xBC06B8CD EQ PUSH2 0x2F2 JUMPI PUSH2 0x12A JUMP JUMPDEST DUP1 PUSH4 0x43CDD438 GT PUSH2 0xF2 JUMPI DUP1 PUSH4 0x43CDD438 EQ PUSH2 0x1AE JUMPI DUP1 PUSH4 0x48B9EF40 EQ PUSH2 0x1DE JUMPI DUP1 PUSH4 0x65CE0AC6 EQ PUSH2 0x1FC JUMPI DUP1 PUSH4 0x6AC5DB19 EQ PUSH2 0x218 JUMPI DUP1 PUSH4 0x78E97925 EQ PUSH2 0x236 JUMPI PUSH2 0x12A JUMP JUMPDEST DUP1 PUSH4 0x86F7815 EQ PUSH2 0x12E JUMPI DUP1 PUSH4 0x13454255 EQ PUSH2 0x14C JUMPI DUP1 PUSH4 0x228CB733 EQ PUSH2 0x156 JUMPI DUP1 PUSH4 0x27B5DB8A EQ PUSH2 0x174 JUMPI DUP1 PUSH4 0x3CF5040A EQ PUSH2 0x17E JUMPI JUMPDEST PUSH0 DUP1 REVERT JUMPDEST PUSH2 0x136 PUSH2 0x3B6 JUMP JUMPDEST PUSH1 0x40 MLOAD PUSH2 0x143 SWAP2 SWAP1 PUSH2 0x2082 JUMP JUMPDEST PUSH1 0x40 MLOAD DUP1 SWAP2 SUB SWAP1 RETURN JUMPDEST PUSH2 0x154 PUSH2 0x3BC JUMP JUMPDEST STOP JUMPDEST PUSH2 0x15E PUSH2 0x9BC JUMP JUMPDEST PUSH1 0x40 MLOAD PUSH2 0x16B SWAP2 SWAP1 PUSH2 0x2082 JUMP JUMPDEST PUSH1 0x40 MLOAD DUP1 SWAP2 SUB SWAP1 RETURN JUMPDEST PUSH2 0x17C PUSH2 0x9C2 JUMP JUMPDEST STOP JUMPDEST PUSH2 0x198 PUSH1 0x4 DUP1 CALLDATASIZE SUB DUP2 ADD SWAP1 PUSH2 0x193 SWAP2 SWAP1 PUSH2 0x20D2 JUMP JUMPDEST PUSH2 0xD07 JUMP JUMPDEST PUSH1 0x40 MLOAD PUSH2 0x1A5 SWAP2 SWAP1 PUSH2 0x210C JUMP JUMPDEST PUSH1 0x40 MLOAD DUP1 SWAP2 SUB SWAP1 RETURN JUMPDEST PUSH2 0x1C8 PUSH1 0x4 DUP1 CALLDATASIZE SUB DUP2 ADD SWAP1 PUSH2 0x1C3 SWAP2 SWAP1 PUSH2 0x217F JUMP JUMPDEST PUSH2 0xD36 JUMP JUMPDEST PUSH1 0x40 MLOAD PUSH2 0x1D5 SWAP2 SWAP1 PUSH2 0x21C4 JUMP JUMPDEST PUSH1 0x40 MLOAD DUP1 SWAP2 SUB SWAP1 RETURN JUMPDEST PUSH2 0x1E6 PUSH2 0xD53 JUMP JUMPDEST PUSH1 0x40 MLOAD PUSH2 0x1F3 SWAP2 SWAP1 PUSH2 0x2082 JUMP JUMPDEST PUSH1 0x40 MLOAD DUP1 SWAP2 SUB SWAP1 RETURN JUMPDEST PUSH2 0x216 PUSH1 0x4 DUP1 CALLDATASIZE SUB DUP2 ADD SWAP1 PUSH2 0x211 SWAP2 SWAP1 PUSH2 0x20D2 JUMP JUMPDEST PUSH2 0xD59 JUMP JUMPDEST STOP JUMPDEST PUSH2 0x220 PUSH2 0xF00 JUMP JUMPDEST PUSH1 0x40 MLOAD PUSH2 0x22D SWAP2 SWAP1 PUSH2 0x21F8 JUMP JUMPDEST PUSH1 0x40 MLOAD DUP1 SWAP2 SUB SWAP1 RETURN JUMPDEST PUSH2 0x23E PUSH2 0xF10 JUMP JUMPDEST PUSH1 0x40 MLOAD PUSH2 0x24B SWAP2 SWAP1 PUSH2 0x2082 JUMP JUMPDEST PUSH1 0x40 MLOAD DUP1 SWAP2 SUB SWAP1 RETURN JUMPDEST PUSH2 0x26E PUSH1 0x4 DUP1 CALLDATASIZE SUB DUP2 ADD SWAP1 PUSH2 0x269 SWAP2 SWAP1 PUSH2 0x217F JUMP JUMPDEST PUSH2 0xF16 JUMP JUMPDEST PUSH1 0x40 MLOAD PUSH2 0x27D SWAP4 SWAP3 SWAP2 SWAP1 PUSH2 0x2233 JUMP JUMPDEST PUSH1 0x40 MLOAD DUP1 SWAP2 SUB SWAP1 RETURN JUMPDEST PUSH2 0x28E PUSH2 0xF5C JUMP JUMPDEST PUSH1 0x40 MLOAD PUSH2 0x29B SWAP2 SWAP1 PUSH2 0x2082 JUMP JUMPDEST PUSH1 0x40 MLOAD DUP1 SWAP2 SUB SWAP1 RETURN JUMPDEST PUSH2 0x2AC PUSH2 0xF62 JUMP JUMPDEST PUSH1 0x40 MLOAD PUSH2 0x2B9 SWAP2 SWAP1 PUSH2 0x2082 JUMP JUMPDEST PUSH1 0x40 MLOAD DUP1 SWAP2 SUB SWAP1 RETURN JUMPDEST PUSH2 0x2DC PUSH1 0x4 DUP1 CALLDATASIZE SUB DUP2 ADD SWAP1 PUSH2 0x2D7 SWAP2 SWAP1 PUSH2 0x217F JUMP JUMPDEST PUSH2 0xF68 JUMP JUMPDEST PUSH1 0x40 MLOAD PUSH2 0x2E9 SWAP2 SWAP1 PUSH2 0x2082 JUMP JUMPDEST PUSH1 0x40 MLOAD DUP1 SWAP2 SUB SWAP1 RETURN JUMPDEST PUSH2 0x2FA PUSH2 0xF7D JUMP JUMPDEST PUSH1 0x40 MLOAD PUSH2 0x307 SWAP2 SWAP1 PUSH2 0x2082 JUMP JUMPDEST PUSH1 0x40 MLOAD DUP1 SWAP2 SUB SWAP1 RETURN JUMPDEST PUSH2 0x318 PUSH2 0xF91 JUMP JUMPDEST PUSH1 0x40 MLOAD PUSH2 0x325 SWAP2 SWAP1 PUSH2 0x2082 JUMP JUMPDEST PUSH1 0x40 MLOAD DUP1 SWAP2 SUB SWAP1 RETURN JUMPDEST PUSH2 0x348 PUSH1 0x4 DUP1 CALLDATASIZE SUB DUP2 ADD SWAP1 PUSH2 0x343 SWAP2 SWAP1 PUSH2 0x20D2 JUMP JUMPDEST PUSH2 0xF97 JUMP JUMPDEST STOP JUMPDEST PUSH2 0x352 PUSH2 0x1166 JUMP JUMPDEST PUSH1 0x40 MLOAD PUSH2 0x35F SWAP2 SWAP1 PUSH2 0x2082 JUMP JUMPDEST PUSH1 0x40 MLOAD DUP1 SWAP2 SUB SWAP1 RETURN JUMPDEST PUSH2 0x382 PUSH1 0x4 DUP1 CALLDATASIZE SUB DUP2 ADD SWAP1 PUSH2 0x37D SWAP2 SWAP1 PUSH2 0x2292 JUMP JUMPDEST PUSH2 0x1186 JUMP JUMPDEST PUSH1 0x40 MLOAD PUSH2 0x38F SWAP2 SWAP1 PUSH2 0x22CC JUMP JUMPDEST PUSH1 0x40 MLOAD DUP1 SWAP2 SUB SWAP1 RETURN JUMPDEST PUSH2 0x3A0 PUSH2 0x11C1 JUMP JUMPDEST PUSH1 0x40 MLOAD PUSH2 0x3AD SWAP2 SWAP1 PUSH2 0x2340 JUMP JUMPDEST PUSH1 0x40 MLOAD DUP1 SWAP2 SUB SWAP1 RETURN JUMPDEST PUSH1 0x8 SLOAD DUP2 JUMP JUMPDEST PUSH0 PUSH1 0x4 SLOAD GT PUSH2 0x400 JUMPI PUSH1 0x40 MLOAD PUSH32 0x8C379A000000000000000000000000000000000000000000000000000000000 DUP2 MSTORE PUSH1 0x4 ADD PUSH2 0x3F7 SWAP1 PUSH2 0x23B3 JUMP JUMPDEST PUSH1 0x40 MLOAD DUP1 SWAP2 SUB SWAP1 REVERT JUMPDEST PUSH1 0xA SLOAD PUSH2 0x40B PUSH2 0xF7D JUMP JUMPDEST GT PUSH2 0x44B JUMPI PUSH1 0x40 MLOAD PUSH32 0x8C379A000000000000000000000000000000000000000000000000000000000 DUP2 MSTORE PUSH1 0x4 ADD PUSH2 0x442 SWAP1 PUSH2 0x241B JUMP JUMPDEST PUSH1 0x40 MLOAD DUP1 SWAP2 SUB SWAP1 REVERT JUMPDEST PUSH1 0x1 PUSH1 0x4 SLOAD EQ DUP1 PUSH2 0x45D JUMPI POP PUSH0 PUSH1 0x9 SLOAD EQ JUMPDEST ISZERO PUSH2 0x541 JUMPI PUSH1 0x3 PUSH0 SWAP1 SLOAD SWAP1 PUSH2 0x100 EXP SWAP1 DIV PUSH20 0xFFFFFFFFFFFFFFFFFFFFFFFFFFFFFFFFFFFFFFFF AND PUSH20 0xFFFFFFFFFFFFFFFFFFFFFFFFFFFFFFFFFFFFFFFF AND PUSH4 0xA9059CBB PUSH1 0xB PUSH0 DUP2 SLOAD DUP2 LT PUSH2 0x4B3 JUMPI PUSH2 0x4B2 PUSH2 0x2439 JUMP JUMPDEST JUMPDEST SWAP1 PUSH0 MSTORE PUSH1 0x20 PUSH0 KECCAK256 ADD PUSH0 SWAP1 SLOAD SWAP1 PUSH2 0x100 EXP SWAP1 DIV PUSH20 0xFFFFFFFFFFFFFFFFFFFFFFFFFFFFFFFFFFFFFFFF AND PUSH1 0x5 SLOAD PUSH1 0x40 MLOAD DUP4 PUSH4 0xFFFFFFFF AND PUSH1 0xE0 SHL DUP2 MSTORE PUSH1 0x4 ADD PUSH2 0x4FB SWAP3 SWAP2 SWAP1 PUSH2 0x2466 JUMP JUMPDEST PUSH1 0x20 PUSH1 0x40 MLOAD DUP1 DUP4 SUB DUP2 PUSH0 DUP8 GAS CALL ISZERO DUP1 ISZERO PUSH2 0x517 JUMPI RETURNDATASIZE PUSH0 DUP1 RETURNDATACOPY RETURNDATASIZE PUSH0 REVERT JUMPDEST POP POP POP POP PUSH1 0x40 MLOAD RETURNDATASIZE PUSH1 0x1F NOT PUSH1 0x1F DUP3 ADD AND DUP3 ADD DUP1 PUSH1 0x40 MSTORE POP DUP2 ADD SWAP1 PUSH2 0x53B SWAP2 SWAP1 PUSH2 0x24B7 JUMP JUMPDEST POP PUSH2 0x9B2 JUMP JUMPDEST PUSH1 0x1 PUSH1 0x9 SLOAD SUB PUSH2 0x7E3 JUMPI PUSH0 PUSH1 0x5 PUSH1 0x6 PUSH0 PUSH1 0xB PUSH0 DUP2 SLOAD DUP2 LT PUSH2 0x565 JUMPI PUSH2 0x564 PUSH2 0x2439 JUMP JUMPDEST JUMPDEST SWAP1 PUSH0 MSTORE PUSH1 0x20 PUSH0 KECCAK256 ADD PUSH0 SWAP1 SLOAD SWAP1 PUSH2 0x100 EXP SWAP1 DIV PUSH20 0xFFFFFFFFFFFFFFFFFFFFFFFFFFFFFFFFFFFFFFFF AND PUSH20 0xFFFFFFFFFFFFFFFFFFFFFFFFFFFFFFFFFFFFFFFF AND PUSH20 0xFFFFFFFFFFFFFFFFFFFFFFFFFFFFFFFFFFFFFFFF AND DUP2 MSTORE PUSH1 0x20 ADD SWAP1 DUP2 MSTORE PUSH1 0x20 ADD PUSH0 KECCAK256 SLOAD EQ PUSH2 0x60E JUMPI PUSH1 0xB PUSH1 0x1 DUP2 SLOAD DUP2 LT PUSH2 0x5E1 JUMPI PUSH2 0x5E0 PUSH2 0x2439 JUMP JUMPDEST JUMPDEST SWAP1 PUSH0 MSTORE PUSH1 0x20 PUSH0 KECCAK256 ADD PUSH0 SWAP1 SLOAD SWAP1 PUSH2 0x100 EXP SWAP1 DIV PUSH20 0xFFFFFFFFFFFFFFFFFFFFFFFFFFFFFFFFFFFFFFFF AND PUSH2 0x64B JUMP JUMPDEST PUSH1 0xB PUSH0 DUP2 SLOAD DUP2 LT PUSH2 0x622 JUMPI PUSH2 0x621 PUSH2 0x2439 JUMP JUMPDEST JUMPDEST SWAP1 PUSH0 MSTORE PUSH1 0x20 PUSH0 KECCAK256 ADD PUSH0 SWAP1 SLOAD SWAP1 PUSH2 0x100 EXP SWAP1 DIV PUSH20 0xFFFFFFFFFFFFFFFFFFFFFFFFFFFFFFFFFFFFFFFF AND JUMPDEST SWAP1 POP PUSH0 PUSH1 0xB PUSH0 DUP2 SLOAD DUP2 LT PUSH2 0x662 JUMPI PUSH2 0x661 PUSH2 0x2439 JUMP JUMPDEST JUMPDEST SWAP1 PUSH0 MSTORE PUSH1 0x20 PUSH0 KECCAK256 ADD PUSH0 SWAP1 SLOAD SWAP1 PUSH2 0x100 EXP SWAP1 DIV PUSH20 0xFFFFFFFFFFFFFFFFFFFFFFFFFFFFFFFFFFFFFFFF AND PUSH20 0xFFFFFFFFFFFFFFFFFFFFFFFFFFFFFFFFFFFFFFFF AND DUP3 PUSH20 0xFFFFFFFFFFFFFFFFFFFFFFFFFFFFFFFFFFFFFFFF AND EQ PUSH2 0x6FD JUMPI PUSH1 0xB PUSH0 DUP2 SLOAD DUP2 LT PUSH2 0x6D0 JUMPI PUSH2 0x6CF PUSH2 0x2439 JUMP JUMPDEST JUMPDEST SWAP1 PUSH0 MSTORE PUSH1 0x20 PUSH0 KECCAK256 ADD PUSH0 SWAP1 SLOAD SWAP1 PUSH2 0x100 EXP SWAP1 DIV PUSH20 0xFFFFFFFFFFFFFFFFFFFFFFFFFFFFFFFFFFFFFFFF AND PUSH2 0x73B JUMP JUMPDEST PUSH1 0xB PUSH1 0x1 DUP2 SLOAD DUP2 LT PUSH2 0x712 JUMPI PUSH2 0x711 PUSH2 0x2439 JUMP JUMPDEST JUMPDEST SWAP1 PUSH0 MSTORE PUSH1 0x20 PUSH0 KECCAK256 ADD PUSH0 SWAP1 SLOAD SWAP1 PUSH2 0x100 EXP SWAP1 DIV PUSH20 0xFFFFFFFFFFFFFFFFFFFFFFFFFFFFFFFFFFFFFFFF AND JUMPDEST SWAP1 POP PUSH1 0x3 PUSH0 SWAP1 SLOAD SWAP1 PUSH2 0x100 EXP SWAP1 DIV PUSH20 0xFFFFFFFFFFFFFFFFFFFFFFFFFFFFFFFFFFFFFFFF AND PUSH20 0xFFFFFFFFFFFFFFFFFFFFFFFFFFFFFFFFFFFFFFFF AND PUSH4 0xA9059CBB DUP3 PUSH1 0x5 SLOAD PUSH1 0x40 MLOAD DUP4 PUSH4 0xFFFFFFFF AND PUSH1 0xE0 SHL DUP2 MSTORE PUSH1 0x4 ADD PUSH2 0x79B SWAP3 SWAP2 SWAP1 PUSH2 0x2466 JUMP JUMPDEST PUSH1 0x20 PUSH1 0x40 MLOAD DUP1 DUP4 SUB DUP2 PUSH0 DUP8 GAS CALL ISZERO DUP1 ISZERO PUSH2 0x7B7 JUMPI RETURNDATASIZE PUSH0 DUP1 RETURNDATACOPY RETURNDATASIZE PUSH0 REVERT JUMPDEST POP POP POP POP PUSH1 0x40 MLOAD RETURNDATASIZE PUSH1 0x1F NOT PUSH1 0x1F DUP3 ADD AND DUP3 ADD DUP1 PUSH1 0x40 MSTORE POP DUP2 ADD SWAP1 PUSH2 0x7DB SWAP2 SWAP1 PUSH2 0x24B7 JUMP JUMPDEST POP POP POP PUSH2 0x9B1 JUMP JUMPDEST PUSH1 0x3 PUSH0 SWAP1 SLOAD SWAP1 PUSH2 0x100 EXP SWAP1 DIV PUSH20 0xFFFFFFFFFFFFFFFFFFFFFFFFFFFFFFFFFFFFFFFF AND PUSH20 0xFFFFFFFFFFFFFFFFFFFFFFFFFFFFFFFFFFFFFFFF AND PUSH4 0xA9059CBB PUSH1 0xB PUSH0 DUP2 SLOAD DUP2 LT PUSH2 0x834 JUMPI PUSH2 0x833 PUSH2 0x2439 JUMP JUMPDEST JUMPDEST SWAP1 PUSH0 MSTORE PUSH1 0x20 PUSH0 KECCAK256 ADD PUSH0 SWAP1 SLOAD SWAP1 PUSH2 0x100 EXP SWAP1 DIV PUSH20 0xFFFFFFFFFFFFFFFFFFFFFFFFFFFFFFFFFFFFFFFF AND PUSH1 0x2 PUSH1 0x5 SLOAD PUSH2 0x86B SWAP2 SWAP1 PUSH2 0x253C JUMP JUMPDEST PUSH1 0x40 MLOAD DUP4 PUSH4 0xFFFFFFFF AND PUSH1 0xE0 SHL DUP2 MSTORE PUSH1 0x4 ADD PUSH2 0x888 SWAP3 SWAP2 SWAP1 PUSH2 0x2466 JUMP JUMPDEST PUSH1 0x20 PUSH1 0x40 MLOAD DUP1 DUP4 SUB DUP2 PUSH0 DUP8 GAS CALL ISZERO DUP1 ISZERO PUSH2 0x8A4 JUMPI RETURNDATASIZE PUSH0 DUP1 RETURNDATACOPY RETURNDATASIZE PUSH0 REVERT JUMPDEST POP POP POP POP PUSH1 0x40 MLOAD RETURNDATASIZE PUSH1 0x1F NOT PUSH1 0x1F DUP3 ADD AND DUP3 ADD DUP1 PUSH1 0x40 MSTORE POP DUP2 ADD SWAP1 PUSH2 0x8C8 SWAP2 SWAP1 PUSH2 0x24B7 JUMP JUMPDEST POP PUSH1 0x3 PUSH0 SWAP1 SLOAD SWAP1 PUSH2 0x100 EXP SWAP1 DIV PUSH20 0xFFFFFFFFFFFFFFFFFFFFFFFFFFFFFFFFFFFFFFFF AND PUSH20 0xFFFFFFFFFFFFFFFFFFFFFFFFFFFFFFFFFFFFFFFF AND PUSH4 0xA9059CBB PUSH1 0xB PUSH1 0x1 DUP2 SLOAD DUP2 LT PUSH2 0x91B JUMPI PUSH2 0x91A PUSH2 0x2439 JUMP JUMPDEST JUMPDEST SWAP1 PUSH0 MSTORE PUSH1 0x20 PUSH0 KECCAK256 ADD PUSH0 SWAP1 SLOAD SWAP1 PUSH2 0x100 EXP SWAP1 DIV PUSH20 0xFFFFFFFFFFFFFFFFFFFFFFFFFFFFFFFFFFFFFFFF AND PUSH1 0x2 PUSH1 0x5 SLOAD PUSH2 0x952 SWAP2 SWAP1 PUSH2 0x253C JUMP JUMPDEST PUSH1 0x40 MLOAD DUP4 PUSH4 0xFFFFFFFF AND PUSH1 0xE0 SHL DUP2 MSTORE PUSH1 0x4 ADD PUSH2 0x96F SWAP3 SWAP2 SWAP1 PUSH2 0x2466 JUMP JUMPDEST PUSH1 0x20 PUSH1 0x40 MLOAD DUP1 DUP4 SUB DUP2 PUSH0 DUP8 GAS CALL ISZERO DUP1 ISZERO PUSH2 0x98B JUMPI RETURNDATASIZE PUSH0 DUP1 RETURNDATACOPY RETURNDATASIZE PUSH0 REVERT JUMPDEST POP POP POP POP PUSH1 0x40 MLOAD RETURNDATASIZE PUSH1 0x1F NOT PUSH1 0x1F DUP3 ADD AND DUP3 ADD DUP1 PUSH1 0x40 MSTORE POP DUP2 ADD SWAP1 PUSH2 0x9AF SWAP2 SWAP1 PUSH2 0x24B7 JUMP JUMPDEST POP JUMPDEST JUMPDEST PUSH2 0x9BA PUSH2 0x11E6 JUMP JUMPDEST JUMP JUMPDEST PUSH1 0x5 SLOAD DUP2 JUMP JUMPDEST PUSH1 0x2 PUSH1 0x4 SLOAD LT PUSH2 0xA07 JUMPI PUSH1 0x40 MLOAD PUSH32 0x8C379A000000000000000000000000000000000000000000000000000000000 DUP2 MSTORE PUSH1 0x4 ADD PUSH2 0x9FE SWAP1 PUSH2 0x25B6 JUMP JUMPDEST PUSH1 0x40 MLOAD DUP1 SWAP2 SUB SWAP1 REVERT JUMPDEST PUSH1 0xC SLOAD PUSH1 0x3 PUSH0 SWAP1 SLOAD SWAP1 PUSH2 0x100 EXP SWAP1 DIV PUSH20 0xFFFFFFFFFFFFFFFFFFFFFFFFFFFFFFFFFFFFFFFF AND PUSH20 0xFFFFFFFFFFFFFFFFFFFFFFFFFFFFFFFFFFFFFFFF AND PUSH4 0xDD62ED3E CALLER ADDRESS PUSH1 0x40 MLOAD DUP4 PUSH4 0xFFFFFFFF AND PUSH1 0xE0 SHL DUP2 MSTORE PUSH1 0x4 ADD PUSH2 0xA66 SWAP3 SWAP2 SWAP1 PUSH2 0x25D4 JUMP JUMPDEST PUSH1 0x20 PUSH1 0x40 MLOAD DUP1 DUP4 SUB DUP2 DUP7 GAS STATICCALL ISZERO DUP1 ISZERO PUSH2 0xA81 JUMPI RETURNDATASIZE PUSH0 DUP1 RETURNDATACOPY RETURNDATASIZE PUSH0 REVERT JUMPDEST POP POP POP POP PUSH1 0x40 MLOAD RETURNDATASIZE PUSH1 0x1F NOT PUSH1 0x1F DUP3 ADD AND DUP3 ADD DUP1 PUSH1 0x40 MSTORE POP DUP2 ADD SWAP1 PUSH2 0xAA5 SWAP2 SWAP1 PUSH2 0x260F JUMP JUMPDEST LT ISZERO PUSH2 0xAE6 JUMPI PUSH1 0x40 MLOAD PUSH32 0x8C379A000000000000000000000000000000000000000000000000000000000 DUP2 MSTORE PUSH1 0x4 ADD PUSH2 0xADD SWAP1 PUSH2 0x26AA JUMP JUMPDEST PUSH1 0x40 MLOAD DUP1 SWAP2 SUB SWAP1 REVERT JUMPDEST PUSH0 PUSH1 0x4 SLOAD GT ISZERO PUSH2 0xB9A JUMPI PUSH1 0xB PUSH0 DUP2 SLOAD DUP2 LT PUSH2 0xB04 JUMPI PUSH2 0xB03 PUSH2 0x2439 JUMP JUMPDEST JUMPDEST SWAP1 PUSH0 MSTORE PUSH1 0x20 PUSH0 KECCAK256 ADD PUSH0 SWAP1 SLOAD SWAP1 PUSH2 0x100 EXP SWAP1 DIV PUSH20 0xFFFFFFFFFFFFFFFFFFFFFFFFFFFFFFFFFFFFFFFF AND PUSH20 0xFFFFFFFFFFFFFFFFFFFFFFFFFFFFFFFFFFFFFFFF AND CALLER PUSH20 0xFFFFFFFFFFFFFFFFFFFFFFFFFFFFFFFFFFFFFFFF AND SUB PUSH2 0xB99 JUMPI PUSH1 0x40 MLOAD PUSH32 0x8C379A000000000000000000000000000000000000000000000000000000000 DUP2 MSTORE PUSH1 0x4 ADD PUSH2 0xB90 SWAP1 PUSH2 0x2712 JUMP JUMPDEST PUSH1 0x40 MLOAD DUP1 SWAP2 SUB SWAP1 REVERT JUMPDEST JUMPDEST PUSH1 0xB CALLER SWAP1 DUP1 PUSH1 0x1 DUP2 SLOAD ADD DUP1 DUP3 SSTORE DUP1 SWAP2 POP POP PUSH1 0x1 SWAP1 SUB SWAP1 PUSH0 MSTORE PUSH1 0x20 PUSH0 KECCAK256 ADD PUSH0 SWAP1 SWAP2 SWAP1 SWAP2 SWAP1 SWAP2 PUSH2 0x100 EXP DUP2 SLOAD DUP2 PUSH20 0xFFFFFFFFFFFFFFFFFFFFFFFFFFFFFFFFFFFFFFFF MUL NOT AND SWAP1 DUP4 PUSH20 0xFFFFFFFFFFFFFFFFFFFFFFFFFFFFFFFFFFFFFFFF AND MUL OR SWAP1 SSTORE POP PUSH1 0x5 PUSH1 0x6 PUSH0 CALLER PUSH20 0xFFFFFFFFFFFFFFFFFFFFFFFFFFFFFFFFFFFFFFFF AND PUSH20 0xFFFFFFFFFFFFFFFFFFFFFFFFFFFFFFFFFFFFFFFF AND DUP2 MSTORE PUSH1 0x20 ADD SWAP1 DUP2 MSTORE PUSH1 0x20 ADD PUSH0 KECCAK256 DUP2 SWAP1 SSTORE POP PUSH0 PUSH1 0x7 PUSH0 CALLER PUSH20 0xFFFFFFFFFFFFFFFFFFFFFFFFFFFFFFFFFFFFFFFF AND PUSH20 0xFFFFFFFFFFFFFFFFFFFFFFFFFFFFFFFFFFFFFFFF AND DUP2 MSTORE PUSH1 0x20 ADD SWAP1 DUP2 MSTORE PUSH1 0x20 ADD PUSH0 KECCAK256 PUSH0 PUSH2 0x100 EXP DUP2 SLOAD DUP2 PUSH1 0xFF MUL NOT AND SWAP1 DUP4 ISZERO ISZERO MUL OR SWAP1 SSTORE POP PUSH1 0x4 PUSH0 DUP2 SLOAD DUP1 SWAP3 SWAP2 SWAP1 PUSH2 0xCA3 SWAP1 PUSH2 0x2730 JUMP JUMPDEST SWAP2 SWAP1 POP SSTORE POP PUSH1 0xC SLOAD PUSH1 0x5 PUSH0 DUP3 DUP3 SLOAD PUSH2 0xCBB SWAP2 SWAP1 PUSH2 0x2777 JUMP JUMPDEST SWAP3 POP POP DUP2 SWAP1 SSTORE POP PUSH32 0xC1DE8E9993C058A253C96414B4215583B25FA35E1B6E0FACF4D5A0DC2A6F3F8 CALLER PUSH1 0x4 SLOAD PUSH1 0x40 MLOAD PUSH2 0xCF5 SWAP3 SWAP2 SWAP1 PUSH2 0x2466 JUMP JUMPDEST PUSH1 0x40 MLOAD DUP1 SWAP2 SUB SWAP1 LOG1 PUSH2 0xD05 PUSH2 0x1211 JUMP JUMPDEST JUMP JUMPDEST PUSH0 DUP2 PUSH1 0x40 MLOAD PUSH1 0x20 ADD PUSH2 0xD19 SWAP2 SWAP1 PUSH2 0x27CA JUMP JUMPDEST PUSH1 0x40 MLOAD PUSH1 0x20 DUP2 DUP4 SUB SUB DUP2 MSTORE SWAP1 PUSH1 0x40 MSTORE DUP1 MLOAD SWAP1 PUSH1 0x20 ADD KECCAK256 SWAP1 POP SWAP2 SWAP1 POP JUMP JUMPDEST PUSH1 0x7 PUSH1 0x20 MSTORE DUP1 PUSH0 MSTORE PUSH1 0x40 PUSH0 KECCAK256 PUSH0 SWAP2 POP SLOAD SWAP1 PUSH2 0x100 EXP SWAP1 DIV PUSH1 0xFF AND DUP2 JUMP JUMPDEST PUSH1 0xC SLOAD DUP2 JUMP JUMPDEST PUSH1 0x2 PUSH1 0x4 SLOAD EQ PUSH2 0xD67 JUMPI PUSH0 DUP1 REVERT JUMPDEST PUSH1 0x2 PUSH1 0x8 SLOAD EQ PUSH2 0xD75 JUMPI PUSH0 DUP1 REVERT JUMPDEST PUSH1 0x7 PUSH0 CALLER PUSH20 0xFFFFFFFFFFFFFFFFFFFFFFFFFFFFFFFFFFFFFFFF AND PUSH20 0xFFFFFFFFFFFFFFFFFFFFFFFFFFFFFFFFFFFFFFFF AND DUP2 MSTORE PUSH1 0x20 ADD SWAP1 DUP2 MSTORE PUSH1 0x20 ADD PUSH0 KECCAK256 PUSH0 SWAP1 SLOAD SWAP1 PUSH2 0x100 EXP SWAP1 DIV PUSH1 0xFF AND PUSH2 0xDFE JUMPI PUSH1 0x40 MLOAD PUSH32 0x8C379A000000000000000000000000000000000000000000000000000000000 DUP2 MSTORE PUSH1 0x4 ADD PUSH2 0xDF5 SWAP1 PUSH2 0x282E JUMP JUMPDEST PUSH1 0x40 MLOAD DUP1 SWAP2 SUB SWAP1 REVERT JUMPDEST PUSH0 DUP2 PUSH1 0x1F PUSH1 0x20 DUP2 LT PUSH2 0xE13 JUMPI PUSH2 0xE12 PUSH2 0x2439 JUMP JUMPDEST JUMPDEST BYTE PUSH1 0xF8 SHL PUSH1 0xF8 SHR PUSH1 0xFF AND SWAP1 POP PUSH0 DUP2 LT ISZERO DUP1 ISZERO PUSH2 0xE30 JUMPI POP PUSH1 0x4 DUP2 GT ISZERO JUMPDEST PUSH2 0xE6F JUMPI PUSH1 0x40 MLOAD PUSH32 0x8C379A000000000000000000000000000000000000000000000000000000000 DUP2 MSTORE PUSH1 0x4 ADD PUSH2 0xE66 SWAP1 PUSH2 0x2896 JUMP JUMPDEST PUSH1 0x40 MLOAD DUP1 SWAP2 SUB SWAP1 REVERT JUMPDEST PUSH2 0xE78 DUP3 PUSH2 0x121A JUMP JUMPDEST DUP1 PUSH1 0x6 PUSH0 CALLER PUSH20 0xFFFFFFFFFFFFFFFFFFFFFFFFFFFFFFFFFFFFFFFF AND PUSH20 0xFFFFFFFFFFFFFFFFFFFFFFFFFFFFFFFFFFFFFFFF AND DUP2 MSTORE PUSH1 0x20 ADD SWAP1 DUP2 MSTORE PUSH1 0x20 ADD PUSH0 KECCAK256 DUP2 SWAP1 SSTORE POP PUSH1 0x9 PUSH0 DUP2 SLOAD DUP1 SWAP3 SWAP2 SWAP1 PUSH2 0xECC SWAP1 PUSH2 0x2730 JUMP JUMPDEST SWAP2 SWAP1 POP SSTORE POP PUSH2 0xED9 PUSH2 0x1211 JUMP JUMPDEST PUSH1 0x2 PUSH1 0x9 SLOAD SUB PUSH2 0xEFC JUMPI PUSH2 0xEEB PUSH2 0x15D8 JUMP JUMPDEST PUSH2 0xEF3 PUSH2 0x19EE JUMP JUMPDEST PUSH2 0xEFB PUSH2 0x11E6 JUMP JUMPDEST JUMPDEST POP POP JUMP JUMPDEST PUSH0 DUP1 SLOAD SWAP1 PUSH2 0x100 EXP SWAP1 DIV PUSH1 0xFF AND DUP2 JUMP JUMPDEST PUSH1 0x2 SLOAD DUP2 JUMP JUMPDEST PUSH1 0x1 PUSH1 0x20 MSTORE DUP1 PUSH0 MSTORE PUSH1 0x40 PUSH0 KECCAK256 PUSH0 SWAP2 POP SWAP1 POP DUP1 PUSH0 ADD SLOAD SWAP1 DUP1 PUSH1 0x1 ADD PUSH0 SWAP1 SLOAD SWAP1 PUSH2 0x100 EXP SWAP1 DIV PUSH8 0xFFFFFFFFFFFFFFFF AND SWAP1 DUP1 PUSH1 0x1 ADD PUSH1 0x8 SWAP1 SLOAD SWAP1 PUSH2 0x100 EXP SWAP1 DIV PUSH1 0xFF AND SWAP1 POP DUP4 JUMP JUMPDEST PUSH1 0xA SLOAD DUP2 JUMP JUMPDEST PUSH1 0x4 SLOAD DUP2 JUMP JUMPDEST PUSH1 0x6 PUSH1 0x20 MSTORE DUP1 PUSH0 MSTORE PUSH1 0x40 PUSH0 KECCAK256 PUSH0 SWAP2 POP SWAP1 POP SLOAD DUP2 JUMP JUMPDEST PUSH0 PUSH1 0x2 SLOAD TIMESTAMP PUSH2 0xF8C SWAP2 SWAP1 PUSH2 0x28B4 JUMP JUMPDEST SWAP1 POP SWAP1 JUMP JUMPDEST PUSH1 0x9 SLOAD DUP2 JUMP JUMPDEST PUSH1 0x2 PUSH1 0x4 SLOAD EQ PUSH2 0xFDC JUMPI PUSH1 0x40 MLOAD PUSH32 0x8C379A000000000000000000000000000000000000000000000000000000000 DUP2 MSTORE PUSH1 0x4 ADD PUSH2 0xFD3 SWAP1 PUSH2 0x2931 JUMP JUMPDEST PUSH1 0x40 MLOAD DUP1 SWAP2 SUB SWAP1 REVERT JUMPDEST PUSH1 0x2 PUSH1 0x8 SLOAD LT PUSH2 0x1021 JUMPI PUSH1 0x40 MLOAD PUSH32 0x8C379A000000000000000000000000000000000000000000000000000000000 DUP2 MSTORE PUSH1 0x4 ADD PUSH2 0x1018 SWAP1 PUSH2 0x2999 JUMP JUMPDEST PUSH1 0x40 MLOAD DUP1 SWAP2 SUB SWAP1 REVERT JUMPDEST PUSH1 0x7 PUSH0 CALLER PUSH20 0xFFFFFFFFFFFFFFFFFFFFFFFFFFFFFFFFFFFFFFFF AND PUSH20 0xFFFFFFFFFFFFFFFFFFFFFFFFFFFFFFFFFFFFFFFF AND DUP2 MSTORE PUSH1 0x20 ADD SWAP1 DUP2 MSTORE PUSH1 0x20 ADD PUSH0 KECCAK256 PUSH0 SWAP1 SLOAD SWAP1 PUSH2 0x100 EXP SWAP1 DIV PUSH1 0xFF AND ISZERO PUSH2 0x10AB JUMPI PUSH1 0x40 MLOAD PUSH32 0x8C379A000000000000000000000000000000000000000000000000000000000 DUP2 MSTORE PUSH1 0x4 ADD PUSH2 0x10A2 SWAP1 PUSH2 0x2A01 JUMP JUMPDEST PUSH1 0x40 MLOAD DUP1 SWAP2 SUB SWAP1 REVERT JUMPDEST PUSH1 0x1 PUSH1 0x7 PUSH0 CALLER PUSH20 0xFFFFFFFFFFFFFFFFFFFFFFFFFFFFFFFFFFFFFFFF AND PUSH20 0xFFFFFFFFFFFFFFFFFFFFFFFFFFFFFFFFFFFFFFFF AND DUP2 MSTORE PUSH1 0x20 ADD SWAP1 DUP2 MSTORE PUSH1 0x20 ADD PUSH0 KECCAK256 PUSH0 PUSH2 0x100 EXP DUP2 SLOAD DUP2 PUSH1 0xFF MUL NOT AND SWAP1 DUP4 ISZERO ISZERO MUL OR SWAP1 SSTORE POP PUSH2 0x1109 DUP2 PUSH2 0x1E5F JUMP JUMPDEST PUSH1 0x8 PUSH0 DUP2 SLOAD DUP1 SWAP3 SWAP2 SWAP1 PUSH2 0x111B SWAP1 PUSH2 0x2730 JUMP JUMPDEST SWAP2 SWAP1 POP SSTORE POP PUSH32 0xA8FB792D8BB1782EBA00886B053364D6972FA987197717655665C13D3696EA9E CALLER PUSH1 0x8 SLOAD PUSH1 0x40 MLOAD PUSH2 0x1153 SWAP3 SWAP2 SWAP1 PUSH2 0x2466 JUMP JUMPDEST PUSH1 0x40 MLOAD DUP1 SWAP2 SUB SWAP1 LOG1 PUSH2 0x1163 PUSH2 0x1211 JUMP JUMPDEST POP JUMP JUMPDEST PUSH0 PUSH1 0x3C PUSH1 0x2 SLOAD TIMESTAMP PUSH2 0x1177 SWAP2 SWAP1 PUSH2 0x28B4 JUMP JUMPDEST PUSH2 0x1181 SWAP2 SWAP1 PUSH2 0x253C JUMP JUMPDEST SWAP1 POP SWAP1 JUMP JUMPDEST PUSH1 0xB DUP2 DUP2 SLOAD DUP2 LT PUSH2 0x1195 JUMPI PUSH0 DUP1 REVERT JUMPDEST SWAP1 PUSH0 MSTORE PUSH1 0x20 PUSH0 KECCAK256 ADD PUSH0 SWAP2 POP SLOAD SWAP1 PUSH2 0x100 EXP SWAP1 DIV PUSH20 0xFFFFFFFFFFFFFFFFFFFFFFFFFFFFFFFFFFFFFFFF AND DUP2 JUMP JUMPDEST PUSH1 0x3 PUSH0 SWAP1 SLOAD SWAP1 PUSH2 0x100 EXP SWAP1 DIV PUSH20 0xFFFFFFFFFFFFFFFFFFFFFFFFFFFFFFFFFFFFFFFF AND DUP2 JUMP JUMPDEST PUSH1 0xB PUSH0 PUSH2 0x11F3 SWAP2 SWAP1 PUSH2 0x2031 JUMP JUMPDEST PUSH0 PUSH1 0x4 DUP2 SWAP1 SSTORE POP PUSH0 PUSH1 0x8 DUP2 SWAP1 SSTORE POP PUSH0 PUSH1 0x9 DUP2 SWAP1 SSTORE POP PUSH0 PUSH1 0x5 DUP2 SWAP1 SSTORE POP JUMP JUMPDEST TIMESTAMP PUSH1 0x2 DUP2 SWAP1 SSTORE POP JUMP JUMPDEST PUSH0 ISZERO ISZERO PUSH1 0x1 PUSH0 CALLER PUSH20 0xFFFFFFFFFFFFFFFFFFFFFFFFFFFFFFFFFFFFFFFF AND PUSH20 0xFFFFFFFFFFFFFFFFFFFFFFFFFFFFFFFFFFFFFFFF AND DUP2 MSTORE PUSH1 0x20 ADD SWAP1 DUP2 MSTORE PUSH1 0x20 ADD PUSH0 KECCAK256 PUSH1 0x1 ADD PUSH1 0x8 SWAP1 SLOAD SWAP1 PUSH2 0x100 EXP SWAP1 DIV PUSH1 0xFF AND ISZERO ISZERO EQ PUSH2 0x12AD JUMPI PUSH1 0x40 MLOAD PUSH32 0x8C379A000000000000000000000000000000000000000000000000000000000 DUP2 MSTORE PUSH1 0x4 ADD PUSH2 0x12A4 SWAP1 PUSH2 0x2A8F JUMP JUMPDEST PUSH1 0x40 MLOAD DUP1 SWAP2 SUB SWAP1 REVERT JUMPDEST PUSH1 0x1 DUP1 PUSH0 CALLER PUSH20 0xFFFFFFFFFFFFFFFFFFFFFFFFFFFFFFFFFFFFFFFF AND PUSH20 0xFFFFFFFFFFFFFFFFFFFFFFFFFFFFFFFFFFFFFFFF AND DUP2 MSTORE PUSH1 0x20 ADD SWAP1 DUP2 MSTORE PUSH1 0x20 ADD PUSH0 KECCAK256 PUSH1 0x1 ADD PUSH1 0x8 PUSH2 0x100 EXP DUP2 SLOAD DUP2 PUSH1 0xFF MUL NOT AND SWAP1 DUP4 ISZERO ISZERO MUL OR SWAP1 SSTORE POP PUSH1 0x1 PUSH0 CALLER PUSH20 0xFFFFFFFFFFFFFFFFFFFFFFFFFFFFFFFFFFFFFFFF AND PUSH20 0xFFFFFFFFFFFFFFFFFFFFFFFFFFFFFFFFFFFFFFFF AND DUP2 MSTORE PUSH1 0x20 ADD SWAP1 DUP2 MSTORE PUSH1 0x20 ADD PUSH0 KECCAK256 PUSH0 ADD SLOAD PUSH2 0x134E DUP3 PUSH2 0xD07 JUMP JUMPDEST EQ PUSH2 0x138E JUMPI PUSH1 0x40 MLOAD PUSH32 0x8C379A000000000000000000000000000000000000000000000000000000000 DUP2 MSTORE PUSH1 0x4 ADD PUSH2 0x1385 SWAP1 PUSH2 0x2B1D JUMP JUMPDEST PUSH1 0x40 MLOAD DUP1 SWAP2 SUB SWAP1 REVERT JUMPDEST PUSH1 0x1 PUSH0 CALLER PUSH20 0xFFFFFFFFFFFFFFFFFFFFFFFFFFFFFFFFFFFFFFFF AND PUSH20 0xFFFFFFFFFFFFFFFFFFFFFFFFFFFFFFFFFFFFFFFF AND DUP2 MSTORE PUSH1 0x20 ADD SWAP1 DUP2 MSTORE PUSH1 0x20 ADD PUSH0 KECCAK256 PUSH1 0x1 ADD PUSH0 SWAP1 SLOAD SWAP1 PUSH2 0x100 EXP SWAP1 DIV PUSH8 0xFFFFFFFFFFFFFFFF AND PUSH8 0xFFFFFFFFFFFFFFFF AND NUMBER PUSH8 0xFFFFFFFFFFFFFFFF AND GT PUSH2 0x1437 JUMPI PUSH1 0x40 MLOAD PUSH32 0x8C379A000000000000000000000000000000000000000000000000000000000 DUP2 MSTORE PUSH1 0x4 ADD PUSH2 0x142E SWAP1 PUSH2 0x2BD1 JUMP JUMPDEST PUSH1 0x40 MLOAD DUP1 SWAP2 SUB SWAP1 REVERT JUMPDEST PUSH1 0xFA PUSH1 0x1 PUSH0 CALLER PUSH20 0xFFFFFFFFFFFFFFFFFFFFFFFFFFFFFFFFFFFFFFFF AND PUSH20 0xFFFFFFFFFFFFFFFFFFFFFFFFFFFFFFFFFFFFFFFF AND DUP2 MSTORE PUSH1 0x20 ADD SWAP1 DUP2 MSTORE PUSH1 0x20 ADD PUSH0 KECCAK256 PUSH1 0x1 ADD PUSH0 SWAP1 SLOAD SWAP1 PUSH2 0x100 EXP SWAP1 DIV PUSH8 0xFFFFFFFFFFFFFFFF AND PUSH2 0x1497 SWAP2 SWAP1 PUSH2 0x2BEF JUMP JUMPDEST PUSH8 0xFFFFFFFFFFFFFFFF AND NUMBER PUSH8 0xFFFFFFFFFFFFFFFF AND GT ISZERO PUSH2 0x14ED JUMPI PUSH1 0x40 MLOAD PUSH32 0x8C379A000000000000000000000000000000000000000000000000000000000 DUP2 MSTORE PUSH1 0x4 ADD PUSH2 0x14E4 SWAP1 PUSH2 0x2C9A JUMP JUMPDEST PUSH1 0x40 MLOAD DUP1 SWAP2 SUB SWAP1 REVERT JUMPDEST PUSH0 PUSH1 0x1 PUSH0 CALLER PUSH20 0xFFFFFFFFFFFFFFFFFFFFFFFFFFFFFFFFFFFFFFFF AND PUSH20 0xFFFFFFFFFFFFFFFFFFFFFFFFFFFFFFFFFFFFFFFF AND DUP2 MSTORE PUSH1 0x20 ADD SWAP1 DUP2 MSTORE PUSH1 0x20 ADD PUSH0 KECCAK256 PUSH1 0x1 ADD PUSH0 SWAP1 SLOAD SWAP1 PUSH2 0x100 EXP SWAP1 DIV PUSH8 0xFFFFFFFFFFFFFFFF AND PUSH8 0xFFFFFFFFFFFFFFFF AND BLOCKHASH SWAP1 POP PUSH0 DUP1 PUSH0 SWAP1 SLOAD SWAP1 PUSH2 0x100 EXP SWAP1 DIV PUSH1 0xFF AND PUSH1 0xFF AND DUP3 DUP5 PUSH1 0x40 MLOAD PUSH1 0x20 ADD PUSH2 0x1574 SWAP3 SWAP2 SWAP1 PUSH2 0x2CB8 JUMP JUMPDEST PUSH1 0x40 MLOAD PUSH1 0x20 DUP2 DUP4 SUB SUB DUP2 MSTORE SWAP1 PUSH1 0x40 MSTORE DUP1 MLOAD SWAP1 PUSH1 0x20 ADD KECCAK256 PUSH0 SHR PUSH2 0x1596 SWAP2 SWAP1 PUSH2 0x2CE3 JUMP JUMPDEST SWAP1 POP PUSH32 0xBC016DD1CADEAEFCB851AF7A0A93532E0023D536894B730801F7BCFE7065BCC2 CALLER DUP5 DUP4 PUSH1 0x40 MLOAD PUSH2 0x15CB SWAP4 SWAP3 SWAP2 SWAP1 PUSH2 0x2D13 JUMP JUMPDEST PUSH1 0x40 MLOAD DUP1 SWAP2 SUB SWAP1 LOG1 POP POP POP JUMP JUMPDEST PUSH1 0xC SLOAD PUSH1 0x3 PUSH0 SWAP1 SLOAD SWAP1 PUSH2 0x100 EXP SWAP1 DIV PUSH20 0xFFFFFFFFFFFFFFFFFFFFFFFFFFFFFFFFFFFFFFFF AND PUSH20 0xFFFFFFFFFFFFFFFFFFFFFFFFFFFFFFFFFFFFFFFF AND PUSH4 0xDD62ED3E PUSH1 0xB PUSH0 DUP2 SLOAD DUP2 LT PUSH2 0x162C JUMPI PUSH2 0x162B PUSH2 0x2439 JUMP JUMPDEST JUMPDEST SWAP1 PUSH0 MSTORE PUSH1 0x20 PUSH0 KECCAK256 ADD PUSH0 SWAP1 SLOAD SWAP1 PUSH2 0x100 EXP SWAP1 DIV PUSH20 0xFFFFFFFFFFFFFFFFFFFFFFFFFFFFFFFFFFFFFFFF AND ADDRESS PUSH1 0x40 MLOAD DUP4 PUSH4 0xFFFFFFFF AND PUSH1 0xE0 SHL DUP2 MSTORE PUSH1 0x4 ADD PUSH2 0x1672 SWAP3 SWAP2 SWAP1 PUSH2 0x25D4 JUMP JUMPDEST PUSH1 0x20 PUSH1 0x40 MLOAD DUP1 DUP4 SUB DUP2 DUP7 GAS STATICCALL ISZERO DUP1 ISZERO PUSH2 0x168D JUMPI RETURNDATASIZE PUSH0 DUP1 RETURNDATACOPY RETURNDATASIZE PUSH0 REVERT JUMPDEST POP POP POP POP PUSH1 0x40 MLOAD RETURNDATASIZE PUSH1 0x1F NOT PUSH1 0x1F DUP3 ADD AND DUP3 ADD DUP1 PUSH1 0x40 MSTORE POP DUP2 ADD SWAP1 PUSH2 0x16B1 SWAP2 SWAP1 PUSH2 0x260F JUMP JUMPDEST LT ISZERO PUSH2 0x16F2 JUMPI PUSH1 0x40 MLOAD PUSH32 0x8C379A000000000000000000000000000000000000000000000000000000000 DUP2 MSTORE PUSH1 0x4 ADD PUSH2 0x16E9 SWAP1 PUSH2 0x2DB8 JUMP JUMPDEST PUSH1 0x40 MLOAD DUP1 SWAP2 SUB SWAP1 REVERT JUMPDEST PUSH1 0xC SLOAD PUSH1 0x3 PUSH0 SWAP1 SLOAD SWAP1 PUSH2 0x100 EXP SWAP1 DIV PUSH20 0xFFFFFFFFFFFFFFFFFFFFFFFFFFFFFFFFFFFFFFFF AND PUSH20 0xFFFFFFFFFFFFFFFFFFFFFFFFFFFFFFFFFFFFFFFF AND PUSH4 0xDD62ED3E PUSH1 0xB PUSH1 0x1 DUP2 SLOAD DUP2 LT PUSH2 0x1747 JUMPI PUSH2 0x1746 PUSH2 0x2439 JUMP JUMPDEST JUMPDEST SWAP1 PUSH0 MSTORE PUSH1 0x20 PUSH0 KECCAK256 ADD PUSH0 SWAP1 SLOAD SWAP1 PUSH2 0x100 EXP SWAP1 DIV PUSH20 0xFFFFFFFFFFFFFFFFFFFFFFFFFFFFFFFFFFFFFFFF AND ADDRESS PUSH1 0x40 MLOAD DUP4 PUSH4 0xFFFFFFFF AND PUSH1 0xE0 SHL DUP2 MSTORE PUSH1 0x4 ADD PUSH2 0x178D SWAP3 SWAP2 SWAP1 PUSH2 0x25D4 JUMP JUMPDEST PUSH1 0x20 PUSH1 0x40 MLOAD DUP1 DUP4 SUB DUP2 DUP7 GAS STATICCALL ISZERO DUP1 ISZERO PUSH2 0x17A8 JUMPI RETURNDATASIZE PUSH0 DUP1 RETURNDATACOPY RETURNDATASIZE PUSH0 REVERT JUMPDEST POP POP POP POP PUSH1 0x40 MLOAD RETURNDATASIZE PUSH1 0x1F NOT PUSH1 0x1F DUP3 ADD AND DUP3 ADD DUP1 PUSH1 0x40 MSTORE POP DUP2 ADD SWAP1 PUSH2 0x17CC SWAP2 SWAP1 PUSH2 0x260F JUMP JUMPDEST LT ISZERO PUSH2 0x180D JUMPI PUSH1 0x40 MLOAD PUSH32 0x8C379A000000000000000000000000000000000000000000000000000000000 DUP2 MSTORE PUSH1 0x4 ADD PUSH2 0x1804 SWAP1 PUSH2 0x2E46 JUMP JUMPDEST PUSH1 0x40 MLOAD DUP1 SWAP2 SUB SWAP1 REVERT JUMPDEST PUSH1 0x3 PUSH0 SWAP1 SLOAD SWAP1 PUSH2 0x100 EXP SWAP1 DIV PUSH20 0xFFFFFFFFFFFFFFFFFFFFFFFFFFFFFFFFFFFFFFFF AND PUSH20 0xFFFFFFFFFFFFFFFFFFFFFFFFFFFFFFFFFFFFFFFF AND PUSH4 0x23B872DD PUSH1 0xB PUSH0 DUP2 SLOAD DUP2 LT PUSH2 0x185E JUMPI PUSH2 0x185D PUSH2 0x2439 JUMP JUMPDEST JUMPDEST SWAP1 PUSH0 MSTORE PUSH1 0x20 PUSH0 KECCAK256 ADD PUSH0 SWAP1 SLOAD SWAP1 PUSH2 0x100 EXP SWAP1 DIV PUSH20 0xFFFFFFFFFFFFFFFFFFFFFFFFFFFFFFFFFFFFFFFF AND ADDRESS PUSH1 0xC SLOAD PUSH1 0x40 MLOAD DUP5 PUSH4 0xFFFFFFFF AND PUSH1 0xE0 SHL DUP2 MSTORE PUSH1 0x4 ADD PUSH2 0x18A8 SWAP4 SWAP3 SWAP2 SWAP1 PUSH2 0x2E64 JUMP JUMPDEST PUSH1 0x20 PUSH1 0x40 MLOAD DUP1 DUP4 SUB DUP2 PUSH0 DUP8 GAS CALL ISZERO DUP1 ISZERO PUSH2 0x18C4 JUMPI RETURNDATASIZE PUSH0 DUP1 RETURNDATACOPY RETURNDATASIZE PUSH0 REVERT JUMPDEST POP POP POP POP PUSH1 0x40 MLOAD RETURNDATASIZE PUSH1 0x1F NOT PUSH1 0x1F DUP3 ADD AND DUP3 ADD DUP1 PUSH1 0x40 MSTORE POP DUP2 ADD SWAP1 PUSH2 0x18E8 SWAP2 SWAP1 PUSH2 0x24B7 JUMP JUMPDEST POP PUSH1 0x3 PUSH0 SWAP1 SLOAD SWAP1 PUSH2 0x100 EXP SWAP1 DIV PUSH20 0xFFFFFFFFFFFFFFFFFFFFFFFFFFFFFFFFFFFFFFFF AND PUSH20 0xFFFFFFFFFFFFFFFFFFFFFFFFFFFFFFFFFFFFFFFF AND PUSH4 0x23B872DD PUSH1 0xB PUSH1 0x1 DUP2 SLOAD DUP2 LT PUSH2 0x193B JUMPI PUSH2 0x193A PUSH2 0x2439 JUMP JUMPDEST JUMPDEST SWAP1 PUSH0 MSTORE PUSH1 0x20 PUSH0 KECCAK256 ADD PUSH0 SWAP1 SLOAD SWAP1 PUSH2 0x100 EXP SWAP1 DIV PUSH20 0xFFFFFFFFFFFFFFFFFFFFFFFFFFFFFFFFFFFFFFFF AND ADDRESS PUSH1 0xC SLOAD PUSH1 0x40 MLOAD DUP5 PUSH4 0xFFFFFFFF AND PUSH1 0xE0 SHL DUP2 MSTORE PUSH1 0x4 ADD PUSH2 0x1985 SWAP4 SWAP3 SWAP2 SWAP1 PUSH2 0x2E64 JUMP JUMPDEST PUSH1 0x20 PUSH1 0x40 MLOAD DUP1 DUP4 SUB DUP2 PUSH0 DUP8 GAS CALL ISZERO DUP1 ISZERO PUSH2 0x19A1 JUMPI RETURNDATASIZE PUSH0 DUP1 RETURNDATACOPY RETURNDATASIZE PUSH0 REVERT JUMPDEST POP POP POP POP PUSH1 0x40 MLOAD RETURNDATASIZE PUSH1 0x1F NOT PUSH1 0x1F DUP3 ADD AND DUP3 ADD DUP1 PUSH1 0x40 MSTORE POP DUP2 ADD SWAP1 PUSH2 0x19C5 SWAP2 SWAP1 PUSH2 0x24B7 JUMP JUMPDEST POP PUSH1 0x2 PUSH1 0xC SLOAD PUSH2 0x19D5 SWAP2 SWAP1 PUSH2 0x2E99 JUMP JUMPDEST PUSH1 0x5 PUSH0 DUP3 DUP3 SLOAD PUSH2 0x19E5 SWAP2 SWAP1 PUSH2 0x2777 JUMP JUMPDEST SWAP3 POP POP DUP2 SWAP1 SSTORE POP JUMP JUMPDEST PUSH0 PUSH1 0x6 PUSH0 PUSH1 0xB PUSH0 DUP2 SLOAD DUP2 LT PUSH2 0x1A06 JUMPI PUSH2 0x1A05 PUSH2 0x2439 JUMP JUMPDEST JUMPDEST SWAP1 PUSH0 MSTORE PUSH1 0x20 PUSH0 KECCAK256 ADD PUSH0 SWAP1 SLOAD SWAP1 PUSH2 0x100 EXP SWAP1 DIV PUSH20 0xFFFFFFFFFFFFFFFFFFFFFFFFFFFFFFFFFFFFFFFF AND PUSH20 0xFFFFFFFFFFFFFFFFFFFFFFFFFFFFFFFFFFFFFFFF AND PUSH20 0xFFFFFFFFFFFFFFFFFFFFFFFFFFFFFFFFFFFFFFFF AND DUP2 MSTORE PUSH1 0x20 ADD SWAP1 DUP2 MSTORE PUSH1 0x20 ADD PUSH0 KECCAK256 SLOAD SWAP1 POP PUSH0 PUSH1 0x6 PUSH0 PUSH1 0xB PUSH1 0x1 DUP2 SLOAD DUP2 LT PUSH2 0x1A83 JUMPI PUSH2 0x1A82 PUSH2 0x2439 JUMP JUMPDEST JUMPDEST SWAP1 PUSH0 MSTORE PUSH1 0x20 PUSH0 KECCAK256 ADD PUSH0 SWAP1 SLOAD SWAP1 PUSH2 0x100 EXP SWAP1 DIV PUSH20 0xFFFFFFFFFFFFFFFFFFFFFFFFFFFFFFFFFFFFFFFF AND PUSH20 0xFFFFFFFFFFFFFFFFFFFFFFFFFFFFFFFFFFFFFFFF AND PUSH20 0xFFFFFFFFFFFFFFFFFFFFFFFFFFFFFFFFFFFFFFFF AND DUP2 MSTORE PUSH1 0x20 ADD SWAP1 DUP2 MSTORE PUSH1 0x20 ADD PUSH0 KECCAK256 SLOAD SWAP1 POP PUSH0 DUP2 DUP4 SUB PUSH2 0x1CC1 JUMPI PUSH1 0x3 PUSH0 SWAP1 SLOAD SWAP1 PUSH2 0x100 EXP SWAP1 DIV PUSH20 0xFFFFFFFFFFFFFFFFFFFFFFFFFFFFFFFFFFFFFFFF AND PUSH20 0xFFFFFFFFFFFFFFFFFFFFFFFFFFFFFFFFFFFFFFFF AND PUSH4 0xA9059CBB PUSH1 0xB PUSH0 DUP2 SLOAD DUP2 LT PUSH2 0x1B40 JUMPI PUSH2 0x1B3F PUSH2 0x2439 JUMP JUMPDEST JUMPDEST SWAP1 PUSH0 MSTORE PUSH1 0x20 PUSH0 KECCAK256 ADD PUSH0 SWAP1 SLOAD SWAP1 PUSH2 0x100 EXP SWAP1 DIV PUSH20 0xFFFFFFFFFFFFFFFFFFFFFFFFFFFFFFFFFFFFFFFF AND PUSH1 0x2 PUSH1 0x5 SLOAD PUSH2 0x1B77 SWAP2 SWAP1 PUSH2 0x253C JUMP JUMPDEST PUSH1 0x40 MLOAD DUP4 PUSH4 0xFFFFFFFF AND PUSH1 0xE0 SHL DUP2 MSTORE PUSH1 0x4 ADD PUSH2 0x1B94 SWAP3 SWAP2 SWAP1 PUSH2 0x2466 JUMP JUMPDEST PUSH1 0x20 PUSH1 0x40 MLOAD DUP1 DUP4 SUB DUP2 PUSH0 DUP8 GAS CALL ISZERO DUP1 ISZERO PUSH2 0x1BB0 JUMPI RETURNDATASIZE PUSH0 DUP1 RETURNDATACOPY RETURNDATASIZE PUSH0 REVERT JUMPDEST POP POP POP POP PUSH1 0x40 MLOAD RETURNDATASIZE PUSH1 0x1F NOT PUSH1 0x1F DUP3 ADD AND DUP3 ADD DUP1 PUSH1 0x40 MSTORE POP DUP2 ADD SWAP1 PUSH2 0x1BD4 SWAP2 SWAP1 PUSH2 0x24B7 JUMP JUMPDEST POP PUSH1 0x3 PUSH0 SWAP1 SLOAD SWAP1 PUSH2 0x100 EXP SWAP1 DIV PUSH20 0xFFFFFFFFFFFFFFFFFFFFFFFFFFFFFFFFFFFFFFFF AND PUSH20 0xFFFFFFFFFFFFFFFFFFFFFFFFFFFFFFFFFFFFFFFF AND PUSH4 0xA9059CBB PUSH1 0xB PUSH1 0x1 DUP2 SLOAD DUP2 LT PUSH2 0x1C27 JUMPI PUSH2 0x1C26 PUSH2 0x2439 JUMP JUMPDEST JUMPDEST SWAP1 PUSH0 MSTORE PUSH1 0x20 PUSH0 KECCAK256 ADD PUSH0 SWAP1 SLOAD SWAP1 PUSH2 0x100 EXP SWAP1 DIV PUSH20 0xFFFFFFFFFFFFFFFFFFFFFFFFFFFFFFFFFFFFFFFF AND PUSH1 0x2 PUSH1 0x5 SLOAD PUSH2 0x1C5E SWAP2 SWAP1 PUSH2 0x253C JUMP JUMPDEST PUSH1 0x40 MLOAD DUP4 PUSH4 0xFFFFFFFF AND PUSH1 0xE0 SHL DUP2 MSTORE PUSH1 0x4 ADD PUSH2 0x1C7B SWAP3 SWAP2 SWAP1 PUSH2 0x2466 JUMP JUMPDEST PUSH1 0x20 PUSH1 0x40 MLOAD DUP1 DUP4 SUB DUP2 PUSH0 DUP8 GAS CALL ISZERO DUP1 ISZERO PUSH2 0x1C97 JUMPI RETURNDATASIZE PUSH0 DUP1 RETURNDATACOPY RETURNDATASIZE PUSH0 REVERT JUMPDEST POP POP POP POP PUSH1 0x40 MLOAD RETURNDATASIZE PUSH1 0x1F NOT PUSH1 0x1F DUP3 ADD AND DUP3 ADD DUP1 PUSH1 0x40 MSTORE POP DUP2 ADD SWAP1 PUSH2 0x1CBB SWAP2 SWAP1 PUSH2 0x24B7 JUMP JUMPDEST POP PUSH2 0x1D87 JUMP JUMPDEST DUP2 PUSH1 0x5 PUSH1 0x1 DUP6 PUSH2 0x1CD1 SWAP2 SWAP1 PUSH2 0x2777 JUMP JUMPDEST PUSH2 0x1CDB SWAP2 SWAP1 PUSH2 0x2CE3 JUMP JUMPDEST EQ DUP1 PUSH2 0x1CFE JUMPI POP DUP2 PUSH1 0x5 PUSH1 0x3 DUP6 PUSH2 0x1CF2 SWAP2 SWAP1 PUSH2 0x2777 JUMP JUMPDEST PUSH2 0x1CFC SWAP2 SWAP1 PUSH2 0x2CE3 JUMP JUMPDEST EQ JUMPDEST ISZERO PUSH2 0x1D47 JUMPI PUSH1 0xB PUSH1 0x1 DUP2 SLOAD DUP2 LT PUSH2 0x1D18 JUMPI PUSH2 0x1D17 PUSH2 0x2439 JUMP JUMPDEST JUMPDEST SWAP1 PUSH0 MSTORE PUSH1 0x20 PUSH0 KECCAK256 ADD PUSH0 SWAP1 SLOAD SWAP1 PUSH2 0x100 EXP SWAP1 DIV PUSH20 0xFFFFFFFFFFFFFFFFFFFFFFFFFFFFFFFFFFFFFFFF AND SWAP1 POP PUSH2 0x1D86 JUMP JUMPDEST PUSH1 0xB PUSH0 DUP2 SLOAD DUP2 LT PUSH2 0x1D5B JUMPI PUSH2 0x1D5A PUSH2 0x2439 JUMP JUMPDEST JUMPDEST SWAP1 PUSH0 MSTORE PUSH1 0x20 PUSH0 KECCAK256 ADD PUSH0 SWAP1 SLOAD SWAP1 PUSH2 0x100 EXP SWAP1 DIV PUSH20 0xFFFFFFFFFFFFFFFFFFFFFFFFFFFFFFFFFFFFFFFF AND SWAP1 POP JUMPDEST JUMPDEST PUSH0 PUSH20 0xFFFFFFFFFFFFFFFFFFFFFFFFFFFFFFFFFFFFFFFF AND DUP2 PUSH20 0xFFFFFFFFFFFFFFFFFFFFFFFFFFFFFFFFFFFFFFFF AND EQ PUSH2 0x1E5A JUMPI PUSH1 0x3 PUSH0 SWAP1 SLOAD SWAP1 PUSH2 0x100 EXP SWAP1 DIV PUSH20 0xFFFFFFFFFFFFFFFFFFFFFFFFFFFFFFFFFFFFFFFF AND PUSH20 0xFFFFFFFFFFFFFFFFFFFFFFFFFFFFFFFFFFFFFFFF AND PUSH4 0xA9059CBB DUP3 PUSH1 0x5 SLOAD PUSH1 0x40 MLOAD DUP4 PUSH4 0xFFFFFFFF AND PUSH1 0xE0 SHL DUP2 MSTORE PUSH1 0x4 ADD PUSH2 0x1E18 SWAP3 SWAP2 SWAP1 PUSH2 0x2466 JUMP JUMPDEST PUSH1 0x20 PUSH1 0x40 MLOAD DUP1 DUP4 SUB DUP2 PUSH0 DUP8 GAS CALL ISZERO DUP1 ISZERO PUSH2 0x1E34 JUMPI RETURNDATASIZE PUSH0 DUP1 RETURNDATACOPY RETURNDATASIZE PUSH0 REVERT JUMPDEST POP POP POP POP PUSH1 0x40 MLOAD RETURNDATASIZE PUSH1 0x1F NOT PUSH1 0x1F DUP3 ADD AND DUP3 ADD DUP1 PUSH1 0x40 MSTORE POP DUP2 ADD SWAP1 PUSH2 0x1E58 SWAP2 SWAP1 PUSH2 0x24B7 JUMP JUMPDEST POP JUMPDEST POP POP POP JUMP JUMPDEST DUP1 PUSH1 0x1 PUSH0 CALLER PUSH20 0xFFFFFFFFFFFFFFFFFFFFFFFFFFFFFFFFFFFFFFFF AND PUSH20 0xFFFFFFFFFFFFFFFFFFFFFFFFFFFFFFFFFFFFFFFF AND DUP2 MSTORE PUSH1 0x20 ADD SWAP1 DUP2 MSTORE PUSH1 0x20 ADD PUSH0 KECCAK256 PUSH0 ADD DUP2 SWAP1 SSTORE POP NUMBER PUSH1 0x1 PUSH0 CALLER PUSH20 0xFFFFFFFFFFFFFFFFFFFFFFFFFFFFFFFFFFFFFFFF AND PUSH20 0xFFFFFFFFFFFFFFFFFFFFFFFFFFFFFFFFFFFFFFFF AND DUP2 MSTORE PUSH1 0x20 ADD SWAP1 DUP2 MSTORE PUSH1 0x20 ADD PUSH0 KECCAK256 PUSH1 0x1 ADD PUSH0 PUSH2 0x100 EXP DUP2 SLOAD DUP2 PUSH8 0xFFFFFFFFFFFFFFFF MUL NOT AND SWAP1 DUP4 PUSH8 0xFFFFFFFFFFFFFFFF AND MUL OR SWAP1 SSTORE POP PUSH0 PUSH1 0x1 PUSH0 CALLER PUSH20 0xFFFFFFFFFFFFFFFFFFFFFFFFFFFFFFFFFFFFFFFF AND PUSH20 0xFFFFFFFFFFFFFFFFFFFFFFFFFFFFFFFFFFFFFFFF AND DUP2 MSTORE PUSH1 0x20 ADD SWAP1 DUP2 MSTORE PUSH1 0x20 ADD PUSH0 KECCAK256 PUSH1 0x1 ADD PUSH1 0x8 PUSH2 0x100 EXP DUP2 SLOAD DUP2 PUSH1 0xFF MUL NOT AND SWAP1 DUP4 ISZERO ISZERO MUL OR SWAP1 SSTORE POP PUSH32 0x3C1A1F8F38335B17F751C6DA4BA7D1865F26B3997535176F5080DE9FAD891603 CALLER PUSH1 0x1 PUSH0 CALLER PUSH20 0xFFFFFFFFFFFFFFFFFFFFFFFFFFFFFFFFFFFFFFFF AND PUSH20 0xFFFFFFFFFFFFFFFFFFFFFFFFFFFFFFFFFFFFFFFF AND DUP2 MSTORE PUSH1 0x20 ADD SWAP1 DUP2 MSTORE PUSH1 0x20 ADD PUSH0 KECCAK256 PUSH0 ADD SLOAD PUSH1 0x1 PUSH0 CALLER PUSH20 0xFFFFFFFFFFFFFFFFFFFFFFFFFFFFFFFFFFFFFFFF AND PUSH20 0xFFFFFFFFFFFFFFFFFFFFFFFFFFFFFFFFFFFFFFFF AND DUP2 MSTORE PUSH1 0x20 ADD SWAP1 DUP2 MSTORE PUSH1 0x20 ADD PUSH0 KECCAK256 PUSH1 0x1 ADD PUSH0 SWAP1 SLOAD SWAP1 PUSH2 0x100 EXP SWAP1 DIV PUSH8 0xFFFFFFFFFFFFFFFF AND PUSH1 0x40 MLOAD PUSH2 0x2026 SWAP4 SWAP3 SWAP2 SWAP1 PUSH2 0x2EDA JUMP JUMPDEST PUSH1 0x40 MLOAD DUP1 SWAP2 SUB SWAP1 LOG1 POP JUMP JUMPDEST POP DUP1 SLOAD PUSH0 DUP3 SSTORE SWAP1 PUSH0 MSTORE PUSH1 0x20 PUSH0 KECCAK256 SWAP1 DUP2 ADD SWAP1 PUSH2 0x204C SWAP2 SWAP1 PUSH2 0x204F JUMP JUMPDEST POP JUMP JUMPDEST JUMPDEST DUP1 DUP3 GT ISZERO PUSH2 0x2066 JUMPI PUSH0 DUP2 PUSH0 SWAP1 SSTORE POP PUSH1 0x1 ADD PUSH2 0x2050 JUMP JUMPDEST POP SWAP1 JUMP JUMPDEST PUSH0 DUP2 SWAP1 POP SWAP2 SWAP1 POP JUMP JUMPDEST PUSH2 0x207C DUP2 PUSH2 0x206A JUMP JUMPDEST DUP3 MSTORE POP POP JUMP JUMPDEST PUSH0 PUSH1 0x20 DUP3 ADD SWAP1 POP PUSH2 0x2095 PUSH0 DUP4 ADD DUP5 PUSH2 0x2073 JUMP JUMPDEST SWAP3 SWAP2 POP POP JUMP JUMPDEST PUSH0 DUP1 REVERT JUMPDEST PUSH0 DUP2 SWAP1 POP SWAP2 SWAP1 POP JUMP JUMPDEST PUSH2 0x20B1 DUP2 PUSH2 0x209F JUMP JUMPDEST DUP2 EQ PUSH2 0x20BB JUMPI PUSH0 DUP1 REVERT JUMPDEST POP JUMP JUMPDEST PUSH0 DUP2 CALLDATALOAD SWAP1 POP PUSH2 0x20CC DUP2 PUSH2 0x20A8 JUMP JUMPDEST SWAP3 SWAP2 POP POP JUMP JUMPDEST PUSH0 PUSH1 0x20 DUP3 DUP5 SUB SLT ISZERO PUSH2 0x20E7 JUMPI PUSH2 0x20E6 PUSH2 0x209B JUMP JUMPDEST JUMPDEST PUSH0 PUSH2 0x20F4 DUP5 DUP3 DUP6 ADD PUSH2 0x20BE JUMP JUMPDEST SWAP2 POP POP SWAP3 SWAP2 POP POP JUMP JUMPDEST PUSH2 0x2106 DUP2 PUSH2 0x209F JUMP JUMPDEST DUP3 MSTORE POP POP JUMP JUMPDEST PUSH0 PUSH1 0x20 DUP3 ADD SWAP1 POP PUSH2 0x211F PUSH0 DUP4 ADD DUP5 PUSH2 0x20FD JUMP JUMPDEST SWAP3 SWAP2 POP POP JUMP JUMPDEST PUSH0 PUSH20 0xFFFFFFFFFFFFFFFFFFFFFFFFFFFFFFFFFFFFFFFF DUP3 AND SWAP1 POP SWAP2 SWAP1 POP JUMP JUMPDEST PUSH0 PUSH2 0x214E DUP3 PUSH2 0x2125 JUMP JUMPDEST SWAP1 POP SWAP2 SWAP1 POP JUMP JUMPDEST PUSH2 0x215E DUP2 PUSH2 0x2144 JUMP JUMPDEST DUP2 EQ PUSH2 0x2168 JUMPI PUSH0 DUP1 REVERT JUMPDEST POP JUMP JUMPDEST PUSH0 DUP2 CALLDATALOAD SWAP1 POP PUSH2 0x2179 DUP2 PUSH2 0x2155 JUMP JUMPDEST SWAP3 SWAP2 POP POP JUMP JUMPDEST PUSH0 PUSH1 0x20 DUP3 DUP5 SUB SLT ISZERO PUSH2 0x2194 JUMPI PUSH2 0x2193 PUSH2 0x209B JUMP JUMPDEST JUMPDEST PUSH0 PUSH2 0x21A1 DUP5 DUP3 DUP6 ADD PUSH2 0x216B JUMP JUMPDEST SWAP2 POP POP SWAP3 SWAP2 POP POP JUMP JUMPDEST PUSH0 DUP2 ISZERO ISZERO SWAP1 POP SWAP2 SWAP1 POP JUMP JUMPDEST PUSH2 0x21BE DUP2 PUSH2 0x21AA JUMP JUMPDEST DUP3 MSTORE POP POP JUMP JUMPDEST PUSH0 PUSH1 0x20 DUP3 ADD SWAP1 POP PUSH2 0x21D7 PUSH0 DUP4 ADD DUP5 PUSH2 0x21B5 JUMP JUMPDEST SWAP3 SWAP2 POP POP JUMP JUMPDEST PUSH0 PUSH1 0xFF DUP3 AND SWAP1 POP SWAP2 SWAP1 POP JUMP JUMPDEST PUSH2 0x21F2 DUP2 PUSH2 0x21DD JUMP JUMPDEST DUP3 MSTORE POP POP JUMP JUMPDEST PUSH0 PUSH1 0x20 DUP3 ADD SWAP1 POP PUSH2 0x220B PUSH0 DUP4 ADD DUP5 PUSH2 0x21E9 JUMP JUMPDEST SWAP3 SWAP2 POP POP JUMP JUMPDEST PUSH0 PUSH8 0xFFFFFFFFFFFFFFFF DUP3 AND SWAP1 POP SWAP2 SWAP1 POP JUMP JUMPDEST PUSH2 0x222D DUP2 PUSH2 0x2211 JUMP JUMPDEST DUP3 MSTORE POP POP JUMP JUMPDEST PUSH0 PUSH1 0x60 DUP3 ADD SWAP1 POP PUSH2 0x2246 PUSH0 DUP4 ADD DUP7 PUSH2 0x20FD JUMP JUMPDEST PUSH2 0x2253 PUSH1 0x20 DUP4 ADD DUP6 PUSH2 0x2224 JUMP JUMPDEST PUSH2 0x2260 PUSH1 0x40 DUP4 ADD DUP5 PUSH2 0x21B5 JUMP JUMPDEST SWAP5 SWAP4 POP POP POP POP JUMP JUMPDEST PUSH2 0x2271 DUP2 PUSH2 0x206A JUMP JUMPDEST DUP2 EQ PUSH2 0x227B JUMPI PUSH0 DUP1 REVERT JUMPDEST POP JUMP JUMPDEST PUSH0 DUP2 CALLDATALOAD SWAP1 POP PUSH2 0x228C DUP2 PUSH2 0x2268 JUMP JUMPDEST SWAP3 SWAP2 POP POP JUMP JUMPDEST PUSH0 PUSH1 0x20 DUP3 DUP5 SUB SLT ISZERO PUSH2 0x22A7 JUMPI PUSH2 0x22A6 PUSH2 0x209B JUMP JUMPDEST JUMPDEST PUSH0 PUSH2 0x22B4 DUP5 DUP3 DUP6 ADD PUSH2 0x227E JUMP JUMPDEST SWAP2 POP POP SWAP3 SWAP2 POP POP JUMP JUMPDEST PUSH2 0x22C6 DUP2 PUSH2 0x2144 JUMP JUMPDEST DUP3 MSTORE POP POP JUMP JUMPDEST PUSH0 PUSH1 0x20 DUP3 ADD SWAP1 POP PUSH2 0x22DF PUSH0 DUP4 ADD DUP5 PUSH2 0x22BD JUMP JUMPDEST SWAP3 SWAP2 POP POP JUMP JUMPDEST PUSH0 DUP2 SWAP1 POP SWAP2 SWAP1 POP JUMP JUMPDEST PUSH0 PUSH2 0x2308 PUSH2 0x2303 PUSH2 0x22FE DUP5 PUSH2 0x2125 JUMP JUMPDEST PUSH2 0x22E5 JUMP JUMPDEST PUSH2 0x2125 JUMP JUMPDEST SWAP1 POP SWAP2 SWAP1 POP JUMP JUMPDEST PUSH0 PUSH2 0x2319 DUP3 PUSH2 0x22EE JUMP JUMPDEST SWAP1 POP SWAP2 SWAP1 POP JUMP JUMPDEST PUSH0 PUSH2 0x232A DUP3 PUSH2 0x230F JUMP JUMPDEST SWAP1 POP SWAP2 SWAP1 POP JUMP JUMPDEST PUSH2 0x233A DUP2 PUSH2 0x2320 JUMP JUMPDEST DUP3 MSTORE POP POP JUMP JUMPDEST PUSH0 PUSH1 0x20 DUP3 ADD SWAP1 POP PUSH2 0x2353 PUSH0 DUP4 ADD DUP5 PUSH2 0x2331 JUMP JUMPDEST SWAP3 SWAP2 POP POP JUMP JUMPDEST PUSH0 DUP3 DUP3 MSTORE PUSH1 0x20 DUP3 ADD SWAP1 POP SWAP3 SWAP2 POP POP JUMP JUMPDEST PUSH32 0x4E6F20706C617965727320696E207468652067616D652E000000000000000000 PUSH0 DUP3 ADD MSTORE POP JUMP JUMPDEST PUSH0 PUSH2 0x239D PUSH1 0x17 DUP4 PUSH2 0x2359 JUMP JUMPDEST SWAP2 POP PUSH2 0x23A8 DUP3 PUSH2 0x2369 JUMP JUMPDEST PUSH1 0x20 DUP3 ADD SWAP1 POP SWAP2 SWAP1 POP JUMP JUMPDEST PUSH0 PUSH1 0x20 DUP3 ADD SWAP1 POP DUP2 DUP2 SUB PUSH0 DUP4 ADD MSTORE PUSH2 0x23CA DUP2 PUSH2 0x2391 JUMP JUMPDEST SWAP1 POP SWAP2 SWAP1 POP JUMP JUMPDEST PUSH32 0x54696D656F7574206E6F7420726561636865642E000000000000000000000000 PUSH0 DUP3 ADD MSTORE POP JUMP JUMPDEST PUSH0 PUSH2 0x2405 PUSH1 0x14 DUP4 PUSH2 0x2359 JUMP JUMPDEST SWAP2 POP PUSH2 0x2410 DUP3 PUSH2 0x23D1 JUMP JUMPDEST PUSH1 0x20 DUP3 ADD SWAP1 POP SWAP2 SWAP1 POP JUMP JUMPDEST PUSH0 PUSH1 0x20 DUP3 ADD SWAP1 POP DUP2 DUP2 SUB PUSH0 DUP4 ADD MSTORE PUSH2 0x2432 DUP2 PUSH2 0x23F9 JUMP JUMPDEST SWAP1 POP SWAP2 SWAP1 POP JUMP JUMPDEST PUSH32 0x4E487B7100000000000000000000000000000000000000000000000000000000 PUSH0 MSTORE PUSH1 0x32 PUSH1 0x4 MSTORE PUSH1 0x24 PUSH0 REVERT JUMPDEST PUSH0 PUSH1 0x40 DUP3 ADD SWAP1 POP PUSH2 0x2479 PUSH0 DUP4 ADD DUP6 PUSH2 0x22BD JUMP JUMPDEST PUSH2 0x2486 PUSH1 0x20 DUP4 ADD DUP5 PUSH2 0x2073 JUMP JUMPDEST SWAP4 SWAP3 POP POP POP JUMP JUMPDEST PUSH2 0x2496 DUP2 PUSH2 0x21AA JUMP JUMPDEST DUP2 EQ PUSH2 0x24A0 JUMPI PUSH0 DUP1 REVERT JUMPDEST POP JUMP JUMPDEST PUSH0 DUP2 MLOAD SWAP1 POP PUSH2 0x24B1 DUP2 PUSH2 0x248D JUMP JUMPDEST SWAP3 SWAP2 POP POP JUMP JUMPDEST PUSH0 PUSH1 0x20 DUP3 DUP5 SUB SLT ISZERO PUSH2 0x24CC JUMPI PUSH2 0x24CB PUSH2 0x209B JUMP JUMPDEST JUMPDEST PUSH0 PUSH2 0x24D9 DUP5 DUP3 DUP6 ADD PUSH2 0x24A3 JUMP JUMPDEST SWAP2 POP POP SWAP3 SWAP2 POP POP JUMP JUMPDEST PUSH32 0x4E487B7100000000000000000000000000000000000000000000000000000000 PUSH0 MSTORE PUSH1 0x12 PUSH1 0x4 MSTORE PUSH1 0x24 PUSH0 REVERT JUMPDEST PUSH32 0x4E487B7100000000000000000000000000000000000000000000000000000000 PUSH0 MSTORE PUSH1 0x11 PUSH1 0x4 MSTORE PUSH1 0x24 PUSH0 REVERT JUMPDEST PUSH0 PUSH2 0x2546 DUP3 PUSH2 0x206A JUMP JUMPDEST SWAP2 POP PUSH2 0x2551 DUP4 PUSH2 0x206A JUMP JUMPDEST SWAP3 POP DUP3 PUSH2 0x2561 JUMPI PUSH2 0x2560 PUSH2 0x24E2 JUMP JUMPDEST JUMPDEST DUP3 DUP3 DIV SWAP1 POP SWAP3 SWAP2 POP POP JUMP JUMPDEST PUSH32 0x47616D6520616C726561647920686173203220706C61796572732E0000000000 PUSH0 DUP3 ADD MSTORE POP JUMP JUMPDEST PUSH0 PUSH2 0x25A0 PUSH1 0x1B DUP4 PUSH2 0x2359 JUMP JUMPDEST SWAP2 POP PUSH2 0x25AB DUP3 PUSH2 0x256C JUMP JUMPDEST PUSH1 0x20 DUP3 ADD SWAP1 POP SWAP2 SWAP1 POP JUMP JUMPDEST PUSH0 PUSH1 0x20 DUP3 ADD SWAP1 POP DUP2 DUP2 SUB PUSH0 DUP4 ADD MSTORE PUSH2 0x25CD DUP2 PUSH2 0x2594 JUMP JUMPDEST SWAP1 POP SWAP2 SWAP1 POP JUMP JUMPDEST PUSH0 PUSH1 0x40 DUP3 ADD SWAP1 POP PUSH2 0x25E7 PUSH0 DUP4 ADD DUP6 PUSH2 0x22BD JUMP JUMPDEST PUSH2 0x25F4 PUSH1 0x20 DUP4 ADD DUP5 PUSH2 0x22BD JUMP JUMPDEST SWAP4 SWAP3 POP POP POP JUMP JUMPDEST PUSH0 DUP2 MLOAD SWAP1 POP PUSH2 0x2609 DUP2 PUSH2 0x2268 JUMP JUMPDEST SWAP3 SWAP2 POP POP JUMP JUMPDEST PUSH0 PUSH1 0x20 DUP3 DUP5 SUB SLT ISZERO PUSH2 0x2624 JUMPI PUSH2 0x2623 PUSH2 0x209B JUMP JUMPDEST JUMPDEST PUSH0 PUSH2 0x2631 DUP5 DUP3 DUP6 ADD PUSH2 0x25FB JUMP JUMPDEST SWAP2 POP POP SWAP3 SWAP2 POP POP JUMP JUMPDEST PUSH32 0x417070726F766520636F6E747261637420746F2077697468647261772066756E PUSH0 DUP3 ADD MSTORE PUSH32 0x64732E0000000000000000000000000000000000000000000000000000000000 PUSH1 0x20 DUP3 ADD MSTORE POP JUMP JUMPDEST PUSH0 PUSH2 0x2694 PUSH1 0x23 DUP4 PUSH2 0x2359 JUMP JUMPDEST SWAP2 POP PUSH2 0x269F DUP3 PUSH2 0x263A JUMP JUMPDEST PUSH1 0x40 DUP3 ADD SWAP1 POP SWAP2 SWAP1 POP JUMP JUMPDEST PUSH0 PUSH1 0x20 DUP3 ADD SWAP1 POP DUP2 DUP2 SUB PUSH0 DUP4 ADD MSTORE PUSH2 0x26C1 DUP2 PUSH2 0x2688 JUMP JUMPDEST SWAP1 POP SWAP2 SWAP1 POP JUMP JUMPDEST PUSH32 0x596F752061726520616C726561647920696E207468652067616D652E00000000 PUSH0 DUP3 ADD MSTORE POP JUMP JUMPDEST PUSH0 PUSH2 0x26FC PUSH1 0x1C DUP4 PUSH2 0x2359 JUMP JUMPDEST SWAP2 POP PUSH2 0x2707 DUP3 PUSH2 0x26C8 JUMP JUMPDEST PUSH1 0x20 DUP3 ADD SWAP1 POP SWAP2 SWAP1 POP JUMP JUMPDEST PUSH0 PUSH1 0x20 DUP3 ADD SWAP1 POP DUP2 DUP2 SUB PUSH0 DUP4 ADD MSTORE PUSH2 0x2729 DUP2 PUSH2 0x26F0 JUMP JUMPDEST SWAP1 POP SWAP2 SWAP1 POP JUMP JUMPDEST PUSH0 PUSH2 0x273A DUP3 PUSH2 0x206A JUMP JUMPDEST SWAP2 POP PUSH32 0xFFFFFFFFFFFFFFFFFFFFFFFFFFFFFFFFFFFFFFFFFFFFFFFFFFFFFFFFFFFFFFFF DUP3 SUB PUSH2 0x276C JUMPI PUSH2 0x276B PUSH2 0x250F JUMP JUMPDEST JUMPDEST PUSH1 0x1 DUP3 ADD SWAP1 POP SWAP2 SWAP1 POP JUMP JUMPDEST PUSH0 PUSH2 0x2781 DUP3 PUSH2 0x206A JUMP JUMPDEST SWAP2 POP PUSH2 0x278C DUP4 PUSH2 0x206A JUMP JUMPDEST SWAP3 POP DUP3 DUP3 ADD SWAP1 POP DUP1 DUP3 GT ISZERO PUSH2 0x27A4 JUMPI PUSH2 0x27A3 PUSH2 0x250F JUMP JUMPDEST JUMPDEST SWAP3 SWAP2 POP POP JUMP JUMPDEST PUSH0 DUP2 SWAP1 POP SWAP2 SWAP1 POP JUMP JUMPDEST PUSH2 0x27C4 PUSH2 0x27BF DUP3 PUSH2 0x209F JUMP JUMPDEST PUSH2 0x27AA JUMP JUMPDEST DUP3 MSTORE POP POP JUMP JUMPDEST PUSH0 PUSH2 0x27D5 DUP3 DUP5 PUSH2 0x27B3 JUMP JUMPDEST PUSH1 0x20 DUP3 ADD SWAP2 POP DUP2 SWAP1 POP SWAP3 SWAP2 POP POP JUMP JUMPDEST PUSH32 0x596F75206E65656420746F20636F6D6D69742066697273742E00000000000000 PUSH0 DUP3 ADD MSTORE POP JUMP JUMPDEST PUSH0 PUSH2 0x2818 PUSH1 0x19 DUP4 PUSH2 0x2359 JUMP JUMPDEST SWAP2 POP PUSH2 0x2823 DUP3 PUSH2 0x27E4 JUMP JUMPDEST PUSH1 0x20 DUP3 ADD SWAP1 POP SWAP2 SWAP1 POP JUMP JUMPDEST PUSH0 PUSH1 0x20 DUP3 ADD SWAP1 POP DUP2 DUP2 SUB PUSH0 DUP4 ADD MSTORE PUSH2 0x2845 DUP2 PUSH2 0x280C JUMP JUMPDEST SWAP1 POP SWAP2 SWAP1 POP JUMP JUMPDEST PUSH32 0x496E76616C69642063686F6963652E0000000000000000000000000000000000 PUSH0 DUP3 ADD MSTORE POP JUMP JUMPDEST PUSH0 PUSH2 0x2880 PUSH1 0xF DUP4 PUSH2 0x2359 JUMP JUMPDEST SWAP2 POP PUSH2 0x288B DUP3 PUSH2 0x284C JUMP JUMPDEST PUSH1 0x20 DUP3 ADD SWAP1 POP SWAP2 SWAP1 POP JUMP JUMPDEST PUSH0 PUSH1 0x20 DUP3 ADD SWAP1 POP DUP2 DUP2 SUB PUSH0 DUP4 ADD MSTORE PUSH2 0x28AD DUP2 PUSH2 0x2874 JUMP JUMPDEST SWAP1 POP SWAP2 SWAP1 POP JUMP JUMPDEST PUSH0 PUSH2 0x28BE DUP3 PUSH2 0x206A JUMP JUMPDEST SWAP2 POP PUSH2 0x28C9 DUP4 PUSH2 0x206A JUMP JUMPDEST SWAP3 POP DUP3 DUP3 SUB SWAP1 POP DUP2 DUP2 GT ISZERO PUSH2 0x28E1 JUMPI PUSH2 0x28E0 PUSH2 0x250F JUMP JUMPDEST JUMPDEST SWAP3 SWAP2 POP POP JUMP JUMPDEST PUSH32 0x47616D65206E65656473203220706C61796572732E0000000000000000000000 PUSH0 DUP3 ADD MSTORE POP JUMP JUMPDEST PUSH0 PUSH2 0x291B PUSH1 0x15 DUP4 PUSH2 0x2359 JUMP JUMPDEST SWAP2 POP PUSH2 0x2926 DUP3 PUSH2 0x28E7 JUMP JUMPDEST PUSH1 0x20 DUP3 ADD SWAP1 POP SWAP2 SWAP1 POP JUMP JUMPDEST PUSH0 PUSH1 0x20 DUP3 ADD SWAP1 POP DUP2 DUP2 SUB PUSH0 DUP4 ADD MSTORE PUSH2 0x2948 DUP2 PUSH2 0x290F JUMP JUMPDEST SWAP1 POP SWAP2 SWAP1 POP JUMP JUMPDEST PUSH32 0x416C726561647920636F6D6D69747465642E0000000000000000000000000000 PUSH0 DUP3 ADD MSTORE POP JUMP JUMPDEST PUSH0 PUSH2 0x2983 PUSH1 0x12 DUP4 PUSH2 0x2359 JUMP JUMPDEST SWAP2 POP PUSH2 0x298E DUP3 PUSH2 0x294F JUMP JUMPDEST PUSH1 0x20 DUP3 ADD SWAP1 POP SWAP2 SWAP1 POP JUMP JUMPDEST PUSH0 PUSH1 0x20 DUP3 ADD SWAP1 POP DUP2 DUP2 SUB PUSH0 DUP4 ADD MSTORE PUSH2 0x29B0 DUP2 PUSH2 0x2977 JUMP JUMPDEST SWAP1 POP SWAP2 SWAP1 POP JUMP JUMPDEST PUSH32 0x596F7520616C726561647920636F6D6D69747465642E00000000000000000000 PUSH0 DUP3 ADD MSTORE POP JUMP JUMPDEST PUSH0 PUSH2 0x29EB PUSH1 0x16 DUP4 PUSH2 0x2359 JUMP JUMPDEST SWAP2 POP PUSH2 0x29F6 DUP3 PUSH2 0x29B7 JUMP JUMPDEST PUSH1 0x20 DUP3 ADD SWAP1 POP SWAP2 SWAP1 POP JUMP JUMPDEST PUSH0 PUSH1 0x20 DUP3 ADD SWAP1 POP DUP2 DUP2 SUB PUSH0 DUP4 ADD MSTORE PUSH2 0x2A18 DUP2 PUSH2 0x29DF JUMP JUMPDEST SWAP1 POP SWAP2 SWAP1 POP JUMP JUMPDEST PUSH32 0x436F6D6D697452657665616C3A3A72657665616C3A20416C7265616479207265 PUSH0 DUP3 ADD MSTORE PUSH32 0x7665616C65640000000000000000000000000000000000000000000000000000 PUSH1 0x20 DUP3 ADD MSTORE POP JUMP JUMPDEST PUSH0 PUSH2 0x2A79 PUSH1 0x26 DUP4 PUSH2 0x2359 JUMP JUMPDEST SWAP2 POP PUSH2 0x2A84 DUP3 PUSH2 0x2A1F JUMP JUMPDEST PUSH1 0x40 DUP3 ADD SWAP1 POP SWAP2 SWAP1 POP JUMP JUMPDEST PUSH0 PUSH1 0x20 DUP3 ADD SWAP1 POP DUP2 DUP2 SUB PUSH0 DUP4 ADD MSTORE PUSH2 0x2AA6 DUP2 PUSH2 0x2A6D JUMP JUMPDEST SWAP1 POP SWAP2 SWAP1 POP JUMP JUMPDEST PUSH32 0x436F6D6D697452657665616C3A3A72657665616C3A2052657665616C65642068 PUSH0 DUP3 ADD MSTORE PUSH32 0x61736820646F6573206E6F74206D6174636820636F6D6D697400000000000000 PUSH1 0x20 DUP3 ADD MSTORE POP JUMP JUMPDEST PUSH0 PUSH2 0x2B07 PUSH1 0x39 DUP4 PUSH2 0x2359 JUMP JUMPDEST SWAP2 POP PUSH2 0x2B12 DUP3 PUSH2 0x2AAD JUMP JUMPDEST PUSH1 0x40 DUP3 ADD SWAP1 POP SWAP2 SWAP1 POP JUMP JUMPDEST PUSH0 PUSH1 0x20 DUP3 ADD SWAP1 POP DUP2 DUP2 SUB PUSH0 DUP4 ADD MSTORE PUSH2 0x2B34 DUP2 PUSH2 0x2AFB JUMP JUMPDEST SWAP1 POP SWAP2 SWAP1 POP JUMP JUMPDEST PUSH32 0x436F6D6D697452657665616C3A3A72657665616C3A2052657665616C20616E64 PUSH0 DUP3 ADD MSTORE PUSH32 0x20636F6D6D69742068617070656E6564206F6E207468652073616D6520626C6F PUSH1 0x20 DUP3 ADD MSTORE PUSH32 0x636B000000000000000000000000000000000000000000000000000000000000 PUSH1 0x40 DUP3 ADD MSTORE POP JUMP JUMPDEST PUSH0 PUSH2 0x2BBB PUSH1 0x42 DUP4 PUSH2 0x2359 JUMP JUMPDEST SWAP2 POP PUSH2 0x2BC6 DUP3 PUSH2 0x2B3B JUMP JUMPDEST PUSH1 0x60 DUP3 ADD SWAP1 POP SWAP2 SWAP1 POP JUMP JUMPDEST PUSH0 PUSH1 0x20 DUP3 ADD SWAP1 POP DUP2 DUP2 SUB PUSH0 DUP4 ADD MSTORE PUSH2 0x2BE8 DUP2 PUSH2 0x2BAF JUMP JUMPDEST SWAP1 POP SWAP2 SWAP1 POP JUMP JUMPDEST PUSH0 PUSH2 0x2BF9 DUP3 PUSH2 0x2211 JUMP JUMPDEST SWAP2 POP PUSH2 0x2C04 DUP4 PUSH2 0x2211 JUMP JUMPDEST SWAP3 POP DUP3 DUP3 ADD SWAP1 POP PUSH8 0xFFFFFFFFFFFFFFFF DUP2 GT ISZERO PUSH2 0x2C24 JUMPI PUSH2 0x2C23 PUSH2 0x250F JUMP JUMPDEST JUMPDEST SWAP3 SWAP2 POP POP JUMP JUMPDEST PUSH32 0x436F6D6D697452657665616C3A3A72657665616C3A2052657665616C65642074 PUSH0 DUP3 ADD MSTORE PUSH32 0x6F6F206C61746500000000000000000000000000000000000000000000000000 PUSH1 0x20 DUP3 ADD MSTORE POP JUMP JUMPDEST PUSH0 PUSH2 0x2C84 PUSH1 0x27 DUP4 PUSH2 0x2359 JUMP JUMPDEST SWAP2 POP PUSH2 0x2C8F DUP3 PUSH2 0x2C2A JUMP JUMPDEST PUSH1 0x40 DUP3 ADD SWAP1 POP SWAP2 SWAP1 POP JUMP JUMPDEST PUSH0 PUSH1 0x20 DUP3 ADD SWAP1 POP DUP2 DUP2 SUB PUSH0 DUP4 ADD MSTORE PUSH2 0x2CB1 DUP2 PUSH2 0x2C78 JUMP JUMPDEST SWAP1 POP SWAP2 SWAP1 POP JUMP JUMPDEST PUSH0 PUSH2 0x2CC3 DUP3 DUP6 PUSH2 0x27B3 JUMP JUMPDEST PUSH1 0x20 DUP3 ADD SWAP2 POP PUSH2 0x2CD3 DUP3 DUP5 PUSH2 0x27B3 JUMP JUMPDEST PUSH1 0x20 DUP3 ADD SWAP2 POP DUP2 SWAP1 POP SWAP4 SWAP3 POP POP POP JUMP JUMPDEST PUSH0 PUSH2 0x2CED DUP3 PUSH2 0x206A JUMP JUMPDEST SWAP2 POP PUSH2 0x2CF8 DUP4 PUSH2 0x206A JUMP JUMPDEST SWAP3 POP DUP3 PUSH2 0x2D08 JUMPI PUSH2 0x2D07 PUSH2 0x24E2 JUMP JUMPDEST JUMPDEST DUP3 DUP3 MOD SWAP1 POP SWAP3 SWAP2 POP POP JUMP JUMPDEST PUSH0 PUSH1 0x60 DUP3 ADD SWAP1 POP PUSH2 0x2D26 PUSH0 DUP4 ADD DUP7 PUSH2 0x22BD JUMP JUMPDEST PUSH2 0x2D33 PUSH1 0x20 DUP4 ADD DUP6 PUSH2 0x20FD JUMP JUMPDEST PUSH2 0x2D40 PUSH1 0x40 DUP4 ADD DUP5 PUSH2 0x2073 JUMP JUMPDEST SWAP5 SWAP4 POP POP POP POP JUMP JUMPDEST PUSH32 0x506C61796572203120686173206E6F7420617070726F76656420656E6F756768 PUSH0 DUP3 ADD MSTORE PUSH32 0x2066756E64732E00000000000000000000000000000000000000000000000000 PUSH1 0x20 DUP3 ADD MSTORE POP JUMP JUMPDEST PUSH0 PUSH2 0x2DA2 PUSH1 0x27 DUP4 PUSH2 0x2359 JUMP JUMPDEST SWAP2 POP PUSH2 0x2DAD DUP3 PUSH2 0x2D48 JUMP JUMPDEST PUSH1 0x40 DUP3 ADD SWAP1 POP SWAP2 SWAP1 POP JUMP JUMPDEST PUSH0 PUSH1 0x20 DUP3 ADD SWAP1 POP DUP2 DUP2 SUB PUSH0 DUP4 ADD MSTORE PUSH2 0x2DCF DUP2 PUSH2 0x2D96 JUMP JUMPDEST SWAP1 POP SWAP2 SWAP1 POP JUMP JUMPDEST PUSH32 0x506C61796572203220686173206E6F7420617070726F76656420656E6F756768 PUSH0 DUP3 ADD MSTORE PUSH32 0x2066756E64732E00000000000000000000000000000000000000000000000000 PUSH1 0x20 DUP3 ADD MSTORE POP JUMP JUMPDEST PUSH0 PUSH2 0x2E30 PUSH1 0x27 DUP4 PUSH2 0x2359 JUMP JUMPDEST SWAP2 POP PUSH2 0x2E3B DUP3 PUSH2 0x2DD6 JUMP JUMPDEST PUSH1 0x40 DUP3 ADD SWAP1 POP SWAP2 SWAP1 POP JUMP JUMPDEST PUSH0 PUSH1 0x20 DUP3 ADD SWAP1 POP DUP2 DUP2 SUB PUSH0 DUP4 ADD MSTORE PUSH2 0x2E5D DUP2 PUSH2 0x2E24 JUMP JUMPDEST SWAP1 POP SWAP2 SWAP1 POP JUMP JUMPDEST PUSH0 PUSH1 0x60 DUP3 ADD SWAP1 POP PUSH2 0x2E77 PUSH0 DUP4 ADD DUP7 PUSH2 0x22BD JUMP JUMPDEST PUSH2 0x2E84 PUSH1 0x20 DUP4 ADD DUP6 PUSH2 0x22BD JUMP JUMPDEST PUSH2 0x2E91 PUSH1 0x40 DUP4 ADD DUP5 PUSH2 0x2073 JUMP JUMPDEST SWAP5 SWAP4 POP POP POP POP JUMP JUMPDEST PUSH0 PUSH2 0x2EA3 DUP3 PUSH2 0x206A JUMP JUMPDEST SWAP2 POP PUSH2 0x2EAE DUP4 PUSH2 0x206A JUMP JUMPDEST SWAP3 POP DUP3 DUP3 MUL PUSH2 0x2EBC DUP2 PUSH2 0x206A JUMP JUMPDEST SWAP2 POP DUP3 DUP3 DIV DUP5 EQ DUP4 ISZERO OR PUSH2 0x2ED3 JUMPI PUSH2 0x2ED2 PUSH2 0x250F JUMP JUMPDEST JUMPDEST POP SWAP3 SWAP2 POP POP JUMP JUMPDEST PUSH0 PUSH1 0x60 DUP3 ADD SWAP1 POP PUSH2 0x2EED PUSH0 DUP4 ADD DUP7 PUSH2 0x22BD JUMP JUMPDEST PUSH2 0x2EFA PUSH1 0x20 DUP4 ADD DUP6 PUSH2 0x20FD JUMP JUMPDEST PUSH2 0x2F07 PUSH1 0x40 DUP4 ADD DUP5 PUSH2 0x2224 JUMP JUMPDEST SWAP5 SWAP4 POP POP POP POP JUMP INVALID LOG2 PUSH5 0x6970667358 0x22 SLT KECCAK256 CODECOPY 0xE0 PUSH9 0xF57342D6A71C9D47B3 RETURNDATASIZE LOG1 0xE0 0x1E 0xA9 DUP8 PUSH16 0x280752CC912D055D949FC8A78564736F PUSH13 0x634300081A0033000000000000 "
				},
				"gasEstimates": {
					"creation": {
						"codeDepositCost": "2420200",
						"executionCost": "infinite",
						"totalCost": "infinite"
					},
					"external": {
						"addPlayer()": "infinite",
						"commits(address)": "7393",
						"elapsedMinutes()": "infinite",
						"elapsedSeconds()": "infinite",
						"getHash(bytes32)": "infinite",
						"input(bytes32)": "infinite",
						"isCommit(address)": "2856",
						"max()": "2552",
						"numInput()": "2449",
						"numPlayer()": "2492",
						"numReveal()": "2447",
						"player_choice(address)": "2891",
						"players(uint256)": "5032",
						"requiredAmount()": "2470",
						"revealChoice(bytes32)": "infinite",
						"reward()": "2493",
						"startTime()": "2536",
						"timeOutWithdraw()": "infinite",
						"timeoutDuration()": "2470",
						"token()": "infinite"
					},
					"internal": {
						"_checkWinnerAndPay()": "infinite",
						"_collectFunds()": "infinite",
						"_reset()": "infinite"
					}
				},
				"methodIdentifiers": {
					"addPlayer()": "27b5db8a",
					"commits(address)": "7b43a8e6",
					"elapsedMinutes()": "d97c8416",
					"elapsedSeconds()": "bc06b8cd",
					"getHash(bytes32)": "3cf5040a",
					"input(bytes32)": "d891f969",
					"isCommit(address)": "43cdd438",
					"max()": "6ac5db19",
					"numInput()": "086f7815",
					"numPlayer()": "90d5d0c3",
					"numReveal()": "c876e615",
					"player_choice(address)": "a040478d",
					"players(uint256)": "f71d96cb",
					"requiredAmount()": "48b9ef40",
					"revealChoice(bytes32)": "65ce0ac6",
					"reward()": "228cb733",
					"startTime()": "78e97925",
					"timeOutWithdraw()": "13454255",
					"timeoutDuration()": "85d19e1a",
					"token()": "fc0c546a"
				}
			},
			"storageLayout": {
				"storage": [
					{
						"astId": 4,
						"contract": "RPS1.sol:RPS",
						"label": "max",
						"offset": 0,
						"slot": "0",
						"type": "t_uint8"
					},
					{
						"astId": 16,
						"contract": "RPS1.sol:RPS",
						"label": "commits",
						"offset": 0,
						"slot": "1",
						"type": "t_mapping(t_address,t_struct(Commit)11_storage)"
					},
					{
						"astId": 1069,
						"contract": "RPS1.sol:RPS",
						"label": "startTime",
						"offset": 0,
						"slot": "2",
						"type": "t_uint256"
					},
					{
						"astId": 507,
						"contract": "RPS1.sol:RPS",
						"label": "token",
						"offset": 0,
						"slot": "3",
						"type": "t_contract(IERC20)495"
					},
					{
						"astId": 510,
						"contract": "RPS1.sol:RPS",
						"label": "numPlayer",
						"offset": 0,
						"slot": "4",
						"type": "t_uint256"
					},
					{
						"astId": 513,
						"contract": "RPS1.sol:RPS",
						"label": "reward",
						"offset": 0,
						"slot": "5",
						"type": "t_uint256"
					},
					{
						"astId": 517,
						"contract": "RPS1.sol:RPS",
						"label": "player_choice",
						"offset": 0,
						"slot": "6",
						"type": "t_mapping(t_address,t_uint256)"
					},
					{
						"astId": 521,
						"contract": "RPS1.sol:RPS",
						"label": "isCommit",
						"offset": 0,
						"slot": "7",
						"type": "t_mapping(t_address,t_bool)"
					},
					{
						"astId": 524,
						"contract": "RPS1.sol:RPS",
						"label": "numInput",
						"offset": 0,
						"slot": "8",
						"type": "t_uint256"
					},
					{
						"astId": 527,
						"contract": "RPS1.sol:RPS",
						"label": "numReveal",
						"offset": 0,
						"slot": "9",
						"type": "t_uint256"
					},
					{
						"astId": 530,
						"contract": "RPS1.sol:RPS",
						"label": "timeoutDuration",
						"offset": 0,
						"slot": "10",
						"type": "t_uint256"
					},
					{
						"astId": 533,
						"contract": "RPS1.sol:RPS",
						"label": "players",
						"offset": 0,
						"slot": "11",
						"type": "t_array(t_address)dyn_storage"
					},
					{
						"astId": 536,
						"contract": "RPS1.sol:RPS",
						"label": "requiredAmount",
						"offset": 0,
						"slot": "12",
						"type": "t_uint256"
					}
				],
				"types": {
					"t_address": {
						"encoding": "inplace",
						"label": "address",
						"numberOfBytes": "20"
					},
					"t_array(t_address)dyn_storage": {
						"base": "t_address",
						"encoding": "dynamic_array",
						"label": "address[]",
						"numberOfBytes": "32"
					},
					"t_bool": {
						"encoding": "inplace",
						"label": "bool",
						"numberOfBytes": "1"
					},
					"t_bytes32": {
						"encoding": "inplace",
						"label": "bytes32",
						"numberOfBytes": "32"
					},
					"t_contract(IERC20)495": {
						"encoding": "inplace",
						"label": "contract IERC20",
						"numberOfBytes": "20"
					},
					"t_mapping(t_address,t_bool)": {
						"encoding": "mapping",
						"key": "t_address",
						"label": "mapping(address => bool)",
						"numberOfBytes": "32",
						"value": "t_bool"
					},
					"t_mapping(t_address,t_struct(Commit)11_storage)": {
						"encoding": "mapping",
						"key": "t_address",
						"label": "mapping(address => struct CommitReveal.Commit)",
						"numberOfBytes": "32",
						"value": "t_struct(Commit)11_storage"
					},
					"t_mapping(t_address,t_uint256)": {
						"encoding": "mapping",
						"key": "t_address",
						"label": "mapping(address => uint256)",
						"numberOfBytes": "32",
						"value": "t_uint256"
					},
					"t_struct(Commit)11_storage": {
						"encoding": "inplace",
						"label": "struct CommitReveal.Commit",
						"members": [
							{
								"astId": 6,
								"contract": "RPS1.sol:RPS",
								"label": "commit",
								"offset": 0,
								"slot": "0",
								"type": "t_bytes32"
							},
							{
								"astId": 8,
								"contract": "RPS1.sol:RPS",
								"label": "block",
								"offset": 0,
								"slot": "1",
								"type": "t_uint64"
							},
							{
								"astId": 10,
								"contract": "RPS1.sol:RPS",
								"label": "revealed",
								"offset": 8,
								"slot": "1",
								"type": "t_bool"
							}
						],
						"numberOfBytes": "64"
					},
					"t_uint256": {
						"encoding": "inplace",
						"label": "uint256",
						"numberOfBytes": "32"
					},
					"t_uint64": {
						"encoding": "inplace",
						"label": "uint64",
						"numberOfBytes": "8"
					},
					"t_uint8": {
						"encoding": "inplace",
						"label": "uint8",
						"numberOfBytes": "1"
					}
				}
			},
			"userdoc": {
				"kind": "user",
				"methods": {},
				"version": 1
			}
		}
	}
}