{
	"RPS.sol": {
		"RPS": {
			"abi": [
				{
					"inputs": [],
					"stateMutability": "nonpayable",
					"type": "constructor"
				},
				{
					"anonymous": false,
					"inputs": [
						{
							"indexed": false,
							"internalType": "address",
							"name": "sender",
							"type": "address"
						},
						{
							"indexed": false,
							"internalType": "bytes32",
							"name": "dataHash",
							"type": "bytes32"
						},
						{
							"indexed": false,
							"internalType": "uint64",
							"name": "block",
							"type": "uint64"
						}
					],
					"name": "CommitHash",
					"type": "event"
				},
				{
					"anonymous": false,
					"inputs": [
						{
							"indexed": false,
							"internalType": "address",
							"name": "sender",
							"type": "address"
						},
						{
							"indexed": false,
							"internalType": "bytes32",
							"name": "revealHash",
							"type": "bytes32"
						},
						{
							"indexed": false,
							"internalType": "uint256",
							"name": "random",
							"type": "uint256"
						}
					],
					"name": "RevealHash",
					"type": "event"
				},
				{
					"anonymous": false,
					"inputs": [
						{
							"indexed": false,
							"internalType": "address",
							"name": "sender",
							"type": "address"
						},
						{
							"indexed": false,
							"internalType": "uint256",
							"name": "numPlayer",
							"type": "uint256"
						}
					],
					"name": "playerAdded",
					"type": "event"
				},
				{
					"anonymous": false,
					"inputs": [
						{
							"indexed": false,
							"internalType": "address",
							"name": "sender",
							"type": "address"
						},
						{
							"indexed": false,
							"internalType": "uint256",
							"name": "numInput",
							"type": "uint256"
						}
					],
					"name": "playerCommitHashed",
					"type": "event"
				},
				{
					"inputs": [],
					"name": "addPlayer",
					"outputs": [],
					"stateMutability": "payable",
					"type": "function"
				},
				{
					"inputs": [
						{
							"internalType": "bytes32",
							"name": "dataHash",
							"type": "bytes32"
						}
					],
					"name": "commit",
					"outputs": [],
					"stateMutability": "nonpayable",
					"type": "function"
				},
				{
					"inputs": [
						{
							"internalType": "address",
							"name": "",
							"type": "address"
						}
					],
					"name": "commits",
					"outputs": [
						{
							"internalType": "bytes32",
							"name": "commit",
							"type": "bytes32"
						},
						{
							"internalType": "uint64",
							"name": "block",
							"type": "uint64"
						},
						{
							"internalType": "bool",
							"name": "revealed",
							"type": "bool"
						}
					],
					"stateMutability": "view",
					"type": "function"
				},
				{
					"inputs": [],
					"name": "elapsedMinutes",
					"outputs": [
						{
							"internalType": "uint256",
							"name": "",
							"type": "uint256"
						}
					],
					"stateMutability": "view",
					"type": "function"
				},
				{
					"inputs": [],
					"name": "elapsedSeconds",
					"outputs": [
						{
							"internalType": "uint256",
							"name": "",
							"type": "uint256"
						}
					],
					"stateMutability": "view",
					"type": "function"
				},
				{
					"inputs": [
						{
							"internalType": "bytes32",
							"name": "data",
							"type": "bytes32"
						}
					],
					"name": "getHash",
					"outputs": [
						{
							"internalType": "bytes32",
							"name": "",
							"type": "bytes32"
						}
					],
					"stateMutability": "pure",
					"type": "function"
				},
				{
					"inputs": [
						{
							"internalType": "bytes32",
							"name": "hashAns",
							"type": "bytes32"
						}
					],
					"name": "input",
					"outputs": [],
					"stateMutability": "nonpayable",
					"type": "function"
				},
				{
					"inputs": [
						{
							"internalType": "address",
							"name": "",
							"type": "address"
						}
					],
					"name": "isCommit",
					"outputs": [
						{
							"internalType": "bool",
							"name": "",
							"type": "bool"
						}
					],
					"stateMutability": "view",
					"type": "function"
				},
				{
					"inputs": [],
					"name": "lastAction",
					"outputs": [
						{
							"internalType": "uint256",
							"name": "",
							"type": "uint256"
						}
					],
					"stateMutability": "view",
					"type": "function"
				},
				{
					"inputs": [],
					"name": "max",
					"outputs": [
						{
							"internalType": "uint8",
							"name": "",
							"type": "uint8"
						}
					],
					"stateMutability": "view",
					"type": "function"
				},
				{
					"inputs": [],
					"name": "numInput",
					"outputs": [
						{
							"internalType": "uint256",
							"name": "",
							"type": "uint256"
						}
					],
					"stateMutability": "view",
					"type": "function"
				},
				{
					"inputs": [],
					"name": "numPlayer",
					"outputs": [
						{
							"internalType": "uint256",
							"name": "",
							"type": "uint256"
						}
					],
					"stateMutability": "view",
					"type": "function"
				},
				{
					"inputs": [],
					"name": "numReveal",
					"outputs": [
						{
							"internalType": "uint256",
							"name": "",
							"type": "uint256"
						}
					],
					"stateMutability": "view",
					"type": "function"
				},
				{
					"inputs": [
						{
							"internalType": "address",
							"name": "",
							"type": "address"
						}
					],
					"name": "player_choice",
					"outputs": [
						{
							"internalType": "uint256",
							"name": "",
							"type": "uint256"
						}
					],
					"stateMutability": "view",
					"type": "function"
				},
				{
					"inputs": [
						{
							"internalType": "address",
							"name": "",
							"type": "address"
						}
					],
					"name": "player_not_played",
					"outputs": [
						{
							"internalType": "bool",
							"name": "",
							"type": "bool"
						}
					],
					"stateMutability": "view",
					"type": "function"
				},
				{
					"inputs": [
						{
							"internalType": "uint256",
							"name": "",
							"type": "uint256"
						}
					],
					"name": "players",
					"outputs": [
						{
							"internalType": "address",
							"name": "",
							"type": "address"
						}
					],
					"stateMutability": "view",
					"type": "function"
				},
				{
					"inputs": [
						{
							"internalType": "bytes32",
							"name": "revealHash",
							"type": "bytes32"
						}
					],
					"name": "reveal",
					"outputs": [],
					"stateMutability": "nonpayable",
					"type": "function"
				},
				{
					"inputs": [
						{
							"internalType": "bytes32",
							"name": "hashChoice",
							"type": "bytes32"
						}
					],
					"name": "revealChoice",
					"outputs": [],
					"stateMutability": "nonpayable",
					"type": "function"
				},
				{
					"inputs": [],
					"name": "reward",
					"outputs": [
						{
							"internalType": "uint256",
							"name": "",
							"type": "uint256"
						}
					],
					"stateMutability": "view",
					"type": "function"
				},
				{
					"inputs": [],
					"name": "setStartTime",
					"outputs": [],
					"stateMutability": "nonpayable",
					"type": "function"
				},
				{
					"inputs": [],
					"name": "startTime",
					"outputs": [
						{
							"internalType": "uint256",
							"name": "",
							"type": "uint256"
						}
					],
					"stateMutability": "view",
					"type": "function"
				},
				{
					"inputs": [],
					"name": "timeOutWithDraw",
					"outputs": [],
					"stateMutability": "nonpayable",
					"type": "function"
				},
				{
					"inputs": [],
					"name": "timeoutDeration",
					"outputs": [
						{
							"internalType": "uint256",
							"name": "",
							"type": "uint256"
						}
					],
					"stateMutability": "view",
					"type": "function"
				}
			],
			"devdoc": {
				"kind": "dev",
				"methods": {},
				"version": 1
			},
			"evm": {
				"assembly": "    /* \"RPS.sol\":134:6138  contract RPS is CommitReveal, TimeUnit {... */\n  mstore(0x40, 0x80)\n    /* \"CommitReveal.sol\":122:125  100 */\n  0x64\n    /* \"CommitReveal.sol\":103:125  uint8 public max = 100 */\n  0x00\n  dup1\n  0x0100\n  exp\n  dup2\n  sload\n  dup2\n  0xff\n  mul\n  not\n  and\n  swap1\n  dup4\n  0xff\n  and\n  mul\n  or\n  swap1\n  sstore\n  pop\n    /* \"RPS.sol\":204:205  0 */\n  0x00\n    /* \"RPS.sol\":180:205  uint public numPlayer = 0 */\n  0x03\n  sstore\n    /* \"RPS.sol\":233:234  0 */\n  0x00\n    /* \"RPS.sol\":212:234  uint public reward = 0 */\n  0x04\n  sstore\n    /* \"RPS.sol\":529:530  0 */\n  0x00\n    /* \"RPS.sol\":506:530  uint public numInput = 0 */\n  0x09\n  sstore\n    /* \"RPS.sol\":561:562  0 */\n  0x00\n    /* \"RPS.sol\":537:562  uint public numReveal = 0 */\n  0x0a\n  sstore\n    /* \"RPS.sol\":599:609  10 seconds */\n  0x0a\n    /* \"RPS.sol\":569:609  uint public timeoutDeration = 10 seconds */\n  0x0b\n  sstore\n    /* \"RPS.sol\":641:656  block.timestamp */\n  timestamp\n    /* \"RPS.sol\":616:656  uint public lastAction = block.timestamp */\n  0x0c\n  sstore\n    /* \"RPS.sol\":725:1067  constructor() {... */\n  callvalue\n  dup1\n  iszero\n  tag_1\n  jumpi\n  0x00\n  dup1\n  revert\ntag_1:\n  pop\n    /* \"RPS.sol\":815:819  true */\n  0x01\n    /* \"RPS.sol\":750:768  whitelistedPlayers */\n  0x0d\n    /* \"RPS.sol\":750:812  whitelistedPlayers[0x5B38Da6a701c568545dCfcB03FcB875f56beddC4] */\n  0x00\n    /* \"RPS.sol\":769:811  0x5B38Da6a701c568545dCfcB03FcB875f56beddC4 */\n  0x5b38da6a701c568545dcfcb03fcb875f56beddc4\n    /* \"RPS.sol\":750:812  whitelistedPlayers[0x5B38Da6a701c568545dCfcB03FcB875f56beddC4] */\n  0xffffffffffffffffffffffffffffffffffffffff\n  and\n  0xffffffffffffffffffffffffffffffffffffffff\n  and\n  dup2\n  mstore\n  0x20\n  add\n  swap1\n  dup2\n  mstore\n  0x20\n  add\n  0x00\n  keccak256\n  0x00\n    /* \"RPS.sol\":750:819  whitelistedPlayers[0x5B38Da6a701c568545dCfcB03FcB875f56beddC4] = true */\n  0x0100\n  exp\n  dup2\n  sload\n  dup2\n  0xff\n  mul\n  not\n  and\n  swap1\n  dup4\n  iszero\n  iszero\n  mul\n  or\n  swap1\n  sstore\n  pop\n    /* \"RPS.sol\":895:899  true */\n  0x01\n    /* \"RPS.sol\":830:848  whitelistedPlayers */\n  0x0d\n    /* \"RPS.sol\":830:892  whitelistedPlayers[0xAb8483F64d9C6d1EcF9b849Ae677dD3315835cb2] */\n  0x00\n    /* \"RPS.sol\":849:891  0xAb8483F64d9C6d1EcF9b849Ae677dD3315835cb2 */\n  0xab8483f64d9c6d1ecf9b849ae677dd3315835cb2\n    /* \"RPS.sol\":830:892  whitelistedPlayers[0xAb8483F64d9C6d1EcF9b849Ae677dD3315835cb2] */\n  0xffffffffffffffffffffffffffffffffffffffff\n  and\n  0xffffffffffffffffffffffffffffffffffffffff\n  and\n  dup2\n  mstore\n  0x20\n  add\n  swap1\n  dup2\n  mstore\n  0x20\n  add\n  0x00\n  keccak256\n  0x00\n    /* \"RPS.sol\":830:899  whitelistedPlayers[0xAb8483F64d9C6d1EcF9b849Ae677dD3315835cb2] = true */\n  0x0100\n  exp\n  dup2\n  sload\n  dup2\n  0xff\n  mul\n  not\n  and\n  swap1\n  dup4\n  iszero\n  iszero\n  mul\n  or\n  swap1\n  sstore\n  pop\n    /* \"RPS.sol\":975:979  true */\n  0x01\n    /* \"RPS.sol\":910:928  whitelistedPlayers */\n  0x0d\n    /* \"RPS.sol\":910:972  whitelistedPlayers[0x4B20993Bc481177ec7E8f571ceCaE8A9e22C02db] */\n  0x00\n    /* \"RPS.sol\":929:971  0x4B20993Bc481177ec7E8f571ceCaE8A9e22C02db */\n  0x4b20993bc481177ec7e8f571cecae8a9e22c02db\n    /* \"RPS.sol\":910:972  whitelistedPlayers[0x4B20993Bc481177ec7E8f571ceCaE8A9e22C02db] */\n  0xffffffffffffffffffffffffffffffffffffffff\n  and\n  0xffffffffffffffffffffffffffffffffffffffff\n  and\n  dup2\n  mstore\n  0x20\n  add\n  swap1\n  dup2\n  mstore\n  0x20\n  add\n  0x00\n  keccak256\n  0x00\n    /* \"RPS.sol\":910:979  whitelistedPlayers[0x4B20993Bc481177ec7E8f571ceCaE8A9e22C02db] = true */\n  0x0100\n  exp\n  dup2\n  sload\n  dup2\n  0xff\n  mul\n  not\n  and\n  swap1\n  dup4\n  iszero\n  iszero\n  mul\n  or\n  swap1\n  sstore\n  pop\n    /* \"RPS.sol\":1055:1059  true */\n  0x01\n    /* \"RPS.sol\":990:1008  whitelistedPlayers */\n  0x0d\n    /* \"RPS.sol\":990:1052  whitelistedPlayers[0x78731D3Ca6b7E34aC0F824c42a7cC18A495cabaB] */\n  0x00\n    /* \"RPS.sol\":1009:1051  0x78731D3Ca6b7E34aC0F824c42a7cC18A495cabaB */\n  0x78731d3ca6b7e34ac0f824c42a7cc18a495cabab\n    /* \"RPS.sol\":990:1052  whitelistedPlayers[0x78731D3Ca6b7E34aC0F824c42a7cC18A495cabaB] */\n  0xffffffffffffffffffffffffffffffffffffffff\n  and\n  0xffffffffffffffffffffffffffffffffffffffff\n  and\n  dup2\n  mstore\n  0x20\n  add\n  swap1\n  dup2\n  mstore\n  0x20\n  add\n  0x00\n  keccak256\n  0x00\n    /* \"RPS.sol\":990:1059  whitelistedPlayers[0x78731D3Ca6b7E34aC0F824c42a7cC18A495cabaB] = true */\n  0x0100\n  exp\n  dup2\n  sload\n  dup2\n  0xff\n  mul\n  not\n  and\n  swap1\n  dup4\n  iszero\n  iszero\n  mul\n  or\n  swap1\n  sstore\n  pop\n    /* \"RPS.sol\":134:6138  contract RPS is CommitReveal, TimeUnit {... */\n  dataSize(sub_0)\n  dup1\n  dataOffset(sub_0)\n  0x00\n  codecopy\n  0x00\n  return\nstop\n\nsub_0: assembly {\n        /* \"RPS.sol\":134:6138  contract RPS is CommitReveal, TimeUnit {... */\n      mstore(0x40, 0x80)\n      jumpi(tag_1, lt(calldatasize, 0x04))\n      shr(0xe0, calldataload(0x00))\n      dup1\n      0x78e97925\n      gt\n      tag_25\n      jumpi\n      dup1\n      0xbc06b8cd\n      gt\n      tag_26\n      jumpi\n      dup1\n      0xbc06b8cd\n      eq\n      tag_19\n      jumpi\n      dup1\n      0xc876e615\n      eq\n      tag_20\n      jumpi\n      dup1\n      0xd891f969\n      eq\n      tag_21\n      jumpi\n      dup1\n      0xd97c8416\n      eq\n      tag_22\n      jumpi\n      dup1\n      0xf14fcbc8\n      eq\n      tag_23\n      jumpi\n      dup1\n      0xf71d96cb\n      eq\n      tag_24\n      jumpi\n      jump(tag_1)\n    tag_26:\n      dup1\n      0x78e97925\n      eq\n      tag_13\n      jumpi\n      dup1\n      0x7b43a8e6\n      eq\n      tag_14\n      jumpi\n      dup1\n      0x89f71d53\n      eq\n      tag_15\n      jumpi\n      dup1\n      0x90d5d0c3\n      eq\n      tag_16\n      jumpi\n      dup1\n      0xa040478d\n      eq\n      tag_17\n      jumpi\n      dup1\n      0xa63f7c53\n      eq\n      tag_18\n      jumpi\n      jump(tag_1)\n    tag_25:\n      dup1\n      0x3e2b58e0\n      gt\n      tag_27\n      jumpi\n      dup1\n      0x3e2b58e0\n      eq\n      tag_7\n      jumpi\n      dup1\n      0x43cdd438\n      eq\n      tag_8\n      jumpi\n      dup1\n      0x558d51c6\n      eq\n      tag_9\n      jumpi\n      dup1\n      0x65ce0ac6\n      eq\n      tag_10\n      jumpi\n      dup1\n      0x6ac5db19\n      eq\n      tag_11\n      jumpi\n      dup1\n      0x701fd0f1\n      eq\n      tag_12\n      jumpi\n      jump(tag_1)\n    tag_27:\n      dup1\n      0x086f7815\n      eq\n      tag_2\n      jumpi\n      dup1\n      0x190cf745\n      eq\n      tag_3\n      jumpi\n      dup1\n      0x228cb733\n      eq\n      tag_4\n      jumpi\n      dup1\n      0x27b5db8a\n      eq\n      tag_5\n      jumpi\n      dup1\n      0x3cf5040a\n      eq\n      tag_6\n      jumpi\n    tag_1:\n      0x00\n      dup1\n      revert\n        /* \"RPS.sol\":506:530  uint public numInput = 0 */\n    tag_2:\n      callvalue\n      dup1\n      iszero\n      tag_28\n      jumpi\n      0x00\n      dup1\n      revert\n    tag_28:\n      pop\n      tag_29\n      tag_30\n      jump\t// in\n    tag_29:\n      mload(0x40)\n      tag_31\n      swap2\n      swap1\n      tag_32\n      jump\t// in\n    tag_31:\n      mload(0x40)\n      dup1\n      swap2\n      sub\n      swap1\n      return\n        /* \"RPS.sol\":369:418  mapping(address => bool) public player_not_played */\n    tag_3:\n      callvalue\n      dup1\n      iszero\n      tag_33\n      jumpi\n      0x00\n      dup1\n      revert\n    tag_33:\n      pop\n      tag_34\n      0x04\n      dup1\n      calldatasize\n      sub\n      dup2\n      add\n      swap1\n      tag_35\n      swap2\n      swap1\n      tag_36\n      jump\t// in\n    tag_35:\n      tag_37\n      jump\t// in\n    tag_34:\n      mload(0x40)\n      tag_38\n      swap2\n      swap1\n      tag_39\n      jump\t// in\n    tag_38:\n      mload(0x40)\n      dup1\n      swap2\n      sub\n      swap1\n      return\n        /* \"RPS.sol\":212:234  uint public reward = 0 */\n    tag_4:\n      callvalue\n      dup1\n      iszero\n      tag_40\n      jumpi\n      0x00\n      dup1\n      revert\n    tag_40:\n      pop\n      tag_41\n      tag_42\n      jump\t// in\n    tag_41:\n      mload(0x40)\n      tag_43\n      swap2\n      swap1\n      tag_32\n      jump\t// in\n    tag_43:\n      mload(0x40)\n      dup1\n      swap2\n      sub\n      swap1\n      return\n        /* \"RPS.sol\":1075:1755  function addPlayer() public payable {... */\n    tag_5:\n      tag_44\n      tag_45\n      jump\t// in\n    tag_44:\n      stop\n        /* \"CommitReveal.sol\":1858:1970  function getHash(bytes32 data) public pure returns(bytes32){... */\n    tag_6:\n      callvalue\n      dup1\n      iszero\n      tag_46\n      jumpi\n      0x00\n      dup1\n      revert\n    tag_46:\n      pop\n      tag_47\n      0x04\n      dup1\n      calldatasize\n      sub\n      dup2\n      add\n      swap1\n      tag_48\n      swap2\n      swap1\n      tag_49\n      jump\t// in\n    tag_48:\n      tag_50\n      jump\t// in\n    tag_47:\n      mload(0x40)\n      tag_51\n      swap2\n      swap1\n      tag_52\n      jump\t// in\n    tag_51:\n      mload(0x40)\n      dup1\n      swap2\n      sub\n      swap1\n      return\n        /* \"RPS.sol\":569:609  uint public timeoutDeration = 10 seconds */\n    tag_7:\n      callvalue\n      dup1\n      iszero\n      tag_53\n      jumpi\n      0x00\n      dup1\n      revert\n    tag_53:\n      pop\n      tag_54\n      tag_55\n      jump\t// in\n    tag_54:\n      mload(0x40)\n      tag_56\n      swap2\n      swap1\n      tag_32\n      jump\t// in\n    tag_56:\n      mload(0x40)\n      dup1\n      swap2\n      sub\n      swap1\n      return\n        /* \"RPS.sol\":458:499  mapping (address => bool) public isCommit */\n    tag_8:\n      callvalue\n      dup1\n      iszero\n      tag_57\n      jumpi\n      0x00\n      dup1\n      revert\n    tag_57:\n      pop\n      tag_58\n      0x04\n      dup1\n      calldatasize\n      sub\n      dup2\n      add\n      swap1\n      tag_59\n      swap2\n      swap1\n      tag_36\n      jump\t// in\n    tag_59:\n      tag_60\n      jump\t// in\n    tag_58:\n      mload(0x40)\n      tag_61\n      swap2\n      swap1\n      tag_39\n      jump\t// in\n    tag_61:\n      mload(0x40)\n      dup1\n      swap2\n      sub\n      swap1\n      return\n        /* \"RPS.sol\":4446:6135  function timeOutWithDraw() public {... */\n    tag_9:\n      callvalue\n      dup1\n      iszero\n      tag_62\n      jumpi\n      0x00\n      dup1\n      revert\n    tag_62:\n      pop\n      tag_63\n      tag_64\n      jump\t// in\n    tag_63:\n      stop\n        /* \"RPS.sol\":2810:3592  function revealChoice(bytes32 hashChoice) public {... */\n    tag_10:\n      callvalue\n      dup1\n      iszero\n      tag_65\n      jumpi\n      0x00\n      dup1\n      revert\n    tag_65:\n      pop\n      tag_66\n      0x04\n      dup1\n      calldatasize\n      sub\n      dup2\n      add\n      swap1\n      tag_67\n      swap2\n      swap1\n      tag_49\n      jump\t// in\n    tag_67:\n      tag_68\n      jump\t// in\n    tag_66:\n      stop\n        /* \"CommitReveal.sol\":103:125  uint8 public max = 100 */\n    tag_11:\n      callvalue\n      dup1\n      iszero\n      tag_69\n      jumpi\n      0x00\n      dup1\n      revert\n    tag_69:\n      pop\n      tag_70\n      tag_71\n      jump\t// in\n    tag_70:\n      mload(0x40)\n      tag_72\n      swap2\n      swap1\n      tag_73\n      jump\t// in\n    tag_72:\n      mload(0x40)\n      dup1\n      swap2\n      sub\n      swap1\n      return\n        /* \"CommitReveal.sol\":618:1782  function reveal(bytes32 revealHash) public {... */\n    tag_12:\n      callvalue\n      dup1\n      iszero\n      tag_74\n      jumpi\n      0x00\n      dup1\n      revert\n    tag_74:\n      pop\n      tag_75\n      0x04\n      dup1\n      calldatasize\n      sub\n      dup2\n      add\n      swap1\n      tag_76\n      swap2\n      swap1\n      tag_49\n      jump\t// in\n    tag_76:\n      tag_77\n      jump\t// in\n    tag_75:\n      stop\n        /* \"TimeUnit.sol\":307:331  uint256 public startTime */\n    tag_13:\n      callvalue\n      dup1\n      iszero\n      tag_78\n      jumpi\n      0x00\n      dup1\n      revert\n    tag_78:\n      pop\n      tag_79\n      tag_80\n      jump\t// in\n    tag_79:\n      mload(0x40)\n      tag_81\n      swap2\n      swap1\n      tag_32\n      jump\t// in\n    tag_81:\n      mload(0x40)\n      dup1\n      swap2\n      sub\n      swap1\n      return\n        /* \"CommitReveal.sol\":218:260  mapping (address => Commit) public commits */\n    tag_14:\n      callvalue\n      dup1\n      iszero\n      tag_82\n      jumpi\n      0x00\n      dup1\n      revert\n    tag_82:\n      pop\n      tag_83\n      0x04\n      dup1\n      calldatasize\n      sub\n      dup2\n      add\n      swap1\n      tag_84\n      swap2\n      swap1\n      tag_36\n      jump\t// in\n    tag_84:\n      tag_85\n      jump\t// in\n    tag_83:\n      mload(0x40)\n      tag_86\n      swap4\n      swap3\n      swap2\n      swap1\n      tag_87\n      jump\t// in\n    tag_86:\n      mload(0x40)\n      dup1\n      swap2\n      sub\n      swap1\n      return\n        /* \"RPS.sol\":616:656  uint public lastAction = block.timestamp */\n    tag_15:\n      callvalue\n      dup1\n      iszero\n      tag_88\n      jumpi\n      0x00\n      dup1\n      revert\n    tag_88:\n      pop\n      tag_89\n      tag_90\n      jump\t// in\n    tag_89:\n      mload(0x40)\n      tag_91\n      swap2\n      swap1\n      tag_32\n      jump\t// in\n    tag_91:\n      mload(0x40)\n      dup1\n      swap2\n      sub\n      swap1\n      return\n        /* \"RPS.sol\":180:205  uint public numPlayer = 0 */\n    tag_16:\n      callvalue\n      dup1\n      iszero\n      tag_92\n      jumpi\n      0x00\n      dup1\n      revert\n    tag_92:\n      pop\n      tag_93\n      tag_94\n      jump\t// in\n    tag_93:\n      mload(0x40)\n      tag_95\n      swap2\n      swap1\n      tag_32\n      jump\t// in\n    tag_95:\n      mload(0x40)\n      dup1\n      swap2\n      sub\n      swap1\n      return\n        /* \"RPS.sol\":241:287  mapping (address => uint) public player_choice */\n    tag_17:\n      callvalue\n      dup1\n      iszero\n      tag_96\n      jumpi\n      0x00\n      dup1\n      revert\n    tag_96:\n      pop\n      tag_97\n      0x04\n      dup1\n      calldatasize\n      sub\n      dup2\n      add\n      swap1\n      tag_98\n      swap2\n      swap1\n      tag_36\n      jump\t// in\n    tag_98:\n      tag_99\n      jump\t// in\n    tag_97:\n      mload(0x40)\n      tag_100\n      swap2\n      swap1\n      tag_32\n      jump\t// in\n    tag_100:\n      mload(0x40)\n      dup1\n      swap2\n      sub\n      swap1\n      return\n        /* \"TimeUnit.sol\":379:452  function setStartTime() public { ... */\n    tag_18:\n      callvalue\n      dup1\n      iszero\n      tag_101\n      jumpi\n      0x00\n      dup1\n      revert\n    tag_101:\n      pop\n      tag_102\n      tag_103\n      jump\t// in\n    tag_102:\n      stop\n        /* \"TimeUnit.sol\":576:683  function elapsedSeconds() public view returns (uint256) { ... */\n    tag_19:\n      callvalue\n      dup1\n      iszero\n      tag_104\n      jumpi\n      0x00\n      dup1\n      revert\n    tag_104:\n      pop\n      tag_105\n      tag_106\n      jump\t// in\n    tag_105:\n      mload(0x40)\n      tag_107\n      swap2\n      swap1\n      tag_32\n      jump\t// in\n    tag_107:\n      mload(0x40)\n      dup1\n      swap2\n      sub\n      swap1\n      return\n        /* \"RPS.sol\":537:562  uint public numReveal = 0 */\n    tag_20:\n      callvalue\n      dup1\n      iszero\n      tag_108\n      jumpi\n      0x00\n      dup1\n      revert\n    tag_108:\n      pop\n      tag_109\n      tag_110\n      jump\t// in\n    tag_109:\n      mload(0x40)\n      tag_111\n      swap2\n      swap1\n      tag_32\n      jump\t// in\n    tag_111:\n      mload(0x40)\n      dup1\n      swap2\n      sub\n      swap1\n      return\n        /* \"RPS.sol\":2207:2738  function input(bytes32 hashAns) public  {... */\n    tag_21:\n      callvalue\n      dup1\n      iszero\n      tag_112\n      jumpi\n      0x00\n      dup1\n      revert\n    tag_112:\n      pop\n      tag_113\n      0x04\n      dup1\n      calldatasize\n      sub\n      dup2\n      add\n      swap1\n      tag_114\n      swap2\n      swap1\n      tag_49\n      jump\t// in\n    tag_114:\n      tag_115\n      jump\t// in\n    tag_113:\n      stop\n        /* \"TimeUnit.sol\":799:1082  function elapsedMinutes() public view returns (uint256) { ... */\n    tag_22:\n      callvalue\n      dup1\n      iszero\n      tag_116\n      jumpi\n      0x00\n      dup1\n      revert\n    tag_116:\n      pop\n      tag_117\n      tag_118\n      jump\t// in\n    tag_117:\n      mload(0x40)\n      tag_119\n      swap2\n      swap1\n      tag_32\n      jump\t// in\n    tag_119:\n      mload(0x40)\n      dup1\n      swap2\n      sub\n      swap1\n      return\n        /* \"CommitReveal.sol\":267:543  function commit(bytes32 dataHash) public {... */\n    tag_23:\n      callvalue\n      dup1\n      iszero\n      tag_120\n      jumpi\n      0x00\n      dup1\n      revert\n    tag_120:\n      pop\n      tag_121\n      0x04\n      dup1\n      calldatasize\n      sub\n      dup2\n      add\n      swap1\n      tag_122\n      swap2\n      swap1\n      tag_49\n      jump\t// in\n    tag_122:\n      tag_123\n      jump\t// in\n    tag_121:\n      stop\n        /* \"RPS.sol\":425:449  address[] public players */\n    tag_24:\n      callvalue\n      dup1\n      iszero\n      tag_124\n      jumpi\n      0x00\n      dup1\n      revert\n    tag_124:\n      pop\n      tag_125\n      0x04\n      dup1\n      calldatasize\n      sub\n      dup2\n      add\n      swap1\n      tag_126\n      swap2\n      swap1\n      tag_127\n      jump\t// in\n    tag_126:\n      tag_128\n      jump\t// in\n    tag_125:\n      mload(0x40)\n      tag_129\n      swap2\n      swap1\n      tag_130\n      jump\t// in\n    tag_129:\n      mload(0x40)\n      dup1\n      swap2\n      sub\n      swap1\n      return\n        /* \"RPS.sol\":506:530  uint public numInput = 0 */\n    tag_30:\n      sload(0x09)\n      dup2\n      jump\t// out\n        /* \"RPS.sol\":369:418  mapping(address => bool) public player_not_played */\n    tag_37:\n      mstore(0x20, 0x06)\n      dup1\n      0x00\n      mstore\n      keccak256(0x00, 0x40)\n      0x00\n      swap2\n      pop\n      sload\n      swap1\n      0x0100\n      exp\n      swap1\n      div\n      0xff\n      and\n      dup2\n      jump\t// out\n        /* \"RPS.sol\":212:234  uint public reward = 0 */\n    tag_42:\n      sload(0x04)\n      dup2\n      jump\t// out\n        /* \"RPS.sol\":1075:1755  function addPlayer() public payable {... */\n    tag_45:\n        /* \"RPS.sol\":1142:1143  2 */\n      0x02\n        /* \"RPS.sol\":1130:1139  numPlayer */\n      sload(0x03)\n        /* \"RPS.sol\":1130:1143  numPlayer < 2 */\n      lt\n        /* \"RPS.sol\":1122:1175  require(numPlayer < 2, \"Game already has 2 players.\") */\n      tag_132\n      jumpi\n      mload(0x40)\n      0x08c379a000000000000000000000000000000000000000000000000000000000\n      dup2\n      mstore\n      0x04\n      add\n      tag_133\n      swap1\n      tag_134\n      jump\t// in\n    tag_133:\n      mload(0x40)\n      dup1\n      swap2\n      sub\n      swap1\n      revert\n    tag_132:\n        /* \"RPS.sol\":1194:1212  whitelistedPlayers */\n      0x0d\n        /* \"RPS.sol\":1194:1224  whitelistedPlayers[msg.sender] */\n      0x00\n        /* \"RPS.sol\":1213:1223  msg.sender */\n      caller\n        /* \"RPS.sol\":1194:1224  whitelistedPlayers[msg.sender] */\n      0xffffffffffffffffffffffffffffffffffffffff\n      and\n      0xffffffffffffffffffffffffffffffffffffffff\n      and\n      dup2\n      mstore\n      0x20\n      add\n      swap1\n      dup2\n      mstore\n      0x20\n      add\n      0x00\n      keccak256\n      0x00\n      swap1\n      sload\n      swap1\n      0x0100\n      exp\n      swap1\n      div\n      0xff\n      and\n        /* \"RPS.sol\":1186:1257  require(whitelistedPlayers[msg.sender], \"You are not allowed to play.\") */\n      tag_135\n      jumpi\n      mload(0x40)\n      0x08c379a000000000000000000000000000000000000000000000000000000000\n      dup2\n      mstore\n      0x04\n      add\n      tag_136\n      swap1\n      tag_137\n      jump\t// in\n    tag_136:\n      mload(0x40)\n      dup1\n      swap2\n      sub\n      swap1\n      revert\n    tag_135:\n        /* \"RPS.sol\":1284:1285  0 */\n      0x00\n        /* \"RPS.sol\":1272:1281  numPlayer */\n      sload(0x03)\n        /* \"RPS.sol\":1272:1285  numPlayer > 0 */\n      gt\n        /* \"RPS.sol\":1268:1347  if (numPlayer > 0) {... */\n      iszero\n      tag_138\n      jumpi\n        /* \"RPS.sol\":1324:1331  players */\n      0x07\n        /* \"RPS.sol\":1332:1333  0 */\n      0x00\n        /* \"RPS.sol\":1324:1334  players[0] */\n      dup2\n      sload\n      dup2\n      lt\n      tag_139\n      jumpi\n      tag_140\n      tag_141\n      jump\t// in\n    tag_140:\n    tag_139:\n      swap1\n      0x00\n      mstore\n      keccak256(0x00, 0x20)\n      add\n      0x00\n      swap1\n      sload\n      swap1\n      0x0100\n      exp\n      swap1\n      div\n      0xffffffffffffffffffffffffffffffffffffffff\n      and\n        /* \"RPS.sol\":1310:1334  msg.sender != players[0] */\n      0xffffffffffffffffffffffffffffffffffffffff\n      and\n        /* \"RPS.sol\":1310:1320  msg.sender */\n      caller\n        /* \"RPS.sol\":1310:1334  msg.sender != players[0] */\n      0xffffffffffffffffffffffffffffffffffffffff\n      and\n      sub\n        /* \"RPS.sol\":1302:1335  require(msg.sender != players[0]) */\n      tag_143\n      jumpi\n      0x00\n      dup1\n      revert\n    tag_143:\n        /* \"RPS.sol\":1268:1347  if (numPlayer > 0) {... */\n    tag_138:\n        /* \"RPS.sol\":1378:1385  1 ether */\n      0x0de0b6b3a7640000\n        /* \"RPS.sol\":1365:1374  msg.value */\n      callvalue\n        /* \"RPS.sol\":1365:1385  msg.value == 1 ether */\n      eq\n        /* \"RPS.sol\":1357:1415  require(msg.value == 1 ether, \"Pay 1 ether to play game.\") */\n      tag_144\n      jumpi\n      mload(0x40)\n      0x08c379a000000000000000000000000000000000000000000000000000000000\n      dup2\n      mstore\n      0x04\n      add\n      tag_145\n      swap1\n      tag_146\n      jump\t// in\n    tag_145:\n      mload(0x40)\n      dup1\n      swap2\n      sub\n      swap1\n      revert\n    tag_144:\n        /* \"RPS.sol\":1436:1445  msg.value */\n      callvalue\n        /* \"RPS.sol\":1426:1432  reward */\n      0x04\n      0x00\n        /* \"RPS.sol\":1426:1445  reward += msg.value */\n      dup3\n      dup3\n      sload\n      tag_147\n      swap2\n      swap1\n      tag_148\n      jump\t// in\n    tag_147:\n      swap3\n      pop\n      pop\n      dup2\n      swap1\n      sstore\n      pop\n        /* \"RPS.sol\":1488:1492  true */\n      0x01\n        /* \"RPS.sol\":1456:1473  player_not_played */\n      0x06\n        /* \"RPS.sol\":1456:1485  player_not_played[msg.sender] */\n      0x00\n        /* \"RPS.sol\":1474:1484  msg.sender */\n      caller\n        /* \"RPS.sol\":1456:1485  player_not_played[msg.sender] */\n      0xffffffffffffffffffffffffffffffffffffffff\n      and\n      0xffffffffffffffffffffffffffffffffffffffff\n      and\n      dup2\n      mstore\n      0x20\n      add\n      swap1\n      dup2\n      mstore\n      0x20\n      add\n      0x00\n      keccak256\n      0x00\n        /* \"RPS.sol\":1456:1492  player_not_played[msg.sender] = true */\n      0x0100\n      exp\n      dup2\n      sload\n      dup2\n      0xff\n      mul\n      not\n      and\n      swap1\n      dup4\n      iszero\n      iszero\n      mul\n      or\n      swap1\n      sstore\n      pop\n        /* \"RPS.sol\":1503:1510  players */\n      0x07\n        /* \"RPS.sol\":1516:1526  msg.sender */\n      caller\n        /* \"RPS.sol\":1503:1527  players.push(msg.sender) */\n      swap1\n      dup1\n      0x01\n      dup2\n      sload\n      add\n      dup1\n      dup3\n      sstore\n      dup1\n      swap2\n      pop\n      pop\n      0x01\n      swap1\n      sub\n      swap1\n      0x00\n      mstore\n      keccak256(0x00, 0x20)\n      add\n      0x00\n      swap1\n      swap2\n      swap1\n      swap2\n      swap1\n      swap2\n      0x0100\n      exp\n      dup2\n      sload\n      dup2\n      0xffffffffffffffffffffffffffffffffffffffff\n      mul\n      not\n      and\n      swap1\n      dup4\n      0xffffffffffffffffffffffffffffffffffffffff\n      and\n      mul\n      or\n      swap1\n      sstore\n      pop\n        /* \"RPS.sol\":1566:1567  5 */\n      0x05\n        /* \"RPS.sol\":1538:1551  player_choice */\n      dup1\n        /* \"RPS.sol\":1538:1563  player_choice[msg.sender] */\n      0x00\n        /* \"RPS.sol\":1552:1562  msg.sender */\n      caller\n        /* \"RPS.sol\":1538:1563  player_choice[msg.sender] */\n      0xffffffffffffffffffffffffffffffffffffffff\n      and\n      0xffffffffffffffffffffffffffffffffffffffff\n      and\n      dup2\n      mstore\n      0x20\n      add\n      swap1\n      dup2\n      mstore\n      0x20\n      add\n      0x00\n      keccak256\n        /* \"RPS.sol\":1538:1567  player_choice[msg.sender] = 5 */\n      dup2\n      swap1\n      sstore\n      pop\n        /* \"RPS.sol\":1601:1606  false */\n      0x00\n        /* \"RPS.sol\":1578:1586  isCommit */\n      0x08\n        /* \"RPS.sol\":1578:1598  isCommit[msg.sender] */\n      0x00\n        /* \"RPS.sol\":1587:1597  msg.sender */\n      caller\n        /* \"RPS.sol\":1578:1598  isCommit[msg.sender] */\n      0xffffffffffffffffffffffffffffffffffffffff\n      and\n      0xffffffffffffffffffffffffffffffffffffffff\n      and\n      dup2\n      mstore\n      0x20\n      add\n      swap1\n      dup2\n      mstore\n      0x20\n      add\n      0x00\n      keccak256\n      0x00\n        /* \"RPS.sol\":1578:1606  isCommit[msg.sender] = false */\n      0x0100\n      exp\n      dup2\n      sload\n      dup2\n      0xff\n      mul\n      not\n      and\n      swap1\n      dup4\n      iszero\n      iszero\n      mul\n      or\n      swap1\n      sstore\n      pop\n        /* \"RPS.sol\":1617:1626  numPlayer */\n      0x03\n      0x00\n        /* \"RPS.sol\":1617:1628  numPlayer++ */\n      dup2\n      sload\n      dup1\n      swap3\n      swap2\n      swap1\n      tag_150\n      swap1\n      tag_151\n      jump\t// in\n    tag_150:\n      swap2\n      swap1\n      pop\n      sstore\n      pop\n        /* \"RPS.sol\":1644:1678  playerAdded(msg.sender, numPlayer) */\n      0x313f9ebdca9d25ee9456dd69022e3324975c8261b7a8b134881905d3b6964d3c\n        /* \"RPS.sol\":1656:1666  msg.sender */\n      caller\n        /* \"RPS.sol\":1668:1677  numPlayer */\n      sload(0x03)\n        /* \"RPS.sol\":1644:1678  playerAdded(msg.sender, numPlayer) */\n      mload(0x40)\n      tag_152\n      swap3\n      swap2\n      swap1\n      tag_153\n      jump\t// in\n    tag_152:\n      mload(0x40)\n      dup1\n      swap2\n      sub\n      swap1\n      log1\n        /* \"RPS.sol\":1733:1747  setStartTime() */\n      tag_154\n        /* \"RPS.sol\":1733:1745  setStartTime */\n      tag_103\n        /* \"RPS.sol\":1733:1747  setStartTime() */\n      jump\t// in\n    tag_154:\n        /* \"RPS.sol\":1075:1755  function addPlayer() public payable {... */\n      jump\t// out\n        /* \"CommitReveal.sol\":1858:1970  function getHash(bytes32 data) public pure returns(bytes32){... */\n    tag_50:\n        /* \"CommitReveal.sol\":1909:1916  bytes32 */\n      0x00\n        /* \"CommitReveal.sol\":1958:1962  data */\n      dup2\n        /* \"CommitReveal.sol\":1941:1963  abi.encodePacked(data) */\n      add(0x20, mload(0x40))\n      tag_156\n      swap2\n      swap1\n      tag_157\n      jump\t// in\n    tag_156:\n      mload(0x40)\n      0x20\n      dup2\n      dup4\n      sub\n      sub\n      dup2\n      mstore\n      swap1\n      0x40\n      mstore\n        /* \"CommitReveal.sol\":1931:1964  keccak256(abi.encodePacked(data)) */\n      dup1\n      mload\n      swap1\n      0x20\n      add\n      keccak256\n        /* \"CommitReveal.sol\":1924:1964  return keccak256(abi.encodePacked(data)) */\n      swap1\n      pop\n        /* \"CommitReveal.sol\":1858:1970  function getHash(bytes32 data) public pure returns(bytes32){... */\n      swap2\n      swap1\n      pop\n      jump\t// out\n        /* \"RPS.sol\":569:609  uint public timeoutDeration = 10 seconds */\n    tag_55:\n      sload(0x0b)\n      dup2\n      jump\t// out\n        /* \"RPS.sol\":458:499  mapping (address => bool) public isCommit */\n    tag_60:\n      mstore(0x20, 0x08)\n      dup1\n      0x00\n      mstore\n      keccak256(0x00, 0x40)\n      0x00\n      swap2\n      pop\n      sload\n      swap1\n      0x0100\n      exp\n      swap1\n      div\n      0xff\n      and\n      dup2\n      jump\t// out\n        /* \"RPS.sol\":4446:6135  function timeOutWithDraw() public {... */\n    tag_64:\n        /* \"RPS.sol\":4512:4513  1 */\n      0x01\n        /* \"RPS.sol\":4499:4508  numPlayer */\n      sload(0x03)\n        /* \"RPS.sol\":4499:4513  numPlayer >= 1 */\n      lt\n      iszero\n        /* \"RPS.sol\":4491:4514  require(numPlayer >= 1) */\n      tag_159\n      jumpi\n      0x00\n      dup1\n      revert\n    tag_159:\n        /* \"RPS.sol\":4621:4636  timeoutDeration */\n      sload(0x0b)\n        /* \"RPS.sol\":4602:4618  elapsedSeconds() */\n      tag_160\n        /* \"RPS.sol\":4602:4616  elapsedSeconds */\n      tag_106\n        /* \"RPS.sol\":4602:4618  elapsedSeconds() */\n      jump\t// in\n    tag_160:\n        /* \"RPS.sol\":4602:4636  elapsedSeconds() > timeoutDeration */\n      gt\n        /* \"RPS.sol\":4594:4680  require(elapsedSeconds() > timeoutDeration, \"You need to wait 1 minute for withdraw.\") */\n      tag_161\n      jumpi\n      mload(0x40)\n      0x08c379a000000000000000000000000000000000000000000000000000000000\n      dup2\n      mstore\n      0x04\n      add\n      tag_162\n      swap1\n      tag_163\n      jump\t// in\n    tag_162:\n      mload(0x40)\n      dup1\n      swap2\n      sub\n      swap1\n      revert\n    tag_161:\n        /* \"RPS.sol\":4724:4730  reward */\n      sload(0x04)\n        /* \"RPS.sol\":4699:4720  address(this).balance */\n      selfbalance\n        /* \"RPS.sol\":4699:4730  address(this).balance >= reward */\n      lt\n      iszero\n        /* \"RPS.sol\":4691:4769  require(address(this).balance >= reward, \"Contract has insufficient balance.\") */\n      tag_164\n      jumpi\n      mload(0x40)\n      0x08c379a000000000000000000000000000000000000000000000000000000000\n      dup2\n      mstore\n      0x04\n      add\n      tag_165\n      swap1\n      tag_166\n      jump\t// in\n    tag_165:\n      mload(0x40)\n      dup1\n      swap2\n      sub\n      swap1\n      revert\n    tag_164:\n        /* \"RPS.sol\":4780:4804  address payable account0 */\n      0x00\n        /* \"RPS.sol\":4815:4822  players */\n      0x07\n        /* \"RPS.sol\":4823:4824  0 */\n      0x00\n        /* \"RPS.sol\":4815:4825  players[0] */\n      dup2\n      sload\n      dup2\n      lt\n      tag_167\n      jumpi\n      tag_168\n      tag_141\n      jump\t// in\n    tag_168:\n    tag_167:\n      swap1\n      0x00\n      mstore\n      keccak256(0x00, 0x20)\n      add\n      0x00\n      swap1\n      sload\n      swap1\n      0x0100\n      exp\n      swap1\n      div\n      0xffffffffffffffffffffffffffffffffffffffff\n      and\n        /* \"RPS.sol\":4780:4826  address payable account0 = payable(players[0]) */\n      swap1\n      pop\n        /* \"RPS.sol\":4882:4883  1 */\n      0x01\n        /* \"RPS.sol\":4869:4878  numPlayer */\n      sload(0x03)\n        /* \"RPS.sol\":4869:4883  numPlayer == 1 */\n      sub\n        /* \"RPS.sol\":4865:6126  if (numPlayer == 1) {... */\n      tag_170\n      jumpi\n        /* \"RPS.sol\":4900:4908  account0 */\n      dup1\n        /* \"RPS.sol\":4900:4917  account0.transfer */\n      0xffffffffffffffffffffffffffffffffffffffff\n      and\n        /* \"RPS.sol\":4900:4925  account0.transfer(reward) */\n      0x08fc\n        /* \"RPS.sol\":4918:4924  reward */\n      sload(0x04)\n        /* \"RPS.sol\":4900:4925  account0.transfer(reward) */\n      swap1\n      dup2\n      iszero\n      mul\n      swap1\n      mload(0x40)\n      0x00\n      mload(0x40)\n      dup1\n      dup4\n      sub\n      dup2\n      dup6\n      dup9\n      dup9\n      call\n      swap4\n      pop\n      pop\n      pop\n      pop\n      iszero\n      dup1\n      iszero\n      tag_172\n      jumpi\n      returndatasize\n      0x00\n      dup1\n      returndatacopy\n      revert(0x00, returndatasize)\n    tag_172:\n      pop\n        /* \"RPS.sol\":4940:4948  _reset() */\n      tag_173\n        /* \"RPS.sol\":4940:4946  _reset */\n      tag_174\n        /* \"RPS.sol\":4940:4948  _reset() */\n      jump\t// in\n    tag_173:\n        /* \"RPS.sol\":4865:6126  if (numPlayer == 1) {... */\n      jump(tag_175)\n    tag_170:\n        /* \"RPS.sol\":4992:4993  2 */\n      0x02\n        /* \"RPS.sol\":4979:4988  numPlayer */\n      sload(0x03)\n        /* \"RPS.sol\":4979:4993  numPlayer == 2 */\n      sub\n        /* \"RPS.sol\":4975:6126  if (numPlayer == 2) {... */\n      tag_176\n      jumpi\n        /* \"RPS.sol\":5010:5034  address payable account1 */\n      0x00\n        /* \"RPS.sol\":5045:5052  players */\n      0x07\n        /* \"RPS.sol\":5053:5054  1 */\n      0x01\n        /* \"RPS.sol\":5045:5055  players[1] */\n      dup2\n      sload\n      dup2\n      lt\n      tag_177\n      jumpi\n      tag_178\n      tag_141\n      jump\t// in\n    tag_178:\n    tag_177:\n      swap1\n      0x00\n      mstore\n      keccak256(0x00, 0x20)\n      add\n      0x00\n      swap1\n      sload\n      swap1\n      0x0100\n      exp\n      swap1\n      div\n      0xffffffffffffffffffffffffffffffffffffffff\n      and\n        /* \"RPS.sol\":5010:5056  address payable account1 = payable(players[1]) */\n      swap1\n      pop\n        /* \"RPS.sol\":5150:5151  0 */\n      0x00\n        /* \"RPS.sol\":5138:5146  numInput */\n      sload(0x09)\n        /* \"RPS.sol\":5138:5151  numInput == 0 */\n      eq\n        /* \"RPS.sol\":5138:5188  numInput == 0 || (numInput == 2 && numReveal == 0) */\n      dup1\n      tag_180\n      jumpi\n      pop\n        /* \"RPS.sol\":5168:5169  2 */\n      0x02\n        /* \"RPS.sol\":5156:5164  numInput */\n      sload(0x09)\n        /* \"RPS.sol\":5156:5169  numInput == 2 */\n      eq\n        /* \"RPS.sol\":5156:5187  numInput == 2 && numReveal == 0 */\n      dup1\n      iszero\n      tag_181\n      jumpi\n      pop\n        /* \"RPS.sol\":5186:5187  0 */\n      0x00\n        /* \"RPS.sol\":5173:5182  numReveal */\n      sload(0x0a)\n        /* \"RPS.sol\":5173:5187  numReveal == 0 */\n      eq\n        /* \"RPS.sol\":5156:5187  numInput == 2 && numReveal == 0 */\n    tag_181:\n        /* \"RPS.sol\":5138:5188  numInput == 0 || (numInput == 2 && numReveal == 0) */\n    tag_180:\n        /* \"RPS.sol\":5134:6115  if (numInput == 0 || (numInput == 2 && numReveal == 0)) {... */\n      iszero\n      tag_182\n      jumpi\n        /* \"RPS.sol\":5209:5217  account0 */\n      dup2\n        /* \"RPS.sol\":5209:5226  account0.transfer */\n      0xffffffffffffffffffffffffffffffffffffffff\n      and\n        /* \"RPS.sol\":5209:5238  account0.transfer(reward / 2) */\n      0x08fc\n        /* \"RPS.sol\":5236:5237  2 */\n      0x02\n        /* \"RPS.sol\":5227:5233  reward */\n      sload(0x04)\n        /* \"RPS.sol\":5227:5237  reward / 2 */\n      tag_183\n      swap2\n      swap1\n      tag_184\n      jump\t// in\n    tag_183:\n        /* \"RPS.sol\":5209:5238  account0.transfer(reward / 2) */\n      swap1\n      dup2\n      iszero\n      mul\n      swap1\n      mload(0x40)\n      0x00\n      mload(0x40)\n      dup1\n      dup4\n      sub\n      dup2\n      dup6\n      dup9\n      dup9\n      call\n      swap4\n      pop\n      pop\n      pop\n      pop\n      iszero\n      dup1\n      iszero\n      tag_186\n      jumpi\n      returndatasize\n      0x00\n      dup1\n      returndatacopy\n      revert(0x00, returndatasize)\n    tag_186:\n      pop\n        /* \"RPS.sol\":5257:5265  account1 */\n      dup1\n        /* \"RPS.sol\":5257:5274  account1.transfer */\n      0xffffffffffffffffffffffffffffffffffffffff\n      and\n        /* \"RPS.sol\":5257:5286  account1.transfer(reward / 2) */\n      0x08fc\n        /* \"RPS.sol\":5284:5285  2 */\n      0x02\n        /* \"RPS.sol\":5275:5281  reward */\n      sload(0x04)\n        /* \"RPS.sol\":5275:5285  reward / 2 */\n      tag_187\n      swap2\n      swap1\n      tag_184\n      jump\t// in\n    tag_187:\n        /* \"RPS.sol\":5257:5286  account1.transfer(reward / 2) */\n      swap1\n      dup2\n      iszero\n      mul\n      swap1\n      mload(0x40)\n      0x00\n      mload(0x40)\n      dup1\n      dup4\n      sub\n      dup2\n      dup6\n      dup9\n      dup9\n      call\n      swap4\n      pop\n      pop\n      pop\n      pop\n      iszero\n      dup1\n      iszero\n      tag_189\n      jumpi\n      returndatasize\n      0x00\n      dup1\n      returndatacopy\n      revert(0x00, returndatasize)\n    tag_189:\n      pop\n        /* \"RPS.sol\":5305:5313  _reset() */\n      tag_190\n        /* \"RPS.sol\":5305:5311  _reset */\n      tag_174\n        /* \"RPS.sol\":5305:5313  _reset() */\n      jump\t// in\n    tag_190:\n        /* \"RPS.sol\":5134:6115  if (numInput == 0 || (numInput == 2 && numReveal == 0)) {... */\n      jump(tag_191)\n    tag_182:\n        /* \"RPS.sol\":5408:5409  1 */\n      0x01\n        /* \"RPS.sol\":5396:5404  numInput */\n      sload(0x09)\n        /* \"RPS.sol\":5396:5409  numInput == 1 */\n      sub\n        /* \"RPS.sol\":5392:6115  if (numInput == 1) {... */\n      tag_192\n      jumpi\n        /* \"RPS.sol\":5504:5508  true */\n      0x01\n        /* \"RPS.sol\":5482:5508  isCommit[account0] == true */\n      iszero\n      iszero\n        /* \"RPS.sol\":5482:5490  isCommit */\n      0x08\n        /* \"RPS.sol\":5482:5500  isCommit[account0] */\n      0x00\n        /* \"RPS.sol\":5491:5499  account0 */\n      dup5\n        /* \"RPS.sol\":5482:5500  isCommit[account0] */\n      0xffffffffffffffffffffffffffffffffffffffff\n      and\n      0xffffffffffffffffffffffffffffffffffffffff\n      and\n      dup2\n      mstore\n      0x20\n      add\n      swap1\n      dup2\n      mstore\n      0x20\n      add\n      0x00\n      keccak256\n      0x00\n      swap1\n      sload\n      swap1\n      0x0100\n      exp\n      swap1\n      div\n      0xff\n      and\n        /* \"RPS.sol\":5482:5508  isCommit[account0] == true */\n      iszero\n      iszero\n      sub\n        /* \"RPS.sol\":5478:5669  if (isCommit[account0] == true) {... */\n      tag_193\n      jumpi\n        /* \"RPS.sol\":5533:5541  account0 */\n      dup2\n        /* \"RPS.sol\":5533:5550  account0.transfer */\n      0xffffffffffffffffffffffffffffffffffffffff\n      and\n        /* \"RPS.sol\":5533:5558  account0.transfer(reward) */\n      0x08fc\n        /* \"RPS.sol\":5551:5557  reward */\n      sload(0x04)\n        /* \"RPS.sol\":5533:5558  account0.transfer(reward) */\n      swap1\n      dup2\n      iszero\n      mul\n      swap1\n      mload(0x40)\n      0x00\n      mload(0x40)\n      dup1\n      dup4\n      sub\n      dup2\n      dup6\n      dup9\n      dup9\n      call\n      swap4\n      pop\n      pop\n      pop\n      pop\n      iszero\n      dup1\n      iszero\n      tag_195\n      jumpi\n      returndatasize\n      0x00\n      dup1\n      returndatacopy\n      revert(0x00, returndatasize)\n    tag_195:\n      pop\n        /* \"RPS.sol\":5478:5669  if (isCommit[account0] == true) {... */\n      jump(tag_196)\n    tag_193:\n        /* \"RPS.sol\":5624:5632  account1 */\n      dup1\n        /* \"RPS.sol\":5624:5641  account1.transfer */\n      0xffffffffffffffffffffffffffffffffffffffff\n      and\n        /* \"RPS.sol\":5624:5649  account1.transfer(reward) */\n      0x08fc\n        /* \"RPS.sol\":5642:5648  reward */\n      sload(0x04)\n        /* \"RPS.sol\":5624:5649  account1.transfer(reward) */\n      swap1\n      dup2\n      iszero\n      mul\n      swap1\n      mload(0x40)\n      0x00\n      mload(0x40)\n      dup1\n      dup4\n      sub\n      dup2\n      dup6\n      dup9\n      dup9\n      call\n      swap4\n      pop\n      pop\n      pop\n      pop\n      iszero\n      dup1\n      iszero\n      tag_198\n      jumpi\n      returndatasize\n      0x00\n      dup1\n      returndatacopy\n      revert(0x00, returndatasize)\n    tag_198:\n      pop\n        /* \"RPS.sol\":5478:5669  if (isCommit[account0] == true) {... */\n    tag_196:\n        /* \"RPS.sol\":5687:5695  _reset() */\n      tag_199\n        /* \"RPS.sol\":5687:5693  _reset */\n      tag_174\n        /* \"RPS.sol\":5687:5695  _reset() */\n      jump\t// in\n    tag_199:\n        /* \"RPS.sol\":5392:6115  if (numInput == 1) {... */\n      jump(tag_200)\n    tag_192:\n        /* \"RPS.sol\":5791:5792  2 */\n      0x02\n        /* \"RPS.sol\":5779:5787  numInput */\n      sload(0x09)\n        /* \"RPS.sol\":5779:5792  numInput == 2 */\n      eq\n        /* \"RPS.sol\":5779:5810  numInput == 2 && numReveal == 1 */\n      dup1\n      iszero\n      tag_201\n      jumpi\n      pop\n        /* \"RPS.sol\":5809:5810  1 */\n      0x01\n        /* \"RPS.sol\":5796:5805  numReveal */\n      sload(0x0a)\n        /* \"RPS.sol\":5796:5810  numReveal == 1 */\n      eq\n        /* \"RPS.sol\":5779:5810  numInput == 2 && numReveal == 1 */\n    tag_201:\n        /* \"RPS.sol\":5775:6115  if (numInput == 2 && numReveal == 1) {... */\n      iszero\n      tag_202\n      jumpi\n        /* \"RPS.sol\":5911:5912  5 */\n      0x05\n        /* \"RPS.sol\":5884:5897  player_choice */\n      dup1\n        /* \"RPS.sol\":5884:5907  player_choice[account0] */\n      0x00\n        /* \"RPS.sol\":5898:5906  account0 */\n      dup5\n        /* \"RPS.sol\":5884:5907  player_choice[account0] */\n      0xffffffffffffffffffffffffffffffffffffffff\n      and\n      0xffffffffffffffffffffffffffffffffffffffff\n      and\n      dup2\n      mstore\n      0x20\n      add\n      swap1\n      dup2\n      mstore\n      0x20\n      add\n      0x00\n      keccak256\n      sload\n        /* \"RPS.sol\":5884:5912  player_choice[account0] != 5 */\n      eq\n        /* \"RPS.sol\":5880:6073  if (player_choice[account0] != 5) {... */\n      tag_203\n      jumpi\n        /* \"RPS.sol\":5937:5945  account0 */\n      dup2\n        /* \"RPS.sol\":5937:5954  account0.transfer */\n      0xffffffffffffffffffffffffffffffffffffffff\n      and\n        /* \"RPS.sol\":5937:5962  account0.transfer(reward) */\n      0x08fc\n        /* \"RPS.sol\":5955:5961  reward */\n      sload(0x04)\n        /* \"RPS.sol\":5937:5962  account0.transfer(reward) */\n      swap1\n      dup2\n      iszero\n      mul\n      swap1\n      mload(0x40)\n      0x00\n      mload(0x40)\n      dup1\n      dup4\n      sub\n      dup2\n      dup6\n      dup9\n      dup9\n      call\n      swap4\n      pop\n      pop\n      pop\n      pop\n      iszero\n      dup1\n      iszero\n      tag_205\n      jumpi\n      returndatasize\n      0x00\n      dup1\n      returndatacopy\n      revert(0x00, returndatasize)\n    tag_205:\n      pop\n        /* \"RPS.sol\":5880:6073  if (player_choice[account0] != 5) {... */\n      jump(tag_206)\n    tag_203:\n        /* \"RPS.sol\":6028:6036  account1 */\n      dup1\n        /* \"RPS.sol\":6028:6045  account1.transfer */\n      0xffffffffffffffffffffffffffffffffffffffff\n      and\n        /* \"RPS.sol\":6028:6053  account1.transfer(reward) */\n      0x08fc\n        /* \"RPS.sol\":6046:6052  reward */\n      sload(0x04)\n        /* \"RPS.sol\":6028:6053  account1.transfer(reward) */\n      swap1\n      dup2\n      iszero\n      mul\n      swap1\n      mload(0x40)\n      0x00\n      mload(0x40)\n      dup1\n      dup4\n      sub\n      dup2\n      dup6\n      dup9\n      dup9\n      call\n      swap4\n      pop\n      pop\n      pop\n      pop\n      iszero\n      dup1\n      iszero\n      tag_208\n      jumpi\n      returndatasize\n      0x00\n      dup1\n      returndatacopy\n      revert(0x00, returndatasize)\n    tag_208:\n      pop\n        /* \"RPS.sol\":5880:6073  if (player_choice[account0] != 5) {... */\n    tag_206:\n        /* \"RPS.sol\":6091:6099  _reset() */\n      tag_209\n        /* \"RPS.sol\":6091:6097  _reset */\n      tag_174\n        /* \"RPS.sol\":6091:6099  _reset() */\n      jump\t// in\n    tag_209:\n        /* \"RPS.sol\":5775:6115  if (numInput == 2 && numReveal == 1) {... */\n    tag_202:\n        /* \"RPS.sol\":5392:6115  if (numInput == 1) {... */\n    tag_200:\n        /* \"RPS.sol\":5134:6115  if (numInput == 0 || (numInput == 2 && numReveal == 0)) {... */\n    tag_191:\n        /* \"RPS.sol\":4995:6126  {... */\n      pop\n        /* \"RPS.sol\":4975:6126  if (numPlayer == 2) {... */\n    tag_176:\n        /* \"RPS.sol\":4865:6126  if (numPlayer == 1) {... */\n    tag_175:\n        /* \"RPS.sol\":4480:6135  {... */\n      pop\n        /* \"RPS.sol\":4446:6135  function timeOutWithDraw() public {... */\n      jump\t// out\n        /* \"RPS.sol\":2810:3592  function revealChoice(bytes32 hashChoice) public {... */\n    tag_68:\n        /* \"RPS.sol\":2891:2892  2 */\n      0x02\n        /* \"RPS.sol\":2878:2887  numPlayer */\n      sload(0x03)\n        /* \"RPS.sol\":2878:2892  numPlayer == 2 */\n      eq\n        /* \"RPS.sol\":2870:2893  require(numPlayer == 2) */\n      tag_211\n      jumpi\n      0x00\n      dup1\n      revert\n    tag_211:\n        /* \"RPS.sol\":2924:2925  2 */\n      0x02\n        /* \"RPS.sol\":2912:2920  numInput */\n      sload(0x09)\n        /* \"RPS.sol\":2912:2925  numInput == 2 */\n      eq\n        /* \"RPS.sol\":2904:2926  require(numInput == 2) */\n      tag_212\n      jumpi\n      0x00\n      dup1\n      revert\n    tag_212:\n        /* \"RPS.sol\":2939:2950  uint choice */\n      0x00\n        /* \"RPS.sol\":2959:2969  hashChoice */\n      dup2\n        /* \"RPS.sol\":2970:2972  31 */\n      0x1f\n        /* \"RPS.sol\":2959:2973  hashChoice[31] */\n      0x20\n      dup2\n      lt\n      tag_213\n      jumpi\n      tag_214\n      tag_141\n      jump\t// in\n    tag_214:\n    tag_213:\n      byte\n      0xf8\n      shl\n        /* \"RPS.sol\":2953:2974  uint8(hashChoice[31]) */\n      0xf8\n      shr\n        /* \"RPS.sol\":2939:2974  uint choice = uint8(hashChoice[31]) */\n      0xff\n      and\n      swap1\n      pop\n        /* \"RPS.sol\":3003:3004  0 */\n      0x00\n        /* \"RPS.sol\":2993:2999  choice */\n      dup2\n        /* \"RPS.sol\":2993:3004  choice >= 0 */\n      lt\n      iszero\n        /* \"RPS.sol\":2993:3019  choice >= 0 && choice <= 4 */\n      dup1\n      iszero\n      tag_215\n      jumpi\n      pop\n        /* \"RPS.sol\":3018:3019  4 */\n      0x04\n        /* \"RPS.sol\":3008:3014  choice */\n      dup2\n        /* \"RPS.sol\":3008:3019  choice <= 4 */\n      gt\n      iszero\n        /* \"RPS.sol\":2993:3019  choice >= 0 && choice <= 4 */\n    tag_215:\n        /* \"RPS.sol\":2985:3062  require(choice >= 0 && choice <= 4, \"Your choice needs to be between 0 to 4\") */\n      tag_216\n      jumpi\n      mload(0x40)\n      0x08c379a000000000000000000000000000000000000000000000000000000000\n      dup2\n      mstore\n      0x04\n      add\n      tag_217\n      swap1\n      tag_218\n      jump\t// in\n    tag_217:\n      mload(0x40)\n      dup1\n      swap2\n      sub\n      swap1\n      revert\n    tag_216:\n        /* \"RPS.sol\":3081:3089  isCommit */\n      0x08\n        /* \"RPS.sol\":3081:3101  isCommit[msg.sender] */\n      0x00\n        /* \"RPS.sol\":3090:3100  msg.sender */\n      caller\n        /* \"RPS.sol\":3081:3101  isCommit[msg.sender] */\n      0xffffffffffffffffffffffffffffffffffffffff\n      and\n      0xffffffffffffffffffffffffffffffffffffffff\n      and\n      dup2\n      mstore\n      0x20\n      add\n      swap1\n      dup2\n      mstore\n      0x20\n      add\n      0x00\n      keccak256\n      0x00\n      swap1\n      sload\n      swap1\n      0x0100\n      exp\n      swap1\n      div\n      0xff\n      and\n        /* \"RPS.sol\":3073:3131  require(isCommit[msg.sender], \"You need to commit first.\") */\n      tag_219\n      jumpi\n      mload(0x40)\n      0x08c379a000000000000000000000000000000000000000000000000000000000\n      dup2\n      mstore\n      0x04\n      add\n      tag_220\n      swap1\n      tag_221\n      jump\t// in\n    tag_220:\n      mload(0x40)\n      dup1\n      swap2\n      sub\n      swap1\n      revert\n    tag_219:\n        /* \"RPS.sol\":3326:3344  reveal(hashChoice) */\n      tag_222\n        /* \"RPS.sol\":3333:3343  hashChoice */\n      dup3\n        /* \"RPS.sol\":3326:3332  reveal */\n      tag_77\n        /* \"RPS.sol\":3326:3344  reveal(hashChoice) */\n      jump\t// in\n    tag_222:\n        /* \"RPS.sol\":3385:3391  choice */\n      dup1\n        /* \"RPS.sol\":3357:3370  player_choice */\n      0x05\n        /* \"RPS.sol\":3357:3382  player_choice[msg.sender] */\n      0x00\n        /* \"RPS.sol\":3371:3381  msg.sender */\n      caller\n        /* \"RPS.sol\":3357:3382  player_choice[msg.sender] */\n      0xffffffffffffffffffffffffffffffffffffffff\n      and\n      0xffffffffffffffffffffffffffffffffffffffff\n      and\n      dup2\n      mstore\n      0x20\n      add\n      swap1\n      dup2\n      mstore\n      0x20\n      add\n      0x00\n      keccak256\n        /* \"RPS.sol\":3357:3391  player_choice[msg.sender] = choice */\n      dup2\n      swap1\n      sstore\n      pop\n        /* \"RPS.sol\":3404:3413  numReveal */\n      0x0a\n      0x00\n        /* \"RPS.sol\":3404:3415  numReveal++ */\n      dup2\n      sload\n      dup1\n      swap3\n      swap2\n      swap1\n      tag_223\n      swap1\n      tag_151\n      jump\t// in\n    tag_223:\n      swap2\n      swap1\n      pop\n      sstore\n      pop\n        /* \"RPS.sol\":3470:3484  setStartTime() */\n      tag_224\n        /* \"RPS.sol\":3470:3482  setStartTime */\n      tag_103\n        /* \"RPS.sol\":3470:3484  setStartTime() */\n      jump\t// in\n    tag_224:\n        /* \"RPS.sol\":3513:3514  2 */\n      0x02\n        /* \"RPS.sol\":3500:3509  numReveal */\n      sload(0x0a)\n        /* \"RPS.sol\":3500:3514  numReveal == 2 */\n      sub\n        /* \"RPS.sol\":3497:3585  if(numReveal == 2){... */\n      tag_225\n      jumpi\n        /* \"RPS.sol\":3530:3550  _checkWinnerAndPay() */\n      tag_226\n        /* \"RPS.sol\":3530:3548  _checkWinnerAndPay */\n      tag_227\n        /* \"RPS.sol\":3530:3550  _checkWinnerAndPay() */\n      jump\t// in\n    tag_226:\n        /* \"RPS.sol\":3565:3573  _reset() */\n      tag_228\n        /* \"RPS.sol\":3565:3571  _reset */\n      tag_174\n        /* \"RPS.sol\":3565:3573  _reset() */\n      jump\t// in\n    tag_228:\n        /* \"RPS.sol\":3497:3585  if(numReveal == 2){... */\n    tag_225:\n        /* \"RPS.sol\":2859:3592  {... */\n      pop\n        /* \"RPS.sol\":2810:3592  function revealChoice(bytes32 hashChoice) public {... */\n      pop\n      jump\t// out\n        /* \"CommitReveal.sol\":103:125  uint8 public max = 100 */\n    tag_71:\n      0x00\n      dup1\n      sload\n      swap1\n      0x0100\n      exp\n      swap1\n      div\n      0xff\n      and\n      dup2\n      jump\t// out\n        /* \"CommitReveal.sol\":618:1782  function reveal(bytes32 revealHash) public {... */\n    tag_77:\n        /* \"CommitReveal.sol\":774:779  false */\n      0x00\n        /* \"CommitReveal.sol\":744:779  commits[msg.sender].revealed==false */\n      iszero\n      iszero\n        /* \"CommitReveal.sol\":744:751  commits */\n      0x01\n        /* \"CommitReveal.sol\":744:763  commits[msg.sender] */\n      0x00\n        /* \"CommitReveal.sol\":752:762  msg.sender */\n      caller\n        /* \"CommitReveal.sol\":744:763  commits[msg.sender] */\n      0xffffffffffffffffffffffffffffffffffffffff\n      and\n      0xffffffffffffffffffffffffffffffffffffffff\n      and\n      dup2\n      mstore\n      0x20\n      add\n      swap1\n      dup2\n      mstore\n      0x20\n      add\n      0x00\n      keccak256\n        /* \"CommitReveal.sol\":744:772  commits[msg.sender].revealed */\n      0x01\n      add\n      0x08\n      swap1\n      sload\n      swap1\n      0x0100\n      exp\n      swap1\n      div\n      0xff\n      and\n        /* \"CommitReveal.sol\":744:779  commits[msg.sender].revealed==false */\n      iszero\n      iszero\n      eq\n        /* \"CommitReveal.sol\":736:821  require(commits[msg.sender].revealed==false,\"CommitReveal::reveal: Already revealed\") */\n      tag_230\n      jumpi\n      mload(0x40)\n      0x08c379a000000000000000000000000000000000000000000000000000000000\n      dup2\n      mstore\n      0x04\n      add\n      tag_231\n      swap1\n      tag_232\n      jump\t// in\n    tag_231:\n      mload(0x40)\n      dup1\n      swap2\n      sub\n      swap1\n      revert\n    tag_230:\n        /* \"CommitReveal.sol\":857:861  true */\n      0x01\n        /* \"CommitReveal.sol\":828:835  commits */\n      dup1\n        /* \"CommitReveal.sol\":828:847  commits[msg.sender] */\n      0x00\n        /* \"CommitReveal.sol\":836:846  msg.sender */\n      caller\n        /* \"CommitReveal.sol\":828:847  commits[msg.sender] */\n      0xffffffffffffffffffffffffffffffffffffffff\n      and\n      0xffffffffffffffffffffffffffffffffffffffff\n      and\n      dup2\n      mstore\n      0x20\n      add\n      swap1\n      dup2\n      mstore\n      0x20\n      add\n      0x00\n      keccak256\n        /* \"CommitReveal.sol\":828:856  commits[msg.sender].revealed */\n      0x01\n      add\n      0x08\n        /* \"CommitReveal.sol\":828:861  commits[msg.sender].revealed=true */\n      0x0100\n      exp\n      dup2\n      sload\n      dup2\n      0xff\n      mul\n      not\n      and\n      swap1\n      dup4\n      iszero\n      iszero\n      mul\n      or\n      swap1\n      sstore\n      pop\n        /* \"CommitReveal.sol\":953:960  commits */\n      0x01\n        /* \"CommitReveal.sol\":953:972  commits[msg.sender] */\n      0x00\n        /* \"CommitReveal.sol\":961:971  msg.sender */\n      caller\n        /* \"CommitReveal.sol\":953:972  commits[msg.sender] */\n      0xffffffffffffffffffffffffffffffffffffffff\n      and\n      0xffffffffffffffffffffffffffffffffffffffff\n      and\n      dup2\n      mstore\n      0x20\n      add\n      swap1\n      dup2\n      mstore\n      0x20\n      add\n      0x00\n      keccak256\n        /* \"CommitReveal.sol\":953:979  commits[msg.sender].commit */\n      0x00\n      add\n      sload\n        /* \"CommitReveal.sol\":932:951  getHash(revealHash) */\n      tag_233\n        /* \"CommitReveal.sol\":940:950  revealHash */\n      dup3\n        /* \"CommitReveal.sol\":932:939  getHash */\n      tag_50\n        /* \"CommitReveal.sol\":932:951  getHash(revealHash) */\n      jump\t// in\n    tag_233:\n        /* \"CommitReveal.sol\":932:979  getHash(revealHash)==commits[msg.sender].commit */\n      eq\n        /* \"CommitReveal.sol\":924:1040  require(getHash(revealHash)==commits[msg.sender].commit,\"CommitReveal::reveal: Revealed hash does not match commit\") */\n      tag_234\n      jumpi\n      mload(0x40)\n      0x08c379a000000000000000000000000000000000000000000000000000000000\n      dup2\n      mstore\n      0x04\n      add\n      tag_235\n      swap1\n      tag_236\n      jump\t// in\n    tag_235:\n      mload(0x40)\n      dup1\n      swap2\n      sub\n      swap1\n      revert\n    tag_234:\n        /* \"CommitReveal.sol\":1148:1155  commits */\n      0x01\n        /* \"CommitReveal.sol\":1148:1167  commits[msg.sender] */\n      0x00\n        /* \"CommitReveal.sol\":1156:1166  msg.sender */\n      caller\n        /* \"CommitReveal.sol\":1148:1167  commits[msg.sender] */\n      0xffffffffffffffffffffffffffffffffffffffff\n      and\n      0xffffffffffffffffffffffffffffffffffffffff\n      and\n      dup2\n      mstore\n      0x20\n      add\n      swap1\n      dup2\n      mstore\n      0x20\n      add\n      0x00\n      keccak256\n        /* \"CommitReveal.sol\":1148:1173  commits[msg.sender].block */\n      0x01\n      add\n      0x00\n      swap1\n      sload\n      swap1\n      0x0100\n      exp\n      swap1\n      div\n      0xffffffffffffffff\n      and\n        /* \"CommitReveal.sol\":1127:1173  uint64(block.number)>commits[msg.sender].block */\n      0xffffffffffffffff\n      and\n        /* \"CommitReveal.sol\":1134:1146  block.number */\n      number\n        /* \"CommitReveal.sol\":1127:1173  uint64(block.number)>commits[msg.sender].block */\n      0xffffffffffffffff\n      and\n      gt\n        /* \"CommitReveal.sol\":1119:1243  require(uint64(block.number)>commits[msg.sender].block,\"CommitReveal::reveal: Reveal and commit happened on the same block\") */\n      tag_237\n      jumpi\n      mload(0x40)\n      0x08c379a000000000000000000000000000000000000000000000000000000000\n      dup2\n      mstore\n      0x04\n      add\n      tag_238\n      swap1\n      tag_239\n      jump\t// in\n    tag_238:\n      mload(0x40)\n      dup1\n      swap2\n      sub\n      swap1\n      revert\n    tag_237:\n        /* \"CommitReveal.sol\":1362:1365  250 */\n      0xfa\n        /* \"CommitReveal.sol\":1336:1343  commits */\n      0x01\n        /* \"CommitReveal.sol\":1336:1355  commits[msg.sender] */\n      0x00\n        /* \"CommitReveal.sol\":1344:1354  msg.sender */\n      caller\n        /* \"CommitReveal.sol\":1336:1355  commits[msg.sender] */\n      0xffffffffffffffffffffffffffffffffffffffff\n      and\n      0xffffffffffffffffffffffffffffffffffffffff\n      and\n      dup2\n      mstore\n      0x20\n      add\n      swap1\n      dup2\n      mstore\n      0x20\n      add\n      0x00\n      keccak256\n        /* \"CommitReveal.sol\":1336:1361  commits[msg.sender].block */\n      0x01\n      add\n      0x00\n      swap1\n      sload\n      swap1\n      0x0100\n      exp\n      swap1\n      div\n      0xffffffffffffffff\n      and\n        /* \"CommitReveal.sol\":1336:1365  commits[msg.sender].block+250 */\n      tag_240\n      swap2\n      swap1\n      tag_241\n      jump\t// in\n    tag_240:\n        /* \"CommitReveal.sol\":1314:1365  uint64(block.number)<=commits[msg.sender].block+250 */\n      0xffffffffffffffff\n      and\n        /* \"CommitReveal.sol\":1321:1333  block.number */\n      number\n        /* \"CommitReveal.sol\":1314:1365  uint64(block.number)<=commits[msg.sender].block+250 */\n      0xffffffffffffffff\n      and\n      gt\n      iszero\n        /* \"CommitReveal.sol\":1306:1408  require(uint64(block.number)<=commits[msg.sender].block+250,\"CommitReveal::reveal: Revealed too late\") */\n      tag_242\n      jumpi\n      mload(0x40)\n      0x08c379a000000000000000000000000000000000000000000000000000000000\n      dup2\n      mstore\n      0x04\n      add\n      tag_243\n      swap1\n      tag_244\n      jump\t// in\n    tag_243:\n      mload(0x40)\n      dup1\n      swap2\n      sub\n      swap1\n      revert\n    tag_242:\n        /* \"CommitReveal.sol\":1483:1500  bytes32 blockHash */\n      0x00\n        /* \"CommitReveal.sol\":1513:1520  commits */\n      0x01\n        /* \"CommitReveal.sol\":1513:1532  commits[msg.sender] */\n      0x00\n        /* \"CommitReveal.sol\":1521:1531  msg.sender */\n      caller\n        /* \"CommitReveal.sol\":1513:1532  commits[msg.sender] */\n      0xffffffffffffffffffffffffffffffffffffffff\n      and\n      0xffffffffffffffffffffffffffffffffffffffff\n      and\n      dup2\n      mstore\n      0x20\n      add\n      swap1\n      dup2\n      mstore\n      0x20\n      add\n      0x00\n      keccak256\n        /* \"CommitReveal.sol\":1513:1538  commits[msg.sender].block */\n      0x01\n      add\n      0x00\n      swap1\n      sload\n      swap1\n      0x0100\n      exp\n      swap1\n      div\n      0xffffffffffffffff\n      and\n        /* \"CommitReveal.sol\":1503:1539  blockhash(commits[msg.sender].block) */\n      0xffffffffffffffff\n      and\n      blockhash\n        /* \"CommitReveal.sol\":1483:1539  bytes32 blockHash = blockhash(commits[msg.sender].block) */\n      swap1\n      pop\n        /* \"CommitReveal.sol\":1651:1662  uint random */\n      0x00\n        /* \"CommitReveal.sol\":1721:1724  max */\n      dup1\n      0x00\n      swap1\n      sload\n      swap1\n      0x0100\n      exp\n      swap1\n      div\n      0xff\n      and\n        /* \"CommitReveal.sol\":1665:1724  uint(keccak256(abi.encodePacked(blockHash,revealHash)))%max */\n      0xff\n      and\n        /* \"CommitReveal.sol\":1697:1706  blockHash */\n      dup3\n        /* \"CommitReveal.sol\":1707:1717  revealHash */\n      dup5\n        /* \"CommitReveal.sol\":1680:1718  abi.encodePacked(blockHash,revealHash) */\n      add(0x20, mload(0x40))\n      tag_245\n      swap3\n      swap2\n      swap1\n      tag_246\n      jump\t// in\n    tag_245:\n      mload(0x40)\n      0x20\n      dup2\n      dup4\n      sub\n      sub\n      dup2\n      mstore\n      swap1\n      0x40\n      mstore\n        /* \"CommitReveal.sol\":1670:1719  keccak256(abi.encodePacked(blockHash,revealHash)) */\n      dup1\n      mload\n      swap1\n      0x20\n      add\n      keccak256\n        /* \"CommitReveal.sol\":1665:1720  uint(keccak256(abi.encodePacked(blockHash,revealHash))) */\n      0x00\n      shr\n        /* \"CommitReveal.sol\":1665:1724  uint(keccak256(abi.encodePacked(blockHash,revealHash)))%max */\n      tag_247\n      swap2\n      swap1\n      tag_248\n      jump\t// in\n    tag_247:\n        /* \"CommitReveal.sol\":1651:1724  uint random = uint(keccak256(abi.encodePacked(blockHash,revealHash)))%max */\n      swap1\n      pop\n        /* \"CommitReveal.sol\":1736:1776  RevealHash(msg.sender,revealHash,random) */\n      0xbc016dd1cadeaefcb851af7a0a93532e0023d536894b730801f7bcfe7065bcc2\n        /* \"CommitReveal.sol\":1747:1757  msg.sender */\n      caller\n        /* \"CommitReveal.sol\":1758:1768  revealHash */\n      dup5\n        /* \"CommitReveal.sol\":1769:1775  random */\n      dup4\n        /* \"CommitReveal.sol\":1736:1776  RevealHash(msg.sender,revealHash,random) */\n      mload(0x40)\n      tag_249\n      swap4\n      swap3\n      swap2\n      swap1\n      tag_250\n      jump\t// in\n    tag_249:\n      mload(0x40)\n      dup1\n      swap2\n      sub\n      swap1\n      log1\n        /* \"CommitReveal.sol\":661:1782  {... */\n      pop\n      pop\n        /* \"CommitReveal.sol\":618:1782  function reveal(bytes32 revealHash) public {... */\n      pop\n      jump\t// out\n        /* \"TimeUnit.sol\":307:331  uint256 public startTime */\n    tag_80:\n      sload(0x02)\n      dup2\n      jump\t// out\n        /* \"CommitReveal.sol\":218:260  mapping (address => Commit) public commits */\n    tag_85:\n      mstore(0x20, 0x01)\n      dup1\n      0x00\n      mstore\n      keccak256(0x00, 0x40)\n      0x00\n      swap2\n      pop\n      swap1\n      pop\n      dup1\n      0x00\n      add\n      sload\n      swap1\n      dup1\n      0x01\n      add\n      0x00\n      swap1\n      sload\n      swap1\n      0x0100\n      exp\n      swap1\n      div\n      0xffffffffffffffff\n      and\n      swap1\n      dup1\n      0x01\n      add\n      0x08\n      swap1\n      sload\n      swap1\n      0x0100\n      exp\n      swap1\n      div\n      0xff\n      and\n      swap1\n      pop\n      dup4\n      jump\t// out\n        /* \"RPS.sol\":616:656  uint public lastAction = block.timestamp */\n    tag_90:\n      sload(0x0c)\n      dup2\n      jump\t// out\n        /* \"RPS.sol\":180:205  uint public numPlayer = 0 */\n    tag_94:\n      sload(0x03)\n      dup2\n      jump\t// out\n        /* \"RPS.sol\":241:287  mapping (address => uint) public player_choice */\n    tag_99:\n      mstore(0x20, 0x05)\n      dup1\n      0x00\n      mstore\n      keccak256(0x00, 0x40)\n      0x00\n      swap2\n      pop\n      swap1\n      pop\n      sload\n      dup2\n      jump\t// out\n        /* \"TimeUnit.sol\":379:452  function setStartTime() public { ... */\n    tag_103:\n        /* \"TimeUnit.sol\":430:445  block.timestamp */\n      timestamp\n        /* \"TimeUnit.sol\":418:427  startTime */\n      0x02\n        /* \"TimeUnit.sol\":418:445  startTime = block.timestamp */\n      dup2\n      swap1\n      sstore\n      pop\n        /* \"TimeUnit.sol\":379:452  function setStartTime() public { ... */\n      jump\t// out\n        /* \"TimeUnit.sol\":576:683  function elapsedSeconds() public view returns (uint256) { ... */\n    tag_106:\n        /* \"TimeUnit.sol\":623:630  uint256 */\n      0x00\n        /* \"TimeUnit.sol\":666:675  startTime */\n      sload(0x02)\n        /* \"TimeUnit.sol\":648:663  block.timestamp */\n      timestamp\n        /* \"TimeUnit.sol\":648:675  block.timestamp - startTime */\n      tag_253\n      swap2\n      swap1\n      tag_254\n      jump\t// in\n    tag_253:\n        /* \"TimeUnit.sol\":640:676  return (block.timestamp - startTime) */\n      swap1\n      pop\n        /* \"TimeUnit.sol\":576:683  function elapsedSeconds() public view returns (uint256) { ... */\n      swap1\n      jump\t// out\n        /* \"RPS.sol\":537:562  uint public numReveal = 0 */\n    tag_110:\n      sload(0x0a)\n      dup2\n      jump\t// out\n        /* \"RPS.sol\":2207:2738  function input(bytes32 hashAns) public  {... */\n    tag_115:\n        /* \"RPS.sol\":2279:2280  2 */\n      0x02\n        /* \"RPS.sol\":2266:2275  numPlayer */\n      sload(0x03)\n        /* \"RPS.sol\":2266:2280  numPlayer == 2 */\n      eq\n        /* \"RPS.sol\":2258:2306  require(numPlayer == 2, \"Game needs 2 players.\") */\n      tag_256\n      jumpi\n      mload(0x40)\n      0x08c379a000000000000000000000000000000000000000000000000000000000\n      dup2\n      mstore\n      0x04\n      add\n      tag_257\n      swap1\n      tag_258\n      jump\t// in\n    tag_257:\n      mload(0x40)\n      dup1\n      swap2\n      sub\n      swap1\n      revert\n    tag_256:\n        /* \"RPS.sol\":2336:2337  2 */\n      0x02\n        /* \"RPS.sol\":2325:2333  numInput */\n      sload(0x09)\n        /* \"RPS.sol\":2325:2337  numInput < 2 */\n      lt\n        /* \"RPS.sol\":2317:2338  require(numInput < 2) */\n      tag_259\n      jumpi\n      0x00\n      dup1\n      revert\n    tag_259:\n        /* \"RPS.sol\":2357:2374  player_not_played */\n      0x06\n        /* \"RPS.sol\":2357:2386  player_not_played[msg.sender] */\n      0x00\n        /* \"RPS.sol\":2375:2385  msg.sender */\n      caller\n        /* \"RPS.sol\":2357:2386  player_not_played[msg.sender] */\n      0xffffffffffffffffffffffffffffffffffffffff\n      and\n      0xffffffffffffffffffffffffffffffffffffffff\n      and\n      dup2\n      mstore\n      0x20\n      add\n      swap1\n      dup2\n      mstore\n      0x20\n      add\n      0x00\n      keccak256\n      0x00\n      swap1\n      sload\n      swap1\n      0x0100\n      exp\n      swap1\n      div\n      0xff\n      and\n        /* \"RPS.sol\":2349:2387  require(player_not_played[msg.sender]) */\n      tag_260\n      jumpi\n      0x00\n      dup1\n      revert\n    tag_260:\n        /* \"RPS.sol\":2430:2435  false */\n      0x00\n        /* \"RPS.sol\":2406:2435  isCommit[msg.sender] == false */\n      iszero\n      iszero\n        /* \"RPS.sol\":2406:2414  isCommit */\n      0x08\n        /* \"RPS.sol\":2406:2426  isCommit[msg.sender] */\n      0x00\n        /* \"RPS.sol\":2415:2425  msg.sender */\n      caller\n        /* \"RPS.sol\":2406:2426  isCommit[msg.sender] */\n      0xffffffffffffffffffffffffffffffffffffffff\n      and\n      0xffffffffffffffffffffffffffffffffffffffff\n      and\n      dup2\n      mstore\n      0x20\n      add\n      swap1\n      dup2\n      mstore\n      0x20\n      add\n      0x00\n      keccak256\n      0x00\n      swap1\n      sload\n      swap1\n      0x0100\n      exp\n      swap1\n      div\n      0xff\n      and\n        /* \"RPS.sol\":2406:2435  isCommit[msg.sender] == false */\n      iszero\n      iszero\n      eq\n        /* \"RPS.sol\":2398:2461  require(isCommit[msg.sender] == false, \"You already commited.\") */\n      tag_261\n      jumpi\n      mload(0x40)\n      0x08c379a000000000000000000000000000000000000000000000000000000000\n      dup2\n      mstore\n      0x04\n      add\n      tag_262\n      swap1\n      tag_263\n      jump\t// in\n    tag_262:\n      mload(0x40)\n      dup1\n      swap2\n      sub\n      swap1\n      revert\n    tag_261:\n        /* \"RPS.sol\":2514:2519  false */\n      0x00\n        /* \"RPS.sol\":2482:2499  player_not_played */\n      0x06\n        /* \"RPS.sol\":2482:2511  player_not_played[msg.sender] */\n      0x00\n        /* \"RPS.sol\":2500:2510  msg.sender */\n      caller\n        /* \"RPS.sol\":2482:2511  player_not_played[msg.sender] */\n      0xffffffffffffffffffffffffffffffffffffffff\n      and\n      0xffffffffffffffffffffffffffffffffffffffff\n      and\n      dup2\n      mstore\n      0x20\n      add\n      swap1\n      dup2\n      mstore\n      0x20\n      add\n      0x00\n      keccak256\n      0x00\n        /* \"RPS.sol\":2482:2519  player_not_played[msg.sender] = false */\n      0x0100\n      exp\n      dup2\n      sload\n      dup2\n      0xff\n      mul\n      not\n      and\n      swap1\n      dup4\n      iszero\n      iszero\n      mul\n      or\n      swap1\n      sstore\n      pop\n        /* \"RPS.sol\":2553:2557  true */\n      0x01\n        /* \"RPS.sol\":2530:2538  isCommit */\n      0x08\n        /* \"RPS.sol\":2530:2550  isCommit[msg.sender] */\n      0x00\n        /* \"RPS.sol\":2539:2549  msg.sender */\n      caller\n        /* \"RPS.sol\":2530:2550  isCommit[msg.sender] */\n      0xffffffffffffffffffffffffffffffffffffffff\n      and\n      0xffffffffffffffffffffffffffffffffffffffff\n      and\n      dup2\n      mstore\n      0x20\n      add\n      swap1\n      dup2\n      mstore\n      0x20\n      add\n      0x00\n      keccak256\n      0x00\n        /* \"RPS.sol\":2530:2557  isCommit[msg.sender] = true */\n      0x0100\n      exp\n      dup2\n      sload\n      dup2\n      0xff\n      mul\n      not\n      and\n      swap1\n      dup4\n      iszero\n      iszero\n      mul\n      or\n      swap1\n      sstore\n      pop\n        /* \"RPS.sol\":2568:2583  commit(hashAns) */\n      tag_264\n        /* \"RPS.sol\":2575:2582  hashAns */\n      dup2\n        /* \"RPS.sol\":2568:2574  commit */\n      tag_123\n        /* \"RPS.sol\":2568:2583  commit(hashAns) */\n      jump\t// in\n    tag_264:\n        /* \"RPS.sol\":2596:2604  numInput */\n      0x09\n      0x00\n        /* \"RPS.sol\":2596:2606  numInput++ */\n      dup2\n      sload\n      dup1\n      swap3\n      swap2\n      swap1\n      tag_265\n      swap1\n      tag_151\n      jump\t// in\n    tag_265:\n      swap2\n      swap1\n      pop\n      sstore\n      pop\n        /* \"RPS.sol\":2622:2661  playerCommitHashed(msg.sender,numInput) */\n      0x3928cc5abcbb1c0b781bebbc4f1e9b156f6d392796c791cc0937db5e42677ff7\n        /* \"RPS.sol\":2641:2651  msg.sender */\n      caller\n        /* \"RPS.sol\":2652:2660  numInput */\n      sload(0x09)\n        /* \"RPS.sol\":2622:2661  playerCommitHashed(msg.sender,numInput) */\n      mload(0x40)\n      tag_266\n      swap3\n      swap2\n      swap1\n      tag_153\n      jump\t// in\n    tag_266:\n      mload(0x40)\n      dup1\n      swap2\n      sub\n      swap1\n      log1\n        /* \"RPS.sol\":2716:2730  setStartTime() */\n      tag_267\n        /* \"RPS.sol\":2716:2728  setStartTime */\n      tag_103\n        /* \"RPS.sol\":2716:2730  setStartTime() */\n      jump\t// in\n    tag_267:\n        /* \"RPS.sol\":2207:2738  function input(bytes32 hashAns) public  {... */\n      pop\n      jump\t// out\n        /* \"TimeUnit.sol\":799:1082  function elapsedMinutes() public view returns (uint256) { ... */\n    tag_118:\n        /* \"TimeUnit.sol\":846:853  uint256 */\n      0x00\n        /* \"TimeUnit.sol\":1066:1075  1 minutes */\n      0x3c\n        /* \"TimeUnit.sol\":1053:1062  startTime */\n      sload(0x02)\n        /* \"TimeUnit.sol\":1035:1050  block.timestamp */\n      timestamp\n        /* \"TimeUnit.sol\":1035:1062  block.timestamp - startTime */\n      tag_269\n      swap2\n      swap1\n      tag_254\n      jump\t// in\n    tag_269:\n        /* \"TimeUnit.sol\":1034:1075  (block.timestamp - startTime) / 1 minutes */\n      tag_270\n      swap2\n      swap1\n      tag_184\n      jump\t// in\n    tag_270:\n        /* \"TimeUnit.sol\":1027:1075  return (block.timestamp - startTime) / 1 minutes */\n      swap1\n      pop\n        /* \"TimeUnit.sol\":799:1082  function elapsedMinutes() public view returns (uint256) { ... */\n      swap1\n      jump\t// out\n        /* \"CommitReveal.sol\":267:543  function commit(bytes32 dataHash) public {... */\n    tag_123:\n        /* \"CommitReveal.sol\":344:352  dataHash */\n      dup1\n        /* \"CommitReveal.sol\":315:322  commits */\n      0x01\n        /* \"CommitReveal.sol\":315:334  commits[msg.sender] */\n      0x00\n        /* \"CommitReveal.sol\":323:333  msg.sender */\n      caller\n        /* \"CommitReveal.sol\":315:334  commits[msg.sender] */\n      0xffffffffffffffffffffffffffffffffffffffff\n      and\n      0xffffffffffffffffffffffffffffffffffffffff\n      and\n      dup2\n      mstore\n      0x20\n      add\n      swap1\n      dup2\n      mstore\n      0x20\n      add\n      0x00\n      keccak256\n        /* \"CommitReveal.sol\":315:341  commits[msg.sender].commit */\n      0x00\n      add\n        /* \"CommitReveal.sol\":315:352  commits[msg.sender].commit = dataHash */\n      dup2\n      swap1\n      sstore\n      pop\n        /* \"CommitReveal.sol\":394:406  block.number */\n      number\n        /* \"CommitReveal.sol\":359:366  commits */\n      0x01\n        /* \"CommitReveal.sol\":359:378  commits[msg.sender] */\n      0x00\n        /* \"CommitReveal.sol\":367:377  msg.sender */\n      caller\n        /* \"CommitReveal.sol\":359:378  commits[msg.sender] */\n      0xffffffffffffffffffffffffffffffffffffffff\n      and\n      0xffffffffffffffffffffffffffffffffffffffff\n      and\n      dup2\n      mstore\n      0x20\n      add\n      swap1\n      dup2\n      mstore\n      0x20\n      add\n      0x00\n      keccak256\n        /* \"CommitReveal.sol\":359:384  commits[msg.sender].block */\n      0x01\n      add\n      0x00\n        /* \"CommitReveal.sol\":359:407  commits[msg.sender].block = uint64(block.number) */\n      0x0100\n      exp\n      dup2\n      sload\n      dup2\n      0xffffffffffffffff\n      mul\n      not\n      and\n      swap1\n      dup4\n      0xffffffffffffffff\n      and\n      mul\n      or\n      swap1\n      sstore\n      pop\n        /* \"CommitReveal.sol\":445:450  false */\n      0x00\n        /* \"CommitReveal.sol\":414:421  commits */\n      0x01\n        /* \"CommitReveal.sol\":414:433  commits[msg.sender] */\n      0x00\n        /* \"CommitReveal.sol\":422:432  msg.sender */\n      caller\n        /* \"CommitReveal.sol\":414:433  commits[msg.sender] */\n      0xffffffffffffffffffffffffffffffffffffffff\n      and\n      0xffffffffffffffffffffffffffffffffffffffff\n      and\n      dup2\n      mstore\n      0x20\n      add\n      swap1\n      dup2\n      mstore\n      0x20\n      add\n      0x00\n      keccak256\n        /* \"CommitReveal.sol\":414:442  commits[msg.sender].revealed */\n      0x01\n      add\n      0x08\n        /* \"CommitReveal.sol\":414:450  commits[msg.sender].revealed = false */\n      0x0100\n      exp\n      dup2\n      sload\n      dup2\n      0xff\n      mul\n      not\n      and\n      swap1\n      dup4\n      iszero\n      iszero\n      mul\n      or\n      swap1\n      sstore\n      pop\n        /* \"CommitReveal.sol\":462:537  CommitHash(msg.sender,commits[msg.sender].commit,commits[msg.sender].block) */\n      0x3c1a1f8f38335b17f751c6da4ba7d1865f26b3997535176f5080de9fad891603\n        /* \"CommitReveal.sol\":473:483  msg.sender */\n      caller\n        /* \"CommitReveal.sol\":484:491  commits */\n      0x01\n        /* \"CommitReveal.sol\":484:503  commits[msg.sender] */\n      0x00\n        /* \"CommitReveal.sol\":492:502  msg.sender */\n      caller\n        /* \"CommitReveal.sol\":484:503  commits[msg.sender] */\n      0xffffffffffffffffffffffffffffffffffffffff\n      and\n      0xffffffffffffffffffffffffffffffffffffffff\n      and\n      dup2\n      mstore\n      0x20\n      add\n      swap1\n      dup2\n      mstore\n      0x20\n      add\n      0x00\n      keccak256\n        /* \"CommitReveal.sol\":484:510  commits[msg.sender].commit */\n      0x00\n      add\n      sload\n        /* \"CommitReveal.sol\":511:518  commits */\n      0x01\n        /* \"CommitReveal.sol\":511:530  commits[msg.sender] */\n      0x00\n        /* \"CommitReveal.sol\":519:529  msg.sender */\n      caller\n        /* \"CommitReveal.sol\":511:530  commits[msg.sender] */\n      0xffffffffffffffffffffffffffffffffffffffff\n      and\n      0xffffffffffffffffffffffffffffffffffffffff\n      and\n      dup2\n      mstore\n      0x20\n      add\n      swap1\n      dup2\n      mstore\n      0x20\n      add\n      0x00\n      keccak256\n        /* \"CommitReveal.sol\":511:536  commits[msg.sender].block */\n      0x01\n      add\n      0x00\n      swap1\n      sload\n      swap1\n      0x0100\n      exp\n      swap1\n      div\n      0xffffffffffffffff\n      and\n        /* \"CommitReveal.sol\":462:537  CommitHash(msg.sender,commits[msg.sender].commit,commits[msg.sender].block) */\n      mload(0x40)\n      tag_272\n      swap4\n      swap3\n      swap2\n      swap1\n      tag_273\n      jump\t// in\n    tag_272:\n      mload(0x40)\n      dup1\n      swap2\n      sub\n      swap1\n      log1\n        /* \"CommitReveal.sol\":267:543  function commit(bytes32 dataHash) public {... */\n      pop\n      jump\t// out\n        /* \"RPS.sol\":425:449  address[] public players */\n    tag_128:\n      0x07\n      dup2\n      dup2\n      sload\n      dup2\n      lt\n      tag_274\n      jumpi\n      0x00\n      dup1\n      revert\n    tag_274:\n      swap1\n      0x00\n      mstore\n      keccak256(0x00, 0x20)\n      add\n      0x00\n      swap2\n      pop\n      sload\n      swap1\n      0x0100\n      exp\n      swap1\n      div\n      0xffffffffffffffffffffffffffffffffffffffff\n      and\n      dup2\n      jump\t// out\n        /* \"RPS.sol\":4285:4438  function _reset() private {... */\n    tag_174:\n        /* \"RPS.sol\":4329:4336  players */\n      0x07\n      0x00\n        /* \"RPS.sol\":4322:4336  delete players */\n      tag_277\n      swap2\n      swap1\n      tag_278\n      jump\t// in\n    tag_277:\n        /* \"RPS.sol\":4361:4362  0 */\n      0x00\n        /* \"RPS.sol\":4349:4358  numPlayer */\n      0x03\n        /* \"RPS.sol\":4349:4362  numPlayer = 0 */\n      dup2\n      swap1\n      sstore\n      pop\n        /* \"RPS.sol\":4384:4385  0 */\n      0x00\n        /* \"RPS.sol\":4373:4381  numInput */\n      0x09\n        /* \"RPS.sol\":4373:4385  numInput = 0 */\n      dup2\n      swap1\n      sstore\n      pop\n        /* \"RPS.sol\":4408:4409  0 */\n      0x00\n        /* \"RPS.sol\":4396:4405  numReveal */\n      0x0a\n        /* \"RPS.sol\":4396:4409  numReveal = 0 */\n      dup2\n      swap1\n      sstore\n      pop\n        /* \"RPS.sol\":4429:4430  0 */\n      0x00\n        /* \"RPS.sol\":4420:4426  reward */\n      0x04\n        /* \"RPS.sol\":4420:4430  reward = 0 */\n      dup2\n      swap1\n      sstore\n      pop\n        /* \"RPS.sol\":4285:4438  function _reset() private {... */\n      jump\t// out\n        /* \"RPS.sol\":3602:4277  function _checkWinnerAndPay() private {... */\n    tag_227:\n        /* \"RPS.sol\":3651:3664  uint p0Choice */\n      0x00\n        /* \"RPS.sol\":3667:3680  player_choice */\n      0x05\n        /* \"RPS.sol\":3667:3692  player_choice[players[0]] */\n      0x00\n        /* \"RPS.sol\":3681:3688  players */\n      0x07\n        /* \"RPS.sol\":3689:3690  0 */\n      0x00\n        /* \"RPS.sol\":3681:3691  players[0] */\n      dup2\n      sload\n      dup2\n      lt\n      tag_280\n      jumpi\n      tag_281\n      tag_141\n      jump\t// in\n    tag_281:\n    tag_280:\n      swap1\n      0x00\n      mstore\n      keccak256(0x00, 0x20)\n      add\n      0x00\n      swap1\n      sload\n      swap1\n      0x0100\n      exp\n      swap1\n      div\n      0xffffffffffffffffffffffffffffffffffffffff\n      and\n        /* \"RPS.sol\":3667:3692  player_choice[players[0]] */\n      0xffffffffffffffffffffffffffffffffffffffff\n      and\n      0xffffffffffffffffffffffffffffffffffffffff\n      and\n      dup2\n      mstore\n      0x20\n      add\n      swap1\n      dup2\n      mstore\n      0x20\n      add\n      0x00\n      keccak256\n      sload\n        /* \"RPS.sol\":3651:3692  uint p0Choice = player_choice[players[0]] */\n      swap1\n      pop\n        /* \"RPS.sol\":3703:3716  uint p1Choice */\n      0x00\n        /* \"RPS.sol\":3719:3732  player_choice */\n      0x05\n        /* \"RPS.sol\":3719:3744  player_choice[players[1]] */\n      0x00\n        /* \"RPS.sol\":3733:3740  players */\n      0x07\n        /* \"RPS.sol\":3741:3742  1 */\n      0x01\n        /* \"RPS.sol\":3733:3743  players[1] */\n      dup2\n      sload\n      dup2\n      lt\n      tag_283\n      jumpi\n      tag_284\n      tag_141\n      jump\t// in\n    tag_284:\n    tag_283:\n      swap1\n      0x00\n      mstore\n      keccak256(0x00, 0x20)\n      add\n      0x00\n      swap1\n      sload\n      swap1\n      0x0100\n      exp\n      swap1\n      div\n      0xffffffffffffffffffffffffffffffffffffffff\n      and\n        /* \"RPS.sol\":3719:3744  player_choice[players[1]] */\n      0xffffffffffffffffffffffffffffffffffffffff\n      and\n      0xffffffffffffffffffffffffffffffffffffffff\n      and\n      dup2\n      mstore\n      0x20\n      add\n      swap1\n      dup2\n      mstore\n      0x20\n      add\n      0x00\n      keccak256\n      sload\n        /* \"RPS.sol\":3703:3744  uint p1Choice = player_choice[players[1]] */\n      swap1\n      pop\n        /* \"RPS.sol\":3755:3779  address payable account0 */\n      0x00\n        /* \"RPS.sol\":3790:3797  players */\n      0x07\n        /* \"RPS.sol\":3798:3799  0 */\n      0x00\n        /* \"RPS.sol\":3790:3800  players[0] */\n      dup2\n      sload\n      dup2\n      lt\n      tag_286\n      jumpi\n      tag_287\n      tag_141\n      jump\t// in\n    tag_287:\n    tag_286:\n      swap1\n      0x00\n      mstore\n      keccak256(0x00, 0x20)\n      add\n      0x00\n      swap1\n      sload\n      swap1\n      0x0100\n      exp\n      swap1\n      div\n      0xffffffffffffffffffffffffffffffffffffffff\n      and\n        /* \"RPS.sol\":3755:3801  address payable account0 = payable(players[0]) */\n      swap1\n      pop\n        /* \"RPS.sol\":3812:3836  address payable account1 */\n      0x00\n        /* \"RPS.sol\":3847:3854  players */\n      0x07\n        /* \"RPS.sol\":3855:3856  1 */\n      0x01\n        /* \"RPS.sol\":3847:3857  players[1] */\n      dup2\n      sload\n      dup2\n      lt\n      tag_289\n      jumpi\n      tag_290\n      tag_141\n      jump\t// in\n    tag_290:\n    tag_289:\n      swap1\n      0x00\n      mstore\n      keccak256(0x00, 0x20)\n      add\n      0x00\n      swap1\n      sload\n      swap1\n      0x0100\n      exp\n      swap1\n      div\n      0xffffffffffffffffffffffffffffffffffffffff\n      and\n        /* \"RPS.sol\":3812:3858  address payable account1 = payable(players[1]) */\n      swap1\n      pop\n        /* \"RPS.sol\":3885:3893  p1Choice */\n      dup3\n        /* \"RPS.sol\":3873:3881  p0Choice */\n      dup5\n        /* \"RPS.sol\":3873:3893  p0Choice == p1Choice */\n      sub\n        /* \"RPS.sol\":3869:4270  if (p0Choice == p1Choice) {... */\n      tag_292\n      jumpi\n        /* \"RPS.sol\":3910:3918  account0 */\n      dup2\n        /* \"RPS.sol\":3910:3927  account0.transfer */\n      0xffffffffffffffffffffffffffffffffffffffff\n      and\n        /* \"RPS.sol\":3910:3939  account0.transfer(reward / 2) */\n      0x08fc\n        /* \"RPS.sol\":3937:3938  2 */\n      0x02\n        /* \"RPS.sol\":3928:3934  reward */\n      sload(0x04)\n        /* \"RPS.sol\":3928:3938  reward / 2 */\n      tag_293\n      swap2\n      swap1\n      tag_184\n      jump\t// in\n    tag_293:\n        /* \"RPS.sol\":3910:3939  account0.transfer(reward / 2) */\n      swap1\n      dup2\n      iszero\n      mul\n      swap1\n      mload(0x40)\n      0x00\n      mload(0x40)\n      dup1\n      dup4\n      sub\n      dup2\n      dup6\n      dup9\n      dup9\n      call\n      swap4\n      pop\n      pop\n      pop\n      pop\n      iszero\n      dup1\n      iszero\n      tag_295\n      jumpi\n      returndatasize\n      0x00\n      dup1\n      returndatacopy\n      revert(0x00, returndatasize)\n    tag_295:\n      pop\n        /* \"RPS.sol\":3954:3962  account1 */\n      dup1\n        /* \"RPS.sol\":3954:3971  account1.transfer */\n      0xffffffffffffffffffffffffffffffffffffffff\n      and\n        /* \"RPS.sol\":3954:3983  account1.transfer(reward / 2) */\n      0x08fc\n        /* \"RPS.sol\":3981:3982  2 */\n      0x02\n        /* \"RPS.sol\":3972:3978  reward */\n      sload(0x04)\n        /* \"RPS.sol\":3972:3982  reward / 2 */\n      tag_296\n      swap2\n      swap1\n      tag_184\n      jump\t// in\n    tag_296:\n        /* \"RPS.sol\":3954:3983  account1.transfer(reward / 2) */\n      swap1\n      dup2\n      iszero\n      mul\n      swap1\n      mload(0x40)\n      0x00\n      mload(0x40)\n      dup1\n      dup4\n      sub\n      dup2\n      dup6\n      dup9\n      dup9\n      call\n      swap4\n      pop\n      pop\n      pop\n      pop\n      iszero\n      dup1\n      iszero\n      tag_298\n      jumpi\n      returndatasize\n      0x00\n      dup1\n      returndatacopy\n      revert(0x00, returndatasize)\n    tag_298:\n      pop\n        /* \"RPS.sol\":3869:4270  if (p0Choice == p1Choice) {... */\n      jump(tag_299)\n    tag_292:\n        /* \"RPS.sol\":4037:4045  p1Choice */\n      dup3\n        /* \"RPS.sol\":4032:4033  5 */\n      0x05\n        /* \"RPS.sol\":4027:4028  1 */\n      0x01\n        /* \"RPS.sol\":4016:4024  p0Choice */\n      dup7\n        /* \"RPS.sol\":4016:4028  p0Choice + 1 */\n      tag_300\n      swap2\n      swap1\n      tag_148\n      jump\t// in\n    tag_300:\n        /* \"RPS.sol\":4015:4033  (p0Choice + 1) % 5 */\n      tag_301\n      swap2\n      swap1\n      tag_248\n      jump\t// in\n    tag_301:\n        /* \"RPS.sol\":4015:4045  (p0Choice + 1) % 5 == p1Choice */\n      eq\n        /* \"RPS.sol\":4015:4079  (p0Choice + 1) % 5 == p1Choice || (p0Choice + 3) % 5 == p1Choice */\n      dup1\n      tag_302\n      jumpi\n      pop\n        /* \"RPS.sol\":4071:4079  p1Choice */\n      dup3\n        /* \"RPS.sol\":4066:4067  5 */\n      0x05\n        /* \"RPS.sol\":4061:4062  3 */\n      0x03\n        /* \"RPS.sol\":4050:4058  p0Choice */\n      dup7\n        /* \"RPS.sol\":4050:4062  p0Choice + 3 */\n      tag_303\n      swap2\n      swap1\n      tag_148\n      jump\t// in\n    tag_303:\n        /* \"RPS.sol\":4049:4067  (p0Choice + 3) % 5 */\n      tag_304\n      swap2\n      swap1\n      tag_248\n      jump\t// in\n    tag_304:\n        /* \"RPS.sol\":4049:4079  (p0Choice + 3) % 5 == p1Choice */\n      eq\n        /* \"RPS.sol\":4015:4079  (p0Choice + 1) % 5 == p1Choice || (p0Choice + 3) % 5 == p1Choice */\n    tag_302:\n        /* \"RPS.sol\":4011:4270  if ((p0Choice + 1) % 5 == p1Choice || (p0Choice + 3) % 5 == p1Choice) {... */\n      iszero\n      tag_305\n      jumpi\n        /* \"RPS.sol\":4129:4137  account1 */\n      dup1\n        /* \"RPS.sol\":4129:4146  account1.transfer */\n      0xffffffffffffffffffffffffffffffffffffffff\n      and\n        /* \"RPS.sol\":4129:4154  account1.transfer(reward) */\n      0x08fc\n        /* \"RPS.sol\":4147:4153  reward */\n      sload(0x04)\n        /* \"RPS.sol\":4129:4154  account1.transfer(reward) */\n      swap1\n      dup2\n      iszero\n      mul\n      swap1\n      mload(0x40)\n      0x00\n      mload(0x40)\n      dup1\n      dup4\n      sub\n      dup2\n      dup6\n      dup9\n      dup9\n      call\n      swap4\n      pop\n      pop\n      pop\n      pop\n      iszero\n      dup1\n      iszero\n      tag_307\n      jumpi\n      returndatasize\n      0x00\n      dup1\n      returndatacopy\n      revert(0x00, returndatasize)\n    tag_307:\n      pop\n        /* \"RPS.sol\":4011:4270  if ((p0Choice + 1) % 5 == p1Choice || (p0Choice + 3) % 5 == p1Choice) {... */\n      jump(tag_308)\n    tag_305:\n        /* \"RPS.sol\":4229:4237  account0 */\n      dup2\n        /* \"RPS.sol\":4229:4246  account0.transfer */\n      0xffffffffffffffffffffffffffffffffffffffff\n      and\n        /* \"RPS.sol\":4229:4254  account0.transfer(reward) */\n      0x08fc\n        /* \"RPS.sol\":4247:4253  reward */\n      sload(0x04)\n        /* \"RPS.sol\":4229:4254  account0.transfer(reward) */\n      swap1\n      dup2\n      iszero\n      mul\n      swap1\n      mload(0x40)\n      0x00\n      mload(0x40)\n      dup1\n      dup4\n      sub\n      dup2\n      dup6\n      dup9\n      dup9\n      call\n      swap4\n      pop\n      pop\n      pop\n      pop\n      iszero\n      dup1\n      iszero\n      tag_310\n      jumpi\n      returndatasize\n      0x00\n      dup1\n      returndatacopy\n      revert(0x00, returndatasize)\n    tag_310:\n      pop\n        /* \"RPS.sol\":4011:4270  if ((p0Choice + 1) % 5 == p1Choice || (p0Choice + 3) % 5 == p1Choice) {... */\n    tag_308:\n        /* \"RPS.sol\":3869:4270  if (p0Choice == p1Choice) {... */\n    tag_299:\n        /* \"RPS.sol\":3640:4277  {... */\n      pop\n      pop\n      pop\n      pop\n        /* \"RPS.sol\":3602:4277  function _checkWinnerAndPay() private {... */\n      jump\t// out\n    tag_278:\n      pop\n      dup1\n      sload\n      0x00\n      dup3\n      sstore\n      swap1\n      0x00\n      mstore\n      keccak256(0x00, 0x20)\n      swap1\n      dup2\n      add\n      swap1\n      tag_312\n      swap2\n      swap1\n      tag_313\n      jump\t// in\n    tag_312:\n      pop\n      jump\t// out\n    tag_313:\n    tag_314:\n      dup1\n      dup3\n      gt\n      iszero\n      tag_315\n      jumpi\n      0x00\n      dup2\n      0x00\n      swap1\n      sstore\n      pop\n      0x01\n      add\n      jump(tag_314)\n    tag_315:\n      pop\n      swap1\n      jump\t// out\n        /* \"#utility.yul\":7:84   */\n    tag_316:\n        /* \"#utility.yul\":44:51   */\n      0x00\n        /* \"#utility.yul\":73:78   */\n      dup2\n        /* \"#utility.yul\":62:78   */\n      swap1\n      pop\n        /* \"#utility.yul\":7:84   */\n      swap2\n      swap1\n      pop\n      jump\t// out\n        /* \"#utility.yul\":90:208   */\n    tag_317:\n        /* \"#utility.yul\":177:201   */\n      tag_372\n        /* \"#utility.yul\":195:200   */\n      dup2\n        /* \"#utility.yul\":177:201   */\n      tag_316\n      jump\t// in\n    tag_372:\n        /* \"#utility.yul\":172:175   */\n      dup3\n        /* \"#utility.yul\":165:202   */\n      mstore\n        /* \"#utility.yul\":90:208   */\n      pop\n      pop\n      jump\t// out\n        /* \"#utility.yul\":214:436   */\n    tag_32:\n        /* \"#utility.yul\":307:311   */\n      0x00\n        /* \"#utility.yul\":345:347   */\n      0x20\n        /* \"#utility.yul\":334:343   */\n      dup3\n        /* \"#utility.yul\":330:348   */\n      add\n        /* \"#utility.yul\":322:348   */\n      swap1\n      pop\n        /* \"#utility.yul\":358:429   */\n      tag_374\n        /* \"#utility.yul\":426:427   */\n      0x00\n        /* \"#utility.yul\":415:424   */\n      dup4\n        /* \"#utility.yul\":411:428   */\n      add\n        /* \"#utility.yul\":402:408   */\n      dup5\n        /* \"#utility.yul\":358:429   */\n      tag_317\n      jump\t// in\n    tag_374:\n        /* \"#utility.yul\":214:436   */\n      swap3\n      swap2\n      pop\n      pop\n      jump\t// out\n        /* \"#utility.yul\":523:640   */\n    tag_319:\n        /* \"#utility.yul\":632:633   */\n      0x00\n        /* \"#utility.yul\":629:630   */\n      dup1\n        /* \"#utility.yul\":622:634   */\n      revert\n        /* \"#utility.yul\":769:895   */\n    tag_321:\n        /* \"#utility.yul\":806:813   */\n      0x00\n        /* \"#utility.yul\":846:888   */\n      0xffffffffffffffffffffffffffffffffffffffff\n        /* \"#utility.yul\":839:844   */\n      dup3\n        /* \"#utility.yul\":835:889   */\n      and\n        /* \"#utility.yul\":824:889   */\n      swap1\n      pop\n        /* \"#utility.yul\":769:895   */\n      swap2\n      swap1\n      pop\n      jump\t// out\n        /* \"#utility.yul\":901:997   */\n    tag_322:\n        /* \"#utility.yul\":938:945   */\n      0x00\n        /* \"#utility.yul\":967:991   */\n      tag_380\n        /* \"#utility.yul\":985:990   */\n      dup3\n        /* \"#utility.yul\":967:991   */\n      tag_321\n      jump\t// in\n    tag_380:\n        /* \"#utility.yul\":956:991   */\n      swap1\n      pop\n        /* \"#utility.yul\":901:997   */\n      swap2\n      swap1\n      pop\n      jump\t// out\n        /* \"#utility.yul\":1003:1125   */\n    tag_323:\n        /* \"#utility.yul\":1076:1100   */\n      tag_382\n        /* \"#utility.yul\":1094:1099   */\n      dup2\n        /* \"#utility.yul\":1076:1100   */\n      tag_322\n      jump\t// in\n    tag_382:\n        /* \"#utility.yul\":1069:1074   */\n      dup2\n        /* \"#utility.yul\":1066:1101   */\n      eq\n        /* \"#utility.yul\":1056:1119   */\n      tag_383\n      jumpi\n        /* \"#utility.yul\":1115:1116   */\n      0x00\n        /* \"#utility.yul\":1112:1113   */\n      dup1\n        /* \"#utility.yul\":1105:1117   */\n      revert\n        /* \"#utility.yul\":1056:1119   */\n    tag_383:\n        /* \"#utility.yul\":1003:1125   */\n      pop\n      jump\t// out\n        /* \"#utility.yul\":1131:1270   */\n    tag_324:\n        /* \"#utility.yul\":1177:1182   */\n      0x00\n        /* \"#utility.yul\":1215:1221   */\n      dup2\n        /* \"#utility.yul\":1202:1222   */\n      calldataload\n        /* \"#utility.yul\":1193:1222   */\n      swap1\n      pop\n        /* \"#utility.yul\":1231:1264   */\n      tag_385\n        /* \"#utility.yul\":1258:1263   */\n      dup2\n        /* \"#utility.yul\":1231:1264   */\n      tag_323\n      jump\t// in\n    tag_385:\n        /* \"#utility.yul\":1131:1270   */\n      swap3\n      swap2\n      pop\n      pop\n      jump\t// out\n        /* \"#utility.yul\":1276:1605   */\n    tag_36:\n        /* \"#utility.yul\":1335:1341   */\n      0x00\n        /* \"#utility.yul\":1384:1386   */\n      0x20\n        /* \"#utility.yul\":1372:1381   */\n      dup3\n        /* \"#utility.yul\":1363:1370   */\n      dup5\n        /* \"#utility.yul\":1359:1382   */\n      sub\n        /* \"#utility.yul\":1355:1387   */\n      slt\n        /* \"#utility.yul\":1352:1471   */\n      iszero\n      tag_387\n      jumpi\n        /* \"#utility.yul\":1390:1469   */\n      tag_388\n      tag_319\n      jump\t// in\n    tag_388:\n        /* \"#utility.yul\":1352:1471   */\n    tag_387:\n        /* \"#utility.yul\":1510:1511   */\n      0x00\n        /* \"#utility.yul\":1535:1588   */\n      tag_389\n        /* \"#utility.yul\":1580:1587   */\n      dup5\n        /* \"#utility.yul\":1571:1577   */\n      dup3\n        /* \"#utility.yul\":1560:1569   */\n      dup6\n        /* \"#utility.yul\":1556:1578   */\n      add\n        /* \"#utility.yul\":1535:1588   */\n      tag_324\n      jump\t// in\n    tag_389:\n        /* \"#utility.yul\":1525:1588   */\n      swap2\n      pop\n        /* \"#utility.yul\":1481:1598   */\n      pop\n        /* \"#utility.yul\":1276:1605   */\n      swap3\n      swap2\n      pop\n      pop\n      jump\t// out\n        /* \"#utility.yul\":1611:1701   */\n    tag_325:\n        /* \"#utility.yul\":1645:1652   */\n      0x00\n        /* \"#utility.yul\":1688:1693   */\n      dup2\n        /* \"#utility.yul\":1681:1694   */\n      iszero\n        /* \"#utility.yul\":1674:1695   */\n      iszero\n        /* \"#utility.yul\":1663:1695   */\n      swap1\n      pop\n        /* \"#utility.yul\":1611:1701   */\n      swap2\n      swap1\n      pop\n      jump\t// out\n        /* \"#utility.yul\":1707:1816   */\n    tag_326:\n        /* \"#utility.yul\":1788:1809   */\n      tag_392\n        /* \"#utility.yul\":1803:1808   */\n      dup2\n        /* \"#utility.yul\":1788:1809   */\n      tag_325\n      jump\t// in\n    tag_392:\n        /* \"#utility.yul\":1783:1786   */\n      dup3\n        /* \"#utility.yul\":1776:1810   */\n      mstore\n        /* \"#utility.yul\":1707:1816   */\n      pop\n      pop\n      jump\t// out\n        /* \"#utility.yul\":1822:2032   */\n    tag_39:\n        /* \"#utility.yul\":1909:1913   */\n      0x00\n        /* \"#utility.yul\":1947:1949   */\n      0x20\n        /* \"#utility.yul\":1936:1945   */\n      dup3\n        /* \"#utility.yul\":1932:1950   */\n      add\n        /* \"#utility.yul\":1924:1950   */\n      swap1\n      pop\n        /* \"#utility.yul\":1960:2025   */\n      tag_394\n        /* \"#utility.yul\":2022:2023   */\n      0x00\n        /* \"#utility.yul\":2011:2020   */\n      dup4\n        /* \"#utility.yul\":2007:2024   */\n      add\n        /* \"#utility.yul\":1998:2004   */\n      dup5\n        /* \"#utility.yul\":1960:2025   */\n      tag_326\n      jump\t// in\n    tag_394:\n        /* \"#utility.yul\":1822:2032   */\n      swap3\n      swap2\n      pop\n      pop\n      jump\t// out\n        /* \"#utility.yul\":2038:2115   */\n    tag_327:\n        /* \"#utility.yul\":2075:2082   */\n      0x00\n        /* \"#utility.yul\":2104:2109   */\n      dup2\n        /* \"#utility.yul\":2093:2109   */\n      swap1\n      pop\n        /* \"#utility.yul\":2038:2115   */\n      swap2\n      swap1\n      pop\n      jump\t// out\n        /* \"#utility.yul\":2121:2243   */\n    tag_328:\n        /* \"#utility.yul\":2194:2218   */\n      tag_397\n        /* \"#utility.yul\":2212:2217   */\n      dup2\n        /* \"#utility.yul\":2194:2218   */\n      tag_327\n      jump\t// in\n    tag_397:\n        /* \"#utility.yul\":2187:2192   */\n      dup2\n        /* \"#utility.yul\":2184:2219   */\n      eq\n        /* \"#utility.yul\":2174:2237   */\n      tag_398\n      jumpi\n        /* \"#utility.yul\":2233:2234   */\n      0x00\n        /* \"#utility.yul\":2230:2231   */\n      dup1\n        /* \"#utility.yul\":2223:2235   */\n      revert\n        /* \"#utility.yul\":2174:2237   */\n    tag_398:\n        /* \"#utility.yul\":2121:2243   */\n      pop\n      jump\t// out\n        /* \"#utility.yul\":2249:2388   */\n    tag_329:\n        /* \"#utility.yul\":2295:2300   */\n      0x00\n        /* \"#utility.yul\":2333:2339   */\n      dup2\n        /* \"#utility.yul\":2320:2340   */\n      calldataload\n        /* \"#utility.yul\":2311:2340   */\n      swap1\n      pop\n        /* \"#utility.yul\":2349:2382   */\n      tag_400\n        /* \"#utility.yul\":2376:2381   */\n      dup2\n        /* \"#utility.yul\":2349:2382   */\n      tag_328\n      jump\t// in\n    tag_400:\n        /* \"#utility.yul\":2249:2388   */\n      swap3\n      swap2\n      pop\n      pop\n      jump\t// out\n        /* \"#utility.yul\":2394:2723   */\n    tag_49:\n        /* \"#utility.yul\":2453:2459   */\n      0x00\n        /* \"#utility.yul\":2502:2504   */\n      0x20\n        /* \"#utility.yul\":2490:2499   */\n      dup3\n        /* \"#utility.yul\":2481:2488   */\n      dup5\n        /* \"#utility.yul\":2477:2500   */\n      sub\n        /* \"#utility.yul\":2473:2505   */\n      slt\n        /* \"#utility.yul\":2470:2589   */\n      iszero\n      tag_402\n      jumpi\n        /* \"#utility.yul\":2508:2587   */\n      tag_403\n      tag_319\n      jump\t// in\n    tag_403:\n        /* \"#utility.yul\":2470:2589   */\n    tag_402:\n        /* \"#utility.yul\":2628:2629   */\n      0x00\n        /* \"#utility.yul\":2653:2706   */\n      tag_404\n        /* \"#utility.yul\":2698:2705   */\n      dup5\n        /* \"#utility.yul\":2689:2695   */\n      dup3\n        /* \"#utility.yul\":2678:2687   */\n      dup6\n        /* \"#utility.yul\":2674:2696   */\n      add\n        /* \"#utility.yul\":2653:2706   */\n      tag_329\n      jump\t// in\n    tag_404:\n        /* \"#utility.yul\":2643:2706   */\n      swap2\n      pop\n        /* \"#utility.yul\":2599:2716   */\n      pop\n        /* \"#utility.yul\":2394:2723   */\n      swap3\n      swap2\n      pop\n      pop\n      jump\t// out\n        /* \"#utility.yul\":2729:2847   */\n    tag_330:\n        /* \"#utility.yul\":2816:2840   */\n      tag_406\n        /* \"#utility.yul\":2834:2839   */\n      dup2\n        /* \"#utility.yul\":2816:2840   */\n      tag_327\n      jump\t// in\n    tag_406:\n        /* \"#utility.yul\":2811:2814   */\n      dup3\n        /* \"#utility.yul\":2804:2841   */\n      mstore\n        /* \"#utility.yul\":2729:2847   */\n      pop\n      pop\n      jump\t// out\n        /* \"#utility.yul\":2853:3075   */\n    tag_52:\n        /* \"#utility.yul\":2946:2950   */\n      0x00\n        /* \"#utility.yul\":2984:2986   */\n      0x20\n        /* \"#utility.yul\":2973:2982   */\n      dup3\n        /* \"#utility.yul\":2969:2987   */\n      add\n        /* \"#utility.yul\":2961:2987   */\n      swap1\n      pop\n        /* \"#utility.yul\":2997:3068   */\n      tag_408\n        /* \"#utility.yul\":3065:3066   */\n      0x00\n        /* \"#utility.yul\":3054:3063   */\n      dup4\n        /* \"#utility.yul\":3050:3067   */\n      add\n        /* \"#utility.yul\":3041:3047   */\n      dup5\n        /* \"#utility.yul\":2997:3068   */\n      tag_330\n      jump\t// in\n    tag_408:\n        /* \"#utility.yul\":2853:3075   */\n      swap3\n      swap2\n      pop\n      pop\n      jump\t// out\n        /* \"#utility.yul\":3081:3167   */\n    tag_331:\n        /* \"#utility.yul\":3116:3123   */\n      0x00\n        /* \"#utility.yul\":3156:3160   */\n      0xff\n        /* \"#utility.yul\":3149:3154   */\n      dup3\n        /* \"#utility.yul\":3145:3161   */\n      and\n        /* \"#utility.yul\":3134:3161   */\n      swap1\n      pop\n        /* \"#utility.yul\":3081:3167   */\n      swap2\n      swap1\n      pop\n      jump\t// out\n        /* \"#utility.yul\":3173:3285   */\n    tag_332:\n        /* \"#utility.yul\":3256:3278   */\n      tag_411\n        /* \"#utility.yul\":3272:3277   */\n      dup2\n        /* \"#utility.yul\":3256:3278   */\n      tag_331\n      jump\t// in\n    tag_411:\n        /* \"#utility.yul\":3251:3254   */\n      dup3\n        /* \"#utility.yul\":3244:3279   */\n      mstore\n        /* \"#utility.yul\":3173:3285   */\n      pop\n      pop\n      jump\t// out\n        /* \"#utility.yul\":3291:3505   */\n    tag_73:\n        /* \"#utility.yul\":3380:3384   */\n      0x00\n        /* \"#utility.yul\":3418:3420   */\n      0x20\n        /* \"#utility.yul\":3407:3416   */\n      dup3\n        /* \"#utility.yul\":3403:3421   */\n      add\n        /* \"#utility.yul\":3395:3421   */\n      swap1\n      pop\n        /* \"#utility.yul\":3431:3498   */\n      tag_413\n        /* \"#utility.yul\":3495:3496   */\n      0x00\n        /* \"#utility.yul\":3484:3493   */\n      dup4\n        /* \"#utility.yul\":3480:3497   */\n      add\n        /* \"#utility.yul\":3471:3477   */\n      dup5\n        /* \"#utility.yul\":3431:3498   */\n      tag_332\n      jump\t// in\n    tag_413:\n        /* \"#utility.yul\":3291:3505   */\n      swap3\n      swap2\n      pop\n      pop\n      jump\t// out\n        /* \"#utility.yul\":3511:3612   */\n    tag_333:\n        /* \"#utility.yul\":3547:3554   */\n      0x00\n        /* \"#utility.yul\":3587:3605   */\n      0xffffffffffffffff\n        /* \"#utility.yul\":3580:3585   */\n      dup3\n        /* \"#utility.yul\":3576:3606   */\n      and\n        /* \"#utility.yul\":3565:3606   */\n      swap1\n      pop\n        /* \"#utility.yul\":3511:3612   */\n      swap2\n      swap1\n      pop\n      jump\t// out\n        /* \"#utility.yul\":3618:3733   */\n    tag_334:\n        /* \"#utility.yul\":3703:3726   */\n      tag_416\n        /* \"#utility.yul\":3720:3725   */\n      dup2\n        /* \"#utility.yul\":3703:3726   */\n      tag_333\n      jump\t// in\n    tag_416:\n        /* \"#utility.yul\":3698:3701   */\n      dup3\n        /* \"#utility.yul\":3691:3727   */\n      mstore\n        /* \"#utility.yul\":3618:3733   */\n      pop\n      pop\n      jump\t// out\n        /* \"#utility.yul\":3739:4165   */\n    tag_87:\n        /* \"#utility.yul\":3880:3884   */\n      0x00\n        /* \"#utility.yul\":3918:3920   */\n      0x60\n        /* \"#utility.yul\":3907:3916   */\n      dup3\n        /* \"#utility.yul\":3903:3921   */\n      add\n        /* \"#utility.yul\":3895:3921   */\n      swap1\n      pop\n        /* \"#utility.yul\":3931:4002   */\n      tag_418\n        /* \"#utility.yul\":3999:4000   */\n      0x00\n        /* \"#utility.yul\":3988:3997   */\n      dup4\n        /* \"#utility.yul\":3984:4001   */\n      add\n        /* \"#utility.yul\":3975:3981   */\n      dup7\n        /* \"#utility.yul\":3931:4002   */\n      tag_330\n      jump\t// in\n    tag_418:\n        /* \"#utility.yul\":4012:4082   */\n      tag_419\n        /* \"#utility.yul\":4078:4080   */\n      0x20\n        /* \"#utility.yul\":4067:4076   */\n      dup4\n        /* \"#utility.yul\":4063:4081   */\n      add\n        /* \"#utility.yul\":4054:4060   */\n      dup6\n        /* \"#utility.yul\":4012:4082   */\n      tag_334\n      jump\t// in\n    tag_419:\n        /* \"#utility.yul\":4092:4158   */\n      tag_420\n        /* \"#utility.yul\":4154:4156   */\n      0x40\n        /* \"#utility.yul\":4143:4152   */\n      dup4\n        /* \"#utility.yul\":4139:4157   */\n      add\n        /* \"#utility.yul\":4130:4136   */\n      dup5\n        /* \"#utility.yul\":4092:4158   */\n      tag_326\n      jump\t// in\n    tag_420:\n        /* \"#utility.yul\":3739:4165   */\n      swap5\n      swap4\n      pop\n      pop\n      pop\n      pop\n      jump\t// out\n        /* \"#utility.yul\":4171:4293   */\n    tag_335:\n        /* \"#utility.yul\":4244:4268   */\n      tag_422\n        /* \"#utility.yul\":4262:4267   */\n      dup2\n        /* \"#utility.yul\":4244:4268   */\n      tag_316\n      jump\t// in\n    tag_422:\n        /* \"#utility.yul\":4237:4242   */\n      dup2\n        /* \"#utility.yul\":4234:4269   */\n      eq\n        /* \"#utility.yul\":4224:4287   */\n      tag_423\n      jumpi\n        /* \"#utility.yul\":4283:4284   */\n      0x00\n        /* \"#utility.yul\":4280:4281   */\n      dup1\n        /* \"#utility.yul\":4273:4285   */\n      revert\n        /* \"#utility.yul\":4224:4287   */\n    tag_423:\n        /* \"#utility.yul\":4171:4293   */\n      pop\n      jump\t// out\n        /* \"#utility.yul\":4299:4438   */\n    tag_336:\n        /* \"#utility.yul\":4345:4350   */\n      0x00\n        /* \"#utility.yul\":4383:4389   */\n      dup2\n        /* \"#utility.yul\":4370:4390   */\n      calldataload\n        /* \"#utility.yul\":4361:4390   */\n      swap1\n      pop\n        /* \"#utility.yul\":4399:4432   */\n      tag_425\n        /* \"#utility.yul\":4426:4431   */\n      dup2\n        /* \"#utility.yul\":4399:4432   */\n      tag_335\n      jump\t// in\n    tag_425:\n        /* \"#utility.yul\":4299:4438   */\n      swap3\n      swap2\n      pop\n      pop\n      jump\t// out\n        /* \"#utility.yul\":4444:4773   */\n    tag_127:\n        /* \"#utility.yul\":4503:4509   */\n      0x00\n        /* \"#utility.yul\":4552:4554   */\n      0x20\n        /* \"#utility.yul\":4540:4549   */\n      dup3\n        /* \"#utility.yul\":4531:4538   */\n      dup5\n        /* \"#utility.yul\":4527:4550   */\n      sub\n        /* \"#utility.yul\":4523:4555   */\n      slt\n        /* \"#utility.yul\":4520:4639   */\n      iszero\n      tag_427\n      jumpi\n        /* \"#utility.yul\":4558:4637   */\n      tag_428\n      tag_319\n      jump\t// in\n    tag_428:\n        /* \"#utility.yul\":4520:4639   */\n    tag_427:\n        /* \"#utility.yul\":4678:4679   */\n      0x00\n        /* \"#utility.yul\":4703:4756   */\n      tag_429\n        /* \"#utility.yul\":4748:4755   */\n      dup5\n        /* \"#utility.yul\":4739:4745   */\n      dup3\n        /* \"#utility.yul\":4728:4737   */\n      dup6\n        /* \"#utility.yul\":4724:4746   */\n      add\n        /* \"#utility.yul\":4703:4756   */\n      tag_336\n      jump\t// in\n    tag_429:\n        /* \"#utility.yul\":4693:4756   */\n      swap2\n      pop\n        /* \"#utility.yul\":4649:4766   */\n      pop\n        /* \"#utility.yul\":4444:4773   */\n      swap3\n      swap2\n      pop\n      pop\n      jump\t// out\n        /* \"#utility.yul\":4779:4897   */\n    tag_337:\n        /* \"#utility.yul\":4866:4890   */\n      tag_431\n        /* \"#utility.yul\":4884:4889   */\n      dup2\n        /* \"#utility.yul\":4866:4890   */\n      tag_322\n      jump\t// in\n    tag_431:\n        /* \"#utility.yul\":4861:4864   */\n      dup3\n        /* \"#utility.yul\":4854:4891   */\n      mstore\n        /* \"#utility.yul\":4779:4897   */\n      pop\n      pop\n      jump\t// out\n        /* \"#utility.yul\":4903:5125   */\n    tag_130:\n        /* \"#utility.yul\":4996:5000   */\n      0x00\n        /* \"#utility.yul\":5034:5036   */\n      0x20\n        /* \"#utility.yul\":5023:5032   */\n      dup3\n        /* \"#utility.yul\":5019:5037   */\n      add\n        /* \"#utility.yul\":5011:5037   */\n      swap1\n      pop\n        /* \"#utility.yul\":5047:5118   */\n      tag_433\n        /* \"#utility.yul\":5115:5116   */\n      0x00\n        /* \"#utility.yul\":5104:5113   */\n      dup4\n        /* \"#utility.yul\":5100:5117   */\n      add\n        /* \"#utility.yul\":5091:5097   */\n      dup5\n        /* \"#utility.yul\":5047:5118   */\n      tag_337\n      jump\t// in\n    tag_433:\n        /* \"#utility.yul\":4903:5125   */\n      swap3\n      swap2\n      pop\n      pop\n      jump\t// out\n        /* \"#utility.yul\":5131:5300   */\n    tag_338:\n        /* \"#utility.yul\":5215:5226   */\n      0x00\n        /* \"#utility.yul\":5249:5255   */\n      dup3\n        /* \"#utility.yul\":5244:5247   */\n      dup3\n        /* \"#utility.yul\":5237:5256   */\n      mstore\n        /* \"#utility.yul\":5289:5293   */\n      0x20\n        /* \"#utility.yul\":5284:5287   */\n      dup3\n        /* \"#utility.yul\":5280:5294   */\n      add\n        /* \"#utility.yul\":5265:5294   */\n      swap1\n      pop\n        /* \"#utility.yul\":5131:5300   */\n      swap3\n      swap2\n      pop\n      pop\n      jump\t// out\n        /* \"#utility.yul\":5306:5483   */\n    tag_339:\n        /* \"#utility.yul\":5446:5475   */\n      0x47616d6520616c726561647920686173203220706c61796572732e0000000000\n        /* \"#utility.yul\":5442:5443   */\n      0x00\n        /* \"#utility.yul\":5434:5440   */\n      dup3\n        /* \"#utility.yul\":5430:5444   */\n      add\n        /* \"#utility.yul\":5423:5476   */\n      mstore\n        /* \"#utility.yul\":5306:5483   */\n      pop\n      jump\t// out\n        /* \"#utility.yul\":5489:5855   */\n    tag_340:\n        /* \"#utility.yul\":5631:5634   */\n      0x00\n        /* \"#utility.yul\":5652:5719   */\n      tag_437\n        /* \"#utility.yul\":5716:5718   */\n      0x1b\n        /* \"#utility.yul\":5711:5714   */\n      dup4\n        /* \"#utility.yul\":5652:5719   */\n      tag_338\n      jump\t// in\n    tag_437:\n        /* \"#utility.yul\":5645:5719   */\n      swap2\n      pop\n        /* \"#utility.yul\":5728:5821   */\n      tag_438\n        /* \"#utility.yul\":5817:5820   */\n      dup3\n        /* \"#utility.yul\":5728:5821   */\n      tag_339\n      jump\t// in\n    tag_438:\n        /* \"#utility.yul\":5846:5848   */\n      0x20\n        /* \"#utility.yul\":5841:5844   */\n      dup3\n        /* \"#utility.yul\":5837:5849   */\n      add\n        /* \"#utility.yul\":5830:5849   */\n      swap1\n      pop\n        /* \"#utility.yul\":5489:5855   */\n      swap2\n      swap1\n      pop\n      jump\t// out\n        /* \"#utility.yul\":5861:6280   */\n    tag_134:\n        /* \"#utility.yul\":6027:6031   */\n      0x00\n        /* \"#utility.yul\":6065:6067   */\n      0x20\n        /* \"#utility.yul\":6054:6063   */\n      dup3\n        /* \"#utility.yul\":6050:6068   */\n      add\n        /* \"#utility.yul\":6042:6068   */\n      swap1\n      pop\n        /* \"#utility.yul\":6114:6123   */\n      dup2\n        /* \"#utility.yul\":6108:6112   */\n      dup2\n        /* \"#utility.yul\":6104:6124   */\n      sub\n        /* \"#utility.yul\":6100:6101   */\n      0x00\n        /* \"#utility.yul\":6089:6098   */\n      dup4\n        /* \"#utility.yul\":6085:6102   */\n      add\n        /* \"#utility.yul\":6078:6125   */\n      mstore\n        /* \"#utility.yul\":6142:6273   */\n      tag_440\n        /* \"#utility.yul\":6268:6272   */\n      dup2\n        /* \"#utility.yul\":6142:6273   */\n      tag_340\n      jump\t// in\n    tag_440:\n        /* \"#utility.yul\":6134:6273   */\n      swap1\n      pop\n        /* \"#utility.yul\":5861:6280   */\n      swap2\n      swap1\n      pop\n      jump\t// out\n        /* \"#utility.yul\":6286:6464   */\n    tag_341:\n        /* \"#utility.yul\":6426:6456   */\n      0x596f7520617265206e6f7420616c6c6f77656420746f20706c61792e00000000\n        /* \"#utility.yul\":6422:6423   */\n      0x00\n        /* \"#utility.yul\":6414:6420   */\n      dup3\n        /* \"#utility.yul\":6410:6424   */\n      add\n        /* \"#utility.yul\":6403:6457   */\n      mstore\n        /* \"#utility.yul\":6286:6464   */\n      pop\n      jump\t// out\n        /* \"#utility.yul\":6470:6836   */\n    tag_342:\n        /* \"#utility.yul\":6612:6615   */\n      0x00\n        /* \"#utility.yul\":6633:6700   */\n      tag_443\n        /* \"#utility.yul\":6697:6699   */\n      0x1c\n        /* \"#utility.yul\":6692:6695   */\n      dup4\n        /* \"#utility.yul\":6633:6700   */\n      tag_338\n      jump\t// in\n    tag_443:\n        /* \"#utility.yul\":6626:6700   */\n      swap2\n      pop\n        /* \"#utility.yul\":6709:6802   */\n      tag_444\n        /* \"#utility.yul\":6798:6801   */\n      dup3\n        /* \"#utility.yul\":6709:6802   */\n      tag_341\n      jump\t// in\n    tag_444:\n        /* \"#utility.yul\":6827:6829   */\n      0x20\n        /* \"#utility.yul\":6822:6825   */\n      dup3\n        /* \"#utility.yul\":6818:6830   */\n      add\n        /* \"#utility.yul\":6811:6830   */\n      swap1\n      pop\n        /* \"#utility.yul\":6470:6836   */\n      swap2\n      swap1\n      pop\n      jump\t// out\n        /* \"#utility.yul\":6842:7261   */\n    tag_137:\n        /* \"#utility.yul\":7008:7012   */\n      0x00\n        /* \"#utility.yul\":7046:7048   */\n      0x20\n        /* \"#utility.yul\":7035:7044   */\n      dup3\n        /* \"#utility.yul\":7031:7049   */\n      add\n        /* \"#utility.yul\":7023:7049   */\n      swap1\n      pop\n        /* \"#utility.yul\":7095:7104   */\n      dup2\n        /* \"#utility.yul\":7089:7093   */\n      dup2\n        /* \"#utility.yul\":7085:7105   */\n      sub\n        /* \"#utility.yul\":7081:7082   */\n      0x00\n        /* \"#utility.yul\":7070:7079   */\n      dup4\n        /* \"#utility.yul\":7066:7083   */\n      add\n        /* \"#utility.yul\":7059:7106   */\n      mstore\n        /* \"#utility.yul\":7123:7254   */\n      tag_446\n        /* \"#utility.yul\":7249:7253   */\n      dup2\n        /* \"#utility.yul\":7123:7254   */\n      tag_342\n      jump\t// in\n    tag_446:\n        /* \"#utility.yul\":7115:7254   */\n      swap1\n      pop\n        /* \"#utility.yul\":6842:7261   */\n      swap2\n      swap1\n      pop\n      jump\t// out\n        /* \"#utility.yul\":7267:7447   */\n    tag_141:\n        /* \"#utility.yul\":7315:7392   */\n      0x4e487b7100000000000000000000000000000000000000000000000000000000\n        /* \"#utility.yul\":7312:7313   */\n      0x00\n        /* \"#utility.yul\":7305:7393   */\n      mstore\n        /* \"#utility.yul\":7412:7416   */\n      0x32\n        /* \"#utility.yul\":7409:7410   */\n      0x04\n        /* \"#utility.yul\":7402:7417   */\n      mstore\n        /* \"#utility.yul\":7436:7440   */\n      0x24\n        /* \"#utility.yul\":7433:7434   */\n      0x00\n        /* \"#utility.yul\":7426:7441   */\n      revert\n        /* \"#utility.yul\":7453:7628   */\n    tag_343:\n        /* \"#utility.yul\":7593:7620   */\n      0x506179203120657468657220746f20706c61792067616d652e00000000000000\n        /* \"#utility.yul\":7589:7590   */\n      0x00\n        /* \"#utility.yul\":7581:7587   */\n      dup3\n        /* \"#utility.yul\":7577:7591   */\n      add\n        /* \"#utility.yul\":7570:7621   */\n      mstore\n        /* \"#utility.yul\":7453:7628   */\n      pop\n      jump\t// out\n        /* \"#utility.yul\":7634:8000   */\n    tag_344:\n        /* \"#utility.yul\":7776:7779   */\n      0x00\n        /* \"#utility.yul\":7797:7864   */\n      tag_450\n        /* \"#utility.yul\":7861:7863   */\n      0x19\n        /* \"#utility.yul\":7856:7859   */\n      dup4\n        /* \"#utility.yul\":7797:7864   */\n      tag_338\n      jump\t// in\n    tag_450:\n        /* \"#utility.yul\":7790:7864   */\n      swap2\n      pop\n        /* \"#utility.yul\":7873:7966   */\n      tag_451\n        /* \"#utility.yul\":7962:7965   */\n      dup3\n        /* \"#utility.yul\":7873:7966   */\n      tag_343\n      jump\t// in\n    tag_451:\n        /* \"#utility.yul\":7991:7993   */\n      0x20\n        /* \"#utility.yul\":7986:7989   */\n      dup3\n        /* \"#utility.yul\":7982:7994   */\n      add\n        /* \"#utility.yul\":7975:7994   */\n      swap1\n      pop\n        /* \"#utility.yul\":7634:8000   */\n      swap2\n      swap1\n      pop\n      jump\t// out\n        /* \"#utility.yul\":8006:8425   */\n    tag_146:\n        /* \"#utility.yul\":8172:8176   */\n      0x00\n        /* \"#utility.yul\":8210:8212   */\n      0x20\n        /* \"#utility.yul\":8199:8208   */\n      dup3\n        /* \"#utility.yul\":8195:8213   */\n      add\n        /* \"#utility.yul\":8187:8213   */\n      swap1\n      pop\n        /* \"#utility.yul\":8259:8268   */\n      dup2\n        /* \"#utility.yul\":8253:8257   */\n      dup2\n        /* \"#utility.yul\":8249:8269   */\n      sub\n        /* \"#utility.yul\":8245:8246   */\n      0x00\n        /* \"#utility.yul\":8234:8243   */\n      dup4\n        /* \"#utility.yul\":8230:8247   */\n      add\n        /* \"#utility.yul\":8223:8270   */\n      mstore\n        /* \"#utility.yul\":8287:8418   */\n      tag_453\n        /* \"#utility.yul\":8413:8417   */\n      dup2\n        /* \"#utility.yul\":8287:8418   */\n      tag_344\n      jump\t// in\n    tag_453:\n        /* \"#utility.yul\":8279:8418   */\n      swap1\n      pop\n        /* \"#utility.yul\":8006:8425   */\n      swap2\n      swap1\n      pop\n      jump\t// out\n        /* \"#utility.yul\":8431:8611   */\n    tag_345:\n        /* \"#utility.yul\":8479:8556   */\n      0x4e487b7100000000000000000000000000000000000000000000000000000000\n        /* \"#utility.yul\":8476:8477   */\n      0x00\n        /* \"#utility.yul\":8469:8557   */\n      mstore\n        /* \"#utility.yul\":8576:8580   */\n      0x11\n        /* \"#utility.yul\":8573:8574   */\n      0x04\n        /* \"#utility.yul\":8566:8581   */\n      mstore\n        /* \"#utility.yul\":8600:8604   */\n      0x24\n        /* \"#utility.yul\":8597:8598   */\n      0x00\n        /* \"#utility.yul\":8590:8605   */\n      revert\n        /* \"#utility.yul\":8617:8808   */\n    tag_148:\n        /* \"#utility.yul\":8657:8660   */\n      0x00\n        /* \"#utility.yul\":8676:8696   */\n      tag_456\n        /* \"#utility.yul\":8694:8695   */\n      dup3\n        /* \"#utility.yul\":8676:8696   */\n      tag_316\n      jump\t// in\n    tag_456:\n        /* \"#utility.yul\":8671:8696   */\n      swap2\n      pop\n        /* \"#utility.yul\":8710:8730   */\n      tag_457\n        /* \"#utility.yul\":8728:8729   */\n      dup4\n        /* \"#utility.yul\":8710:8730   */\n      tag_316\n      jump\t// in\n    tag_457:\n        /* \"#utility.yul\":8705:8730   */\n      swap3\n      pop\n        /* \"#utility.yul\":8753:8754   */\n      dup3\n        /* \"#utility.yul\":8750:8751   */\n      dup3\n        /* \"#utility.yul\":8746:8755   */\n      add\n        /* \"#utility.yul\":8739:8755   */\n      swap1\n      pop\n        /* \"#utility.yul\":8774:8777   */\n      dup1\n        /* \"#utility.yul\":8771:8772   */\n      dup3\n        /* \"#utility.yul\":8768:8778   */\n      gt\n        /* \"#utility.yul\":8765:8801   */\n      iszero\n      tag_458\n      jumpi\n        /* \"#utility.yul\":8781:8799   */\n      tag_459\n      tag_345\n      jump\t// in\n    tag_459:\n        /* \"#utility.yul\":8765:8801   */\n    tag_458:\n        /* \"#utility.yul\":8617:8808   */\n      swap3\n      swap2\n      pop\n      pop\n      jump\t// out\n        /* \"#utility.yul\":8814:9047   */\n    tag_151:\n        /* \"#utility.yul\":8853:8856   */\n      0x00\n        /* \"#utility.yul\":8876:8900   */\n      tag_461\n        /* \"#utility.yul\":8894:8899   */\n      dup3\n        /* \"#utility.yul\":8876:8900   */\n      tag_316\n      jump\t// in\n    tag_461:\n        /* \"#utility.yul\":8867:8900   */\n      swap2\n      pop\n        /* \"#utility.yul\":8922:8988   */\n      0xffffffffffffffffffffffffffffffffffffffffffffffffffffffffffffffff\n        /* \"#utility.yul\":8915:8920   */\n      dup3\n        /* \"#utility.yul\":8912:8989   */\n      sub\n        /* \"#utility.yul\":8909:9012   */\n      tag_462\n      jumpi\n        /* \"#utility.yul\":8992:9010   */\n      tag_463\n      tag_345\n      jump\t// in\n    tag_463:\n        /* \"#utility.yul\":8909:9012   */\n    tag_462:\n        /* \"#utility.yul\":9039:9040   */\n      0x01\n        /* \"#utility.yul\":9032:9037   */\n      dup3\n        /* \"#utility.yul\":9028:9041   */\n      add\n        /* \"#utility.yul\":9021:9041   */\n      swap1\n      pop\n        /* \"#utility.yul\":8814:9047   */\n      swap2\n      swap1\n      pop\n      jump\t// out\n        /* \"#utility.yul\":9053:9385   */\n    tag_153:\n        /* \"#utility.yul\":9174:9178   */\n      0x00\n        /* \"#utility.yul\":9212:9214   */\n      0x40\n        /* \"#utility.yul\":9201:9210   */\n      dup3\n        /* \"#utility.yul\":9197:9215   */\n      add\n        /* \"#utility.yul\":9189:9215   */\n      swap1\n      pop\n        /* \"#utility.yul\":9225:9296   */\n      tag_465\n        /* \"#utility.yul\":9293:9294   */\n      0x00\n        /* \"#utility.yul\":9282:9291   */\n      dup4\n        /* \"#utility.yul\":9278:9295   */\n      add\n        /* \"#utility.yul\":9269:9275   */\n      dup6\n        /* \"#utility.yul\":9225:9296   */\n      tag_337\n      jump\t// in\n    tag_465:\n        /* \"#utility.yul\":9306:9378   */\n      tag_466\n        /* \"#utility.yul\":9374:9376   */\n      0x20\n        /* \"#utility.yul\":9363:9372   */\n      dup4\n        /* \"#utility.yul\":9359:9377   */\n      add\n        /* \"#utility.yul\":9350:9356   */\n      dup5\n        /* \"#utility.yul\":9306:9378   */\n      tag_317\n      jump\t// in\n    tag_466:\n        /* \"#utility.yul\":9053:9385   */\n      swap4\n      swap3\n      pop\n      pop\n      pop\n      jump\t// out\n        /* \"#utility.yul\":9391:9470   */\n    tag_346:\n        /* \"#utility.yul\":9430:9437   */\n      0x00\n        /* \"#utility.yul\":9459:9464   */\n      dup2\n        /* \"#utility.yul\":9448:9464   */\n      swap1\n      pop\n        /* \"#utility.yul\":9391:9470   */\n      swap2\n      swap1\n      pop\n      jump\t// out\n        /* \"#utility.yul\":9476:9633   */\n    tag_347:\n        /* \"#utility.yul\":9581:9626   */\n      tag_469\n        /* \"#utility.yul\":9601:9625   */\n      tag_470\n        /* \"#utility.yul\":9619:9624   */\n      dup3\n        /* \"#utility.yul\":9601:9625   */\n      tag_327\n      jump\t// in\n    tag_470:\n        /* \"#utility.yul\":9581:9626   */\n      tag_346\n      jump\t// in\n    tag_469:\n        /* \"#utility.yul\":9576:9579   */\n      dup3\n        /* \"#utility.yul\":9569:9627   */\n      mstore\n        /* \"#utility.yul\":9476:9633   */\n      pop\n      pop\n      jump\t// out\n        /* \"#utility.yul\":9639:9895   */\n    tag_157:\n        /* \"#utility.yul\":9751:9754   */\n      0x00\n        /* \"#utility.yul\":9766:9841   */\n      tag_472\n        /* \"#utility.yul\":9837:9840   */\n      dup3\n        /* \"#utility.yul\":9828:9834   */\n      dup5\n        /* \"#utility.yul\":9766:9841   */\n      tag_347\n      jump\t// in\n    tag_472:\n        /* \"#utility.yul\":9866:9868   */\n      0x20\n        /* \"#utility.yul\":9861:9864   */\n      dup3\n        /* \"#utility.yul\":9857:9869   */\n      add\n        /* \"#utility.yul\":9850:9869   */\n      swap2\n      pop\n        /* \"#utility.yul\":9886:9889   */\n      dup2\n        /* \"#utility.yul\":9879:9889   */\n      swap1\n      pop\n        /* \"#utility.yul\":9639:9895   */\n      swap3\n      swap2\n      pop\n      pop\n      jump\t// out\n        /* \"#utility.yul\":9901:10127   */\n    tag_348:\n        /* \"#utility.yul\":10041:10075   */\n      0x596f75206e65656420746f20776169742031206d696e75746520666f72207769\n        /* \"#utility.yul\":10037:10038   */\n      0x00\n        /* \"#utility.yul\":10029:10035   */\n      dup3\n        /* \"#utility.yul\":10025:10039   */\n      add\n        /* \"#utility.yul\":10018:10076   */\n      mstore\n        /* \"#utility.yul\":10110:10119   */\n      0x7468647261772e00000000000000000000000000000000000000000000000000\n        /* \"#utility.yul\":10105:10107   */\n      0x20\n        /* \"#utility.yul\":10097:10103   */\n      dup3\n        /* \"#utility.yul\":10093:10108   */\n      add\n        /* \"#utility.yul\":10086:10120   */\n      mstore\n        /* \"#utility.yul\":9901:10127   */\n      pop\n      jump\t// out\n        /* \"#utility.yul\":10133:10499   */\n    tag_349:\n        /* \"#utility.yul\":10275:10278   */\n      0x00\n        /* \"#utility.yul\":10296:10363   */\n      tag_475\n        /* \"#utility.yul\":10360:10362   */\n      0x27\n        /* \"#utility.yul\":10355:10358   */\n      dup4\n        /* \"#utility.yul\":10296:10363   */\n      tag_338\n      jump\t// in\n    tag_475:\n        /* \"#utility.yul\":10289:10363   */\n      swap2\n      pop\n        /* \"#utility.yul\":10372:10465   */\n      tag_476\n        /* \"#utility.yul\":10461:10464   */\n      dup3\n        /* \"#utility.yul\":10372:10465   */\n      tag_348\n      jump\t// in\n    tag_476:\n        /* \"#utility.yul\":10490:10492   */\n      0x40\n        /* \"#utility.yul\":10485:10488   */\n      dup3\n        /* \"#utility.yul\":10481:10493   */\n      add\n        /* \"#utility.yul\":10474:10493   */\n      swap1\n      pop\n        /* \"#utility.yul\":10133:10499   */\n      swap2\n      swap1\n      pop\n      jump\t// out\n        /* \"#utility.yul\":10505:10924   */\n    tag_163:\n        /* \"#utility.yul\":10671:10675   */\n      0x00\n        /* \"#utility.yul\":10709:10711   */\n      0x20\n        /* \"#utility.yul\":10698:10707   */\n      dup3\n        /* \"#utility.yul\":10694:10712   */\n      add\n        /* \"#utility.yul\":10686:10712   */\n      swap1\n      pop\n        /* \"#utility.yul\":10758:10767   */\n      dup2\n        /* \"#utility.yul\":10752:10756   */\n      dup2\n        /* \"#utility.yul\":10748:10768   */\n      sub\n        /* \"#utility.yul\":10744:10745   */\n      0x00\n        /* \"#utility.yul\":10733:10742   */\n      dup4\n        /* \"#utility.yul\":10729:10746   */\n      add\n        /* \"#utility.yul\":10722:10769   */\n      mstore\n        /* \"#utility.yul\":10786:10917   */\n      tag_478\n        /* \"#utility.yul\":10912:10916   */\n      dup2\n        /* \"#utility.yul\":10786:10917   */\n      tag_349\n      jump\t// in\n    tag_478:\n        /* \"#utility.yul\":10778:10917   */\n      swap1\n      pop\n        /* \"#utility.yul\":10505:10924   */\n      swap2\n      swap1\n      pop\n      jump\t// out\n        /* \"#utility.yul\":10930:11151   */\n    tag_350:\n        /* \"#utility.yul\":11070:11104   */\n      0x436f6e74726163742068617320696e73756666696369656e742062616c616e63\n        /* \"#utility.yul\":11066:11067   */\n      0x00\n        /* \"#utility.yul\":11058:11064   */\n      dup3\n        /* \"#utility.yul\":11054:11068   */\n      add\n        /* \"#utility.yul\":11047:11105   */\n      mstore\n        /* \"#utility.yul\":11139:11143   */\n      0x652e000000000000000000000000000000000000000000000000000000000000\n        /* \"#utility.yul\":11134:11136   */\n      0x20\n        /* \"#utility.yul\":11126:11132   */\n      dup3\n        /* \"#utility.yul\":11122:11137   */\n      add\n        /* \"#utility.yul\":11115:11144   */\n      mstore\n        /* \"#utility.yul\":10930:11151   */\n      pop\n      jump\t// out\n        /* \"#utility.yul\":11157:11523   */\n    tag_351:\n        /* \"#utility.yul\":11299:11302   */\n      0x00\n        /* \"#utility.yul\":11320:11387   */\n      tag_481\n        /* \"#utility.yul\":11384:11386   */\n      0x22\n        /* \"#utility.yul\":11379:11382   */\n      dup4\n        /* \"#utility.yul\":11320:11387   */\n      tag_338\n      jump\t// in\n    tag_481:\n        /* \"#utility.yul\":11313:11387   */\n      swap2\n      pop\n        /* \"#utility.yul\":11396:11489   */\n      tag_482\n        /* \"#utility.yul\":11485:11488   */\n      dup3\n        /* \"#utility.yul\":11396:11489   */\n      tag_350\n      jump\t// in\n    tag_482:\n        /* \"#utility.yul\":11514:11516   */\n      0x40\n        /* \"#utility.yul\":11509:11512   */\n      dup3\n        /* \"#utility.yul\":11505:11517   */\n      add\n        /* \"#utility.yul\":11498:11517   */\n      swap1\n      pop\n        /* \"#utility.yul\":11157:11523   */\n      swap2\n      swap1\n      pop\n      jump\t// out\n        /* \"#utility.yul\":11529:11948   */\n    tag_166:\n        /* \"#utility.yul\":11695:11699   */\n      0x00\n        /* \"#utility.yul\":11733:11735   */\n      0x20\n        /* \"#utility.yul\":11722:11731   */\n      dup3\n        /* \"#utility.yul\":11718:11736   */\n      add\n        /* \"#utility.yul\":11710:11736   */\n      swap1\n      pop\n        /* \"#utility.yul\":11782:11791   */\n      dup2\n        /* \"#utility.yul\":11776:11780   */\n      dup2\n        /* \"#utility.yul\":11772:11792   */\n      sub\n        /* \"#utility.yul\":11768:11769   */\n      0x00\n        /* \"#utility.yul\":11757:11766   */\n      dup4\n        /* \"#utility.yul\":11753:11770   */\n      add\n        /* \"#utility.yul\":11746:11793   */\n      mstore\n        /* \"#utility.yul\":11810:11941   */\n      tag_484\n        /* \"#utility.yul\":11936:11940   */\n      dup2\n        /* \"#utility.yul\":11810:11941   */\n      tag_351\n      jump\t// in\n    tag_484:\n        /* \"#utility.yul\":11802:11941   */\n      swap1\n      pop\n        /* \"#utility.yul\":11529:11948   */\n      swap2\n      swap1\n      pop\n      jump\t// out\n        /* \"#utility.yul\":11954:12134   */\n    tag_352:\n        /* \"#utility.yul\":12002:12079   */\n      0x4e487b7100000000000000000000000000000000000000000000000000000000\n        /* \"#utility.yul\":11999:12000   */\n      0x00\n        /* \"#utility.yul\":11992:12080   */\n      mstore\n        /* \"#utility.yul\":12099:12103   */\n      0x12\n        /* \"#utility.yul\":12096:12097   */\n      0x04\n        /* \"#utility.yul\":12089:12104   */\n      mstore\n        /* \"#utility.yul\":12123:12127   */\n      0x24\n        /* \"#utility.yul\":12120:12121   */\n      0x00\n        /* \"#utility.yul\":12113:12128   */\n      revert\n        /* \"#utility.yul\":12140:12325   */\n    tag_184:\n        /* \"#utility.yul\":12180:12181   */\n      0x00\n        /* \"#utility.yul\":12197:12217   */\n      tag_487\n        /* \"#utility.yul\":12215:12216   */\n      dup3\n        /* \"#utility.yul\":12197:12217   */\n      tag_316\n      jump\t// in\n    tag_487:\n        /* \"#utility.yul\":12192:12217   */\n      swap2\n      pop\n        /* \"#utility.yul\":12231:12251   */\n      tag_488\n        /* \"#utility.yul\":12249:12250   */\n      dup4\n        /* \"#utility.yul\":12231:12251   */\n      tag_316\n      jump\t// in\n    tag_488:\n        /* \"#utility.yul\":12226:12251   */\n      swap3\n      pop\n        /* \"#utility.yul\":12270:12271   */\n      dup3\n        /* \"#utility.yul\":12260:12295   */\n      tag_489\n      jumpi\n        /* \"#utility.yul\":12275:12293   */\n      tag_490\n      tag_352\n      jump\t// in\n    tag_490:\n        /* \"#utility.yul\":12260:12295   */\n    tag_489:\n        /* \"#utility.yul\":12317:12318   */\n      dup3\n        /* \"#utility.yul\":12314:12315   */\n      dup3\n        /* \"#utility.yul\":12310:12319   */\n      div\n        /* \"#utility.yul\":12305:12319   */\n      swap1\n      pop\n        /* \"#utility.yul\":12140:12325   */\n      swap3\n      swap2\n      pop\n      pop\n      jump\t// out\n        /* \"#utility.yul\":12331:12556   */\n    tag_353:\n        /* \"#utility.yul\":12471:12505   */\n      0x596f75722063686f696365206e6565647320746f206265206265747765656e20\n        /* \"#utility.yul\":12467:12468   */\n      0x00\n        /* \"#utility.yul\":12459:12465   */\n      dup3\n        /* \"#utility.yul\":12455:12469   */\n      add\n        /* \"#utility.yul\":12448:12506   */\n      mstore\n        /* \"#utility.yul\":12540:12548   */\n      0x3020746f20340000000000000000000000000000000000000000000000000000\n        /* \"#utility.yul\":12535:12537   */\n      0x20\n        /* \"#utility.yul\":12527:12533   */\n      dup3\n        /* \"#utility.yul\":12523:12538   */\n      add\n        /* \"#utility.yul\":12516:12549   */\n      mstore\n        /* \"#utility.yul\":12331:12556   */\n      pop\n      jump\t// out\n        /* \"#utility.yul\":12562:12928   */\n    tag_354:\n        /* \"#utility.yul\":12704:12707   */\n      0x00\n        /* \"#utility.yul\":12725:12792   */\n      tag_493\n        /* \"#utility.yul\":12789:12791   */\n      0x26\n        /* \"#utility.yul\":12784:12787   */\n      dup4\n        /* \"#utility.yul\":12725:12792   */\n      tag_338\n      jump\t// in\n    tag_493:\n        /* \"#utility.yul\":12718:12792   */\n      swap2\n      pop\n        /* \"#utility.yul\":12801:12894   */\n      tag_494\n        /* \"#utility.yul\":12890:12893   */\n      dup3\n        /* \"#utility.yul\":12801:12894   */\n      tag_353\n      jump\t// in\n    tag_494:\n        /* \"#utility.yul\":12919:12921   */\n      0x40\n        /* \"#utility.yul\":12914:12917   */\n      dup3\n        /* \"#utility.yul\":12910:12922   */\n      add\n        /* \"#utility.yul\":12903:12922   */\n      swap1\n      pop\n        /* \"#utility.yul\":12562:12928   */\n      swap2\n      swap1\n      pop\n      jump\t// out\n        /* \"#utility.yul\":12934:13353   */\n    tag_218:\n        /* \"#utility.yul\":13100:13104   */\n      0x00\n        /* \"#utility.yul\":13138:13140   */\n      0x20\n        /* \"#utility.yul\":13127:13136   */\n      dup3\n        /* \"#utility.yul\":13123:13141   */\n      add\n        /* \"#utility.yul\":13115:13141   */\n      swap1\n      pop\n        /* \"#utility.yul\":13187:13196   */\n      dup2\n        /* \"#utility.yul\":13181:13185   */\n      dup2\n        /* \"#utility.yul\":13177:13197   */\n      sub\n        /* \"#utility.yul\":13173:13174   */\n      0x00\n        /* \"#utility.yul\":13162:13171   */\n      dup4\n        /* \"#utility.yul\":13158:13175   */\n      add\n        /* \"#utility.yul\":13151:13198   */\n      mstore\n        /* \"#utility.yul\":13215:13346   */\n      tag_496\n        /* \"#utility.yul\":13341:13345   */\n      dup2\n        /* \"#utility.yul\":13215:13346   */\n      tag_354\n      jump\t// in\n    tag_496:\n        /* \"#utility.yul\":13207:13346   */\n      swap1\n      pop\n        /* \"#utility.yul\":12934:13353   */\n      swap2\n      swap1\n      pop\n      jump\t// out\n        /* \"#utility.yul\":13359:13534   */\n    tag_355:\n        /* \"#utility.yul\":13499:13526   */\n      0x596f75206e65656420746f20636f6d6d69742066697273742e00000000000000\n        /* \"#utility.yul\":13495:13496   */\n      0x00\n        /* \"#utility.yul\":13487:13493   */\n      dup3\n        /* \"#utility.yul\":13483:13497   */\n      add\n        /* \"#utility.yul\":13476:13527   */\n      mstore\n        /* \"#utility.yul\":13359:13534   */\n      pop\n      jump\t// out\n        /* \"#utility.yul\":13540:13906   */\n    tag_356:\n        /* \"#utility.yul\":13682:13685   */\n      0x00\n        /* \"#utility.yul\":13703:13770   */\n      tag_499\n        /* \"#utility.yul\":13767:13769   */\n      0x19\n        /* \"#utility.yul\":13762:13765   */\n      dup4\n        /* \"#utility.yul\":13703:13770   */\n      tag_338\n      jump\t// in\n    tag_499:\n        /* \"#utility.yul\":13696:13770   */\n      swap2\n      pop\n        /* \"#utility.yul\":13779:13872   */\n      tag_500\n        /* \"#utility.yul\":13868:13871   */\n      dup3\n        /* \"#utility.yul\":13779:13872   */\n      tag_355\n      jump\t// in\n    tag_500:\n        /* \"#utility.yul\":13897:13899   */\n      0x20\n        /* \"#utility.yul\":13892:13895   */\n      dup3\n        /* \"#utility.yul\":13888:13900   */\n      add\n        /* \"#utility.yul\":13881:13900   */\n      swap1\n      pop\n        /* \"#utility.yul\":13540:13906   */\n      swap2\n      swap1\n      pop\n      jump\t// out\n        /* \"#utility.yul\":13912:14331   */\n    tag_221:\n        /* \"#utility.yul\":14078:14082   */\n      0x00\n        /* \"#utility.yul\":14116:14118   */\n      0x20\n        /* \"#utility.yul\":14105:14114   */\n      dup3\n        /* \"#utility.yul\":14101:14119   */\n      add\n        /* \"#utility.yul\":14093:14119   */\n      swap1\n      pop\n        /* \"#utility.yul\":14165:14174   */\n      dup2\n        /* \"#utility.yul\":14159:14163   */\n      dup2\n        /* \"#utility.yul\":14155:14175   */\n      sub\n        /* \"#utility.yul\":14151:14152   */\n      0x00\n        /* \"#utility.yul\":14140:14149   */\n      dup4\n        /* \"#utility.yul\":14136:14153   */\n      add\n        /* \"#utility.yul\":14129:14176   */\n      mstore\n        /* \"#utility.yul\":14193:14324   */\n      tag_502\n        /* \"#utility.yul\":14319:14323   */\n      dup2\n        /* \"#utility.yul\":14193:14324   */\n      tag_356\n      jump\t// in\n    tag_502:\n        /* \"#utility.yul\":14185:14324   */\n      swap1\n      pop\n        /* \"#utility.yul\":13912:14331   */\n      swap2\n      swap1\n      pop\n      jump\t// out\n        /* \"#utility.yul\":14337:14562   */\n    tag_357:\n        /* \"#utility.yul\":14477:14511   */\n      0x436f6d6d697452657665616c3a3a72657665616c3a20416c7265616479207265\n        /* \"#utility.yul\":14473:14474   */\n      0x00\n        /* \"#utility.yul\":14465:14471   */\n      dup3\n        /* \"#utility.yul\":14461:14475   */\n      add\n        /* \"#utility.yul\":14454:14512   */\n      mstore\n        /* \"#utility.yul\":14546:14554   */\n      0x7665616c65640000000000000000000000000000000000000000000000000000\n        /* \"#utility.yul\":14541:14543   */\n      0x20\n        /* \"#utility.yul\":14533:14539   */\n      dup3\n        /* \"#utility.yul\":14529:14544   */\n      add\n        /* \"#utility.yul\":14522:14555   */\n      mstore\n        /* \"#utility.yul\":14337:14562   */\n      pop\n      jump\t// out\n        /* \"#utility.yul\":14568:14934   */\n    tag_358:\n        /* \"#utility.yul\":14710:14713   */\n      0x00\n        /* \"#utility.yul\":14731:14798   */\n      tag_505\n        /* \"#utility.yul\":14795:14797   */\n      0x26\n        /* \"#utility.yul\":14790:14793   */\n      dup4\n        /* \"#utility.yul\":14731:14798   */\n      tag_338\n      jump\t// in\n    tag_505:\n        /* \"#utility.yul\":14724:14798   */\n      swap2\n      pop\n        /* \"#utility.yul\":14807:14900   */\n      tag_506\n        /* \"#utility.yul\":14896:14899   */\n      dup3\n        /* \"#utility.yul\":14807:14900   */\n      tag_357\n      jump\t// in\n    tag_506:\n        /* \"#utility.yul\":14925:14927   */\n      0x40\n        /* \"#utility.yul\":14920:14923   */\n      dup3\n        /* \"#utility.yul\":14916:14928   */\n      add\n        /* \"#utility.yul\":14909:14928   */\n      swap1\n      pop\n        /* \"#utility.yul\":14568:14934   */\n      swap2\n      swap1\n      pop\n      jump\t// out\n        /* \"#utility.yul\":14940:15359   */\n    tag_232:\n        /* \"#utility.yul\":15106:15110   */\n      0x00\n        /* \"#utility.yul\":15144:15146   */\n      0x20\n        /* \"#utility.yul\":15133:15142   */\n      dup3\n        /* \"#utility.yul\":15129:15147   */\n      add\n        /* \"#utility.yul\":15121:15147   */\n      swap1\n      pop\n        /* \"#utility.yul\":15193:15202   */\n      dup2\n        /* \"#utility.yul\":15187:15191   */\n      dup2\n        /* \"#utility.yul\":15183:15203   */\n      sub\n        /* \"#utility.yul\":15179:15180   */\n      0x00\n        /* \"#utility.yul\":15168:15177   */\n      dup4\n        /* \"#utility.yul\":15164:15181   */\n      add\n        /* \"#utility.yul\":15157:15204   */\n      mstore\n        /* \"#utility.yul\":15221:15352   */\n      tag_508\n        /* \"#utility.yul\":15347:15351   */\n      dup2\n        /* \"#utility.yul\":15221:15352   */\n      tag_358\n      jump\t// in\n    tag_508:\n        /* \"#utility.yul\":15213:15352   */\n      swap1\n      pop\n        /* \"#utility.yul\":14940:15359   */\n      swap2\n      swap1\n      pop\n      jump\t// out\n        /* \"#utility.yul\":15365:15609   */\n    tag_359:\n        /* \"#utility.yul\":15505:15539   */\n      0x436f6d6d697452657665616c3a3a72657665616c3a2052657665616c65642068\n        /* \"#utility.yul\":15501:15502   */\n      0x00\n        /* \"#utility.yul\":15493:15499   */\n      dup3\n        /* \"#utility.yul\":15489:15503   */\n      add\n        /* \"#utility.yul\":15482:15540   */\n      mstore\n        /* \"#utility.yul\":15574:15601   */\n      0x61736820646f6573206e6f74206d6174636820636f6d6d697400000000000000\n        /* \"#utility.yul\":15569:15571   */\n      0x20\n        /* \"#utility.yul\":15561:15567   */\n      dup3\n        /* \"#utility.yul\":15557:15572   */\n      add\n        /* \"#utility.yul\":15550:15602   */\n      mstore\n        /* \"#utility.yul\":15365:15609   */\n      pop\n      jump\t// out\n        /* \"#utility.yul\":15615:15981   */\n    tag_360:\n        /* \"#utility.yul\":15757:15760   */\n      0x00\n        /* \"#utility.yul\":15778:15845   */\n      tag_511\n        /* \"#utility.yul\":15842:15844   */\n      0x39\n        /* \"#utility.yul\":15837:15840   */\n      dup4\n        /* \"#utility.yul\":15778:15845   */\n      tag_338\n      jump\t// in\n    tag_511:\n        /* \"#utility.yul\":15771:15845   */\n      swap2\n      pop\n        /* \"#utility.yul\":15854:15947   */\n      tag_512\n        /* \"#utility.yul\":15943:15946   */\n      dup3\n        /* \"#utility.yul\":15854:15947   */\n      tag_359\n      jump\t// in\n    tag_512:\n        /* \"#utility.yul\":15972:15974   */\n      0x40\n        /* \"#utility.yul\":15967:15970   */\n      dup3\n        /* \"#utility.yul\":15963:15975   */\n      add\n        /* \"#utility.yul\":15956:15975   */\n      swap1\n      pop\n        /* \"#utility.yul\":15615:15981   */\n      swap2\n      swap1\n      pop\n      jump\t// out\n        /* \"#utility.yul\":15987:16406   */\n    tag_236:\n        /* \"#utility.yul\":16153:16157   */\n      0x00\n        /* \"#utility.yul\":16191:16193   */\n      0x20\n        /* \"#utility.yul\":16180:16189   */\n      dup3\n        /* \"#utility.yul\":16176:16194   */\n      add\n        /* \"#utility.yul\":16168:16194   */\n      swap1\n      pop\n        /* \"#utility.yul\":16240:16249   */\n      dup2\n        /* \"#utility.yul\":16234:16238   */\n      dup2\n        /* \"#utility.yul\":16230:16250   */\n      sub\n        /* \"#utility.yul\":16226:16227   */\n      0x00\n        /* \"#utility.yul\":16215:16224   */\n      dup4\n        /* \"#utility.yul\":16211:16228   */\n      add\n        /* \"#utility.yul\":16204:16251   */\n      mstore\n        /* \"#utility.yul\":16268:16399   */\n      tag_514\n        /* \"#utility.yul\":16394:16398   */\n      dup2\n        /* \"#utility.yul\":16268:16399   */\n      tag_360\n      jump\t// in\n    tag_514:\n        /* \"#utility.yul\":16260:16399   */\n      swap1\n      pop\n        /* \"#utility.yul\":15987:16406   */\n      swap2\n      swap1\n      pop\n      jump\t// out\n        /* \"#utility.yul\":16412:16702   */\n    tag_361:\n        /* \"#utility.yul\":16552:16586   */\n      0x436f6d6d697452657665616c3a3a72657665616c3a2052657665616c20616e64\n        /* \"#utility.yul\":16548:16549   */\n      0x00\n        /* \"#utility.yul\":16540:16546   */\n      dup3\n        /* \"#utility.yul\":16536:16550   */\n      add\n        /* \"#utility.yul\":16529:16587   */\n      mstore\n        /* \"#utility.yul\":16621:16655   */\n      0x20636f6d6d69742068617070656e6564206f6e207468652073616d6520626c6f\n        /* \"#utility.yul\":16616:16618   */\n      0x20\n        /* \"#utility.yul\":16608:16614   */\n      dup3\n        /* \"#utility.yul\":16604:16619   */\n      add\n        /* \"#utility.yul\":16597:16656   */\n      mstore\n        /* \"#utility.yul\":16690:16694   */\n      0x636b000000000000000000000000000000000000000000000000000000000000\n        /* \"#utility.yul\":16685:16687   */\n      0x40\n        /* \"#utility.yul\":16677:16683   */\n      dup3\n        /* \"#utility.yul\":16673:16688   */\n      add\n        /* \"#utility.yul\":16666:16695   */\n      mstore\n        /* \"#utility.yul\":16412:16702   */\n      pop\n      jump\t// out\n        /* \"#utility.yul\":16708:17074   */\n    tag_362:\n        /* \"#utility.yul\":16850:16853   */\n      0x00\n        /* \"#utility.yul\":16871:16938   */\n      tag_517\n        /* \"#utility.yul\":16935:16937   */\n      0x42\n        /* \"#utility.yul\":16930:16933   */\n      dup4\n        /* \"#utility.yul\":16871:16938   */\n      tag_338\n      jump\t// in\n    tag_517:\n        /* \"#utility.yul\":16864:16938   */\n      swap2\n      pop\n        /* \"#utility.yul\":16947:17040   */\n      tag_518\n        /* \"#utility.yul\":17036:17039   */\n      dup3\n        /* \"#utility.yul\":16947:17040   */\n      tag_361\n      jump\t// in\n    tag_518:\n        /* \"#utility.yul\":17065:17067   */\n      0x60\n        /* \"#utility.yul\":17060:17063   */\n      dup3\n        /* \"#utility.yul\":17056:17068   */\n      add\n        /* \"#utility.yul\":17049:17068   */\n      swap1\n      pop\n        /* \"#utility.yul\":16708:17074   */\n      swap2\n      swap1\n      pop\n      jump\t// out\n        /* \"#utility.yul\":17080:17499   */\n    tag_239:\n        /* \"#utility.yul\":17246:17250   */\n      0x00\n        /* \"#utility.yul\":17284:17286   */\n      0x20\n        /* \"#utility.yul\":17273:17282   */\n      dup3\n        /* \"#utility.yul\":17269:17287   */\n      add\n        /* \"#utility.yul\":17261:17287   */\n      swap1\n      pop\n        /* \"#utility.yul\":17333:17342   */\n      dup2\n        /* \"#utility.yul\":17327:17331   */\n      dup2\n        /* \"#utility.yul\":17323:17343   */\n      sub\n        /* \"#utility.yul\":17319:17320   */\n      0x00\n        /* \"#utility.yul\":17308:17317   */\n      dup4\n        /* \"#utility.yul\":17304:17321   */\n      add\n        /* \"#utility.yul\":17297:17344   */\n      mstore\n        /* \"#utility.yul\":17361:17492   */\n      tag_520\n        /* \"#utility.yul\":17487:17491   */\n      dup2\n        /* \"#utility.yul\":17361:17492   */\n      tag_362\n      jump\t// in\n    tag_520:\n        /* \"#utility.yul\":17353:17492   */\n      swap1\n      pop\n        /* \"#utility.yul\":17080:17499   */\n      swap2\n      swap1\n      pop\n      jump\t// out\n        /* \"#utility.yul\":17505:17710   */\n    tag_241:\n        /* \"#utility.yul\":17544:17547   */\n      0x00\n        /* \"#utility.yul\":17563:17582   */\n      tag_522\n        /* \"#utility.yul\":17580:17581   */\n      dup3\n        /* \"#utility.yul\":17563:17582   */\n      tag_333\n      jump\t// in\n    tag_522:\n        /* \"#utility.yul\":17558:17582   */\n      swap2\n      pop\n        /* \"#utility.yul\":17596:17615   */\n      tag_523\n        /* \"#utility.yul\":17613:17614   */\n      dup4\n        /* \"#utility.yul\":17596:17615   */\n      tag_333\n      jump\t// in\n    tag_523:\n        /* \"#utility.yul\":17591:17615   */\n      swap3\n      pop\n        /* \"#utility.yul\":17638:17639   */\n      dup3\n        /* \"#utility.yul\":17635:17636   */\n      dup3\n        /* \"#utility.yul\":17631:17640   */\n      add\n        /* \"#utility.yul\":17624:17640   */\n      swap1\n      pop\n        /* \"#utility.yul\":17661:17679   */\n      0xffffffffffffffff\n        /* \"#utility.yul\":17656:17659   */\n      dup2\n        /* \"#utility.yul\":17653:17680   */\n      gt\n        /* \"#utility.yul\":17650:17703   */\n      iszero\n      tag_524\n      jumpi\n        /* \"#utility.yul\":17683:17701   */\n      tag_525\n      tag_345\n      jump\t// in\n    tag_525:\n        /* \"#utility.yul\":17650:17703   */\n    tag_524:\n        /* \"#utility.yul\":17505:17710   */\n      swap3\n      swap2\n      pop\n      pop\n      jump\t// out\n        /* \"#utility.yul\":17716:17942   */\n    tag_363:\n        /* \"#utility.yul\":17856:17890   */\n      0x436f6d6d697452657665616c3a3a72657665616c3a2052657665616c65642074\n        /* \"#utility.yul\":17852:17853   */\n      0x00\n        /* \"#utility.yul\":17844:17850   */\n      dup3\n        /* \"#utility.yul\":17840:17854   */\n      add\n        /* \"#utility.yul\":17833:17891   */\n      mstore\n        /* \"#utility.yul\":17925:17934   */\n      0x6f6f206c61746500000000000000000000000000000000000000000000000000\n        /* \"#utility.yul\":17920:17922   */\n      0x20\n        /* \"#utility.yul\":17912:17918   */\n      dup3\n        /* \"#utility.yul\":17908:17923   */\n      add\n        /* \"#utility.yul\":17901:17935   */\n      mstore\n        /* \"#utility.yul\":17716:17942   */\n      pop\n      jump\t// out\n        /* \"#utility.yul\":17948:18314   */\n    tag_364:\n        /* \"#utility.yul\":18090:18093   */\n      0x00\n        /* \"#utility.yul\":18111:18178   */\n      tag_528\n        /* \"#utility.yul\":18175:18177   */\n      0x27\n        /* \"#utility.yul\":18170:18173   */\n      dup4\n        /* \"#utility.yul\":18111:18178   */\n      tag_338\n      jump\t// in\n    tag_528:\n        /* \"#utility.yul\":18104:18178   */\n      swap2\n      pop\n        /* \"#utility.yul\":18187:18280   */\n      tag_529\n        /* \"#utility.yul\":18276:18279   */\n      dup3\n        /* \"#utility.yul\":18187:18280   */\n      tag_363\n      jump\t// in\n    tag_529:\n        /* \"#utility.yul\":18305:18307   */\n      0x40\n        /* \"#utility.yul\":18300:18303   */\n      dup3\n        /* \"#utility.yul\":18296:18308   */\n      add\n        /* \"#utility.yul\":18289:18308   */\n      swap1\n      pop\n        /* \"#utility.yul\":17948:18314   */\n      swap2\n      swap1\n      pop\n      jump\t// out\n        /* \"#utility.yul\":18320:18739   */\n    tag_244:\n        /* \"#utility.yul\":18486:18490   */\n      0x00\n        /* \"#utility.yul\":18524:18526   */\n      0x20\n        /* \"#utility.yul\":18513:18522   */\n      dup3\n        /* \"#utility.yul\":18509:18527   */\n      add\n        /* \"#utility.yul\":18501:18527   */\n      swap1\n      pop\n        /* \"#utility.yul\":18573:18582   */\n      dup2\n        /* \"#utility.yul\":18567:18571   */\n      dup2\n        /* \"#utility.yul\":18563:18583   */\n      sub\n        /* \"#utility.yul\":18559:18560   */\n      0x00\n        /* \"#utility.yul\":18548:18557   */\n      dup4\n        /* \"#utility.yul\":18544:18561   */\n      add\n        /* \"#utility.yul\":18537:18584   */\n      mstore\n        /* \"#utility.yul\":18601:18732   */\n      tag_531\n        /* \"#utility.yul\":18727:18731   */\n      dup2\n        /* \"#utility.yul\":18601:18732   */\n      tag_364\n      jump\t// in\n    tag_531:\n        /* \"#utility.yul\":18593:18732   */\n      swap1\n      pop\n        /* \"#utility.yul\":18320:18739   */\n      swap2\n      swap1\n      pop\n      jump\t// out\n        /* \"#utility.yul\":18745:19142   */\n    tag_246:\n        /* \"#utility.yul\":18885:18888   */\n      0x00\n        /* \"#utility.yul\":18900:18975   */\n      tag_533\n        /* \"#utility.yul\":18971:18974   */\n      dup3\n        /* \"#utility.yul\":18962:18968   */\n      dup6\n        /* \"#utility.yul\":18900:18975   */\n      tag_347\n      jump\t// in\n    tag_533:\n        /* \"#utility.yul\":19000:19002   */\n      0x20\n        /* \"#utility.yul\":18995:18998   */\n      dup3\n        /* \"#utility.yul\":18991:19003   */\n      add\n        /* \"#utility.yul\":18984:19003   */\n      swap2\n      pop\n        /* \"#utility.yul\":19013:19088   */\n      tag_534\n        /* \"#utility.yul\":19084:19087   */\n      dup3\n        /* \"#utility.yul\":19075:19081   */\n      dup5\n        /* \"#utility.yul\":19013:19088   */\n      tag_347\n      jump\t// in\n    tag_534:\n        /* \"#utility.yul\":19113:19115   */\n      0x20\n        /* \"#utility.yul\":19108:19111   */\n      dup3\n        /* \"#utility.yul\":19104:19116   */\n      add\n        /* \"#utility.yul\":19097:19116   */\n      swap2\n      pop\n        /* \"#utility.yul\":19133:19136   */\n      dup2\n        /* \"#utility.yul\":19126:19136   */\n      swap1\n      pop\n        /* \"#utility.yul\":18745:19142   */\n      swap4\n      swap3\n      pop\n      pop\n      pop\n      jump\t// out\n        /* \"#utility.yul\":19148:19324   */\n    tag_248:\n        /* \"#utility.yul\":19180:19181   */\n      0x00\n        /* \"#utility.yul\":19197:19217   */\n      tag_536\n        /* \"#utility.yul\":19215:19216   */\n      dup3\n        /* \"#utility.yul\":19197:19217   */\n      tag_316\n      jump\t// in\n    tag_536:\n        /* \"#utility.yul\":19192:19217   */\n      swap2\n      pop\n        /* \"#utility.yul\":19231:19251   */\n      tag_537\n        /* \"#utility.yul\":19249:19250   */\n      dup4\n        /* \"#utility.yul\":19231:19251   */\n      tag_316\n      jump\t// in\n    tag_537:\n        /* \"#utility.yul\":19226:19251   */\n      swap3\n      pop\n        /* \"#utility.yul\":19270:19271   */\n      dup3\n        /* \"#utility.yul\":19260:19295   */\n      tag_538\n      jumpi\n        /* \"#utility.yul\":19275:19293   */\n      tag_539\n      tag_352\n      jump\t// in\n    tag_539:\n        /* \"#utility.yul\":19260:19295   */\n    tag_538:\n        /* \"#utility.yul\":19316:19317   */\n      dup3\n        /* \"#utility.yul\":19313:19314   */\n      dup3\n        /* \"#utility.yul\":19309:19318   */\n      mod\n        /* \"#utility.yul\":19304:19318   */\n      swap1\n      pop\n        /* \"#utility.yul\":19148:19324   */\n      swap3\n      swap2\n      pop\n      pop\n      jump\t// out\n        /* \"#utility.yul\":19330:19772   */\n    tag_250:\n        /* \"#utility.yul\":19479:19483   */\n      0x00\n        /* \"#utility.yul\":19517:19519   */\n      0x60\n        /* \"#utility.yul\":19506:19515   */\n      dup3\n        /* \"#utility.yul\":19502:19520   */\n      add\n        /* \"#utility.yul\":19494:19520   */\n      swap1\n      pop\n        /* \"#utility.yul\":19530:19601   */\n      tag_541\n        /* \"#utility.yul\":19598:19599   */\n      0x00\n        /* \"#utility.yul\":19587:19596   */\n      dup4\n        /* \"#utility.yul\":19583:19600   */\n      add\n        /* \"#utility.yul\":19574:19580   */\n      dup7\n        /* \"#utility.yul\":19530:19601   */\n      tag_337\n      jump\t// in\n    tag_541:\n        /* \"#utility.yul\":19611:19683   */\n      tag_542\n        /* \"#utility.yul\":19679:19681   */\n      0x20\n        /* \"#utility.yul\":19668:19677   */\n      dup4\n        /* \"#utility.yul\":19664:19682   */\n      add\n        /* \"#utility.yul\":19655:19661   */\n      dup6\n        /* \"#utility.yul\":19611:19683   */\n      tag_330\n      jump\t// in\n    tag_542:\n        /* \"#utility.yul\":19693:19765   */\n      tag_543\n        /* \"#utility.yul\":19761:19763   */\n      0x40\n        /* \"#utility.yul\":19750:19759   */\n      dup4\n        /* \"#utility.yul\":19746:19764   */\n      add\n        /* \"#utility.yul\":19737:19743   */\n      dup5\n        /* \"#utility.yul\":19693:19765   */\n      tag_317\n      jump\t// in\n    tag_543:\n        /* \"#utility.yul\":19330:19772   */\n      swap5\n      swap4\n      pop\n      pop\n      pop\n      pop\n      jump\t// out\n        /* \"#utility.yul\":19778:19972   */\n    tag_254:\n        /* \"#utility.yul\":19818:19822   */\n      0x00\n        /* \"#utility.yul\":19838:19858   */\n      tag_545\n        /* \"#utility.yul\":19856:19857   */\n      dup3\n        /* \"#utility.yul\":19838:19858   */\n      tag_316\n      jump\t// in\n    tag_545:\n        /* \"#utility.yul\":19833:19858   */\n      swap2\n      pop\n        /* \"#utility.yul\":19872:19892   */\n      tag_546\n        /* \"#utility.yul\":19890:19891   */\n      dup4\n        /* \"#utility.yul\":19872:19892   */\n      tag_316\n      jump\t// in\n    tag_546:\n        /* \"#utility.yul\":19867:19892   */\n      swap3\n      pop\n        /* \"#utility.yul\":19916:19917   */\n      dup3\n        /* \"#utility.yul\":19913:19914   */\n      dup3\n        /* \"#utility.yul\":19909:19918   */\n      sub\n        /* \"#utility.yul\":19901:19918   */\n      swap1\n      pop\n        /* \"#utility.yul\":19940:19941   */\n      dup2\n        /* \"#utility.yul\":19934:19938   */\n      dup2\n        /* \"#utility.yul\":19931:19942   */\n      gt\n        /* \"#utility.yul\":19928:19965   */\n      iszero\n      tag_547\n      jumpi\n        /* \"#utility.yul\":19945:19963   */\n      tag_548\n      tag_345\n      jump\t// in\n    tag_548:\n        /* \"#utility.yul\":19928:19965   */\n    tag_547:\n        /* \"#utility.yul\":19778:19972   */\n      swap3\n      swap2\n      pop\n      pop\n      jump\t// out\n        /* \"#utility.yul\":19978:20149   */\n    tag_365:\n        /* \"#utility.yul\":20118:20141   */\n      0x47616d65206e65656473203220706c61796572732e0000000000000000000000\n        /* \"#utility.yul\":20114:20115   */\n      0x00\n        /* \"#utility.yul\":20106:20112   */\n      dup3\n        /* \"#utility.yul\":20102:20116   */\n      add\n        /* \"#utility.yul\":20095:20142   */\n      mstore\n        /* \"#utility.yul\":19978:20149   */\n      pop\n      jump\t// out\n        /* \"#utility.yul\":20155:20521   */\n    tag_366:\n        /* \"#utility.yul\":20297:20300   */\n      0x00\n        /* \"#utility.yul\":20318:20385   */\n      tag_551\n        /* \"#utility.yul\":20382:20384   */\n      0x15\n        /* \"#utility.yul\":20377:20380   */\n      dup4\n        /* \"#utility.yul\":20318:20385   */\n      tag_338\n      jump\t// in\n    tag_551:\n        /* \"#utility.yul\":20311:20385   */\n      swap2\n      pop\n        /* \"#utility.yul\":20394:20487   */\n      tag_552\n        /* \"#utility.yul\":20483:20486   */\n      dup3\n        /* \"#utility.yul\":20394:20487   */\n      tag_365\n      jump\t// in\n    tag_552:\n        /* \"#utility.yul\":20512:20514   */\n      0x20\n        /* \"#utility.yul\":20507:20510   */\n      dup3\n        /* \"#utility.yul\":20503:20515   */\n      add\n        /* \"#utility.yul\":20496:20515   */\n      swap1\n      pop\n        /* \"#utility.yul\":20155:20521   */\n      swap2\n      swap1\n      pop\n      jump\t// out\n        /* \"#utility.yul\":20527:20946   */\n    tag_258:\n        /* \"#utility.yul\":20693:20697   */\n      0x00\n        /* \"#utility.yul\":20731:20733   */\n      0x20\n        /* \"#utility.yul\":20720:20729   */\n      dup3\n        /* \"#utility.yul\":20716:20734   */\n      add\n        /* \"#utility.yul\":20708:20734   */\n      swap1\n      pop\n        /* \"#utility.yul\":20780:20789   */\n      dup2\n        /* \"#utility.yul\":20774:20778   */\n      dup2\n        /* \"#utility.yul\":20770:20790   */\n      sub\n        /* \"#utility.yul\":20766:20767   */\n      0x00\n        /* \"#utility.yul\":20755:20764   */\n      dup4\n        /* \"#utility.yul\":20751:20768   */\n      add\n        /* \"#utility.yul\":20744:20791   */\n      mstore\n        /* \"#utility.yul\":20808:20939   */\n      tag_554\n        /* \"#utility.yul\":20934:20938   */\n      dup2\n        /* \"#utility.yul\":20808:20939   */\n      tag_366\n      jump\t// in\n    tag_554:\n        /* \"#utility.yul\":20800:20939   */\n      swap1\n      pop\n        /* \"#utility.yul\":20527:20946   */\n      swap2\n      swap1\n      pop\n      jump\t// out\n        /* \"#utility.yul\":20952:21123   */\n    tag_367:\n        /* \"#utility.yul\":21092:21115   */\n      0x596f7520616c726561647920636f6d6d697465642e0000000000000000000000\n        /* \"#utility.yul\":21088:21089   */\n      0x00\n        /* \"#utility.yul\":21080:21086   */\n      dup3\n        /* \"#utility.yul\":21076:21090   */\n      add\n        /* \"#utility.yul\":21069:21116   */\n      mstore\n        /* \"#utility.yul\":20952:21123   */\n      pop\n      jump\t// out\n        /* \"#utility.yul\":21129:21495   */\n    tag_368:\n        /* \"#utility.yul\":21271:21274   */\n      0x00\n        /* \"#utility.yul\":21292:21359   */\n      tag_557\n        /* \"#utility.yul\":21356:21358   */\n      0x15\n        /* \"#utility.yul\":21351:21354   */\n      dup4\n        /* \"#utility.yul\":21292:21359   */\n      tag_338\n      jump\t// in\n    tag_557:\n        /* \"#utility.yul\":21285:21359   */\n      swap2\n      pop\n        /* \"#utility.yul\":21368:21461   */\n      tag_558\n        /* \"#utility.yul\":21457:21460   */\n      dup3\n        /* \"#utility.yul\":21368:21461   */\n      tag_367\n      jump\t// in\n    tag_558:\n        /* \"#utility.yul\":21486:21488   */\n      0x20\n        /* \"#utility.yul\":21481:21484   */\n      dup3\n        /* \"#utility.yul\":21477:21489   */\n      add\n        /* \"#utility.yul\":21470:21489   */\n      swap1\n      pop\n        /* \"#utility.yul\":21129:21495   */\n      swap2\n      swap1\n      pop\n      jump\t// out\n        /* \"#utility.yul\":21501:21920   */\n    tag_263:\n        /* \"#utility.yul\":21667:21671   */\n      0x00\n        /* \"#utility.yul\":21705:21707   */\n      0x20\n        /* \"#utility.yul\":21694:21703   */\n      dup3\n        /* \"#utility.yul\":21690:21708   */\n      add\n        /* \"#utility.yul\":21682:21708   */\n      swap1\n      pop\n        /* \"#utility.yul\":21754:21763   */\n      dup2\n        /* \"#utility.yul\":21748:21752   */\n      dup2\n        /* \"#utility.yul\":21744:21764   */\n      sub\n        /* \"#utility.yul\":21740:21741   */\n      0x00\n        /* \"#utility.yul\":21729:21738   */\n      dup4\n        /* \"#utility.yul\":21725:21742   */\n      add\n        /* \"#utility.yul\":21718:21765   */\n      mstore\n        /* \"#utility.yul\":21782:21913   */\n      tag_560\n        /* \"#utility.yul\":21908:21912   */\n      dup2\n        /* \"#utility.yul\":21782:21913   */\n      tag_368\n      jump\t// in\n    tag_560:\n        /* \"#utility.yul\":21774:21913   */\n      swap1\n      pop\n        /* \"#utility.yul\":21501:21920   */\n      swap2\n      swap1\n      pop\n      jump\t// out\n        /* \"#utility.yul\":21926:22364   */\n    tag_273:\n        /* \"#utility.yul\":22073:22077   */\n      0x00\n        /* \"#utility.yul\":22111:22113   */\n      0x60\n        /* \"#utility.yul\":22100:22109   */\n      dup3\n        /* \"#utility.yul\":22096:22114   */\n      add\n        /* \"#utility.yul\":22088:22114   */\n      swap1\n      pop\n        /* \"#utility.yul\":22124:22195   */\n      tag_562\n        /* \"#utility.yul\":22192:22193   */\n      0x00\n        /* \"#utility.yul\":22181:22190   */\n      dup4\n        /* \"#utility.yul\":22177:22194   */\n      add\n        /* \"#utility.yul\":22168:22174   */\n      dup7\n        /* \"#utility.yul\":22124:22195   */\n      tag_337\n      jump\t// in\n    tag_562:\n        /* \"#utility.yul\":22205:22277   */\n      tag_563\n        /* \"#utility.yul\":22273:22275   */\n      0x20\n        /* \"#utility.yul\":22262:22271   */\n      dup4\n        /* \"#utility.yul\":22258:22276   */\n      add\n        /* \"#utility.yul\":22249:22255   */\n      dup6\n        /* \"#utility.yul\":22205:22277   */\n      tag_330\n      jump\t// in\n    tag_563:\n        /* \"#utility.yul\":22287:22357   */\n      tag_564\n        /* \"#utility.yul\":22353:22355   */\n      0x40\n        /* \"#utility.yul\":22342:22351   */\n      dup4\n        /* \"#utility.yul\":22338:22356   */\n      add\n        /* \"#utility.yul\":22329:22335   */\n      dup5\n        /* \"#utility.yul\":22287:22357   */\n      tag_334\n      jump\t// in\n    tag_564:\n        /* \"#utility.yul\":21926:22364   */\n      swap5\n      swap4\n      pop\n      pop\n      pop\n      pop\n      jump\t// out\n\n    auxdata: 0xa2646970667358221220ec4b78ab44f4dda6ff5f89001b2848b6771aa29d562f8ce3c0d7a349c5d2e41964736f6c634300081a0033\n}\n",
				"bytecode": {
					"linkReferences": {},
					"object": "608060405260645f806101000a81548160ff021916908360ff1602179055505f6003555f6004555f6009555f600a55600a600b5542600c55348015610042575f80fd5b506001600d5f735b38da6a701c568545dcfcb03fcb875f56beddc473ffffffffffffffffffffffffffffffffffffffff1673ffffffffffffffffffffffffffffffffffffffff1681526020019081526020015f205f6101000a81548160ff0219169083151502179055506001600d5f73ab8483f64d9c6d1ecf9b849ae677dd3315835cb273ffffffffffffffffffffffffffffffffffffffff1673ffffffffffffffffffffffffffffffffffffffff1681526020019081526020015f205f6101000a81548160ff0219169083151502179055506001600d5f734b20993bc481177ec7e8f571cecae8a9e22c02db73ffffffffffffffffffffffffffffffffffffffff1673ffffffffffffffffffffffffffffffffffffffff1681526020019081526020015f205f6101000a81548160ff0219169083151502179055506001600d5f7378731d3ca6b7e34ac0f824c42a7cc18a495cabab73ffffffffffffffffffffffffffffffffffffffff1673ffffffffffffffffffffffffffffffffffffffff1681526020019081526020015f205f6101000a81548160ff021916908315150217905550612720806101f45f395ff3fe60806040526004361061013f575f3560e01c806378e97925116100b5578063bc06b8cd1161006e578063bc06b8cd1461041d578063c876e61514610447578063d891f96914610471578063d97c841614610499578063f14fcbc8146104c3578063f71d96cb146104eb5761013f565b806378e979251461030f5780637b43a8e61461033957806389f71d531461037757806390d5d0c3146103a1578063a040478d146103cb578063a63f7c53146104075761013f565b80633e2b58e0116101075780633e2b58e01461021957806343cdd43814610243578063558d51c61461027f57806365ce0ac6146102955780636ac5db19146102bd578063701fd0f1146102e75761013f565b8063086f781514610143578063190cf7451461016d578063228cb733146101a957806327b5db8a146101d35780633cf5040a146101dd575b5f80fd5b34801561014e575f80fd5b50610157610527565b6040516101649190611b3a565b60405180910390f35b348015610178575f80fd5b50610193600480360381019061018e9190611bb1565b61052d565b6040516101a09190611bf6565b60405180910390f35b3480156101b4575f80fd5b506101bd61054a565b6040516101ca9190611b3a565b60405180910390f35b6101db610550565b005b3480156101e8575f80fd5b5061020360048036038101906101fe9190611c42565b6108a4565b6040516102109190611c7c565b60405180910390f35b348015610224575f80fd5b5061022d6108d3565b60405161023a9190611b3a565b60405180910390f35b34801561024e575f80fd5b5061026960048036038101906102649190611bb1565b6108d9565b6040516102769190611bf6565b60405180910390f35b34801561028a575f80fd5b506102936108f6565b005b3480156102a0575f80fd5b506102bb60048036038101906102b69190611c42565b610d4e565b005b3480156102c8575f80fd5b506102d1610eed565b6040516102de9190611cb0565b60405180910390f35b3480156102f2575f80fd5b5061030d60048036038101906103089190611c42565b610efd565b005b34801561031a575f80fd5b506103236112bb565b6040516103309190611b3a565b60405180910390f35b348015610344575f80fd5b5061035f600480360381019061035a9190611bb1565b6112c1565b60405161036e93929190611ceb565b60405180910390f35b348015610382575f80fd5b5061038b611307565b6040516103989190611b3a565b60405180910390f35b3480156103ac575f80fd5b506103b561130d565b6040516103c29190611b3a565b60405180910390f35b3480156103d6575f80fd5b506103f160048036038101906103ec9190611bb1565b611313565b6040516103fe9190611b3a565b60405180910390f35b348015610412575f80fd5b5061041b611328565b005b348015610428575f80fd5b50610431611331565b60405161043e9190611b3a565b60405180910390f35b348015610452575f80fd5b5061045b611345565b6040516104689190611b3a565b60405180910390f35b34801561047c575f80fd5b5061049760048036038101906104929190611c42565b61134b565b005b3480156104a4575f80fd5b506104ad61158e565b6040516104ba9190611b3a565b60405180910390f35b3480156104ce575f80fd5b506104e960048036038101906104e49190611c42565b6115ae565b005b3480156104f6575f80fd5b50610511600480360381019061050c9190611d4a565b611780565b60405161051e9190611d84565b60405180910390f35b60095481565b6006602052805f5260405f205f915054906101000a900460ff1681565b60045481565b600260035410610595576040517f08c379a000000000000000000000000000000000000000000000000000000000815260040161058c90611df7565b60405180910390fd5b600d5f3373ffffffffffffffffffffffffffffffffffffffff1673ffffffffffffffffffffffffffffffffffffffff1681526020019081526020015f205f9054906101000a900460ff1661061e576040517f08c379a000000000000000000000000000000000000000000000000000000000815260040161061590611e5f565b60405180910390fd5b5f600354111561069b5760075f8154811061063c5761063b611e7d565b5b905f5260205f20015f9054906101000a900473ffffffffffffffffffffffffffffffffffffffff1673ffffffffffffffffffffffffffffffffffffffff163373ffffffffffffffffffffffffffffffffffffffff160361069a575f80fd5b5b670de0b6b3a764000034146106e5576040517f08c379a00000000000000000000000000000000000000000000000000000000081526004016106dc90611ef4565b60405180910390fd5b3460045f8282546106f69190611f3f565b92505081905550600160065f3373ffffffffffffffffffffffffffffffffffffffff1673ffffffffffffffffffffffffffffffffffffffff1681526020019081526020015f205f6101000a81548160ff021916908315150217905550600733908060018154018082558091505060019003905f5260205f20015f9091909190916101000a81548173ffffffffffffffffffffffffffffffffffffffff021916908373ffffffffffffffffffffffffffffffffffffffff1602179055506005805f3373ffffffffffffffffffffffffffffffffffffffff1673ffffffffffffffffffffffffffffffffffffffff1681526020019081526020015f20819055505f60085f3373ffffffffffffffffffffffffffffffffffffffff1673ffffffffffffffffffffffffffffffffffffffff1681526020019081526020015f205f6101000a81548160ff02191690831515021790555060035f81548092919061085a90611f72565b91905055507f313f9ebdca9d25ee9456dd69022e3324975c8261b7a8b134881905d3b6964d3c33600354604051610892929190611fb9565b60405180910390a16108a2611328565b565b5f816040516020016108b69190612000565b604051602081830303815290604052805190602001209050919050565b600b5481565b6008602052805f5260405f205f915054906101000a900460ff1681565b60016003541015610905575f80fd5b600b54610910611331565b11610950576040517f08c379a00000000000000000000000000000000000000000000000000000000081526004016109479061208a565b60405180910390fd5b600454471015610995576040517f08c379a000000000000000000000000000000000000000000000000000000000815260040161098c90612118565b60405180910390fd5b5f60075f815481106109aa576109a9611e7d565b5b905f5260205f20015f9054906101000a900473ffffffffffffffffffffffffffffffffffffffff169050600160035403610a31578073ffffffffffffffffffffffffffffffffffffffff166108fc60045490811502906040515f60405180830381858888f19350505050158015610a23573d5f803e3d5ffd5b50610a2c6117bb565b610d4b565b600260035403610d4a575f6007600181548110610a5157610a50611e7d565b5b905f5260205f20015f9054906101000a900473ffffffffffffffffffffffffffffffffffffffff1690505f6009541480610a9a57506002600954148015610a9957505f600a54145b5b15610b50578173ffffffffffffffffffffffffffffffffffffffff166108fc6002600454610ac89190612163565b90811502906040515f60405180830381858888f19350505050158015610af0573d5f803e3d5ffd5b508073ffffffffffffffffffffffffffffffffffffffff166108fc6002600454610b1a9190612163565b90811502906040515f60405180830381858888f19350505050158015610b42573d5f803e3d5ffd5b50610b4b6117bb565b610d48565b600160095403610c4e576001151560085f8473ffffffffffffffffffffffffffffffffffffffff1673ffffffffffffffffffffffffffffffffffffffff1681526020019081526020015f205f9054906101000a900460ff16151503610bfa578173ffffffffffffffffffffffffffffffffffffffff166108fc60045490811502906040515f60405180830381858888f19350505050158015610bf4573d5f803e3d5ffd5b50610c41565b8073ffffffffffffffffffffffffffffffffffffffff166108fc60045490811502906040515f60405180830381858888f19350505050158015610c3f573d5f803e3d5ffd5b505b610c496117bb565b610d47565b6002600954148015610c6257506001600a54145b15610d46576005805f8473ffffffffffffffffffffffffffffffffffffffff1673ffffffffffffffffffffffffffffffffffffffff1681526020019081526020015f205414610cf6578173ffffffffffffffffffffffffffffffffffffffff166108fc60045490811502906040515f60405180830381858888f19350505050158015610cf0573d5f803e3d5ffd5b50610d3d565b8073ffffffffffffffffffffffffffffffffffffffff166108fc60045490811502906040515f60405180830381858888f19350505050158015610d3b573d5f803e3d5ffd5b505b610d456117bb565b5b5b5b505b5b50565b600260035414610d5c575f80fd5b600260095414610d6a575f80fd5b5f81601f60208110610d7f57610d7e611e7d565b5b1a60f81b60f81c60ff1690505f8110158015610d9c575060048111155b610ddb576040517f08c379a0000000000000000000000000000000000000000000000000000000008152600401610dd290612203565b60405180910390fd5b60085f3373ffffffffffffffffffffffffffffffffffffffff1673ffffffffffffffffffffffffffffffffffffffff1681526020019081526020015f205f9054906101000a900460ff16610e64576040517f08c379a0000000000000000000000000000000000000000000000000000000008152600401610e5b9061226b565b60405180910390fd5b610e6d82610efd565b8060055f3373ffffffffffffffffffffffffffffffffffffffff1673ffffffffffffffffffffffffffffffffffffffff1681526020019081526020015f2081905550600a5f815480929190610ec190611f72565b9190505550610ece611328565b6002600a5403610ee957610ee06117e6565b610ee86117bb565b5b5050565b5f8054906101000a900460ff1681565b5f151560015f3373ffffffffffffffffffffffffffffffffffffffff1673ffffffffffffffffffffffffffffffffffffffff1681526020019081526020015f2060010160089054906101000a900460ff16151514610f90576040517f08c379a0000000000000000000000000000000000000000000000000000000008152600401610f87906122f9565b60405180910390fd5b6001805f3373ffffffffffffffffffffffffffffffffffffffff1673ffffffffffffffffffffffffffffffffffffffff1681526020019081526020015f2060010160086101000a81548160ff02191690831515021790555060015f3373ffffffffffffffffffffffffffffffffffffffff1673ffffffffffffffffffffffffffffffffffffffff1681526020019081526020015f205f0154611031826108a4565b14611071576040517f08c379a000000000000000000000000000000000000000000000000000000000815260040161106890612387565b60405180910390fd5b60015f3373ffffffffffffffffffffffffffffffffffffffff1673ffffffffffffffffffffffffffffffffffffffff1681526020019081526020015f206001015f9054906101000a900467ffffffffffffffff1667ffffffffffffffff164367ffffffffffffffff161161111a576040517f08c379a00000000000000000000000000000000000000000000000000000000081526004016111119061243b565b60405180910390fd5b60fa60015f3373ffffffffffffffffffffffffffffffffffffffff1673ffffffffffffffffffffffffffffffffffffffff1681526020019081526020015f206001015f9054906101000a900467ffffffffffffffff1661117a9190612459565b67ffffffffffffffff164367ffffffffffffffff1611156111d0576040517f08c379a00000000000000000000000000000000000000000000000000000000081526004016111c790612504565b60405180910390fd5b5f60015f3373ffffffffffffffffffffffffffffffffffffffff1673ffffffffffffffffffffffffffffffffffffffff1681526020019081526020015f206001015f9054906101000a900467ffffffffffffffff1667ffffffffffffffff164090505f805f9054906101000a900460ff1660ff168284604051602001611257929190612522565b604051602081830303815290604052805190602001205f1c611279919061254d565b90507fbc016dd1cadeaefcb851af7a0a93532e0023d536894b730801f7bcfe7065bcc23384836040516112ae9392919061257d565b60405180910390a1505050565b60025481565b6001602052805f5260405f205f91509050805f015490806001015f9054906101000a900467ffffffffffffffff16908060010160089054906101000a900460ff16905083565b600c5481565b60035481565b6005602052805f5260405f205f915090505481565b42600281905550565b5f6002544261134091906125b2565b905090565b600a5481565b600260035414611390576040517f08c379a00000000000000000000000000000000000000000000000000000000081526004016113879061262f565b60405180910390fd5b60026009541061139e575f80fd5b60065f3373ffffffffffffffffffffffffffffffffffffffff1673ffffffffffffffffffffffffffffffffffffffff1681526020019081526020015f205f9054906101000a900460ff166113f0575f80fd5b5f151560085f3373ffffffffffffffffffffffffffffffffffffffff1673ffffffffffffffffffffffffffffffffffffffff1681526020019081526020015f205f9054906101000a900460ff1615151461147f576040517f08c379a000000000000000000000000000000000000000000000000000000000815260040161147690612697565b60405180910390fd5b5f60065f3373ffffffffffffffffffffffffffffffffffffffff1673ffffffffffffffffffffffffffffffffffffffff1681526020019081526020015f205f6101000a81548160ff021916908315150217905550600160085f3373ffffffffffffffffffffffffffffffffffffffff1673ffffffffffffffffffffffffffffffffffffffff1681526020019081526020015f205f6101000a81548160ff021916908315150217905550611531816115ae565b60095f81548092919061154390611f72565b91905055507f3928cc5abcbb1c0b781bebbc4f1e9b156f6d392796c791cc0937db5e42677ff73360095460405161157b929190611fb9565b60405180910390a161158b611328565b50565b5f603c6002544261159f91906125b2565b6115a99190612163565b905090565b8060015f3373ffffffffffffffffffffffffffffffffffffffff1673ffffffffffffffffffffffffffffffffffffffff1681526020019081526020015f205f01819055504360015f3373ffffffffffffffffffffffffffffffffffffffff1673ffffffffffffffffffffffffffffffffffffffff1681526020019081526020015f206001015f6101000a81548167ffffffffffffffff021916908367ffffffffffffffff1602179055505f60015f3373ffffffffffffffffffffffffffffffffffffffff1673ffffffffffffffffffffffffffffffffffffffff1681526020019081526020015f2060010160086101000a81548160ff0219169083151502179055507f3c1a1f8f38335b17f751c6da4ba7d1865f26b3997535176f5080de9fad8916033360015f3373ffffffffffffffffffffffffffffffffffffffff1673ffffffffffffffffffffffffffffffffffffffff1681526020019081526020015f205f015460015f3373ffffffffffffffffffffffffffffffffffffffff1673ffffffffffffffffffffffffffffffffffffffff1681526020019081526020015f206001015f9054906101000a900467ffffffffffffffff16604051611775939291906126b5565b60405180910390a150565b6007818154811061178f575f80fd5b905f5260205f20015f915054906101000a900473ffffffffffffffffffffffffffffffffffffffff1681565b60075f6117c89190611ae9565b5f6003819055505f6009819055505f600a819055505f600481905550565b5f60055f60075f815481106117fe576117fd611e7d565b5b905f5260205f20015f9054906101000a900473ffffffffffffffffffffffffffffffffffffffff1673ffffffffffffffffffffffffffffffffffffffff1673ffffffffffffffffffffffffffffffffffffffff1681526020019081526020015f205490505f60055f600760018154811061187b5761187a611e7d565b5b905f5260205f20015f9054906101000a900473ffffffffffffffffffffffffffffffffffffffff1673ffffffffffffffffffffffffffffffffffffffff1673ffffffffffffffffffffffffffffffffffffffff1681526020019081526020015f205490505f60075f815481106118f4576118f3611e7d565b5b905f5260205f20015f9054906101000a900473ffffffffffffffffffffffffffffffffffffffff1690505f600760018154811061193457611933611e7d565b5b905f5260205f20015f9054906101000a900473ffffffffffffffffffffffffffffffffffffffff169050828403611a0e578173ffffffffffffffffffffffffffffffffffffffff166108fc600260045461198e9190612163565b90811502906040515f60405180830381858888f193505050501580156119b6573d5f803e3d5ffd5b508073ffffffffffffffffffffffffffffffffffffffff166108fc60026004546119e09190612163565b90811502906040515f60405180830381858888f19350505050158015611a08573d5f803e3d5ffd5b50611ae3565b826005600186611a1e9190611f3f565b611a28919061254d565b1480611a4b5750826005600386611a3f9190611f3f565b611a49919061254d565b145b15611a9b578073ffffffffffffffffffffffffffffffffffffffff166108fc60045490811502906040515f60405180830381858888f19350505050158015611a95573d5f803e3d5ffd5b50611ae2565b8173ffffffffffffffffffffffffffffffffffffffff166108fc60045490811502906040515f60405180830381858888f19350505050158015611ae0573d5f803e3d5ffd5b505b5b50505050565b5080545f8255905f5260205f2090810190611b049190611b07565b50565b5b80821115611b1e575f815f905550600101611b08565b5090565b5f819050919050565b611b3481611b22565b82525050565b5f602082019050611b4d5f830184611b2b565b92915050565b5f80fd5b5f73ffffffffffffffffffffffffffffffffffffffff82169050919050565b5f611b8082611b57565b9050919050565b611b9081611b76565b8114611b9a575f80fd5b50565b5f81359050611bab81611b87565b92915050565b5f60208284031215611bc657611bc5611b53565b5b5f611bd384828501611b9d565b91505092915050565b5f8115159050919050565b611bf081611bdc565b82525050565b5f602082019050611c095f830184611be7565b92915050565b5f819050919050565b611c2181611c0f565b8114611c2b575f80fd5b50565b5f81359050611c3c81611c18565b92915050565b5f60208284031215611c5757611c56611b53565b5b5f611c6484828501611c2e565b91505092915050565b611c7681611c0f565b82525050565b5f602082019050611c8f5f830184611c6d565b92915050565b5f60ff82169050919050565b611caa81611c95565b82525050565b5f602082019050611cc35f830184611ca1565b92915050565b5f67ffffffffffffffff82169050919050565b611ce581611cc9565b82525050565b5f606082019050611cfe5f830186611c6d565b611d0b6020830185611cdc565b611d186040830184611be7565b949350505050565b611d2981611b22565b8114611d33575f80fd5b50565b5f81359050611d4481611d20565b92915050565b5f60208284031215611d5f57611d5e611b53565b5b5f611d6c84828501611d36565b91505092915050565b611d7e81611b76565b82525050565b5f602082019050611d975f830184611d75565b92915050565b5f82825260208201905092915050565b7f47616d6520616c726561647920686173203220706c61796572732e00000000005f82015250565b5f611de1601b83611d9d565b9150611dec82611dad565b602082019050919050565b5f6020820190508181035f830152611e0e81611dd5565b9050919050565b7f596f7520617265206e6f7420616c6c6f77656420746f20706c61792e000000005f82015250565b5f611e49601c83611d9d565b9150611e5482611e15565b602082019050919050565b5f6020820190508181035f830152611e7681611e3d565b9050919050565b7f4e487b71000000000000000000000000000000000000000000000000000000005f52603260045260245ffd5b7f506179203120657468657220746f20706c61792067616d652e000000000000005f82015250565b5f611ede601983611d9d565b9150611ee982611eaa565b602082019050919050565b5f6020820190508181035f830152611f0b81611ed2565b9050919050565b7f4e487b71000000000000000000000000000000000000000000000000000000005f52601160045260245ffd5b5f611f4982611b22565b9150611f5483611b22565b9250828201905080821115611f6c57611f6b611f12565b5b92915050565b5f611f7c82611b22565b91507fffffffffffffffffffffffffffffffffffffffffffffffffffffffffffffffff8203611fae57611fad611f12565b5b600182019050919050565b5f604082019050611fcc5f830185611d75565b611fd96020830184611b2b565b9392505050565b5f819050919050565b611ffa611ff582611c0f565b611fe0565b82525050565b5f61200b8284611fe9565b60208201915081905092915050565b7f596f75206e65656420746f20776169742031206d696e75746520666f722077695f8201527f7468647261772e00000000000000000000000000000000000000000000000000602082015250565b5f612074602783611d9d565b915061207f8261201a565b604082019050919050565b5f6020820190508181035f8301526120a181612068565b9050919050565b7f436f6e74726163742068617320696e73756666696369656e742062616c616e635f8201527f652e000000000000000000000000000000000000000000000000000000000000602082015250565b5f612102602283611d9d565b915061210d826120a8565b604082019050919050565b5f6020820190508181035f83015261212f816120f6565b9050919050565b7f4e487b71000000000000000000000000000000000000000000000000000000005f52601260045260245ffd5b5f61216d82611b22565b915061217883611b22565b92508261218857612187612136565b5b828204905092915050565b7f596f75722063686f696365206e6565647320746f206265206265747765656e205f8201527f3020746f20340000000000000000000000000000000000000000000000000000602082015250565b5f6121ed602683611d9d565b91506121f882612193565b604082019050919050565b5f6020820190508181035f83015261221a816121e1565b9050919050565b7f596f75206e65656420746f20636f6d6d69742066697273742e000000000000005f82015250565b5f612255601983611d9d565b915061226082612221565b602082019050919050565b5f6020820190508181035f83015261228281612249565b9050919050565b7f436f6d6d697452657665616c3a3a72657665616c3a20416c72656164792072655f8201527f7665616c65640000000000000000000000000000000000000000000000000000602082015250565b5f6122e3602683611d9d565b91506122ee82612289565b604082019050919050565b5f6020820190508181035f830152612310816122d7565b9050919050565b7f436f6d6d697452657665616c3a3a72657665616c3a2052657665616c656420685f8201527f61736820646f6573206e6f74206d6174636820636f6d6d697400000000000000602082015250565b5f612371603983611d9d565b915061237c82612317565b604082019050919050565b5f6020820190508181035f83015261239e81612365565b9050919050565b7f436f6d6d697452657665616c3a3a72657665616c3a2052657665616c20616e645f8201527f20636f6d6d69742068617070656e6564206f6e207468652073616d6520626c6f60208201527f636b000000000000000000000000000000000000000000000000000000000000604082015250565b5f612425604283611d9d565b9150612430826123a5565b606082019050919050565b5f6020820190508181035f83015261245281612419565b9050919050565b5f61246382611cc9565b915061246e83611cc9565b9250828201905067ffffffffffffffff81111561248e5761248d611f12565b5b92915050565b7f436f6d6d697452657665616c3a3a72657665616c3a2052657665616c656420745f8201527f6f6f206c61746500000000000000000000000000000000000000000000000000602082015250565b5f6124ee602783611d9d565b91506124f982612494565b604082019050919050565b5f6020820190508181035f83015261251b816124e2565b9050919050565b5f61252d8285611fe9565b60208201915061253d8284611fe9565b6020820191508190509392505050565b5f61255782611b22565b915061256283611b22565b92508261257257612571612136565b5b828206905092915050565b5f6060820190506125905f830186611d75565b61259d6020830185611c6d565b6125aa6040830184611b2b565b949350505050565b5f6125bc82611b22565b91506125c783611b22565b92508282039050818111156125df576125de611f12565b5b92915050565b7f47616d65206e65656473203220706c61796572732e00000000000000000000005f82015250565b5f612619601583611d9d565b9150612624826125e5565b602082019050919050565b5f6020820190508181035f8301526126468161260d565b9050919050565b7f596f7520616c726561647920636f6d6d697465642e00000000000000000000005f82015250565b5f612681601583611d9d565b915061268c8261264d565b602082019050919050565b5f6020820190508181035f8301526126ae81612675565b9050919050565b5f6060820190506126c85f830186611d75565b6126d56020830185611c6d565b6126e26040830184611cdc565b94935050505056fea2646970667358221220ec4b78ab44f4dda6ff5f89001b2848b6771aa29d562f8ce3c0d7a349c5d2e41964736f6c634300081a0033",
					"opcodes": "PUSH1 0x80 PUSH1 0x40 MSTORE PUSH1 0x64 PUSH0 DUP1 PUSH2 0x100 EXP DUP2 SLOAD DUP2 PUSH1 0xFF MUL NOT AND SWAP1 DUP4 PUSH1 0xFF AND MUL OR SWAP1 SSTORE POP PUSH0 PUSH1 0x3 SSTORE PUSH0 PUSH1 0x4 SSTORE PUSH0 PUSH1 0x9 SSTORE PUSH0 PUSH1 0xA SSTORE PUSH1 0xA PUSH1 0xB SSTORE TIMESTAMP PUSH1 0xC SSTORE CALLVALUE DUP1 ISZERO PUSH2 0x42 JUMPI PUSH0 DUP1 REVERT JUMPDEST POP PUSH1 0x1 PUSH1 0xD PUSH0 PUSH20 0x5B38DA6A701C568545DCFCB03FCB875F56BEDDC4 PUSH20 0xFFFFFFFFFFFFFFFFFFFFFFFFFFFFFFFFFFFFFFFF AND PUSH20 0xFFFFFFFFFFFFFFFFFFFFFFFFFFFFFFFFFFFFFFFF AND DUP2 MSTORE PUSH1 0x20 ADD SWAP1 DUP2 MSTORE PUSH1 0x20 ADD PUSH0 KECCAK256 PUSH0 PUSH2 0x100 EXP DUP2 SLOAD DUP2 PUSH1 0xFF MUL NOT AND SWAP1 DUP4 ISZERO ISZERO MUL OR SWAP1 SSTORE POP PUSH1 0x1 PUSH1 0xD PUSH0 PUSH20 0xAB8483F64D9C6D1ECF9B849AE677DD3315835CB2 PUSH20 0xFFFFFFFFFFFFFFFFFFFFFFFFFFFFFFFFFFFFFFFF AND PUSH20 0xFFFFFFFFFFFFFFFFFFFFFFFFFFFFFFFFFFFFFFFF AND DUP2 MSTORE PUSH1 0x20 ADD SWAP1 DUP2 MSTORE PUSH1 0x20 ADD PUSH0 KECCAK256 PUSH0 PUSH2 0x100 EXP DUP2 SLOAD DUP2 PUSH1 0xFF MUL NOT AND SWAP1 DUP4 ISZERO ISZERO MUL OR SWAP1 SSTORE POP PUSH1 0x1 PUSH1 0xD PUSH0 PUSH20 0x4B20993BC481177EC7E8F571CECAE8A9E22C02DB PUSH20 0xFFFFFFFFFFFFFFFFFFFFFFFFFFFFFFFFFFFFFFFF AND PUSH20 0xFFFFFFFFFFFFFFFFFFFFFFFFFFFFFFFFFFFFFFFF AND DUP2 MSTORE PUSH1 0x20 ADD SWAP1 DUP2 MSTORE PUSH1 0x20 ADD PUSH0 KECCAK256 PUSH0 PUSH2 0x100 EXP DUP2 SLOAD DUP2 PUSH1 0xFF MUL NOT AND SWAP1 DUP4 ISZERO ISZERO MUL OR SWAP1 SSTORE POP PUSH1 0x1 PUSH1 0xD PUSH0 PUSH20 0x78731D3CA6B7E34AC0F824C42A7CC18A495CABAB PUSH20 0xFFFFFFFFFFFFFFFFFFFFFFFFFFFFFFFFFFFFFFFF AND PUSH20 0xFFFFFFFFFFFFFFFFFFFFFFFFFFFFFFFFFFFFFFFF AND DUP2 MSTORE PUSH1 0x20 ADD SWAP1 DUP2 MSTORE PUSH1 0x20 ADD PUSH0 KECCAK256 PUSH0 PUSH2 0x100 EXP DUP2 SLOAD DUP2 PUSH1 0xFF MUL NOT AND SWAP1 DUP4 ISZERO ISZERO MUL OR SWAP1 SSTORE POP PUSH2 0x2720 DUP1 PUSH2 0x1F4 PUSH0 CODECOPY PUSH0 RETURN INVALID PUSH1 0x80 PUSH1 0x40 MSTORE PUSH1 0x4 CALLDATASIZE LT PUSH2 0x13F JUMPI PUSH0 CALLDATALOAD PUSH1 0xE0 SHR DUP1 PUSH4 0x78E97925 GT PUSH2 0xB5 JUMPI DUP1 PUSH4 0xBC06B8CD GT PUSH2 0x6E JUMPI DUP1 PUSH4 0xBC06B8CD EQ PUSH2 0x41D JUMPI DUP1 PUSH4 0xC876E615 EQ PUSH2 0x447 JUMPI DUP1 PUSH4 0xD891F969 EQ PUSH2 0x471 JUMPI DUP1 PUSH4 0xD97C8416 EQ PUSH2 0x499 JUMPI DUP1 PUSH4 0xF14FCBC8 EQ PUSH2 0x4C3 JUMPI DUP1 PUSH4 0xF71D96CB EQ PUSH2 0x4EB JUMPI PUSH2 0x13F JUMP JUMPDEST DUP1 PUSH4 0x78E97925 EQ PUSH2 0x30F JUMPI DUP1 PUSH4 0x7B43A8E6 EQ PUSH2 0x339 JUMPI DUP1 PUSH4 0x89F71D53 EQ PUSH2 0x377 JUMPI DUP1 PUSH4 0x90D5D0C3 EQ PUSH2 0x3A1 JUMPI DUP1 PUSH4 0xA040478D EQ PUSH2 0x3CB JUMPI DUP1 PUSH4 0xA63F7C53 EQ PUSH2 0x407 JUMPI PUSH2 0x13F JUMP JUMPDEST DUP1 PUSH4 0x3E2B58E0 GT PUSH2 0x107 JUMPI DUP1 PUSH4 0x3E2B58E0 EQ PUSH2 0x219 JUMPI DUP1 PUSH4 0x43CDD438 EQ PUSH2 0x243 JUMPI DUP1 PUSH4 0x558D51C6 EQ PUSH2 0x27F JUMPI DUP1 PUSH4 0x65CE0AC6 EQ PUSH2 0x295 JUMPI DUP1 PUSH4 0x6AC5DB19 EQ PUSH2 0x2BD JUMPI DUP1 PUSH4 0x701FD0F1 EQ PUSH2 0x2E7 JUMPI PUSH2 0x13F JUMP JUMPDEST DUP1 PUSH4 0x86F7815 EQ PUSH2 0x143 JUMPI DUP1 PUSH4 0x190CF745 EQ PUSH2 0x16D JUMPI DUP1 PUSH4 0x228CB733 EQ PUSH2 0x1A9 JUMPI DUP1 PUSH4 0x27B5DB8A EQ PUSH2 0x1D3 JUMPI DUP1 PUSH4 0x3CF5040A EQ PUSH2 0x1DD JUMPI JUMPDEST PUSH0 DUP1 REVERT JUMPDEST CALLVALUE DUP1 ISZERO PUSH2 0x14E JUMPI PUSH0 DUP1 REVERT JUMPDEST POP PUSH2 0x157 PUSH2 0x527 JUMP JUMPDEST PUSH1 0x40 MLOAD PUSH2 0x164 SWAP2 SWAP1 PUSH2 0x1B3A JUMP JUMPDEST PUSH1 0x40 MLOAD DUP1 SWAP2 SUB SWAP1 RETURN JUMPDEST CALLVALUE DUP1 ISZERO PUSH2 0x178 JUMPI PUSH0 DUP1 REVERT JUMPDEST POP PUSH2 0x193 PUSH1 0x4 DUP1 CALLDATASIZE SUB DUP2 ADD SWAP1 PUSH2 0x18E SWAP2 SWAP1 PUSH2 0x1BB1 JUMP JUMPDEST PUSH2 0x52D JUMP JUMPDEST PUSH1 0x40 MLOAD PUSH2 0x1A0 SWAP2 SWAP1 PUSH2 0x1BF6 JUMP JUMPDEST PUSH1 0x40 MLOAD DUP1 SWAP2 SUB SWAP1 RETURN JUMPDEST CALLVALUE DUP1 ISZERO PUSH2 0x1B4 JUMPI PUSH0 DUP1 REVERT JUMPDEST POP PUSH2 0x1BD PUSH2 0x54A JUMP JUMPDEST PUSH1 0x40 MLOAD PUSH2 0x1CA SWAP2 SWAP1 PUSH2 0x1B3A JUMP JUMPDEST PUSH1 0x40 MLOAD DUP1 SWAP2 SUB SWAP1 RETURN JUMPDEST PUSH2 0x1DB PUSH2 0x550 JUMP JUMPDEST STOP JUMPDEST CALLVALUE DUP1 ISZERO PUSH2 0x1E8 JUMPI PUSH0 DUP1 REVERT JUMPDEST POP PUSH2 0x203 PUSH1 0x4 DUP1 CALLDATASIZE SUB DUP2 ADD SWAP1 PUSH2 0x1FE SWAP2 SWAP1 PUSH2 0x1C42 JUMP JUMPDEST PUSH2 0x8A4 JUMP JUMPDEST PUSH1 0x40 MLOAD PUSH2 0x210 SWAP2 SWAP1 PUSH2 0x1C7C JUMP JUMPDEST PUSH1 0x40 MLOAD DUP1 SWAP2 SUB SWAP1 RETURN JUMPDEST CALLVALUE DUP1 ISZERO PUSH2 0x224 JUMPI PUSH0 DUP1 REVERT JUMPDEST POP PUSH2 0x22D PUSH2 0x8D3 JUMP JUMPDEST PUSH1 0x40 MLOAD PUSH2 0x23A SWAP2 SWAP1 PUSH2 0x1B3A JUMP JUMPDEST PUSH1 0x40 MLOAD DUP1 SWAP2 SUB SWAP1 RETURN JUMPDEST CALLVALUE DUP1 ISZERO PUSH2 0x24E JUMPI PUSH0 DUP1 REVERT JUMPDEST POP PUSH2 0x269 PUSH1 0x4 DUP1 CALLDATASIZE SUB DUP2 ADD SWAP1 PUSH2 0x264 SWAP2 SWAP1 PUSH2 0x1BB1 JUMP JUMPDEST PUSH2 0x8D9 JUMP JUMPDEST PUSH1 0x40 MLOAD PUSH2 0x276 SWAP2 SWAP1 PUSH2 0x1BF6 JUMP JUMPDEST PUSH1 0x40 MLOAD DUP1 SWAP2 SUB SWAP1 RETURN JUMPDEST CALLVALUE DUP1 ISZERO PUSH2 0x28A JUMPI PUSH0 DUP1 REVERT JUMPDEST POP PUSH2 0x293 PUSH2 0x8F6 JUMP JUMPDEST STOP JUMPDEST CALLVALUE DUP1 ISZERO PUSH2 0x2A0 JUMPI PUSH0 DUP1 REVERT JUMPDEST POP PUSH2 0x2BB PUSH1 0x4 DUP1 CALLDATASIZE SUB DUP2 ADD SWAP1 PUSH2 0x2B6 SWAP2 SWAP1 PUSH2 0x1C42 JUMP JUMPDEST PUSH2 0xD4E JUMP JUMPDEST STOP JUMPDEST CALLVALUE DUP1 ISZERO PUSH2 0x2C8 JUMPI PUSH0 DUP1 REVERT JUMPDEST POP PUSH2 0x2D1 PUSH2 0xEED JUMP JUMPDEST PUSH1 0x40 MLOAD PUSH2 0x2DE SWAP2 SWAP1 PUSH2 0x1CB0 JUMP JUMPDEST PUSH1 0x40 MLOAD DUP1 SWAP2 SUB SWAP1 RETURN JUMPDEST CALLVALUE DUP1 ISZERO PUSH2 0x2F2 JUMPI PUSH0 DUP1 REVERT JUMPDEST POP PUSH2 0x30D PUSH1 0x4 DUP1 CALLDATASIZE SUB DUP2 ADD SWAP1 PUSH2 0x308 SWAP2 SWAP1 PUSH2 0x1C42 JUMP JUMPDEST PUSH2 0xEFD JUMP JUMPDEST STOP JUMPDEST CALLVALUE DUP1 ISZERO PUSH2 0x31A JUMPI PUSH0 DUP1 REVERT JUMPDEST POP PUSH2 0x323 PUSH2 0x12BB JUMP JUMPDEST PUSH1 0x40 MLOAD PUSH2 0x330 SWAP2 SWAP1 PUSH2 0x1B3A JUMP JUMPDEST PUSH1 0x40 MLOAD DUP1 SWAP2 SUB SWAP1 RETURN JUMPDEST CALLVALUE DUP1 ISZERO PUSH2 0x344 JUMPI PUSH0 DUP1 REVERT JUMPDEST POP PUSH2 0x35F PUSH1 0x4 DUP1 CALLDATASIZE SUB DUP2 ADD SWAP1 PUSH2 0x35A SWAP2 SWAP1 PUSH2 0x1BB1 JUMP JUMPDEST PUSH2 0x12C1 JUMP JUMPDEST PUSH1 0x40 MLOAD PUSH2 0x36E SWAP4 SWAP3 SWAP2 SWAP1 PUSH2 0x1CEB JUMP JUMPDEST PUSH1 0x40 MLOAD DUP1 SWAP2 SUB SWAP1 RETURN JUMPDEST CALLVALUE DUP1 ISZERO PUSH2 0x382 JUMPI PUSH0 DUP1 REVERT JUMPDEST POP PUSH2 0x38B PUSH2 0x1307 JUMP JUMPDEST PUSH1 0x40 MLOAD PUSH2 0x398 SWAP2 SWAP1 PUSH2 0x1B3A JUMP JUMPDEST PUSH1 0x40 MLOAD DUP1 SWAP2 SUB SWAP1 RETURN JUMPDEST CALLVALUE DUP1 ISZERO PUSH2 0x3AC JUMPI PUSH0 DUP1 REVERT JUMPDEST POP PUSH2 0x3B5 PUSH2 0x130D JUMP JUMPDEST PUSH1 0x40 MLOAD PUSH2 0x3C2 SWAP2 SWAP1 PUSH2 0x1B3A JUMP JUMPDEST PUSH1 0x40 MLOAD DUP1 SWAP2 SUB SWAP1 RETURN JUMPDEST CALLVALUE DUP1 ISZERO PUSH2 0x3D6 JUMPI PUSH0 DUP1 REVERT JUMPDEST POP PUSH2 0x3F1 PUSH1 0x4 DUP1 CALLDATASIZE SUB DUP2 ADD SWAP1 PUSH2 0x3EC SWAP2 SWAP1 PUSH2 0x1BB1 JUMP JUMPDEST PUSH2 0x1313 JUMP JUMPDEST PUSH1 0x40 MLOAD PUSH2 0x3FE SWAP2 SWAP1 PUSH2 0x1B3A JUMP JUMPDEST PUSH1 0x40 MLOAD DUP1 SWAP2 SUB SWAP1 RETURN JUMPDEST CALLVALUE DUP1 ISZERO PUSH2 0x412 JUMPI PUSH0 DUP1 REVERT JUMPDEST POP PUSH2 0x41B PUSH2 0x1328 JUMP JUMPDEST STOP JUMPDEST CALLVALUE DUP1 ISZERO PUSH2 0x428 JUMPI PUSH0 DUP1 REVERT JUMPDEST POP PUSH2 0x431 PUSH2 0x1331 JUMP JUMPDEST PUSH1 0x40 MLOAD PUSH2 0x43E SWAP2 SWAP1 PUSH2 0x1B3A JUMP JUMPDEST PUSH1 0x40 MLOAD DUP1 SWAP2 SUB SWAP1 RETURN JUMPDEST CALLVALUE DUP1 ISZERO PUSH2 0x452 JUMPI PUSH0 DUP1 REVERT JUMPDEST POP PUSH2 0x45B PUSH2 0x1345 JUMP JUMPDEST PUSH1 0x40 MLOAD PUSH2 0x468 SWAP2 SWAP1 PUSH2 0x1B3A JUMP JUMPDEST PUSH1 0x40 MLOAD DUP1 SWAP2 SUB SWAP1 RETURN JUMPDEST CALLVALUE DUP1 ISZERO PUSH2 0x47C JUMPI PUSH0 DUP1 REVERT JUMPDEST POP PUSH2 0x497 PUSH1 0x4 DUP1 CALLDATASIZE SUB DUP2 ADD SWAP1 PUSH2 0x492 SWAP2 SWAP1 PUSH2 0x1C42 JUMP JUMPDEST PUSH2 0x134B JUMP JUMPDEST STOP JUMPDEST CALLVALUE DUP1 ISZERO PUSH2 0x4A4 JUMPI PUSH0 DUP1 REVERT JUMPDEST POP PUSH2 0x4AD PUSH2 0x158E JUMP JUMPDEST PUSH1 0x40 MLOAD PUSH2 0x4BA SWAP2 SWAP1 PUSH2 0x1B3A JUMP JUMPDEST PUSH1 0x40 MLOAD DUP1 SWAP2 SUB SWAP1 RETURN JUMPDEST CALLVALUE DUP1 ISZERO PUSH2 0x4CE JUMPI PUSH0 DUP1 REVERT JUMPDEST POP PUSH2 0x4E9 PUSH1 0x4 DUP1 CALLDATASIZE SUB DUP2 ADD SWAP1 PUSH2 0x4E4 SWAP2 SWAP1 PUSH2 0x1C42 JUMP JUMPDEST PUSH2 0x15AE JUMP JUMPDEST STOP JUMPDEST CALLVALUE DUP1 ISZERO PUSH2 0x4F6 JUMPI PUSH0 DUP1 REVERT JUMPDEST POP PUSH2 0x511 PUSH1 0x4 DUP1 CALLDATASIZE SUB DUP2 ADD SWAP1 PUSH2 0x50C SWAP2 SWAP1 PUSH2 0x1D4A JUMP JUMPDEST PUSH2 0x1780 JUMP JUMPDEST PUSH1 0x40 MLOAD PUSH2 0x51E SWAP2 SWAP1 PUSH2 0x1D84 JUMP JUMPDEST PUSH1 0x40 MLOAD DUP1 SWAP2 SUB SWAP1 RETURN JUMPDEST PUSH1 0x9 SLOAD DUP2 JUMP JUMPDEST PUSH1 0x6 PUSH1 0x20 MSTORE DUP1 PUSH0 MSTORE PUSH1 0x40 PUSH0 KECCAK256 PUSH0 SWAP2 POP SLOAD SWAP1 PUSH2 0x100 EXP SWAP1 DIV PUSH1 0xFF AND DUP2 JUMP JUMPDEST PUSH1 0x4 SLOAD DUP2 JUMP JUMPDEST PUSH1 0x2 PUSH1 0x3 SLOAD LT PUSH2 0x595 JUMPI PUSH1 0x40 MLOAD PUSH32 0x8C379A000000000000000000000000000000000000000000000000000000000 DUP2 MSTORE PUSH1 0x4 ADD PUSH2 0x58C SWAP1 PUSH2 0x1DF7 JUMP JUMPDEST PUSH1 0x40 MLOAD DUP1 SWAP2 SUB SWAP1 REVERT JUMPDEST PUSH1 0xD PUSH0 CALLER PUSH20 0xFFFFFFFFFFFFFFFFFFFFFFFFFFFFFFFFFFFFFFFF AND PUSH20 0xFFFFFFFFFFFFFFFFFFFFFFFFFFFFFFFFFFFFFFFF AND DUP2 MSTORE PUSH1 0x20 ADD SWAP1 DUP2 MSTORE PUSH1 0x20 ADD PUSH0 KECCAK256 PUSH0 SWAP1 SLOAD SWAP1 PUSH2 0x100 EXP SWAP1 DIV PUSH1 0xFF AND PUSH2 0x61E JUMPI PUSH1 0x40 MLOAD PUSH32 0x8C379A000000000000000000000000000000000000000000000000000000000 DUP2 MSTORE PUSH1 0x4 ADD PUSH2 0x615 SWAP1 PUSH2 0x1E5F JUMP JUMPDEST PUSH1 0x40 MLOAD DUP1 SWAP2 SUB SWAP1 REVERT JUMPDEST PUSH0 PUSH1 0x3 SLOAD GT ISZERO PUSH2 0x69B JUMPI PUSH1 0x7 PUSH0 DUP2 SLOAD DUP2 LT PUSH2 0x63C JUMPI PUSH2 0x63B PUSH2 0x1E7D JUMP JUMPDEST JUMPDEST SWAP1 PUSH0 MSTORE PUSH1 0x20 PUSH0 KECCAK256 ADD PUSH0 SWAP1 SLOAD SWAP1 PUSH2 0x100 EXP SWAP1 DIV PUSH20 0xFFFFFFFFFFFFFFFFFFFFFFFFFFFFFFFFFFFFFFFF AND PUSH20 0xFFFFFFFFFFFFFFFFFFFFFFFFFFFFFFFFFFFFFFFF AND CALLER PUSH20 0xFFFFFFFFFFFFFFFFFFFFFFFFFFFFFFFFFFFFFFFF AND SUB PUSH2 0x69A JUMPI PUSH0 DUP1 REVERT JUMPDEST JUMPDEST PUSH8 0xDE0B6B3A7640000 CALLVALUE EQ PUSH2 0x6E5 JUMPI PUSH1 0x40 MLOAD PUSH32 0x8C379A000000000000000000000000000000000000000000000000000000000 DUP2 MSTORE PUSH1 0x4 ADD PUSH2 0x6DC SWAP1 PUSH2 0x1EF4 JUMP JUMPDEST PUSH1 0x40 MLOAD DUP1 SWAP2 SUB SWAP1 REVERT JUMPDEST CALLVALUE PUSH1 0x4 PUSH0 DUP3 DUP3 SLOAD PUSH2 0x6F6 SWAP2 SWAP1 PUSH2 0x1F3F JUMP JUMPDEST SWAP3 POP POP DUP2 SWAP1 SSTORE POP PUSH1 0x1 PUSH1 0x6 PUSH0 CALLER PUSH20 0xFFFFFFFFFFFFFFFFFFFFFFFFFFFFFFFFFFFFFFFF AND PUSH20 0xFFFFFFFFFFFFFFFFFFFFFFFFFFFFFFFFFFFFFFFF AND DUP2 MSTORE PUSH1 0x20 ADD SWAP1 DUP2 MSTORE PUSH1 0x20 ADD PUSH0 KECCAK256 PUSH0 PUSH2 0x100 EXP DUP2 SLOAD DUP2 PUSH1 0xFF MUL NOT AND SWAP1 DUP4 ISZERO ISZERO MUL OR SWAP1 SSTORE POP PUSH1 0x7 CALLER SWAP1 DUP1 PUSH1 0x1 DUP2 SLOAD ADD DUP1 DUP3 SSTORE DUP1 SWAP2 POP POP PUSH1 0x1 SWAP1 SUB SWAP1 PUSH0 MSTORE PUSH1 0x20 PUSH0 KECCAK256 ADD PUSH0 SWAP1 SWAP2 SWAP1 SWAP2 SWAP1 SWAP2 PUSH2 0x100 EXP DUP2 SLOAD DUP2 PUSH20 0xFFFFFFFFFFFFFFFFFFFFFFFFFFFFFFFFFFFFFFFF MUL NOT AND SWAP1 DUP4 PUSH20 0xFFFFFFFFFFFFFFFFFFFFFFFFFFFFFFFFFFFFFFFF AND MUL OR SWAP1 SSTORE POP PUSH1 0x5 DUP1 PUSH0 CALLER PUSH20 0xFFFFFFFFFFFFFFFFFFFFFFFFFFFFFFFFFFFFFFFF AND PUSH20 0xFFFFFFFFFFFFFFFFFFFFFFFFFFFFFFFFFFFFFFFF AND DUP2 MSTORE PUSH1 0x20 ADD SWAP1 DUP2 MSTORE PUSH1 0x20 ADD PUSH0 KECCAK256 DUP2 SWAP1 SSTORE POP PUSH0 PUSH1 0x8 PUSH0 CALLER PUSH20 0xFFFFFFFFFFFFFFFFFFFFFFFFFFFFFFFFFFFFFFFF AND PUSH20 0xFFFFFFFFFFFFFFFFFFFFFFFFFFFFFFFFFFFFFFFF AND DUP2 MSTORE PUSH1 0x20 ADD SWAP1 DUP2 MSTORE PUSH1 0x20 ADD PUSH0 KECCAK256 PUSH0 PUSH2 0x100 EXP DUP2 SLOAD DUP2 PUSH1 0xFF MUL NOT AND SWAP1 DUP4 ISZERO ISZERO MUL OR SWAP1 SSTORE POP PUSH1 0x3 PUSH0 DUP2 SLOAD DUP1 SWAP3 SWAP2 SWAP1 PUSH2 0x85A SWAP1 PUSH2 0x1F72 JUMP JUMPDEST SWAP2 SWAP1 POP SSTORE POP PUSH32 0x313F9EBDCA9D25EE9456DD69022E3324975C8261B7A8B134881905D3B6964D3C CALLER PUSH1 0x3 SLOAD PUSH1 0x40 MLOAD PUSH2 0x892 SWAP3 SWAP2 SWAP1 PUSH2 0x1FB9 JUMP JUMPDEST PUSH1 0x40 MLOAD DUP1 SWAP2 SUB SWAP1 LOG1 PUSH2 0x8A2 PUSH2 0x1328 JUMP JUMPDEST JUMP JUMPDEST PUSH0 DUP2 PUSH1 0x40 MLOAD PUSH1 0x20 ADD PUSH2 0x8B6 SWAP2 SWAP1 PUSH2 0x2000 JUMP JUMPDEST PUSH1 0x40 MLOAD PUSH1 0x20 DUP2 DUP4 SUB SUB DUP2 MSTORE SWAP1 PUSH1 0x40 MSTORE DUP1 MLOAD SWAP1 PUSH1 0x20 ADD KECCAK256 SWAP1 POP SWAP2 SWAP1 POP JUMP JUMPDEST PUSH1 0xB SLOAD DUP2 JUMP JUMPDEST PUSH1 0x8 PUSH1 0x20 MSTORE DUP1 PUSH0 MSTORE PUSH1 0x40 PUSH0 KECCAK256 PUSH0 SWAP2 POP SLOAD SWAP1 PUSH2 0x100 EXP SWAP1 DIV PUSH1 0xFF AND DUP2 JUMP JUMPDEST PUSH1 0x1 PUSH1 0x3 SLOAD LT ISZERO PUSH2 0x905 JUMPI PUSH0 DUP1 REVERT JUMPDEST PUSH1 0xB SLOAD PUSH2 0x910 PUSH2 0x1331 JUMP JUMPDEST GT PUSH2 0x950 JUMPI PUSH1 0x40 MLOAD PUSH32 0x8C379A000000000000000000000000000000000000000000000000000000000 DUP2 MSTORE PUSH1 0x4 ADD PUSH2 0x947 SWAP1 PUSH2 0x208A JUMP JUMPDEST PUSH1 0x40 MLOAD DUP1 SWAP2 SUB SWAP1 REVERT JUMPDEST PUSH1 0x4 SLOAD SELFBALANCE LT ISZERO PUSH2 0x995 JUMPI PUSH1 0x40 MLOAD PUSH32 0x8C379A000000000000000000000000000000000000000000000000000000000 DUP2 MSTORE PUSH1 0x4 ADD PUSH2 0x98C SWAP1 PUSH2 0x2118 JUMP JUMPDEST PUSH1 0x40 MLOAD DUP1 SWAP2 SUB SWAP1 REVERT JUMPDEST PUSH0 PUSH1 0x7 PUSH0 DUP2 SLOAD DUP2 LT PUSH2 0x9AA JUMPI PUSH2 0x9A9 PUSH2 0x1E7D JUMP JUMPDEST JUMPDEST SWAP1 PUSH0 MSTORE PUSH1 0x20 PUSH0 KECCAK256 ADD PUSH0 SWAP1 SLOAD SWAP1 PUSH2 0x100 EXP SWAP1 DIV PUSH20 0xFFFFFFFFFFFFFFFFFFFFFFFFFFFFFFFFFFFFFFFF AND SWAP1 POP PUSH1 0x1 PUSH1 0x3 SLOAD SUB PUSH2 0xA31 JUMPI DUP1 PUSH20 0xFFFFFFFFFFFFFFFFFFFFFFFFFFFFFFFFFFFFFFFF AND PUSH2 0x8FC PUSH1 0x4 SLOAD SWAP1 DUP2 ISZERO MUL SWAP1 PUSH1 0x40 MLOAD PUSH0 PUSH1 0x40 MLOAD DUP1 DUP4 SUB DUP2 DUP6 DUP9 DUP9 CALL SWAP4 POP POP POP POP ISZERO DUP1 ISZERO PUSH2 0xA23 JUMPI RETURNDATASIZE PUSH0 DUP1 RETURNDATACOPY RETURNDATASIZE PUSH0 REVERT JUMPDEST POP PUSH2 0xA2C PUSH2 0x17BB JUMP JUMPDEST PUSH2 0xD4B JUMP JUMPDEST PUSH1 0x2 PUSH1 0x3 SLOAD SUB PUSH2 0xD4A JUMPI PUSH0 PUSH1 0x7 PUSH1 0x1 DUP2 SLOAD DUP2 LT PUSH2 0xA51 JUMPI PUSH2 0xA50 PUSH2 0x1E7D JUMP JUMPDEST JUMPDEST SWAP1 PUSH0 MSTORE PUSH1 0x20 PUSH0 KECCAK256 ADD PUSH0 SWAP1 SLOAD SWAP1 PUSH2 0x100 EXP SWAP1 DIV PUSH20 0xFFFFFFFFFFFFFFFFFFFFFFFFFFFFFFFFFFFFFFFF AND SWAP1 POP PUSH0 PUSH1 0x9 SLOAD EQ DUP1 PUSH2 0xA9A JUMPI POP PUSH1 0x2 PUSH1 0x9 SLOAD EQ DUP1 ISZERO PUSH2 0xA99 JUMPI POP PUSH0 PUSH1 0xA SLOAD EQ JUMPDEST JUMPDEST ISZERO PUSH2 0xB50 JUMPI DUP2 PUSH20 0xFFFFFFFFFFFFFFFFFFFFFFFFFFFFFFFFFFFFFFFF AND PUSH2 0x8FC PUSH1 0x2 PUSH1 0x4 SLOAD PUSH2 0xAC8 SWAP2 SWAP1 PUSH2 0x2163 JUMP JUMPDEST SWAP1 DUP2 ISZERO MUL SWAP1 PUSH1 0x40 MLOAD PUSH0 PUSH1 0x40 MLOAD DUP1 DUP4 SUB DUP2 DUP6 DUP9 DUP9 CALL SWAP4 POP POP POP POP ISZERO DUP1 ISZERO PUSH2 0xAF0 JUMPI RETURNDATASIZE PUSH0 DUP1 RETURNDATACOPY RETURNDATASIZE PUSH0 REVERT JUMPDEST POP DUP1 PUSH20 0xFFFFFFFFFFFFFFFFFFFFFFFFFFFFFFFFFFFFFFFF AND PUSH2 0x8FC PUSH1 0x2 PUSH1 0x4 SLOAD PUSH2 0xB1A SWAP2 SWAP1 PUSH2 0x2163 JUMP JUMPDEST SWAP1 DUP2 ISZERO MUL SWAP1 PUSH1 0x40 MLOAD PUSH0 PUSH1 0x40 MLOAD DUP1 DUP4 SUB DUP2 DUP6 DUP9 DUP9 CALL SWAP4 POP POP POP POP ISZERO DUP1 ISZERO PUSH2 0xB42 JUMPI RETURNDATASIZE PUSH0 DUP1 RETURNDATACOPY RETURNDATASIZE PUSH0 REVERT JUMPDEST POP PUSH2 0xB4B PUSH2 0x17BB JUMP JUMPDEST PUSH2 0xD48 JUMP JUMPDEST PUSH1 0x1 PUSH1 0x9 SLOAD SUB PUSH2 0xC4E JUMPI PUSH1 0x1 ISZERO ISZERO PUSH1 0x8 PUSH0 DUP5 PUSH20 0xFFFFFFFFFFFFFFFFFFFFFFFFFFFFFFFFFFFFFFFF AND PUSH20 0xFFFFFFFFFFFFFFFFFFFFFFFFFFFFFFFFFFFFFFFF AND DUP2 MSTORE PUSH1 0x20 ADD SWAP1 DUP2 MSTORE PUSH1 0x20 ADD PUSH0 KECCAK256 PUSH0 SWAP1 SLOAD SWAP1 PUSH2 0x100 EXP SWAP1 DIV PUSH1 0xFF AND ISZERO ISZERO SUB PUSH2 0xBFA JUMPI DUP2 PUSH20 0xFFFFFFFFFFFFFFFFFFFFFFFFFFFFFFFFFFFFFFFF AND PUSH2 0x8FC PUSH1 0x4 SLOAD SWAP1 DUP2 ISZERO MUL SWAP1 PUSH1 0x40 MLOAD PUSH0 PUSH1 0x40 MLOAD DUP1 DUP4 SUB DUP2 DUP6 DUP9 DUP9 CALL SWAP4 POP POP POP POP ISZERO DUP1 ISZERO PUSH2 0xBF4 JUMPI RETURNDATASIZE PUSH0 DUP1 RETURNDATACOPY RETURNDATASIZE PUSH0 REVERT JUMPDEST POP PUSH2 0xC41 JUMP JUMPDEST DUP1 PUSH20 0xFFFFFFFFFFFFFFFFFFFFFFFFFFFFFFFFFFFFFFFF AND PUSH2 0x8FC PUSH1 0x4 SLOAD SWAP1 DUP2 ISZERO MUL SWAP1 PUSH1 0x40 MLOAD PUSH0 PUSH1 0x40 MLOAD DUP1 DUP4 SUB DUP2 DUP6 DUP9 DUP9 CALL SWAP4 POP POP POP POP ISZERO DUP1 ISZERO PUSH2 0xC3F JUMPI RETURNDATASIZE PUSH0 DUP1 RETURNDATACOPY RETURNDATASIZE PUSH0 REVERT JUMPDEST POP JUMPDEST PUSH2 0xC49 PUSH2 0x17BB JUMP JUMPDEST PUSH2 0xD47 JUMP JUMPDEST PUSH1 0x2 PUSH1 0x9 SLOAD EQ DUP1 ISZERO PUSH2 0xC62 JUMPI POP PUSH1 0x1 PUSH1 0xA SLOAD EQ JUMPDEST ISZERO PUSH2 0xD46 JUMPI PUSH1 0x5 DUP1 PUSH0 DUP5 PUSH20 0xFFFFFFFFFFFFFFFFFFFFFFFFFFFFFFFFFFFFFFFF AND PUSH20 0xFFFFFFFFFFFFFFFFFFFFFFFFFFFFFFFFFFFFFFFF AND DUP2 MSTORE PUSH1 0x20 ADD SWAP1 DUP2 MSTORE PUSH1 0x20 ADD PUSH0 KECCAK256 SLOAD EQ PUSH2 0xCF6 JUMPI DUP2 PUSH20 0xFFFFFFFFFFFFFFFFFFFFFFFFFFFFFFFFFFFFFFFF AND PUSH2 0x8FC PUSH1 0x4 SLOAD SWAP1 DUP2 ISZERO MUL SWAP1 PUSH1 0x40 MLOAD PUSH0 PUSH1 0x40 MLOAD DUP1 DUP4 SUB DUP2 DUP6 DUP9 DUP9 CALL SWAP4 POP POP POP POP ISZERO DUP1 ISZERO PUSH2 0xCF0 JUMPI RETURNDATASIZE PUSH0 DUP1 RETURNDATACOPY RETURNDATASIZE PUSH0 REVERT JUMPDEST POP PUSH2 0xD3D JUMP JUMPDEST DUP1 PUSH20 0xFFFFFFFFFFFFFFFFFFFFFFFFFFFFFFFFFFFFFFFF AND PUSH2 0x8FC PUSH1 0x4 SLOAD SWAP1 DUP2 ISZERO MUL SWAP1 PUSH1 0x40 MLOAD PUSH0 PUSH1 0x40 MLOAD DUP1 DUP4 SUB DUP2 DUP6 DUP9 DUP9 CALL SWAP4 POP POP POP POP ISZERO DUP1 ISZERO PUSH2 0xD3B JUMPI RETURNDATASIZE PUSH0 DUP1 RETURNDATACOPY RETURNDATASIZE PUSH0 REVERT JUMPDEST POP JUMPDEST PUSH2 0xD45 PUSH2 0x17BB JUMP JUMPDEST JUMPDEST JUMPDEST JUMPDEST POP JUMPDEST JUMPDEST POP JUMP JUMPDEST PUSH1 0x2 PUSH1 0x3 SLOAD EQ PUSH2 0xD5C JUMPI PUSH0 DUP1 REVERT JUMPDEST PUSH1 0x2 PUSH1 0x9 SLOAD EQ PUSH2 0xD6A JUMPI PUSH0 DUP1 REVERT JUMPDEST PUSH0 DUP2 PUSH1 0x1F PUSH1 0x20 DUP2 LT PUSH2 0xD7F JUMPI PUSH2 0xD7E PUSH2 0x1E7D JUMP JUMPDEST JUMPDEST BYTE PUSH1 0xF8 SHL PUSH1 0xF8 SHR PUSH1 0xFF AND SWAP1 POP PUSH0 DUP2 LT ISZERO DUP1 ISZERO PUSH2 0xD9C JUMPI POP PUSH1 0x4 DUP2 GT ISZERO JUMPDEST PUSH2 0xDDB JUMPI PUSH1 0x40 MLOAD PUSH32 0x8C379A000000000000000000000000000000000000000000000000000000000 DUP2 MSTORE PUSH1 0x4 ADD PUSH2 0xDD2 SWAP1 PUSH2 0x2203 JUMP JUMPDEST PUSH1 0x40 MLOAD DUP1 SWAP2 SUB SWAP1 REVERT JUMPDEST PUSH1 0x8 PUSH0 CALLER PUSH20 0xFFFFFFFFFFFFFFFFFFFFFFFFFFFFFFFFFFFFFFFF AND PUSH20 0xFFFFFFFFFFFFFFFFFFFFFFFFFFFFFFFFFFFFFFFF AND DUP2 MSTORE PUSH1 0x20 ADD SWAP1 DUP2 MSTORE PUSH1 0x20 ADD PUSH0 KECCAK256 PUSH0 SWAP1 SLOAD SWAP1 PUSH2 0x100 EXP SWAP1 DIV PUSH1 0xFF AND PUSH2 0xE64 JUMPI PUSH1 0x40 MLOAD PUSH32 0x8C379A000000000000000000000000000000000000000000000000000000000 DUP2 MSTORE PUSH1 0x4 ADD PUSH2 0xE5B SWAP1 PUSH2 0x226B JUMP JUMPDEST PUSH1 0x40 MLOAD DUP1 SWAP2 SUB SWAP1 REVERT JUMPDEST PUSH2 0xE6D DUP3 PUSH2 0xEFD JUMP JUMPDEST DUP1 PUSH1 0x5 PUSH0 CALLER PUSH20 0xFFFFFFFFFFFFFFFFFFFFFFFFFFFFFFFFFFFFFFFF AND PUSH20 0xFFFFFFFFFFFFFFFFFFFFFFFFFFFFFFFFFFFFFFFF AND DUP2 MSTORE PUSH1 0x20 ADD SWAP1 DUP2 MSTORE PUSH1 0x20 ADD PUSH0 KECCAK256 DUP2 SWAP1 SSTORE POP PUSH1 0xA PUSH0 DUP2 SLOAD DUP1 SWAP3 SWAP2 SWAP1 PUSH2 0xEC1 SWAP1 PUSH2 0x1F72 JUMP JUMPDEST SWAP2 SWAP1 POP SSTORE POP PUSH2 0xECE PUSH2 0x1328 JUMP JUMPDEST PUSH1 0x2 PUSH1 0xA SLOAD SUB PUSH2 0xEE9 JUMPI PUSH2 0xEE0 PUSH2 0x17E6 JUMP JUMPDEST PUSH2 0xEE8 PUSH2 0x17BB JUMP JUMPDEST JUMPDEST POP POP JUMP JUMPDEST PUSH0 DUP1 SLOAD SWAP1 PUSH2 0x100 EXP SWAP1 DIV PUSH1 0xFF AND DUP2 JUMP JUMPDEST PUSH0 ISZERO ISZERO PUSH1 0x1 PUSH0 CALLER PUSH20 0xFFFFFFFFFFFFFFFFFFFFFFFFFFFFFFFFFFFFFFFF AND PUSH20 0xFFFFFFFFFFFFFFFFFFFFFFFFFFFFFFFFFFFFFFFF AND DUP2 MSTORE PUSH1 0x20 ADD SWAP1 DUP2 MSTORE PUSH1 0x20 ADD PUSH0 KECCAK256 PUSH1 0x1 ADD PUSH1 0x8 SWAP1 SLOAD SWAP1 PUSH2 0x100 EXP SWAP1 DIV PUSH1 0xFF AND ISZERO ISZERO EQ PUSH2 0xF90 JUMPI PUSH1 0x40 MLOAD PUSH32 0x8C379A000000000000000000000000000000000000000000000000000000000 DUP2 MSTORE PUSH1 0x4 ADD PUSH2 0xF87 SWAP1 PUSH2 0x22F9 JUMP JUMPDEST PUSH1 0x40 MLOAD DUP1 SWAP2 SUB SWAP1 REVERT JUMPDEST PUSH1 0x1 DUP1 PUSH0 CALLER PUSH20 0xFFFFFFFFFFFFFFFFFFFFFFFFFFFFFFFFFFFFFFFF AND PUSH20 0xFFFFFFFFFFFFFFFFFFFFFFFFFFFFFFFFFFFFFFFF AND DUP2 MSTORE PUSH1 0x20 ADD SWAP1 DUP2 MSTORE PUSH1 0x20 ADD PUSH0 KECCAK256 PUSH1 0x1 ADD PUSH1 0x8 PUSH2 0x100 EXP DUP2 SLOAD DUP2 PUSH1 0xFF MUL NOT AND SWAP1 DUP4 ISZERO ISZERO MUL OR SWAP1 SSTORE POP PUSH1 0x1 PUSH0 CALLER PUSH20 0xFFFFFFFFFFFFFFFFFFFFFFFFFFFFFFFFFFFFFFFF AND PUSH20 0xFFFFFFFFFFFFFFFFFFFFFFFFFFFFFFFFFFFFFFFF AND DUP2 MSTORE PUSH1 0x20 ADD SWAP1 DUP2 MSTORE PUSH1 0x20 ADD PUSH0 KECCAK256 PUSH0 ADD SLOAD PUSH2 0x1031 DUP3 PUSH2 0x8A4 JUMP JUMPDEST EQ PUSH2 0x1071 JUMPI PUSH1 0x40 MLOAD PUSH32 0x8C379A000000000000000000000000000000000000000000000000000000000 DUP2 MSTORE PUSH1 0x4 ADD PUSH2 0x1068 SWAP1 PUSH2 0x2387 JUMP JUMPDEST PUSH1 0x40 MLOAD DUP1 SWAP2 SUB SWAP1 REVERT JUMPDEST PUSH1 0x1 PUSH0 CALLER PUSH20 0xFFFFFFFFFFFFFFFFFFFFFFFFFFFFFFFFFFFFFFFF AND PUSH20 0xFFFFFFFFFFFFFFFFFFFFFFFFFFFFFFFFFFFFFFFF AND DUP2 MSTORE PUSH1 0x20 ADD SWAP1 DUP2 MSTORE PUSH1 0x20 ADD PUSH0 KECCAK256 PUSH1 0x1 ADD PUSH0 SWAP1 SLOAD SWAP1 PUSH2 0x100 EXP SWAP1 DIV PUSH8 0xFFFFFFFFFFFFFFFF AND PUSH8 0xFFFFFFFFFFFFFFFF AND NUMBER PUSH8 0xFFFFFFFFFFFFFFFF AND GT PUSH2 0x111A JUMPI PUSH1 0x40 MLOAD PUSH32 0x8C379A000000000000000000000000000000000000000000000000000000000 DUP2 MSTORE PUSH1 0x4 ADD PUSH2 0x1111 SWAP1 PUSH2 0x243B JUMP JUMPDEST PUSH1 0x40 MLOAD DUP1 SWAP2 SUB SWAP1 REVERT JUMPDEST PUSH1 0xFA PUSH1 0x1 PUSH0 CALLER PUSH20 0xFFFFFFFFFFFFFFFFFFFFFFFFFFFFFFFFFFFFFFFF AND PUSH20 0xFFFFFFFFFFFFFFFFFFFFFFFFFFFFFFFFFFFFFFFF AND DUP2 MSTORE PUSH1 0x20 ADD SWAP1 DUP2 MSTORE PUSH1 0x20 ADD PUSH0 KECCAK256 PUSH1 0x1 ADD PUSH0 SWAP1 SLOAD SWAP1 PUSH2 0x100 EXP SWAP1 DIV PUSH8 0xFFFFFFFFFFFFFFFF AND PUSH2 0x117A SWAP2 SWAP1 PUSH2 0x2459 JUMP JUMPDEST PUSH8 0xFFFFFFFFFFFFFFFF AND NUMBER PUSH8 0xFFFFFFFFFFFFFFFF AND GT ISZERO PUSH2 0x11D0 JUMPI PUSH1 0x40 MLOAD PUSH32 0x8C379A000000000000000000000000000000000000000000000000000000000 DUP2 MSTORE PUSH1 0x4 ADD PUSH2 0x11C7 SWAP1 PUSH2 0x2504 JUMP JUMPDEST PUSH1 0x40 MLOAD DUP1 SWAP2 SUB SWAP1 REVERT JUMPDEST PUSH0 PUSH1 0x1 PUSH0 CALLER PUSH20 0xFFFFFFFFFFFFFFFFFFFFFFFFFFFFFFFFFFFFFFFF AND PUSH20 0xFFFFFFFFFFFFFFFFFFFFFFFFFFFFFFFFFFFFFFFF AND DUP2 MSTORE PUSH1 0x20 ADD SWAP1 DUP2 MSTORE PUSH1 0x20 ADD PUSH0 KECCAK256 PUSH1 0x1 ADD PUSH0 SWAP1 SLOAD SWAP1 PUSH2 0x100 EXP SWAP1 DIV PUSH8 0xFFFFFFFFFFFFFFFF AND PUSH8 0xFFFFFFFFFFFFFFFF AND BLOCKHASH SWAP1 POP PUSH0 DUP1 PUSH0 SWAP1 SLOAD SWAP1 PUSH2 0x100 EXP SWAP1 DIV PUSH1 0xFF AND PUSH1 0xFF AND DUP3 DUP5 PUSH1 0x40 MLOAD PUSH1 0x20 ADD PUSH2 0x1257 SWAP3 SWAP2 SWAP1 PUSH2 0x2522 JUMP JUMPDEST PUSH1 0x40 MLOAD PUSH1 0x20 DUP2 DUP4 SUB SUB DUP2 MSTORE SWAP1 PUSH1 0x40 MSTORE DUP1 MLOAD SWAP1 PUSH1 0x20 ADD KECCAK256 PUSH0 SHR PUSH2 0x1279 SWAP2 SWAP1 PUSH2 0x254D JUMP JUMPDEST SWAP1 POP PUSH32 0xBC016DD1CADEAEFCB851AF7A0A93532E0023D536894B730801F7BCFE7065BCC2 CALLER DUP5 DUP4 PUSH1 0x40 MLOAD PUSH2 0x12AE SWAP4 SWAP3 SWAP2 SWAP1 PUSH2 0x257D JUMP JUMPDEST PUSH1 0x40 MLOAD DUP1 SWAP2 SUB SWAP1 LOG1 POP POP POP JUMP JUMPDEST PUSH1 0x2 SLOAD DUP2 JUMP JUMPDEST PUSH1 0x1 PUSH1 0x20 MSTORE DUP1 PUSH0 MSTORE PUSH1 0x40 PUSH0 KECCAK256 PUSH0 SWAP2 POP SWAP1 POP DUP1 PUSH0 ADD SLOAD SWAP1 DUP1 PUSH1 0x1 ADD PUSH0 SWAP1 SLOAD SWAP1 PUSH2 0x100 EXP SWAP1 DIV PUSH8 0xFFFFFFFFFFFFFFFF AND SWAP1 DUP1 PUSH1 0x1 ADD PUSH1 0x8 SWAP1 SLOAD SWAP1 PUSH2 0x100 EXP SWAP1 DIV PUSH1 0xFF AND SWAP1 POP DUP4 JUMP JUMPDEST PUSH1 0xC SLOAD DUP2 JUMP JUMPDEST PUSH1 0x3 SLOAD DUP2 JUMP JUMPDEST PUSH1 0x5 PUSH1 0x20 MSTORE DUP1 PUSH0 MSTORE PUSH1 0x40 PUSH0 KECCAK256 PUSH0 SWAP2 POP SWAP1 POP SLOAD DUP2 JUMP JUMPDEST TIMESTAMP PUSH1 0x2 DUP2 SWAP1 SSTORE POP JUMP JUMPDEST PUSH0 PUSH1 0x2 SLOAD TIMESTAMP PUSH2 0x1340 SWAP2 SWAP1 PUSH2 0x25B2 JUMP JUMPDEST SWAP1 POP SWAP1 JUMP JUMPDEST PUSH1 0xA SLOAD DUP2 JUMP JUMPDEST PUSH1 0x2 PUSH1 0x3 SLOAD EQ PUSH2 0x1390 JUMPI PUSH1 0x40 MLOAD PUSH32 0x8C379A000000000000000000000000000000000000000000000000000000000 DUP2 MSTORE PUSH1 0x4 ADD PUSH2 0x1387 SWAP1 PUSH2 0x262F JUMP JUMPDEST PUSH1 0x40 MLOAD DUP1 SWAP2 SUB SWAP1 REVERT JUMPDEST PUSH1 0x2 PUSH1 0x9 SLOAD LT PUSH2 0x139E JUMPI PUSH0 DUP1 REVERT JUMPDEST PUSH1 0x6 PUSH0 CALLER PUSH20 0xFFFFFFFFFFFFFFFFFFFFFFFFFFFFFFFFFFFFFFFF AND PUSH20 0xFFFFFFFFFFFFFFFFFFFFFFFFFFFFFFFFFFFFFFFF AND DUP2 MSTORE PUSH1 0x20 ADD SWAP1 DUP2 MSTORE PUSH1 0x20 ADD PUSH0 KECCAK256 PUSH0 SWAP1 SLOAD SWAP1 PUSH2 0x100 EXP SWAP1 DIV PUSH1 0xFF AND PUSH2 0x13F0 JUMPI PUSH0 DUP1 REVERT JUMPDEST PUSH0 ISZERO ISZERO PUSH1 0x8 PUSH0 CALLER PUSH20 0xFFFFFFFFFFFFFFFFFFFFFFFFFFFFFFFFFFFFFFFF AND PUSH20 0xFFFFFFFFFFFFFFFFFFFFFFFFFFFFFFFFFFFFFFFF AND DUP2 MSTORE PUSH1 0x20 ADD SWAP1 DUP2 MSTORE PUSH1 0x20 ADD PUSH0 KECCAK256 PUSH0 SWAP1 SLOAD SWAP1 PUSH2 0x100 EXP SWAP1 DIV PUSH1 0xFF AND ISZERO ISZERO EQ PUSH2 0x147F JUMPI PUSH1 0x40 MLOAD PUSH32 0x8C379A000000000000000000000000000000000000000000000000000000000 DUP2 MSTORE PUSH1 0x4 ADD PUSH2 0x1476 SWAP1 PUSH2 0x2697 JUMP JUMPDEST PUSH1 0x40 MLOAD DUP1 SWAP2 SUB SWAP1 REVERT JUMPDEST PUSH0 PUSH1 0x6 PUSH0 CALLER PUSH20 0xFFFFFFFFFFFFFFFFFFFFFFFFFFFFFFFFFFFFFFFF AND PUSH20 0xFFFFFFFFFFFFFFFFFFFFFFFFFFFFFFFFFFFFFFFF AND DUP2 MSTORE PUSH1 0x20 ADD SWAP1 DUP2 MSTORE PUSH1 0x20 ADD PUSH0 KECCAK256 PUSH0 PUSH2 0x100 EXP DUP2 SLOAD DUP2 PUSH1 0xFF MUL NOT AND SWAP1 DUP4 ISZERO ISZERO MUL OR SWAP1 SSTORE POP PUSH1 0x1 PUSH1 0x8 PUSH0 CALLER PUSH20 0xFFFFFFFFFFFFFFFFFFFFFFFFFFFFFFFFFFFFFFFF AND PUSH20 0xFFFFFFFFFFFFFFFFFFFFFFFFFFFFFFFFFFFFFFFF AND DUP2 MSTORE PUSH1 0x20 ADD SWAP1 DUP2 MSTORE PUSH1 0x20 ADD PUSH0 KECCAK256 PUSH0 PUSH2 0x100 EXP DUP2 SLOAD DUP2 PUSH1 0xFF MUL NOT AND SWAP1 DUP4 ISZERO ISZERO MUL OR SWAP1 SSTORE POP PUSH2 0x1531 DUP2 PUSH2 0x15AE JUMP JUMPDEST PUSH1 0x9 PUSH0 DUP2 SLOAD DUP1 SWAP3 SWAP2 SWAP1 PUSH2 0x1543 SWAP1 PUSH2 0x1F72 JUMP JUMPDEST SWAP2 SWAP1 POP SSTORE POP PUSH32 0x3928CC5ABCBB1C0B781BEBBC4F1E9B156F6D392796C791CC0937DB5E42677FF7 CALLER PUSH1 0x9 SLOAD PUSH1 0x40 MLOAD PUSH2 0x157B SWAP3 SWAP2 SWAP1 PUSH2 0x1FB9 JUMP JUMPDEST PUSH1 0x40 MLOAD DUP1 SWAP2 SUB SWAP1 LOG1 PUSH2 0x158B PUSH2 0x1328 JUMP JUMPDEST POP JUMP JUMPDEST PUSH0 PUSH1 0x3C PUSH1 0x2 SLOAD TIMESTAMP PUSH2 0x159F SWAP2 SWAP1 PUSH2 0x25B2 JUMP JUMPDEST PUSH2 0x15A9 SWAP2 SWAP1 PUSH2 0x2163 JUMP JUMPDEST SWAP1 POP SWAP1 JUMP JUMPDEST DUP1 PUSH1 0x1 PUSH0 CALLER PUSH20 0xFFFFFFFFFFFFFFFFFFFFFFFFFFFFFFFFFFFFFFFF AND PUSH20 0xFFFFFFFFFFFFFFFFFFFFFFFFFFFFFFFFFFFFFFFF AND DUP2 MSTORE PUSH1 0x20 ADD SWAP1 DUP2 MSTORE PUSH1 0x20 ADD PUSH0 KECCAK256 PUSH0 ADD DUP2 SWAP1 SSTORE POP NUMBER PUSH1 0x1 PUSH0 CALLER PUSH20 0xFFFFFFFFFFFFFFFFFFFFFFFFFFFFFFFFFFFFFFFF AND PUSH20 0xFFFFFFFFFFFFFFFFFFFFFFFFFFFFFFFFFFFFFFFF AND DUP2 MSTORE PUSH1 0x20 ADD SWAP1 DUP2 MSTORE PUSH1 0x20 ADD PUSH0 KECCAK256 PUSH1 0x1 ADD PUSH0 PUSH2 0x100 EXP DUP2 SLOAD DUP2 PUSH8 0xFFFFFFFFFFFFFFFF MUL NOT AND SWAP1 DUP4 PUSH8 0xFFFFFFFFFFFFFFFF AND MUL OR SWAP1 SSTORE POP PUSH0 PUSH1 0x1 PUSH0 CALLER PUSH20 0xFFFFFFFFFFFFFFFFFFFFFFFFFFFFFFFFFFFFFFFF AND PUSH20 0xFFFFFFFFFFFFFFFFFFFFFFFFFFFFFFFFFFFFFFFF AND DUP2 MSTORE PUSH1 0x20 ADD SWAP1 DUP2 MSTORE PUSH1 0x20 ADD PUSH0 KECCAK256 PUSH1 0x1 ADD PUSH1 0x8 PUSH2 0x100 EXP DUP2 SLOAD DUP2 PUSH1 0xFF MUL NOT AND SWAP1 DUP4 ISZERO ISZERO MUL OR SWAP1 SSTORE POP PUSH32 0x3C1A1F8F38335B17F751C6DA4BA7D1865F26B3997535176F5080DE9FAD891603 CALLER PUSH1 0x1 PUSH0 CALLER PUSH20 0xFFFFFFFFFFFFFFFFFFFFFFFFFFFFFFFFFFFFFFFF AND PUSH20 0xFFFFFFFFFFFFFFFFFFFFFFFFFFFFFFFFFFFFFFFF AND DUP2 MSTORE PUSH1 0x20 ADD SWAP1 DUP2 MSTORE PUSH1 0x20 ADD PUSH0 KECCAK256 PUSH0 ADD SLOAD PUSH1 0x1 PUSH0 CALLER PUSH20 0xFFFFFFFFFFFFFFFFFFFFFFFFFFFFFFFFFFFFFFFF AND PUSH20 0xFFFFFFFFFFFFFFFFFFFFFFFFFFFFFFFFFFFFFFFF AND DUP2 MSTORE PUSH1 0x20 ADD SWAP1 DUP2 MSTORE PUSH1 0x20 ADD PUSH0 KECCAK256 PUSH1 0x1 ADD PUSH0 SWAP1 SLOAD SWAP1 PUSH2 0x100 EXP SWAP1 DIV PUSH8 0xFFFFFFFFFFFFFFFF AND PUSH1 0x40 MLOAD PUSH2 0x1775 SWAP4 SWAP3 SWAP2 SWAP1 PUSH2 0x26B5 JUMP JUMPDEST PUSH1 0x40 MLOAD DUP1 SWAP2 SUB SWAP1 LOG1 POP JUMP JUMPDEST PUSH1 0x7 DUP2 DUP2 SLOAD DUP2 LT PUSH2 0x178F JUMPI PUSH0 DUP1 REVERT JUMPDEST SWAP1 PUSH0 MSTORE PUSH1 0x20 PUSH0 KECCAK256 ADD PUSH0 SWAP2 POP SLOAD SWAP1 PUSH2 0x100 EXP SWAP1 DIV PUSH20 0xFFFFFFFFFFFFFFFFFFFFFFFFFFFFFFFFFFFFFFFF AND DUP2 JUMP JUMPDEST PUSH1 0x7 PUSH0 PUSH2 0x17C8 SWAP2 SWAP1 PUSH2 0x1AE9 JUMP JUMPDEST PUSH0 PUSH1 0x3 DUP2 SWAP1 SSTORE POP PUSH0 PUSH1 0x9 DUP2 SWAP1 SSTORE POP PUSH0 PUSH1 0xA DUP2 SWAP1 SSTORE POP PUSH0 PUSH1 0x4 DUP2 SWAP1 SSTORE POP JUMP JUMPDEST PUSH0 PUSH1 0x5 PUSH0 PUSH1 0x7 PUSH0 DUP2 SLOAD DUP2 LT PUSH2 0x17FE JUMPI PUSH2 0x17FD PUSH2 0x1E7D JUMP JUMPDEST JUMPDEST SWAP1 PUSH0 MSTORE PUSH1 0x20 PUSH0 KECCAK256 ADD PUSH0 SWAP1 SLOAD SWAP1 PUSH2 0x100 EXP SWAP1 DIV PUSH20 0xFFFFFFFFFFFFFFFFFFFFFFFFFFFFFFFFFFFFFFFF AND PUSH20 0xFFFFFFFFFFFFFFFFFFFFFFFFFFFFFFFFFFFFFFFF AND PUSH20 0xFFFFFFFFFFFFFFFFFFFFFFFFFFFFFFFFFFFFFFFF AND DUP2 MSTORE PUSH1 0x20 ADD SWAP1 DUP2 MSTORE PUSH1 0x20 ADD PUSH0 KECCAK256 SLOAD SWAP1 POP PUSH0 PUSH1 0x5 PUSH0 PUSH1 0x7 PUSH1 0x1 DUP2 SLOAD DUP2 LT PUSH2 0x187B JUMPI PUSH2 0x187A PUSH2 0x1E7D JUMP JUMPDEST JUMPDEST SWAP1 PUSH0 MSTORE PUSH1 0x20 PUSH0 KECCAK256 ADD PUSH0 SWAP1 SLOAD SWAP1 PUSH2 0x100 EXP SWAP1 DIV PUSH20 0xFFFFFFFFFFFFFFFFFFFFFFFFFFFFFFFFFFFFFFFF AND PUSH20 0xFFFFFFFFFFFFFFFFFFFFFFFFFFFFFFFFFFFFFFFF AND PUSH20 0xFFFFFFFFFFFFFFFFFFFFFFFFFFFFFFFFFFFFFFFF AND DUP2 MSTORE PUSH1 0x20 ADD SWAP1 DUP2 MSTORE PUSH1 0x20 ADD PUSH0 KECCAK256 SLOAD SWAP1 POP PUSH0 PUSH1 0x7 PUSH0 DUP2 SLOAD DUP2 LT PUSH2 0x18F4 JUMPI PUSH2 0x18F3 PUSH2 0x1E7D JUMP JUMPDEST JUMPDEST SWAP1 PUSH0 MSTORE PUSH1 0x20 PUSH0 KECCAK256 ADD PUSH0 SWAP1 SLOAD SWAP1 PUSH2 0x100 EXP SWAP1 DIV PUSH20 0xFFFFFFFFFFFFFFFFFFFFFFFFFFFFFFFFFFFFFFFF AND SWAP1 POP PUSH0 PUSH1 0x7 PUSH1 0x1 DUP2 SLOAD DUP2 LT PUSH2 0x1934 JUMPI PUSH2 0x1933 PUSH2 0x1E7D JUMP JUMPDEST JUMPDEST SWAP1 PUSH0 MSTORE PUSH1 0x20 PUSH0 KECCAK256 ADD PUSH0 SWAP1 SLOAD SWAP1 PUSH2 0x100 EXP SWAP1 DIV PUSH20 0xFFFFFFFFFFFFFFFFFFFFFFFFFFFFFFFFFFFFFFFF AND SWAP1 POP DUP3 DUP5 SUB PUSH2 0x1A0E JUMPI DUP2 PUSH20 0xFFFFFFFFFFFFFFFFFFFFFFFFFFFFFFFFFFFFFFFF AND PUSH2 0x8FC PUSH1 0x2 PUSH1 0x4 SLOAD PUSH2 0x198E SWAP2 SWAP1 PUSH2 0x2163 JUMP JUMPDEST SWAP1 DUP2 ISZERO MUL SWAP1 PUSH1 0x40 MLOAD PUSH0 PUSH1 0x40 MLOAD DUP1 DUP4 SUB DUP2 DUP6 DUP9 DUP9 CALL SWAP4 POP POP POP POP ISZERO DUP1 ISZERO PUSH2 0x19B6 JUMPI RETURNDATASIZE PUSH0 DUP1 RETURNDATACOPY RETURNDATASIZE PUSH0 REVERT JUMPDEST POP DUP1 PUSH20 0xFFFFFFFFFFFFFFFFFFFFFFFFFFFFFFFFFFFFFFFF AND PUSH2 0x8FC PUSH1 0x2 PUSH1 0x4 SLOAD PUSH2 0x19E0 SWAP2 SWAP1 PUSH2 0x2163 JUMP JUMPDEST SWAP1 DUP2 ISZERO MUL SWAP1 PUSH1 0x40 MLOAD PUSH0 PUSH1 0x40 MLOAD DUP1 DUP4 SUB DUP2 DUP6 DUP9 DUP9 CALL SWAP4 POP POP POP POP ISZERO DUP1 ISZERO PUSH2 0x1A08 JUMPI RETURNDATASIZE PUSH0 DUP1 RETURNDATACOPY RETURNDATASIZE PUSH0 REVERT JUMPDEST POP PUSH2 0x1AE3 JUMP JUMPDEST DUP3 PUSH1 0x5 PUSH1 0x1 DUP7 PUSH2 0x1A1E SWAP2 SWAP1 PUSH2 0x1F3F JUMP JUMPDEST PUSH2 0x1A28 SWAP2 SWAP1 PUSH2 0x254D JUMP JUMPDEST EQ DUP1 PUSH2 0x1A4B JUMPI POP DUP3 PUSH1 0x5 PUSH1 0x3 DUP7 PUSH2 0x1A3F SWAP2 SWAP1 PUSH2 0x1F3F JUMP JUMPDEST PUSH2 0x1A49 SWAP2 SWAP1 PUSH2 0x254D JUMP JUMPDEST EQ JUMPDEST ISZERO PUSH2 0x1A9B JUMPI DUP1 PUSH20 0xFFFFFFFFFFFFFFFFFFFFFFFFFFFFFFFFFFFFFFFF AND PUSH2 0x8FC PUSH1 0x4 SLOAD SWAP1 DUP2 ISZERO MUL SWAP1 PUSH1 0x40 MLOAD PUSH0 PUSH1 0x40 MLOAD DUP1 DUP4 SUB DUP2 DUP6 DUP9 DUP9 CALL SWAP4 POP POP POP POP ISZERO DUP1 ISZERO PUSH2 0x1A95 JUMPI RETURNDATASIZE PUSH0 DUP1 RETURNDATACOPY RETURNDATASIZE PUSH0 REVERT JUMPDEST POP PUSH2 0x1AE2 JUMP JUMPDEST DUP2 PUSH20 0xFFFFFFFFFFFFFFFFFFFFFFFFFFFFFFFFFFFFFFFF AND PUSH2 0x8FC PUSH1 0x4 SLOAD SWAP1 DUP2 ISZERO MUL SWAP1 PUSH1 0x40 MLOAD PUSH0 PUSH1 0x40 MLOAD DUP1 DUP4 SUB DUP2 DUP6 DUP9 DUP9 CALL SWAP4 POP POP POP POP ISZERO DUP1 ISZERO PUSH2 0x1AE0 JUMPI RETURNDATASIZE PUSH0 DUP1 RETURNDATACOPY RETURNDATASIZE PUSH0 REVERT JUMPDEST POP JUMPDEST JUMPDEST POP POP POP POP JUMP JUMPDEST POP DUP1 SLOAD PUSH0 DUP3 SSTORE SWAP1 PUSH0 MSTORE PUSH1 0x20 PUSH0 KECCAK256 SWAP1 DUP2 ADD SWAP1 PUSH2 0x1B04 SWAP2 SWAP1 PUSH2 0x1B07 JUMP JUMPDEST POP JUMP JUMPDEST JUMPDEST DUP1 DUP3 GT ISZERO PUSH2 0x1B1E JUMPI PUSH0 DUP2 PUSH0 SWAP1 SSTORE POP PUSH1 0x1 ADD PUSH2 0x1B08 JUMP JUMPDEST POP SWAP1 JUMP JUMPDEST PUSH0 DUP2 SWAP1 POP SWAP2 SWAP1 POP JUMP JUMPDEST PUSH2 0x1B34 DUP2 PUSH2 0x1B22 JUMP JUMPDEST DUP3 MSTORE POP POP JUMP JUMPDEST PUSH0 PUSH1 0x20 DUP3 ADD SWAP1 POP PUSH2 0x1B4D PUSH0 DUP4 ADD DUP5 PUSH2 0x1B2B JUMP JUMPDEST SWAP3 SWAP2 POP POP JUMP JUMPDEST PUSH0 DUP1 REVERT JUMPDEST PUSH0 PUSH20 0xFFFFFFFFFFFFFFFFFFFFFFFFFFFFFFFFFFFFFFFF DUP3 AND SWAP1 POP SWAP2 SWAP1 POP JUMP JUMPDEST PUSH0 PUSH2 0x1B80 DUP3 PUSH2 0x1B57 JUMP JUMPDEST SWAP1 POP SWAP2 SWAP1 POP JUMP JUMPDEST PUSH2 0x1B90 DUP2 PUSH2 0x1B76 JUMP JUMPDEST DUP2 EQ PUSH2 0x1B9A JUMPI PUSH0 DUP1 REVERT JUMPDEST POP JUMP JUMPDEST PUSH0 DUP2 CALLDATALOAD SWAP1 POP PUSH2 0x1BAB DUP2 PUSH2 0x1B87 JUMP JUMPDEST SWAP3 SWAP2 POP POP JUMP JUMPDEST PUSH0 PUSH1 0x20 DUP3 DUP5 SUB SLT ISZERO PUSH2 0x1BC6 JUMPI PUSH2 0x1BC5 PUSH2 0x1B53 JUMP JUMPDEST JUMPDEST PUSH0 PUSH2 0x1BD3 DUP5 DUP3 DUP6 ADD PUSH2 0x1B9D JUMP JUMPDEST SWAP2 POP POP SWAP3 SWAP2 POP POP JUMP JUMPDEST PUSH0 DUP2 ISZERO ISZERO SWAP1 POP SWAP2 SWAP1 POP JUMP JUMPDEST PUSH2 0x1BF0 DUP2 PUSH2 0x1BDC JUMP JUMPDEST DUP3 MSTORE POP POP JUMP JUMPDEST PUSH0 PUSH1 0x20 DUP3 ADD SWAP1 POP PUSH2 0x1C09 PUSH0 DUP4 ADD DUP5 PUSH2 0x1BE7 JUMP JUMPDEST SWAP3 SWAP2 POP POP JUMP JUMPDEST PUSH0 DUP2 SWAP1 POP SWAP2 SWAP1 POP JUMP JUMPDEST PUSH2 0x1C21 DUP2 PUSH2 0x1C0F JUMP JUMPDEST DUP2 EQ PUSH2 0x1C2B JUMPI PUSH0 DUP1 REVERT JUMPDEST POP JUMP JUMPDEST PUSH0 DUP2 CALLDATALOAD SWAP1 POP PUSH2 0x1C3C DUP2 PUSH2 0x1C18 JUMP JUMPDEST SWAP3 SWAP2 POP POP JUMP JUMPDEST PUSH0 PUSH1 0x20 DUP3 DUP5 SUB SLT ISZERO PUSH2 0x1C57 JUMPI PUSH2 0x1C56 PUSH2 0x1B53 JUMP JUMPDEST JUMPDEST PUSH0 PUSH2 0x1C64 DUP5 DUP3 DUP6 ADD PUSH2 0x1C2E JUMP JUMPDEST SWAP2 POP POP SWAP3 SWAP2 POP POP JUMP JUMPDEST PUSH2 0x1C76 DUP2 PUSH2 0x1C0F JUMP JUMPDEST DUP3 MSTORE POP POP JUMP JUMPDEST PUSH0 PUSH1 0x20 DUP3 ADD SWAP1 POP PUSH2 0x1C8F PUSH0 DUP4 ADD DUP5 PUSH2 0x1C6D JUMP JUMPDEST SWAP3 SWAP2 POP POP JUMP JUMPDEST PUSH0 PUSH1 0xFF DUP3 AND SWAP1 POP SWAP2 SWAP1 POP JUMP JUMPDEST PUSH2 0x1CAA DUP2 PUSH2 0x1C95 JUMP JUMPDEST DUP3 MSTORE POP POP JUMP JUMPDEST PUSH0 PUSH1 0x20 DUP3 ADD SWAP1 POP PUSH2 0x1CC3 PUSH0 DUP4 ADD DUP5 PUSH2 0x1CA1 JUMP JUMPDEST SWAP3 SWAP2 POP POP JUMP JUMPDEST PUSH0 PUSH8 0xFFFFFFFFFFFFFFFF DUP3 AND SWAP1 POP SWAP2 SWAP1 POP JUMP JUMPDEST PUSH2 0x1CE5 DUP2 PUSH2 0x1CC9 JUMP JUMPDEST DUP3 MSTORE POP POP JUMP JUMPDEST PUSH0 PUSH1 0x60 DUP3 ADD SWAP1 POP PUSH2 0x1CFE PUSH0 DUP4 ADD DUP7 PUSH2 0x1C6D JUMP JUMPDEST PUSH2 0x1D0B PUSH1 0x20 DUP4 ADD DUP6 PUSH2 0x1CDC JUMP JUMPDEST PUSH2 0x1D18 PUSH1 0x40 DUP4 ADD DUP5 PUSH2 0x1BE7 JUMP JUMPDEST SWAP5 SWAP4 POP POP POP POP JUMP JUMPDEST PUSH2 0x1D29 DUP2 PUSH2 0x1B22 JUMP JUMPDEST DUP2 EQ PUSH2 0x1D33 JUMPI PUSH0 DUP1 REVERT JUMPDEST POP JUMP JUMPDEST PUSH0 DUP2 CALLDATALOAD SWAP1 POP PUSH2 0x1D44 DUP2 PUSH2 0x1D20 JUMP JUMPDEST SWAP3 SWAP2 POP POP JUMP JUMPDEST PUSH0 PUSH1 0x20 DUP3 DUP5 SUB SLT ISZERO PUSH2 0x1D5F JUMPI PUSH2 0x1D5E PUSH2 0x1B53 JUMP JUMPDEST JUMPDEST PUSH0 PUSH2 0x1D6C DUP5 DUP3 DUP6 ADD PUSH2 0x1D36 JUMP JUMPDEST SWAP2 POP POP SWAP3 SWAP2 POP POP JUMP JUMPDEST PUSH2 0x1D7E DUP2 PUSH2 0x1B76 JUMP JUMPDEST DUP3 MSTORE POP POP JUMP JUMPDEST PUSH0 PUSH1 0x20 DUP3 ADD SWAP1 POP PUSH2 0x1D97 PUSH0 DUP4 ADD DUP5 PUSH2 0x1D75 JUMP JUMPDEST SWAP3 SWAP2 POP POP JUMP JUMPDEST PUSH0 DUP3 DUP3 MSTORE PUSH1 0x20 DUP3 ADD SWAP1 POP SWAP3 SWAP2 POP POP JUMP JUMPDEST PUSH32 0x47616D6520616C726561647920686173203220706C61796572732E0000000000 PUSH0 DUP3 ADD MSTORE POP JUMP JUMPDEST PUSH0 PUSH2 0x1DE1 PUSH1 0x1B DUP4 PUSH2 0x1D9D JUMP JUMPDEST SWAP2 POP PUSH2 0x1DEC DUP3 PUSH2 0x1DAD JUMP JUMPDEST PUSH1 0x20 DUP3 ADD SWAP1 POP SWAP2 SWAP1 POP JUMP JUMPDEST PUSH0 PUSH1 0x20 DUP3 ADD SWAP1 POP DUP2 DUP2 SUB PUSH0 DUP4 ADD MSTORE PUSH2 0x1E0E DUP2 PUSH2 0x1DD5 JUMP JUMPDEST SWAP1 POP SWAP2 SWAP1 POP JUMP JUMPDEST PUSH32 0x596F7520617265206E6F7420616C6C6F77656420746F20706C61792E00000000 PUSH0 DUP3 ADD MSTORE POP JUMP JUMPDEST PUSH0 PUSH2 0x1E49 PUSH1 0x1C DUP4 PUSH2 0x1D9D JUMP JUMPDEST SWAP2 POP PUSH2 0x1E54 DUP3 PUSH2 0x1E15 JUMP JUMPDEST PUSH1 0x20 DUP3 ADD SWAP1 POP SWAP2 SWAP1 POP JUMP JUMPDEST PUSH0 PUSH1 0x20 DUP3 ADD SWAP1 POP DUP2 DUP2 SUB PUSH0 DUP4 ADD MSTORE PUSH2 0x1E76 DUP2 PUSH2 0x1E3D JUMP JUMPDEST SWAP1 POP SWAP2 SWAP1 POP JUMP JUMPDEST PUSH32 0x4E487B7100000000000000000000000000000000000000000000000000000000 PUSH0 MSTORE PUSH1 0x32 PUSH1 0x4 MSTORE PUSH1 0x24 PUSH0 REVERT JUMPDEST PUSH32 0x506179203120657468657220746F20706C61792067616D652E00000000000000 PUSH0 DUP3 ADD MSTORE POP JUMP JUMPDEST PUSH0 PUSH2 0x1EDE PUSH1 0x19 DUP4 PUSH2 0x1D9D JUMP JUMPDEST SWAP2 POP PUSH2 0x1EE9 DUP3 PUSH2 0x1EAA JUMP JUMPDEST PUSH1 0x20 DUP3 ADD SWAP1 POP SWAP2 SWAP1 POP JUMP JUMPDEST PUSH0 PUSH1 0x20 DUP3 ADD SWAP1 POP DUP2 DUP2 SUB PUSH0 DUP4 ADD MSTORE PUSH2 0x1F0B DUP2 PUSH2 0x1ED2 JUMP JUMPDEST SWAP1 POP SWAP2 SWAP1 POP JUMP JUMPDEST PUSH32 0x4E487B7100000000000000000000000000000000000000000000000000000000 PUSH0 MSTORE PUSH1 0x11 PUSH1 0x4 MSTORE PUSH1 0x24 PUSH0 REVERT JUMPDEST PUSH0 PUSH2 0x1F49 DUP3 PUSH2 0x1B22 JUMP JUMPDEST SWAP2 POP PUSH2 0x1F54 DUP4 PUSH2 0x1B22 JUMP JUMPDEST SWAP3 POP DUP3 DUP3 ADD SWAP1 POP DUP1 DUP3 GT ISZERO PUSH2 0x1F6C JUMPI PUSH2 0x1F6B PUSH2 0x1F12 JUMP JUMPDEST JUMPDEST SWAP3 SWAP2 POP POP JUMP JUMPDEST PUSH0 PUSH2 0x1F7C DUP3 PUSH2 0x1B22 JUMP JUMPDEST SWAP2 POP PUSH32 0xFFFFFFFFFFFFFFFFFFFFFFFFFFFFFFFFFFFFFFFFFFFFFFFFFFFFFFFFFFFFFFFF DUP3 SUB PUSH2 0x1FAE JUMPI PUSH2 0x1FAD PUSH2 0x1F12 JUMP JUMPDEST JUMPDEST PUSH1 0x1 DUP3 ADD SWAP1 POP SWAP2 SWAP1 POP JUMP JUMPDEST PUSH0 PUSH1 0x40 DUP3 ADD SWAP1 POP PUSH2 0x1FCC PUSH0 DUP4 ADD DUP6 PUSH2 0x1D75 JUMP JUMPDEST PUSH2 0x1FD9 PUSH1 0x20 DUP4 ADD DUP5 PUSH2 0x1B2B JUMP JUMPDEST SWAP4 SWAP3 POP POP POP JUMP JUMPDEST PUSH0 DUP2 SWAP1 POP SWAP2 SWAP1 POP JUMP JUMPDEST PUSH2 0x1FFA PUSH2 0x1FF5 DUP3 PUSH2 0x1C0F JUMP JUMPDEST PUSH2 0x1FE0 JUMP JUMPDEST DUP3 MSTORE POP POP JUMP JUMPDEST PUSH0 PUSH2 0x200B DUP3 DUP5 PUSH2 0x1FE9 JUMP JUMPDEST PUSH1 0x20 DUP3 ADD SWAP2 POP DUP2 SWAP1 POP SWAP3 SWAP2 POP POP JUMP JUMPDEST PUSH32 0x596F75206E65656420746F20776169742031206D696E75746520666F72207769 PUSH0 DUP3 ADD MSTORE PUSH32 0x7468647261772E00000000000000000000000000000000000000000000000000 PUSH1 0x20 DUP3 ADD MSTORE POP JUMP JUMPDEST PUSH0 PUSH2 0x2074 PUSH1 0x27 DUP4 PUSH2 0x1D9D JUMP JUMPDEST SWAP2 POP PUSH2 0x207F DUP3 PUSH2 0x201A JUMP JUMPDEST PUSH1 0x40 DUP3 ADD SWAP1 POP SWAP2 SWAP1 POP JUMP JUMPDEST PUSH0 PUSH1 0x20 DUP3 ADD SWAP1 POP DUP2 DUP2 SUB PUSH0 DUP4 ADD MSTORE PUSH2 0x20A1 DUP2 PUSH2 0x2068 JUMP JUMPDEST SWAP1 POP SWAP2 SWAP1 POP JUMP JUMPDEST PUSH32 0x436F6E74726163742068617320696E73756666696369656E742062616C616E63 PUSH0 DUP3 ADD MSTORE PUSH32 0x652E000000000000000000000000000000000000000000000000000000000000 PUSH1 0x20 DUP3 ADD MSTORE POP JUMP JUMPDEST PUSH0 PUSH2 0x2102 PUSH1 0x22 DUP4 PUSH2 0x1D9D JUMP JUMPDEST SWAP2 POP PUSH2 0x210D DUP3 PUSH2 0x20A8 JUMP JUMPDEST PUSH1 0x40 DUP3 ADD SWAP1 POP SWAP2 SWAP1 POP JUMP JUMPDEST PUSH0 PUSH1 0x20 DUP3 ADD SWAP1 POP DUP2 DUP2 SUB PUSH0 DUP4 ADD MSTORE PUSH2 0x212F DUP2 PUSH2 0x20F6 JUMP JUMPDEST SWAP1 POP SWAP2 SWAP1 POP JUMP JUMPDEST PUSH32 0x4E487B7100000000000000000000000000000000000000000000000000000000 PUSH0 MSTORE PUSH1 0x12 PUSH1 0x4 MSTORE PUSH1 0x24 PUSH0 REVERT JUMPDEST PUSH0 PUSH2 0x216D DUP3 PUSH2 0x1B22 JUMP JUMPDEST SWAP2 POP PUSH2 0x2178 DUP4 PUSH2 0x1B22 JUMP JUMPDEST SWAP3 POP DUP3 PUSH2 0x2188 JUMPI PUSH2 0x2187 PUSH2 0x2136 JUMP JUMPDEST JUMPDEST DUP3 DUP3 DIV SWAP1 POP SWAP3 SWAP2 POP POP JUMP JUMPDEST PUSH32 0x596F75722063686F696365206E6565647320746F206265206265747765656E20 PUSH0 DUP3 ADD MSTORE PUSH32 0x3020746F20340000000000000000000000000000000000000000000000000000 PUSH1 0x20 DUP3 ADD MSTORE POP JUMP JUMPDEST PUSH0 PUSH2 0x21ED PUSH1 0x26 DUP4 PUSH2 0x1D9D JUMP JUMPDEST SWAP2 POP PUSH2 0x21F8 DUP3 PUSH2 0x2193 JUMP JUMPDEST PUSH1 0x40 DUP3 ADD SWAP1 POP SWAP2 SWAP1 POP JUMP JUMPDEST PUSH0 PUSH1 0x20 DUP3 ADD SWAP1 POP DUP2 DUP2 SUB PUSH0 DUP4 ADD MSTORE PUSH2 0x221A DUP2 PUSH2 0x21E1 JUMP JUMPDEST SWAP1 POP SWAP2 SWAP1 POP JUMP JUMPDEST PUSH32 0x596F75206E65656420746F20636F6D6D69742066697273742E00000000000000 PUSH0 DUP3 ADD MSTORE POP JUMP JUMPDEST PUSH0 PUSH2 0x2255 PUSH1 0x19 DUP4 PUSH2 0x1D9D JUMP JUMPDEST SWAP2 POP PUSH2 0x2260 DUP3 PUSH2 0x2221 JUMP JUMPDEST PUSH1 0x20 DUP3 ADD SWAP1 POP SWAP2 SWAP1 POP JUMP JUMPDEST PUSH0 PUSH1 0x20 DUP3 ADD SWAP1 POP DUP2 DUP2 SUB PUSH0 DUP4 ADD MSTORE PUSH2 0x2282 DUP2 PUSH2 0x2249 JUMP JUMPDEST SWAP1 POP SWAP2 SWAP1 POP JUMP JUMPDEST PUSH32 0x436F6D6D697452657665616C3A3A72657665616C3A20416C7265616479207265 PUSH0 DUP3 ADD MSTORE PUSH32 0x7665616C65640000000000000000000000000000000000000000000000000000 PUSH1 0x20 DUP3 ADD MSTORE POP JUMP JUMPDEST PUSH0 PUSH2 0x22E3 PUSH1 0x26 DUP4 PUSH2 0x1D9D JUMP JUMPDEST SWAP2 POP PUSH2 0x22EE DUP3 PUSH2 0x2289 JUMP JUMPDEST PUSH1 0x40 DUP3 ADD SWAP1 POP SWAP2 SWAP1 POP JUMP JUMPDEST PUSH0 PUSH1 0x20 DUP3 ADD SWAP1 POP DUP2 DUP2 SUB PUSH0 DUP4 ADD MSTORE PUSH2 0x2310 DUP2 PUSH2 0x22D7 JUMP JUMPDEST SWAP1 POP SWAP2 SWAP1 POP JUMP JUMPDEST PUSH32 0x436F6D6D697452657665616C3A3A72657665616C3A2052657665616C65642068 PUSH0 DUP3 ADD MSTORE PUSH32 0x61736820646F6573206E6F74206D6174636820636F6D6D697400000000000000 PUSH1 0x20 DUP3 ADD MSTORE POP JUMP JUMPDEST PUSH0 PUSH2 0x2371 PUSH1 0x39 DUP4 PUSH2 0x1D9D JUMP JUMPDEST SWAP2 POP PUSH2 0x237C DUP3 PUSH2 0x2317 JUMP JUMPDEST PUSH1 0x40 DUP3 ADD SWAP1 POP SWAP2 SWAP1 POP JUMP JUMPDEST PUSH0 PUSH1 0x20 DUP3 ADD SWAP1 POP DUP2 DUP2 SUB PUSH0 DUP4 ADD MSTORE PUSH2 0x239E DUP2 PUSH2 0x2365 JUMP JUMPDEST SWAP1 POP SWAP2 SWAP1 POP JUMP JUMPDEST PUSH32 0x436F6D6D697452657665616C3A3A72657665616C3A2052657665616C20616E64 PUSH0 DUP3 ADD MSTORE PUSH32 0x20636F6D6D69742068617070656E6564206F6E207468652073616D6520626C6F PUSH1 0x20 DUP3 ADD MSTORE PUSH32 0x636B000000000000000000000000000000000000000000000000000000000000 PUSH1 0x40 DUP3 ADD MSTORE POP JUMP JUMPDEST PUSH0 PUSH2 0x2425 PUSH1 0x42 DUP4 PUSH2 0x1D9D JUMP JUMPDEST SWAP2 POP PUSH2 0x2430 DUP3 PUSH2 0x23A5 JUMP JUMPDEST PUSH1 0x60 DUP3 ADD SWAP1 POP SWAP2 SWAP1 POP JUMP JUMPDEST PUSH0 PUSH1 0x20 DUP3 ADD SWAP1 POP DUP2 DUP2 SUB PUSH0 DUP4 ADD MSTORE PUSH2 0x2452 DUP2 PUSH2 0x2419 JUMP JUMPDEST SWAP1 POP SWAP2 SWAP1 POP JUMP JUMPDEST PUSH0 PUSH2 0x2463 DUP3 PUSH2 0x1CC9 JUMP JUMPDEST SWAP2 POP PUSH2 0x246E DUP4 PUSH2 0x1CC9 JUMP JUMPDEST SWAP3 POP DUP3 DUP3 ADD SWAP1 POP PUSH8 0xFFFFFFFFFFFFFFFF DUP2 GT ISZERO PUSH2 0x248E JUMPI PUSH2 0x248D PUSH2 0x1F12 JUMP JUMPDEST JUMPDEST SWAP3 SWAP2 POP POP JUMP JUMPDEST PUSH32 0x436F6D6D697452657665616C3A3A72657665616C3A2052657665616C65642074 PUSH0 DUP3 ADD MSTORE PUSH32 0x6F6F206C61746500000000000000000000000000000000000000000000000000 PUSH1 0x20 DUP3 ADD MSTORE POP JUMP JUMPDEST PUSH0 PUSH2 0x24EE PUSH1 0x27 DUP4 PUSH2 0x1D9D JUMP JUMPDEST SWAP2 POP PUSH2 0x24F9 DUP3 PUSH2 0x2494 JUMP JUMPDEST PUSH1 0x40 DUP3 ADD SWAP1 POP SWAP2 SWAP1 POP JUMP JUMPDEST PUSH0 PUSH1 0x20 DUP3 ADD SWAP1 POP DUP2 DUP2 SUB PUSH0 DUP4 ADD MSTORE PUSH2 0x251B DUP2 PUSH2 0x24E2 JUMP JUMPDEST SWAP1 POP SWAP2 SWAP1 POP JUMP JUMPDEST PUSH0 PUSH2 0x252D DUP3 DUP6 PUSH2 0x1FE9 JUMP JUMPDEST PUSH1 0x20 DUP3 ADD SWAP2 POP PUSH2 0x253D DUP3 DUP5 PUSH2 0x1FE9 JUMP JUMPDEST PUSH1 0x20 DUP3 ADD SWAP2 POP DUP2 SWAP1 POP SWAP4 SWAP3 POP POP POP JUMP JUMPDEST PUSH0 PUSH2 0x2557 DUP3 PUSH2 0x1B22 JUMP JUMPDEST SWAP2 POP PUSH2 0x2562 DUP4 PUSH2 0x1B22 JUMP JUMPDEST SWAP3 POP DUP3 PUSH2 0x2572 JUMPI PUSH2 0x2571 PUSH2 0x2136 JUMP JUMPDEST JUMPDEST DUP3 DUP3 MOD SWAP1 POP SWAP3 SWAP2 POP POP JUMP JUMPDEST PUSH0 PUSH1 0x60 DUP3 ADD SWAP1 POP PUSH2 0x2590 PUSH0 DUP4 ADD DUP7 PUSH2 0x1D75 JUMP JUMPDEST PUSH2 0x259D PUSH1 0x20 DUP4 ADD DUP6 PUSH2 0x1C6D JUMP JUMPDEST PUSH2 0x25AA PUSH1 0x40 DUP4 ADD DUP5 PUSH2 0x1B2B JUMP JUMPDEST SWAP5 SWAP4 POP POP POP POP JUMP JUMPDEST PUSH0 PUSH2 0x25BC DUP3 PUSH2 0x1B22 JUMP JUMPDEST SWAP2 POP PUSH2 0x25C7 DUP4 PUSH2 0x1B22 JUMP JUMPDEST SWAP3 POP DUP3 DUP3 SUB SWAP1 POP DUP2 DUP2 GT ISZERO PUSH2 0x25DF JUMPI PUSH2 0x25DE PUSH2 0x1F12 JUMP JUMPDEST JUMPDEST SWAP3 SWAP2 POP POP JUMP JUMPDEST PUSH32 0x47616D65206E65656473203220706C61796572732E0000000000000000000000 PUSH0 DUP3 ADD MSTORE POP JUMP JUMPDEST PUSH0 PUSH2 0x2619 PUSH1 0x15 DUP4 PUSH2 0x1D9D JUMP JUMPDEST SWAP2 POP PUSH2 0x2624 DUP3 PUSH2 0x25E5 JUMP JUMPDEST PUSH1 0x20 DUP3 ADD SWAP1 POP SWAP2 SWAP1 POP JUMP JUMPDEST PUSH0 PUSH1 0x20 DUP3 ADD SWAP1 POP DUP2 DUP2 SUB PUSH0 DUP4 ADD MSTORE PUSH2 0x2646 DUP2 PUSH2 0x260D JUMP JUMPDEST SWAP1 POP SWAP2 SWAP1 POP JUMP JUMPDEST PUSH32 0x596F7520616C726561647920636F6D6D697465642E0000000000000000000000 PUSH0 DUP3 ADD MSTORE POP JUMP JUMPDEST PUSH0 PUSH2 0x2681 PUSH1 0x15 DUP4 PUSH2 0x1D9D JUMP JUMPDEST SWAP2 POP PUSH2 0x268C DUP3 PUSH2 0x264D JUMP JUMPDEST PUSH1 0x20 DUP3 ADD SWAP1 POP SWAP2 SWAP1 POP JUMP JUMPDEST PUSH0 PUSH1 0x20 DUP3 ADD SWAP1 POP DUP2 DUP2 SUB PUSH0 DUP4 ADD MSTORE PUSH2 0x26AE DUP2 PUSH2 0x2675 JUMP JUMPDEST SWAP1 POP SWAP2 SWAP1 POP JUMP JUMPDEST PUSH0 PUSH1 0x60 DUP3 ADD SWAP1 POP PUSH2 0x26C8 PUSH0 DUP4 ADD DUP7 PUSH2 0x1D75 JUMP JUMPDEST PUSH2 0x26D5 PUSH1 0x20 DUP4 ADD DUP6 PUSH2 0x1C6D JUMP JUMPDEST PUSH2 0x26E2 PUSH1 0x40 DUP4 ADD DUP5 PUSH2 0x1CDC JUMP JUMPDEST SWAP5 SWAP4 POP POP POP POP JUMP INVALID LOG2 PUSH5 0x6970667358 0x22 SLT KECCAK256 0xEC 0x4B PUSH25 0xAB44F4DDA6FF5F89001B2848B6771AA29D562F8CE3C0D7A349 0xC5 0xD2 0xE4 NOT PUSH5 0x736F6C6343 STOP ADDMOD BYTE STOP CALLER "
				},
				"gasEstimates": {
					"creation": {
						"codeDepositCost": "2003200",
						"executionCost": "188031",
						"totalCost": "2191231"
					},
					"external": {
						"addPlayer()": "infinite",
						"commit(bytes32)": "infinite",
						"commits(address)": "7415",
						"elapsedMinutes()": "infinite",
						"elapsedSeconds()": "infinite",
						"getHash(bytes32)": "infinite",
						"input(bytes32)": "infinite",
						"isCommit(address)": "2878",
						"lastAction()": "2492",
						"max()": "2574",
						"numInput()": "2449",
						"numPlayer()": "2514",
						"numReveal()": "2469",
						"player_choice(address)": "2913",
						"player_not_played(address)": "2879",
						"players(uint256)": "5076",
						"reveal(bytes32)": "infinite",
						"revealChoice(bytes32)": "infinite",
						"reward()": "2493",
						"setStartTime()": "22389",
						"startTime()": "2448",
						"timeOutWithDraw()": "infinite",
						"timeoutDeration()": "2448"
					},
					"internal": {
						"_checkWinnerAndPay()": "infinite",
						"_reset()": "infinite"
					}
				},
				"methodIdentifiers": {
					"addPlayer()": "27b5db8a",
					"commit(bytes32)": "f14fcbc8",
					"commits(address)": "7b43a8e6",
					"elapsedMinutes()": "d97c8416",
					"elapsedSeconds()": "bc06b8cd",
					"getHash(bytes32)": "3cf5040a",
					"input(bytes32)": "d891f969",
					"isCommit(address)": "43cdd438",
					"lastAction()": "89f71d53",
					"max()": "6ac5db19",
					"numInput()": "086f7815",
					"numPlayer()": "90d5d0c3",
					"numReveal()": "c876e615",
					"player_choice(address)": "a040478d",
					"player_not_played(address)": "190cf745",
					"players(uint256)": "f71d96cb",
					"reveal(bytes32)": "701fd0f1",
					"revealChoice(bytes32)": "65ce0ac6",
					"reward()": "228cb733",
					"setStartTime()": "a63f7c53",
					"startTime()": "78e97925",
					"timeOutWithDraw()": "558d51c6",
					"timeoutDeration()": "3e2b58e0"
				}
			},
			"storageLayout": {
				"storage": [
					{
						"astId": 4,
						"contract": "RPS.sol:RPS",
						"label": "max",
						"offset": 0,
						"slot": "0",
						"type": "t_uint8"
					},
					{
						"astId": 16,
						"contract": "RPS.sol:RPS",
						"label": "commits",
						"offset": 0,
						"slot": "1",
						"type": "t_mapping(t_address,t_struct(Commit)11_storage)"
					},
					{
						"astId": 789,
						"contract": "RPS.sol:RPS",
						"label": "startTime",
						"offset": 0,
						"slot": "2",
						"type": "t_uint256"
					},
					{
						"astId": 210,
						"contract": "RPS.sol:RPS",
						"label": "numPlayer",
						"offset": 0,
						"slot": "3",
						"type": "t_uint256"
					},
					{
						"astId": 213,
						"contract": "RPS.sol:RPS",
						"label": "reward",
						"offset": 0,
						"slot": "4",
						"type": "t_uint256"
					},
					{
						"astId": 217,
						"contract": "RPS.sol:RPS",
						"label": "player_choice",
						"offset": 0,
						"slot": "5",
						"type": "t_mapping(t_address,t_uint256)"
					},
					{
						"astId": 221,
						"contract": "RPS.sol:RPS",
						"label": "player_not_played",
						"offset": 0,
						"slot": "6",
						"type": "t_mapping(t_address,t_bool)"
					},
					{
						"astId": 224,
						"contract": "RPS.sol:RPS",
						"label": "players",
						"offset": 0,
						"slot": "7",
						"type": "t_array(t_address)dyn_storage"
					},
					{
						"astId": 228,
						"contract": "RPS.sol:RPS",
						"label": "isCommit",
						"offset": 0,
						"slot": "8",
						"type": "t_mapping(t_address,t_bool)"
					},
					{
						"astId": 231,
						"contract": "RPS.sol:RPS",
						"label": "numInput",
						"offset": 0,
						"slot": "9",
						"type": "t_uint256"
					},
					{
						"astId": 234,
						"contract": "RPS.sol:RPS",
						"label": "numReveal",
						"offset": 0,
						"slot": "10",
						"type": "t_uint256"
					},
					{
						"astId": 237,
						"contract": "RPS.sol:RPS",
						"label": "timeoutDeration",
						"offset": 0,
						"slot": "11",
						"type": "t_uint256"
					},
					{
						"astId": 241,
						"contract": "RPS.sol:RPS",
						"label": "lastAction",
						"offset": 0,
						"slot": "12",
						"type": "t_uint256"
					},
					{
						"astId": 245,
						"contract": "RPS.sol:RPS",
						"label": "whitelistedPlayers",
						"offset": 0,
						"slot": "13",
						"type": "t_mapping(t_address,t_bool)"
					}
				],
				"types": {
					"t_address": {
						"encoding": "inplace",
						"label": "address",
						"numberOfBytes": "20"
					},
					"t_array(t_address)dyn_storage": {
						"base": "t_address",
						"encoding": "dynamic_array",
						"label": "address[]",
						"numberOfBytes": "32"
					},
					"t_bool": {
						"encoding": "inplace",
						"label": "bool",
						"numberOfBytes": "1"
					},
					"t_bytes32": {
						"encoding": "inplace",
						"label": "bytes32",
						"numberOfBytes": "32"
					},
					"t_mapping(t_address,t_bool)": {
						"encoding": "mapping",
						"key": "t_address",
						"label": "mapping(address => bool)",
						"numberOfBytes": "32",
						"value": "t_bool"
					},
					"t_mapping(t_address,t_struct(Commit)11_storage)": {
						"encoding": "mapping",
						"key": "t_address",
						"label": "mapping(address => struct CommitReveal.Commit)",
						"numberOfBytes": "32",
						"value": "t_struct(Commit)11_storage"
					},
					"t_mapping(t_address,t_uint256)": {
						"encoding": "mapping",
						"key": "t_address",
						"label": "mapping(address => uint256)",
						"numberOfBytes": "32",
						"value": "t_uint256"
					},
					"t_struct(Commit)11_storage": {
						"encoding": "inplace",
						"label": "struct CommitReveal.Commit",
						"members": [
							{
								"astId": 6,
								"contract": "RPS.sol:RPS",
								"label": "commit",
								"offset": 0,
								"slot": "0",
								"type": "t_bytes32"
							},
							{
								"astId": 8,
								"contract": "RPS.sol:RPS",
								"label": "block",
								"offset": 0,
								"slot": "1",
								"type": "t_uint64"
							},
							{
								"astId": 10,
								"contract": "RPS.sol:RPS",
								"label": "revealed",
								"offset": 8,
								"slot": "1",
								"type": "t_bool"
							}
						],
						"numberOfBytes": "64"
					},
					"t_uint256": {
						"encoding": "inplace",
						"label": "uint256",
						"numberOfBytes": "32"
					},
					"t_uint64": {
						"encoding": "inplace",
						"label": "uint64",
						"numberOfBytes": "8"
					},
					"t_uint8": {
						"encoding": "inplace",
						"label": "uint8",
						"numberOfBytes": "1"
					}
				}
			},
			"userdoc": {
				"kind": "user",
				"methods": {},
				"version": 1
			}
		}
	}
}