{
	"RPS.sol": {
		"RPS": {
			"abi": [
				{
					"inputs": [],
					"stateMutability": "nonpayable",
					"type": "constructor"
				},
				{
					"anonymous": false,
					"inputs": [
						{
							"indexed": false,
							"internalType": "address",
							"name": "sender",
							"type": "address"
						},
						{
							"indexed": false,
							"internalType": "bytes32",
							"name": "dataHash",
							"type": "bytes32"
						},
						{
							"indexed": false,
							"internalType": "uint64",
							"name": "block",
							"type": "uint64"
						}
					],
					"name": "CommitHash",
					"type": "event"
				},
				{
					"anonymous": false,
					"inputs": [
						{
							"indexed": false,
							"internalType": "address",
							"name": "sender",
							"type": "address"
						},
						{
							"indexed": false,
							"internalType": "bytes32",
							"name": "revealHash",
							"type": "bytes32"
						},
						{
							"indexed": false,
							"internalType": "uint256",
							"name": "random",
							"type": "uint256"
						}
					],
					"name": "RevealHash",
					"type": "event"
				},
				{
					"anonymous": false,
					"inputs": [
						{
							"indexed": false,
							"internalType": "address",
							"name": "sender",
							"type": "address"
						},
						{
							"indexed": false,
							"internalType": "uint256",
							"name": "numPlayer",
							"type": "uint256"
						}
					],
					"name": "playerAdded",
					"type": "event"
				},
				{
					"anonymous": false,
					"inputs": [
						{
							"indexed": false,
							"internalType": "address",
							"name": "sender",
							"type": "address"
						},
						{
							"indexed": false,
							"internalType": "uint256",
							"name": "numInput",
							"type": "uint256"
						}
					],
					"name": "playerCommitHashed",
					"type": "event"
				},
				{
					"inputs": [],
					"name": "addPlayer",
					"outputs": [],
					"stateMutability": "payable",
					"type": "function"
				},
				{
					"inputs": [
						{
							"internalType": "address",
							"name": "",
							"type": "address"
						}
					],
					"name": "commits",
					"outputs": [
						{
							"internalType": "bytes32",
							"name": "commit",
							"type": "bytes32"
						},
						{
							"internalType": "uint64",
							"name": "block",
							"type": "uint64"
						},
						{
							"internalType": "bool",
							"name": "revealed",
							"type": "bool"
						}
					],
					"stateMutability": "view",
					"type": "function"
				},
				{
					"inputs": [],
					"name": "elapsedMinutes",
					"outputs": [
						{
							"internalType": "uint256",
							"name": "",
							"type": "uint256"
						}
					],
					"stateMutability": "view",
					"type": "function"
				},
				{
					"inputs": [],
					"name": "elapsedSeconds",
					"outputs": [
						{
							"internalType": "uint256",
							"name": "",
							"type": "uint256"
						}
					],
					"stateMutability": "view",
					"type": "function"
				},
				{
					"inputs": [
						{
							"internalType": "bytes32",
							"name": "data",
							"type": "bytes32"
						}
					],
					"name": "getHash",
					"outputs": [
						{
							"internalType": "bytes32",
							"name": "",
							"type": "bytes32"
						}
					],
					"stateMutability": "pure",
					"type": "function"
				},
				{
					"inputs": [
						{
							"internalType": "bytes32",
							"name": "hashAns",
							"type": "bytes32"
						}
					],
					"name": "input",
					"outputs": [],
					"stateMutability": "nonpayable",
					"type": "function"
				},
				{
					"inputs": [
						{
							"internalType": "address",
							"name": "",
							"type": "address"
						}
					],
					"name": "isCommit",
					"outputs": [
						{
							"internalType": "bool",
							"name": "",
							"type": "bool"
						}
					],
					"stateMutability": "view",
					"type": "function"
				},
				{
					"inputs": [],
					"name": "lastAction",
					"outputs": [
						{
							"internalType": "uint256",
							"name": "",
							"type": "uint256"
						}
					],
					"stateMutability": "view",
					"type": "function"
				},
				{
					"inputs": [],
					"name": "max",
					"outputs": [
						{
							"internalType": "uint8",
							"name": "",
							"type": "uint8"
						}
					],
					"stateMutability": "view",
					"type": "function"
				},
				{
					"inputs": [],
					"name": "numInput",
					"outputs": [
						{
							"internalType": "uint256",
							"name": "",
							"type": "uint256"
						}
					],
					"stateMutability": "view",
					"type": "function"
				},
				{
					"inputs": [],
					"name": "numPlayer",
					"outputs": [
						{
							"internalType": "uint256",
							"name": "",
							"type": "uint256"
						}
					],
					"stateMutability": "view",
					"type": "function"
				},
				{
					"inputs": [],
					"name": "numReveal",
					"outputs": [
						{
							"internalType": "uint256",
							"name": "",
							"type": "uint256"
						}
					],
					"stateMutability": "view",
					"type": "function"
				},
				{
					"inputs": [
						{
							"internalType": "address",
							"name": "",
							"type": "address"
						}
					],
					"name": "player_choice",
					"outputs": [
						{
							"internalType": "uint256",
							"name": "",
							"type": "uint256"
						}
					],
					"stateMutability": "view",
					"type": "function"
				},
				{
					"inputs": [
						{
							"internalType": "address",
							"name": "",
							"type": "address"
						}
					],
					"name": "player_not_played",
					"outputs": [
						{
							"internalType": "bool",
							"name": "",
							"type": "bool"
						}
					],
					"stateMutability": "view",
					"type": "function"
				},
				{
					"inputs": [
						{
							"internalType": "uint256",
							"name": "",
							"type": "uint256"
						}
					],
					"name": "players",
					"outputs": [
						{
							"internalType": "address",
							"name": "",
							"type": "address"
						}
					],
					"stateMutability": "view",
					"type": "function"
				},
				{
					"inputs": [
						{
							"internalType": "bytes32",
							"name": "hashChoice",
							"type": "bytes32"
						}
					],
					"name": "revealChoice",
					"outputs": [],
					"stateMutability": "nonpayable",
					"type": "function"
				},
				{
					"inputs": [],
					"name": "reward",
					"outputs": [
						{
							"internalType": "uint256",
							"name": "",
							"type": "uint256"
						}
					],
					"stateMutability": "view",
					"type": "function"
				},
				{
					"inputs": [],
					"name": "startTime",
					"outputs": [
						{
							"internalType": "uint256",
							"name": "",
							"type": "uint256"
						}
					],
					"stateMutability": "view",
					"type": "function"
				},
				{
					"inputs": [],
					"name": "timeOutWithDraw",
					"outputs": [],
					"stateMutability": "nonpayable",
					"type": "function"
				},
				{
					"inputs": [],
					"name": "timeoutDeration",
					"outputs": [
						{
							"internalType": "uint256",
							"name": "",
							"type": "uint256"
						}
					],
					"stateMutability": "view",
					"type": "function"
				}
			],
			"devdoc": {
				"kind": "dev",
				"methods": {},
				"version": 1
			},
			"evm": {
				"assembly": "    /* \"RPS.sol\":134:6137  contract RPS is CommitReveal, TimeUnit {... */\n  mstore(0x40, 0x80)\n    /* \"CommitReveal.sol\":122:125  100 */\n  0x64\n    /* \"CommitReveal.sol\":103:125  uint8 public max = 100 */\n  0x00\n  dup1\n  0x0100\n  exp\n  dup2\n  sload\n  dup2\n  0xff\n  mul\n  not\n  and\n  swap1\n  dup4\n  0xff\n  and\n  mul\n  or\n  swap1\n  sstore\n  pop\n    /* \"RPS.sol\":204:205  0 */\n  0x00\n    /* \"RPS.sol\":180:205  uint public numPlayer = 0 */\n  0x03\n  sstore\n    /* \"RPS.sol\":233:234  0 */\n  0x00\n    /* \"RPS.sol\":212:234  uint public reward = 0 */\n  0x04\n  sstore\n    /* \"RPS.sol\":529:530  0 */\n  0x00\n    /* \"RPS.sol\":506:530  uint public numInput = 0 */\n  0x09\n  sstore\n    /* \"RPS.sol\":561:562  0 */\n  0x00\n    /* \"RPS.sol\":537:562  uint public numReveal = 0 */\n  0x0a\n  sstore\n    /* \"RPS.sol\":599:608  1 minutes */\n  0x3c\n    /* \"RPS.sol\":569:608  uint public timeoutDeration = 1 minutes */\n  0x0b\n  sstore\n    /* \"RPS.sol\":640:655  block.timestamp */\n  timestamp\n    /* \"RPS.sol\":615:655  uint public lastAction = block.timestamp */\n  0x0c\n  sstore\n    /* \"RPS.sol\":724:1066  constructor() {... */\n  callvalue\n  dup1\n  iszero\n  tag_1\n  jumpi\n  0x00\n  dup1\n  revert\ntag_1:\n  pop\n    /* \"RPS.sol\":814:818  true */\n  0x01\n    /* \"RPS.sol\":749:767  whitelistedPlayers */\n  0x0d\n    /* \"RPS.sol\":749:811  whitelistedPlayers[0x5B38Da6a701c568545dCfcB03FcB875f56beddC4] */\n  0x00\n    /* \"RPS.sol\":768:810  0x5B38Da6a701c568545dCfcB03FcB875f56beddC4 */\n  0x5b38da6a701c568545dcfcb03fcb875f56beddc4\n    /* \"RPS.sol\":749:811  whitelistedPlayers[0x5B38Da6a701c568545dCfcB03FcB875f56beddC4] */\n  0xffffffffffffffffffffffffffffffffffffffff\n  and\n  0xffffffffffffffffffffffffffffffffffffffff\n  and\n  dup2\n  mstore\n  0x20\n  add\n  swap1\n  dup2\n  mstore\n  0x20\n  add\n  0x00\n  keccak256\n  0x00\n    /* \"RPS.sol\":749:818  whitelistedPlayers[0x5B38Da6a701c568545dCfcB03FcB875f56beddC4] = true */\n  0x0100\n  exp\n  dup2\n  sload\n  dup2\n  0xff\n  mul\n  not\n  and\n  swap1\n  dup4\n  iszero\n  iszero\n  mul\n  or\n  swap1\n  sstore\n  pop\n    /* \"RPS.sol\":894:898  true */\n  0x01\n    /* \"RPS.sol\":829:847  whitelistedPlayers */\n  0x0d\n    /* \"RPS.sol\":829:891  whitelistedPlayers[0xAb8483F64d9C6d1EcF9b849Ae677dD3315835cb2] */\n  0x00\n    /* \"RPS.sol\":848:890  0xAb8483F64d9C6d1EcF9b849Ae677dD3315835cb2 */\n  0xab8483f64d9c6d1ecf9b849ae677dd3315835cb2\n    /* \"RPS.sol\":829:891  whitelistedPlayers[0xAb8483F64d9C6d1EcF9b849Ae677dD3315835cb2] */\n  0xffffffffffffffffffffffffffffffffffffffff\n  and\n  0xffffffffffffffffffffffffffffffffffffffff\n  and\n  dup2\n  mstore\n  0x20\n  add\n  swap1\n  dup2\n  mstore\n  0x20\n  add\n  0x00\n  keccak256\n  0x00\n    /* \"RPS.sol\":829:898  whitelistedPlayers[0xAb8483F64d9C6d1EcF9b849Ae677dD3315835cb2] = true */\n  0x0100\n  exp\n  dup2\n  sload\n  dup2\n  0xff\n  mul\n  not\n  and\n  swap1\n  dup4\n  iszero\n  iszero\n  mul\n  or\n  swap1\n  sstore\n  pop\n    /* \"RPS.sol\":974:978  true */\n  0x01\n    /* \"RPS.sol\":909:927  whitelistedPlayers */\n  0x0d\n    /* \"RPS.sol\":909:971  whitelistedPlayers[0x4B20993Bc481177ec7E8f571ceCaE8A9e22C02db] */\n  0x00\n    /* \"RPS.sol\":928:970  0x4B20993Bc481177ec7E8f571ceCaE8A9e22C02db */\n  0x4b20993bc481177ec7e8f571cecae8a9e22c02db\n    /* \"RPS.sol\":909:971  whitelistedPlayers[0x4B20993Bc481177ec7E8f571ceCaE8A9e22C02db] */\n  0xffffffffffffffffffffffffffffffffffffffff\n  and\n  0xffffffffffffffffffffffffffffffffffffffff\n  and\n  dup2\n  mstore\n  0x20\n  add\n  swap1\n  dup2\n  mstore\n  0x20\n  add\n  0x00\n  keccak256\n  0x00\n    /* \"RPS.sol\":909:978  whitelistedPlayers[0x4B20993Bc481177ec7E8f571ceCaE8A9e22C02db] = true */\n  0x0100\n  exp\n  dup2\n  sload\n  dup2\n  0xff\n  mul\n  not\n  and\n  swap1\n  dup4\n  iszero\n  iszero\n  mul\n  or\n  swap1\n  sstore\n  pop\n    /* \"RPS.sol\":1054:1058  true */\n  0x01\n    /* \"RPS.sol\":989:1007  whitelistedPlayers */\n  0x0d\n    /* \"RPS.sol\":989:1051  whitelistedPlayers[0x78731D3Ca6b7E34aC0F824c42a7cC18A495cabaB] */\n  0x00\n    /* \"RPS.sol\":1008:1050  0x78731D3Ca6b7E34aC0F824c42a7cC18A495cabaB */\n  0x78731d3ca6b7e34ac0f824c42a7cc18a495cabab\n    /* \"RPS.sol\":989:1051  whitelistedPlayers[0x78731D3Ca6b7E34aC0F824c42a7cC18A495cabaB] */\n  0xffffffffffffffffffffffffffffffffffffffff\n  and\n  0xffffffffffffffffffffffffffffffffffffffff\n  and\n  dup2\n  mstore\n  0x20\n  add\n  swap1\n  dup2\n  mstore\n  0x20\n  add\n  0x00\n  keccak256\n  0x00\n    /* \"RPS.sol\":989:1058  whitelistedPlayers[0x78731D3Ca6b7E34aC0F824c42a7cC18A495cabaB] = true */\n  0x0100\n  exp\n  dup2\n  sload\n  dup2\n  0xff\n  mul\n  not\n  and\n  swap1\n  dup4\n  iszero\n  iszero\n  mul\n  or\n  swap1\n  sstore\n  pop\n    /* \"RPS.sol\":134:6137  contract RPS is CommitReveal, TimeUnit {... */\n  dataSize(sub_0)\n  dup1\n  dataOffset(sub_0)\n  0x00\n  codecopy\n  0x00\n  return\nstop\n\nsub_0: assembly {\n        /* \"RPS.sol\":134:6137  contract RPS is CommitReveal, TimeUnit {... */\n      mstore(0x40, 0x80)\n      jumpi(tag_1, lt(calldatasize, 0x04))\n      shr(0xe0, calldataload(0x00))\n      dup1\n      0x78e97925\n      gt\n      tag_22\n      jumpi\n      dup1\n      0xbc06b8cd\n      gt\n      tag_23\n      jumpi\n      dup1\n      0xbc06b8cd\n      eq\n      tag_17\n      jumpi\n      dup1\n      0xc876e615\n      eq\n      tag_18\n      jumpi\n      dup1\n      0xd891f969\n      eq\n      tag_19\n      jumpi\n      dup1\n      0xd97c8416\n      eq\n      tag_20\n      jumpi\n      dup1\n      0xf71d96cb\n      eq\n      tag_21\n      jumpi\n      jump(tag_1)\n    tag_23:\n      dup1\n      0x78e97925\n      eq\n      tag_12\n      jumpi\n      dup1\n      0x7b43a8e6\n      eq\n      tag_13\n      jumpi\n      dup1\n      0x89f71d53\n      eq\n      tag_14\n      jumpi\n      dup1\n      0x90d5d0c3\n      eq\n      tag_15\n      jumpi\n      dup1\n      0xa040478d\n      eq\n      tag_16\n      jumpi\n      jump(tag_1)\n    tag_22:\n      dup1\n      0x3e2b58e0\n      gt\n      tag_24\n      jumpi\n      dup1\n      0x3e2b58e0\n      eq\n      tag_7\n      jumpi\n      dup1\n      0x43cdd438\n      eq\n      tag_8\n      jumpi\n      dup1\n      0x558d51c6\n      eq\n      tag_9\n      jumpi\n      dup1\n      0x65ce0ac6\n      eq\n      tag_10\n      jumpi\n      dup1\n      0x6ac5db19\n      eq\n      tag_11\n      jumpi\n      jump(tag_1)\n    tag_24:\n      dup1\n      0x086f7815\n      eq\n      tag_2\n      jumpi\n      dup1\n      0x190cf745\n      eq\n      tag_3\n      jumpi\n      dup1\n      0x228cb733\n      eq\n      tag_4\n      jumpi\n      dup1\n      0x27b5db8a\n      eq\n      tag_5\n      jumpi\n      dup1\n      0x3cf5040a\n      eq\n      tag_6\n      jumpi\n    tag_1:\n      0x00\n      dup1\n      revert\n        /* \"RPS.sol\":506:530  uint public numInput = 0 */\n    tag_2:\n      callvalue\n      dup1\n      iszero\n      tag_25\n      jumpi\n      0x00\n      dup1\n      revert\n    tag_25:\n      pop\n      tag_26\n      tag_27\n      jump\t// in\n    tag_26:\n      mload(0x40)\n      tag_28\n      swap2\n      swap1\n      tag_29\n      jump\t// in\n    tag_28:\n      mload(0x40)\n      dup1\n      swap2\n      sub\n      swap1\n      return\n        /* \"RPS.sol\":369:418  mapping(address => bool) public player_not_played */\n    tag_3:\n      callvalue\n      dup1\n      iszero\n      tag_30\n      jumpi\n      0x00\n      dup1\n      revert\n    tag_30:\n      pop\n      tag_31\n      0x04\n      dup1\n      calldatasize\n      sub\n      dup2\n      add\n      swap1\n      tag_32\n      swap2\n      swap1\n      tag_33\n      jump\t// in\n    tag_32:\n      tag_34\n      jump\t// in\n    tag_31:\n      mload(0x40)\n      tag_35\n      swap2\n      swap1\n      tag_36\n      jump\t// in\n    tag_35:\n      mload(0x40)\n      dup1\n      swap2\n      sub\n      swap1\n      return\n        /* \"RPS.sol\":212:234  uint public reward = 0 */\n    tag_4:\n      callvalue\n      dup1\n      iszero\n      tag_37\n      jumpi\n      0x00\n      dup1\n      revert\n    tag_37:\n      pop\n      tag_38\n      tag_39\n      jump\t// in\n    tag_38:\n      mload(0x40)\n      tag_40\n      swap2\n      swap1\n      tag_29\n      jump\t// in\n    tag_40:\n      mload(0x40)\n      dup1\n      swap2\n      sub\n      swap1\n      return\n        /* \"RPS.sol\":1074:1754  function addPlayer() public payable {... */\n    tag_5:\n      tag_41\n      tag_42\n      jump\t// in\n    tag_41:\n      stop\n        /* \"CommitReveal.sol\":1862:1974  function getHash(bytes32 data) public pure returns(bytes32){... */\n    tag_6:\n      callvalue\n      dup1\n      iszero\n      tag_43\n      jumpi\n      0x00\n      dup1\n      revert\n    tag_43:\n      pop\n      tag_44\n      0x04\n      dup1\n      calldatasize\n      sub\n      dup2\n      add\n      swap1\n      tag_45\n      swap2\n      swap1\n      tag_46\n      jump\t// in\n    tag_45:\n      tag_47\n      jump\t// in\n    tag_44:\n      mload(0x40)\n      tag_48\n      swap2\n      swap1\n      tag_49\n      jump\t// in\n    tag_48:\n      mload(0x40)\n      dup1\n      swap2\n      sub\n      swap1\n      return\n        /* \"RPS.sol\":569:608  uint public timeoutDeration = 1 minutes */\n    tag_7:\n      callvalue\n      dup1\n      iszero\n      tag_50\n      jumpi\n      0x00\n      dup1\n      revert\n    tag_50:\n      pop\n      tag_51\n      tag_52\n      jump\t// in\n    tag_51:\n      mload(0x40)\n      tag_53\n      swap2\n      swap1\n      tag_29\n      jump\t// in\n    tag_53:\n      mload(0x40)\n      dup1\n      swap2\n      sub\n      swap1\n      return\n        /* \"RPS.sol\":458:499  mapping (address => bool) public isCommit */\n    tag_8:\n      callvalue\n      dup1\n      iszero\n      tag_54\n      jumpi\n      0x00\n      dup1\n      revert\n    tag_54:\n      pop\n      tag_55\n      0x04\n      dup1\n      calldatasize\n      sub\n      dup2\n      add\n      swap1\n      tag_56\n      swap2\n      swap1\n      tag_33\n      jump\t// in\n    tag_56:\n      tag_57\n      jump\t// in\n    tag_55:\n      mload(0x40)\n      tag_58\n      swap2\n      swap1\n      tag_36\n      jump\t// in\n    tag_58:\n      mload(0x40)\n      dup1\n      swap2\n      sub\n      swap1\n      return\n        /* \"RPS.sol\":4445:6134  function timeOutWithDraw() public {... */\n    tag_9:\n      callvalue\n      dup1\n      iszero\n      tag_59\n      jumpi\n      0x00\n      dup1\n      revert\n    tag_59:\n      pop\n      tag_60\n      tag_61\n      jump\t// in\n    tag_60:\n      stop\n        /* \"RPS.sol\":2809:3591  function revealChoice(bytes32 hashChoice) public {... */\n    tag_10:\n      callvalue\n      dup1\n      iszero\n      tag_62\n      jumpi\n      0x00\n      dup1\n      revert\n    tag_62:\n      pop\n      tag_63\n      0x04\n      dup1\n      calldatasize\n      sub\n      dup2\n      add\n      swap1\n      tag_64\n      swap2\n      swap1\n      tag_46\n      jump\t// in\n    tag_64:\n      tag_65\n      jump\t// in\n    tag_63:\n      stop\n        /* \"CommitReveal.sol\":103:125  uint8 public max = 100 */\n    tag_11:\n      callvalue\n      dup1\n      iszero\n      tag_66\n      jumpi\n      0x00\n      dup1\n      revert\n    tag_66:\n      pop\n      tag_67\n      tag_68\n      jump\t// in\n    tag_67:\n      mload(0x40)\n      tag_69\n      swap2\n      swap1\n      tag_70\n      jump\t// in\n    tag_69:\n      mload(0x40)\n      dup1\n      swap2\n      sub\n      swap1\n      return\n        /* \"TimeUnit.sol\":307:331  uint256 public startTime */\n    tag_12:\n      callvalue\n      dup1\n      iszero\n      tag_71\n      jumpi\n      0x00\n      dup1\n      revert\n    tag_71:\n      pop\n      tag_72\n      tag_73\n      jump\t// in\n    tag_72:\n      mload(0x40)\n      tag_74\n      swap2\n      swap1\n      tag_29\n      jump\t// in\n    tag_74:\n      mload(0x40)\n      dup1\n      swap2\n      sub\n      swap1\n      return\n        /* \"CommitReveal.sol\":218:260  mapping (address => Commit) public commits */\n    tag_13:\n      callvalue\n      dup1\n      iszero\n      tag_75\n      jumpi\n      0x00\n      dup1\n      revert\n    tag_75:\n      pop\n      tag_76\n      0x04\n      dup1\n      calldatasize\n      sub\n      dup2\n      add\n      swap1\n      tag_77\n      swap2\n      swap1\n      tag_33\n      jump\t// in\n    tag_77:\n      tag_78\n      jump\t// in\n    tag_76:\n      mload(0x40)\n      tag_79\n      swap4\n      swap3\n      swap2\n      swap1\n      tag_80\n      jump\t// in\n    tag_79:\n      mload(0x40)\n      dup1\n      swap2\n      sub\n      swap1\n      return\n        /* \"RPS.sol\":615:655  uint public lastAction = block.timestamp */\n    tag_14:\n      callvalue\n      dup1\n      iszero\n      tag_81\n      jumpi\n      0x00\n      dup1\n      revert\n    tag_81:\n      pop\n      tag_82\n      tag_83\n      jump\t// in\n    tag_82:\n      mload(0x40)\n      tag_84\n      swap2\n      swap1\n      tag_29\n      jump\t// in\n    tag_84:\n      mload(0x40)\n      dup1\n      swap2\n      sub\n      swap1\n      return\n        /* \"RPS.sol\":180:205  uint public numPlayer = 0 */\n    tag_15:\n      callvalue\n      dup1\n      iszero\n      tag_85\n      jumpi\n      0x00\n      dup1\n      revert\n    tag_85:\n      pop\n      tag_86\n      tag_87\n      jump\t// in\n    tag_86:\n      mload(0x40)\n      tag_88\n      swap2\n      swap1\n      tag_29\n      jump\t// in\n    tag_88:\n      mload(0x40)\n      dup1\n      swap2\n      sub\n      swap1\n      return\n        /* \"RPS.sol\":241:287  mapping (address => uint) public player_choice */\n    tag_16:\n      callvalue\n      dup1\n      iszero\n      tag_89\n      jumpi\n      0x00\n      dup1\n      revert\n    tag_89:\n      pop\n      tag_90\n      0x04\n      dup1\n      calldatasize\n      sub\n      dup2\n      add\n      swap1\n      tag_91\n      swap2\n      swap1\n      tag_33\n      jump\t// in\n    tag_91:\n      tag_92\n      jump\t// in\n    tag_90:\n      mload(0x40)\n      tag_93\n      swap2\n      swap1\n      tag_29\n      jump\t// in\n    tag_93:\n      mload(0x40)\n      dup1\n      swap2\n      sub\n      swap1\n      return\n        /* \"TimeUnit.sol\":578:685  function elapsedSeconds() public view returns (uint256) { ... */\n    tag_17:\n      callvalue\n      dup1\n      iszero\n      tag_94\n      jumpi\n      0x00\n      dup1\n      revert\n    tag_94:\n      pop\n      tag_95\n      tag_96\n      jump\t// in\n    tag_95:\n      mload(0x40)\n      tag_97\n      swap2\n      swap1\n      tag_29\n      jump\t// in\n    tag_97:\n      mload(0x40)\n      dup1\n      swap2\n      sub\n      swap1\n      return\n        /* \"RPS.sol\":537:562  uint public numReveal = 0 */\n    tag_18:\n      callvalue\n      dup1\n      iszero\n      tag_98\n      jumpi\n      0x00\n      dup1\n      revert\n    tag_98:\n      pop\n      tag_99\n      tag_100\n      jump\t// in\n    tag_99:\n      mload(0x40)\n      tag_101\n      swap2\n      swap1\n      tag_29\n      jump\t// in\n    tag_101:\n      mload(0x40)\n      dup1\n      swap2\n      sub\n      swap1\n      return\n        /* \"RPS.sol\":2206:2737  function input(bytes32 hashAns) public  {... */\n    tag_19:\n      callvalue\n      dup1\n      iszero\n      tag_102\n      jumpi\n      0x00\n      dup1\n      revert\n    tag_102:\n      pop\n      tag_103\n      0x04\n      dup1\n      calldatasize\n      sub\n      dup2\n      add\n      swap1\n      tag_104\n      swap2\n      swap1\n      tag_46\n      jump\t// in\n    tag_104:\n      tag_105\n      jump\t// in\n    tag_103:\n      stop\n        /* \"TimeUnit.sol\":801:1084  function elapsedMinutes() public view returns (uint256) { ... */\n    tag_20:\n      callvalue\n      dup1\n      iszero\n      tag_106\n      jumpi\n      0x00\n      dup1\n      revert\n    tag_106:\n      pop\n      tag_107\n      tag_108\n      jump\t// in\n    tag_107:\n      mload(0x40)\n      tag_109\n      swap2\n      swap1\n      tag_29\n      jump\t// in\n    tag_109:\n      mload(0x40)\n      dup1\n      swap2\n      sub\n      swap1\n      return\n        /* \"RPS.sol\":425:449  address[] public players */\n    tag_21:\n      callvalue\n      dup1\n      iszero\n      tag_110\n      jumpi\n      0x00\n      dup1\n      revert\n    tag_110:\n      pop\n      tag_111\n      0x04\n      dup1\n      calldatasize\n      sub\n      dup2\n      add\n      swap1\n      tag_112\n      swap2\n      swap1\n      tag_113\n      jump\t// in\n    tag_112:\n      tag_114\n      jump\t// in\n    tag_111:\n      mload(0x40)\n      tag_115\n      swap2\n      swap1\n      tag_116\n      jump\t// in\n    tag_115:\n      mload(0x40)\n      dup1\n      swap2\n      sub\n      swap1\n      return\n        /* \"RPS.sol\":506:530  uint public numInput = 0 */\n    tag_27:\n      sload(0x09)\n      dup2\n      jump\t// out\n        /* \"RPS.sol\":369:418  mapping(address => bool) public player_not_played */\n    tag_34:\n      mstore(0x20, 0x06)\n      dup1\n      0x00\n      mstore\n      keccak256(0x00, 0x40)\n      0x00\n      swap2\n      pop\n      sload\n      swap1\n      0x0100\n      exp\n      swap1\n      div\n      0xff\n      and\n      dup2\n      jump\t// out\n        /* \"RPS.sol\":212:234  uint public reward = 0 */\n    tag_39:\n      sload(0x04)\n      dup2\n      jump\t// out\n        /* \"RPS.sol\":1074:1754  function addPlayer() public payable {... */\n    tag_42:\n        /* \"RPS.sol\":1141:1142  2 */\n      0x02\n        /* \"RPS.sol\":1129:1138  numPlayer */\n      sload(0x03)\n        /* \"RPS.sol\":1129:1142  numPlayer < 2 */\n      lt\n        /* \"RPS.sol\":1121:1174  require(numPlayer < 2, \"Game already has 2 players.\") */\n      tag_118\n      jumpi\n      mload(0x40)\n      0x08c379a000000000000000000000000000000000000000000000000000000000\n      dup2\n      mstore\n      0x04\n      add\n      tag_119\n      swap1\n      tag_120\n      jump\t// in\n    tag_119:\n      mload(0x40)\n      dup1\n      swap2\n      sub\n      swap1\n      revert\n    tag_118:\n        /* \"RPS.sol\":1193:1211  whitelistedPlayers */\n      0x0d\n        /* \"RPS.sol\":1193:1223  whitelistedPlayers[msg.sender] */\n      0x00\n        /* \"RPS.sol\":1212:1222  msg.sender */\n      caller\n        /* \"RPS.sol\":1193:1223  whitelistedPlayers[msg.sender] */\n      0xffffffffffffffffffffffffffffffffffffffff\n      and\n      0xffffffffffffffffffffffffffffffffffffffff\n      and\n      dup2\n      mstore\n      0x20\n      add\n      swap1\n      dup2\n      mstore\n      0x20\n      add\n      0x00\n      keccak256\n      0x00\n      swap1\n      sload\n      swap1\n      0x0100\n      exp\n      swap1\n      div\n      0xff\n      and\n        /* \"RPS.sol\":1185:1256  require(whitelistedPlayers[msg.sender], \"You are not allowed to play.\") */\n      tag_121\n      jumpi\n      mload(0x40)\n      0x08c379a000000000000000000000000000000000000000000000000000000000\n      dup2\n      mstore\n      0x04\n      add\n      tag_122\n      swap1\n      tag_123\n      jump\t// in\n    tag_122:\n      mload(0x40)\n      dup1\n      swap2\n      sub\n      swap1\n      revert\n    tag_121:\n        /* \"RPS.sol\":1283:1284  0 */\n      0x00\n        /* \"RPS.sol\":1271:1280  numPlayer */\n      sload(0x03)\n        /* \"RPS.sol\":1271:1284  numPlayer > 0 */\n      gt\n        /* \"RPS.sol\":1267:1346  if (numPlayer > 0) {... */\n      iszero\n      tag_124\n      jumpi\n        /* \"RPS.sol\":1323:1330  players */\n      0x07\n        /* \"RPS.sol\":1331:1332  0 */\n      0x00\n        /* \"RPS.sol\":1323:1333  players[0] */\n      dup2\n      sload\n      dup2\n      lt\n      tag_125\n      jumpi\n      tag_126\n      tag_127\n      jump\t// in\n    tag_126:\n    tag_125:\n      swap1\n      0x00\n      mstore\n      keccak256(0x00, 0x20)\n      add\n      0x00\n      swap1\n      sload\n      swap1\n      0x0100\n      exp\n      swap1\n      div\n      0xffffffffffffffffffffffffffffffffffffffff\n      and\n        /* \"RPS.sol\":1309:1333  msg.sender != players[0] */\n      0xffffffffffffffffffffffffffffffffffffffff\n      and\n        /* \"RPS.sol\":1309:1319  msg.sender */\n      caller\n        /* \"RPS.sol\":1309:1333  msg.sender != players[0] */\n      0xffffffffffffffffffffffffffffffffffffffff\n      and\n      sub\n        /* \"RPS.sol\":1301:1334  require(msg.sender != players[0]) */\n      tag_129\n      jumpi\n      0x00\n      dup1\n      revert\n    tag_129:\n        /* \"RPS.sol\":1267:1346  if (numPlayer > 0) {... */\n    tag_124:\n        /* \"RPS.sol\":1377:1384  1 ether */\n      0x0de0b6b3a7640000\n        /* \"RPS.sol\":1364:1373  msg.value */\n      callvalue\n        /* \"RPS.sol\":1364:1384  msg.value == 1 ether */\n      eq\n        /* \"RPS.sol\":1356:1414  require(msg.value == 1 ether, \"Pay 1 ether to play game.\") */\n      tag_130\n      jumpi\n      mload(0x40)\n      0x08c379a000000000000000000000000000000000000000000000000000000000\n      dup2\n      mstore\n      0x04\n      add\n      tag_131\n      swap1\n      tag_132\n      jump\t// in\n    tag_131:\n      mload(0x40)\n      dup1\n      swap2\n      sub\n      swap1\n      revert\n    tag_130:\n        /* \"RPS.sol\":1435:1444  msg.value */\n      callvalue\n        /* \"RPS.sol\":1425:1431  reward */\n      0x04\n      0x00\n        /* \"RPS.sol\":1425:1444  reward += msg.value */\n      dup3\n      dup3\n      sload\n      tag_133\n      swap2\n      swap1\n      tag_134\n      jump\t// in\n    tag_133:\n      swap3\n      pop\n      pop\n      dup2\n      swap1\n      sstore\n      pop\n        /* \"RPS.sol\":1487:1491  true */\n      0x01\n        /* \"RPS.sol\":1455:1472  player_not_played */\n      0x06\n        /* \"RPS.sol\":1455:1484  player_not_played[msg.sender] */\n      0x00\n        /* \"RPS.sol\":1473:1483  msg.sender */\n      caller\n        /* \"RPS.sol\":1455:1484  player_not_played[msg.sender] */\n      0xffffffffffffffffffffffffffffffffffffffff\n      and\n      0xffffffffffffffffffffffffffffffffffffffff\n      and\n      dup2\n      mstore\n      0x20\n      add\n      swap1\n      dup2\n      mstore\n      0x20\n      add\n      0x00\n      keccak256\n      0x00\n        /* \"RPS.sol\":1455:1491  player_not_played[msg.sender] = true */\n      0x0100\n      exp\n      dup2\n      sload\n      dup2\n      0xff\n      mul\n      not\n      and\n      swap1\n      dup4\n      iszero\n      iszero\n      mul\n      or\n      swap1\n      sstore\n      pop\n        /* \"RPS.sol\":1502:1509  players */\n      0x07\n        /* \"RPS.sol\":1515:1525  msg.sender */\n      caller\n        /* \"RPS.sol\":1502:1526  players.push(msg.sender) */\n      swap1\n      dup1\n      0x01\n      dup2\n      sload\n      add\n      dup1\n      dup3\n      sstore\n      dup1\n      swap2\n      pop\n      pop\n      0x01\n      swap1\n      sub\n      swap1\n      0x00\n      mstore\n      keccak256(0x00, 0x20)\n      add\n      0x00\n      swap1\n      swap2\n      swap1\n      swap2\n      swap1\n      swap2\n      0x0100\n      exp\n      dup2\n      sload\n      dup2\n      0xffffffffffffffffffffffffffffffffffffffff\n      mul\n      not\n      and\n      swap1\n      dup4\n      0xffffffffffffffffffffffffffffffffffffffff\n      and\n      mul\n      or\n      swap1\n      sstore\n      pop\n        /* \"RPS.sol\":1565:1566  5 */\n      0x05\n        /* \"RPS.sol\":1537:1550  player_choice */\n      dup1\n        /* \"RPS.sol\":1537:1562  player_choice[msg.sender] */\n      0x00\n        /* \"RPS.sol\":1551:1561  msg.sender */\n      caller\n        /* \"RPS.sol\":1537:1562  player_choice[msg.sender] */\n      0xffffffffffffffffffffffffffffffffffffffff\n      and\n      0xffffffffffffffffffffffffffffffffffffffff\n      and\n      dup2\n      mstore\n      0x20\n      add\n      swap1\n      dup2\n      mstore\n      0x20\n      add\n      0x00\n      keccak256\n        /* \"RPS.sol\":1537:1566  player_choice[msg.sender] = 5 */\n      dup2\n      swap1\n      sstore\n      pop\n        /* \"RPS.sol\":1600:1605  false */\n      0x00\n        /* \"RPS.sol\":1577:1585  isCommit */\n      0x08\n        /* \"RPS.sol\":1577:1597  isCommit[msg.sender] */\n      0x00\n        /* \"RPS.sol\":1586:1596  msg.sender */\n      caller\n        /* \"RPS.sol\":1577:1597  isCommit[msg.sender] */\n      0xffffffffffffffffffffffffffffffffffffffff\n      and\n      0xffffffffffffffffffffffffffffffffffffffff\n      and\n      dup2\n      mstore\n      0x20\n      add\n      swap1\n      dup2\n      mstore\n      0x20\n      add\n      0x00\n      keccak256\n      0x00\n        /* \"RPS.sol\":1577:1605  isCommit[msg.sender] = false */\n      0x0100\n      exp\n      dup2\n      sload\n      dup2\n      0xff\n      mul\n      not\n      and\n      swap1\n      dup4\n      iszero\n      iszero\n      mul\n      or\n      swap1\n      sstore\n      pop\n        /* \"RPS.sol\":1616:1625  numPlayer */\n      0x03\n      0x00\n        /* \"RPS.sol\":1616:1627  numPlayer++ */\n      dup2\n      sload\n      dup1\n      swap3\n      swap2\n      swap1\n      tag_136\n      swap1\n      tag_137\n      jump\t// in\n    tag_136:\n      swap2\n      swap1\n      pop\n      sstore\n      pop\n        /* \"RPS.sol\":1643:1677  playerAdded(msg.sender, numPlayer) */\n      0x313f9ebdca9d25ee9456dd69022e3324975c8261b7a8b134881905d3b6964d3c\n        /* \"RPS.sol\":1655:1665  msg.sender */\n      caller\n        /* \"RPS.sol\":1667:1676  numPlayer */\n      sload(0x03)\n        /* \"RPS.sol\":1643:1677  playerAdded(msg.sender, numPlayer) */\n      mload(0x40)\n      tag_138\n      swap3\n      swap2\n      swap1\n      tag_139\n      jump\t// in\n    tag_138:\n      mload(0x40)\n      dup1\n      swap2\n      sub\n      swap1\n      log1\n        /* \"RPS.sol\":1732:1746  setStartTime() */\n      tag_140\n        /* \"RPS.sol\":1732:1744  setStartTime */\n      tag_141\n        /* \"RPS.sol\":1732:1746  setStartTime() */\n      jump\t// in\n    tag_140:\n        /* \"RPS.sol\":1074:1754  function addPlayer() public payable {... */\n      jump\t// out\n        /* \"CommitReveal.sol\":1862:1974  function getHash(bytes32 data) public pure returns(bytes32){... */\n    tag_47:\n        /* \"CommitReveal.sol\":1913:1920  bytes32 */\n      0x00\n        /* \"CommitReveal.sol\":1962:1966  data */\n      dup2\n        /* \"CommitReveal.sol\":1945:1967  abi.encodePacked(data) */\n      add(0x20, mload(0x40))\n      tag_143\n      swap2\n      swap1\n      tag_144\n      jump\t// in\n    tag_143:\n      mload(0x40)\n      0x20\n      dup2\n      dup4\n      sub\n      sub\n      dup2\n      mstore\n      swap1\n      0x40\n      mstore\n        /* \"CommitReveal.sol\":1935:1968  keccak256(abi.encodePacked(data)) */\n      dup1\n      mload\n      swap1\n      0x20\n      add\n      keccak256\n        /* \"CommitReveal.sol\":1928:1968  return keccak256(abi.encodePacked(data)) */\n      swap1\n      pop\n        /* \"CommitReveal.sol\":1862:1974  function getHash(bytes32 data) public pure returns(bytes32){... */\n      swap2\n      swap1\n      pop\n      jump\t// out\n        /* \"RPS.sol\":569:608  uint public timeoutDeration = 1 minutes */\n    tag_52:\n      sload(0x0b)\n      dup2\n      jump\t// out\n        /* \"RPS.sol\":458:499  mapping (address => bool) public isCommit */\n    tag_57:\n      mstore(0x20, 0x08)\n      dup1\n      0x00\n      mstore\n      keccak256(0x00, 0x40)\n      0x00\n      swap2\n      pop\n      sload\n      swap1\n      0x0100\n      exp\n      swap1\n      div\n      0xff\n      and\n      dup2\n      jump\t// out\n        /* \"RPS.sol\":4445:6134  function timeOutWithDraw() public {... */\n    tag_61:\n        /* \"RPS.sol\":4511:4512  1 */\n      0x01\n        /* \"RPS.sol\":4498:4507  numPlayer */\n      sload(0x03)\n        /* \"RPS.sol\":4498:4512  numPlayer >= 1 */\n      lt\n      iszero\n        /* \"RPS.sol\":4490:4513  require(numPlayer >= 1) */\n      tag_146\n      jumpi\n      0x00\n      dup1\n      revert\n    tag_146:\n        /* \"RPS.sol\":4620:4635  timeoutDeration */\n      sload(0x0b)\n        /* \"RPS.sol\":4601:4617  elapsedSeconds() */\n      tag_147\n        /* \"RPS.sol\":4601:4615  elapsedSeconds */\n      tag_96\n        /* \"RPS.sol\":4601:4617  elapsedSeconds() */\n      jump\t// in\n    tag_147:\n        /* \"RPS.sol\":4601:4635  elapsedSeconds() > timeoutDeration */\n      gt\n        /* \"RPS.sol\":4593:4679  require(elapsedSeconds() > timeoutDeration, \"You need to wait 1 minute for withdraw.\") */\n      tag_148\n      jumpi\n      mload(0x40)\n      0x08c379a000000000000000000000000000000000000000000000000000000000\n      dup2\n      mstore\n      0x04\n      add\n      tag_149\n      swap1\n      tag_150\n      jump\t// in\n    tag_149:\n      mload(0x40)\n      dup1\n      swap2\n      sub\n      swap1\n      revert\n    tag_148:\n        /* \"RPS.sol\":4723:4729  reward */\n      sload(0x04)\n        /* \"RPS.sol\":4698:4719  address(this).balance */\n      selfbalance\n        /* \"RPS.sol\":4698:4729  address(this).balance >= reward */\n      lt\n      iszero\n        /* \"RPS.sol\":4690:4768  require(address(this).balance >= reward, \"Contract has insufficient balance.\") */\n      tag_151\n      jumpi\n      mload(0x40)\n      0x08c379a000000000000000000000000000000000000000000000000000000000\n      dup2\n      mstore\n      0x04\n      add\n      tag_152\n      swap1\n      tag_153\n      jump\t// in\n    tag_152:\n      mload(0x40)\n      dup1\n      swap2\n      sub\n      swap1\n      revert\n    tag_151:\n        /* \"RPS.sol\":4779:4803  address payable account0 */\n      0x00\n        /* \"RPS.sol\":4814:4821  players */\n      0x07\n        /* \"RPS.sol\":4822:4823  0 */\n      0x00\n        /* \"RPS.sol\":4814:4824  players[0] */\n      dup2\n      sload\n      dup2\n      lt\n      tag_154\n      jumpi\n      tag_155\n      tag_127\n      jump\t// in\n    tag_155:\n    tag_154:\n      swap1\n      0x00\n      mstore\n      keccak256(0x00, 0x20)\n      add\n      0x00\n      swap1\n      sload\n      swap1\n      0x0100\n      exp\n      swap1\n      div\n      0xffffffffffffffffffffffffffffffffffffffff\n      and\n        /* \"RPS.sol\":4779:4825  address payable account0 = payable(players[0]) */\n      swap1\n      pop\n        /* \"RPS.sol\":4881:4882  1 */\n      0x01\n        /* \"RPS.sol\":4868:4877  numPlayer */\n      sload(0x03)\n        /* \"RPS.sol\":4868:4882  numPlayer == 1 */\n      sub\n        /* \"RPS.sol\":4864:6125  if (numPlayer == 1) {... */\n      tag_157\n      jumpi\n        /* \"RPS.sol\":4899:4907  account0 */\n      dup1\n        /* \"RPS.sol\":4899:4916  account0.transfer */\n      0xffffffffffffffffffffffffffffffffffffffff\n      and\n        /* \"RPS.sol\":4899:4924  account0.transfer(reward) */\n      0x08fc\n        /* \"RPS.sol\":4917:4923  reward */\n      sload(0x04)\n        /* \"RPS.sol\":4899:4924  account0.transfer(reward) */\n      swap1\n      dup2\n      iszero\n      mul\n      swap1\n      mload(0x40)\n      0x00\n      mload(0x40)\n      dup1\n      dup4\n      sub\n      dup2\n      dup6\n      dup9\n      dup9\n      call\n      swap4\n      pop\n      pop\n      pop\n      pop\n      iszero\n      dup1\n      iszero\n      tag_159\n      jumpi\n      returndatasize\n      0x00\n      dup1\n      returndatacopy\n      revert(0x00, returndatasize)\n    tag_159:\n      pop\n        /* \"RPS.sol\":4939:4947  _reset() */\n      tag_160\n        /* \"RPS.sol\":4939:4945  _reset */\n      tag_161\n        /* \"RPS.sol\":4939:4947  _reset() */\n      jump\t// in\n    tag_160:\n        /* \"RPS.sol\":4864:6125  if (numPlayer == 1) {... */\n      jump(tag_162)\n    tag_157:\n        /* \"RPS.sol\":4991:4992  2 */\n      0x02\n        /* \"RPS.sol\":4978:4987  numPlayer */\n      sload(0x03)\n        /* \"RPS.sol\":4978:4992  numPlayer == 2 */\n      sub\n        /* \"RPS.sol\":4974:6125  if (numPlayer == 2) {... */\n      tag_163\n      jumpi\n        /* \"RPS.sol\":5009:5033  address payable account1 */\n      0x00\n        /* \"RPS.sol\":5044:5051  players */\n      0x07\n        /* \"RPS.sol\":5052:5053  1 */\n      0x01\n        /* \"RPS.sol\":5044:5054  players[1] */\n      dup2\n      sload\n      dup2\n      lt\n      tag_164\n      jumpi\n      tag_165\n      tag_127\n      jump\t// in\n    tag_165:\n    tag_164:\n      swap1\n      0x00\n      mstore\n      keccak256(0x00, 0x20)\n      add\n      0x00\n      swap1\n      sload\n      swap1\n      0x0100\n      exp\n      swap1\n      div\n      0xffffffffffffffffffffffffffffffffffffffff\n      and\n        /* \"RPS.sol\":5009:5055  address payable account1 = payable(players[1]) */\n      swap1\n      pop\n        /* \"RPS.sol\":5149:5150  0 */\n      0x00\n        /* \"RPS.sol\":5137:5145  numInput */\n      sload(0x09)\n        /* \"RPS.sol\":5137:5150  numInput == 0 */\n      eq\n        /* \"RPS.sol\":5137:5187  numInput == 0 || (numInput == 2 && numReveal == 0) */\n      dup1\n      tag_167\n      jumpi\n      pop\n        /* \"RPS.sol\":5167:5168  2 */\n      0x02\n        /* \"RPS.sol\":5155:5163  numInput */\n      sload(0x09)\n        /* \"RPS.sol\":5155:5168  numInput == 2 */\n      eq\n        /* \"RPS.sol\":5155:5186  numInput == 2 && numReveal == 0 */\n      dup1\n      iszero\n      tag_168\n      jumpi\n      pop\n        /* \"RPS.sol\":5185:5186  0 */\n      0x00\n        /* \"RPS.sol\":5172:5181  numReveal */\n      sload(0x0a)\n        /* \"RPS.sol\":5172:5186  numReveal == 0 */\n      eq\n        /* \"RPS.sol\":5155:5186  numInput == 2 && numReveal == 0 */\n    tag_168:\n        /* \"RPS.sol\":5137:5187  numInput == 0 || (numInput == 2 && numReveal == 0) */\n    tag_167:\n        /* \"RPS.sol\":5133:6114  if (numInput == 0 || (numInput == 2 && numReveal == 0)) {... */\n      iszero\n      tag_169\n      jumpi\n        /* \"RPS.sol\":5208:5216  account0 */\n      dup2\n        /* \"RPS.sol\":5208:5225  account0.transfer */\n      0xffffffffffffffffffffffffffffffffffffffff\n      and\n        /* \"RPS.sol\":5208:5237  account0.transfer(reward / 2) */\n      0x08fc\n        /* \"RPS.sol\":5235:5236  2 */\n      0x02\n        /* \"RPS.sol\":5226:5232  reward */\n      sload(0x04)\n        /* \"RPS.sol\":5226:5236  reward / 2 */\n      tag_170\n      swap2\n      swap1\n      tag_171\n      jump\t// in\n    tag_170:\n        /* \"RPS.sol\":5208:5237  account0.transfer(reward / 2) */\n      swap1\n      dup2\n      iszero\n      mul\n      swap1\n      mload(0x40)\n      0x00\n      mload(0x40)\n      dup1\n      dup4\n      sub\n      dup2\n      dup6\n      dup9\n      dup9\n      call\n      swap4\n      pop\n      pop\n      pop\n      pop\n      iszero\n      dup1\n      iszero\n      tag_173\n      jumpi\n      returndatasize\n      0x00\n      dup1\n      returndatacopy\n      revert(0x00, returndatasize)\n    tag_173:\n      pop\n        /* \"RPS.sol\":5256:5264  account1 */\n      dup1\n        /* \"RPS.sol\":5256:5273  account1.transfer */\n      0xffffffffffffffffffffffffffffffffffffffff\n      and\n        /* \"RPS.sol\":5256:5285  account1.transfer(reward / 2) */\n      0x08fc\n        /* \"RPS.sol\":5283:5284  2 */\n      0x02\n        /* \"RPS.sol\":5274:5280  reward */\n      sload(0x04)\n        /* \"RPS.sol\":5274:5284  reward / 2 */\n      tag_174\n      swap2\n      swap1\n      tag_171\n      jump\t// in\n    tag_174:\n        /* \"RPS.sol\":5256:5285  account1.transfer(reward / 2) */\n      swap1\n      dup2\n      iszero\n      mul\n      swap1\n      mload(0x40)\n      0x00\n      mload(0x40)\n      dup1\n      dup4\n      sub\n      dup2\n      dup6\n      dup9\n      dup9\n      call\n      swap4\n      pop\n      pop\n      pop\n      pop\n      iszero\n      dup1\n      iszero\n      tag_176\n      jumpi\n      returndatasize\n      0x00\n      dup1\n      returndatacopy\n      revert(0x00, returndatasize)\n    tag_176:\n      pop\n        /* \"RPS.sol\":5304:5312  _reset() */\n      tag_177\n        /* \"RPS.sol\":5304:5310  _reset */\n      tag_161\n        /* \"RPS.sol\":5304:5312  _reset() */\n      jump\t// in\n    tag_177:\n        /* \"RPS.sol\":5133:6114  if (numInput == 0 || (numInput == 2 && numReveal == 0)) {... */\n      jump(tag_178)\n    tag_169:\n        /* \"RPS.sol\":5407:5408  1 */\n      0x01\n        /* \"RPS.sol\":5395:5403  numInput */\n      sload(0x09)\n        /* \"RPS.sol\":5395:5408  numInput == 1 */\n      sub\n        /* \"RPS.sol\":5391:6114  if (numInput == 1) {... */\n      tag_179\n      jumpi\n        /* \"RPS.sol\":5503:5507  true */\n      0x01\n        /* \"RPS.sol\":5481:5507  isCommit[account0] == true */\n      iszero\n      iszero\n        /* \"RPS.sol\":5481:5489  isCommit */\n      0x08\n        /* \"RPS.sol\":5481:5499  isCommit[account0] */\n      0x00\n        /* \"RPS.sol\":5490:5498  account0 */\n      dup5\n        /* \"RPS.sol\":5481:5499  isCommit[account0] */\n      0xffffffffffffffffffffffffffffffffffffffff\n      and\n      0xffffffffffffffffffffffffffffffffffffffff\n      and\n      dup2\n      mstore\n      0x20\n      add\n      swap1\n      dup2\n      mstore\n      0x20\n      add\n      0x00\n      keccak256\n      0x00\n      swap1\n      sload\n      swap1\n      0x0100\n      exp\n      swap1\n      div\n      0xff\n      and\n        /* \"RPS.sol\":5481:5507  isCommit[account0] == true */\n      iszero\n      iszero\n      sub\n        /* \"RPS.sol\":5477:5668  if (isCommit[account0] == true) {... */\n      tag_180\n      jumpi\n        /* \"RPS.sol\":5532:5540  account0 */\n      dup2\n        /* \"RPS.sol\":5532:5549  account0.transfer */\n      0xffffffffffffffffffffffffffffffffffffffff\n      and\n        /* \"RPS.sol\":5532:5557  account0.transfer(reward) */\n      0x08fc\n        /* \"RPS.sol\":5550:5556  reward */\n      sload(0x04)\n        /* \"RPS.sol\":5532:5557  account0.transfer(reward) */\n      swap1\n      dup2\n      iszero\n      mul\n      swap1\n      mload(0x40)\n      0x00\n      mload(0x40)\n      dup1\n      dup4\n      sub\n      dup2\n      dup6\n      dup9\n      dup9\n      call\n      swap4\n      pop\n      pop\n      pop\n      pop\n      iszero\n      dup1\n      iszero\n      tag_182\n      jumpi\n      returndatasize\n      0x00\n      dup1\n      returndatacopy\n      revert(0x00, returndatasize)\n    tag_182:\n      pop\n        /* \"RPS.sol\":5477:5668  if (isCommit[account0] == true) {... */\n      jump(tag_183)\n    tag_180:\n        /* \"RPS.sol\":5623:5631  account1 */\n      dup1\n        /* \"RPS.sol\":5623:5640  account1.transfer */\n      0xffffffffffffffffffffffffffffffffffffffff\n      and\n        /* \"RPS.sol\":5623:5648  account1.transfer(reward) */\n      0x08fc\n        /* \"RPS.sol\":5641:5647  reward */\n      sload(0x04)\n        /* \"RPS.sol\":5623:5648  account1.transfer(reward) */\n      swap1\n      dup2\n      iszero\n      mul\n      swap1\n      mload(0x40)\n      0x00\n      mload(0x40)\n      dup1\n      dup4\n      sub\n      dup2\n      dup6\n      dup9\n      dup9\n      call\n      swap4\n      pop\n      pop\n      pop\n      pop\n      iszero\n      dup1\n      iszero\n      tag_185\n      jumpi\n      returndatasize\n      0x00\n      dup1\n      returndatacopy\n      revert(0x00, returndatasize)\n    tag_185:\n      pop\n        /* \"RPS.sol\":5477:5668  if (isCommit[account0] == true) {... */\n    tag_183:\n        /* \"RPS.sol\":5686:5694  _reset() */\n      tag_186\n        /* \"RPS.sol\":5686:5692  _reset */\n      tag_161\n        /* \"RPS.sol\":5686:5694  _reset() */\n      jump\t// in\n    tag_186:\n        /* \"RPS.sol\":5391:6114  if (numInput == 1) {... */\n      jump(tag_187)\n    tag_179:\n        /* \"RPS.sol\":5790:5791  2 */\n      0x02\n        /* \"RPS.sol\":5778:5786  numInput */\n      sload(0x09)\n        /* \"RPS.sol\":5778:5791  numInput == 2 */\n      eq\n        /* \"RPS.sol\":5778:5809  numInput == 2 && numReveal == 1 */\n      dup1\n      iszero\n      tag_188\n      jumpi\n      pop\n        /* \"RPS.sol\":5808:5809  1 */\n      0x01\n        /* \"RPS.sol\":5795:5804  numReveal */\n      sload(0x0a)\n        /* \"RPS.sol\":5795:5809  numReveal == 1 */\n      eq\n        /* \"RPS.sol\":5778:5809  numInput == 2 && numReveal == 1 */\n    tag_188:\n        /* \"RPS.sol\":5774:6114  if (numInput == 2 && numReveal == 1) {... */\n      iszero\n      tag_189\n      jumpi\n        /* \"RPS.sol\":5910:5911  5 */\n      0x05\n        /* \"RPS.sol\":5883:5896  player_choice */\n      dup1\n        /* \"RPS.sol\":5883:5906  player_choice[account0] */\n      0x00\n        /* \"RPS.sol\":5897:5905  account0 */\n      dup5\n        /* \"RPS.sol\":5883:5906  player_choice[account0] */\n      0xffffffffffffffffffffffffffffffffffffffff\n      and\n      0xffffffffffffffffffffffffffffffffffffffff\n      and\n      dup2\n      mstore\n      0x20\n      add\n      swap1\n      dup2\n      mstore\n      0x20\n      add\n      0x00\n      keccak256\n      sload\n        /* \"RPS.sol\":5883:5911  player_choice[account0] != 5 */\n      eq\n        /* \"RPS.sol\":5879:6072  if (player_choice[account0] != 5) {... */\n      tag_190\n      jumpi\n        /* \"RPS.sol\":5936:5944  account0 */\n      dup2\n        /* \"RPS.sol\":5936:5953  account0.transfer */\n      0xffffffffffffffffffffffffffffffffffffffff\n      and\n        /* \"RPS.sol\":5936:5961  account0.transfer(reward) */\n      0x08fc\n        /* \"RPS.sol\":5954:5960  reward */\n      sload(0x04)\n        /* \"RPS.sol\":5936:5961  account0.transfer(reward) */\n      swap1\n      dup2\n      iszero\n      mul\n      swap1\n      mload(0x40)\n      0x00\n      mload(0x40)\n      dup1\n      dup4\n      sub\n      dup2\n      dup6\n      dup9\n      dup9\n      call\n      swap4\n      pop\n      pop\n      pop\n      pop\n      iszero\n      dup1\n      iszero\n      tag_192\n      jumpi\n      returndatasize\n      0x00\n      dup1\n      returndatacopy\n      revert(0x00, returndatasize)\n    tag_192:\n      pop\n        /* \"RPS.sol\":5879:6072  if (player_choice[account0] != 5) {... */\n      jump(tag_193)\n    tag_190:\n        /* \"RPS.sol\":6027:6035  account1 */\n      dup1\n        /* \"RPS.sol\":6027:6044  account1.transfer */\n      0xffffffffffffffffffffffffffffffffffffffff\n      and\n        /* \"RPS.sol\":6027:6052  account1.transfer(reward) */\n      0x08fc\n        /* \"RPS.sol\":6045:6051  reward */\n      sload(0x04)\n        /* \"RPS.sol\":6027:6052  account1.transfer(reward) */\n      swap1\n      dup2\n      iszero\n      mul\n      swap1\n      mload(0x40)\n      0x00\n      mload(0x40)\n      dup1\n      dup4\n      sub\n      dup2\n      dup6\n      dup9\n      dup9\n      call\n      swap4\n      pop\n      pop\n      pop\n      pop\n      iszero\n      dup1\n      iszero\n      tag_195\n      jumpi\n      returndatasize\n      0x00\n      dup1\n      returndatacopy\n      revert(0x00, returndatasize)\n    tag_195:\n      pop\n        /* \"RPS.sol\":5879:6072  if (player_choice[account0] != 5) {... */\n    tag_193:\n        /* \"RPS.sol\":6090:6098  _reset() */\n      tag_196\n        /* \"RPS.sol\":6090:6096  _reset */\n      tag_161\n        /* \"RPS.sol\":6090:6098  _reset() */\n      jump\t// in\n    tag_196:\n        /* \"RPS.sol\":5774:6114  if (numInput == 2 && numReveal == 1) {... */\n    tag_189:\n        /* \"RPS.sol\":5391:6114  if (numInput == 1) {... */\n    tag_187:\n        /* \"RPS.sol\":5133:6114  if (numInput == 0 || (numInput == 2 && numReveal == 0)) {... */\n    tag_178:\n        /* \"RPS.sol\":4994:6125  {... */\n      pop\n        /* \"RPS.sol\":4974:6125  if (numPlayer == 2) {... */\n    tag_163:\n        /* \"RPS.sol\":4864:6125  if (numPlayer == 1) {... */\n    tag_162:\n        /* \"RPS.sol\":4479:6134  {... */\n      pop\n        /* \"RPS.sol\":4445:6134  function timeOutWithDraw() public {... */\n      jump\t// out\n        /* \"RPS.sol\":2809:3591  function revealChoice(bytes32 hashChoice) public {... */\n    tag_65:\n        /* \"RPS.sol\":2890:2891  2 */\n      0x02\n        /* \"RPS.sol\":2877:2886  numPlayer */\n      sload(0x03)\n        /* \"RPS.sol\":2877:2891  numPlayer == 2 */\n      eq\n        /* \"RPS.sol\":2869:2892  require(numPlayer == 2) */\n      tag_198\n      jumpi\n      0x00\n      dup1\n      revert\n    tag_198:\n        /* \"RPS.sol\":2923:2924  2 */\n      0x02\n        /* \"RPS.sol\":2911:2919  numInput */\n      sload(0x09)\n        /* \"RPS.sol\":2911:2924  numInput == 2 */\n      eq\n        /* \"RPS.sol\":2903:2925  require(numInput == 2) */\n      tag_199\n      jumpi\n      0x00\n      dup1\n      revert\n    tag_199:\n        /* \"RPS.sol\":2938:2949  uint choice */\n      0x00\n        /* \"RPS.sol\":2958:2968  hashChoice */\n      dup2\n        /* \"RPS.sol\":2969:2971  31 */\n      0x1f\n        /* \"RPS.sol\":2958:2972  hashChoice[31] */\n      0x20\n      dup2\n      lt\n      tag_200\n      jumpi\n      tag_201\n      tag_127\n      jump\t// in\n    tag_201:\n    tag_200:\n      byte\n      0xf8\n      shl\n        /* \"RPS.sol\":2952:2973  uint8(hashChoice[31]) */\n      0xf8\n      shr\n        /* \"RPS.sol\":2938:2973  uint choice = uint8(hashChoice[31]) */\n      0xff\n      and\n      swap1\n      pop\n        /* \"RPS.sol\":3002:3003  0 */\n      0x00\n        /* \"RPS.sol\":2992:2998  choice */\n      dup2\n        /* \"RPS.sol\":2992:3003  choice >= 0 */\n      lt\n      iszero\n        /* \"RPS.sol\":2992:3018  choice >= 0 && choice <= 4 */\n      dup1\n      iszero\n      tag_202\n      jumpi\n      pop\n        /* \"RPS.sol\":3017:3018  4 */\n      0x04\n        /* \"RPS.sol\":3007:3013  choice */\n      dup2\n        /* \"RPS.sol\":3007:3018  choice <= 4 */\n      gt\n      iszero\n        /* \"RPS.sol\":2992:3018  choice >= 0 && choice <= 4 */\n    tag_202:\n        /* \"RPS.sol\":2984:3061  require(choice >= 0 && choice <= 4, \"Your choice needs to be between 0 to 4\") */\n      tag_203\n      jumpi\n      mload(0x40)\n      0x08c379a000000000000000000000000000000000000000000000000000000000\n      dup2\n      mstore\n      0x04\n      add\n      tag_204\n      swap1\n      tag_205\n      jump\t// in\n    tag_204:\n      mload(0x40)\n      dup1\n      swap2\n      sub\n      swap1\n      revert\n    tag_203:\n        /* \"RPS.sol\":3080:3088  isCommit */\n      0x08\n        /* \"RPS.sol\":3080:3100  isCommit[msg.sender] */\n      0x00\n        /* \"RPS.sol\":3089:3099  msg.sender */\n      caller\n        /* \"RPS.sol\":3080:3100  isCommit[msg.sender] */\n      0xffffffffffffffffffffffffffffffffffffffff\n      and\n      0xffffffffffffffffffffffffffffffffffffffff\n      and\n      dup2\n      mstore\n      0x20\n      add\n      swap1\n      dup2\n      mstore\n      0x20\n      add\n      0x00\n      keccak256\n      0x00\n      swap1\n      sload\n      swap1\n      0x0100\n      exp\n      swap1\n      div\n      0xff\n      and\n        /* \"RPS.sol\":3072:3130  require(isCommit[msg.sender], \"You need to commit first.\") */\n      tag_206\n      jumpi\n      mload(0x40)\n      0x08c379a000000000000000000000000000000000000000000000000000000000\n      dup2\n      mstore\n      0x04\n      add\n      tag_207\n      swap1\n      tag_208\n      jump\t// in\n    tag_207:\n      mload(0x40)\n      dup1\n      swap2\n      sub\n      swap1\n      revert\n    tag_206:\n        /* \"RPS.sol\":3325:3343  reveal(hashChoice) */\n      tag_209\n        /* \"RPS.sol\":3332:3342  hashChoice */\n      dup3\n        /* \"RPS.sol\":3325:3331  reveal */\n      tag_210\n        /* \"RPS.sol\":3325:3343  reveal(hashChoice) */\n      jump\t// in\n    tag_209:\n        /* \"RPS.sol\":3384:3390  choice */\n      dup1\n        /* \"RPS.sol\":3356:3369  player_choice */\n      0x05\n        /* \"RPS.sol\":3356:3381  player_choice[msg.sender] */\n      0x00\n        /* \"RPS.sol\":3370:3380  msg.sender */\n      caller\n        /* \"RPS.sol\":3356:3381  player_choice[msg.sender] */\n      0xffffffffffffffffffffffffffffffffffffffff\n      and\n      0xffffffffffffffffffffffffffffffffffffffff\n      and\n      dup2\n      mstore\n      0x20\n      add\n      swap1\n      dup2\n      mstore\n      0x20\n      add\n      0x00\n      keccak256\n        /* \"RPS.sol\":3356:3390  player_choice[msg.sender] = choice */\n      dup2\n      swap1\n      sstore\n      pop\n        /* \"RPS.sol\":3403:3412  numReveal */\n      0x0a\n      0x00\n        /* \"RPS.sol\":3403:3414  numReveal++ */\n      dup2\n      sload\n      dup1\n      swap3\n      swap2\n      swap1\n      tag_211\n      swap1\n      tag_137\n      jump\t// in\n    tag_211:\n      swap2\n      swap1\n      pop\n      sstore\n      pop\n        /* \"RPS.sol\":3469:3483  setStartTime() */\n      tag_212\n        /* \"RPS.sol\":3469:3481  setStartTime */\n      tag_141\n        /* \"RPS.sol\":3469:3483  setStartTime() */\n      jump\t// in\n    tag_212:\n        /* \"RPS.sol\":3512:3513  2 */\n      0x02\n        /* \"RPS.sol\":3499:3508  numReveal */\n      sload(0x0a)\n        /* \"RPS.sol\":3499:3513  numReveal == 2 */\n      sub\n        /* \"RPS.sol\":3496:3584  if(numReveal == 2){... */\n      tag_213\n      jumpi\n        /* \"RPS.sol\":3529:3549  _checkWinnerAndPay() */\n      tag_214\n        /* \"RPS.sol\":3529:3547  _checkWinnerAndPay */\n      tag_215\n        /* \"RPS.sol\":3529:3549  _checkWinnerAndPay() */\n      jump\t// in\n    tag_214:\n        /* \"RPS.sol\":3564:3572  _reset() */\n      tag_216\n        /* \"RPS.sol\":3564:3570  _reset */\n      tag_161\n        /* \"RPS.sol\":3564:3572  _reset() */\n      jump\t// in\n    tag_216:\n        /* \"RPS.sol\":3496:3584  if(numReveal == 2){... */\n    tag_213:\n        /* \"RPS.sol\":2858:3591  {... */\n      pop\n        /* \"RPS.sol\":2809:3591  function revealChoice(bytes32 hashChoice) public {... */\n      pop\n      jump\t// out\n        /* \"CommitReveal.sol\":103:125  uint8 public max = 100 */\n    tag_68:\n      0x00\n      dup1\n      sload\n      swap1\n      0x0100\n      exp\n      swap1\n      div\n      0xff\n      and\n      dup2\n      jump\t// out\n        /* \"TimeUnit.sol\":307:331  uint256 public startTime */\n    tag_73:\n      sload(0x02)\n      dup2\n      jump\t// out\n        /* \"CommitReveal.sol\":218:260  mapping (address => Commit) public commits */\n    tag_78:\n      mstore(0x20, 0x01)\n      dup1\n      0x00\n      mstore\n      keccak256(0x00, 0x40)\n      0x00\n      swap2\n      pop\n      swap1\n      pop\n      dup1\n      0x00\n      add\n      sload\n      swap1\n      dup1\n      0x01\n      add\n      0x00\n      swap1\n      sload\n      swap1\n      0x0100\n      exp\n      swap1\n      div\n      0xffffffffffffffff\n      and\n      swap1\n      dup1\n      0x01\n      add\n      0x08\n      swap1\n      sload\n      swap1\n      0x0100\n      exp\n      swap1\n      div\n      0xff\n      and\n      swap1\n      pop\n      dup4\n      jump\t// out\n        /* \"RPS.sol\":615:655  uint public lastAction = block.timestamp */\n    tag_83:\n      sload(0x0c)\n      dup2\n      jump\t// out\n        /* \"RPS.sol\":180:205  uint public numPlayer = 0 */\n    tag_87:\n      sload(0x03)\n      dup2\n      jump\t// out\n        /* \"RPS.sol\":241:287  mapping (address => uint) public player_choice */\n    tag_92:\n      mstore(0x20, 0x05)\n      dup1\n      0x00\n      mstore\n      keccak256(0x00, 0x40)\n      0x00\n      swap2\n      pop\n      swap1\n      pop\n      sload\n      dup2\n      jump\t// out\n        /* \"TimeUnit.sol\":578:685  function elapsedSeconds() public view returns (uint256) { ... */\n    tag_96:\n        /* \"TimeUnit.sol\":625:632  uint256 */\n      0x00\n        /* \"TimeUnit.sol\":668:677  startTime */\n      sload(0x02)\n        /* \"TimeUnit.sol\":650:665  block.timestamp */\n      timestamp\n        /* \"TimeUnit.sol\":650:677  block.timestamp - startTime */\n      tag_218\n      swap2\n      swap1\n      tag_219\n      jump\t// in\n    tag_218:\n        /* \"TimeUnit.sol\":642:678  return (block.timestamp - startTime) */\n      swap1\n      pop\n        /* \"TimeUnit.sol\":578:685  function elapsedSeconds() public view returns (uint256) { ... */\n      swap1\n      jump\t// out\n        /* \"RPS.sol\":537:562  uint public numReveal = 0 */\n    tag_100:\n      sload(0x0a)\n      dup2\n      jump\t// out\n        /* \"RPS.sol\":2206:2737  function input(bytes32 hashAns) public  {... */\n    tag_105:\n        /* \"RPS.sol\":2278:2279  2 */\n      0x02\n        /* \"RPS.sol\":2265:2274  numPlayer */\n      sload(0x03)\n        /* \"RPS.sol\":2265:2279  numPlayer == 2 */\n      eq\n        /* \"RPS.sol\":2257:2305  require(numPlayer == 2, \"Game needs 2 players.\") */\n      tag_221\n      jumpi\n      mload(0x40)\n      0x08c379a000000000000000000000000000000000000000000000000000000000\n      dup2\n      mstore\n      0x04\n      add\n      tag_222\n      swap1\n      tag_223\n      jump\t// in\n    tag_222:\n      mload(0x40)\n      dup1\n      swap2\n      sub\n      swap1\n      revert\n    tag_221:\n        /* \"RPS.sol\":2335:2336  2 */\n      0x02\n        /* \"RPS.sol\":2324:2332  numInput */\n      sload(0x09)\n        /* \"RPS.sol\":2324:2336  numInput < 2 */\n      lt\n        /* \"RPS.sol\":2316:2337  require(numInput < 2) */\n      tag_224\n      jumpi\n      0x00\n      dup1\n      revert\n    tag_224:\n        /* \"RPS.sol\":2356:2373  player_not_played */\n      0x06\n        /* \"RPS.sol\":2356:2385  player_not_played[msg.sender] */\n      0x00\n        /* \"RPS.sol\":2374:2384  msg.sender */\n      caller\n        /* \"RPS.sol\":2356:2385  player_not_played[msg.sender] */\n      0xffffffffffffffffffffffffffffffffffffffff\n      and\n      0xffffffffffffffffffffffffffffffffffffffff\n      and\n      dup2\n      mstore\n      0x20\n      add\n      swap1\n      dup2\n      mstore\n      0x20\n      add\n      0x00\n      keccak256\n      0x00\n      swap1\n      sload\n      swap1\n      0x0100\n      exp\n      swap1\n      div\n      0xff\n      and\n        /* \"RPS.sol\":2348:2386  require(player_not_played[msg.sender]) */\n      tag_225\n      jumpi\n      0x00\n      dup1\n      revert\n    tag_225:\n        /* \"RPS.sol\":2429:2434  false */\n      0x00\n        /* \"RPS.sol\":2405:2434  isCommit[msg.sender] == false */\n      iszero\n      iszero\n        /* \"RPS.sol\":2405:2413  isCommit */\n      0x08\n        /* \"RPS.sol\":2405:2425  isCommit[msg.sender] */\n      0x00\n        /* \"RPS.sol\":2414:2424  msg.sender */\n      caller\n        /* \"RPS.sol\":2405:2425  isCommit[msg.sender] */\n      0xffffffffffffffffffffffffffffffffffffffff\n      and\n      0xffffffffffffffffffffffffffffffffffffffff\n      and\n      dup2\n      mstore\n      0x20\n      add\n      swap1\n      dup2\n      mstore\n      0x20\n      add\n      0x00\n      keccak256\n      0x00\n      swap1\n      sload\n      swap1\n      0x0100\n      exp\n      swap1\n      div\n      0xff\n      and\n        /* \"RPS.sol\":2405:2434  isCommit[msg.sender] == false */\n      iszero\n      iszero\n      eq\n        /* \"RPS.sol\":2397:2460  require(isCommit[msg.sender] == false, \"You already commited.\") */\n      tag_226\n      jumpi\n      mload(0x40)\n      0x08c379a000000000000000000000000000000000000000000000000000000000\n      dup2\n      mstore\n      0x04\n      add\n      tag_227\n      swap1\n      tag_228\n      jump\t// in\n    tag_227:\n      mload(0x40)\n      dup1\n      swap2\n      sub\n      swap1\n      revert\n    tag_226:\n        /* \"RPS.sol\":2513:2518  false */\n      0x00\n        /* \"RPS.sol\":2481:2498  player_not_played */\n      0x06\n        /* \"RPS.sol\":2481:2510  player_not_played[msg.sender] */\n      0x00\n        /* \"RPS.sol\":2499:2509  msg.sender */\n      caller\n        /* \"RPS.sol\":2481:2510  player_not_played[msg.sender] */\n      0xffffffffffffffffffffffffffffffffffffffff\n      and\n      0xffffffffffffffffffffffffffffffffffffffff\n      and\n      dup2\n      mstore\n      0x20\n      add\n      swap1\n      dup2\n      mstore\n      0x20\n      add\n      0x00\n      keccak256\n      0x00\n        /* \"RPS.sol\":2481:2518  player_not_played[msg.sender] = false */\n      0x0100\n      exp\n      dup2\n      sload\n      dup2\n      0xff\n      mul\n      not\n      and\n      swap1\n      dup4\n      iszero\n      iszero\n      mul\n      or\n      swap1\n      sstore\n      pop\n        /* \"RPS.sol\":2552:2556  true */\n      0x01\n        /* \"RPS.sol\":2529:2537  isCommit */\n      0x08\n        /* \"RPS.sol\":2529:2549  isCommit[msg.sender] */\n      0x00\n        /* \"RPS.sol\":2538:2548  msg.sender */\n      caller\n        /* \"RPS.sol\":2529:2549  isCommit[msg.sender] */\n      0xffffffffffffffffffffffffffffffffffffffff\n      and\n      0xffffffffffffffffffffffffffffffffffffffff\n      and\n      dup2\n      mstore\n      0x20\n      add\n      swap1\n      dup2\n      mstore\n      0x20\n      add\n      0x00\n      keccak256\n      0x00\n        /* \"RPS.sol\":2529:2556  isCommit[msg.sender] = true */\n      0x0100\n      exp\n      dup2\n      sload\n      dup2\n      0xff\n      mul\n      not\n      and\n      swap1\n      dup4\n      iszero\n      iszero\n      mul\n      or\n      swap1\n      sstore\n      pop\n        /* \"RPS.sol\":2567:2582  commit(hashAns) */\n      tag_229\n        /* \"RPS.sol\":2574:2581  hashAns */\n      dup2\n        /* \"RPS.sol\":2567:2573  commit */\n      tag_230\n        /* \"RPS.sol\":2567:2582  commit(hashAns) */\n      jump\t// in\n    tag_229:\n        /* \"RPS.sol\":2595:2603  numInput */\n      0x09\n      0x00\n        /* \"RPS.sol\":2595:2605  numInput++ */\n      dup2\n      sload\n      dup1\n      swap3\n      swap2\n      swap1\n      tag_231\n      swap1\n      tag_137\n      jump\t// in\n    tag_231:\n      swap2\n      swap1\n      pop\n      sstore\n      pop\n        /* \"RPS.sol\":2621:2660  playerCommitHashed(msg.sender,numInput) */\n      0x3928cc5abcbb1c0b781bebbc4f1e9b156f6d392796c791cc0937db5e42677ff7\n        /* \"RPS.sol\":2640:2650  msg.sender */\n      caller\n        /* \"RPS.sol\":2651:2659  numInput */\n      sload(0x09)\n        /* \"RPS.sol\":2621:2660  playerCommitHashed(msg.sender,numInput) */\n      mload(0x40)\n      tag_232\n      swap3\n      swap2\n      swap1\n      tag_139\n      jump\t// in\n    tag_232:\n      mload(0x40)\n      dup1\n      swap2\n      sub\n      swap1\n      log1\n        /* \"RPS.sol\":2715:2729  setStartTime() */\n      tag_233\n        /* \"RPS.sol\":2715:2727  setStartTime */\n      tag_141\n        /* \"RPS.sol\":2715:2729  setStartTime() */\n      jump\t// in\n    tag_233:\n        /* \"RPS.sol\":2206:2737  function input(bytes32 hashAns) public  {... */\n      pop\n      jump\t// out\n        /* \"TimeUnit.sol\":801:1084  function elapsedMinutes() public view returns (uint256) { ... */\n    tag_108:\n        /* \"TimeUnit.sol\":848:855  uint256 */\n      0x00\n        /* \"TimeUnit.sol\":1068:1077  1 minutes */\n      0x3c\n        /* \"TimeUnit.sol\":1055:1064  startTime */\n      sload(0x02)\n        /* \"TimeUnit.sol\":1037:1052  block.timestamp */\n      timestamp\n        /* \"TimeUnit.sol\":1037:1064  block.timestamp - startTime */\n      tag_235\n      swap2\n      swap1\n      tag_219\n      jump\t// in\n    tag_235:\n        /* \"TimeUnit.sol\":1036:1077  (block.timestamp - startTime) / 1 minutes */\n      tag_236\n      swap2\n      swap1\n      tag_171\n      jump\t// in\n    tag_236:\n        /* \"TimeUnit.sol\":1029:1077  return (block.timestamp - startTime) / 1 minutes */\n      swap1\n      pop\n        /* \"TimeUnit.sol\":801:1084  function elapsedMinutes() public view returns (uint256) { ... */\n      swap1\n      jump\t// out\n        /* \"RPS.sol\":425:449  address[] public players */\n    tag_114:\n      0x07\n      dup2\n      dup2\n      sload\n      dup2\n      lt\n      tag_237\n      jumpi\n      0x00\n      dup1\n      revert\n    tag_237:\n      swap1\n      0x00\n      mstore\n      keccak256(0x00, 0x20)\n      add\n      0x00\n      swap2\n      pop\n      sload\n      swap1\n      0x0100\n      exp\n      swap1\n      div\n      0xffffffffffffffffffffffffffffffffffffffff\n      and\n      dup2\n      jump\t// out\n        /* \"TimeUnit.sol\":379:454  function setStartTime() internal { ... */\n    tag_141:\n        /* \"TimeUnit.sol\":432:447  block.timestamp */\n      timestamp\n        /* \"TimeUnit.sol\":420:429  startTime */\n      0x02\n        /* \"TimeUnit.sol\":420:447  startTime = block.timestamp */\n      dup2\n      swap1\n      sstore\n      pop\n        /* \"TimeUnit.sol\":379:454  function setStartTime() internal { ... */\n      jump\t// out\n        /* \"RPS.sol\":4284:4437  function _reset() private {... */\n    tag_161:\n        /* \"RPS.sol\":4328:4335  players */\n      0x07\n      0x00\n        /* \"RPS.sol\":4321:4335  delete players */\n      tag_241\n      swap2\n      swap1\n      tag_242\n      jump\t// in\n    tag_241:\n        /* \"RPS.sol\":4360:4361  0 */\n      0x00\n        /* \"RPS.sol\":4348:4357  numPlayer */\n      0x03\n        /* \"RPS.sol\":4348:4361  numPlayer = 0 */\n      dup2\n      swap1\n      sstore\n      pop\n        /* \"RPS.sol\":4383:4384  0 */\n      0x00\n        /* \"RPS.sol\":4372:4380  numInput */\n      0x09\n        /* \"RPS.sol\":4372:4384  numInput = 0 */\n      dup2\n      swap1\n      sstore\n      pop\n        /* \"RPS.sol\":4407:4408  0 */\n      0x00\n        /* \"RPS.sol\":4395:4404  numReveal */\n      0x0a\n        /* \"RPS.sol\":4395:4408  numReveal = 0 */\n      dup2\n      swap1\n      sstore\n      pop\n        /* \"RPS.sol\":4428:4429  0 */\n      0x00\n        /* \"RPS.sol\":4419:4425  reward */\n      0x04\n        /* \"RPS.sol\":4419:4429  reward = 0 */\n      dup2\n      swap1\n      sstore\n      pop\n        /* \"RPS.sol\":4284:4437  function _reset() private {... */\n      jump\t// out\n        /* \"CommitReveal.sol\":620:1786  function reveal(bytes32 revealHash) internal {... */\n    tag_210:\n        /* \"CommitReveal.sol\":778:783  false */\n      0x00\n        /* \"CommitReveal.sol\":748:783  commits[msg.sender].revealed==false */\n      iszero\n      iszero\n        /* \"CommitReveal.sol\":748:755  commits */\n      0x01\n        /* \"CommitReveal.sol\":748:767  commits[msg.sender] */\n      0x00\n        /* \"CommitReveal.sol\":756:766  msg.sender */\n      caller\n        /* \"CommitReveal.sol\":748:767  commits[msg.sender] */\n      0xffffffffffffffffffffffffffffffffffffffff\n      and\n      0xffffffffffffffffffffffffffffffffffffffff\n      and\n      dup2\n      mstore\n      0x20\n      add\n      swap1\n      dup2\n      mstore\n      0x20\n      add\n      0x00\n      keccak256\n        /* \"CommitReveal.sol\":748:776  commits[msg.sender].revealed */\n      0x01\n      add\n      0x08\n      swap1\n      sload\n      swap1\n      0x0100\n      exp\n      swap1\n      div\n      0xff\n      and\n        /* \"CommitReveal.sol\":748:783  commits[msg.sender].revealed==false */\n      iszero\n      iszero\n      eq\n        /* \"CommitReveal.sol\":740:825  require(commits[msg.sender].revealed==false,\"CommitReveal::reveal: Already revealed\") */\n      tag_244\n      jumpi\n      mload(0x40)\n      0x08c379a000000000000000000000000000000000000000000000000000000000\n      dup2\n      mstore\n      0x04\n      add\n      tag_245\n      swap1\n      tag_246\n      jump\t// in\n    tag_245:\n      mload(0x40)\n      dup1\n      swap2\n      sub\n      swap1\n      revert\n    tag_244:\n        /* \"CommitReveal.sol\":861:865  true */\n      0x01\n        /* \"CommitReveal.sol\":832:839  commits */\n      dup1\n        /* \"CommitReveal.sol\":832:851  commits[msg.sender] */\n      0x00\n        /* \"CommitReveal.sol\":840:850  msg.sender */\n      caller\n        /* \"CommitReveal.sol\":832:851  commits[msg.sender] */\n      0xffffffffffffffffffffffffffffffffffffffff\n      and\n      0xffffffffffffffffffffffffffffffffffffffff\n      and\n      dup2\n      mstore\n      0x20\n      add\n      swap1\n      dup2\n      mstore\n      0x20\n      add\n      0x00\n      keccak256\n        /* \"CommitReveal.sol\":832:860  commits[msg.sender].revealed */\n      0x01\n      add\n      0x08\n        /* \"CommitReveal.sol\":832:865  commits[msg.sender].revealed=true */\n      0x0100\n      exp\n      dup2\n      sload\n      dup2\n      0xff\n      mul\n      not\n      and\n      swap1\n      dup4\n      iszero\n      iszero\n      mul\n      or\n      swap1\n      sstore\n      pop\n        /* \"CommitReveal.sol\":957:964  commits */\n      0x01\n        /* \"CommitReveal.sol\":957:976  commits[msg.sender] */\n      0x00\n        /* \"CommitReveal.sol\":965:975  msg.sender */\n      caller\n        /* \"CommitReveal.sol\":957:976  commits[msg.sender] */\n      0xffffffffffffffffffffffffffffffffffffffff\n      and\n      0xffffffffffffffffffffffffffffffffffffffff\n      and\n      dup2\n      mstore\n      0x20\n      add\n      swap1\n      dup2\n      mstore\n      0x20\n      add\n      0x00\n      keccak256\n        /* \"CommitReveal.sol\":957:983  commits[msg.sender].commit */\n      0x00\n      add\n      sload\n        /* \"CommitReveal.sol\":936:955  getHash(revealHash) */\n      tag_247\n        /* \"CommitReveal.sol\":944:954  revealHash */\n      dup3\n        /* \"CommitReveal.sol\":936:943  getHash */\n      tag_47\n        /* \"CommitReveal.sol\":936:955  getHash(revealHash) */\n      jump\t// in\n    tag_247:\n        /* \"CommitReveal.sol\":936:983  getHash(revealHash)==commits[msg.sender].commit */\n      eq\n        /* \"CommitReveal.sol\":928:1044  require(getHash(revealHash)==commits[msg.sender].commit,\"CommitReveal::reveal: Revealed hash does not match commit\") */\n      tag_248\n      jumpi\n      mload(0x40)\n      0x08c379a000000000000000000000000000000000000000000000000000000000\n      dup2\n      mstore\n      0x04\n      add\n      tag_249\n      swap1\n      tag_250\n      jump\t// in\n    tag_249:\n      mload(0x40)\n      dup1\n      swap2\n      sub\n      swap1\n      revert\n    tag_248:\n        /* \"CommitReveal.sol\":1152:1159  commits */\n      0x01\n        /* \"CommitReveal.sol\":1152:1171  commits[msg.sender] */\n      0x00\n        /* \"CommitReveal.sol\":1160:1170  msg.sender */\n      caller\n        /* \"CommitReveal.sol\":1152:1171  commits[msg.sender] */\n      0xffffffffffffffffffffffffffffffffffffffff\n      and\n      0xffffffffffffffffffffffffffffffffffffffff\n      and\n      dup2\n      mstore\n      0x20\n      add\n      swap1\n      dup2\n      mstore\n      0x20\n      add\n      0x00\n      keccak256\n        /* \"CommitReveal.sol\":1152:1177  commits[msg.sender].block */\n      0x01\n      add\n      0x00\n      swap1\n      sload\n      swap1\n      0x0100\n      exp\n      swap1\n      div\n      0xffffffffffffffff\n      and\n        /* \"CommitReveal.sol\":1131:1177  uint64(block.number)>commits[msg.sender].block */\n      0xffffffffffffffff\n      and\n        /* \"CommitReveal.sol\":1138:1150  block.number */\n      number\n        /* \"CommitReveal.sol\":1131:1177  uint64(block.number)>commits[msg.sender].block */\n      0xffffffffffffffff\n      and\n      gt\n        /* \"CommitReveal.sol\":1123:1247  require(uint64(block.number)>commits[msg.sender].block,\"CommitReveal::reveal: Reveal and commit happened on the same block\") */\n      tag_251\n      jumpi\n      mload(0x40)\n      0x08c379a000000000000000000000000000000000000000000000000000000000\n      dup2\n      mstore\n      0x04\n      add\n      tag_252\n      swap1\n      tag_253\n      jump\t// in\n    tag_252:\n      mload(0x40)\n      dup1\n      swap2\n      sub\n      swap1\n      revert\n    tag_251:\n        /* \"CommitReveal.sol\":1366:1369  250 */\n      0xfa\n        /* \"CommitReveal.sol\":1340:1347  commits */\n      0x01\n        /* \"CommitReveal.sol\":1340:1359  commits[msg.sender] */\n      0x00\n        /* \"CommitReveal.sol\":1348:1358  msg.sender */\n      caller\n        /* \"CommitReveal.sol\":1340:1359  commits[msg.sender] */\n      0xffffffffffffffffffffffffffffffffffffffff\n      and\n      0xffffffffffffffffffffffffffffffffffffffff\n      and\n      dup2\n      mstore\n      0x20\n      add\n      swap1\n      dup2\n      mstore\n      0x20\n      add\n      0x00\n      keccak256\n        /* \"CommitReveal.sol\":1340:1365  commits[msg.sender].block */\n      0x01\n      add\n      0x00\n      swap1\n      sload\n      swap1\n      0x0100\n      exp\n      swap1\n      div\n      0xffffffffffffffff\n      and\n        /* \"CommitReveal.sol\":1340:1369  commits[msg.sender].block+250 */\n      tag_254\n      swap2\n      swap1\n      tag_255\n      jump\t// in\n    tag_254:\n        /* \"CommitReveal.sol\":1318:1369  uint64(block.number)<=commits[msg.sender].block+250 */\n      0xffffffffffffffff\n      and\n        /* \"CommitReveal.sol\":1325:1337  block.number */\n      number\n        /* \"CommitReveal.sol\":1318:1369  uint64(block.number)<=commits[msg.sender].block+250 */\n      0xffffffffffffffff\n      and\n      gt\n      iszero\n        /* \"CommitReveal.sol\":1310:1412  require(uint64(block.number)<=commits[msg.sender].block+250,\"CommitReveal::reveal: Revealed too late\") */\n      tag_256\n      jumpi\n      mload(0x40)\n      0x08c379a000000000000000000000000000000000000000000000000000000000\n      dup2\n      mstore\n      0x04\n      add\n      tag_257\n      swap1\n      tag_258\n      jump\t// in\n    tag_257:\n      mload(0x40)\n      dup1\n      swap2\n      sub\n      swap1\n      revert\n    tag_256:\n        /* \"CommitReveal.sol\":1487:1504  bytes32 blockHash */\n      0x00\n        /* \"CommitReveal.sol\":1517:1524  commits */\n      0x01\n        /* \"CommitReveal.sol\":1517:1536  commits[msg.sender] */\n      0x00\n        /* \"CommitReveal.sol\":1525:1535  msg.sender */\n      caller\n        /* \"CommitReveal.sol\":1517:1536  commits[msg.sender] */\n      0xffffffffffffffffffffffffffffffffffffffff\n      and\n      0xffffffffffffffffffffffffffffffffffffffff\n      and\n      dup2\n      mstore\n      0x20\n      add\n      swap1\n      dup2\n      mstore\n      0x20\n      add\n      0x00\n      keccak256\n        /* \"CommitReveal.sol\":1517:1542  commits[msg.sender].block */\n      0x01\n      add\n      0x00\n      swap1\n      sload\n      swap1\n      0x0100\n      exp\n      swap1\n      div\n      0xffffffffffffffff\n      and\n        /* \"CommitReveal.sol\":1507:1543  blockhash(commits[msg.sender].block) */\n      0xffffffffffffffff\n      and\n      blockhash\n        /* \"CommitReveal.sol\":1487:1543  bytes32 blockHash = blockhash(commits[msg.sender].block) */\n      swap1\n      pop\n        /* \"CommitReveal.sol\":1655:1666  uint random */\n      0x00\n        /* \"CommitReveal.sol\":1725:1728  max */\n      dup1\n      0x00\n      swap1\n      sload\n      swap1\n      0x0100\n      exp\n      swap1\n      div\n      0xff\n      and\n        /* \"CommitReveal.sol\":1669:1728  uint(keccak256(abi.encodePacked(blockHash,revealHash)))%max */\n      0xff\n      and\n        /* \"CommitReveal.sol\":1701:1710  blockHash */\n      dup3\n        /* \"CommitReveal.sol\":1711:1721  revealHash */\n      dup5\n        /* \"CommitReveal.sol\":1684:1722  abi.encodePacked(blockHash,revealHash) */\n      add(0x20, mload(0x40))\n      tag_259\n      swap3\n      swap2\n      swap1\n      tag_260\n      jump\t// in\n    tag_259:\n      mload(0x40)\n      0x20\n      dup2\n      dup4\n      sub\n      sub\n      dup2\n      mstore\n      swap1\n      0x40\n      mstore\n        /* \"CommitReveal.sol\":1674:1723  keccak256(abi.encodePacked(blockHash,revealHash)) */\n      dup1\n      mload\n      swap1\n      0x20\n      add\n      keccak256\n        /* \"CommitReveal.sol\":1669:1724  uint(keccak256(abi.encodePacked(blockHash,revealHash))) */\n      0x00\n      shr\n        /* \"CommitReveal.sol\":1669:1728  uint(keccak256(abi.encodePacked(blockHash,revealHash)))%max */\n      tag_261\n      swap2\n      swap1\n      tag_262\n      jump\t// in\n    tag_261:\n        /* \"CommitReveal.sol\":1655:1728  uint random = uint(keccak256(abi.encodePacked(blockHash,revealHash)))%max */\n      swap1\n      pop\n        /* \"CommitReveal.sol\":1740:1780  RevealHash(msg.sender,revealHash,random) */\n      0xbc016dd1cadeaefcb851af7a0a93532e0023d536894b730801f7bcfe7065bcc2\n        /* \"CommitReveal.sol\":1751:1761  msg.sender */\n      caller\n        /* \"CommitReveal.sol\":1762:1772  revealHash */\n      dup5\n        /* \"CommitReveal.sol\":1773:1779  random */\n      dup4\n        /* \"CommitReveal.sol\":1740:1780  RevealHash(msg.sender,revealHash,random) */\n      mload(0x40)\n      tag_263\n      swap4\n      swap3\n      swap2\n      swap1\n      tag_264\n      jump\t// in\n    tag_263:\n      mload(0x40)\n      dup1\n      swap2\n      sub\n      swap1\n      log1\n        /* \"CommitReveal.sol\":665:1786  {... */\n      pop\n      pop\n        /* \"CommitReveal.sol\":620:1786  function reveal(bytes32 revealHash) internal {... */\n      pop\n      jump\t// out\n        /* \"RPS.sol\":3601:4276  function _checkWinnerAndPay() private {... */\n    tag_215:\n        /* \"RPS.sol\":3650:3663  uint p0Choice */\n      0x00\n        /* \"RPS.sol\":3666:3679  player_choice */\n      0x05\n        /* \"RPS.sol\":3666:3691  player_choice[players[0]] */\n      0x00\n        /* \"RPS.sol\":3680:3687  players */\n      0x07\n        /* \"RPS.sol\":3688:3689  0 */\n      0x00\n        /* \"RPS.sol\":3680:3690  players[0] */\n      dup2\n      sload\n      dup2\n      lt\n      tag_266\n      jumpi\n      tag_267\n      tag_127\n      jump\t// in\n    tag_267:\n    tag_266:\n      swap1\n      0x00\n      mstore\n      keccak256(0x00, 0x20)\n      add\n      0x00\n      swap1\n      sload\n      swap1\n      0x0100\n      exp\n      swap1\n      div\n      0xffffffffffffffffffffffffffffffffffffffff\n      and\n        /* \"RPS.sol\":3666:3691  player_choice[players[0]] */\n      0xffffffffffffffffffffffffffffffffffffffff\n      and\n      0xffffffffffffffffffffffffffffffffffffffff\n      and\n      dup2\n      mstore\n      0x20\n      add\n      swap1\n      dup2\n      mstore\n      0x20\n      add\n      0x00\n      keccak256\n      sload\n        /* \"RPS.sol\":3650:3691  uint p0Choice = player_choice[players[0]] */\n      swap1\n      pop\n        /* \"RPS.sol\":3702:3715  uint p1Choice */\n      0x00\n        /* \"RPS.sol\":3718:3731  player_choice */\n      0x05\n        /* \"RPS.sol\":3718:3743  player_choice[players[1]] */\n      0x00\n        /* \"RPS.sol\":3732:3739  players */\n      0x07\n        /* \"RPS.sol\":3740:3741  1 */\n      0x01\n        /* \"RPS.sol\":3732:3742  players[1] */\n      dup2\n      sload\n      dup2\n      lt\n      tag_269\n      jumpi\n      tag_270\n      tag_127\n      jump\t// in\n    tag_270:\n    tag_269:\n      swap1\n      0x00\n      mstore\n      keccak256(0x00, 0x20)\n      add\n      0x00\n      swap1\n      sload\n      swap1\n      0x0100\n      exp\n      swap1\n      div\n      0xffffffffffffffffffffffffffffffffffffffff\n      and\n        /* \"RPS.sol\":3718:3743  player_choice[players[1]] */\n      0xffffffffffffffffffffffffffffffffffffffff\n      and\n      0xffffffffffffffffffffffffffffffffffffffff\n      and\n      dup2\n      mstore\n      0x20\n      add\n      swap1\n      dup2\n      mstore\n      0x20\n      add\n      0x00\n      keccak256\n      sload\n        /* \"RPS.sol\":3702:3743  uint p1Choice = player_choice[players[1]] */\n      swap1\n      pop\n        /* \"RPS.sol\":3754:3778  address payable account0 */\n      0x00\n        /* \"RPS.sol\":3789:3796  players */\n      0x07\n        /* \"RPS.sol\":3797:3798  0 */\n      0x00\n        /* \"RPS.sol\":3789:3799  players[0] */\n      dup2\n      sload\n      dup2\n      lt\n      tag_272\n      jumpi\n      tag_273\n      tag_127\n      jump\t// in\n    tag_273:\n    tag_272:\n      swap1\n      0x00\n      mstore\n      keccak256(0x00, 0x20)\n      add\n      0x00\n      swap1\n      sload\n      swap1\n      0x0100\n      exp\n      swap1\n      div\n      0xffffffffffffffffffffffffffffffffffffffff\n      and\n        /* \"RPS.sol\":3754:3800  address payable account0 = payable(players[0]) */\n      swap1\n      pop\n        /* \"RPS.sol\":3811:3835  address payable account1 */\n      0x00\n        /* \"RPS.sol\":3846:3853  players */\n      0x07\n        /* \"RPS.sol\":3854:3855  1 */\n      0x01\n        /* \"RPS.sol\":3846:3856  players[1] */\n      dup2\n      sload\n      dup2\n      lt\n      tag_275\n      jumpi\n      tag_276\n      tag_127\n      jump\t// in\n    tag_276:\n    tag_275:\n      swap1\n      0x00\n      mstore\n      keccak256(0x00, 0x20)\n      add\n      0x00\n      swap1\n      sload\n      swap1\n      0x0100\n      exp\n      swap1\n      div\n      0xffffffffffffffffffffffffffffffffffffffff\n      and\n        /* \"RPS.sol\":3811:3857  address payable account1 = payable(players[1]) */\n      swap1\n      pop\n        /* \"RPS.sol\":3884:3892  p1Choice */\n      dup3\n        /* \"RPS.sol\":3872:3880  p0Choice */\n      dup5\n        /* \"RPS.sol\":3872:3892  p0Choice == p1Choice */\n      sub\n        /* \"RPS.sol\":3868:4269  if (p0Choice == p1Choice) {... */\n      tag_278\n      jumpi\n        /* \"RPS.sol\":3909:3917  account0 */\n      dup2\n        /* \"RPS.sol\":3909:3926  account0.transfer */\n      0xffffffffffffffffffffffffffffffffffffffff\n      and\n        /* \"RPS.sol\":3909:3938  account0.transfer(reward / 2) */\n      0x08fc\n        /* \"RPS.sol\":3936:3937  2 */\n      0x02\n        /* \"RPS.sol\":3927:3933  reward */\n      sload(0x04)\n        /* \"RPS.sol\":3927:3937  reward / 2 */\n      tag_279\n      swap2\n      swap1\n      tag_171\n      jump\t// in\n    tag_279:\n        /* \"RPS.sol\":3909:3938  account0.transfer(reward / 2) */\n      swap1\n      dup2\n      iszero\n      mul\n      swap1\n      mload(0x40)\n      0x00\n      mload(0x40)\n      dup1\n      dup4\n      sub\n      dup2\n      dup6\n      dup9\n      dup9\n      call\n      swap4\n      pop\n      pop\n      pop\n      pop\n      iszero\n      dup1\n      iszero\n      tag_281\n      jumpi\n      returndatasize\n      0x00\n      dup1\n      returndatacopy\n      revert(0x00, returndatasize)\n    tag_281:\n      pop\n        /* \"RPS.sol\":3953:3961  account1 */\n      dup1\n        /* \"RPS.sol\":3953:3970  account1.transfer */\n      0xffffffffffffffffffffffffffffffffffffffff\n      and\n        /* \"RPS.sol\":3953:3982  account1.transfer(reward / 2) */\n      0x08fc\n        /* \"RPS.sol\":3980:3981  2 */\n      0x02\n        /* \"RPS.sol\":3971:3977  reward */\n      sload(0x04)\n        /* \"RPS.sol\":3971:3981  reward / 2 */\n      tag_282\n      swap2\n      swap1\n      tag_171\n      jump\t// in\n    tag_282:\n        /* \"RPS.sol\":3953:3982  account1.transfer(reward / 2) */\n      swap1\n      dup2\n      iszero\n      mul\n      swap1\n      mload(0x40)\n      0x00\n      mload(0x40)\n      dup1\n      dup4\n      sub\n      dup2\n      dup6\n      dup9\n      dup9\n      call\n      swap4\n      pop\n      pop\n      pop\n      pop\n      iszero\n      dup1\n      iszero\n      tag_284\n      jumpi\n      returndatasize\n      0x00\n      dup1\n      returndatacopy\n      revert(0x00, returndatasize)\n    tag_284:\n      pop\n        /* \"RPS.sol\":3868:4269  if (p0Choice == p1Choice) {... */\n      jump(tag_285)\n    tag_278:\n        /* \"RPS.sol\":4036:4044  p1Choice */\n      dup3\n        /* \"RPS.sol\":4031:4032  5 */\n      0x05\n        /* \"RPS.sol\":4026:4027  1 */\n      0x01\n        /* \"RPS.sol\":4015:4023  p0Choice */\n      dup7\n        /* \"RPS.sol\":4015:4027  p0Choice + 1 */\n      tag_286\n      swap2\n      swap1\n      tag_134\n      jump\t// in\n    tag_286:\n        /* \"RPS.sol\":4014:4032  (p0Choice + 1) % 5 */\n      tag_287\n      swap2\n      swap1\n      tag_262\n      jump\t// in\n    tag_287:\n        /* \"RPS.sol\":4014:4044  (p0Choice + 1) % 5 == p1Choice */\n      eq\n        /* \"RPS.sol\":4014:4078  (p0Choice + 1) % 5 == p1Choice || (p0Choice + 3) % 5 == p1Choice */\n      dup1\n      tag_288\n      jumpi\n      pop\n        /* \"RPS.sol\":4070:4078  p1Choice */\n      dup3\n        /* \"RPS.sol\":4065:4066  5 */\n      0x05\n        /* \"RPS.sol\":4060:4061  3 */\n      0x03\n        /* \"RPS.sol\":4049:4057  p0Choice */\n      dup7\n        /* \"RPS.sol\":4049:4061  p0Choice + 3 */\n      tag_289\n      swap2\n      swap1\n      tag_134\n      jump\t// in\n    tag_289:\n        /* \"RPS.sol\":4048:4066  (p0Choice + 3) % 5 */\n      tag_290\n      swap2\n      swap1\n      tag_262\n      jump\t// in\n    tag_290:\n        /* \"RPS.sol\":4048:4078  (p0Choice + 3) % 5 == p1Choice */\n      eq\n        /* \"RPS.sol\":4014:4078  (p0Choice + 1) % 5 == p1Choice || (p0Choice + 3) % 5 == p1Choice */\n    tag_288:\n        /* \"RPS.sol\":4010:4269  if ((p0Choice + 1) % 5 == p1Choice || (p0Choice + 3) % 5 == p1Choice) {... */\n      iszero\n      tag_291\n      jumpi\n        /* \"RPS.sol\":4128:4136  account1 */\n      dup1\n        /* \"RPS.sol\":4128:4145  account1.transfer */\n      0xffffffffffffffffffffffffffffffffffffffff\n      and\n        /* \"RPS.sol\":4128:4153  account1.transfer(reward) */\n      0x08fc\n        /* \"RPS.sol\":4146:4152  reward */\n      sload(0x04)\n        /* \"RPS.sol\":4128:4153  account1.transfer(reward) */\n      swap1\n      dup2\n      iszero\n      mul\n      swap1\n      mload(0x40)\n      0x00\n      mload(0x40)\n      dup1\n      dup4\n      sub\n      dup2\n      dup6\n      dup9\n      dup9\n      call\n      swap4\n      pop\n      pop\n      pop\n      pop\n      iszero\n      dup1\n      iszero\n      tag_293\n      jumpi\n      returndatasize\n      0x00\n      dup1\n      returndatacopy\n      revert(0x00, returndatasize)\n    tag_293:\n      pop\n        /* \"RPS.sol\":4010:4269  if ((p0Choice + 1) % 5 == p1Choice || (p0Choice + 3) % 5 == p1Choice) {... */\n      jump(tag_294)\n    tag_291:\n        /* \"RPS.sol\":4228:4236  account0 */\n      dup2\n        /* \"RPS.sol\":4228:4245  account0.transfer */\n      0xffffffffffffffffffffffffffffffffffffffff\n      and\n        /* \"RPS.sol\":4228:4253  account0.transfer(reward) */\n      0x08fc\n        /* \"RPS.sol\":4246:4252  reward */\n      sload(0x04)\n        /* \"RPS.sol\":4228:4253  account0.transfer(reward) */\n      swap1\n      dup2\n      iszero\n      mul\n      swap1\n      mload(0x40)\n      0x00\n      mload(0x40)\n      dup1\n      dup4\n      sub\n      dup2\n      dup6\n      dup9\n      dup9\n      call\n      swap4\n      pop\n      pop\n      pop\n      pop\n      iszero\n      dup1\n      iszero\n      tag_296\n      jumpi\n      returndatasize\n      0x00\n      dup1\n      returndatacopy\n      revert(0x00, returndatasize)\n    tag_296:\n      pop\n        /* \"RPS.sol\":4010:4269  if ((p0Choice + 1) % 5 == p1Choice || (p0Choice + 3) % 5 == p1Choice) {... */\n    tag_294:\n        /* \"RPS.sol\":3868:4269  if (p0Choice == p1Choice) {... */\n    tag_285:\n        /* \"RPS.sol\":3639:4276  {... */\n      pop\n      pop\n      pop\n      pop\n        /* \"RPS.sol\":3601:4276  function _checkWinnerAndPay() private {... */\n      jump\t// out\n        /* \"CommitReveal.sol\":267:545  function commit(bytes32 dataHash) internal {... */\n    tag_230:\n        /* \"CommitReveal.sol\":346:354  dataHash */\n      dup1\n        /* \"CommitReveal.sol\":317:324  commits */\n      0x01\n        /* \"CommitReveal.sol\":317:336  commits[msg.sender] */\n      0x00\n        /* \"CommitReveal.sol\":325:335  msg.sender */\n      caller\n        /* \"CommitReveal.sol\":317:336  commits[msg.sender] */\n      0xffffffffffffffffffffffffffffffffffffffff\n      and\n      0xffffffffffffffffffffffffffffffffffffffff\n      and\n      dup2\n      mstore\n      0x20\n      add\n      swap1\n      dup2\n      mstore\n      0x20\n      add\n      0x00\n      keccak256\n        /* \"CommitReveal.sol\":317:343  commits[msg.sender].commit */\n      0x00\n      add\n        /* \"CommitReveal.sol\":317:354  commits[msg.sender].commit = dataHash */\n      dup2\n      swap1\n      sstore\n      pop\n        /* \"CommitReveal.sol\":396:408  block.number */\n      number\n        /* \"CommitReveal.sol\":361:368  commits */\n      0x01\n        /* \"CommitReveal.sol\":361:380  commits[msg.sender] */\n      0x00\n        /* \"CommitReveal.sol\":369:379  msg.sender */\n      caller\n        /* \"CommitReveal.sol\":361:380  commits[msg.sender] */\n      0xffffffffffffffffffffffffffffffffffffffff\n      and\n      0xffffffffffffffffffffffffffffffffffffffff\n      and\n      dup2\n      mstore\n      0x20\n      add\n      swap1\n      dup2\n      mstore\n      0x20\n      add\n      0x00\n      keccak256\n        /* \"CommitReveal.sol\":361:386  commits[msg.sender].block */\n      0x01\n      add\n      0x00\n        /* \"CommitReveal.sol\":361:409  commits[msg.sender].block = uint64(block.number) */\n      0x0100\n      exp\n      dup2\n      sload\n      dup2\n      0xffffffffffffffff\n      mul\n      not\n      and\n      swap1\n      dup4\n      0xffffffffffffffff\n      and\n      mul\n      or\n      swap1\n      sstore\n      pop\n        /* \"CommitReveal.sol\":447:452  false */\n      0x00\n        /* \"CommitReveal.sol\":416:423  commits */\n      0x01\n        /* \"CommitReveal.sol\":416:435  commits[msg.sender] */\n      0x00\n        /* \"CommitReveal.sol\":424:434  msg.sender */\n      caller\n        /* \"CommitReveal.sol\":416:435  commits[msg.sender] */\n      0xffffffffffffffffffffffffffffffffffffffff\n      and\n      0xffffffffffffffffffffffffffffffffffffffff\n      and\n      dup2\n      mstore\n      0x20\n      add\n      swap1\n      dup2\n      mstore\n      0x20\n      add\n      0x00\n      keccak256\n        /* \"CommitReveal.sol\":416:444  commits[msg.sender].revealed */\n      0x01\n      add\n      0x08\n        /* \"CommitReveal.sol\":416:452  commits[msg.sender].revealed = false */\n      0x0100\n      exp\n      dup2\n      sload\n      dup2\n      0xff\n      mul\n      not\n      and\n      swap1\n      dup4\n      iszero\n      iszero\n      mul\n      or\n      swap1\n      sstore\n      pop\n        /* \"CommitReveal.sol\":464:539  CommitHash(msg.sender,commits[msg.sender].commit,commits[msg.sender].block) */\n      0x3c1a1f8f38335b17f751c6da4ba7d1865f26b3997535176f5080de9fad891603\n        /* \"CommitReveal.sol\":475:485  msg.sender */\n      caller\n        /* \"CommitReveal.sol\":486:493  commits */\n      0x01\n        /* \"CommitReveal.sol\":486:505  commits[msg.sender] */\n      0x00\n        /* \"CommitReveal.sol\":494:504  msg.sender */\n      caller\n        /* \"CommitReveal.sol\":486:505  commits[msg.sender] */\n      0xffffffffffffffffffffffffffffffffffffffff\n      and\n      0xffffffffffffffffffffffffffffffffffffffff\n      and\n      dup2\n      mstore\n      0x20\n      add\n      swap1\n      dup2\n      mstore\n      0x20\n      add\n      0x00\n      keccak256\n        /* \"CommitReveal.sol\":486:512  commits[msg.sender].commit */\n      0x00\n      add\n      sload\n        /* \"CommitReveal.sol\":513:520  commits */\n      0x01\n        /* \"CommitReveal.sol\":513:532  commits[msg.sender] */\n      0x00\n        /* \"CommitReveal.sol\":521:531  msg.sender */\n      caller\n        /* \"CommitReveal.sol\":513:532  commits[msg.sender] */\n      0xffffffffffffffffffffffffffffffffffffffff\n      and\n      0xffffffffffffffffffffffffffffffffffffffff\n      and\n      dup2\n      mstore\n      0x20\n      add\n      swap1\n      dup2\n      mstore\n      0x20\n      add\n      0x00\n      keccak256\n        /* \"CommitReveal.sol\":513:538  commits[msg.sender].block */\n      0x01\n      add\n      0x00\n      swap1\n      sload\n      swap1\n      0x0100\n      exp\n      swap1\n      div\n      0xffffffffffffffff\n      and\n        /* \"CommitReveal.sol\":464:539  CommitHash(msg.sender,commits[msg.sender].commit,commits[msg.sender].block) */\n      mload(0x40)\n      tag_298\n      swap4\n      swap3\n      swap2\n      swap1\n      tag_299\n      jump\t// in\n    tag_298:\n      mload(0x40)\n      dup1\n      swap2\n      sub\n      swap1\n      log1\n        /* \"CommitReveal.sol\":267:545  function commit(bytes32 dataHash) internal {... */\n      pop\n      jump\t// out\n    tag_242:\n      pop\n      dup1\n      sload\n      0x00\n      dup3\n      sstore\n      swap1\n      0x00\n      mstore\n      keccak256(0x00, 0x20)\n      swap1\n      dup2\n      add\n      swap1\n      tag_301\n      swap2\n      swap1\n      tag_302\n      jump\t// in\n    tag_301:\n      pop\n      jump\t// out\n    tag_302:\n    tag_303:\n      dup1\n      dup3\n      gt\n      iszero\n      tag_304\n      jumpi\n      0x00\n      dup2\n      0x00\n      swap1\n      sstore\n      pop\n      0x01\n      add\n      jump(tag_303)\n    tag_304:\n      pop\n      swap1\n      jump\t// out\n        /* \"#utility.yul\":7:84   */\n    tag_305:\n        /* \"#utility.yul\":44:51   */\n      0x00\n        /* \"#utility.yul\":73:78   */\n      dup2\n        /* \"#utility.yul\":62:78   */\n      swap1\n      pop\n        /* \"#utility.yul\":7:84   */\n      swap2\n      swap1\n      pop\n      jump\t// out\n        /* \"#utility.yul\":90:208   */\n    tag_306:\n        /* \"#utility.yul\":177:201   */\n      tag_361\n        /* \"#utility.yul\":195:200   */\n      dup2\n        /* \"#utility.yul\":177:201   */\n      tag_305\n      jump\t// in\n    tag_361:\n        /* \"#utility.yul\":172:175   */\n      dup3\n        /* \"#utility.yul\":165:202   */\n      mstore\n        /* \"#utility.yul\":90:208   */\n      pop\n      pop\n      jump\t// out\n        /* \"#utility.yul\":214:436   */\n    tag_29:\n        /* \"#utility.yul\":307:311   */\n      0x00\n        /* \"#utility.yul\":345:347   */\n      0x20\n        /* \"#utility.yul\":334:343   */\n      dup3\n        /* \"#utility.yul\":330:348   */\n      add\n        /* \"#utility.yul\":322:348   */\n      swap1\n      pop\n        /* \"#utility.yul\":358:429   */\n      tag_363\n        /* \"#utility.yul\":426:427   */\n      0x00\n        /* \"#utility.yul\":415:424   */\n      dup4\n        /* \"#utility.yul\":411:428   */\n      add\n        /* \"#utility.yul\":402:408   */\n      dup5\n        /* \"#utility.yul\":358:429   */\n      tag_306\n      jump\t// in\n    tag_363:\n        /* \"#utility.yul\":214:436   */\n      swap3\n      swap2\n      pop\n      pop\n      jump\t// out\n        /* \"#utility.yul\":523:640   */\n    tag_308:\n        /* \"#utility.yul\":632:633   */\n      0x00\n        /* \"#utility.yul\":629:630   */\n      dup1\n        /* \"#utility.yul\":622:634   */\n      revert\n        /* \"#utility.yul\":769:895   */\n    tag_310:\n        /* \"#utility.yul\":806:813   */\n      0x00\n        /* \"#utility.yul\":846:888   */\n      0xffffffffffffffffffffffffffffffffffffffff\n        /* \"#utility.yul\":839:844   */\n      dup3\n        /* \"#utility.yul\":835:889   */\n      and\n        /* \"#utility.yul\":824:889   */\n      swap1\n      pop\n        /* \"#utility.yul\":769:895   */\n      swap2\n      swap1\n      pop\n      jump\t// out\n        /* \"#utility.yul\":901:997   */\n    tag_311:\n        /* \"#utility.yul\":938:945   */\n      0x00\n        /* \"#utility.yul\":967:991   */\n      tag_369\n        /* \"#utility.yul\":985:990   */\n      dup3\n        /* \"#utility.yul\":967:991   */\n      tag_310\n      jump\t// in\n    tag_369:\n        /* \"#utility.yul\":956:991   */\n      swap1\n      pop\n        /* \"#utility.yul\":901:997   */\n      swap2\n      swap1\n      pop\n      jump\t// out\n        /* \"#utility.yul\":1003:1125   */\n    tag_312:\n        /* \"#utility.yul\":1076:1100   */\n      tag_371\n        /* \"#utility.yul\":1094:1099   */\n      dup2\n        /* \"#utility.yul\":1076:1100   */\n      tag_311\n      jump\t// in\n    tag_371:\n        /* \"#utility.yul\":1069:1074   */\n      dup2\n        /* \"#utility.yul\":1066:1101   */\n      eq\n        /* \"#utility.yul\":1056:1119   */\n      tag_372\n      jumpi\n        /* \"#utility.yul\":1115:1116   */\n      0x00\n        /* \"#utility.yul\":1112:1113   */\n      dup1\n        /* \"#utility.yul\":1105:1117   */\n      revert\n        /* \"#utility.yul\":1056:1119   */\n    tag_372:\n        /* \"#utility.yul\":1003:1125   */\n      pop\n      jump\t// out\n        /* \"#utility.yul\":1131:1270   */\n    tag_313:\n        /* \"#utility.yul\":1177:1182   */\n      0x00\n        /* \"#utility.yul\":1215:1221   */\n      dup2\n        /* \"#utility.yul\":1202:1222   */\n      calldataload\n        /* \"#utility.yul\":1193:1222   */\n      swap1\n      pop\n        /* \"#utility.yul\":1231:1264   */\n      tag_374\n        /* \"#utility.yul\":1258:1263   */\n      dup2\n        /* \"#utility.yul\":1231:1264   */\n      tag_312\n      jump\t// in\n    tag_374:\n        /* \"#utility.yul\":1131:1270   */\n      swap3\n      swap2\n      pop\n      pop\n      jump\t// out\n        /* \"#utility.yul\":1276:1605   */\n    tag_33:\n        /* \"#utility.yul\":1335:1341   */\n      0x00\n        /* \"#utility.yul\":1384:1386   */\n      0x20\n        /* \"#utility.yul\":1372:1381   */\n      dup3\n        /* \"#utility.yul\":1363:1370   */\n      dup5\n        /* \"#utility.yul\":1359:1382   */\n      sub\n        /* \"#utility.yul\":1355:1387   */\n      slt\n        /* \"#utility.yul\":1352:1471   */\n      iszero\n      tag_376\n      jumpi\n        /* \"#utility.yul\":1390:1469   */\n      tag_377\n      tag_308\n      jump\t// in\n    tag_377:\n        /* \"#utility.yul\":1352:1471   */\n    tag_376:\n        /* \"#utility.yul\":1510:1511   */\n      0x00\n        /* \"#utility.yul\":1535:1588   */\n      tag_378\n        /* \"#utility.yul\":1580:1587   */\n      dup5\n        /* \"#utility.yul\":1571:1577   */\n      dup3\n        /* \"#utility.yul\":1560:1569   */\n      dup6\n        /* \"#utility.yul\":1556:1578   */\n      add\n        /* \"#utility.yul\":1535:1588   */\n      tag_313\n      jump\t// in\n    tag_378:\n        /* \"#utility.yul\":1525:1588   */\n      swap2\n      pop\n        /* \"#utility.yul\":1481:1598   */\n      pop\n        /* \"#utility.yul\":1276:1605   */\n      swap3\n      swap2\n      pop\n      pop\n      jump\t// out\n        /* \"#utility.yul\":1611:1701   */\n    tag_314:\n        /* \"#utility.yul\":1645:1652   */\n      0x00\n        /* \"#utility.yul\":1688:1693   */\n      dup2\n        /* \"#utility.yul\":1681:1694   */\n      iszero\n        /* \"#utility.yul\":1674:1695   */\n      iszero\n        /* \"#utility.yul\":1663:1695   */\n      swap1\n      pop\n        /* \"#utility.yul\":1611:1701   */\n      swap2\n      swap1\n      pop\n      jump\t// out\n        /* \"#utility.yul\":1707:1816   */\n    tag_315:\n        /* \"#utility.yul\":1788:1809   */\n      tag_381\n        /* \"#utility.yul\":1803:1808   */\n      dup2\n        /* \"#utility.yul\":1788:1809   */\n      tag_314\n      jump\t// in\n    tag_381:\n        /* \"#utility.yul\":1783:1786   */\n      dup3\n        /* \"#utility.yul\":1776:1810   */\n      mstore\n        /* \"#utility.yul\":1707:1816   */\n      pop\n      pop\n      jump\t// out\n        /* \"#utility.yul\":1822:2032   */\n    tag_36:\n        /* \"#utility.yul\":1909:1913   */\n      0x00\n        /* \"#utility.yul\":1947:1949   */\n      0x20\n        /* \"#utility.yul\":1936:1945   */\n      dup3\n        /* \"#utility.yul\":1932:1950   */\n      add\n        /* \"#utility.yul\":1924:1950   */\n      swap1\n      pop\n        /* \"#utility.yul\":1960:2025   */\n      tag_383\n        /* \"#utility.yul\":2022:2023   */\n      0x00\n        /* \"#utility.yul\":2011:2020   */\n      dup4\n        /* \"#utility.yul\":2007:2024   */\n      add\n        /* \"#utility.yul\":1998:2004   */\n      dup5\n        /* \"#utility.yul\":1960:2025   */\n      tag_315\n      jump\t// in\n    tag_383:\n        /* \"#utility.yul\":1822:2032   */\n      swap3\n      swap2\n      pop\n      pop\n      jump\t// out\n        /* \"#utility.yul\":2038:2115   */\n    tag_316:\n        /* \"#utility.yul\":2075:2082   */\n      0x00\n        /* \"#utility.yul\":2104:2109   */\n      dup2\n        /* \"#utility.yul\":2093:2109   */\n      swap1\n      pop\n        /* \"#utility.yul\":2038:2115   */\n      swap2\n      swap1\n      pop\n      jump\t// out\n        /* \"#utility.yul\":2121:2243   */\n    tag_317:\n        /* \"#utility.yul\":2194:2218   */\n      tag_386\n        /* \"#utility.yul\":2212:2217   */\n      dup2\n        /* \"#utility.yul\":2194:2218   */\n      tag_316\n      jump\t// in\n    tag_386:\n        /* \"#utility.yul\":2187:2192   */\n      dup2\n        /* \"#utility.yul\":2184:2219   */\n      eq\n        /* \"#utility.yul\":2174:2237   */\n      tag_387\n      jumpi\n        /* \"#utility.yul\":2233:2234   */\n      0x00\n        /* \"#utility.yul\":2230:2231   */\n      dup1\n        /* \"#utility.yul\":2223:2235   */\n      revert\n        /* \"#utility.yul\":2174:2237   */\n    tag_387:\n        /* \"#utility.yul\":2121:2243   */\n      pop\n      jump\t// out\n        /* \"#utility.yul\":2249:2388   */\n    tag_318:\n        /* \"#utility.yul\":2295:2300   */\n      0x00\n        /* \"#utility.yul\":2333:2339   */\n      dup2\n        /* \"#utility.yul\":2320:2340   */\n      calldataload\n        /* \"#utility.yul\":2311:2340   */\n      swap1\n      pop\n        /* \"#utility.yul\":2349:2382   */\n      tag_389\n        /* \"#utility.yul\":2376:2381   */\n      dup2\n        /* \"#utility.yul\":2349:2382   */\n      tag_317\n      jump\t// in\n    tag_389:\n        /* \"#utility.yul\":2249:2388   */\n      swap3\n      swap2\n      pop\n      pop\n      jump\t// out\n        /* \"#utility.yul\":2394:2723   */\n    tag_46:\n        /* \"#utility.yul\":2453:2459   */\n      0x00\n        /* \"#utility.yul\":2502:2504   */\n      0x20\n        /* \"#utility.yul\":2490:2499   */\n      dup3\n        /* \"#utility.yul\":2481:2488   */\n      dup5\n        /* \"#utility.yul\":2477:2500   */\n      sub\n        /* \"#utility.yul\":2473:2505   */\n      slt\n        /* \"#utility.yul\":2470:2589   */\n      iszero\n      tag_391\n      jumpi\n        /* \"#utility.yul\":2508:2587   */\n      tag_392\n      tag_308\n      jump\t// in\n    tag_392:\n        /* \"#utility.yul\":2470:2589   */\n    tag_391:\n        /* \"#utility.yul\":2628:2629   */\n      0x00\n        /* \"#utility.yul\":2653:2706   */\n      tag_393\n        /* \"#utility.yul\":2698:2705   */\n      dup5\n        /* \"#utility.yul\":2689:2695   */\n      dup3\n        /* \"#utility.yul\":2678:2687   */\n      dup6\n        /* \"#utility.yul\":2674:2696   */\n      add\n        /* \"#utility.yul\":2653:2706   */\n      tag_318\n      jump\t// in\n    tag_393:\n        /* \"#utility.yul\":2643:2706   */\n      swap2\n      pop\n        /* \"#utility.yul\":2599:2716   */\n      pop\n        /* \"#utility.yul\":2394:2723   */\n      swap3\n      swap2\n      pop\n      pop\n      jump\t// out\n        /* \"#utility.yul\":2729:2847   */\n    tag_319:\n        /* \"#utility.yul\":2816:2840   */\n      tag_395\n        /* \"#utility.yul\":2834:2839   */\n      dup2\n        /* \"#utility.yul\":2816:2840   */\n      tag_316\n      jump\t// in\n    tag_395:\n        /* \"#utility.yul\":2811:2814   */\n      dup3\n        /* \"#utility.yul\":2804:2841   */\n      mstore\n        /* \"#utility.yul\":2729:2847   */\n      pop\n      pop\n      jump\t// out\n        /* \"#utility.yul\":2853:3075   */\n    tag_49:\n        /* \"#utility.yul\":2946:2950   */\n      0x00\n        /* \"#utility.yul\":2984:2986   */\n      0x20\n        /* \"#utility.yul\":2973:2982   */\n      dup3\n        /* \"#utility.yul\":2969:2987   */\n      add\n        /* \"#utility.yul\":2961:2987   */\n      swap1\n      pop\n        /* \"#utility.yul\":2997:3068   */\n      tag_397\n        /* \"#utility.yul\":3065:3066   */\n      0x00\n        /* \"#utility.yul\":3054:3063   */\n      dup4\n        /* \"#utility.yul\":3050:3067   */\n      add\n        /* \"#utility.yul\":3041:3047   */\n      dup5\n        /* \"#utility.yul\":2997:3068   */\n      tag_319\n      jump\t// in\n    tag_397:\n        /* \"#utility.yul\":2853:3075   */\n      swap3\n      swap2\n      pop\n      pop\n      jump\t// out\n        /* \"#utility.yul\":3081:3167   */\n    tag_320:\n        /* \"#utility.yul\":3116:3123   */\n      0x00\n        /* \"#utility.yul\":3156:3160   */\n      0xff\n        /* \"#utility.yul\":3149:3154   */\n      dup3\n        /* \"#utility.yul\":3145:3161   */\n      and\n        /* \"#utility.yul\":3134:3161   */\n      swap1\n      pop\n        /* \"#utility.yul\":3081:3167   */\n      swap2\n      swap1\n      pop\n      jump\t// out\n        /* \"#utility.yul\":3173:3285   */\n    tag_321:\n        /* \"#utility.yul\":3256:3278   */\n      tag_400\n        /* \"#utility.yul\":3272:3277   */\n      dup2\n        /* \"#utility.yul\":3256:3278   */\n      tag_320\n      jump\t// in\n    tag_400:\n        /* \"#utility.yul\":3251:3254   */\n      dup3\n        /* \"#utility.yul\":3244:3279   */\n      mstore\n        /* \"#utility.yul\":3173:3285   */\n      pop\n      pop\n      jump\t// out\n        /* \"#utility.yul\":3291:3505   */\n    tag_70:\n        /* \"#utility.yul\":3380:3384   */\n      0x00\n        /* \"#utility.yul\":3418:3420   */\n      0x20\n        /* \"#utility.yul\":3407:3416   */\n      dup3\n        /* \"#utility.yul\":3403:3421   */\n      add\n        /* \"#utility.yul\":3395:3421   */\n      swap1\n      pop\n        /* \"#utility.yul\":3431:3498   */\n      tag_402\n        /* \"#utility.yul\":3495:3496   */\n      0x00\n        /* \"#utility.yul\":3484:3493   */\n      dup4\n        /* \"#utility.yul\":3480:3497   */\n      add\n        /* \"#utility.yul\":3471:3477   */\n      dup5\n        /* \"#utility.yul\":3431:3498   */\n      tag_321\n      jump\t// in\n    tag_402:\n        /* \"#utility.yul\":3291:3505   */\n      swap3\n      swap2\n      pop\n      pop\n      jump\t// out\n        /* \"#utility.yul\":3511:3612   */\n    tag_322:\n        /* \"#utility.yul\":3547:3554   */\n      0x00\n        /* \"#utility.yul\":3587:3605   */\n      0xffffffffffffffff\n        /* \"#utility.yul\":3580:3585   */\n      dup3\n        /* \"#utility.yul\":3576:3606   */\n      and\n        /* \"#utility.yul\":3565:3606   */\n      swap1\n      pop\n        /* \"#utility.yul\":3511:3612   */\n      swap2\n      swap1\n      pop\n      jump\t// out\n        /* \"#utility.yul\":3618:3733   */\n    tag_323:\n        /* \"#utility.yul\":3703:3726   */\n      tag_405\n        /* \"#utility.yul\":3720:3725   */\n      dup2\n        /* \"#utility.yul\":3703:3726   */\n      tag_322\n      jump\t// in\n    tag_405:\n        /* \"#utility.yul\":3698:3701   */\n      dup3\n        /* \"#utility.yul\":3691:3727   */\n      mstore\n        /* \"#utility.yul\":3618:3733   */\n      pop\n      pop\n      jump\t// out\n        /* \"#utility.yul\":3739:4165   */\n    tag_80:\n        /* \"#utility.yul\":3880:3884   */\n      0x00\n        /* \"#utility.yul\":3918:3920   */\n      0x60\n        /* \"#utility.yul\":3907:3916   */\n      dup3\n        /* \"#utility.yul\":3903:3921   */\n      add\n        /* \"#utility.yul\":3895:3921   */\n      swap1\n      pop\n        /* \"#utility.yul\":3931:4002   */\n      tag_407\n        /* \"#utility.yul\":3999:4000   */\n      0x00\n        /* \"#utility.yul\":3988:3997   */\n      dup4\n        /* \"#utility.yul\":3984:4001   */\n      add\n        /* \"#utility.yul\":3975:3981   */\n      dup7\n        /* \"#utility.yul\":3931:4002   */\n      tag_319\n      jump\t// in\n    tag_407:\n        /* \"#utility.yul\":4012:4082   */\n      tag_408\n        /* \"#utility.yul\":4078:4080   */\n      0x20\n        /* \"#utility.yul\":4067:4076   */\n      dup4\n        /* \"#utility.yul\":4063:4081   */\n      add\n        /* \"#utility.yul\":4054:4060   */\n      dup6\n        /* \"#utility.yul\":4012:4082   */\n      tag_323\n      jump\t// in\n    tag_408:\n        /* \"#utility.yul\":4092:4158   */\n      tag_409\n        /* \"#utility.yul\":4154:4156   */\n      0x40\n        /* \"#utility.yul\":4143:4152   */\n      dup4\n        /* \"#utility.yul\":4139:4157   */\n      add\n        /* \"#utility.yul\":4130:4136   */\n      dup5\n        /* \"#utility.yul\":4092:4158   */\n      tag_315\n      jump\t// in\n    tag_409:\n        /* \"#utility.yul\":3739:4165   */\n      swap5\n      swap4\n      pop\n      pop\n      pop\n      pop\n      jump\t// out\n        /* \"#utility.yul\":4171:4293   */\n    tag_324:\n        /* \"#utility.yul\":4244:4268   */\n      tag_411\n        /* \"#utility.yul\":4262:4267   */\n      dup2\n        /* \"#utility.yul\":4244:4268   */\n      tag_305\n      jump\t// in\n    tag_411:\n        /* \"#utility.yul\":4237:4242   */\n      dup2\n        /* \"#utility.yul\":4234:4269   */\n      eq\n        /* \"#utility.yul\":4224:4287   */\n      tag_412\n      jumpi\n        /* \"#utility.yul\":4283:4284   */\n      0x00\n        /* \"#utility.yul\":4280:4281   */\n      dup1\n        /* \"#utility.yul\":4273:4285   */\n      revert\n        /* \"#utility.yul\":4224:4287   */\n    tag_412:\n        /* \"#utility.yul\":4171:4293   */\n      pop\n      jump\t// out\n        /* \"#utility.yul\":4299:4438   */\n    tag_325:\n        /* \"#utility.yul\":4345:4350   */\n      0x00\n        /* \"#utility.yul\":4383:4389   */\n      dup2\n        /* \"#utility.yul\":4370:4390   */\n      calldataload\n        /* \"#utility.yul\":4361:4390   */\n      swap1\n      pop\n        /* \"#utility.yul\":4399:4432   */\n      tag_414\n        /* \"#utility.yul\":4426:4431   */\n      dup2\n        /* \"#utility.yul\":4399:4432   */\n      tag_324\n      jump\t// in\n    tag_414:\n        /* \"#utility.yul\":4299:4438   */\n      swap3\n      swap2\n      pop\n      pop\n      jump\t// out\n        /* \"#utility.yul\":4444:4773   */\n    tag_113:\n        /* \"#utility.yul\":4503:4509   */\n      0x00\n        /* \"#utility.yul\":4552:4554   */\n      0x20\n        /* \"#utility.yul\":4540:4549   */\n      dup3\n        /* \"#utility.yul\":4531:4538   */\n      dup5\n        /* \"#utility.yul\":4527:4550   */\n      sub\n        /* \"#utility.yul\":4523:4555   */\n      slt\n        /* \"#utility.yul\":4520:4639   */\n      iszero\n      tag_416\n      jumpi\n        /* \"#utility.yul\":4558:4637   */\n      tag_417\n      tag_308\n      jump\t// in\n    tag_417:\n        /* \"#utility.yul\":4520:4639   */\n    tag_416:\n        /* \"#utility.yul\":4678:4679   */\n      0x00\n        /* \"#utility.yul\":4703:4756   */\n      tag_418\n        /* \"#utility.yul\":4748:4755   */\n      dup5\n        /* \"#utility.yul\":4739:4745   */\n      dup3\n        /* \"#utility.yul\":4728:4737   */\n      dup6\n        /* \"#utility.yul\":4724:4746   */\n      add\n        /* \"#utility.yul\":4703:4756   */\n      tag_325\n      jump\t// in\n    tag_418:\n        /* \"#utility.yul\":4693:4756   */\n      swap2\n      pop\n        /* \"#utility.yul\":4649:4766   */\n      pop\n        /* \"#utility.yul\":4444:4773   */\n      swap3\n      swap2\n      pop\n      pop\n      jump\t// out\n        /* \"#utility.yul\":4779:4897   */\n    tag_326:\n        /* \"#utility.yul\":4866:4890   */\n      tag_420\n        /* \"#utility.yul\":4884:4889   */\n      dup2\n        /* \"#utility.yul\":4866:4890   */\n      tag_311\n      jump\t// in\n    tag_420:\n        /* \"#utility.yul\":4861:4864   */\n      dup3\n        /* \"#utility.yul\":4854:4891   */\n      mstore\n        /* \"#utility.yul\":4779:4897   */\n      pop\n      pop\n      jump\t// out\n        /* \"#utility.yul\":4903:5125   */\n    tag_116:\n        /* \"#utility.yul\":4996:5000   */\n      0x00\n        /* \"#utility.yul\":5034:5036   */\n      0x20\n        /* \"#utility.yul\":5023:5032   */\n      dup3\n        /* \"#utility.yul\":5019:5037   */\n      add\n        /* \"#utility.yul\":5011:5037   */\n      swap1\n      pop\n        /* \"#utility.yul\":5047:5118   */\n      tag_422\n        /* \"#utility.yul\":5115:5116   */\n      0x00\n        /* \"#utility.yul\":5104:5113   */\n      dup4\n        /* \"#utility.yul\":5100:5117   */\n      add\n        /* \"#utility.yul\":5091:5097   */\n      dup5\n        /* \"#utility.yul\":5047:5118   */\n      tag_326\n      jump\t// in\n    tag_422:\n        /* \"#utility.yul\":4903:5125   */\n      swap3\n      swap2\n      pop\n      pop\n      jump\t// out\n        /* \"#utility.yul\":5131:5300   */\n    tag_327:\n        /* \"#utility.yul\":5215:5226   */\n      0x00\n        /* \"#utility.yul\":5249:5255   */\n      dup3\n        /* \"#utility.yul\":5244:5247   */\n      dup3\n        /* \"#utility.yul\":5237:5256   */\n      mstore\n        /* \"#utility.yul\":5289:5293   */\n      0x20\n        /* \"#utility.yul\":5284:5287   */\n      dup3\n        /* \"#utility.yul\":5280:5294   */\n      add\n        /* \"#utility.yul\":5265:5294   */\n      swap1\n      pop\n        /* \"#utility.yul\":5131:5300   */\n      swap3\n      swap2\n      pop\n      pop\n      jump\t// out\n        /* \"#utility.yul\":5306:5483   */\n    tag_328:\n        /* \"#utility.yul\":5446:5475   */\n      0x47616d6520616c726561647920686173203220706c61796572732e0000000000\n        /* \"#utility.yul\":5442:5443   */\n      0x00\n        /* \"#utility.yul\":5434:5440   */\n      dup3\n        /* \"#utility.yul\":5430:5444   */\n      add\n        /* \"#utility.yul\":5423:5476   */\n      mstore\n        /* \"#utility.yul\":5306:5483   */\n      pop\n      jump\t// out\n        /* \"#utility.yul\":5489:5855   */\n    tag_329:\n        /* \"#utility.yul\":5631:5634   */\n      0x00\n        /* \"#utility.yul\":5652:5719   */\n      tag_426\n        /* \"#utility.yul\":5716:5718   */\n      0x1b\n        /* \"#utility.yul\":5711:5714   */\n      dup4\n        /* \"#utility.yul\":5652:5719   */\n      tag_327\n      jump\t// in\n    tag_426:\n        /* \"#utility.yul\":5645:5719   */\n      swap2\n      pop\n        /* \"#utility.yul\":5728:5821   */\n      tag_427\n        /* \"#utility.yul\":5817:5820   */\n      dup3\n        /* \"#utility.yul\":5728:5821   */\n      tag_328\n      jump\t// in\n    tag_427:\n        /* \"#utility.yul\":5846:5848   */\n      0x20\n        /* \"#utility.yul\":5841:5844   */\n      dup3\n        /* \"#utility.yul\":5837:5849   */\n      add\n        /* \"#utility.yul\":5830:5849   */\n      swap1\n      pop\n        /* \"#utility.yul\":5489:5855   */\n      swap2\n      swap1\n      pop\n      jump\t// out\n        /* \"#utility.yul\":5861:6280   */\n    tag_120:\n        /* \"#utility.yul\":6027:6031   */\n      0x00\n        /* \"#utility.yul\":6065:6067   */\n      0x20\n        /* \"#utility.yul\":6054:6063   */\n      dup3\n        /* \"#utility.yul\":6050:6068   */\n      add\n        /* \"#utility.yul\":6042:6068   */\n      swap1\n      pop\n        /* \"#utility.yul\":6114:6123   */\n      dup2\n        /* \"#utility.yul\":6108:6112   */\n      dup2\n        /* \"#utility.yul\":6104:6124   */\n      sub\n        /* \"#utility.yul\":6100:6101   */\n      0x00\n        /* \"#utility.yul\":6089:6098   */\n      dup4\n        /* \"#utility.yul\":6085:6102   */\n      add\n        /* \"#utility.yul\":6078:6125   */\n      mstore\n        /* \"#utility.yul\":6142:6273   */\n      tag_429\n        /* \"#utility.yul\":6268:6272   */\n      dup2\n        /* \"#utility.yul\":6142:6273   */\n      tag_329\n      jump\t// in\n    tag_429:\n        /* \"#utility.yul\":6134:6273   */\n      swap1\n      pop\n        /* \"#utility.yul\":5861:6280   */\n      swap2\n      swap1\n      pop\n      jump\t// out\n        /* \"#utility.yul\":6286:6464   */\n    tag_330:\n        /* \"#utility.yul\":6426:6456   */\n      0x596f7520617265206e6f7420616c6c6f77656420746f20706c61792e00000000\n        /* \"#utility.yul\":6422:6423   */\n      0x00\n        /* \"#utility.yul\":6414:6420   */\n      dup3\n        /* \"#utility.yul\":6410:6424   */\n      add\n        /* \"#utility.yul\":6403:6457   */\n      mstore\n        /* \"#utility.yul\":6286:6464   */\n      pop\n      jump\t// out\n        /* \"#utility.yul\":6470:6836   */\n    tag_331:\n        /* \"#utility.yul\":6612:6615   */\n      0x00\n        /* \"#utility.yul\":6633:6700   */\n      tag_432\n        /* \"#utility.yul\":6697:6699   */\n      0x1c\n        /* \"#utility.yul\":6692:6695   */\n      dup4\n        /* \"#utility.yul\":6633:6700   */\n      tag_327\n      jump\t// in\n    tag_432:\n        /* \"#utility.yul\":6626:6700   */\n      swap2\n      pop\n        /* \"#utility.yul\":6709:6802   */\n      tag_433\n        /* \"#utility.yul\":6798:6801   */\n      dup3\n        /* \"#utility.yul\":6709:6802   */\n      tag_330\n      jump\t// in\n    tag_433:\n        /* \"#utility.yul\":6827:6829   */\n      0x20\n        /* \"#utility.yul\":6822:6825   */\n      dup3\n        /* \"#utility.yul\":6818:6830   */\n      add\n        /* \"#utility.yul\":6811:6830   */\n      swap1\n      pop\n        /* \"#utility.yul\":6470:6836   */\n      swap2\n      swap1\n      pop\n      jump\t// out\n        /* \"#utility.yul\":6842:7261   */\n    tag_123:\n        /* \"#utility.yul\":7008:7012   */\n      0x00\n        /* \"#utility.yul\":7046:7048   */\n      0x20\n        /* \"#utility.yul\":7035:7044   */\n      dup3\n        /* \"#utility.yul\":7031:7049   */\n      add\n        /* \"#utility.yul\":7023:7049   */\n      swap1\n      pop\n        /* \"#utility.yul\":7095:7104   */\n      dup2\n        /* \"#utility.yul\":7089:7093   */\n      dup2\n        /* \"#utility.yul\":7085:7105   */\n      sub\n        /* \"#utility.yul\":7081:7082   */\n      0x00\n        /* \"#utility.yul\":7070:7079   */\n      dup4\n        /* \"#utility.yul\":7066:7083   */\n      add\n        /* \"#utility.yul\":7059:7106   */\n      mstore\n        /* \"#utility.yul\":7123:7254   */\n      tag_435\n        /* \"#utility.yul\":7249:7253   */\n      dup2\n        /* \"#utility.yul\":7123:7254   */\n      tag_331\n      jump\t// in\n    tag_435:\n        /* \"#utility.yul\":7115:7254   */\n      swap1\n      pop\n        /* \"#utility.yul\":6842:7261   */\n      swap2\n      swap1\n      pop\n      jump\t// out\n        /* \"#utility.yul\":7267:7447   */\n    tag_127:\n        /* \"#utility.yul\":7315:7392   */\n      0x4e487b7100000000000000000000000000000000000000000000000000000000\n        /* \"#utility.yul\":7312:7313   */\n      0x00\n        /* \"#utility.yul\":7305:7393   */\n      mstore\n        /* \"#utility.yul\":7412:7416   */\n      0x32\n        /* \"#utility.yul\":7409:7410   */\n      0x04\n        /* \"#utility.yul\":7402:7417   */\n      mstore\n        /* \"#utility.yul\":7436:7440   */\n      0x24\n        /* \"#utility.yul\":7433:7434   */\n      0x00\n        /* \"#utility.yul\":7426:7441   */\n      revert\n        /* \"#utility.yul\":7453:7628   */\n    tag_332:\n        /* \"#utility.yul\":7593:7620   */\n      0x506179203120657468657220746f20706c61792067616d652e00000000000000\n        /* \"#utility.yul\":7589:7590   */\n      0x00\n        /* \"#utility.yul\":7581:7587   */\n      dup3\n        /* \"#utility.yul\":7577:7591   */\n      add\n        /* \"#utility.yul\":7570:7621   */\n      mstore\n        /* \"#utility.yul\":7453:7628   */\n      pop\n      jump\t// out\n        /* \"#utility.yul\":7634:8000   */\n    tag_333:\n        /* \"#utility.yul\":7776:7779   */\n      0x00\n        /* \"#utility.yul\":7797:7864   */\n      tag_439\n        /* \"#utility.yul\":7861:7863   */\n      0x19\n        /* \"#utility.yul\":7856:7859   */\n      dup4\n        /* \"#utility.yul\":7797:7864   */\n      tag_327\n      jump\t// in\n    tag_439:\n        /* \"#utility.yul\":7790:7864   */\n      swap2\n      pop\n        /* \"#utility.yul\":7873:7966   */\n      tag_440\n        /* \"#utility.yul\":7962:7965   */\n      dup3\n        /* \"#utility.yul\":7873:7966   */\n      tag_332\n      jump\t// in\n    tag_440:\n        /* \"#utility.yul\":7991:7993   */\n      0x20\n        /* \"#utility.yul\":7986:7989   */\n      dup3\n        /* \"#utility.yul\":7982:7994   */\n      add\n        /* \"#utility.yul\":7975:7994   */\n      swap1\n      pop\n        /* \"#utility.yul\":7634:8000   */\n      swap2\n      swap1\n      pop\n      jump\t// out\n        /* \"#utility.yul\":8006:8425   */\n    tag_132:\n        /* \"#utility.yul\":8172:8176   */\n      0x00\n        /* \"#utility.yul\":8210:8212   */\n      0x20\n        /* \"#utility.yul\":8199:8208   */\n      dup3\n        /* \"#utility.yul\":8195:8213   */\n      add\n        /* \"#utility.yul\":8187:8213   */\n      swap1\n      pop\n        /* \"#utility.yul\":8259:8268   */\n      dup2\n        /* \"#utility.yul\":8253:8257   */\n      dup2\n        /* \"#utility.yul\":8249:8269   */\n      sub\n        /* \"#utility.yul\":8245:8246   */\n      0x00\n        /* \"#utility.yul\":8234:8243   */\n      dup4\n        /* \"#utility.yul\":8230:8247   */\n      add\n        /* \"#utility.yul\":8223:8270   */\n      mstore\n        /* \"#utility.yul\":8287:8418   */\n      tag_442\n        /* \"#utility.yul\":8413:8417   */\n      dup2\n        /* \"#utility.yul\":8287:8418   */\n      tag_333\n      jump\t// in\n    tag_442:\n        /* \"#utility.yul\":8279:8418   */\n      swap1\n      pop\n        /* \"#utility.yul\":8006:8425   */\n      swap2\n      swap1\n      pop\n      jump\t// out\n        /* \"#utility.yul\":8431:8611   */\n    tag_334:\n        /* \"#utility.yul\":8479:8556   */\n      0x4e487b7100000000000000000000000000000000000000000000000000000000\n        /* \"#utility.yul\":8476:8477   */\n      0x00\n        /* \"#utility.yul\":8469:8557   */\n      mstore\n        /* \"#utility.yul\":8576:8580   */\n      0x11\n        /* \"#utility.yul\":8573:8574   */\n      0x04\n        /* \"#utility.yul\":8566:8581   */\n      mstore\n        /* \"#utility.yul\":8600:8604   */\n      0x24\n        /* \"#utility.yul\":8597:8598   */\n      0x00\n        /* \"#utility.yul\":8590:8605   */\n      revert\n        /* \"#utility.yul\":8617:8808   */\n    tag_134:\n        /* \"#utility.yul\":8657:8660   */\n      0x00\n        /* \"#utility.yul\":8676:8696   */\n      tag_445\n        /* \"#utility.yul\":8694:8695   */\n      dup3\n        /* \"#utility.yul\":8676:8696   */\n      tag_305\n      jump\t// in\n    tag_445:\n        /* \"#utility.yul\":8671:8696   */\n      swap2\n      pop\n        /* \"#utility.yul\":8710:8730   */\n      tag_446\n        /* \"#utility.yul\":8728:8729   */\n      dup4\n        /* \"#utility.yul\":8710:8730   */\n      tag_305\n      jump\t// in\n    tag_446:\n        /* \"#utility.yul\":8705:8730   */\n      swap3\n      pop\n        /* \"#utility.yul\":8753:8754   */\n      dup3\n        /* \"#utility.yul\":8750:8751   */\n      dup3\n        /* \"#utility.yul\":8746:8755   */\n      add\n        /* \"#utility.yul\":8739:8755   */\n      swap1\n      pop\n        /* \"#utility.yul\":8774:8777   */\n      dup1\n        /* \"#utility.yul\":8771:8772   */\n      dup3\n        /* \"#utility.yul\":8768:8778   */\n      gt\n        /* \"#utility.yul\":8765:8801   */\n      iszero\n      tag_447\n      jumpi\n        /* \"#utility.yul\":8781:8799   */\n      tag_448\n      tag_334\n      jump\t// in\n    tag_448:\n        /* \"#utility.yul\":8765:8801   */\n    tag_447:\n        /* \"#utility.yul\":8617:8808   */\n      swap3\n      swap2\n      pop\n      pop\n      jump\t// out\n        /* \"#utility.yul\":8814:9047   */\n    tag_137:\n        /* \"#utility.yul\":8853:8856   */\n      0x00\n        /* \"#utility.yul\":8876:8900   */\n      tag_450\n        /* \"#utility.yul\":8894:8899   */\n      dup3\n        /* \"#utility.yul\":8876:8900   */\n      tag_305\n      jump\t// in\n    tag_450:\n        /* \"#utility.yul\":8867:8900   */\n      swap2\n      pop\n        /* \"#utility.yul\":8922:8988   */\n      0xffffffffffffffffffffffffffffffffffffffffffffffffffffffffffffffff\n        /* \"#utility.yul\":8915:8920   */\n      dup3\n        /* \"#utility.yul\":8912:8989   */\n      sub\n        /* \"#utility.yul\":8909:9012   */\n      tag_451\n      jumpi\n        /* \"#utility.yul\":8992:9010   */\n      tag_452\n      tag_334\n      jump\t// in\n    tag_452:\n        /* \"#utility.yul\":8909:9012   */\n    tag_451:\n        /* \"#utility.yul\":9039:9040   */\n      0x01\n        /* \"#utility.yul\":9032:9037   */\n      dup3\n        /* \"#utility.yul\":9028:9041   */\n      add\n        /* \"#utility.yul\":9021:9041   */\n      swap1\n      pop\n        /* \"#utility.yul\":8814:9047   */\n      swap2\n      swap1\n      pop\n      jump\t// out\n        /* \"#utility.yul\":9053:9385   */\n    tag_139:\n        /* \"#utility.yul\":9174:9178   */\n      0x00\n        /* \"#utility.yul\":9212:9214   */\n      0x40\n        /* \"#utility.yul\":9201:9210   */\n      dup3\n        /* \"#utility.yul\":9197:9215   */\n      add\n        /* \"#utility.yul\":9189:9215   */\n      swap1\n      pop\n        /* \"#utility.yul\":9225:9296   */\n      tag_454\n        /* \"#utility.yul\":9293:9294   */\n      0x00\n        /* \"#utility.yul\":9282:9291   */\n      dup4\n        /* \"#utility.yul\":9278:9295   */\n      add\n        /* \"#utility.yul\":9269:9275   */\n      dup6\n        /* \"#utility.yul\":9225:9296   */\n      tag_326\n      jump\t// in\n    tag_454:\n        /* \"#utility.yul\":9306:9378   */\n      tag_455\n        /* \"#utility.yul\":9374:9376   */\n      0x20\n        /* \"#utility.yul\":9363:9372   */\n      dup4\n        /* \"#utility.yul\":9359:9377   */\n      add\n        /* \"#utility.yul\":9350:9356   */\n      dup5\n        /* \"#utility.yul\":9306:9378   */\n      tag_306\n      jump\t// in\n    tag_455:\n        /* \"#utility.yul\":9053:9385   */\n      swap4\n      swap3\n      pop\n      pop\n      pop\n      jump\t// out\n        /* \"#utility.yul\":9391:9470   */\n    tag_335:\n        /* \"#utility.yul\":9430:9437   */\n      0x00\n        /* \"#utility.yul\":9459:9464   */\n      dup2\n        /* \"#utility.yul\":9448:9464   */\n      swap1\n      pop\n        /* \"#utility.yul\":9391:9470   */\n      swap2\n      swap1\n      pop\n      jump\t// out\n        /* \"#utility.yul\":9476:9633   */\n    tag_336:\n        /* \"#utility.yul\":9581:9626   */\n      tag_458\n        /* \"#utility.yul\":9601:9625   */\n      tag_459\n        /* \"#utility.yul\":9619:9624   */\n      dup3\n        /* \"#utility.yul\":9601:9625   */\n      tag_316\n      jump\t// in\n    tag_459:\n        /* \"#utility.yul\":9581:9626   */\n      tag_335\n      jump\t// in\n    tag_458:\n        /* \"#utility.yul\":9576:9579   */\n      dup3\n        /* \"#utility.yul\":9569:9627   */\n      mstore\n        /* \"#utility.yul\":9476:9633   */\n      pop\n      pop\n      jump\t// out\n        /* \"#utility.yul\":9639:9895   */\n    tag_144:\n        /* \"#utility.yul\":9751:9754   */\n      0x00\n        /* \"#utility.yul\":9766:9841   */\n      tag_461\n        /* \"#utility.yul\":9837:9840   */\n      dup3\n        /* \"#utility.yul\":9828:9834   */\n      dup5\n        /* \"#utility.yul\":9766:9841   */\n      tag_336\n      jump\t// in\n    tag_461:\n        /* \"#utility.yul\":9866:9868   */\n      0x20\n        /* \"#utility.yul\":9861:9864   */\n      dup3\n        /* \"#utility.yul\":9857:9869   */\n      add\n        /* \"#utility.yul\":9850:9869   */\n      swap2\n      pop\n        /* \"#utility.yul\":9886:9889   */\n      dup2\n        /* \"#utility.yul\":9879:9889   */\n      swap1\n      pop\n        /* \"#utility.yul\":9639:9895   */\n      swap3\n      swap2\n      pop\n      pop\n      jump\t// out\n        /* \"#utility.yul\":9901:10127   */\n    tag_337:\n        /* \"#utility.yul\":10041:10075   */\n      0x596f75206e65656420746f20776169742031206d696e75746520666f72207769\n        /* \"#utility.yul\":10037:10038   */\n      0x00\n        /* \"#utility.yul\":10029:10035   */\n      dup3\n        /* \"#utility.yul\":10025:10039   */\n      add\n        /* \"#utility.yul\":10018:10076   */\n      mstore\n        /* \"#utility.yul\":10110:10119   */\n      0x7468647261772e00000000000000000000000000000000000000000000000000\n        /* \"#utility.yul\":10105:10107   */\n      0x20\n        /* \"#utility.yul\":10097:10103   */\n      dup3\n        /* \"#utility.yul\":10093:10108   */\n      add\n        /* \"#utility.yul\":10086:10120   */\n      mstore\n        /* \"#utility.yul\":9901:10127   */\n      pop\n      jump\t// out\n        /* \"#utility.yul\":10133:10499   */\n    tag_338:\n        /* \"#utility.yul\":10275:10278   */\n      0x00\n        /* \"#utility.yul\":10296:10363   */\n      tag_464\n        /* \"#utility.yul\":10360:10362   */\n      0x27\n        /* \"#utility.yul\":10355:10358   */\n      dup4\n        /* \"#utility.yul\":10296:10363   */\n      tag_327\n      jump\t// in\n    tag_464:\n        /* \"#utility.yul\":10289:10363   */\n      swap2\n      pop\n        /* \"#utility.yul\":10372:10465   */\n      tag_465\n        /* \"#utility.yul\":10461:10464   */\n      dup3\n        /* \"#utility.yul\":10372:10465   */\n      tag_337\n      jump\t// in\n    tag_465:\n        /* \"#utility.yul\":10490:10492   */\n      0x40\n        /* \"#utility.yul\":10485:10488   */\n      dup3\n        /* \"#utility.yul\":10481:10493   */\n      add\n        /* \"#utility.yul\":10474:10493   */\n      swap1\n      pop\n        /* \"#utility.yul\":10133:10499   */\n      swap2\n      swap1\n      pop\n      jump\t// out\n        /* \"#utility.yul\":10505:10924   */\n    tag_150:\n        /* \"#utility.yul\":10671:10675   */\n      0x00\n        /* \"#utility.yul\":10709:10711   */\n      0x20\n        /* \"#utility.yul\":10698:10707   */\n      dup3\n        /* \"#utility.yul\":10694:10712   */\n      add\n        /* \"#utility.yul\":10686:10712   */\n      swap1\n      pop\n        /* \"#utility.yul\":10758:10767   */\n      dup2\n        /* \"#utility.yul\":10752:10756   */\n      dup2\n        /* \"#utility.yul\":10748:10768   */\n      sub\n        /* \"#utility.yul\":10744:10745   */\n      0x00\n        /* \"#utility.yul\":10733:10742   */\n      dup4\n        /* \"#utility.yul\":10729:10746   */\n      add\n        /* \"#utility.yul\":10722:10769   */\n      mstore\n        /* \"#utility.yul\":10786:10917   */\n      tag_467\n        /* \"#utility.yul\":10912:10916   */\n      dup2\n        /* \"#utility.yul\":10786:10917   */\n      tag_338\n      jump\t// in\n    tag_467:\n        /* \"#utility.yul\":10778:10917   */\n      swap1\n      pop\n        /* \"#utility.yul\":10505:10924   */\n      swap2\n      swap1\n      pop\n      jump\t// out\n        /* \"#utility.yul\":10930:11151   */\n    tag_339:\n        /* \"#utility.yul\":11070:11104   */\n      0x436f6e74726163742068617320696e73756666696369656e742062616c616e63\n        /* \"#utility.yul\":11066:11067   */\n      0x00\n        /* \"#utility.yul\":11058:11064   */\n      dup3\n        /* \"#utility.yul\":11054:11068   */\n      add\n        /* \"#utility.yul\":11047:11105   */\n      mstore\n        /* \"#utility.yul\":11139:11143   */\n      0x652e000000000000000000000000000000000000000000000000000000000000\n        /* \"#utility.yul\":11134:11136   */\n      0x20\n        /* \"#utility.yul\":11126:11132   */\n      dup3\n        /* \"#utility.yul\":11122:11137   */\n      add\n        /* \"#utility.yul\":11115:11144   */\n      mstore\n        /* \"#utility.yul\":10930:11151   */\n      pop\n      jump\t// out\n        /* \"#utility.yul\":11157:11523   */\n    tag_340:\n        /* \"#utility.yul\":11299:11302   */\n      0x00\n        /* \"#utility.yul\":11320:11387   */\n      tag_470\n        /* \"#utility.yul\":11384:11386   */\n      0x22\n        /* \"#utility.yul\":11379:11382   */\n      dup4\n        /* \"#utility.yul\":11320:11387   */\n      tag_327\n      jump\t// in\n    tag_470:\n        /* \"#utility.yul\":11313:11387   */\n      swap2\n      pop\n        /* \"#utility.yul\":11396:11489   */\n      tag_471\n        /* \"#utility.yul\":11485:11488   */\n      dup3\n        /* \"#utility.yul\":11396:11489   */\n      tag_339\n      jump\t// in\n    tag_471:\n        /* \"#utility.yul\":11514:11516   */\n      0x40\n        /* \"#utility.yul\":11509:11512   */\n      dup3\n        /* \"#utility.yul\":11505:11517   */\n      add\n        /* \"#utility.yul\":11498:11517   */\n      swap1\n      pop\n        /* \"#utility.yul\":11157:11523   */\n      swap2\n      swap1\n      pop\n      jump\t// out\n        /* \"#utility.yul\":11529:11948   */\n    tag_153:\n        /* \"#utility.yul\":11695:11699   */\n      0x00\n        /* \"#utility.yul\":11733:11735   */\n      0x20\n        /* \"#utility.yul\":11722:11731   */\n      dup3\n        /* \"#utility.yul\":11718:11736   */\n      add\n        /* \"#utility.yul\":11710:11736   */\n      swap1\n      pop\n        /* \"#utility.yul\":11782:11791   */\n      dup2\n        /* \"#utility.yul\":11776:11780   */\n      dup2\n        /* \"#utility.yul\":11772:11792   */\n      sub\n        /* \"#utility.yul\":11768:11769   */\n      0x00\n        /* \"#utility.yul\":11757:11766   */\n      dup4\n        /* \"#utility.yul\":11753:11770   */\n      add\n        /* \"#utility.yul\":11746:11793   */\n      mstore\n        /* \"#utility.yul\":11810:11941   */\n      tag_473\n        /* \"#utility.yul\":11936:11940   */\n      dup2\n        /* \"#utility.yul\":11810:11941   */\n      tag_340\n      jump\t// in\n    tag_473:\n        /* \"#utility.yul\":11802:11941   */\n      swap1\n      pop\n        /* \"#utility.yul\":11529:11948   */\n      swap2\n      swap1\n      pop\n      jump\t// out\n        /* \"#utility.yul\":11954:12134   */\n    tag_341:\n        /* \"#utility.yul\":12002:12079   */\n      0x4e487b7100000000000000000000000000000000000000000000000000000000\n        /* \"#utility.yul\":11999:12000   */\n      0x00\n        /* \"#utility.yul\":11992:12080   */\n      mstore\n        /* \"#utility.yul\":12099:12103   */\n      0x12\n        /* \"#utility.yul\":12096:12097   */\n      0x04\n        /* \"#utility.yul\":12089:12104   */\n      mstore\n        /* \"#utility.yul\":12123:12127   */\n      0x24\n        /* \"#utility.yul\":12120:12121   */\n      0x00\n        /* \"#utility.yul\":12113:12128   */\n      revert\n        /* \"#utility.yul\":12140:12325   */\n    tag_171:\n        /* \"#utility.yul\":12180:12181   */\n      0x00\n        /* \"#utility.yul\":12197:12217   */\n      tag_476\n        /* \"#utility.yul\":12215:12216   */\n      dup3\n        /* \"#utility.yul\":12197:12217   */\n      tag_305\n      jump\t// in\n    tag_476:\n        /* \"#utility.yul\":12192:12217   */\n      swap2\n      pop\n        /* \"#utility.yul\":12231:12251   */\n      tag_477\n        /* \"#utility.yul\":12249:12250   */\n      dup4\n        /* \"#utility.yul\":12231:12251   */\n      tag_305\n      jump\t// in\n    tag_477:\n        /* \"#utility.yul\":12226:12251   */\n      swap3\n      pop\n        /* \"#utility.yul\":12270:12271   */\n      dup3\n        /* \"#utility.yul\":12260:12295   */\n      tag_478\n      jumpi\n        /* \"#utility.yul\":12275:12293   */\n      tag_479\n      tag_341\n      jump\t// in\n    tag_479:\n        /* \"#utility.yul\":12260:12295   */\n    tag_478:\n        /* \"#utility.yul\":12317:12318   */\n      dup3\n        /* \"#utility.yul\":12314:12315   */\n      dup3\n        /* \"#utility.yul\":12310:12319   */\n      div\n        /* \"#utility.yul\":12305:12319   */\n      swap1\n      pop\n        /* \"#utility.yul\":12140:12325   */\n      swap3\n      swap2\n      pop\n      pop\n      jump\t// out\n        /* \"#utility.yul\":12331:12556   */\n    tag_342:\n        /* \"#utility.yul\":12471:12505   */\n      0x596f75722063686f696365206e6565647320746f206265206265747765656e20\n        /* \"#utility.yul\":12467:12468   */\n      0x00\n        /* \"#utility.yul\":12459:12465   */\n      dup3\n        /* \"#utility.yul\":12455:12469   */\n      add\n        /* \"#utility.yul\":12448:12506   */\n      mstore\n        /* \"#utility.yul\":12540:12548   */\n      0x3020746f20340000000000000000000000000000000000000000000000000000\n        /* \"#utility.yul\":12535:12537   */\n      0x20\n        /* \"#utility.yul\":12527:12533   */\n      dup3\n        /* \"#utility.yul\":12523:12538   */\n      add\n        /* \"#utility.yul\":12516:12549   */\n      mstore\n        /* \"#utility.yul\":12331:12556   */\n      pop\n      jump\t// out\n        /* \"#utility.yul\":12562:12928   */\n    tag_343:\n        /* \"#utility.yul\":12704:12707   */\n      0x00\n        /* \"#utility.yul\":12725:12792   */\n      tag_482\n        /* \"#utility.yul\":12789:12791   */\n      0x26\n        /* \"#utility.yul\":12784:12787   */\n      dup4\n        /* \"#utility.yul\":12725:12792   */\n      tag_327\n      jump\t// in\n    tag_482:\n        /* \"#utility.yul\":12718:12792   */\n      swap2\n      pop\n        /* \"#utility.yul\":12801:12894   */\n      tag_483\n        /* \"#utility.yul\":12890:12893   */\n      dup3\n        /* \"#utility.yul\":12801:12894   */\n      tag_342\n      jump\t// in\n    tag_483:\n        /* \"#utility.yul\":12919:12921   */\n      0x40\n        /* \"#utility.yul\":12914:12917   */\n      dup3\n        /* \"#utility.yul\":12910:12922   */\n      add\n        /* \"#utility.yul\":12903:12922   */\n      swap1\n      pop\n        /* \"#utility.yul\":12562:12928   */\n      swap2\n      swap1\n      pop\n      jump\t// out\n        /* \"#utility.yul\":12934:13353   */\n    tag_205:\n        /* \"#utility.yul\":13100:13104   */\n      0x00\n        /* \"#utility.yul\":13138:13140   */\n      0x20\n        /* \"#utility.yul\":13127:13136   */\n      dup3\n        /* \"#utility.yul\":13123:13141   */\n      add\n        /* \"#utility.yul\":13115:13141   */\n      swap1\n      pop\n        /* \"#utility.yul\":13187:13196   */\n      dup2\n        /* \"#utility.yul\":13181:13185   */\n      dup2\n        /* \"#utility.yul\":13177:13197   */\n      sub\n        /* \"#utility.yul\":13173:13174   */\n      0x00\n        /* \"#utility.yul\":13162:13171   */\n      dup4\n        /* \"#utility.yul\":13158:13175   */\n      add\n        /* \"#utility.yul\":13151:13198   */\n      mstore\n        /* \"#utility.yul\":13215:13346   */\n      tag_485\n        /* \"#utility.yul\":13341:13345   */\n      dup2\n        /* \"#utility.yul\":13215:13346   */\n      tag_343\n      jump\t// in\n    tag_485:\n        /* \"#utility.yul\":13207:13346   */\n      swap1\n      pop\n        /* \"#utility.yul\":12934:13353   */\n      swap2\n      swap1\n      pop\n      jump\t// out\n        /* \"#utility.yul\":13359:13534   */\n    tag_344:\n        /* \"#utility.yul\":13499:13526   */\n      0x596f75206e65656420746f20636f6d6d69742066697273742e00000000000000\n        /* \"#utility.yul\":13495:13496   */\n      0x00\n        /* \"#utility.yul\":13487:13493   */\n      dup3\n        /* \"#utility.yul\":13483:13497   */\n      add\n        /* \"#utility.yul\":13476:13527   */\n      mstore\n        /* \"#utility.yul\":13359:13534   */\n      pop\n      jump\t// out\n        /* \"#utility.yul\":13540:13906   */\n    tag_345:\n        /* \"#utility.yul\":13682:13685   */\n      0x00\n        /* \"#utility.yul\":13703:13770   */\n      tag_488\n        /* \"#utility.yul\":13767:13769   */\n      0x19\n        /* \"#utility.yul\":13762:13765   */\n      dup4\n        /* \"#utility.yul\":13703:13770   */\n      tag_327\n      jump\t// in\n    tag_488:\n        /* \"#utility.yul\":13696:13770   */\n      swap2\n      pop\n        /* \"#utility.yul\":13779:13872   */\n      tag_489\n        /* \"#utility.yul\":13868:13871   */\n      dup3\n        /* \"#utility.yul\":13779:13872   */\n      tag_344\n      jump\t// in\n    tag_489:\n        /* \"#utility.yul\":13897:13899   */\n      0x20\n        /* \"#utility.yul\":13892:13895   */\n      dup3\n        /* \"#utility.yul\":13888:13900   */\n      add\n        /* \"#utility.yul\":13881:13900   */\n      swap1\n      pop\n        /* \"#utility.yul\":13540:13906   */\n      swap2\n      swap1\n      pop\n      jump\t// out\n        /* \"#utility.yul\":13912:14331   */\n    tag_208:\n        /* \"#utility.yul\":14078:14082   */\n      0x00\n        /* \"#utility.yul\":14116:14118   */\n      0x20\n        /* \"#utility.yul\":14105:14114   */\n      dup3\n        /* \"#utility.yul\":14101:14119   */\n      add\n        /* \"#utility.yul\":14093:14119   */\n      swap1\n      pop\n        /* \"#utility.yul\":14165:14174   */\n      dup2\n        /* \"#utility.yul\":14159:14163   */\n      dup2\n        /* \"#utility.yul\":14155:14175   */\n      sub\n        /* \"#utility.yul\":14151:14152   */\n      0x00\n        /* \"#utility.yul\":14140:14149   */\n      dup4\n        /* \"#utility.yul\":14136:14153   */\n      add\n        /* \"#utility.yul\":14129:14176   */\n      mstore\n        /* \"#utility.yul\":14193:14324   */\n      tag_491\n        /* \"#utility.yul\":14319:14323   */\n      dup2\n        /* \"#utility.yul\":14193:14324   */\n      tag_345\n      jump\t// in\n    tag_491:\n        /* \"#utility.yul\":14185:14324   */\n      swap1\n      pop\n        /* \"#utility.yul\":13912:14331   */\n      swap2\n      swap1\n      pop\n      jump\t// out\n        /* \"#utility.yul\":14337:14531   */\n    tag_219:\n        /* \"#utility.yul\":14377:14381   */\n      0x00\n        /* \"#utility.yul\":14397:14417   */\n      tag_493\n        /* \"#utility.yul\":14415:14416   */\n      dup3\n        /* \"#utility.yul\":14397:14417   */\n      tag_305\n      jump\t// in\n    tag_493:\n        /* \"#utility.yul\":14392:14417   */\n      swap2\n      pop\n        /* \"#utility.yul\":14431:14451   */\n      tag_494\n        /* \"#utility.yul\":14449:14450   */\n      dup4\n        /* \"#utility.yul\":14431:14451   */\n      tag_305\n      jump\t// in\n    tag_494:\n        /* \"#utility.yul\":14426:14451   */\n      swap3\n      pop\n        /* \"#utility.yul\":14475:14476   */\n      dup3\n        /* \"#utility.yul\":14472:14473   */\n      dup3\n        /* \"#utility.yul\":14468:14477   */\n      sub\n        /* \"#utility.yul\":14460:14477   */\n      swap1\n      pop\n        /* \"#utility.yul\":14499:14500   */\n      dup2\n        /* \"#utility.yul\":14493:14497   */\n      dup2\n        /* \"#utility.yul\":14490:14501   */\n      gt\n        /* \"#utility.yul\":14487:14524   */\n      iszero\n      tag_495\n      jumpi\n        /* \"#utility.yul\":14504:14522   */\n      tag_496\n      tag_334\n      jump\t// in\n    tag_496:\n        /* \"#utility.yul\":14487:14524   */\n    tag_495:\n        /* \"#utility.yul\":14337:14531   */\n      swap3\n      swap2\n      pop\n      pop\n      jump\t// out\n        /* \"#utility.yul\":14537:14708   */\n    tag_346:\n        /* \"#utility.yul\":14677:14700   */\n      0x47616d65206e65656473203220706c61796572732e0000000000000000000000\n        /* \"#utility.yul\":14673:14674   */\n      0x00\n        /* \"#utility.yul\":14665:14671   */\n      dup3\n        /* \"#utility.yul\":14661:14675   */\n      add\n        /* \"#utility.yul\":14654:14701   */\n      mstore\n        /* \"#utility.yul\":14537:14708   */\n      pop\n      jump\t// out\n        /* \"#utility.yul\":14714:15080   */\n    tag_347:\n        /* \"#utility.yul\":14856:14859   */\n      0x00\n        /* \"#utility.yul\":14877:14944   */\n      tag_499\n        /* \"#utility.yul\":14941:14943   */\n      0x15\n        /* \"#utility.yul\":14936:14939   */\n      dup4\n        /* \"#utility.yul\":14877:14944   */\n      tag_327\n      jump\t// in\n    tag_499:\n        /* \"#utility.yul\":14870:14944   */\n      swap2\n      pop\n        /* \"#utility.yul\":14953:15046   */\n      tag_500\n        /* \"#utility.yul\":15042:15045   */\n      dup3\n        /* \"#utility.yul\":14953:15046   */\n      tag_346\n      jump\t// in\n    tag_500:\n        /* \"#utility.yul\":15071:15073   */\n      0x20\n        /* \"#utility.yul\":15066:15069   */\n      dup3\n        /* \"#utility.yul\":15062:15074   */\n      add\n        /* \"#utility.yul\":15055:15074   */\n      swap1\n      pop\n        /* \"#utility.yul\":14714:15080   */\n      swap2\n      swap1\n      pop\n      jump\t// out\n        /* \"#utility.yul\":15086:15505   */\n    tag_223:\n        /* \"#utility.yul\":15252:15256   */\n      0x00\n        /* \"#utility.yul\":15290:15292   */\n      0x20\n        /* \"#utility.yul\":15279:15288   */\n      dup3\n        /* \"#utility.yul\":15275:15293   */\n      add\n        /* \"#utility.yul\":15267:15293   */\n      swap1\n      pop\n        /* \"#utility.yul\":15339:15348   */\n      dup2\n        /* \"#utility.yul\":15333:15337   */\n      dup2\n        /* \"#utility.yul\":15329:15349   */\n      sub\n        /* \"#utility.yul\":15325:15326   */\n      0x00\n        /* \"#utility.yul\":15314:15323   */\n      dup4\n        /* \"#utility.yul\":15310:15327   */\n      add\n        /* \"#utility.yul\":15303:15350   */\n      mstore\n        /* \"#utility.yul\":15367:15498   */\n      tag_502\n        /* \"#utility.yul\":15493:15497   */\n      dup2\n        /* \"#utility.yul\":15367:15498   */\n      tag_347\n      jump\t// in\n    tag_502:\n        /* \"#utility.yul\":15359:15498   */\n      swap1\n      pop\n        /* \"#utility.yul\":15086:15505   */\n      swap2\n      swap1\n      pop\n      jump\t// out\n        /* \"#utility.yul\":15511:15682   */\n    tag_348:\n        /* \"#utility.yul\":15651:15674   */\n      0x596f7520616c726561647920636f6d6d697465642e0000000000000000000000\n        /* \"#utility.yul\":15647:15648   */\n      0x00\n        /* \"#utility.yul\":15639:15645   */\n      dup3\n        /* \"#utility.yul\":15635:15649   */\n      add\n        /* \"#utility.yul\":15628:15675   */\n      mstore\n        /* \"#utility.yul\":15511:15682   */\n      pop\n      jump\t// out\n        /* \"#utility.yul\":15688:16054   */\n    tag_349:\n        /* \"#utility.yul\":15830:15833   */\n      0x00\n        /* \"#utility.yul\":15851:15918   */\n      tag_505\n        /* \"#utility.yul\":15915:15917   */\n      0x15\n        /* \"#utility.yul\":15910:15913   */\n      dup4\n        /* \"#utility.yul\":15851:15918   */\n      tag_327\n      jump\t// in\n    tag_505:\n        /* \"#utility.yul\":15844:15918   */\n      swap2\n      pop\n        /* \"#utility.yul\":15927:16020   */\n      tag_506\n        /* \"#utility.yul\":16016:16019   */\n      dup3\n        /* \"#utility.yul\":15927:16020   */\n      tag_348\n      jump\t// in\n    tag_506:\n        /* \"#utility.yul\":16045:16047   */\n      0x20\n        /* \"#utility.yul\":16040:16043   */\n      dup3\n        /* \"#utility.yul\":16036:16048   */\n      add\n        /* \"#utility.yul\":16029:16048   */\n      swap1\n      pop\n        /* \"#utility.yul\":15688:16054   */\n      swap2\n      swap1\n      pop\n      jump\t// out\n        /* \"#utility.yul\":16060:16479   */\n    tag_228:\n        /* \"#utility.yul\":16226:16230   */\n      0x00\n        /* \"#utility.yul\":16264:16266   */\n      0x20\n        /* \"#utility.yul\":16253:16262   */\n      dup3\n        /* \"#utility.yul\":16249:16267   */\n      add\n        /* \"#utility.yul\":16241:16267   */\n      swap1\n      pop\n        /* \"#utility.yul\":16313:16322   */\n      dup2\n        /* \"#utility.yul\":16307:16311   */\n      dup2\n        /* \"#utility.yul\":16303:16323   */\n      sub\n        /* \"#utility.yul\":16299:16300   */\n      0x00\n        /* \"#utility.yul\":16288:16297   */\n      dup4\n        /* \"#utility.yul\":16284:16301   */\n      add\n        /* \"#utility.yul\":16277:16324   */\n      mstore\n        /* \"#utility.yul\":16341:16472   */\n      tag_508\n        /* \"#utility.yul\":16467:16471   */\n      dup2\n        /* \"#utility.yul\":16341:16472   */\n      tag_349\n      jump\t// in\n    tag_508:\n        /* \"#utility.yul\":16333:16472   */\n      swap1\n      pop\n        /* \"#utility.yul\":16060:16479   */\n      swap2\n      swap1\n      pop\n      jump\t// out\n        /* \"#utility.yul\":16485:16710   */\n    tag_350:\n        /* \"#utility.yul\":16625:16659   */\n      0x436f6d6d697452657665616c3a3a72657665616c3a20416c7265616479207265\n        /* \"#utility.yul\":16621:16622   */\n      0x00\n        /* \"#utility.yul\":16613:16619   */\n      dup3\n        /* \"#utility.yul\":16609:16623   */\n      add\n        /* \"#utility.yul\":16602:16660   */\n      mstore\n        /* \"#utility.yul\":16694:16702   */\n      0x7665616c65640000000000000000000000000000000000000000000000000000\n        /* \"#utility.yul\":16689:16691   */\n      0x20\n        /* \"#utility.yul\":16681:16687   */\n      dup3\n        /* \"#utility.yul\":16677:16692   */\n      add\n        /* \"#utility.yul\":16670:16703   */\n      mstore\n        /* \"#utility.yul\":16485:16710   */\n      pop\n      jump\t// out\n        /* \"#utility.yul\":16716:17082   */\n    tag_351:\n        /* \"#utility.yul\":16858:16861   */\n      0x00\n        /* \"#utility.yul\":16879:16946   */\n      tag_511\n        /* \"#utility.yul\":16943:16945   */\n      0x26\n        /* \"#utility.yul\":16938:16941   */\n      dup4\n        /* \"#utility.yul\":16879:16946   */\n      tag_327\n      jump\t// in\n    tag_511:\n        /* \"#utility.yul\":16872:16946   */\n      swap2\n      pop\n        /* \"#utility.yul\":16955:17048   */\n      tag_512\n        /* \"#utility.yul\":17044:17047   */\n      dup3\n        /* \"#utility.yul\":16955:17048   */\n      tag_350\n      jump\t// in\n    tag_512:\n        /* \"#utility.yul\":17073:17075   */\n      0x40\n        /* \"#utility.yul\":17068:17071   */\n      dup3\n        /* \"#utility.yul\":17064:17076   */\n      add\n        /* \"#utility.yul\":17057:17076   */\n      swap1\n      pop\n        /* \"#utility.yul\":16716:17082   */\n      swap2\n      swap1\n      pop\n      jump\t// out\n        /* \"#utility.yul\":17088:17507   */\n    tag_246:\n        /* \"#utility.yul\":17254:17258   */\n      0x00\n        /* \"#utility.yul\":17292:17294   */\n      0x20\n        /* \"#utility.yul\":17281:17290   */\n      dup3\n        /* \"#utility.yul\":17277:17295   */\n      add\n        /* \"#utility.yul\":17269:17295   */\n      swap1\n      pop\n        /* \"#utility.yul\":17341:17350   */\n      dup2\n        /* \"#utility.yul\":17335:17339   */\n      dup2\n        /* \"#utility.yul\":17331:17351   */\n      sub\n        /* \"#utility.yul\":17327:17328   */\n      0x00\n        /* \"#utility.yul\":17316:17325   */\n      dup4\n        /* \"#utility.yul\":17312:17329   */\n      add\n        /* \"#utility.yul\":17305:17352   */\n      mstore\n        /* \"#utility.yul\":17369:17500   */\n      tag_514\n        /* \"#utility.yul\":17495:17499   */\n      dup2\n        /* \"#utility.yul\":17369:17500   */\n      tag_351\n      jump\t// in\n    tag_514:\n        /* \"#utility.yul\":17361:17500   */\n      swap1\n      pop\n        /* \"#utility.yul\":17088:17507   */\n      swap2\n      swap1\n      pop\n      jump\t// out\n        /* \"#utility.yul\":17513:17757   */\n    tag_352:\n        /* \"#utility.yul\":17653:17687   */\n      0x436f6d6d697452657665616c3a3a72657665616c3a2052657665616c65642068\n        /* \"#utility.yul\":17649:17650   */\n      0x00\n        /* \"#utility.yul\":17641:17647   */\n      dup3\n        /* \"#utility.yul\":17637:17651   */\n      add\n        /* \"#utility.yul\":17630:17688   */\n      mstore\n        /* \"#utility.yul\":17722:17749   */\n      0x61736820646f6573206e6f74206d6174636820636f6d6d697400000000000000\n        /* \"#utility.yul\":17717:17719   */\n      0x20\n        /* \"#utility.yul\":17709:17715   */\n      dup3\n        /* \"#utility.yul\":17705:17720   */\n      add\n        /* \"#utility.yul\":17698:17750   */\n      mstore\n        /* \"#utility.yul\":17513:17757   */\n      pop\n      jump\t// out\n        /* \"#utility.yul\":17763:18129   */\n    tag_353:\n        /* \"#utility.yul\":17905:17908   */\n      0x00\n        /* \"#utility.yul\":17926:17993   */\n      tag_517\n        /* \"#utility.yul\":17990:17992   */\n      0x39\n        /* \"#utility.yul\":17985:17988   */\n      dup4\n        /* \"#utility.yul\":17926:17993   */\n      tag_327\n      jump\t// in\n    tag_517:\n        /* \"#utility.yul\":17919:17993   */\n      swap2\n      pop\n        /* \"#utility.yul\":18002:18095   */\n      tag_518\n        /* \"#utility.yul\":18091:18094   */\n      dup3\n        /* \"#utility.yul\":18002:18095   */\n      tag_352\n      jump\t// in\n    tag_518:\n        /* \"#utility.yul\":18120:18122   */\n      0x40\n        /* \"#utility.yul\":18115:18118   */\n      dup3\n        /* \"#utility.yul\":18111:18123   */\n      add\n        /* \"#utility.yul\":18104:18123   */\n      swap1\n      pop\n        /* \"#utility.yul\":17763:18129   */\n      swap2\n      swap1\n      pop\n      jump\t// out\n        /* \"#utility.yul\":18135:18554   */\n    tag_250:\n        /* \"#utility.yul\":18301:18305   */\n      0x00\n        /* \"#utility.yul\":18339:18341   */\n      0x20\n        /* \"#utility.yul\":18328:18337   */\n      dup3\n        /* \"#utility.yul\":18324:18342   */\n      add\n        /* \"#utility.yul\":18316:18342   */\n      swap1\n      pop\n        /* \"#utility.yul\":18388:18397   */\n      dup2\n        /* \"#utility.yul\":18382:18386   */\n      dup2\n        /* \"#utility.yul\":18378:18398   */\n      sub\n        /* \"#utility.yul\":18374:18375   */\n      0x00\n        /* \"#utility.yul\":18363:18372   */\n      dup4\n        /* \"#utility.yul\":18359:18376   */\n      add\n        /* \"#utility.yul\":18352:18399   */\n      mstore\n        /* \"#utility.yul\":18416:18547   */\n      tag_520\n        /* \"#utility.yul\":18542:18546   */\n      dup2\n        /* \"#utility.yul\":18416:18547   */\n      tag_353\n      jump\t// in\n    tag_520:\n        /* \"#utility.yul\":18408:18547   */\n      swap1\n      pop\n        /* \"#utility.yul\":18135:18554   */\n      swap2\n      swap1\n      pop\n      jump\t// out\n        /* \"#utility.yul\":18560:18850   */\n    tag_354:\n        /* \"#utility.yul\":18700:18734   */\n      0x436f6d6d697452657665616c3a3a72657665616c3a2052657665616c20616e64\n        /* \"#utility.yul\":18696:18697   */\n      0x00\n        /* \"#utility.yul\":18688:18694   */\n      dup3\n        /* \"#utility.yul\":18684:18698   */\n      add\n        /* \"#utility.yul\":18677:18735   */\n      mstore\n        /* \"#utility.yul\":18769:18803   */\n      0x20636f6d6d69742068617070656e6564206f6e207468652073616d6520626c6f\n        /* \"#utility.yul\":18764:18766   */\n      0x20\n        /* \"#utility.yul\":18756:18762   */\n      dup3\n        /* \"#utility.yul\":18752:18767   */\n      add\n        /* \"#utility.yul\":18745:18804   */\n      mstore\n        /* \"#utility.yul\":18838:18842   */\n      0x636b000000000000000000000000000000000000000000000000000000000000\n        /* \"#utility.yul\":18833:18835   */\n      0x40\n        /* \"#utility.yul\":18825:18831   */\n      dup3\n        /* \"#utility.yul\":18821:18836   */\n      add\n        /* \"#utility.yul\":18814:18843   */\n      mstore\n        /* \"#utility.yul\":18560:18850   */\n      pop\n      jump\t// out\n        /* \"#utility.yul\":18856:19222   */\n    tag_355:\n        /* \"#utility.yul\":18998:19001   */\n      0x00\n        /* \"#utility.yul\":19019:19086   */\n      tag_523\n        /* \"#utility.yul\":19083:19085   */\n      0x42\n        /* \"#utility.yul\":19078:19081   */\n      dup4\n        /* \"#utility.yul\":19019:19086   */\n      tag_327\n      jump\t// in\n    tag_523:\n        /* \"#utility.yul\":19012:19086   */\n      swap2\n      pop\n        /* \"#utility.yul\":19095:19188   */\n      tag_524\n        /* \"#utility.yul\":19184:19187   */\n      dup3\n        /* \"#utility.yul\":19095:19188   */\n      tag_354\n      jump\t// in\n    tag_524:\n        /* \"#utility.yul\":19213:19215   */\n      0x60\n        /* \"#utility.yul\":19208:19211   */\n      dup3\n        /* \"#utility.yul\":19204:19216   */\n      add\n        /* \"#utility.yul\":19197:19216   */\n      swap1\n      pop\n        /* \"#utility.yul\":18856:19222   */\n      swap2\n      swap1\n      pop\n      jump\t// out\n        /* \"#utility.yul\":19228:19647   */\n    tag_253:\n        /* \"#utility.yul\":19394:19398   */\n      0x00\n        /* \"#utility.yul\":19432:19434   */\n      0x20\n        /* \"#utility.yul\":19421:19430   */\n      dup3\n        /* \"#utility.yul\":19417:19435   */\n      add\n        /* \"#utility.yul\":19409:19435   */\n      swap1\n      pop\n        /* \"#utility.yul\":19481:19490   */\n      dup2\n        /* \"#utility.yul\":19475:19479   */\n      dup2\n        /* \"#utility.yul\":19471:19491   */\n      sub\n        /* \"#utility.yul\":19467:19468   */\n      0x00\n        /* \"#utility.yul\":19456:19465   */\n      dup4\n        /* \"#utility.yul\":19452:19469   */\n      add\n        /* \"#utility.yul\":19445:19492   */\n      mstore\n        /* \"#utility.yul\":19509:19640   */\n      tag_526\n        /* \"#utility.yul\":19635:19639   */\n      dup2\n        /* \"#utility.yul\":19509:19640   */\n      tag_355\n      jump\t// in\n    tag_526:\n        /* \"#utility.yul\":19501:19640   */\n      swap1\n      pop\n        /* \"#utility.yul\":19228:19647   */\n      swap2\n      swap1\n      pop\n      jump\t// out\n        /* \"#utility.yul\":19653:19858   */\n    tag_255:\n        /* \"#utility.yul\":19692:19695   */\n      0x00\n        /* \"#utility.yul\":19711:19730   */\n      tag_528\n        /* \"#utility.yul\":19728:19729   */\n      dup3\n        /* \"#utility.yul\":19711:19730   */\n      tag_322\n      jump\t// in\n    tag_528:\n        /* \"#utility.yul\":19706:19730   */\n      swap2\n      pop\n        /* \"#utility.yul\":19744:19763   */\n      tag_529\n        /* \"#utility.yul\":19761:19762   */\n      dup4\n        /* \"#utility.yul\":19744:19763   */\n      tag_322\n      jump\t// in\n    tag_529:\n        /* \"#utility.yul\":19739:19763   */\n      swap3\n      pop\n        /* \"#utility.yul\":19786:19787   */\n      dup3\n        /* \"#utility.yul\":19783:19784   */\n      dup3\n        /* \"#utility.yul\":19779:19788   */\n      add\n        /* \"#utility.yul\":19772:19788   */\n      swap1\n      pop\n        /* \"#utility.yul\":19809:19827   */\n      0xffffffffffffffff\n        /* \"#utility.yul\":19804:19807   */\n      dup2\n        /* \"#utility.yul\":19801:19828   */\n      gt\n        /* \"#utility.yul\":19798:19851   */\n      iszero\n      tag_530\n      jumpi\n        /* \"#utility.yul\":19831:19849   */\n      tag_531\n      tag_334\n      jump\t// in\n    tag_531:\n        /* \"#utility.yul\":19798:19851   */\n    tag_530:\n        /* \"#utility.yul\":19653:19858   */\n      swap3\n      swap2\n      pop\n      pop\n      jump\t// out\n        /* \"#utility.yul\":19864:20090   */\n    tag_356:\n        /* \"#utility.yul\":20004:20038   */\n      0x436f6d6d697452657665616c3a3a72657665616c3a2052657665616c65642074\n        /* \"#utility.yul\":20000:20001   */\n      0x00\n        /* \"#utility.yul\":19992:19998   */\n      dup3\n        /* \"#utility.yul\":19988:20002   */\n      add\n        /* \"#utility.yul\":19981:20039   */\n      mstore\n        /* \"#utility.yul\":20073:20082   */\n      0x6f6f206c61746500000000000000000000000000000000000000000000000000\n        /* \"#utility.yul\":20068:20070   */\n      0x20\n        /* \"#utility.yul\":20060:20066   */\n      dup3\n        /* \"#utility.yul\":20056:20071   */\n      add\n        /* \"#utility.yul\":20049:20083   */\n      mstore\n        /* \"#utility.yul\":19864:20090   */\n      pop\n      jump\t// out\n        /* \"#utility.yul\":20096:20462   */\n    tag_357:\n        /* \"#utility.yul\":20238:20241   */\n      0x00\n        /* \"#utility.yul\":20259:20326   */\n      tag_534\n        /* \"#utility.yul\":20323:20325   */\n      0x27\n        /* \"#utility.yul\":20318:20321   */\n      dup4\n        /* \"#utility.yul\":20259:20326   */\n      tag_327\n      jump\t// in\n    tag_534:\n        /* \"#utility.yul\":20252:20326   */\n      swap2\n      pop\n        /* \"#utility.yul\":20335:20428   */\n      tag_535\n        /* \"#utility.yul\":20424:20427   */\n      dup3\n        /* \"#utility.yul\":20335:20428   */\n      tag_356\n      jump\t// in\n    tag_535:\n        /* \"#utility.yul\":20453:20455   */\n      0x40\n        /* \"#utility.yul\":20448:20451   */\n      dup3\n        /* \"#utility.yul\":20444:20456   */\n      add\n        /* \"#utility.yul\":20437:20456   */\n      swap1\n      pop\n        /* \"#utility.yul\":20096:20462   */\n      swap2\n      swap1\n      pop\n      jump\t// out\n        /* \"#utility.yul\":20468:20887   */\n    tag_258:\n        /* \"#utility.yul\":20634:20638   */\n      0x00\n        /* \"#utility.yul\":20672:20674   */\n      0x20\n        /* \"#utility.yul\":20661:20670   */\n      dup3\n        /* \"#utility.yul\":20657:20675   */\n      add\n        /* \"#utility.yul\":20649:20675   */\n      swap1\n      pop\n        /* \"#utility.yul\":20721:20730   */\n      dup2\n        /* \"#utility.yul\":20715:20719   */\n      dup2\n        /* \"#utility.yul\":20711:20731   */\n      sub\n        /* \"#utility.yul\":20707:20708   */\n      0x00\n        /* \"#utility.yul\":20696:20705   */\n      dup4\n        /* \"#utility.yul\":20692:20709   */\n      add\n        /* \"#utility.yul\":20685:20732   */\n      mstore\n        /* \"#utility.yul\":20749:20880   */\n      tag_537\n        /* \"#utility.yul\":20875:20879   */\n      dup2\n        /* \"#utility.yul\":20749:20880   */\n      tag_357\n      jump\t// in\n    tag_537:\n        /* \"#utility.yul\":20741:20880   */\n      swap1\n      pop\n        /* \"#utility.yul\":20468:20887   */\n      swap2\n      swap1\n      pop\n      jump\t// out\n        /* \"#utility.yul\":20893:21290   */\n    tag_260:\n        /* \"#utility.yul\":21033:21036   */\n      0x00\n        /* \"#utility.yul\":21048:21123   */\n      tag_539\n        /* \"#utility.yul\":21119:21122   */\n      dup3\n        /* \"#utility.yul\":21110:21116   */\n      dup6\n        /* \"#utility.yul\":21048:21123   */\n      tag_336\n      jump\t// in\n    tag_539:\n        /* \"#utility.yul\":21148:21150   */\n      0x20\n        /* \"#utility.yul\":21143:21146   */\n      dup3\n        /* \"#utility.yul\":21139:21151   */\n      add\n        /* \"#utility.yul\":21132:21151   */\n      swap2\n      pop\n        /* \"#utility.yul\":21161:21236   */\n      tag_540\n        /* \"#utility.yul\":21232:21235   */\n      dup3\n        /* \"#utility.yul\":21223:21229   */\n      dup5\n        /* \"#utility.yul\":21161:21236   */\n      tag_336\n      jump\t// in\n    tag_540:\n        /* \"#utility.yul\":21261:21263   */\n      0x20\n        /* \"#utility.yul\":21256:21259   */\n      dup3\n        /* \"#utility.yul\":21252:21264   */\n      add\n        /* \"#utility.yul\":21245:21264   */\n      swap2\n      pop\n        /* \"#utility.yul\":21281:21284   */\n      dup2\n        /* \"#utility.yul\":21274:21284   */\n      swap1\n      pop\n        /* \"#utility.yul\":20893:21290   */\n      swap4\n      swap3\n      pop\n      pop\n      pop\n      jump\t// out\n        /* \"#utility.yul\":21296:21472   */\n    tag_262:\n        /* \"#utility.yul\":21328:21329   */\n      0x00\n        /* \"#utility.yul\":21345:21365   */\n      tag_542\n        /* \"#utility.yul\":21363:21364   */\n      dup3\n        /* \"#utility.yul\":21345:21365   */\n      tag_305\n      jump\t// in\n    tag_542:\n        /* \"#utility.yul\":21340:21365   */\n      swap2\n      pop\n        /* \"#utility.yul\":21379:21399   */\n      tag_543\n        /* \"#utility.yul\":21397:21398   */\n      dup4\n        /* \"#utility.yul\":21379:21399   */\n      tag_305\n      jump\t// in\n    tag_543:\n        /* \"#utility.yul\":21374:21399   */\n      swap3\n      pop\n        /* \"#utility.yul\":21418:21419   */\n      dup3\n        /* \"#utility.yul\":21408:21443   */\n      tag_544\n      jumpi\n        /* \"#utility.yul\":21423:21441   */\n      tag_545\n      tag_341\n      jump\t// in\n    tag_545:\n        /* \"#utility.yul\":21408:21443   */\n    tag_544:\n        /* \"#utility.yul\":21464:21465   */\n      dup3\n        /* \"#utility.yul\":21461:21462   */\n      dup3\n        /* \"#utility.yul\":21457:21466   */\n      mod\n        /* \"#utility.yul\":21452:21466   */\n      swap1\n      pop\n        /* \"#utility.yul\":21296:21472   */\n      swap3\n      swap2\n      pop\n      pop\n      jump\t// out\n        /* \"#utility.yul\":21478:21920   */\n    tag_264:\n        /* \"#utility.yul\":21627:21631   */\n      0x00\n        /* \"#utility.yul\":21665:21667   */\n      0x60\n        /* \"#utility.yul\":21654:21663   */\n      dup3\n        /* \"#utility.yul\":21650:21668   */\n      add\n        /* \"#utility.yul\":21642:21668   */\n      swap1\n      pop\n        /* \"#utility.yul\":21678:21749   */\n      tag_547\n        /* \"#utility.yul\":21746:21747   */\n      0x00\n        /* \"#utility.yul\":21735:21744   */\n      dup4\n        /* \"#utility.yul\":21731:21748   */\n      add\n        /* \"#utility.yul\":21722:21728   */\n      dup7\n        /* \"#utility.yul\":21678:21749   */\n      tag_326\n      jump\t// in\n    tag_547:\n        /* \"#utility.yul\":21759:21831   */\n      tag_548\n        /* \"#utility.yul\":21827:21829   */\n      0x20\n        /* \"#utility.yul\":21816:21825   */\n      dup4\n        /* \"#utility.yul\":21812:21830   */\n      add\n        /* \"#utility.yul\":21803:21809   */\n      dup6\n        /* \"#utility.yul\":21759:21831   */\n      tag_319\n      jump\t// in\n    tag_548:\n        /* \"#utility.yul\":21841:21913   */\n      tag_549\n        /* \"#utility.yul\":21909:21911   */\n      0x40\n        /* \"#utility.yul\":21898:21907   */\n      dup4\n        /* \"#utility.yul\":21894:21912   */\n      add\n        /* \"#utility.yul\":21885:21891   */\n      dup5\n        /* \"#utility.yul\":21841:21913   */\n      tag_306\n      jump\t// in\n    tag_549:\n        /* \"#utility.yul\":21478:21920   */\n      swap5\n      swap4\n      pop\n      pop\n      pop\n      pop\n      jump\t// out\n        /* \"#utility.yul\":21926:22364   */\n    tag_299:\n        /* \"#utility.yul\":22073:22077   */\n      0x00\n        /* \"#utility.yul\":22111:22113   */\n      0x60\n        /* \"#utility.yul\":22100:22109   */\n      dup3\n        /* \"#utility.yul\":22096:22114   */\n      add\n        /* \"#utility.yul\":22088:22114   */\n      swap1\n      pop\n        /* \"#utility.yul\":22124:22195   */\n      tag_551\n        /* \"#utility.yul\":22192:22193   */\n      0x00\n        /* \"#utility.yul\":22181:22190   */\n      dup4\n        /* \"#utility.yul\":22177:22194   */\n      add\n        /* \"#utility.yul\":22168:22174   */\n      dup7\n        /* \"#utility.yul\":22124:22195   */\n      tag_326\n      jump\t// in\n    tag_551:\n        /* \"#utility.yul\":22205:22277   */\n      tag_552\n        /* \"#utility.yul\":22273:22275   */\n      0x20\n        /* \"#utility.yul\":22262:22271   */\n      dup4\n        /* \"#utility.yul\":22258:22276   */\n      add\n        /* \"#utility.yul\":22249:22255   */\n      dup6\n        /* \"#utility.yul\":22205:22277   */\n      tag_319\n      jump\t// in\n    tag_552:\n        /* \"#utility.yul\":22287:22357   */\n      tag_553\n        /* \"#utility.yul\":22353:22355   */\n      0x40\n        /* \"#utility.yul\":22342:22351   */\n      dup4\n        /* \"#utility.yul\":22338:22356   */\n      add\n        /* \"#utility.yul\":22329:22335   */\n      dup5\n        /* \"#utility.yul\":22287:22357   */\n      tag_323\n      jump\t// in\n    tag_553:\n        /* \"#utility.yul\":21926:22364   */\n      swap5\n      swap4\n      pop\n      pop\n      pop\n      pop\n      jump\t// out\n\n    auxdata: 0xa2646970667358221220daf476a45fa4013fb3e94026f673acd50146d0ba7184964684f788e0165ec84664736f6c634300081a0033\n}\n",
				"bytecode": {
					"linkReferences": {},
					"object": "608060405260645f806101000a81548160ff021916908360ff1602179055505f6003555f6004555f6009555f600a55603c600b5542600c55348015610042575f80fd5b506001600d5f735b38da6a701c568545dcfcb03fcb875f56beddc473ffffffffffffffffffffffffffffffffffffffff1673ffffffffffffffffffffffffffffffffffffffff1681526020019081526020015f205f6101000a81548160ff0219169083151502179055506001600d5f73ab8483f64d9c6d1ecf9b849ae677dd3315835cb273ffffffffffffffffffffffffffffffffffffffff1673ffffffffffffffffffffffffffffffffffffffff1681526020019081526020015f205f6101000a81548160ff0219169083151502179055506001600d5f734b20993bc481177ec7e8f571cecae8a9e22c02db73ffffffffffffffffffffffffffffffffffffffff1673ffffffffffffffffffffffffffffffffffffffff1681526020019081526020015f205f6101000a81548160ff0219169083151502179055506001600d5f7378731d3ca6b7e34ac0f824c42a7cc18a495cabab73ffffffffffffffffffffffffffffffffffffffff1673ffffffffffffffffffffffffffffffffffffffff1681526020019081526020015f205f6101000a81548160ff021916908315150217905550612699806101f45f395ff3fe60806040526004361061011e575f3560e01c806378e979251161009f578063bc06b8cd11610063578063bc06b8cd146103be578063c876e615146103e8578063d891f96914610412578063d97c84161461043a578063f71d96cb146104645761011e565b806378e97925146102c65780637b43a8e6146102f057806389f71d531461032e57806390d5d0c314610358578063a040478d146103825761011e565b80633e2b58e0116100e65780633e2b58e0146101f857806343cdd43814610222578063558d51c61461025e57806365ce0ac6146102745780636ac5db191461029c5761011e565b8063086f781514610122578063190cf7451461014c578063228cb7331461018857806327b5db8a146101b25780633cf5040a146101bc575b5f80fd5b34801561012d575f80fd5b506101366104a0565b6040516101439190611ab3565b60405180910390f35b348015610157575f80fd5b50610172600480360381019061016d9190611b2a565b6104a6565b60405161017f9190611b6f565b60405180910390f35b348015610193575f80fd5b5061019c6104c3565b6040516101a99190611ab3565b60405180910390f35b6101ba6104c9565b005b3480156101c7575f80fd5b506101e260048036038101906101dd9190611bbb565b61081d565b6040516101ef9190611bf5565b60405180910390f35b348015610203575f80fd5b5061020c61084c565b6040516102199190611ab3565b60405180910390f35b34801561022d575f80fd5b5061024860048036038101906102439190611b2a565b610852565b6040516102559190611b6f565b60405180910390f35b348015610269575f80fd5b5061027261086f565b005b34801561027f575f80fd5b5061029a60048036038101906102959190611bbb565b610cc7565b005b3480156102a7575f80fd5b506102b0610e66565b6040516102bd9190611c29565b60405180910390f35b3480156102d1575f80fd5b506102da610e76565b6040516102e79190611ab3565b60405180910390f35b3480156102fb575f80fd5b5061031660048036038101906103119190611b2a565b610e7c565b60405161032593929190611c64565b60405180910390f35b348015610339575f80fd5b50610342610ec2565b60405161034f9190611ab3565b60405180910390f35b348015610363575f80fd5b5061036c610ec8565b6040516103799190611ab3565b60405180910390f35b34801561038d575f80fd5b506103a860048036038101906103a39190611b2a565b610ece565b6040516103b59190611ab3565b60405180910390f35b3480156103c9575f80fd5b506103d2610ee3565b6040516103df9190611ab3565b60405180910390f35b3480156103f3575f80fd5b506103fc610ef7565b6040516104099190611ab3565b60405180910390f35b34801561041d575f80fd5b5061043860048036038101906104339190611bbb565b610efd565b005b348015610445575f80fd5b5061044e611140565b60405161045b9190611ab3565b60405180910390f35b34801561046f575f80fd5b5061048a60048036038101906104859190611cc3565b611160565b6040516104979190611cfd565b60405180910390f35b60095481565b6006602052805f5260405f205f915054906101000a900460ff1681565b60045481565b60026003541061050e576040517f08c379a000000000000000000000000000000000000000000000000000000000815260040161050590611d70565b60405180910390fd5b600d5f3373ffffffffffffffffffffffffffffffffffffffff1673ffffffffffffffffffffffffffffffffffffffff1681526020019081526020015f205f9054906101000a900460ff16610597576040517f08c379a000000000000000000000000000000000000000000000000000000000815260040161058e90611dd8565b60405180910390fd5b5f60035411156106145760075f815481106105b5576105b4611df6565b5b905f5260205f20015f9054906101000a900473ffffffffffffffffffffffffffffffffffffffff1673ffffffffffffffffffffffffffffffffffffffff163373ffffffffffffffffffffffffffffffffffffffff1603610613575f80fd5b5b670de0b6b3a7640000341461065e576040517f08c379a000000000000000000000000000000000000000000000000000000000815260040161065590611e6d565b60405180910390fd5b3460045f82825461066f9190611eb8565b92505081905550600160065f3373ffffffffffffffffffffffffffffffffffffffff1673ffffffffffffffffffffffffffffffffffffffff1681526020019081526020015f205f6101000a81548160ff021916908315150217905550600733908060018154018082558091505060019003905f5260205f20015f9091909190916101000a81548173ffffffffffffffffffffffffffffffffffffffff021916908373ffffffffffffffffffffffffffffffffffffffff1602179055506005805f3373ffffffffffffffffffffffffffffffffffffffff1673ffffffffffffffffffffffffffffffffffffffff1681526020019081526020015f20819055505f60085f3373ffffffffffffffffffffffffffffffffffffffff1673ffffffffffffffffffffffffffffffffffffffff1681526020019081526020015f205f6101000a81548160ff02191690831515021790555060035f8154809291906107d390611eeb565b91905055507f313f9ebdca9d25ee9456dd69022e3324975c8261b7a8b134881905d3b6964d3c3360035460405161080b929190611f32565b60405180910390a161081b61119b565b565b5f8160405160200161082f9190611f79565b604051602081830303815290604052805190602001209050919050565b600b5481565b6008602052805f5260405f205f915054906101000a900460ff1681565b6001600354101561087e575f80fd5b600b54610889610ee3565b116108c9576040517f08c379a00000000000000000000000000000000000000000000000000000000081526004016108c090612003565b60405180910390fd5b60045447101561090e576040517f08c379a000000000000000000000000000000000000000000000000000000000815260040161090590612091565b60405180910390fd5b5f60075f8154811061092357610922611df6565b5b905f5260205f20015f9054906101000a900473ffffffffffffffffffffffffffffffffffffffff1690506001600354036109aa578073ffffffffffffffffffffffffffffffffffffffff166108fc60045490811502906040515f60405180830381858888f1935050505015801561099c573d5f803e3d5ffd5b506109a56111a4565b610cc4565b600260035403610cc3575f60076001815481106109ca576109c9611df6565b5b905f5260205f20015f9054906101000a900473ffffffffffffffffffffffffffffffffffffffff1690505f6009541480610a1357506002600954148015610a1257505f600a54145b5b15610ac9578173ffffffffffffffffffffffffffffffffffffffff166108fc6002600454610a4191906120dc565b90811502906040515f60405180830381858888f19350505050158015610a69573d5f803e3d5ffd5b508073ffffffffffffffffffffffffffffffffffffffff166108fc6002600454610a9391906120dc565b90811502906040515f60405180830381858888f19350505050158015610abb573d5f803e3d5ffd5b50610ac46111a4565b610cc1565b600160095403610bc7576001151560085f8473ffffffffffffffffffffffffffffffffffffffff1673ffffffffffffffffffffffffffffffffffffffff1681526020019081526020015f205f9054906101000a900460ff16151503610b73578173ffffffffffffffffffffffffffffffffffffffff166108fc60045490811502906040515f60405180830381858888f19350505050158015610b6d573d5f803e3d5ffd5b50610bba565b8073ffffffffffffffffffffffffffffffffffffffff166108fc60045490811502906040515f60405180830381858888f19350505050158015610bb8573d5f803e3d5ffd5b505b610bc26111a4565b610cc0565b6002600954148015610bdb57506001600a54145b15610cbf576005805f8473ffffffffffffffffffffffffffffffffffffffff1673ffffffffffffffffffffffffffffffffffffffff1681526020019081526020015f205414610c6f578173ffffffffffffffffffffffffffffffffffffffff166108fc60045490811502906040515f60405180830381858888f19350505050158015610c69573d5f803e3d5ffd5b50610cb6565b8073ffffffffffffffffffffffffffffffffffffffff166108fc60045490811502906040515f60405180830381858888f19350505050158015610cb4573d5f803e3d5ffd5b505b610cbe6111a4565b5b5b5b505b5b50565b600260035414610cd5575f80fd5b600260095414610ce3575f80fd5b5f81601f60208110610cf857610cf7611df6565b5b1a60f81b60f81c60ff1690505f8110158015610d15575060048111155b610d54576040517f08c379a0000000000000000000000000000000000000000000000000000000008152600401610d4b9061217c565b60405180910390fd5b60085f3373ffffffffffffffffffffffffffffffffffffffff1673ffffffffffffffffffffffffffffffffffffffff1681526020019081526020015f205f9054906101000a900460ff16610ddd576040517f08c379a0000000000000000000000000000000000000000000000000000000008152600401610dd4906121e4565b60405180910390fd5b610de6826111cf565b8060055f3373ffffffffffffffffffffffffffffffffffffffff1673ffffffffffffffffffffffffffffffffffffffff1681526020019081526020015f2081905550600a5f815480929190610e3a90611eeb565b9190505550610e4761119b565b6002600a5403610e6257610e5961158d565b610e616111a4565b5b5050565b5f8054906101000a900460ff1681565b60025481565b6001602052805f5260405f205f91509050805f015490806001015f9054906101000a900467ffffffffffffffff16908060010160089054906101000a900460ff16905083565b600c5481565b60035481565b6005602052805f5260405f205f915090505481565b5f60025442610ef29190612202565b905090565b600a5481565b600260035414610f42576040517f08c379a0000000000000000000000000000000000000000000000000000000008152600401610f399061227f565b60405180910390fd5b600260095410610f50575f80fd5b60065f3373ffffffffffffffffffffffffffffffffffffffff1673ffffffffffffffffffffffffffffffffffffffff1681526020019081526020015f205f9054906101000a900460ff16610fa2575f80fd5b5f151560085f3373ffffffffffffffffffffffffffffffffffffffff1673ffffffffffffffffffffffffffffffffffffffff1681526020019081526020015f205f9054906101000a900460ff16151514611031576040517f08c379a0000000000000000000000000000000000000000000000000000000008152600401611028906122e7565b60405180910390fd5b5f60065f3373ffffffffffffffffffffffffffffffffffffffff1673ffffffffffffffffffffffffffffffffffffffff1681526020019081526020015f205f6101000a81548160ff021916908315150217905550600160085f3373ffffffffffffffffffffffffffffffffffffffff1673ffffffffffffffffffffffffffffffffffffffff1681526020019081526020015f205f6101000a81548160ff0219169083151502179055506110e381611890565b60095f8154809291906110f590611eeb565b91905055507f3928cc5abcbb1c0b781bebbc4f1e9b156f6d392796c791cc0937db5e42677ff73360095460405161112d929190611f32565b60405180910390a161113d61119b565b50565b5f603c600254426111519190612202565b61115b91906120dc565b905090565b6007818154811061116f575f80fd5b905f5260205f20015f915054906101000a900473ffffffffffffffffffffffffffffffffffffffff1681565b42600281905550565b60075f6111b19190611a62565b5f6003819055505f6009819055505f600a819055505f600481905550565b5f151560015f3373ffffffffffffffffffffffffffffffffffffffff1673ffffffffffffffffffffffffffffffffffffffff1681526020019081526020015f2060010160089054906101000a900460ff16151514611262576040517f08c379a000000000000000000000000000000000000000000000000000000000815260040161125990612375565b60405180910390fd5b6001805f3373ffffffffffffffffffffffffffffffffffffffff1673ffffffffffffffffffffffffffffffffffffffff1681526020019081526020015f2060010160086101000a81548160ff02191690831515021790555060015f3373ffffffffffffffffffffffffffffffffffffffff1673ffffffffffffffffffffffffffffffffffffffff1681526020019081526020015f205f01546113038261081d565b14611343576040517f08c379a000000000000000000000000000000000000000000000000000000000815260040161133a90612403565b60405180910390fd5b60015f3373ffffffffffffffffffffffffffffffffffffffff1673ffffffffffffffffffffffffffffffffffffffff1681526020019081526020015f206001015f9054906101000a900467ffffffffffffffff1667ffffffffffffffff164367ffffffffffffffff16116113ec576040517f08c379a00000000000000000000000000000000000000000000000000000000081526004016113e3906124b7565b60405180910390fd5b60fa60015f3373ffffffffffffffffffffffffffffffffffffffff1673ffffffffffffffffffffffffffffffffffffffff1681526020019081526020015f206001015f9054906101000a900467ffffffffffffffff1661144c91906124d5565b67ffffffffffffffff164367ffffffffffffffff1611156114a2576040517f08c379a000000000000000000000000000000000000000000000000000000000815260040161149990612580565b60405180910390fd5b5f60015f3373ffffffffffffffffffffffffffffffffffffffff1673ffffffffffffffffffffffffffffffffffffffff1681526020019081526020015f206001015f9054906101000a900467ffffffffffffffff1667ffffffffffffffff164090505f805f9054906101000a900460ff1660ff16828460405160200161152992919061259e565b604051602081830303815290604052805190602001205f1c61154b91906125c9565b90507fbc016dd1cadeaefcb851af7a0a93532e0023d536894b730801f7bcfe7065bcc2338483604051611580939291906125f9565b60405180910390a1505050565b5f60055f60075f815481106115a5576115a4611df6565b5b905f5260205f20015f9054906101000a900473ffffffffffffffffffffffffffffffffffffffff1673ffffffffffffffffffffffffffffffffffffffff1673ffffffffffffffffffffffffffffffffffffffff1681526020019081526020015f205490505f60055f600760018154811061162257611621611df6565b5b905f5260205f20015f9054906101000a900473ffffffffffffffffffffffffffffffffffffffff1673ffffffffffffffffffffffffffffffffffffffff1673ffffffffffffffffffffffffffffffffffffffff1681526020019081526020015f205490505f60075f8154811061169b5761169a611df6565b5b905f5260205f20015f9054906101000a900473ffffffffffffffffffffffffffffffffffffffff1690505f60076001815481106116db576116da611df6565b5b905f5260205f20015f9054906101000a900473ffffffffffffffffffffffffffffffffffffffff1690508284036117b5578173ffffffffffffffffffffffffffffffffffffffff166108fc600260045461173591906120dc565b90811502906040515f60405180830381858888f1935050505015801561175d573d5f803e3d5ffd5b508073ffffffffffffffffffffffffffffffffffffffff166108fc600260045461178791906120dc565b90811502906040515f60405180830381858888f193505050501580156117af573d5f803e3d5ffd5b5061188a565b8260056001866117c59190611eb8565b6117cf91906125c9565b14806117f257508260056003866117e69190611eb8565b6117f091906125c9565b145b15611842578073ffffffffffffffffffffffffffffffffffffffff166108fc60045490811502906040515f60405180830381858888f1935050505015801561183c573d5f803e3d5ffd5b50611889565b8173ffffffffffffffffffffffffffffffffffffffff166108fc60045490811502906040515f60405180830381858888f19350505050158015611887573d5f803e3d5ffd5b505b5b50505050565b8060015f3373ffffffffffffffffffffffffffffffffffffffff1673ffffffffffffffffffffffffffffffffffffffff1681526020019081526020015f205f01819055504360015f3373ffffffffffffffffffffffffffffffffffffffff1673ffffffffffffffffffffffffffffffffffffffff1681526020019081526020015f206001015f6101000a81548167ffffffffffffffff021916908367ffffffffffffffff1602179055505f60015f3373ffffffffffffffffffffffffffffffffffffffff1673ffffffffffffffffffffffffffffffffffffffff1681526020019081526020015f2060010160086101000a81548160ff0219169083151502179055507f3c1a1f8f38335b17f751c6da4ba7d1865f26b3997535176f5080de9fad8916033360015f3373ffffffffffffffffffffffffffffffffffffffff1673ffffffffffffffffffffffffffffffffffffffff1681526020019081526020015f205f015460015f3373ffffffffffffffffffffffffffffffffffffffff1673ffffffffffffffffffffffffffffffffffffffff1681526020019081526020015f206001015f9054906101000a900467ffffffffffffffff16604051611a579392919061262e565b60405180910390a150565b5080545f8255905f5260205f2090810190611a7d9190611a80565b50565b5b80821115611a97575f815f905550600101611a81565b5090565b5f819050919050565b611aad81611a9b565b82525050565b5f602082019050611ac65f830184611aa4565b92915050565b5f80fd5b5f73ffffffffffffffffffffffffffffffffffffffff82169050919050565b5f611af982611ad0565b9050919050565b611b0981611aef565b8114611b13575f80fd5b50565b5f81359050611b2481611b00565b92915050565b5f60208284031215611b3f57611b3e611acc565b5b5f611b4c84828501611b16565b91505092915050565b5f8115159050919050565b611b6981611b55565b82525050565b5f602082019050611b825f830184611b60565b92915050565b5f819050919050565b611b9a81611b88565b8114611ba4575f80fd5b50565b5f81359050611bb581611b91565b92915050565b5f60208284031215611bd057611bcf611acc565b5b5f611bdd84828501611ba7565b91505092915050565b611bef81611b88565b82525050565b5f602082019050611c085f830184611be6565b92915050565b5f60ff82169050919050565b611c2381611c0e565b82525050565b5f602082019050611c3c5f830184611c1a565b92915050565b5f67ffffffffffffffff82169050919050565b611c5e81611c42565b82525050565b5f606082019050611c775f830186611be6565b611c846020830185611c55565b611c916040830184611b60565b949350505050565b611ca281611a9b565b8114611cac575f80fd5b50565b5f81359050611cbd81611c99565b92915050565b5f60208284031215611cd857611cd7611acc565b5b5f611ce584828501611caf565b91505092915050565b611cf781611aef565b82525050565b5f602082019050611d105f830184611cee565b92915050565b5f82825260208201905092915050565b7f47616d6520616c726561647920686173203220706c61796572732e00000000005f82015250565b5f611d5a601b83611d16565b9150611d6582611d26565b602082019050919050565b5f6020820190508181035f830152611d8781611d4e565b9050919050565b7f596f7520617265206e6f7420616c6c6f77656420746f20706c61792e000000005f82015250565b5f611dc2601c83611d16565b9150611dcd82611d8e565b602082019050919050565b5f6020820190508181035f830152611def81611db6565b9050919050565b7f4e487b71000000000000000000000000000000000000000000000000000000005f52603260045260245ffd5b7f506179203120657468657220746f20706c61792067616d652e000000000000005f82015250565b5f611e57601983611d16565b9150611e6282611e23565b602082019050919050565b5f6020820190508181035f830152611e8481611e4b565b9050919050565b7f4e487b71000000000000000000000000000000000000000000000000000000005f52601160045260245ffd5b5f611ec282611a9b565b9150611ecd83611a9b565b9250828201905080821115611ee557611ee4611e8b565b5b92915050565b5f611ef582611a9b565b91507fffffffffffffffffffffffffffffffffffffffffffffffffffffffffffffffff8203611f2757611f26611e8b565b5b600182019050919050565b5f604082019050611f455f830185611cee565b611f526020830184611aa4565b9392505050565b5f819050919050565b611f73611f6e82611b88565b611f59565b82525050565b5f611f848284611f62565b60208201915081905092915050565b7f596f75206e65656420746f20776169742031206d696e75746520666f722077695f8201527f7468647261772e00000000000000000000000000000000000000000000000000602082015250565b5f611fed602783611d16565b9150611ff882611f93565b604082019050919050565b5f6020820190508181035f83015261201a81611fe1565b9050919050565b7f436f6e74726163742068617320696e73756666696369656e742062616c616e635f8201527f652e000000000000000000000000000000000000000000000000000000000000602082015250565b5f61207b602283611d16565b915061208682612021565b604082019050919050565b5f6020820190508181035f8301526120a88161206f565b9050919050565b7f4e487b71000000000000000000000000000000000000000000000000000000005f52601260045260245ffd5b5f6120e682611a9b565b91506120f183611a9b565b925082612101576121006120af565b5b828204905092915050565b7f596f75722063686f696365206e6565647320746f206265206265747765656e205f8201527f3020746f20340000000000000000000000000000000000000000000000000000602082015250565b5f612166602683611d16565b91506121718261210c565b604082019050919050565b5f6020820190508181035f8301526121938161215a565b9050919050565b7f596f75206e65656420746f20636f6d6d69742066697273742e000000000000005f82015250565b5f6121ce601983611d16565b91506121d98261219a565b602082019050919050565b5f6020820190508181035f8301526121fb816121c2565b9050919050565b5f61220c82611a9b565b915061221783611a9b565b925082820390508181111561222f5761222e611e8b565b5b92915050565b7f47616d65206e65656473203220706c61796572732e00000000000000000000005f82015250565b5f612269601583611d16565b915061227482612235565b602082019050919050565b5f6020820190508181035f8301526122968161225d565b9050919050565b7f596f7520616c726561647920636f6d6d697465642e00000000000000000000005f82015250565b5f6122d1601583611d16565b91506122dc8261229d565b602082019050919050565b5f6020820190508181035f8301526122fe816122c5565b9050919050565b7f436f6d6d697452657665616c3a3a72657665616c3a20416c72656164792072655f8201527f7665616c65640000000000000000000000000000000000000000000000000000602082015250565b5f61235f602683611d16565b915061236a82612305565b604082019050919050565b5f6020820190508181035f83015261238c81612353565b9050919050565b7f436f6d6d697452657665616c3a3a72657665616c3a2052657665616c656420685f8201527f61736820646f6573206e6f74206d6174636820636f6d6d697400000000000000602082015250565b5f6123ed603983611d16565b91506123f882612393565b604082019050919050565b5f6020820190508181035f83015261241a816123e1565b9050919050565b7f436f6d6d697452657665616c3a3a72657665616c3a2052657665616c20616e645f8201527f20636f6d6d69742068617070656e6564206f6e207468652073616d6520626c6f60208201527f636b000000000000000000000000000000000000000000000000000000000000604082015250565b5f6124a1604283611d16565b91506124ac82612421565b606082019050919050565b5f6020820190508181035f8301526124ce81612495565b9050919050565b5f6124df82611c42565b91506124ea83611c42565b9250828201905067ffffffffffffffff81111561250a57612509611e8b565b5b92915050565b7f436f6d6d697452657665616c3a3a72657665616c3a2052657665616c656420745f8201527f6f6f206c61746500000000000000000000000000000000000000000000000000602082015250565b5f61256a602783611d16565b915061257582612510565b604082019050919050565b5f6020820190508181035f8301526125978161255e565b9050919050565b5f6125a98285611f62565b6020820191506125b98284611f62565b6020820191508190509392505050565b5f6125d382611a9b565b91506125de83611a9b565b9250826125ee576125ed6120af565b5b828206905092915050565b5f60608201905061260c5f830186611cee565b6126196020830185611be6565b6126266040830184611aa4565b949350505050565b5f6060820190506126415f830186611cee565b61264e6020830185611be6565b61265b6040830184611c55565b94935050505056fea2646970667358221220daf476a45fa4013fb3e94026f673acd50146d0ba7184964684f788e0165ec84664736f6c634300081a0033",
					"opcodes": "PUSH1 0x80 PUSH1 0x40 MSTORE PUSH1 0x64 PUSH0 DUP1 PUSH2 0x100 EXP DUP2 SLOAD DUP2 PUSH1 0xFF MUL NOT AND SWAP1 DUP4 PUSH1 0xFF AND MUL OR SWAP1 SSTORE POP PUSH0 PUSH1 0x3 SSTORE PUSH0 PUSH1 0x4 SSTORE PUSH0 PUSH1 0x9 SSTORE PUSH0 PUSH1 0xA SSTORE PUSH1 0x3C PUSH1 0xB SSTORE TIMESTAMP PUSH1 0xC SSTORE CALLVALUE DUP1 ISZERO PUSH2 0x42 JUMPI PUSH0 DUP1 REVERT JUMPDEST POP PUSH1 0x1 PUSH1 0xD PUSH0 PUSH20 0x5B38DA6A701C568545DCFCB03FCB875F56BEDDC4 PUSH20 0xFFFFFFFFFFFFFFFFFFFFFFFFFFFFFFFFFFFFFFFF AND PUSH20 0xFFFFFFFFFFFFFFFFFFFFFFFFFFFFFFFFFFFFFFFF AND DUP2 MSTORE PUSH1 0x20 ADD SWAP1 DUP2 MSTORE PUSH1 0x20 ADD PUSH0 KECCAK256 PUSH0 PUSH2 0x100 EXP DUP2 SLOAD DUP2 PUSH1 0xFF MUL NOT AND SWAP1 DUP4 ISZERO ISZERO MUL OR SWAP1 SSTORE POP PUSH1 0x1 PUSH1 0xD PUSH0 PUSH20 0xAB8483F64D9C6D1ECF9B849AE677DD3315835CB2 PUSH20 0xFFFFFFFFFFFFFFFFFFFFFFFFFFFFFFFFFFFFFFFF AND PUSH20 0xFFFFFFFFFFFFFFFFFFFFFFFFFFFFFFFFFFFFFFFF AND DUP2 MSTORE PUSH1 0x20 ADD SWAP1 DUP2 MSTORE PUSH1 0x20 ADD PUSH0 KECCAK256 PUSH0 PUSH2 0x100 EXP DUP2 SLOAD DUP2 PUSH1 0xFF MUL NOT AND SWAP1 DUP4 ISZERO ISZERO MUL OR SWAP1 SSTORE POP PUSH1 0x1 PUSH1 0xD PUSH0 PUSH20 0x4B20993BC481177EC7E8F571CECAE8A9E22C02DB PUSH20 0xFFFFFFFFFFFFFFFFFFFFFFFFFFFFFFFFFFFFFFFF AND PUSH20 0xFFFFFFFFFFFFFFFFFFFFFFFFFFFFFFFFFFFFFFFF AND DUP2 MSTORE PUSH1 0x20 ADD SWAP1 DUP2 MSTORE PUSH1 0x20 ADD PUSH0 KECCAK256 PUSH0 PUSH2 0x100 EXP DUP2 SLOAD DUP2 PUSH1 0xFF MUL NOT AND SWAP1 DUP4 ISZERO ISZERO MUL OR SWAP1 SSTORE POP PUSH1 0x1 PUSH1 0xD PUSH0 PUSH20 0x78731D3CA6B7E34AC0F824C42A7CC18A495CABAB PUSH20 0xFFFFFFFFFFFFFFFFFFFFFFFFFFFFFFFFFFFFFFFF AND PUSH20 0xFFFFFFFFFFFFFFFFFFFFFFFFFFFFFFFFFFFFFFFF AND DUP2 MSTORE PUSH1 0x20 ADD SWAP1 DUP2 MSTORE PUSH1 0x20 ADD PUSH0 KECCAK256 PUSH0 PUSH2 0x100 EXP DUP2 SLOAD DUP2 PUSH1 0xFF MUL NOT AND SWAP1 DUP4 ISZERO ISZERO MUL OR SWAP1 SSTORE POP PUSH2 0x2699 DUP1 PUSH2 0x1F4 PUSH0 CODECOPY PUSH0 RETURN INVALID PUSH1 0x80 PUSH1 0x40 MSTORE PUSH1 0x4 CALLDATASIZE LT PUSH2 0x11E JUMPI PUSH0 CALLDATALOAD PUSH1 0xE0 SHR DUP1 PUSH4 0x78E97925 GT PUSH2 0x9F JUMPI DUP1 PUSH4 0xBC06B8CD GT PUSH2 0x63 JUMPI DUP1 PUSH4 0xBC06B8CD EQ PUSH2 0x3BE JUMPI DUP1 PUSH4 0xC876E615 EQ PUSH2 0x3E8 JUMPI DUP1 PUSH4 0xD891F969 EQ PUSH2 0x412 JUMPI DUP1 PUSH4 0xD97C8416 EQ PUSH2 0x43A JUMPI DUP1 PUSH4 0xF71D96CB EQ PUSH2 0x464 JUMPI PUSH2 0x11E JUMP JUMPDEST DUP1 PUSH4 0x78E97925 EQ PUSH2 0x2C6 JUMPI DUP1 PUSH4 0x7B43A8E6 EQ PUSH2 0x2F0 JUMPI DUP1 PUSH4 0x89F71D53 EQ PUSH2 0x32E JUMPI DUP1 PUSH4 0x90D5D0C3 EQ PUSH2 0x358 JUMPI DUP1 PUSH4 0xA040478D EQ PUSH2 0x382 JUMPI PUSH2 0x11E JUMP JUMPDEST DUP1 PUSH4 0x3E2B58E0 GT PUSH2 0xE6 JUMPI DUP1 PUSH4 0x3E2B58E0 EQ PUSH2 0x1F8 JUMPI DUP1 PUSH4 0x43CDD438 EQ PUSH2 0x222 JUMPI DUP1 PUSH4 0x558D51C6 EQ PUSH2 0x25E JUMPI DUP1 PUSH4 0x65CE0AC6 EQ PUSH2 0x274 JUMPI DUP1 PUSH4 0x6AC5DB19 EQ PUSH2 0x29C JUMPI PUSH2 0x11E JUMP JUMPDEST DUP1 PUSH4 0x86F7815 EQ PUSH2 0x122 JUMPI DUP1 PUSH4 0x190CF745 EQ PUSH2 0x14C JUMPI DUP1 PUSH4 0x228CB733 EQ PUSH2 0x188 JUMPI DUP1 PUSH4 0x27B5DB8A EQ PUSH2 0x1B2 JUMPI DUP1 PUSH4 0x3CF5040A EQ PUSH2 0x1BC JUMPI JUMPDEST PUSH0 DUP1 REVERT JUMPDEST CALLVALUE DUP1 ISZERO PUSH2 0x12D JUMPI PUSH0 DUP1 REVERT JUMPDEST POP PUSH2 0x136 PUSH2 0x4A0 JUMP JUMPDEST PUSH1 0x40 MLOAD PUSH2 0x143 SWAP2 SWAP1 PUSH2 0x1AB3 JUMP JUMPDEST PUSH1 0x40 MLOAD DUP1 SWAP2 SUB SWAP1 RETURN JUMPDEST CALLVALUE DUP1 ISZERO PUSH2 0x157 JUMPI PUSH0 DUP1 REVERT JUMPDEST POP PUSH2 0x172 PUSH1 0x4 DUP1 CALLDATASIZE SUB DUP2 ADD SWAP1 PUSH2 0x16D SWAP2 SWAP1 PUSH2 0x1B2A JUMP JUMPDEST PUSH2 0x4A6 JUMP JUMPDEST PUSH1 0x40 MLOAD PUSH2 0x17F SWAP2 SWAP1 PUSH2 0x1B6F JUMP JUMPDEST PUSH1 0x40 MLOAD DUP1 SWAP2 SUB SWAP1 RETURN JUMPDEST CALLVALUE DUP1 ISZERO PUSH2 0x193 JUMPI PUSH0 DUP1 REVERT JUMPDEST POP PUSH2 0x19C PUSH2 0x4C3 JUMP JUMPDEST PUSH1 0x40 MLOAD PUSH2 0x1A9 SWAP2 SWAP1 PUSH2 0x1AB3 JUMP JUMPDEST PUSH1 0x40 MLOAD DUP1 SWAP2 SUB SWAP1 RETURN JUMPDEST PUSH2 0x1BA PUSH2 0x4C9 JUMP JUMPDEST STOP JUMPDEST CALLVALUE DUP1 ISZERO PUSH2 0x1C7 JUMPI PUSH0 DUP1 REVERT JUMPDEST POP PUSH2 0x1E2 PUSH1 0x4 DUP1 CALLDATASIZE SUB DUP2 ADD SWAP1 PUSH2 0x1DD SWAP2 SWAP1 PUSH2 0x1BBB JUMP JUMPDEST PUSH2 0x81D JUMP JUMPDEST PUSH1 0x40 MLOAD PUSH2 0x1EF SWAP2 SWAP1 PUSH2 0x1BF5 JUMP JUMPDEST PUSH1 0x40 MLOAD DUP1 SWAP2 SUB SWAP1 RETURN JUMPDEST CALLVALUE DUP1 ISZERO PUSH2 0x203 JUMPI PUSH0 DUP1 REVERT JUMPDEST POP PUSH2 0x20C PUSH2 0x84C JUMP JUMPDEST PUSH1 0x40 MLOAD PUSH2 0x219 SWAP2 SWAP1 PUSH2 0x1AB3 JUMP JUMPDEST PUSH1 0x40 MLOAD DUP1 SWAP2 SUB SWAP1 RETURN JUMPDEST CALLVALUE DUP1 ISZERO PUSH2 0x22D JUMPI PUSH0 DUP1 REVERT JUMPDEST POP PUSH2 0x248 PUSH1 0x4 DUP1 CALLDATASIZE SUB DUP2 ADD SWAP1 PUSH2 0x243 SWAP2 SWAP1 PUSH2 0x1B2A JUMP JUMPDEST PUSH2 0x852 JUMP JUMPDEST PUSH1 0x40 MLOAD PUSH2 0x255 SWAP2 SWAP1 PUSH2 0x1B6F JUMP JUMPDEST PUSH1 0x40 MLOAD DUP1 SWAP2 SUB SWAP1 RETURN JUMPDEST CALLVALUE DUP1 ISZERO PUSH2 0x269 JUMPI PUSH0 DUP1 REVERT JUMPDEST POP PUSH2 0x272 PUSH2 0x86F JUMP JUMPDEST STOP JUMPDEST CALLVALUE DUP1 ISZERO PUSH2 0x27F JUMPI PUSH0 DUP1 REVERT JUMPDEST POP PUSH2 0x29A PUSH1 0x4 DUP1 CALLDATASIZE SUB DUP2 ADD SWAP1 PUSH2 0x295 SWAP2 SWAP1 PUSH2 0x1BBB JUMP JUMPDEST PUSH2 0xCC7 JUMP JUMPDEST STOP JUMPDEST CALLVALUE DUP1 ISZERO PUSH2 0x2A7 JUMPI PUSH0 DUP1 REVERT JUMPDEST POP PUSH2 0x2B0 PUSH2 0xE66 JUMP JUMPDEST PUSH1 0x40 MLOAD PUSH2 0x2BD SWAP2 SWAP1 PUSH2 0x1C29 JUMP JUMPDEST PUSH1 0x40 MLOAD DUP1 SWAP2 SUB SWAP1 RETURN JUMPDEST CALLVALUE DUP1 ISZERO PUSH2 0x2D1 JUMPI PUSH0 DUP1 REVERT JUMPDEST POP PUSH2 0x2DA PUSH2 0xE76 JUMP JUMPDEST PUSH1 0x40 MLOAD PUSH2 0x2E7 SWAP2 SWAP1 PUSH2 0x1AB3 JUMP JUMPDEST PUSH1 0x40 MLOAD DUP1 SWAP2 SUB SWAP1 RETURN JUMPDEST CALLVALUE DUP1 ISZERO PUSH2 0x2FB JUMPI PUSH0 DUP1 REVERT JUMPDEST POP PUSH2 0x316 PUSH1 0x4 DUP1 CALLDATASIZE SUB DUP2 ADD SWAP1 PUSH2 0x311 SWAP2 SWAP1 PUSH2 0x1B2A JUMP JUMPDEST PUSH2 0xE7C JUMP JUMPDEST PUSH1 0x40 MLOAD PUSH2 0x325 SWAP4 SWAP3 SWAP2 SWAP1 PUSH2 0x1C64 JUMP JUMPDEST PUSH1 0x40 MLOAD DUP1 SWAP2 SUB SWAP1 RETURN JUMPDEST CALLVALUE DUP1 ISZERO PUSH2 0x339 JUMPI PUSH0 DUP1 REVERT JUMPDEST POP PUSH2 0x342 PUSH2 0xEC2 JUMP JUMPDEST PUSH1 0x40 MLOAD PUSH2 0x34F SWAP2 SWAP1 PUSH2 0x1AB3 JUMP JUMPDEST PUSH1 0x40 MLOAD DUP1 SWAP2 SUB SWAP1 RETURN JUMPDEST CALLVALUE DUP1 ISZERO PUSH2 0x363 JUMPI PUSH0 DUP1 REVERT JUMPDEST POP PUSH2 0x36C PUSH2 0xEC8 JUMP JUMPDEST PUSH1 0x40 MLOAD PUSH2 0x379 SWAP2 SWAP1 PUSH2 0x1AB3 JUMP JUMPDEST PUSH1 0x40 MLOAD DUP1 SWAP2 SUB SWAP1 RETURN JUMPDEST CALLVALUE DUP1 ISZERO PUSH2 0x38D JUMPI PUSH0 DUP1 REVERT JUMPDEST POP PUSH2 0x3A8 PUSH1 0x4 DUP1 CALLDATASIZE SUB DUP2 ADD SWAP1 PUSH2 0x3A3 SWAP2 SWAP1 PUSH2 0x1B2A JUMP JUMPDEST PUSH2 0xECE JUMP JUMPDEST PUSH1 0x40 MLOAD PUSH2 0x3B5 SWAP2 SWAP1 PUSH2 0x1AB3 JUMP JUMPDEST PUSH1 0x40 MLOAD DUP1 SWAP2 SUB SWAP1 RETURN JUMPDEST CALLVALUE DUP1 ISZERO PUSH2 0x3C9 JUMPI PUSH0 DUP1 REVERT JUMPDEST POP PUSH2 0x3D2 PUSH2 0xEE3 JUMP JUMPDEST PUSH1 0x40 MLOAD PUSH2 0x3DF SWAP2 SWAP1 PUSH2 0x1AB3 JUMP JUMPDEST PUSH1 0x40 MLOAD DUP1 SWAP2 SUB SWAP1 RETURN JUMPDEST CALLVALUE DUP1 ISZERO PUSH2 0x3F3 JUMPI PUSH0 DUP1 REVERT JUMPDEST POP PUSH2 0x3FC PUSH2 0xEF7 JUMP JUMPDEST PUSH1 0x40 MLOAD PUSH2 0x409 SWAP2 SWAP1 PUSH2 0x1AB3 JUMP JUMPDEST PUSH1 0x40 MLOAD DUP1 SWAP2 SUB SWAP1 RETURN JUMPDEST CALLVALUE DUP1 ISZERO PUSH2 0x41D JUMPI PUSH0 DUP1 REVERT JUMPDEST POP PUSH2 0x438 PUSH1 0x4 DUP1 CALLDATASIZE SUB DUP2 ADD SWAP1 PUSH2 0x433 SWAP2 SWAP1 PUSH2 0x1BBB JUMP JUMPDEST PUSH2 0xEFD JUMP JUMPDEST STOP JUMPDEST CALLVALUE DUP1 ISZERO PUSH2 0x445 JUMPI PUSH0 DUP1 REVERT JUMPDEST POP PUSH2 0x44E PUSH2 0x1140 JUMP JUMPDEST PUSH1 0x40 MLOAD PUSH2 0x45B SWAP2 SWAP1 PUSH2 0x1AB3 JUMP JUMPDEST PUSH1 0x40 MLOAD DUP1 SWAP2 SUB SWAP1 RETURN JUMPDEST CALLVALUE DUP1 ISZERO PUSH2 0x46F JUMPI PUSH0 DUP1 REVERT JUMPDEST POP PUSH2 0x48A PUSH1 0x4 DUP1 CALLDATASIZE SUB DUP2 ADD SWAP1 PUSH2 0x485 SWAP2 SWAP1 PUSH2 0x1CC3 JUMP JUMPDEST PUSH2 0x1160 JUMP JUMPDEST PUSH1 0x40 MLOAD PUSH2 0x497 SWAP2 SWAP1 PUSH2 0x1CFD JUMP JUMPDEST PUSH1 0x40 MLOAD DUP1 SWAP2 SUB SWAP1 RETURN JUMPDEST PUSH1 0x9 SLOAD DUP2 JUMP JUMPDEST PUSH1 0x6 PUSH1 0x20 MSTORE DUP1 PUSH0 MSTORE PUSH1 0x40 PUSH0 KECCAK256 PUSH0 SWAP2 POP SLOAD SWAP1 PUSH2 0x100 EXP SWAP1 DIV PUSH1 0xFF AND DUP2 JUMP JUMPDEST PUSH1 0x4 SLOAD DUP2 JUMP JUMPDEST PUSH1 0x2 PUSH1 0x3 SLOAD LT PUSH2 0x50E JUMPI PUSH1 0x40 MLOAD PUSH32 0x8C379A000000000000000000000000000000000000000000000000000000000 DUP2 MSTORE PUSH1 0x4 ADD PUSH2 0x505 SWAP1 PUSH2 0x1D70 JUMP JUMPDEST PUSH1 0x40 MLOAD DUP1 SWAP2 SUB SWAP1 REVERT JUMPDEST PUSH1 0xD PUSH0 CALLER PUSH20 0xFFFFFFFFFFFFFFFFFFFFFFFFFFFFFFFFFFFFFFFF AND PUSH20 0xFFFFFFFFFFFFFFFFFFFFFFFFFFFFFFFFFFFFFFFF AND DUP2 MSTORE PUSH1 0x20 ADD SWAP1 DUP2 MSTORE PUSH1 0x20 ADD PUSH0 KECCAK256 PUSH0 SWAP1 SLOAD SWAP1 PUSH2 0x100 EXP SWAP1 DIV PUSH1 0xFF AND PUSH2 0x597 JUMPI PUSH1 0x40 MLOAD PUSH32 0x8C379A000000000000000000000000000000000000000000000000000000000 DUP2 MSTORE PUSH1 0x4 ADD PUSH2 0x58E SWAP1 PUSH2 0x1DD8 JUMP JUMPDEST PUSH1 0x40 MLOAD DUP1 SWAP2 SUB SWAP1 REVERT JUMPDEST PUSH0 PUSH1 0x3 SLOAD GT ISZERO PUSH2 0x614 JUMPI PUSH1 0x7 PUSH0 DUP2 SLOAD DUP2 LT PUSH2 0x5B5 JUMPI PUSH2 0x5B4 PUSH2 0x1DF6 JUMP JUMPDEST JUMPDEST SWAP1 PUSH0 MSTORE PUSH1 0x20 PUSH0 KECCAK256 ADD PUSH0 SWAP1 SLOAD SWAP1 PUSH2 0x100 EXP SWAP1 DIV PUSH20 0xFFFFFFFFFFFFFFFFFFFFFFFFFFFFFFFFFFFFFFFF AND PUSH20 0xFFFFFFFFFFFFFFFFFFFFFFFFFFFFFFFFFFFFFFFF AND CALLER PUSH20 0xFFFFFFFFFFFFFFFFFFFFFFFFFFFFFFFFFFFFFFFF AND SUB PUSH2 0x613 JUMPI PUSH0 DUP1 REVERT JUMPDEST JUMPDEST PUSH8 0xDE0B6B3A7640000 CALLVALUE EQ PUSH2 0x65E JUMPI PUSH1 0x40 MLOAD PUSH32 0x8C379A000000000000000000000000000000000000000000000000000000000 DUP2 MSTORE PUSH1 0x4 ADD PUSH2 0x655 SWAP1 PUSH2 0x1E6D JUMP JUMPDEST PUSH1 0x40 MLOAD DUP1 SWAP2 SUB SWAP1 REVERT JUMPDEST CALLVALUE PUSH1 0x4 PUSH0 DUP3 DUP3 SLOAD PUSH2 0x66F SWAP2 SWAP1 PUSH2 0x1EB8 JUMP JUMPDEST SWAP3 POP POP DUP2 SWAP1 SSTORE POP PUSH1 0x1 PUSH1 0x6 PUSH0 CALLER PUSH20 0xFFFFFFFFFFFFFFFFFFFFFFFFFFFFFFFFFFFFFFFF AND PUSH20 0xFFFFFFFFFFFFFFFFFFFFFFFFFFFFFFFFFFFFFFFF AND DUP2 MSTORE PUSH1 0x20 ADD SWAP1 DUP2 MSTORE PUSH1 0x20 ADD PUSH0 KECCAK256 PUSH0 PUSH2 0x100 EXP DUP2 SLOAD DUP2 PUSH1 0xFF MUL NOT AND SWAP1 DUP4 ISZERO ISZERO MUL OR SWAP1 SSTORE POP PUSH1 0x7 CALLER SWAP1 DUP1 PUSH1 0x1 DUP2 SLOAD ADD DUP1 DUP3 SSTORE DUP1 SWAP2 POP POP PUSH1 0x1 SWAP1 SUB SWAP1 PUSH0 MSTORE PUSH1 0x20 PUSH0 KECCAK256 ADD PUSH0 SWAP1 SWAP2 SWAP1 SWAP2 SWAP1 SWAP2 PUSH2 0x100 EXP DUP2 SLOAD DUP2 PUSH20 0xFFFFFFFFFFFFFFFFFFFFFFFFFFFFFFFFFFFFFFFF MUL NOT AND SWAP1 DUP4 PUSH20 0xFFFFFFFFFFFFFFFFFFFFFFFFFFFFFFFFFFFFFFFF AND MUL OR SWAP1 SSTORE POP PUSH1 0x5 DUP1 PUSH0 CALLER PUSH20 0xFFFFFFFFFFFFFFFFFFFFFFFFFFFFFFFFFFFFFFFF AND PUSH20 0xFFFFFFFFFFFFFFFFFFFFFFFFFFFFFFFFFFFFFFFF AND DUP2 MSTORE PUSH1 0x20 ADD SWAP1 DUP2 MSTORE PUSH1 0x20 ADD PUSH0 KECCAK256 DUP2 SWAP1 SSTORE POP PUSH0 PUSH1 0x8 PUSH0 CALLER PUSH20 0xFFFFFFFFFFFFFFFFFFFFFFFFFFFFFFFFFFFFFFFF AND PUSH20 0xFFFFFFFFFFFFFFFFFFFFFFFFFFFFFFFFFFFFFFFF AND DUP2 MSTORE PUSH1 0x20 ADD SWAP1 DUP2 MSTORE PUSH1 0x20 ADD PUSH0 KECCAK256 PUSH0 PUSH2 0x100 EXP DUP2 SLOAD DUP2 PUSH1 0xFF MUL NOT AND SWAP1 DUP4 ISZERO ISZERO MUL OR SWAP1 SSTORE POP PUSH1 0x3 PUSH0 DUP2 SLOAD DUP1 SWAP3 SWAP2 SWAP1 PUSH2 0x7D3 SWAP1 PUSH2 0x1EEB JUMP JUMPDEST SWAP2 SWAP1 POP SSTORE POP PUSH32 0x313F9EBDCA9D25EE9456DD69022E3324975C8261B7A8B134881905D3B6964D3C CALLER PUSH1 0x3 SLOAD PUSH1 0x40 MLOAD PUSH2 0x80B SWAP3 SWAP2 SWAP1 PUSH2 0x1F32 JUMP JUMPDEST PUSH1 0x40 MLOAD DUP1 SWAP2 SUB SWAP1 LOG1 PUSH2 0x81B PUSH2 0x119B JUMP JUMPDEST JUMP JUMPDEST PUSH0 DUP2 PUSH1 0x40 MLOAD PUSH1 0x20 ADD PUSH2 0x82F SWAP2 SWAP1 PUSH2 0x1F79 JUMP JUMPDEST PUSH1 0x40 MLOAD PUSH1 0x20 DUP2 DUP4 SUB SUB DUP2 MSTORE SWAP1 PUSH1 0x40 MSTORE DUP1 MLOAD SWAP1 PUSH1 0x20 ADD KECCAK256 SWAP1 POP SWAP2 SWAP1 POP JUMP JUMPDEST PUSH1 0xB SLOAD DUP2 JUMP JUMPDEST PUSH1 0x8 PUSH1 0x20 MSTORE DUP1 PUSH0 MSTORE PUSH1 0x40 PUSH0 KECCAK256 PUSH0 SWAP2 POP SLOAD SWAP1 PUSH2 0x100 EXP SWAP1 DIV PUSH1 0xFF AND DUP2 JUMP JUMPDEST PUSH1 0x1 PUSH1 0x3 SLOAD LT ISZERO PUSH2 0x87E JUMPI PUSH0 DUP1 REVERT JUMPDEST PUSH1 0xB SLOAD PUSH2 0x889 PUSH2 0xEE3 JUMP JUMPDEST GT PUSH2 0x8C9 JUMPI PUSH1 0x40 MLOAD PUSH32 0x8C379A000000000000000000000000000000000000000000000000000000000 DUP2 MSTORE PUSH1 0x4 ADD PUSH2 0x8C0 SWAP1 PUSH2 0x2003 JUMP JUMPDEST PUSH1 0x40 MLOAD DUP1 SWAP2 SUB SWAP1 REVERT JUMPDEST PUSH1 0x4 SLOAD SELFBALANCE LT ISZERO PUSH2 0x90E JUMPI PUSH1 0x40 MLOAD PUSH32 0x8C379A000000000000000000000000000000000000000000000000000000000 DUP2 MSTORE PUSH1 0x4 ADD PUSH2 0x905 SWAP1 PUSH2 0x2091 JUMP JUMPDEST PUSH1 0x40 MLOAD DUP1 SWAP2 SUB SWAP1 REVERT JUMPDEST PUSH0 PUSH1 0x7 PUSH0 DUP2 SLOAD DUP2 LT PUSH2 0x923 JUMPI PUSH2 0x922 PUSH2 0x1DF6 JUMP JUMPDEST JUMPDEST SWAP1 PUSH0 MSTORE PUSH1 0x20 PUSH0 KECCAK256 ADD PUSH0 SWAP1 SLOAD SWAP1 PUSH2 0x100 EXP SWAP1 DIV PUSH20 0xFFFFFFFFFFFFFFFFFFFFFFFFFFFFFFFFFFFFFFFF AND SWAP1 POP PUSH1 0x1 PUSH1 0x3 SLOAD SUB PUSH2 0x9AA JUMPI DUP1 PUSH20 0xFFFFFFFFFFFFFFFFFFFFFFFFFFFFFFFFFFFFFFFF AND PUSH2 0x8FC PUSH1 0x4 SLOAD SWAP1 DUP2 ISZERO MUL SWAP1 PUSH1 0x40 MLOAD PUSH0 PUSH1 0x40 MLOAD DUP1 DUP4 SUB DUP2 DUP6 DUP9 DUP9 CALL SWAP4 POP POP POP POP ISZERO DUP1 ISZERO PUSH2 0x99C JUMPI RETURNDATASIZE PUSH0 DUP1 RETURNDATACOPY RETURNDATASIZE PUSH0 REVERT JUMPDEST POP PUSH2 0x9A5 PUSH2 0x11A4 JUMP JUMPDEST PUSH2 0xCC4 JUMP JUMPDEST PUSH1 0x2 PUSH1 0x3 SLOAD SUB PUSH2 0xCC3 JUMPI PUSH0 PUSH1 0x7 PUSH1 0x1 DUP2 SLOAD DUP2 LT PUSH2 0x9CA JUMPI PUSH2 0x9C9 PUSH2 0x1DF6 JUMP JUMPDEST JUMPDEST SWAP1 PUSH0 MSTORE PUSH1 0x20 PUSH0 KECCAK256 ADD PUSH0 SWAP1 SLOAD SWAP1 PUSH2 0x100 EXP SWAP1 DIV PUSH20 0xFFFFFFFFFFFFFFFFFFFFFFFFFFFFFFFFFFFFFFFF AND SWAP1 POP PUSH0 PUSH1 0x9 SLOAD EQ DUP1 PUSH2 0xA13 JUMPI POP PUSH1 0x2 PUSH1 0x9 SLOAD EQ DUP1 ISZERO PUSH2 0xA12 JUMPI POP PUSH0 PUSH1 0xA SLOAD EQ JUMPDEST JUMPDEST ISZERO PUSH2 0xAC9 JUMPI DUP2 PUSH20 0xFFFFFFFFFFFFFFFFFFFFFFFFFFFFFFFFFFFFFFFF AND PUSH2 0x8FC PUSH1 0x2 PUSH1 0x4 SLOAD PUSH2 0xA41 SWAP2 SWAP1 PUSH2 0x20DC JUMP JUMPDEST SWAP1 DUP2 ISZERO MUL SWAP1 PUSH1 0x40 MLOAD PUSH0 PUSH1 0x40 MLOAD DUP1 DUP4 SUB DUP2 DUP6 DUP9 DUP9 CALL SWAP4 POP POP POP POP ISZERO DUP1 ISZERO PUSH2 0xA69 JUMPI RETURNDATASIZE PUSH0 DUP1 RETURNDATACOPY RETURNDATASIZE PUSH0 REVERT JUMPDEST POP DUP1 PUSH20 0xFFFFFFFFFFFFFFFFFFFFFFFFFFFFFFFFFFFFFFFF AND PUSH2 0x8FC PUSH1 0x2 PUSH1 0x4 SLOAD PUSH2 0xA93 SWAP2 SWAP1 PUSH2 0x20DC JUMP JUMPDEST SWAP1 DUP2 ISZERO MUL SWAP1 PUSH1 0x40 MLOAD PUSH0 PUSH1 0x40 MLOAD DUP1 DUP4 SUB DUP2 DUP6 DUP9 DUP9 CALL SWAP4 POP POP POP POP ISZERO DUP1 ISZERO PUSH2 0xABB JUMPI RETURNDATASIZE PUSH0 DUP1 RETURNDATACOPY RETURNDATASIZE PUSH0 REVERT JUMPDEST POP PUSH2 0xAC4 PUSH2 0x11A4 JUMP JUMPDEST PUSH2 0xCC1 JUMP JUMPDEST PUSH1 0x1 PUSH1 0x9 SLOAD SUB PUSH2 0xBC7 JUMPI PUSH1 0x1 ISZERO ISZERO PUSH1 0x8 PUSH0 DUP5 PUSH20 0xFFFFFFFFFFFFFFFFFFFFFFFFFFFFFFFFFFFFFFFF AND PUSH20 0xFFFFFFFFFFFFFFFFFFFFFFFFFFFFFFFFFFFFFFFF AND DUP2 MSTORE PUSH1 0x20 ADD SWAP1 DUP2 MSTORE PUSH1 0x20 ADD PUSH0 KECCAK256 PUSH0 SWAP1 SLOAD SWAP1 PUSH2 0x100 EXP SWAP1 DIV PUSH1 0xFF AND ISZERO ISZERO SUB PUSH2 0xB73 JUMPI DUP2 PUSH20 0xFFFFFFFFFFFFFFFFFFFFFFFFFFFFFFFFFFFFFFFF AND PUSH2 0x8FC PUSH1 0x4 SLOAD SWAP1 DUP2 ISZERO MUL SWAP1 PUSH1 0x40 MLOAD PUSH0 PUSH1 0x40 MLOAD DUP1 DUP4 SUB DUP2 DUP6 DUP9 DUP9 CALL SWAP4 POP POP POP POP ISZERO DUP1 ISZERO PUSH2 0xB6D JUMPI RETURNDATASIZE PUSH0 DUP1 RETURNDATACOPY RETURNDATASIZE PUSH0 REVERT JUMPDEST POP PUSH2 0xBBA JUMP JUMPDEST DUP1 PUSH20 0xFFFFFFFFFFFFFFFFFFFFFFFFFFFFFFFFFFFFFFFF AND PUSH2 0x8FC PUSH1 0x4 SLOAD SWAP1 DUP2 ISZERO MUL SWAP1 PUSH1 0x40 MLOAD PUSH0 PUSH1 0x40 MLOAD DUP1 DUP4 SUB DUP2 DUP6 DUP9 DUP9 CALL SWAP4 POP POP POP POP ISZERO DUP1 ISZERO PUSH2 0xBB8 JUMPI RETURNDATASIZE PUSH0 DUP1 RETURNDATACOPY RETURNDATASIZE PUSH0 REVERT JUMPDEST POP JUMPDEST PUSH2 0xBC2 PUSH2 0x11A4 JUMP JUMPDEST PUSH2 0xCC0 JUMP JUMPDEST PUSH1 0x2 PUSH1 0x9 SLOAD EQ DUP1 ISZERO PUSH2 0xBDB JUMPI POP PUSH1 0x1 PUSH1 0xA SLOAD EQ JUMPDEST ISZERO PUSH2 0xCBF JUMPI PUSH1 0x5 DUP1 PUSH0 DUP5 PUSH20 0xFFFFFFFFFFFFFFFFFFFFFFFFFFFFFFFFFFFFFFFF AND PUSH20 0xFFFFFFFFFFFFFFFFFFFFFFFFFFFFFFFFFFFFFFFF AND DUP2 MSTORE PUSH1 0x20 ADD SWAP1 DUP2 MSTORE PUSH1 0x20 ADD PUSH0 KECCAK256 SLOAD EQ PUSH2 0xC6F JUMPI DUP2 PUSH20 0xFFFFFFFFFFFFFFFFFFFFFFFFFFFFFFFFFFFFFFFF AND PUSH2 0x8FC PUSH1 0x4 SLOAD SWAP1 DUP2 ISZERO MUL SWAP1 PUSH1 0x40 MLOAD PUSH0 PUSH1 0x40 MLOAD DUP1 DUP4 SUB DUP2 DUP6 DUP9 DUP9 CALL SWAP4 POP POP POP POP ISZERO DUP1 ISZERO PUSH2 0xC69 JUMPI RETURNDATASIZE PUSH0 DUP1 RETURNDATACOPY RETURNDATASIZE PUSH0 REVERT JUMPDEST POP PUSH2 0xCB6 JUMP JUMPDEST DUP1 PUSH20 0xFFFFFFFFFFFFFFFFFFFFFFFFFFFFFFFFFFFFFFFF AND PUSH2 0x8FC PUSH1 0x4 SLOAD SWAP1 DUP2 ISZERO MUL SWAP1 PUSH1 0x40 MLOAD PUSH0 PUSH1 0x40 MLOAD DUP1 DUP4 SUB DUP2 DUP6 DUP9 DUP9 CALL SWAP4 POP POP POP POP ISZERO DUP1 ISZERO PUSH2 0xCB4 JUMPI RETURNDATASIZE PUSH0 DUP1 RETURNDATACOPY RETURNDATASIZE PUSH0 REVERT JUMPDEST POP JUMPDEST PUSH2 0xCBE PUSH2 0x11A4 JUMP JUMPDEST JUMPDEST JUMPDEST JUMPDEST POP JUMPDEST JUMPDEST POP JUMP JUMPDEST PUSH1 0x2 PUSH1 0x3 SLOAD EQ PUSH2 0xCD5 JUMPI PUSH0 DUP1 REVERT JUMPDEST PUSH1 0x2 PUSH1 0x9 SLOAD EQ PUSH2 0xCE3 JUMPI PUSH0 DUP1 REVERT JUMPDEST PUSH0 DUP2 PUSH1 0x1F PUSH1 0x20 DUP2 LT PUSH2 0xCF8 JUMPI PUSH2 0xCF7 PUSH2 0x1DF6 JUMP JUMPDEST JUMPDEST BYTE PUSH1 0xF8 SHL PUSH1 0xF8 SHR PUSH1 0xFF AND SWAP1 POP PUSH0 DUP2 LT ISZERO DUP1 ISZERO PUSH2 0xD15 JUMPI POP PUSH1 0x4 DUP2 GT ISZERO JUMPDEST PUSH2 0xD54 JUMPI PUSH1 0x40 MLOAD PUSH32 0x8C379A000000000000000000000000000000000000000000000000000000000 DUP2 MSTORE PUSH1 0x4 ADD PUSH2 0xD4B SWAP1 PUSH2 0x217C JUMP JUMPDEST PUSH1 0x40 MLOAD DUP1 SWAP2 SUB SWAP1 REVERT JUMPDEST PUSH1 0x8 PUSH0 CALLER PUSH20 0xFFFFFFFFFFFFFFFFFFFFFFFFFFFFFFFFFFFFFFFF AND PUSH20 0xFFFFFFFFFFFFFFFFFFFFFFFFFFFFFFFFFFFFFFFF AND DUP2 MSTORE PUSH1 0x20 ADD SWAP1 DUP2 MSTORE PUSH1 0x20 ADD PUSH0 KECCAK256 PUSH0 SWAP1 SLOAD SWAP1 PUSH2 0x100 EXP SWAP1 DIV PUSH1 0xFF AND PUSH2 0xDDD JUMPI PUSH1 0x40 MLOAD PUSH32 0x8C379A000000000000000000000000000000000000000000000000000000000 DUP2 MSTORE PUSH1 0x4 ADD PUSH2 0xDD4 SWAP1 PUSH2 0x21E4 JUMP JUMPDEST PUSH1 0x40 MLOAD DUP1 SWAP2 SUB SWAP1 REVERT JUMPDEST PUSH2 0xDE6 DUP3 PUSH2 0x11CF JUMP JUMPDEST DUP1 PUSH1 0x5 PUSH0 CALLER PUSH20 0xFFFFFFFFFFFFFFFFFFFFFFFFFFFFFFFFFFFFFFFF AND PUSH20 0xFFFFFFFFFFFFFFFFFFFFFFFFFFFFFFFFFFFFFFFF AND DUP2 MSTORE PUSH1 0x20 ADD SWAP1 DUP2 MSTORE PUSH1 0x20 ADD PUSH0 KECCAK256 DUP2 SWAP1 SSTORE POP PUSH1 0xA PUSH0 DUP2 SLOAD DUP1 SWAP3 SWAP2 SWAP1 PUSH2 0xE3A SWAP1 PUSH2 0x1EEB JUMP JUMPDEST SWAP2 SWAP1 POP SSTORE POP PUSH2 0xE47 PUSH2 0x119B JUMP JUMPDEST PUSH1 0x2 PUSH1 0xA SLOAD SUB PUSH2 0xE62 JUMPI PUSH2 0xE59 PUSH2 0x158D JUMP JUMPDEST PUSH2 0xE61 PUSH2 0x11A4 JUMP JUMPDEST JUMPDEST POP POP JUMP JUMPDEST PUSH0 DUP1 SLOAD SWAP1 PUSH2 0x100 EXP SWAP1 DIV PUSH1 0xFF AND DUP2 JUMP JUMPDEST PUSH1 0x2 SLOAD DUP2 JUMP JUMPDEST PUSH1 0x1 PUSH1 0x20 MSTORE DUP1 PUSH0 MSTORE PUSH1 0x40 PUSH0 KECCAK256 PUSH0 SWAP2 POP SWAP1 POP DUP1 PUSH0 ADD SLOAD SWAP1 DUP1 PUSH1 0x1 ADD PUSH0 SWAP1 SLOAD SWAP1 PUSH2 0x100 EXP SWAP1 DIV PUSH8 0xFFFFFFFFFFFFFFFF AND SWAP1 DUP1 PUSH1 0x1 ADD PUSH1 0x8 SWAP1 SLOAD SWAP1 PUSH2 0x100 EXP SWAP1 DIV PUSH1 0xFF AND SWAP1 POP DUP4 JUMP JUMPDEST PUSH1 0xC SLOAD DUP2 JUMP JUMPDEST PUSH1 0x3 SLOAD DUP2 JUMP JUMPDEST PUSH1 0x5 PUSH1 0x20 MSTORE DUP1 PUSH0 MSTORE PUSH1 0x40 PUSH0 KECCAK256 PUSH0 SWAP2 POP SWAP1 POP SLOAD DUP2 JUMP JUMPDEST PUSH0 PUSH1 0x2 SLOAD TIMESTAMP PUSH2 0xEF2 SWAP2 SWAP1 PUSH2 0x2202 JUMP JUMPDEST SWAP1 POP SWAP1 JUMP JUMPDEST PUSH1 0xA SLOAD DUP2 JUMP JUMPDEST PUSH1 0x2 PUSH1 0x3 SLOAD EQ PUSH2 0xF42 JUMPI PUSH1 0x40 MLOAD PUSH32 0x8C379A000000000000000000000000000000000000000000000000000000000 DUP2 MSTORE PUSH1 0x4 ADD PUSH2 0xF39 SWAP1 PUSH2 0x227F JUMP JUMPDEST PUSH1 0x40 MLOAD DUP1 SWAP2 SUB SWAP1 REVERT JUMPDEST PUSH1 0x2 PUSH1 0x9 SLOAD LT PUSH2 0xF50 JUMPI PUSH0 DUP1 REVERT JUMPDEST PUSH1 0x6 PUSH0 CALLER PUSH20 0xFFFFFFFFFFFFFFFFFFFFFFFFFFFFFFFFFFFFFFFF AND PUSH20 0xFFFFFFFFFFFFFFFFFFFFFFFFFFFFFFFFFFFFFFFF AND DUP2 MSTORE PUSH1 0x20 ADD SWAP1 DUP2 MSTORE PUSH1 0x20 ADD PUSH0 KECCAK256 PUSH0 SWAP1 SLOAD SWAP1 PUSH2 0x100 EXP SWAP1 DIV PUSH1 0xFF AND PUSH2 0xFA2 JUMPI PUSH0 DUP1 REVERT JUMPDEST PUSH0 ISZERO ISZERO PUSH1 0x8 PUSH0 CALLER PUSH20 0xFFFFFFFFFFFFFFFFFFFFFFFFFFFFFFFFFFFFFFFF AND PUSH20 0xFFFFFFFFFFFFFFFFFFFFFFFFFFFFFFFFFFFFFFFF AND DUP2 MSTORE PUSH1 0x20 ADD SWAP1 DUP2 MSTORE PUSH1 0x20 ADD PUSH0 KECCAK256 PUSH0 SWAP1 SLOAD SWAP1 PUSH2 0x100 EXP SWAP1 DIV PUSH1 0xFF AND ISZERO ISZERO EQ PUSH2 0x1031 JUMPI PUSH1 0x40 MLOAD PUSH32 0x8C379A000000000000000000000000000000000000000000000000000000000 DUP2 MSTORE PUSH1 0x4 ADD PUSH2 0x1028 SWAP1 PUSH2 0x22E7 JUMP JUMPDEST PUSH1 0x40 MLOAD DUP1 SWAP2 SUB SWAP1 REVERT JUMPDEST PUSH0 PUSH1 0x6 PUSH0 CALLER PUSH20 0xFFFFFFFFFFFFFFFFFFFFFFFFFFFFFFFFFFFFFFFF AND PUSH20 0xFFFFFFFFFFFFFFFFFFFFFFFFFFFFFFFFFFFFFFFF AND DUP2 MSTORE PUSH1 0x20 ADD SWAP1 DUP2 MSTORE PUSH1 0x20 ADD PUSH0 KECCAK256 PUSH0 PUSH2 0x100 EXP DUP2 SLOAD DUP2 PUSH1 0xFF MUL NOT AND SWAP1 DUP4 ISZERO ISZERO MUL OR SWAP1 SSTORE POP PUSH1 0x1 PUSH1 0x8 PUSH0 CALLER PUSH20 0xFFFFFFFFFFFFFFFFFFFFFFFFFFFFFFFFFFFFFFFF AND PUSH20 0xFFFFFFFFFFFFFFFFFFFFFFFFFFFFFFFFFFFFFFFF AND DUP2 MSTORE PUSH1 0x20 ADD SWAP1 DUP2 MSTORE PUSH1 0x20 ADD PUSH0 KECCAK256 PUSH0 PUSH2 0x100 EXP DUP2 SLOAD DUP2 PUSH1 0xFF MUL NOT AND SWAP1 DUP4 ISZERO ISZERO MUL OR SWAP1 SSTORE POP PUSH2 0x10E3 DUP2 PUSH2 0x1890 JUMP JUMPDEST PUSH1 0x9 PUSH0 DUP2 SLOAD DUP1 SWAP3 SWAP2 SWAP1 PUSH2 0x10F5 SWAP1 PUSH2 0x1EEB JUMP JUMPDEST SWAP2 SWAP1 POP SSTORE POP PUSH32 0x3928CC5ABCBB1C0B781BEBBC4F1E9B156F6D392796C791CC0937DB5E42677FF7 CALLER PUSH1 0x9 SLOAD PUSH1 0x40 MLOAD PUSH2 0x112D SWAP3 SWAP2 SWAP1 PUSH2 0x1F32 JUMP JUMPDEST PUSH1 0x40 MLOAD DUP1 SWAP2 SUB SWAP1 LOG1 PUSH2 0x113D PUSH2 0x119B JUMP JUMPDEST POP JUMP JUMPDEST PUSH0 PUSH1 0x3C PUSH1 0x2 SLOAD TIMESTAMP PUSH2 0x1151 SWAP2 SWAP1 PUSH2 0x2202 JUMP JUMPDEST PUSH2 0x115B SWAP2 SWAP1 PUSH2 0x20DC JUMP JUMPDEST SWAP1 POP SWAP1 JUMP JUMPDEST PUSH1 0x7 DUP2 DUP2 SLOAD DUP2 LT PUSH2 0x116F JUMPI PUSH0 DUP1 REVERT JUMPDEST SWAP1 PUSH0 MSTORE PUSH1 0x20 PUSH0 KECCAK256 ADD PUSH0 SWAP2 POP SLOAD SWAP1 PUSH2 0x100 EXP SWAP1 DIV PUSH20 0xFFFFFFFFFFFFFFFFFFFFFFFFFFFFFFFFFFFFFFFF AND DUP2 JUMP JUMPDEST TIMESTAMP PUSH1 0x2 DUP2 SWAP1 SSTORE POP JUMP JUMPDEST PUSH1 0x7 PUSH0 PUSH2 0x11B1 SWAP2 SWAP1 PUSH2 0x1A62 JUMP JUMPDEST PUSH0 PUSH1 0x3 DUP2 SWAP1 SSTORE POP PUSH0 PUSH1 0x9 DUP2 SWAP1 SSTORE POP PUSH0 PUSH1 0xA DUP2 SWAP1 SSTORE POP PUSH0 PUSH1 0x4 DUP2 SWAP1 SSTORE POP JUMP JUMPDEST PUSH0 ISZERO ISZERO PUSH1 0x1 PUSH0 CALLER PUSH20 0xFFFFFFFFFFFFFFFFFFFFFFFFFFFFFFFFFFFFFFFF AND PUSH20 0xFFFFFFFFFFFFFFFFFFFFFFFFFFFFFFFFFFFFFFFF AND DUP2 MSTORE PUSH1 0x20 ADD SWAP1 DUP2 MSTORE PUSH1 0x20 ADD PUSH0 KECCAK256 PUSH1 0x1 ADD PUSH1 0x8 SWAP1 SLOAD SWAP1 PUSH2 0x100 EXP SWAP1 DIV PUSH1 0xFF AND ISZERO ISZERO EQ PUSH2 0x1262 JUMPI PUSH1 0x40 MLOAD PUSH32 0x8C379A000000000000000000000000000000000000000000000000000000000 DUP2 MSTORE PUSH1 0x4 ADD PUSH2 0x1259 SWAP1 PUSH2 0x2375 JUMP JUMPDEST PUSH1 0x40 MLOAD DUP1 SWAP2 SUB SWAP1 REVERT JUMPDEST PUSH1 0x1 DUP1 PUSH0 CALLER PUSH20 0xFFFFFFFFFFFFFFFFFFFFFFFFFFFFFFFFFFFFFFFF AND PUSH20 0xFFFFFFFFFFFFFFFFFFFFFFFFFFFFFFFFFFFFFFFF AND DUP2 MSTORE PUSH1 0x20 ADD SWAP1 DUP2 MSTORE PUSH1 0x20 ADD PUSH0 KECCAK256 PUSH1 0x1 ADD PUSH1 0x8 PUSH2 0x100 EXP DUP2 SLOAD DUP2 PUSH1 0xFF MUL NOT AND SWAP1 DUP4 ISZERO ISZERO MUL OR SWAP1 SSTORE POP PUSH1 0x1 PUSH0 CALLER PUSH20 0xFFFFFFFFFFFFFFFFFFFFFFFFFFFFFFFFFFFFFFFF AND PUSH20 0xFFFFFFFFFFFFFFFFFFFFFFFFFFFFFFFFFFFFFFFF AND DUP2 MSTORE PUSH1 0x20 ADD SWAP1 DUP2 MSTORE PUSH1 0x20 ADD PUSH0 KECCAK256 PUSH0 ADD SLOAD PUSH2 0x1303 DUP3 PUSH2 0x81D JUMP JUMPDEST EQ PUSH2 0x1343 JUMPI PUSH1 0x40 MLOAD PUSH32 0x8C379A000000000000000000000000000000000000000000000000000000000 DUP2 MSTORE PUSH1 0x4 ADD PUSH2 0x133A SWAP1 PUSH2 0x2403 JUMP JUMPDEST PUSH1 0x40 MLOAD DUP1 SWAP2 SUB SWAP1 REVERT JUMPDEST PUSH1 0x1 PUSH0 CALLER PUSH20 0xFFFFFFFFFFFFFFFFFFFFFFFFFFFFFFFFFFFFFFFF AND PUSH20 0xFFFFFFFFFFFFFFFFFFFFFFFFFFFFFFFFFFFFFFFF AND DUP2 MSTORE PUSH1 0x20 ADD SWAP1 DUP2 MSTORE PUSH1 0x20 ADD PUSH0 KECCAK256 PUSH1 0x1 ADD PUSH0 SWAP1 SLOAD SWAP1 PUSH2 0x100 EXP SWAP1 DIV PUSH8 0xFFFFFFFFFFFFFFFF AND PUSH8 0xFFFFFFFFFFFFFFFF AND NUMBER PUSH8 0xFFFFFFFFFFFFFFFF AND GT PUSH2 0x13EC JUMPI PUSH1 0x40 MLOAD PUSH32 0x8C379A000000000000000000000000000000000000000000000000000000000 DUP2 MSTORE PUSH1 0x4 ADD PUSH2 0x13E3 SWAP1 PUSH2 0x24B7 JUMP JUMPDEST PUSH1 0x40 MLOAD DUP1 SWAP2 SUB SWAP1 REVERT JUMPDEST PUSH1 0xFA PUSH1 0x1 PUSH0 CALLER PUSH20 0xFFFFFFFFFFFFFFFFFFFFFFFFFFFFFFFFFFFFFFFF AND PUSH20 0xFFFFFFFFFFFFFFFFFFFFFFFFFFFFFFFFFFFFFFFF AND DUP2 MSTORE PUSH1 0x20 ADD SWAP1 DUP2 MSTORE PUSH1 0x20 ADD PUSH0 KECCAK256 PUSH1 0x1 ADD PUSH0 SWAP1 SLOAD SWAP1 PUSH2 0x100 EXP SWAP1 DIV PUSH8 0xFFFFFFFFFFFFFFFF AND PUSH2 0x144C SWAP2 SWAP1 PUSH2 0x24D5 JUMP JUMPDEST PUSH8 0xFFFFFFFFFFFFFFFF AND NUMBER PUSH8 0xFFFFFFFFFFFFFFFF AND GT ISZERO PUSH2 0x14A2 JUMPI PUSH1 0x40 MLOAD PUSH32 0x8C379A000000000000000000000000000000000000000000000000000000000 DUP2 MSTORE PUSH1 0x4 ADD PUSH2 0x1499 SWAP1 PUSH2 0x2580 JUMP JUMPDEST PUSH1 0x40 MLOAD DUP1 SWAP2 SUB SWAP1 REVERT JUMPDEST PUSH0 PUSH1 0x1 PUSH0 CALLER PUSH20 0xFFFFFFFFFFFFFFFFFFFFFFFFFFFFFFFFFFFFFFFF AND PUSH20 0xFFFFFFFFFFFFFFFFFFFFFFFFFFFFFFFFFFFFFFFF AND DUP2 MSTORE PUSH1 0x20 ADD SWAP1 DUP2 MSTORE PUSH1 0x20 ADD PUSH0 KECCAK256 PUSH1 0x1 ADD PUSH0 SWAP1 SLOAD SWAP1 PUSH2 0x100 EXP SWAP1 DIV PUSH8 0xFFFFFFFFFFFFFFFF AND PUSH8 0xFFFFFFFFFFFFFFFF AND BLOCKHASH SWAP1 POP PUSH0 DUP1 PUSH0 SWAP1 SLOAD SWAP1 PUSH2 0x100 EXP SWAP1 DIV PUSH1 0xFF AND PUSH1 0xFF AND DUP3 DUP5 PUSH1 0x40 MLOAD PUSH1 0x20 ADD PUSH2 0x1529 SWAP3 SWAP2 SWAP1 PUSH2 0x259E JUMP JUMPDEST PUSH1 0x40 MLOAD PUSH1 0x20 DUP2 DUP4 SUB SUB DUP2 MSTORE SWAP1 PUSH1 0x40 MSTORE DUP1 MLOAD SWAP1 PUSH1 0x20 ADD KECCAK256 PUSH0 SHR PUSH2 0x154B SWAP2 SWAP1 PUSH2 0x25C9 JUMP JUMPDEST SWAP1 POP PUSH32 0xBC016DD1CADEAEFCB851AF7A0A93532E0023D536894B730801F7BCFE7065BCC2 CALLER DUP5 DUP4 PUSH1 0x40 MLOAD PUSH2 0x1580 SWAP4 SWAP3 SWAP2 SWAP1 PUSH2 0x25F9 JUMP JUMPDEST PUSH1 0x40 MLOAD DUP1 SWAP2 SUB SWAP1 LOG1 POP POP POP JUMP JUMPDEST PUSH0 PUSH1 0x5 PUSH0 PUSH1 0x7 PUSH0 DUP2 SLOAD DUP2 LT PUSH2 0x15A5 JUMPI PUSH2 0x15A4 PUSH2 0x1DF6 JUMP JUMPDEST JUMPDEST SWAP1 PUSH0 MSTORE PUSH1 0x20 PUSH0 KECCAK256 ADD PUSH0 SWAP1 SLOAD SWAP1 PUSH2 0x100 EXP SWAP1 DIV PUSH20 0xFFFFFFFFFFFFFFFFFFFFFFFFFFFFFFFFFFFFFFFF AND PUSH20 0xFFFFFFFFFFFFFFFFFFFFFFFFFFFFFFFFFFFFFFFF AND PUSH20 0xFFFFFFFFFFFFFFFFFFFFFFFFFFFFFFFFFFFFFFFF AND DUP2 MSTORE PUSH1 0x20 ADD SWAP1 DUP2 MSTORE PUSH1 0x20 ADD PUSH0 KECCAK256 SLOAD SWAP1 POP PUSH0 PUSH1 0x5 PUSH0 PUSH1 0x7 PUSH1 0x1 DUP2 SLOAD DUP2 LT PUSH2 0x1622 JUMPI PUSH2 0x1621 PUSH2 0x1DF6 JUMP JUMPDEST JUMPDEST SWAP1 PUSH0 MSTORE PUSH1 0x20 PUSH0 KECCAK256 ADD PUSH0 SWAP1 SLOAD SWAP1 PUSH2 0x100 EXP SWAP1 DIV PUSH20 0xFFFFFFFFFFFFFFFFFFFFFFFFFFFFFFFFFFFFFFFF AND PUSH20 0xFFFFFFFFFFFFFFFFFFFFFFFFFFFFFFFFFFFFFFFF AND PUSH20 0xFFFFFFFFFFFFFFFFFFFFFFFFFFFFFFFFFFFFFFFF AND DUP2 MSTORE PUSH1 0x20 ADD SWAP1 DUP2 MSTORE PUSH1 0x20 ADD PUSH0 KECCAK256 SLOAD SWAP1 POP PUSH0 PUSH1 0x7 PUSH0 DUP2 SLOAD DUP2 LT PUSH2 0x169B JUMPI PUSH2 0x169A PUSH2 0x1DF6 JUMP JUMPDEST JUMPDEST SWAP1 PUSH0 MSTORE PUSH1 0x20 PUSH0 KECCAK256 ADD PUSH0 SWAP1 SLOAD SWAP1 PUSH2 0x100 EXP SWAP1 DIV PUSH20 0xFFFFFFFFFFFFFFFFFFFFFFFFFFFFFFFFFFFFFFFF AND SWAP1 POP PUSH0 PUSH1 0x7 PUSH1 0x1 DUP2 SLOAD DUP2 LT PUSH2 0x16DB JUMPI PUSH2 0x16DA PUSH2 0x1DF6 JUMP JUMPDEST JUMPDEST SWAP1 PUSH0 MSTORE PUSH1 0x20 PUSH0 KECCAK256 ADD PUSH0 SWAP1 SLOAD SWAP1 PUSH2 0x100 EXP SWAP1 DIV PUSH20 0xFFFFFFFFFFFFFFFFFFFFFFFFFFFFFFFFFFFFFFFF AND SWAP1 POP DUP3 DUP5 SUB PUSH2 0x17B5 JUMPI DUP2 PUSH20 0xFFFFFFFFFFFFFFFFFFFFFFFFFFFFFFFFFFFFFFFF AND PUSH2 0x8FC PUSH1 0x2 PUSH1 0x4 SLOAD PUSH2 0x1735 SWAP2 SWAP1 PUSH2 0x20DC JUMP JUMPDEST SWAP1 DUP2 ISZERO MUL SWAP1 PUSH1 0x40 MLOAD PUSH0 PUSH1 0x40 MLOAD DUP1 DUP4 SUB DUP2 DUP6 DUP9 DUP9 CALL SWAP4 POP POP POP POP ISZERO DUP1 ISZERO PUSH2 0x175D JUMPI RETURNDATASIZE PUSH0 DUP1 RETURNDATACOPY RETURNDATASIZE PUSH0 REVERT JUMPDEST POP DUP1 PUSH20 0xFFFFFFFFFFFFFFFFFFFFFFFFFFFFFFFFFFFFFFFF AND PUSH2 0x8FC PUSH1 0x2 PUSH1 0x4 SLOAD PUSH2 0x1787 SWAP2 SWAP1 PUSH2 0x20DC JUMP JUMPDEST SWAP1 DUP2 ISZERO MUL SWAP1 PUSH1 0x40 MLOAD PUSH0 PUSH1 0x40 MLOAD DUP1 DUP4 SUB DUP2 DUP6 DUP9 DUP9 CALL SWAP4 POP POP POP POP ISZERO DUP1 ISZERO PUSH2 0x17AF JUMPI RETURNDATASIZE PUSH0 DUP1 RETURNDATACOPY RETURNDATASIZE PUSH0 REVERT JUMPDEST POP PUSH2 0x188A JUMP JUMPDEST DUP3 PUSH1 0x5 PUSH1 0x1 DUP7 PUSH2 0x17C5 SWAP2 SWAP1 PUSH2 0x1EB8 JUMP JUMPDEST PUSH2 0x17CF SWAP2 SWAP1 PUSH2 0x25C9 JUMP JUMPDEST EQ DUP1 PUSH2 0x17F2 JUMPI POP DUP3 PUSH1 0x5 PUSH1 0x3 DUP7 PUSH2 0x17E6 SWAP2 SWAP1 PUSH2 0x1EB8 JUMP JUMPDEST PUSH2 0x17F0 SWAP2 SWAP1 PUSH2 0x25C9 JUMP JUMPDEST EQ JUMPDEST ISZERO PUSH2 0x1842 JUMPI DUP1 PUSH20 0xFFFFFFFFFFFFFFFFFFFFFFFFFFFFFFFFFFFFFFFF AND PUSH2 0x8FC PUSH1 0x4 SLOAD SWAP1 DUP2 ISZERO MUL SWAP1 PUSH1 0x40 MLOAD PUSH0 PUSH1 0x40 MLOAD DUP1 DUP4 SUB DUP2 DUP6 DUP9 DUP9 CALL SWAP4 POP POP POP POP ISZERO DUP1 ISZERO PUSH2 0x183C JUMPI RETURNDATASIZE PUSH0 DUP1 RETURNDATACOPY RETURNDATASIZE PUSH0 REVERT JUMPDEST POP PUSH2 0x1889 JUMP JUMPDEST DUP2 PUSH20 0xFFFFFFFFFFFFFFFFFFFFFFFFFFFFFFFFFFFFFFFF AND PUSH2 0x8FC PUSH1 0x4 SLOAD SWAP1 DUP2 ISZERO MUL SWAP1 PUSH1 0x40 MLOAD PUSH0 PUSH1 0x40 MLOAD DUP1 DUP4 SUB DUP2 DUP6 DUP9 DUP9 CALL SWAP4 POP POP POP POP ISZERO DUP1 ISZERO PUSH2 0x1887 JUMPI RETURNDATASIZE PUSH0 DUP1 RETURNDATACOPY RETURNDATASIZE PUSH0 REVERT JUMPDEST POP JUMPDEST JUMPDEST POP POP POP POP JUMP JUMPDEST DUP1 PUSH1 0x1 PUSH0 CALLER PUSH20 0xFFFFFFFFFFFFFFFFFFFFFFFFFFFFFFFFFFFFFFFF AND PUSH20 0xFFFFFFFFFFFFFFFFFFFFFFFFFFFFFFFFFFFFFFFF AND DUP2 MSTORE PUSH1 0x20 ADD SWAP1 DUP2 MSTORE PUSH1 0x20 ADD PUSH0 KECCAK256 PUSH0 ADD DUP2 SWAP1 SSTORE POP NUMBER PUSH1 0x1 PUSH0 CALLER PUSH20 0xFFFFFFFFFFFFFFFFFFFFFFFFFFFFFFFFFFFFFFFF AND PUSH20 0xFFFFFFFFFFFFFFFFFFFFFFFFFFFFFFFFFFFFFFFF AND DUP2 MSTORE PUSH1 0x20 ADD SWAP1 DUP2 MSTORE PUSH1 0x20 ADD PUSH0 KECCAK256 PUSH1 0x1 ADD PUSH0 PUSH2 0x100 EXP DUP2 SLOAD DUP2 PUSH8 0xFFFFFFFFFFFFFFFF MUL NOT AND SWAP1 DUP4 PUSH8 0xFFFFFFFFFFFFFFFF AND MUL OR SWAP1 SSTORE POP PUSH0 PUSH1 0x1 PUSH0 CALLER PUSH20 0xFFFFFFFFFFFFFFFFFFFFFFFFFFFFFFFFFFFFFFFF AND PUSH20 0xFFFFFFFFFFFFFFFFFFFFFFFFFFFFFFFFFFFFFFFF AND DUP2 MSTORE PUSH1 0x20 ADD SWAP1 DUP2 MSTORE PUSH1 0x20 ADD PUSH0 KECCAK256 PUSH1 0x1 ADD PUSH1 0x8 PUSH2 0x100 EXP DUP2 SLOAD DUP2 PUSH1 0xFF MUL NOT AND SWAP1 DUP4 ISZERO ISZERO MUL OR SWAP1 SSTORE POP PUSH32 0x3C1A1F8F38335B17F751C6DA4BA7D1865F26B3997535176F5080DE9FAD891603 CALLER PUSH1 0x1 PUSH0 CALLER PUSH20 0xFFFFFFFFFFFFFFFFFFFFFFFFFFFFFFFFFFFFFFFF AND PUSH20 0xFFFFFFFFFFFFFFFFFFFFFFFFFFFFFFFFFFFFFFFF AND DUP2 MSTORE PUSH1 0x20 ADD SWAP1 DUP2 MSTORE PUSH1 0x20 ADD PUSH0 KECCAK256 PUSH0 ADD SLOAD PUSH1 0x1 PUSH0 CALLER PUSH20 0xFFFFFFFFFFFFFFFFFFFFFFFFFFFFFFFFFFFFFFFF AND PUSH20 0xFFFFFFFFFFFFFFFFFFFFFFFFFFFFFFFFFFFFFFFF AND DUP2 MSTORE PUSH1 0x20 ADD SWAP1 DUP2 MSTORE PUSH1 0x20 ADD PUSH0 KECCAK256 PUSH1 0x1 ADD PUSH0 SWAP1 SLOAD SWAP1 PUSH2 0x100 EXP SWAP1 DIV PUSH8 0xFFFFFFFFFFFFFFFF AND PUSH1 0x40 MLOAD PUSH2 0x1A57 SWAP4 SWAP3 SWAP2 SWAP1 PUSH2 0x262E JUMP JUMPDEST PUSH1 0x40 MLOAD DUP1 SWAP2 SUB SWAP1 LOG1 POP JUMP JUMPDEST POP DUP1 SLOAD PUSH0 DUP3 SSTORE SWAP1 PUSH0 MSTORE PUSH1 0x20 PUSH0 KECCAK256 SWAP1 DUP2 ADD SWAP1 PUSH2 0x1A7D SWAP2 SWAP1 PUSH2 0x1A80 JUMP JUMPDEST POP JUMP JUMPDEST JUMPDEST DUP1 DUP3 GT ISZERO PUSH2 0x1A97 JUMPI PUSH0 DUP2 PUSH0 SWAP1 SSTORE POP PUSH1 0x1 ADD PUSH2 0x1A81 JUMP JUMPDEST POP SWAP1 JUMP JUMPDEST PUSH0 DUP2 SWAP1 POP SWAP2 SWAP1 POP JUMP JUMPDEST PUSH2 0x1AAD DUP2 PUSH2 0x1A9B JUMP JUMPDEST DUP3 MSTORE POP POP JUMP JUMPDEST PUSH0 PUSH1 0x20 DUP3 ADD SWAP1 POP PUSH2 0x1AC6 PUSH0 DUP4 ADD DUP5 PUSH2 0x1AA4 JUMP JUMPDEST SWAP3 SWAP2 POP POP JUMP JUMPDEST PUSH0 DUP1 REVERT JUMPDEST PUSH0 PUSH20 0xFFFFFFFFFFFFFFFFFFFFFFFFFFFFFFFFFFFFFFFF DUP3 AND SWAP1 POP SWAP2 SWAP1 POP JUMP JUMPDEST PUSH0 PUSH2 0x1AF9 DUP3 PUSH2 0x1AD0 JUMP JUMPDEST SWAP1 POP SWAP2 SWAP1 POP JUMP JUMPDEST PUSH2 0x1B09 DUP2 PUSH2 0x1AEF JUMP JUMPDEST DUP2 EQ PUSH2 0x1B13 JUMPI PUSH0 DUP1 REVERT JUMPDEST POP JUMP JUMPDEST PUSH0 DUP2 CALLDATALOAD SWAP1 POP PUSH2 0x1B24 DUP2 PUSH2 0x1B00 JUMP JUMPDEST SWAP3 SWAP2 POP POP JUMP JUMPDEST PUSH0 PUSH1 0x20 DUP3 DUP5 SUB SLT ISZERO PUSH2 0x1B3F JUMPI PUSH2 0x1B3E PUSH2 0x1ACC JUMP JUMPDEST JUMPDEST PUSH0 PUSH2 0x1B4C DUP5 DUP3 DUP6 ADD PUSH2 0x1B16 JUMP JUMPDEST SWAP2 POP POP SWAP3 SWAP2 POP POP JUMP JUMPDEST PUSH0 DUP2 ISZERO ISZERO SWAP1 POP SWAP2 SWAP1 POP JUMP JUMPDEST PUSH2 0x1B69 DUP2 PUSH2 0x1B55 JUMP JUMPDEST DUP3 MSTORE POP POP JUMP JUMPDEST PUSH0 PUSH1 0x20 DUP3 ADD SWAP1 POP PUSH2 0x1B82 PUSH0 DUP4 ADD DUP5 PUSH2 0x1B60 JUMP JUMPDEST SWAP3 SWAP2 POP POP JUMP JUMPDEST PUSH0 DUP2 SWAP1 POP SWAP2 SWAP1 POP JUMP JUMPDEST PUSH2 0x1B9A DUP2 PUSH2 0x1B88 JUMP JUMPDEST DUP2 EQ PUSH2 0x1BA4 JUMPI PUSH0 DUP1 REVERT JUMPDEST POP JUMP JUMPDEST PUSH0 DUP2 CALLDATALOAD SWAP1 POP PUSH2 0x1BB5 DUP2 PUSH2 0x1B91 JUMP JUMPDEST SWAP3 SWAP2 POP POP JUMP JUMPDEST PUSH0 PUSH1 0x20 DUP3 DUP5 SUB SLT ISZERO PUSH2 0x1BD0 JUMPI PUSH2 0x1BCF PUSH2 0x1ACC JUMP JUMPDEST JUMPDEST PUSH0 PUSH2 0x1BDD DUP5 DUP3 DUP6 ADD PUSH2 0x1BA7 JUMP JUMPDEST SWAP2 POP POP SWAP3 SWAP2 POP POP JUMP JUMPDEST PUSH2 0x1BEF DUP2 PUSH2 0x1B88 JUMP JUMPDEST DUP3 MSTORE POP POP JUMP JUMPDEST PUSH0 PUSH1 0x20 DUP3 ADD SWAP1 POP PUSH2 0x1C08 PUSH0 DUP4 ADD DUP5 PUSH2 0x1BE6 JUMP JUMPDEST SWAP3 SWAP2 POP POP JUMP JUMPDEST PUSH0 PUSH1 0xFF DUP3 AND SWAP1 POP SWAP2 SWAP1 POP JUMP JUMPDEST PUSH2 0x1C23 DUP2 PUSH2 0x1C0E JUMP JUMPDEST DUP3 MSTORE POP POP JUMP JUMPDEST PUSH0 PUSH1 0x20 DUP3 ADD SWAP1 POP PUSH2 0x1C3C PUSH0 DUP4 ADD DUP5 PUSH2 0x1C1A JUMP JUMPDEST SWAP3 SWAP2 POP POP JUMP JUMPDEST PUSH0 PUSH8 0xFFFFFFFFFFFFFFFF DUP3 AND SWAP1 POP SWAP2 SWAP1 POP JUMP JUMPDEST PUSH2 0x1C5E DUP2 PUSH2 0x1C42 JUMP JUMPDEST DUP3 MSTORE POP POP JUMP JUMPDEST PUSH0 PUSH1 0x60 DUP3 ADD SWAP1 POP PUSH2 0x1C77 PUSH0 DUP4 ADD DUP7 PUSH2 0x1BE6 JUMP JUMPDEST PUSH2 0x1C84 PUSH1 0x20 DUP4 ADD DUP6 PUSH2 0x1C55 JUMP JUMPDEST PUSH2 0x1C91 PUSH1 0x40 DUP4 ADD DUP5 PUSH2 0x1B60 JUMP JUMPDEST SWAP5 SWAP4 POP POP POP POP JUMP JUMPDEST PUSH2 0x1CA2 DUP2 PUSH2 0x1A9B JUMP JUMPDEST DUP2 EQ PUSH2 0x1CAC JUMPI PUSH0 DUP1 REVERT JUMPDEST POP JUMP JUMPDEST PUSH0 DUP2 CALLDATALOAD SWAP1 POP PUSH2 0x1CBD DUP2 PUSH2 0x1C99 JUMP JUMPDEST SWAP3 SWAP2 POP POP JUMP JUMPDEST PUSH0 PUSH1 0x20 DUP3 DUP5 SUB SLT ISZERO PUSH2 0x1CD8 JUMPI PUSH2 0x1CD7 PUSH2 0x1ACC JUMP JUMPDEST JUMPDEST PUSH0 PUSH2 0x1CE5 DUP5 DUP3 DUP6 ADD PUSH2 0x1CAF JUMP JUMPDEST SWAP2 POP POP SWAP3 SWAP2 POP POP JUMP JUMPDEST PUSH2 0x1CF7 DUP2 PUSH2 0x1AEF JUMP JUMPDEST DUP3 MSTORE POP POP JUMP JUMPDEST PUSH0 PUSH1 0x20 DUP3 ADD SWAP1 POP PUSH2 0x1D10 PUSH0 DUP4 ADD DUP5 PUSH2 0x1CEE JUMP JUMPDEST SWAP3 SWAP2 POP POP JUMP JUMPDEST PUSH0 DUP3 DUP3 MSTORE PUSH1 0x20 DUP3 ADD SWAP1 POP SWAP3 SWAP2 POP POP JUMP JUMPDEST PUSH32 0x47616D6520616C726561647920686173203220706C61796572732E0000000000 PUSH0 DUP3 ADD MSTORE POP JUMP JUMPDEST PUSH0 PUSH2 0x1D5A PUSH1 0x1B DUP4 PUSH2 0x1D16 JUMP JUMPDEST SWAP2 POP PUSH2 0x1D65 DUP3 PUSH2 0x1D26 JUMP JUMPDEST PUSH1 0x20 DUP3 ADD SWAP1 POP SWAP2 SWAP1 POP JUMP JUMPDEST PUSH0 PUSH1 0x20 DUP3 ADD SWAP1 POP DUP2 DUP2 SUB PUSH0 DUP4 ADD MSTORE PUSH2 0x1D87 DUP2 PUSH2 0x1D4E JUMP JUMPDEST SWAP1 POP SWAP2 SWAP1 POP JUMP JUMPDEST PUSH32 0x596F7520617265206E6F7420616C6C6F77656420746F20706C61792E00000000 PUSH0 DUP3 ADD MSTORE POP JUMP JUMPDEST PUSH0 PUSH2 0x1DC2 PUSH1 0x1C DUP4 PUSH2 0x1D16 JUMP JUMPDEST SWAP2 POP PUSH2 0x1DCD DUP3 PUSH2 0x1D8E JUMP JUMPDEST PUSH1 0x20 DUP3 ADD SWAP1 POP SWAP2 SWAP1 POP JUMP JUMPDEST PUSH0 PUSH1 0x20 DUP3 ADD SWAP1 POP DUP2 DUP2 SUB PUSH0 DUP4 ADD MSTORE PUSH2 0x1DEF DUP2 PUSH2 0x1DB6 JUMP JUMPDEST SWAP1 POP SWAP2 SWAP1 POP JUMP JUMPDEST PUSH32 0x4E487B7100000000000000000000000000000000000000000000000000000000 PUSH0 MSTORE PUSH1 0x32 PUSH1 0x4 MSTORE PUSH1 0x24 PUSH0 REVERT JUMPDEST PUSH32 0x506179203120657468657220746F20706C61792067616D652E00000000000000 PUSH0 DUP3 ADD MSTORE POP JUMP JUMPDEST PUSH0 PUSH2 0x1E57 PUSH1 0x19 DUP4 PUSH2 0x1D16 JUMP JUMPDEST SWAP2 POP PUSH2 0x1E62 DUP3 PUSH2 0x1E23 JUMP JUMPDEST PUSH1 0x20 DUP3 ADD SWAP1 POP SWAP2 SWAP1 POP JUMP JUMPDEST PUSH0 PUSH1 0x20 DUP3 ADD SWAP1 POP DUP2 DUP2 SUB PUSH0 DUP4 ADD MSTORE PUSH2 0x1E84 DUP2 PUSH2 0x1E4B JUMP JUMPDEST SWAP1 POP SWAP2 SWAP1 POP JUMP JUMPDEST PUSH32 0x4E487B7100000000000000000000000000000000000000000000000000000000 PUSH0 MSTORE PUSH1 0x11 PUSH1 0x4 MSTORE PUSH1 0x24 PUSH0 REVERT JUMPDEST PUSH0 PUSH2 0x1EC2 DUP3 PUSH2 0x1A9B JUMP JUMPDEST SWAP2 POP PUSH2 0x1ECD DUP4 PUSH2 0x1A9B JUMP JUMPDEST SWAP3 POP DUP3 DUP3 ADD SWAP1 POP DUP1 DUP3 GT ISZERO PUSH2 0x1EE5 JUMPI PUSH2 0x1EE4 PUSH2 0x1E8B JUMP JUMPDEST JUMPDEST SWAP3 SWAP2 POP POP JUMP JUMPDEST PUSH0 PUSH2 0x1EF5 DUP3 PUSH2 0x1A9B JUMP JUMPDEST SWAP2 POP PUSH32 0xFFFFFFFFFFFFFFFFFFFFFFFFFFFFFFFFFFFFFFFFFFFFFFFFFFFFFFFFFFFFFFFF DUP3 SUB PUSH2 0x1F27 JUMPI PUSH2 0x1F26 PUSH2 0x1E8B JUMP JUMPDEST JUMPDEST PUSH1 0x1 DUP3 ADD SWAP1 POP SWAP2 SWAP1 POP JUMP JUMPDEST PUSH0 PUSH1 0x40 DUP3 ADD SWAP1 POP PUSH2 0x1F45 PUSH0 DUP4 ADD DUP6 PUSH2 0x1CEE JUMP JUMPDEST PUSH2 0x1F52 PUSH1 0x20 DUP4 ADD DUP5 PUSH2 0x1AA4 JUMP JUMPDEST SWAP4 SWAP3 POP POP POP JUMP JUMPDEST PUSH0 DUP2 SWAP1 POP SWAP2 SWAP1 POP JUMP JUMPDEST PUSH2 0x1F73 PUSH2 0x1F6E DUP3 PUSH2 0x1B88 JUMP JUMPDEST PUSH2 0x1F59 JUMP JUMPDEST DUP3 MSTORE POP POP JUMP JUMPDEST PUSH0 PUSH2 0x1F84 DUP3 DUP5 PUSH2 0x1F62 JUMP JUMPDEST PUSH1 0x20 DUP3 ADD SWAP2 POP DUP2 SWAP1 POP SWAP3 SWAP2 POP POP JUMP JUMPDEST PUSH32 0x596F75206E65656420746F20776169742031206D696E75746520666F72207769 PUSH0 DUP3 ADD MSTORE PUSH32 0x7468647261772E00000000000000000000000000000000000000000000000000 PUSH1 0x20 DUP3 ADD MSTORE POP JUMP JUMPDEST PUSH0 PUSH2 0x1FED PUSH1 0x27 DUP4 PUSH2 0x1D16 JUMP JUMPDEST SWAP2 POP PUSH2 0x1FF8 DUP3 PUSH2 0x1F93 JUMP JUMPDEST PUSH1 0x40 DUP3 ADD SWAP1 POP SWAP2 SWAP1 POP JUMP JUMPDEST PUSH0 PUSH1 0x20 DUP3 ADD SWAP1 POP DUP2 DUP2 SUB PUSH0 DUP4 ADD MSTORE PUSH2 0x201A DUP2 PUSH2 0x1FE1 JUMP JUMPDEST SWAP1 POP SWAP2 SWAP1 POP JUMP JUMPDEST PUSH32 0x436F6E74726163742068617320696E73756666696369656E742062616C616E63 PUSH0 DUP3 ADD MSTORE PUSH32 0x652E000000000000000000000000000000000000000000000000000000000000 PUSH1 0x20 DUP3 ADD MSTORE POP JUMP JUMPDEST PUSH0 PUSH2 0x207B PUSH1 0x22 DUP4 PUSH2 0x1D16 JUMP JUMPDEST SWAP2 POP PUSH2 0x2086 DUP3 PUSH2 0x2021 JUMP JUMPDEST PUSH1 0x40 DUP3 ADD SWAP1 POP SWAP2 SWAP1 POP JUMP JUMPDEST PUSH0 PUSH1 0x20 DUP3 ADD SWAP1 POP DUP2 DUP2 SUB PUSH0 DUP4 ADD MSTORE PUSH2 0x20A8 DUP2 PUSH2 0x206F JUMP JUMPDEST SWAP1 POP SWAP2 SWAP1 POP JUMP JUMPDEST PUSH32 0x4E487B7100000000000000000000000000000000000000000000000000000000 PUSH0 MSTORE PUSH1 0x12 PUSH1 0x4 MSTORE PUSH1 0x24 PUSH0 REVERT JUMPDEST PUSH0 PUSH2 0x20E6 DUP3 PUSH2 0x1A9B JUMP JUMPDEST SWAP2 POP PUSH2 0x20F1 DUP4 PUSH2 0x1A9B JUMP JUMPDEST SWAP3 POP DUP3 PUSH2 0x2101 JUMPI PUSH2 0x2100 PUSH2 0x20AF JUMP JUMPDEST JUMPDEST DUP3 DUP3 DIV SWAP1 POP SWAP3 SWAP2 POP POP JUMP JUMPDEST PUSH32 0x596F75722063686F696365206E6565647320746F206265206265747765656E20 PUSH0 DUP3 ADD MSTORE PUSH32 0x3020746F20340000000000000000000000000000000000000000000000000000 PUSH1 0x20 DUP3 ADD MSTORE POP JUMP JUMPDEST PUSH0 PUSH2 0x2166 PUSH1 0x26 DUP4 PUSH2 0x1D16 JUMP JUMPDEST SWAP2 POP PUSH2 0x2171 DUP3 PUSH2 0x210C JUMP JUMPDEST PUSH1 0x40 DUP3 ADD SWAP1 POP SWAP2 SWAP1 POP JUMP JUMPDEST PUSH0 PUSH1 0x20 DUP3 ADD SWAP1 POP DUP2 DUP2 SUB PUSH0 DUP4 ADD MSTORE PUSH2 0x2193 DUP2 PUSH2 0x215A JUMP JUMPDEST SWAP1 POP SWAP2 SWAP1 POP JUMP JUMPDEST PUSH32 0x596F75206E65656420746F20636F6D6D69742066697273742E00000000000000 PUSH0 DUP3 ADD MSTORE POP JUMP JUMPDEST PUSH0 PUSH2 0x21CE PUSH1 0x19 DUP4 PUSH2 0x1D16 JUMP JUMPDEST SWAP2 POP PUSH2 0x21D9 DUP3 PUSH2 0x219A JUMP JUMPDEST PUSH1 0x20 DUP3 ADD SWAP1 POP SWAP2 SWAP1 POP JUMP JUMPDEST PUSH0 PUSH1 0x20 DUP3 ADD SWAP1 POP DUP2 DUP2 SUB PUSH0 DUP4 ADD MSTORE PUSH2 0x21FB DUP2 PUSH2 0x21C2 JUMP JUMPDEST SWAP1 POP SWAP2 SWAP1 POP JUMP JUMPDEST PUSH0 PUSH2 0x220C DUP3 PUSH2 0x1A9B JUMP JUMPDEST SWAP2 POP PUSH2 0x2217 DUP4 PUSH2 0x1A9B JUMP JUMPDEST SWAP3 POP DUP3 DUP3 SUB SWAP1 POP DUP2 DUP2 GT ISZERO PUSH2 0x222F JUMPI PUSH2 0x222E PUSH2 0x1E8B JUMP JUMPDEST JUMPDEST SWAP3 SWAP2 POP POP JUMP JUMPDEST PUSH32 0x47616D65206E65656473203220706C61796572732E0000000000000000000000 PUSH0 DUP3 ADD MSTORE POP JUMP JUMPDEST PUSH0 PUSH2 0x2269 PUSH1 0x15 DUP4 PUSH2 0x1D16 JUMP JUMPDEST SWAP2 POP PUSH2 0x2274 DUP3 PUSH2 0x2235 JUMP JUMPDEST PUSH1 0x20 DUP3 ADD SWAP1 POP SWAP2 SWAP1 POP JUMP JUMPDEST PUSH0 PUSH1 0x20 DUP3 ADD SWAP1 POP DUP2 DUP2 SUB PUSH0 DUP4 ADD MSTORE PUSH2 0x2296 DUP2 PUSH2 0x225D JUMP JUMPDEST SWAP1 POP SWAP2 SWAP1 POP JUMP JUMPDEST PUSH32 0x596F7520616C726561647920636F6D6D697465642E0000000000000000000000 PUSH0 DUP3 ADD MSTORE POP JUMP JUMPDEST PUSH0 PUSH2 0x22D1 PUSH1 0x15 DUP4 PUSH2 0x1D16 JUMP JUMPDEST SWAP2 POP PUSH2 0x22DC DUP3 PUSH2 0x229D JUMP JUMPDEST PUSH1 0x20 DUP3 ADD SWAP1 POP SWAP2 SWAP1 POP JUMP JUMPDEST PUSH0 PUSH1 0x20 DUP3 ADD SWAP1 POP DUP2 DUP2 SUB PUSH0 DUP4 ADD MSTORE PUSH2 0x22FE DUP2 PUSH2 0x22C5 JUMP JUMPDEST SWAP1 POP SWAP2 SWAP1 POP JUMP JUMPDEST PUSH32 0x436F6D6D697452657665616C3A3A72657665616C3A20416C7265616479207265 PUSH0 DUP3 ADD MSTORE PUSH32 0x7665616C65640000000000000000000000000000000000000000000000000000 PUSH1 0x20 DUP3 ADD MSTORE POP JUMP JUMPDEST PUSH0 PUSH2 0x235F PUSH1 0x26 DUP4 PUSH2 0x1D16 JUMP JUMPDEST SWAP2 POP PUSH2 0x236A DUP3 PUSH2 0x2305 JUMP JUMPDEST PUSH1 0x40 DUP3 ADD SWAP1 POP SWAP2 SWAP1 POP JUMP JUMPDEST PUSH0 PUSH1 0x20 DUP3 ADD SWAP1 POP DUP2 DUP2 SUB PUSH0 DUP4 ADD MSTORE PUSH2 0x238C DUP2 PUSH2 0x2353 JUMP JUMPDEST SWAP1 POP SWAP2 SWAP1 POP JUMP JUMPDEST PUSH32 0x436F6D6D697452657665616C3A3A72657665616C3A2052657665616C65642068 PUSH0 DUP3 ADD MSTORE PUSH32 0x61736820646F6573206E6F74206D6174636820636F6D6D697400000000000000 PUSH1 0x20 DUP3 ADD MSTORE POP JUMP JUMPDEST PUSH0 PUSH2 0x23ED PUSH1 0x39 DUP4 PUSH2 0x1D16 JUMP JUMPDEST SWAP2 POP PUSH2 0x23F8 DUP3 PUSH2 0x2393 JUMP JUMPDEST PUSH1 0x40 DUP3 ADD SWAP1 POP SWAP2 SWAP1 POP JUMP JUMPDEST PUSH0 PUSH1 0x20 DUP3 ADD SWAP1 POP DUP2 DUP2 SUB PUSH0 DUP4 ADD MSTORE PUSH2 0x241A DUP2 PUSH2 0x23E1 JUMP JUMPDEST SWAP1 POP SWAP2 SWAP1 POP JUMP JUMPDEST PUSH32 0x436F6D6D697452657665616C3A3A72657665616C3A2052657665616C20616E64 PUSH0 DUP3 ADD MSTORE PUSH32 0x20636F6D6D69742068617070656E6564206F6E207468652073616D6520626C6F PUSH1 0x20 DUP3 ADD MSTORE PUSH32 0x636B000000000000000000000000000000000000000000000000000000000000 PUSH1 0x40 DUP3 ADD MSTORE POP JUMP JUMPDEST PUSH0 PUSH2 0x24A1 PUSH1 0x42 DUP4 PUSH2 0x1D16 JUMP JUMPDEST SWAP2 POP PUSH2 0x24AC DUP3 PUSH2 0x2421 JUMP JUMPDEST PUSH1 0x60 DUP3 ADD SWAP1 POP SWAP2 SWAP1 POP JUMP JUMPDEST PUSH0 PUSH1 0x20 DUP3 ADD SWAP1 POP DUP2 DUP2 SUB PUSH0 DUP4 ADD MSTORE PUSH2 0x24CE DUP2 PUSH2 0x2495 JUMP JUMPDEST SWAP1 POP SWAP2 SWAP1 POP JUMP JUMPDEST PUSH0 PUSH2 0x24DF DUP3 PUSH2 0x1C42 JUMP JUMPDEST SWAP2 POP PUSH2 0x24EA DUP4 PUSH2 0x1C42 JUMP JUMPDEST SWAP3 POP DUP3 DUP3 ADD SWAP1 POP PUSH8 0xFFFFFFFFFFFFFFFF DUP2 GT ISZERO PUSH2 0x250A JUMPI PUSH2 0x2509 PUSH2 0x1E8B JUMP JUMPDEST JUMPDEST SWAP3 SWAP2 POP POP JUMP JUMPDEST PUSH32 0x436F6D6D697452657665616C3A3A72657665616C3A2052657665616C65642074 PUSH0 DUP3 ADD MSTORE PUSH32 0x6F6F206C61746500000000000000000000000000000000000000000000000000 PUSH1 0x20 DUP3 ADD MSTORE POP JUMP JUMPDEST PUSH0 PUSH2 0x256A PUSH1 0x27 DUP4 PUSH2 0x1D16 JUMP JUMPDEST SWAP2 POP PUSH2 0x2575 DUP3 PUSH2 0x2510 JUMP JUMPDEST PUSH1 0x40 DUP3 ADD SWAP1 POP SWAP2 SWAP1 POP JUMP JUMPDEST PUSH0 PUSH1 0x20 DUP3 ADD SWAP1 POP DUP2 DUP2 SUB PUSH0 DUP4 ADD MSTORE PUSH2 0x2597 DUP2 PUSH2 0x255E JUMP JUMPDEST SWAP1 POP SWAP2 SWAP1 POP JUMP JUMPDEST PUSH0 PUSH2 0x25A9 DUP3 DUP6 PUSH2 0x1F62 JUMP JUMPDEST PUSH1 0x20 DUP3 ADD SWAP2 POP PUSH2 0x25B9 DUP3 DUP5 PUSH2 0x1F62 JUMP JUMPDEST PUSH1 0x20 DUP3 ADD SWAP2 POP DUP2 SWAP1 POP SWAP4 SWAP3 POP POP POP JUMP JUMPDEST PUSH0 PUSH2 0x25D3 DUP3 PUSH2 0x1A9B JUMP JUMPDEST SWAP2 POP PUSH2 0x25DE DUP4 PUSH2 0x1A9B JUMP JUMPDEST SWAP3 POP DUP3 PUSH2 0x25EE JUMPI PUSH2 0x25ED PUSH2 0x20AF JUMP JUMPDEST JUMPDEST DUP3 DUP3 MOD SWAP1 POP SWAP3 SWAP2 POP POP JUMP JUMPDEST PUSH0 PUSH1 0x60 DUP3 ADD SWAP1 POP PUSH2 0x260C PUSH0 DUP4 ADD DUP7 PUSH2 0x1CEE JUMP JUMPDEST PUSH2 0x2619 PUSH1 0x20 DUP4 ADD DUP6 PUSH2 0x1BE6 JUMP JUMPDEST PUSH2 0x2626 PUSH1 0x40 DUP4 ADD DUP5 PUSH2 0x1AA4 JUMP JUMPDEST SWAP5 SWAP4 POP POP POP POP JUMP JUMPDEST PUSH0 PUSH1 0x60 DUP3 ADD SWAP1 POP PUSH2 0x2641 PUSH0 DUP4 ADD DUP7 PUSH2 0x1CEE JUMP JUMPDEST PUSH2 0x264E PUSH1 0x20 DUP4 ADD DUP6 PUSH2 0x1BE6 JUMP JUMPDEST PUSH2 0x265B PUSH1 0x40 DUP4 ADD DUP5 PUSH2 0x1C55 JUMP JUMPDEST SWAP5 SWAP4 POP POP POP POP JUMP INVALID LOG2 PUSH5 0x6970667358 0x22 SLT KECCAK256 0xDA DELEGATECALL PUSH23 0xA45FA4013FB3E94026F673ACD50146D0BA7184964684F7 DUP9 0xE0 AND MCOPY 0xC8 CHAINID PUSH5 0x736F6C6343 STOP ADDMOD BYTE STOP CALLER "
				},
				"gasEstimates": {
					"creation": {
						"codeDepositCost": "1976200",
						"executionCost": "188002",
						"totalCost": "2164202"
					},
					"external": {
						"addPlayer()": "infinite",
						"commits(address)": "7415",
						"elapsedMinutes()": "infinite",
						"elapsedSeconds()": "infinite",
						"getHash(bytes32)": "infinite",
						"input(bytes32)": "infinite",
						"isCommit(address)": "2878",
						"lastAction()": "2492",
						"max()": "2574",
						"numInput()": "2449",
						"numPlayer()": "2514",
						"numReveal()": "2469",
						"player_choice(address)": "2913",
						"player_not_played(address)": "2879",
						"players(uint256)": "5054",
						"revealChoice(bytes32)": "infinite",
						"reward()": "2493",
						"startTime()": "2448",
						"timeOutWithDraw()": "infinite",
						"timeoutDeration()": "2448"
					},
					"internal": {
						"_checkWinnerAndPay()": "infinite",
						"_reset()": "infinite"
					}
				},
				"methodIdentifiers": {
					"addPlayer()": "27b5db8a",
					"commits(address)": "7b43a8e6",
					"elapsedMinutes()": "d97c8416",
					"elapsedSeconds()": "bc06b8cd",
					"getHash(bytes32)": "3cf5040a",
					"input(bytes32)": "d891f969",
					"isCommit(address)": "43cdd438",
					"lastAction()": "89f71d53",
					"max()": "6ac5db19",
					"numInput()": "086f7815",
					"numPlayer()": "90d5d0c3",
					"numReveal()": "c876e615",
					"player_choice(address)": "a040478d",
					"player_not_played(address)": "190cf745",
					"players(uint256)": "f71d96cb",
					"revealChoice(bytes32)": "65ce0ac6",
					"reward()": "228cb733",
					"startTime()": "78e97925",
					"timeOutWithDraw()": "558d51c6",
					"timeoutDeration()": "3e2b58e0"
				}
			},
			"storageLayout": {
				"storage": [
					{
						"astId": 4,
						"contract": "RPS.sol:RPS",
						"label": "max",
						"offset": 0,
						"slot": "0",
						"type": "t_uint8"
					},
					{
						"astId": 16,
						"contract": "RPS.sol:RPS",
						"label": "commits",
						"offset": 0,
						"slot": "1",
						"type": "t_mapping(t_address,t_struct(Commit)11_storage)"
					},
					{
						"astId": 789,
						"contract": "RPS.sol:RPS",
						"label": "startTime",
						"offset": 0,
						"slot": "2",
						"type": "t_uint256"
					},
					{
						"astId": 210,
						"contract": "RPS.sol:RPS",
						"label": "numPlayer",
						"offset": 0,
						"slot": "3",
						"type": "t_uint256"
					},
					{
						"astId": 213,
						"contract": "RPS.sol:RPS",
						"label": "reward",
						"offset": 0,
						"slot": "4",
						"type": "t_uint256"
					},
					{
						"astId": 217,
						"contract": "RPS.sol:RPS",
						"label": "player_choice",
						"offset": 0,
						"slot": "5",
						"type": "t_mapping(t_address,t_uint256)"
					},
					{
						"astId": 221,
						"contract": "RPS.sol:RPS",
						"label": "player_not_played",
						"offset": 0,
						"slot": "6",
						"type": "t_mapping(t_address,t_bool)"
					},
					{
						"astId": 224,
						"contract": "RPS.sol:RPS",
						"label": "players",
						"offset": 0,
						"slot": "7",
						"type": "t_array(t_address)dyn_storage"
					},
					{
						"astId": 228,
						"contract": "RPS.sol:RPS",
						"label": "isCommit",
						"offset": 0,
						"slot": "8",
						"type": "t_mapping(t_address,t_bool)"
					},
					{
						"astId": 231,
						"contract": "RPS.sol:RPS",
						"label": "numInput",
						"offset": 0,
						"slot": "9",
						"type": "t_uint256"
					},
					{
						"astId": 234,
						"contract": "RPS.sol:RPS",
						"label": "numReveal",
						"offset": 0,
						"slot": "10",
						"type": "t_uint256"
					},
					{
						"astId": 237,
						"contract": "RPS.sol:RPS",
						"label": "timeoutDeration",
						"offset": 0,
						"slot": "11",
						"type": "t_uint256"
					},
					{
						"astId": 241,
						"contract": "RPS.sol:RPS",
						"label": "lastAction",
						"offset": 0,
						"slot": "12",
						"type": "t_uint256"
					},
					{
						"astId": 245,
						"contract": "RPS.sol:RPS",
						"label": "whitelistedPlayers",
						"offset": 0,
						"slot": "13",
						"type": "t_mapping(t_address,t_bool)"
					}
				],
				"types": {
					"t_address": {
						"encoding": "inplace",
						"label": "address",
						"numberOfBytes": "20"
					},
					"t_array(t_address)dyn_storage": {
						"base": "t_address",
						"encoding": "dynamic_array",
						"label": "address[]",
						"numberOfBytes": "32"
					},
					"t_bool": {
						"encoding": "inplace",
						"label": "bool",
						"numberOfBytes": "1"
					},
					"t_bytes32": {
						"encoding": "inplace",
						"label": "bytes32",
						"numberOfBytes": "32"
					},
					"t_mapping(t_address,t_bool)": {
						"encoding": "mapping",
						"key": "t_address",
						"label": "mapping(address => bool)",
						"numberOfBytes": "32",
						"value": "t_bool"
					},
					"t_mapping(t_address,t_struct(Commit)11_storage)": {
						"encoding": "mapping",
						"key": "t_address",
						"label": "mapping(address => struct CommitReveal.Commit)",
						"numberOfBytes": "32",
						"value": "t_struct(Commit)11_storage"
					},
					"t_mapping(t_address,t_uint256)": {
						"encoding": "mapping",
						"key": "t_address",
						"label": "mapping(address => uint256)",
						"numberOfBytes": "32",
						"value": "t_uint256"
					},
					"t_struct(Commit)11_storage": {
						"encoding": "inplace",
						"label": "struct CommitReveal.Commit",
						"members": [
							{
								"astId": 6,
								"contract": "RPS.sol:RPS",
								"label": "commit",
								"offset": 0,
								"slot": "0",
								"type": "t_bytes32"
							},
							{
								"astId": 8,
								"contract": "RPS.sol:RPS",
								"label": "block",
								"offset": 0,
								"slot": "1",
								"type": "t_uint64"
							},
							{
								"astId": 10,
								"contract": "RPS.sol:RPS",
								"label": "revealed",
								"offset": 8,
								"slot": "1",
								"type": "t_bool"
							}
						],
						"numberOfBytes": "64"
					},
					"t_uint256": {
						"encoding": "inplace",
						"label": "uint256",
						"numberOfBytes": "32"
					},
					"t_uint64": {
						"encoding": "inplace",
						"label": "uint64",
						"numberOfBytes": "8"
					},
					"t_uint8": {
						"encoding": "inplace",
						"label": "uint8",
						"numberOfBytes": "1"
					}
				}
			},
			"userdoc": {
				"kind": "user",
				"methods": {},
				"version": 1
			}
		}
	}
}