{
	"RPS.sol": {
		"RPS": {
			"abi": [
				{
					"anonymous": false,
					"inputs": [
						{
							"indexed": false,
							"internalType": "address",
							"name": "sender",
							"type": "address"
						},
						{
							"indexed": false,
							"internalType": "bytes32",
							"name": "dataHash",
							"type": "bytes32"
						},
						{
							"indexed": false,
							"internalType": "uint64",
							"name": "block",
							"type": "uint64"
						}
					],
					"name": "CommitHash",
					"type": "event"
				},
				{
					"anonymous": false,
					"inputs": [
						{
							"indexed": false,
							"internalType": "address",
							"name": "sender",
							"type": "address"
						},
						{
							"indexed": false,
							"internalType": "bytes32",
							"name": "answer",
							"type": "bytes32"
						},
						{
							"indexed": false,
							"internalType": "bytes32",
							"name": "salt",
							"type": "bytes32"
						}
					],
					"name": "RevealAnswer",
					"type": "event"
				},
				{
					"anonymous": false,
					"inputs": [
						{
							"indexed": false,
							"internalType": "address",
							"name": "sender",
							"type": "address"
						},
						{
							"indexed": false,
							"internalType": "bytes32",
							"name": "revealHash",
							"type": "bytes32"
						},
						{
							"indexed": false,
							"internalType": "uint256",
							"name": "random",
							"type": "uint256"
						}
					],
					"name": "RevealHash",
					"type": "event"
				},
				{
					"anonymous": false,
					"inputs": [
						{
							"indexed": false,
							"internalType": "address",
							"name": "sender",
							"type": "address"
						},
						{
							"indexed": false,
							"internalType": "uint256",
							"name": "numPlayer",
							"type": "uint256"
						}
					],
					"name": "playerAdded",
					"type": "event"
				},
				{
					"anonymous": false,
					"inputs": [
						{
							"indexed": false,
							"internalType": "address",
							"name": "sender",
							"type": "address"
						},
						{
							"indexed": false,
							"internalType": "uint256",
							"name": "numInput",
							"type": "uint256"
						}
					],
					"name": "playerCommitHashed",
					"type": "event"
				},
				{
					"inputs": [],
					"name": "addPlayer",
					"outputs": [],
					"stateMutability": "payable",
					"type": "function"
				},
				{
					"inputs": [
						{
							"internalType": "bytes32",
							"name": "dataHash",
							"type": "bytes32"
						}
					],
					"name": "commit",
					"outputs": [],
					"stateMutability": "nonpayable",
					"type": "function"
				},
				{
					"inputs": [
						{
							"internalType": "address",
							"name": "",
							"type": "address"
						}
					],
					"name": "commits",
					"outputs": [
						{
							"internalType": "bytes32",
							"name": "commit",
							"type": "bytes32"
						},
						{
							"internalType": "uint64",
							"name": "block",
							"type": "uint64"
						},
						{
							"internalType": "bool",
							"name": "revealed",
							"type": "bool"
						}
					],
					"stateMutability": "view",
					"type": "function"
				},
				{
					"inputs": [
						{
							"internalType": "uint256",
							"name": "choice",
							"type": "uint256"
						},
						{
							"internalType": "string",
							"name": "salt",
							"type": "string"
						}
					],
					"name": "getBytes32",
					"outputs": [
						{
							"internalType": "bytes32",
							"name": "",
							"type": "bytes32"
						}
					],
					"stateMutability": "view",
					"type": "function"
				},
				{
					"inputs": [
						{
							"internalType": "bytes32",
							"name": "data",
							"type": "bytes32"
						}
					],
					"name": "getHash",
					"outputs": [
						{
							"internalType": "bytes32",
							"name": "",
							"type": "bytes32"
						}
					],
					"stateMutability": "view",
					"type": "function"
				},
				{
					"inputs": [
						{
							"internalType": "bytes32",
							"name": "data",
							"type": "bytes32"
						},
						{
							"internalType": "bytes32",
							"name": "salt",
							"type": "bytes32"
						}
					],
					"name": "getSaltedHash",
					"outputs": [
						{
							"internalType": "bytes32",
							"name": "",
							"type": "bytes32"
						}
					],
					"stateMutability": "view",
					"type": "function"
				},
				{
					"inputs": [
						{
							"internalType": "bytes32",
							"name": "hashAns",
							"type": "bytes32"
						},
						{
							"internalType": "uint256",
							"name": "idx",
							"type": "uint256"
						}
					],
					"name": "input",
					"outputs": [],
					"stateMutability": "nonpayable",
					"type": "function"
				},
				{
					"inputs": [],
					"name": "max",
					"outputs": [
						{
							"internalType": "uint8",
							"name": "",
							"type": "uint8"
						}
					],
					"stateMutability": "view",
					"type": "function"
				},
				{
					"inputs": [],
					"name": "numInput",
					"outputs": [
						{
							"internalType": "uint256",
							"name": "",
							"type": "uint256"
						}
					],
					"stateMutability": "view",
					"type": "function"
				},
				{
					"inputs": [],
					"name": "numPlayer",
					"outputs": [
						{
							"internalType": "uint256",
							"name": "",
							"type": "uint256"
						}
					],
					"stateMutability": "view",
					"type": "function"
				},
				{
					"inputs": [],
					"name": "numReveal",
					"outputs": [
						{
							"internalType": "uint256",
							"name": "",
							"type": "uint256"
						}
					],
					"stateMutability": "view",
					"type": "function"
				},
				{
					"inputs": [
						{
							"internalType": "uint256",
							"name": "",
							"type": "uint256"
						}
					],
					"name": "player",
					"outputs": [
						{
							"internalType": "uint256",
							"name": "choice",
							"type": "uint256"
						},
						{
							"internalType": "address",
							"name": "addr",
							"type": "address"
						},
						{
							"internalType": "bool",
							"name": "isCommit",
							"type": "bool"
						}
					],
					"stateMutability": "view",
					"type": "function"
				},
				{
					"inputs": [
						{
							"internalType": "bytes32",
							"name": "revealHash",
							"type": "bytes32"
						}
					],
					"name": "reveal",
					"outputs": [],
					"stateMutability": "nonpayable",
					"type": "function"
				},
				{
					"inputs": [
						{
							"internalType": "bytes32",
							"name": "answer",
							"type": "bytes32"
						},
						{
							"internalType": "bytes32",
							"name": "salt",
							"type": "bytes32"
						}
					],
					"name": "revealAnswer",
					"outputs": [],
					"stateMutability": "nonpayable",
					"type": "function"
				},
				{
					"inputs": [
						{
							"internalType": "uint256",
							"name": "choice",
							"type": "uint256"
						},
						{
							"internalType": "uint256",
							"name": "idx",
							"type": "uint256"
						},
						{
							"internalType": "string",
							"name": "salt",
							"type": "string"
						}
					],
					"name": "revealChoice",
					"outputs": [],
					"stateMutability": "nonpayable",
					"type": "function"
				},
				{
					"inputs": [],
					"name": "reward",
					"outputs": [
						{
							"internalType": "uint256",
							"name": "",
							"type": "uint256"
						}
					],
					"stateMutability": "view",
					"type": "function"
				}
			],
			"devdoc": {
				"kind": "dev",
				"methods": {},
				"version": 1
			},
			"evm": {
				"assembly": "    /* \"RPS.sol\":106:3098  contract RPS is CommitReveal {... */\n  mstore(0x40, 0x80)\n    /* \"CommitReveal.sol\":116:119  100 */\n  0x64\n    /* \"CommitReveal.sol\":97:119  uint8 public max = 100 */\n  0x00\n  dup1\n  0x0100\n  exp\n  dup2\n  sload\n  dup2\n  0xff\n  mul\n  not\n  and\n  swap1\n  dup4\n  0xff\n  and\n  mul\n  or\n  swap1\n  sstore\n  pop\n    /* \"RPS.sol\":316:317  0 */\n  0x00\n    /* \"RPS.sol\":292:317  uint public numPlayer = 0 */\n  0x02\n  sstore\n    /* \"RPS.sol\":345:346  0 */\n  0x00\n    /* \"RPS.sol\":324:346  uint public reward = 0 */\n  0x03\n  sstore\n    /* \"RPS.sol\":421:422  0 */\n  0x00\n    /* \"RPS.sol\":398:422  uint public numInput = 0 */\n  0x05\n  sstore\n    /* \"RPS.sol\":453:454  0 */\n  0x00\n    /* \"RPS.sol\":429:454  uint public numReveal = 0 */\n  0x06\n  sstore\n    /* \"RPS.sol\":106:3098  contract RPS is CommitReveal {... */\n  callvalue\n  dup1\n  iszero\n  tag_1\n  jumpi\n  0x00\n  dup1\n  revert\ntag_1:\n  pop\n  dataSize(sub_0)\n  dup1\n  dataOffset(sub_0)\n  0x00\n  codecopy\n  0x00\n  return\nstop\n\nsub_0: assembly {\n        /* \"RPS.sol\":106:3098  contract RPS is CommitReveal {... */\n      mstore(0x40, 0x80)\n      jumpi(tag_1, lt(calldatasize, 0x04))\n      shr(0xe0, calldataload(0x00))\n      dup1\n      0x8dddbf36\n      gt\n      tag_18\n      jumpi\n      dup1\n      0xd09a0a3b\n      gt\n      tag_19\n      jumpi\n      dup1\n      0xd09a0a3b\n      eq\n      tag_14\n      jumpi\n      dup1\n      0xd1adbd72\n      eq\n      tag_15\n      jumpi\n      dup1\n      0xde8e9033\n      eq\n      tag_16\n      jumpi\n      dup1\n      0xf14fcbc8\n      eq\n      tag_17\n      jumpi\n      jump(tag_1)\n    tag_19:\n      dup1\n      0x8dddbf36\n      eq\n      tag_10\n      jumpi\n      dup1\n      0x90d5d0c3\n      eq\n      tag_11\n      jumpi\n      dup1\n      0x9e0551c6\n      eq\n      tag_12\n      jumpi\n      dup1\n      0xc876e615\n      eq\n      tag_13\n      jumpi\n      jump(tag_1)\n    tag_18:\n      dup1\n      0x5afa1fd8\n      gt\n      tag_20\n      jumpi\n      dup1\n      0x5afa1fd8\n      eq\n      tag_6\n      jumpi\n      dup1\n      0x6ac5db19\n      eq\n      tag_7\n      jumpi\n      dup1\n      0x701fd0f1\n      eq\n      tag_8\n      jumpi\n      dup1\n      0x7b43a8e6\n      eq\n      tag_9\n      jumpi\n      jump(tag_1)\n    tag_20:\n      dup1\n      0x086f7815\n      eq\n      tag_2\n      jumpi\n      dup1\n      0x228cb733\n      eq\n      tag_3\n      jumpi\n      dup1\n      0x27b5db8a\n      eq\n      tag_4\n      jumpi\n      dup1\n      0x3cf5040a\n      eq\n      tag_5\n      jumpi\n    tag_1:\n      0x00\n      dup1\n      revert\n        /* \"RPS.sol\":398:422  uint public numInput = 0 */\n    tag_2:\n      callvalue\n      dup1\n      iszero\n      tag_21\n      jumpi\n      0x00\n      dup1\n      revert\n    tag_21:\n      pop\n      tag_22\n      tag_23\n      jump\t// in\n    tag_22:\n      mload(0x40)\n      tag_24\n      swap2\n      swap1\n      tag_25\n      jump\t// in\n    tag_24:\n      mload(0x40)\n      dup1\n      swap2\n      sub\n      swap1\n      return\n        /* \"RPS.sol\":324:346  uint public reward = 0 */\n    tag_3:\n      callvalue\n      dup1\n      iszero\n      tag_26\n      jumpi\n      0x00\n      dup1\n      revert\n    tag_26:\n      pop\n      tag_27\n      tag_28\n      jump\t// in\n    tag_27:\n      mload(0x40)\n      tag_29\n      swap2\n      swap1\n      tag_25\n      jump\t// in\n    tag_29:\n      mload(0x40)\n      dup1\n      swap2\n      sub\n      swap1\n      return\n        /* \"RPS.sol\":463:812  function addPlayer() public payable {... */\n    tag_4:\n      tag_30\n      tag_31\n      jump\t// in\n    tag_30:\n      stop\n        /* \"CommitReveal.sol\":1816:1941  function getHash(bytes32 data) public view returns(bytes32){... */\n    tag_5:\n      callvalue\n      dup1\n      iszero\n      tag_32\n      jumpi\n      0x00\n      dup1\n      revert\n    tag_32:\n      pop\n      tag_33\n      0x04\n      dup1\n      calldatasize\n      sub\n      dup2\n      add\n      swap1\n      tag_34\n      swap2\n      swap1\n      tag_35\n      jump\t// in\n    tag_34:\n      tag_36\n      jump\t// in\n    tag_33:\n      mload(0x40)\n      tag_37\n      swap2\n      swap1\n      tag_38\n      jump\t// in\n    tag_37:\n      mload(0x40)\n      dup1\n      swap2\n      sub\n      swap1\n      return\n        /* \"RPS.sol\":1645:2281  function revealChoice(uint choice, uint idx, string memory salt) public {... */\n    tag_6:\n      callvalue\n      dup1\n      iszero\n      tag_39\n      jumpi\n      0x00\n      dup1\n      revert\n    tag_39:\n      pop\n      tag_40\n      0x04\n      dup1\n      calldatasize\n      sub\n      dup2\n      add\n      swap1\n      tag_41\n      swap2\n      swap1\n      tag_42\n      jump\t// in\n    tag_41:\n      tag_43\n      jump\t// in\n    tag_40:\n      stop\n        /* \"CommitReveal.sol\":97:119  uint8 public max = 100 */\n    tag_7:\n      callvalue\n      dup1\n      iszero\n      tag_44\n      jumpi\n      0x00\n      dup1\n      revert\n    tag_44:\n      pop\n      tag_45\n      tag_46\n      jump\t// in\n    tag_45:\n      mload(0x40)\n      tag_47\n      swap2\n      swap1\n      tag_48\n      jump\t// in\n    tag_47:\n      mload(0x40)\n      dup1\n      swap2\n      sub\n      swap1\n      return\n        /* \"CommitReveal.sol\":594:1743  function reveal(bytes32 revealHash) public {... */\n    tag_8:\n      callvalue\n      dup1\n      iszero\n      tag_49\n      jumpi\n      0x00\n      dup1\n      revert\n    tag_49:\n      pop\n      tag_50\n      0x04\n      dup1\n      calldatasize\n      sub\n      dup2\n      add\n      swap1\n      tag_51\n      swap2\n      swap1\n      tag_35\n      jump\t// in\n    tag_51:\n      tag_52\n      jump\t// in\n    tag_50:\n      stop\n        /* \"CommitReveal.sol\":204:246  mapping (address => Commit) public commits */\n    tag_9:\n      callvalue\n      dup1\n      iszero\n      tag_53\n      jumpi\n      0x00\n      dup1\n      revert\n    tag_53:\n      pop\n      tag_54\n      0x04\n      dup1\n      calldatasize\n      sub\n      dup2\n      add\n      swap1\n      tag_55\n      swap2\n      swap1\n      tag_56\n      jump\t// in\n    tag_55:\n      tag_57\n      jump\t// in\n    tag_54:\n      mload(0x40)\n      tag_58\n      swap4\n      swap3\n      swap2\n      swap1\n      tag_59\n      jump\t// in\n    tag_58:\n      mload(0x40)\n      dup1\n      swap2\n      sub\n      swap1\n      return\n        /* \"CommitReveal.sol\":2520:2670  function getSaltedHash(bytes32 data,bytes32 salt) public view returns(bytes32){... */\n    tag_10:\n      callvalue\n      dup1\n      iszero\n      tag_60\n      jumpi\n      0x00\n      dup1\n      revert\n    tag_60:\n      pop\n      tag_61\n      0x04\n      dup1\n      calldatasize\n      sub\n      dup2\n      add\n      swap1\n      tag_62\n      swap2\n      swap1\n      tag_63\n      jump\t// in\n    tag_62:\n      tag_64\n      jump\t// in\n    tag_61:\n      mload(0x40)\n      tag_65\n      swap2\n      swap1\n      tag_38\n      jump\t// in\n    tag_65:\n      mload(0x40)\n      dup1\n      swap2\n      sub\n      swap1\n      return\n        /* \"RPS.sol\":292:317  uint public numPlayer = 0 */\n    tag_11:\n      callvalue\n      dup1\n      iszero\n      tag_66\n      jumpi\n      0x00\n      dup1\n      revert\n    tag_66:\n      pop\n      tag_67\n      tag_68\n      jump\t// in\n    tag_67:\n      mload(0x40)\n      tag_69\n      swap2\n      swap1\n      tag_25\n      jump\t// in\n    tag_69:\n      mload(0x40)\n      dup1\n      swap2\n      sub\n      swap1\n      return\n        /* \"RPS.sol\":353:391  mapping (uint => Player) public player */\n    tag_12:\n      callvalue\n      dup1\n      iszero\n      tag_70\n      jumpi\n      0x00\n      dup1\n      revert\n    tag_70:\n      pop\n      tag_71\n      0x04\n      dup1\n      calldatasize\n      sub\n      dup2\n      add\n      swap1\n      tag_72\n      swap2\n      swap1\n      tag_73\n      jump\t// in\n    tag_72:\n      tag_74\n      jump\t// in\n    tag_71:\n      mload(0x40)\n      tag_75\n      swap4\n      swap3\n      swap2\n      swap1\n      tag_76\n      jump\t// in\n    tag_75:\n      mload(0x40)\n      dup1\n      swap2\n      sub\n      swap1\n      return\n        /* \"RPS.sol\":429:454  uint public numReveal = 0 */\n    tag_13:\n      callvalue\n      dup1\n      iszero\n      tag_77\n      jumpi\n      0x00\n      dup1\n      revert\n    tag_77:\n      pop\n      tag_78\n      tag_79\n      jump\t// in\n    tag_78:\n      mload(0x40)\n      tag_80\n      swap2\n      swap1\n      tag_25\n      jump\t// in\n    tag_80:\n      mload(0x40)\n      dup1\n      swap2\n      sub\n      swap1\n      return\n        /* \"RPS.sol\":882:1198  function getBytes32(uint choice, string memory salt) view  public returns (bytes32){... */\n    tag_14:\n      callvalue\n      dup1\n      iszero\n      tag_81\n      jumpi\n      0x00\n      dup1\n      revert\n    tag_81:\n      pop\n      tag_82\n      0x04\n      dup1\n      calldatasize\n      sub\n      dup2\n      add\n      swap1\n      tag_83\n      swap2\n      swap1\n      tag_84\n      jump\t// in\n    tag_83:\n      tag_85\n      jump\t// in\n    tag_82:\n      mload(0x40)\n      tag_86\n      swap2\n      swap1\n      tag_38\n      jump\t// in\n    tag_86:\n      mload(0x40)\n      dup1\n      swap2\n      sub\n      swap1\n      return\n        /* \"RPS.sol\":1206:1569  function input(bytes32 hashAns, uint idx) public  {... */\n    tag_15:\n      callvalue\n      dup1\n      iszero\n      tag_87\n      jumpi\n      0x00\n      dup1\n      revert\n    tag_87:\n      pop\n      tag_88\n      0x04\n      dup1\n      calldatasize\n      sub\n      dup2\n      add\n      swap1\n      tag_89\n      swap2\n      swap1\n      tag_90\n      jump\t// in\n    tag_89:\n      tag_91\n      jump\t// in\n    tag_88:\n      stop\n        /* \"CommitReveal.sol\":1945:2448  function revealAnswer(bytes32 answer,bytes32 salt) public {... */\n    tag_16:\n      callvalue\n      dup1\n      iszero\n      tag_92\n      jumpi\n      0x00\n      dup1\n      revert\n    tag_92:\n      pop\n      tag_93\n      0x04\n      dup1\n      calldatasize\n      sub\n      dup2\n      add\n      swap1\n      tag_94\n      swap2\n      swap1\n      tag_63\n      jump\t// in\n    tag_94:\n      tag_95\n      jump\t// in\n    tag_93:\n      stop\n        /* \"CommitReveal.sol\":251:522  function commit(bytes32 dataHash) public {... */\n    tag_17:\n      callvalue\n      dup1\n      iszero\n      tag_96\n      jumpi\n      0x00\n      dup1\n      revert\n    tag_96:\n      pop\n      tag_97\n      0x04\n      dup1\n      calldatasize\n      sub\n      dup2\n      add\n      swap1\n      tag_98\n      swap2\n      swap1\n      tag_35\n      jump\t// in\n    tag_98:\n      tag_99\n      jump\t// in\n    tag_97:\n      stop\n        /* \"RPS.sol\":398:422  uint public numInput = 0 */\n    tag_23:\n      sload(0x05)\n      dup2\n      jump\t// out\n        /* \"RPS.sol\":324:346  uint public reward = 0 */\n    tag_28:\n      sload(0x03)\n      dup2\n      jump\t// out\n        /* \"RPS.sol\":463:812  function addPlayer() public payable {... */\n    tag_31:\n        /* \"RPS.sol\":530:531  2 */\n      0x02\n        /* \"RPS.sol\":518:527  numPlayer */\n      dup1\n      sload\n        /* \"RPS.sol\":518:531  numPlayer < 2 */\n      lt\n        /* \"RPS.sol\":510:532  require(numPlayer < 2) */\n      tag_101\n      jumpi\n      0x00\n      dup1\n      revert\n    tag_101:\n        /* \"RPS.sol\":564:571  1 ether */\n      0x0de0b6b3a7640000\n        /* \"RPS.sol\":551:560  msg.value */\n      callvalue\n        /* \"RPS.sol\":551:571  msg.value == 1 ether */\n      eq\n        /* \"RPS.sol\":543:572  require(msg.value == 1 ether) */\n      tag_102\n      jumpi\n      0x00\n      dup1\n      revert\n    tag_102:\n        /* \"RPS.sol\":593:602  msg.value */\n      callvalue\n        /* \"RPS.sol\":583:589  reward */\n      0x03\n      0x00\n        /* \"RPS.sol\":583:602  reward += msg.value */\n      dup3\n      dup3\n      sload\n      tag_103\n      swap2\n      swap1\n      tag_104\n      jump\t// in\n    tag_103:\n      swap3\n      pop\n      pop\n      dup2\n      swap1\n      sstore\n      pop\n        /* \"RPS.sol\":638:648  msg.sender */\n      caller\n        /* \"RPS.sol\":613:619  player */\n      0x04\n        /* \"RPS.sol\":613:630  player[numPlayer] */\n      0x00\n        /* \"RPS.sol\":620:629  numPlayer */\n      sload(0x02)\n        /* \"RPS.sol\":613:630  player[numPlayer] */\n      dup2\n      mstore\n      0x20\n      add\n      swap1\n      dup2\n      mstore\n      0x20\n      add\n      0x00\n      keccak256\n        /* \"RPS.sol\":613:635  player[numPlayer].addr */\n      0x01\n      add\n      0x00\n        /* \"RPS.sol\":613:648  player[numPlayer].addr = msg.sender */\n      0x0100\n      exp\n      dup2\n      sload\n      dup2\n      0xffffffffffffffffffffffffffffffffffffffff\n      mul\n      not\n      and\n      swap1\n      dup4\n      0xffffffffffffffffffffffffffffffffffffffff\n      and\n      mul\n      or\n      swap1\n      sstore\n      pop\n        /* \"RPS.sol\":686:687  3 */\n      0x03\n        /* \"RPS.sol\":659:665  player */\n      0x04\n        /* \"RPS.sol\":659:676  player[numPlayer] */\n      0x00\n        /* \"RPS.sol\":666:675  numPlayer */\n      sload(0x02)\n        /* \"RPS.sol\":659:676  player[numPlayer] */\n      dup2\n      mstore\n      0x20\n      add\n      swap1\n      dup2\n      mstore\n      0x20\n      add\n      0x00\n      keccak256\n        /* \"RPS.sol\":659:683  player[numPlayer].choice */\n      0x00\n      add\n        /* \"RPS.sol\":659:687  player[numPlayer].choice = 3 */\n      dup2\n      swap1\n      sstore\n      pop\n        /* \"RPS.sol\":727:732  false */\n      0x00\n        /* \"RPS.sol\":698:704  player */\n      0x04\n        /* \"RPS.sol\":698:715  player[numPlayer] */\n      0x00\n        /* \"RPS.sol\":705:714  numPlayer */\n      sload(0x02)\n        /* \"RPS.sol\":698:715  player[numPlayer] */\n      dup2\n      mstore\n      0x20\n      add\n      swap1\n      dup2\n      mstore\n      0x20\n      add\n      0x00\n      keccak256\n        /* \"RPS.sol\":698:724  player[numPlayer].isCommit */\n      0x01\n      add\n      0x14\n        /* \"RPS.sol\":698:732  player[numPlayer].isCommit = false */\n      0x0100\n      exp\n      dup2\n      sload\n      dup2\n      0xff\n      mul\n      not\n      and\n      swap1\n      dup4\n      iszero\n      iszero\n      mul\n      or\n      swap1\n      sstore\n      pop\n        /* \"RPS.sol\":743:752  numPlayer */\n      0x02\n      0x00\n        /* \"RPS.sol\":743:754  numPlayer++ */\n      dup2\n      sload\n      dup1\n      swap3\n      swap2\n      swap1\n      tag_105\n      swap1\n      tag_106\n      jump\t// in\n    tag_105:\n      swap2\n      swap1\n      pop\n      sstore\n      pop\n        /* \"RPS.sol\":770:804  playerAdded(msg.sender, numPlayer) */\n      0x313f9ebdca9d25ee9456dd69022e3324975c8261b7a8b134881905d3b6964d3c\n        /* \"RPS.sol\":782:792  msg.sender */\n      caller\n        /* \"RPS.sol\":794:803  numPlayer */\n      sload(0x02)\n        /* \"RPS.sol\":770:804  playerAdded(msg.sender, numPlayer) */\n      mload(0x40)\n      tag_107\n      swap3\n      swap2\n      swap1\n      tag_108\n      jump\t// in\n    tag_107:\n      mload(0x40)\n      dup1\n      swap2\n      sub\n      swap1\n      log1\n        /* \"RPS.sol\":463:812  function addPlayer() public payable {... */\n      jump\t// out\n        /* \"CommitReveal.sol\":1816:1941  function getHash(bytes32 data) public view returns(bytes32){... */\n    tag_36:\n        /* \"CommitReveal.sol\":1867:1874  bytes32 */\n      0x00\n        /* \"CommitReveal.sol\":1923:1927  this */\n      address\n        /* \"CommitReveal.sol\":1930:1934  data */\n      dup3\n        /* \"CommitReveal.sol\":1898:1935  abi.encodePacked(address(this), data) */\n      add(0x20, mload(0x40))\n      tag_110\n      swap3\n      swap2\n      swap1\n      tag_111\n      jump\t// in\n    tag_110:\n      mload(0x40)\n      0x20\n      dup2\n      dup4\n      sub\n      sub\n      dup2\n      mstore\n      swap1\n      0x40\n      mstore\n        /* \"CommitReveal.sol\":1888:1936  keccak256(abi.encodePacked(address(this), data)) */\n      dup1\n      mload\n      swap1\n      0x20\n      add\n      keccak256\n        /* \"CommitReveal.sol\":1881:1936  return keccak256(abi.encodePacked(address(this), data)) */\n      swap1\n      pop\n        /* \"CommitReveal.sol\":1816:1941  function getHash(bytes32 data) public view returns(bytes32){... */\n      swap2\n      swap1\n      pop\n      jump\t// out\n        /* \"RPS.sol\":1645:2281  function revealChoice(uint choice, uint idx, string memory salt) public {... */\n    tag_43:\n        /* \"RPS.sol\":1749:1750  2 */\n      0x02\n        /* \"RPS.sol\":1736:1745  numPlayer */\n      dup1\n      sload\n        /* \"RPS.sol\":1736:1750  numPlayer == 2 */\n      eq\n        /* \"RPS.sol\":1728:1751  require(numPlayer == 2) */\n      tag_113\n      jumpi\n      0x00\n      dup1\n      revert\n    tag_113:\n        /* \"RPS.sol\":1782:1783  2 */\n      0x02\n        /* \"RPS.sol\":1770:1778  numInput */\n      sload(0x05)\n        /* \"RPS.sol\":1770:1783  numInput == 2 */\n      eq\n        /* \"RPS.sol\":1762:1784  require(numInput == 2) */\n      tag_114\n      jumpi\n      0x00\n      dup1\n      revert\n    tag_114:\n        /* \"RPS.sol\":1817:1823  player */\n      0x04\n        /* \"RPS.sol\":1817:1828  player[idx] */\n      0x00\n        /* \"RPS.sol\":1824:1827  idx */\n      dup4\n        /* \"RPS.sol\":1817:1828  player[idx] */\n      dup2\n      mstore\n      0x20\n      add\n      swap1\n      dup2\n      mstore\n      0x20\n      add\n      0x00\n      keccak256\n        /* \"RPS.sol\":1817:1833  player[idx].addr */\n      0x01\n      add\n      0x00\n      swap1\n      sload\n      swap1\n      0x0100\n      exp\n      swap1\n      div\n      0xffffffffffffffffffffffffffffffffffffffff\n      and\n        /* \"RPS.sol\":1803:1833  msg.sender == player[idx].addr */\n      0xffffffffffffffffffffffffffffffffffffffff\n      and\n        /* \"RPS.sol\":1803:1813  msg.sender */\n      caller\n        /* \"RPS.sol\":1803:1833  msg.sender == player[idx].addr */\n      0xffffffffffffffffffffffffffffffffffffffff\n      and\n      eq\n        /* \"RPS.sol\":1795:1834  require(msg.sender == player[idx].addr) */\n      tag_115\n      jumpi\n      0x00\n      dup1\n      revert\n    tag_115:\n        /* \"RPS.sol\":1863:1864  0 */\n      0x00\n        /* \"RPS.sol\":1853:1859  choice */\n      dup4\n        /* \"RPS.sol\":1853:1864  choice >= 0 */\n      lt\n      iszero\n        /* \"RPS.sol\":1853:1879  choice >= 0 && choice <= 3 */\n      dup1\n      iszero\n      tag_116\n      jumpi\n      pop\n        /* \"RPS.sol\":1878:1879  3 */\n      0x03\n        /* \"RPS.sol\":1868:1874  choice */\n      dup4\n        /* \"RPS.sol\":1868:1879  choice <= 3 */\n      gt\n      iszero\n        /* \"RPS.sol\":1853:1879  choice >= 0 && choice <= 3 */\n    tag_116:\n        /* \"RPS.sol\":1845:1880  require(choice >= 0 && choice <= 3) */\n      tag_117\n      jumpi\n      0x00\n      dup1\n      revert\n    tag_117:\n        /* \"RPS.sol\":1923:1927  true */\n      0x01\n        /* \"RPS.sol\":1899:1927  player[idx].isCommit == true */\n      iszero\n      iszero\n        /* \"RPS.sol\":1899:1905  player */\n      0x04\n        /* \"RPS.sol\":1899:1910  player[idx] */\n      0x00\n        /* \"RPS.sol\":1906:1909  idx */\n      dup5\n        /* \"RPS.sol\":1899:1910  player[idx] */\n      dup2\n      mstore\n      0x20\n      add\n      swap1\n      dup2\n      mstore\n      0x20\n      add\n      0x00\n      keccak256\n        /* \"RPS.sol\":1899:1919  player[idx].isCommit */\n      0x01\n      add\n      0x14\n      swap1\n      sload\n      swap1\n      0x0100\n      exp\n      swap1\n      div\n      0xff\n      and\n        /* \"RPS.sol\":1899:1927  player[idx].isCommit == true */\n      iszero\n      iszero\n      eq\n        /* \"RPS.sol\":1891:1928  require(player[idx].isCommit == true) */\n      tag_118\n      jumpi\n      0x00\n      dup1\n      revert\n    tag_118:\n        /* \"RPS.sol\":1949:1965  bytes32 saltByte */\n      0x00\n        /* \"RPS.sol\":1993:1997  salt */\n      dup2\n        /* \"RPS.sol\":1976:1998  abi.encodePacked(salt) */\n      add(0x20, mload(0x40))\n      tag_119\n      swap2\n      swap1\n      tag_120\n      jump\t// in\n    tag_119:\n      mload(0x40)\n      0x20\n      dup2\n      dup4\n      sub\n      sub\n      dup2\n      mstore\n      swap1\n      0x40\n      mstore\n        /* \"RPS.sol\":1968:1999  bytes32(abi.encodePacked(salt)) */\n      tag_121\n      swap1\n      tag_122\n      jump\t// in\n    tag_121:\n        /* \"RPS.sol\":1949:1999  bytes32 saltByte = bytes32(abi.encodePacked(salt)) */\n      swap1\n      pop\n        /* \"RPS.sol\":2010:2028  bytes32 ChoiceByte */\n      0x00\n        /* \"RPS.sol\":2056:2062  choice */\n      dup5\n        /* \"RPS.sol\":2039:2063  abi.encodePacked(choice) */\n      add(0x20, mload(0x40))\n      tag_123\n      swap2\n      swap1\n      tag_124\n      jump\t// in\n    tag_123:\n      mload(0x40)\n      0x20\n      dup2\n      dup4\n      sub\n      sub\n      dup2\n      mstore\n      swap1\n      0x40\n      mstore\n        /* \"RPS.sol\":2031:2064  bytes32(abi.encodePacked(choice)) */\n      tag_125\n      swap1\n      tag_122\n      jump\t// in\n    tag_125:\n        /* \"RPS.sol\":2010:2064  bytes32 ChoiceByte = bytes32(abi.encodePacked(choice)) */\n      swap1\n      pop\n        /* \"RPS.sol\":2077:2111  revealAnswer(ChoiceByte, saltByte) */\n      tag_126\n        /* \"RPS.sol\":2090:2100  ChoiceByte */\n      dup2\n        /* \"RPS.sol\":2102:2110  saltByte */\n      dup4\n        /* \"RPS.sol\":2077:2089  revealAnswer */\n      tag_95\n        /* \"RPS.sol\":2077:2111  revealAnswer(ChoiceByte, saltByte) */\n      jump\t// in\n    tag_126:\n        /* \"RPS.sol\":2143:2149  choice */\n      dup5\n        /* \"RPS.sol\":2122:2128  player */\n      0x04\n        /* \"RPS.sol\":2122:2133  player[idx] */\n      0x00\n        /* \"RPS.sol\":2129:2132  idx */\n      dup7\n        /* \"RPS.sol\":2122:2133  player[idx] */\n      dup2\n      mstore\n      0x20\n      add\n      swap1\n      dup2\n      mstore\n      0x20\n      add\n      0x00\n      keccak256\n        /* \"RPS.sol\":2122:2140  player[idx].choice */\n      0x00\n      add\n        /* \"RPS.sol\":2122:2149  player[idx].choice = choice */\n      dup2\n      swap1\n      sstore\n      pop\n        /* \"RPS.sol\":2160:2169  numReveal */\n      0x06\n      0x00\n        /* \"RPS.sol\":2160:2171  numReveal++ */\n      dup2\n      sload\n      dup1\n      swap3\n      swap2\n      swap1\n      tag_127\n      swap1\n      tag_106\n      jump\t// in\n    tag_127:\n      swap2\n      swap1\n      pop\n      sstore\n      pop\n        /* \"RPS.sol\":2201:2202  2 */\n      0x02\n        /* \"RPS.sol\":2188:2197  numReveal */\n      sload(0x06)\n        /* \"RPS.sol\":2188:2202  numReveal == 2 */\n      sub\n        /* \"RPS.sol\":2184:2274  if (numReveal == 2) {... */\n      tag_128\n      jumpi\n        /* \"RPS.sol\":2219:2239  _checkWinnerAndPay() */\n      tag_129\n        /* \"RPS.sol\":2219:2237  _checkWinnerAndPay */\n      tag_130\n        /* \"RPS.sol\":2219:2239  _checkWinnerAndPay() */\n      jump\t// in\n    tag_129:\n        /* \"RPS.sol\":2254:2262  _reset() */\n      tag_131\n        /* \"RPS.sol\":2254:2260  _reset */\n      tag_132\n        /* \"RPS.sol\":2254:2262  _reset() */\n      jump\t// in\n    tag_131:\n        /* \"RPS.sol\":2184:2274  if (numReveal == 2) {... */\n    tag_128:\n        /* \"RPS.sol\":1717:2281  {... */\n      pop\n      pop\n        /* \"RPS.sol\":1645:2281  function revealChoice(uint choice, uint idx, string memory salt) public {... */\n      pop\n      pop\n      pop\n      jump\t// out\n        /* \"CommitReveal.sol\":97:119  uint8 public max = 100 */\n    tag_46:\n      0x00\n      dup1\n      sload\n      swap1\n      0x0100\n      exp\n      swap1\n      div\n      0xff\n      and\n      dup2\n      jump\t// out\n        /* \"CommitReveal.sol\":594:1743  function reveal(bytes32 revealHash) public {... */\n    tag_52:\n        /* \"CommitReveal.sol\":748:753  false */\n      0x00\n        /* \"CommitReveal.sol\":718:753  commits[msg.sender].revealed==false */\n      iszero\n      iszero\n        /* \"CommitReveal.sol\":718:725  commits */\n      0x01\n        /* \"CommitReveal.sol\":718:737  commits[msg.sender] */\n      0x00\n        /* \"CommitReveal.sol\":726:736  msg.sender */\n      caller\n        /* \"CommitReveal.sol\":718:737  commits[msg.sender] */\n      0xffffffffffffffffffffffffffffffffffffffff\n      and\n      0xffffffffffffffffffffffffffffffffffffffff\n      and\n      dup2\n      mstore\n      0x20\n      add\n      swap1\n      dup2\n      mstore\n      0x20\n      add\n      0x00\n      keccak256\n        /* \"CommitReveal.sol\":718:746  commits[msg.sender].revealed */\n      0x01\n      add\n      0x08\n      swap1\n      sload\n      swap1\n      0x0100\n      exp\n      swap1\n      div\n      0xff\n      and\n        /* \"CommitReveal.sol\":718:753  commits[msg.sender].revealed==false */\n      iszero\n      iszero\n      eq\n        /* \"CommitReveal.sol\":710:795  require(commits[msg.sender].revealed==false,\"CommitReveal::reveal: Already revealed\") */\n      tag_134\n      jumpi\n      mload(0x40)\n      0x08c379a000000000000000000000000000000000000000000000000000000000\n      dup2\n      mstore\n      0x04\n      add\n      tag_135\n      swap1\n      tag_136\n      jump\t// in\n    tag_135:\n      mload(0x40)\n      dup1\n      swap2\n      sub\n      swap1\n      revert\n    tag_134:\n        /* \"CommitReveal.sol\":830:834  true */\n      0x01\n        /* \"CommitReveal.sol\":801:808  commits */\n      dup1\n        /* \"CommitReveal.sol\":801:820  commits[msg.sender] */\n      0x00\n        /* \"CommitReveal.sol\":809:819  msg.sender */\n      caller\n        /* \"CommitReveal.sol\":801:820  commits[msg.sender] */\n      0xffffffffffffffffffffffffffffffffffffffff\n      and\n      0xffffffffffffffffffffffffffffffffffffffff\n      and\n      dup2\n      mstore\n      0x20\n      add\n      swap1\n      dup2\n      mstore\n      0x20\n      add\n      0x00\n      keccak256\n        /* \"CommitReveal.sol\":801:829  commits[msg.sender].revealed */\n      0x01\n      add\n      0x08\n        /* \"CommitReveal.sol\":801:834  commits[msg.sender].revealed=true */\n      0x0100\n      exp\n      dup2\n      sload\n      dup2\n      0xff\n      mul\n      not\n      and\n      swap1\n      dup4\n      iszero\n      iszero\n      mul\n      or\n      swap1\n      sstore\n      pop\n        /* \"CommitReveal.sol\":924:931  commits */\n      0x01\n        /* \"CommitReveal.sol\":924:943  commits[msg.sender] */\n      0x00\n        /* \"CommitReveal.sol\":932:942  msg.sender */\n      caller\n        /* \"CommitReveal.sol\":924:943  commits[msg.sender] */\n      0xffffffffffffffffffffffffffffffffffffffff\n      and\n      0xffffffffffffffffffffffffffffffffffffffff\n      and\n      dup2\n      mstore\n      0x20\n      add\n      swap1\n      dup2\n      mstore\n      0x20\n      add\n      0x00\n      keccak256\n        /* \"CommitReveal.sol\":924:950  commits[msg.sender].commit */\n      0x00\n      add\n      sload\n        /* \"CommitReveal.sol\":903:922  getHash(revealHash) */\n      tag_137\n        /* \"CommitReveal.sol\":911:921  revealHash */\n      dup3\n        /* \"CommitReveal.sol\":903:910  getHash */\n      tag_36\n        /* \"CommitReveal.sol\":903:922  getHash(revealHash) */\n      jump\t// in\n    tag_137:\n        /* \"CommitReveal.sol\":903:950  getHash(revealHash)==commits[msg.sender].commit */\n      eq\n        /* \"CommitReveal.sol\":895:1011  require(getHash(revealHash)==commits[msg.sender].commit,\"CommitReveal::reveal: Revealed hash does not match commit\") */\n      tag_138\n      jumpi\n      mload(0x40)\n      0x08c379a000000000000000000000000000000000000000000000000000000000\n      dup2\n      mstore\n      0x04\n      add\n      tag_139\n      swap1\n      tag_140\n      jump\t// in\n    tag_139:\n      mload(0x40)\n      dup1\n      swap2\n      sub\n      swap1\n      revert\n    tag_138:\n        /* \"CommitReveal.sol\":1117:1124  commits */\n      0x01\n        /* \"CommitReveal.sol\":1117:1136  commits[msg.sender] */\n      0x00\n        /* \"CommitReveal.sol\":1125:1135  msg.sender */\n      caller\n        /* \"CommitReveal.sol\":1117:1136  commits[msg.sender] */\n      0xffffffffffffffffffffffffffffffffffffffff\n      and\n      0xffffffffffffffffffffffffffffffffffffffff\n      and\n      dup2\n      mstore\n      0x20\n      add\n      swap1\n      dup2\n      mstore\n      0x20\n      add\n      0x00\n      keccak256\n        /* \"CommitReveal.sol\":1117:1142  commits[msg.sender].block */\n      0x01\n      add\n      0x00\n      swap1\n      sload\n      swap1\n      0x0100\n      exp\n      swap1\n      div\n      0xffffffffffffffff\n      and\n        /* \"CommitReveal.sol\":1096:1142  uint64(block.number)>commits[msg.sender].block */\n      0xffffffffffffffff\n      and\n        /* \"CommitReveal.sol\":1103:1115  block.number */\n      number\n        /* \"CommitReveal.sol\":1096:1142  uint64(block.number)>commits[msg.sender].block */\n      0xffffffffffffffff\n      and\n      gt\n        /* \"CommitReveal.sol\":1088:1212  require(uint64(block.number)>commits[msg.sender].block,\"CommitReveal::reveal: Reveal and commit happened on the same block\") */\n      tag_141\n      jumpi\n      mload(0x40)\n      0x08c379a000000000000000000000000000000000000000000000000000000000\n      dup2\n      mstore\n      0x04\n      add\n      tag_142\n      swap1\n      tag_143\n      jump\t// in\n    tag_142:\n      mload(0x40)\n      dup1\n      swap2\n      sub\n      swap1\n      revert\n    tag_141:\n        /* \"CommitReveal.sol\":1329:1332  250 */\n      0xfa\n        /* \"CommitReveal.sol\":1303:1310  commits */\n      0x01\n        /* \"CommitReveal.sol\":1303:1322  commits[msg.sender] */\n      0x00\n        /* \"CommitReveal.sol\":1311:1321  msg.sender */\n      caller\n        /* \"CommitReveal.sol\":1303:1322  commits[msg.sender] */\n      0xffffffffffffffffffffffffffffffffffffffff\n      and\n      0xffffffffffffffffffffffffffffffffffffffff\n      and\n      dup2\n      mstore\n      0x20\n      add\n      swap1\n      dup2\n      mstore\n      0x20\n      add\n      0x00\n      keccak256\n        /* \"CommitReveal.sol\":1303:1328  commits[msg.sender].block */\n      0x01\n      add\n      0x00\n      swap1\n      sload\n      swap1\n      0x0100\n      exp\n      swap1\n      div\n      0xffffffffffffffff\n      and\n        /* \"CommitReveal.sol\":1303:1332  commits[msg.sender].block+250 */\n      tag_144\n      swap2\n      swap1\n      tag_145\n      jump\t// in\n    tag_144:\n        /* \"CommitReveal.sol\":1281:1332  uint64(block.number)<=commits[msg.sender].block+250 */\n      0xffffffffffffffff\n      and\n        /* \"CommitReveal.sol\":1288:1300  block.number */\n      number\n        /* \"CommitReveal.sol\":1281:1332  uint64(block.number)<=commits[msg.sender].block+250 */\n      0xffffffffffffffff\n      and\n      gt\n      iszero\n        /* \"CommitReveal.sol\":1273:1375  require(uint64(block.number)<=commits[msg.sender].block+250,\"CommitReveal::reveal: Revealed too late\") */\n      tag_146\n      jumpi\n      mload(0x40)\n      0x08c379a000000000000000000000000000000000000000000000000000000000\n      dup2\n      mstore\n      0x04\n      add\n      tag_147\n      swap1\n      tag_148\n      jump\t// in\n    tag_147:\n      mload(0x40)\n      dup1\n      swap2\n      sub\n      swap1\n      revert\n    tag_146:\n        /* \"CommitReveal.sol\":1448:1465  bytes32 blockHash */\n      0x00\n        /* \"CommitReveal.sol\":1478:1485  commits */\n      0x01\n        /* \"CommitReveal.sol\":1478:1497  commits[msg.sender] */\n      0x00\n        /* \"CommitReveal.sol\":1486:1496  msg.sender */\n      caller\n        /* \"CommitReveal.sol\":1478:1497  commits[msg.sender] */\n      0xffffffffffffffffffffffffffffffffffffffff\n      and\n      0xffffffffffffffffffffffffffffffffffffffff\n      and\n      dup2\n      mstore\n      0x20\n      add\n      swap1\n      dup2\n      mstore\n      0x20\n      add\n      0x00\n      keccak256\n        /* \"CommitReveal.sol\":1478:1503  commits[msg.sender].block */\n      0x01\n      add\n      0x00\n      swap1\n      sload\n      swap1\n      0x0100\n      exp\n      swap1\n      div\n      0xffffffffffffffff\n      and\n        /* \"CommitReveal.sol\":1468:1504  blockhash(commits[msg.sender].block) */\n      0xffffffffffffffff\n      and\n      blockhash\n        /* \"CommitReveal.sol\":1448:1504  bytes32 blockHash = blockhash(commits[msg.sender].block) */\n      swap1\n      pop\n        /* \"CommitReveal.sol\":1614:1625  uint random */\n      0x00\n        /* \"CommitReveal.sol\":1684:1687  max */\n      dup1\n      0x00\n      swap1\n      sload\n      swap1\n      0x0100\n      exp\n      swap1\n      div\n      0xff\n      and\n        /* \"CommitReveal.sol\":1628:1687  uint(keccak256(abi.encodePacked(blockHash,revealHash)))%max */\n      0xff\n      and\n        /* \"CommitReveal.sol\":1660:1669  blockHash */\n      dup3\n        /* \"CommitReveal.sol\":1670:1680  revealHash */\n      dup5\n        /* \"CommitReveal.sol\":1643:1681  abi.encodePacked(blockHash,revealHash) */\n      add(0x20, mload(0x40))\n      tag_149\n      swap3\n      swap2\n      swap1\n      tag_150\n      jump\t// in\n    tag_149:\n      mload(0x40)\n      0x20\n      dup2\n      dup4\n      sub\n      sub\n      dup2\n      mstore\n      swap1\n      0x40\n      mstore\n        /* \"CommitReveal.sol\":1633:1682  keccak256(abi.encodePacked(blockHash,revealHash)) */\n      dup1\n      mload\n      swap1\n      0x20\n      add\n      keccak256\n        /* \"CommitReveal.sol\":1628:1683  uint(keccak256(abi.encodePacked(blockHash,revealHash))) */\n      0x00\n      shr\n        /* \"CommitReveal.sol\":1628:1687  uint(keccak256(abi.encodePacked(blockHash,revealHash)))%max */\n      tag_151\n      swap2\n      swap1\n      tag_152\n      jump\t// in\n    tag_151:\n        /* \"CommitReveal.sol\":1614:1687  uint random = uint(keccak256(abi.encodePacked(blockHash,revealHash)))%max */\n      swap1\n      pop\n        /* \"CommitReveal.sol\":1698:1738  RevealHash(msg.sender,revealHash,random) */\n      0xbc016dd1cadeaefcb851af7a0a93532e0023d536894b730801f7bcfe7065bcc2\n        /* \"CommitReveal.sol\":1709:1719  msg.sender */\n      caller\n        /* \"CommitReveal.sol\":1720:1730  revealHash */\n      dup5\n        /* \"CommitReveal.sol\":1731:1737  random */\n      dup4\n        /* \"CommitReveal.sol\":1698:1738  RevealHash(msg.sender,revealHash,random) */\n      mload(0x40)\n      tag_153\n      swap4\n      swap3\n      swap2\n      swap1\n      tag_154\n      jump\t// in\n    tag_153:\n      mload(0x40)\n      dup1\n      swap2\n      sub\n      swap1\n      log1\n        /* \"CommitReveal.sol\":637:1743  {... */\n      pop\n      pop\n        /* \"CommitReveal.sol\":594:1743  function reveal(bytes32 revealHash) public {... */\n      pop\n      jump\t// out\n        /* \"CommitReveal.sol\":204:246  mapping (address => Commit) public commits */\n    tag_57:\n      mstore(0x20, 0x01)\n      dup1\n      0x00\n      mstore\n      keccak256(0x00, 0x40)\n      0x00\n      swap2\n      pop\n      swap1\n      pop\n      dup1\n      0x00\n      add\n      sload\n      swap1\n      dup1\n      0x01\n      add\n      0x00\n      swap1\n      sload\n      swap1\n      0x0100\n      exp\n      swap1\n      div\n      0xffffffffffffffff\n      and\n      swap1\n      dup1\n      0x01\n      add\n      0x08\n      swap1\n      sload\n      swap1\n      0x0100\n      exp\n      swap1\n      div\n      0xff\n      and\n      swap1\n      pop\n      dup4\n      jump\t// out\n        /* \"CommitReveal.sol\":2520:2670  function getSaltedHash(bytes32 data,bytes32 salt) public view returns(bytes32){... */\n    tag_64:\n        /* \"CommitReveal.sol\":2590:2597  bytes32 */\n      0x00\n        /* \"CommitReveal.sol\":2646:2650  this */\n      address\n        /* \"CommitReveal.sol\":2653:2657  data */\n      dup4\n        /* \"CommitReveal.sol\":2659:2663  salt */\n      dup4\n        /* \"CommitReveal.sol\":2621:2664  abi.encodePacked(address(this), data, salt) */\n      add(0x20, mload(0x40))\n      tag_156\n      swap4\n      swap3\n      swap2\n      swap1\n      tag_157\n      jump\t// in\n    tag_156:\n      mload(0x40)\n      0x20\n      dup2\n      dup4\n      sub\n      sub\n      dup2\n      mstore\n      swap1\n      0x40\n      mstore\n        /* \"CommitReveal.sol\":2611:2665  keccak256(abi.encodePacked(address(this), data, salt)) */\n      dup1\n      mload\n      swap1\n      0x20\n      add\n      keccak256\n        /* \"CommitReveal.sol\":2604:2665  return keccak256(abi.encodePacked(address(this), data, salt)) */\n      swap1\n      pop\n        /* \"CommitReveal.sol\":2520:2670  function getSaltedHash(bytes32 data,bytes32 salt) public view returns(bytes32){... */\n      swap3\n      swap2\n      pop\n      pop\n      jump\t// out\n        /* \"RPS.sol\":292:317  uint public numPlayer = 0 */\n    tag_68:\n      sload(0x02)\n      dup2\n      jump\t// out\n        /* \"RPS.sol\":353:391  mapping (uint => Player) public player */\n    tag_74:\n      mstore(0x20, 0x04)\n      dup1\n      0x00\n      mstore\n      keccak256(0x00, 0x40)\n      0x00\n      swap2\n      pop\n      swap1\n      pop\n      dup1\n      0x00\n      add\n      sload\n      swap1\n      dup1\n      0x01\n      add\n      0x00\n      swap1\n      sload\n      swap1\n      0x0100\n      exp\n      swap1\n      div\n      0xffffffffffffffffffffffffffffffffffffffff\n      and\n      swap1\n      dup1\n      0x01\n      add\n      0x14\n      swap1\n      sload\n      swap1\n      0x0100\n      exp\n      swap1\n      div\n      0xff\n      and\n      swap1\n      pop\n      dup4\n      jump\t// out\n        /* \"RPS.sol\":429:454  uint public numReveal = 0 */\n    tag_79:\n      sload(0x06)\n      dup2\n      jump\t// out\n        /* \"RPS.sol\":882:1198  function getBytes32(uint choice, string memory salt) view  public returns (bytes32){... */\n    tag_85:\n        /* \"RPS.sol\":957:964  bytes32 */\n      0x00\n        /* \"RPS.sol\":994:995  0 */\n      dup1\n        /* \"RPS.sol\":984:990  choice */\n      dup4\n        /* \"RPS.sol\":984:995  choice >= 0 */\n      lt\n      iszero\n        /* \"RPS.sol\":984:1010  choice >= 0 && choice <= 3 */\n      dup1\n      iszero\n      tag_159\n      jumpi\n      pop\n        /* \"RPS.sol\":1009:1010  3 */\n      0x03\n        /* \"RPS.sol\":999:1005  choice */\n      dup4\n        /* \"RPS.sol\":999:1010  choice <= 3 */\n      gt\n      iszero\n        /* \"RPS.sol\":984:1010  choice >= 0 && choice <= 3 */\n    tag_159:\n        /* \"RPS.sol\":976:1011  require(choice >= 0 && choice <= 3) */\n      tag_160\n      jumpi\n      0x00\n      dup1\n      revert\n    tag_160:\n        /* \"RPS.sol\":1022:1038  bytes32 saltByte */\n      0x00\n        /* \"RPS.sol\":1066:1070  salt */\n      dup3\n        /* \"RPS.sol\":1049:1071  abi.encodePacked(salt) */\n      add(0x20, mload(0x40))\n      tag_161\n      swap2\n      swap1\n      tag_120\n      jump\t// in\n    tag_161:\n      mload(0x40)\n      0x20\n      dup2\n      dup4\n      sub\n      sub\n      dup2\n      mstore\n      swap1\n      0x40\n      mstore\n        /* \"RPS.sol\":1041:1072  bytes32(abi.encodePacked(salt)) */\n      tag_162\n      swap1\n      tag_122\n      jump\t// in\n    tag_162:\n        /* \"RPS.sol\":1022:1072  bytes32 saltByte = bytes32(abi.encodePacked(salt)) */\n      swap1\n      pop\n        /* \"RPS.sol\":1083:1101  bytes32 ChoiceByte */\n      0x00\n        /* \"RPS.sol\":1129:1135  choice */\n      dup5\n        /* \"RPS.sol\":1112:1136  abi.encodePacked(choice) */\n      add(0x20, mload(0x40))\n      tag_163\n      swap2\n      swap1\n      tag_124\n      jump\t// in\n    tag_163:\n      mload(0x40)\n      0x20\n      dup2\n      dup4\n      sub\n      sub\n      dup2\n      mstore\n      swap1\n      0x40\n      mstore\n        /* \"RPS.sol\":1104:1137  bytes32(abi.encodePacked(choice)) */\n      tag_164\n      swap1\n      tag_122\n      jump\t// in\n    tag_164:\n        /* \"RPS.sol\":1083:1137  bytes32 ChoiceByte = bytes32(abi.encodePacked(choice)) */\n      swap1\n      pop\n        /* \"RPS.sol\":1155:1190  getSaltedHash(ChoiceByte, saltByte) */\n      tag_165\n        /* \"RPS.sol\":1169:1179  ChoiceByte */\n      dup2\n        /* \"RPS.sol\":1181:1189  saltByte */\n      dup4\n        /* \"RPS.sol\":1155:1168  getSaltedHash */\n      tag_64\n        /* \"RPS.sol\":1155:1190  getSaltedHash(ChoiceByte, saltByte) */\n      jump\t// in\n    tag_165:\n        /* \"RPS.sol\":1148:1190  return getSaltedHash(ChoiceByte, saltByte) */\n      swap3\n      pop\n      pop\n      pop\n        /* \"RPS.sol\":882:1198  function getBytes32(uint choice, string memory salt) view  public returns (bytes32){... */\n      swap3\n      swap2\n      pop\n      pop\n      jump\t// out\n        /* \"RPS.sol\":1206:1569  function input(bytes32 hashAns, uint idx) public  {... */\n    tag_91:\n        /* \"RPS.sol\":1288:1289  2 */\n      0x02\n        /* \"RPS.sol\":1275:1284  numPlayer */\n      dup1\n      sload\n        /* \"RPS.sol\":1275:1289  numPlayer == 2 */\n      eq\n        /* \"RPS.sol\":1267:1290  require(numPlayer == 2) */\n      tag_167\n      jumpi\n      0x00\n      dup1\n      revert\n    tag_167:\n        /* \"RPS.sol\":1320:1321  2 */\n      0x02\n        /* \"RPS.sol\":1309:1317  numInput */\n      sload(0x05)\n        /* \"RPS.sol\":1309:1321  numInput < 2 */\n      lt\n        /* \"RPS.sol\":1301:1322  require(numInput < 2) */\n      tag_168\n      jumpi\n      0x00\n      dup1\n      revert\n    tag_168:\n        /* \"RPS.sol\":1355:1361  player */\n      0x04\n        /* \"RPS.sol\":1355:1366  player[idx] */\n      0x00\n        /* \"RPS.sol\":1362:1365  idx */\n      dup3\n        /* \"RPS.sol\":1355:1366  player[idx] */\n      dup2\n      mstore\n      0x20\n      add\n      swap1\n      dup2\n      mstore\n      0x20\n      add\n      0x00\n      keccak256\n        /* \"RPS.sol\":1355:1371  player[idx].addr */\n      0x01\n      add\n      0x00\n      swap1\n      sload\n      swap1\n      0x0100\n      exp\n      swap1\n      div\n      0xffffffffffffffffffffffffffffffffffffffff\n      and\n        /* \"RPS.sol\":1341:1371  msg.sender == player[idx].addr */\n      0xffffffffffffffffffffffffffffffffffffffff\n      and\n        /* \"RPS.sol\":1341:1351  msg.sender */\n      caller\n        /* \"RPS.sol\":1341:1371  msg.sender == player[idx].addr */\n      0xffffffffffffffffffffffffffffffffffffffff\n      and\n      eq\n        /* \"RPS.sol\":1333:1372  require(msg.sender == player[idx].addr) */\n      tag_169\n      jumpi\n      0x00\n      dup1\n      revert\n    tag_169:\n        /* \"RPS.sol\":1415:1420  false */\n      0x00\n        /* \"RPS.sol\":1391:1420  player[idx].isCommit == false */\n      iszero\n      iszero\n        /* \"RPS.sol\":1391:1397  player */\n      0x04\n        /* \"RPS.sol\":1391:1402  player[idx] */\n      0x00\n        /* \"RPS.sol\":1398:1401  idx */\n      dup4\n        /* \"RPS.sol\":1391:1402  player[idx] */\n      dup2\n      mstore\n      0x20\n      add\n      swap1\n      dup2\n      mstore\n      0x20\n      add\n      0x00\n      keccak256\n        /* \"RPS.sol\":1391:1411  player[idx].isCommit */\n      0x01\n      add\n      0x14\n      swap1\n      sload\n      swap1\n      0x0100\n      exp\n      swap1\n      div\n      0xff\n      and\n        /* \"RPS.sol\":1391:1420  player[idx].isCommit == false */\n      iszero\n      iszero\n      eq\n        /* \"RPS.sol\":1383:1421  require(player[idx].isCommit == false) */\n      tag_170\n      jumpi\n      0x00\n      dup1\n      revert\n    tag_170:\n        /* \"RPS.sol\":1455:1459  true */\n      0x01\n        /* \"RPS.sol\":1432:1438  player */\n      0x04\n        /* \"RPS.sol\":1432:1443  player[idx] */\n      0x00\n        /* \"RPS.sol\":1439:1442  idx */\n      dup4\n        /* \"RPS.sol\":1432:1443  player[idx] */\n      dup2\n      mstore\n      0x20\n      add\n      swap1\n      dup2\n      mstore\n      0x20\n      add\n      0x00\n      keccak256\n        /* \"RPS.sol\":1432:1452  player[idx].isCommit */\n      0x01\n      add\n      0x14\n        /* \"RPS.sol\":1432:1459  player[idx].isCommit = true */\n      0x0100\n      exp\n      dup2\n      sload\n      dup2\n      0xff\n      mul\n      not\n      and\n      swap1\n      dup4\n      iszero\n      iszero\n      mul\n      or\n      swap1\n      sstore\n      pop\n        /* \"RPS.sol\":1470:1485  commit(hashAns) */\n      tag_171\n        /* \"RPS.sol\":1477:1484  hashAns */\n      dup3\n        /* \"RPS.sol\":1470:1476  commit */\n      tag_99\n        /* \"RPS.sol\":1470:1485  commit(hashAns) */\n      jump\t// in\n    tag_171:\n        /* \"RPS.sol\":1496:1504  numInput */\n      0x05\n      0x00\n        /* \"RPS.sol\":1496:1506  numInput++ */\n      dup2\n      sload\n      dup1\n      swap3\n      swap2\n      swap1\n      tag_172\n      swap1\n      tag_106\n      jump\t// in\n    tag_172:\n      swap2\n      swap1\n      pop\n      sstore\n      pop\n        /* \"RPS.sol\":1522:1561  playerCommitHashed(msg.sender,numInput) */\n      0x3928cc5abcbb1c0b781bebbc4f1e9b156f6d392796c791cc0937db5e42677ff7\n        /* \"RPS.sol\":1541:1551  msg.sender */\n      caller\n        /* \"RPS.sol\":1552:1560  numInput */\n      sload(0x05)\n        /* \"RPS.sol\":1522:1561  playerCommitHashed(msg.sender,numInput) */\n      mload(0x40)\n      tag_173\n      swap3\n      swap2\n      swap1\n      tag_108\n      jump\t// in\n    tag_173:\n      mload(0x40)\n      dup1\n      swap2\n      sub\n      swap1\n      log1\n        /* \"RPS.sol\":1206:1569  function input(bytes32 hashAns, uint idx) public  {... */\n      pop\n      pop\n      jump\t// out\n        /* \"CommitReveal.sol\":1945:2448  function revealAnswer(bytes32 answer,bytes32 salt) public {... */\n    tag_95:\n        /* \"CommitReveal.sol\":2114:2119  false */\n      0x00\n        /* \"CommitReveal.sol\":2084:2119  commits[msg.sender].revealed==false */\n      iszero\n      iszero\n        /* \"CommitReveal.sol\":2084:2091  commits */\n      0x01\n        /* \"CommitReveal.sol\":2084:2103  commits[msg.sender] */\n      0x00\n        /* \"CommitReveal.sol\":2092:2102  msg.sender */\n      caller\n        /* \"CommitReveal.sol\":2084:2103  commits[msg.sender] */\n      0xffffffffffffffffffffffffffffffffffffffff\n      and\n      0xffffffffffffffffffffffffffffffffffffffff\n      and\n      dup2\n      mstore\n      0x20\n      add\n      swap1\n      dup2\n      mstore\n      0x20\n      add\n      0x00\n      keccak256\n        /* \"CommitReveal.sol\":2084:2112  commits[msg.sender].revealed */\n      0x01\n      add\n      0x08\n      swap1\n      sload\n      swap1\n      0x0100\n      exp\n      swap1\n      div\n      0xff\n      and\n        /* \"CommitReveal.sol\":2084:2119  commits[msg.sender].revealed==false */\n      iszero\n      iszero\n      eq\n        /* \"CommitReveal.sol\":2076:2167  require(commits[msg.sender].revealed==false,\"CommitReveal::revealAnswer: Already revealed\") */\n      tag_175\n      jumpi\n      mload(0x40)\n      0x08c379a000000000000000000000000000000000000000000000000000000000\n      dup2\n      mstore\n      0x04\n      add\n      tag_176\n      swap1\n      tag_177\n      jump\t// in\n    tag_176:\n      mload(0x40)\n      dup1\n      swap2\n      sub\n      swap1\n      revert\n    tag_175:\n        /* \"CommitReveal.sol\":2202:2206  true */\n      0x01\n        /* \"CommitReveal.sol\":2173:2180  commits */\n      dup1\n        /* \"CommitReveal.sol\":2173:2192  commits[msg.sender] */\n      0x00\n        /* \"CommitReveal.sol\":2181:2191  msg.sender */\n      caller\n        /* \"CommitReveal.sol\":2173:2192  commits[msg.sender] */\n      0xffffffffffffffffffffffffffffffffffffffff\n      and\n      0xffffffffffffffffffffffffffffffffffffffff\n      and\n      dup2\n      mstore\n      0x20\n      add\n      swap1\n      dup2\n      mstore\n      0x20\n      add\n      0x00\n      keccak256\n        /* \"CommitReveal.sol\":2173:2201  commits[msg.sender].revealed */\n      0x01\n      add\n      0x08\n        /* \"CommitReveal.sol\":2173:2206  commits[msg.sender].revealed=true */\n      0x0100\n      exp\n      dup2\n      sload\n      dup2\n      0xff\n      mul\n      not\n      and\n      swap1\n      dup4\n      iszero\n      iszero\n      mul\n      or\n      swap1\n      sstore\n      pop\n        /* \"CommitReveal.sol\":2303:2310  commits */\n      0x01\n        /* \"CommitReveal.sol\":2303:2322  commits[msg.sender] */\n      0x00\n        /* \"CommitReveal.sol\":2311:2321  msg.sender */\n      caller\n        /* \"CommitReveal.sol\":2303:2322  commits[msg.sender] */\n      0xffffffffffffffffffffffffffffffffffffffff\n      and\n      0xffffffffffffffffffffffffffffffffffffffff\n      and\n      dup2\n      mstore\n      0x20\n      add\n      swap1\n      dup2\n      mstore\n      0x20\n      add\n      0x00\n      keccak256\n        /* \"CommitReveal.sol\":2303:2329  commits[msg.sender].commit */\n      0x00\n      add\n      sload\n        /* \"CommitReveal.sol\":2275:2301  getSaltedHash(answer,salt) */\n      tag_178\n        /* \"CommitReveal.sol\":2289:2295  answer */\n      dup4\n        /* \"CommitReveal.sol\":2296:2300  salt */\n      dup4\n        /* \"CommitReveal.sol\":2275:2288  getSaltedHash */\n      tag_64\n        /* \"CommitReveal.sol\":2275:2301  getSaltedHash(answer,salt) */\n      jump\t// in\n    tag_178:\n        /* \"CommitReveal.sol\":2275:2329  getSaltedHash(answer,salt)==commits[msg.sender].commit */\n      eq\n        /* \"CommitReveal.sol\":2267:2396  require(getSaltedHash(answer,salt)==commits[msg.sender].commit,\"CommitReveal::revealAnswer: Revealed hash does not match commit\") */\n      tag_179\n      jumpi\n      mload(0x40)\n      0x08c379a000000000000000000000000000000000000000000000000000000000\n      dup2\n      mstore\n      0x04\n      add\n      tag_180\n      swap1\n      tag_181\n      jump\t// in\n    tag_180:\n      mload(0x40)\n      dup1\n      swap2\n      sub\n      swap1\n      revert\n    tag_179:\n        /* \"CommitReveal.sol\":2407:2443  RevealAnswer(msg.sender,answer,salt) */\n      0x8bed02c4d61e56ed1d90657e7a0ba48f15cca20fcc2899d7235221b2cb0423a6\n        /* \"CommitReveal.sol\":2420:2430  msg.sender */\n      caller\n        /* \"CommitReveal.sol\":2431:2437  answer */\n      dup4\n        /* \"CommitReveal.sol\":2438:2442  salt */\n      dup4\n        /* \"CommitReveal.sol\":2407:2443  RevealAnswer(msg.sender,answer,salt) */\n      mload(0x40)\n      tag_182\n      swap4\n      swap3\n      swap2\n      swap1\n      tag_183\n      jump\t// in\n    tag_182:\n      mload(0x40)\n      dup1\n      swap2\n      sub\n      swap1\n      log1\n        /* \"CommitReveal.sol\":1945:2448  function revealAnswer(bytes32 answer,bytes32 salt) public {... */\n      pop\n      pop\n      jump\t// out\n        /* \"CommitReveal.sol\":251:522  function commit(bytes32 dataHash) public {... */\n    tag_99:\n        /* \"CommitReveal.sol\":327:335  dataHash */\n      dup1\n        /* \"CommitReveal.sol\":298:305  commits */\n      0x01\n        /* \"CommitReveal.sol\":298:317  commits[msg.sender] */\n      0x00\n        /* \"CommitReveal.sol\":306:316  msg.sender */\n      caller\n        /* \"CommitReveal.sol\":298:317  commits[msg.sender] */\n      0xffffffffffffffffffffffffffffffffffffffff\n      and\n      0xffffffffffffffffffffffffffffffffffffffff\n      and\n      dup2\n      mstore\n      0x20\n      add\n      swap1\n      dup2\n      mstore\n      0x20\n      add\n      0x00\n      keccak256\n        /* \"CommitReveal.sol\":298:324  commits[msg.sender].commit */\n      0x00\n      add\n        /* \"CommitReveal.sol\":298:335  commits[msg.sender].commit = dataHash */\n      dup2\n      swap1\n      sstore\n      pop\n        /* \"CommitReveal.sol\":376:388  block.number */\n      number\n        /* \"CommitReveal.sol\":341:348  commits */\n      0x01\n        /* \"CommitReveal.sol\":341:360  commits[msg.sender] */\n      0x00\n        /* \"CommitReveal.sol\":349:359  msg.sender */\n      caller\n        /* \"CommitReveal.sol\":341:360  commits[msg.sender] */\n      0xffffffffffffffffffffffffffffffffffffffff\n      and\n      0xffffffffffffffffffffffffffffffffffffffff\n      and\n      dup2\n      mstore\n      0x20\n      add\n      swap1\n      dup2\n      mstore\n      0x20\n      add\n      0x00\n      keccak256\n        /* \"CommitReveal.sol\":341:366  commits[msg.sender].block */\n      0x01\n      add\n      0x00\n        /* \"CommitReveal.sol\":341:389  commits[msg.sender].block = uint64(block.number) */\n      0x0100\n      exp\n      dup2\n      sload\n      dup2\n      0xffffffffffffffff\n      mul\n      not\n      and\n      swap1\n      dup4\n      0xffffffffffffffff\n      and\n      mul\n      or\n      swap1\n      sstore\n      pop\n        /* \"CommitReveal.sol\":426:431  false */\n      0x00\n        /* \"CommitReveal.sol\":395:402  commits */\n      0x01\n        /* \"CommitReveal.sol\":395:414  commits[msg.sender] */\n      0x00\n        /* \"CommitReveal.sol\":403:413  msg.sender */\n      caller\n        /* \"CommitReveal.sol\":395:414  commits[msg.sender] */\n      0xffffffffffffffffffffffffffffffffffffffff\n      and\n      0xffffffffffffffffffffffffffffffffffffffff\n      and\n      dup2\n      mstore\n      0x20\n      add\n      swap1\n      dup2\n      mstore\n      0x20\n      add\n      0x00\n      keccak256\n        /* \"CommitReveal.sol\":395:423  commits[msg.sender].revealed */\n      0x01\n      add\n      0x08\n        /* \"CommitReveal.sol\":395:431  commits[msg.sender].revealed = false */\n      0x0100\n      exp\n      dup2\n      sload\n      dup2\n      0xff\n      mul\n      not\n      and\n      swap1\n      dup4\n      iszero\n      iszero\n      mul\n      or\n      swap1\n      sstore\n      pop\n        /* \"CommitReveal.sol\":442:517  CommitHash(msg.sender,commits[msg.sender].commit,commits[msg.sender].block) */\n      0x3c1a1f8f38335b17f751c6da4ba7d1865f26b3997535176f5080de9fad891603\n        /* \"CommitReveal.sol\":453:463  msg.sender */\n      caller\n        /* \"CommitReveal.sol\":464:471  commits */\n      0x01\n        /* \"CommitReveal.sol\":464:483  commits[msg.sender] */\n      0x00\n        /* \"CommitReveal.sol\":472:482  msg.sender */\n      caller\n        /* \"CommitReveal.sol\":464:483  commits[msg.sender] */\n      0xffffffffffffffffffffffffffffffffffffffff\n      and\n      0xffffffffffffffffffffffffffffffffffffffff\n      and\n      dup2\n      mstore\n      0x20\n      add\n      swap1\n      dup2\n      mstore\n      0x20\n      add\n      0x00\n      keccak256\n        /* \"CommitReveal.sol\":464:490  commits[msg.sender].commit */\n      0x00\n      add\n      sload\n        /* \"CommitReveal.sol\":491:498  commits */\n      0x01\n        /* \"CommitReveal.sol\":491:510  commits[msg.sender] */\n      0x00\n        /* \"CommitReveal.sol\":499:509  msg.sender */\n      caller\n        /* \"CommitReveal.sol\":491:510  commits[msg.sender] */\n      0xffffffffffffffffffffffffffffffffffffffff\n      and\n      0xffffffffffffffffffffffffffffffffffffffff\n      and\n      dup2\n      mstore\n      0x20\n      add\n      swap1\n      dup2\n      mstore\n      0x20\n      add\n      0x00\n      keccak256\n        /* \"CommitReveal.sol\":491:516  commits[msg.sender].block */\n      0x01\n      add\n      0x00\n      swap1\n      sload\n      swap1\n      0x0100\n      exp\n      swap1\n      div\n      0xffffffffffffffff\n      and\n        /* \"CommitReveal.sol\":442:517  CommitHash(msg.sender,commits[msg.sender].commit,commits[msg.sender].block) */\n      mload(0x40)\n      tag_185\n      swap4\n      swap3\n      swap2\n      swap1\n      tag_186\n      jump\t// in\n    tag_185:\n      mload(0x40)\n      dup1\n      swap2\n      sub\n      swap1\n      log1\n        /* \"CommitReveal.sol\":251:522  function commit(bytes32 dataHash) public {... */\n      pop\n      jump\t// out\n        /* \"RPS.sol\":2289:2961  function _checkWinnerAndPay() private {... */\n    tag_130:\n        /* \"RPS.sol\":2338:2351  uint p0Choice */\n      0x00\n        /* \"RPS.sol\":2354:2360  player */\n      0x04\n        /* \"RPS.sol\":2354:2363  player[0] */\n      0x00\n        /* \"RPS.sol\":2361:2362  0 */\n      dup1\n        /* \"RPS.sol\":2354:2363  player[0] */\n      dup2\n      mstore\n      0x20\n      add\n      swap1\n      dup2\n      mstore\n      0x20\n      add\n      0x00\n      keccak256\n        /* \"RPS.sol\":2354:2370  player[0].choice */\n      0x00\n      add\n      sload\n        /* \"RPS.sol\":2338:2370  uint p0Choice = player[0].choice */\n      swap1\n      pop\n        /* \"RPS.sol\":2381:2394  uint p1Choice */\n      0x00\n        /* \"RPS.sol\":2397:2403  player */\n      0x04\n        /* \"RPS.sol\":2397:2406  player[1] */\n      0x00\n        /* \"RPS.sol\":2404:2405  1 */\n      0x01\n        /* \"RPS.sol\":2397:2406  player[1] */\n      dup2\n      mstore\n      0x20\n      add\n      swap1\n      dup2\n      mstore\n      0x20\n      add\n      0x00\n      keccak256\n        /* \"RPS.sol\":2397:2413  player[1].choice */\n      0x00\n      add\n      sload\n        /* \"RPS.sol\":2381:2413  uint p1Choice = player[1].choice */\n      swap1\n      pop\n        /* \"RPS.sol\":2424:2448  address payable account0 */\n      0x00\n        /* \"RPS.sol\":2459:2465  player */\n      0x04\n        /* \"RPS.sol\":2459:2468  player[0] */\n      0x00\n        /* \"RPS.sol\":2466:2467  0 */\n      dup1\n        /* \"RPS.sol\":2459:2468  player[0] */\n      dup2\n      mstore\n      0x20\n      add\n      swap1\n      dup2\n      mstore\n      0x20\n      add\n      0x00\n      keccak256\n        /* \"RPS.sol\":2459:2473  player[0].addr */\n      0x01\n      add\n      0x00\n      swap1\n      sload\n      swap1\n      0x0100\n      exp\n      swap1\n      div\n      0xffffffffffffffffffffffffffffffffffffffff\n      and\n        /* \"RPS.sol\":2424:2474  address payable account0 = payable(player[0].addr) */\n      swap1\n      pop\n        /* \"RPS.sol\":2485:2509  address payable account1 */\n      0x00\n        /* \"RPS.sol\":2520:2526  player */\n      0x04\n        /* \"RPS.sol\":2520:2529  player[1] */\n      0x00\n        /* \"RPS.sol\":2527:2528  1 */\n      0x01\n        /* \"RPS.sol\":2520:2529  player[1] */\n      dup2\n      mstore\n      0x20\n      add\n      swap1\n      dup2\n      mstore\n      0x20\n      add\n      0x00\n      keccak256\n        /* \"RPS.sol\":2520:2534  player[1].addr */\n      0x01\n      add\n      0x00\n      swap1\n      sload\n      swap1\n      0x0100\n      exp\n      swap1\n      div\n      0xffffffffffffffffffffffffffffffffffffffff\n      and\n        /* \"RPS.sol\":2485:2535  address payable account1 = payable(player[1].addr) */\n      swap1\n      pop\n        /* \"RPS.sol\":2572:2580  p1Choice */\n      dup3\n        /* \"RPS.sol\":2567:2568  3 */\n      0x03\n        /* \"RPS.sol\":2562:2563  1 */\n      0x01\n        /* \"RPS.sol\":2551:2559  p0Choice */\n      dup7\n        /* \"RPS.sol\":2551:2563  p0Choice + 1 */\n      tag_188\n      swap2\n      swap1\n      tag_104\n      jump\t// in\n    tag_188:\n        /* \"RPS.sol\":2550:2568  (p0Choice + 1) % 3 */\n      tag_189\n      swap2\n      swap1\n      tag_152\n      jump\t// in\n    tag_189:\n        /* \"RPS.sol\":2550:2580  (p0Choice + 1) % 3 == p1Choice */\n      sub\n        /* \"RPS.sol\":2546:2954  if ((p0Choice + 1) % 3 == p1Choice) {... */\n      tag_190\n      jumpi\n        /* \"RPS.sol\":2630:2638  account1 */\n      dup1\n        /* \"RPS.sol\":2630:2647  account1.transfer */\n      0xffffffffffffffffffffffffffffffffffffffff\n      and\n        /* \"RPS.sol\":2630:2655  account1.transfer(reward) */\n      0x08fc\n        /* \"RPS.sol\":2648:2654  reward */\n      sload(0x03)\n        /* \"RPS.sol\":2630:2655  account1.transfer(reward) */\n      swap1\n      dup2\n      iszero\n      mul\n      swap1\n      mload(0x40)\n      0x00\n      mload(0x40)\n      dup1\n      dup4\n      sub\n      dup2\n      dup6\n      dup9\n      dup9\n      call\n      swap4\n      pop\n      pop\n      pop\n      pop\n      iszero\n      dup1\n      iszero\n      tag_192\n      jumpi\n      returndatasize\n      0x00\n      dup1\n      returndatacopy\n      revert(0x00, returndatasize)\n    tag_192:\n      pop\n        /* \"RPS.sol\":2546:2954  if ((p0Choice + 1) % 3 == p1Choice) {... */\n      jump(tag_193)\n    tag_190:\n        /* \"RPS.sol\":2708:2716  p0Choice */\n      dup4\n        /* \"RPS.sol\":2703:2704  3 */\n      0x03\n        /* \"RPS.sol\":2698:2699  1 */\n      0x01\n        /* \"RPS.sol\":2687:2695  p1Choice */\n      dup6\n        /* \"RPS.sol\":2687:2699  p1Choice + 1 */\n      tag_194\n      swap2\n      swap1\n      tag_104\n      jump\t// in\n    tag_194:\n        /* \"RPS.sol\":2686:2704  (p1Choice + 1) % 3 */\n      tag_195\n      swap2\n      swap1\n      tag_152\n      jump\t// in\n    tag_195:\n        /* \"RPS.sol\":2686:2716  (p1Choice + 1) % 3 == p0Choice */\n      sub\n        /* \"RPS.sol\":2682:2954  if ((p1Choice + 1) % 3 == p0Choice) {... */\n      tag_196\n      jumpi\n        /* \"RPS.sol\":2766:2774  account0 */\n      dup2\n        /* \"RPS.sol\":2766:2783  account0.transfer */\n      0xffffffffffffffffffffffffffffffffffffffff\n      and\n        /* \"RPS.sol\":2766:2791  account0.transfer(reward) */\n      0x08fc\n        /* \"RPS.sol\":2784:2790  reward */\n      sload(0x03)\n        /* \"RPS.sol\":2766:2791  account0.transfer(reward) */\n      swap1\n      dup2\n      iszero\n      mul\n      swap1\n      mload(0x40)\n      0x00\n      mload(0x40)\n      dup1\n      dup4\n      sub\n      dup2\n      dup6\n      dup9\n      dup9\n      call\n      swap4\n      pop\n      pop\n      pop\n      pop\n      iszero\n      dup1\n      iszero\n      tag_198\n      jumpi\n      returndatasize\n      0x00\n      dup1\n      returndatacopy\n      revert(0x00, returndatasize)\n    tag_198:\n      pop\n        /* \"RPS.sol\":2682:2954  if ((p1Choice + 1) % 3 == p0Choice) {... */\n      jump(tag_199)\n    tag_196:\n        /* \"RPS.sol\":2869:2877  account0 */\n      dup2\n        /* \"RPS.sol\":2869:2886  account0.transfer */\n      0xffffffffffffffffffffffffffffffffffffffff\n      and\n        /* \"RPS.sol\":2869:2898  account0.transfer(reward / 2) */\n      0x08fc\n        /* \"RPS.sol\":2896:2897  2 */\n      0x02\n        /* \"RPS.sol\":2887:2893  reward */\n      sload(0x03)\n        /* \"RPS.sol\":2887:2897  reward / 2 */\n      tag_200\n      swap2\n      swap1\n      tag_201\n      jump\t// in\n    tag_200:\n        /* \"RPS.sol\":2869:2898  account0.transfer(reward / 2) */\n      swap1\n      dup2\n      iszero\n      mul\n      swap1\n      mload(0x40)\n      0x00\n      mload(0x40)\n      dup1\n      dup4\n      sub\n      dup2\n      dup6\n      dup9\n      dup9\n      call\n      swap4\n      pop\n      pop\n      pop\n      pop\n      iszero\n      dup1\n      iszero\n      tag_203\n      jumpi\n      returndatasize\n      0x00\n      dup1\n      returndatacopy\n      revert(0x00, returndatasize)\n    tag_203:\n      pop\n        /* \"RPS.sol\":2913:2921  account1 */\n      dup1\n        /* \"RPS.sol\":2913:2930  account1.transfer */\n      0xffffffffffffffffffffffffffffffffffffffff\n      and\n        /* \"RPS.sol\":2913:2942  account1.transfer(reward / 2) */\n      0x08fc\n        /* \"RPS.sol\":2940:2941  2 */\n      0x02\n        /* \"RPS.sol\":2931:2937  reward */\n      sload(0x03)\n        /* \"RPS.sol\":2931:2941  reward / 2 */\n      tag_204\n      swap2\n      swap1\n      tag_201\n      jump\t// in\n    tag_204:\n        /* \"RPS.sol\":2913:2942  account1.transfer(reward / 2) */\n      swap1\n      dup2\n      iszero\n      mul\n      swap1\n      mload(0x40)\n      0x00\n      mload(0x40)\n      dup1\n      dup4\n      sub\n      dup2\n      dup6\n      dup9\n      dup9\n      call\n      swap4\n      pop\n      pop\n      pop\n      pop\n      iszero\n      dup1\n      iszero\n      tag_206\n      jumpi\n      returndatasize\n      0x00\n      dup1\n      returndatacopy\n      revert(0x00, returndatasize)\n    tag_206:\n      pop\n        /* \"RPS.sol\":2682:2954  if ((p1Choice + 1) % 3 == p0Choice) {... */\n    tag_199:\n        /* \"RPS.sol\":2546:2954  if ((p0Choice + 1) % 3 == p1Choice) {... */\n    tag_193:\n        /* \"RPS.sol\":2327:2961  {... */\n      pop\n      pop\n      pop\n      pop\n        /* \"RPS.sol\":2289:2961  function _checkWinnerAndPay() private {... */\n      jump\t// out\n        /* \"RPS.sol\":2969:3095  function _reset() private {... */\n    tag_132:\n        /* \"RPS.sol\":3018:3019  0 */\n      0x00\n        /* \"RPS.sol\":3006:3015  numPlayer */\n      0x02\n        /* \"RPS.sol\":3006:3019  numPlayer = 0 */\n      dup2\n      swap1\n      sstore\n      pop\n        /* \"RPS.sol\":3039:3040  0 */\n      0x00\n        /* \"RPS.sol\":3030:3036  reward */\n      0x03\n        /* \"RPS.sol\":3030:3040  reward = 0 */\n      dup2\n      swap1\n      sstore\n      pop\n        /* \"RPS.sol\":3062:3063  0 */\n      0x00\n        /* \"RPS.sol\":3051:3059  numInput */\n      0x05\n        /* \"RPS.sol\":3051:3063  numInput = 0 */\n      dup2\n      swap1\n      sstore\n      pop\n        /* \"RPS.sol\":3086:3087  0 */\n      0x00\n        /* \"RPS.sol\":3074:3083  numReveal */\n      0x06\n        /* \"RPS.sol\":3074:3087  numReveal = 0 */\n      dup2\n      swap1\n      sstore\n      pop\n        /* \"RPS.sol\":2969:3095  function _reset() private {... */\n      jump\t// out\n        /* \"#utility.yul\":7:84   */\n    tag_208:\n        /* \"#utility.yul\":44:51   */\n      0x00\n        /* \"#utility.yul\":73:78   */\n      dup2\n        /* \"#utility.yul\":62:78   */\n      swap1\n      pop\n        /* \"#utility.yul\":7:84   */\n      swap2\n      swap1\n      pop\n      jump\t// out\n        /* \"#utility.yul\":90:208   */\n    tag_209:\n        /* \"#utility.yul\":177:201   */\n      tag_274\n        /* \"#utility.yul\":195:200   */\n      dup2\n        /* \"#utility.yul\":177:201   */\n      tag_208\n      jump\t// in\n    tag_274:\n        /* \"#utility.yul\":172:175   */\n      dup3\n        /* \"#utility.yul\":165:202   */\n      mstore\n        /* \"#utility.yul\":90:208   */\n      pop\n      pop\n      jump\t// out\n        /* \"#utility.yul\":214:436   */\n    tag_25:\n        /* \"#utility.yul\":307:311   */\n      0x00\n        /* \"#utility.yul\":345:347   */\n      0x20\n        /* \"#utility.yul\":334:343   */\n      dup3\n        /* \"#utility.yul\":330:348   */\n      add\n        /* \"#utility.yul\":322:348   */\n      swap1\n      pop\n        /* \"#utility.yul\":358:429   */\n      tag_276\n        /* \"#utility.yul\":426:427   */\n      0x00\n        /* \"#utility.yul\":415:424   */\n      dup4\n        /* \"#utility.yul\":411:428   */\n      add\n        /* \"#utility.yul\":402:408   */\n      dup5\n        /* \"#utility.yul\":358:429   */\n      tag_209\n      jump\t// in\n    tag_276:\n        /* \"#utility.yul\":214:436   */\n      swap3\n      swap2\n      pop\n      pop\n      jump\t// out\n        /* \"#utility.yul\":442:517   */\n    tag_210:\n        /* \"#utility.yul\":475:481   */\n      0x00\n        /* \"#utility.yul\":508:510   */\n      0x40\n        /* \"#utility.yul\":502:511   */\n      mload\n        /* \"#utility.yul\":492:511   */\n      swap1\n      pop\n        /* \"#utility.yul\":442:517   */\n      swap1\n      jump\t// out\n        /* \"#utility.yul\":523:640   */\n    tag_211:\n        /* \"#utility.yul\":632:633   */\n      0x00\n        /* \"#utility.yul\":629:630   */\n      dup1\n        /* \"#utility.yul\":622:634   */\n      revert\n        /* \"#utility.yul\":646:763   */\n    tag_212:\n        /* \"#utility.yul\":755:756   */\n      0x00\n        /* \"#utility.yul\":752:753   */\n      dup1\n        /* \"#utility.yul\":745:757   */\n      revert\n        /* \"#utility.yul\":769:846   */\n    tag_213:\n        /* \"#utility.yul\":806:813   */\n      0x00\n        /* \"#utility.yul\":835:840   */\n      dup2\n        /* \"#utility.yul\":824:840   */\n      swap1\n      pop\n        /* \"#utility.yul\":769:846   */\n      swap2\n      swap1\n      pop\n      jump\t// out\n        /* \"#utility.yul\":852:974   */\n    tag_214:\n        /* \"#utility.yul\":925:949   */\n      tag_282\n        /* \"#utility.yul\":943:948   */\n      dup2\n        /* \"#utility.yul\":925:949   */\n      tag_213\n      jump\t// in\n    tag_282:\n        /* \"#utility.yul\":918:923   */\n      dup2\n        /* \"#utility.yul\":915:950   */\n      eq\n        /* \"#utility.yul\":905:968   */\n      tag_283\n      jumpi\n        /* \"#utility.yul\":964:965   */\n      0x00\n        /* \"#utility.yul\":961:962   */\n      dup1\n        /* \"#utility.yul\":954:966   */\n      revert\n        /* \"#utility.yul\":905:968   */\n    tag_283:\n        /* \"#utility.yul\":852:974   */\n      pop\n      jump\t// out\n        /* \"#utility.yul\":980:1119   */\n    tag_215:\n        /* \"#utility.yul\":1026:1031   */\n      0x00\n        /* \"#utility.yul\":1064:1070   */\n      dup2\n        /* \"#utility.yul\":1051:1071   */\n      calldataload\n        /* \"#utility.yul\":1042:1071   */\n      swap1\n      pop\n        /* \"#utility.yul\":1080:1113   */\n      tag_285\n        /* \"#utility.yul\":1107:1112   */\n      dup2\n        /* \"#utility.yul\":1080:1113   */\n      tag_214\n      jump\t// in\n    tag_285:\n        /* \"#utility.yul\":980:1119   */\n      swap3\n      swap2\n      pop\n      pop\n      jump\t// out\n        /* \"#utility.yul\":1125:1454   */\n    tag_35:\n        /* \"#utility.yul\":1184:1190   */\n      0x00\n        /* \"#utility.yul\":1233:1235   */\n      0x20\n        /* \"#utility.yul\":1221:1230   */\n      dup3\n        /* \"#utility.yul\":1212:1219   */\n      dup5\n        /* \"#utility.yul\":1208:1231   */\n      sub\n        /* \"#utility.yul\":1204:1236   */\n      slt\n        /* \"#utility.yul\":1201:1320   */\n      iszero\n      tag_287\n      jumpi\n        /* \"#utility.yul\":1239:1318   */\n      tag_288\n      tag_211\n      jump\t// in\n    tag_288:\n        /* \"#utility.yul\":1201:1320   */\n    tag_287:\n        /* \"#utility.yul\":1359:1360   */\n      0x00\n        /* \"#utility.yul\":1384:1437   */\n      tag_289\n        /* \"#utility.yul\":1429:1436   */\n      dup5\n        /* \"#utility.yul\":1420:1426   */\n      dup3\n        /* \"#utility.yul\":1409:1418   */\n      dup6\n        /* \"#utility.yul\":1405:1427   */\n      add\n        /* \"#utility.yul\":1384:1437   */\n      tag_215\n      jump\t// in\n    tag_289:\n        /* \"#utility.yul\":1374:1437   */\n      swap2\n      pop\n        /* \"#utility.yul\":1330:1447   */\n      pop\n        /* \"#utility.yul\":1125:1454   */\n      swap3\n      swap2\n      pop\n      pop\n      jump\t// out\n        /* \"#utility.yul\":1460:1578   */\n    tag_216:\n        /* \"#utility.yul\":1547:1571   */\n      tag_291\n        /* \"#utility.yul\":1565:1570   */\n      dup2\n        /* \"#utility.yul\":1547:1571   */\n      tag_213\n      jump\t// in\n    tag_291:\n        /* \"#utility.yul\":1542:1545   */\n      dup3\n        /* \"#utility.yul\":1535:1572   */\n      mstore\n        /* \"#utility.yul\":1460:1578   */\n      pop\n      pop\n      jump\t// out\n        /* \"#utility.yul\":1584:1806   */\n    tag_38:\n        /* \"#utility.yul\":1677:1681   */\n      0x00\n        /* \"#utility.yul\":1715:1717   */\n      0x20\n        /* \"#utility.yul\":1704:1713   */\n      dup3\n        /* \"#utility.yul\":1700:1718   */\n      add\n        /* \"#utility.yul\":1692:1718   */\n      swap1\n      pop\n        /* \"#utility.yul\":1728:1799   */\n      tag_293\n        /* \"#utility.yul\":1796:1797   */\n      0x00\n        /* \"#utility.yul\":1785:1794   */\n      dup4\n        /* \"#utility.yul\":1781:1798   */\n      add\n        /* \"#utility.yul\":1772:1778   */\n      dup5\n        /* \"#utility.yul\":1728:1799   */\n      tag_216\n      jump\t// in\n    tag_293:\n        /* \"#utility.yul\":1584:1806   */\n      swap3\n      swap2\n      pop\n      pop\n      jump\t// out\n        /* \"#utility.yul\":1812:1934   */\n    tag_217:\n        /* \"#utility.yul\":1885:1909   */\n      tag_295\n        /* \"#utility.yul\":1903:1908   */\n      dup2\n        /* \"#utility.yul\":1885:1909   */\n      tag_208\n      jump\t// in\n    tag_295:\n        /* \"#utility.yul\":1878:1883   */\n      dup2\n        /* \"#utility.yul\":1875:1910   */\n      eq\n        /* \"#utility.yul\":1865:1928   */\n      tag_296\n      jumpi\n        /* \"#utility.yul\":1924:1925   */\n      0x00\n        /* \"#utility.yul\":1921:1922   */\n      dup1\n        /* \"#utility.yul\":1914:1926   */\n      revert\n        /* \"#utility.yul\":1865:1928   */\n    tag_296:\n        /* \"#utility.yul\":1812:1934   */\n      pop\n      jump\t// out\n        /* \"#utility.yul\":1940:2079   */\n    tag_218:\n        /* \"#utility.yul\":1986:1991   */\n      0x00\n        /* \"#utility.yul\":2024:2030   */\n      dup2\n        /* \"#utility.yul\":2011:2031   */\n      calldataload\n        /* \"#utility.yul\":2002:2031   */\n      swap1\n      pop\n        /* \"#utility.yul\":2040:2073   */\n      tag_298\n        /* \"#utility.yul\":2067:2072   */\n      dup2\n        /* \"#utility.yul\":2040:2073   */\n      tag_217\n      jump\t// in\n    tag_298:\n        /* \"#utility.yul\":1940:2079   */\n      swap3\n      swap2\n      pop\n      pop\n      jump\t// out\n        /* \"#utility.yul\":2085:2202   */\n    tag_219:\n        /* \"#utility.yul\":2194:2195   */\n      0x00\n        /* \"#utility.yul\":2191:2192   */\n      dup1\n        /* \"#utility.yul\":2184:2196   */\n      revert\n        /* \"#utility.yul\":2208:2325   */\n    tag_220:\n        /* \"#utility.yul\":2317:2318   */\n      0x00\n        /* \"#utility.yul\":2314:2315   */\n      dup1\n        /* \"#utility.yul\":2307:2319   */\n      revert\n        /* \"#utility.yul\":2331:2433   */\n    tag_221:\n        /* \"#utility.yul\":2372:2378   */\n      0x00\n        /* \"#utility.yul\":2423:2425   */\n      0x1f\n        /* \"#utility.yul\":2419:2426   */\n      not\n        /* \"#utility.yul\":2414:2416   */\n      0x1f\n        /* \"#utility.yul\":2407:2412   */\n      dup4\n        /* \"#utility.yul\":2403:2417   */\n      add\n        /* \"#utility.yul\":2399:2427   */\n      and\n        /* \"#utility.yul\":2389:2427   */\n      swap1\n      pop\n        /* \"#utility.yul\":2331:2433   */\n      swap2\n      swap1\n      pop\n      jump\t// out\n        /* \"#utility.yul\":2439:2619   */\n    tag_222:\n        /* \"#utility.yul\":2487:2564   */\n      0x4e487b7100000000000000000000000000000000000000000000000000000000\n        /* \"#utility.yul\":2484:2485   */\n      0x00\n        /* \"#utility.yul\":2477:2565   */\n      mstore\n        /* \"#utility.yul\":2584:2588   */\n      0x41\n        /* \"#utility.yul\":2581:2582   */\n      0x04\n        /* \"#utility.yul\":2574:2589   */\n      mstore\n        /* \"#utility.yul\":2608:2612   */\n      0x24\n        /* \"#utility.yul\":2605:2606   */\n      0x00\n        /* \"#utility.yul\":2598:2613   */\n      revert\n        /* \"#utility.yul\":2625:2906   */\n    tag_223:\n        /* \"#utility.yul\":2708:2735   */\n      tag_304\n        /* \"#utility.yul\":2730:2734   */\n      dup3\n        /* \"#utility.yul\":2708:2735   */\n      tag_221\n      jump\t// in\n    tag_304:\n        /* \"#utility.yul\":2700:2706   */\n      dup2\n        /* \"#utility.yul\":2696:2736   */\n      add\n        /* \"#utility.yul\":2838:2844   */\n      dup2\n        /* \"#utility.yul\":2826:2836   */\n      dup2\n        /* \"#utility.yul\":2823:2845   */\n      lt\n        /* \"#utility.yul\":2802:2820   */\n      0xffffffffffffffff\n        /* \"#utility.yul\":2790:2800   */\n      dup3\n        /* \"#utility.yul\":2787:2821   */\n      gt\n        /* \"#utility.yul\":2784:2846   */\n      or\n        /* \"#utility.yul\":2781:2869   */\n      iszero\n      tag_305\n      jumpi\n        /* \"#utility.yul\":2849:2867   */\n      tag_306\n      tag_222\n      jump\t// in\n    tag_306:\n        /* \"#utility.yul\":2781:2869   */\n    tag_305:\n        /* \"#utility.yul\":2889:2899   */\n      dup1\n        /* \"#utility.yul\":2885:2887   */\n      0x40\n        /* \"#utility.yul\":2878:2900   */\n      mstore\n        /* \"#utility.yul\":2668:2906   */\n      pop\n        /* \"#utility.yul\":2625:2906   */\n      pop\n      pop\n      jump\t// out\n        /* \"#utility.yul\":2912:3041   */\n    tag_224:\n        /* \"#utility.yul\":2946:2952   */\n      0x00\n        /* \"#utility.yul\":2973:2993   */\n      tag_308\n      tag_210\n      jump\t// in\n    tag_308:\n        /* \"#utility.yul\":2963:2993   */\n      swap1\n      pop\n        /* \"#utility.yul\":3002:3035   */\n      tag_309\n        /* \"#utility.yul\":3030:3034   */\n      dup3\n        /* \"#utility.yul\":3022:3028   */\n      dup3\n        /* \"#utility.yul\":3002:3035   */\n      tag_223\n      jump\t// in\n    tag_309:\n        /* \"#utility.yul\":2912:3041   */\n      swap2\n      swap1\n      pop\n      jump\t// out\n        /* \"#utility.yul\":3047:3355   */\n    tag_225:\n        /* \"#utility.yul\":3109:3113   */\n      0x00\n        /* \"#utility.yul\":3199:3217   */\n      0xffffffffffffffff\n        /* \"#utility.yul\":3191:3197   */\n      dup3\n        /* \"#utility.yul\":3188:3218   */\n      gt\n        /* \"#utility.yul\":3185:3241   */\n      iszero\n      tag_311\n      jumpi\n        /* \"#utility.yul\":3221:3239   */\n      tag_312\n      tag_222\n      jump\t// in\n    tag_312:\n        /* \"#utility.yul\":3185:3241   */\n    tag_311:\n        /* \"#utility.yul\":3259:3288   */\n      tag_313\n        /* \"#utility.yul\":3281:3287   */\n      dup3\n        /* \"#utility.yul\":3259:3288   */\n      tag_221\n      jump\t// in\n    tag_313:\n        /* \"#utility.yul\":3251:3288   */\n      swap1\n      pop\n        /* \"#utility.yul\":3343:3347   */\n      0x20\n        /* \"#utility.yul\":3337:3341   */\n      dup2\n        /* \"#utility.yul\":3333:3348   */\n      add\n        /* \"#utility.yul\":3325:3348   */\n      swap1\n      pop\n        /* \"#utility.yul\":3047:3355   */\n      swap2\n      swap1\n      pop\n      jump\t// out\n        /* \"#utility.yul\":3361:3507   */\n    tag_226:\n        /* \"#utility.yul\":3458:3464   */\n      dup3\n        /* \"#utility.yul\":3453:3456   */\n      dup2\n        /* \"#utility.yul\":3448:3451   */\n      dup4\n        /* \"#utility.yul\":3435:3465   */\n      calldatacopy\n        /* \"#utility.yul\":3499:3500   */\n      0x00\n        /* \"#utility.yul\":3490:3496   */\n      dup4\n        /* \"#utility.yul\":3485:3488   */\n      dup4\n        /* \"#utility.yul\":3481:3497   */\n      add\n        /* \"#utility.yul\":3474:3501   */\n      mstore\n        /* \"#utility.yul\":3361:3507   */\n      pop\n      pop\n      pop\n      jump\t// out\n        /* \"#utility.yul\":3513:3938   */\n    tag_227:\n        /* \"#utility.yul\":3591:3596   */\n      0x00\n        /* \"#utility.yul\":3616:3682   */\n      tag_316\n        /* \"#utility.yul\":3632:3681   */\n      tag_317\n        /* \"#utility.yul\":3674:3680   */\n      dup5\n        /* \"#utility.yul\":3632:3681   */\n      tag_225\n      jump\t// in\n    tag_317:\n        /* \"#utility.yul\":3616:3682   */\n      tag_224\n      jump\t// in\n    tag_316:\n        /* \"#utility.yul\":3607:3682   */\n      swap1\n      pop\n        /* \"#utility.yul\":3705:3711   */\n      dup3\n        /* \"#utility.yul\":3698:3703   */\n      dup2\n        /* \"#utility.yul\":3691:3712   */\n      mstore\n        /* \"#utility.yul\":3743:3747   */\n      0x20\n        /* \"#utility.yul\":3736:3741   */\n      dup2\n        /* \"#utility.yul\":3732:3748   */\n      add\n        /* \"#utility.yul\":3781:3784   */\n      dup5\n        /* \"#utility.yul\":3772:3778   */\n      dup5\n        /* \"#utility.yul\":3767:3770   */\n      dup5\n        /* \"#utility.yul\":3763:3779   */\n      add\n        /* \"#utility.yul\":3760:3785   */\n      gt\n        /* \"#utility.yul\":3757:3869   */\n      iszero\n      tag_318\n      jumpi\n        /* \"#utility.yul\":3788:3867   */\n      tag_319\n      tag_220\n      jump\t// in\n    tag_319:\n        /* \"#utility.yul\":3757:3869   */\n    tag_318:\n        /* \"#utility.yul\":3878:3932   */\n      tag_320\n        /* \"#utility.yul\":3925:3931   */\n      dup5\n        /* \"#utility.yul\":3920:3923   */\n      dup3\n        /* \"#utility.yul\":3915:3918   */\n      dup6\n        /* \"#utility.yul\":3878:3932   */\n      tag_226\n      jump\t// in\n    tag_320:\n        /* \"#utility.yul\":3597:3938   */\n      pop\n        /* \"#utility.yul\":3513:3938   */\n      swap4\n      swap3\n      pop\n      pop\n      pop\n      jump\t// out\n        /* \"#utility.yul\":3958:4298   */\n    tag_228:\n        /* \"#utility.yul\":4014:4019   */\n      0x00\n        /* \"#utility.yul\":4063:4066   */\n      dup3\n        /* \"#utility.yul\":4056:4060   */\n      0x1f\n        /* \"#utility.yul\":4048:4054   */\n      dup4\n        /* \"#utility.yul\":4044:4061   */\n      add\n        /* \"#utility.yul\":4040:4067   */\n      slt\n        /* \"#utility.yul\":4030:4152   */\n      tag_322\n      jumpi\n        /* \"#utility.yul\":4071:4150   */\n      tag_323\n      tag_219\n      jump\t// in\n    tag_323:\n        /* \"#utility.yul\":4030:4152   */\n    tag_322:\n        /* \"#utility.yul\":4188:4194   */\n      dup2\n        /* \"#utility.yul\":4175:4195   */\n      calldataload\n        /* \"#utility.yul\":4213:4292   */\n      tag_324\n        /* \"#utility.yul\":4288:4291   */\n      dup5\n        /* \"#utility.yul\":4280:4286   */\n      dup3\n        /* \"#utility.yul\":4273:4277   */\n      0x20\n        /* \"#utility.yul\":4265:4271   */\n      dup7\n        /* \"#utility.yul\":4261:4278   */\n      add\n        /* \"#utility.yul\":4213:4292   */\n      tag_227\n      jump\t// in\n    tag_324:\n        /* \"#utility.yul\":4204:4292   */\n      swap2\n      pop\n        /* \"#utility.yul\":4020:4298   */\n      pop\n        /* \"#utility.yul\":3958:4298   */\n      swap3\n      swap2\n      pop\n      pop\n      jump\t// out\n        /* \"#utility.yul\":4304:5103   */\n    tag_42:\n        /* \"#utility.yul\":4391:4397   */\n      0x00\n        /* \"#utility.yul\":4399:4405   */\n      dup1\n        /* \"#utility.yul\":4407:4413   */\n      0x00\n        /* \"#utility.yul\":4456:4458   */\n      0x60\n        /* \"#utility.yul\":4444:4453   */\n      dup5\n        /* \"#utility.yul\":4435:4442   */\n      dup7\n        /* \"#utility.yul\":4431:4454   */\n      sub\n        /* \"#utility.yul\":4427:4459   */\n      slt\n        /* \"#utility.yul\":4424:4543   */\n      iszero\n      tag_326\n      jumpi\n        /* \"#utility.yul\":4462:4541   */\n      tag_327\n      tag_211\n      jump\t// in\n    tag_327:\n        /* \"#utility.yul\":4424:4543   */\n    tag_326:\n        /* \"#utility.yul\":4582:4583   */\n      0x00\n        /* \"#utility.yul\":4607:4660   */\n      tag_328\n        /* \"#utility.yul\":4652:4659   */\n      dup7\n        /* \"#utility.yul\":4643:4649   */\n      dup3\n        /* \"#utility.yul\":4632:4641   */\n      dup8\n        /* \"#utility.yul\":4628:4650   */\n      add\n        /* \"#utility.yul\":4607:4660   */\n      tag_218\n      jump\t// in\n    tag_328:\n        /* \"#utility.yul\":4597:4660   */\n      swap4\n      pop\n        /* \"#utility.yul\":4553:4670   */\n      pop\n        /* \"#utility.yul\":4709:4711   */\n      0x20\n        /* \"#utility.yul\":4735:4788   */\n      tag_329\n        /* \"#utility.yul\":4780:4787   */\n      dup7\n        /* \"#utility.yul\":4771:4777   */\n      dup3\n        /* \"#utility.yul\":4760:4769   */\n      dup8\n        /* \"#utility.yul\":4756:4778   */\n      add\n        /* \"#utility.yul\":4735:4788   */\n      tag_218\n      jump\t// in\n    tag_329:\n        /* \"#utility.yul\":4725:4788   */\n      swap3\n      pop\n        /* \"#utility.yul\":4680:4798   */\n      pop\n        /* \"#utility.yul\":4865:4867   */\n      0x40\n        /* \"#utility.yul\":4854:4863   */\n      dup5\n        /* \"#utility.yul\":4850:4868   */\n      add\n        /* \"#utility.yul\":4837:4869   */\n      calldataload\n        /* \"#utility.yul\":4896:4914   */\n      0xffffffffffffffff\n        /* \"#utility.yul\":4888:4894   */\n      dup2\n        /* \"#utility.yul\":4885:4915   */\n      gt\n        /* \"#utility.yul\":4882:4999   */\n      iszero\n      tag_330\n      jumpi\n        /* \"#utility.yul\":4918:4997   */\n      tag_331\n      tag_212\n      jump\t// in\n    tag_331:\n        /* \"#utility.yul\":4882:4999   */\n    tag_330:\n        /* \"#utility.yul\":5023:5086   */\n      tag_332\n        /* \"#utility.yul\":5078:5085   */\n      dup7\n        /* \"#utility.yul\":5069:5075   */\n      dup3\n        /* \"#utility.yul\":5058:5067   */\n      dup8\n        /* \"#utility.yul\":5054:5076   */\n      add\n        /* \"#utility.yul\":5023:5086   */\n      tag_228\n      jump\t// in\n    tag_332:\n        /* \"#utility.yul\":5013:5086   */\n      swap2\n      pop\n        /* \"#utility.yul\":4808:5096   */\n      pop\n        /* \"#utility.yul\":4304:5103   */\n      swap3\n      pop\n      swap3\n      pop\n      swap3\n      jump\t// out\n        /* \"#utility.yul\":5109:5195   */\n    tag_229:\n        /* \"#utility.yul\":5144:5151   */\n      0x00\n        /* \"#utility.yul\":5184:5188   */\n      0xff\n        /* \"#utility.yul\":5177:5182   */\n      dup3\n        /* \"#utility.yul\":5173:5189   */\n      and\n        /* \"#utility.yul\":5162:5189   */\n      swap1\n      pop\n        /* \"#utility.yul\":5109:5195   */\n      swap2\n      swap1\n      pop\n      jump\t// out\n        /* \"#utility.yul\":5201:5313   */\n    tag_230:\n        /* \"#utility.yul\":5284:5306   */\n      tag_335\n        /* \"#utility.yul\":5300:5305   */\n      dup2\n        /* \"#utility.yul\":5284:5306   */\n      tag_229\n      jump\t// in\n    tag_335:\n        /* \"#utility.yul\":5279:5282   */\n      dup3\n        /* \"#utility.yul\":5272:5307   */\n      mstore\n        /* \"#utility.yul\":5201:5313   */\n      pop\n      pop\n      jump\t// out\n        /* \"#utility.yul\":5319:5533   */\n    tag_48:\n        /* \"#utility.yul\":5408:5412   */\n      0x00\n        /* \"#utility.yul\":5446:5448   */\n      0x20\n        /* \"#utility.yul\":5435:5444   */\n      dup3\n        /* \"#utility.yul\":5431:5449   */\n      add\n        /* \"#utility.yul\":5423:5449   */\n      swap1\n      pop\n        /* \"#utility.yul\":5459:5526   */\n      tag_337\n        /* \"#utility.yul\":5523:5524   */\n      0x00\n        /* \"#utility.yul\":5512:5521   */\n      dup4\n        /* \"#utility.yul\":5508:5525   */\n      add\n        /* \"#utility.yul\":5499:5505   */\n      dup5\n        /* \"#utility.yul\":5459:5526   */\n      tag_230\n      jump\t// in\n    tag_337:\n        /* \"#utility.yul\":5319:5533   */\n      swap3\n      swap2\n      pop\n      pop\n      jump\t// out\n        /* \"#utility.yul\":5539:5665   */\n    tag_231:\n        /* \"#utility.yul\":5576:5583   */\n      0x00\n        /* \"#utility.yul\":5616:5658   */\n      0xffffffffffffffffffffffffffffffffffffffff\n        /* \"#utility.yul\":5609:5614   */\n      dup3\n        /* \"#utility.yul\":5605:5659   */\n      and\n        /* \"#utility.yul\":5594:5659   */\n      swap1\n      pop\n        /* \"#utility.yul\":5539:5665   */\n      swap2\n      swap1\n      pop\n      jump\t// out\n        /* \"#utility.yul\":5671:5767   */\n    tag_232:\n        /* \"#utility.yul\":5708:5715   */\n      0x00\n        /* \"#utility.yul\":5737:5761   */\n      tag_340\n        /* \"#utility.yul\":5755:5760   */\n      dup3\n        /* \"#utility.yul\":5737:5761   */\n      tag_231\n      jump\t// in\n    tag_340:\n        /* \"#utility.yul\":5726:5761   */\n      swap1\n      pop\n        /* \"#utility.yul\":5671:5767   */\n      swap2\n      swap1\n      pop\n      jump\t// out\n        /* \"#utility.yul\":5773:5895   */\n    tag_233:\n        /* \"#utility.yul\":5846:5870   */\n      tag_342\n        /* \"#utility.yul\":5864:5869   */\n      dup2\n        /* \"#utility.yul\":5846:5870   */\n      tag_232\n      jump\t// in\n    tag_342:\n        /* \"#utility.yul\":5839:5844   */\n      dup2\n        /* \"#utility.yul\":5836:5871   */\n      eq\n        /* \"#utility.yul\":5826:5889   */\n      tag_343\n      jumpi\n        /* \"#utility.yul\":5885:5886   */\n      0x00\n        /* \"#utility.yul\":5882:5883   */\n      dup1\n        /* \"#utility.yul\":5875:5887   */\n      revert\n        /* \"#utility.yul\":5826:5889   */\n    tag_343:\n        /* \"#utility.yul\":5773:5895   */\n      pop\n      jump\t// out\n        /* \"#utility.yul\":5901:6040   */\n    tag_234:\n        /* \"#utility.yul\":5947:5952   */\n      0x00\n        /* \"#utility.yul\":5985:5991   */\n      dup2\n        /* \"#utility.yul\":5972:5992   */\n      calldataload\n        /* \"#utility.yul\":5963:5992   */\n      swap1\n      pop\n        /* \"#utility.yul\":6001:6034   */\n      tag_345\n        /* \"#utility.yul\":6028:6033   */\n      dup2\n        /* \"#utility.yul\":6001:6034   */\n      tag_233\n      jump\t// in\n    tag_345:\n        /* \"#utility.yul\":5901:6040   */\n      swap3\n      swap2\n      pop\n      pop\n      jump\t// out\n        /* \"#utility.yul\":6046:6375   */\n    tag_56:\n        /* \"#utility.yul\":6105:6111   */\n      0x00\n        /* \"#utility.yul\":6154:6156   */\n      0x20\n        /* \"#utility.yul\":6142:6151   */\n      dup3\n        /* \"#utility.yul\":6133:6140   */\n      dup5\n        /* \"#utility.yul\":6129:6152   */\n      sub\n        /* \"#utility.yul\":6125:6157   */\n      slt\n        /* \"#utility.yul\":6122:6241   */\n      iszero\n      tag_347\n      jumpi\n        /* \"#utility.yul\":6160:6239   */\n      tag_348\n      tag_211\n      jump\t// in\n    tag_348:\n        /* \"#utility.yul\":6122:6241   */\n    tag_347:\n        /* \"#utility.yul\":6280:6281   */\n      0x00\n        /* \"#utility.yul\":6305:6358   */\n      tag_349\n        /* \"#utility.yul\":6350:6357   */\n      dup5\n        /* \"#utility.yul\":6341:6347   */\n      dup3\n        /* \"#utility.yul\":6330:6339   */\n      dup6\n        /* \"#utility.yul\":6326:6348   */\n      add\n        /* \"#utility.yul\":6305:6358   */\n      tag_234\n      jump\t// in\n    tag_349:\n        /* \"#utility.yul\":6295:6358   */\n      swap2\n      pop\n        /* \"#utility.yul\":6251:6368   */\n      pop\n        /* \"#utility.yul\":6046:6375   */\n      swap3\n      swap2\n      pop\n      pop\n      jump\t// out\n        /* \"#utility.yul\":6381:6482   */\n    tag_235:\n        /* \"#utility.yul\":6417:6424   */\n      0x00\n        /* \"#utility.yul\":6457:6475   */\n      0xffffffffffffffff\n        /* \"#utility.yul\":6450:6455   */\n      dup3\n        /* \"#utility.yul\":6446:6476   */\n      and\n        /* \"#utility.yul\":6435:6476   */\n      swap1\n      pop\n        /* \"#utility.yul\":6381:6482   */\n      swap2\n      swap1\n      pop\n      jump\t// out\n        /* \"#utility.yul\":6488:6603   */\n    tag_236:\n        /* \"#utility.yul\":6573:6596   */\n      tag_352\n        /* \"#utility.yul\":6590:6595   */\n      dup2\n        /* \"#utility.yul\":6573:6596   */\n      tag_235\n      jump\t// in\n    tag_352:\n        /* \"#utility.yul\":6568:6571   */\n      dup3\n        /* \"#utility.yul\":6561:6597   */\n      mstore\n        /* \"#utility.yul\":6488:6603   */\n      pop\n      pop\n      jump\t// out\n        /* \"#utility.yul\":6609:6699   */\n    tag_237:\n        /* \"#utility.yul\":6643:6650   */\n      0x00\n        /* \"#utility.yul\":6686:6691   */\n      dup2\n        /* \"#utility.yul\":6679:6692   */\n      iszero\n        /* \"#utility.yul\":6672:6693   */\n      iszero\n        /* \"#utility.yul\":6661:6693   */\n      swap1\n      pop\n        /* \"#utility.yul\":6609:6699   */\n      swap2\n      swap1\n      pop\n      jump\t// out\n        /* \"#utility.yul\":6705:6814   */\n    tag_238:\n        /* \"#utility.yul\":6786:6807   */\n      tag_355\n        /* \"#utility.yul\":6801:6806   */\n      dup2\n        /* \"#utility.yul\":6786:6807   */\n      tag_237\n      jump\t// in\n    tag_355:\n        /* \"#utility.yul\":6781:6784   */\n      dup3\n        /* \"#utility.yul\":6774:6808   */\n      mstore\n        /* \"#utility.yul\":6705:6814   */\n      pop\n      pop\n      jump\t// out\n        /* \"#utility.yul\":6820:7246   */\n    tag_59:\n        /* \"#utility.yul\":6961:6965   */\n      0x00\n        /* \"#utility.yul\":6999:7001   */\n      0x60\n        /* \"#utility.yul\":6988:6997   */\n      dup3\n        /* \"#utility.yul\":6984:7002   */\n      add\n        /* \"#utility.yul\":6976:7002   */\n      swap1\n      pop\n        /* \"#utility.yul\":7012:7083   */\n      tag_357\n        /* \"#utility.yul\":7080:7081   */\n      0x00\n        /* \"#utility.yul\":7069:7078   */\n      dup4\n        /* \"#utility.yul\":7065:7082   */\n      add\n        /* \"#utility.yul\":7056:7062   */\n      dup7\n        /* \"#utility.yul\":7012:7083   */\n      tag_216\n      jump\t// in\n    tag_357:\n        /* \"#utility.yul\":7093:7163   */\n      tag_358\n        /* \"#utility.yul\":7159:7161   */\n      0x20\n        /* \"#utility.yul\":7148:7157   */\n      dup4\n        /* \"#utility.yul\":7144:7162   */\n      add\n        /* \"#utility.yul\":7135:7141   */\n      dup6\n        /* \"#utility.yul\":7093:7163   */\n      tag_236\n      jump\t// in\n    tag_358:\n        /* \"#utility.yul\":7173:7239   */\n      tag_359\n        /* \"#utility.yul\":7235:7237   */\n      0x40\n        /* \"#utility.yul\":7224:7233   */\n      dup4\n        /* \"#utility.yul\":7220:7238   */\n      add\n        /* \"#utility.yul\":7211:7217   */\n      dup5\n        /* \"#utility.yul\":7173:7239   */\n      tag_238\n      jump\t// in\n    tag_359:\n        /* \"#utility.yul\":6820:7246   */\n      swap5\n      swap4\n      pop\n      pop\n      pop\n      pop\n      jump\t// out\n        /* \"#utility.yul\":7252:7726   */\n    tag_63:\n        /* \"#utility.yul\":7320:7326   */\n      0x00\n        /* \"#utility.yul\":7328:7334   */\n      dup1\n        /* \"#utility.yul\":7377:7379   */\n      0x40\n        /* \"#utility.yul\":7365:7374   */\n      dup4\n        /* \"#utility.yul\":7356:7363   */\n      dup6\n        /* \"#utility.yul\":7352:7375   */\n      sub\n        /* \"#utility.yul\":7348:7380   */\n      slt\n        /* \"#utility.yul\":7345:7464   */\n      iszero\n      tag_361\n      jumpi\n        /* \"#utility.yul\":7383:7462   */\n      tag_362\n      tag_211\n      jump\t// in\n    tag_362:\n        /* \"#utility.yul\":7345:7464   */\n    tag_361:\n        /* \"#utility.yul\":7503:7504   */\n      0x00\n        /* \"#utility.yul\":7528:7581   */\n      tag_363\n        /* \"#utility.yul\":7573:7580   */\n      dup6\n        /* \"#utility.yul\":7564:7570   */\n      dup3\n        /* \"#utility.yul\":7553:7562   */\n      dup7\n        /* \"#utility.yul\":7549:7571   */\n      add\n        /* \"#utility.yul\":7528:7581   */\n      tag_215\n      jump\t// in\n    tag_363:\n        /* \"#utility.yul\":7518:7581   */\n      swap3\n      pop\n        /* \"#utility.yul\":7474:7591   */\n      pop\n        /* \"#utility.yul\":7630:7632   */\n      0x20\n        /* \"#utility.yul\":7656:7709   */\n      tag_364\n        /* \"#utility.yul\":7701:7708   */\n      dup6\n        /* \"#utility.yul\":7692:7698   */\n      dup3\n        /* \"#utility.yul\":7681:7690   */\n      dup7\n        /* \"#utility.yul\":7677:7699   */\n      add\n        /* \"#utility.yul\":7656:7709   */\n      tag_215\n      jump\t// in\n    tag_364:\n        /* \"#utility.yul\":7646:7709   */\n      swap2\n      pop\n        /* \"#utility.yul\":7601:7719   */\n      pop\n        /* \"#utility.yul\":7252:7726   */\n      swap3\n      pop\n      swap3\n      swap1\n      pop\n      jump\t// out\n        /* \"#utility.yul\":7732:8061   */\n    tag_73:\n        /* \"#utility.yul\":7791:7797   */\n      0x00\n        /* \"#utility.yul\":7840:7842   */\n      0x20\n        /* \"#utility.yul\":7828:7837   */\n      dup3\n        /* \"#utility.yul\":7819:7826   */\n      dup5\n        /* \"#utility.yul\":7815:7838   */\n      sub\n        /* \"#utility.yul\":7811:7843   */\n      slt\n        /* \"#utility.yul\":7808:7927   */\n      iszero\n      tag_366\n      jumpi\n        /* \"#utility.yul\":7846:7925   */\n      tag_367\n      tag_211\n      jump\t// in\n    tag_367:\n        /* \"#utility.yul\":7808:7927   */\n    tag_366:\n        /* \"#utility.yul\":7966:7967   */\n      0x00\n        /* \"#utility.yul\":7991:8044   */\n      tag_368\n        /* \"#utility.yul\":8036:8043   */\n      dup5\n        /* \"#utility.yul\":8027:8033   */\n      dup3\n        /* \"#utility.yul\":8016:8025   */\n      dup6\n        /* \"#utility.yul\":8012:8034   */\n      add\n        /* \"#utility.yul\":7991:8044   */\n      tag_218\n      jump\t// in\n    tag_368:\n        /* \"#utility.yul\":7981:8044   */\n      swap2\n      pop\n        /* \"#utility.yul\":7937:8054   */\n      pop\n        /* \"#utility.yul\":7732:8061   */\n      swap3\n      swap2\n      pop\n      pop\n      jump\t// out\n        /* \"#utility.yul\":8067:8185   */\n    tag_239:\n        /* \"#utility.yul\":8154:8178   */\n      tag_370\n        /* \"#utility.yul\":8172:8177   */\n      dup2\n        /* \"#utility.yul\":8154:8178   */\n      tag_232\n      jump\t// in\n    tag_370:\n        /* \"#utility.yul\":8149:8152   */\n      dup3\n        /* \"#utility.yul\":8142:8179   */\n      mstore\n        /* \"#utility.yul\":8067:8185   */\n      pop\n      pop\n      jump\t// out\n        /* \"#utility.yul\":8191:8621   */\n    tag_76:\n        /* \"#utility.yul\":8334:8338   */\n      0x00\n        /* \"#utility.yul\":8372:8374   */\n      0x60\n        /* \"#utility.yul\":8361:8370   */\n      dup3\n        /* \"#utility.yul\":8357:8375   */\n      add\n        /* \"#utility.yul\":8349:8375   */\n      swap1\n      pop\n        /* \"#utility.yul\":8385:8456   */\n      tag_372\n        /* \"#utility.yul\":8453:8454   */\n      0x00\n        /* \"#utility.yul\":8442:8451   */\n      dup4\n        /* \"#utility.yul\":8438:8455   */\n      add\n        /* \"#utility.yul\":8429:8435   */\n      dup7\n        /* \"#utility.yul\":8385:8456   */\n      tag_209\n      jump\t// in\n    tag_372:\n        /* \"#utility.yul\":8466:8538   */\n      tag_373\n        /* \"#utility.yul\":8534:8536   */\n      0x20\n        /* \"#utility.yul\":8523:8532   */\n      dup4\n        /* \"#utility.yul\":8519:8537   */\n      add\n        /* \"#utility.yul\":8510:8516   */\n      dup6\n        /* \"#utility.yul\":8466:8538   */\n      tag_239\n      jump\t// in\n    tag_373:\n        /* \"#utility.yul\":8548:8614   */\n      tag_374\n        /* \"#utility.yul\":8610:8612   */\n      0x40\n        /* \"#utility.yul\":8599:8608   */\n      dup4\n        /* \"#utility.yul\":8595:8613   */\n      add\n        /* \"#utility.yul\":8586:8592   */\n      dup5\n        /* \"#utility.yul\":8548:8614   */\n      tag_238\n      jump\t// in\n    tag_374:\n        /* \"#utility.yul\":8191:8621   */\n      swap5\n      swap4\n      pop\n      pop\n      pop\n      pop\n      jump\t// out\n        /* \"#utility.yul\":8627:9281   */\n    tag_84:\n        /* \"#utility.yul\":8705:8711   */\n      0x00\n        /* \"#utility.yul\":8713:8719   */\n      dup1\n        /* \"#utility.yul\":8762:8764   */\n      0x40\n        /* \"#utility.yul\":8750:8759   */\n      dup4\n        /* \"#utility.yul\":8741:8748   */\n      dup6\n        /* \"#utility.yul\":8737:8760   */\n      sub\n        /* \"#utility.yul\":8733:8765   */\n      slt\n        /* \"#utility.yul\":8730:8849   */\n      iszero\n      tag_376\n      jumpi\n        /* \"#utility.yul\":8768:8847   */\n      tag_377\n      tag_211\n      jump\t// in\n    tag_377:\n        /* \"#utility.yul\":8730:8849   */\n    tag_376:\n        /* \"#utility.yul\":8888:8889   */\n      0x00\n        /* \"#utility.yul\":8913:8966   */\n      tag_378\n        /* \"#utility.yul\":8958:8965   */\n      dup6\n        /* \"#utility.yul\":8949:8955   */\n      dup3\n        /* \"#utility.yul\":8938:8947   */\n      dup7\n        /* \"#utility.yul\":8934:8956   */\n      add\n        /* \"#utility.yul\":8913:8966   */\n      tag_218\n      jump\t// in\n    tag_378:\n        /* \"#utility.yul\":8903:8966   */\n      swap3\n      pop\n        /* \"#utility.yul\":8859:8976   */\n      pop\n        /* \"#utility.yul\":9043:9045   */\n      0x20\n        /* \"#utility.yul\":9032:9041   */\n      dup4\n        /* \"#utility.yul\":9028:9046   */\n      add\n        /* \"#utility.yul\":9015:9047   */\n      calldataload\n        /* \"#utility.yul\":9074:9092   */\n      0xffffffffffffffff\n        /* \"#utility.yul\":9066:9072   */\n      dup2\n        /* \"#utility.yul\":9063:9093   */\n      gt\n        /* \"#utility.yul\":9060:9177   */\n      iszero\n      tag_379\n      jumpi\n        /* \"#utility.yul\":9096:9175   */\n      tag_380\n      tag_212\n      jump\t// in\n    tag_380:\n        /* \"#utility.yul\":9060:9177   */\n    tag_379:\n        /* \"#utility.yul\":9201:9264   */\n      tag_381\n        /* \"#utility.yul\":9256:9263   */\n      dup6\n        /* \"#utility.yul\":9247:9253   */\n      dup3\n        /* \"#utility.yul\":9236:9245   */\n      dup7\n        /* \"#utility.yul\":9232:9254   */\n      add\n        /* \"#utility.yul\":9201:9264   */\n      tag_228\n      jump\t// in\n    tag_381:\n        /* \"#utility.yul\":9191:9264   */\n      swap2\n      pop\n        /* \"#utility.yul\":8986:9274   */\n      pop\n        /* \"#utility.yul\":8627:9281   */\n      swap3\n      pop\n      swap3\n      swap1\n      pop\n      jump\t// out\n        /* \"#utility.yul\":9287:9761   */\n    tag_90:\n        /* \"#utility.yul\":9355:9361   */\n      0x00\n        /* \"#utility.yul\":9363:9369   */\n      dup1\n        /* \"#utility.yul\":9412:9414   */\n      0x40\n        /* \"#utility.yul\":9400:9409   */\n      dup4\n        /* \"#utility.yul\":9391:9398   */\n      dup6\n        /* \"#utility.yul\":9387:9410   */\n      sub\n        /* \"#utility.yul\":9383:9415   */\n      slt\n        /* \"#utility.yul\":9380:9499   */\n      iszero\n      tag_383\n      jumpi\n        /* \"#utility.yul\":9418:9497   */\n      tag_384\n      tag_211\n      jump\t// in\n    tag_384:\n        /* \"#utility.yul\":9380:9499   */\n    tag_383:\n        /* \"#utility.yul\":9538:9539   */\n      0x00\n        /* \"#utility.yul\":9563:9616   */\n      tag_385\n        /* \"#utility.yul\":9608:9615   */\n      dup6\n        /* \"#utility.yul\":9599:9605   */\n      dup3\n        /* \"#utility.yul\":9588:9597   */\n      dup7\n        /* \"#utility.yul\":9584:9606   */\n      add\n        /* \"#utility.yul\":9563:9616   */\n      tag_215\n      jump\t// in\n    tag_385:\n        /* \"#utility.yul\":9553:9616   */\n      swap3\n      pop\n        /* \"#utility.yul\":9509:9626   */\n      pop\n        /* \"#utility.yul\":9665:9667   */\n      0x20\n        /* \"#utility.yul\":9691:9744   */\n      tag_386\n        /* \"#utility.yul\":9736:9743   */\n      dup6\n        /* \"#utility.yul\":9727:9733   */\n      dup3\n        /* \"#utility.yul\":9716:9725   */\n      dup7\n        /* \"#utility.yul\":9712:9734   */\n      add\n        /* \"#utility.yul\":9691:9744   */\n      tag_218\n      jump\t// in\n    tag_386:\n        /* \"#utility.yul\":9681:9744   */\n      swap2\n      pop\n        /* \"#utility.yul\":9636:9754   */\n      pop\n        /* \"#utility.yul\":9287:9761   */\n      swap3\n      pop\n      swap3\n      swap1\n      pop\n      jump\t// out\n        /* \"#utility.yul\":9767:9947   */\n    tag_240:\n        /* \"#utility.yul\":9815:9892   */\n      0x4e487b7100000000000000000000000000000000000000000000000000000000\n        /* \"#utility.yul\":9812:9813   */\n      0x00\n        /* \"#utility.yul\":9805:9893   */\n      mstore\n        /* \"#utility.yul\":9912:9916   */\n      0x11\n        /* \"#utility.yul\":9909:9910   */\n      0x04\n        /* \"#utility.yul\":9902:9917   */\n      mstore\n        /* \"#utility.yul\":9936:9940   */\n      0x24\n        /* \"#utility.yul\":9933:9934   */\n      0x00\n        /* \"#utility.yul\":9926:9941   */\n      revert\n        /* \"#utility.yul\":9953:10144   */\n    tag_104:\n        /* \"#utility.yul\":9993:9996   */\n      0x00\n        /* \"#utility.yul\":10012:10032   */\n      tag_389\n        /* \"#utility.yul\":10030:10031   */\n      dup3\n        /* \"#utility.yul\":10012:10032   */\n      tag_208\n      jump\t// in\n    tag_389:\n        /* \"#utility.yul\":10007:10032   */\n      swap2\n      pop\n        /* \"#utility.yul\":10046:10066   */\n      tag_390\n        /* \"#utility.yul\":10064:10065   */\n      dup4\n        /* \"#utility.yul\":10046:10066   */\n      tag_208\n      jump\t// in\n    tag_390:\n        /* \"#utility.yul\":10041:10066   */\n      swap3\n      pop\n        /* \"#utility.yul\":10089:10090   */\n      dup3\n        /* \"#utility.yul\":10086:10087   */\n      dup3\n        /* \"#utility.yul\":10082:10091   */\n      add\n        /* \"#utility.yul\":10075:10091   */\n      swap1\n      pop\n        /* \"#utility.yul\":10110:10113   */\n      dup1\n        /* \"#utility.yul\":10107:10108   */\n      dup3\n        /* \"#utility.yul\":10104:10114   */\n      gt\n        /* \"#utility.yul\":10101:10137   */\n      iszero\n      tag_391\n      jumpi\n        /* \"#utility.yul\":10117:10135   */\n      tag_392\n      tag_240\n      jump\t// in\n    tag_392:\n        /* \"#utility.yul\":10101:10137   */\n    tag_391:\n        /* \"#utility.yul\":9953:10144   */\n      swap3\n      swap2\n      pop\n      pop\n      jump\t// out\n        /* \"#utility.yul\":10150:10383   */\n    tag_106:\n        /* \"#utility.yul\":10189:10192   */\n      0x00\n        /* \"#utility.yul\":10212:10236   */\n      tag_394\n        /* \"#utility.yul\":10230:10235   */\n      dup3\n        /* \"#utility.yul\":10212:10236   */\n      tag_208\n      jump\t// in\n    tag_394:\n        /* \"#utility.yul\":10203:10236   */\n      swap2\n      pop\n        /* \"#utility.yul\":10258:10324   */\n      0xffffffffffffffffffffffffffffffffffffffffffffffffffffffffffffffff\n        /* \"#utility.yul\":10251:10256   */\n      dup3\n        /* \"#utility.yul\":10248:10325   */\n      sub\n        /* \"#utility.yul\":10245:10348   */\n      tag_395\n      jumpi\n        /* \"#utility.yul\":10328:10346   */\n      tag_396\n      tag_240\n      jump\t// in\n    tag_396:\n        /* \"#utility.yul\":10245:10348   */\n    tag_395:\n        /* \"#utility.yul\":10375:10376   */\n      0x01\n        /* \"#utility.yul\":10368:10373   */\n      dup3\n        /* \"#utility.yul\":10364:10377   */\n      add\n        /* \"#utility.yul\":10357:10377   */\n      swap1\n      pop\n        /* \"#utility.yul\":10150:10383   */\n      swap2\n      swap1\n      pop\n      jump\t// out\n        /* \"#utility.yul\":10389:10721   */\n    tag_108:\n        /* \"#utility.yul\":10510:10514   */\n      0x00\n        /* \"#utility.yul\":10548:10550   */\n      0x40\n        /* \"#utility.yul\":10537:10546   */\n      dup3\n        /* \"#utility.yul\":10533:10551   */\n      add\n        /* \"#utility.yul\":10525:10551   */\n      swap1\n      pop\n        /* \"#utility.yul\":10561:10632   */\n      tag_398\n        /* \"#utility.yul\":10629:10630   */\n      0x00\n        /* \"#utility.yul\":10618:10627   */\n      dup4\n        /* \"#utility.yul\":10614:10631   */\n      add\n        /* \"#utility.yul\":10605:10611   */\n      dup6\n        /* \"#utility.yul\":10561:10632   */\n      tag_239\n      jump\t// in\n    tag_398:\n        /* \"#utility.yul\":10642:10714   */\n      tag_399\n        /* \"#utility.yul\":10710:10712   */\n      0x20\n        /* \"#utility.yul\":10699:10708   */\n      dup4\n        /* \"#utility.yul\":10695:10713   */\n      add\n        /* \"#utility.yul\":10686:10692   */\n      dup5\n        /* \"#utility.yul\":10642:10714   */\n      tag_209\n      jump\t// in\n    tag_399:\n        /* \"#utility.yul\":10389:10721   */\n      swap4\n      swap3\n      pop\n      pop\n      pop\n      jump\t// out\n        /* \"#utility.yul\":10727:10821   */\n    tag_241:\n        /* \"#utility.yul\":10760:10768   */\n      0x00\n        /* \"#utility.yul\":10808:10813   */\n      dup2\n        /* \"#utility.yul\":10804:10806   */\n      0x60\n        /* \"#utility.yul\":10800:10814   */\n      shl\n        /* \"#utility.yul\":10779:10814   */\n      swap1\n      pop\n        /* \"#utility.yul\":10727:10821   */\n      swap2\n      swap1\n      pop\n      jump\t// out\n        /* \"#utility.yul\":10827:10921   */\n    tag_242:\n        /* \"#utility.yul\":10866:10873   */\n      0x00\n        /* \"#utility.yul\":10895:10915   */\n      tag_402\n        /* \"#utility.yul\":10909:10914   */\n      dup3\n        /* \"#utility.yul\":10895:10915   */\n      tag_241\n      jump\t// in\n    tag_402:\n        /* \"#utility.yul\":10884:10915   */\n      swap1\n      pop\n        /* \"#utility.yul\":10827:10921   */\n      swap2\n      swap1\n      pop\n      jump\t// out\n        /* \"#utility.yul\":10927:11027   */\n    tag_243:\n        /* \"#utility.yul\":10966:10973   */\n      0x00\n        /* \"#utility.yul\":10995:11021   */\n      tag_404\n        /* \"#utility.yul\":11015:11020   */\n      dup3\n        /* \"#utility.yul\":10995:11021   */\n      tag_242\n      jump\t// in\n    tag_404:\n        /* \"#utility.yul\":10984:11021   */\n      swap1\n      pop\n        /* \"#utility.yul\":10927:11027   */\n      swap2\n      swap1\n      pop\n      jump\t// out\n        /* \"#utility.yul\":11033:11190   */\n    tag_244:\n        /* \"#utility.yul\":11138:11183   */\n      tag_406\n        /* \"#utility.yul\":11158:11182   */\n      tag_407\n        /* \"#utility.yul\":11176:11181   */\n      dup3\n        /* \"#utility.yul\":11158:11182   */\n      tag_232\n      jump\t// in\n    tag_407:\n        /* \"#utility.yul\":11138:11183   */\n      tag_243\n      jump\t// in\n    tag_406:\n        /* \"#utility.yul\":11133:11136   */\n      dup3\n        /* \"#utility.yul\":11126:11184   */\n      mstore\n        /* \"#utility.yul\":11033:11190   */\n      pop\n      pop\n      jump\t// out\n        /* \"#utility.yul\":11196:11275   */\n    tag_245:\n        /* \"#utility.yul\":11235:11242   */\n      0x00\n        /* \"#utility.yul\":11264:11269   */\n      dup2\n        /* \"#utility.yul\":11253:11269   */\n      swap1\n      pop\n        /* \"#utility.yul\":11196:11275   */\n      swap2\n      swap1\n      pop\n      jump\t// out\n        /* \"#utility.yul\":11281:11438   */\n    tag_246:\n        /* \"#utility.yul\":11386:11431   */\n      tag_410\n        /* \"#utility.yul\":11406:11430   */\n      tag_411\n        /* \"#utility.yul\":11424:11429   */\n      dup3\n        /* \"#utility.yul\":11406:11430   */\n      tag_213\n      jump\t// in\n    tag_411:\n        /* \"#utility.yul\":11386:11431   */\n      tag_245\n      jump\t// in\n    tag_410:\n        /* \"#utility.yul\":11381:11384   */\n      dup3\n        /* \"#utility.yul\":11374:11432   */\n      mstore\n        /* \"#utility.yul\":11281:11438   */\n      pop\n      pop\n      jump\t// out\n        /* \"#utility.yul\":11444:11841   */\n    tag_111:\n        /* \"#utility.yul\":11584:11587   */\n      0x00\n        /* \"#utility.yul\":11599:11674   */\n      tag_413\n        /* \"#utility.yul\":11670:11673   */\n      dup3\n        /* \"#utility.yul\":11661:11667   */\n      dup6\n        /* \"#utility.yul\":11599:11674   */\n      tag_244\n      jump\t// in\n    tag_413:\n        /* \"#utility.yul\":11699:11701   */\n      0x14\n        /* \"#utility.yul\":11694:11697   */\n      dup3\n        /* \"#utility.yul\":11690:11702   */\n      add\n        /* \"#utility.yul\":11683:11702   */\n      swap2\n      pop\n        /* \"#utility.yul\":11712:11787   */\n      tag_414\n        /* \"#utility.yul\":11783:11786   */\n      dup3\n        /* \"#utility.yul\":11774:11780   */\n      dup5\n        /* \"#utility.yul\":11712:11787   */\n      tag_246\n      jump\t// in\n    tag_414:\n        /* \"#utility.yul\":11812:11814   */\n      0x20\n        /* \"#utility.yul\":11807:11810   */\n      dup3\n        /* \"#utility.yul\":11803:11815   */\n      add\n        /* \"#utility.yul\":11796:11815   */\n      swap2\n      pop\n        /* \"#utility.yul\":11832:11835   */\n      dup2\n        /* \"#utility.yul\":11825:11835   */\n      swap1\n      pop\n        /* \"#utility.yul\":11444:11841   */\n      swap4\n      swap3\n      pop\n      pop\n      pop\n      jump\t// out\n        /* \"#utility.yul\":11847:11946   */\n    tag_247:\n        /* \"#utility.yul\":11899:11905   */\n      0x00\n        /* \"#utility.yul\":11933:11938   */\n      dup2\n        /* \"#utility.yul\":11927:11939   */\n      mload\n        /* \"#utility.yul\":11917:11939   */\n      swap1\n      pop\n        /* \"#utility.yul\":11847:11946   */\n      swap2\n      swap1\n      pop\n      jump\t// out\n        /* \"#utility.yul\":11952:12100   */\n    tag_248:\n        /* \"#utility.yul\":12054:12065   */\n      0x00\n        /* \"#utility.yul\":12091:12094   */\n      dup2\n        /* \"#utility.yul\":12076:12094   */\n      swap1\n      pop\n        /* \"#utility.yul\":11952:12100   */\n      swap3\n      swap2\n      pop\n      pop\n      jump\t// out\n        /* \"#utility.yul\":12106:12352   */\n    tag_249:\n        /* \"#utility.yul\":12187:12188   */\n      0x00\n        /* \"#utility.yul\":12197:12310   */\n    tag_418:\n        /* \"#utility.yul\":12211:12217   */\n      dup4\n        /* \"#utility.yul\":12208:12209   */\n      dup2\n        /* \"#utility.yul\":12205:12218   */\n      lt\n        /* \"#utility.yul\":12197:12310   */\n      iszero\n      tag_420\n      jumpi\n        /* \"#utility.yul\":12296:12297   */\n      dup1\n        /* \"#utility.yul\":12291:12294   */\n      dup3\n        /* \"#utility.yul\":12287:12298   */\n      add\n        /* \"#utility.yul\":12281:12299   */\n      mload\n        /* \"#utility.yul\":12277:12278   */\n      dup2\n        /* \"#utility.yul\":12272:12275   */\n      dup5\n        /* \"#utility.yul\":12268:12279   */\n      add\n        /* \"#utility.yul\":12261:12300   */\n      mstore\n        /* \"#utility.yul\":12233:12235   */\n      0x20\n        /* \"#utility.yul\":12230:12231   */\n      dup2\n        /* \"#utility.yul\":12226:12236   */\n      add\n        /* \"#utility.yul\":12221:12236   */\n      swap1\n      pop\n        /* \"#utility.yul\":12197:12310   */\n      jump(tag_418)\n    tag_420:\n        /* \"#utility.yul\":12344:12345   */\n      0x00\n        /* \"#utility.yul\":12335:12341   */\n      dup5\n        /* \"#utility.yul\":12330:12333   */\n      dup5\n        /* \"#utility.yul\":12326:12342   */\n      add\n        /* \"#utility.yul\":12319:12346   */\n      mstore\n        /* \"#utility.yul\":12168:12352   */\n      pop\n        /* \"#utility.yul\":12106:12352   */\n      pop\n      pop\n      pop\n      jump\t// out\n        /* \"#utility.yul\":12358:12748   */\n    tag_250:\n        /* \"#utility.yul\":12464:12467   */\n      0x00\n        /* \"#utility.yul\":12492:12531   */\n      tag_422\n        /* \"#utility.yul\":12525:12530   */\n      dup3\n        /* \"#utility.yul\":12492:12531   */\n      tag_247\n      jump\t// in\n    tag_422:\n        /* \"#utility.yul\":12547:12636   */\n      tag_423\n        /* \"#utility.yul\":12629:12635   */\n      dup2\n        /* \"#utility.yul\":12624:12627   */\n      dup6\n        /* \"#utility.yul\":12547:12636   */\n      tag_248\n      jump\t// in\n    tag_423:\n        /* \"#utility.yul\":12540:12636   */\n      swap4\n      pop\n        /* \"#utility.yul\":12645:12710   */\n      tag_424\n        /* \"#utility.yul\":12703:12709   */\n      dup2\n        /* \"#utility.yul\":12698:12701   */\n      dup6\n        /* \"#utility.yul\":12691:12695   */\n      0x20\n        /* \"#utility.yul\":12684:12689   */\n      dup7\n        /* \"#utility.yul\":12680:12696   */\n      add\n        /* \"#utility.yul\":12645:12710   */\n      tag_249\n      jump\t// in\n    tag_424:\n        /* \"#utility.yul\":12735:12741   */\n      dup1\n        /* \"#utility.yul\":12730:12733   */\n      dup5\n        /* \"#utility.yul\":12726:12742   */\n      add\n        /* \"#utility.yul\":12719:12742   */\n      swap2\n      pop\n        /* \"#utility.yul\":12468:12748   */\n      pop\n        /* \"#utility.yul\":12358:12748   */\n      swap3\n      swap2\n      pop\n      pop\n      jump\t// out\n        /* \"#utility.yul\":12754:13029   */\n    tag_120:\n        /* \"#utility.yul\":12886:12889   */\n      0x00\n        /* \"#utility.yul\":12908:13003   */\n      tag_426\n        /* \"#utility.yul\":12999:13002   */\n      dup3\n        /* \"#utility.yul\":12990:12996   */\n      dup5\n        /* \"#utility.yul\":12908:13003   */\n      tag_250\n      jump\t// in\n    tag_426:\n        /* \"#utility.yul\":12901:13003   */\n      swap2\n      pop\n        /* \"#utility.yul\":13020:13023   */\n      dup2\n        /* \"#utility.yul\":13013:13023   */\n      swap1\n      pop\n        /* \"#utility.yul\":12754:13029   */\n      swap3\n      swap2\n      pop\n      pop\n      jump\t// out\n        /* \"#utility.yul\":13035:13133   */\n    tag_251:\n        /* \"#utility.yul\":13086:13092   */\n      0x00\n        /* \"#utility.yul\":13120:13125   */\n      dup2\n        /* \"#utility.yul\":13114:13126   */\n      mload\n        /* \"#utility.yul\":13104:13126   */\n      swap1\n      pop\n        /* \"#utility.yul\":13035:13133   */\n      swap2\n      swap1\n      pop\n      jump\t// out\n        /* \"#utility.yul\":13139:13255   */\n    tag_252:\n        /* \"#utility.yul\":13190:13194   */\n      0x00\n        /* \"#utility.yul\":13213:13216   */\n      dup2\n        /* \"#utility.yul\":13205:13216   */\n      swap1\n      pop\n        /* \"#utility.yul\":13243:13247   */\n      0x20\n        /* \"#utility.yul\":13238:13241   */\n      dup3\n        /* \"#utility.yul\":13234:13248   */\n      add\n        /* \"#utility.yul\":13226:13248   */\n      swap1\n      pop\n        /* \"#utility.yul\":13139:13255   */\n      swap2\n      swap1\n      pop\n      jump\t// out\n        /* \"#utility.yul\":13261:13415   */\n    tag_253:\n        /* \"#utility.yul\":13304:13315   */\n      0x00\n        /* \"#utility.yul\":13340:13369   */\n      tag_430\n        /* \"#utility.yul\":13364:13367   */\n      dup3\n        /* \"#utility.yul\":13358:13368   */\n      mload\n        /* \"#utility.yul\":13340:13369   */\n      tag_213\n      jump\t// in\n    tag_430:\n        /* \"#utility.yul\":13403:13408   */\n      dup1\n        /* \"#utility.yul\":13379:13408   */\n      swap2\n      pop\n        /* \"#utility.yul\":13316:13415   */\n      pop\n        /* \"#utility.yul\":13261:13415   */\n      swap2\n      swap1\n      pop\n      jump\t// out\n        /* \"#utility.yul\":13421:13528   */\n    tag_254:\n        /* \"#utility.yul\":13465:13473   */\n      0x00\n        /* \"#utility.yul\":13515:13520   */\n      dup3\n        /* \"#utility.yul\":13509:13513   */\n      dup3\n        /* \"#utility.yul\":13505:13521   */\n      shl\n        /* \"#utility.yul\":13484:13521   */\n      swap1\n      pop\n        /* \"#utility.yul\":13421:13528   */\n      swap3\n      swap2\n      pop\n      pop\n      jump\t// out\n        /* \"#utility.yul\":13534:14128   */\n    tag_122:\n        /* \"#utility.yul\":13618:13623   */\n      0x00\n        /* \"#utility.yul\":13649:13687   */\n      tag_433\n        /* \"#utility.yul\":13681:13686   */\n      dup3\n        /* \"#utility.yul\":13649:13687   */\n      tag_251\n      jump\t// in\n    tag_433:\n        /* \"#utility.yul\":13712:13717   */\n      dup3\n        /* \"#utility.yul\":13739:13779   */\n      tag_434\n        /* \"#utility.yul\":13773:13778   */\n      dup5\n        /* \"#utility.yul\":13739:13779   */\n      tag_252\n      jump\t// in\n    tag_434:\n        /* \"#utility.yul\":13727:13779   */\n      swap1\n      pop\n        /* \"#utility.yul\":13798:13833   */\n      tag_435\n        /* \"#utility.yul\":13824:13832   */\n      dup2\n        /* \"#utility.yul\":13798:13833   */\n      tag_253\n      jump\t// in\n    tag_435:\n        /* \"#utility.yul\":13789:13833   */\n      swap3\n      pop\n        /* \"#utility.yul\":13857:13859   */\n      0x20\n        /* \"#utility.yul\":13849:13855   */\n      dup3\n        /* \"#utility.yul\":13846:13860   */\n      lt\n        /* \"#utility.yul\":13843:14121   */\n      iszero\n      tag_436\n      jumpi\n        /* \"#utility.yul\":13928:14097   */\n      tag_437\n        /* \"#utility.yul\":14013:14079   */\n      0xffffffffffffffffffffffffffffffffffffffffffffffffffffffffffffffff\n        /* \"#utility.yul\":13983:13989   */\n      dup4\n        /* \"#utility.yul\":13979:13981   */\n      0x20\n        /* \"#utility.yul\":13975:13990   */\n      sub\n        /* \"#utility.yul\":13972:13973   */\n      0x08\n        /* \"#utility.yul\":13968:13991   */\n      mul\n        /* \"#utility.yul\":13928:14097   */\n      tag_254\n      jump\t// in\n    tag_437:\n        /* \"#utility.yul\":13905:13910   */\n      dup4\n        /* \"#utility.yul\":13884:14111   */\n      and\n        /* \"#utility.yul\":13875:14111   */\n      swap3\n      pop\n        /* \"#utility.yul\":13843:14121   */\n    tag_436:\n        /* \"#utility.yul\":13624:14128   */\n      pop\n      pop\n        /* \"#utility.yul\":13534:14128   */\n      swap2\n      swap1\n      pop\n      jump\t// out\n        /* \"#utility.yul\":14134:14213   */\n    tag_255:\n        /* \"#utility.yul\":14173:14180   */\n      0x00\n        /* \"#utility.yul\":14202:14207   */\n      dup2\n        /* \"#utility.yul\":14191:14207   */\n      swap1\n      pop\n        /* \"#utility.yul\":14134:14213   */\n      swap2\n      swap1\n      pop\n      jump\t// out\n        /* \"#utility.yul\":14219:14376   */\n    tag_256:\n        /* \"#utility.yul\":14324:14369   */\n      tag_440\n        /* \"#utility.yul\":14344:14368   */\n      tag_441\n        /* \"#utility.yul\":14362:14367   */\n      dup3\n        /* \"#utility.yul\":14344:14368   */\n      tag_208\n      jump\t// in\n    tag_441:\n        /* \"#utility.yul\":14324:14369   */\n      tag_255\n      jump\t// in\n    tag_440:\n        /* \"#utility.yul\":14319:14322   */\n      dup3\n        /* \"#utility.yul\":14312:14370   */\n      mstore\n        /* \"#utility.yul\":14219:14376   */\n      pop\n      pop\n      jump\t// out\n        /* \"#utility.yul\":14382:14638   */\n    tag_124:\n        /* \"#utility.yul\":14494:14497   */\n      0x00\n        /* \"#utility.yul\":14509:14584   */\n      tag_443\n        /* \"#utility.yul\":14580:14583   */\n      dup3\n        /* \"#utility.yul\":14571:14577   */\n      dup5\n        /* \"#utility.yul\":14509:14584   */\n      tag_256\n      jump\t// in\n    tag_443:\n        /* \"#utility.yul\":14609:14611   */\n      0x20\n        /* \"#utility.yul\":14604:14607   */\n      dup3\n        /* \"#utility.yul\":14600:14612   */\n      add\n        /* \"#utility.yul\":14593:14612   */\n      swap2\n      pop\n        /* \"#utility.yul\":14629:14632   */\n      dup2\n        /* \"#utility.yul\":14622:14632   */\n      swap1\n      pop\n        /* \"#utility.yul\":14382:14638   */\n      swap3\n      swap2\n      pop\n      pop\n      jump\t// out\n        /* \"#utility.yul\":14644:14813   */\n    tag_257:\n        /* \"#utility.yul\":14728:14739   */\n      0x00\n        /* \"#utility.yul\":14762:14768   */\n      dup3\n        /* \"#utility.yul\":14757:14760   */\n      dup3\n        /* \"#utility.yul\":14750:14769   */\n      mstore\n        /* \"#utility.yul\":14802:14806   */\n      0x20\n        /* \"#utility.yul\":14797:14800   */\n      dup3\n        /* \"#utility.yul\":14793:14807   */\n      add\n        /* \"#utility.yul\":14778:14807   */\n      swap1\n      pop\n        /* \"#utility.yul\":14644:14813   */\n      swap3\n      swap2\n      pop\n      pop\n      jump\t// out\n        /* \"#utility.yul\":14819:15044   */\n    tag_258:\n        /* \"#utility.yul\":14959:14993   */\n      0x436f6d6d697452657665616c3a3a72657665616c3a20416c7265616479207265\n        /* \"#utility.yul\":14955:14956   */\n      0x00\n        /* \"#utility.yul\":14947:14953   */\n      dup3\n        /* \"#utility.yul\":14943:14957   */\n      add\n        /* \"#utility.yul\":14936:14994   */\n      mstore\n        /* \"#utility.yul\":15028:15036   */\n      0x7665616c65640000000000000000000000000000000000000000000000000000\n        /* \"#utility.yul\":15023:15025   */\n      0x20\n        /* \"#utility.yul\":15015:15021   */\n      dup3\n        /* \"#utility.yul\":15011:15026   */\n      add\n        /* \"#utility.yul\":15004:15037   */\n      mstore\n        /* \"#utility.yul\":14819:15044   */\n      pop\n      jump\t// out\n        /* \"#utility.yul\":15050:15416   */\n    tag_259:\n        /* \"#utility.yul\":15192:15195   */\n      0x00\n        /* \"#utility.yul\":15213:15280   */\n      tag_447\n        /* \"#utility.yul\":15277:15279   */\n      0x26\n        /* \"#utility.yul\":15272:15275   */\n      dup4\n        /* \"#utility.yul\":15213:15280   */\n      tag_257\n      jump\t// in\n    tag_447:\n        /* \"#utility.yul\":15206:15280   */\n      swap2\n      pop\n        /* \"#utility.yul\":15289:15382   */\n      tag_448\n        /* \"#utility.yul\":15378:15381   */\n      dup3\n        /* \"#utility.yul\":15289:15382   */\n      tag_258\n      jump\t// in\n    tag_448:\n        /* \"#utility.yul\":15407:15409   */\n      0x40\n        /* \"#utility.yul\":15402:15405   */\n      dup3\n        /* \"#utility.yul\":15398:15410   */\n      add\n        /* \"#utility.yul\":15391:15410   */\n      swap1\n      pop\n        /* \"#utility.yul\":15050:15416   */\n      swap2\n      swap1\n      pop\n      jump\t// out\n        /* \"#utility.yul\":15422:15841   */\n    tag_136:\n        /* \"#utility.yul\":15588:15592   */\n      0x00\n        /* \"#utility.yul\":15626:15628   */\n      0x20\n        /* \"#utility.yul\":15615:15624   */\n      dup3\n        /* \"#utility.yul\":15611:15629   */\n      add\n        /* \"#utility.yul\":15603:15629   */\n      swap1\n      pop\n        /* \"#utility.yul\":15675:15684   */\n      dup2\n        /* \"#utility.yul\":15669:15673   */\n      dup2\n        /* \"#utility.yul\":15665:15685   */\n      sub\n        /* \"#utility.yul\":15661:15662   */\n      0x00\n        /* \"#utility.yul\":15650:15659   */\n      dup4\n        /* \"#utility.yul\":15646:15663   */\n      add\n        /* \"#utility.yul\":15639:15686   */\n      mstore\n        /* \"#utility.yul\":15703:15834   */\n      tag_450\n        /* \"#utility.yul\":15829:15833   */\n      dup2\n        /* \"#utility.yul\":15703:15834   */\n      tag_259\n      jump\t// in\n    tag_450:\n        /* \"#utility.yul\":15695:15834   */\n      swap1\n      pop\n        /* \"#utility.yul\":15422:15841   */\n      swap2\n      swap1\n      pop\n      jump\t// out\n        /* \"#utility.yul\":15847:16091   */\n    tag_260:\n        /* \"#utility.yul\":15987:16021   */\n      0x436f6d6d697452657665616c3a3a72657665616c3a2052657665616c65642068\n        /* \"#utility.yul\":15983:15984   */\n      0x00\n        /* \"#utility.yul\":15975:15981   */\n      dup3\n        /* \"#utility.yul\":15971:15985   */\n      add\n        /* \"#utility.yul\":15964:16022   */\n      mstore\n        /* \"#utility.yul\":16056:16083   */\n      0x61736820646f6573206e6f74206d6174636820636f6d6d697400000000000000\n        /* \"#utility.yul\":16051:16053   */\n      0x20\n        /* \"#utility.yul\":16043:16049   */\n      dup3\n        /* \"#utility.yul\":16039:16054   */\n      add\n        /* \"#utility.yul\":16032:16084   */\n      mstore\n        /* \"#utility.yul\":15847:16091   */\n      pop\n      jump\t// out\n        /* \"#utility.yul\":16097:16463   */\n    tag_261:\n        /* \"#utility.yul\":16239:16242   */\n      0x00\n        /* \"#utility.yul\":16260:16327   */\n      tag_453\n        /* \"#utility.yul\":16324:16326   */\n      0x39\n        /* \"#utility.yul\":16319:16322   */\n      dup4\n        /* \"#utility.yul\":16260:16327   */\n      tag_257\n      jump\t// in\n    tag_453:\n        /* \"#utility.yul\":16253:16327   */\n      swap2\n      pop\n        /* \"#utility.yul\":16336:16429   */\n      tag_454\n        /* \"#utility.yul\":16425:16428   */\n      dup3\n        /* \"#utility.yul\":16336:16429   */\n      tag_260\n      jump\t// in\n    tag_454:\n        /* \"#utility.yul\":16454:16456   */\n      0x40\n        /* \"#utility.yul\":16449:16452   */\n      dup3\n        /* \"#utility.yul\":16445:16457   */\n      add\n        /* \"#utility.yul\":16438:16457   */\n      swap1\n      pop\n        /* \"#utility.yul\":16097:16463   */\n      swap2\n      swap1\n      pop\n      jump\t// out\n        /* \"#utility.yul\":16469:16888   */\n    tag_140:\n        /* \"#utility.yul\":16635:16639   */\n      0x00\n        /* \"#utility.yul\":16673:16675   */\n      0x20\n        /* \"#utility.yul\":16662:16671   */\n      dup3\n        /* \"#utility.yul\":16658:16676   */\n      add\n        /* \"#utility.yul\":16650:16676   */\n      swap1\n      pop\n        /* \"#utility.yul\":16722:16731   */\n      dup2\n        /* \"#utility.yul\":16716:16720   */\n      dup2\n        /* \"#utility.yul\":16712:16732   */\n      sub\n        /* \"#utility.yul\":16708:16709   */\n      0x00\n        /* \"#utility.yul\":16697:16706   */\n      dup4\n        /* \"#utility.yul\":16693:16710   */\n      add\n        /* \"#utility.yul\":16686:16733   */\n      mstore\n        /* \"#utility.yul\":16750:16881   */\n      tag_456\n        /* \"#utility.yul\":16876:16880   */\n      dup2\n        /* \"#utility.yul\":16750:16881   */\n      tag_261\n      jump\t// in\n    tag_456:\n        /* \"#utility.yul\":16742:16881   */\n      swap1\n      pop\n        /* \"#utility.yul\":16469:16888   */\n      swap2\n      swap1\n      pop\n      jump\t// out\n        /* \"#utility.yul\":16894:17184   */\n    tag_262:\n        /* \"#utility.yul\":17034:17068   */\n      0x436f6d6d697452657665616c3a3a72657665616c3a2052657665616c20616e64\n        /* \"#utility.yul\":17030:17031   */\n      0x00\n        /* \"#utility.yul\":17022:17028   */\n      dup3\n        /* \"#utility.yul\":17018:17032   */\n      add\n        /* \"#utility.yul\":17011:17069   */\n      mstore\n        /* \"#utility.yul\":17103:17137   */\n      0x20636f6d6d69742068617070656e6564206f6e207468652073616d6520626c6f\n        /* \"#utility.yul\":17098:17100   */\n      0x20\n        /* \"#utility.yul\":17090:17096   */\n      dup3\n        /* \"#utility.yul\":17086:17101   */\n      add\n        /* \"#utility.yul\":17079:17138   */\n      mstore\n        /* \"#utility.yul\":17172:17176   */\n      0x636b000000000000000000000000000000000000000000000000000000000000\n        /* \"#utility.yul\":17167:17169   */\n      0x40\n        /* \"#utility.yul\":17159:17165   */\n      dup3\n        /* \"#utility.yul\":17155:17170   */\n      add\n        /* \"#utility.yul\":17148:17177   */\n      mstore\n        /* \"#utility.yul\":16894:17184   */\n      pop\n      jump\t// out\n        /* \"#utility.yul\":17190:17556   */\n    tag_263:\n        /* \"#utility.yul\":17332:17335   */\n      0x00\n        /* \"#utility.yul\":17353:17420   */\n      tag_459\n        /* \"#utility.yul\":17417:17419   */\n      0x42\n        /* \"#utility.yul\":17412:17415   */\n      dup4\n        /* \"#utility.yul\":17353:17420   */\n      tag_257\n      jump\t// in\n    tag_459:\n        /* \"#utility.yul\":17346:17420   */\n      swap2\n      pop\n        /* \"#utility.yul\":17429:17522   */\n      tag_460\n        /* \"#utility.yul\":17518:17521   */\n      dup3\n        /* \"#utility.yul\":17429:17522   */\n      tag_262\n      jump\t// in\n    tag_460:\n        /* \"#utility.yul\":17547:17549   */\n      0x60\n        /* \"#utility.yul\":17542:17545   */\n      dup3\n        /* \"#utility.yul\":17538:17550   */\n      add\n        /* \"#utility.yul\":17531:17550   */\n      swap1\n      pop\n        /* \"#utility.yul\":17190:17556   */\n      swap2\n      swap1\n      pop\n      jump\t// out\n        /* \"#utility.yul\":17562:17981   */\n    tag_143:\n        /* \"#utility.yul\":17728:17732   */\n      0x00\n        /* \"#utility.yul\":17766:17768   */\n      0x20\n        /* \"#utility.yul\":17755:17764   */\n      dup3\n        /* \"#utility.yul\":17751:17769   */\n      add\n        /* \"#utility.yul\":17743:17769   */\n      swap1\n      pop\n        /* \"#utility.yul\":17815:17824   */\n      dup2\n        /* \"#utility.yul\":17809:17813   */\n      dup2\n        /* \"#utility.yul\":17805:17825   */\n      sub\n        /* \"#utility.yul\":17801:17802   */\n      0x00\n        /* \"#utility.yul\":17790:17799   */\n      dup4\n        /* \"#utility.yul\":17786:17803   */\n      add\n        /* \"#utility.yul\":17779:17826   */\n      mstore\n        /* \"#utility.yul\":17843:17974   */\n      tag_462\n        /* \"#utility.yul\":17969:17973   */\n      dup2\n        /* \"#utility.yul\":17843:17974   */\n      tag_263\n      jump\t// in\n    tag_462:\n        /* \"#utility.yul\":17835:17974   */\n      swap1\n      pop\n        /* \"#utility.yul\":17562:17981   */\n      swap2\n      swap1\n      pop\n      jump\t// out\n        /* \"#utility.yul\":17987:18192   */\n    tag_145:\n        /* \"#utility.yul\":18026:18029   */\n      0x00\n        /* \"#utility.yul\":18045:18064   */\n      tag_464\n        /* \"#utility.yul\":18062:18063   */\n      dup3\n        /* \"#utility.yul\":18045:18064   */\n      tag_235\n      jump\t// in\n    tag_464:\n        /* \"#utility.yul\":18040:18064   */\n      swap2\n      pop\n        /* \"#utility.yul\":18078:18097   */\n      tag_465\n        /* \"#utility.yul\":18095:18096   */\n      dup4\n        /* \"#utility.yul\":18078:18097   */\n      tag_235\n      jump\t// in\n    tag_465:\n        /* \"#utility.yul\":18073:18097   */\n      swap3\n      pop\n        /* \"#utility.yul\":18120:18121   */\n      dup3\n        /* \"#utility.yul\":18117:18118   */\n      dup3\n        /* \"#utility.yul\":18113:18122   */\n      add\n        /* \"#utility.yul\":18106:18122   */\n      swap1\n      pop\n        /* \"#utility.yul\":18143:18161   */\n      0xffffffffffffffff\n        /* \"#utility.yul\":18138:18141   */\n      dup2\n        /* \"#utility.yul\":18135:18162   */\n      gt\n        /* \"#utility.yul\":18132:18185   */\n      iszero\n      tag_466\n      jumpi\n        /* \"#utility.yul\":18165:18183   */\n      tag_467\n      tag_240\n      jump\t// in\n    tag_467:\n        /* \"#utility.yul\":18132:18185   */\n    tag_466:\n        /* \"#utility.yul\":17987:18192   */\n      swap3\n      swap2\n      pop\n      pop\n      jump\t// out\n        /* \"#utility.yul\":18198:18424   */\n    tag_264:\n        /* \"#utility.yul\":18338:18372   */\n      0x436f6d6d697452657665616c3a3a72657665616c3a2052657665616c65642074\n        /* \"#utility.yul\":18334:18335   */\n      0x00\n        /* \"#utility.yul\":18326:18332   */\n      dup3\n        /* \"#utility.yul\":18322:18336   */\n      add\n        /* \"#utility.yul\":18315:18373   */\n      mstore\n        /* \"#utility.yul\":18407:18416   */\n      0x6f6f206c61746500000000000000000000000000000000000000000000000000\n        /* \"#utility.yul\":18402:18404   */\n      0x20\n        /* \"#utility.yul\":18394:18400   */\n      dup3\n        /* \"#utility.yul\":18390:18405   */\n      add\n        /* \"#utility.yul\":18383:18417   */\n      mstore\n        /* \"#utility.yul\":18198:18424   */\n      pop\n      jump\t// out\n        /* \"#utility.yul\":18430:18796   */\n    tag_265:\n        /* \"#utility.yul\":18572:18575   */\n      0x00\n        /* \"#utility.yul\":18593:18660   */\n      tag_470\n        /* \"#utility.yul\":18657:18659   */\n      0x27\n        /* \"#utility.yul\":18652:18655   */\n      dup4\n        /* \"#utility.yul\":18593:18660   */\n      tag_257\n      jump\t// in\n    tag_470:\n        /* \"#utility.yul\":18586:18660   */\n      swap2\n      pop\n        /* \"#utility.yul\":18669:18762   */\n      tag_471\n        /* \"#utility.yul\":18758:18761   */\n      dup3\n        /* \"#utility.yul\":18669:18762   */\n      tag_264\n      jump\t// in\n    tag_471:\n        /* \"#utility.yul\":18787:18789   */\n      0x40\n        /* \"#utility.yul\":18782:18785   */\n      dup3\n        /* \"#utility.yul\":18778:18790   */\n      add\n        /* \"#utility.yul\":18771:18790   */\n      swap1\n      pop\n        /* \"#utility.yul\":18430:18796   */\n      swap2\n      swap1\n      pop\n      jump\t// out\n        /* \"#utility.yul\":18802:19221   */\n    tag_148:\n        /* \"#utility.yul\":18968:18972   */\n      0x00\n        /* \"#utility.yul\":19006:19008   */\n      0x20\n        /* \"#utility.yul\":18995:19004   */\n      dup3\n        /* \"#utility.yul\":18991:19009   */\n      add\n        /* \"#utility.yul\":18983:19009   */\n      swap1\n      pop\n        /* \"#utility.yul\":19055:19064   */\n      dup2\n        /* \"#utility.yul\":19049:19053   */\n      dup2\n        /* \"#utility.yul\":19045:19065   */\n      sub\n        /* \"#utility.yul\":19041:19042   */\n      0x00\n        /* \"#utility.yul\":19030:19039   */\n      dup4\n        /* \"#utility.yul\":19026:19043   */\n      add\n        /* \"#utility.yul\":19019:19066   */\n      mstore\n        /* \"#utility.yul\":19083:19214   */\n      tag_473\n        /* \"#utility.yul\":19209:19213   */\n      dup2\n        /* \"#utility.yul\":19083:19214   */\n      tag_265\n      jump\t// in\n    tag_473:\n        /* \"#utility.yul\":19075:19214   */\n      swap1\n      pop\n        /* \"#utility.yul\":18802:19221   */\n      swap2\n      swap1\n      pop\n      jump\t// out\n        /* \"#utility.yul\":19227:19624   */\n    tag_150:\n        /* \"#utility.yul\":19367:19370   */\n      0x00\n        /* \"#utility.yul\":19382:19457   */\n      tag_475\n        /* \"#utility.yul\":19453:19456   */\n      dup3\n        /* \"#utility.yul\":19444:19450   */\n      dup6\n        /* \"#utility.yul\":19382:19457   */\n      tag_246\n      jump\t// in\n    tag_475:\n        /* \"#utility.yul\":19482:19484   */\n      0x20\n        /* \"#utility.yul\":19477:19480   */\n      dup3\n        /* \"#utility.yul\":19473:19485   */\n      add\n        /* \"#utility.yul\":19466:19485   */\n      swap2\n      pop\n        /* \"#utility.yul\":19495:19570   */\n      tag_476\n        /* \"#utility.yul\":19566:19569   */\n      dup3\n        /* \"#utility.yul\":19557:19563   */\n      dup5\n        /* \"#utility.yul\":19495:19570   */\n      tag_246\n      jump\t// in\n    tag_476:\n        /* \"#utility.yul\":19595:19597   */\n      0x20\n        /* \"#utility.yul\":19590:19593   */\n      dup3\n        /* \"#utility.yul\":19586:19598   */\n      add\n        /* \"#utility.yul\":19579:19598   */\n      swap2\n      pop\n        /* \"#utility.yul\":19615:19618   */\n      dup2\n        /* \"#utility.yul\":19608:19618   */\n      swap1\n      pop\n        /* \"#utility.yul\":19227:19624   */\n      swap4\n      swap3\n      pop\n      pop\n      pop\n      jump\t// out\n        /* \"#utility.yul\":19630:19810   */\n    tag_266:\n        /* \"#utility.yul\":19678:19755   */\n      0x4e487b7100000000000000000000000000000000000000000000000000000000\n        /* \"#utility.yul\":19675:19676   */\n      0x00\n        /* \"#utility.yul\":19668:19756   */\n      mstore\n        /* \"#utility.yul\":19775:19779   */\n      0x12\n        /* \"#utility.yul\":19772:19773   */\n      0x04\n        /* \"#utility.yul\":19765:19780   */\n      mstore\n        /* \"#utility.yul\":19799:19803   */\n      0x24\n        /* \"#utility.yul\":19796:19797   */\n      0x00\n        /* \"#utility.yul\":19789:19804   */\n      revert\n        /* \"#utility.yul\":19816:19992   */\n    tag_152:\n        /* \"#utility.yul\":19848:19849   */\n      0x00\n        /* \"#utility.yul\":19865:19885   */\n      tag_479\n        /* \"#utility.yul\":19883:19884   */\n      dup3\n        /* \"#utility.yul\":19865:19885   */\n      tag_208\n      jump\t// in\n    tag_479:\n        /* \"#utility.yul\":19860:19885   */\n      swap2\n      pop\n        /* \"#utility.yul\":19899:19919   */\n      tag_480\n        /* \"#utility.yul\":19917:19918   */\n      dup4\n        /* \"#utility.yul\":19899:19919   */\n      tag_208\n      jump\t// in\n    tag_480:\n        /* \"#utility.yul\":19894:19919   */\n      swap3\n      pop\n        /* \"#utility.yul\":19938:19939   */\n      dup3\n        /* \"#utility.yul\":19928:19963   */\n      tag_481\n      jumpi\n        /* \"#utility.yul\":19943:19961   */\n      tag_482\n      tag_266\n      jump\t// in\n    tag_482:\n        /* \"#utility.yul\":19928:19963   */\n    tag_481:\n        /* \"#utility.yul\":19984:19985   */\n      dup3\n        /* \"#utility.yul\":19981:19982   */\n      dup3\n        /* \"#utility.yul\":19977:19986   */\n      mod\n        /* \"#utility.yul\":19972:19986   */\n      swap1\n      pop\n        /* \"#utility.yul\":19816:19992   */\n      swap3\n      swap2\n      pop\n      pop\n      jump\t// out\n        /* \"#utility.yul\":19998:20440   */\n    tag_154:\n        /* \"#utility.yul\":20147:20151   */\n      0x00\n        /* \"#utility.yul\":20185:20187   */\n      0x60\n        /* \"#utility.yul\":20174:20183   */\n      dup3\n        /* \"#utility.yul\":20170:20188   */\n      add\n        /* \"#utility.yul\":20162:20188   */\n      swap1\n      pop\n        /* \"#utility.yul\":20198:20269   */\n      tag_484\n        /* \"#utility.yul\":20266:20267   */\n      0x00\n        /* \"#utility.yul\":20255:20264   */\n      dup4\n        /* \"#utility.yul\":20251:20268   */\n      add\n        /* \"#utility.yul\":20242:20248   */\n      dup7\n        /* \"#utility.yul\":20198:20269   */\n      tag_239\n      jump\t// in\n    tag_484:\n        /* \"#utility.yul\":20279:20351   */\n      tag_485\n        /* \"#utility.yul\":20347:20349   */\n      0x20\n        /* \"#utility.yul\":20336:20345   */\n      dup4\n        /* \"#utility.yul\":20332:20350   */\n      add\n        /* \"#utility.yul\":20323:20329   */\n      dup6\n        /* \"#utility.yul\":20279:20351   */\n      tag_216\n      jump\t// in\n    tag_485:\n        /* \"#utility.yul\":20361:20433   */\n      tag_486\n        /* \"#utility.yul\":20429:20431   */\n      0x40\n        /* \"#utility.yul\":20418:20427   */\n      dup4\n        /* \"#utility.yul\":20414:20432   */\n      add\n        /* \"#utility.yul\":20405:20411   */\n      dup5\n        /* \"#utility.yul\":20361:20433   */\n      tag_209\n      jump\t// in\n    tag_486:\n        /* \"#utility.yul\":19998:20440   */\n      swap5\n      swap4\n      pop\n      pop\n      pop\n      pop\n      jump\t// out\n        /* \"#utility.yul\":20446:20984   */\n    tag_157:\n        /* \"#utility.yul\":20614:20617   */\n      0x00\n        /* \"#utility.yul\":20629:20704   */\n      tag_488\n        /* \"#utility.yul\":20700:20703   */\n      dup3\n        /* \"#utility.yul\":20691:20697   */\n      dup7\n        /* \"#utility.yul\":20629:20704   */\n      tag_244\n      jump\t// in\n    tag_488:\n        /* \"#utility.yul\":20729:20731   */\n      0x14\n        /* \"#utility.yul\":20724:20727   */\n      dup3\n        /* \"#utility.yul\":20720:20732   */\n      add\n        /* \"#utility.yul\":20713:20732   */\n      swap2\n      pop\n        /* \"#utility.yul\":20742:20817   */\n      tag_489\n        /* \"#utility.yul\":20813:20816   */\n      dup3\n        /* \"#utility.yul\":20804:20810   */\n      dup6\n        /* \"#utility.yul\":20742:20817   */\n      tag_246\n      jump\t// in\n    tag_489:\n        /* \"#utility.yul\":20842:20844   */\n      0x20\n        /* \"#utility.yul\":20837:20840   */\n      dup3\n        /* \"#utility.yul\":20833:20845   */\n      add\n        /* \"#utility.yul\":20826:20845   */\n      swap2\n      pop\n        /* \"#utility.yul\":20855:20930   */\n      tag_490\n        /* \"#utility.yul\":20926:20929   */\n      dup3\n        /* \"#utility.yul\":20917:20923   */\n      dup5\n        /* \"#utility.yul\":20855:20930   */\n      tag_246\n      jump\t// in\n    tag_490:\n        /* \"#utility.yul\":20955:20957   */\n      0x20\n        /* \"#utility.yul\":20950:20953   */\n      dup3\n        /* \"#utility.yul\":20946:20958   */\n      add\n        /* \"#utility.yul\":20939:20958   */\n      swap2\n      pop\n        /* \"#utility.yul\":20975:20978   */\n      dup2\n        /* \"#utility.yul\":20968:20978   */\n      swap1\n      pop\n        /* \"#utility.yul\":20446:20984   */\n      swap5\n      swap4\n      pop\n      pop\n      pop\n      pop\n      jump\t// out\n        /* \"#utility.yul\":20990:21221   */\n    tag_267:\n        /* \"#utility.yul\":21130:21164   */\n      0x436f6d6d697452657665616c3a3a72657665616c416e737765723a20416c7265\n        /* \"#utility.yul\":21126:21127   */\n      0x00\n        /* \"#utility.yul\":21118:21124   */\n      dup3\n        /* \"#utility.yul\":21114:21128   */\n      add\n        /* \"#utility.yul\":21107:21165   */\n      mstore\n        /* \"#utility.yul\":21199:21213   */\n      0x6164792072657665616c65640000000000000000000000000000000000000000\n        /* \"#utility.yul\":21194:21196   */\n      0x20\n        /* \"#utility.yul\":21186:21192   */\n      dup3\n        /* \"#utility.yul\":21182:21197   */\n      add\n        /* \"#utility.yul\":21175:21214   */\n      mstore\n        /* \"#utility.yul\":20990:21221   */\n      pop\n      jump\t// out\n        /* \"#utility.yul\":21227:21593   */\n    tag_268:\n        /* \"#utility.yul\":21369:21372   */\n      0x00\n        /* \"#utility.yul\":21390:21457   */\n      tag_493\n        /* \"#utility.yul\":21454:21456   */\n      0x2c\n        /* \"#utility.yul\":21449:21452   */\n      dup4\n        /* \"#utility.yul\":21390:21457   */\n      tag_257\n      jump\t// in\n    tag_493:\n        /* \"#utility.yul\":21383:21457   */\n      swap2\n      pop\n        /* \"#utility.yul\":21466:21559   */\n      tag_494\n        /* \"#utility.yul\":21555:21558   */\n      dup3\n        /* \"#utility.yul\":21466:21559   */\n      tag_267\n      jump\t// in\n    tag_494:\n        /* \"#utility.yul\":21584:21586   */\n      0x40\n        /* \"#utility.yul\":21579:21582   */\n      dup3\n        /* \"#utility.yul\":21575:21587   */\n      add\n        /* \"#utility.yul\":21568:21587   */\n      swap1\n      pop\n        /* \"#utility.yul\":21227:21593   */\n      swap2\n      swap1\n      pop\n      jump\t// out\n        /* \"#utility.yul\":21599:22018   */\n    tag_177:\n        /* \"#utility.yul\":21765:21769   */\n      0x00\n        /* \"#utility.yul\":21803:21805   */\n      0x20\n        /* \"#utility.yul\":21792:21801   */\n      dup3\n        /* \"#utility.yul\":21788:21806   */\n      add\n        /* \"#utility.yul\":21780:21806   */\n      swap1\n      pop\n        /* \"#utility.yul\":21852:21861   */\n      dup2\n        /* \"#utility.yul\":21846:21850   */\n      dup2\n        /* \"#utility.yul\":21842:21862   */\n      sub\n        /* \"#utility.yul\":21838:21839   */\n      0x00\n        /* \"#utility.yul\":21827:21836   */\n      dup4\n        /* \"#utility.yul\":21823:21840   */\n      add\n        /* \"#utility.yul\":21816:21863   */\n      mstore\n        /* \"#utility.yul\":21880:22011   */\n      tag_496\n        /* \"#utility.yul\":22006:22010   */\n      dup2\n        /* \"#utility.yul\":21880:22011   */\n      tag_268\n      jump\t// in\n    tag_496:\n        /* \"#utility.yul\":21872:22011   */\n      swap1\n      pop\n        /* \"#utility.yul\":21599:22018   */\n      swap2\n      swap1\n      pop\n      jump\t// out\n        /* \"#utility.yul\":22024:22274   */\n    tag_269:\n        /* \"#utility.yul\":22164:22198   */\n      0x436f6d6d697452657665616c3a3a72657665616c416e737765723a2052657665\n        /* \"#utility.yul\":22160:22161   */\n      0x00\n        /* \"#utility.yul\":22152:22158   */\n      dup3\n        /* \"#utility.yul\":22148:22162   */\n      add\n        /* \"#utility.yul\":22141:22199   */\n      mstore\n        /* \"#utility.yul\":22233:22266   */\n      0x616c6564206861736820646f6573206e6f74206d6174636820636f6d6d697400\n        /* \"#utility.yul\":22228:22230   */\n      0x20\n        /* \"#utility.yul\":22220:22226   */\n      dup3\n        /* \"#utility.yul\":22216:22231   */\n      add\n        /* \"#utility.yul\":22209:22267   */\n      mstore\n        /* \"#utility.yul\":22024:22274   */\n      pop\n      jump\t// out\n        /* \"#utility.yul\":22280:22646   */\n    tag_270:\n        /* \"#utility.yul\":22422:22425   */\n      0x00\n        /* \"#utility.yul\":22443:22510   */\n      tag_499\n        /* \"#utility.yul\":22507:22509   */\n      0x3f\n        /* \"#utility.yul\":22502:22505   */\n      dup4\n        /* \"#utility.yul\":22443:22510   */\n      tag_257\n      jump\t// in\n    tag_499:\n        /* \"#utility.yul\":22436:22510   */\n      swap2\n      pop\n        /* \"#utility.yul\":22519:22612   */\n      tag_500\n        /* \"#utility.yul\":22608:22611   */\n      dup3\n        /* \"#utility.yul\":22519:22612   */\n      tag_269\n      jump\t// in\n    tag_500:\n        /* \"#utility.yul\":22637:22639   */\n      0x40\n        /* \"#utility.yul\":22632:22635   */\n      dup3\n        /* \"#utility.yul\":22628:22640   */\n      add\n        /* \"#utility.yul\":22621:22640   */\n      swap1\n      pop\n        /* \"#utility.yul\":22280:22646   */\n      swap2\n      swap1\n      pop\n      jump\t// out\n        /* \"#utility.yul\":22652:23071   */\n    tag_181:\n        /* \"#utility.yul\":22818:22822   */\n      0x00\n        /* \"#utility.yul\":22856:22858   */\n      0x20\n        /* \"#utility.yul\":22845:22854   */\n      dup3\n        /* \"#utility.yul\":22841:22859   */\n      add\n        /* \"#utility.yul\":22833:22859   */\n      swap1\n      pop\n        /* \"#utility.yul\":22905:22914   */\n      dup2\n        /* \"#utility.yul\":22899:22903   */\n      dup2\n        /* \"#utility.yul\":22895:22915   */\n      sub\n        /* \"#utility.yul\":22891:22892   */\n      0x00\n        /* \"#utility.yul\":22880:22889   */\n      dup4\n        /* \"#utility.yul\":22876:22893   */\n      add\n        /* \"#utility.yul\":22869:22916   */\n      mstore\n        /* \"#utility.yul\":22933:23064   */\n      tag_502\n        /* \"#utility.yul\":23059:23063   */\n      dup2\n        /* \"#utility.yul\":22933:23064   */\n      tag_270\n      jump\t// in\n    tag_502:\n        /* \"#utility.yul\":22925:23064   */\n      swap1\n      pop\n        /* \"#utility.yul\":22652:23071   */\n      swap2\n      swap1\n      pop\n      jump\t// out\n        /* \"#utility.yul\":23077:23519   */\n    tag_183:\n        /* \"#utility.yul\":23226:23230   */\n      0x00\n        /* \"#utility.yul\":23264:23266   */\n      0x60\n        /* \"#utility.yul\":23253:23262   */\n      dup3\n        /* \"#utility.yul\":23249:23267   */\n      add\n        /* \"#utility.yul\":23241:23267   */\n      swap1\n      pop\n        /* \"#utility.yul\":23277:23348   */\n      tag_504\n        /* \"#utility.yul\":23345:23346   */\n      0x00\n        /* \"#utility.yul\":23334:23343   */\n      dup4\n        /* \"#utility.yul\":23330:23347   */\n      add\n        /* \"#utility.yul\":23321:23327   */\n      dup7\n        /* \"#utility.yul\":23277:23348   */\n      tag_239\n      jump\t// in\n    tag_504:\n        /* \"#utility.yul\":23358:23430   */\n      tag_505\n        /* \"#utility.yul\":23426:23428   */\n      0x20\n        /* \"#utility.yul\":23415:23424   */\n      dup4\n        /* \"#utility.yul\":23411:23429   */\n      add\n        /* \"#utility.yul\":23402:23408   */\n      dup6\n        /* \"#utility.yul\":23358:23430   */\n      tag_216\n      jump\t// in\n    tag_505:\n        /* \"#utility.yul\":23440:23512   */\n      tag_506\n        /* \"#utility.yul\":23508:23510   */\n      0x40\n        /* \"#utility.yul\":23497:23506   */\n      dup4\n        /* \"#utility.yul\":23493:23511   */\n      add\n        /* \"#utility.yul\":23484:23490   */\n      dup5\n        /* \"#utility.yul\":23440:23512   */\n      tag_216\n      jump\t// in\n    tag_506:\n        /* \"#utility.yul\":23077:23519   */\n      swap5\n      swap4\n      pop\n      pop\n      pop\n      pop\n      jump\t// out\n        /* \"#utility.yul\":23525:23963   */\n    tag_186:\n        /* \"#utility.yul\":23672:23676   */\n      0x00\n        /* \"#utility.yul\":23710:23712   */\n      0x60\n        /* \"#utility.yul\":23699:23708   */\n      dup3\n        /* \"#utility.yul\":23695:23713   */\n      add\n        /* \"#utility.yul\":23687:23713   */\n      swap1\n      pop\n        /* \"#utility.yul\":23723:23794   */\n      tag_508\n        /* \"#utility.yul\":23791:23792   */\n      0x00\n        /* \"#utility.yul\":23780:23789   */\n      dup4\n        /* \"#utility.yul\":23776:23793   */\n      add\n        /* \"#utility.yul\":23767:23773   */\n      dup7\n        /* \"#utility.yul\":23723:23794   */\n      tag_239\n      jump\t// in\n    tag_508:\n        /* \"#utility.yul\":23804:23876   */\n      tag_509\n        /* \"#utility.yul\":23872:23874   */\n      0x20\n        /* \"#utility.yul\":23861:23870   */\n      dup4\n        /* \"#utility.yul\":23857:23875   */\n      add\n        /* \"#utility.yul\":23848:23854   */\n      dup6\n        /* \"#utility.yul\":23804:23876   */\n      tag_216\n      jump\t// in\n    tag_509:\n        /* \"#utility.yul\":23886:23956   */\n      tag_510\n        /* \"#utility.yul\":23952:23954   */\n      0x40\n        /* \"#utility.yul\":23941:23950   */\n      dup4\n        /* \"#utility.yul\":23937:23955   */\n      add\n        /* \"#utility.yul\":23928:23934   */\n      dup5\n        /* \"#utility.yul\":23886:23956   */\n      tag_236\n      jump\t// in\n    tag_510:\n        /* \"#utility.yul\":23525:23963   */\n      swap5\n      swap4\n      pop\n      pop\n      pop\n      pop\n      jump\t// out\n        /* \"#utility.yul\":23969:24154   */\n    tag_201:\n        /* \"#utility.yul\":24009:24010   */\n      0x00\n        /* \"#utility.yul\":24026:24046   */\n      tag_512\n        /* \"#utility.yul\":24044:24045   */\n      dup3\n        /* \"#utility.yul\":24026:24046   */\n      tag_208\n      jump\t// in\n    tag_512:\n        /* \"#utility.yul\":24021:24046   */\n      swap2\n      pop\n        /* \"#utility.yul\":24060:24080   */\n      tag_513\n        /* \"#utility.yul\":24078:24079   */\n      dup4\n        /* \"#utility.yul\":24060:24080   */\n      tag_208\n      jump\t// in\n    tag_513:\n        /* \"#utility.yul\":24055:24080   */\n      swap3\n      pop\n        /* \"#utility.yul\":24099:24100   */\n      dup3\n        /* \"#utility.yul\":24089:24124   */\n      tag_514\n      jumpi\n        /* \"#utility.yul\":24104:24122   */\n      tag_515\n      tag_266\n      jump\t// in\n    tag_515:\n        /* \"#utility.yul\":24089:24124   */\n    tag_514:\n        /* \"#utility.yul\":24146:24147   */\n      dup3\n        /* \"#utility.yul\":24143:24144   */\n      dup3\n        /* \"#utility.yul\":24139:24148   */\n      div\n        /* \"#utility.yul\":24134:24148   */\n      swap1\n      pop\n        /* \"#utility.yul\":23969:24154   */\n      swap3\n      swap2\n      pop\n      pop\n      jump\t// out\n\n    auxdata: 0xa2646970667358221220cd00a02521ce50075cf76f29940c8dddd6b0f410067cae5df44f96b34948af8664736f6c63430008180033\n}\n",
				"bytecode": {
					"linkReferences": {},
					"object": "608060405260645f806101000a81548160ff021916908360ff1602179055505f6002555f6003555f6005555f600655348015610039575f80fd5b50612031806100475f395ff3fe6080604052600436106100f2575f3560e01c80638dddbf3611610089578063d09a0a3b11610058578063d09a0a3b14610316578063d1adbd7214610352578063de8e90331461037a578063f14fcbc8146103a2576100f2565b80638dddbf361461024857806390d5d0c3146102845780639e0551c6146102ae578063c876e615146102ec576100f2565b80635afa1fd8116100c55780635afa1fd8146101905780636ac5db19146101b8578063701fd0f1146101e25780637b43a8e61461020a576100f2565b8063086f7815146100f6578063228cb7331461012057806327b5db8a1461014a5780633cf5040a14610154575b5f80fd5b348015610101575f80fd5b5061010a6103ca565b60405161011791906112f9565b60405180910390f35b34801561012b575f80fd5b506101346103d0565b60405161014191906112f9565b60405180910390f35b6101526103d6565b005b34801561015f575f80fd5b5061017a60048036038101906101759190611356565b6104ff565b6040516101879190611390565b60405180910390f35b34801561019b575f80fd5b506101b660048036038101906101b1919061150f565b610530565b005b3480156101c3575f80fd5b506101cc6106b2565b6040516101d99190611596565b60405180910390f35b3480156101ed575f80fd5b5061020860048036038101906102039190611356565b6106c2565b005b348015610215575f80fd5b50610230600480360381019061022b9190611609565b610a80565b60405161023f93929190611670565b60405180910390f35b348015610253575f80fd5b5061026e600480360381019061026991906116a5565b610ac6565b60405161027b9190611390565b60405180910390f35b34801561028f575f80fd5b50610298610afa565b6040516102a591906112f9565b60405180910390f35b3480156102b9575f80fd5b506102d460048036038101906102cf91906116e3565b610b00565b6040516102e39392919061171d565b60405180910390f35b3480156102f7575f80fd5b50610300610b52565b60405161030d91906112f9565b60405180910390f35b348015610321575f80fd5b5061033c60048036038101906103379190611752565b610b58565b6040516103499190611390565b60405180910390f35b34801561035d575f80fd5b50610378600480360381019061037391906117ac565b610bde565b005b348015610385575f80fd5b506103a0600480360381019061039b91906116a5565b610d1f565b005b3480156103ad575f80fd5b506103c860048036038101906103c39190611356565b610ed3565b005b60055481565b60035481565b60028054106103e3575f80fd5b670de0b6b3a764000034146103f6575f80fd5b3460035f8282546104079190611817565b925050819055503360045f60025481526020019081526020015f206001015f6101000a81548173ffffffffffffffffffffffffffffffffffffffff021916908373ffffffffffffffffffffffffffffffffffffffff160217905550600360045f60025481526020019081526020015f205f01819055505f60045f60025481526020019081526020015f2060010160146101000a81548160ff02191690831515021790555060025f8154809291906104bd9061184a565b91905055507f313f9ebdca9d25ee9456dd69022e3324975c8261b7a8b134881905d3b6964d3c336002546040516104f5929190611891565b60405180910390a1565b5f308260405160200161051392919061191d565b604051602081830303815290604052805190602001209050919050565b600280541461053d575f80fd5b60026005541461054b575f80fd5b60045f8381526020019081526020015f206001015f9054906101000a900473ffffffffffffffffffffffffffffffffffffffff1673ffffffffffffffffffffffffffffffffffffffff163373ffffffffffffffffffffffffffffffffffffffff16146105b5575f80fd5b5f83101580156105c6575060038311155b6105ce575f80fd5b6001151560045f8481526020019081526020015f2060010160149054906101000a900460ff161515146105ff575f80fd5b5f8160405160200161061191906119b4565b60405160208183030381529060405261062990611a03565b90505f8460405160200161063d9190611a89565b60405160208183030381529060405261065590611a03565b90506106618183610d1f565b8460045f8681526020019081526020015f205f018190555060065f81548092919061068b9061184a565b91905055506002600654036106ab576106a26110a5565b6106aa6112c3565b5b5050505050565b5f8054906101000a900460ff1681565b5f151560015f3373ffffffffffffffffffffffffffffffffffffffff1673ffffffffffffffffffffffffffffffffffffffff1681526020019081526020015f2060010160089054906101000a900460ff16151514610755576040517f08c379a000000000000000000000000000000000000000000000000000000000815260040161074c90611b23565b60405180910390fd5b6001805f3373ffffffffffffffffffffffffffffffffffffffff1673ffffffffffffffffffffffffffffffffffffffff1681526020019081526020015f2060010160086101000a81548160ff02191690831515021790555060015f3373ffffffffffffffffffffffffffffffffffffffff1673ffffffffffffffffffffffffffffffffffffffff1681526020019081526020015f205f01546107f6826104ff565b14610836576040517f08c379a000000000000000000000000000000000000000000000000000000000815260040161082d90611bb1565b60405180910390fd5b60015f3373ffffffffffffffffffffffffffffffffffffffff1673ffffffffffffffffffffffffffffffffffffffff1681526020019081526020015f206001015f9054906101000a900467ffffffffffffffff1667ffffffffffffffff164367ffffffffffffffff16116108df576040517f08c379a00000000000000000000000000000000000000000000000000000000081526004016108d690611c65565b60405180910390fd5b60fa60015f3373ffffffffffffffffffffffffffffffffffffffff1673ffffffffffffffffffffffffffffffffffffffff1681526020019081526020015f206001015f9054906101000a900467ffffffffffffffff1661093f9190611c83565b67ffffffffffffffff164367ffffffffffffffff161115610995576040517f08c379a000000000000000000000000000000000000000000000000000000000815260040161098c90611d2e565b60405180910390fd5b5f60015f3373ffffffffffffffffffffffffffffffffffffffff1673ffffffffffffffffffffffffffffffffffffffff1681526020019081526020015f206001015f9054906101000a900467ffffffffffffffff1667ffffffffffffffff164090505f805f9054906101000a900460ff1660ff168284604051602001610a1c929190611d4c565b604051602081830303815290604052805190602001205f1c610a3e9190611da4565b90507fbc016dd1cadeaefcb851af7a0a93532e0023d536894b730801f7bcfe7065bcc2338483604051610a7393929190611dd4565b60405180910390a1505050565b6001602052805f5260405f205f91509050805f015490806001015f9054906101000a900467ffffffffffffffff16908060010160089054906101000a900460ff16905083565b5f308383604051602001610adc93929190611e09565b60405160208183030381529060405280519060200120905092915050565b60025481565b6004602052805f5260405f205f91509050805f015490806001015f9054906101000a900473ffffffffffffffffffffffffffffffffffffffff16908060010160149054906101000a900460ff16905083565b60065481565b5f808310158015610b6a575060038311155b610b72575f80fd5b5f82604051602001610b8491906119b4565b604051602081830303815290604052610b9c90611a03565b90505f84604051602001610bb09190611a89565b604051602081830303815290604052610bc890611a03565b9050610bd48183610ac6565b9250505092915050565b6002805414610beb575f80fd5b600260055410610bf9575f80fd5b60045f8281526020019081526020015f206001015f9054906101000a900473ffffffffffffffffffffffffffffffffffffffff1673ffffffffffffffffffffffffffffffffffffffff163373ffffffffffffffffffffffffffffffffffffffff1614610c63575f80fd5b5f151560045f8381526020019081526020015f2060010160149054906101000a900460ff16151514610c93575f80fd5b600160045f8381526020019081526020015f2060010160146101000a81548160ff021916908315150217905550610cc982610ed3565b60055f815480929190610cdb9061184a565b91905055507f3928cc5abcbb1c0b781bebbc4f1e9b156f6d392796c791cc0937db5e42677ff733600554604051610d13929190611891565b60405180910390a15050565b5f151560015f3373ffffffffffffffffffffffffffffffffffffffff1673ffffffffffffffffffffffffffffffffffffffff1681526020019081526020015f2060010160089054906101000a900460ff16151514610db2576040517f08c379a0000000000000000000000000000000000000000000000000000000008152600401610da990611eb5565b60405180910390fd5b6001805f3373ffffffffffffffffffffffffffffffffffffffff1673ffffffffffffffffffffffffffffffffffffffff1681526020019081526020015f2060010160086101000a81548160ff02191690831515021790555060015f3373ffffffffffffffffffffffffffffffffffffffff1673ffffffffffffffffffffffffffffffffffffffff1681526020019081526020015f205f0154610e548383610ac6565b14610e94576040517f08c379a0000000000000000000000000000000000000000000000000000000008152600401610e8b90611f43565b60405180910390fd5b7f8bed02c4d61e56ed1d90657e7a0ba48f15cca20fcc2899d7235221b2cb0423a6338383604051610ec793929190611f61565b60405180910390a15050565b8060015f3373ffffffffffffffffffffffffffffffffffffffff1673ffffffffffffffffffffffffffffffffffffffff1681526020019081526020015f205f01819055504360015f3373ffffffffffffffffffffffffffffffffffffffff1673ffffffffffffffffffffffffffffffffffffffff1681526020019081526020015f206001015f6101000a81548167ffffffffffffffff021916908367ffffffffffffffff1602179055505f60015f3373ffffffffffffffffffffffffffffffffffffffff1673ffffffffffffffffffffffffffffffffffffffff1681526020019081526020015f2060010160086101000a81548160ff0219169083151502179055507f3c1a1f8f38335b17f751c6da4ba7d1865f26b3997535176f5080de9fad8916033360015f3373ffffffffffffffffffffffffffffffffffffffff1673ffffffffffffffffffffffffffffffffffffffff1681526020019081526020015f205f015460015f3373ffffffffffffffffffffffffffffffffffffffff1673ffffffffffffffffffffffffffffffffffffffff1681526020019081526020015f206001015f9054906101000a900467ffffffffffffffff1660405161109a93929190611f96565b60405180910390a150565b5f60045f8081526020019081526020015f205f015490505f60045f600181526020019081526020015f205f015490505f60045f8081526020019081526020015f206001015f9054906101000a900473ffffffffffffffffffffffffffffffffffffffff1690505f60045f600181526020019081526020015f206001015f9054906101000a900473ffffffffffffffffffffffffffffffffffffffff1690508260036001866111539190611817565b61115d9190611da4565b036111ad578073ffffffffffffffffffffffffffffffffffffffff166108fc60035490811502906040515f60405180830381858888f193505050501580156111a7573d5f803e3d5ffd5b506112bd565b8360036001856111bd9190611817565b6111c79190611da4565b03611217578173ffffffffffffffffffffffffffffffffffffffff166108fc60035490811502906040515f60405180830381858888f19350505050158015611211573d5f803e3d5ffd5b506112bc565b8173ffffffffffffffffffffffffffffffffffffffff166108fc60026003546112409190611fcb565b90811502906040515f60405180830381858888f19350505050158015611268573d5f803e3d5ffd5b508073ffffffffffffffffffffffffffffffffffffffff166108fc60026003546112929190611fcb565b90811502906040515f60405180830381858888f193505050501580156112ba573d5f803e3d5ffd5b505b5b50505050565b5f6002819055505f6003819055505f6005819055505f600681905550565b5f819050919050565b6112f3816112e1565b82525050565b5f60208201905061130c5f8301846112ea565b92915050565b5f604051905090565b5f80fd5b5f80fd5b5f819050919050565b61133581611323565b811461133f575f80fd5b50565b5f813590506113508161132c565b92915050565b5f6020828403121561136b5761136a61131b565b5b5f61137884828501611342565b91505092915050565b61138a81611323565b82525050565b5f6020820190506113a35f830184611381565b92915050565b6113b2816112e1565b81146113bc575f80fd5b50565b5f813590506113cd816113a9565b92915050565b5f80fd5b5f80fd5b5f601f19601f8301169050919050565b7f4e487b71000000000000000000000000000000000000000000000000000000005f52604160045260245ffd5b611421826113db565b810181811067ffffffffffffffff821117156114405761143f6113eb565b5b80604052505050565b5f611452611312565b905061145e8282611418565b919050565b5f67ffffffffffffffff82111561147d5761147c6113eb565b5b611486826113db565b9050602081019050919050565b828183375f83830152505050565b5f6114b36114ae84611463565b611449565b9050828152602081018484840111156114cf576114ce6113d7565b5b6114da848285611493565b509392505050565b5f82601f8301126114f6576114f56113d3565b5b81356115068482602086016114a1565b91505092915050565b5f805f606084860312156115265761152561131b565b5b5f611533868287016113bf565b9350506020611544868287016113bf565b925050604084013567ffffffffffffffff8111156115655761156461131f565b5b611571868287016114e2565b9150509250925092565b5f60ff82169050919050565b6115908161157b565b82525050565b5f6020820190506115a95f830184611587565b92915050565b5f73ffffffffffffffffffffffffffffffffffffffff82169050919050565b5f6115d8826115af565b9050919050565b6115e8816115ce565b81146115f2575f80fd5b50565b5f81359050611603816115df565b92915050565b5f6020828403121561161e5761161d61131b565b5b5f61162b848285016115f5565b91505092915050565b5f67ffffffffffffffff82169050919050565b61165081611634565b82525050565b5f8115159050919050565b61166a81611656565b82525050565b5f6060820190506116835f830186611381565b6116906020830185611647565b61169d6040830184611661565b949350505050565b5f80604083850312156116bb576116ba61131b565b5b5f6116c885828601611342565b92505060206116d985828601611342565b9150509250929050565b5f602082840312156116f8576116f761131b565b5b5f611705848285016113bf565b91505092915050565b611717816115ce565b82525050565b5f6060820190506117305f8301866112ea565b61173d602083018561170e565b61174a6040830184611661565b949350505050565b5f80604083850312156117685761176761131b565b5b5f611775858286016113bf565b925050602083013567ffffffffffffffff8111156117965761179561131f565b5b6117a2858286016114e2565b9150509250929050565b5f80604083850312156117c2576117c161131b565b5b5f6117cf85828601611342565b92505060206117e0858286016113bf565b9150509250929050565b7f4e487b71000000000000000000000000000000000000000000000000000000005f52601160045260245ffd5b5f611821826112e1565b915061182c836112e1565b9250828201905080821115611844576118436117ea565b5b92915050565b5f611854826112e1565b91507fffffffffffffffffffffffffffffffffffffffffffffffffffffffffffffffff8203611886576118856117ea565b5b600182019050919050565b5f6040820190506118a45f83018561170e565b6118b160208301846112ea565b9392505050565b5f8160601b9050919050565b5f6118ce826118b8565b9050919050565b5f6118df826118c4565b9050919050565b6118f76118f2826115ce565b6118d5565b82525050565b5f819050919050565b61191761191282611323565b6118fd565b82525050565b5f61192882856118e6565b6014820191506119388284611906565b6020820191508190509392505050565b5f81519050919050565b5f81905092915050565b5f5b8381101561197957808201518184015260208101905061195e565b5f8484015250505050565b5f61198e82611948565b6119988185611952565b93506119a881856020860161195c565b80840191505092915050565b5f6119bf8284611984565b915081905092915050565b5f81519050919050565b5f819050602082019050919050565b5f6119ee8251611323565b80915050919050565b5f82821b905092915050565b5f611a0d826119ca565b82611a17846119d4565b9050611a22816119e3565b92506020821015611a6257611a5d7fffffffffffffffffffffffffffffffffffffffffffffffffffffffffffffffff836020036008026119f7565b831692505b5050919050565b5f819050919050565b611a83611a7e826112e1565b611a69565b82525050565b5f611a948284611a72565b60208201915081905092915050565b5f82825260208201905092915050565b7f436f6d6d697452657665616c3a3a72657665616c3a20416c72656164792072655f8201527f7665616c65640000000000000000000000000000000000000000000000000000602082015250565b5f611b0d602683611aa3565b9150611b1882611ab3565b604082019050919050565b5f6020820190508181035f830152611b3a81611b01565b9050919050565b7f436f6d6d697452657665616c3a3a72657665616c3a2052657665616c656420685f8201527f61736820646f6573206e6f74206d6174636820636f6d6d697400000000000000602082015250565b5f611b9b603983611aa3565b9150611ba682611b41565b604082019050919050565b5f6020820190508181035f830152611bc881611b8f565b9050919050565b7f436f6d6d697452657665616c3a3a72657665616c3a2052657665616c20616e645f8201527f20636f6d6d69742068617070656e6564206f6e207468652073616d6520626c6f60208201527f636b000000000000000000000000000000000000000000000000000000000000604082015250565b5f611c4f604283611aa3565b9150611c5a82611bcf565b606082019050919050565b5f6020820190508181035f830152611c7c81611c43565b9050919050565b5f611c8d82611634565b9150611c9883611634565b9250828201905067ffffffffffffffff811115611cb857611cb76117ea565b5b92915050565b7f436f6d6d697452657665616c3a3a72657665616c3a2052657665616c656420745f8201527f6f6f206c61746500000000000000000000000000000000000000000000000000602082015250565b5f611d18602783611aa3565b9150611d2382611cbe565b604082019050919050565b5f6020820190508181035f830152611d4581611d0c565b9050919050565b5f611d578285611906565b602082019150611d678284611906565b6020820191508190509392505050565b7f4e487b71000000000000000000000000000000000000000000000000000000005f52601260045260245ffd5b5f611dae826112e1565b9150611db9836112e1565b925082611dc957611dc8611d77565b5b828206905092915050565b5f606082019050611de75f83018661170e565b611df46020830185611381565b611e0160408301846112ea565b949350505050565b5f611e1482866118e6565b601482019150611e248285611906565b602082019150611e348284611906565b602082019150819050949350505050565b7f436f6d6d697452657665616c3a3a72657665616c416e737765723a20416c72655f8201527f6164792072657665616c65640000000000000000000000000000000000000000602082015250565b5f611e9f602c83611aa3565b9150611eaa82611e45565b604082019050919050565b5f6020820190508181035f830152611ecc81611e93565b9050919050565b7f436f6d6d697452657665616c3a3a72657665616c416e737765723a20526576655f8201527f616c6564206861736820646f6573206e6f74206d6174636820636f6d6d697400602082015250565b5f611f2d603f83611aa3565b9150611f3882611ed3565b604082019050919050565b5f6020820190508181035f830152611f5a81611f21565b9050919050565b5f606082019050611f745f83018661170e565b611f816020830185611381565b611f8e6040830184611381565b949350505050565b5f606082019050611fa95f83018661170e565b611fb66020830185611381565b611fc36040830184611647565b949350505050565b5f611fd5826112e1565b9150611fe0836112e1565b925082611ff057611fef611d77565b5b82820490509291505056fea2646970667358221220cd00a02521ce50075cf76f29940c8dddd6b0f410067cae5df44f96b34948af8664736f6c63430008180033",
					"opcodes": "PUSH1 0x80 PUSH1 0x40 MSTORE PUSH1 0x64 PUSH0 DUP1 PUSH2 0x100 EXP DUP2 SLOAD DUP2 PUSH1 0xFF MUL NOT AND SWAP1 DUP4 PUSH1 0xFF AND MUL OR SWAP1 SSTORE POP PUSH0 PUSH1 0x2 SSTORE PUSH0 PUSH1 0x3 SSTORE PUSH0 PUSH1 0x5 SSTORE PUSH0 PUSH1 0x6 SSTORE CALLVALUE DUP1 ISZERO PUSH2 0x39 JUMPI PUSH0 DUP1 REVERT JUMPDEST POP PUSH2 0x2031 DUP1 PUSH2 0x47 PUSH0 CODECOPY PUSH0 RETURN INVALID PUSH1 0x80 PUSH1 0x40 MSTORE PUSH1 0x4 CALLDATASIZE LT PUSH2 0xF2 JUMPI PUSH0 CALLDATALOAD PUSH1 0xE0 SHR DUP1 PUSH4 0x8DDDBF36 GT PUSH2 0x89 JUMPI DUP1 PUSH4 0xD09A0A3B GT PUSH2 0x58 JUMPI DUP1 PUSH4 0xD09A0A3B EQ PUSH2 0x316 JUMPI DUP1 PUSH4 0xD1ADBD72 EQ PUSH2 0x352 JUMPI DUP1 PUSH4 0xDE8E9033 EQ PUSH2 0x37A JUMPI DUP1 PUSH4 0xF14FCBC8 EQ PUSH2 0x3A2 JUMPI PUSH2 0xF2 JUMP JUMPDEST DUP1 PUSH4 0x8DDDBF36 EQ PUSH2 0x248 JUMPI DUP1 PUSH4 0x90D5D0C3 EQ PUSH2 0x284 JUMPI DUP1 PUSH4 0x9E0551C6 EQ PUSH2 0x2AE JUMPI DUP1 PUSH4 0xC876E615 EQ PUSH2 0x2EC JUMPI PUSH2 0xF2 JUMP JUMPDEST DUP1 PUSH4 0x5AFA1FD8 GT PUSH2 0xC5 JUMPI DUP1 PUSH4 0x5AFA1FD8 EQ PUSH2 0x190 JUMPI DUP1 PUSH4 0x6AC5DB19 EQ PUSH2 0x1B8 JUMPI DUP1 PUSH4 0x701FD0F1 EQ PUSH2 0x1E2 JUMPI DUP1 PUSH4 0x7B43A8E6 EQ PUSH2 0x20A JUMPI PUSH2 0xF2 JUMP JUMPDEST DUP1 PUSH4 0x86F7815 EQ PUSH2 0xF6 JUMPI DUP1 PUSH4 0x228CB733 EQ PUSH2 0x120 JUMPI DUP1 PUSH4 0x27B5DB8A EQ PUSH2 0x14A JUMPI DUP1 PUSH4 0x3CF5040A EQ PUSH2 0x154 JUMPI JUMPDEST PUSH0 DUP1 REVERT JUMPDEST CALLVALUE DUP1 ISZERO PUSH2 0x101 JUMPI PUSH0 DUP1 REVERT JUMPDEST POP PUSH2 0x10A PUSH2 0x3CA JUMP JUMPDEST PUSH1 0x40 MLOAD PUSH2 0x117 SWAP2 SWAP1 PUSH2 0x12F9 JUMP JUMPDEST PUSH1 0x40 MLOAD DUP1 SWAP2 SUB SWAP1 RETURN JUMPDEST CALLVALUE DUP1 ISZERO PUSH2 0x12B JUMPI PUSH0 DUP1 REVERT JUMPDEST POP PUSH2 0x134 PUSH2 0x3D0 JUMP JUMPDEST PUSH1 0x40 MLOAD PUSH2 0x141 SWAP2 SWAP1 PUSH2 0x12F9 JUMP JUMPDEST PUSH1 0x40 MLOAD DUP1 SWAP2 SUB SWAP1 RETURN JUMPDEST PUSH2 0x152 PUSH2 0x3D6 JUMP JUMPDEST STOP JUMPDEST CALLVALUE DUP1 ISZERO PUSH2 0x15F JUMPI PUSH0 DUP1 REVERT JUMPDEST POP PUSH2 0x17A PUSH1 0x4 DUP1 CALLDATASIZE SUB DUP2 ADD SWAP1 PUSH2 0x175 SWAP2 SWAP1 PUSH2 0x1356 JUMP JUMPDEST PUSH2 0x4FF JUMP JUMPDEST PUSH1 0x40 MLOAD PUSH2 0x187 SWAP2 SWAP1 PUSH2 0x1390 JUMP JUMPDEST PUSH1 0x40 MLOAD DUP1 SWAP2 SUB SWAP1 RETURN JUMPDEST CALLVALUE DUP1 ISZERO PUSH2 0x19B JUMPI PUSH0 DUP1 REVERT JUMPDEST POP PUSH2 0x1B6 PUSH1 0x4 DUP1 CALLDATASIZE SUB DUP2 ADD SWAP1 PUSH2 0x1B1 SWAP2 SWAP1 PUSH2 0x150F JUMP JUMPDEST PUSH2 0x530 JUMP JUMPDEST STOP JUMPDEST CALLVALUE DUP1 ISZERO PUSH2 0x1C3 JUMPI PUSH0 DUP1 REVERT JUMPDEST POP PUSH2 0x1CC PUSH2 0x6B2 JUMP JUMPDEST PUSH1 0x40 MLOAD PUSH2 0x1D9 SWAP2 SWAP1 PUSH2 0x1596 JUMP JUMPDEST PUSH1 0x40 MLOAD DUP1 SWAP2 SUB SWAP1 RETURN JUMPDEST CALLVALUE DUP1 ISZERO PUSH2 0x1ED JUMPI PUSH0 DUP1 REVERT JUMPDEST POP PUSH2 0x208 PUSH1 0x4 DUP1 CALLDATASIZE SUB DUP2 ADD SWAP1 PUSH2 0x203 SWAP2 SWAP1 PUSH2 0x1356 JUMP JUMPDEST PUSH2 0x6C2 JUMP JUMPDEST STOP JUMPDEST CALLVALUE DUP1 ISZERO PUSH2 0x215 JUMPI PUSH0 DUP1 REVERT JUMPDEST POP PUSH2 0x230 PUSH1 0x4 DUP1 CALLDATASIZE SUB DUP2 ADD SWAP1 PUSH2 0x22B SWAP2 SWAP1 PUSH2 0x1609 JUMP JUMPDEST PUSH2 0xA80 JUMP JUMPDEST PUSH1 0x40 MLOAD PUSH2 0x23F SWAP4 SWAP3 SWAP2 SWAP1 PUSH2 0x1670 JUMP JUMPDEST PUSH1 0x40 MLOAD DUP1 SWAP2 SUB SWAP1 RETURN JUMPDEST CALLVALUE DUP1 ISZERO PUSH2 0x253 JUMPI PUSH0 DUP1 REVERT JUMPDEST POP PUSH2 0x26E PUSH1 0x4 DUP1 CALLDATASIZE SUB DUP2 ADD SWAP1 PUSH2 0x269 SWAP2 SWAP1 PUSH2 0x16A5 JUMP JUMPDEST PUSH2 0xAC6 JUMP JUMPDEST PUSH1 0x40 MLOAD PUSH2 0x27B SWAP2 SWAP1 PUSH2 0x1390 JUMP JUMPDEST PUSH1 0x40 MLOAD DUP1 SWAP2 SUB SWAP1 RETURN JUMPDEST CALLVALUE DUP1 ISZERO PUSH2 0x28F JUMPI PUSH0 DUP1 REVERT JUMPDEST POP PUSH2 0x298 PUSH2 0xAFA JUMP JUMPDEST PUSH1 0x40 MLOAD PUSH2 0x2A5 SWAP2 SWAP1 PUSH2 0x12F9 JUMP JUMPDEST PUSH1 0x40 MLOAD DUP1 SWAP2 SUB SWAP1 RETURN JUMPDEST CALLVALUE DUP1 ISZERO PUSH2 0x2B9 JUMPI PUSH0 DUP1 REVERT JUMPDEST POP PUSH2 0x2D4 PUSH1 0x4 DUP1 CALLDATASIZE SUB DUP2 ADD SWAP1 PUSH2 0x2CF SWAP2 SWAP1 PUSH2 0x16E3 JUMP JUMPDEST PUSH2 0xB00 JUMP JUMPDEST PUSH1 0x40 MLOAD PUSH2 0x2E3 SWAP4 SWAP3 SWAP2 SWAP1 PUSH2 0x171D JUMP JUMPDEST PUSH1 0x40 MLOAD DUP1 SWAP2 SUB SWAP1 RETURN JUMPDEST CALLVALUE DUP1 ISZERO PUSH2 0x2F7 JUMPI PUSH0 DUP1 REVERT JUMPDEST POP PUSH2 0x300 PUSH2 0xB52 JUMP JUMPDEST PUSH1 0x40 MLOAD PUSH2 0x30D SWAP2 SWAP1 PUSH2 0x12F9 JUMP JUMPDEST PUSH1 0x40 MLOAD DUP1 SWAP2 SUB SWAP1 RETURN JUMPDEST CALLVALUE DUP1 ISZERO PUSH2 0x321 JUMPI PUSH0 DUP1 REVERT JUMPDEST POP PUSH2 0x33C PUSH1 0x4 DUP1 CALLDATASIZE SUB DUP2 ADD SWAP1 PUSH2 0x337 SWAP2 SWAP1 PUSH2 0x1752 JUMP JUMPDEST PUSH2 0xB58 JUMP JUMPDEST PUSH1 0x40 MLOAD PUSH2 0x349 SWAP2 SWAP1 PUSH2 0x1390 JUMP JUMPDEST PUSH1 0x40 MLOAD DUP1 SWAP2 SUB SWAP1 RETURN JUMPDEST CALLVALUE DUP1 ISZERO PUSH2 0x35D JUMPI PUSH0 DUP1 REVERT JUMPDEST POP PUSH2 0x378 PUSH1 0x4 DUP1 CALLDATASIZE SUB DUP2 ADD SWAP1 PUSH2 0x373 SWAP2 SWAP1 PUSH2 0x17AC JUMP JUMPDEST PUSH2 0xBDE JUMP JUMPDEST STOP JUMPDEST CALLVALUE DUP1 ISZERO PUSH2 0x385 JUMPI PUSH0 DUP1 REVERT JUMPDEST POP PUSH2 0x3A0 PUSH1 0x4 DUP1 CALLDATASIZE SUB DUP2 ADD SWAP1 PUSH2 0x39B SWAP2 SWAP1 PUSH2 0x16A5 JUMP JUMPDEST PUSH2 0xD1F JUMP JUMPDEST STOP JUMPDEST CALLVALUE DUP1 ISZERO PUSH2 0x3AD JUMPI PUSH0 DUP1 REVERT JUMPDEST POP PUSH2 0x3C8 PUSH1 0x4 DUP1 CALLDATASIZE SUB DUP2 ADD SWAP1 PUSH2 0x3C3 SWAP2 SWAP1 PUSH2 0x1356 JUMP JUMPDEST PUSH2 0xED3 JUMP JUMPDEST STOP JUMPDEST PUSH1 0x5 SLOAD DUP2 JUMP JUMPDEST PUSH1 0x3 SLOAD DUP2 JUMP JUMPDEST PUSH1 0x2 DUP1 SLOAD LT PUSH2 0x3E3 JUMPI PUSH0 DUP1 REVERT JUMPDEST PUSH8 0xDE0B6B3A7640000 CALLVALUE EQ PUSH2 0x3F6 JUMPI PUSH0 DUP1 REVERT JUMPDEST CALLVALUE PUSH1 0x3 PUSH0 DUP3 DUP3 SLOAD PUSH2 0x407 SWAP2 SWAP1 PUSH2 0x1817 JUMP JUMPDEST SWAP3 POP POP DUP2 SWAP1 SSTORE POP CALLER PUSH1 0x4 PUSH0 PUSH1 0x2 SLOAD DUP2 MSTORE PUSH1 0x20 ADD SWAP1 DUP2 MSTORE PUSH1 0x20 ADD PUSH0 KECCAK256 PUSH1 0x1 ADD PUSH0 PUSH2 0x100 EXP DUP2 SLOAD DUP2 PUSH20 0xFFFFFFFFFFFFFFFFFFFFFFFFFFFFFFFFFFFFFFFF MUL NOT AND SWAP1 DUP4 PUSH20 0xFFFFFFFFFFFFFFFFFFFFFFFFFFFFFFFFFFFFFFFF AND MUL OR SWAP1 SSTORE POP PUSH1 0x3 PUSH1 0x4 PUSH0 PUSH1 0x2 SLOAD DUP2 MSTORE PUSH1 0x20 ADD SWAP1 DUP2 MSTORE PUSH1 0x20 ADD PUSH0 KECCAK256 PUSH0 ADD DUP2 SWAP1 SSTORE POP PUSH0 PUSH1 0x4 PUSH0 PUSH1 0x2 SLOAD DUP2 MSTORE PUSH1 0x20 ADD SWAP1 DUP2 MSTORE PUSH1 0x20 ADD PUSH0 KECCAK256 PUSH1 0x1 ADD PUSH1 0x14 PUSH2 0x100 EXP DUP2 SLOAD DUP2 PUSH1 0xFF MUL NOT AND SWAP1 DUP4 ISZERO ISZERO MUL OR SWAP1 SSTORE POP PUSH1 0x2 PUSH0 DUP2 SLOAD DUP1 SWAP3 SWAP2 SWAP1 PUSH2 0x4BD SWAP1 PUSH2 0x184A JUMP JUMPDEST SWAP2 SWAP1 POP SSTORE POP PUSH32 0x313F9EBDCA9D25EE9456DD69022E3324975C8261B7A8B134881905D3B6964D3C CALLER PUSH1 0x2 SLOAD PUSH1 0x40 MLOAD PUSH2 0x4F5 SWAP3 SWAP2 SWAP1 PUSH2 0x1891 JUMP JUMPDEST PUSH1 0x40 MLOAD DUP1 SWAP2 SUB SWAP1 LOG1 JUMP JUMPDEST PUSH0 ADDRESS DUP3 PUSH1 0x40 MLOAD PUSH1 0x20 ADD PUSH2 0x513 SWAP3 SWAP2 SWAP1 PUSH2 0x191D JUMP JUMPDEST PUSH1 0x40 MLOAD PUSH1 0x20 DUP2 DUP4 SUB SUB DUP2 MSTORE SWAP1 PUSH1 0x40 MSTORE DUP1 MLOAD SWAP1 PUSH1 0x20 ADD KECCAK256 SWAP1 POP SWAP2 SWAP1 POP JUMP JUMPDEST PUSH1 0x2 DUP1 SLOAD EQ PUSH2 0x53D JUMPI PUSH0 DUP1 REVERT JUMPDEST PUSH1 0x2 PUSH1 0x5 SLOAD EQ PUSH2 0x54B JUMPI PUSH0 DUP1 REVERT JUMPDEST PUSH1 0x4 PUSH0 DUP4 DUP2 MSTORE PUSH1 0x20 ADD SWAP1 DUP2 MSTORE PUSH1 0x20 ADD PUSH0 KECCAK256 PUSH1 0x1 ADD PUSH0 SWAP1 SLOAD SWAP1 PUSH2 0x100 EXP SWAP1 DIV PUSH20 0xFFFFFFFFFFFFFFFFFFFFFFFFFFFFFFFFFFFFFFFF AND PUSH20 0xFFFFFFFFFFFFFFFFFFFFFFFFFFFFFFFFFFFFFFFF AND CALLER PUSH20 0xFFFFFFFFFFFFFFFFFFFFFFFFFFFFFFFFFFFFFFFF AND EQ PUSH2 0x5B5 JUMPI PUSH0 DUP1 REVERT JUMPDEST PUSH0 DUP4 LT ISZERO DUP1 ISZERO PUSH2 0x5C6 JUMPI POP PUSH1 0x3 DUP4 GT ISZERO JUMPDEST PUSH2 0x5CE JUMPI PUSH0 DUP1 REVERT JUMPDEST PUSH1 0x1 ISZERO ISZERO PUSH1 0x4 PUSH0 DUP5 DUP2 MSTORE PUSH1 0x20 ADD SWAP1 DUP2 MSTORE PUSH1 0x20 ADD PUSH0 KECCAK256 PUSH1 0x1 ADD PUSH1 0x14 SWAP1 SLOAD SWAP1 PUSH2 0x100 EXP SWAP1 DIV PUSH1 0xFF AND ISZERO ISZERO EQ PUSH2 0x5FF JUMPI PUSH0 DUP1 REVERT JUMPDEST PUSH0 DUP2 PUSH1 0x40 MLOAD PUSH1 0x20 ADD PUSH2 0x611 SWAP2 SWAP1 PUSH2 0x19B4 JUMP JUMPDEST PUSH1 0x40 MLOAD PUSH1 0x20 DUP2 DUP4 SUB SUB DUP2 MSTORE SWAP1 PUSH1 0x40 MSTORE PUSH2 0x629 SWAP1 PUSH2 0x1A03 JUMP JUMPDEST SWAP1 POP PUSH0 DUP5 PUSH1 0x40 MLOAD PUSH1 0x20 ADD PUSH2 0x63D SWAP2 SWAP1 PUSH2 0x1A89 JUMP JUMPDEST PUSH1 0x40 MLOAD PUSH1 0x20 DUP2 DUP4 SUB SUB DUP2 MSTORE SWAP1 PUSH1 0x40 MSTORE PUSH2 0x655 SWAP1 PUSH2 0x1A03 JUMP JUMPDEST SWAP1 POP PUSH2 0x661 DUP2 DUP4 PUSH2 0xD1F JUMP JUMPDEST DUP5 PUSH1 0x4 PUSH0 DUP7 DUP2 MSTORE PUSH1 0x20 ADD SWAP1 DUP2 MSTORE PUSH1 0x20 ADD PUSH0 KECCAK256 PUSH0 ADD DUP2 SWAP1 SSTORE POP PUSH1 0x6 PUSH0 DUP2 SLOAD DUP1 SWAP3 SWAP2 SWAP1 PUSH2 0x68B SWAP1 PUSH2 0x184A JUMP JUMPDEST SWAP2 SWAP1 POP SSTORE POP PUSH1 0x2 PUSH1 0x6 SLOAD SUB PUSH2 0x6AB JUMPI PUSH2 0x6A2 PUSH2 0x10A5 JUMP JUMPDEST PUSH2 0x6AA PUSH2 0x12C3 JUMP JUMPDEST JUMPDEST POP POP POP POP POP JUMP JUMPDEST PUSH0 DUP1 SLOAD SWAP1 PUSH2 0x100 EXP SWAP1 DIV PUSH1 0xFF AND DUP2 JUMP JUMPDEST PUSH0 ISZERO ISZERO PUSH1 0x1 PUSH0 CALLER PUSH20 0xFFFFFFFFFFFFFFFFFFFFFFFFFFFFFFFFFFFFFFFF AND PUSH20 0xFFFFFFFFFFFFFFFFFFFFFFFFFFFFFFFFFFFFFFFF AND DUP2 MSTORE PUSH1 0x20 ADD SWAP1 DUP2 MSTORE PUSH1 0x20 ADD PUSH0 KECCAK256 PUSH1 0x1 ADD PUSH1 0x8 SWAP1 SLOAD SWAP1 PUSH2 0x100 EXP SWAP1 DIV PUSH1 0xFF AND ISZERO ISZERO EQ PUSH2 0x755 JUMPI PUSH1 0x40 MLOAD PUSH32 0x8C379A000000000000000000000000000000000000000000000000000000000 DUP2 MSTORE PUSH1 0x4 ADD PUSH2 0x74C SWAP1 PUSH2 0x1B23 JUMP JUMPDEST PUSH1 0x40 MLOAD DUP1 SWAP2 SUB SWAP1 REVERT JUMPDEST PUSH1 0x1 DUP1 PUSH0 CALLER PUSH20 0xFFFFFFFFFFFFFFFFFFFFFFFFFFFFFFFFFFFFFFFF AND PUSH20 0xFFFFFFFFFFFFFFFFFFFFFFFFFFFFFFFFFFFFFFFF AND DUP2 MSTORE PUSH1 0x20 ADD SWAP1 DUP2 MSTORE PUSH1 0x20 ADD PUSH0 KECCAK256 PUSH1 0x1 ADD PUSH1 0x8 PUSH2 0x100 EXP DUP2 SLOAD DUP2 PUSH1 0xFF MUL NOT AND SWAP1 DUP4 ISZERO ISZERO MUL OR SWAP1 SSTORE POP PUSH1 0x1 PUSH0 CALLER PUSH20 0xFFFFFFFFFFFFFFFFFFFFFFFFFFFFFFFFFFFFFFFF AND PUSH20 0xFFFFFFFFFFFFFFFFFFFFFFFFFFFFFFFFFFFFFFFF AND DUP2 MSTORE PUSH1 0x20 ADD SWAP1 DUP2 MSTORE PUSH1 0x20 ADD PUSH0 KECCAK256 PUSH0 ADD SLOAD PUSH2 0x7F6 DUP3 PUSH2 0x4FF JUMP JUMPDEST EQ PUSH2 0x836 JUMPI PUSH1 0x40 MLOAD PUSH32 0x8C379A000000000000000000000000000000000000000000000000000000000 DUP2 MSTORE PUSH1 0x4 ADD PUSH2 0x82D SWAP1 PUSH2 0x1BB1 JUMP JUMPDEST PUSH1 0x40 MLOAD DUP1 SWAP2 SUB SWAP1 REVERT JUMPDEST PUSH1 0x1 PUSH0 CALLER PUSH20 0xFFFFFFFFFFFFFFFFFFFFFFFFFFFFFFFFFFFFFFFF AND PUSH20 0xFFFFFFFFFFFFFFFFFFFFFFFFFFFFFFFFFFFFFFFF AND DUP2 MSTORE PUSH1 0x20 ADD SWAP1 DUP2 MSTORE PUSH1 0x20 ADD PUSH0 KECCAK256 PUSH1 0x1 ADD PUSH0 SWAP1 SLOAD SWAP1 PUSH2 0x100 EXP SWAP1 DIV PUSH8 0xFFFFFFFFFFFFFFFF AND PUSH8 0xFFFFFFFFFFFFFFFF AND NUMBER PUSH8 0xFFFFFFFFFFFFFFFF AND GT PUSH2 0x8DF JUMPI PUSH1 0x40 MLOAD PUSH32 0x8C379A000000000000000000000000000000000000000000000000000000000 DUP2 MSTORE PUSH1 0x4 ADD PUSH2 0x8D6 SWAP1 PUSH2 0x1C65 JUMP JUMPDEST PUSH1 0x40 MLOAD DUP1 SWAP2 SUB SWAP1 REVERT JUMPDEST PUSH1 0xFA PUSH1 0x1 PUSH0 CALLER PUSH20 0xFFFFFFFFFFFFFFFFFFFFFFFFFFFFFFFFFFFFFFFF AND PUSH20 0xFFFFFFFFFFFFFFFFFFFFFFFFFFFFFFFFFFFFFFFF AND DUP2 MSTORE PUSH1 0x20 ADD SWAP1 DUP2 MSTORE PUSH1 0x20 ADD PUSH0 KECCAK256 PUSH1 0x1 ADD PUSH0 SWAP1 SLOAD SWAP1 PUSH2 0x100 EXP SWAP1 DIV PUSH8 0xFFFFFFFFFFFFFFFF AND PUSH2 0x93F SWAP2 SWAP1 PUSH2 0x1C83 JUMP JUMPDEST PUSH8 0xFFFFFFFFFFFFFFFF AND NUMBER PUSH8 0xFFFFFFFFFFFFFFFF AND GT ISZERO PUSH2 0x995 JUMPI PUSH1 0x40 MLOAD PUSH32 0x8C379A000000000000000000000000000000000000000000000000000000000 DUP2 MSTORE PUSH1 0x4 ADD PUSH2 0x98C SWAP1 PUSH2 0x1D2E JUMP JUMPDEST PUSH1 0x40 MLOAD DUP1 SWAP2 SUB SWAP1 REVERT JUMPDEST PUSH0 PUSH1 0x1 PUSH0 CALLER PUSH20 0xFFFFFFFFFFFFFFFFFFFFFFFFFFFFFFFFFFFFFFFF AND PUSH20 0xFFFFFFFFFFFFFFFFFFFFFFFFFFFFFFFFFFFFFFFF AND DUP2 MSTORE PUSH1 0x20 ADD SWAP1 DUP2 MSTORE PUSH1 0x20 ADD PUSH0 KECCAK256 PUSH1 0x1 ADD PUSH0 SWAP1 SLOAD SWAP1 PUSH2 0x100 EXP SWAP1 DIV PUSH8 0xFFFFFFFFFFFFFFFF AND PUSH8 0xFFFFFFFFFFFFFFFF AND BLOCKHASH SWAP1 POP PUSH0 DUP1 PUSH0 SWAP1 SLOAD SWAP1 PUSH2 0x100 EXP SWAP1 DIV PUSH1 0xFF AND PUSH1 0xFF AND DUP3 DUP5 PUSH1 0x40 MLOAD PUSH1 0x20 ADD PUSH2 0xA1C SWAP3 SWAP2 SWAP1 PUSH2 0x1D4C JUMP JUMPDEST PUSH1 0x40 MLOAD PUSH1 0x20 DUP2 DUP4 SUB SUB DUP2 MSTORE SWAP1 PUSH1 0x40 MSTORE DUP1 MLOAD SWAP1 PUSH1 0x20 ADD KECCAK256 PUSH0 SHR PUSH2 0xA3E SWAP2 SWAP1 PUSH2 0x1DA4 JUMP JUMPDEST SWAP1 POP PUSH32 0xBC016DD1CADEAEFCB851AF7A0A93532E0023D536894B730801F7BCFE7065BCC2 CALLER DUP5 DUP4 PUSH1 0x40 MLOAD PUSH2 0xA73 SWAP4 SWAP3 SWAP2 SWAP1 PUSH2 0x1DD4 JUMP JUMPDEST PUSH1 0x40 MLOAD DUP1 SWAP2 SUB SWAP1 LOG1 POP POP POP JUMP JUMPDEST PUSH1 0x1 PUSH1 0x20 MSTORE DUP1 PUSH0 MSTORE PUSH1 0x40 PUSH0 KECCAK256 PUSH0 SWAP2 POP SWAP1 POP DUP1 PUSH0 ADD SLOAD SWAP1 DUP1 PUSH1 0x1 ADD PUSH0 SWAP1 SLOAD SWAP1 PUSH2 0x100 EXP SWAP1 DIV PUSH8 0xFFFFFFFFFFFFFFFF AND SWAP1 DUP1 PUSH1 0x1 ADD PUSH1 0x8 SWAP1 SLOAD SWAP1 PUSH2 0x100 EXP SWAP1 DIV PUSH1 0xFF AND SWAP1 POP DUP4 JUMP JUMPDEST PUSH0 ADDRESS DUP4 DUP4 PUSH1 0x40 MLOAD PUSH1 0x20 ADD PUSH2 0xADC SWAP4 SWAP3 SWAP2 SWAP1 PUSH2 0x1E09 JUMP JUMPDEST PUSH1 0x40 MLOAD PUSH1 0x20 DUP2 DUP4 SUB SUB DUP2 MSTORE SWAP1 PUSH1 0x40 MSTORE DUP1 MLOAD SWAP1 PUSH1 0x20 ADD KECCAK256 SWAP1 POP SWAP3 SWAP2 POP POP JUMP JUMPDEST PUSH1 0x2 SLOAD DUP2 JUMP JUMPDEST PUSH1 0x4 PUSH1 0x20 MSTORE DUP1 PUSH0 MSTORE PUSH1 0x40 PUSH0 KECCAK256 PUSH0 SWAP2 POP SWAP1 POP DUP1 PUSH0 ADD SLOAD SWAP1 DUP1 PUSH1 0x1 ADD PUSH0 SWAP1 SLOAD SWAP1 PUSH2 0x100 EXP SWAP1 DIV PUSH20 0xFFFFFFFFFFFFFFFFFFFFFFFFFFFFFFFFFFFFFFFF AND SWAP1 DUP1 PUSH1 0x1 ADD PUSH1 0x14 SWAP1 SLOAD SWAP1 PUSH2 0x100 EXP SWAP1 DIV PUSH1 0xFF AND SWAP1 POP DUP4 JUMP JUMPDEST PUSH1 0x6 SLOAD DUP2 JUMP JUMPDEST PUSH0 DUP1 DUP4 LT ISZERO DUP1 ISZERO PUSH2 0xB6A JUMPI POP PUSH1 0x3 DUP4 GT ISZERO JUMPDEST PUSH2 0xB72 JUMPI PUSH0 DUP1 REVERT JUMPDEST PUSH0 DUP3 PUSH1 0x40 MLOAD PUSH1 0x20 ADD PUSH2 0xB84 SWAP2 SWAP1 PUSH2 0x19B4 JUMP JUMPDEST PUSH1 0x40 MLOAD PUSH1 0x20 DUP2 DUP4 SUB SUB DUP2 MSTORE SWAP1 PUSH1 0x40 MSTORE PUSH2 0xB9C SWAP1 PUSH2 0x1A03 JUMP JUMPDEST SWAP1 POP PUSH0 DUP5 PUSH1 0x40 MLOAD PUSH1 0x20 ADD PUSH2 0xBB0 SWAP2 SWAP1 PUSH2 0x1A89 JUMP JUMPDEST PUSH1 0x40 MLOAD PUSH1 0x20 DUP2 DUP4 SUB SUB DUP2 MSTORE SWAP1 PUSH1 0x40 MSTORE PUSH2 0xBC8 SWAP1 PUSH2 0x1A03 JUMP JUMPDEST SWAP1 POP PUSH2 0xBD4 DUP2 DUP4 PUSH2 0xAC6 JUMP JUMPDEST SWAP3 POP POP POP SWAP3 SWAP2 POP POP JUMP JUMPDEST PUSH1 0x2 DUP1 SLOAD EQ PUSH2 0xBEB JUMPI PUSH0 DUP1 REVERT JUMPDEST PUSH1 0x2 PUSH1 0x5 SLOAD LT PUSH2 0xBF9 JUMPI PUSH0 DUP1 REVERT JUMPDEST PUSH1 0x4 PUSH0 DUP3 DUP2 MSTORE PUSH1 0x20 ADD SWAP1 DUP2 MSTORE PUSH1 0x20 ADD PUSH0 KECCAK256 PUSH1 0x1 ADD PUSH0 SWAP1 SLOAD SWAP1 PUSH2 0x100 EXP SWAP1 DIV PUSH20 0xFFFFFFFFFFFFFFFFFFFFFFFFFFFFFFFFFFFFFFFF AND PUSH20 0xFFFFFFFFFFFFFFFFFFFFFFFFFFFFFFFFFFFFFFFF AND CALLER PUSH20 0xFFFFFFFFFFFFFFFFFFFFFFFFFFFFFFFFFFFFFFFF AND EQ PUSH2 0xC63 JUMPI PUSH0 DUP1 REVERT JUMPDEST PUSH0 ISZERO ISZERO PUSH1 0x4 PUSH0 DUP4 DUP2 MSTORE PUSH1 0x20 ADD SWAP1 DUP2 MSTORE PUSH1 0x20 ADD PUSH0 KECCAK256 PUSH1 0x1 ADD PUSH1 0x14 SWAP1 SLOAD SWAP1 PUSH2 0x100 EXP SWAP1 DIV PUSH1 0xFF AND ISZERO ISZERO EQ PUSH2 0xC93 JUMPI PUSH0 DUP1 REVERT JUMPDEST PUSH1 0x1 PUSH1 0x4 PUSH0 DUP4 DUP2 MSTORE PUSH1 0x20 ADD SWAP1 DUP2 MSTORE PUSH1 0x20 ADD PUSH0 KECCAK256 PUSH1 0x1 ADD PUSH1 0x14 PUSH2 0x100 EXP DUP2 SLOAD DUP2 PUSH1 0xFF MUL NOT AND SWAP1 DUP4 ISZERO ISZERO MUL OR SWAP1 SSTORE POP PUSH2 0xCC9 DUP3 PUSH2 0xED3 JUMP JUMPDEST PUSH1 0x5 PUSH0 DUP2 SLOAD DUP1 SWAP3 SWAP2 SWAP1 PUSH2 0xCDB SWAP1 PUSH2 0x184A JUMP JUMPDEST SWAP2 SWAP1 POP SSTORE POP PUSH32 0x3928CC5ABCBB1C0B781BEBBC4F1E9B156F6D392796C791CC0937DB5E42677FF7 CALLER PUSH1 0x5 SLOAD PUSH1 0x40 MLOAD PUSH2 0xD13 SWAP3 SWAP2 SWAP1 PUSH2 0x1891 JUMP JUMPDEST PUSH1 0x40 MLOAD DUP1 SWAP2 SUB SWAP1 LOG1 POP POP JUMP JUMPDEST PUSH0 ISZERO ISZERO PUSH1 0x1 PUSH0 CALLER PUSH20 0xFFFFFFFFFFFFFFFFFFFFFFFFFFFFFFFFFFFFFFFF AND PUSH20 0xFFFFFFFFFFFFFFFFFFFFFFFFFFFFFFFFFFFFFFFF AND DUP2 MSTORE PUSH1 0x20 ADD SWAP1 DUP2 MSTORE PUSH1 0x20 ADD PUSH0 KECCAK256 PUSH1 0x1 ADD PUSH1 0x8 SWAP1 SLOAD SWAP1 PUSH2 0x100 EXP SWAP1 DIV PUSH1 0xFF AND ISZERO ISZERO EQ PUSH2 0xDB2 JUMPI PUSH1 0x40 MLOAD PUSH32 0x8C379A000000000000000000000000000000000000000000000000000000000 DUP2 MSTORE PUSH1 0x4 ADD PUSH2 0xDA9 SWAP1 PUSH2 0x1EB5 JUMP JUMPDEST PUSH1 0x40 MLOAD DUP1 SWAP2 SUB SWAP1 REVERT JUMPDEST PUSH1 0x1 DUP1 PUSH0 CALLER PUSH20 0xFFFFFFFFFFFFFFFFFFFFFFFFFFFFFFFFFFFFFFFF AND PUSH20 0xFFFFFFFFFFFFFFFFFFFFFFFFFFFFFFFFFFFFFFFF AND DUP2 MSTORE PUSH1 0x20 ADD SWAP1 DUP2 MSTORE PUSH1 0x20 ADD PUSH0 KECCAK256 PUSH1 0x1 ADD PUSH1 0x8 PUSH2 0x100 EXP DUP2 SLOAD DUP2 PUSH1 0xFF MUL NOT AND SWAP1 DUP4 ISZERO ISZERO MUL OR SWAP1 SSTORE POP PUSH1 0x1 PUSH0 CALLER PUSH20 0xFFFFFFFFFFFFFFFFFFFFFFFFFFFFFFFFFFFFFFFF AND PUSH20 0xFFFFFFFFFFFFFFFFFFFFFFFFFFFFFFFFFFFFFFFF AND DUP2 MSTORE PUSH1 0x20 ADD SWAP1 DUP2 MSTORE PUSH1 0x20 ADD PUSH0 KECCAK256 PUSH0 ADD SLOAD PUSH2 0xE54 DUP4 DUP4 PUSH2 0xAC6 JUMP JUMPDEST EQ PUSH2 0xE94 JUMPI PUSH1 0x40 MLOAD PUSH32 0x8C379A000000000000000000000000000000000000000000000000000000000 DUP2 MSTORE PUSH1 0x4 ADD PUSH2 0xE8B SWAP1 PUSH2 0x1F43 JUMP JUMPDEST PUSH1 0x40 MLOAD DUP1 SWAP2 SUB SWAP1 REVERT JUMPDEST PUSH32 0x8BED02C4D61E56ED1D90657E7A0BA48F15CCA20FCC2899D7235221B2CB0423A6 CALLER DUP4 DUP4 PUSH1 0x40 MLOAD PUSH2 0xEC7 SWAP4 SWAP3 SWAP2 SWAP1 PUSH2 0x1F61 JUMP JUMPDEST PUSH1 0x40 MLOAD DUP1 SWAP2 SUB SWAP1 LOG1 POP POP JUMP JUMPDEST DUP1 PUSH1 0x1 PUSH0 CALLER PUSH20 0xFFFFFFFFFFFFFFFFFFFFFFFFFFFFFFFFFFFFFFFF AND PUSH20 0xFFFFFFFFFFFFFFFFFFFFFFFFFFFFFFFFFFFFFFFF AND DUP2 MSTORE PUSH1 0x20 ADD SWAP1 DUP2 MSTORE PUSH1 0x20 ADD PUSH0 KECCAK256 PUSH0 ADD DUP2 SWAP1 SSTORE POP NUMBER PUSH1 0x1 PUSH0 CALLER PUSH20 0xFFFFFFFFFFFFFFFFFFFFFFFFFFFFFFFFFFFFFFFF AND PUSH20 0xFFFFFFFFFFFFFFFFFFFFFFFFFFFFFFFFFFFFFFFF AND DUP2 MSTORE PUSH1 0x20 ADD SWAP1 DUP2 MSTORE PUSH1 0x20 ADD PUSH0 KECCAK256 PUSH1 0x1 ADD PUSH0 PUSH2 0x100 EXP DUP2 SLOAD DUP2 PUSH8 0xFFFFFFFFFFFFFFFF MUL NOT AND SWAP1 DUP4 PUSH8 0xFFFFFFFFFFFFFFFF AND MUL OR SWAP1 SSTORE POP PUSH0 PUSH1 0x1 PUSH0 CALLER PUSH20 0xFFFFFFFFFFFFFFFFFFFFFFFFFFFFFFFFFFFFFFFF AND PUSH20 0xFFFFFFFFFFFFFFFFFFFFFFFFFFFFFFFFFFFFFFFF AND DUP2 MSTORE PUSH1 0x20 ADD SWAP1 DUP2 MSTORE PUSH1 0x20 ADD PUSH0 KECCAK256 PUSH1 0x1 ADD PUSH1 0x8 PUSH2 0x100 EXP DUP2 SLOAD DUP2 PUSH1 0xFF MUL NOT AND SWAP1 DUP4 ISZERO ISZERO MUL OR SWAP1 SSTORE POP PUSH32 0x3C1A1F8F38335B17F751C6DA4BA7D1865F26B3997535176F5080DE9FAD891603 CALLER PUSH1 0x1 PUSH0 CALLER PUSH20 0xFFFFFFFFFFFFFFFFFFFFFFFFFFFFFFFFFFFFFFFF AND PUSH20 0xFFFFFFFFFFFFFFFFFFFFFFFFFFFFFFFFFFFFFFFF AND DUP2 MSTORE PUSH1 0x20 ADD SWAP1 DUP2 MSTORE PUSH1 0x20 ADD PUSH0 KECCAK256 PUSH0 ADD SLOAD PUSH1 0x1 PUSH0 CALLER PUSH20 0xFFFFFFFFFFFFFFFFFFFFFFFFFFFFFFFFFFFFFFFF AND PUSH20 0xFFFFFFFFFFFFFFFFFFFFFFFFFFFFFFFFFFFFFFFF AND DUP2 MSTORE PUSH1 0x20 ADD SWAP1 DUP2 MSTORE PUSH1 0x20 ADD PUSH0 KECCAK256 PUSH1 0x1 ADD PUSH0 SWAP1 SLOAD SWAP1 PUSH2 0x100 EXP SWAP1 DIV PUSH8 0xFFFFFFFFFFFFFFFF AND PUSH1 0x40 MLOAD PUSH2 0x109A SWAP4 SWAP3 SWAP2 SWAP1 PUSH2 0x1F96 JUMP JUMPDEST PUSH1 0x40 MLOAD DUP1 SWAP2 SUB SWAP1 LOG1 POP JUMP JUMPDEST PUSH0 PUSH1 0x4 PUSH0 DUP1 DUP2 MSTORE PUSH1 0x20 ADD SWAP1 DUP2 MSTORE PUSH1 0x20 ADD PUSH0 KECCAK256 PUSH0 ADD SLOAD SWAP1 POP PUSH0 PUSH1 0x4 PUSH0 PUSH1 0x1 DUP2 MSTORE PUSH1 0x20 ADD SWAP1 DUP2 MSTORE PUSH1 0x20 ADD PUSH0 KECCAK256 PUSH0 ADD SLOAD SWAP1 POP PUSH0 PUSH1 0x4 PUSH0 DUP1 DUP2 MSTORE PUSH1 0x20 ADD SWAP1 DUP2 MSTORE PUSH1 0x20 ADD PUSH0 KECCAK256 PUSH1 0x1 ADD PUSH0 SWAP1 SLOAD SWAP1 PUSH2 0x100 EXP SWAP1 DIV PUSH20 0xFFFFFFFFFFFFFFFFFFFFFFFFFFFFFFFFFFFFFFFF AND SWAP1 POP PUSH0 PUSH1 0x4 PUSH0 PUSH1 0x1 DUP2 MSTORE PUSH1 0x20 ADD SWAP1 DUP2 MSTORE PUSH1 0x20 ADD PUSH0 KECCAK256 PUSH1 0x1 ADD PUSH0 SWAP1 SLOAD SWAP1 PUSH2 0x100 EXP SWAP1 DIV PUSH20 0xFFFFFFFFFFFFFFFFFFFFFFFFFFFFFFFFFFFFFFFF AND SWAP1 POP DUP3 PUSH1 0x3 PUSH1 0x1 DUP7 PUSH2 0x1153 SWAP2 SWAP1 PUSH2 0x1817 JUMP JUMPDEST PUSH2 0x115D SWAP2 SWAP1 PUSH2 0x1DA4 JUMP JUMPDEST SUB PUSH2 0x11AD JUMPI DUP1 PUSH20 0xFFFFFFFFFFFFFFFFFFFFFFFFFFFFFFFFFFFFFFFF AND PUSH2 0x8FC PUSH1 0x3 SLOAD SWAP1 DUP2 ISZERO MUL SWAP1 PUSH1 0x40 MLOAD PUSH0 PUSH1 0x40 MLOAD DUP1 DUP4 SUB DUP2 DUP6 DUP9 DUP9 CALL SWAP4 POP POP POP POP ISZERO DUP1 ISZERO PUSH2 0x11A7 JUMPI RETURNDATASIZE PUSH0 DUP1 RETURNDATACOPY RETURNDATASIZE PUSH0 REVERT JUMPDEST POP PUSH2 0x12BD JUMP JUMPDEST DUP4 PUSH1 0x3 PUSH1 0x1 DUP6 PUSH2 0x11BD SWAP2 SWAP1 PUSH2 0x1817 JUMP JUMPDEST PUSH2 0x11C7 SWAP2 SWAP1 PUSH2 0x1DA4 JUMP JUMPDEST SUB PUSH2 0x1217 JUMPI DUP2 PUSH20 0xFFFFFFFFFFFFFFFFFFFFFFFFFFFFFFFFFFFFFFFF AND PUSH2 0x8FC PUSH1 0x3 SLOAD SWAP1 DUP2 ISZERO MUL SWAP1 PUSH1 0x40 MLOAD PUSH0 PUSH1 0x40 MLOAD DUP1 DUP4 SUB DUP2 DUP6 DUP9 DUP9 CALL SWAP4 POP POP POP POP ISZERO DUP1 ISZERO PUSH2 0x1211 JUMPI RETURNDATASIZE PUSH0 DUP1 RETURNDATACOPY RETURNDATASIZE PUSH0 REVERT JUMPDEST POP PUSH2 0x12BC JUMP JUMPDEST DUP2 PUSH20 0xFFFFFFFFFFFFFFFFFFFFFFFFFFFFFFFFFFFFFFFF AND PUSH2 0x8FC PUSH1 0x2 PUSH1 0x3 SLOAD PUSH2 0x1240 SWAP2 SWAP1 PUSH2 0x1FCB JUMP JUMPDEST SWAP1 DUP2 ISZERO MUL SWAP1 PUSH1 0x40 MLOAD PUSH0 PUSH1 0x40 MLOAD DUP1 DUP4 SUB DUP2 DUP6 DUP9 DUP9 CALL SWAP4 POP POP POP POP ISZERO DUP1 ISZERO PUSH2 0x1268 JUMPI RETURNDATASIZE PUSH0 DUP1 RETURNDATACOPY RETURNDATASIZE PUSH0 REVERT JUMPDEST POP DUP1 PUSH20 0xFFFFFFFFFFFFFFFFFFFFFFFFFFFFFFFFFFFFFFFF AND PUSH2 0x8FC PUSH1 0x2 PUSH1 0x3 SLOAD PUSH2 0x1292 SWAP2 SWAP1 PUSH2 0x1FCB JUMP JUMPDEST SWAP1 DUP2 ISZERO MUL SWAP1 PUSH1 0x40 MLOAD PUSH0 PUSH1 0x40 MLOAD DUP1 DUP4 SUB DUP2 DUP6 DUP9 DUP9 CALL SWAP4 POP POP POP POP ISZERO DUP1 ISZERO PUSH2 0x12BA JUMPI RETURNDATASIZE PUSH0 DUP1 RETURNDATACOPY RETURNDATASIZE PUSH0 REVERT JUMPDEST POP JUMPDEST JUMPDEST POP POP POP POP JUMP JUMPDEST PUSH0 PUSH1 0x2 DUP2 SWAP1 SSTORE POP PUSH0 PUSH1 0x3 DUP2 SWAP1 SSTORE POP PUSH0 PUSH1 0x5 DUP2 SWAP1 SSTORE POP PUSH0 PUSH1 0x6 DUP2 SWAP1 SSTORE POP JUMP JUMPDEST PUSH0 DUP2 SWAP1 POP SWAP2 SWAP1 POP JUMP JUMPDEST PUSH2 0x12F3 DUP2 PUSH2 0x12E1 JUMP JUMPDEST DUP3 MSTORE POP POP JUMP JUMPDEST PUSH0 PUSH1 0x20 DUP3 ADD SWAP1 POP PUSH2 0x130C PUSH0 DUP4 ADD DUP5 PUSH2 0x12EA JUMP JUMPDEST SWAP3 SWAP2 POP POP JUMP JUMPDEST PUSH0 PUSH1 0x40 MLOAD SWAP1 POP SWAP1 JUMP JUMPDEST PUSH0 DUP1 REVERT JUMPDEST PUSH0 DUP1 REVERT JUMPDEST PUSH0 DUP2 SWAP1 POP SWAP2 SWAP1 POP JUMP JUMPDEST PUSH2 0x1335 DUP2 PUSH2 0x1323 JUMP JUMPDEST DUP2 EQ PUSH2 0x133F JUMPI PUSH0 DUP1 REVERT JUMPDEST POP JUMP JUMPDEST PUSH0 DUP2 CALLDATALOAD SWAP1 POP PUSH2 0x1350 DUP2 PUSH2 0x132C JUMP JUMPDEST SWAP3 SWAP2 POP POP JUMP JUMPDEST PUSH0 PUSH1 0x20 DUP3 DUP5 SUB SLT ISZERO PUSH2 0x136B JUMPI PUSH2 0x136A PUSH2 0x131B JUMP JUMPDEST JUMPDEST PUSH0 PUSH2 0x1378 DUP5 DUP3 DUP6 ADD PUSH2 0x1342 JUMP JUMPDEST SWAP2 POP POP SWAP3 SWAP2 POP POP JUMP JUMPDEST PUSH2 0x138A DUP2 PUSH2 0x1323 JUMP JUMPDEST DUP3 MSTORE POP POP JUMP JUMPDEST PUSH0 PUSH1 0x20 DUP3 ADD SWAP1 POP PUSH2 0x13A3 PUSH0 DUP4 ADD DUP5 PUSH2 0x1381 JUMP JUMPDEST SWAP3 SWAP2 POP POP JUMP JUMPDEST PUSH2 0x13B2 DUP2 PUSH2 0x12E1 JUMP JUMPDEST DUP2 EQ PUSH2 0x13BC JUMPI PUSH0 DUP1 REVERT JUMPDEST POP JUMP JUMPDEST PUSH0 DUP2 CALLDATALOAD SWAP1 POP PUSH2 0x13CD DUP2 PUSH2 0x13A9 JUMP JUMPDEST SWAP3 SWAP2 POP POP JUMP JUMPDEST PUSH0 DUP1 REVERT JUMPDEST PUSH0 DUP1 REVERT JUMPDEST PUSH0 PUSH1 0x1F NOT PUSH1 0x1F DUP4 ADD AND SWAP1 POP SWAP2 SWAP1 POP JUMP JUMPDEST PUSH32 0x4E487B7100000000000000000000000000000000000000000000000000000000 PUSH0 MSTORE PUSH1 0x41 PUSH1 0x4 MSTORE PUSH1 0x24 PUSH0 REVERT JUMPDEST PUSH2 0x1421 DUP3 PUSH2 0x13DB JUMP JUMPDEST DUP2 ADD DUP2 DUP2 LT PUSH8 0xFFFFFFFFFFFFFFFF DUP3 GT OR ISZERO PUSH2 0x1440 JUMPI PUSH2 0x143F PUSH2 0x13EB JUMP JUMPDEST JUMPDEST DUP1 PUSH1 0x40 MSTORE POP POP POP JUMP JUMPDEST PUSH0 PUSH2 0x1452 PUSH2 0x1312 JUMP JUMPDEST SWAP1 POP PUSH2 0x145E DUP3 DUP3 PUSH2 0x1418 JUMP JUMPDEST SWAP2 SWAP1 POP JUMP JUMPDEST PUSH0 PUSH8 0xFFFFFFFFFFFFFFFF DUP3 GT ISZERO PUSH2 0x147D JUMPI PUSH2 0x147C PUSH2 0x13EB JUMP JUMPDEST JUMPDEST PUSH2 0x1486 DUP3 PUSH2 0x13DB JUMP JUMPDEST SWAP1 POP PUSH1 0x20 DUP2 ADD SWAP1 POP SWAP2 SWAP1 POP JUMP JUMPDEST DUP3 DUP2 DUP4 CALLDATACOPY PUSH0 DUP4 DUP4 ADD MSTORE POP POP POP JUMP JUMPDEST PUSH0 PUSH2 0x14B3 PUSH2 0x14AE DUP5 PUSH2 0x1463 JUMP JUMPDEST PUSH2 0x1449 JUMP JUMPDEST SWAP1 POP DUP3 DUP2 MSTORE PUSH1 0x20 DUP2 ADD DUP5 DUP5 DUP5 ADD GT ISZERO PUSH2 0x14CF JUMPI PUSH2 0x14CE PUSH2 0x13D7 JUMP JUMPDEST JUMPDEST PUSH2 0x14DA DUP5 DUP3 DUP6 PUSH2 0x1493 JUMP JUMPDEST POP SWAP4 SWAP3 POP POP POP JUMP JUMPDEST PUSH0 DUP3 PUSH1 0x1F DUP4 ADD SLT PUSH2 0x14F6 JUMPI PUSH2 0x14F5 PUSH2 0x13D3 JUMP JUMPDEST JUMPDEST DUP2 CALLDATALOAD PUSH2 0x1506 DUP5 DUP3 PUSH1 0x20 DUP7 ADD PUSH2 0x14A1 JUMP JUMPDEST SWAP2 POP POP SWAP3 SWAP2 POP POP JUMP JUMPDEST PUSH0 DUP1 PUSH0 PUSH1 0x60 DUP5 DUP7 SUB SLT ISZERO PUSH2 0x1526 JUMPI PUSH2 0x1525 PUSH2 0x131B JUMP JUMPDEST JUMPDEST PUSH0 PUSH2 0x1533 DUP7 DUP3 DUP8 ADD PUSH2 0x13BF JUMP JUMPDEST SWAP4 POP POP PUSH1 0x20 PUSH2 0x1544 DUP7 DUP3 DUP8 ADD PUSH2 0x13BF JUMP JUMPDEST SWAP3 POP POP PUSH1 0x40 DUP5 ADD CALLDATALOAD PUSH8 0xFFFFFFFFFFFFFFFF DUP2 GT ISZERO PUSH2 0x1565 JUMPI PUSH2 0x1564 PUSH2 0x131F JUMP JUMPDEST JUMPDEST PUSH2 0x1571 DUP7 DUP3 DUP8 ADD PUSH2 0x14E2 JUMP JUMPDEST SWAP2 POP POP SWAP3 POP SWAP3 POP SWAP3 JUMP JUMPDEST PUSH0 PUSH1 0xFF DUP3 AND SWAP1 POP SWAP2 SWAP1 POP JUMP JUMPDEST PUSH2 0x1590 DUP2 PUSH2 0x157B JUMP JUMPDEST DUP3 MSTORE POP POP JUMP JUMPDEST PUSH0 PUSH1 0x20 DUP3 ADD SWAP1 POP PUSH2 0x15A9 PUSH0 DUP4 ADD DUP5 PUSH2 0x1587 JUMP JUMPDEST SWAP3 SWAP2 POP POP JUMP JUMPDEST PUSH0 PUSH20 0xFFFFFFFFFFFFFFFFFFFFFFFFFFFFFFFFFFFFFFFF DUP3 AND SWAP1 POP SWAP2 SWAP1 POP JUMP JUMPDEST PUSH0 PUSH2 0x15D8 DUP3 PUSH2 0x15AF JUMP JUMPDEST SWAP1 POP SWAP2 SWAP1 POP JUMP JUMPDEST PUSH2 0x15E8 DUP2 PUSH2 0x15CE JUMP JUMPDEST DUP2 EQ PUSH2 0x15F2 JUMPI PUSH0 DUP1 REVERT JUMPDEST POP JUMP JUMPDEST PUSH0 DUP2 CALLDATALOAD SWAP1 POP PUSH2 0x1603 DUP2 PUSH2 0x15DF JUMP JUMPDEST SWAP3 SWAP2 POP POP JUMP JUMPDEST PUSH0 PUSH1 0x20 DUP3 DUP5 SUB SLT ISZERO PUSH2 0x161E JUMPI PUSH2 0x161D PUSH2 0x131B JUMP JUMPDEST JUMPDEST PUSH0 PUSH2 0x162B DUP5 DUP3 DUP6 ADD PUSH2 0x15F5 JUMP JUMPDEST SWAP2 POP POP SWAP3 SWAP2 POP POP JUMP JUMPDEST PUSH0 PUSH8 0xFFFFFFFFFFFFFFFF DUP3 AND SWAP1 POP SWAP2 SWAP1 POP JUMP JUMPDEST PUSH2 0x1650 DUP2 PUSH2 0x1634 JUMP JUMPDEST DUP3 MSTORE POP POP JUMP JUMPDEST PUSH0 DUP2 ISZERO ISZERO SWAP1 POP SWAP2 SWAP1 POP JUMP JUMPDEST PUSH2 0x166A DUP2 PUSH2 0x1656 JUMP JUMPDEST DUP3 MSTORE POP POP JUMP JUMPDEST PUSH0 PUSH1 0x60 DUP3 ADD SWAP1 POP PUSH2 0x1683 PUSH0 DUP4 ADD DUP7 PUSH2 0x1381 JUMP JUMPDEST PUSH2 0x1690 PUSH1 0x20 DUP4 ADD DUP6 PUSH2 0x1647 JUMP JUMPDEST PUSH2 0x169D PUSH1 0x40 DUP4 ADD DUP5 PUSH2 0x1661 JUMP JUMPDEST SWAP5 SWAP4 POP POP POP POP JUMP JUMPDEST PUSH0 DUP1 PUSH1 0x40 DUP4 DUP6 SUB SLT ISZERO PUSH2 0x16BB JUMPI PUSH2 0x16BA PUSH2 0x131B JUMP JUMPDEST JUMPDEST PUSH0 PUSH2 0x16C8 DUP6 DUP3 DUP7 ADD PUSH2 0x1342 JUMP JUMPDEST SWAP3 POP POP PUSH1 0x20 PUSH2 0x16D9 DUP6 DUP3 DUP7 ADD PUSH2 0x1342 JUMP JUMPDEST SWAP2 POP POP SWAP3 POP SWAP3 SWAP1 POP JUMP JUMPDEST PUSH0 PUSH1 0x20 DUP3 DUP5 SUB SLT ISZERO PUSH2 0x16F8 JUMPI PUSH2 0x16F7 PUSH2 0x131B JUMP JUMPDEST JUMPDEST PUSH0 PUSH2 0x1705 DUP5 DUP3 DUP6 ADD PUSH2 0x13BF JUMP JUMPDEST SWAP2 POP POP SWAP3 SWAP2 POP POP JUMP JUMPDEST PUSH2 0x1717 DUP2 PUSH2 0x15CE JUMP JUMPDEST DUP3 MSTORE POP POP JUMP JUMPDEST PUSH0 PUSH1 0x60 DUP3 ADD SWAP1 POP PUSH2 0x1730 PUSH0 DUP4 ADD DUP7 PUSH2 0x12EA JUMP JUMPDEST PUSH2 0x173D PUSH1 0x20 DUP4 ADD DUP6 PUSH2 0x170E JUMP JUMPDEST PUSH2 0x174A PUSH1 0x40 DUP4 ADD DUP5 PUSH2 0x1661 JUMP JUMPDEST SWAP5 SWAP4 POP POP POP POP JUMP JUMPDEST PUSH0 DUP1 PUSH1 0x40 DUP4 DUP6 SUB SLT ISZERO PUSH2 0x1768 JUMPI PUSH2 0x1767 PUSH2 0x131B JUMP JUMPDEST JUMPDEST PUSH0 PUSH2 0x1775 DUP6 DUP3 DUP7 ADD PUSH2 0x13BF JUMP JUMPDEST SWAP3 POP POP PUSH1 0x20 DUP4 ADD CALLDATALOAD PUSH8 0xFFFFFFFFFFFFFFFF DUP2 GT ISZERO PUSH2 0x1796 JUMPI PUSH2 0x1795 PUSH2 0x131F JUMP JUMPDEST JUMPDEST PUSH2 0x17A2 DUP6 DUP3 DUP7 ADD PUSH2 0x14E2 JUMP JUMPDEST SWAP2 POP POP SWAP3 POP SWAP3 SWAP1 POP JUMP JUMPDEST PUSH0 DUP1 PUSH1 0x40 DUP4 DUP6 SUB SLT ISZERO PUSH2 0x17C2 JUMPI PUSH2 0x17C1 PUSH2 0x131B JUMP JUMPDEST JUMPDEST PUSH0 PUSH2 0x17CF DUP6 DUP3 DUP7 ADD PUSH2 0x1342 JUMP JUMPDEST SWAP3 POP POP PUSH1 0x20 PUSH2 0x17E0 DUP6 DUP3 DUP7 ADD PUSH2 0x13BF JUMP JUMPDEST SWAP2 POP POP SWAP3 POP SWAP3 SWAP1 POP JUMP JUMPDEST PUSH32 0x4E487B7100000000000000000000000000000000000000000000000000000000 PUSH0 MSTORE PUSH1 0x11 PUSH1 0x4 MSTORE PUSH1 0x24 PUSH0 REVERT JUMPDEST PUSH0 PUSH2 0x1821 DUP3 PUSH2 0x12E1 JUMP JUMPDEST SWAP2 POP PUSH2 0x182C DUP4 PUSH2 0x12E1 JUMP JUMPDEST SWAP3 POP DUP3 DUP3 ADD SWAP1 POP DUP1 DUP3 GT ISZERO PUSH2 0x1844 JUMPI PUSH2 0x1843 PUSH2 0x17EA JUMP JUMPDEST JUMPDEST SWAP3 SWAP2 POP POP JUMP JUMPDEST PUSH0 PUSH2 0x1854 DUP3 PUSH2 0x12E1 JUMP JUMPDEST SWAP2 POP PUSH32 0xFFFFFFFFFFFFFFFFFFFFFFFFFFFFFFFFFFFFFFFFFFFFFFFFFFFFFFFFFFFFFFFF DUP3 SUB PUSH2 0x1886 JUMPI PUSH2 0x1885 PUSH2 0x17EA JUMP JUMPDEST JUMPDEST PUSH1 0x1 DUP3 ADD SWAP1 POP SWAP2 SWAP1 POP JUMP JUMPDEST PUSH0 PUSH1 0x40 DUP3 ADD SWAP1 POP PUSH2 0x18A4 PUSH0 DUP4 ADD DUP6 PUSH2 0x170E JUMP JUMPDEST PUSH2 0x18B1 PUSH1 0x20 DUP4 ADD DUP5 PUSH2 0x12EA JUMP JUMPDEST SWAP4 SWAP3 POP POP POP JUMP JUMPDEST PUSH0 DUP2 PUSH1 0x60 SHL SWAP1 POP SWAP2 SWAP1 POP JUMP JUMPDEST PUSH0 PUSH2 0x18CE DUP3 PUSH2 0x18B8 JUMP JUMPDEST SWAP1 POP SWAP2 SWAP1 POP JUMP JUMPDEST PUSH0 PUSH2 0x18DF DUP3 PUSH2 0x18C4 JUMP JUMPDEST SWAP1 POP SWAP2 SWAP1 POP JUMP JUMPDEST PUSH2 0x18F7 PUSH2 0x18F2 DUP3 PUSH2 0x15CE JUMP JUMPDEST PUSH2 0x18D5 JUMP JUMPDEST DUP3 MSTORE POP POP JUMP JUMPDEST PUSH0 DUP2 SWAP1 POP SWAP2 SWAP1 POP JUMP JUMPDEST PUSH2 0x1917 PUSH2 0x1912 DUP3 PUSH2 0x1323 JUMP JUMPDEST PUSH2 0x18FD JUMP JUMPDEST DUP3 MSTORE POP POP JUMP JUMPDEST PUSH0 PUSH2 0x1928 DUP3 DUP6 PUSH2 0x18E6 JUMP JUMPDEST PUSH1 0x14 DUP3 ADD SWAP2 POP PUSH2 0x1938 DUP3 DUP5 PUSH2 0x1906 JUMP JUMPDEST PUSH1 0x20 DUP3 ADD SWAP2 POP DUP2 SWAP1 POP SWAP4 SWAP3 POP POP POP JUMP JUMPDEST PUSH0 DUP2 MLOAD SWAP1 POP SWAP2 SWAP1 POP JUMP JUMPDEST PUSH0 DUP2 SWAP1 POP SWAP3 SWAP2 POP POP JUMP JUMPDEST PUSH0 JUMPDEST DUP4 DUP2 LT ISZERO PUSH2 0x1979 JUMPI DUP1 DUP3 ADD MLOAD DUP2 DUP5 ADD MSTORE PUSH1 0x20 DUP2 ADD SWAP1 POP PUSH2 0x195E JUMP JUMPDEST PUSH0 DUP5 DUP5 ADD MSTORE POP POP POP POP JUMP JUMPDEST PUSH0 PUSH2 0x198E DUP3 PUSH2 0x1948 JUMP JUMPDEST PUSH2 0x1998 DUP2 DUP6 PUSH2 0x1952 JUMP JUMPDEST SWAP4 POP PUSH2 0x19A8 DUP2 DUP6 PUSH1 0x20 DUP7 ADD PUSH2 0x195C JUMP JUMPDEST DUP1 DUP5 ADD SWAP2 POP POP SWAP3 SWAP2 POP POP JUMP JUMPDEST PUSH0 PUSH2 0x19BF DUP3 DUP5 PUSH2 0x1984 JUMP JUMPDEST SWAP2 POP DUP2 SWAP1 POP SWAP3 SWAP2 POP POP JUMP JUMPDEST PUSH0 DUP2 MLOAD SWAP1 POP SWAP2 SWAP1 POP JUMP JUMPDEST PUSH0 DUP2 SWAP1 POP PUSH1 0x20 DUP3 ADD SWAP1 POP SWAP2 SWAP1 POP JUMP JUMPDEST PUSH0 PUSH2 0x19EE DUP3 MLOAD PUSH2 0x1323 JUMP JUMPDEST DUP1 SWAP2 POP POP SWAP2 SWAP1 POP JUMP JUMPDEST PUSH0 DUP3 DUP3 SHL SWAP1 POP SWAP3 SWAP2 POP POP JUMP JUMPDEST PUSH0 PUSH2 0x1A0D DUP3 PUSH2 0x19CA JUMP JUMPDEST DUP3 PUSH2 0x1A17 DUP5 PUSH2 0x19D4 JUMP JUMPDEST SWAP1 POP PUSH2 0x1A22 DUP2 PUSH2 0x19E3 JUMP JUMPDEST SWAP3 POP PUSH1 0x20 DUP3 LT ISZERO PUSH2 0x1A62 JUMPI PUSH2 0x1A5D PUSH32 0xFFFFFFFFFFFFFFFFFFFFFFFFFFFFFFFFFFFFFFFFFFFFFFFFFFFFFFFFFFFFFFFF DUP4 PUSH1 0x20 SUB PUSH1 0x8 MUL PUSH2 0x19F7 JUMP JUMPDEST DUP4 AND SWAP3 POP JUMPDEST POP POP SWAP2 SWAP1 POP JUMP JUMPDEST PUSH0 DUP2 SWAP1 POP SWAP2 SWAP1 POP JUMP JUMPDEST PUSH2 0x1A83 PUSH2 0x1A7E DUP3 PUSH2 0x12E1 JUMP JUMPDEST PUSH2 0x1A69 JUMP JUMPDEST DUP3 MSTORE POP POP JUMP JUMPDEST PUSH0 PUSH2 0x1A94 DUP3 DUP5 PUSH2 0x1A72 JUMP JUMPDEST PUSH1 0x20 DUP3 ADD SWAP2 POP DUP2 SWAP1 POP SWAP3 SWAP2 POP POP JUMP JUMPDEST PUSH0 DUP3 DUP3 MSTORE PUSH1 0x20 DUP3 ADD SWAP1 POP SWAP3 SWAP2 POP POP JUMP JUMPDEST PUSH32 0x436F6D6D697452657665616C3A3A72657665616C3A20416C7265616479207265 PUSH0 DUP3 ADD MSTORE PUSH32 0x7665616C65640000000000000000000000000000000000000000000000000000 PUSH1 0x20 DUP3 ADD MSTORE POP JUMP JUMPDEST PUSH0 PUSH2 0x1B0D PUSH1 0x26 DUP4 PUSH2 0x1AA3 JUMP JUMPDEST SWAP2 POP PUSH2 0x1B18 DUP3 PUSH2 0x1AB3 JUMP JUMPDEST PUSH1 0x40 DUP3 ADD SWAP1 POP SWAP2 SWAP1 POP JUMP JUMPDEST PUSH0 PUSH1 0x20 DUP3 ADD SWAP1 POP DUP2 DUP2 SUB PUSH0 DUP4 ADD MSTORE PUSH2 0x1B3A DUP2 PUSH2 0x1B01 JUMP JUMPDEST SWAP1 POP SWAP2 SWAP1 POP JUMP JUMPDEST PUSH32 0x436F6D6D697452657665616C3A3A72657665616C3A2052657665616C65642068 PUSH0 DUP3 ADD MSTORE PUSH32 0x61736820646F6573206E6F74206D6174636820636F6D6D697400000000000000 PUSH1 0x20 DUP3 ADD MSTORE POP JUMP JUMPDEST PUSH0 PUSH2 0x1B9B PUSH1 0x39 DUP4 PUSH2 0x1AA3 JUMP JUMPDEST SWAP2 POP PUSH2 0x1BA6 DUP3 PUSH2 0x1B41 JUMP JUMPDEST PUSH1 0x40 DUP3 ADD SWAP1 POP SWAP2 SWAP1 POP JUMP JUMPDEST PUSH0 PUSH1 0x20 DUP3 ADD SWAP1 POP DUP2 DUP2 SUB PUSH0 DUP4 ADD MSTORE PUSH2 0x1BC8 DUP2 PUSH2 0x1B8F JUMP JUMPDEST SWAP1 POP SWAP2 SWAP1 POP JUMP JUMPDEST PUSH32 0x436F6D6D697452657665616C3A3A72657665616C3A2052657665616C20616E64 PUSH0 DUP3 ADD MSTORE PUSH32 0x20636F6D6D69742068617070656E6564206F6E207468652073616D6520626C6F PUSH1 0x20 DUP3 ADD MSTORE PUSH32 0x636B000000000000000000000000000000000000000000000000000000000000 PUSH1 0x40 DUP3 ADD MSTORE POP JUMP JUMPDEST PUSH0 PUSH2 0x1C4F PUSH1 0x42 DUP4 PUSH2 0x1AA3 JUMP JUMPDEST SWAP2 POP PUSH2 0x1C5A DUP3 PUSH2 0x1BCF JUMP JUMPDEST PUSH1 0x60 DUP3 ADD SWAP1 POP SWAP2 SWAP1 POP JUMP JUMPDEST PUSH0 PUSH1 0x20 DUP3 ADD SWAP1 POP DUP2 DUP2 SUB PUSH0 DUP4 ADD MSTORE PUSH2 0x1C7C DUP2 PUSH2 0x1C43 JUMP JUMPDEST SWAP1 POP SWAP2 SWAP1 POP JUMP JUMPDEST PUSH0 PUSH2 0x1C8D DUP3 PUSH2 0x1634 JUMP JUMPDEST SWAP2 POP PUSH2 0x1C98 DUP4 PUSH2 0x1634 JUMP JUMPDEST SWAP3 POP DUP3 DUP3 ADD SWAP1 POP PUSH8 0xFFFFFFFFFFFFFFFF DUP2 GT ISZERO PUSH2 0x1CB8 JUMPI PUSH2 0x1CB7 PUSH2 0x17EA JUMP JUMPDEST JUMPDEST SWAP3 SWAP2 POP POP JUMP JUMPDEST PUSH32 0x436F6D6D697452657665616C3A3A72657665616C3A2052657665616C65642074 PUSH0 DUP3 ADD MSTORE PUSH32 0x6F6F206C61746500000000000000000000000000000000000000000000000000 PUSH1 0x20 DUP3 ADD MSTORE POP JUMP JUMPDEST PUSH0 PUSH2 0x1D18 PUSH1 0x27 DUP4 PUSH2 0x1AA3 JUMP JUMPDEST SWAP2 POP PUSH2 0x1D23 DUP3 PUSH2 0x1CBE JUMP JUMPDEST PUSH1 0x40 DUP3 ADD SWAP1 POP SWAP2 SWAP1 POP JUMP JUMPDEST PUSH0 PUSH1 0x20 DUP3 ADD SWAP1 POP DUP2 DUP2 SUB PUSH0 DUP4 ADD MSTORE PUSH2 0x1D45 DUP2 PUSH2 0x1D0C JUMP JUMPDEST SWAP1 POP SWAP2 SWAP1 POP JUMP JUMPDEST PUSH0 PUSH2 0x1D57 DUP3 DUP6 PUSH2 0x1906 JUMP JUMPDEST PUSH1 0x20 DUP3 ADD SWAP2 POP PUSH2 0x1D67 DUP3 DUP5 PUSH2 0x1906 JUMP JUMPDEST PUSH1 0x20 DUP3 ADD SWAP2 POP DUP2 SWAP1 POP SWAP4 SWAP3 POP POP POP JUMP JUMPDEST PUSH32 0x4E487B7100000000000000000000000000000000000000000000000000000000 PUSH0 MSTORE PUSH1 0x12 PUSH1 0x4 MSTORE PUSH1 0x24 PUSH0 REVERT JUMPDEST PUSH0 PUSH2 0x1DAE DUP3 PUSH2 0x12E1 JUMP JUMPDEST SWAP2 POP PUSH2 0x1DB9 DUP4 PUSH2 0x12E1 JUMP JUMPDEST SWAP3 POP DUP3 PUSH2 0x1DC9 JUMPI PUSH2 0x1DC8 PUSH2 0x1D77 JUMP JUMPDEST JUMPDEST DUP3 DUP3 MOD SWAP1 POP SWAP3 SWAP2 POP POP JUMP JUMPDEST PUSH0 PUSH1 0x60 DUP3 ADD SWAP1 POP PUSH2 0x1DE7 PUSH0 DUP4 ADD DUP7 PUSH2 0x170E JUMP JUMPDEST PUSH2 0x1DF4 PUSH1 0x20 DUP4 ADD DUP6 PUSH2 0x1381 JUMP JUMPDEST PUSH2 0x1E01 PUSH1 0x40 DUP4 ADD DUP5 PUSH2 0x12EA JUMP JUMPDEST SWAP5 SWAP4 POP POP POP POP JUMP JUMPDEST PUSH0 PUSH2 0x1E14 DUP3 DUP7 PUSH2 0x18E6 JUMP JUMPDEST PUSH1 0x14 DUP3 ADD SWAP2 POP PUSH2 0x1E24 DUP3 DUP6 PUSH2 0x1906 JUMP JUMPDEST PUSH1 0x20 DUP3 ADD SWAP2 POP PUSH2 0x1E34 DUP3 DUP5 PUSH2 0x1906 JUMP JUMPDEST PUSH1 0x20 DUP3 ADD SWAP2 POP DUP2 SWAP1 POP SWAP5 SWAP4 POP POP POP POP JUMP JUMPDEST PUSH32 0x436F6D6D697452657665616C3A3A72657665616C416E737765723A20416C7265 PUSH0 DUP3 ADD MSTORE PUSH32 0x6164792072657665616C65640000000000000000000000000000000000000000 PUSH1 0x20 DUP3 ADD MSTORE POP JUMP JUMPDEST PUSH0 PUSH2 0x1E9F PUSH1 0x2C DUP4 PUSH2 0x1AA3 JUMP JUMPDEST SWAP2 POP PUSH2 0x1EAA DUP3 PUSH2 0x1E45 JUMP JUMPDEST PUSH1 0x40 DUP3 ADD SWAP1 POP SWAP2 SWAP1 POP JUMP JUMPDEST PUSH0 PUSH1 0x20 DUP3 ADD SWAP1 POP DUP2 DUP2 SUB PUSH0 DUP4 ADD MSTORE PUSH2 0x1ECC DUP2 PUSH2 0x1E93 JUMP JUMPDEST SWAP1 POP SWAP2 SWAP1 POP JUMP JUMPDEST PUSH32 0x436F6D6D697452657665616C3A3A72657665616C416E737765723A2052657665 PUSH0 DUP3 ADD MSTORE PUSH32 0x616C6564206861736820646F6573206E6F74206D6174636820636F6D6D697400 PUSH1 0x20 DUP3 ADD MSTORE POP JUMP JUMPDEST PUSH0 PUSH2 0x1F2D PUSH1 0x3F DUP4 PUSH2 0x1AA3 JUMP JUMPDEST SWAP2 POP PUSH2 0x1F38 DUP3 PUSH2 0x1ED3 JUMP JUMPDEST PUSH1 0x40 DUP3 ADD SWAP1 POP SWAP2 SWAP1 POP JUMP JUMPDEST PUSH0 PUSH1 0x20 DUP3 ADD SWAP1 POP DUP2 DUP2 SUB PUSH0 DUP4 ADD MSTORE PUSH2 0x1F5A DUP2 PUSH2 0x1F21 JUMP JUMPDEST SWAP1 POP SWAP2 SWAP1 POP JUMP JUMPDEST PUSH0 PUSH1 0x60 DUP3 ADD SWAP1 POP PUSH2 0x1F74 PUSH0 DUP4 ADD DUP7 PUSH2 0x170E JUMP JUMPDEST PUSH2 0x1F81 PUSH1 0x20 DUP4 ADD DUP6 PUSH2 0x1381 JUMP JUMPDEST PUSH2 0x1F8E PUSH1 0x40 DUP4 ADD DUP5 PUSH2 0x1381 JUMP JUMPDEST SWAP5 SWAP4 POP POP POP POP JUMP JUMPDEST PUSH0 PUSH1 0x60 DUP3 ADD SWAP1 POP PUSH2 0x1FA9 PUSH0 DUP4 ADD DUP7 PUSH2 0x170E JUMP JUMPDEST PUSH2 0x1FB6 PUSH1 0x20 DUP4 ADD DUP6 PUSH2 0x1381 JUMP JUMPDEST PUSH2 0x1FC3 PUSH1 0x40 DUP4 ADD DUP5 PUSH2 0x1647 JUMP JUMPDEST SWAP5 SWAP4 POP POP POP POP JUMP JUMPDEST PUSH0 PUSH2 0x1FD5 DUP3 PUSH2 0x12E1 JUMP JUMPDEST SWAP2 POP PUSH2 0x1FE0 DUP4 PUSH2 0x12E1 JUMP JUMPDEST SWAP3 POP DUP3 PUSH2 0x1FF0 JUMPI PUSH2 0x1FEF PUSH2 0x1D77 JUMP JUMPDEST JUMPDEST DUP3 DUP3 DIV SWAP1 POP SWAP3 SWAP2 POP POP JUMP INVALID LOG2 PUSH5 0x6970667358 0x22 SLT KECCAK256 0xCD STOP LOG0 0x25 0x21 0xCE POP SMOD TLOAD 0xF7 PUSH16 0x29940C8DDDD6B0F410067CAE5DF44F96 0xB3 BLOBHASH BASEFEE 0xAF DUP7 PUSH5 0x736F6C6343 STOP ADDMOD XOR STOP CALLER "
				},
				"gasEstimates": {
					"creation": {
						"codeDepositCost": "1648200",
						"executionCost": "46013",
						"totalCost": "1694213"
					},
					"external": {
						"addPlayer()": "infinite",
						"commit(bytes32)": "infinite",
						"commits(address)": "7459",
						"getBytes32(uint256,string)": "infinite",
						"getHash(bytes32)": "infinite",
						"getSaltedHash(bytes32,bytes32)": "infinite",
						"input(bytes32,uint256)": "infinite",
						"max()": "2508",
						"numInput()": "2449",
						"numPlayer()": "2470",
						"numReveal()": "2514",
						"player(uint256)": "infinite",
						"reveal(bytes32)": "infinite",
						"revealAnswer(bytes32,bytes32)": "infinite",
						"revealChoice(uint256,uint256,string)": "infinite",
						"reward()": "2471"
					},
					"internal": {
						"_checkWinnerAndPay()": "infinite",
						"_reset()": "20061"
					}
				},
				"methodIdentifiers": {
					"addPlayer()": "27b5db8a",
					"commit(bytes32)": "f14fcbc8",
					"commits(address)": "7b43a8e6",
					"getBytes32(uint256,string)": "d09a0a3b",
					"getHash(bytes32)": "3cf5040a",
					"getSaltedHash(bytes32,bytes32)": "8dddbf36",
					"input(bytes32,uint256)": "d1adbd72",
					"max()": "6ac5db19",
					"numInput()": "086f7815",
					"numPlayer()": "90d5d0c3",
					"numReveal()": "c876e615",
					"player(uint256)": "9e0551c6",
					"reveal(bytes32)": "701fd0f1",
					"revealAnswer(bytes32,bytes32)": "de8e9033",
					"revealChoice(uint256,uint256,string)": "5afa1fd8",
					"reward()": "228cb733"
				}
			},
			"storageLayout": {
				"storage": [
					{
						"astId": 4,
						"contract": "RPS.sol:RPS",
						"label": "max",
						"offset": 0,
						"slot": "0",
						"type": "t_uint8"
					},
					{
						"astId": 16,
						"contract": "RPS.sol:RPS",
						"label": "commits",
						"offset": 0,
						"slot": "1",
						"type": "t_mapping(t_address,t_struct(Commit)11_storage)"
					},
					{
						"astId": 296,
						"contract": "RPS.sol:RPS",
						"label": "numPlayer",
						"offset": 0,
						"slot": "2",
						"type": "t_uint256"
					},
					{
						"astId": 299,
						"contract": "RPS.sol:RPS",
						"label": "reward",
						"offset": 0,
						"slot": "3",
						"type": "t_uint256"
					},
					{
						"astId": 304,
						"contract": "RPS.sol:RPS",
						"label": "player",
						"offset": 0,
						"slot": "4",
						"type": "t_mapping(t_uint256,t_struct(Player)293_storage)"
					},
					{
						"astId": 307,
						"contract": "RPS.sol:RPS",
						"label": "numInput",
						"offset": 0,
						"slot": "5",
						"type": "t_uint256"
					},
					{
						"astId": 310,
						"contract": "RPS.sol:RPS",
						"label": "numReveal",
						"offset": 0,
						"slot": "6",
						"type": "t_uint256"
					}
				],
				"types": {
					"t_address": {
						"encoding": "inplace",
						"label": "address",
						"numberOfBytes": "20"
					},
					"t_bool": {
						"encoding": "inplace",
						"label": "bool",
						"numberOfBytes": "1"
					},
					"t_bytes32": {
						"encoding": "inplace",
						"label": "bytes32",
						"numberOfBytes": "32"
					},
					"t_mapping(t_address,t_struct(Commit)11_storage)": {
						"encoding": "mapping",
						"key": "t_address",
						"label": "mapping(address => struct CommitReveal.Commit)",
						"numberOfBytes": "32",
						"value": "t_struct(Commit)11_storage"
					},
					"t_mapping(t_uint256,t_struct(Player)293_storage)": {
						"encoding": "mapping",
						"key": "t_uint256",
						"label": "mapping(uint256 => struct RPS.Player)",
						"numberOfBytes": "32",
						"value": "t_struct(Player)293_storage"
					},
					"t_struct(Commit)11_storage": {
						"encoding": "inplace",
						"label": "struct CommitReveal.Commit",
						"members": [
							{
								"astId": 6,
								"contract": "RPS.sol:RPS",
								"label": "commit",
								"offset": 0,
								"slot": "0",
								"type": "t_bytes32"
							},
							{
								"astId": 8,
								"contract": "RPS.sol:RPS",
								"label": "block",
								"offset": 0,
								"slot": "1",
								"type": "t_uint64"
							},
							{
								"astId": 10,
								"contract": "RPS.sol:RPS",
								"label": "revealed",
								"offset": 8,
								"slot": "1",
								"type": "t_bool"
							}
						],
						"numberOfBytes": "64"
					},
					"t_struct(Player)293_storage": {
						"encoding": "inplace",
						"label": "struct RPS.Player",
						"members": [
							{
								"astId": 288,
								"contract": "RPS.sol:RPS",
								"label": "choice",
								"offset": 0,
								"slot": "0",
								"type": "t_uint256"
							},
							{
								"astId": 290,
								"contract": "RPS.sol:RPS",
								"label": "addr",
								"offset": 0,
								"slot": "1",
								"type": "t_address"
							},
							{
								"astId": 292,
								"contract": "RPS.sol:RPS",
								"label": "isCommit",
								"offset": 20,
								"slot": "1",
								"type": "t_bool"
							}
						],
						"numberOfBytes": "64"
					},
					"t_uint256": {
						"encoding": "inplace",
						"label": "uint256",
						"numberOfBytes": "32"
					},
					"t_uint64": {
						"encoding": "inplace",
						"label": "uint64",
						"numberOfBytes": "8"
					},
					"t_uint8": {
						"encoding": "inplace",
						"label": "uint8",
						"numberOfBytes": "1"
					}
				}
			},
			"userdoc": {
				"kind": "user",
				"methods": {},
				"version": 1
			}
		}
	}
}