{
	"data": {
		"bytecode": {
			"linkReferences": {},
			"object": "608060405234801561001057600080fd5b5061100d806100206000396000f3fe608060405234801561001057600080fd5b50600436106100415760003560e01c806303e1961814610046578063f887ea4014610062578063fb1db27814610080575b600080fd5b610060600480360381019061005b91906108c6565b61009e565b005b61006a6104b3565b604051610077919061098c565b60405180910390f35b6100886104cb565b60405161009591906109c8565b60405180910390f35b600073c2edad668740f1aa35e4d8f227fb8e17dca888cd73ffffffffffffffffffffffffffffffffffffffff16631526fe27866040518263ffffffff1660e01b81526004016100ed91906109f2565b6080604051808303816000875af115801561010c573d6000803e3d6000fd5b505050506040513d601f19601f820116820180604052508101906101309190610a37565b505050905060008173ffffffffffffffffffffffffffffffffffffffff16630dfe16816040518163ffffffff1660e01b81526004016020604051808303816000875af1158015610184573d6000803e3d6000fd5b505050506040513d601f19601f820116820180604052508101906101a89190610a9e565b905060008273ffffffffffffffffffffffffffffffffffffffff1663d21220a76040518163ffffffff1660e01b81526004016020604051808303816000875af11580156101f9573d6000803e3d6000fd5b505050506040513d601f19601f8201168201806040525081019061021d9190610a9e565b90508573ffffffffffffffffffffffffffffffffffffffff1663095ea7b373d9e1ce17f2641f24ae83637ab66a2cca9c378b9f7fffffffffffffffffffffffffffffffffffffffffffffffffffffffffffffffff6040518363ffffffff1660e01b815260040161028e929190610ada565b600060405180830381600087803b1580156102a857600080fd5b505af11580156102bc573d6000803e3d6000fd5b505050508173ffffffffffffffffffffffffffffffffffffffff1663095ea7b373d9e1ce17f2641f24ae83637ab66a2cca9c378b9f7fffffffffffffffffffffffffffffffffffffffffffffffffffffffffffffffff6040518363ffffffff1660e01b815260040161032f929190610ada565b600060405180830381600087803b15801561034957600080fd5b505af115801561035d573d6000803e3d6000fd5b505050508073ffffffffffffffffffffffffffffffffffffffff1663095ea7b373d9e1ce17f2641f24ae83637ab66a2cca9c378b9f7fffffffffffffffffffffffffffffffffffffffffffffffffffffffffffffffff6040518363ffffffff1660e01b81526004016103d0929190610ada565b600060405180830381600087803b1580156103ea57600080fd5b505af11580156103fe573d6000803e3d6000fd5b505050508573ffffffffffffffffffffffffffffffffffffffff166323b872dd3330886040518463ffffffff1660e01b815260040161043f93929190610b03565b600060405180830381600087803b15801561045957600080fd5b505af115801561046d573d6000803e3d6000fd5b5050505061048886836002886104839190610b69565b6104e3565b61049f868260028861049a9190610b69565b6104e3565b6104aa828286610674565b50505050505050565b73d9e1ce17f2641f24ae83637ab66a2cca9c378b9f81565b73c2edad668740f1aa35e4d8f227fb8e17dca888cd81565b6000600267ffffffffffffffff811115610500576104ff610b9a565b5b60405190808252806020026020018201604052801561052e5781602001602082028036833780820191505090505b509050838160008151811061054657610545610bc9565b5b602002602001019073ffffffffffffffffffffffffffffffffffffffff16908173ffffffffffffffffffffffffffffffffffffffff1681525050828160018151811061059557610594610bc9565b5b602002602001019073ffffffffffffffffffffffffffffffffffffffff16908173ffffffffffffffffffffffffffffffffffffffff168152505073d9e1ce17f2641f24ae83637ab66a2cca9c378b9f73ffffffffffffffffffffffffffffffffffffffff166338ed17398360008430426040518663ffffffff1660e01b8152600401610625959493929190610cf1565b6000604051808303816000875af1158015610644573d6000803e3d6000fd5b505050506040513d6000823e3d601f19601f8201168201806040525081019061066d9190610e75565b5050505050565b600073d9e1ce17f2641f24ae83637ab66a2cca9c378b9f73ffffffffffffffffffffffffffffffffffffffff1663e8e3370085858773ffffffffffffffffffffffffffffffffffffffff166370a08231306040518263ffffffff1660e01b81526004016106e19190610ebe565b602060405180830381865afa1580156106fe573d6000803e3d6000fd5b505050506040513d601f19601f820116820180604052508101906107229190610ed9565b8773ffffffffffffffffffffffffffffffffffffffff166370a08231306040518263ffffffff1660e01b815260040161075b9190610ebe565b602060405180830381865afa158015610778573d6000803e3d6000fd5b505050506040513d601f19601f8201168201806040525081019061079c9190610ed9565b60008033426040518963ffffffff1660e01b81526004016107c4989796959493929190610f06565b6060604051808303816000875af11580156107e3573d6000803e3d6000fd5b505050506040513d601f19601f820116820180604052508101906108079190610f84565b925050508181101561081857600080fd5b50505050565b6000604051905090565b600080fd5b600080fd5b6000819050919050565b61084581610832565b811461085057600080fd5b50565b6000813590506108628161083c565b92915050565b600073ffffffffffffffffffffffffffffffffffffffff82169050919050565b600061089382610868565b9050919050565b6108a381610888565b81146108ae57600080fd5b50565b6000813590506108c08161089a565b92915050565b600080600080608085870312156108e0576108df610828565b5b60006108ee87828801610853565b94505060206108ff878288016108b1565b935050604061091087828801610853565b925050606061092187828801610853565b91505092959194509250565b6000819050919050565b600061095261094d61094884610868565b61092d565b610868565b9050919050565b600061096482610937565b9050919050565b600061097682610959565b9050919050565b6109868161096b565b82525050565b60006020820190506109a1600083018461097d565b92915050565b60006109b282610959565b9050919050565b6109c2816109a7565b82525050565b60006020820190506109dd60008301846109b9565b92915050565b6109ec81610832565b82525050565b6000602082019050610a0760008301846109e3565b92915050565b600081519050610a1c8161089a565b92915050565b600081519050610a318161083c565b92915050565b60008060008060808587031215610a5157610a50610828565b5b6000610a5f87828801610a0d565b9450506020610a7087828801610a22565b9350506040610a8187828801610a22565b9250506060610a9287828801610a22565b91505092959194509250565b600060208284031215610ab457610ab3610828565b5b6000610ac284828501610a0d565b91505092915050565b610ad481610888565b82525050565b6000604082019050610aef6000830185610acb565b610afc60208301846109e3565b9392505050565b6000606082019050610b186000830186610acb565b610b256020830185610acb565b610b3260408301846109e3565b949350505050565b7f4e487b7100000000000000000000000000000000000000000000000000000000600052601260045260246000fd5b6000610b7482610832565b9150610b7f83610832565b925082610b8f57610b8e610b3a565b5b828204905092915050565b7f4e487b7100000000000000000000000000000000000000000000000000000000600052604160045260246000fd5b7f4e487b7100000000000000000000000000000000000000000000000000000000600052603260045260246000fd5b6000819050919050565b6000610c1d610c18610c1384610bf8565b61092d565b610832565b9050919050565b610c2d81610c02565b82525050565b600081519050919050565b600082825260208201905092915050565b6000819050602082019050919050565b610c6881610888565b82525050565b6000610c7a8383610c5f565b60208301905092915050565b6000602082019050919050565b6000610c9e82610c33565b610ca88185610c3e565b9350610cb383610c4f565b8060005b83811015610ce4578151610ccb8882610c6e565b9750610cd683610c86565b925050600181019050610cb7565b5085935050505092915050565b600060a082019050610d0660008301886109e3565b610d136020830187610c24565b8181036040830152610d258186610c93565b9050610d346060830185610acb565b610d4160808301846109e3565b9695505050505050565b600080fd5b6000601f19601f8301169050919050565b610d6a82610d50565b810181811067ffffffffffffffff82111715610d8957610d88610b9a565b5b80604052505050565b6000610d9c61081e565b9050610da88282610d61565b919050565b600067ffffffffffffffff821115610dc857610dc7610b9a565b5b602082029050602081019050919050565b600080fd5b6000610df1610dec84610dad565b610d92565b90508083825260208201905060208402830185811115610e1457610e13610dd9565b5b835b81811015610e3d5780610e298882610a22565b845260208401935050602081019050610e16565b5050509392505050565b600082601f830112610e5c57610e5b610d4b565b5b8151610e6c848260208601610dde565b91505092915050565b600060208284031215610e8b57610e8a610828565b5b600082015167ffffffffffffffff811115610ea957610ea861082d565b5b610eb584828501610e47565b91505092915050565b6000602082019050610ed36000830184610acb565b92915050565b600060208284031215610eef57610eee610828565b5b6000610efd84828501610a22565b91505092915050565b600061010082019050610f1c600083018b610acb565b610f29602083018a610acb565b610f3660408301896109e3565b610f4360608301886109e3565b610f506080830187610c24565b610f5d60a0830186610c24565b610f6a60c0830185610acb565b610f7760e08301846109e3565b9998505050505050505050565b600080600060608486031215610f9d57610f9c610828565b5b6000610fab86828701610a22565b9350506020610fbc86828701610a22565b9250506040610fcd86828701610a22565b915050925092509256fea2646970667358221220856c3aa524d4cc97737658301a12817c9e2edeb1fe5a3334ad79165291beaa7964736f6c63430008100033",
			"opcodes": "PUSH1 0x80 PUSH1 0x40 MSTORE CALLVALUE DUP1 ISZERO PUSH2 0x10 JUMPI PUSH1 0x0 DUP1 REVERT JUMPDEST POP PUSH2 0x100D DUP1 PUSH2 0x20 PUSH1 0x0 CODECOPY PUSH1 0x0 RETURN INVALID PUSH1 0x80 PUSH1 0x40 MSTORE CALLVALUE DUP1 ISZERO PUSH2 0x10 JUMPI PUSH1 0x0 DUP1 REVERT JUMPDEST POP PUSH1 0x4 CALLDATASIZE LT PUSH2 0x41 JUMPI PUSH1 0x0 CALLDATALOAD PUSH1 0xE0 SHR DUP1 PUSH4 0x3E19618 EQ PUSH2 0x46 JUMPI DUP1 PUSH4 0xF887EA40 EQ PUSH2 0x62 JUMPI DUP1 PUSH4 0xFB1DB278 EQ PUSH2 0x80 JUMPI JUMPDEST PUSH1 0x0 DUP1 REVERT JUMPDEST PUSH2 0x60 PUSH1 0x4 DUP1 CALLDATASIZE SUB DUP2 ADD SWAP1 PUSH2 0x5B SWAP2 SWAP1 PUSH2 0x8C6 JUMP JUMPDEST PUSH2 0x9E JUMP JUMPDEST STOP JUMPDEST PUSH2 0x6A PUSH2 0x4B3 JUMP JUMPDEST PUSH1 0x40 MLOAD PUSH2 0x77 SWAP2 SWAP1 PUSH2 0x98C JUMP JUMPDEST PUSH1 0x40 MLOAD DUP1 SWAP2 SUB SWAP1 RETURN JUMPDEST PUSH2 0x88 PUSH2 0x4CB JUMP JUMPDEST PUSH1 0x40 MLOAD PUSH2 0x95 SWAP2 SWAP1 PUSH2 0x9C8 JUMP JUMPDEST PUSH1 0x40 MLOAD DUP1 SWAP2 SUB SWAP1 RETURN JUMPDEST PUSH1 0x0 PUSH20 0xC2EDAD668740F1AA35E4D8F227FB8E17DCA888CD PUSH20 0xFFFFFFFFFFFFFFFFFFFFFFFFFFFFFFFFFFFFFFFF AND PUSH4 0x1526FE27 DUP7 PUSH1 0x40 MLOAD DUP3 PUSH4 0xFFFFFFFF AND PUSH1 0xE0 SHL DUP2 MSTORE PUSH1 0x4 ADD PUSH2 0xED SWAP2 SWAP1 PUSH2 0x9F2 JUMP JUMPDEST PUSH1 0x80 PUSH1 0x40 MLOAD DUP1 DUP4 SUB DUP2 PUSH1 0x0 DUP8 GAS CALL ISZERO DUP1 ISZERO PUSH2 0x10C JUMPI RETURNDATASIZE PUSH1 0x0 DUP1 RETURNDATACOPY RETURNDATASIZE PUSH1 0x0 REVERT JUMPDEST POP POP POP POP PUSH1 0x40 MLOAD RETURNDATASIZE PUSH1 0x1F NOT PUSH1 0x1F DUP3 ADD AND DUP3 ADD DUP1 PUSH1 0x40 MSTORE POP DUP2 ADD SWAP1 PUSH2 0x130 SWAP2 SWAP1 PUSH2 0xA37 JUMP JUMPDEST POP POP POP SWAP1 POP PUSH1 0x0 DUP2 PUSH20 0xFFFFFFFFFFFFFFFFFFFFFFFFFFFFFFFFFFFFFFFF AND PUSH4 0xDFE1681 PUSH1 0x40 MLOAD DUP2 PUSH4 0xFFFFFFFF AND PUSH1 0xE0 SHL DUP2 MSTORE PUSH1 0x4 ADD PUSH1 0x20 PUSH1 0x40 MLOAD DUP1 DUP4 SUB DUP2 PUSH1 0x0 DUP8 GAS CALL ISZERO DUP1 ISZERO PUSH2 0x184 JUMPI RETURNDATASIZE PUSH1 0x0 DUP1 RETURNDATACOPY RETURNDATASIZE PUSH1 0x0 REVERT JUMPDEST POP POP POP POP PUSH1 0x40 MLOAD RETURNDATASIZE PUSH1 0x1F NOT PUSH1 0x1F DUP3 ADD AND DUP3 ADD DUP1 PUSH1 0x40 MSTORE POP DUP2 ADD SWAP1 PUSH2 0x1A8 SWAP2 SWAP1 PUSH2 0xA9E JUMP JUMPDEST SWAP1 POP PUSH1 0x0 DUP3 PUSH20 0xFFFFFFFFFFFFFFFFFFFFFFFFFFFFFFFFFFFFFFFF AND PUSH4 0xD21220A7 PUSH1 0x40 MLOAD DUP2 PUSH4 0xFFFFFFFF AND PUSH1 0xE0 SHL DUP2 MSTORE PUSH1 0x4 ADD PUSH1 0x20 PUSH1 0x40 MLOAD DUP1 DUP4 SUB DUP2 PUSH1 0x0 DUP8 GAS CALL ISZERO DUP1 ISZERO PUSH2 0x1F9 JUMPI RETURNDATASIZE PUSH1 0x0 DUP1 RETURNDATACOPY RETURNDATASIZE PUSH1 0x0 REVERT JUMPDEST POP POP POP POP PUSH1 0x40 MLOAD RETURNDATASIZE PUSH1 0x1F NOT PUSH1 0x1F DUP3 ADD AND DUP3 ADD DUP1 PUSH1 0x40 MSTORE POP DUP2 ADD SWAP1 PUSH2 0x21D SWAP2 SWAP1 PUSH2 0xA9E JUMP JUMPDEST SWAP1 POP DUP6 PUSH20 0xFFFFFFFFFFFFFFFFFFFFFFFFFFFFFFFFFFFFFFFF AND PUSH4 0x95EA7B3 PUSH20 0xD9E1CE17F2641F24AE83637AB66A2CCA9C378B9F PUSH32 0xFFFFFFFFFFFFFFFFFFFFFFFFFFFFFFFFFFFFFFFFFFFFFFFFFFFFFFFFFFFFFFFF PUSH1 0x40 MLOAD DUP4 PUSH4 0xFFFFFFFF AND PUSH1 0xE0 SHL DUP2 MSTORE PUSH1 0x4 ADD PUSH2 0x28E SWAP3 SWAP2 SWAP1 PUSH2 0xADA JUMP JUMPDEST PUSH1 0x0 PUSH1 0x40 MLOAD DUP1 DUP4 SUB DUP2 PUSH1 0x0 DUP8 DUP1 EXTCODESIZE ISZERO DUP1 ISZERO PUSH2 0x2A8 JUMPI PUSH1 0x0 DUP1 REVERT JUMPDEST POP GAS CALL ISZERO DUP1 ISZERO PUSH2 0x2BC JUMPI RETURNDATASIZE PUSH1 0x0 DUP1 RETURNDATACOPY RETURNDATASIZE PUSH1 0x0 REVERT JUMPDEST POP POP POP POP DUP2 PUSH20 0xFFFFFFFFFFFFFFFFFFFFFFFFFFFFFFFFFFFFFFFF AND PUSH4 0x95EA7B3 PUSH20 0xD9E1CE17F2641F24AE83637AB66A2CCA9C378B9F PUSH32 0xFFFFFFFFFFFFFFFFFFFFFFFFFFFFFFFFFFFFFFFFFFFFFFFFFFFFFFFFFFFFFFFF PUSH1 0x40 MLOAD DUP4 PUSH4 0xFFFFFFFF AND PUSH1 0xE0 SHL DUP2 MSTORE PUSH1 0x4 ADD PUSH2 0x32F SWAP3 SWAP2 SWAP1 PUSH2 0xADA JUMP JUMPDEST PUSH1 0x0 PUSH1 0x40 MLOAD DUP1 DUP4 SUB DUP2 PUSH1 0x0 DUP8 DUP1 EXTCODESIZE ISZERO DUP1 ISZERO PUSH2 0x349 JUMPI PUSH1 0x0 DUP1 REVERT JUMPDEST POP GAS CALL ISZERO DUP1 ISZERO PUSH2 0x35D JUMPI RETURNDATASIZE PUSH1 0x0 DUP1 RETURNDATACOPY RETURNDATASIZE PUSH1 0x0 REVERT JUMPDEST POP POP POP POP DUP1 PUSH20 0xFFFFFFFFFFFFFFFFFFFFFFFFFFFFFFFFFFFFFFFF AND PUSH4 0x95EA7B3 PUSH20 0xD9E1CE17F2641F24AE83637AB66A2CCA9C378B9F PUSH32 0xFFFFFFFFFFFFFFFFFFFFFFFFFFFFFFFFFFFFFFFFFFFFFFFFFFFFFFFFFFFFFFFF PUSH1 0x40 MLOAD DUP4 PUSH4 0xFFFFFFFF AND PUSH1 0xE0 SHL DUP2 MSTORE PUSH1 0x4 ADD PUSH2 0x3D0 SWAP3 SWAP2 SWAP1 PUSH2 0xADA JUMP JUMPDEST PUSH1 0x0 PUSH1 0x40 MLOAD DUP1 DUP4 SUB DUP2 PUSH1 0x0 DUP8 DUP1 EXTCODESIZE ISZERO DUP1 ISZERO PUSH2 0x3EA JUMPI PUSH1 0x0 DUP1 REVERT JUMPDEST POP GAS CALL ISZERO DUP1 ISZERO PUSH2 0x3FE JUMPI RETURNDATASIZE PUSH1 0x0 DUP1 RETURNDATACOPY RETURNDATASIZE PUSH1 0x0 REVERT JUMPDEST POP POP POP POP DUP6 PUSH20 0xFFFFFFFFFFFFFFFFFFFFFFFFFFFFFFFFFFFFFFFF AND PUSH4 0x23B872DD CALLER ADDRESS DUP9 PUSH1 0x40 MLOAD DUP5 PUSH4 0xFFFFFFFF AND PUSH1 0xE0 SHL DUP2 MSTORE PUSH1 0x4 ADD PUSH2 0x43F SWAP4 SWAP3 SWAP2 SWAP1 PUSH2 0xB03 JUMP JUMPDEST PUSH1 0x0 PUSH1 0x40 MLOAD DUP1 DUP4 SUB DUP2 PUSH1 0x0 DUP8 DUP1 EXTCODESIZE ISZERO DUP1 ISZERO PUSH2 0x459 JUMPI PUSH1 0x0 DUP1 REVERT JUMPDEST POP GAS CALL ISZERO DUP1 ISZERO PUSH2 0x46D JUMPI RETURNDATASIZE PUSH1 0x0 DUP1 RETURNDATACOPY RETURNDATASIZE PUSH1 0x0 REVERT JUMPDEST POP POP POP POP PUSH2 0x488 DUP7 DUP4 PUSH1 0x2 DUP9 PUSH2 0x483 SWAP2 SWAP1 PUSH2 0xB69 JUMP JUMPDEST PUSH2 0x4E3 JUMP JUMPDEST PUSH2 0x49F DUP7 DUP3 PUSH1 0x2 DUP9 PUSH2 0x49A SWAP2 SWAP1 PUSH2 0xB69 JUMP JUMPDEST PUSH2 0x4E3 JUMP JUMPDEST PUSH2 0x4AA DUP3 DUP3 DUP7 PUSH2 0x674 JUMP JUMPDEST POP POP POP POP POP POP POP JUMP JUMPDEST PUSH20 0xD9E1CE17F2641F24AE83637AB66A2CCA9C378B9F DUP2 JUMP JUMPDEST PUSH20 0xC2EDAD668740F1AA35E4D8F227FB8E17DCA888CD DUP2 JUMP JUMPDEST PUSH1 0x0 PUSH1 0x2 PUSH8 0xFFFFFFFFFFFFFFFF DUP2 GT ISZERO PUSH2 0x500 JUMPI PUSH2 0x4FF PUSH2 0xB9A JUMP JUMPDEST JUMPDEST PUSH1 0x40 MLOAD SWAP1 DUP1 DUP3 MSTORE DUP1 PUSH1 0x20 MUL PUSH1 0x20 ADD DUP3 ADD PUSH1 0x40 MSTORE DUP1 ISZERO PUSH2 0x52E JUMPI DUP2 PUSH1 0x20 ADD PUSH1 0x20 DUP3 MUL DUP1 CALLDATASIZE DUP4 CALLDATACOPY DUP1 DUP3 ADD SWAP2 POP POP SWAP1 POP JUMPDEST POP SWAP1 POP DUP4 DUP2 PUSH1 0x0 DUP2 MLOAD DUP2 LT PUSH2 0x546 JUMPI PUSH2 0x545 PUSH2 0xBC9 JUMP JUMPDEST JUMPDEST PUSH1 0x20 MUL PUSH1 0x20 ADD ADD SWAP1 PUSH20 0xFFFFFFFFFFFFFFFFFFFFFFFFFFFFFFFFFFFFFFFF AND SWAP1 DUP2 PUSH20 0xFFFFFFFFFFFFFFFFFFFFFFFFFFFFFFFFFFFFFFFF AND DUP2 MSTORE POP POP DUP3 DUP2 PUSH1 0x1 DUP2 MLOAD DUP2 LT PUSH2 0x595 JUMPI PUSH2 0x594 PUSH2 0xBC9 JUMP JUMPDEST JUMPDEST PUSH1 0x20 MUL PUSH1 0x20 ADD ADD SWAP1 PUSH20 0xFFFFFFFFFFFFFFFFFFFFFFFFFFFFFFFFFFFFFFFF AND SWAP1 DUP2 PUSH20 0xFFFFFFFFFFFFFFFFFFFFFFFFFFFFFFFFFFFFFFFF AND DUP2 MSTORE POP POP PUSH20 0xD9E1CE17F2641F24AE83637AB66A2CCA9C378B9F PUSH20 0xFFFFFFFFFFFFFFFFFFFFFFFFFFFFFFFFFFFFFFFF AND PUSH4 0x38ED1739 DUP4 PUSH1 0x0 DUP5 ADDRESS TIMESTAMP PUSH1 0x40 MLOAD DUP7 PUSH4 0xFFFFFFFF AND PUSH1 0xE0 SHL DUP2 MSTORE PUSH1 0x4 ADD PUSH2 0x625 SWAP6 SWAP5 SWAP4 SWAP3 SWAP2 SWAP1 PUSH2 0xCF1 JUMP JUMPDEST PUSH1 0x0 PUSH1 0x40 MLOAD DUP1 DUP4 SUB DUP2 PUSH1 0x0 DUP8 GAS CALL ISZERO DUP1 ISZERO PUSH2 0x644 JUMPI RETURNDATASIZE PUSH1 0x0 DUP1 RETURNDATACOPY RETURNDATASIZE PUSH1 0x0 REVERT JUMPDEST POP POP POP POP PUSH1 0x40 MLOAD RETURNDATASIZE PUSH1 0x0 DUP3 RETURNDATACOPY RETURNDATASIZE PUSH1 0x1F NOT PUSH1 0x1F DUP3 ADD AND DUP3 ADD DUP1 PUSH1 0x40 MSTORE POP DUP2 ADD SWAP1 PUSH2 0x66D SWAP2 SWAP1 PUSH2 0xE75 JUMP JUMPDEST POP POP POP POP POP JUMP JUMPDEST PUSH1 0x0 PUSH20 0xD9E1CE17F2641F24AE83637AB66A2CCA9C378B9F PUSH20 0xFFFFFFFFFFFFFFFFFFFFFFFFFFFFFFFFFFFFFFFF AND PUSH4 0xE8E33700 DUP6 DUP6 DUP8 PUSH20 0xFFFFFFFFFFFFFFFFFFFFFFFFFFFFFFFFFFFFFFFF AND PUSH4 0x70A08231 ADDRESS PUSH1 0x40 MLOAD DUP3 PUSH4 0xFFFFFFFF AND PUSH1 0xE0 SHL DUP2 MSTORE PUSH1 0x4 ADD PUSH2 0x6E1 SWAP2 SWAP1 PUSH2 0xEBE JUMP JUMPDEST PUSH1 0x20 PUSH1 0x40 MLOAD DUP1 DUP4 SUB DUP2 DUP7 GAS STATICCALL ISZERO DUP1 ISZERO PUSH2 0x6FE JUMPI RETURNDATASIZE PUSH1 0x0 DUP1 RETURNDATACOPY RETURNDATASIZE PUSH1 0x0 REVERT JUMPDEST POP POP POP POP PUSH1 0x40 MLOAD RETURNDATASIZE PUSH1 0x1F NOT PUSH1 0x1F DUP3 ADD AND DUP3 ADD DUP1 PUSH1 0x40 MSTORE POP DUP2 ADD SWAP1 PUSH2 0x722 SWAP2 SWAP1 PUSH2 0xED9 JUMP JUMPDEST DUP8 PUSH20 0xFFFFFFFFFFFFFFFFFFFFFFFFFFFFFFFFFFFFFFFF AND PUSH4 0x70A08231 ADDRESS PUSH1 0x40 MLOAD DUP3 PUSH4 0xFFFFFFFF AND PUSH1 0xE0 SHL DUP2 MSTORE PUSH1 0x4 ADD PUSH2 0x75B SWAP2 SWAP1 PUSH2 0xEBE JUMP JUMPDEST PUSH1 0x20 PUSH1 0x40 MLOAD DUP1 DUP4 SUB DUP2 DUP7 GAS STATICCALL ISZERO DUP1 ISZERO PUSH2 0x778 JUMPI RETURNDATASIZE PUSH1 0x0 DUP1 RETURNDATACOPY RETURNDATASIZE PUSH1 0x0 REVERT JUMPDEST POP POP POP POP PUSH1 0x40 MLOAD RETURNDATASIZE PUSH1 0x1F NOT PUSH1 0x1F DUP3 ADD AND DUP3 ADD DUP1 PUSH1 0x40 MSTORE POP DUP2 ADD SWAP1 PUSH2 0x79C SWAP2 SWAP1 PUSH2 0xED9 JUMP JUMPDEST PUSH1 0x0 DUP1 CALLER TIMESTAMP PUSH1 0x40 MLOAD DUP10 PUSH4 0xFFFFFFFF AND PUSH1 0xE0 SHL DUP2 MSTORE PUSH1 0x4 ADD PUSH2 0x7C4 SWAP9 SWAP8 SWAP7 SWAP6 SWAP5 SWAP4 SWAP3 SWAP2 SWAP1 PUSH2 0xF06 JUMP JUMPDEST PUSH1 0x60 PUSH1 0x40 MLOAD DUP1 DUP4 SUB DUP2 PUSH1 0x0 DUP8 GAS CALL ISZERO DUP1 ISZERO PUSH2 0x7E3 JUMPI RETURNDATASIZE PUSH1 0x0 DUP1 RETURNDATACOPY RETURNDATASIZE PUSH1 0x0 REVERT JUMPDEST POP POP POP POP PUSH1 0x40 MLOAD RETURNDATASIZE PUSH1 0x1F NOT PUSH1 0x1F DUP3 ADD AND DUP3 ADD DUP1 PUSH1 0x40 MSTORE POP DUP2 ADD SWAP1 PUSH2 0x807 SWAP2 SWAP1 PUSH2 0xF84 JUMP JUMPDEST SWAP3 POP POP POP DUP2 DUP2 LT ISZERO PUSH2 0x818 JUMPI PUSH1 0x0 DUP1 REVERT JUMPDEST POP POP POP POP JUMP JUMPDEST PUSH1 0x0 PUSH1 0x40 MLOAD SWAP1 POP SWAP1 JUMP JUMPDEST PUSH1 0x0 DUP1 REVERT JUMPDEST PUSH1 0x0 DUP1 REVERT JUMPDEST PUSH1 0x0 DUP2 SWAP1 POP SWAP2 SWAP1 POP JUMP JUMPDEST PUSH2 0x845 DUP2 PUSH2 0x832 JUMP JUMPDEST DUP2 EQ PUSH2 0x850 JUMPI PUSH1 0x0 DUP1 REVERT JUMPDEST POP JUMP JUMPDEST PUSH1 0x0 DUP2 CALLDATALOAD SWAP1 POP PUSH2 0x862 DUP2 PUSH2 0x83C JUMP JUMPDEST SWAP3 SWAP2 POP POP JUMP JUMPDEST PUSH1 0x0 PUSH20 0xFFFFFFFFFFFFFFFFFFFFFFFFFFFFFFFFFFFFFFFF DUP3 AND SWAP1 POP SWAP2 SWAP1 POP JUMP JUMPDEST PUSH1 0x0 PUSH2 0x893 DUP3 PUSH2 0x868 JUMP JUMPDEST SWAP1 POP SWAP2 SWAP1 POP JUMP JUMPDEST PUSH2 0x8A3 DUP2 PUSH2 0x888 JUMP JUMPDEST DUP2 EQ PUSH2 0x8AE JUMPI PUSH1 0x0 DUP1 REVERT JUMPDEST POP JUMP JUMPDEST PUSH1 0x0 DUP2 CALLDATALOAD SWAP1 POP PUSH2 0x8C0 DUP2 PUSH2 0x89A JUMP JUMPDEST SWAP3 SWAP2 POP POP JUMP JUMPDEST PUSH1 0x0 DUP1 PUSH1 0x0 DUP1 PUSH1 0x80 DUP6 DUP8 SUB SLT ISZERO PUSH2 0x8E0 JUMPI PUSH2 0x8DF PUSH2 0x828 JUMP JUMPDEST JUMPDEST PUSH1 0x0 PUSH2 0x8EE DUP8 DUP3 DUP9 ADD PUSH2 0x853 JUMP JUMPDEST SWAP5 POP POP PUSH1 0x20 PUSH2 0x8FF DUP8 DUP3 DUP9 ADD PUSH2 0x8B1 JUMP JUMPDEST SWAP4 POP POP PUSH1 0x40 PUSH2 0x910 DUP8 DUP3 DUP9 ADD PUSH2 0x853 JUMP JUMPDEST SWAP3 POP POP PUSH1 0x60 PUSH2 0x921 DUP8 DUP3 DUP9 ADD PUSH2 0x853 JUMP JUMPDEST SWAP2 POP POP SWAP3 SWAP6 SWAP2 SWAP5 POP SWAP3 POP JUMP JUMPDEST PUSH1 0x0 DUP2 SWAP1 POP SWAP2 SWAP1 POP JUMP JUMPDEST PUSH1 0x0 PUSH2 0x952 PUSH2 0x94D PUSH2 0x948 DUP5 PUSH2 0x868 JUMP JUMPDEST PUSH2 0x92D JUMP JUMPDEST PUSH2 0x868 JUMP JUMPDEST SWAP1 POP SWAP2 SWAP1 POP JUMP JUMPDEST PUSH1 0x0 PUSH2 0x964 DUP3 PUSH2 0x937 JUMP JUMPDEST SWAP1 POP SWAP2 SWAP1 POP JUMP JUMPDEST PUSH1 0x0 PUSH2 0x976 DUP3 PUSH2 0x959 JUMP JUMPDEST SWAP1 POP SWAP2 SWAP1 POP JUMP JUMPDEST PUSH2 0x986 DUP2 PUSH2 0x96B JUMP JUMPDEST DUP3 MSTORE POP POP JUMP JUMPDEST PUSH1 0x0 PUSH1 0x20 DUP3 ADD SWAP1 POP PUSH2 0x9A1 PUSH1 0x0 DUP4 ADD DUP5 PUSH2 0x97D JUMP JUMPDEST SWAP3 SWAP2 POP POP JUMP JUMPDEST PUSH1 0x0 PUSH2 0x9B2 DUP3 PUSH2 0x959 JUMP JUMPDEST SWAP1 POP SWAP2 SWAP1 POP JUMP JUMPDEST PUSH2 0x9C2 DUP2 PUSH2 0x9A7 JUMP JUMPDEST DUP3 MSTORE POP POP JUMP JUMPDEST PUSH1 0x0 PUSH1 0x20 DUP3 ADD SWAP1 POP PUSH2 0x9DD PUSH1 0x0 DUP4 ADD DUP5 PUSH2 0x9B9 JUMP JUMPDEST SWAP3 SWAP2 POP POP JUMP JUMPDEST PUSH2 0x9EC DUP2 PUSH2 0x832 JUMP JUMPDEST DUP3 MSTORE POP POP JUMP JUMPDEST PUSH1 0x0 PUSH1 0x20 DUP3 ADD SWAP1 POP PUSH2 0xA07 PUSH1 0x0 DUP4 ADD DUP5 PUSH2 0x9E3 JUMP JUMPDEST SWAP3 SWAP2 POP POP JUMP JUMPDEST PUSH1 0x0 DUP2 MLOAD SWAP1 POP PUSH2 0xA1C DUP2 PUSH2 0x89A JUMP JUMPDEST SWAP3 SWAP2 POP POP JUMP JUMPDEST PUSH1 0x0 DUP2 MLOAD SWAP1 POP PUSH2 0xA31 DUP2 PUSH2 0x83C JUMP JUMPDEST SWAP3 SWAP2 POP POP JUMP JUMPDEST PUSH1 0x0 DUP1 PUSH1 0x0 DUP1 PUSH1 0x80 DUP6 DUP8 SUB SLT ISZERO PUSH2 0xA51 JUMPI PUSH2 0xA50 PUSH2 0x828 JUMP JUMPDEST JUMPDEST PUSH1 0x0 PUSH2 0xA5F DUP8 DUP3 DUP9 ADD PUSH2 0xA0D JUMP JUMPDEST SWAP5 POP POP PUSH1 0x20 PUSH2 0xA70 DUP8 DUP3 DUP9 ADD PUSH2 0xA22 JUMP JUMPDEST SWAP4 POP POP PUSH1 0x40 PUSH2 0xA81 DUP8 DUP3 DUP9 ADD PUSH2 0xA22 JUMP JUMPDEST SWAP3 POP POP PUSH1 0x60 PUSH2 0xA92 DUP8 DUP3 DUP9 ADD PUSH2 0xA22 JUMP JUMPDEST SWAP2 POP POP SWAP3 SWAP6 SWAP2 SWAP5 POP SWAP3 POP JUMP JUMPDEST PUSH1 0x0 PUSH1 0x20 DUP3 DUP5 SUB SLT ISZERO PUSH2 0xAB4 JUMPI PUSH2 0xAB3 PUSH2 0x828 JUMP JUMPDEST JUMPDEST PUSH1 0x0 PUSH2 0xAC2 DUP5 DUP3 DUP6 ADD PUSH2 0xA0D JUMP JUMPDEST SWAP2 POP POP SWAP3 SWAP2 POP POP JUMP JUMPDEST PUSH2 0xAD4 DUP2 PUSH2 0x888 JUMP JUMPDEST DUP3 MSTORE POP POP JUMP JUMPDEST PUSH1 0x0 PUSH1 0x40 DUP3 ADD SWAP1 POP PUSH2 0xAEF PUSH1 0x0 DUP4 ADD DUP6 PUSH2 0xACB JUMP JUMPDEST PUSH2 0xAFC PUSH1 0x20 DUP4 ADD DUP5 PUSH2 0x9E3 JUMP JUMPDEST SWAP4 SWAP3 POP POP POP JUMP JUMPDEST PUSH1 0x0 PUSH1 0x60 DUP3 ADD SWAP1 POP PUSH2 0xB18 PUSH1 0x0 DUP4 ADD DUP7 PUSH2 0xACB JUMP JUMPDEST PUSH2 0xB25 PUSH1 0x20 DUP4 ADD DUP6 PUSH2 0xACB JUMP JUMPDEST PUSH2 0xB32 PUSH1 0x40 DUP4 ADD DUP5 PUSH2 0x9E3 JUMP JUMPDEST SWAP5 SWAP4 POP POP POP POP JUMP JUMPDEST PUSH32 0x4E487B7100000000000000000000000000000000000000000000000000000000 PUSH1 0x0 MSTORE PUSH1 0x12 PUSH1 0x4 MSTORE PUSH1 0x24 PUSH1 0x0 REVERT JUMPDEST PUSH1 0x0 PUSH2 0xB74 DUP3 PUSH2 0x832 JUMP JUMPDEST SWAP2 POP PUSH2 0xB7F DUP4 PUSH2 0x832 JUMP JUMPDEST SWAP3 POP DUP3 PUSH2 0xB8F JUMPI PUSH2 0xB8E PUSH2 0xB3A JUMP JUMPDEST JUMPDEST DUP3 DUP3 DIV SWAP1 POP SWAP3 SWAP2 POP POP JUMP JUMPDEST PUSH32 0x4E487B7100000000000000000000000000000000000000000000000000000000 PUSH1 0x0 MSTORE PUSH1 0x41 PUSH1 0x4 MSTORE PUSH1 0x24 PUSH1 0x0 REVERT JUMPDEST PUSH32 0x4E487B7100000000000000000000000000000000000000000000000000000000 PUSH1 0x0 MSTORE PUSH1 0x32 PUSH1 0x4 MSTORE PUSH1 0x24 PUSH1 0x0 REVERT JUMPDEST PUSH1 0x0 DUP2 SWAP1 POP SWAP2 SWAP1 POP JUMP JUMPDEST PUSH1 0x0 PUSH2 0xC1D PUSH2 0xC18 PUSH2 0xC13 DUP5 PUSH2 0xBF8 JUMP JUMPDEST PUSH2 0x92D JUMP JUMPDEST PUSH2 0x832 JUMP JUMPDEST SWAP1 POP SWAP2 SWAP1 POP JUMP JUMPDEST PUSH2 0xC2D DUP2 PUSH2 0xC02 JUMP JUMPDEST DUP3 MSTORE POP POP JUMP JUMPDEST PUSH1 0x0 DUP2 MLOAD SWAP1 POP SWAP2 SWAP1 POP JUMP JUMPDEST PUSH1 0x0 DUP3 DUP3 MSTORE PUSH1 0x20 DUP3 ADD SWAP1 POP SWAP3 SWAP2 POP POP JUMP JUMPDEST PUSH1 0x0 DUP2 SWAP1 POP PUSH1 0x20 DUP3 ADD SWAP1 POP SWAP2 SWAP1 POP JUMP JUMPDEST PUSH2 0xC68 DUP2 PUSH2 0x888 JUMP JUMPDEST DUP3 MSTORE POP POP JUMP JUMPDEST PUSH1 0x0 PUSH2 0xC7A DUP4 DUP4 PUSH2 0xC5F JUMP JUMPDEST PUSH1 0x20 DUP4 ADD SWAP1 POP SWAP3 SWAP2 POP POP JUMP JUMPDEST PUSH1 0x0 PUSH1 0x20 DUP3 ADD SWAP1 POP SWAP2 SWAP1 POP JUMP JUMPDEST PUSH1 0x0 PUSH2 0xC9E DUP3 PUSH2 0xC33 JUMP JUMPDEST PUSH2 0xCA8 DUP2 DUP6 PUSH2 0xC3E JUMP JUMPDEST SWAP4 POP PUSH2 0xCB3 DUP4 PUSH2 0xC4F JUMP JUMPDEST DUP1 PUSH1 0x0 JUMPDEST DUP4 DUP2 LT ISZERO PUSH2 0xCE4 JUMPI DUP2 MLOAD PUSH2 0xCCB DUP9 DUP3 PUSH2 0xC6E JUMP JUMPDEST SWAP8 POP PUSH2 0xCD6 DUP4 PUSH2 0xC86 JUMP JUMPDEST SWAP3 POP POP PUSH1 0x1 DUP2 ADD SWAP1 POP PUSH2 0xCB7 JUMP JUMPDEST POP DUP6 SWAP4 POP POP POP POP SWAP3 SWAP2 POP POP JUMP JUMPDEST PUSH1 0x0 PUSH1 0xA0 DUP3 ADD SWAP1 POP PUSH2 0xD06 PUSH1 0x0 DUP4 ADD DUP9 PUSH2 0x9E3 JUMP JUMPDEST PUSH2 0xD13 PUSH1 0x20 DUP4 ADD DUP8 PUSH2 0xC24 JUMP JUMPDEST DUP2 DUP2 SUB PUSH1 0x40 DUP4 ADD MSTORE PUSH2 0xD25 DUP2 DUP7 PUSH2 0xC93 JUMP JUMPDEST SWAP1 POP PUSH2 0xD34 PUSH1 0x60 DUP4 ADD DUP6 PUSH2 0xACB JUMP JUMPDEST PUSH2 0xD41 PUSH1 0x80 DUP4 ADD DUP5 PUSH2 0x9E3 JUMP JUMPDEST SWAP7 SWAP6 POP POP POP POP POP POP JUMP JUMPDEST PUSH1 0x0 DUP1 REVERT JUMPDEST PUSH1 0x0 PUSH1 0x1F NOT PUSH1 0x1F DUP4 ADD AND SWAP1 POP SWAP2 SWAP1 POP JUMP JUMPDEST PUSH2 0xD6A DUP3 PUSH2 0xD50 JUMP JUMPDEST DUP2 ADD DUP2 DUP2 LT PUSH8 0xFFFFFFFFFFFFFFFF DUP3 GT OR ISZERO PUSH2 0xD89 JUMPI PUSH2 0xD88 PUSH2 0xB9A JUMP JUMPDEST JUMPDEST DUP1 PUSH1 0x40 MSTORE POP POP POP JUMP JUMPDEST PUSH1 0x0 PUSH2 0xD9C PUSH2 0x81E JUMP JUMPDEST SWAP1 POP PUSH2 0xDA8 DUP3 DUP3 PUSH2 0xD61 JUMP JUMPDEST SWAP2 SWAP1 POP JUMP JUMPDEST PUSH1 0x0 PUSH8 0xFFFFFFFFFFFFFFFF DUP3 GT ISZERO PUSH2 0xDC8 JUMPI PUSH2 0xDC7 PUSH2 0xB9A JUMP JUMPDEST JUMPDEST PUSH1 0x20 DUP3 MUL SWAP1 POP PUSH1 0x20 DUP2 ADD SWAP1 POP SWAP2 SWAP1 POP JUMP JUMPDEST PUSH1 0x0 DUP1 REVERT JUMPDEST PUSH1 0x0 PUSH2 0xDF1 PUSH2 0xDEC DUP5 PUSH2 0xDAD JUMP JUMPDEST PUSH2 0xD92 JUMP JUMPDEST SWAP1 POP DUP1 DUP4 DUP3 MSTORE PUSH1 0x20 DUP3 ADD SWAP1 POP PUSH1 0x20 DUP5 MUL DUP4 ADD DUP6 DUP2 GT ISZERO PUSH2 0xE14 JUMPI PUSH2 0xE13 PUSH2 0xDD9 JUMP JUMPDEST JUMPDEST DUP4 JUMPDEST DUP2 DUP2 LT ISZERO PUSH2 0xE3D JUMPI DUP1 PUSH2 0xE29 DUP9 DUP3 PUSH2 0xA22 JUMP JUMPDEST DUP5 MSTORE PUSH1 0x20 DUP5 ADD SWAP4 POP POP PUSH1 0x20 DUP2 ADD SWAP1 POP PUSH2 0xE16 JUMP JUMPDEST POP POP POP SWAP4 SWAP3 POP POP POP JUMP JUMPDEST PUSH1 0x0 DUP3 PUSH1 0x1F DUP4 ADD SLT PUSH2 0xE5C JUMPI PUSH2 0xE5B PUSH2 0xD4B JUMP JUMPDEST JUMPDEST DUP2 MLOAD PUSH2 0xE6C DUP5 DUP3 PUSH1 0x20 DUP7 ADD PUSH2 0xDDE JUMP JUMPDEST SWAP2 POP POP SWAP3 SWAP2 POP POP JUMP JUMPDEST PUSH1 0x0 PUSH1 0x20 DUP3 DUP5 SUB SLT ISZERO PUSH2 0xE8B JUMPI PUSH2 0xE8A PUSH2 0x828 JUMP JUMPDEST JUMPDEST PUSH1 0x0 DUP3 ADD MLOAD PUSH8 0xFFFFFFFFFFFFFFFF DUP2 GT ISZERO PUSH2 0xEA9 JUMPI PUSH2 0xEA8 PUSH2 0x82D JUMP JUMPDEST JUMPDEST PUSH2 0xEB5 DUP5 DUP3 DUP6 ADD PUSH2 0xE47 JUMP JUMPDEST SWAP2 POP POP SWAP3 SWAP2 POP POP JUMP JUMPDEST PUSH1 0x0 PUSH1 0x20 DUP3 ADD SWAP1 POP PUSH2 0xED3 PUSH1 0x0 DUP4 ADD DUP5 PUSH2 0xACB JUMP JUMPDEST SWAP3 SWAP2 POP POP JUMP JUMPDEST PUSH1 0x0 PUSH1 0x20 DUP3 DUP5 SUB SLT ISZERO PUSH2 0xEEF JUMPI PUSH2 0xEEE PUSH2 0x828 JUMP JUMPDEST JUMPDEST PUSH1 0x0 PUSH2 0xEFD DUP5 DUP3 DUP6 ADD PUSH2 0xA22 JUMP JUMPDEST SWAP2 POP POP SWAP3 SWAP2 POP POP JUMP JUMPDEST PUSH1 0x0 PUSH2 0x100 DUP3 ADD SWAP1 POP PUSH2 0xF1C PUSH1 0x0 DUP4 ADD DUP12 PUSH2 0xACB JUMP JUMPDEST PUSH2 0xF29 PUSH1 0x20 DUP4 ADD DUP11 PUSH2 0xACB JUMP JUMPDEST PUSH2 0xF36 PUSH1 0x40 DUP4 ADD DUP10 PUSH2 0x9E3 JUMP JUMPDEST PUSH2 0xF43 PUSH1 0x60 DUP4 ADD DUP9 PUSH2 0x9E3 JUMP JUMPDEST PUSH2 0xF50 PUSH1 0x80 DUP4 ADD DUP8 PUSH2 0xC24 JUMP JUMPDEST PUSH2 0xF5D PUSH1 0xA0 DUP4 ADD DUP7 PUSH2 0xC24 JUMP JUMPDEST PUSH2 0xF6A PUSH1 0xC0 DUP4 ADD DUP6 PUSH2 0xACB JUMP JUMPDEST PUSH2 0xF77 PUSH1 0xE0 DUP4 ADD DUP5 PUSH2 0x9E3 JUMP JUMPDEST SWAP10 SWAP9 POP POP POP POP POP POP POP POP POP JUMP JUMPDEST PUSH1 0x0 DUP1 PUSH1 0x0 PUSH1 0x60 DUP5 DUP7 SUB SLT ISZERO PUSH2 0xF9D JUMPI PUSH2 0xF9C PUSH2 0x828 JUMP JUMPDEST JUMPDEST PUSH1 0x0 PUSH2 0xFAB DUP7 DUP3 DUP8 ADD PUSH2 0xA22 JUMP JUMPDEST SWAP4 POP POP PUSH1 0x20 PUSH2 0xFBC DUP7 DUP3 DUP8 ADD PUSH2 0xA22 JUMP JUMPDEST SWAP3 POP POP PUSH1 0x40 PUSH2 0xFCD DUP7 DUP3 DUP8 ADD PUSH2 0xA22 JUMP JUMPDEST SWAP2 POP POP SWAP3 POP SWAP3 POP SWAP3 JUMP INVALID LOG2 PUSH5 0x6970667358 0x22 SLT KECCAK256 DUP6 PUSH13 0x3AA524D4CC97737658301A1281 PUSH29 0x9E2EDEB1FE5A3334AD79165291BEAA7964736F6C634300081000330000 "
		},
		"gasEstimates": {
			"creation": {
				"codeDepositCost": "821800",
				"executionCost": "857",
				"totalCost": "822657"
			},
			"external": {
				"masterchef()": "infinite",
				"router()": "infinite",
				"swapTokenForPoolToken(uint256,address,uint256,uint256)": "infinite"
			},
			"internal": {
				"_addLiquidity(address,address,uint256)": "infinite",
				"_swap(address,address,uint256)": "infinite"
			}
		},
		"methodIdentifiers": {
			"masterchef()": "fb1db278",
			"router()": "f887ea40",
			"swapTokenForPoolToken(uint256,address,uint256,uint256)": "03e19618"
		}
	},
	"abi": [
		{
			"inputs": [],
			"name": "masterchef",
			"outputs": [
				{
					"internalType": "contract MasterChefLike",
					"name": "",
					"type": "address"
				}
			],
			"stateMutability": "view",
			"type": "function"
		},
		{
			"inputs": [],
			"name": "router",
			"outputs": [
				{
					"internalType": "contract UniswapV2RouterLike",
					"name": "",
					"type": "address"
				}
			],
			"stateMutability": "view",
			"type": "function"
		},
		{
			"inputs": [
				{
					"internalType": "uint256",
					"name": "poolId",
					"type": "uint256"
				},
				{
					"internalType": "address",
					"name": "tokenIn",
					"type": "address"
				},
				{
					"internalType": "uint256",
					"name": "amountIn",
					"type": "uint256"
				},
				{
					"internalType": "uint256",
					"name": "minAmountOut",
					"type": "uint256"
				}
			],
			"name": "swapTokenForPoolToken",
			"outputs": [],
			"stateMutability": "nonpayable",
			"type": "function"
		}
	]
}