{
	"data": {
		"bytecode": {
			"linkReferences": {},
			"object": "608060405234801561000f575f5ffd5b506040516105dc3803806105dc833981810160405281019061003191906100e6565b8060035f6101000a81548173ffffffffffffffffffffffffffffffffffffffff021916908373ffffffffffffffffffffffffffffffffffffffff16021790555050610111565b5f5ffd5b5f73ffffffffffffffffffffffffffffffffffffffff82169050919050565b5f6100a48261007b565b9050919050565b5f6100b58261009a565b9050919050565b6100c5816100ab565b81146100cf575f5ffd5b50565b5f815190506100e0816100bc565b92915050565b5f602082840312156100fb576100fa610077565b5b5f610108848285016100d2565b91505092915050565b6104be8061011e5f395ff3fe608060405234801561000f575f5ffd5b5060043610610060575f3560e01c806375efcec5146100645780638da5cb5b1461008257806392801230146100a0578063931c9b99146100be5780639e5faafc146100dc578063a6b206bf146100e6575b5f5ffd5b61006c610102565b604051610079919061035a565b60405180910390f35b61008a610127565b6040516100979190610393565b60405180910390f35b6100a861014c565b6040516100b59190610393565b60405180910390f35b6100c6610170565b6040516100d391906103c4565b60405180910390f35b6100e4610176565b005b61010060048036038101906100fb919061040b565b61029d565b005b60035f9054906101000a900473ffffffffffffffffffffffffffffffffffffffff1681565b60015f9054906101000a900473ffffffffffffffffffffffffffffffffffffffff1681565b5f5f9054906101000a900473ffffffffffffffffffffffffffffffffffffffff1681565b60025481565b60035f9054906101000a900473ffffffffffffffffffffffffffffffffffffffff1673ffffffffffffffffffffffffffffffffffffffff1663a6b206bf3073ffffffffffffffffffffffffffffffffffffffff166040518263ffffffff1660e01b81526004016101e691906103c4565b5f604051808303815f87803b1580156101fd575f5ffd5b505af115801561020f573d5f5f3e3d5ffd5b5050505060035f9054906101000a900473ffffffffffffffffffffffffffffffffffffffff1673ffffffffffffffffffffffffffffffffffffffff1663a6b206bf60016040518263ffffffff1660e01b815260040161026e919061046f565b5f604051808303815f87803b158015610285575f5ffd5b505af1158015610297573d5f5f3e3d5ffd5b50505050565b3360015f6101000a81548173ffffffffffffffffffffffffffffffffffffffff021916908373ffffffffffffffffffffffffffffffffffffffff16021790555050565b5f73ffffffffffffffffffffffffffffffffffffffff82169050919050565b5f819050919050565b5f61032261031d610318846102e0565b6102ff565b6102e0565b9050919050565b5f61033382610308565b9050919050565b5f61034482610329565b9050919050565b6103548161033a565b82525050565b5f60208201905061036d5f83018461034b565b92915050565b5f61037d826102e0565b9050919050565b61038d81610373565b82525050565b5f6020820190506103a65f830184610384565b92915050565b5f819050919050565b6103be816103ac565b82525050565b5f6020820190506103d75f8301846103b5565b92915050565b5f5ffd5b6103ea816103ac565b81146103f4575f5ffd5b50565b5f81359050610405816103e1565b92915050565b5f602082840312156104205761041f6103dd565b5b5f61042d848285016103f7565b91505092915050565b5f819050919050565b5f61045961045461044f84610436565b6102ff565b6103ac565b9050919050565b6104698161043f565b82525050565b5f6020820190506104825f830184610460565b9291505056fea264697066735822122050b321dea322d4fe0c192f91b0f7382dc593f78f711d9df7d0b0bec27cd2f16364736f6c634300081c0033",
			"opcodes": "PUSH1 0x80 PUSH1 0x40 MSTORE CALLVALUE DUP1 ISZERO PUSH2 0xF JUMPI PUSH0 PUSH0 REVERT JUMPDEST POP PUSH1 0x40 MLOAD PUSH2 0x5DC CODESIZE SUB DUP1 PUSH2 0x5DC DUP4 CODECOPY DUP2 DUP2 ADD PUSH1 0x40 MSTORE DUP2 ADD SWAP1 PUSH2 0x31 SWAP2 SWAP1 PUSH2 0xE6 JUMP JUMPDEST DUP1 PUSH1 0x3 PUSH0 PUSH2 0x100 EXP DUP2 SLOAD DUP2 PUSH20 0xFFFFFFFFFFFFFFFFFFFFFFFFFFFFFFFFFFFFFFFF MUL NOT AND SWAP1 DUP4 PUSH20 0xFFFFFFFFFFFFFFFFFFFFFFFFFFFFFFFFFFFFFFFF AND MUL OR SWAP1 SSTORE POP POP PUSH2 0x111 JUMP JUMPDEST PUSH0 PUSH0 REVERT JUMPDEST PUSH0 PUSH20 0xFFFFFFFFFFFFFFFFFFFFFFFFFFFFFFFFFFFFFFFF DUP3 AND SWAP1 POP SWAP2 SWAP1 POP JUMP JUMPDEST PUSH0 PUSH2 0xA4 DUP3 PUSH2 0x7B JUMP JUMPDEST SWAP1 POP SWAP2 SWAP1 POP JUMP JUMPDEST PUSH0 PUSH2 0xB5 DUP3 PUSH2 0x9A JUMP JUMPDEST SWAP1 POP SWAP2 SWAP1 POP JUMP JUMPDEST PUSH2 0xC5 DUP2 PUSH2 0xAB JUMP JUMPDEST DUP2 EQ PUSH2 0xCF JUMPI PUSH0 PUSH0 REVERT JUMPDEST POP JUMP JUMPDEST PUSH0 DUP2 MLOAD SWAP1 POP PUSH2 0xE0 DUP2 PUSH2 0xBC JUMP JUMPDEST SWAP3 SWAP2 POP POP JUMP JUMPDEST PUSH0 PUSH1 0x20 DUP3 DUP5 SUB SLT ISZERO PUSH2 0xFB JUMPI PUSH2 0xFA PUSH2 0x77 JUMP JUMPDEST JUMPDEST PUSH0 PUSH2 0x108 DUP5 DUP3 DUP6 ADD PUSH2 0xD2 JUMP JUMPDEST SWAP2 POP POP SWAP3 SWAP2 POP POP JUMP JUMPDEST PUSH2 0x4BE DUP1 PUSH2 0x11E PUSH0 CODECOPY PUSH0 RETURN INVALID PUSH1 0x80 PUSH1 0x40 MSTORE CALLVALUE DUP1 ISZERO PUSH2 0xF JUMPI PUSH0 PUSH0 REVERT JUMPDEST POP PUSH1 0x4 CALLDATASIZE LT PUSH2 0x60 JUMPI PUSH0 CALLDATALOAD PUSH1 0xE0 SHR DUP1 PUSH4 0x75EFCEC5 EQ PUSH2 0x64 JUMPI DUP1 PUSH4 0x8DA5CB5B EQ PUSH2 0x82 JUMPI DUP1 PUSH4 0x92801230 EQ PUSH2 0xA0 JUMPI DUP1 PUSH4 0x931C9B99 EQ PUSH2 0xBE JUMPI DUP1 PUSH4 0x9E5FAAFC EQ PUSH2 0xDC JUMPI DUP1 PUSH4 0xA6B206BF EQ PUSH2 0xE6 JUMPI JUMPDEST PUSH0 PUSH0 REVERT JUMPDEST PUSH2 0x6C PUSH2 0x102 JUMP JUMPDEST PUSH1 0x40 MLOAD PUSH2 0x79 SWAP2 SWAP1 PUSH2 0x35A JUMP JUMPDEST PUSH1 0x40 MLOAD DUP1 SWAP2 SUB SWAP1 RETURN JUMPDEST PUSH2 0x8A PUSH2 0x127 JUMP JUMPDEST PUSH1 0x40 MLOAD PUSH2 0x97 SWAP2 SWAP1 PUSH2 0x393 JUMP JUMPDEST PUSH1 0x40 MLOAD DUP1 SWAP2 SUB SWAP1 RETURN JUMPDEST PUSH2 0xA8 PUSH2 0x14C JUMP JUMPDEST PUSH1 0x40 MLOAD PUSH2 0xB5 SWAP2 SWAP1 PUSH2 0x393 JUMP JUMPDEST PUSH1 0x40 MLOAD DUP1 SWAP2 SUB SWAP1 RETURN JUMPDEST PUSH2 0xC6 PUSH2 0x170 JUMP JUMPDEST PUSH1 0x40 MLOAD PUSH2 0xD3 SWAP2 SWAP1 PUSH2 0x3C4 JUMP JUMPDEST PUSH1 0x40 MLOAD DUP1 SWAP2 SUB SWAP1 RETURN JUMPDEST PUSH2 0xE4 PUSH2 0x176 JUMP JUMPDEST STOP JUMPDEST PUSH2 0x100 PUSH1 0x4 DUP1 CALLDATASIZE SUB DUP2 ADD SWAP1 PUSH2 0xFB SWAP2 SWAP1 PUSH2 0x40B JUMP JUMPDEST PUSH2 0x29D JUMP JUMPDEST STOP JUMPDEST PUSH1 0x3 PUSH0 SWAP1 SLOAD SWAP1 PUSH2 0x100 EXP SWAP1 DIV PUSH20 0xFFFFFFFFFFFFFFFFFFFFFFFFFFFFFFFFFFFFFFFF AND DUP2 JUMP JUMPDEST PUSH1 0x1 PUSH0 SWAP1 SLOAD SWAP1 PUSH2 0x100 EXP SWAP1 DIV PUSH20 0xFFFFFFFFFFFFFFFFFFFFFFFFFFFFFFFFFFFFFFFF AND DUP2 JUMP JUMPDEST PUSH0 PUSH0 SWAP1 SLOAD SWAP1 PUSH2 0x100 EXP SWAP1 DIV PUSH20 0xFFFFFFFFFFFFFFFFFFFFFFFFFFFFFFFFFFFFFFFF AND DUP2 JUMP JUMPDEST PUSH1 0x2 SLOAD DUP2 JUMP JUMPDEST PUSH1 0x3 PUSH0 SWAP1 SLOAD SWAP1 PUSH2 0x100 EXP SWAP1 DIV PUSH20 0xFFFFFFFFFFFFFFFFFFFFFFFFFFFFFFFFFFFFFFFF AND PUSH20 0xFFFFFFFFFFFFFFFFFFFFFFFFFFFFFFFFFFFFFFFF AND PUSH4 0xA6B206BF ADDRESS PUSH20 0xFFFFFFFFFFFFFFFFFFFFFFFFFFFFFFFFFFFFFFFF AND PUSH1 0x40 MLOAD DUP3 PUSH4 0xFFFFFFFF AND PUSH1 0xE0 SHL DUP2 MSTORE PUSH1 0x4 ADD PUSH2 0x1E6 SWAP2 SWAP1 PUSH2 0x3C4 JUMP JUMPDEST PUSH0 PUSH1 0x40 MLOAD DUP1 DUP4 SUB DUP2 PUSH0 DUP8 DUP1 EXTCODESIZE ISZERO DUP1 ISZERO PUSH2 0x1FD JUMPI PUSH0 PUSH0 REVERT JUMPDEST POP GAS CALL ISZERO DUP1 ISZERO PUSH2 0x20F JUMPI RETURNDATASIZE PUSH0 PUSH0 RETURNDATACOPY RETURNDATASIZE PUSH0 REVERT JUMPDEST POP POP POP POP PUSH1 0x3 PUSH0 SWAP1 SLOAD SWAP1 PUSH2 0x100 EXP SWAP1 DIV PUSH20 0xFFFFFFFFFFFFFFFFFFFFFFFFFFFFFFFFFFFFFFFF AND PUSH20 0xFFFFFFFFFFFFFFFFFFFFFFFFFFFFFFFFFFFFFFFF AND PUSH4 0xA6B206BF PUSH1 0x1 PUSH1 0x40 MLOAD DUP3 PUSH4 0xFFFFFFFF AND PUSH1 0xE0 SHL DUP2 MSTORE PUSH1 0x4 ADD PUSH2 0x26E SWAP2 SWAP1 PUSH2 0x46F JUMP JUMPDEST PUSH0 PUSH1 0x40 MLOAD DUP1 DUP4 SUB DUP2 PUSH0 DUP8 DUP1 EXTCODESIZE ISZERO DUP1 ISZERO PUSH2 0x285 JUMPI PUSH0 PUSH0 REVERT JUMPDEST POP GAS CALL ISZERO DUP1 ISZERO PUSH2 0x297 JUMPI RETURNDATASIZE PUSH0 PUSH0 RETURNDATACOPY RETURNDATASIZE PUSH0 REVERT JUMPDEST POP POP POP POP JUMP JUMPDEST CALLER PUSH1 0x1 PUSH0 PUSH2 0x100 EXP DUP2 SLOAD DUP2 PUSH20 0xFFFFFFFFFFFFFFFFFFFFFFFFFFFFFFFFFFFFFFFF MUL NOT AND SWAP1 DUP4 PUSH20 0xFFFFFFFFFFFFFFFFFFFFFFFFFFFFFFFFFFFFFFFF AND MUL OR SWAP1 SSTORE POP POP JUMP JUMPDEST PUSH0 PUSH20 0xFFFFFFFFFFFFFFFFFFFFFFFFFFFFFFFFFFFFFFFF DUP3 AND SWAP1 POP SWAP2 SWAP1 POP JUMP JUMPDEST PUSH0 DUP2 SWAP1 POP SWAP2 SWAP1 POP JUMP JUMPDEST PUSH0 PUSH2 0x322 PUSH2 0x31D PUSH2 0x318 DUP5 PUSH2 0x2E0 JUMP JUMPDEST PUSH2 0x2FF JUMP JUMPDEST PUSH2 0x2E0 JUMP JUMPDEST SWAP1 POP SWAP2 SWAP1 POP JUMP JUMPDEST PUSH0 PUSH2 0x333 DUP3 PUSH2 0x308 JUMP JUMPDEST SWAP1 POP SWAP2 SWAP1 POP JUMP JUMPDEST PUSH0 PUSH2 0x344 DUP3 PUSH2 0x329 JUMP JUMPDEST SWAP1 POP SWAP2 SWAP1 POP JUMP JUMPDEST PUSH2 0x354 DUP2 PUSH2 0x33A JUMP JUMPDEST DUP3 MSTORE POP POP JUMP JUMPDEST PUSH0 PUSH1 0x20 DUP3 ADD SWAP1 POP PUSH2 0x36D PUSH0 DUP4 ADD DUP5 PUSH2 0x34B JUMP JUMPDEST SWAP3 SWAP2 POP POP JUMP JUMPDEST PUSH0 PUSH2 0x37D DUP3 PUSH2 0x2E0 JUMP JUMPDEST SWAP1 POP SWAP2 SWAP1 POP JUMP JUMPDEST PUSH2 0x38D DUP2 PUSH2 0x373 JUMP JUMPDEST DUP3 MSTORE POP POP JUMP JUMPDEST PUSH0 PUSH1 0x20 DUP3 ADD SWAP1 POP PUSH2 0x3A6 PUSH0 DUP4 ADD DUP5 PUSH2 0x384 JUMP JUMPDEST SWAP3 SWAP2 POP POP JUMP JUMPDEST PUSH0 DUP2 SWAP1 POP SWAP2 SWAP1 POP JUMP JUMPDEST PUSH2 0x3BE DUP2 PUSH2 0x3AC JUMP JUMPDEST DUP3 MSTORE POP POP JUMP JUMPDEST PUSH0 PUSH1 0x20 DUP3 ADD SWAP1 POP PUSH2 0x3D7 PUSH0 DUP4 ADD DUP5 PUSH2 0x3B5 JUMP JUMPDEST SWAP3 SWAP2 POP POP JUMP JUMPDEST PUSH0 PUSH0 REVERT JUMPDEST PUSH2 0x3EA DUP2 PUSH2 0x3AC JUMP JUMPDEST DUP2 EQ PUSH2 0x3F4 JUMPI PUSH0 PUSH0 REVERT JUMPDEST POP JUMP JUMPDEST PUSH0 DUP2 CALLDATALOAD SWAP1 POP PUSH2 0x405 DUP2 PUSH2 0x3E1 JUMP JUMPDEST SWAP3 SWAP2 POP POP JUMP JUMPDEST PUSH0 PUSH1 0x20 DUP3 DUP5 SUB SLT ISZERO PUSH2 0x420 JUMPI PUSH2 0x41F PUSH2 0x3DD JUMP JUMPDEST JUMPDEST PUSH0 PUSH2 0x42D DUP5 DUP3 DUP6 ADD PUSH2 0x3F7 JUMP JUMPDEST SWAP2 POP POP SWAP3 SWAP2 POP POP JUMP JUMPDEST PUSH0 DUP2 SWAP1 POP SWAP2 SWAP1 POP JUMP JUMPDEST PUSH0 PUSH2 0x459 PUSH2 0x454 PUSH2 0x44F DUP5 PUSH2 0x436 JUMP JUMPDEST PUSH2 0x2FF JUMP JUMPDEST PUSH2 0x3AC JUMP JUMPDEST SWAP1 POP SWAP2 SWAP1 POP JUMP JUMPDEST PUSH2 0x469 DUP2 PUSH2 0x43F JUMP JUMPDEST DUP3 MSTORE POP POP JUMP JUMPDEST PUSH0 PUSH1 0x20 DUP3 ADD SWAP1 POP PUSH2 0x482 PUSH0 DUP4 ADD DUP5 PUSH2 0x460 JUMP JUMPDEST SWAP3 SWAP2 POP POP JUMP INVALID LOG2 PUSH5 0x6970667358 0x22 SLT KECCAK256 POP 0xB3 0x21 0xDE LOG3 0x22 0xD4 INVALID 0xC NOT 0x2F SWAP2 0xB0 0xF7 CODESIZE 0x2D 0xC5 SWAP4 0xF7 DUP16 PUSH18 0x1D9DF7D0B0BEC27CD2F16364736F6C634300 ADDMOD SHR STOP CALLER "
		},
		"gasEstimates": {
			"creation": {
				"codeDepositCost": "242800",
				"executionCost": "infinite",
				"totalCost": "infinite"
			},
			"external": {
				"attack()": "infinite",
				"doSomething(uint256)": "24754",
				"hackMe()": "infinite",
				"lib()": "2529",
				"owner()": "2508",
				"someNumber()": "2469"
			}
		},
		"methodIdentifiers": {
			"attack()": "9e5faafc",
			"doSomething(uint256)": "a6b206bf",
			"hackMe()": "75efcec5",
			"lib()": "92801230",
			"owner()": "8da5cb5b",
			"someNumber()": "931c9b99"
		}
	},
	"abi": [
		{
			"inputs": [
				{
					"internalType": "contract HackMe",
					"name": "_hackMe",
					"type": "address"
				}
			],
			"stateMutability": "nonpayable",
			"type": "constructor"
		},
		{
			"inputs": [],
			"name": "attack",
			"outputs": [],
			"stateMutability": "nonpayable",
			"type": "function"
		},
		{
			"inputs": [
				{
					"internalType": "uint256",
					"name": "_num",
					"type": "uint256"
				}
			],
			"name": "doSomething",
			"outputs": [],
			"stateMutability": "nonpayable",
			"type": "function"
		},
		{
			"inputs": [],
			"name": "hackMe",
			"outputs": [
				{
					"internalType": "contract HackMe",
					"name": "",
					"type": "address"
				}
			],
			"stateMutability": "view",
			"type": "function"
		},
		{
			"inputs": [],
			"name": "lib",
			"outputs": [
				{
					"internalType": "address",
					"name": "",
					"type": "address"
				}
			],
			"stateMutability": "view",
			"type": "function"
		},
		{
			"inputs": [],
			"name": "owner",
			"outputs": [
				{
					"internalType": "address",
					"name": "",
					"type": "address"
				}
			],
			"stateMutability": "view",
			"type": "function"
		},
		{
			"inputs": [],
			"name": "someNumber",
			"outputs": [
				{
					"internalType": "uint256",
					"name": "",
					"type": "uint256"
				}
			],
			"stateMutability": "view",
			"type": "function"
		}
	]
}