{
	"data": {
		"bytecode": {
			"linkReferences": {},
			"object": "6080604052348015600e575f5ffd5b506103e88061001c5f395ff3fe608060405234801561000f575f5ffd5b5060043610610034575f3560e01c80630c55699c14610038578063b9009d4414610056575b5f5ffd5b610040610072565b60405161004d91906101c9565b60405180910390f35b610070600480360381019061006b9190610240565b610077565b005b5f5481565b5f8173ffffffffffffffffffffffffffffffffffffffff16600f6040516024016100a191906102b9565b6040516020818303038152906040527f2fbebd38000000000000000000000000000000000000000000000000000000007bffffffffffffffffffffffffffffffffffffffffffffffffffffffff19166020820180517bffffffffffffffffffffffffffffffffffffffffffffffffffffffff838183161783525050505060405161012b9190610324565b5f604051808303815f865af19150503d805f8114610164576040519150601f19603f3d011682016040523d82523d5f602084013e610169565b606091505b50509050806101ad576040517f08c379a00000000000000000000000000000000000000000000000000000000081526004016101a490610394565b60405180910390fd5b5050565b5f819050919050565b6101c3816101b1565b82525050565b5f6020820190506101dc5f8301846101ba565b92915050565b5f5ffd5b5f73ffffffffffffffffffffffffffffffffffffffff82169050919050565b5f61020f826101e6565b9050919050565b61021f81610205565b8114610229575f5ffd5b50565b5f8135905061023a81610216565b92915050565b5f60208284031215610255576102546101e2565b5b5f6102628482850161022c565b91505092915050565b5f819050919050565b5f60ff82169050919050565b5f819050919050565b5f6102a361029e6102998461026b565b610280565b610274565b9050919050565b6102b381610289565b82525050565b5f6020820190506102cc5f8301846102aa565b92915050565b5f81519050919050565b5f81905092915050565b8281835e5f83830152505050565b5f6102fe826102d2565b61030881856102dc565b93506103188185602086016102e6565b80840191505092915050565b5f61032f82846102f4565b915081905092915050565b5f82825260208201905092915050565b7f43616c6c20776173206e6f74207375636365737366756c0000000000000000005f82015250565b5f61037e60178361033a565b91506103898261034a565b602082019050919050565b5f6020820190508181035f8301526103ab81610372565b905091905056fea2646970667358221220aa6b53a918784403e336f63f3e1dd3b2b0b9b5e52e2bc18c3d49f8d2ab39facd64736f6c634300081c0033",
			"opcodes": "PUSH1 0x80 PUSH1 0x40 MSTORE CALLVALUE DUP1 ISZERO PUSH1 0xE JUMPI PUSH0 PUSH0 REVERT JUMPDEST POP PUSH2 0x3E8 DUP1 PUSH2 0x1C PUSH0 CODECOPY PUSH0 RETURN INVALID PUSH1 0x80 PUSH1 0x40 MSTORE CALLVALUE DUP1 ISZERO PUSH2 0xF JUMPI PUSH0 PUSH0 REVERT JUMPDEST POP PUSH1 0x4 CALLDATASIZE LT PUSH2 0x34 JUMPI PUSH0 CALLDATALOAD PUSH1 0xE0 SHR DUP1 PUSH4 0xC55699C EQ PUSH2 0x38 JUMPI DUP1 PUSH4 0xB9009D44 EQ PUSH2 0x56 JUMPI JUMPDEST PUSH0 PUSH0 REVERT JUMPDEST PUSH2 0x40 PUSH2 0x72 JUMP JUMPDEST PUSH1 0x40 MLOAD PUSH2 0x4D SWAP2 SWAP1 PUSH2 0x1C9 JUMP JUMPDEST PUSH1 0x40 MLOAD DUP1 SWAP2 SUB SWAP1 RETURN JUMPDEST PUSH2 0x70 PUSH1 0x4 DUP1 CALLDATASIZE SUB DUP2 ADD SWAP1 PUSH2 0x6B SWAP2 SWAP1 PUSH2 0x240 JUMP JUMPDEST PUSH2 0x77 JUMP JUMPDEST STOP JUMPDEST PUSH0 SLOAD DUP2 JUMP JUMPDEST PUSH0 DUP2 PUSH20 0xFFFFFFFFFFFFFFFFFFFFFFFFFFFFFFFFFFFFFFFF AND PUSH1 0xF PUSH1 0x40 MLOAD PUSH1 0x24 ADD PUSH2 0xA1 SWAP2 SWAP1 PUSH2 0x2B9 JUMP JUMPDEST PUSH1 0x40 MLOAD PUSH1 0x20 DUP2 DUP4 SUB SUB DUP2 MSTORE SWAP1 PUSH1 0x40 MSTORE PUSH32 0x2FBEBD3800000000000000000000000000000000000000000000000000000000 PUSH28 0xFFFFFFFFFFFFFFFFFFFFFFFFFFFFFFFFFFFFFFFFFFFFFFFFFFFFFFFF NOT AND PUSH1 0x20 DUP3 ADD DUP1 MLOAD PUSH28 0xFFFFFFFFFFFFFFFFFFFFFFFFFFFFFFFFFFFFFFFFFFFFFFFFFFFFFFFF DUP4 DUP2 DUP4 AND OR DUP4 MSTORE POP POP POP POP PUSH1 0x40 MLOAD PUSH2 0x12B SWAP2 SWAP1 PUSH2 0x324 JUMP JUMPDEST PUSH0 PUSH1 0x40 MLOAD DUP1 DUP4 SUB DUP2 PUSH0 DUP7 GAS CALL SWAP2 POP POP RETURNDATASIZE DUP1 PUSH0 DUP2 EQ PUSH2 0x164 JUMPI PUSH1 0x40 MLOAD SWAP2 POP PUSH1 0x1F NOT PUSH1 0x3F RETURNDATASIZE ADD AND DUP3 ADD PUSH1 0x40 MSTORE RETURNDATASIZE DUP3 MSTORE RETURNDATASIZE PUSH0 PUSH1 0x20 DUP5 ADD RETURNDATACOPY PUSH2 0x169 JUMP JUMPDEST PUSH1 0x60 SWAP2 POP JUMPDEST POP POP SWAP1 POP DUP1 PUSH2 0x1AD JUMPI PUSH1 0x40 MLOAD PUSH32 0x8C379A000000000000000000000000000000000000000000000000000000000 DUP2 MSTORE PUSH1 0x4 ADD PUSH2 0x1A4 SWAP1 PUSH2 0x394 JUMP JUMPDEST PUSH1 0x40 MLOAD DUP1 SWAP2 SUB SWAP1 REVERT JUMPDEST POP POP JUMP JUMPDEST PUSH0 DUP2 SWAP1 POP SWAP2 SWAP1 POP JUMP JUMPDEST PUSH2 0x1C3 DUP2 PUSH2 0x1B1 JUMP JUMPDEST DUP3 MSTORE POP POP JUMP JUMPDEST PUSH0 PUSH1 0x20 DUP3 ADD SWAP1 POP PUSH2 0x1DC PUSH0 DUP4 ADD DUP5 PUSH2 0x1BA JUMP JUMPDEST SWAP3 SWAP2 POP POP JUMP JUMPDEST PUSH0 PUSH0 REVERT JUMPDEST PUSH0 PUSH20 0xFFFFFFFFFFFFFFFFFFFFFFFFFFFFFFFFFFFFFFFF DUP3 AND SWAP1 POP SWAP2 SWAP1 POP JUMP JUMPDEST PUSH0 PUSH2 0x20F DUP3 PUSH2 0x1E6 JUMP JUMPDEST SWAP1 POP SWAP2 SWAP1 POP JUMP JUMPDEST PUSH2 0x21F DUP2 PUSH2 0x205 JUMP JUMPDEST DUP2 EQ PUSH2 0x229 JUMPI PUSH0 PUSH0 REVERT JUMPDEST POP JUMP JUMPDEST PUSH0 DUP2 CALLDATALOAD SWAP1 POP PUSH2 0x23A DUP2 PUSH2 0x216 JUMP JUMPDEST SWAP3 SWAP2 POP POP JUMP JUMPDEST PUSH0 PUSH1 0x20 DUP3 DUP5 SUB SLT ISZERO PUSH2 0x255 JUMPI PUSH2 0x254 PUSH2 0x1E2 JUMP JUMPDEST JUMPDEST PUSH0 PUSH2 0x262 DUP5 DUP3 DUP6 ADD PUSH2 0x22C JUMP JUMPDEST SWAP2 POP POP SWAP3 SWAP2 POP POP JUMP JUMPDEST PUSH0 DUP2 SWAP1 POP SWAP2 SWAP1 POP JUMP JUMPDEST PUSH0 PUSH1 0xFF DUP3 AND SWAP1 POP SWAP2 SWAP1 POP JUMP JUMPDEST PUSH0 DUP2 SWAP1 POP SWAP2 SWAP1 POP JUMP JUMPDEST PUSH0 PUSH2 0x2A3 PUSH2 0x29E PUSH2 0x299 DUP5 PUSH2 0x26B JUMP JUMPDEST PUSH2 0x280 JUMP JUMPDEST PUSH2 0x274 JUMP JUMPDEST SWAP1 POP SWAP2 SWAP1 POP JUMP JUMPDEST PUSH2 0x2B3 DUP2 PUSH2 0x289 JUMP JUMPDEST DUP3 MSTORE POP POP JUMP JUMPDEST PUSH0 PUSH1 0x20 DUP3 ADD SWAP1 POP PUSH2 0x2CC PUSH0 DUP4 ADD DUP5 PUSH2 0x2AA JUMP JUMPDEST SWAP3 SWAP2 POP POP JUMP JUMPDEST PUSH0 DUP2 MLOAD SWAP1 POP SWAP2 SWAP1 POP JUMP JUMPDEST PUSH0 DUP2 SWAP1 POP SWAP3 SWAP2 POP POP JUMP JUMPDEST DUP3 DUP2 DUP4 MCOPY PUSH0 DUP4 DUP4 ADD MSTORE POP POP POP JUMP JUMPDEST PUSH0 PUSH2 0x2FE DUP3 PUSH2 0x2D2 JUMP JUMPDEST PUSH2 0x308 DUP2 DUP6 PUSH2 0x2DC JUMP JUMPDEST SWAP4 POP PUSH2 0x318 DUP2 DUP6 PUSH1 0x20 DUP7 ADD PUSH2 0x2E6 JUMP JUMPDEST DUP1 DUP5 ADD SWAP2 POP POP SWAP3 SWAP2 POP POP JUMP JUMPDEST PUSH0 PUSH2 0x32F DUP3 DUP5 PUSH2 0x2F4 JUMP JUMPDEST SWAP2 POP DUP2 SWAP1 POP SWAP3 SWAP2 POP POP JUMP JUMPDEST PUSH0 DUP3 DUP3 MSTORE PUSH1 0x20 DUP3 ADD SWAP1 POP SWAP3 SWAP2 POP POP JUMP JUMPDEST PUSH32 0x43616C6C20776173206E6F74207375636365737366756C000000000000000000 PUSH0 DUP3 ADD MSTORE POP JUMP JUMPDEST PUSH0 PUSH2 0x37E PUSH1 0x17 DUP4 PUSH2 0x33A JUMP JUMPDEST SWAP2 POP PUSH2 0x389 DUP3 PUSH2 0x34A JUMP JUMPDEST PUSH1 0x20 DUP3 ADD SWAP1 POP SWAP2 SWAP1 POP JUMP JUMPDEST PUSH0 PUSH1 0x20 DUP3 ADD SWAP1 POP DUP2 DUP2 SUB PUSH0 DUP4 ADD MSTORE PUSH2 0x3AB DUP2 PUSH2 0x372 JUMP JUMPDEST SWAP1 POP SWAP2 SWAP1 POP JUMP INVALID LOG2 PUSH5 0x6970667358 0x22 SLT KECCAK256 0xAA PUSH12 0x53A918784403E336F63F3E1D 0xD3 0xB2 0xB0 0xB9 0xB5 0xE5 0x2E 0x2B 0xC1 DUP13 RETURNDATASIZE BLOBHASH 0xF8 0xD2 0xAB CODECOPY STATICCALL 0xCD PUSH5 0x736F6C6343 STOP ADDMOD SHR STOP CALLER "
		},
		"gasEstimates": {
			"creation": {
				"codeDepositCost": "200000",
				"executionCost": "243",
				"totalCost": "200243"
			},
			"external": {
				"callfoo(address)": "infinite",
				"x()": "2402"
			}
		},
		"methodIdentifiers": {
			"callfoo(address)": "b9009d44",
			"x()": "0c55699c"
		}
	},
	"abi": [
		{
			"inputs": [
				{
					"internalType": "address",
					"name": "_a",
					"type": "address"
				}
			],
			"name": "callfoo",
			"outputs": [],
			"stateMutability": "nonpayable",
			"type": "function"
		},
		{
			"inputs": [],
			"name": "x",
			"outputs": [
				{
					"internalType": "uint256",
					"name": "",
					"type": "uint256"
				}
			],
			"stateMutability": "view",
			"type": "function"
		}
	]
}