{
	"data": {
		"bytecode": {
			"linkReferences": {},
			"object": "608060405260645f806101000a81548160ff021916908360ff1602179055505f6004555f6005555f6008555f600955603c600a5564e8d4a51000600c55348015610047575f80fd5b506040516134f83803806134f88339818101604052810190610069919061010d565b8060035f6101000a81548173ffffffffffffffffffffffffffffffffffffffff021916908373ffffffffffffffffffffffffffffffffffffffff16021790555050610138565b5f80fd5b5f73ffffffffffffffffffffffffffffffffffffffff82169050919050565b5f6100dc826100b3565b9050919050565b6100ec816100d2565b81146100f6575f80fd5b50565b5f81519050610107816100e3565b92915050565b5f60208284031215610122576101216100af565b5b5f61012f848285016100f9565b91505092915050565b6133b3806101455f395ff3fe608060405234801561000f575f80fd5b5060043610610135575f3560e01c80637b43a8e6116100b6578063bc06b8cd1161007a578063bc06b8cd1461031b578063c876e61514610339578063d891f96914610357578063d97c841614610373578063f71d96cb14610391578063fc0c546a146103c157610135565b80637b43a8e61461025f57806385d19e1a1461029157806390d5d0c3146102af5780639405de64146102cd578063a040478d146102eb57610135565b806348b9ef40116100fd57806348b9ef40146101df578063558d51c6146101fd57806365ce0ac6146102075780636ac5db191461022357806378e979251461024157610135565b8063086f781514610139578063228cb7331461015757806327b5db8a146101755780633cf5040a1461017f57806343cdd438146101af575b5f80fd5b6101416103df565b60405161014e91906124a4565b60405180910390f35b61015f6103e5565b60405161016c91906124a4565b60405180910390f35b61017d6103eb565b005b610199600480360381019061019491906124f4565b610730565b6040516101a6919061252e565b60405180910390f35b6101c960048036038101906101c491906125a1565b61075f565b6040516101d691906125e6565b60405180910390f35b6101e761077c565b6040516101f491906124a4565b60405180910390f35b610205610782565b005b610221600480360381019061021c91906124f4565b611058565b005b61022b6111f7565b604051610238919061261a565b60405180910390f35b610249611207565b60405161025691906124a4565b60405180910390f35b610279600480360381019061027491906125a1565b61120d565b60405161028893929190612655565b60405180910390f35b610299611253565b6040516102a691906124a4565b60405180910390f35b6102b7611259565b6040516102c491906124a4565b60405180910390f35b6102d561125f565b6040516102e291906124a4565b60405180910390f35b610305600480360381019061030091906125a1565b611300565b60405161031291906124a4565b60405180910390f35b610323611315565b60405161033091906124a4565b60405180910390f35b610341611329565b60405161034e91906124a4565b60405180910390f35b610371600480360381019061036c91906124f4565b61132f565b005b61037b611511565b60405161038891906124a4565b60405180910390f35b6103ab60048036038101906103a691906126b4565b611531565b6040516103b891906126ee565b60405180910390f35b6103c961156c565b6040516103d69190612762565b60405180910390f35b60085481565b60055481565b600260045410610430576040517f08c379a0000000000000000000000000000000000000000000000000000000008152600401610427906127d5565b60405180910390fd5b600c5460035f9054906101000a900473ffffffffffffffffffffffffffffffffffffffff1673ffffffffffffffffffffffffffffffffffffffff1663dd62ed3e33336040518363ffffffff1660e01b815260040161048f9291906127f3565b602060405180830381865afa1580156104aa573d5f803e3d5ffd5b505050506040513d601f19601f820116820180604052508101906104ce919061282e565b101561050f576040517f08c379a0000000000000000000000000000000000000000000000000000000008152600401610506906128c9565b60405180910390fd5b5f60045411156105c357600b5f8154811061052d5761052c6128e7565b5b905f5260205f20015f9054906101000a900473ffffffffffffffffffffffffffffffffffffffff1673ffffffffffffffffffffffffffffffffffffffff163373ffffffffffffffffffffffffffffffffffffffff16036105c2576040517f08c379a00000000000000000000000000000000000000000000000000000000081526004016105b99061295e565b60405180910390fd5b5b600b33908060018154018082558091505060019003905f5260205f20015f9091909190916101000a81548173ffffffffffffffffffffffffffffffffffffffff021916908373ffffffffffffffffffffffffffffffffffffffff160217905550600560065f3373ffffffffffffffffffffffffffffffffffffffff1673ffffffffffffffffffffffffffffffffffffffff1681526020019081526020015f20819055505f60075f3373ffffffffffffffffffffffffffffffffffffffff1673ffffffffffffffffffffffffffffffffffffffff1681526020019081526020015f205f6101000a81548160ff02191690831515021790555060045f8154809291906106cc906129a9565b9190505550600c5460055f8282546106e491906129f0565b925050819055507f0c1de8e9993c058a253c96414b4215583b25fa35e1b6e0facf4d5a0dc2a6f3f83360045460405161071e929190612a23565b60405180910390a161072e611591565b565b5f816040516020016107429190612a6a565b604051602081830303815290604052805190602001209050919050565b6007602052805f5260405f205f915054906101000a900460ff1681565b600c5481565b60016004541015610791575f80fd5b600a5461079c611315565b116107dc576040517f08c379a00000000000000000000000000000000000000000000000000000000081526004016107d390612af4565b60405180910390fd5b600554471015610821576040517f08c379a000000000000000000000000000000000000000000000000000000000815260040161081890612b82565b60405180910390fd5b5f600b5f81548110610836576108356128e7565b5b905f5260205f20015f9054906101000a900473ffffffffffffffffffffffffffffffffffffffff1690506001600454036109515760035f9054906101000a900473ffffffffffffffffffffffffffffffffffffffff1673ffffffffffffffffffffffffffffffffffffffff1663a9059cbb600b5f815481106108bb576108ba6128e7565b5b905f5260205f20015f9054906101000a900473ffffffffffffffffffffffffffffffffffffffff166005546040518363ffffffff1660e01b8152600401610903929190612a23565b6020604051808303815f875af115801561091f573d5f803e3d5ffd5b505050506040513d601f19601f820116820180604052508101906109439190612bca565b5061094c61159a565b611055565b600260045403611054575f600854148061097a5750600260085414801561097957505f600954145b5b15610b595760035f9054906101000a900473ffffffffffffffffffffffffffffffffffffffff1673ffffffffffffffffffffffffffffffffffffffff1663a9059cbb600b5f815481106109d0576109cf6128e7565b5b905f5260205f20015f9054906101000a900473ffffffffffffffffffffffffffffffffffffffff166002600554610a079190612c22565b6040518363ffffffff1660e01b8152600401610a24929190612a23565b6020604051808303815f875af1158015610a40573d5f803e3d5ffd5b505050506040513d601f19601f82011682018060405250810190610a649190612bca565b5060035f9054906101000a900473ffffffffffffffffffffffffffffffffffffffff1673ffffffffffffffffffffffffffffffffffffffff1663a9059cbb600b600181548110610ab757610ab66128e7565b5b905f5260205f20015f9054906101000a900473ffffffffffffffffffffffffffffffffffffffff166002600554610aee9190612c22565b6040518363ffffffff1660e01b8152600401610b0b929190612a23565b6020604051808303815f875af1158015610b27573d5f803e3d5ffd5b505050506040513d601f19601f82011682018060405250810190610b4b9190612bca565b50610b5461159a565b611053565b600160085403610d80576001151560075f8373ffffffffffffffffffffffffffffffffffffffff1673ffffffffffffffffffffffffffffffffffffffff1681526020019081526020015f205f9054906101000a900460ff16151503610c975760035f9054906101000a900473ffffffffffffffffffffffffffffffffffffffff1673ffffffffffffffffffffffffffffffffffffffff1663a9059cbb600b5f81548110610c0957610c086128e7565b5b905f5260205f20015f9054906101000a900473ffffffffffffffffffffffffffffffffffffffff166005546040518363ffffffff1660e01b8152600401610c51929190612a23565b6020604051808303815f875af1158015610c6d573d5f803e3d5ffd5b505050506040513d601f19601f82011682018060405250810190610c919190612bca565b50610d73565b60035f9054906101000a900473ffffffffffffffffffffffffffffffffffffffff1673ffffffffffffffffffffffffffffffffffffffff1663a9059cbb600b600181548110610ce957610ce86128e7565b5b905f5260205f20015f9054906101000a900473ffffffffffffffffffffffffffffffffffffffff166005546040518363ffffffff1660e01b8152600401610d31929190612a23565b6020604051808303815f875af1158015610d4d573d5f803e3d5ffd5b505050506040513d601f19601f82011682018060405250810190610d719190612bca565b505b610d7b61159a565b611052565b6002600854148015610d9457506001600954145b15610fa657600560065f8373ffffffffffffffffffffffffffffffffffffffff1673ffffffffffffffffffffffffffffffffffffffff1681526020019081526020015f205414610ebd5760035f9054906101000a900473ffffffffffffffffffffffffffffffffffffffff1673ffffffffffffffffffffffffffffffffffffffff1663a9059cbb600b5f81548110610e2f57610e2e6128e7565b5b905f5260205f20015f9054906101000a900473ffffffffffffffffffffffffffffffffffffffff166005546040518363ffffffff1660e01b8152600401610e77929190612a23565b6020604051808303815f875af1158015610e93573d5f803e3d5ffd5b505050506040513d601f19601f82011682018060405250810190610eb79190612bca565b50610f99565b60035f9054906101000a900473ffffffffffffffffffffffffffffffffffffffff1673ffffffffffffffffffffffffffffffffffffffff1663a9059cbb600b600181548110610f0f57610f0e6128e7565b5b905f5260205f20015f9054906101000a900473ffffffffffffffffffffffffffffffffffffffff166005546040518363ffffffff1660e01b8152600401610f57929190612a23565b6020604051808303815f875af1158015610f73573d5f803e3d5ffd5b505050506040513d601f19601f82011682018060405250810190610f979190612bca565b505b610fa161159a565b611051565b6002600954036110505760035f9054906101000a900473ffffffffffffffffffffffffffffffffffffffff1673ffffffffffffffffffffffffffffffffffffffff1663a9059cbb336005546040518363ffffffff1660e01b815260040161100e929190612a23565b6020604051808303815f875af115801561102a573d5f803e3d5ffd5b505050506040513d601f19601f8201168201806040525081019061104e9190612bca565b505b5b5b5b5b5b50565b600260045414611066575f80fd5b600260085414611074575f80fd5b60075f3373ffffffffffffffffffffffffffffffffffffffff1673ffffffffffffffffffffffffffffffffffffffff1681526020019081526020015f205f9054906101000a900460ff166110fd576040517f08c379a00000000000000000000000000000000000000000000000000000000081526004016110f490612c9c565b60405180910390fd5b5f81601f60208110611112576111116128e7565b5b1a60f81b60f81c60ff1690505f811015801561112f575060048111155b61116e576040517f08c379a000000000000000000000000000000000000000000000000000000000815260040161116590612d04565b60405180910390fd5b611177826115c5565b8060065f3373ffffffffffffffffffffffffffffffffffffffff1673ffffffffffffffffffffffffffffffffffffffff1681526020019081526020015f208190555060095f8154809291906111cb906129a9565b91905055506111d8611591565b6002600954036111f3576111ea611983565b6111f261159a565b5b5050565b5f8054906101000a900460ff1681565b60025481565b6001602052805f5260405f205f91509050805f015490806001015f9054906101000a900467ffffffffffffffff16908060010160089054906101000a900460ff16905083565b600a5481565b60045481565b5f60035f9054906101000a900473ffffffffffffffffffffffffffffffffffffffff1673ffffffffffffffffffffffffffffffffffffffff1663dd62ed3e33336040518363ffffffff1660e01b81526004016112bc9291906127f3565b602060405180830381865afa1580156112d7573d5f803e3d5ffd5b505050506040513d601f19601f820116820180604052508101906112fb919061282e565b905090565b6006602052805f5260405f205f915090505481565b5f600254426113249190612d22565b905090565b60095481565b600260045414611374576040517f08c379a000000000000000000000000000000000000000000000000000000000815260040161136b90612d9f565b60405180910390fd5b6002600854106113b9576040517f08c379a00000000000000000000000000000000000000000000000000000000081526004016113b090612e07565b60405180910390fd5b60075f3373ffffffffffffffffffffffffffffffffffffffff1673ffffffffffffffffffffffffffffffffffffffff1681526020019081526020015f205f9054906101000a900460ff1615611443576040517f08c379a000000000000000000000000000000000000000000000000000000000815260040161143a90612e6f565b60405180910390fd5b600160075f3373ffffffffffffffffffffffffffffffffffffffff1673ffffffffffffffffffffffffffffffffffffffff1681526020019081526020015f205f6101000a81548160ff0219169083151502179055506114a181611df4565b60085f8154809291906114b3906129a9565b91905055506002600854036114cb576114ca611fc6565b5b7fa8fb792d8bb1782eba00886b053364d6972fa987197717655665c13d3696ea9e336008546040516114fe929190612a23565b60405180910390a161150e611591565b50565b5f603c600254426115229190612d22565b61152c9190612c22565b905090565b600b8181548110611540575f80fd5b905f5260205f20015f915054906101000a900473ffffffffffffffffffffffffffffffffffffffff1681565b60035f9054906101000a900473ffffffffffffffffffffffffffffffffffffffff1681565b42600281905550565b600b5f6115a79190612453565b5f6004819055505f6008819055505f6009819055505f600581905550565b5f151560015f3373ffffffffffffffffffffffffffffffffffffffff1673ffffffffffffffffffffffffffffffffffffffff1681526020019081526020015f2060010160089054906101000a900460ff16151514611658576040517f08c379a000000000000000000000000000000000000000000000000000000000815260040161164f90612efd565b60405180910390fd5b6001805f3373ffffffffffffffffffffffffffffffffffffffff1673ffffffffffffffffffffffffffffffffffffffff1681526020019081526020015f2060010160086101000a81548160ff02191690831515021790555060015f3373ffffffffffffffffffffffffffffffffffffffff1673ffffffffffffffffffffffffffffffffffffffff1681526020019081526020015f205f01546116f982610730565b14611739576040517f08c379a000000000000000000000000000000000000000000000000000000000815260040161173090612f8b565b60405180910390fd5b60015f3373ffffffffffffffffffffffffffffffffffffffff1673ffffffffffffffffffffffffffffffffffffffff1681526020019081526020015f206001015f9054906101000a900467ffffffffffffffff1667ffffffffffffffff164367ffffffffffffffff16116117e2576040517f08c379a00000000000000000000000000000000000000000000000000000000081526004016117d99061303f565b60405180910390fd5b60fa60015f3373ffffffffffffffffffffffffffffffffffffffff1673ffffffffffffffffffffffffffffffffffffffff1681526020019081526020015f206001015f9054906101000a900467ffffffffffffffff16611842919061305d565b67ffffffffffffffff164367ffffffffffffffff161115611898576040517f08c379a000000000000000000000000000000000000000000000000000000000815260040161188f90613108565b60405180910390fd5b5f60015f3373ffffffffffffffffffffffffffffffffffffffff1673ffffffffffffffffffffffffffffffffffffffff1681526020019081526020015f206001015f9054906101000a900467ffffffffffffffff1667ffffffffffffffff164090505f805f9054906101000a900460ff1660ff16828460405160200161191f929190613126565b604051602081830303815290604052805190602001205f1c6119419190613151565b90507fbc016dd1cadeaefcb851af7a0a93532e0023d536894b730801f7bcfe7065bcc233848360405161197693929190613181565b60405180910390a1505050565b5f60065f600b5f8154811061199b5761199a6128e7565b5b905f5260205f20015f9054906101000a900473ffffffffffffffffffffffffffffffffffffffff1673ffffffffffffffffffffffffffffffffffffffff1673ffffffffffffffffffffffffffffffffffffffff1681526020019081526020015f205490505f60065f600b600181548110611a1857611a176128e7565b5b905f5260205f20015f9054906101000a900473ffffffffffffffffffffffffffffffffffffffff1673ffffffffffffffffffffffffffffffffffffffff1673ffffffffffffffffffffffffffffffffffffffff1681526020019081526020015f205490505f818303611c565760035f9054906101000a900473ffffffffffffffffffffffffffffffffffffffff1673ffffffffffffffffffffffffffffffffffffffff1663a9059cbb600b5f81548110611ad557611ad46128e7565b5b905f5260205f20015f9054906101000a900473ffffffffffffffffffffffffffffffffffffffff166002600554611b0c9190612c22565b6040518363ffffffff1660e01b8152600401611b29929190612a23565b6020604051808303815f875af1158015611b45573d5f803e3d5ffd5b505050506040513d601f19601f82011682018060405250810190611b699190612bca565b5060035f9054906101000a900473ffffffffffffffffffffffffffffffffffffffff1673ffffffffffffffffffffffffffffffffffffffff1663a9059cbb600b600181548110611bbc57611bbb6128e7565b5b905f5260205f20015f9054906101000a900473ffffffffffffffffffffffffffffffffffffffff166002600554611bf39190612c22565b6040518363ffffffff1660e01b8152600401611c10929190612a23565b6020604051808303815f875af1158015611c2c573d5f803e3d5ffd5b505050506040513d601f19601f82011682018060405250810190611c509190612bca565b50611d1c565b816005600185611c6691906129f0565b611c709190613151565b1480611c935750816005600385611c8791906129f0565b611c919190613151565b145b15611cdc57600b600181548110611cad57611cac6128e7565b5b905f5260205f20015f9054906101000a900473ffffffffffffffffffffffffffffffffffffffff169050611d1b565b600b5f81548110611cf057611cef6128e7565b5b905f5260205f20015f9054906101000a900473ffffffffffffffffffffffffffffffffffffffff1690505b5b5f73ffffffffffffffffffffffffffffffffffffffff168173ffffffffffffffffffffffffffffffffffffffff1614611def5760035f9054906101000a900473ffffffffffffffffffffffffffffffffffffffff1673ffffffffffffffffffffffffffffffffffffffff1663a9059cbb826005546040518363ffffffff1660e01b8152600401611dad929190612a23565b6020604051808303815f875af1158015611dc9573d5f803e3d5ffd5b505050506040513d601f19601f82011682018060405250810190611ded9190612bca565b505b505050565b8060015f3373ffffffffffffffffffffffffffffffffffffffff1673ffffffffffffffffffffffffffffffffffffffff1681526020019081526020015f205f01819055504360015f3373ffffffffffffffffffffffffffffffffffffffff1673ffffffffffffffffffffffffffffffffffffffff1681526020019081526020015f206001015f6101000a81548167ffffffffffffffff021916908367ffffffffffffffff1602179055505f60015f3373ffffffffffffffffffffffffffffffffffffffff1673ffffffffffffffffffffffffffffffffffffffff1681526020019081526020015f2060010160086101000a81548160ff0219169083151502179055507f3c1a1f8f38335b17f751c6da4ba7d1865f26b3997535176f5080de9fad8916033360015f3373ffffffffffffffffffffffffffffffffffffffff1673ffffffffffffffffffffffffffffffffffffffff1681526020019081526020015f205f015460015f3373ffffffffffffffffffffffffffffffffffffffff1673ffffffffffffffffffffffffffffffffffffffff1681526020019081526020015f206001015f9054906101000a900467ffffffffffffffff16604051611fbb939291906131b6565b60405180910390a150565b600c5460035f9054906101000a900473ffffffffffffffffffffffffffffffffffffffff1673ffffffffffffffffffffffffffffffffffffffff1663dd62ed3e600b5f8154811061201a576120196128e7565b5b905f5260205f20015f9054906101000a900473ffffffffffffffffffffffffffffffffffffffff16600b5f81548110612056576120556128e7565b5b905f5260205f20015f9054906101000a900473ffffffffffffffffffffffffffffffffffffffff166040518363ffffffff1660e01b815260040161209b9291906127f3565b602060405180830381865afa1580156120b6573d5f803e3d5ffd5b505050506040513d601f19601f820116820180604052508101906120da919061282e565b101561211b576040517f08c379a00000000000000000000000000000000000000000000000000000000081526004016121129061325b565b60405180910390fd5b600c5460035f9054906101000a900473ffffffffffffffffffffffffffffffffffffffff1673ffffffffffffffffffffffffffffffffffffffff1663dd62ed3e600b6001815481106121705761216f6128e7565b5b905f5260205f20015f9054906101000a900473ffffffffffffffffffffffffffffffffffffffff16600b6001815481106121ad576121ac6128e7565b5b905f5260205f20015f9054906101000a900473ffffffffffffffffffffffffffffffffffffffff166040518363ffffffff1660e01b81526004016121f29291906127f3565b602060405180830381865afa15801561220d573d5f803e3d5ffd5b505050506040513d601f19601f82011682018060405250810190612231919061282e565b1015612272576040517f08c379a0000000000000000000000000000000000000000000000000000000008152600401612269906132e9565b60405180910390fd5b60035f9054906101000a900473ffffffffffffffffffffffffffffffffffffffff1673ffffffffffffffffffffffffffffffffffffffff166323b872dd30600b5f815481106122c4576122c36128e7565b5b905f5260205f20015f9054906101000a900473ffffffffffffffffffffffffffffffffffffffff16600c546040518463ffffffff1660e01b815260040161230d93929190613307565b6020604051808303815f875af1158015612329573d5f803e3d5ffd5b505050506040513d601f19601f8201168201806040525081019061234d9190612bca565b5060035f9054906101000a900473ffffffffffffffffffffffffffffffffffffffff1673ffffffffffffffffffffffffffffffffffffffff166323b872dd30600b6001815481106123a1576123a06128e7565b5b905f5260205f20015f9054906101000a900473ffffffffffffffffffffffffffffffffffffffff16600c546040518463ffffffff1660e01b81526004016123ea93929190613307565b6020604051808303815f875af1158015612406573d5f803e3d5ffd5b505050506040513d601f19601f8201168201806040525081019061242a9190612bca565b506002600c5461243a919061333c565b60055f82825461244a91906129f0565b92505081905550565b5080545f8255905f5260205f209081019061246e9190612471565b50565b5b80821115612488575f815f905550600101612472565b5090565b5f819050919050565b61249e8161248c565b82525050565b5f6020820190506124b75f830184612495565b92915050565b5f80fd5b5f819050919050565b6124d3816124c1565b81146124dd575f80fd5b50565b5f813590506124ee816124ca565b92915050565b5f60208284031215612509576125086124bd565b5b5f612516848285016124e0565b91505092915050565b612528816124c1565b82525050565b5f6020820190506125415f83018461251f565b92915050565b5f73ffffffffffffffffffffffffffffffffffffffff82169050919050565b5f61257082612547565b9050919050565b61258081612566565b811461258a575f80fd5b50565b5f8135905061259b81612577565b92915050565b5f602082840312156125b6576125b56124bd565b5b5f6125c38482850161258d565b91505092915050565b5f8115159050919050565b6125e0816125cc565b82525050565b5f6020820190506125f95f8301846125d7565b92915050565b5f60ff82169050919050565b612614816125ff565b82525050565b5f60208201905061262d5f83018461260b565b92915050565b5f67ffffffffffffffff82169050919050565b61264f81612633565b82525050565b5f6060820190506126685f83018661251f565b6126756020830185612646565b61268260408301846125d7565b949350505050565b6126938161248c565b811461269d575f80fd5b50565b5f813590506126ae8161268a565b92915050565b5f602082840312156126c9576126c86124bd565b5b5f6126d6848285016126a0565b91505092915050565b6126e881612566565b82525050565b5f6020820190506127015f8301846126df565b92915050565b5f819050919050565b5f61272a61272561272084612547565b612707565b612547565b9050919050565b5f61273b82612710565b9050919050565b5f61274c82612731565b9050919050565b61275c81612742565b82525050565b5f6020820190506127755f830184612753565b92915050565b5f82825260208201905092915050565b7f47616d6520616c726561647920686173203220706c61796572732e00000000005f82015250565b5f6127bf601b8361277b565b91506127ca8261278b565b602082019050919050565b5f6020820190508181035f8301526127ec816127b3565b9050919050565b5f6040820190506128065f8301856126df565b61281360208301846126df565b9392505050565b5f815190506128288161268a565b92915050565b5f60208284031215612843576128426124bd565b5b5f6128508482850161281a565b91505092915050565b7f417070726f766520636f6e747261637420746f2077697468647261772066756e5f8201527f64732e0000000000000000000000000000000000000000000000000000000000602082015250565b5f6128b360238361277b565b91506128be82612859565b604082019050919050565b5f6020820190508181035f8301526128e0816128a7565b9050919050565b7f4e487b71000000000000000000000000000000000000000000000000000000005f52603260045260245ffd5b7f596f752061726520616c726561647920696e207468652067616d652e000000005f82015250565b5f612948601c8361277b565b915061295382612914565b602082019050919050565b5f6020820190508181035f8301526129758161293c565b9050919050565b7f4e487b71000000000000000000000000000000000000000000000000000000005f52601160045260245ffd5b5f6129b38261248c565b91507fffffffffffffffffffffffffffffffffffffffffffffffffffffffffffffffff82036129e5576129e461297c565b5b600182019050919050565b5f6129fa8261248c565b9150612a058361248c565b9250828201905080821115612a1d57612a1c61297c565b5b92915050565b5f604082019050612a365f8301856126df565b612a436020830184612495565b9392505050565b5f819050919050565b612a64612a5f826124c1565b612a4a565b82525050565b5f612a758284612a53565b60208201915081905092915050565b7f596f75206e65656420746f20776169742031206d696e75746520666f722077695f8201527f7468647261772e00000000000000000000000000000000000000000000000000602082015250565b5f612ade60278361277b565b9150612ae982612a84565b604082019050919050565b5f6020820190508181035f830152612b0b81612ad2565b9050919050565b7f436f6e74726163742068617320696e73756666696369656e742062616c616e635f8201527f652e000000000000000000000000000000000000000000000000000000000000602082015250565b5f612b6c60228361277b565b9150612b7782612b12565b604082019050919050565b5f6020820190508181035f830152612b9981612b60565b9050919050565b612ba9816125cc565b8114612bb3575f80fd5b50565b5f81519050612bc481612ba0565b92915050565b5f60208284031215612bdf57612bde6124bd565b5b5f612bec84828501612bb6565b91505092915050565b7f4e487b71000000000000000000000000000000000000000000000000000000005f52601260045260245ffd5b5f612c2c8261248c565b9150612c378361248c565b925082612c4757612c46612bf5565b5b828204905092915050565b7f596f75206e65656420746f20636f6d6d69742066697273742e000000000000005f82015250565b5f612c8660198361277b565b9150612c9182612c52565b602082019050919050565b5f6020820190508181035f830152612cb381612c7a565b9050919050565b7f496e76616c69642063686f6963652e00000000000000000000000000000000005f82015250565b5f612cee600f8361277b565b9150612cf982612cba565b602082019050919050565b5f6020820190508181035f830152612d1b81612ce2565b9050919050565b5f612d2c8261248c565b9150612d378361248c565b9250828203905081811115612d4f57612d4e61297c565b5b92915050565b7f47616d65206e65656473203220706c61796572732e00000000000000000000005f82015250565b5f612d8960158361277b565b9150612d9482612d55565b602082019050919050565b5f6020820190508181035f830152612db681612d7d565b9050919050565b7f416c726561647920636f6d6d69747465642e00000000000000000000000000005f82015250565b5f612df160128361277b565b9150612dfc82612dbd565b602082019050919050565b5f6020820190508181035f830152612e1e81612de5565b9050919050565b7f596f7520616c726561647920636f6d6d69747465642e000000000000000000005f82015250565b5f612e5960168361277b565b9150612e6482612e25565b602082019050919050565b5f6020820190508181035f830152612e8681612e4d565b9050919050565b7f436f6d6d697452657665616c3a3a72657665616c3a20416c72656164792072655f8201527f7665616c65640000000000000000000000000000000000000000000000000000602082015250565b5f612ee760268361277b565b9150612ef282612e8d565b604082019050919050565b5f6020820190508181035f830152612f1481612edb565b9050919050565b7f436f6d6d697452657665616c3a3a72657665616c3a2052657665616c656420685f8201527f61736820646f6573206e6f74206d6174636820636f6d6d697400000000000000602082015250565b5f612f7560398361277b565b9150612f8082612f1b565b604082019050919050565b5f6020820190508181035f830152612fa281612f69565b9050919050565b7f436f6d6d697452657665616c3a3a72657665616c3a2052657665616c20616e645f8201527f20636f6d6d69742068617070656e6564206f6e207468652073616d6520626c6f60208201527f636b000000000000000000000000000000000000000000000000000000000000604082015250565b5f61302960428361277b565b915061303482612fa9565b606082019050919050565b5f6020820190508181035f8301526130568161301d565b9050919050565b5f61306782612633565b915061307283612633565b9250828201905067ffffffffffffffff8111156130925761309161297c565b5b92915050565b7f436f6d6d697452657665616c3a3a72657665616c3a2052657665616c656420745f8201527f6f6f206c61746500000000000000000000000000000000000000000000000000602082015250565b5f6130f260278361277b565b91506130fd82613098565b604082019050919050565b5f6020820190508181035f83015261311f816130e6565b9050919050565b5f6131318285612a53565b6020820191506131418284612a53565b6020820191508190509392505050565b5f61315b8261248c565b91506131668361248c565b92508261317657613175612bf5565b5b828206905092915050565b5f6060820190506131945f8301866126df565b6131a1602083018561251f565b6131ae6040830184612495565b949350505050565b5f6060820190506131c95f8301866126df565b6131d6602083018561251f565b6131e36040830184612646565b949350505050565b7f506c61796572203120686173206e6f7420617070726f76656420656e6f7567685f8201527f2066756e64732e00000000000000000000000000000000000000000000000000602082015250565b5f61324560278361277b565b9150613250826131eb565b604082019050919050565b5f6020820190508181035f83015261327281613239565b9050919050565b7f506c61796572203220686173206e6f7420617070726f76656420656e6f7567685f8201527f2066756e64732e00000000000000000000000000000000000000000000000000602082015250565b5f6132d360278361277b565b91506132de82613279565b604082019050919050565b5f6020820190508181035f830152613300816132c7565b9050919050565b5f60608201905061331a5f8301866126df565b61332760208301856126df565b6133346040830184612495565b949350505050565b5f6133468261248c565b91506133518361248c565b925082820261335f8161248c565b915082820484148315176133765761337561297c565b5b509291505056fea264697066735822122057bd9c1c0c67f49ad3ad92856b48501a14f72d879a28b33b25627bb9e505953f64736f6c634300081a0033",
			"opcodes": "PUSH1 0x80 PUSH1 0x40 MSTORE PUSH1 0x64 PUSH0 DUP1 PUSH2 0x100 EXP DUP2 SLOAD DUP2 PUSH1 0xFF MUL NOT AND SWAP1 DUP4 PUSH1 0xFF AND MUL OR SWAP1 SSTORE POP PUSH0 PUSH1 0x4 SSTORE PUSH0 PUSH1 0x5 SSTORE PUSH0 PUSH1 0x8 SSTORE PUSH0 PUSH1 0x9 SSTORE PUSH1 0x3C PUSH1 0xA SSTORE PUSH5 0xE8D4A51000 PUSH1 0xC SSTORE CALLVALUE DUP1 ISZERO PUSH2 0x47 JUMPI PUSH0 DUP1 REVERT JUMPDEST POP PUSH1 0x40 MLOAD PUSH2 0x34F8 CODESIZE SUB DUP1 PUSH2 0x34F8 DUP4 CODECOPY DUP2 DUP2 ADD PUSH1 0x40 MSTORE DUP2 ADD SWAP1 PUSH2 0x69 SWAP2 SWAP1 PUSH2 0x10D JUMP JUMPDEST DUP1 PUSH1 0x3 PUSH0 PUSH2 0x100 EXP DUP2 SLOAD DUP2 PUSH20 0xFFFFFFFFFFFFFFFFFFFFFFFFFFFFFFFFFFFFFFFF MUL NOT AND SWAP1 DUP4 PUSH20 0xFFFFFFFFFFFFFFFFFFFFFFFFFFFFFFFFFFFFFFFF AND MUL OR SWAP1 SSTORE POP POP PUSH2 0x138 JUMP JUMPDEST PUSH0 DUP1 REVERT JUMPDEST PUSH0 PUSH20 0xFFFFFFFFFFFFFFFFFFFFFFFFFFFFFFFFFFFFFFFF DUP3 AND SWAP1 POP SWAP2 SWAP1 POP JUMP JUMPDEST PUSH0 PUSH2 0xDC DUP3 PUSH2 0xB3 JUMP JUMPDEST SWAP1 POP SWAP2 SWAP1 POP JUMP JUMPDEST PUSH2 0xEC DUP2 PUSH2 0xD2 JUMP JUMPDEST DUP2 EQ PUSH2 0xF6 JUMPI PUSH0 DUP1 REVERT JUMPDEST POP JUMP JUMPDEST PUSH0 DUP2 MLOAD SWAP1 POP PUSH2 0x107 DUP2 PUSH2 0xE3 JUMP JUMPDEST SWAP3 SWAP2 POP POP JUMP JUMPDEST PUSH0 PUSH1 0x20 DUP3 DUP5 SUB SLT ISZERO PUSH2 0x122 JUMPI PUSH2 0x121 PUSH2 0xAF JUMP JUMPDEST JUMPDEST PUSH0 PUSH2 0x12F DUP5 DUP3 DUP6 ADD PUSH2 0xF9 JUMP JUMPDEST SWAP2 POP POP SWAP3 SWAP2 POP POP JUMP JUMPDEST PUSH2 0x33B3 DUP1 PUSH2 0x145 PUSH0 CODECOPY PUSH0 RETURN INVALID PUSH1 0x80 PUSH1 0x40 MSTORE CALLVALUE DUP1 ISZERO PUSH2 0xF JUMPI PUSH0 DUP1 REVERT JUMPDEST POP PUSH1 0x4 CALLDATASIZE LT PUSH2 0x135 JUMPI PUSH0 CALLDATALOAD PUSH1 0xE0 SHR DUP1 PUSH4 0x7B43A8E6 GT PUSH2 0xB6 JUMPI DUP1 PUSH4 0xBC06B8CD GT PUSH2 0x7A JUMPI DUP1 PUSH4 0xBC06B8CD EQ PUSH2 0x31B JUMPI DUP1 PUSH4 0xC876E615 EQ PUSH2 0x339 JUMPI DUP1 PUSH4 0xD891F969 EQ PUSH2 0x357 JUMPI DUP1 PUSH4 0xD97C8416 EQ PUSH2 0x373 JUMPI DUP1 PUSH4 0xF71D96CB EQ PUSH2 0x391 JUMPI DUP1 PUSH4 0xFC0C546A EQ PUSH2 0x3C1 JUMPI PUSH2 0x135 JUMP JUMPDEST DUP1 PUSH4 0x7B43A8E6 EQ PUSH2 0x25F JUMPI DUP1 PUSH4 0x85D19E1A EQ PUSH2 0x291 JUMPI DUP1 PUSH4 0x90D5D0C3 EQ PUSH2 0x2AF JUMPI DUP1 PUSH4 0x9405DE64 EQ PUSH2 0x2CD JUMPI DUP1 PUSH4 0xA040478D EQ PUSH2 0x2EB JUMPI PUSH2 0x135 JUMP JUMPDEST DUP1 PUSH4 0x48B9EF40 GT PUSH2 0xFD JUMPI DUP1 PUSH4 0x48B9EF40 EQ PUSH2 0x1DF JUMPI DUP1 PUSH4 0x558D51C6 EQ PUSH2 0x1FD JUMPI DUP1 PUSH4 0x65CE0AC6 EQ PUSH2 0x207 JUMPI DUP1 PUSH4 0x6AC5DB19 EQ PUSH2 0x223 JUMPI DUP1 PUSH4 0x78E97925 EQ PUSH2 0x241 JUMPI PUSH2 0x135 JUMP JUMPDEST DUP1 PUSH4 0x86F7815 EQ PUSH2 0x139 JUMPI DUP1 PUSH4 0x228CB733 EQ PUSH2 0x157 JUMPI DUP1 PUSH4 0x27B5DB8A EQ PUSH2 0x175 JUMPI DUP1 PUSH4 0x3CF5040A EQ PUSH2 0x17F JUMPI DUP1 PUSH4 0x43CDD438 EQ PUSH2 0x1AF JUMPI JUMPDEST PUSH0 DUP1 REVERT JUMPDEST PUSH2 0x141 PUSH2 0x3DF JUMP JUMPDEST PUSH1 0x40 MLOAD PUSH2 0x14E SWAP2 SWAP1 PUSH2 0x24A4 JUMP JUMPDEST PUSH1 0x40 MLOAD DUP1 SWAP2 SUB SWAP1 RETURN JUMPDEST PUSH2 0x15F PUSH2 0x3E5 JUMP JUMPDEST PUSH1 0x40 MLOAD PUSH2 0x16C SWAP2 SWAP1 PUSH2 0x24A4 JUMP JUMPDEST PUSH1 0x40 MLOAD DUP1 SWAP2 SUB SWAP1 RETURN JUMPDEST PUSH2 0x17D PUSH2 0x3EB JUMP JUMPDEST STOP JUMPDEST PUSH2 0x199 PUSH1 0x4 DUP1 CALLDATASIZE SUB DUP2 ADD SWAP1 PUSH2 0x194 SWAP2 SWAP1 PUSH2 0x24F4 JUMP JUMPDEST PUSH2 0x730 JUMP JUMPDEST PUSH1 0x40 MLOAD PUSH2 0x1A6 SWAP2 SWAP1 PUSH2 0x252E JUMP JUMPDEST PUSH1 0x40 MLOAD DUP1 SWAP2 SUB SWAP1 RETURN JUMPDEST PUSH2 0x1C9 PUSH1 0x4 DUP1 CALLDATASIZE SUB DUP2 ADD SWAP1 PUSH2 0x1C4 SWAP2 SWAP1 PUSH2 0x25A1 JUMP JUMPDEST PUSH2 0x75F JUMP JUMPDEST PUSH1 0x40 MLOAD PUSH2 0x1D6 SWAP2 SWAP1 PUSH2 0x25E6 JUMP JUMPDEST PUSH1 0x40 MLOAD DUP1 SWAP2 SUB SWAP1 RETURN JUMPDEST PUSH2 0x1E7 PUSH2 0x77C JUMP JUMPDEST PUSH1 0x40 MLOAD PUSH2 0x1F4 SWAP2 SWAP1 PUSH2 0x24A4 JUMP JUMPDEST PUSH1 0x40 MLOAD DUP1 SWAP2 SUB SWAP1 RETURN JUMPDEST PUSH2 0x205 PUSH2 0x782 JUMP JUMPDEST STOP JUMPDEST PUSH2 0x221 PUSH1 0x4 DUP1 CALLDATASIZE SUB DUP2 ADD SWAP1 PUSH2 0x21C SWAP2 SWAP1 PUSH2 0x24F4 JUMP JUMPDEST PUSH2 0x1058 JUMP JUMPDEST STOP JUMPDEST PUSH2 0x22B PUSH2 0x11F7 JUMP JUMPDEST PUSH1 0x40 MLOAD PUSH2 0x238 SWAP2 SWAP1 PUSH2 0x261A JUMP JUMPDEST PUSH1 0x40 MLOAD DUP1 SWAP2 SUB SWAP1 RETURN JUMPDEST PUSH2 0x249 PUSH2 0x1207 JUMP JUMPDEST PUSH1 0x40 MLOAD PUSH2 0x256 SWAP2 SWAP1 PUSH2 0x24A4 JUMP JUMPDEST PUSH1 0x40 MLOAD DUP1 SWAP2 SUB SWAP1 RETURN JUMPDEST PUSH2 0x279 PUSH1 0x4 DUP1 CALLDATASIZE SUB DUP2 ADD SWAP1 PUSH2 0x274 SWAP2 SWAP1 PUSH2 0x25A1 JUMP JUMPDEST PUSH2 0x120D JUMP JUMPDEST PUSH1 0x40 MLOAD PUSH2 0x288 SWAP4 SWAP3 SWAP2 SWAP1 PUSH2 0x2655 JUMP JUMPDEST PUSH1 0x40 MLOAD DUP1 SWAP2 SUB SWAP1 RETURN JUMPDEST PUSH2 0x299 PUSH2 0x1253 JUMP JUMPDEST PUSH1 0x40 MLOAD PUSH2 0x2A6 SWAP2 SWAP1 PUSH2 0x24A4 JUMP JUMPDEST PUSH1 0x40 MLOAD DUP1 SWAP2 SUB SWAP1 RETURN JUMPDEST PUSH2 0x2B7 PUSH2 0x1259 JUMP JUMPDEST PUSH1 0x40 MLOAD PUSH2 0x2C4 SWAP2 SWAP1 PUSH2 0x24A4 JUMP JUMPDEST PUSH1 0x40 MLOAD DUP1 SWAP2 SUB SWAP1 RETURN JUMPDEST PUSH2 0x2D5 PUSH2 0x125F JUMP JUMPDEST PUSH1 0x40 MLOAD PUSH2 0x2E2 SWAP2 SWAP1 PUSH2 0x24A4 JUMP JUMPDEST PUSH1 0x40 MLOAD DUP1 SWAP2 SUB SWAP1 RETURN JUMPDEST PUSH2 0x305 PUSH1 0x4 DUP1 CALLDATASIZE SUB DUP2 ADD SWAP1 PUSH2 0x300 SWAP2 SWAP1 PUSH2 0x25A1 JUMP JUMPDEST PUSH2 0x1300 JUMP JUMPDEST PUSH1 0x40 MLOAD PUSH2 0x312 SWAP2 SWAP1 PUSH2 0x24A4 JUMP JUMPDEST PUSH1 0x40 MLOAD DUP1 SWAP2 SUB SWAP1 RETURN JUMPDEST PUSH2 0x323 PUSH2 0x1315 JUMP JUMPDEST PUSH1 0x40 MLOAD PUSH2 0x330 SWAP2 SWAP1 PUSH2 0x24A4 JUMP JUMPDEST PUSH1 0x40 MLOAD DUP1 SWAP2 SUB SWAP1 RETURN JUMPDEST PUSH2 0x341 PUSH2 0x1329 JUMP JUMPDEST PUSH1 0x40 MLOAD PUSH2 0x34E SWAP2 SWAP1 PUSH2 0x24A4 JUMP JUMPDEST PUSH1 0x40 MLOAD DUP1 SWAP2 SUB SWAP1 RETURN JUMPDEST PUSH2 0x371 PUSH1 0x4 DUP1 CALLDATASIZE SUB DUP2 ADD SWAP1 PUSH2 0x36C SWAP2 SWAP1 PUSH2 0x24F4 JUMP JUMPDEST PUSH2 0x132F JUMP JUMPDEST STOP JUMPDEST PUSH2 0x37B PUSH2 0x1511 JUMP JUMPDEST PUSH1 0x40 MLOAD PUSH2 0x388 SWAP2 SWAP1 PUSH2 0x24A4 JUMP JUMPDEST PUSH1 0x40 MLOAD DUP1 SWAP2 SUB SWAP1 RETURN JUMPDEST PUSH2 0x3AB PUSH1 0x4 DUP1 CALLDATASIZE SUB DUP2 ADD SWAP1 PUSH2 0x3A6 SWAP2 SWAP1 PUSH2 0x26B4 JUMP JUMPDEST PUSH2 0x1531 JUMP JUMPDEST PUSH1 0x40 MLOAD PUSH2 0x3B8 SWAP2 SWAP1 PUSH2 0x26EE JUMP JUMPDEST PUSH1 0x40 MLOAD DUP1 SWAP2 SUB SWAP1 RETURN JUMPDEST PUSH2 0x3C9 PUSH2 0x156C JUMP JUMPDEST PUSH1 0x40 MLOAD PUSH2 0x3D6 SWAP2 SWAP1 PUSH2 0x2762 JUMP JUMPDEST PUSH1 0x40 MLOAD DUP1 SWAP2 SUB SWAP1 RETURN JUMPDEST PUSH1 0x8 SLOAD DUP2 JUMP JUMPDEST PUSH1 0x5 SLOAD DUP2 JUMP JUMPDEST PUSH1 0x2 PUSH1 0x4 SLOAD LT PUSH2 0x430 JUMPI PUSH1 0x40 MLOAD PUSH32 0x8C379A000000000000000000000000000000000000000000000000000000000 DUP2 MSTORE PUSH1 0x4 ADD PUSH2 0x427 SWAP1 PUSH2 0x27D5 JUMP JUMPDEST PUSH1 0x40 MLOAD DUP1 SWAP2 SUB SWAP1 REVERT JUMPDEST PUSH1 0xC SLOAD PUSH1 0x3 PUSH0 SWAP1 SLOAD SWAP1 PUSH2 0x100 EXP SWAP1 DIV PUSH20 0xFFFFFFFFFFFFFFFFFFFFFFFFFFFFFFFFFFFFFFFF AND PUSH20 0xFFFFFFFFFFFFFFFFFFFFFFFFFFFFFFFFFFFFFFFF AND PUSH4 0xDD62ED3E CALLER CALLER PUSH1 0x40 MLOAD DUP4 PUSH4 0xFFFFFFFF AND PUSH1 0xE0 SHL DUP2 MSTORE PUSH1 0x4 ADD PUSH2 0x48F SWAP3 SWAP2 SWAP1 PUSH2 0x27F3 JUMP JUMPDEST PUSH1 0x20 PUSH1 0x40 MLOAD DUP1 DUP4 SUB DUP2 DUP7 GAS STATICCALL ISZERO DUP1 ISZERO PUSH2 0x4AA JUMPI RETURNDATASIZE PUSH0 DUP1 RETURNDATACOPY RETURNDATASIZE PUSH0 REVERT JUMPDEST POP POP POP POP PUSH1 0x40 MLOAD RETURNDATASIZE PUSH1 0x1F NOT PUSH1 0x1F DUP3 ADD AND DUP3 ADD DUP1 PUSH1 0x40 MSTORE POP DUP2 ADD SWAP1 PUSH2 0x4CE SWAP2 SWAP1 PUSH2 0x282E JUMP JUMPDEST LT ISZERO PUSH2 0x50F JUMPI PUSH1 0x40 MLOAD PUSH32 0x8C379A000000000000000000000000000000000000000000000000000000000 DUP2 MSTORE PUSH1 0x4 ADD PUSH2 0x506 SWAP1 PUSH2 0x28C9 JUMP JUMPDEST PUSH1 0x40 MLOAD DUP1 SWAP2 SUB SWAP1 REVERT JUMPDEST PUSH0 PUSH1 0x4 SLOAD GT ISZERO PUSH2 0x5C3 JUMPI PUSH1 0xB PUSH0 DUP2 SLOAD DUP2 LT PUSH2 0x52D JUMPI PUSH2 0x52C PUSH2 0x28E7 JUMP JUMPDEST JUMPDEST SWAP1 PUSH0 MSTORE PUSH1 0x20 PUSH0 KECCAK256 ADD PUSH0 SWAP1 SLOAD SWAP1 PUSH2 0x100 EXP SWAP1 DIV PUSH20 0xFFFFFFFFFFFFFFFFFFFFFFFFFFFFFFFFFFFFFFFF AND PUSH20 0xFFFFFFFFFFFFFFFFFFFFFFFFFFFFFFFFFFFFFFFF AND CALLER PUSH20 0xFFFFFFFFFFFFFFFFFFFFFFFFFFFFFFFFFFFFFFFF AND SUB PUSH2 0x5C2 JUMPI PUSH1 0x40 MLOAD PUSH32 0x8C379A000000000000000000000000000000000000000000000000000000000 DUP2 MSTORE PUSH1 0x4 ADD PUSH2 0x5B9 SWAP1 PUSH2 0x295E JUMP JUMPDEST PUSH1 0x40 MLOAD DUP1 SWAP2 SUB SWAP1 REVERT JUMPDEST JUMPDEST PUSH1 0xB CALLER SWAP1 DUP1 PUSH1 0x1 DUP2 SLOAD ADD DUP1 DUP3 SSTORE DUP1 SWAP2 POP POP PUSH1 0x1 SWAP1 SUB SWAP1 PUSH0 MSTORE PUSH1 0x20 PUSH0 KECCAK256 ADD PUSH0 SWAP1 SWAP2 SWAP1 SWAP2 SWAP1 SWAP2 PUSH2 0x100 EXP DUP2 SLOAD DUP2 PUSH20 0xFFFFFFFFFFFFFFFFFFFFFFFFFFFFFFFFFFFFFFFF MUL NOT AND SWAP1 DUP4 PUSH20 0xFFFFFFFFFFFFFFFFFFFFFFFFFFFFFFFFFFFFFFFF AND MUL OR SWAP1 SSTORE POP PUSH1 0x5 PUSH1 0x6 PUSH0 CALLER PUSH20 0xFFFFFFFFFFFFFFFFFFFFFFFFFFFFFFFFFFFFFFFF AND PUSH20 0xFFFFFFFFFFFFFFFFFFFFFFFFFFFFFFFFFFFFFFFF AND DUP2 MSTORE PUSH1 0x20 ADD SWAP1 DUP2 MSTORE PUSH1 0x20 ADD PUSH0 KECCAK256 DUP2 SWAP1 SSTORE POP PUSH0 PUSH1 0x7 PUSH0 CALLER PUSH20 0xFFFFFFFFFFFFFFFFFFFFFFFFFFFFFFFFFFFFFFFF AND PUSH20 0xFFFFFFFFFFFFFFFFFFFFFFFFFFFFFFFFFFFFFFFF AND DUP2 MSTORE PUSH1 0x20 ADD SWAP1 DUP2 MSTORE PUSH1 0x20 ADD PUSH0 KECCAK256 PUSH0 PUSH2 0x100 EXP DUP2 SLOAD DUP2 PUSH1 0xFF MUL NOT AND SWAP1 DUP4 ISZERO ISZERO MUL OR SWAP1 SSTORE POP PUSH1 0x4 PUSH0 DUP2 SLOAD DUP1 SWAP3 SWAP2 SWAP1 PUSH2 0x6CC SWAP1 PUSH2 0x29A9 JUMP JUMPDEST SWAP2 SWAP1 POP SSTORE POP PUSH1 0xC SLOAD PUSH1 0x5 PUSH0 DUP3 DUP3 SLOAD PUSH2 0x6E4 SWAP2 SWAP1 PUSH2 0x29F0 JUMP JUMPDEST SWAP3 POP POP DUP2 SWAP1 SSTORE POP PUSH32 0xC1DE8E9993C058A253C96414B4215583B25FA35E1B6E0FACF4D5A0DC2A6F3F8 CALLER PUSH1 0x4 SLOAD PUSH1 0x40 MLOAD PUSH2 0x71E SWAP3 SWAP2 SWAP1 PUSH2 0x2A23 JUMP JUMPDEST PUSH1 0x40 MLOAD DUP1 SWAP2 SUB SWAP1 LOG1 PUSH2 0x72E PUSH2 0x1591 JUMP JUMPDEST JUMP JUMPDEST PUSH0 DUP2 PUSH1 0x40 MLOAD PUSH1 0x20 ADD PUSH2 0x742 SWAP2 SWAP1 PUSH2 0x2A6A JUMP JUMPDEST PUSH1 0x40 MLOAD PUSH1 0x20 DUP2 DUP4 SUB SUB DUP2 MSTORE SWAP1 PUSH1 0x40 MSTORE DUP1 MLOAD SWAP1 PUSH1 0x20 ADD KECCAK256 SWAP1 POP SWAP2 SWAP1 POP JUMP JUMPDEST PUSH1 0x7 PUSH1 0x20 MSTORE DUP1 PUSH0 MSTORE PUSH1 0x40 PUSH0 KECCAK256 PUSH0 SWAP2 POP SLOAD SWAP1 PUSH2 0x100 EXP SWAP1 DIV PUSH1 0xFF AND DUP2 JUMP JUMPDEST PUSH1 0xC SLOAD DUP2 JUMP JUMPDEST PUSH1 0x1 PUSH1 0x4 SLOAD LT ISZERO PUSH2 0x791 JUMPI PUSH0 DUP1 REVERT JUMPDEST PUSH1 0xA SLOAD PUSH2 0x79C PUSH2 0x1315 JUMP JUMPDEST GT PUSH2 0x7DC JUMPI PUSH1 0x40 MLOAD PUSH32 0x8C379A000000000000000000000000000000000000000000000000000000000 DUP2 MSTORE PUSH1 0x4 ADD PUSH2 0x7D3 SWAP1 PUSH2 0x2AF4 JUMP JUMPDEST PUSH1 0x40 MLOAD DUP1 SWAP2 SUB SWAP1 REVERT JUMPDEST PUSH1 0x5 SLOAD SELFBALANCE LT ISZERO PUSH2 0x821 JUMPI PUSH1 0x40 MLOAD PUSH32 0x8C379A000000000000000000000000000000000000000000000000000000000 DUP2 MSTORE PUSH1 0x4 ADD PUSH2 0x818 SWAP1 PUSH2 0x2B82 JUMP JUMPDEST PUSH1 0x40 MLOAD DUP1 SWAP2 SUB SWAP1 REVERT JUMPDEST PUSH0 PUSH1 0xB PUSH0 DUP2 SLOAD DUP2 LT PUSH2 0x836 JUMPI PUSH2 0x835 PUSH2 0x28E7 JUMP JUMPDEST JUMPDEST SWAP1 PUSH0 MSTORE PUSH1 0x20 PUSH0 KECCAK256 ADD PUSH0 SWAP1 SLOAD SWAP1 PUSH2 0x100 EXP SWAP1 DIV PUSH20 0xFFFFFFFFFFFFFFFFFFFFFFFFFFFFFFFFFFFFFFFF AND SWAP1 POP PUSH1 0x1 PUSH1 0x4 SLOAD SUB PUSH2 0x951 JUMPI PUSH1 0x3 PUSH0 SWAP1 SLOAD SWAP1 PUSH2 0x100 EXP SWAP1 DIV PUSH20 0xFFFFFFFFFFFFFFFFFFFFFFFFFFFFFFFFFFFFFFFF AND PUSH20 0xFFFFFFFFFFFFFFFFFFFFFFFFFFFFFFFFFFFFFFFF AND PUSH4 0xA9059CBB PUSH1 0xB PUSH0 DUP2 SLOAD DUP2 LT PUSH2 0x8BB JUMPI PUSH2 0x8BA PUSH2 0x28E7 JUMP JUMPDEST JUMPDEST SWAP1 PUSH0 MSTORE PUSH1 0x20 PUSH0 KECCAK256 ADD PUSH0 SWAP1 SLOAD SWAP1 PUSH2 0x100 EXP SWAP1 DIV PUSH20 0xFFFFFFFFFFFFFFFFFFFFFFFFFFFFFFFFFFFFFFFF AND PUSH1 0x5 SLOAD PUSH1 0x40 MLOAD DUP4 PUSH4 0xFFFFFFFF AND PUSH1 0xE0 SHL DUP2 MSTORE PUSH1 0x4 ADD PUSH2 0x903 SWAP3 SWAP2 SWAP1 PUSH2 0x2A23 JUMP JUMPDEST PUSH1 0x20 PUSH1 0x40 MLOAD DUP1 DUP4 SUB DUP2 PUSH0 DUP8 GAS CALL ISZERO DUP1 ISZERO PUSH2 0x91F JUMPI RETURNDATASIZE PUSH0 DUP1 RETURNDATACOPY RETURNDATASIZE PUSH0 REVERT JUMPDEST POP POP POP POP PUSH1 0x40 MLOAD RETURNDATASIZE PUSH1 0x1F NOT PUSH1 0x1F DUP3 ADD AND DUP3 ADD DUP1 PUSH1 0x40 MSTORE POP DUP2 ADD SWAP1 PUSH2 0x943 SWAP2 SWAP1 PUSH2 0x2BCA JUMP JUMPDEST POP PUSH2 0x94C PUSH2 0x159A JUMP JUMPDEST PUSH2 0x1055 JUMP JUMPDEST PUSH1 0x2 PUSH1 0x4 SLOAD SUB PUSH2 0x1054 JUMPI PUSH0 PUSH1 0x8 SLOAD EQ DUP1 PUSH2 0x97A JUMPI POP PUSH1 0x2 PUSH1 0x8 SLOAD EQ DUP1 ISZERO PUSH2 0x979 JUMPI POP PUSH0 PUSH1 0x9 SLOAD EQ JUMPDEST JUMPDEST ISZERO PUSH2 0xB59 JUMPI PUSH1 0x3 PUSH0 SWAP1 SLOAD SWAP1 PUSH2 0x100 EXP SWAP1 DIV PUSH20 0xFFFFFFFFFFFFFFFFFFFFFFFFFFFFFFFFFFFFFFFF AND PUSH20 0xFFFFFFFFFFFFFFFFFFFFFFFFFFFFFFFFFFFFFFFF AND PUSH4 0xA9059CBB PUSH1 0xB PUSH0 DUP2 SLOAD DUP2 LT PUSH2 0x9D0 JUMPI PUSH2 0x9CF PUSH2 0x28E7 JUMP JUMPDEST JUMPDEST SWAP1 PUSH0 MSTORE PUSH1 0x20 PUSH0 KECCAK256 ADD PUSH0 SWAP1 SLOAD SWAP1 PUSH2 0x100 EXP SWAP1 DIV PUSH20 0xFFFFFFFFFFFFFFFFFFFFFFFFFFFFFFFFFFFFFFFF AND PUSH1 0x2 PUSH1 0x5 SLOAD PUSH2 0xA07 SWAP2 SWAP1 PUSH2 0x2C22 JUMP JUMPDEST PUSH1 0x40 MLOAD DUP4 PUSH4 0xFFFFFFFF AND PUSH1 0xE0 SHL DUP2 MSTORE PUSH1 0x4 ADD PUSH2 0xA24 SWAP3 SWAP2 SWAP1 PUSH2 0x2A23 JUMP JUMPDEST PUSH1 0x20 PUSH1 0x40 MLOAD DUP1 DUP4 SUB DUP2 PUSH0 DUP8 GAS CALL ISZERO DUP1 ISZERO PUSH2 0xA40 JUMPI RETURNDATASIZE PUSH0 DUP1 RETURNDATACOPY RETURNDATASIZE PUSH0 REVERT JUMPDEST POP POP POP POP PUSH1 0x40 MLOAD RETURNDATASIZE PUSH1 0x1F NOT PUSH1 0x1F DUP3 ADD AND DUP3 ADD DUP1 PUSH1 0x40 MSTORE POP DUP2 ADD SWAP1 PUSH2 0xA64 SWAP2 SWAP1 PUSH2 0x2BCA JUMP JUMPDEST POP PUSH1 0x3 PUSH0 SWAP1 SLOAD SWAP1 PUSH2 0x100 EXP SWAP1 DIV PUSH20 0xFFFFFFFFFFFFFFFFFFFFFFFFFFFFFFFFFFFFFFFF AND PUSH20 0xFFFFFFFFFFFFFFFFFFFFFFFFFFFFFFFFFFFFFFFF AND PUSH4 0xA9059CBB PUSH1 0xB PUSH1 0x1 DUP2 SLOAD DUP2 LT PUSH2 0xAB7 JUMPI PUSH2 0xAB6 PUSH2 0x28E7 JUMP JUMPDEST JUMPDEST SWAP1 PUSH0 MSTORE PUSH1 0x20 PUSH0 KECCAK256 ADD PUSH0 SWAP1 SLOAD SWAP1 PUSH2 0x100 EXP SWAP1 DIV PUSH20 0xFFFFFFFFFFFFFFFFFFFFFFFFFFFFFFFFFFFFFFFF AND PUSH1 0x2 PUSH1 0x5 SLOAD PUSH2 0xAEE SWAP2 SWAP1 PUSH2 0x2C22 JUMP JUMPDEST PUSH1 0x40 MLOAD DUP4 PUSH4 0xFFFFFFFF AND PUSH1 0xE0 SHL DUP2 MSTORE PUSH1 0x4 ADD PUSH2 0xB0B SWAP3 SWAP2 SWAP1 PUSH2 0x2A23 JUMP JUMPDEST PUSH1 0x20 PUSH1 0x40 MLOAD DUP1 DUP4 SUB DUP2 PUSH0 DUP8 GAS CALL ISZERO DUP1 ISZERO PUSH2 0xB27 JUMPI RETURNDATASIZE PUSH0 DUP1 RETURNDATACOPY RETURNDATASIZE PUSH0 REVERT JUMPDEST POP POP POP POP PUSH1 0x40 MLOAD RETURNDATASIZE PUSH1 0x1F NOT PUSH1 0x1F DUP3 ADD AND DUP3 ADD DUP1 PUSH1 0x40 MSTORE POP DUP2 ADD SWAP1 PUSH2 0xB4B SWAP2 SWAP1 PUSH2 0x2BCA JUMP JUMPDEST POP PUSH2 0xB54 PUSH2 0x159A JUMP JUMPDEST PUSH2 0x1053 JUMP JUMPDEST PUSH1 0x1 PUSH1 0x8 SLOAD SUB PUSH2 0xD80 JUMPI PUSH1 0x1 ISZERO ISZERO PUSH1 0x7 PUSH0 DUP4 PUSH20 0xFFFFFFFFFFFFFFFFFFFFFFFFFFFFFFFFFFFFFFFF AND PUSH20 0xFFFFFFFFFFFFFFFFFFFFFFFFFFFFFFFFFFFFFFFF AND DUP2 MSTORE PUSH1 0x20 ADD SWAP1 DUP2 MSTORE PUSH1 0x20 ADD PUSH0 KECCAK256 PUSH0 SWAP1 SLOAD SWAP1 PUSH2 0x100 EXP SWAP1 DIV PUSH1 0xFF AND ISZERO ISZERO SUB PUSH2 0xC97 JUMPI PUSH1 0x3 PUSH0 SWAP1 SLOAD SWAP1 PUSH2 0x100 EXP SWAP1 DIV PUSH20 0xFFFFFFFFFFFFFFFFFFFFFFFFFFFFFFFFFFFFFFFF AND PUSH20 0xFFFFFFFFFFFFFFFFFFFFFFFFFFFFFFFFFFFFFFFF AND PUSH4 0xA9059CBB PUSH1 0xB PUSH0 DUP2 SLOAD DUP2 LT PUSH2 0xC09 JUMPI PUSH2 0xC08 PUSH2 0x28E7 JUMP JUMPDEST JUMPDEST SWAP1 PUSH0 MSTORE PUSH1 0x20 PUSH0 KECCAK256 ADD PUSH0 SWAP1 SLOAD SWAP1 PUSH2 0x100 EXP SWAP1 DIV PUSH20 0xFFFFFFFFFFFFFFFFFFFFFFFFFFFFFFFFFFFFFFFF AND PUSH1 0x5 SLOAD PUSH1 0x40 MLOAD DUP4 PUSH4 0xFFFFFFFF AND PUSH1 0xE0 SHL DUP2 MSTORE PUSH1 0x4 ADD PUSH2 0xC51 SWAP3 SWAP2 SWAP1 PUSH2 0x2A23 JUMP JUMPDEST PUSH1 0x20 PUSH1 0x40 MLOAD DUP1 DUP4 SUB DUP2 PUSH0 DUP8 GAS CALL ISZERO DUP1 ISZERO PUSH2 0xC6D JUMPI RETURNDATASIZE PUSH0 DUP1 RETURNDATACOPY RETURNDATASIZE PUSH0 REVERT JUMPDEST POP POP POP POP PUSH1 0x40 MLOAD RETURNDATASIZE PUSH1 0x1F NOT PUSH1 0x1F DUP3 ADD AND DUP3 ADD DUP1 PUSH1 0x40 MSTORE POP DUP2 ADD SWAP1 PUSH2 0xC91 SWAP2 SWAP1 PUSH2 0x2BCA JUMP JUMPDEST POP PUSH2 0xD73 JUMP JUMPDEST PUSH1 0x3 PUSH0 SWAP1 SLOAD SWAP1 PUSH2 0x100 EXP SWAP1 DIV PUSH20 0xFFFFFFFFFFFFFFFFFFFFFFFFFFFFFFFFFFFFFFFF AND PUSH20 0xFFFFFFFFFFFFFFFFFFFFFFFFFFFFFFFFFFFFFFFF AND PUSH4 0xA9059CBB PUSH1 0xB PUSH1 0x1 DUP2 SLOAD DUP2 LT PUSH2 0xCE9 JUMPI PUSH2 0xCE8 PUSH2 0x28E7 JUMP JUMPDEST JUMPDEST SWAP1 PUSH0 MSTORE PUSH1 0x20 PUSH0 KECCAK256 ADD PUSH0 SWAP1 SLOAD SWAP1 PUSH2 0x100 EXP SWAP1 DIV PUSH20 0xFFFFFFFFFFFFFFFFFFFFFFFFFFFFFFFFFFFFFFFF AND PUSH1 0x5 SLOAD PUSH1 0x40 MLOAD DUP4 PUSH4 0xFFFFFFFF AND PUSH1 0xE0 SHL DUP2 MSTORE PUSH1 0x4 ADD PUSH2 0xD31 SWAP3 SWAP2 SWAP1 PUSH2 0x2A23 JUMP JUMPDEST PUSH1 0x20 PUSH1 0x40 MLOAD DUP1 DUP4 SUB DUP2 PUSH0 DUP8 GAS CALL ISZERO DUP1 ISZERO PUSH2 0xD4D JUMPI RETURNDATASIZE PUSH0 DUP1 RETURNDATACOPY RETURNDATASIZE PUSH0 REVERT JUMPDEST POP POP POP POP PUSH1 0x40 MLOAD RETURNDATASIZE PUSH1 0x1F NOT PUSH1 0x1F DUP3 ADD AND DUP3 ADD DUP1 PUSH1 0x40 MSTORE POP DUP2 ADD SWAP1 PUSH2 0xD71 SWAP2 SWAP1 PUSH2 0x2BCA JUMP JUMPDEST POP JUMPDEST PUSH2 0xD7B PUSH2 0x159A JUMP JUMPDEST PUSH2 0x1052 JUMP JUMPDEST PUSH1 0x2 PUSH1 0x8 SLOAD EQ DUP1 ISZERO PUSH2 0xD94 JUMPI POP PUSH1 0x1 PUSH1 0x9 SLOAD EQ JUMPDEST ISZERO PUSH2 0xFA6 JUMPI PUSH1 0x5 PUSH1 0x6 PUSH0 DUP4 PUSH20 0xFFFFFFFFFFFFFFFFFFFFFFFFFFFFFFFFFFFFFFFF AND PUSH20 0xFFFFFFFFFFFFFFFFFFFFFFFFFFFFFFFFFFFFFFFF AND DUP2 MSTORE PUSH1 0x20 ADD SWAP1 DUP2 MSTORE PUSH1 0x20 ADD PUSH0 KECCAK256 SLOAD EQ PUSH2 0xEBD JUMPI PUSH1 0x3 PUSH0 SWAP1 SLOAD SWAP1 PUSH2 0x100 EXP SWAP1 DIV PUSH20 0xFFFFFFFFFFFFFFFFFFFFFFFFFFFFFFFFFFFFFFFF AND PUSH20 0xFFFFFFFFFFFFFFFFFFFFFFFFFFFFFFFFFFFFFFFF AND PUSH4 0xA9059CBB PUSH1 0xB PUSH0 DUP2 SLOAD DUP2 LT PUSH2 0xE2F JUMPI PUSH2 0xE2E PUSH2 0x28E7 JUMP JUMPDEST JUMPDEST SWAP1 PUSH0 MSTORE PUSH1 0x20 PUSH0 KECCAK256 ADD PUSH0 SWAP1 SLOAD SWAP1 PUSH2 0x100 EXP SWAP1 DIV PUSH20 0xFFFFFFFFFFFFFFFFFFFFFFFFFFFFFFFFFFFFFFFF AND PUSH1 0x5 SLOAD PUSH1 0x40 MLOAD DUP4 PUSH4 0xFFFFFFFF AND PUSH1 0xE0 SHL DUP2 MSTORE PUSH1 0x4 ADD PUSH2 0xE77 SWAP3 SWAP2 SWAP1 PUSH2 0x2A23 JUMP JUMPDEST PUSH1 0x20 PUSH1 0x40 MLOAD DUP1 DUP4 SUB DUP2 PUSH0 DUP8 GAS CALL ISZERO DUP1 ISZERO PUSH2 0xE93 JUMPI RETURNDATASIZE PUSH0 DUP1 RETURNDATACOPY RETURNDATASIZE PUSH0 REVERT JUMPDEST POP POP POP POP PUSH1 0x40 MLOAD RETURNDATASIZE PUSH1 0x1F NOT PUSH1 0x1F DUP3 ADD AND DUP3 ADD DUP1 PUSH1 0x40 MSTORE POP DUP2 ADD SWAP1 PUSH2 0xEB7 SWAP2 SWAP1 PUSH2 0x2BCA JUMP JUMPDEST POP PUSH2 0xF99 JUMP JUMPDEST PUSH1 0x3 PUSH0 SWAP1 SLOAD SWAP1 PUSH2 0x100 EXP SWAP1 DIV PUSH20 0xFFFFFFFFFFFFFFFFFFFFFFFFFFFFFFFFFFFFFFFF AND PUSH20 0xFFFFFFFFFFFFFFFFFFFFFFFFFFFFFFFFFFFFFFFF AND PUSH4 0xA9059CBB PUSH1 0xB PUSH1 0x1 DUP2 SLOAD DUP2 LT PUSH2 0xF0F JUMPI PUSH2 0xF0E PUSH2 0x28E7 JUMP JUMPDEST JUMPDEST SWAP1 PUSH0 MSTORE PUSH1 0x20 PUSH0 KECCAK256 ADD PUSH0 SWAP1 SLOAD SWAP1 PUSH2 0x100 EXP SWAP1 DIV PUSH20 0xFFFFFFFFFFFFFFFFFFFFFFFFFFFFFFFFFFFFFFFF AND PUSH1 0x5 SLOAD PUSH1 0x40 MLOAD DUP4 PUSH4 0xFFFFFFFF AND PUSH1 0xE0 SHL DUP2 MSTORE PUSH1 0x4 ADD PUSH2 0xF57 SWAP3 SWAP2 SWAP1 PUSH2 0x2A23 JUMP JUMPDEST PUSH1 0x20 PUSH1 0x40 MLOAD DUP1 DUP4 SUB DUP2 PUSH0 DUP8 GAS CALL ISZERO DUP1 ISZERO PUSH2 0xF73 JUMPI RETURNDATASIZE PUSH0 DUP1 RETURNDATACOPY RETURNDATASIZE PUSH0 REVERT JUMPDEST POP POP POP POP PUSH1 0x40 MLOAD RETURNDATASIZE PUSH1 0x1F NOT PUSH1 0x1F DUP3 ADD AND DUP3 ADD DUP1 PUSH1 0x40 MSTORE POP DUP2 ADD SWAP1 PUSH2 0xF97 SWAP2 SWAP1 PUSH2 0x2BCA JUMP JUMPDEST POP JUMPDEST PUSH2 0xFA1 PUSH2 0x159A JUMP JUMPDEST PUSH2 0x1051 JUMP JUMPDEST PUSH1 0x2 PUSH1 0x9 SLOAD SUB PUSH2 0x1050 JUMPI PUSH1 0x3 PUSH0 SWAP1 SLOAD SWAP1 PUSH2 0x100 EXP SWAP1 DIV PUSH20 0xFFFFFFFFFFFFFFFFFFFFFFFFFFFFFFFFFFFFFFFF AND PUSH20 0xFFFFFFFFFFFFFFFFFFFFFFFFFFFFFFFFFFFFFFFF AND PUSH4 0xA9059CBB CALLER PUSH1 0x5 SLOAD PUSH1 0x40 MLOAD DUP4 PUSH4 0xFFFFFFFF AND PUSH1 0xE0 SHL DUP2 MSTORE PUSH1 0x4 ADD PUSH2 0x100E SWAP3 SWAP2 SWAP1 PUSH2 0x2A23 JUMP JUMPDEST PUSH1 0x20 PUSH1 0x40 MLOAD DUP1 DUP4 SUB DUP2 PUSH0 DUP8 GAS CALL ISZERO DUP1 ISZERO PUSH2 0x102A JUMPI RETURNDATASIZE PUSH0 DUP1 RETURNDATACOPY RETURNDATASIZE PUSH0 REVERT JUMPDEST POP POP POP POP PUSH1 0x40 MLOAD RETURNDATASIZE PUSH1 0x1F NOT PUSH1 0x1F DUP3 ADD AND DUP3 ADD DUP1 PUSH1 0x40 MSTORE POP DUP2 ADD SWAP1 PUSH2 0x104E SWAP2 SWAP1 PUSH2 0x2BCA JUMP JUMPDEST POP JUMPDEST JUMPDEST JUMPDEST JUMPDEST JUMPDEST JUMPDEST POP JUMP JUMPDEST PUSH1 0x2 PUSH1 0x4 SLOAD EQ PUSH2 0x1066 JUMPI PUSH0 DUP1 REVERT JUMPDEST PUSH1 0x2 PUSH1 0x8 SLOAD EQ PUSH2 0x1074 JUMPI PUSH0 DUP1 REVERT JUMPDEST PUSH1 0x7 PUSH0 CALLER PUSH20 0xFFFFFFFFFFFFFFFFFFFFFFFFFFFFFFFFFFFFFFFF AND PUSH20 0xFFFFFFFFFFFFFFFFFFFFFFFFFFFFFFFFFFFFFFFF AND DUP2 MSTORE PUSH1 0x20 ADD SWAP1 DUP2 MSTORE PUSH1 0x20 ADD PUSH0 KECCAK256 PUSH0 SWAP1 SLOAD SWAP1 PUSH2 0x100 EXP SWAP1 DIV PUSH1 0xFF AND PUSH2 0x10FD JUMPI PUSH1 0x40 MLOAD PUSH32 0x8C379A000000000000000000000000000000000000000000000000000000000 DUP2 MSTORE PUSH1 0x4 ADD PUSH2 0x10F4 SWAP1 PUSH2 0x2C9C JUMP JUMPDEST PUSH1 0x40 MLOAD DUP1 SWAP2 SUB SWAP1 REVERT JUMPDEST PUSH0 DUP2 PUSH1 0x1F PUSH1 0x20 DUP2 LT PUSH2 0x1112 JUMPI PUSH2 0x1111 PUSH2 0x28E7 JUMP JUMPDEST JUMPDEST BYTE PUSH1 0xF8 SHL PUSH1 0xF8 SHR PUSH1 0xFF AND SWAP1 POP PUSH0 DUP2 LT ISZERO DUP1 ISZERO PUSH2 0x112F JUMPI POP PUSH1 0x4 DUP2 GT ISZERO JUMPDEST PUSH2 0x116E JUMPI PUSH1 0x40 MLOAD PUSH32 0x8C379A000000000000000000000000000000000000000000000000000000000 DUP2 MSTORE PUSH1 0x4 ADD PUSH2 0x1165 SWAP1 PUSH2 0x2D04 JUMP JUMPDEST PUSH1 0x40 MLOAD DUP1 SWAP2 SUB SWAP1 REVERT JUMPDEST PUSH2 0x1177 DUP3 PUSH2 0x15C5 JUMP JUMPDEST DUP1 PUSH1 0x6 PUSH0 CALLER PUSH20 0xFFFFFFFFFFFFFFFFFFFFFFFFFFFFFFFFFFFFFFFF AND PUSH20 0xFFFFFFFFFFFFFFFFFFFFFFFFFFFFFFFFFFFFFFFF AND DUP2 MSTORE PUSH1 0x20 ADD SWAP1 DUP2 MSTORE PUSH1 0x20 ADD PUSH0 KECCAK256 DUP2 SWAP1 SSTORE POP PUSH1 0x9 PUSH0 DUP2 SLOAD DUP1 SWAP3 SWAP2 SWAP1 PUSH2 0x11CB SWAP1 PUSH2 0x29A9 JUMP JUMPDEST SWAP2 SWAP1 POP SSTORE POP PUSH2 0x11D8 PUSH2 0x1591 JUMP JUMPDEST PUSH1 0x2 PUSH1 0x9 SLOAD SUB PUSH2 0x11F3 JUMPI PUSH2 0x11EA PUSH2 0x1983 JUMP JUMPDEST PUSH2 0x11F2 PUSH2 0x159A JUMP JUMPDEST JUMPDEST POP POP JUMP JUMPDEST PUSH0 DUP1 SLOAD SWAP1 PUSH2 0x100 EXP SWAP1 DIV PUSH1 0xFF AND DUP2 JUMP JUMPDEST PUSH1 0x2 SLOAD DUP2 JUMP JUMPDEST PUSH1 0x1 PUSH1 0x20 MSTORE DUP1 PUSH0 MSTORE PUSH1 0x40 PUSH0 KECCAK256 PUSH0 SWAP2 POP SWAP1 POP DUP1 PUSH0 ADD SLOAD SWAP1 DUP1 PUSH1 0x1 ADD PUSH0 SWAP1 SLOAD SWAP1 PUSH2 0x100 EXP SWAP1 DIV PUSH8 0xFFFFFFFFFFFFFFFF AND SWAP1 DUP1 PUSH1 0x1 ADD PUSH1 0x8 SWAP1 SLOAD SWAP1 PUSH2 0x100 EXP SWAP1 DIV PUSH1 0xFF AND SWAP1 POP DUP4 JUMP JUMPDEST PUSH1 0xA SLOAD DUP2 JUMP JUMPDEST PUSH1 0x4 SLOAD DUP2 JUMP JUMPDEST PUSH0 PUSH1 0x3 PUSH0 SWAP1 SLOAD SWAP1 PUSH2 0x100 EXP SWAP1 DIV PUSH20 0xFFFFFFFFFFFFFFFFFFFFFFFFFFFFFFFFFFFFFFFF AND PUSH20 0xFFFFFFFFFFFFFFFFFFFFFFFFFFFFFFFFFFFFFFFF AND PUSH4 0xDD62ED3E CALLER CALLER PUSH1 0x40 MLOAD DUP4 PUSH4 0xFFFFFFFF AND PUSH1 0xE0 SHL DUP2 MSTORE PUSH1 0x4 ADD PUSH2 0x12BC SWAP3 SWAP2 SWAP1 PUSH2 0x27F3 JUMP JUMPDEST PUSH1 0x20 PUSH1 0x40 MLOAD DUP1 DUP4 SUB DUP2 DUP7 GAS STATICCALL ISZERO DUP1 ISZERO PUSH2 0x12D7 JUMPI RETURNDATASIZE PUSH0 DUP1 RETURNDATACOPY RETURNDATASIZE PUSH0 REVERT JUMPDEST POP POP POP POP PUSH1 0x40 MLOAD RETURNDATASIZE PUSH1 0x1F NOT PUSH1 0x1F DUP3 ADD AND DUP3 ADD DUP1 PUSH1 0x40 MSTORE POP DUP2 ADD SWAP1 PUSH2 0x12FB SWAP2 SWAP1 PUSH2 0x282E JUMP JUMPDEST SWAP1 POP SWAP1 JUMP JUMPDEST PUSH1 0x6 PUSH1 0x20 MSTORE DUP1 PUSH0 MSTORE PUSH1 0x40 PUSH0 KECCAK256 PUSH0 SWAP2 POP SWAP1 POP SLOAD DUP2 JUMP JUMPDEST PUSH0 PUSH1 0x2 SLOAD TIMESTAMP PUSH2 0x1324 SWAP2 SWAP1 PUSH2 0x2D22 JUMP JUMPDEST SWAP1 POP SWAP1 JUMP JUMPDEST PUSH1 0x9 SLOAD DUP2 JUMP JUMPDEST PUSH1 0x2 PUSH1 0x4 SLOAD EQ PUSH2 0x1374 JUMPI PUSH1 0x40 MLOAD PUSH32 0x8C379A000000000000000000000000000000000000000000000000000000000 DUP2 MSTORE PUSH1 0x4 ADD PUSH2 0x136B SWAP1 PUSH2 0x2D9F JUMP JUMPDEST PUSH1 0x40 MLOAD DUP1 SWAP2 SUB SWAP1 REVERT JUMPDEST PUSH1 0x2 PUSH1 0x8 SLOAD LT PUSH2 0x13B9 JUMPI PUSH1 0x40 MLOAD PUSH32 0x8C379A000000000000000000000000000000000000000000000000000000000 DUP2 MSTORE PUSH1 0x4 ADD PUSH2 0x13B0 SWAP1 PUSH2 0x2E07 JUMP JUMPDEST PUSH1 0x40 MLOAD DUP1 SWAP2 SUB SWAP1 REVERT JUMPDEST PUSH1 0x7 PUSH0 CALLER PUSH20 0xFFFFFFFFFFFFFFFFFFFFFFFFFFFFFFFFFFFFFFFF AND PUSH20 0xFFFFFFFFFFFFFFFFFFFFFFFFFFFFFFFFFFFFFFFF AND DUP2 MSTORE PUSH1 0x20 ADD SWAP1 DUP2 MSTORE PUSH1 0x20 ADD PUSH0 KECCAK256 PUSH0 SWAP1 SLOAD SWAP1 PUSH2 0x100 EXP SWAP1 DIV PUSH1 0xFF AND ISZERO PUSH2 0x1443 JUMPI PUSH1 0x40 MLOAD PUSH32 0x8C379A000000000000000000000000000000000000000000000000000000000 DUP2 MSTORE PUSH1 0x4 ADD PUSH2 0x143A SWAP1 PUSH2 0x2E6F JUMP JUMPDEST PUSH1 0x40 MLOAD DUP1 SWAP2 SUB SWAP1 REVERT JUMPDEST PUSH1 0x1 PUSH1 0x7 PUSH0 CALLER PUSH20 0xFFFFFFFFFFFFFFFFFFFFFFFFFFFFFFFFFFFFFFFF AND PUSH20 0xFFFFFFFFFFFFFFFFFFFFFFFFFFFFFFFFFFFFFFFF AND DUP2 MSTORE PUSH1 0x20 ADD SWAP1 DUP2 MSTORE PUSH1 0x20 ADD PUSH0 KECCAK256 PUSH0 PUSH2 0x100 EXP DUP2 SLOAD DUP2 PUSH1 0xFF MUL NOT AND SWAP1 DUP4 ISZERO ISZERO MUL OR SWAP1 SSTORE POP PUSH2 0x14A1 DUP2 PUSH2 0x1DF4 JUMP JUMPDEST PUSH1 0x8 PUSH0 DUP2 SLOAD DUP1 SWAP3 SWAP2 SWAP1 PUSH2 0x14B3 SWAP1 PUSH2 0x29A9 JUMP JUMPDEST SWAP2 SWAP1 POP SSTORE POP PUSH1 0x2 PUSH1 0x8 SLOAD SUB PUSH2 0x14CB JUMPI PUSH2 0x14CA PUSH2 0x1FC6 JUMP JUMPDEST JUMPDEST PUSH32 0xA8FB792D8BB1782EBA00886B053364D6972FA987197717655665C13D3696EA9E CALLER PUSH1 0x8 SLOAD PUSH1 0x40 MLOAD PUSH2 0x14FE SWAP3 SWAP2 SWAP1 PUSH2 0x2A23 JUMP JUMPDEST PUSH1 0x40 MLOAD DUP1 SWAP2 SUB SWAP1 LOG1 PUSH2 0x150E PUSH2 0x1591 JUMP JUMPDEST POP JUMP JUMPDEST PUSH0 PUSH1 0x3C PUSH1 0x2 SLOAD TIMESTAMP PUSH2 0x1522 SWAP2 SWAP1 PUSH2 0x2D22 JUMP JUMPDEST PUSH2 0x152C SWAP2 SWAP1 PUSH2 0x2C22 JUMP JUMPDEST SWAP1 POP SWAP1 JUMP JUMPDEST PUSH1 0xB DUP2 DUP2 SLOAD DUP2 LT PUSH2 0x1540 JUMPI PUSH0 DUP1 REVERT JUMPDEST SWAP1 PUSH0 MSTORE PUSH1 0x20 PUSH0 KECCAK256 ADD PUSH0 SWAP2 POP SLOAD SWAP1 PUSH2 0x100 EXP SWAP1 DIV PUSH20 0xFFFFFFFFFFFFFFFFFFFFFFFFFFFFFFFFFFFFFFFF AND DUP2 JUMP JUMPDEST PUSH1 0x3 PUSH0 SWAP1 SLOAD SWAP1 PUSH2 0x100 EXP SWAP1 DIV PUSH20 0xFFFFFFFFFFFFFFFFFFFFFFFFFFFFFFFFFFFFFFFF AND DUP2 JUMP JUMPDEST TIMESTAMP PUSH1 0x2 DUP2 SWAP1 SSTORE POP JUMP JUMPDEST PUSH1 0xB PUSH0 PUSH2 0x15A7 SWAP2 SWAP1 PUSH2 0x2453 JUMP JUMPDEST PUSH0 PUSH1 0x4 DUP2 SWAP1 SSTORE POP PUSH0 PUSH1 0x8 DUP2 SWAP1 SSTORE POP PUSH0 PUSH1 0x9 DUP2 SWAP1 SSTORE POP PUSH0 PUSH1 0x5 DUP2 SWAP1 SSTORE POP JUMP JUMPDEST PUSH0 ISZERO ISZERO PUSH1 0x1 PUSH0 CALLER PUSH20 0xFFFFFFFFFFFFFFFFFFFFFFFFFFFFFFFFFFFFFFFF AND PUSH20 0xFFFFFFFFFFFFFFFFFFFFFFFFFFFFFFFFFFFFFFFF AND DUP2 MSTORE PUSH1 0x20 ADD SWAP1 DUP2 MSTORE PUSH1 0x20 ADD PUSH0 KECCAK256 PUSH1 0x1 ADD PUSH1 0x8 SWAP1 SLOAD SWAP1 PUSH2 0x100 EXP SWAP1 DIV PUSH1 0xFF AND ISZERO ISZERO EQ PUSH2 0x1658 JUMPI PUSH1 0x40 MLOAD PUSH32 0x8C379A000000000000000000000000000000000000000000000000000000000 DUP2 MSTORE PUSH1 0x4 ADD PUSH2 0x164F SWAP1 PUSH2 0x2EFD JUMP JUMPDEST PUSH1 0x40 MLOAD DUP1 SWAP2 SUB SWAP1 REVERT JUMPDEST PUSH1 0x1 DUP1 PUSH0 CALLER PUSH20 0xFFFFFFFFFFFFFFFFFFFFFFFFFFFFFFFFFFFFFFFF AND PUSH20 0xFFFFFFFFFFFFFFFFFFFFFFFFFFFFFFFFFFFFFFFF AND DUP2 MSTORE PUSH1 0x20 ADD SWAP1 DUP2 MSTORE PUSH1 0x20 ADD PUSH0 KECCAK256 PUSH1 0x1 ADD PUSH1 0x8 PUSH2 0x100 EXP DUP2 SLOAD DUP2 PUSH1 0xFF MUL NOT AND SWAP1 DUP4 ISZERO ISZERO MUL OR SWAP1 SSTORE POP PUSH1 0x1 PUSH0 CALLER PUSH20 0xFFFFFFFFFFFFFFFFFFFFFFFFFFFFFFFFFFFFFFFF AND PUSH20 0xFFFFFFFFFFFFFFFFFFFFFFFFFFFFFFFFFFFFFFFF AND DUP2 MSTORE PUSH1 0x20 ADD SWAP1 DUP2 MSTORE PUSH1 0x20 ADD PUSH0 KECCAK256 PUSH0 ADD SLOAD PUSH2 0x16F9 DUP3 PUSH2 0x730 JUMP JUMPDEST EQ PUSH2 0x1739 JUMPI PUSH1 0x40 MLOAD PUSH32 0x8C379A000000000000000000000000000000000000000000000000000000000 DUP2 MSTORE PUSH1 0x4 ADD PUSH2 0x1730 SWAP1 PUSH2 0x2F8B JUMP JUMPDEST PUSH1 0x40 MLOAD DUP1 SWAP2 SUB SWAP1 REVERT JUMPDEST PUSH1 0x1 PUSH0 CALLER PUSH20 0xFFFFFFFFFFFFFFFFFFFFFFFFFFFFFFFFFFFFFFFF AND PUSH20 0xFFFFFFFFFFFFFFFFFFFFFFFFFFFFFFFFFFFFFFFF AND DUP2 MSTORE PUSH1 0x20 ADD SWAP1 DUP2 MSTORE PUSH1 0x20 ADD PUSH0 KECCAK256 PUSH1 0x1 ADD PUSH0 SWAP1 SLOAD SWAP1 PUSH2 0x100 EXP SWAP1 DIV PUSH8 0xFFFFFFFFFFFFFFFF AND PUSH8 0xFFFFFFFFFFFFFFFF AND NUMBER PUSH8 0xFFFFFFFFFFFFFFFF AND GT PUSH2 0x17E2 JUMPI PUSH1 0x40 MLOAD PUSH32 0x8C379A000000000000000000000000000000000000000000000000000000000 DUP2 MSTORE PUSH1 0x4 ADD PUSH2 0x17D9 SWAP1 PUSH2 0x303F JUMP JUMPDEST PUSH1 0x40 MLOAD DUP1 SWAP2 SUB SWAP1 REVERT JUMPDEST PUSH1 0xFA PUSH1 0x1 PUSH0 CALLER PUSH20 0xFFFFFFFFFFFFFFFFFFFFFFFFFFFFFFFFFFFFFFFF AND PUSH20 0xFFFFFFFFFFFFFFFFFFFFFFFFFFFFFFFFFFFFFFFF AND DUP2 MSTORE PUSH1 0x20 ADD SWAP1 DUP2 MSTORE PUSH1 0x20 ADD PUSH0 KECCAK256 PUSH1 0x1 ADD PUSH0 SWAP1 SLOAD SWAP1 PUSH2 0x100 EXP SWAP1 DIV PUSH8 0xFFFFFFFFFFFFFFFF AND PUSH2 0x1842 SWAP2 SWAP1 PUSH2 0x305D JUMP JUMPDEST PUSH8 0xFFFFFFFFFFFFFFFF AND NUMBER PUSH8 0xFFFFFFFFFFFFFFFF AND GT ISZERO PUSH2 0x1898 JUMPI PUSH1 0x40 MLOAD PUSH32 0x8C379A000000000000000000000000000000000000000000000000000000000 DUP2 MSTORE PUSH1 0x4 ADD PUSH2 0x188F SWAP1 PUSH2 0x3108 JUMP JUMPDEST PUSH1 0x40 MLOAD DUP1 SWAP2 SUB SWAP1 REVERT JUMPDEST PUSH0 PUSH1 0x1 PUSH0 CALLER PUSH20 0xFFFFFFFFFFFFFFFFFFFFFFFFFFFFFFFFFFFFFFFF AND PUSH20 0xFFFFFFFFFFFFFFFFFFFFFFFFFFFFFFFFFFFFFFFF AND DUP2 MSTORE PUSH1 0x20 ADD SWAP1 DUP2 MSTORE PUSH1 0x20 ADD PUSH0 KECCAK256 PUSH1 0x1 ADD PUSH0 SWAP1 SLOAD SWAP1 PUSH2 0x100 EXP SWAP1 DIV PUSH8 0xFFFFFFFFFFFFFFFF AND PUSH8 0xFFFFFFFFFFFFFFFF AND BLOCKHASH SWAP1 POP PUSH0 DUP1 PUSH0 SWAP1 SLOAD SWAP1 PUSH2 0x100 EXP SWAP1 DIV PUSH1 0xFF AND PUSH1 0xFF AND DUP3 DUP5 PUSH1 0x40 MLOAD PUSH1 0x20 ADD PUSH2 0x191F SWAP3 SWAP2 SWAP1 PUSH2 0x3126 JUMP JUMPDEST PUSH1 0x40 MLOAD PUSH1 0x20 DUP2 DUP4 SUB SUB DUP2 MSTORE SWAP1 PUSH1 0x40 MSTORE DUP1 MLOAD SWAP1 PUSH1 0x20 ADD KECCAK256 PUSH0 SHR PUSH2 0x1941 SWAP2 SWAP1 PUSH2 0x3151 JUMP JUMPDEST SWAP1 POP PUSH32 0xBC016DD1CADEAEFCB851AF7A0A93532E0023D536894B730801F7BCFE7065BCC2 CALLER DUP5 DUP4 PUSH1 0x40 MLOAD PUSH2 0x1976 SWAP4 SWAP3 SWAP2 SWAP1 PUSH2 0x3181 JUMP JUMPDEST PUSH1 0x40 MLOAD DUP1 SWAP2 SUB SWAP1 LOG1 POP POP POP JUMP JUMPDEST PUSH0 PUSH1 0x6 PUSH0 PUSH1 0xB PUSH0 DUP2 SLOAD DUP2 LT PUSH2 0x199B JUMPI PUSH2 0x199A PUSH2 0x28E7 JUMP JUMPDEST JUMPDEST SWAP1 PUSH0 MSTORE PUSH1 0x20 PUSH0 KECCAK256 ADD PUSH0 SWAP1 SLOAD SWAP1 PUSH2 0x100 EXP SWAP1 DIV PUSH20 0xFFFFFFFFFFFFFFFFFFFFFFFFFFFFFFFFFFFFFFFF AND PUSH20 0xFFFFFFFFFFFFFFFFFFFFFFFFFFFFFFFFFFFFFFFF AND PUSH20 0xFFFFFFFFFFFFFFFFFFFFFFFFFFFFFFFFFFFFFFFF AND DUP2 MSTORE PUSH1 0x20 ADD SWAP1 DUP2 MSTORE PUSH1 0x20 ADD PUSH0 KECCAK256 SLOAD SWAP1 POP PUSH0 PUSH1 0x6 PUSH0 PUSH1 0xB PUSH1 0x1 DUP2 SLOAD DUP2 LT PUSH2 0x1A18 JUMPI PUSH2 0x1A17 PUSH2 0x28E7 JUMP JUMPDEST JUMPDEST SWAP1 PUSH0 MSTORE PUSH1 0x20 PUSH0 KECCAK256 ADD PUSH0 SWAP1 SLOAD SWAP1 PUSH2 0x100 EXP SWAP1 DIV PUSH20 0xFFFFFFFFFFFFFFFFFFFFFFFFFFFFFFFFFFFFFFFF AND PUSH20 0xFFFFFFFFFFFFFFFFFFFFFFFFFFFFFFFFFFFFFFFF AND PUSH20 0xFFFFFFFFFFFFFFFFFFFFFFFFFFFFFFFFFFFFFFFF AND DUP2 MSTORE PUSH1 0x20 ADD SWAP1 DUP2 MSTORE PUSH1 0x20 ADD PUSH0 KECCAK256 SLOAD SWAP1 POP PUSH0 DUP2 DUP4 SUB PUSH2 0x1C56 JUMPI PUSH1 0x3 PUSH0 SWAP1 SLOAD SWAP1 PUSH2 0x100 EXP SWAP1 DIV PUSH20 0xFFFFFFFFFFFFFFFFFFFFFFFFFFFFFFFFFFFFFFFF AND PUSH20 0xFFFFFFFFFFFFFFFFFFFFFFFFFFFFFFFFFFFFFFFF AND PUSH4 0xA9059CBB PUSH1 0xB PUSH0 DUP2 SLOAD DUP2 LT PUSH2 0x1AD5 JUMPI PUSH2 0x1AD4 PUSH2 0x28E7 JUMP JUMPDEST JUMPDEST SWAP1 PUSH0 MSTORE PUSH1 0x20 PUSH0 KECCAK256 ADD PUSH0 SWAP1 SLOAD SWAP1 PUSH2 0x100 EXP SWAP1 DIV PUSH20 0xFFFFFFFFFFFFFFFFFFFFFFFFFFFFFFFFFFFFFFFF AND PUSH1 0x2 PUSH1 0x5 SLOAD PUSH2 0x1B0C SWAP2 SWAP1 PUSH2 0x2C22 JUMP JUMPDEST PUSH1 0x40 MLOAD DUP4 PUSH4 0xFFFFFFFF AND PUSH1 0xE0 SHL DUP2 MSTORE PUSH1 0x4 ADD PUSH2 0x1B29 SWAP3 SWAP2 SWAP1 PUSH2 0x2A23 JUMP JUMPDEST PUSH1 0x20 PUSH1 0x40 MLOAD DUP1 DUP4 SUB DUP2 PUSH0 DUP8 GAS CALL ISZERO DUP1 ISZERO PUSH2 0x1B45 JUMPI RETURNDATASIZE PUSH0 DUP1 RETURNDATACOPY RETURNDATASIZE PUSH0 REVERT JUMPDEST POP POP POP POP PUSH1 0x40 MLOAD RETURNDATASIZE PUSH1 0x1F NOT PUSH1 0x1F DUP3 ADD AND DUP3 ADD DUP1 PUSH1 0x40 MSTORE POP DUP2 ADD SWAP1 PUSH2 0x1B69 SWAP2 SWAP1 PUSH2 0x2BCA JUMP JUMPDEST POP PUSH1 0x3 PUSH0 SWAP1 SLOAD SWAP1 PUSH2 0x100 EXP SWAP1 DIV PUSH20 0xFFFFFFFFFFFFFFFFFFFFFFFFFFFFFFFFFFFFFFFF AND PUSH20 0xFFFFFFFFFFFFFFFFFFFFFFFFFFFFFFFFFFFFFFFF AND PUSH4 0xA9059CBB PUSH1 0xB PUSH1 0x1 DUP2 SLOAD DUP2 LT PUSH2 0x1BBC JUMPI PUSH2 0x1BBB PUSH2 0x28E7 JUMP JUMPDEST JUMPDEST SWAP1 PUSH0 MSTORE PUSH1 0x20 PUSH0 KECCAK256 ADD PUSH0 SWAP1 SLOAD SWAP1 PUSH2 0x100 EXP SWAP1 DIV PUSH20 0xFFFFFFFFFFFFFFFFFFFFFFFFFFFFFFFFFFFFFFFF AND PUSH1 0x2 PUSH1 0x5 SLOAD PUSH2 0x1BF3 SWAP2 SWAP1 PUSH2 0x2C22 JUMP JUMPDEST PUSH1 0x40 MLOAD DUP4 PUSH4 0xFFFFFFFF AND PUSH1 0xE0 SHL DUP2 MSTORE PUSH1 0x4 ADD PUSH2 0x1C10 SWAP3 SWAP2 SWAP1 PUSH2 0x2A23 JUMP JUMPDEST PUSH1 0x20 PUSH1 0x40 MLOAD DUP1 DUP4 SUB DUP2 PUSH0 DUP8 GAS CALL ISZERO DUP1 ISZERO PUSH2 0x1C2C JUMPI RETURNDATASIZE PUSH0 DUP1 RETURNDATACOPY RETURNDATASIZE PUSH0 REVERT JUMPDEST POP POP POP POP PUSH1 0x40 MLOAD RETURNDATASIZE PUSH1 0x1F NOT PUSH1 0x1F DUP3 ADD AND DUP3 ADD DUP1 PUSH1 0x40 MSTORE POP DUP2 ADD SWAP1 PUSH2 0x1C50 SWAP2 SWAP1 PUSH2 0x2BCA JUMP JUMPDEST POP PUSH2 0x1D1C JUMP JUMPDEST DUP2 PUSH1 0x5 PUSH1 0x1 DUP6 PUSH2 0x1C66 SWAP2 SWAP1 PUSH2 0x29F0 JUMP JUMPDEST PUSH2 0x1C70 SWAP2 SWAP1 PUSH2 0x3151 JUMP JUMPDEST EQ DUP1 PUSH2 0x1C93 JUMPI POP DUP2 PUSH1 0x5 PUSH1 0x3 DUP6 PUSH2 0x1C87 SWAP2 SWAP1 PUSH2 0x29F0 JUMP JUMPDEST PUSH2 0x1C91 SWAP2 SWAP1 PUSH2 0x3151 JUMP JUMPDEST EQ JUMPDEST ISZERO PUSH2 0x1CDC JUMPI PUSH1 0xB PUSH1 0x1 DUP2 SLOAD DUP2 LT PUSH2 0x1CAD JUMPI PUSH2 0x1CAC PUSH2 0x28E7 JUMP JUMPDEST JUMPDEST SWAP1 PUSH0 MSTORE PUSH1 0x20 PUSH0 KECCAK256 ADD PUSH0 SWAP1 SLOAD SWAP1 PUSH2 0x100 EXP SWAP1 DIV PUSH20 0xFFFFFFFFFFFFFFFFFFFFFFFFFFFFFFFFFFFFFFFF AND SWAP1 POP PUSH2 0x1D1B JUMP JUMPDEST PUSH1 0xB PUSH0 DUP2 SLOAD DUP2 LT PUSH2 0x1CF0 JUMPI PUSH2 0x1CEF PUSH2 0x28E7 JUMP JUMPDEST JUMPDEST SWAP1 PUSH0 MSTORE PUSH1 0x20 PUSH0 KECCAK256 ADD PUSH0 SWAP1 SLOAD SWAP1 PUSH2 0x100 EXP SWAP1 DIV PUSH20 0xFFFFFFFFFFFFFFFFFFFFFFFFFFFFFFFFFFFFFFFF AND SWAP1 POP JUMPDEST JUMPDEST PUSH0 PUSH20 0xFFFFFFFFFFFFFFFFFFFFFFFFFFFFFFFFFFFFFFFF AND DUP2 PUSH20 0xFFFFFFFFFFFFFFFFFFFFFFFFFFFFFFFFFFFFFFFF AND EQ PUSH2 0x1DEF JUMPI PUSH1 0x3 PUSH0 SWAP1 SLOAD SWAP1 PUSH2 0x100 EXP SWAP1 DIV PUSH20 0xFFFFFFFFFFFFFFFFFFFFFFFFFFFFFFFFFFFFFFFF AND PUSH20 0xFFFFFFFFFFFFFFFFFFFFFFFFFFFFFFFFFFFFFFFF AND PUSH4 0xA9059CBB DUP3 PUSH1 0x5 SLOAD PUSH1 0x40 MLOAD DUP4 PUSH4 0xFFFFFFFF AND PUSH1 0xE0 SHL DUP2 MSTORE PUSH1 0x4 ADD PUSH2 0x1DAD SWAP3 SWAP2 SWAP1 PUSH2 0x2A23 JUMP JUMPDEST PUSH1 0x20 PUSH1 0x40 MLOAD DUP1 DUP4 SUB DUP2 PUSH0 DUP8 GAS CALL ISZERO DUP1 ISZERO PUSH2 0x1DC9 JUMPI RETURNDATASIZE PUSH0 DUP1 RETURNDATACOPY RETURNDATASIZE PUSH0 REVERT JUMPDEST POP POP POP POP PUSH1 0x40 MLOAD RETURNDATASIZE PUSH1 0x1F NOT PUSH1 0x1F DUP3 ADD AND DUP3 ADD DUP1 PUSH1 0x40 MSTORE POP DUP2 ADD SWAP1 PUSH2 0x1DED SWAP2 SWAP1 PUSH2 0x2BCA JUMP JUMPDEST POP JUMPDEST POP POP POP JUMP JUMPDEST DUP1 PUSH1 0x1 PUSH0 CALLER PUSH20 0xFFFFFFFFFFFFFFFFFFFFFFFFFFFFFFFFFFFFFFFF AND PUSH20 0xFFFFFFFFFFFFFFFFFFFFFFFFFFFFFFFFFFFFFFFF AND DUP2 MSTORE PUSH1 0x20 ADD SWAP1 DUP2 MSTORE PUSH1 0x20 ADD PUSH0 KECCAK256 PUSH0 ADD DUP2 SWAP1 SSTORE POP NUMBER PUSH1 0x1 PUSH0 CALLER PUSH20 0xFFFFFFFFFFFFFFFFFFFFFFFFFFFFFFFFFFFFFFFF AND PUSH20 0xFFFFFFFFFFFFFFFFFFFFFFFFFFFFFFFFFFFFFFFF AND DUP2 MSTORE PUSH1 0x20 ADD SWAP1 DUP2 MSTORE PUSH1 0x20 ADD PUSH0 KECCAK256 PUSH1 0x1 ADD PUSH0 PUSH2 0x100 EXP DUP2 SLOAD DUP2 PUSH8 0xFFFFFFFFFFFFFFFF MUL NOT AND SWAP1 DUP4 PUSH8 0xFFFFFFFFFFFFFFFF AND MUL OR SWAP1 SSTORE POP PUSH0 PUSH1 0x1 PUSH0 CALLER PUSH20 0xFFFFFFFFFFFFFFFFFFFFFFFFFFFFFFFFFFFFFFFF AND PUSH20 0xFFFFFFFFFFFFFFFFFFFFFFFFFFFFFFFFFFFFFFFF AND DUP2 MSTORE PUSH1 0x20 ADD SWAP1 DUP2 MSTORE PUSH1 0x20 ADD PUSH0 KECCAK256 PUSH1 0x1 ADD PUSH1 0x8 PUSH2 0x100 EXP DUP2 SLOAD DUP2 PUSH1 0xFF MUL NOT AND SWAP1 DUP4 ISZERO ISZERO MUL OR SWAP1 SSTORE POP PUSH32 0x3C1A1F8F38335B17F751C6DA4BA7D1865F26B3997535176F5080DE9FAD891603 CALLER PUSH1 0x1 PUSH0 CALLER PUSH20 0xFFFFFFFFFFFFFFFFFFFFFFFFFFFFFFFFFFFFFFFF AND PUSH20 0xFFFFFFFFFFFFFFFFFFFFFFFFFFFFFFFFFFFFFFFF AND DUP2 MSTORE PUSH1 0x20 ADD SWAP1 DUP2 MSTORE PUSH1 0x20 ADD PUSH0 KECCAK256 PUSH0 ADD SLOAD PUSH1 0x1 PUSH0 CALLER PUSH20 0xFFFFFFFFFFFFFFFFFFFFFFFFFFFFFFFFFFFFFFFF AND PUSH20 0xFFFFFFFFFFFFFFFFFFFFFFFFFFFFFFFFFFFFFFFF AND DUP2 MSTORE PUSH1 0x20 ADD SWAP1 DUP2 MSTORE PUSH1 0x20 ADD PUSH0 KECCAK256 PUSH1 0x1 ADD PUSH0 SWAP1 SLOAD SWAP1 PUSH2 0x100 EXP SWAP1 DIV PUSH8 0xFFFFFFFFFFFFFFFF AND PUSH1 0x40 MLOAD PUSH2 0x1FBB SWAP4 SWAP3 SWAP2 SWAP1 PUSH2 0x31B6 JUMP JUMPDEST PUSH1 0x40 MLOAD DUP1 SWAP2 SUB SWAP1 LOG1 POP JUMP JUMPDEST PUSH1 0xC SLOAD PUSH1 0x3 PUSH0 SWAP1 SLOAD SWAP1 PUSH2 0x100 EXP SWAP1 DIV PUSH20 0xFFFFFFFFFFFFFFFFFFFFFFFFFFFFFFFFFFFFFFFF AND PUSH20 0xFFFFFFFFFFFFFFFFFFFFFFFFFFFFFFFFFFFFFFFF AND PUSH4 0xDD62ED3E PUSH1 0xB PUSH0 DUP2 SLOAD DUP2 LT PUSH2 0x201A JUMPI PUSH2 0x2019 PUSH2 0x28E7 JUMP JUMPDEST JUMPDEST SWAP1 PUSH0 MSTORE PUSH1 0x20 PUSH0 KECCAK256 ADD PUSH0 SWAP1 SLOAD SWAP1 PUSH2 0x100 EXP SWAP1 DIV PUSH20 0xFFFFFFFFFFFFFFFFFFFFFFFFFFFFFFFFFFFFFFFF AND PUSH1 0xB PUSH0 DUP2 SLOAD DUP2 LT PUSH2 0x2056 JUMPI PUSH2 0x2055 PUSH2 0x28E7 JUMP JUMPDEST JUMPDEST SWAP1 PUSH0 MSTORE PUSH1 0x20 PUSH0 KECCAK256 ADD PUSH0 SWAP1 SLOAD SWAP1 PUSH2 0x100 EXP SWAP1 DIV PUSH20 0xFFFFFFFFFFFFFFFFFFFFFFFFFFFFFFFFFFFFFFFF AND PUSH1 0x40 MLOAD DUP4 PUSH4 0xFFFFFFFF AND PUSH1 0xE0 SHL DUP2 MSTORE PUSH1 0x4 ADD PUSH2 0x209B SWAP3 SWAP2 SWAP1 PUSH2 0x27F3 JUMP JUMPDEST PUSH1 0x20 PUSH1 0x40 MLOAD DUP1 DUP4 SUB DUP2 DUP7 GAS STATICCALL ISZERO DUP1 ISZERO PUSH2 0x20B6 JUMPI RETURNDATASIZE PUSH0 DUP1 RETURNDATACOPY RETURNDATASIZE PUSH0 REVERT JUMPDEST POP POP POP POP PUSH1 0x40 MLOAD RETURNDATASIZE PUSH1 0x1F NOT PUSH1 0x1F DUP3 ADD AND DUP3 ADD DUP1 PUSH1 0x40 MSTORE POP DUP2 ADD SWAP1 PUSH2 0x20DA SWAP2 SWAP1 PUSH2 0x282E JUMP JUMPDEST LT ISZERO PUSH2 0x211B JUMPI PUSH1 0x40 MLOAD PUSH32 0x8C379A000000000000000000000000000000000000000000000000000000000 DUP2 MSTORE PUSH1 0x4 ADD PUSH2 0x2112 SWAP1 PUSH2 0x325B JUMP JUMPDEST PUSH1 0x40 MLOAD DUP1 SWAP2 SUB SWAP1 REVERT JUMPDEST PUSH1 0xC SLOAD PUSH1 0x3 PUSH0 SWAP1 SLOAD SWAP1 PUSH2 0x100 EXP SWAP1 DIV PUSH20 0xFFFFFFFFFFFFFFFFFFFFFFFFFFFFFFFFFFFFFFFF AND PUSH20 0xFFFFFFFFFFFFFFFFFFFFFFFFFFFFFFFFFFFFFFFF AND PUSH4 0xDD62ED3E PUSH1 0xB PUSH1 0x1 DUP2 SLOAD DUP2 LT PUSH2 0x2170 JUMPI PUSH2 0x216F PUSH2 0x28E7 JUMP JUMPDEST JUMPDEST SWAP1 PUSH0 MSTORE PUSH1 0x20 PUSH0 KECCAK256 ADD PUSH0 SWAP1 SLOAD SWAP1 PUSH2 0x100 EXP SWAP1 DIV PUSH20 0xFFFFFFFFFFFFFFFFFFFFFFFFFFFFFFFFFFFFFFFF AND PUSH1 0xB PUSH1 0x1 DUP2 SLOAD DUP2 LT PUSH2 0x21AD JUMPI PUSH2 0x21AC PUSH2 0x28E7 JUMP JUMPDEST JUMPDEST SWAP1 PUSH0 MSTORE PUSH1 0x20 PUSH0 KECCAK256 ADD PUSH0 SWAP1 SLOAD SWAP1 PUSH2 0x100 EXP SWAP1 DIV PUSH20 0xFFFFFFFFFFFFFFFFFFFFFFFFFFFFFFFFFFFFFFFF AND PUSH1 0x40 MLOAD DUP4 PUSH4 0xFFFFFFFF AND PUSH1 0xE0 SHL DUP2 MSTORE PUSH1 0x4 ADD PUSH2 0x21F2 SWAP3 SWAP2 SWAP1 PUSH2 0x27F3 JUMP JUMPDEST PUSH1 0x20 PUSH1 0x40 MLOAD DUP1 DUP4 SUB DUP2 DUP7 GAS STATICCALL ISZERO DUP1 ISZERO PUSH2 0x220D JUMPI RETURNDATASIZE PUSH0 DUP1 RETURNDATACOPY RETURNDATASIZE PUSH0 REVERT JUMPDEST POP POP POP POP PUSH1 0x40 MLOAD RETURNDATASIZE PUSH1 0x1F NOT PUSH1 0x1F DUP3 ADD AND DUP3 ADD DUP1 PUSH1 0x40 MSTORE POP DUP2 ADD SWAP1 PUSH2 0x2231 SWAP2 SWAP1 PUSH2 0x282E JUMP JUMPDEST LT ISZERO PUSH2 0x2272 JUMPI PUSH1 0x40 MLOAD PUSH32 0x8C379A000000000000000000000000000000000000000000000000000000000 DUP2 MSTORE PUSH1 0x4 ADD PUSH2 0x2269 SWAP1 PUSH2 0x32E9 JUMP JUMPDEST PUSH1 0x40 MLOAD DUP1 SWAP2 SUB SWAP1 REVERT JUMPDEST PUSH1 0x3 PUSH0 SWAP1 SLOAD SWAP1 PUSH2 0x100 EXP SWAP1 DIV PUSH20 0xFFFFFFFFFFFFFFFFFFFFFFFFFFFFFFFFFFFFFFFF AND PUSH20 0xFFFFFFFFFFFFFFFFFFFFFFFFFFFFFFFFFFFFFFFF AND PUSH4 0x23B872DD ADDRESS PUSH1 0xB PUSH0 DUP2 SLOAD DUP2 LT PUSH2 0x22C4 JUMPI PUSH2 0x22C3 PUSH2 0x28E7 JUMP JUMPDEST JUMPDEST SWAP1 PUSH0 MSTORE PUSH1 0x20 PUSH0 KECCAK256 ADD PUSH0 SWAP1 SLOAD SWAP1 PUSH2 0x100 EXP SWAP1 DIV PUSH20 0xFFFFFFFFFFFFFFFFFFFFFFFFFFFFFFFFFFFFFFFF AND PUSH1 0xC SLOAD PUSH1 0x40 MLOAD DUP5 PUSH4 0xFFFFFFFF AND PUSH1 0xE0 SHL DUP2 MSTORE PUSH1 0x4 ADD PUSH2 0x230D SWAP4 SWAP3 SWAP2 SWAP1 PUSH2 0x3307 JUMP JUMPDEST PUSH1 0x20 PUSH1 0x40 MLOAD DUP1 DUP4 SUB DUP2 PUSH0 DUP8 GAS CALL ISZERO DUP1 ISZERO PUSH2 0x2329 JUMPI RETURNDATASIZE PUSH0 DUP1 RETURNDATACOPY RETURNDATASIZE PUSH0 REVERT JUMPDEST POP POP POP POP PUSH1 0x40 MLOAD RETURNDATASIZE PUSH1 0x1F NOT PUSH1 0x1F DUP3 ADD AND DUP3 ADD DUP1 PUSH1 0x40 MSTORE POP DUP2 ADD SWAP1 PUSH2 0x234D SWAP2 SWAP1 PUSH2 0x2BCA JUMP JUMPDEST POP PUSH1 0x3 PUSH0 SWAP1 SLOAD SWAP1 PUSH2 0x100 EXP SWAP1 DIV PUSH20 0xFFFFFFFFFFFFFFFFFFFFFFFFFFFFFFFFFFFFFFFF AND PUSH20 0xFFFFFFFFFFFFFFFFFFFFFFFFFFFFFFFFFFFFFFFF AND PUSH4 0x23B872DD ADDRESS PUSH1 0xB PUSH1 0x1 DUP2 SLOAD DUP2 LT PUSH2 0x23A1 JUMPI PUSH2 0x23A0 PUSH2 0x28E7 JUMP JUMPDEST JUMPDEST SWAP1 PUSH0 MSTORE PUSH1 0x20 PUSH0 KECCAK256 ADD PUSH0 SWAP1 SLOAD SWAP1 PUSH2 0x100 EXP SWAP1 DIV PUSH20 0xFFFFFFFFFFFFFFFFFFFFFFFFFFFFFFFFFFFFFFFF AND PUSH1 0xC SLOAD PUSH1 0x40 MLOAD DUP5 PUSH4 0xFFFFFFFF AND PUSH1 0xE0 SHL DUP2 MSTORE PUSH1 0x4 ADD PUSH2 0x23EA SWAP4 SWAP3 SWAP2 SWAP1 PUSH2 0x3307 JUMP JUMPDEST PUSH1 0x20 PUSH1 0x40 MLOAD DUP1 DUP4 SUB DUP2 PUSH0 DUP8 GAS CALL ISZERO DUP1 ISZERO PUSH2 0x2406 JUMPI RETURNDATASIZE PUSH0 DUP1 RETURNDATACOPY RETURNDATASIZE PUSH0 REVERT JUMPDEST POP POP POP POP PUSH1 0x40 MLOAD RETURNDATASIZE PUSH1 0x1F NOT PUSH1 0x1F DUP3 ADD AND DUP3 ADD DUP1 PUSH1 0x40 MSTORE POP DUP2 ADD SWAP1 PUSH2 0x242A SWAP2 SWAP1 PUSH2 0x2BCA JUMP JUMPDEST POP PUSH1 0x2 PUSH1 0xC SLOAD PUSH2 0x243A SWAP2 SWAP1 PUSH2 0x333C JUMP JUMPDEST PUSH1 0x5 PUSH0 DUP3 DUP3 SLOAD PUSH2 0x244A SWAP2 SWAP1 PUSH2 0x29F0 JUMP JUMPDEST SWAP3 POP POP DUP2 SWAP1 SSTORE POP JUMP JUMPDEST POP DUP1 SLOAD PUSH0 DUP3 SSTORE SWAP1 PUSH0 MSTORE PUSH1 0x20 PUSH0 KECCAK256 SWAP1 DUP2 ADD SWAP1 PUSH2 0x246E SWAP2 SWAP1 PUSH2 0x2471 JUMP JUMPDEST POP JUMP JUMPDEST JUMPDEST DUP1 DUP3 GT ISZERO PUSH2 0x2488 JUMPI PUSH0 DUP2 PUSH0 SWAP1 SSTORE POP PUSH1 0x1 ADD PUSH2 0x2472 JUMP JUMPDEST POP SWAP1 JUMP JUMPDEST PUSH0 DUP2 SWAP1 POP SWAP2 SWAP1 POP JUMP JUMPDEST PUSH2 0x249E DUP2 PUSH2 0x248C JUMP JUMPDEST DUP3 MSTORE POP POP JUMP JUMPDEST PUSH0 PUSH1 0x20 DUP3 ADD SWAP1 POP PUSH2 0x24B7 PUSH0 DUP4 ADD DUP5 PUSH2 0x2495 JUMP JUMPDEST SWAP3 SWAP2 POP POP JUMP JUMPDEST PUSH0 DUP1 REVERT JUMPDEST PUSH0 DUP2 SWAP1 POP SWAP2 SWAP1 POP JUMP JUMPDEST PUSH2 0x24D3 DUP2 PUSH2 0x24C1 JUMP JUMPDEST DUP2 EQ PUSH2 0x24DD JUMPI PUSH0 DUP1 REVERT JUMPDEST POP JUMP JUMPDEST PUSH0 DUP2 CALLDATALOAD SWAP1 POP PUSH2 0x24EE DUP2 PUSH2 0x24CA JUMP JUMPDEST SWAP3 SWAP2 POP POP JUMP JUMPDEST PUSH0 PUSH1 0x20 DUP3 DUP5 SUB SLT ISZERO PUSH2 0x2509 JUMPI PUSH2 0x2508 PUSH2 0x24BD JUMP JUMPDEST JUMPDEST PUSH0 PUSH2 0x2516 DUP5 DUP3 DUP6 ADD PUSH2 0x24E0 JUMP JUMPDEST SWAP2 POP POP SWAP3 SWAP2 POP POP JUMP JUMPDEST PUSH2 0x2528 DUP2 PUSH2 0x24C1 JUMP JUMPDEST DUP3 MSTORE POP POP JUMP JUMPDEST PUSH0 PUSH1 0x20 DUP3 ADD SWAP1 POP PUSH2 0x2541 PUSH0 DUP4 ADD DUP5 PUSH2 0x251F JUMP JUMPDEST SWAP3 SWAP2 POP POP JUMP JUMPDEST PUSH0 PUSH20 0xFFFFFFFFFFFFFFFFFFFFFFFFFFFFFFFFFFFFFFFF DUP3 AND SWAP1 POP SWAP2 SWAP1 POP JUMP JUMPDEST PUSH0 PUSH2 0x2570 DUP3 PUSH2 0x2547 JUMP JUMPDEST SWAP1 POP SWAP2 SWAP1 POP JUMP JUMPDEST PUSH2 0x2580 DUP2 PUSH2 0x2566 JUMP JUMPDEST DUP2 EQ PUSH2 0x258A JUMPI PUSH0 DUP1 REVERT JUMPDEST POP JUMP JUMPDEST PUSH0 DUP2 CALLDATALOAD SWAP1 POP PUSH2 0x259B DUP2 PUSH2 0x2577 JUMP JUMPDEST SWAP3 SWAP2 POP POP JUMP JUMPDEST PUSH0 PUSH1 0x20 DUP3 DUP5 SUB SLT ISZERO PUSH2 0x25B6 JUMPI PUSH2 0x25B5 PUSH2 0x24BD JUMP JUMPDEST JUMPDEST PUSH0 PUSH2 0x25C3 DUP5 DUP3 DUP6 ADD PUSH2 0x258D JUMP JUMPDEST SWAP2 POP POP SWAP3 SWAP2 POP POP JUMP JUMPDEST PUSH0 DUP2 ISZERO ISZERO SWAP1 POP SWAP2 SWAP1 POP JUMP JUMPDEST PUSH2 0x25E0 DUP2 PUSH2 0x25CC JUMP JUMPDEST DUP3 MSTORE POP POP JUMP JUMPDEST PUSH0 PUSH1 0x20 DUP3 ADD SWAP1 POP PUSH2 0x25F9 PUSH0 DUP4 ADD DUP5 PUSH2 0x25D7 JUMP JUMPDEST SWAP3 SWAP2 POP POP JUMP JUMPDEST PUSH0 PUSH1 0xFF DUP3 AND SWAP1 POP SWAP2 SWAP1 POP JUMP JUMPDEST PUSH2 0x2614 DUP2 PUSH2 0x25FF JUMP JUMPDEST DUP3 MSTORE POP POP JUMP JUMPDEST PUSH0 PUSH1 0x20 DUP3 ADD SWAP1 POP PUSH2 0x262D PUSH0 DUP4 ADD DUP5 PUSH2 0x260B JUMP JUMPDEST SWAP3 SWAP2 POP POP JUMP JUMPDEST PUSH0 PUSH8 0xFFFFFFFFFFFFFFFF DUP3 AND SWAP1 POP SWAP2 SWAP1 POP JUMP JUMPDEST PUSH2 0x264F DUP2 PUSH2 0x2633 JUMP JUMPDEST DUP3 MSTORE POP POP JUMP JUMPDEST PUSH0 PUSH1 0x60 DUP3 ADD SWAP1 POP PUSH2 0x2668 PUSH0 DUP4 ADD DUP7 PUSH2 0x251F JUMP JUMPDEST PUSH2 0x2675 PUSH1 0x20 DUP4 ADD DUP6 PUSH2 0x2646 JUMP JUMPDEST PUSH2 0x2682 PUSH1 0x40 DUP4 ADD DUP5 PUSH2 0x25D7 JUMP JUMPDEST SWAP5 SWAP4 POP POP POP POP JUMP JUMPDEST PUSH2 0x2693 DUP2 PUSH2 0x248C JUMP JUMPDEST DUP2 EQ PUSH2 0x269D JUMPI PUSH0 DUP1 REVERT JUMPDEST POP JUMP JUMPDEST PUSH0 DUP2 CALLDATALOAD SWAP1 POP PUSH2 0x26AE DUP2 PUSH2 0x268A JUMP JUMPDEST SWAP3 SWAP2 POP POP JUMP JUMPDEST PUSH0 PUSH1 0x20 DUP3 DUP5 SUB SLT ISZERO PUSH2 0x26C9 JUMPI PUSH2 0x26C8 PUSH2 0x24BD JUMP JUMPDEST JUMPDEST PUSH0 PUSH2 0x26D6 DUP5 DUP3 DUP6 ADD PUSH2 0x26A0 JUMP JUMPDEST SWAP2 POP POP SWAP3 SWAP2 POP POP JUMP JUMPDEST PUSH2 0x26E8 DUP2 PUSH2 0x2566 JUMP JUMPDEST DUP3 MSTORE POP POP JUMP JUMPDEST PUSH0 PUSH1 0x20 DUP3 ADD SWAP1 POP PUSH2 0x2701 PUSH0 DUP4 ADD DUP5 PUSH2 0x26DF JUMP JUMPDEST SWAP3 SWAP2 POP POP JUMP JUMPDEST PUSH0 DUP2 SWAP1 POP SWAP2 SWAP1 POP JUMP JUMPDEST PUSH0 PUSH2 0x272A PUSH2 0x2725 PUSH2 0x2720 DUP5 PUSH2 0x2547 JUMP JUMPDEST PUSH2 0x2707 JUMP JUMPDEST PUSH2 0x2547 JUMP JUMPDEST SWAP1 POP SWAP2 SWAP1 POP JUMP JUMPDEST PUSH0 PUSH2 0x273B DUP3 PUSH2 0x2710 JUMP JUMPDEST SWAP1 POP SWAP2 SWAP1 POP JUMP JUMPDEST PUSH0 PUSH2 0x274C DUP3 PUSH2 0x2731 JUMP JUMPDEST SWAP1 POP SWAP2 SWAP1 POP JUMP JUMPDEST PUSH2 0x275C DUP2 PUSH2 0x2742 JUMP JUMPDEST DUP3 MSTORE POP POP JUMP JUMPDEST PUSH0 PUSH1 0x20 DUP3 ADD SWAP1 POP PUSH2 0x2775 PUSH0 DUP4 ADD DUP5 PUSH2 0x2753 JUMP JUMPDEST SWAP3 SWAP2 POP POP JUMP JUMPDEST PUSH0 DUP3 DUP3 MSTORE PUSH1 0x20 DUP3 ADD SWAP1 POP SWAP3 SWAP2 POP POP JUMP JUMPDEST PUSH32 0x47616D6520616C726561647920686173203220706C61796572732E0000000000 PUSH0 DUP3 ADD MSTORE POP JUMP JUMPDEST PUSH0 PUSH2 0x27BF PUSH1 0x1B DUP4 PUSH2 0x277B JUMP JUMPDEST SWAP2 POP PUSH2 0x27CA DUP3 PUSH2 0x278B JUMP JUMPDEST PUSH1 0x20 DUP3 ADD SWAP1 POP SWAP2 SWAP1 POP JUMP JUMPDEST PUSH0 PUSH1 0x20 DUP3 ADD SWAP1 POP DUP2 DUP2 SUB PUSH0 DUP4 ADD MSTORE PUSH2 0x27EC DUP2 PUSH2 0x27B3 JUMP JUMPDEST SWAP1 POP SWAP2 SWAP1 POP JUMP JUMPDEST PUSH0 PUSH1 0x40 DUP3 ADD SWAP1 POP PUSH2 0x2806 PUSH0 DUP4 ADD DUP6 PUSH2 0x26DF JUMP JUMPDEST PUSH2 0x2813 PUSH1 0x20 DUP4 ADD DUP5 PUSH2 0x26DF JUMP JUMPDEST SWAP4 SWAP3 POP POP POP JUMP JUMPDEST PUSH0 DUP2 MLOAD SWAP1 POP PUSH2 0x2828 DUP2 PUSH2 0x268A JUMP JUMPDEST SWAP3 SWAP2 POP POP JUMP JUMPDEST PUSH0 PUSH1 0x20 DUP3 DUP5 SUB SLT ISZERO PUSH2 0x2843 JUMPI PUSH2 0x2842 PUSH2 0x24BD JUMP JUMPDEST JUMPDEST PUSH0 PUSH2 0x2850 DUP5 DUP3 DUP6 ADD PUSH2 0x281A JUMP JUMPDEST SWAP2 POP POP SWAP3 SWAP2 POP POP JUMP JUMPDEST PUSH32 0x417070726F766520636F6E747261637420746F2077697468647261772066756E PUSH0 DUP3 ADD MSTORE PUSH32 0x64732E0000000000000000000000000000000000000000000000000000000000 PUSH1 0x20 DUP3 ADD MSTORE POP JUMP JUMPDEST PUSH0 PUSH2 0x28B3 PUSH1 0x23 DUP4 PUSH2 0x277B JUMP JUMPDEST SWAP2 POP PUSH2 0x28BE DUP3 PUSH2 0x2859 JUMP JUMPDEST PUSH1 0x40 DUP3 ADD SWAP1 POP SWAP2 SWAP1 POP JUMP JUMPDEST PUSH0 PUSH1 0x20 DUP3 ADD SWAP1 POP DUP2 DUP2 SUB PUSH0 DUP4 ADD MSTORE PUSH2 0x28E0 DUP2 PUSH2 0x28A7 JUMP JUMPDEST SWAP1 POP SWAP2 SWAP1 POP JUMP JUMPDEST PUSH32 0x4E487B7100000000000000000000000000000000000000000000000000000000 PUSH0 MSTORE PUSH1 0x32 PUSH1 0x4 MSTORE PUSH1 0x24 PUSH0 REVERT JUMPDEST PUSH32 0x596F752061726520616C726561647920696E207468652067616D652E00000000 PUSH0 DUP3 ADD MSTORE POP JUMP JUMPDEST PUSH0 PUSH2 0x2948 PUSH1 0x1C DUP4 PUSH2 0x277B JUMP JUMPDEST SWAP2 POP PUSH2 0x2953 DUP3 PUSH2 0x2914 JUMP JUMPDEST PUSH1 0x20 DUP3 ADD SWAP1 POP SWAP2 SWAP1 POP JUMP JUMPDEST PUSH0 PUSH1 0x20 DUP3 ADD SWAP1 POP DUP2 DUP2 SUB PUSH0 DUP4 ADD MSTORE PUSH2 0x2975 DUP2 PUSH2 0x293C JUMP JUMPDEST SWAP1 POP SWAP2 SWAP1 POP JUMP JUMPDEST PUSH32 0x4E487B7100000000000000000000000000000000000000000000000000000000 PUSH0 MSTORE PUSH1 0x11 PUSH1 0x4 MSTORE PUSH1 0x24 PUSH0 REVERT JUMPDEST PUSH0 PUSH2 0x29B3 DUP3 PUSH2 0x248C JUMP JUMPDEST SWAP2 POP PUSH32 0xFFFFFFFFFFFFFFFFFFFFFFFFFFFFFFFFFFFFFFFFFFFFFFFFFFFFFFFFFFFFFFFF DUP3 SUB PUSH2 0x29E5 JUMPI PUSH2 0x29E4 PUSH2 0x297C JUMP JUMPDEST JUMPDEST PUSH1 0x1 DUP3 ADD SWAP1 POP SWAP2 SWAP1 POP JUMP JUMPDEST PUSH0 PUSH2 0x29FA DUP3 PUSH2 0x248C JUMP JUMPDEST SWAP2 POP PUSH2 0x2A05 DUP4 PUSH2 0x248C JUMP JUMPDEST SWAP3 POP DUP3 DUP3 ADD SWAP1 POP DUP1 DUP3 GT ISZERO PUSH2 0x2A1D JUMPI PUSH2 0x2A1C PUSH2 0x297C JUMP JUMPDEST JUMPDEST SWAP3 SWAP2 POP POP JUMP JUMPDEST PUSH0 PUSH1 0x40 DUP3 ADD SWAP1 POP PUSH2 0x2A36 PUSH0 DUP4 ADD DUP6 PUSH2 0x26DF JUMP JUMPDEST PUSH2 0x2A43 PUSH1 0x20 DUP4 ADD DUP5 PUSH2 0x2495 JUMP JUMPDEST SWAP4 SWAP3 POP POP POP JUMP JUMPDEST PUSH0 DUP2 SWAP1 POP SWAP2 SWAP1 POP JUMP JUMPDEST PUSH2 0x2A64 PUSH2 0x2A5F DUP3 PUSH2 0x24C1 JUMP JUMPDEST PUSH2 0x2A4A JUMP JUMPDEST DUP3 MSTORE POP POP JUMP JUMPDEST PUSH0 PUSH2 0x2A75 DUP3 DUP5 PUSH2 0x2A53 JUMP JUMPDEST PUSH1 0x20 DUP3 ADD SWAP2 POP DUP2 SWAP1 POP SWAP3 SWAP2 POP POP JUMP JUMPDEST PUSH32 0x596F75206E65656420746F20776169742031206D696E75746520666F72207769 PUSH0 DUP3 ADD MSTORE PUSH32 0x7468647261772E00000000000000000000000000000000000000000000000000 PUSH1 0x20 DUP3 ADD MSTORE POP JUMP JUMPDEST PUSH0 PUSH2 0x2ADE PUSH1 0x27 DUP4 PUSH2 0x277B JUMP JUMPDEST SWAP2 POP PUSH2 0x2AE9 DUP3 PUSH2 0x2A84 JUMP JUMPDEST PUSH1 0x40 DUP3 ADD SWAP1 POP SWAP2 SWAP1 POP JUMP JUMPDEST PUSH0 PUSH1 0x20 DUP3 ADD SWAP1 POP DUP2 DUP2 SUB PUSH0 DUP4 ADD MSTORE PUSH2 0x2B0B DUP2 PUSH2 0x2AD2 JUMP JUMPDEST SWAP1 POP SWAP2 SWAP1 POP JUMP JUMPDEST PUSH32 0x436F6E74726163742068617320696E73756666696369656E742062616C616E63 PUSH0 DUP3 ADD MSTORE PUSH32 0x652E000000000000000000000000000000000000000000000000000000000000 PUSH1 0x20 DUP3 ADD MSTORE POP JUMP JUMPDEST PUSH0 PUSH2 0x2B6C PUSH1 0x22 DUP4 PUSH2 0x277B JUMP JUMPDEST SWAP2 POP PUSH2 0x2B77 DUP3 PUSH2 0x2B12 JUMP JUMPDEST PUSH1 0x40 DUP3 ADD SWAP1 POP SWAP2 SWAP1 POP JUMP JUMPDEST PUSH0 PUSH1 0x20 DUP3 ADD SWAP1 POP DUP2 DUP2 SUB PUSH0 DUP4 ADD MSTORE PUSH2 0x2B99 DUP2 PUSH2 0x2B60 JUMP JUMPDEST SWAP1 POP SWAP2 SWAP1 POP JUMP JUMPDEST PUSH2 0x2BA9 DUP2 PUSH2 0x25CC JUMP JUMPDEST DUP2 EQ PUSH2 0x2BB3 JUMPI PUSH0 DUP1 REVERT JUMPDEST POP JUMP JUMPDEST PUSH0 DUP2 MLOAD SWAP1 POP PUSH2 0x2BC4 DUP2 PUSH2 0x2BA0 JUMP JUMPDEST SWAP3 SWAP2 POP POP JUMP JUMPDEST PUSH0 PUSH1 0x20 DUP3 DUP5 SUB SLT ISZERO PUSH2 0x2BDF JUMPI PUSH2 0x2BDE PUSH2 0x24BD JUMP JUMPDEST JUMPDEST PUSH0 PUSH2 0x2BEC DUP5 DUP3 DUP6 ADD PUSH2 0x2BB6 JUMP JUMPDEST SWAP2 POP POP SWAP3 SWAP2 POP POP JUMP JUMPDEST PUSH32 0x4E487B7100000000000000000000000000000000000000000000000000000000 PUSH0 MSTORE PUSH1 0x12 PUSH1 0x4 MSTORE PUSH1 0x24 PUSH0 REVERT JUMPDEST PUSH0 PUSH2 0x2C2C DUP3 PUSH2 0x248C JUMP JUMPDEST SWAP2 POP PUSH2 0x2C37 DUP4 PUSH2 0x248C JUMP JUMPDEST SWAP3 POP DUP3 PUSH2 0x2C47 JUMPI PUSH2 0x2C46 PUSH2 0x2BF5 JUMP JUMPDEST JUMPDEST DUP3 DUP3 DIV SWAP1 POP SWAP3 SWAP2 POP POP JUMP JUMPDEST PUSH32 0x596F75206E65656420746F20636F6D6D69742066697273742E00000000000000 PUSH0 DUP3 ADD MSTORE POP JUMP JUMPDEST PUSH0 PUSH2 0x2C86 PUSH1 0x19 DUP4 PUSH2 0x277B JUMP JUMPDEST SWAP2 POP PUSH2 0x2C91 DUP3 PUSH2 0x2C52 JUMP JUMPDEST PUSH1 0x20 DUP3 ADD SWAP1 POP SWAP2 SWAP1 POP JUMP JUMPDEST PUSH0 PUSH1 0x20 DUP3 ADD SWAP1 POP DUP2 DUP2 SUB PUSH0 DUP4 ADD MSTORE PUSH2 0x2CB3 DUP2 PUSH2 0x2C7A JUMP JUMPDEST SWAP1 POP SWAP2 SWAP1 POP JUMP JUMPDEST PUSH32 0x496E76616C69642063686F6963652E0000000000000000000000000000000000 PUSH0 DUP3 ADD MSTORE POP JUMP JUMPDEST PUSH0 PUSH2 0x2CEE PUSH1 0xF DUP4 PUSH2 0x277B JUMP JUMPDEST SWAP2 POP PUSH2 0x2CF9 DUP3 PUSH2 0x2CBA JUMP JUMPDEST PUSH1 0x20 DUP3 ADD SWAP1 POP SWAP2 SWAP1 POP JUMP JUMPDEST PUSH0 PUSH1 0x20 DUP3 ADD SWAP1 POP DUP2 DUP2 SUB PUSH0 DUP4 ADD MSTORE PUSH2 0x2D1B DUP2 PUSH2 0x2CE2 JUMP JUMPDEST SWAP1 POP SWAP2 SWAP1 POP JUMP JUMPDEST PUSH0 PUSH2 0x2D2C DUP3 PUSH2 0x248C JUMP JUMPDEST SWAP2 POP PUSH2 0x2D37 DUP4 PUSH2 0x248C JUMP JUMPDEST SWAP3 POP DUP3 DUP3 SUB SWAP1 POP DUP2 DUP2 GT ISZERO PUSH2 0x2D4F JUMPI PUSH2 0x2D4E PUSH2 0x297C JUMP JUMPDEST JUMPDEST SWAP3 SWAP2 POP POP JUMP JUMPDEST PUSH32 0x47616D65206E65656473203220706C61796572732E0000000000000000000000 PUSH0 DUP3 ADD MSTORE POP JUMP JUMPDEST PUSH0 PUSH2 0x2D89 PUSH1 0x15 DUP4 PUSH2 0x277B JUMP JUMPDEST SWAP2 POP PUSH2 0x2D94 DUP3 PUSH2 0x2D55 JUMP JUMPDEST PUSH1 0x20 DUP3 ADD SWAP1 POP SWAP2 SWAP1 POP JUMP JUMPDEST PUSH0 PUSH1 0x20 DUP3 ADD SWAP1 POP DUP2 DUP2 SUB PUSH0 DUP4 ADD MSTORE PUSH2 0x2DB6 DUP2 PUSH2 0x2D7D JUMP JUMPDEST SWAP1 POP SWAP2 SWAP1 POP JUMP JUMPDEST PUSH32 0x416C726561647920636F6D6D69747465642E0000000000000000000000000000 PUSH0 DUP3 ADD MSTORE POP JUMP JUMPDEST PUSH0 PUSH2 0x2DF1 PUSH1 0x12 DUP4 PUSH2 0x277B JUMP JUMPDEST SWAP2 POP PUSH2 0x2DFC DUP3 PUSH2 0x2DBD JUMP JUMPDEST PUSH1 0x20 DUP3 ADD SWAP1 POP SWAP2 SWAP1 POP JUMP JUMPDEST PUSH0 PUSH1 0x20 DUP3 ADD SWAP1 POP DUP2 DUP2 SUB PUSH0 DUP4 ADD MSTORE PUSH2 0x2E1E DUP2 PUSH2 0x2DE5 JUMP JUMPDEST SWAP1 POP SWAP2 SWAP1 POP JUMP JUMPDEST PUSH32 0x596F7520616C726561647920636F6D6D69747465642E00000000000000000000 PUSH0 DUP3 ADD MSTORE POP JUMP JUMPDEST PUSH0 PUSH2 0x2E59 PUSH1 0x16 DUP4 PUSH2 0x277B JUMP JUMPDEST SWAP2 POP PUSH2 0x2E64 DUP3 PUSH2 0x2E25 JUMP JUMPDEST PUSH1 0x20 DUP3 ADD SWAP1 POP SWAP2 SWAP1 POP JUMP JUMPDEST PUSH0 PUSH1 0x20 DUP3 ADD SWAP1 POP DUP2 DUP2 SUB PUSH0 DUP4 ADD MSTORE PUSH2 0x2E86 DUP2 PUSH2 0x2E4D JUMP JUMPDEST SWAP1 POP SWAP2 SWAP1 POP JUMP JUMPDEST PUSH32 0x436F6D6D697452657665616C3A3A72657665616C3A20416C7265616479207265 PUSH0 DUP3 ADD MSTORE PUSH32 0x7665616C65640000000000000000000000000000000000000000000000000000 PUSH1 0x20 DUP3 ADD MSTORE POP JUMP JUMPDEST PUSH0 PUSH2 0x2EE7 PUSH1 0x26 DUP4 PUSH2 0x277B JUMP JUMPDEST SWAP2 POP PUSH2 0x2EF2 DUP3 PUSH2 0x2E8D JUMP JUMPDEST PUSH1 0x40 DUP3 ADD SWAP1 POP SWAP2 SWAP1 POP JUMP JUMPDEST PUSH0 PUSH1 0x20 DUP3 ADD SWAP1 POP DUP2 DUP2 SUB PUSH0 DUP4 ADD MSTORE PUSH2 0x2F14 DUP2 PUSH2 0x2EDB JUMP JUMPDEST SWAP1 POP SWAP2 SWAP1 POP JUMP JUMPDEST PUSH32 0x436F6D6D697452657665616C3A3A72657665616C3A2052657665616C65642068 PUSH0 DUP3 ADD MSTORE PUSH32 0x61736820646F6573206E6F74206D6174636820636F6D6D697400000000000000 PUSH1 0x20 DUP3 ADD MSTORE POP JUMP JUMPDEST PUSH0 PUSH2 0x2F75 PUSH1 0x39 DUP4 PUSH2 0x277B JUMP JUMPDEST SWAP2 POP PUSH2 0x2F80 DUP3 PUSH2 0x2F1B JUMP JUMPDEST PUSH1 0x40 DUP3 ADD SWAP1 POP SWAP2 SWAP1 POP JUMP JUMPDEST PUSH0 PUSH1 0x20 DUP3 ADD SWAP1 POP DUP2 DUP2 SUB PUSH0 DUP4 ADD MSTORE PUSH2 0x2FA2 DUP2 PUSH2 0x2F69 JUMP JUMPDEST SWAP1 POP SWAP2 SWAP1 POP JUMP JUMPDEST PUSH32 0x436F6D6D697452657665616C3A3A72657665616C3A2052657665616C20616E64 PUSH0 DUP3 ADD MSTORE PUSH32 0x20636F6D6D69742068617070656E6564206F6E207468652073616D6520626C6F PUSH1 0x20 DUP3 ADD MSTORE PUSH32 0x636B000000000000000000000000000000000000000000000000000000000000 PUSH1 0x40 DUP3 ADD MSTORE POP JUMP JUMPDEST PUSH0 PUSH2 0x3029 PUSH1 0x42 DUP4 PUSH2 0x277B JUMP JUMPDEST SWAP2 POP PUSH2 0x3034 DUP3 PUSH2 0x2FA9 JUMP JUMPDEST PUSH1 0x60 DUP3 ADD SWAP1 POP SWAP2 SWAP1 POP JUMP JUMPDEST PUSH0 PUSH1 0x20 DUP3 ADD SWAP1 POP DUP2 DUP2 SUB PUSH0 DUP4 ADD MSTORE PUSH2 0x3056 DUP2 PUSH2 0x301D JUMP JUMPDEST SWAP1 POP SWAP2 SWAP1 POP JUMP JUMPDEST PUSH0 PUSH2 0x3067 DUP3 PUSH2 0x2633 JUMP JUMPDEST SWAP2 POP PUSH2 0x3072 DUP4 PUSH2 0x2633 JUMP JUMPDEST SWAP3 POP DUP3 DUP3 ADD SWAP1 POP PUSH8 0xFFFFFFFFFFFFFFFF DUP2 GT ISZERO PUSH2 0x3092 JUMPI PUSH2 0x3091 PUSH2 0x297C JUMP JUMPDEST JUMPDEST SWAP3 SWAP2 POP POP JUMP JUMPDEST PUSH32 0x436F6D6D697452657665616C3A3A72657665616C3A2052657665616C65642074 PUSH0 DUP3 ADD MSTORE PUSH32 0x6F6F206C61746500000000000000000000000000000000000000000000000000 PUSH1 0x20 DUP3 ADD MSTORE POP JUMP JUMPDEST PUSH0 PUSH2 0x30F2 PUSH1 0x27 DUP4 PUSH2 0x277B JUMP JUMPDEST SWAP2 POP PUSH2 0x30FD DUP3 PUSH2 0x3098 JUMP JUMPDEST PUSH1 0x40 DUP3 ADD SWAP1 POP SWAP2 SWAP1 POP JUMP JUMPDEST PUSH0 PUSH1 0x20 DUP3 ADD SWAP1 POP DUP2 DUP2 SUB PUSH0 DUP4 ADD MSTORE PUSH2 0x311F DUP2 PUSH2 0x30E6 JUMP JUMPDEST SWAP1 POP SWAP2 SWAP1 POP JUMP JUMPDEST PUSH0 PUSH2 0x3131 DUP3 DUP6 PUSH2 0x2A53 JUMP JUMPDEST PUSH1 0x20 DUP3 ADD SWAP2 POP PUSH2 0x3141 DUP3 DUP5 PUSH2 0x2A53 JUMP JUMPDEST PUSH1 0x20 DUP3 ADD SWAP2 POP DUP2 SWAP1 POP SWAP4 SWAP3 POP POP POP JUMP JUMPDEST PUSH0 PUSH2 0x315B DUP3 PUSH2 0x248C JUMP JUMPDEST SWAP2 POP PUSH2 0x3166 DUP4 PUSH2 0x248C JUMP JUMPDEST SWAP3 POP DUP3 PUSH2 0x3176 JUMPI PUSH2 0x3175 PUSH2 0x2BF5 JUMP JUMPDEST JUMPDEST DUP3 DUP3 MOD SWAP1 POP SWAP3 SWAP2 POP POP JUMP JUMPDEST PUSH0 PUSH1 0x60 DUP3 ADD SWAP1 POP PUSH2 0x3194 PUSH0 DUP4 ADD DUP7 PUSH2 0x26DF JUMP JUMPDEST PUSH2 0x31A1 PUSH1 0x20 DUP4 ADD DUP6 PUSH2 0x251F JUMP JUMPDEST PUSH2 0x31AE PUSH1 0x40 DUP4 ADD DUP5 PUSH2 0x2495 JUMP JUMPDEST SWAP5 SWAP4 POP POP POP POP JUMP JUMPDEST PUSH0 PUSH1 0x60 DUP3 ADD SWAP1 POP PUSH2 0x31C9 PUSH0 DUP4 ADD DUP7 PUSH2 0x26DF JUMP JUMPDEST PUSH2 0x31D6 PUSH1 0x20 DUP4 ADD DUP6 PUSH2 0x251F JUMP JUMPDEST PUSH2 0x31E3 PUSH1 0x40 DUP4 ADD DUP5 PUSH2 0x2646 JUMP JUMPDEST SWAP5 SWAP4 POP POP POP POP JUMP JUMPDEST PUSH32 0x506C61796572203120686173206E6F7420617070726F76656420656E6F756768 PUSH0 DUP3 ADD MSTORE PUSH32 0x2066756E64732E00000000000000000000000000000000000000000000000000 PUSH1 0x20 DUP3 ADD MSTORE POP JUMP JUMPDEST PUSH0 PUSH2 0x3245 PUSH1 0x27 DUP4 PUSH2 0x277B JUMP JUMPDEST SWAP2 POP PUSH2 0x3250 DUP3 PUSH2 0x31EB JUMP JUMPDEST PUSH1 0x40 DUP3 ADD SWAP1 POP SWAP2 SWAP1 POP JUMP JUMPDEST PUSH0 PUSH1 0x20 DUP3 ADD SWAP1 POP DUP2 DUP2 SUB PUSH0 DUP4 ADD MSTORE PUSH2 0x3272 DUP2 PUSH2 0x3239 JUMP JUMPDEST SWAP1 POP SWAP2 SWAP1 POP JUMP JUMPDEST PUSH32 0x506C61796572203220686173206E6F7420617070726F76656420656E6F756768 PUSH0 DUP3 ADD MSTORE PUSH32 0x2066756E64732E00000000000000000000000000000000000000000000000000 PUSH1 0x20 DUP3 ADD MSTORE POP JUMP JUMPDEST PUSH0 PUSH2 0x32D3 PUSH1 0x27 DUP4 PUSH2 0x277B JUMP JUMPDEST SWAP2 POP PUSH2 0x32DE DUP3 PUSH2 0x3279 JUMP JUMPDEST PUSH1 0x40 DUP3 ADD SWAP1 POP SWAP2 SWAP1 POP JUMP JUMPDEST PUSH0 PUSH1 0x20 DUP3 ADD SWAP1 POP DUP2 DUP2 SUB PUSH0 DUP4 ADD MSTORE PUSH2 0x3300 DUP2 PUSH2 0x32C7 JUMP JUMPDEST SWAP1 POP SWAP2 SWAP1 POP JUMP JUMPDEST PUSH0 PUSH1 0x60 DUP3 ADD SWAP1 POP PUSH2 0x331A PUSH0 DUP4 ADD DUP7 PUSH2 0x26DF JUMP JUMPDEST PUSH2 0x3327 PUSH1 0x20 DUP4 ADD DUP6 PUSH2 0x26DF JUMP JUMPDEST PUSH2 0x3334 PUSH1 0x40 DUP4 ADD DUP5 PUSH2 0x2495 JUMP JUMPDEST SWAP5 SWAP4 POP POP POP POP JUMP JUMPDEST PUSH0 PUSH2 0x3346 DUP3 PUSH2 0x248C JUMP JUMPDEST SWAP2 POP PUSH2 0x3351 DUP4 PUSH2 0x248C JUMP JUMPDEST SWAP3 POP DUP3 DUP3 MUL PUSH2 0x335F DUP2 PUSH2 0x248C JUMP JUMPDEST SWAP2 POP DUP3 DUP3 DIV DUP5 EQ DUP4 ISZERO OR PUSH2 0x3376 JUMPI PUSH2 0x3375 PUSH2 0x297C JUMP JUMPDEST JUMPDEST POP SWAP3 SWAP2 POP POP JUMP INVALID LOG2 PUSH5 0x6970667358 0x22 SLT KECCAK256 JUMPI 0xBD SWAP13 SHR 0xC PUSH8 0xF49AD3AD92856B48 POP BYTE EQ 0xF7 0x2D DUP8 SWAP11 0x28 0xB3 EXTCODESIZE 0x25 PUSH3 0x7BB9E5 SDIV SWAP6 EXTCODEHASH PUSH5 0x736F6C6343 STOP ADDMOD BYTE STOP CALLER "
		},
		"gasEstimates": {
			"creation": {
				"codeDepositCost": "2647000",
				"executionCost": "infinite",
				"totalCost": "infinite"
			},
			"external": {
				"addPlayer()": "infinite",
				"checkAllowance()": "infinite",
				"commits(address)": "7393",
				"elapsedMinutes()": "infinite",
				"elapsedSeconds()": "infinite",
				"getHash(bytes32)": "infinite",
				"input(bytes32)": "infinite",
				"isCommit(address)": "2945",
				"max()": "2552",
				"numInput()": "2449",
				"numPlayer()": "2492",
				"numReveal()": "2469",
				"player_choice(address)": "2913",
				"players(uint256)": "5054",
				"requiredAmount()": "2448",
				"revealChoice(bytes32)": "infinite",
				"reward()": "2471",
				"startTime()": "2536",
				"timeOutWithDraw()": "infinite",
				"timeoutDuration()": "2470",
				"token()": "infinite"
			},
			"internal": {
				"_checkWinnerAndPay()": "infinite",
				"_collectFunds()": "infinite",
				"_reset()": "infinite"
			}
		},
		"methodIdentifiers": {
			"addPlayer()": "27b5db8a",
			"checkAllowance()": "9405de64",
			"commits(address)": "7b43a8e6",
			"elapsedMinutes()": "d97c8416",
			"elapsedSeconds()": "bc06b8cd",
			"getHash(bytes32)": "3cf5040a",
			"input(bytes32)": "d891f969",
			"isCommit(address)": "43cdd438",
			"max()": "6ac5db19",
			"numInput()": "086f7815",
			"numPlayer()": "90d5d0c3",
			"numReveal()": "c876e615",
			"player_choice(address)": "a040478d",
			"players(uint256)": "f71d96cb",
			"requiredAmount()": "48b9ef40",
			"revealChoice(bytes32)": "65ce0ac6",
			"reward()": "228cb733",
			"startTime()": "78e97925",
			"timeOutWithDraw()": "558d51c6",
			"timeoutDuration()": "85d19e1a",
			"token()": "fc0c546a"
		}
	},
	"abi": [
		{
			"inputs": [
				{
					"internalType": "address",
					"name": "_token",
					"type": "address"
				}
			],
			"stateMutability": "nonpayable",
			"type": "constructor"
		},
		{
			"anonymous": false,
			"inputs": [
				{
					"indexed": false,
					"internalType": "address",
					"name": "sender",
					"type": "address"
				},
				{
					"indexed": false,
					"internalType": "bytes32",
					"name": "dataHash",
					"type": "bytes32"
				},
				{
					"indexed": false,
					"internalType": "uint64",
					"name": "block",
					"type": "uint64"
				}
			],
			"name": "CommitHash",
			"type": "event"
		},
		{
			"anonymous": false,
			"inputs": [
				{
					"indexed": false,
					"internalType": "address",
					"name": "sender",
					"type": "address"
				},
				{
					"indexed": false,
					"internalType": "uint256",
					"name": "numPlayer",
					"type": "uint256"
				}
			],
			"name": "PlayerAdded",
			"type": "event"
		},
		{
			"anonymous": false,
			"inputs": [
				{
					"indexed": false,
					"internalType": "address",
					"name": "sender",
					"type": "address"
				},
				{
					"indexed": false,
					"internalType": "uint256",
					"name": "numInput",
					"type": "uint256"
				}
			],
			"name": "PlayerCommitHashed",
			"type": "event"
		},
		{
			"anonymous": false,
			"inputs": [
				{
					"indexed": false,
					"internalType": "address",
					"name": "sender",
					"type": "address"
				},
				{
					"indexed": false,
					"internalType": "bytes32",
					"name": "revealHash",
					"type": "bytes32"
				},
				{
					"indexed": false,
					"internalType": "uint256",
					"name": "random",
					"type": "uint256"
				}
			],
			"name": "RevealHash",
			"type": "event"
		},
		{
			"inputs": [],
			"name": "addPlayer",
			"outputs": [],
			"stateMutability": "nonpayable",
			"type": "function"
		},
		{
			"inputs": [],
			"name": "checkAllowance",
			"outputs": [
				{
					"internalType": "uint256",
					"name": "",
					"type": "uint256"
				}
			],
			"stateMutability": "view",
			"type": "function"
		},
		{
			"inputs": [
				{
					"internalType": "address",
					"name": "",
					"type": "address"
				}
			],
			"name": "commits",
			"outputs": [
				{
					"internalType": "bytes32",
					"name": "commit",
					"type": "bytes32"
				},
				{
					"internalType": "uint64",
					"name": "block",
					"type": "uint64"
				},
				{
					"internalType": "bool",
					"name": "revealed",
					"type": "bool"
				}
			],
			"stateMutability": "view",
			"type": "function"
		},
		{
			"inputs": [],
			"name": "elapsedMinutes",
			"outputs": [
				{
					"internalType": "uint256",
					"name": "",
					"type": "uint256"
				}
			],
			"stateMutability": "view",
			"type": "function"
		},
		{
			"inputs": [],
			"name": "elapsedSeconds",
			"outputs": [
				{
					"internalType": "uint256",
					"name": "",
					"type": "uint256"
				}
			],
			"stateMutability": "view",
			"type": "function"
		},
		{
			"inputs": [
				{
					"internalType": "bytes32",
					"name": "data",
					"type": "bytes32"
				}
			],
			"name": "getHash",
			"outputs": [
				{
					"internalType": "bytes32",
					"name": "",
					"type": "bytes32"
				}
			],
			"stateMutability": "pure",
			"type": "function"
		},
		{
			"inputs": [
				{
					"internalType": "bytes32",
					"name": "hashAns",
					"type": "bytes32"
				}
			],
			"name": "input",
			"outputs": [],
			"stateMutability": "nonpayable",
			"type": "function"
		},
		{
			"inputs": [
				{
					"internalType": "address",
					"name": "",
					"type": "address"
				}
			],
			"name": "isCommit",
			"outputs": [
				{
					"internalType": "bool",
					"name": "",
					"type": "bool"
				}
			],
			"stateMutability": "view",
			"type": "function"
		},
		{
			"inputs": [],
			"name": "max",
			"outputs": [
				{
					"internalType": "uint8",
					"name": "",
					"type": "uint8"
				}
			],
			"stateMutability": "view",
			"type": "function"
		},
		{
			"inputs": [],
			"name": "numInput",
			"outputs": [
				{
					"internalType": "uint256",
					"name": "",
					"type": "uint256"
				}
			],
			"stateMutability": "view",
			"type": "function"
		},
		{
			"inputs": [],
			"name": "numPlayer",
			"outputs": [
				{
					"internalType": "uint256",
					"name": "",
					"type": "uint256"
				}
			],
			"stateMutability": "view",
			"type": "function"
		},
		{
			"inputs": [],
			"name": "numReveal",
			"outputs": [
				{
					"internalType": "uint256",
					"name": "",
					"type": "uint256"
				}
			],
			"stateMutability": "view",
			"type": "function"
		},
		{
			"inputs": [
				{
					"internalType": "address",
					"name": "",
					"type": "address"
				}
			],
			"name": "player_choice",
			"outputs": [
				{
					"internalType": "uint256",
					"name": "",
					"type": "uint256"
				}
			],
			"stateMutability": "view",
			"type": "function"
		},
		{
			"inputs": [
				{
					"internalType": "uint256",
					"name": "",
					"type": "uint256"
				}
			],
			"name": "players",
			"outputs": [
				{
					"internalType": "address",
					"name": "",
					"type": "address"
				}
			],
			"stateMutability": "view",
			"type": "function"
		},
		{
			"inputs": [],
			"name": "requiredAmount",
			"outputs": [
				{
					"internalType": "uint256",
					"name": "",
					"type": "uint256"
				}
			],
			"stateMutability": "view",
			"type": "function"
		},
		{
			"inputs": [
				{
					"internalType": "bytes32",
					"name": "hashChoice",
					"type": "bytes32"
				}
			],
			"name": "revealChoice",
			"outputs": [],
			"stateMutability": "nonpayable",
			"type": "function"
		},
		{
			"inputs": [],
			"name": "reward",
			"outputs": [
				{
					"internalType": "uint256",
					"name": "",
					"type": "uint256"
				}
			],
			"stateMutability": "view",
			"type": "function"
		},
		{
			"inputs": [],
			"name": "startTime",
			"outputs": [
				{
					"internalType": "uint256",
					"name": "",
					"type": "uint256"
				}
			],
			"stateMutability": "view",
			"type": "function"
		},
		{
			"inputs": [],
			"name": "timeOutWithDraw",
			"outputs": [],
			"stateMutability": "nonpayable",
			"type": "function"
		},
		{
			"inputs": [],
			"name": "timeoutDuration",
			"outputs": [
				{
					"internalType": "uint256",
					"name": "",
					"type": "uint256"
				}
			],
			"stateMutability": "view",
			"type": "function"
		},
		{
			"inputs": [],
			"name": "token",
			"outputs": [
				{
					"internalType": "contract IERC20",
					"name": "",
					"type": "address"
				}
			],
			"stateMutability": "view",
			"type": "function"
		}
	]
}