{
	"data": {
		"bytecode": {
			"linkReferences": {},
			"object": "608060405260645f806101000a81548160ff021916908360ff1602179055505f6002555f6003555f6005555f600655348015610039575f80fd5b50612031806100475f395ff3fe6080604052600436106100f2575f3560e01c80638dddbf3611610089578063d09a0a3b11610058578063d09a0a3b14610316578063d1adbd7214610352578063de8e90331461037a578063f14fcbc8146103a2576100f2565b80638dddbf361461024857806390d5d0c3146102845780639e0551c6146102ae578063c876e615146102ec576100f2565b80635afa1fd8116100c55780635afa1fd8146101905780636ac5db19146101b8578063701fd0f1146101e25780637b43a8e61461020a576100f2565b8063086f7815146100f6578063228cb7331461012057806327b5db8a1461014a5780633cf5040a14610154575b5f80fd5b348015610101575f80fd5b5061010a6103ca565b60405161011791906112f9565b60405180910390f35b34801561012b575f80fd5b506101346103d0565b60405161014191906112f9565b60405180910390f35b6101526103d6565b005b34801561015f575f80fd5b5061017a60048036038101906101759190611356565b6104ff565b6040516101879190611390565b60405180910390f35b34801561019b575f80fd5b506101b660048036038101906101b1919061150f565b610530565b005b3480156101c3575f80fd5b506101cc6106b2565b6040516101d99190611596565b60405180910390f35b3480156101ed575f80fd5b5061020860048036038101906102039190611356565b6106c2565b005b348015610215575f80fd5b50610230600480360381019061022b9190611609565b610a80565b60405161023f93929190611670565b60405180910390f35b348015610253575f80fd5b5061026e600480360381019061026991906116a5565b610ac6565b60405161027b9190611390565b60405180910390f35b34801561028f575f80fd5b50610298610afa565b6040516102a591906112f9565b60405180910390f35b3480156102b9575f80fd5b506102d460048036038101906102cf91906116e3565b610b00565b6040516102e39392919061171d565b60405180910390f35b3480156102f7575f80fd5b50610300610b52565b60405161030d91906112f9565b60405180910390f35b348015610321575f80fd5b5061033c60048036038101906103379190611752565b610b58565b6040516103499190611390565b60405180910390f35b34801561035d575f80fd5b50610378600480360381019061037391906117ac565b610bde565b005b348015610385575f80fd5b506103a0600480360381019061039b91906116a5565b610d1f565b005b3480156103ad575f80fd5b506103c860048036038101906103c39190611356565b610ed3565b005b60055481565b60035481565b60028054106103e3575f80fd5b670de0b6b3a764000034146103f6575f80fd5b3460035f8282546104079190611817565b925050819055503360045f60025481526020019081526020015f206001015f6101000a81548173ffffffffffffffffffffffffffffffffffffffff021916908373ffffffffffffffffffffffffffffffffffffffff160217905550600360045f60025481526020019081526020015f205f01819055505f60045f60025481526020019081526020015f2060010160146101000a81548160ff02191690831515021790555060025f8154809291906104bd9061184a565b91905055507f313f9ebdca9d25ee9456dd69022e3324975c8261b7a8b134881905d3b6964d3c336002546040516104f5929190611891565b60405180910390a1565b5f308260405160200161051392919061191d565b604051602081830303815290604052805190602001209050919050565b600280541461053d575f80fd5b60026005541461054b575f80fd5b60045f8381526020019081526020015f206001015f9054906101000a900473ffffffffffffffffffffffffffffffffffffffff1673ffffffffffffffffffffffffffffffffffffffff163373ffffffffffffffffffffffffffffffffffffffff16146105b5575f80fd5b5f83101580156105c6575060038311155b6105ce575f80fd5b6001151560045f8481526020019081526020015f2060010160149054906101000a900460ff161515146105ff575f80fd5b5f8160405160200161061191906119b4565b60405160208183030381529060405261062990611a03565b90505f8460405160200161063d9190611a89565b60405160208183030381529060405261065590611a03565b90506106618183610d1f565b8460045f8681526020019081526020015f205f018190555060065f81548092919061068b9061184a565b91905055506002600654036106ab576106a26110a5565b6106aa6112c3565b5b5050505050565b5f8054906101000a900460ff1681565b5f151560015f3373ffffffffffffffffffffffffffffffffffffffff1673ffffffffffffffffffffffffffffffffffffffff1681526020019081526020015f2060010160089054906101000a900460ff16151514610755576040517f08c379a000000000000000000000000000000000000000000000000000000000815260040161074c90611b23565b60405180910390fd5b6001805f3373ffffffffffffffffffffffffffffffffffffffff1673ffffffffffffffffffffffffffffffffffffffff1681526020019081526020015f2060010160086101000a81548160ff02191690831515021790555060015f3373ffffffffffffffffffffffffffffffffffffffff1673ffffffffffffffffffffffffffffffffffffffff1681526020019081526020015f205f01546107f6826104ff565b14610836576040517f08c379a000000000000000000000000000000000000000000000000000000000815260040161082d90611bb1565b60405180910390fd5b60015f3373ffffffffffffffffffffffffffffffffffffffff1673ffffffffffffffffffffffffffffffffffffffff1681526020019081526020015f206001015f9054906101000a900467ffffffffffffffff1667ffffffffffffffff164367ffffffffffffffff16116108df576040517f08c379a00000000000000000000000000000000000000000000000000000000081526004016108d690611c65565b60405180910390fd5b60fa60015f3373ffffffffffffffffffffffffffffffffffffffff1673ffffffffffffffffffffffffffffffffffffffff1681526020019081526020015f206001015f9054906101000a900467ffffffffffffffff1661093f9190611c83565b67ffffffffffffffff164367ffffffffffffffff161115610995576040517f08c379a000000000000000000000000000000000000000000000000000000000815260040161098c90611d2e565b60405180910390fd5b5f60015f3373ffffffffffffffffffffffffffffffffffffffff1673ffffffffffffffffffffffffffffffffffffffff1681526020019081526020015f206001015f9054906101000a900467ffffffffffffffff1667ffffffffffffffff164090505f805f9054906101000a900460ff1660ff168284604051602001610a1c929190611d4c565b604051602081830303815290604052805190602001205f1c610a3e9190611da4565b90507fbc016dd1cadeaefcb851af7a0a93532e0023d536894b730801f7bcfe7065bcc2338483604051610a7393929190611dd4565b60405180910390a1505050565b6001602052805f5260405f205f91509050805f015490806001015f9054906101000a900467ffffffffffffffff16908060010160089054906101000a900460ff16905083565b5f308383604051602001610adc93929190611e09565b60405160208183030381529060405280519060200120905092915050565b60025481565b6004602052805f5260405f205f91509050805f015490806001015f9054906101000a900473ffffffffffffffffffffffffffffffffffffffff16908060010160149054906101000a900460ff16905083565b60065481565b5f808310158015610b6a575060038311155b610b72575f80fd5b5f82604051602001610b8491906119b4565b604051602081830303815290604052610b9c90611a03565b90505f84604051602001610bb09190611a89565b604051602081830303815290604052610bc890611a03565b9050610bd48183610ac6565b9250505092915050565b6002805414610beb575f80fd5b600260055410610bf9575f80fd5b60045f8281526020019081526020015f206001015f9054906101000a900473ffffffffffffffffffffffffffffffffffffffff1673ffffffffffffffffffffffffffffffffffffffff163373ffffffffffffffffffffffffffffffffffffffff1614610c63575f80fd5b5f151560045f8381526020019081526020015f2060010160149054906101000a900460ff16151514610c93575f80fd5b600160045f8381526020019081526020015f2060010160146101000a81548160ff021916908315150217905550610cc982610ed3565b60055f815480929190610cdb9061184a565b91905055507f3928cc5abcbb1c0b781bebbc4f1e9b156f6d392796c791cc0937db5e42677ff733600554604051610d13929190611891565b60405180910390a15050565b5f151560015f3373ffffffffffffffffffffffffffffffffffffffff1673ffffffffffffffffffffffffffffffffffffffff1681526020019081526020015f2060010160089054906101000a900460ff16151514610db2576040517f08c379a0000000000000000000000000000000000000000000000000000000008152600401610da990611eb5565b60405180910390fd5b6001805f3373ffffffffffffffffffffffffffffffffffffffff1673ffffffffffffffffffffffffffffffffffffffff1681526020019081526020015f2060010160086101000a81548160ff02191690831515021790555060015f3373ffffffffffffffffffffffffffffffffffffffff1673ffffffffffffffffffffffffffffffffffffffff1681526020019081526020015f205f0154610e548383610ac6565b14610e94576040517f08c379a0000000000000000000000000000000000000000000000000000000008152600401610e8b90611f43565b60405180910390fd5b7f8bed02c4d61e56ed1d90657e7a0ba48f15cca20fcc2899d7235221b2cb0423a6338383604051610ec793929190611f61565b60405180910390a15050565b8060015f3373ffffffffffffffffffffffffffffffffffffffff1673ffffffffffffffffffffffffffffffffffffffff1681526020019081526020015f205f01819055504360015f3373ffffffffffffffffffffffffffffffffffffffff1673ffffffffffffffffffffffffffffffffffffffff1681526020019081526020015f206001015f6101000a81548167ffffffffffffffff021916908367ffffffffffffffff1602179055505f60015f3373ffffffffffffffffffffffffffffffffffffffff1673ffffffffffffffffffffffffffffffffffffffff1681526020019081526020015f2060010160086101000a81548160ff0219169083151502179055507f3c1a1f8f38335b17f751c6da4ba7d1865f26b3997535176f5080de9fad8916033360015f3373ffffffffffffffffffffffffffffffffffffffff1673ffffffffffffffffffffffffffffffffffffffff1681526020019081526020015f205f015460015f3373ffffffffffffffffffffffffffffffffffffffff1673ffffffffffffffffffffffffffffffffffffffff1681526020019081526020015f206001015f9054906101000a900467ffffffffffffffff1660405161109a93929190611f96565b60405180910390a150565b5f60045f8081526020019081526020015f205f015490505f60045f600181526020019081526020015f205f015490505f60045f8081526020019081526020015f206001015f9054906101000a900473ffffffffffffffffffffffffffffffffffffffff1690505f60045f600181526020019081526020015f206001015f9054906101000a900473ffffffffffffffffffffffffffffffffffffffff1690508260036001866111539190611817565b61115d9190611da4565b036111ad578073ffffffffffffffffffffffffffffffffffffffff166108fc60035490811502906040515f60405180830381858888f193505050501580156111a7573d5f803e3d5ffd5b506112bd565b8360036001856111bd9190611817565b6111c79190611da4565b03611217578173ffffffffffffffffffffffffffffffffffffffff166108fc60035490811502906040515f60405180830381858888f19350505050158015611211573d5f803e3d5ffd5b506112bc565b8173ffffffffffffffffffffffffffffffffffffffff166108fc60026003546112409190611fcb565b90811502906040515f60405180830381858888f19350505050158015611268573d5f803e3d5ffd5b508073ffffffffffffffffffffffffffffffffffffffff166108fc60026003546112929190611fcb565b90811502906040515f60405180830381858888f193505050501580156112ba573d5f803e3d5ffd5b505b5b50505050565b5f6002819055505f6003819055505f6005819055505f600681905550565b5f819050919050565b6112f3816112e1565b82525050565b5f60208201905061130c5f8301846112ea565b92915050565b5f604051905090565b5f80fd5b5f80fd5b5f819050919050565b61133581611323565b811461133f575f80fd5b50565b5f813590506113508161132c565b92915050565b5f6020828403121561136b5761136a61131b565b5b5f61137884828501611342565b91505092915050565b61138a81611323565b82525050565b5f6020820190506113a35f830184611381565b92915050565b6113b2816112e1565b81146113bc575f80fd5b50565b5f813590506113cd816113a9565b92915050565b5f80fd5b5f80fd5b5f601f19601f8301169050919050565b7f4e487b71000000000000000000000000000000000000000000000000000000005f52604160045260245ffd5b611421826113db565b810181811067ffffffffffffffff821117156114405761143f6113eb565b5b80604052505050565b5f611452611312565b905061145e8282611418565b919050565b5f67ffffffffffffffff82111561147d5761147c6113eb565b5b611486826113db565b9050602081019050919050565b828183375f83830152505050565b5f6114b36114ae84611463565b611449565b9050828152602081018484840111156114cf576114ce6113d7565b5b6114da848285611493565b509392505050565b5f82601f8301126114f6576114f56113d3565b5b81356115068482602086016114a1565b91505092915050565b5f805f606084860312156115265761152561131b565b5b5f611533868287016113bf565b9350506020611544868287016113bf565b925050604084013567ffffffffffffffff8111156115655761156461131f565b5b611571868287016114e2565b9150509250925092565b5f60ff82169050919050565b6115908161157b565b82525050565b5f6020820190506115a95f830184611587565b92915050565b5f73ffffffffffffffffffffffffffffffffffffffff82169050919050565b5f6115d8826115af565b9050919050565b6115e8816115ce565b81146115f2575f80fd5b50565b5f81359050611603816115df565b92915050565b5f6020828403121561161e5761161d61131b565b5b5f61162b848285016115f5565b91505092915050565b5f67ffffffffffffffff82169050919050565b61165081611634565b82525050565b5f8115159050919050565b61166a81611656565b82525050565b5f6060820190506116835f830186611381565b6116906020830185611647565b61169d6040830184611661565b949350505050565b5f80604083850312156116bb576116ba61131b565b5b5f6116c885828601611342565b92505060206116d985828601611342565b9150509250929050565b5f602082840312156116f8576116f761131b565b5b5f611705848285016113bf565b91505092915050565b611717816115ce565b82525050565b5f6060820190506117305f8301866112ea565b61173d602083018561170e565b61174a6040830184611661565b949350505050565b5f80604083850312156117685761176761131b565b5b5f611775858286016113bf565b925050602083013567ffffffffffffffff8111156117965761179561131f565b5b6117a2858286016114e2565b9150509250929050565b5f80604083850312156117c2576117c161131b565b5b5f6117cf85828601611342565b92505060206117e0858286016113bf565b9150509250929050565b7f4e487b71000000000000000000000000000000000000000000000000000000005f52601160045260245ffd5b5f611821826112e1565b915061182c836112e1565b9250828201905080821115611844576118436117ea565b5b92915050565b5f611854826112e1565b91507fffffffffffffffffffffffffffffffffffffffffffffffffffffffffffffffff8203611886576118856117ea565b5b600182019050919050565b5f6040820190506118a45f83018561170e565b6118b160208301846112ea565b9392505050565b5f8160601b9050919050565b5f6118ce826118b8565b9050919050565b5f6118df826118c4565b9050919050565b6118f76118f2826115ce565b6118d5565b82525050565b5f819050919050565b61191761191282611323565b6118fd565b82525050565b5f61192882856118e6565b6014820191506119388284611906565b6020820191508190509392505050565b5f81519050919050565b5f81905092915050565b5f5b8381101561197957808201518184015260208101905061195e565b5f8484015250505050565b5f61198e82611948565b6119988185611952565b93506119a881856020860161195c565b80840191505092915050565b5f6119bf8284611984565b915081905092915050565b5f81519050919050565b5f819050602082019050919050565b5f6119ee8251611323565b80915050919050565b5f82821b905092915050565b5f611a0d826119ca565b82611a17846119d4565b9050611a22816119e3565b92506020821015611a6257611a5d7fffffffffffffffffffffffffffffffffffffffffffffffffffffffffffffffff836020036008026119f7565b831692505b5050919050565b5f819050919050565b611a83611a7e826112e1565b611a69565b82525050565b5f611a948284611a72565b60208201915081905092915050565b5f82825260208201905092915050565b7f436f6d6d697452657665616c3a3a72657665616c3a20416c72656164792072655f8201527f7665616c65640000000000000000000000000000000000000000000000000000602082015250565b5f611b0d602683611aa3565b9150611b1882611ab3565b604082019050919050565b5f6020820190508181035f830152611b3a81611b01565b9050919050565b7f436f6d6d697452657665616c3a3a72657665616c3a2052657665616c656420685f8201527f61736820646f6573206e6f74206d6174636820636f6d6d697400000000000000602082015250565b5f611b9b603983611aa3565b9150611ba682611b41565b604082019050919050565b5f6020820190508181035f830152611bc881611b8f565b9050919050565b7f436f6d6d697452657665616c3a3a72657665616c3a2052657665616c20616e645f8201527f20636f6d6d69742068617070656e6564206f6e207468652073616d6520626c6f60208201527f636b000000000000000000000000000000000000000000000000000000000000604082015250565b5f611c4f604283611aa3565b9150611c5a82611bcf565b606082019050919050565b5f6020820190508181035f830152611c7c81611c43565b9050919050565b5f611c8d82611634565b9150611c9883611634565b9250828201905067ffffffffffffffff811115611cb857611cb76117ea565b5b92915050565b7f436f6d6d697452657665616c3a3a72657665616c3a2052657665616c656420745f8201527f6f6f206c61746500000000000000000000000000000000000000000000000000602082015250565b5f611d18602783611aa3565b9150611d2382611cbe565b604082019050919050565b5f6020820190508181035f830152611d4581611d0c565b9050919050565b5f611d578285611906565b602082019150611d678284611906565b6020820191508190509392505050565b7f4e487b71000000000000000000000000000000000000000000000000000000005f52601260045260245ffd5b5f611dae826112e1565b9150611db9836112e1565b925082611dc957611dc8611d77565b5b828206905092915050565b5f606082019050611de75f83018661170e565b611df46020830185611381565b611e0160408301846112ea565b949350505050565b5f611e1482866118e6565b601482019150611e248285611906565b602082019150611e348284611906565b602082019150819050949350505050565b7f436f6d6d697452657665616c3a3a72657665616c416e737765723a20416c72655f8201527f6164792072657665616c65640000000000000000000000000000000000000000602082015250565b5f611e9f602c83611aa3565b9150611eaa82611e45565b604082019050919050565b5f6020820190508181035f830152611ecc81611e93565b9050919050565b7f436f6d6d697452657665616c3a3a72657665616c416e737765723a20526576655f8201527f616c6564206861736820646f6573206e6f74206d6174636820636f6d6d697400602082015250565b5f611f2d603f83611aa3565b9150611f3882611ed3565b604082019050919050565b5f6020820190508181035f830152611f5a81611f21565b9050919050565b5f606082019050611f745f83018661170e565b611f816020830185611381565b611f8e6040830184611381565b949350505050565b5f606082019050611fa95f83018661170e565b611fb66020830185611381565b611fc36040830184611647565b949350505050565b5f611fd5826112e1565b9150611fe0836112e1565b925082611ff057611fef611d77565b5b82820490509291505056fea2646970667358221220cd00a02521ce50075cf76f29940c8dddd6b0f410067cae5df44f96b34948af8664736f6c63430008180033",
			"opcodes": "PUSH1 0x80 PUSH1 0x40 MSTORE PUSH1 0x64 PUSH0 DUP1 PUSH2 0x100 EXP DUP2 SLOAD DUP2 PUSH1 0xFF MUL NOT AND SWAP1 DUP4 PUSH1 0xFF AND MUL OR SWAP1 SSTORE POP PUSH0 PUSH1 0x2 SSTORE PUSH0 PUSH1 0x3 SSTORE PUSH0 PUSH1 0x5 SSTORE PUSH0 PUSH1 0x6 SSTORE CALLVALUE DUP1 ISZERO PUSH2 0x39 JUMPI PUSH0 DUP1 REVERT JUMPDEST POP PUSH2 0x2031 DUP1 PUSH2 0x47 PUSH0 CODECOPY PUSH0 RETURN INVALID PUSH1 0x80 PUSH1 0x40 MSTORE PUSH1 0x4 CALLDATASIZE LT PUSH2 0xF2 JUMPI PUSH0 CALLDATALOAD PUSH1 0xE0 SHR DUP1 PUSH4 0x8DDDBF36 GT PUSH2 0x89 JUMPI DUP1 PUSH4 0xD09A0A3B GT PUSH2 0x58 JUMPI DUP1 PUSH4 0xD09A0A3B EQ PUSH2 0x316 JUMPI DUP1 PUSH4 0xD1ADBD72 EQ PUSH2 0x352 JUMPI DUP1 PUSH4 0xDE8E9033 EQ PUSH2 0x37A JUMPI DUP1 PUSH4 0xF14FCBC8 EQ PUSH2 0x3A2 JUMPI PUSH2 0xF2 JUMP JUMPDEST DUP1 PUSH4 0x8DDDBF36 EQ PUSH2 0x248 JUMPI DUP1 PUSH4 0x90D5D0C3 EQ PUSH2 0x284 JUMPI DUP1 PUSH4 0x9E0551C6 EQ PUSH2 0x2AE JUMPI DUP1 PUSH4 0xC876E615 EQ PUSH2 0x2EC JUMPI PUSH2 0xF2 JUMP JUMPDEST DUP1 PUSH4 0x5AFA1FD8 GT PUSH2 0xC5 JUMPI DUP1 PUSH4 0x5AFA1FD8 EQ PUSH2 0x190 JUMPI DUP1 PUSH4 0x6AC5DB19 EQ PUSH2 0x1B8 JUMPI DUP1 PUSH4 0x701FD0F1 EQ PUSH2 0x1E2 JUMPI DUP1 PUSH4 0x7B43A8E6 EQ PUSH2 0x20A JUMPI PUSH2 0xF2 JUMP JUMPDEST DUP1 PUSH4 0x86F7815 EQ PUSH2 0xF6 JUMPI DUP1 PUSH4 0x228CB733 EQ PUSH2 0x120 JUMPI DUP1 PUSH4 0x27B5DB8A EQ PUSH2 0x14A JUMPI DUP1 PUSH4 0x3CF5040A EQ PUSH2 0x154 JUMPI JUMPDEST PUSH0 DUP1 REVERT JUMPDEST CALLVALUE DUP1 ISZERO PUSH2 0x101 JUMPI PUSH0 DUP1 REVERT JUMPDEST POP PUSH2 0x10A PUSH2 0x3CA JUMP JUMPDEST PUSH1 0x40 MLOAD PUSH2 0x117 SWAP2 SWAP1 PUSH2 0x12F9 JUMP JUMPDEST PUSH1 0x40 MLOAD DUP1 SWAP2 SUB SWAP1 RETURN JUMPDEST CALLVALUE DUP1 ISZERO PUSH2 0x12B JUMPI PUSH0 DUP1 REVERT JUMPDEST POP PUSH2 0x134 PUSH2 0x3D0 JUMP JUMPDEST PUSH1 0x40 MLOAD PUSH2 0x141 SWAP2 SWAP1 PUSH2 0x12F9 JUMP JUMPDEST PUSH1 0x40 MLOAD DUP1 SWAP2 SUB SWAP1 RETURN JUMPDEST PUSH2 0x152 PUSH2 0x3D6 JUMP JUMPDEST STOP JUMPDEST CALLVALUE DUP1 ISZERO PUSH2 0x15F JUMPI PUSH0 DUP1 REVERT JUMPDEST POP PUSH2 0x17A PUSH1 0x4 DUP1 CALLDATASIZE SUB DUP2 ADD SWAP1 PUSH2 0x175 SWAP2 SWAP1 PUSH2 0x1356 JUMP JUMPDEST PUSH2 0x4FF JUMP JUMPDEST PUSH1 0x40 MLOAD PUSH2 0x187 SWAP2 SWAP1 PUSH2 0x1390 JUMP JUMPDEST PUSH1 0x40 MLOAD DUP1 SWAP2 SUB SWAP1 RETURN JUMPDEST CALLVALUE DUP1 ISZERO PUSH2 0x19B JUMPI PUSH0 DUP1 REVERT JUMPDEST POP PUSH2 0x1B6 PUSH1 0x4 DUP1 CALLDATASIZE SUB DUP2 ADD SWAP1 PUSH2 0x1B1 SWAP2 SWAP1 PUSH2 0x150F JUMP JUMPDEST PUSH2 0x530 JUMP JUMPDEST STOP JUMPDEST CALLVALUE DUP1 ISZERO PUSH2 0x1C3 JUMPI PUSH0 DUP1 REVERT JUMPDEST POP PUSH2 0x1CC PUSH2 0x6B2 JUMP JUMPDEST PUSH1 0x40 MLOAD PUSH2 0x1D9 SWAP2 SWAP1 PUSH2 0x1596 JUMP JUMPDEST PUSH1 0x40 MLOAD DUP1 SWAP2 SUB SWAP1 RETURN JUMPDEST CALLVALUE DUP1 ISZERO PUSH2 0x1ED JUMPI PUSH0 DUP1 REVERT JUMPDEST POP PUSH2 0x208 PUSH1 0x4 DUP1 CALLDATASIZE SUB DUP2 ADD SWAP1 PUSH2 0x203 SWAP2 SWAP1 PUSH2 0x1356 JUMP JUMPDEST PUSH2 0x6C2 JUMP JUMPDEST STOP JUMPDEST CALLVALUE DUP1 ISZERO PUSH2 0x215 JUMPI PUSH0 DUP1 REVERT JUMPDEST POP PUSH2 0x230 PUSH1 0x4 DUP1 CALLDATASIZE SUB DUP2 ADD SWAP1 PUSH2 0x22B SWAP2 SWAP1 PUSH2 0x1609 JUMP JUMPDEST PUSH2 0xA80 JUMP JUMPDEST PUSH1 0x40 MLOAD PUSH2 0x23F SWAP4 SWAP3 SWAP2 SWAP1 PUSH2 0x1670 JUMP JUMPDEST PUSH1 0x40 MLOAD DUP1 SWAP2 SUB SWAP1 RETURN JUMPDEST CALLVALUE DUP1 ISZERO PUSH2 0x253 JUMPI PUSH0 DUP1 REVERT JUMPDEST POP PUSH2 0x26E PUSH1 0x4 DUP1 CALLDATASIZE SUB DUP2 ADD SWAP1 PUSH2 0x269 SWAP2 SWAP1 PUSH2 0x16A5 JUMP JUMPDEST PUSH2 0xAC6 JUMP JUMPDEST PUSH1 0x40 MLOAD PUSH2 0x27B SWAP2 SWAP1 PUSH2 0x1390 JUMP JUMPDEST PUSH1 0x40 MLOAD DUP1 SWAP2 SUB SWAP1 RETURN JUMPDEST CALLVALUE DUP1 ISZERO PUSH2 0x28F JUMPI PUSH0 DUP1 REVERT JUMPDEST POP PUSH2 0x298 PUSH2 0xAFA JUMP JUMPDEST PUSH1 0x40 MLOAD PUSH2 0x2A5 SWAP2 SWAP1 PUSH2 0x12F9 JUMP JUMPDEST PUSH1 0x40 MLOAD DUP1 SWAP2 SUB SWAP1 RETURN JUMPDEST CALLVALUE DUP1 ISZERO PUSH2 0x2B9 JUMPI PUSH0 DUP1 REVERT JUMPDEST POP PUSH2 0x2D4 PUSH1 0x4 DUP1 CALLDATASIZE SUB DUP2 ADD SWAP1 PUSH2 0x2CF SWAP2 SWAP1 PUSH2 0x16E3 JUMP JUMPDEST PUSH2 0xB00 JUMP JUMPDEST PUSH1 0x40 MLOAD PUSH2 0x2E3 SWAP4 SWAP3 SWAP2 SWAP1 PUSH2 0x171D JUMP JUMPDEST PUSH1 0x40 MLOAD DUP1 SWAP2 SUB SWAP1 RETURN JUMPDEST CALLVALUE DUP1 ISZERO PUSH2 0x2F7 JUMPI PUSH0 DUP1 REVERT JUMPDEST POP PUSH2 0x300 PUSH2 0xB52 JUMP JUMPDEST PUSH1 0x40 MLOAD PUSH2 0x30D SWAP2 SWAP1 PUSH2 0x12F9 JUMP JUMPDEST PUSH1 0x40 MLOAD DUP1 SWAP2 SUB SWAP1 RETURN JUMPDEST CALLVALUE DUP1 ISZERO PUSH2 0x321 JUMPI PUSH0 DUP1 REVERT JUMPDEST POP PUSH2 0x33C PUSH1 0x4 DUP1 CALLDATASIZE SUB DUP2 ADD SWAP1 PUSH2 0x337 SWAP2 SWAP1 PUSH2 0x1752 JUMP JUMPDEST PUSH2 0xB58 JUMP JUMPDEST PUSH1 0x40 MLOAD PUSH2 0x349 SWAP2 SWAP1 PUSH2 0x1390 JUMP JUMPDEST PUSH1 0x40 MLOAD DUP1 SWAP2 SUB SWAP1 RETURN JUMPDEST CALLVALUE DUP1 ISZERO PUSH2 0x35D JUMPI PUSH0 DUP1 REVERT JUMPDEST POP PUSH2 0x378 PUSH1 0x4 DUP1 CALLDATASIZE SUB DUP2 ADD SWAP1 PUSH2 0x373 SWAP2 SWAP1 PUSH2 0x17AC JUMP JUMPDEST PUSH2 0xBDE JUMP JUMPDEST STOP JUMPDEST CALLVALUE DUP1 ISZERO PUSH2 0x385 JUMPI PUSH0 DUP1 REVERT JUMPDEST POP PUSH2 0x3A0 PUSH1 0x4 DUP1 CALLDATASIZE SUB DUP2 ADD SWAP1 PUSH2 0x39B SWAP2 SWAP1 PUSH2 0x16A5 JUMP JUMPDEST PUSH2 0xD1F JUMP JUMPDEST STOP JUMPDEST CALLVALUE DUP1 ISZERO PUSH2 0x3AD JUMPI PUSH0 DUP1 REVERT JUMPDEST POP PUSH2 0x3C8 PUSH1 0x4 DUP1 CALLDATASIZE SUB DUP2 ADD SWAP1 PUSH2 0x3C3 SWAP2 SWAP1 PUSH2 0x1356 JUMP JUMPDEST PUSH2 0xED3 JUMP JUMPDEST STOP JUMPDEST PUSH1 0x5 SLOAD DUP2 JUMP JUMPDEST PUSH1 0x3 SLOAD DUP2 JUMP JUMPDEST PUSH1 0x2 DUP1 SLOAD LT PUSH2 0x3E3 JUMPI PUSH0 DUP1 REVERT JUMPDEST PUSH8 0xDE0B6B3A7640000 CALLVALUE EQ PUSH2 0x3F6 JUMPI PUSH0 DUP1 REVERT JUMPDEST CALLVALUE PUSH1 0x3 PUSH0 DUP3 DUP3 SLOAD PUSH2 0x407 SWAP2 SWAP1 PUSH2 0x1817 JUMP JUMPDEST SWAP3 POP POP DUP2 SWAP1 SSTORE POP CALLER PUSH1 0x4 PUSH0 PUSH1 0x2 SLOAD DUP2 MSTORE PUSH1 0x20 ADD SWAP1 DUP2 MSTORE PUSH1 0x20 ADD PUSH0 KECCAK256 PUSH1 0x1 ADD PUSH0 PUSH2 0x100 EXP DUP2 SLOAD DUP2 PUSH20 0xFFFFFFFFFFFFFFFFFFFFFFFFFFFFFFFFFFFFFFFF MUL NOT AND SWAP1 DUP4 PUSH20 0xFFFFFFFFFFFFFFFFFFFFFFFFFFFFFFFFFFFFFFFF AND MUL OR SWAP1 SSTORE POP PUSH1 0x3 PUSH1 0x4 PUSH0 PUSH1 0x2 SLOAD DUP2 MSTORE PUSH1 0x20 ADD SWAP1 DUP2 MSTORE PUSH1 0x20 ADD PUSH0 KECCAK256 PUSH0 ADD DUP2 SWAP1 SSTORE POP PUSH0 PUSH1 0x4 PUSH0 PUSH1 0x2 SLOAD DUP2 MSTORE PUSH1 0x20 ADD SWAP1 DUP2 MSTORE PUSH1 0x20 ADD PUSH0 KECCAK256 PUSH1 0x1 ADD PUSH1 0x14 PUSH2 0x100 EXP DUP2 SLOAD DUP2 PUSH1 0xFF MUL NOT AND SWAP1 DUP4 ISZERO ISZERO MUL OR SWAP1 SSTORE POP PUSH1 0x2 PUSH0 DUP2 SLOAD DUP1 SWAP3 SWAP2 SWAP1 PUSH2 0x4BD SWAP1 PUSH2 0x184A JUMP JUMPDEST SWAP2 SWAP1 POP SSTORE POP PUSH32 0x313F9EBDCA9D25EE9456DD69022E3324975C8261B7A8B134881905D3B6964D3C CALLER PUSH1 0x2 SLOAD PUSH1 0x40 MLOAD PUSH2 0x4F5 SWAP3 SWAP2 SWAP1 PUSH2 0x1891 JUMP JUMPDEST PUSH1 0x40 MLOAD DUP1 SWAP2 SUB SWAP1 LOG1 JUMP JUMPDEST PUSH0 ADDRESS DUP3 PUSH1 0x40 MLOAD PUSH1 0x20 ADD PUSH2 0x513 SWAP3 SWAP2 SWAP1 PUSH2 0x191D JUMP JUMPDEST PUSH1 0x40 MLOAD PUSH1 0x20 DUP2 DUP4 SUB SUB DUP2 MSTORE SWAP1 PUSH1 0x40 MSTORE DUP1 MLOAD SWAP1 PUSH1 0x20 ADD KECCAK256 SWAP1 POP SWAP2 SWAP1 POP JUMP JUMPDEST PUSH1 0x2 DUP1 SLOAD EQ PUSH2 0x53D JUMPI PUSH0 DUP1 REVERT JUMPDEST PUSH1 0x2 PUSH1 0x5 SLOAD EQ PUSH2 0x54B JUMPI PUSH0 DUP1 REVERT JUMPDEST PUSH1 0x4 PUSH0 DUP4 DUP2 MSTORE PUSH1 0x20 ADD SWAP1 DUP2 MSTORE PUSH1 0x20 ADD PUSH0 KECCAK256 PUSH1 0x1 ADD PUSH0 SWAP1 SLOAD SWAP1 PUSH2 0x100 EXP SWAP1 DIV PUSH20 0xFFFFFFFFFFFFFFFFFFFFFFFFFFFFFFFFFFFFFFFF AND PUSH20 0xFFFFFFFFFFFFFFFFFFFFFFFFFFFFFFFFFFFFFFFF AND CALLER PUSH20 0xFFFFFFFFFFFFFFFFFFFFFFFFFFFFFFFFFFFFFFFF AND EQ PUSH2 0x5B5 JUMPI PUSH0 DUP1 REVERT JUMPDEST PUSH0 DUP4 LT ISZERO DUP1 ISZERO PUSH2 0x5C6 JUMPI POP PUSH1 0x3 DUP4 GT ISZERO JUMPDEST PUSH2 0x5CE JUMPI PUSH0 DUP1 REVERT JUMPDEST PUSH1 0x1 ISZERO ISZERO PUSH1 0x4 PUSH0 DUP5 DUP2 MSTORE PUSH1 0x20 ADD SWAP1 DUP2 MSTORE PUSH1 0x20 ADD PUSH0 KECCAK256 PUSH1 0x1 ADD PUSH1 0x14 SWAP1 SLOAD SWAP1 PUSH2 0x100 EXP SWAP1 DIV PUSH1 0xFF AND ISZERO ISZERO EQ PUSH2 0x5FF JUMPI PUSH0 DUP1 REVERT JUMPDEST PUSH0 DUP2 PUSH1 0x40 MLOAD PUSH1 0x20 ADD PUSH2 0x611 SWAP2 SWAP1 PUSH2 0x19B4 JUMP JUMPDEST PUSH1 0x40 MLOAD PUSH1 0x20 DUP2 DUP4 SUB SUB DUP2 MSTORE SWAP1 PUSH1 0x40 MSTORE PUSH2 0x629 SWAP1 PUSH2 0x1A03 JUMP JUMPDEST SWAP1 POP PUSH0 DUP5 PUSH1 0x40 MLOAD PUSH1 0x20 ADD PUSH2 0x63D SWAP2 SWAP1 PUSH2 0x1A89 JUMP JUMPDEST PUSH1 0x40 MLOAD PUSH1 0x20 DUP2 DUP4 SUB SUB DUP2 MSTORE SWAP1 PUSH1 0x40 MSTORE PUSH2 0x655 SWAP1 PUSH2 0x1A03 JUMP JUMPDEST SWAP1 POP PUSH2 0x661 DUP2 DUP4 PUSH2 0xD1F JUMP JUMPDEST DUP5 PUSH1 0x4 PUSH0 DUP7 DUP2 MSTORE PUSH1 0x20 ADD SWAP1 DUP2 MSTORE PUSH1 0x20 ADD PUSH0 KECCAK256 PUSH0 ADD DUP2 SWAP1 SSTORE POP PUSH1 0x6 PUSH0 DUP2 SLOAD DUP1 SWAP3 SWAP2 SWAP1 PUSH2 0x68B SWAP1 PUSH2 0x184A JUMP JUMPDEST SWAP2 SWAP1 POP SSTORE POP PUSH1 0x2 PUSH1 0x6 SLOAD SUB PUSH2 0x6AB JUMPI PUSH2 0x6A2 PUSH2 0x10A5 JUMP JUMPDEST PUSH2 0x6AA PUSH2 0x12C3 JUMP JUMPDEST JUMPDEST POP POP POP POP POP JUMP JUMPDEST PUSH0 DUP1 SLOAD SWAP1 PUSH2 0x100 EXP SWAP1 DIV PUSH1 0xFF AND DUP2 JUMP JUMPDEST PUSH0 ISZERO ISZERO PUSH1 0x1 PUSH0 CALLER PUSH20 0xFFFFFFFFFFFFFFFFFFFFFFFFFFFFFFFFFFFFFFFF AND PUSH20 0xFFFFFFFFFFFFFFFFFFFFFFFFFFFFFFFFFFFFFFFF AND DUP2 MSTORE PUSH1 0x20 ADD SWAP1 DUP2 MSTORE PUSH1 0x20 ADD PUSH0 KECCAK256 PUSH1 0x1 ADD PUSH1 0x8 SWAP1 SLOAD SWAP1 PUSH2 0x100 EXP SWAP1 DIV PUSH1 0xFF AND ISZERO ISZERO EQ PUSH2 0x755 JUMPI PUSH1 0x40 MLOAD PUSH32 0x8C379A000000000000000000000000000000000000000000000000000000000 DUP2 MSTORE PUSH1 0x4 ADD PUSH2 0x74C SWAP1 PUSH2 0x1B23 JUMP JUMPDEST PUSH1 0x40 MLOAD DUP1 SWAP2 SUB SWAP1 REVERT JUMPDEST PUSH1 0x1 DUP1 PUSH0 CALLER PUSH20 0xFFFFFFFFFFFFFFFFFFFFFFFFFFFFFFFFFFFFFFFF AND PUSH20 0xFFFFFFFFFFFFFFFFFFFFFFFFFFFFFFFFFFFFFFFF AND DUP2 MSTORE PUSH1 0x20 ADD SWAP1 DUP2 MSTORE PUSH1 0x20 ADD PUSH0 KECCAK256 PUSH1 0x1 ADD PUSH1 0x8 PUSH2 0x100 EXP DUP2 SLOAD DUP2 PUSH1 0xFF MUL NOT AND SWAP1 DUP4 ISZERO ISZERO MUL OR SWAP1 SSTORE POP PUSH1 0x1 PUSH0 CALLER PUSH20 0xFFFFFFFFFFFFFFFFFFFFFFFFFFFFFFFFFFFFFFFF AND PUSH20 0xFFFFFFFFFFFFFFFFFFFFFFFFFFFFFFFFFFFFFFFF AND DUP2 MSTORE PUSH1 0x20 ADD SWAP1 DUP2 MSTORE PUSH1 0x20 ADD PUSH0 KECCAK256 PUSH0 ADD SLOAD PUSH2 0x7F6 DUP3 PUSH2 0x4FF JUMP JUMPDEST EQ PUSH2 0x836 JUMPI PUSH1 0x40 MLOAD PUSH32 0x8C379A000000000000000000000000000000000000000000000000000000000 DUP2 MSTORE PUSH1 0x4 ADD PUSH2 0x82D SWAP1 PUSH2 0x1BB1 JUMP JUMPDEST PUSH1 0x40 MLOAD DUP1 SWAP2 SUB SWAP1 REVERT JUMPDEST PUSH1 0x1 PUSH0 CALLER PUSH20 0xFFFFFFFFFFFFFFFFFFFFFFFFFFFFFFFFFFFFFFFF AND PUSH20 0xFFFFFFFFFFFFFFFFFFFFFFFFFFFFFFFFFFFFFFFF AND DUP2 MSTORE PUSH1 0x20 ADD SWAP1 DUP2 MSTORE PUSH1 0x20 ADD PUSH0 KECCAK256 PUSH1 0x1 ADD PUSH0 SWAP1 SLOAD SWAP1 PUSH2 0x100 EXP SWAP1 DIV PUSH8 0xFFFFFFFFFFFFFFFF AND PUSH8 0xFFFFFFFFFFFFFFFF AND NUMBER PUSH8 0xFFFFFFFFFFFFFFFF AND GT PUSH2 0x8DF JUMPI PUSH1 0x40 MLOAD PUSH32 0x8C379A000000000000000000000000000000000000000000000000000000000 DUP2 MSTORE PUSH1 0x4 ADD PUSH2 0x8D6 SWAP1 PUSH2 0x1C65 JUMP JUMPDEST PUSH1 0x40 MLOAD DUP1 SWAP2 SUB SWAP1 REVERT JUMPDEST PUSH1 0xFA PUSH1 0x1 PUSH0 CALLER PUSH20 0xFFFFFFFFFFFFFFFFFFFFFFFFFFFFFFFFFFFFFFFF AND PUSH20 0xFFFFFFFFFFFFFFFFFFFFFFFFFFFFFFFFFFFFFFFF AND DUP2 MSTORE PUSH1 0x20 ADD SWAP1 DUP2 MSTORE PUSH1 0x20 ADD PUSH0 KECCAK256 PUSH1 0x1 ADD PUSH0 SWAP1 SLOAD SWAP1 PUSH2 0x100 EXP SWAP1 DIV PUSH8 0xFFFFFFFFFFFFFFFF AND PUSH2 0x93F SWAP2 SWAP1 PUSH2 0x1C83 JUMP JUMPDEST PUSH8 0xFFFFFFFFFFFFFFFF AND NUMBER PUSH8 0xFFFFFFFFFFFFFFFF AND GT ISZERO PUSH2 0x995 JUMPI PUSH1 0x40 MLOAD PUSH32 0x8C379A000000000000000000000000000000000000000000000000000000000 DUP2 MSTORE PUSH1 0x4 ADD PUSH2 0x98C SWAP1 PUSH2 0x1D2E JUMP JUMPDEST PUSH1 0x40 MLOAD DUP1 SWAP2 SUB SWAP1 REVERT JUMPDEST PUSH0 PUSH1 0x1 PUSH0 CALLER PUSH20 0xFFFFFFFFFFFFFFFFFFFFFFFFFFFFFFFFFFFFFFFF AND PUSH20 0xFFFFFFFFFFFFFFFFFFFFFFFFFFFFFFFFFFFFFFFF AND DUP2 MSTORE PUSH1 0x20 ADD SWAP1 DUP2 MSTORE PUSH1 0x20 ADD PUSH0 KECCAK256 PUSH1 0x1 ADD PUSH0 SWAP1 SLOAD SWAP1 PUSH2 0x100 EXP SWAP1 DIV PUSH8 0xFFFFFFFFFFFFFFFF AND PUSH8 0xFFFFFFFFFFFFFFFF AND BLOCKHASH SWAP1 POP PUSH0 DUP1 PUSH0 SWAP1 SLOAD SWAP1 PUSH2 0x100 EXP SWAP1 DIV PUSH1 0xFF AND PUSH1 0xFF AND DUP3 DUP5 PUSH1 0x40 MLOAD PUSH1 0x20 ADD PUSH2 0xA1C SWAP3 SWAP2 SWAP1 PUSH2 0x1D4C JUMP JUMPDEST PUSH1 0x40 MLOAD PUSH1 0x20 DUP2 DUP4 SUB SUB DUP2 MSTORE SWAP1 PUSH1 0x40 MSTORE DUP1 MLOAD SWAP1 PUSH1 0x20 ADD KECCAK256 PUSH0 SHR PUSH2 0xA3E SWAP2 SWAP1 PUSH2 0x1DA4 JUMP JUMPDEST SWAP1 POP PUSH32 0xBC016DD1CADEAEFCB851AF7A0A93532E0023D536894B730801F7BCFE7065BCC2 CALLER DUP5 DUP4 PUSH1 0x40 MLOAD PUSH2 0xA73 SWAP4 SWAP3 SWAP2 SWAP1 PUSH2 0x1DD4 JUMP JUMPDEST PUSH1 0x40 MLOAD DUP1 SWAP2 SUB SWAP1 LOG1 POP POP POP JUMP JUMPDEST PUSH1 0x1 PUSH1 0x20 MSTORE DUP1 PUSH0 MSTORE PUSH1 0x40 PUSH0 KECCAK256 PUSH0 SWAP2 POP SWAP1 POP DUP1 PUSH0 ADD SLOAD SWAP1 DUP1 PUSH1 0x1 ADD PUSH0 SWAP1 SLOAD SWAP1 PUSH2 0x100 EXP SWAP1 DIV PUSH8 0xFFFFFFFFFFFFFFFF AND SWAP1 DUP1 PUSH1 0x1 ADD PUSH1 0x8 SWAP1 SLOAD SWAP1 PUSH2 0x100 EXP SWAP1 DIV PUSH1 0xFF AND SWAP1 POP DUP4 JUMP JUMPDEST PUSH0 ADDRESS DUP4 DUP4 PUSH1 0x40 MLOAD PUSH1 0x20 ADD PUSH2 0xADC SWAP4 SWAP3 SWAP2 SWAP1 PUSH2 0x1E09 JUMP JUMPDEST PUSH1 0x40 MLOAD PUSH1 0x20 DUP2 DUP4 SUB SUB DUP2 MSTORE SWAP1 PUSH1 0x40 MSTORE DUP1 MLOAD SWAP1 PUSH1 0x20 ADD KECCAK256 SWAP1 POP SWAP3 SWAP2 POP POP JUMP JUMPDEST PUSH1 0x2 SLOAD DUP2 JUMP JUMPDEST PUSH1 0x4 PUSH1 0x20 MSTORE DUP1 PUSH0 MSTORE PUSH1 0x40 PUSH0 KECCAK256 PUSH0 SWAP2 POP SWAP1 POP DUP1 PUSH0 ADD SLOAD SWAP1 DUP1 PUSH1 0x1 ADD PUSH0 SWAP1 SLOAD SWAP1 PUSH2 0x100 EXP SWAP1 DIV PUSH20 0xFFFFFFFFFFFFFFFFFFFFFFFFFFFFFFFFFFFFFFFF AND SWAP1 DUP1 PUSH1 0x1 ADD PUSH1 0x14 SWAP1 SLOAD SWAP1 PUSH2 0x100 EXP SWAP1 DIV PUSH1 0xFF AND SWAP1 POP DUP4 JUMP JUMPDEST PUSH1 0x6 SLOAD DUP2 JUMP JUMPDEST PUSH0 DUP1 DUP4 LT ISZERO DUP1 ISZERO PUSH2 0xB6A JUMPI POP PUSH1 0x3 DUP4 GT ISZERO JUMPDEST PUSH2 0xB72 JUMPI PUSH0 DUP1 REVERT JUMPDEST PUSH0 DUP3 PUSH1 0x40 MLOAD PUSH1 0x20 ADD PUSH2 0xB84 SWAP2 SWAP1 PUSH2 0x19B4 JUMP JUMPDEST PUSH1 0x40 MLOAD PUSH1 0x20 DUP2 DUP4 SUB SUB DUP2 MSTORE SWAP1 PUSH1 0x40 MSTORE PUSH2 0xB9C SWAP1 PUSH2 0x1A03 JUMP JUMPDEST SWAP1 POP PUSH0 DUP5 PUSH1 0x40 MLOAD PUSH1 0x20 ADD PUSH2 0xBB0 SWAP2 SWAP1 PUSH2 0x1A89 JUMP JUMPDEST PUSH1 0x40 MLOAD PUSH1 0x20 DUP2 DUP4 SUB SUB DUP2 MSTORE SWAP1 PUSH1 0x40 MSTORE PUSH2 0xBC8 SWAP1 PUSH2 0x1A03 JUMP JUMPDEST SWAP1 POP PUSH2 0xBD4 DUP2 DUP4 PUSH2 0xAC6 JUMP JUMPDEST SWAP3 POP POP POP SWAP3 SWAP2 POP POP JUMP JUMPDEST PUSH1 0x2 DUP1 SLOAD EQ PUSH2 0xBEB JUMPI PUSH0 DUP1 REVERT JUMPDEST PUSH1 0x2 PUSH1 0x5 SLOAD LT PUSH2 0xBF9 JUMPI PUSH0 DUP1 REVERT JUMPDEST PUSH1 0x4 PUSH0 DUP3 DUP2 MSTORE PUSH1 0x20 ADD SWAP1 DUP2 MSTORE PUSH1 0x20 ADD PUSH0 KECCAK256 PUSH1 0x1 ADD PUSH0 SWAP1 SLOAD SWAP1 PUSH2 0x100 EXP SWAP1 DIV PUSH20 0xFFFFFFFFFFFFFFFFFFFFFFFFFFFFFFFFFFFFFFFF AND PUSH20 0xFFFFFFFFFFFFFFFFFFFFFFFFFFFFFFFFFFFFFFFF AND CALLER PUSH20 0xFFFFFFFFFFFFFFFFFFFFFFFFFFFFFFFFFFFFFFFF AND EQ PUSH2 0xC63 JUMPI PUSH0 DUP1 REVERT JUMPDEST PUSH0 ISZERO ISZERO PUSH1 0x4 PUSH0 DUP4 DUP2 MSTORE PUSH1 0x20 ADD SWAP1 DUP2 MSTORE PUSH1 0x20 ADD PUSH0 KECCAK256 PUSH1 0x1 ADD PUSH1 0x14 SWAP1 SLOAD SWAP1 PUSH2 0x100 EXP SWAP1 DIV PUSH1 0xFF AND ISZERO ISZERO EQ PUSH2 0xC93 JUMPI PUSH0 DUP1 REVERT JUMPDEST PUSH1 0x1 PUSH1 0x4 PUSH0 DUP4 DUP2 MSTORE PUSH1 0x20 ADD SWAP1 DUP2 MSTORE PUSH1 0x20 ADD PUSH0 KECCAK256 PUSH1 0x1 ADD PUSH1 0x14 PUSH2 0x100 EXP DUP2 SLOAD DUP2 PUSH1 0xFF MUL NOT AND SWAP1 DUP4 ISZERO ISZERO MUL OR SWAP1 SSTORE POP PUSH2 0xCC9 DUP3 PUSH2 0xED3 JUMP JUMPDEST PUSH1 0x5 PUSH0 DUP2 SLOAD DUP1 SWAP3 SWAP2 SWAP1 PUSH2 0xCDB SWAP1 PUSH2 0x184A JUMP JUMPDEST SWAP2 SWAP1 POP SSTORE POP PUSH32 0x3928CC5ABCBB1C0B781BEBBC4F1E9B156F6D392796C791CC0937DB5E42677FF7 CALLER PUSH1 0x5 SLOAD PUSH1 0x40 MLOAD PUSH2 0xD13 SWAP3 SWAP2 SWAP1 PUSH2 0x1891 JUMP JUMPDEST PUSH1 0x40 MLOAD DUP1 SWAP2 SUB SWAP1 LOG1 POP POP JUMP JUMPDEST PUSH0 ISZERO ISZERO PUSH1 0x1 PUSH0 CALLER PUSH20 0xFFFFFFFFFFFFFFFFFFFFFFFFFFFFFFFFFFFFFFFF AND PUSH20 0xFFFFFFFFFFFFFFFFFFFFFFFFFFFFFFFFFFFFFFFF AND DUP2 MSTORE PUSH1 0x20 ADD SWAP1 DUP2 MSTORE PUSH1 0x20 ADD PUSH0 KECCAK256 PUSH1 0x1 ADD PUSH1 0x8 SWAP1 SLOAD SWAP1 PUSH2 0x100 EXP SWAP1 DIV PUSH1 0xFF AND ISZERO ISZERO EQ PUSH2 0xDB2 JUMPI PUSH1 0x40 MLOAD PUSH32 0x8C379A000000000000000000000000000000000000000000000000000000000 DUP2 MSTORE PUSH1 0x4 ADD PUSH2 0xDA9 SWAP1 PUSH2 0x1EB5 JUMP JUMPDEST PUSH1 0x40 MLOAD DUP1 SWAP2 SUB SWAP1 REVERT JUMPDEST PUSH1 0x1 DUP1 PUSH0 CALLER PUSH20 0xFFFFFFFFFFFFFFFFFFFFFFFFFFFFFFFFFFFFFFFF AND PUSH20 0xFFFFFFFFFFFFFFFFFFFFFFFFFFFFFFFFFFFFFFFF AND DUP2 MSTORE PUSH1 0x20 ADD SWAP1 DUP2 MSTORE PUSH1 0x20 ADD PUSH0 KECCAK256 PUSH1 0x1 ADD PUSH1 0x8 PUSH2 0x100 EXP DUP2 SLOAD DUP2 PUSH1 0xFF MUL NOT AND SWAP1 DUP4 ISZERO ISZERO MUL OR SWAP1 SSTORE POP PUSH1 0x1 PUSH0 CALLER PUSH20 0xFFFFFFFFFFFFFFFFFFFFFFFFFFFFFFFFFFFFFFFF AND PUSH20 0xFFFFFFFFFFFFFFFFFFFFFFFFFFFFFFFFFFFFFFFF AND DUP2 MSTORE PUSH1 0x20 ADD SWAP1 DUP2 MSTORE PUSH1 0x20 ADD PUSH0 KECCAK256 PUSH0 ADD SLOAD PUSH2 0xE54 DUP4 DUP4 PUSH2 0xAC6 JUMP JUMPDEST EQ PUSH2 0xE94 JUMPI PUSH1 0x40 MLOAD PUSH32 0x8C379A000000000000000000000000000000000000000000000000000000000 DUP2 MSTORE PUSH1 0x4 ADD PUSH2 0xE8B SWAP1 PUSH2 0x1F43 JUMP JUMPDEST PUSH1 0x40 MLOAD DUP1 SWAP2 SUB SWAP1 REVERT JUMPDEST PUSH32 0x8BED02C4D61E56ED1D90657E7A0BA48F15CCA20FCC2899D7235221B2CB0423A6 CALLER DUP4 DUP4 PUSH1 0x40 MLOAD PUSH2 0xEC7 SWAP4 SWAP3 SWAP2 SWAP1 PUSH2 0x1F61 JUMP JUMPDEST PUSH1 0x40 MLOAD DUP1 SWAP2 SUB SWAP1 LOG1 POP POP JUMP JUMPDEST DUP1 PUSH1 0x1 PUSH0 CALLER PUSH20 0xFFFFFFFFFFFFFFFFFFFFFFFFFFFFFFFFFFFFFFFF AND PUSH20 0xFFFFFFFFFFFFFFFFFFFFFFFFFFFFFFFFFFFFFFFF AND DUP2 MSTORE PUSH1 0x20 ADD SWAP1 DUP2 MSTORE PUSH1 0x20 ADD PUSH0 KECCAK256 PUSH0 ADD DUP2 SWAP1 SSTORE POP NUMBER PUSH1 0x1 PUSH0 CALLER PUSH20 0xFFFFFFFFFFFFFFFFFFFFFFFFFFFFFFFFFFFFFFFF AND PUSH20 0xFFFFFFFFFFFFFFFFFFFFFFFFFFFFFFFFFFFFFFFF AND DUP2 MSTORE PUSH1 0x20 ADD SWAP1 DUP2 MSTORE PUSH1 0x20 ADD PUSH0 KECCAK256 PUSH1 0x1 ADD PUSH0 PUSH2 0x100 EXP DUP2 SLOAD DUP2 PUSH8 0xFFFFFFFFFFFFFFFF MUL NOT AND SWAP1 DUP4 PUSH8 0xFFFFFFFFFFFFFFFF AND MUL OR SWAP1 SSTORE POP PUSH0 PUSH1 0x1 PUSH0 CALLER PUSH20 0xFFFFFFFFFFFFFFFFFFFFFFFFFFFFFFFFFFFFFFFF AND PUSH20 0xFFFFFFFFFFFFFFFFFFFFFFFFFFFFFFFFFFFFFFFF AND DUP2 MSTORE PUSH1 0x20 ADD SWAP1 DUP2 MSTORE PUSH1 0x20 ADD PUSH0 KECCAK256 PUSH1 0x1 ADD PUSH1 0x8 PUSH2 0x100 EXP DUP2 SLOAD DUP2 PUSH1 0xFF MUL NOT AND SWAP1 DUP4 ISZERO ISZERO MUL OR SWAP1 SSTORE POP PUSH32 0x3C1A1F8F38335B17F751C6DA4BA7D1865F26B3997535176F5080DE9FAD891603 CALLER PUSH1 0x1 PUSH0 CALLER PUSH20 0xFFFFFFFFFFFFFFFFFFFFFFFFFFFFFFFFFFFFFFFF AND PUSH20 0xFFFFFFFFFFFFFFFFFFFFFFFFFFFFFFFFFFFFFFFF AND DUP2 MSTORE PUSH1 0x20 ADD SWAP1 DUP2 MSTORE PUSH1 0x20 ADD PUSH0 KECCAK256 PUSH0 ADD SLOAD PUSH1 0x1 PUSH0 CALLER PUSH20 0xFFFFFFFFFFFFFFFFFFFFFFFFFFFFFFFFFFFFFFFF AND PUSH20 0xFFFFFFFFFFFFFFFFFFFFFFFFFFFFFFFFFFFFFFFF AND DUP2 MSTORE PUSH1 0x20 ADD SWAP1 DUP2 MSTORE PUSH1 0x20 ADD PUSH0 KECCAK256 PUSH1 0x1 ADD PUSH0 SWAP1 SLOAD SWAP1 PUSH2 0x100 EXP SWAP1 DIV PUSH8 0xFFFFFFFFFFFFFFFF AND PUSH1 0x40 MLOAD PUSH2 0x109A SWAP4 SWAP3 SWAP2 SWAP1 PUSH2 0x1F96 JUMP JUMPDEST PUSH1 0x40 MLOAD DUP1 SWAP2 SUB SWAP1 LOG1 POP JUMP JUMPDEST PUSH0 PUSH1 0x4 PUSH0 DUP1 DUP2 MSTORE PUSH1 0x20 ADD SWAP1 DUP2 MSTORE PUSH1 0x20 ADD PUSH0 KECCAK256 PUSH0 ADD SLOAD SWAP1 POP PUSH0 PUSH1 0x4 PUSH0 PUSH1 0x1 DUP2 MSTORE PUSH1 0x20 ADD SWAP1 DUP2 MSTORE PUSH1 0x20 ADD PUSH0 KECCAK256 PUSH0 ADD SLOAD SWAP1 POP PUSH0 PUSH1 0x4 PUSH0 DUP1 DUP2 MSTORE PUSH1 0x20 ADD SWAP1 DUP2 MSTORE PUSH1 0x20 ADD PUSH0 KECCAK256 PUSH1 0x1 ADD PUSH0 SWAP1 SLOAD SWAP1 PUSH2 0x100 EXP SWAP1 DIV PUSH20 0xFFFFFFFFFFFFFFFFFFFFFFFFFFFFFFFFFFFFFFFF AND SWAP1 POP PUSH0 PUSH1 0x4 PUSH0 PUSH1 0x1 DUP2 MSTORE PUSH1 0x20 ADD SWAP1 DUP2 MSTORE PUSH1 0x20 ADD PUSH0 KECCAK256 PUSH1 0x1 ADD PUSH0 SWAP1 SLOAD SWAP1 PUSH2 0x100 EXP SWAP1 DIV PUSH20 0xFFFFFFFFFFFFFFFFFFFFFFFFFFFFFFFFFFFFFFFF AND SWAP1 POP DUP3 PUSH1 0x3 PUSH1 0x1 DUP7 PUSH2 0x1153 SWAP2 SWAP1 PUSH2 0x1817 JUMP JUMPDEST PUSH2 0x115D SWAP2 SWAP1 PUSH2 0x1DA4 JUMP JUMPDEST SUB PUSH2 0x11AD JUMPI DUP1 PUSH20 0xFFFFFFFFFFFFFFFFFFFFFFFFFFFFFFFFFFFFFFFF AND PUSH2 0x8FC PUSH1 0x3 SLOAD SWAP1 DUP2 ISZERO MUL SWAP1 PUSH1 0x40 MLOAD PUSH0 PUSH1 0x40 MLOAD DUP1 DUP4 SUB DUP2 DUP6 DUP9 DUP9 CALL SWAP4 POP POP POP POP ISZERO DUP1 ISZERO PUSH2 0x11A7 JUMPI RETURNDATASIZE PUSH0 DUP1 RETURNDATACOPY RETURNDATASIZE PUSH0 REVERT JUMPDEST POP PUSH2 0x12BD JUMP JUMPDEST DUP4 PUSH1 0x3 PUSH1 0x1 DUP6 PUSH2 0x11BD SWAP2 SWAP1 PUSH2 0x1817 JUMP JUMPDEST PUSH2 0x11C7 SWAP2 SWAP1 PUSH2 0x1DA4 JUMP JUMPDEST SUB PUSH2 0x1217 JUMPI DUP2 PUSH20 0xFFFFFFFFFFFFFFFFFFFFFFFFFFFFFFFFFFFFFFFF AND PUSH2 0x8FC PUSH1 0x3 SLOAD SWAP1 DUP2 ISZERO MUL SWAP1 PUSH1 0x40 MLOAD PUSH0 PUSH1 0x40 MLOAD DUP1 DUP4 SUB DUP2 DUP6 DUP9 DUP9 CALL SWAP4 POP POP POP POP ISZERO DUP1 ISZERO PUSH2 0x1211 JUMPI RETURNDATASIZE PUSH0 DUP1 RETURNDATACOPY RETURNDATASIZE PUSH0 REVERT JUMPDEST POP PUSH2 0x12BC JUMP JUMPDEST DUP2 PUSH20 0xFFFFFFFFFFFFFFFFFFFFFFFFFFFFFFFFFFFFFFFF AND PUSH2 0x8FC PUSH1 0x2 PUSH1 0x3 SLOAD PUSH2 0x1240 SWAP2 SWAP1 PUSH2 0x1FCB JUMP JUMPDEST SWAP1 DUP2 ISZERO MUL SWAP1 PUSH1 0x40 MLOAD PUSH0 PUSH1 0x40 MLOAD DUP1 DUP4 SUB DUP2 DUP6 DUP9 DUP9 CALL SWAP4 POP POP POP POP ISZERO DUP1 ISZERO PUSH2 0x1268 JUMPI RETURNDATASIZE PUSH0 DUP1 RETURNDATACOPY RETURNDATASIZE PUSH0 REVERT JUMPDEST POP DUP1 PUSH20 0xFFFFFFFFFFFFFFFFFFFFFFFFFFFFFFFFFFFFFFFF AND PUSH2 0x8FC PUSH1 0x2 PUSH1 0x3 SLOAD PUSH2 0x1292 SWAP2 SWAP1 PUSH2 0x1FCB JUMP JUMPDEST SWAP1 DUP2 ISZERO MUL SWAP1 PUSH1 0x40 MLOAD PUSH0 PUSH1 0x40 MLOAD DUP1 DUP4 SUB DUP2 DUP6 DUP9 DUP9 CALL SWAP4 POP POP POP POP ISZERO DUP1 ISZERO PUSH2 0x12BA JUMPI RETURNDATASIZE PUSH0 DUP1 RETURNDATACOPY RETURNDATASIZE PUSH0 REVERT JUMPDEST POP JUMPDEST JUMPDEST POP POP POP POP JUMP JUMPDEST PUSH0 PUSH1 0x2 DUP2 SWAP1 SSTORE POP PUSH0 PUSH1 0x3 DUP2 SWAP1 SSTORE POP PUSH0 PUSH1 0x5 DUP2 SWAP1 SSTORE POP PUSH0 PUSH1 0x6 DUP2 SWAP1 SSTORE POP JUMP JUMPDEST PUSH0 DUP2 SWAP1 POP SWAP2 SWAP1 POP JUMP JUMPDEST PUSH2 0x12F3 DUP2 PUSH2 0x12E1 JUMP JUMPDEST DUP3 MSTORE POP POP JUMP JUMPDEST PUSH0 PUSH1 0x20 DUP3 ADD SWAP1 POP PUSH2 0x130C PUSH0 DUP4 ADD DUP5 PUSH2 0x12EA JUMP JUMPDEST SWAP3 SWAP2 POP POP JUMP JUMPDEST PUSH0 PUSH1 0x40 MLOAD SWAP1 POP SWAP1 JUMP JUMPDEST PUSH0 DUP1 REVERT JUMPDEST PUSH0 DUP1 REVERT JUMPDEST PUSH0 DUP2 SWAP1 POP SWAP2 SWAP1 POP JUMP JUMPDEST PUSH2 0x1335 DUP2 PUSH2 0x1323 JUMP JUMPDEST DUP2 EQ PUSH2 0x133F JUMPI PUSH0 DUP1 REVERT JUMPDEST POP JUMP JUMPDEST PUSH0 DUP2 CALLDATALOAD SWAP1 POP PUSH2 0x1350 DUP2 PUSH2 0x132C JUMP JUMPDEST SWAP3 SWAP2 POP POP JUMP JUMPDEST PUSH0 PUSH1 0x20 DUP3 DUP5 SUB SLT ISZERO PUSH2 0x136B JUMPI PUSH2 0x136A PUSH2 0x131B JUMP JUMPDEST JUMPDEST PUSH0 PUSH2 0x1378 DUP5 DUP3 DUP6 ADD PUSH2 0x1342 JUMP JUMPDEST SWAP2 POP POP SWAP3 SWAP2 POP POP JUMP JUMPDEST PUSH2 0x138A DUP2 PUSH2 0x1323 JUMP JUMPDEST DUP3 MSTORE POP POP JUMP JUMPDEST PUSH0 PUSH1 0x20 DUP3 ADD SWAP1 POP PUSH2 0x13A3 PUSH0 DUP4 ADD DUP5 PUSH2 0x1381 JUMP JUMPDEST SWAP3 SWAP2 POP POP JUMP JUMPDEST PUSH2 0x13B2 DUP2 PUSH2 0x12E1 JUMP JUMPDEST DUP2 EQ PUSH2 0x13BC JUMPI PUSH0 DUP1 REVERT JUMPDEST POP JUMP JUMPDEST PUSH0 DUP2 CALLDATALOAD SWAP1 POP PUSH2 0x13CD DUP2 PUSH2 0x13A9 JUMP JUMPDEST SWAP3 SWAP2 POP POP JUMP JUMPDEST PUSH0 DUP1 REVERT JUMPDEST PUSH0 DUP1 REVERT JUMPDEST PUSH0 PUSH1 0x1F NOT PUSH1 0x1F DUP4 ADD AND SWAP1 POP SWAP2 SWAP1 POP JUMP JUMPDEST PUSH32 0x4E487B7100000000000000000000000000000000000000000000000000000000 PUSH0 MSTORE PUSH1 0x41 PUSH1 0x4 MSTORE PUSH1 0x24 PUSH0 REVERT JUMPDEST PUSH2 0x1421 DUP3 PUSH2 0x13DB JUMP JUMPDEST DUP2 ADD DUP2 DUP2 LT PUSH8 0xFFFFFFFFFFFFFFFF DUP3 GT OR ISZERO PUSH2 0x1440 JUMPI PUSH2 0x143F PUSH2 0x13EB JUMP JUMPDEST JUMPDEST DUP1 PUSH1 0x40 MSTORE POP POP POP JUMP JUMPDEST PUSH0 PUSH2 0x1452 PUSH2 0x1312 JUMP JUMPDEST SWAP1 POP PUSH2 0x145E DUP3 DUP3 PUSH2 0x1418 JUMP JUMPDEST SWAP2 SWAP1 POP JUMP JUMPDEST PUSH0 PUSH8 0xFFFFFFFFFFFFFFFF DUP3 GT ISZERO PUSH2 0x147D JUMPI PUSH2 0x147C PUSH2 0x13EB JUMP JUMPDEST JUMPDEST PUSH2 0x1486 DUP3 PUSH2 0x13DB JUMP JUMPDEST SWAP1 POP PUSH1 0x20 DUP2 ADD SWAP1 POP SWAP2 SWAP1 POP JUMP JUMPDEST DUP3 DUP2 DUP4 CALLDATACOPY PUSH0 DUP4 DUP4 ADD MSTORE POP POP POP JUMP JUMPDEST PUSH0 PUSH2 0x14B3 PUSH2 0x14AE DUP5 PUSH2 0x1463 JUMP JUMPDEST PUSH2 0x1449 JUMP JUMPDEST SWAP1 POP DUP3 DUP2 MSTORE PUSH1 0x20 DUP2 ADD DUP5 DUP5 DUP5 ADD GT ISZERO PUSH2 0x14CF JUMPI PUSH2 0x14CE PUSH2 0x13D7 JUMP JUMPDEST JUMPDEST PUSH2 0x14DA DUP5 DUP3 DUP6 PUSH2 0x1493 JUMP JUMPDEST POP SWAP4 SWAP3 POP POP POP JUMP JUMPDEST PUSH0 DUP3 PUSH1 0x1F DUP4 ADD SLT PUSH2 0x14F6 JUMPI PUSH2 0x14F5 PUSH2 0x13D3 JUMP JUMPDEST JUMPDEST DUP2 CALLDATALOAD PUSH2 0x1506 DUP5 DUP3 PUSH1 0x20 DUP7 ADD PUSH2 0x14A1 JUMP JUMPDEST SWAP2 POP POP SWAP3 SWAP2 POP POP JUMP JUMPDEST PUSH0 DUP1 PUSH0 PUSH1 0x60 DUP5 DUP7 SUB SLT ISZERO PUSH2 0x1526 JUMPI PUSH2 0x1525 PUSH2 0x131B JUMP JUMPDEST JUMPDEST PUSH0 PUSH2 0x1533 DUP7 DUP3 DUP8 ADD PUSH2 0x13BF JUMP JUMPDEST SWAP4 POP POP PUSH1 0x20 PUSH2 0x1544 DUP7 DUP3 DUP8 ADD PUSH2 0x13BF JUMP JUMPDEST SWAP3 POP POP PUSH1 0x40 DUP5 ADD CALLDATALOAD PUSH8 0xFFFFFFFFFFFFFFFF DUP2 GT ISZERO PUSH2 0x1565 JUMPI PUSH2 0x1564 PUSH2 0x131F JUMP JUMPDEST JUMPDEST PUSH2 0x1571 DUP7 DUP3 DUP8 ADD PUSH2 0x14E2 JUMP JUMPDEST SWAP2 POP POP SWAP3 POP SWAP3 POP SWAP3 JUMP JUMPDEST PUSH0 PUSH1 0xFF DUP3 AND SWAP1 POP SWAP2 SWAP1 POP JUMP JUMPDEST PUSH2 0x1590 DUP2 PUSH2 0x157B JUMP JUMPDEST DUP3 MSTORE POP POP JUMP JUMPDEST PUSH0 PUSH1 0x20 DUP3 ADD SWAP1 POP PUSH2 0x15A9 PUSH0 DUP4 ADD DUP5 PUSH2 0x1587 JUMP JUMPDEST SWAP3 SWAP2 POP POP JUMP JUMPDEST PUSH0 PUSH20 0xFFFFFFFFFFFFFFFFFFFFFFFFFFFFFFFFFFFFFFFF DUP3 AND SWAP1 POP SWAP2 SWAP1 POP JUMP JUMPDEST PUSH0 PUSH2 0x15D8 DUP3 PUSH2 0x15AF JUMP JUMPDEST SWAP1 POP SWAP2 SWAP1 POP JUMP JUMPDEST PUSH2 0x15E8 DUP2 PUSH2 0x15CE JUMP JUMPDEST DUP2 EQ PUSH2 0x15F2 JUMPI PUSH0 DUP1 REVERT JUMPDEST POP JUMP JUMPDEST PUSH0 DUP2 CALLDATALOAD SWAP1 POP PUSH2 0x1603 DUP2 PUSH2 0x15DF JUMP JUMPDEST SWAP3 SWAP2 POP POP JUMP JUMPDEST PUSH0 PUSH1 0x20 DUP3 DUP5 SUB SLT ISZERO PUSH2 0x161E JUMPI PUSH2 0x161D PUSH2 0x131B JUMP JUMPDEST JUMPDEST PUSH0 PUSH2 0x162B DUP5 DUP3 DUP6 ADD PUSH2 0x15F5 JUMP JUMPDEST SWAP2 POP POP SWAP3 SWAP2 POP POP JUMP JUMPDEST PUSH0 PUSH8 0xFFFFFFFFFFFFFFFF DUP3 AND SWAP1 POP SWAP2 SWAP1 POP JUMP JUMPDEST PUSH2 0x1650 DUP2 PUSH2 0x1634 JUMP JUMPDEST DUP3 MSTORE POP POP JUMP JUMPDEST PUSH0 DUP2 ISZERO ISZERO SWAP1 POP SWAP2 SWAP1 POP JUMP JUMPDEST PUSH2 0x166A DUP2 PUSH2 0x1656 JUMP JUMPDEST DUP3 MSTORE POP POP JUMP JUMPDEST PUSH0 PUSH1 0x60 DUP3 ADD SWAP1 POP PUSH2 0x1683 PUSH0 DUP4 ADD DUP7 PUSH2 0x1381 JUMP JUMPDEST PUSH2 0x1690 PUSH1 0x20 DUP4 ADD DUP6 PUSH2 0x1647 JUMP JUMPDEST PUSH2 0x169D PUSH1 0x40 DUP4 ADD DUP5 PUSH2 0x1661 JUMP JUMPDEST SWAP5 SWAP4 POP POP POP POP JUMP JUMPDEST PUSH0 DUP1 PUSH1 0x40 DUP4 DUP6 SUB SLT ISZERO PUSH2 0x16BB JUMPI PUSH2 0x16BA PUSH2 0x131B JUMP JUMPDEST JUMPDEST PUSH0 PUSH2 0x16C8 DUP6 DUP3 DUP7 ADD PUSH2 0x1342 JUMP JUMPDEST SWAP3 POP POP PUSH1 0x20 PUSH2 0x16D9 DUP6 DUP3 DUP7 ADD PUSH2 0x1342 JUMP JUMPDEST SWAP2 POP POP SWAP3 POP SWAP3 SWAP1 POP JUMP JUMPDEST PUSH0 PUSH1 0x20 DUP3 DUP5 SUB SLT ISZERO PUSH2 0x16F8 JUMPI PUSH2 0x16F7 PUSH2 0x131B JUMP JUMPDEST JUMPDEST PUSH0 PUSH2 0x1705 DUP5 DUP3 DUP6 ADD PUSH2 0x13BF JUMP JUMPDEST SWAP2 POP POP SWAP3 SWAP2 POP POP JUMP JUMPDEST PUSH2 0x1717 DUP2 PUSH2 0x15CE JUMP JUMPDEST DUP3 MSTORE POP POP JUMP JUMPDEST PUSH0 PUSH1 0x60 DUP3 ADD SWAP1 POP PUSH2 0x1730 PUSH0 DUP4 ADD DUP7 PUSH2 0x12EA JUMP JUMPDEST PUSH2 0x173D PUSH1 0x20 DUP4 ADD DUP6 PUSH2 0x170E JUMP JUMPDEST PUSH2 0x174A PUSH1 0x40 DUP4 ADD DUP5 PUSH2 0x1661 JUMP JUMPDEST SWAP5 SWAP4 POP POP POP POP JUMP JUMPDEST PUSH0 DUP1 PUSH1 0x40 DUP4 DUP6 SUB SLT ISZERO PUSH2 0x1768 JUMPI PUSH2 0x1767 PUSH2 0x131B JUMP JUMPDEST JUMPDEST PUSH0 PUSH2 0x1775 DUP6 DUP3 DUP7 ADD PUSH2 0x13BF JUMP JUMPDEST SWAP3 POP POP PUSH1 0x20 DUP4 ADD CALLDATALOAD PUSH8 0xFFFFFFFFFFFFFFFF DUP2 GT ISZERO PUSH2 0x1796 JUMPI PUSH2 0x1795 PUSH2 0x131F JUMP JUMPDEST JUMPDEST PUSH2 0x17A2 DUP6 DUP3 DUP7 ADD PUSH2 0x14E2 JUMP JUMPDEST SWAP2 POP POP SWAP3 POP SWAP3 SWAP1 POP JUMP JUMPDEST PUSH0 DUP1 PUSH1 0x40 DUP4 DUP6 SUB SLT ISZERO PUSH2 0x17C2 JUMPI PUSH2 0x17C1 PUSH2 0x131B JUMP JUMPDEST JUMPDEST PUSH0 PUSH2 0x17CF DUP6 DUP3 DUP7 ADD PUSH2 0x1342 JUMP JUMPDEST SWAP3 POP POP PUSH1 0x20 PUSH2 0x17E0 DUP6 DUP3 DUP7 ADD PUSH2 0x13BF JUMP JUMPDEST SWAP2 POP POP SWAP3 POP SWAP3 SWAP1 POP JUMP JUMPDEST PUSH32 0x4E487B7100000000000000000000000000000000000000000000000000000000 PUSH0 MSTORE PUSH1 0x11 PUSH1 0x4 MSTORE PUSH1 0x24 PUSH0 REVERT JUMPDEST PUSH0 PUSH2 0x1821 DUP3 PUSH2 0x12E1 JUMP JUMPDEST SWAP2 POP PUSH2 0x182C DUP4 PUSH2 0x12E1 JUMP JUMPDEST SWAP3 POP DUP3 DUP3 ADD SWAP1 POP DUP1 DUP3 GT ISZERO PUSH2 0x1844 JUMPI PUSH2 0x1843 PUSH2 0x17EA JUMP JUMPDEST JUMPDEST SWAP3 SWAP2 POP POP JUMP JUMPDEST PUSH0 PUSH2 0x1854 DUP3 PUSH2 0x12E1 JUMP JUMPDEST SWAP2 POP PUSH32 0xFFFFFFFFFFFFFFFFFFFFFFFFFFFFFFFFFFFFFFFFFFFFFFFFFFFFFFFFFFFFFFFF DUP3 SUB PUSH2 0x1886 JUMPI PUSH2 0x1885 PUSH2 0x17EA JUMP JUMPDEST JUMPDEST PUSH1 0x1 DUP3 ADD SWAP1 POP SWAP2 SWAP1 POP JUMP JUMPDEST PUSH0 PUSH1 0x40 DUP3 ADD SWAP1 POP PUSH2 0x18A4 PUSH0 DUP4 ADD DUP6 PUSH2 0x170E JUMP JUMPDEST PUSH2 0x18B1 PUSH1 0x20 DUP4 ADD DUP5 PUSH2 0x12EA JUMP JUMPDEST SWAP4 SWAP3 POP POP POP JUMP JUMPDEST PUSH0 DUP2 PUSH1 0x60 SHL SWAP1 POP SWAP2 SWAP1 POP JUMP JUMPDEST PUSH0 PUSH2 0x18CE DUP3 PUSH2 0x18B8 JUMP JUMPDEST SWAP1 POP SWAP2 SWAP1 POP JUMP JUMPDEST PUSH0 PUSH2 0x18DF DUP3 PUSH2 0x18C4 JUMP JUMPDEST SWAP1 POP SWAP2 SWAP1 POP JUMP JUMPDEST PUSH2 0x18F7 PUSH2 0x18F2 DUP3 PUSH2 0x15CE JUMP JUMPDEST PUSH2 0x18D5 JUMP JUMPDEST DUP3 MSTORE POP POP JUMP JUMPDEST PUSH0 DUP2 SWAP1 POP SWAP2 SWAP1 POP JUMP JUMPDEST PUSH2 0x1917 PUSH2 0x1912 DUP3 PUSH2 0x1323 JUMP JUMPDEST PUSH2 0x18FD JUMP JUMPDEST DUP3 MSTORE POP POP JUMP JUMPDEST PUSH0 PUSH2 0x1928 DUP3 DUP6 PUSH2 0x18E6 JUMP JUMPDEST PUSH1 0x14 DUP3 ADD SWAP2 POP PUSH2 0x1938 DUP3 DUP5 PUSH2 0x1906 JUMP JUMPDEST PUSH1 0x20 DUP3 ADD SWAP2 POP DUP2 SWAP1 POP SWAP4 SWAP3 POP POP POP JUMP JUMPDEST PUSH0 DUP2 MLOAD SWAP1 POP SWAP2 SWAP1 POP JUMP JUMPDEST PUSH0 DUP2 SWAP1 POP SWAP3 SWAP2 POP POP JUMP JUMPDEST PUSH0 JUMPDEST DUP4 DUP2 LT ISZERO PUSH2 0x1979 JUMPI DUP1 DUP3 ADD MLOAD DUP2 DUP5 ADD MSTORE PUSH1 0x20 DUP2 ADD SWAP1 POP PUSH2 0x195E JUMP JUMPDEST PUSH0 DUP5 DUP5 ADD MSTORE POP POP POP POP JUMP JUMPDEST PUSH0 PUSH2 0x198E DUP3 PUSH2 0x1948 JUMP JUMPDEST PUSH2 0x1998 DUP2 DUP6 PUSH2 0x1952 JUMP JUMPDEST SWAP4 POP PUSH2 0x19A8 DUP2 DUP6 PUSH1 0x20 DUP7 ADD PUSH2 0x195C JUMP JUMPDEST DUP1 DUP5 ADD SWAP2 POP POP SWAP3 SWAP2 POP POP JUMP JUMPDEST PUSH0 PUSH2 0x19BF DUP3 DUP5 PUSH2 0x1984 JUMP JUMPDEST SWAP2 POP DUP2 SWAP1 POP SWAP3 SWAP2 POP POP JUMP JUMPDEST PUSH0 DUP2 MLOAD SWAP1 POP SWAP2 SWAP1 POP JUMP JUMPDEST PUSH0 DUP2 SWAP1 POP PUSH1 0x20 DUP3 ADD SWAP1 POP SWAP2 SWAP1 POP JUMP JUMPDEST PUSH0 PUSH2 0x19EE DUP3 MLOAD PUSH2 0x1323 JUMP JUMPDEST DUP1 SWAP2 POP POP SWAP2 SWAP1 POP JUMP JUMPDEST PUSH0 DUP3 DUP3 SHL SWAP1 POP SWAP3 SWAP2 POP POP JUMP JUMPDEST PUSH0 PUSH2 0x1A0D DUP3 PUSH2 0x19CA JUMP JUMPDEST DUP3 PUSH2 0x1A17 DUP5 PUSH2 0x19D4 JUMP JUMPDEST SWAP1 POP PUSH2 0x1A22 DUP2 PUSH2 0x19E3 JUMP JUMPDEST SWAP3 POP PUSH1 0x20 DUP3 LT ISZERO PUSH2 0x1A62 JUMPI PUSH2 0x1A5D PUSH32 0xFFFFFFFFFFFFFFFFFFFFFFFFFFFFFFFFFFFFFFFFFFFFFFFFFFFFFFFFFFFFFFFF DUP4 PUSH1 0x20 SUB PUSH1 0x8 MUL PUSH2 0x19F7 JUMP JUMPDEST DUP4 AND SWAP3 POP JUMPDEST POP POP SWAP2 SWAP1 POP JUMP JUMPDEST PUSH0 DUP2 SWAP1 POP SWAP2 SWAP1 POP JUMP JUMPDEST PUSH2 0x1A83 PUSH2 0x1A7E DUP3 PUSH2 0x12E1 JUMP JUMPDEST PUSH2 0x1A69 JUMP JUMPDEST DUP3 MSTORE POP POP JUMP JUMPDEST PUSH0 PUSH2 0x1A94 DUP3 DUP5 PUSH2 0x1A72 JUMP JUMPDEST PUSH1 0x20 DUP3 ADD SWAP2 POP DUP2 SWAP1 POP SWAP3 SWAP2 POP POP JUMP JUMPDEST PUSH0 DUP3 DUP3 MSTORE PUSH1 0x20 DUP3 ADD SWAP1 POP SWAP3 SWAP2 POP POP JUMP JUMPDEST PUSH32 0x436F6D6D697452657665616C3A3A72657665616C3A20416C7265616479207265 PUSH0 DUP3 ADD MSTORE PUSH32 0x7665616C65640000000000000000000000000000000000000000000000000000 PUSH1 0x20 DUP3 ADD MSTORE POP JUMP JUMPDEST PUSH0 PUSH2 0x1B0D PUSH1 0x26 DUP4 PUSH2 0x1AA3 JUMP JUMPDEST SWAP2 POP PUSH2 0x1B18 DUP3 PUSH2 0x1AB3 JUMP JUMPDEST PUSH1 0x40 DUP3 ADD SWAP1 POP SWAP2 SWAP1 POP JUMP JUMPDEST PUSH0 PUSH1 0x20 DUP3 ADD SWAP1 POP DUP2 DUP2 SUB PUSH0 DUP4 ADD MSTORE PUSH2 0x1B3A DUP2 PUSH2 0x1B01 JUMP JUMPDEST SWAP1 POP SWAP2 SWAP1 POP JUMP JUMPDEST PUSH32 0x436F6D6D697452657665616C3A3A72657665616C3A2052657665616C65642068 PUSH0 DUP3 ADD MSTORE PUSH32 0x61736820646F6573206E6F74206D6174636820636F6D6D697400000000000000 PUSH1 0x20 DUP3 ADD MSTORE POP JUMP JUMPDEST PUSH0 PUSH2 0x1B9B PUSH1 0x39 DUP4 PUSH2 0x1AA3 JUMP JUMPDEST SWAP2 POP PUSH2 0x1BA6 DUP3 PUSH2 0x1B41 JUMP JUMPDEST PUSH1 0x40 DUP3 ADD SWAP1 POP SWAP2 SWAP1 POP JUMP JUMPDEST PUSH0 PUSH1 0x20 DUP3 ADD SWAP1 POP DUP2 DUP2 SUB PUSH0 DUP4 ADD MSTORE PUSH2 0x1BC8 DUP2 PUSH2 0x1B8F JUMP JUMPDEST SWAP1 POP SWAP2 SWAP1 POP JUMP JUMPDEST PUSH32 0x436F6D6D697452657665616C3A3A72657665616C3A2052657665616C20616E64 PUSH0 DUP3 ADD MSTORE PUSH32 0x20636F6D6D69742068617070656E6564206F6E207468652073616D6520626C6F PUSH1 0x20 DUP3 ADD MSTORE PUSH32 0x636B000000000000000000000000000000000000000000000000000000000000 PUSH1 0x40 DUP3 ADD MSTORE POP JUMP JUMPDEST PUSH0 PUSH2 0x1C4F PUSH1 0x42 DUP4 PUSH2 0x1AA3 JUMP JUMPDEST SWAP2 POP PUSH2 0x1C5A DUP3 PUSH2 0x1BCF JUMP JUMPDEST PUSH1 0x60 DUP3 ADD SWAP1 POP SWAP2 SWAP1 POP JUMP JUMPDEST PUSH0 PUSH1 0x20 DUP3 ADD SWAP1 POP DUP2 DUP2 SUB PUSH0 DUP4 ADD MSTORE PUSH2 0x1C7C DUP2 PUSH2 0x1C43 JUMP JUMPDEST SWAP1 POP SWAP2 SWAP1 POP JUMP JUMPDEST PUSH0 PUSH2 0x1C8D DUP3 PUSH2 0x1634 JUMP JUMPDEST SWAP2 POP PUSH2 0x1C98 DUP4 PUSH2 0x1634 JUMP JUMPDEST SWAP3 POP DUP3 DUP3 ADD SWAP1 POP PUSH8 0xFFFFFFFFFFFFFFFF DUP2 GT ISZERO PUSH2 0x1CB8 JUMPI PUSH2 0x1CB7 PUSH2 0x17EA JUMP JUMPDEST JUMPDEST SWAP3 SWAP2 POP POP JUMP JUMPDEST PUSH32 0x436F6D6D697452657665616C3A3A72657665616C3A2052657665616C65642074 PUSH0 DUP3 ADD MSTORE PUSH32 0x6F6F206C61746500000000000000000000000000000000000000000000000000 PUSH1 0x20 DUP3 ADD MSTORE POP JUMP JUMPDEST PUSH0 PUSH2 0x1D18 PUSH1 0x27 DUP4 PUSH2 0x1AA3 JUMP JUMPDEST SWAP2 POP PUSH2 0x1D23 DUP3 PUSH2 0x1CBE JUMP JUMPDEST PUSH1 0x40 DUP3 ADD SWAP1 POP SWAP2 SWAP1 POP JUMP JUMPDEST PUSH0 PUSH1 0x20 DUP3 ADD SWAP1 POP DUP2 DUP2 SUB PUSH0 DUP4 ADD MSTORE PUSH2 0x1D45 DUP2 PUSH2 0x1D0C JUMP JUMPDEST SWAP1 POP SWAP2 SWAP1 POP JUMP JUMPDEST PUSH0 PUSH2 0x1D57 DUP3 DUP6 PUSH2 0x1906 JUMP JUMPDEST PUSH1 0x20 DUP3 ADD SWAP2 POP PUSH2 0x1D67 DUP3 DUP5 PUSH2 0x1906 JUMP JUMPDEST PUSH1 0x20 DUP3 ADD SWAP2 POP DUP2 SWAP1 POP SWAP4 SWAP3 POP POP POP JUMP JUMPDEST PUSH32 0x4E487B7100000000000000000000000000000000000000000000000000000000 PUSH0 MSTORE PUSH1 0x12 PUSH1 0x4 MSTORE PUSH1 0x24 PUSH0 REVERT JUMPDEST PUSH0 PUSH2 0x1DAE DUP3 PUSH2 0x12E1 JUMP JUMPDEST SWAP2 POP PUSH2 0x1DB9 DUP4 PUSH2 0x12E1 JUMP JUMPDEST SWAP3 POP DUP3 PUSH2 0x1DC9 JUMPI PUSH2 0x1DC8 PUSH2 0x1D77 JUMP JUMPDEST JUMPDEST DUP3 DUP3 MOD SWAP1 POP SWAP3 SWAP2 POP POP JUMP JUMPDEST PUSH0 PUSH1 0x60 DUP3 ADD SWAP1 POP PUSH2 0x1DE7 PUSH0 DUP4 ADD DUP7 PUSH2 0x170E JUMP JUMPDEST PUSH2 0x1DF4 PUSH1 0x20 DUP4 ADD DUP6 PUSH2 0x1381 JUMP JUMPDEST PUSH2 0x1E01 PUSH1 0x40 DUP4 ADD DUP5 PUSH2 0x12EA JUMP JUMPDEST SWAP5 SWAP4 POP POP POP POP JUMP JUMPDEST PUSH0 PUSH2 0x1E14 DUP3 DUP7 PUSH2 0x18E6 JUMP JUMPDEST PUSH1 0x14 DUP3 ADD SWAP2 POP PUSH2 0x1E24 DUP3 DUP6 PUSH2 0x1906 JUMP JUMPDEST PUSH1 0x20 DUP3 ADD SWAP2 POP PUSH2 0x1E34 DUP3 DUP5 PUSH2 0x1906 JUMP JUMPDEST PUSH1 0x20 DUP3 ADD SWAP2 POP DUP2 SWAP1 POP SWAP5 SWAP4 POP POP POP POP JUMP JUMPDEST PUSH32 0x436F6D6D697452657665616C3A3A72657665616C416E737765723A20416C7265 PUSH0 DUP3 ADD MSTORE PUSH32 0x6164792072657665616C65640000000000000000000000000000000000000000 PUSH1 0x20 DUP3 ADD MSTORE POP JUMP JUMPDEST PUSH0 PUSH2 0x1E9F PUSH1 0x2C DUP4 PUSH2 0x1AA3 JUMP JUMPDEST SWAP2 POP PUSH2 0x1EAA DUP3 PUSH2 0x1E45 JUMP JUMPDEST PUSH1 0x40 DUP3 ADD SWAP1 POP SWAP2 SWAP1 POP JUMP JUMPDEST PUSH0 PUSH1 0x20 DUP3 ADD SWAP1 POP DUP2 DUP2 SUB PUSH0 DUP4 ADD MSTORE PUSH2 0x1ECC DUP2 PUSH2 0x1E93 JUMP JUMPDEST SWAP1 POP SWAP2 SWAP1 POP JUMP JUMPDEST PUSH32 0x436F6D6D697452657665616C3A3A72657665616C416E737765723A2052657665 PUSH0 DUP3 ADD MSTORE PUSH32 0x616C6564206861736820646F6573206E6F74206D6174636820636F6D6D697400 PUSH1 0x20 DUP3 ADD MSTORE POP JUMP JUMPDEST PUSH0 PUSH2 0x1F2D PUSH1 0x3F DUP4 PUSH2 0x1AA3 JUMP JUMPDEST SWAP2 POP PUSH2 0x1F38 DUP3 PUSH2 0x1ED3 JUMP JUMPDEST PUSH1 0x40 DUP3 ADD SWAP1 POP SWAP2 SWAP1 POP JUMP JUMPDEST PUSH0 PUSH1 0x20 DUP3 ADD SWAP1 POP DUP2 DUP2 SUB PUSH0 DUP4 ADD MSTORE PUSH2 0x1F5A DUP2 PUSH2 0x1F21 JUMP JUMPDEST SWAP1 POP SWAP2 SWAP1 POP JUMP JUMPDEST PUSH0 PUSH1 0x60 DUP3 ADD SWAP1 POP PUSH2 0x1F74 PUSH0 DUP4 ADD DUP7 PUSH2 0x170E JUMP JUMPDEST PUSH2 0x1F81 PUSH1 0x20 DUP4 ADD DUP6 PUSH2 0x1381 JUMP JUMPDEST PUSH2 0x1F8E PUSH1 0x40 DUP4 ADD DUP5 PUSH2 0x1381 JUMP JUMPDEST SWAP5 SWAP4 POP POP POP POP JUMP JUMPDEST PUSH0 PUSH1 0x60 DUP3 ADD SWAP1 POP PUSH2 0x1FA9 PUSH0 DUP4 ADD DUP7 PUSH2 0x170E JUMP JUMPDEST PUSH2 0x1FB6 PUSH1 0x20 DUP4 ADD DUP6 PUSH2 0x1381 JUMP JUMPDEST PUSH2 0x1FC3 PUSH1 0x40 DUP4 ADD DUP5 PUSH2 0x1647 JUMP JUMPDEST SWAP5 SWAP4 POP POP POP POP JUMP JUMPDEST PUSH0 PUSH2 0x1FD5 DUP3 PUSH2 0x12E1 JUMP JUMPDEST SWAP2 POP PUSH2 0x1FE0 DUP4 PUSH2 0x12E1 JUMP JUMPDEST SWAP3 POP DUP3 PUSH2 0x1FF0 JUMPI PUSH2 0x1FEF PUSH2 0x1D77 JUMP JUMPDEST JUMPDEST DUP3 DUP3 DIV SWAP1 POP SWAP3 SWAP2 POP POP JUMP INVALID LOG2 PUSH5 0x6970667358 0x22 SLT KECCAK256 0xCD STOP LOG0 0x25 0x21 0xCE POP SMOD TLOAD 0xF7 PUSH16 0x29940C8DDDD6B0F410067CAE5DF44F96 0xB3 BLOBHASH BASEFEE 0xAF DUP7 PUSH5 0x736F6C6343 STOP ADDMOD XOR STOP CALLER "
		},
		"gasEstimates": {
			"creation": {
				"codeDepositCost": "1648200",
				"executionCost": "46013",
				"totalCost": "1694213"
			},
			"external": {
				"addPlayer()": "infinite",
				"commit(bytes32)": "infinite",
				"commits(address)": "7459",
				"getBytes32(uint256,string)": "infinite",
				"getHash(bytes32)": "infinite",
				"getSaltedHash(bytes32,bytes32)": "infinite",
				"input(bytes32,uint256)": "infinite",
				"max()": "2508",
				"numInput()": "2449",
				"numPlayer()": "2470",
				"numReveal()": "2514",
				"player(uint256)": "infinite",
				"reveal(bytes32)": "infinite",
				"revealAnswer(bytes32,bytes32)": "infinite",
				"revealChoice(uint256,uint256,string)": "infinite",
				"reward()": "2471"
			},
			"internal": {
				"_checkWinnerAndPay()": "infinite",
				"_reset()": "20061"
			}
		},
		"methodIdentifiers": {
			"addPlayer()": "27b5db8a",
			"commit(bytes32)": "f14fcbc8",
			"commits(address)": "7b43a8e6",
			"getBytes32(uint256,string)": "d09a0a3b",
			"getHash(bytes32)": "3cf5040a",
			"getSaltedHash(bytes32,bytes32)": "8dddbf36",
			"input(bytes32,uint256)": "d1adbd72",
			"max()": "6ac5db19",
			"numInput()": "086f7815",
			"numPlayer()": "90d5d0c3",
			"numReveal()": "c876e615",
			"player(uint256)": "9e0551c6",
			"reveal(bytes32)": "701fd0f1",
			"revealAnswer(bytes32,bytes32)": "de8e9033",
			"revealChoice(uint256,uint256,string)": "5afa1fd8",
			"reward()": "228cb733"
		}
	},
	"abi": [
		{
			"anonymous": false,
			"inputs": [
				{
					"indexed": false,
					"internalType": "address",
					"name": "sender",
					"type": "address"
				},
				{
					"indexed": false,
					"internalType": "bytes32",
					"name": "dataHash",
					"type": "bytes32"
				},
				{
					"indexed": false,
					"internalType": "uint64",
					"name": "block",
					"type": "uint64"
				}
			],
			"name": "CommitHash",
			"type": "event"
		},
		{
			"anonymous": false,
			"inputs": [
				{
					"indexed": false,
					"internalType": "address",
					"name": "sender",
					"type": "address"
				},
				{
					"indexed": false,
					"internalType": "bytes32",
					"name": "answer",
					"type": "bytes32"
				},
				{
					"indexed": false,
					"internalType": "bytes32",
					"name": "salt",
					"type": "bytes32"
				}
			],
			"name": "RevealAnswer",
			"type": "event"
		},
		{
			"anonymous": false,
			"inputs": [
				{
					"indexed": false,
					"internalType": "address",
					"name": "sender",
					"type": "address"
				},
				{
					"indexed": false,
					"internalType": "bytes32",
					"name": "revealHash",
					"type": "bytes32"
				},
				{
					"indexed": false,
					"internalType": "uint256",
					"name": "random",
					"type": "uint256"
				}
			],
			"name": "RevealHash",
			"type": "event"
		},
		{
			"anonymous": false,
			"inputs": [
				{
					"indexed": false,
					"internalType": "address",
					"name": "sender",
					"type": "address"
				},
				{
					"indexed": false,
					"internalType": "uint256",
					"name": "numPlayer",
					"type": "uint256"
				}
			],
			"name": "playerAdded",
			"type": "event"
		},
		{
			"anonymous": false,
			"inputs": [
				{
					"indexed": false,
					"internalType": "address",
					"name": "sender",
					"type": "address"
				},
				{
					"indexed": false,
					"internalType": "uint256",
					"name": "numInput",
					"type": "uint256"
				}
			],
			"name": "playerCommitHashed",
			"type": "event"
		},
		{
			"inputs": [],
			"name": "addPlayer",
			"outputs": [],
			"stateMutability": "payable",
			"type": "function"
		},
		{
			"inputs": [
				{
					"internalType": "bytes32",
					"name": "dataHash",
					"type": "bytes32"
				}
			],
			"name": "commit",
			"outputs": [],
			"stateMutability": "nonpayable",
			"type": "function"
		},
		{
			"inputs": [
				{
					"internalType": "address",
					"name": "",
					"type": "address"
				}
			],
			"name": "commits",
			"outputs": [
				{
					"internalType": "bytes32",
					"name": "commit",
					"type": "bytes32"
				},
				{
					"internalType": "uint64",
					"name": "block",
					"type": "uint64"
				},
				{
					"internalType": "bool",
					"name": "revealed",
					"type": "bool"
				}
			],
			"stateMutability": "view",
			"type": "function"
		},
		{
			"inputs": [
				{
					"internalType": "uint256",
					"name": "choice",
					"type": "uint256"
				},
				{
					"internalType": "string",
					"name": "salt",
					"type": "string"
				}
			],
			"name": "getBytes32",
			"outputs": [
				{
					"internalType": "bytes32",
					"name": "",
					"type": "bytes32"
				}
			],
			"stateMutability": "view",
			"type": "function"
		},
		{
			"inputs": [
				{
					"internalType": "bytes32",
					"name": "data",
					"type": "bytes32"
				}
			],
			"name": "getHash",
			"outputs": [
				{
					"internalType": "bytes32",
					"name": "",
					"type": "bytes32"
				}
			],
			"stateMutability": "view",
			"type": "function"
		},
		{
			"inputs": [
				{
					"internalType": "bytes32",
					"name": "data",
					"type": "bytes32"
				},
				{
					"internalType": "bytes32",
					"name": "salt",
					"type": "bytes32"
				}
			],
			"name": "getSaltedHash",
			"outputs": [
				{
					"internalType": "bytes32",
					"name": "",
					"type": "bytes32"
				}
			],
			"stateMutability": "view",
			"type": "function"
		},
		{
			"inputs": [
				{
					"internalType": "bytes32",
					"name": "hashAns",
					"type": "bytes32"
				},
				{
					"internalType": "uint256",
					"name": "idx",
					"type": "uint256"
				}
			],
			"name": "input",
			"outputs": [],
			"stateMutability": "nonpayable",
			"type": "function"
		},
		{
			"inputs": [],
			"name": "max",
			"outputs": [
				{
					"internalType": "uint8",
					"name": "",
					"type": "uint8"
				}
			],
			"stateMutability": "view",
			"type": "function"
		},
		{
			"inputs": [],
			"name": "numInput",
			"outputs": [
				{
					"internalType": "uint256",
					"name": "",
					"type": "uint256"
				}
			],
			"stateMutability": "view",
			"type": "function"
		},
		{
			"inputs": [],
			"name": "numPlayer",
			"outputs": [
				{
					"internalType": "uint256",
					"name": "",
					"type": "uint256"
				}
			],
			"stateMutability": "view",
			"type": "function"
		},
		{
			"inputs": [],
			"name": "numReveal",
			"outputs": [
				{
					"internalType": "uint256",
					"name": "",
					"type": "uint256"
				}
			],
			"stateMutability": "view",
			"type": "function"
		},
		{
			"inputs": [
				{
					"internalType": "uint256",
					"name": "",
					"type": "uint256"
				}
			],
			"name": "player",
			"outputs": [
				{
					"internalType": "uint256",
					"name": "choice",
					"type": "uint256"
				},
				{
					"internalType": "address",
					"name": "addr",
					"type": "address"
				},
				{
					"internalType": "bool",
					"name": "isCommit",
					"type": "bool"
				}
			],
			"stateMutability": "view",
			"type": "function"
		},
		{
			"inputs": [
				{
					"internalType": "bytes32",
					"name": "revealHash",
					"type": "bytes32"
				}
			],
			"name": "reveal",
			"outputs": [],
			"stateMutability": "nonpayable",
			"type": "function"
		},
		{
			"inputs": [
				{
					"internalType": "bytes32",
					"name": "answer",
					"type": "bytes32"
				},
				{
					"internalType": "bytes32",
					"name": "salt",
					"type": "bytes32"
				}
			],
			"name": "revealAnswer",
			"outputs": [],
			"stateMutability": "nonpayable",
			"type": "function"
		},
		{
			"inputs": [
				{
					"internalType": "uint256",
					"name": "choice",
					"type": "uint256"
				},
				{
					"internalType": "uint256",
					"name": "idx",
					"type": "uint256"
				},
				{
					"internalType": "string",
					"name": "salt",
					"type": "string"
				}
			],
			"name": "revealChoice",
			"outputs": [],
			"stateMutability": "nonpayable",
			"type": "function"
		},
		{
			"inputs": [],
			"name": "reward",
			"outputs": [
				{
					"internalType": "uint256",
					"name": "",
					"type": "uint256"
				}
			],
			"stateMutability": "view",
			"type": "function"
		}
	]
}